{
  "_format": "hh-sol-artifact-1",
  "contractName": "WrapperV05",
  "sourceName": "contracts/libraries/WrapperV05.sol",
  "abi": [
    {
      "inputs": [
        {
          "internalType": "address",
          "name": "_stargateFeeLibraryV05",
          "type": "address"
        }
      ],
      "stateMutability": "nonpayable",
      "type": "constructor"
    },
    {
      "inputs": [
        {
          "internalType": "uint256",
          "name": "_poolId",
          "type": "uint256"
        }
      ],
      "name": "getPrice",
      "outputs": [
        {
          "components": [
            {
              "internalType": "address",
              "name": "priceFeedAddress",
              "type": "address"
            },
            {
              "internalType": "uint256",
              "name": "basePriceSD",
              "type": "uint256"
            },
            {
              "internalType": "uint256",
              "name": "currentPriceSD",
              "type": "uint256"
            },
            {
              "internalType": "enum IWrapperV05.PriceDeviationState",
              "name": "state",
              "type": "uint8"
            }
          ],
          "internalType": "struct IWrapperV05.Price",
          "name": "",
          "type": "tuple"
        }
      ],
      "stateMutability": "view",
      "type": "function"
    },
    {
      "inputs": [
        {
          "internalType": "uint256",
          "name": "_poolId",
          "type": "uint256"
        }
      ],
      "name": "shouldCallUpdateTokenPrice",
      "outputs": [
        {
          "internalType": "bool",
          "name": "",
          "type": "bool"
        }
      ],
      "stateMutability": "view",
      "type": "function"
    },
    {
      "inputs": [],
      "name": "stargateFeeLibraryV05",
      "outputs": [
        {
          "internalType": "contract IWrapperV05",
          "name": "",
          "type": "address"
        }
      ],
      "stateMutability": "view",
      "type": "function"
    }
  ],
  "bytecode": "0x608060405234801561001057600080fd5b5060405161059138038061059183398101604081905261002f91610054565b600080546001600160a01b0319166001600160a01b0392909216919091179055610082565b600060208284031215610065578081fd5b81516001600160a01b038116811461007b578182fd5b9392505050565b610500806100916000396000f3fe608060405234801561001057600080fd5b50600436106100415760003560e01c8063410b045014610046578063e75722301461006f578063eea0a0261461008f575b600080fd5b61005961005436600461042b565b6100a4565b6040516100669190610443565b60405180910390f35b61008261007d36600461042b565b610261565b604051610066919061046f565b610097610315565b604051610066919061044e565b600080546040517f5436ac17000000000000000000000000000000000000000000000000000000008152829173ffffffffffffffffffffffffffffffffffffffff1690635436ac17906100fb9086906004016104c1565b60806040518083038186803b15801561011357600080fd5b505afa158015610127573d6000803e3d6000fd5b505050506040513d601f19601f8201168201806040525081019061014b91906103a7565b6060810151600080546040517f89ca9256000000000000000000000000000000000000000000000000000000008152939450919290918291829173ffffffffffffffffffffffffffffffffffffffff16906389ca9256906101b0908a906004016104c1565b60606040518083038186803b1580156101c857600080fd5b505afa1580156101dc573d6000803e3d6000fd5b505050506040513d601f19601f820116820180604052508101906102009190610365565b92509250925083600281111561021257fe5b81600281111561021e57fe5b146102315760019550505050505061025c565b600181600281111561023f57fe5b141561025257829550505050505061025c565b6000955050505050505b919050565b610269610331565b6000546040517f5436ac1700000000000000000000000000000000000000000000000000000000815273ffffffffffffffffffffffffffffffffffffffff90911690635436ac17906102bf9085906004016104c1565b60806040518083038186803b1580156102d757600080fd5b505afa1580156102eb573d6000803e3d6000fd5b505050506040513d601f19601f8201168201806040525081019061030f91906103a7565b92915050565b60005473ffffffffffffffffffffffffffffffffffffffff1681565b6040805160808101825260008082526020820181905291810182905290606082015290565b80516003811061025c57600080fd5b600080600060608486031215610379578283fd5b83518015158114610388578384fd5b6020850151909350915061039e60408501610356565b90509250925092565b6000608082840312156103b8578081fd5b6040516080810181811067ffffffffffffffff821117156103d557fe5b604052825173ffffffffffffffffffffffffffffffffffffffff811681146103fb578283fd5b80825250602083015160208201526040830151604082015261041f60608401610356565b60608201529392505050565b60006020828403121561043c578081fd5b5035919050565b901515815260200190565b73ffffffffffffffffffffffffffffffffffffffff91909116815260200190565b600060808201905073ffffffffffffffffffffffffffffffffffffffff835116825260208301516020830152604083015160408301526060830151600381106104b457fe5b8060608401525092915050565b9081526020019056fea2646970667358221220d23602789550d17bdc361a93cac541e964bcfdebe84c690982024b0bad70f5c664736f6c63430007060033",
  "linkReferences": {},
  "deployedLinkReferences": {}
}