{
  "_format": "hh-sol-artifact-1",
  "contractName": "Bridge",
  "sourceName": "contracts/Bridge.sol",
  "abi": [
    {
      "inputs": [
        {
          "internalType": "address",
          "name": "_layerZeroEndpoint",
          "type": "address"
        },
        {
          "internalType": "address",
          "name": "_router",
          "type": "address"
        }
      ],
      "stateMutability": "nonpayable",
      "type": "constructor"
    },
    {
      "anonymous": false,
      "inputs": [
        {
          "indexed": true,
          "internalType": "address",
          "name": "previousOwner",
          "type": "address"
        },
        {
          "indexed": true,
          "internalType": "address",
          "name": "newOwner",
          "type": "address"
        }
      ],
      "name": "OwnershipTransferred",
      "type": "event"
    },
    {
      "anonymous": false,
      "inputs": [
        {
          "indexed": false,
          "internalType": "uint8",
          "name": "msgType",
          "type": "uint8"
        },
        {
          "indexed": false,
          "internalType": "uint64",
          "name": "nonce",
          "type": "uint64"
        }
      ],
      "name": "SendMsg",
      "type": "event"
    },
    {
      "inputs": [
        {
          "internalType": "address",
          "name": "token",
          "type": "address"
        },
        {
          "internalType": "address",
          "name": "spender",
          "type": "address"
        },
        {
          "internalType": "uint256",
          "name": "amount",
          "type": "uint256"
        }
      ],
      "name": "approveTokenSpender",
      "outputs": [],
      "stateMutability": "nonpayable",
      "type": "function"
    },
    {
      "inputs": [
        {
          "internalType": "uint16",
          "name": "",
          "type": "uint16"
        }
      ],
      "name": "bridgeLookup",
      "outputs": [
        {
          "internalType": "bytes",
          "name": "",
          "type": "bytes"
        }
      ],
      "stateMutability": "view",
      "type": "function"
    },
    {
      "inputs": [
        {
          "internalType": "uint16",
          "name": "_srcChainId",
          "type": "uint16"
        },
        {
          "internalType": "bytes",
          "name": "_srcAddress",
          "type": "bytes"
        }
      ],
      "name": "forceResumeReceive",
      "outputs": [],
      "stateMutability": "nonpayable",
      "type": "function"
    },
    {
      "inputs": [
        {
          "internalType": "uint16",
          "name": "",
          "type": "uint16"
        },
        {
          "internalType": "uint8",
          "name": "",
          "type": "uint8"
        }
      ],
      "name": "gasLookup",
      "outputs": [
        {
          "internalType": "uint256",
          "name": "",
          "type": "uint256"
        }
      ],
      "stateMutability": "view",
      "type": "function"
    },
    {
      "inputs": [],
      "name": "layerZeroEndpoint",
      "outputs": [
        {
          "internalType": "contract ILayerZeroEndpoint",
          "name": "",
          "type": "address"
        }
      ],
      "stateMutability": "view",
      "type": "function"
    },
    {
      "inputs": [
        {
          "internalType": "uint16",
          "name": "_srcChainId",
          "type": "uint16"
        },
        {
          "internalType": "bytes",
          "name": "_srcAddress",
          "type": "bytes"
        },
        {
          "internalType": "uint64",
          "name": "_nonce",
          "type": "uint64"
        },
        {
          "internalType": "bytes",
          "name": "_payload",
          "type": "bytes"
        }
      ],
      "name": "lzReceive",
      "outputs": [],
      "stateMutability": "nonpayable",
      "type": "function"
    },
    {
      "inputs": [],
      "name": "owner",
      "outputs": [
        {
          "internalType": "address",
          "name": "",
          "type": "address"
        }
      ],
      "stateMutability": "view",
      "type": "function"
    },
    {
      "inputs": [
        {
          "internalType": "uint16",
          "name": "_chainId",
          "type": "uint16"
        },
        {
          "internalType": "uint8",
          "name": "_functionType",
          "type": "uint8"
        },
        {
          "internalType": "bytes",
          "name": "_toAddress",
          "type": "bytes"
        },
        {
          "internalType": "bytes",
          "name": "_transferAndCallPayload",
          "type": "bytes"
        },
        {
          "components": [
            {
              "internalType": "uint256",
              "name": "dstGasForCall",
              "type": "uint256"
            },
            {
              "internalType": "uint256",
              "name": "dstNativeAmount",
              "type": "uint256"
            },
            {
              "internalType": "bytes",
              "name": "dstNativeAddr",
              "type": "bytes"
            }
          ],
          "internalType": "struct IStargateRouter.lzTxObj",
          "name": "_lzTxParams",
          "type": "tuple"
        }
      ],
      "name": "quoteLayerZeroFee",
      "outputs": [
        {
          "internalType": "uint256",
          "name": "",
          "type": "uint256"
        },
        {
          "internalType": "uint256",
          "name": "",
          "type": "uint256"
        }
      ],
      "stateMutability": "view",
      "type": "function"
    },
    {
      "inputs": [
        {
          "internalType": "uint16",
          "name": "_chainId",
          "type": "uint16"
        },
        {
          "internalType": "uint256",
          "name": "_srcPoolId",
          "type": "uint256"
        },
        {
          "internalType": "uint256",
          "name": "_dstPoolId",
          "type": "uint256"
        },
        {
          "internalType": "address payable",
          "name": "_refundAddress",
          "type": "address"
        },
        {
          "components": [
            {
              "internalType": "uint256",
              "name": "credits",
              "type": "uint256"
            },
            {
              "internalType": "uint256",
              "name": "idealBalance",
              "type": "uint256"
            }
          ],
          "internalType": "struct Pool.CreditObj",
          "name": "_c",
          "type": "tuple"
        },
        {
          "internalType": "uint256",
          "name": "_amountSD",
          "type": "uint256"
        },
        {
          "internalType": "bytes",
          "name": "_to",
          "type": "bytes"
        },
        {
          "components": [
            {
              "internalType": "uint256",
              "name": "dstGasForCall",
              "type": "uint256"
            },
            {
              "internalType": "uint256",
              "name": "dstNativeAmount",
              "type": "uint256"
            },
            {
              "internalType": "bytes",
              "name": "dstNativeAddr",
              "type": "bytes"
            }
          ],
          "internalType": "struct IStargateRouter.lzTxObj",
          "name": "_lzTxParams",
          "type": "tuple"
        }
      ],
      "name": "redeemLocal",
      "outputs": [],
      "stateMutability": "payable",
      "type": "function"
    },
    {
      "inputs": [
        {
          "internalType": "uint16",
          "name": "_chainId",
          "type": "uint16"
        },
        {
          "internalType": "address payable",
          "name": "_refundAddress",
          "type": "address"
        },
        {
          "components": [
            {
              "internalType": "uint256",
              "name": "credits",
              "type": "uint256"
            },
            {
              "internalType": "uint256",
              "name": "idealBalance",
              "type": "uint256"
            }
          ],
          "internalType": "struct Pool.CreditObj",
          "name": "_c",
          "type": "tuple"
        },
        {
          "components": [
            {
              "internalType": "uint256",
              "name": "dstGasForCall",
              "type": "uint256"
            },
            {
              "internalType": "uint256",
              "name": "dstNativeAmount",
              "type": "uint256"
            },
            {
              "internalType": "bytes",
              "name": "dstNativeAddr",
              "type": "bytes"
            }
          ],
          "internalType": "struct IStargateRouter.lzTxObj",
          "name": "_lzTxParams",
          "type": "tuple"
        },
        {
          "internalType": "bytes",
          "name": "_payload",
          "type": "bytes"
        }
      ],
      "name": "redeemLocalCallback",
      "outputs": [],
      "stateMutability": "payable",
      "type": "function"
    },
    {
      "inputs": [],
      "name": "renounceOwnership",
      "outputs": [],
      "stateMutability": "nonpayable",
      "type": "function"
    },
    {
      "inputs": [],
      "name": "router",
      "outputs": [
        {
          "internalType": "contract Router",
          "name": "",
          "type": "address"
        }
      ],
      "stateMutability": "view",
      "type": "function"
    },
    {
      "inputs": [
        {
          "internalType": "uint16",
          "name": "_chainId",
          "type": "uint16"
        },
        {
          "internalType": "uint256",
          "name": "_srcPoolId",
          "type": "uint256"
        },
        {
          "internalType": "uint256",
          "name": "_dstPoolId",
          "type": "uint256"
        },
        {
          "internalType": "address payable",
          "name": "_refundAddress",
          "type": "address"
        },
        {
          "components": [
            {
              "internalType": "uint256",
              "name": "credits",
              "type": "uint256"
            },
            {
              "internalType": "uint256",
              "name": "idealBalance",
              "type": "uint256"
            }
          ],
          "internalType": "struct Pool.CreditObj",
          "name": "_c",
          "type": "tuple"
        }
      ],
      "name": "sendCredits",
      "outputs": [],
      "stateMutability": "payable",
      "type": "function"
    },
    {
      "inputs": [
        {
          "internalType": "uint16",
          "name": "_chainId",
          "type": "uint16"
        },
        {
          "internalType": "bytes",
          "name": "_bridgeAddress",
          "type": "bytes"
        }
      ],
      "name": "setBridge",
      "outputs": [],
      "stateMutability": "nonpayable",
      "type": "function"
    },
    {
      "inputs": [
        {
          "internalType": "uint16",
          "name": "_version",
          "type": "uint16"
        },
        {
          "internalType": "uint16",
          "name": "_chainId",
          "type": "uint16"
        },
        {
          "internalType": "uint256",
          "name": "_configType",
          "type": "uint256"
        },
        {
          "internalType": "bytes",
          "name": "_config",
          "type": "bytes"
        }
      ],
      "name": "setConfig",
      "outputs": [],
      "stateMutability": "nonpayable",
      "type": "function"
    },
    {
      "inputs": [
        {
          "internalType": "uint16",
          "name": "_chainId",
          "type": "uint16"
        },
        {
          "internalType": "uint8",
          "name": "_functionType",
          "type": "uint8"
        },
        {
          "internalType": "uint256",
          "name": "_gasAmount",
          "type": "uint256"
        }
      ],
      "name": "setGasAmount",
      "outputs": [],
      "stateMutability": "nonpayable",
      "type": "function"
    },
    {
      "inputs": [
        {
          "internalType": "uint16",
          "name": "version",
          "type": "uint16"
        }
      ],
      "name": "setReceiveVersion",
      "outputs": [],
      "stateMutability": "nonpayable",
      "type": "function"
    },
    {
      "inputs": [
        {
          "internalType": "uint16",
          "name": "version",
          "type": "uint16"
        }
      ],
      "name": "setSendVersion",
      "outputs": [],
      "stateMutability": "nonpayable",
      "type": "function"
    },
    {
      "inputs": [
        {
          "internalType": "bool",
          "name": "enable",
          "type": "bool"
        }
      ],
      "name": "setUseLayerZeroToken",
      "outputs": [],
      "stateMutability": "nonpayable",
      "type": "function"
    },
    {
      "inputs": [
        {
          "internalType": "uint16",
          "name": "_chainId",
          "type": "uint16"
        },
        {
          "internalType": "uint256",
          "name": "_srcPoolId",
          "type": "uint256"
        },
        {
          "internalType": "uint256",
          "name": "_dstPoolId",
          "type": "uint256"
        },
        {
          "internalType": "address payable",
          "name": "_refundAddress",
          "type": "address"
        },
        {
          "components": [
            {
              "internalType": "uint256",
              "name": "credits",
              "type": "uint256"
            },
            {
              "internalType": "uint256",
              "name": "idealBalance",
              "type": "uint256"
            }
          ],
          "internalType": "struct Pool.CreditObj",
          "name": "_c",
          "type": "tuple"
        },
        {
          "components": [
            {
              "internalType": "uint256",
              "name": "amount",
              "type": "uint256"
            },
            {
              "internalType": "uint256",
              "name": "eqFee",
              "type": "uint256"
            },
            {
              "internalType": "uint256",
              "name": "eqReward",
              "type": "uint256"
            },
            {
              "internalType": "uint256",
              "name": "lpFee",
              "type": "uint256"
            },
            {
              "internalType": "uint256",
              "name": "protocolFee",
              "type": "uint256"
            },
            {
              "internalType": "uint256",
              "name": "lkbRemove",
              "type": "uint256"
            }
          ],
          "internalType": "struct Pool.SwapObj",
          "name": "_s",
          "type": "tuple"
        },
        {
          "components": [
            {
              "internalType": "uint256",
              "name": "dstGasForCall",
              "type": "uint256"
            },
            {
              "internalType": "uint256",
              "name": "dstNativeAmount",
              "type": "uint256"
            },
            {
              "internalType": "bytes",
              "name": "dstNativeAddr",
              "type": "bytes"
            }
          ],
          "internalType": "struct IStargateRouter.lzTxObj",
          "name": "_lzTxParams",
          "type": "tuple"
        },
        {
          "internalType": "bytes",
          "name": "_to",
          "type": "bytes"
        },
        {
          "internalType": "bytes",
          "name": "_payload",
          "type": "bytes"
        }
      ],
      "name": "swap",
      "outputs": [],
      "stateMutability": "payable",
      "type": "function"
    },
    {
      "inputs": [
        {
          "internalType": "address",
          "name": "newOwner",
          "type": "address"
        }
      ],
      "name": "transferOwnership",
      "outputs": [],
      "stateMutability": "nonpayable",
      "type": "function"
    },
    {
      "inputs": [],
      "name": "useLayerZeroToken",
      "outputs": [
        {
          "internalType": "bool",
          "name": "",
          "type": "bool"
        }
      ],
      "stateMutability": "view",
      "type": "function"
    }
  ],
  "bytecode": "0x60c06040523480156200001157600080fd5b5060405162003a0a38038062003a0a833981016040819052620000349162000125565b60006200004062000104565b600080546001600160a01b0319166001600160a01b0383169081178255604051929350917f8be0079c531659141344cd1fd0a4f28419497f9722a3daafe3b4186f6b6457e0908290a3506001600160a01b038216620000bc5760405162461bcd60e51b8152600401620000b39062000193565b60405180910390fd5b6001600160a01b038116620000e55760405162461bcd60e51b8152600401620000b3906200015c565b6001600160601b0319606092831b8116608052911b1660a052620001dd565b3390565b80516001600160a01b03811681146200012057600080fd5b919050565b6000806040838503121562000138578182fd5b620001438362000108565b9150620001536020840162000108565b90509250929050565b6020808252601f908201527f53746172676174653a205f726f757465722063616e6e6f742062652030783000604082015260600190565b6020808252602a908201527f53746172676174653a205f6c617965725a65726f456e64706f696e742063616e60408201526906e6f74206265203078360b41b606082015260800190565b60805160601c60a05160601c6137a46200026660003980610580528061061152806106e552806107bd5280610887528061093f5280610a095280610f9352806112ea528061153552806116175280611c225250806104335280610aaa5280610bb15280610d915280610f46528061111a52806118bb5280611e145280611f1452506137a46000f3fe6080604052600436106101745760003560e01c80638c7ae0fc116100cb578063c213dc2b1161007f578063f2fde38b11610059578063f2fde38b146103c6578063f887ea40146103e6578063fc869108146103fb57610174565b8063c213dc2b14610366578063cbed8b9c14610386578063d7d3c3b9146103a657610174565b80638e3b5d6a116100b05780638e3b5d6a1461031357806396aae4af14610340578063be9d40ac1461035357610174565b80638c7ae0fc146102dc5780638da5cb5b146102fe57610174565b806310ddb1371161012d57806343b180091161010757806343b180091461029457806351156e73146102b4578063715018a6146102c757610174565b806310ddb137146102415780633cef94b91461026157806342d65a8d1461027457610174565b806307968db11161015e57806307968db1146101d157806307e0db17146101f35780630a5123691461021357610174565b80621d356714610179578063024220541461019b575b600080fd5b34801561018557600080fd5b50610199610194366004612572565b61041b565b005b3480156101a757600080fd5b506101bb6101b636600461286c565b610a8b565b6040516101c8919061340e565b60405180910390f35b3480156101dd57600080fd5b506101e6610aa8565b6040516101c89190612ea0565b3480156101ff57600080fd5b5061019961020e366004612471565b610acc565b34801561021f57600080fd5b5061023361022e3660046128a2565b610c14565b6040516101c8929190613417565b34801561024d57600080fd5b5061019961025c366004612471565b610e61565b61019961026f3660046127b3565b610f7b565b34801561028057600080fd5b5061019961028f366004612521565b611035565b3480156102a057600080fd5b506101996102af366004612521565b61118a565b6101996102c23660046126be565b6112d2565b3480156102d357600080fd5b50610199611396565b3480156102e857600080fd5b506102f1611440565b6040516101c89190612ee7565b34801561030a57600080fd5b506101e6611449565b34801561031f57600080fd5b5061033361032e366004612471565b611465565b6040516101c89190612ef2565b61019961034e36600461248b565b61151d565b610199610361366004612665565b6115ff565b34801561037257600080fd5b50610199610381366004612439565b6116fd565b34801561039257600080fd5b506101996103a13660046125f8565b6117d6565b3480156103b257600080fd5b506101996103c13660046123f9565b611931565b3480156103d257600080fd5b506101996103e13660046123dd565b611a7f565b3480156103f257600080fd5b506101e6611c20565b34801561040757600080fd5b50610199610416366004612955565b611c44565b3373ffffffffffffffffffffffffffffffffffffffff7f00000000000000000000000000000000000000000000000000000000000000001614610493576040517f08c379a000000000000000000000000000000000000000000000000000000000815260040161048a90612f3c565b60405180910390fd5b600160008561ffff1661ffff1681526020019081526020016000208054600181600116156101000203166002900490508351148015610500575061ffff84166000908152600160205260409081902090516104ee9190612d84565b60405180910390208380519060200120145b610536576040517f08c379a000000000000000000000000000000000000000000000000000000000815260040161048a90612fd0565b602081015160ff8116600114156106b7576000806000806000806000888060200190518101906105669190612aff565b9750975097509750975097509750506000601483015190507f000000000000000000000000000000000000000000000000000000000000000073ffffffffffffffffffffffffffffffffffffffff1663a18fa8048e8a8a896040518563ffffffff1660e01b81526004016105dd94939291906133e8565b600060405180830381600087803b1580156105f757600080fd5b505af115801561060b573d6000803e3d6000fd5b505050507f000000000000000000000000000000000000000000000000000000000000000073ffffffffffffffffffffffffffffffffffffffff16632f9255558e8e8e8c8c8c888c8b6040518a63ffffffff1660e01b8152600401610678999897969594939291906131c9565b600060405180830381600087803b15801561069257600080fd5b505af11580156106a6573d6000803e3d6000fd5b505050505050505050505050610a84565b60ff81166002141561077c576000806000848060200190518101906106dc91906129c1565b935093509350507f000000000000000000000000000000000000000000000000000000000000000073ffffffffffffffffffffffffffffffffffffffff1663a18fa804898585856040518563ffffffff1660e01b815260040161074294939291906133e8565b600060405180830381600087803b15801561075c57600080fd5b505af1158015610770573d6000803e3d6000fd5b50505050505050610a84565b60ff81166003141561090a57600080600080600080878060200190518101906107a59190612a86565b965096509650965096509650506000601482015190507f000000000000000000000000000000000000000000000000000000000000000073ffffffffffffffffffffffffffffffffffffffff1663a18fa8048d8989896040518563ffffffff1660e01b815260040161081a94939291906133e8565b600060405180830381600087803b15801561083457600080fd5b505af1158015610848573d6000803e3d6000fd5b50506040517f7f72129800000000000000000000000000000000000000000000000000000000815273ffffffffffffffffffffffffffffffffffffffff7f0000000000000000000000000000000000000000000000000000000000000000169250637f72129891506108cc908f908f908f908d908d9089908d908d90600401613158565b600060405180830381600087803b1580156108e657600080fd5b505af11580156108fa573d6000803e3d6000fd5b5050505050505050505050610a84565b60ff811660041415610a84576000806000806000868060200190518101906109329190612a0a565b95509550955095509550507f000000000000000000000000000000000000000000000000000000000000000073ffffffffffffffffffffffffffffffffffffffff1663a18fa8048b8787876040518563ffffffff1660e01b815260040161099c94939291906133e8565b600060405180830381600087803b1580156109b657600080fd5b505af11580156109ca573d6000803e3d6000fd5b50506040517f0403bce500000000000000000000000000000000000000000000000000000000815273ffffffffffffffffffffffffffffffffffffffff7f0000000000000000000000000000000000000000000000000000000000000000169250630403bce59150610a4c908d908d908d908b908b908a908a90600401613257565b600060405180830381600087803b158015610a6657600080fd5b505af1158015610a7a573d6000803e3d6000fd5b5050505050505050505b5050505050565b600260209081526000928352604080842090915290825290205481565b7f000000000000000000000000000000000000000000000000000000000000000081565b610ad4611d5f565b73ffffffffffffffffffffffffffffffffffffffff16610af2611449565b73ffffffffffffffffffffffffffffffffffffffff1614610b7457604080517f08c379a000000000000000000000000000000000000000000000000000000000815260206004820181905260248201527f4f776e61626c653a2063616c6c6572206973206e6f7420746865206f776e6572604482015290519081900360640190fd5b6040517f07e0db1700000000000000000000000000000000000000000000000000000000815273ffffffffffffffffffffffffffffffffffffffff7f000000000000000000000000000000000000000000000000000000000000000016906307e0db1790610be6908490600401613099565b600060405180830381600087803b158015610c0057600080fd5b505af1158015610a84573d6000803e3d6000fd5b60408051602080820183526000808352835180850190945260018085529184018290529283929160ff8b161415610cb95760006040518060c001604052806001815260200160018152602001600181526020016001815260200160018152602001600181525090506001600080600085858f8f8f8f604051602001610ca29a99989796959493929190613425565b604051602081830303815290604052925050610d80565b60ff8a1660021415610cf457600260008083604051602001610cde94939291906134a0565b6040516020818303038152906040529150610d80565b60ff8a1660031415610d22576003600080836000808e8e604051602001610cde98979695949392919061350c565b60ff8a1660041415610d4e5760046000808360008d8d604051602001610cde97969594939291906134c7565b6040517f08c379a000000000000000000000000000000000000000000000000000000000815260040161048a90613007565b6000610d8d8c8c88611d63565b90507f000000000000000000000000000000000000000000000000000000000000000073ffffffffffffffffffffffffffffffffffffffff166340a7bb108d3086600360009054906101000a900460ff16866040518663ffffffff1660e01b8152600401610dff9594939291906130d2565b604080518083038186803b158015610e1657600080fd5b505afa158015610e2a573d6000803e3d6000fd5b505050506040513d601f19601f82011682018060405250810190610e4e9190612982565b9450945050505097509795505050505050565b610e69611d5f565b73ffffffffffffffffffffffffffffffffffffffff16610e87611449565b73ffffffffffffffffffffffffffffffffffffffff1614610f0957604080517f08c379a000000000000000000000000000000000000000000000000000000000815260206004820181905260248201527f4f776e61626c653a2063616c6c6572206973206e6f7420746865206f776e6572604482015290519081900360640190fd5b6040517f10ddb13700000000000000000000000000000000000000000000000000000000815273ffffffffffffffffffffffffffffffffffffffff7f000000000000000000000000000000000000000000000000000000000000000016906310ddb13790610be6908490600401613099565b3373ffffffffffffffffffffffffffffffffffffffff7f00000000000000000000000000000000000000000000000000000000000000001614610fea576040517f08c379a000000000000000000000000000000000000000000000000000000000815260040161048a90613064565b6000600489898888888860405160200161100a979695949392919061358f565b60405160208183030381529060405290506110298a6004898585611e01565b50505050505050505050565b61103d611d5f565b73ffffffffffffffffffffffffffffffffffffffff1661105b611449565b73ffffffffffffffffffffffffffffffffffffffff16146110dd57604080517f08c379a000000000000000000000000000000000000000000000000000000000815260206004820181905260248201527f4f776e61626c653a2063616c6c6572206973206e6f7420746865206f776e6572604482015290519081900360640190fd5b6040517f42d65a8d00000000000000000000000000000000000000000000000000000000815273ffffffffffffffffffffffffffffffffffffffff7f000000000000000000000000000000000000000000000000000000000000000016906342d65a8d9061115390869086908690600401613131565b600060405180830381600087803b15801561116d57600080fd5b505af1158015611181573d6000803e3d6000fd5b50505050505050565b611192611d5f565b73ffffffffffffffffffffffffffffffffffffffff166111b0611449565b73ffffffffffffffffffffffffffffffffffffffff161461123257604080517f08c379a000000000000000000000000000000000000000000000000000000000815260206004820181905260248201527f4f776e61626c653a2063616c6c6572206973206e6f7420746865206f776e6572604482015290519081900360640190fd5b61ffff8316600090815260016020819052604090912054600291811615610100027fffffffffffffffffffffffffffffffffffffffffffffffffffffffffffffffff011604156112ae576040517f08c379a000000000000000000000000000000000000000000000000000000000815260040161048a90612f05565b61ffff831660009081526001602052604090206112cc9083836120a9565b50505050565b3373ffffffffffffffffffffffffffffffffffffffff7f00000000000000000000000000000000000000000000000000000000000000001614611341576040517f08c379a000000000000000000000000000000000000000000000000000000000815260040161048a90613064565b8451604051600091611369916001918e918e91908d908d908c908c908c908c9060200161360d565b60405160208183030381529060405290506113888c60018b8985611e01565b505050505050505050505050565b61139e611d5f565b73ffffffffffffffffffffffffffffffffffffffff166113bc611449565b73ffffffffffffffffffffffffffffffffffffffff161461143e57604080517f08c379a000000000000000000000000000000000000000000000000000000000815260206004820181905260248201527f4f776e61626c653a2063616c6c6572206973206e6f7420746865206f776e6572604482015290519081900360640190fd5b565b60035460ff1681565b60005473ffffffffffffffffffffffffffffffffffffffff1690565b60016020818152600092835260409283902080548451600294821615610100027fffffffffffffffffffffffffffffffffffffffffffffffffffffffffffffffff0190911693909304601f81018390048302840183019094528383529192908301828280156115155780601f106114ea57610100808354040283529160200191611515565b820191906000526020600020905b8154815290600101906020018083116114f857829003601f168201915b505050505081565b3373ffffffffffffffffffffffffffffffffffffffff7f0000000000000000000000000000000000000000000000000000000000000000161461158c576040517f08c379a000000000000000000000000000000000000000000000000000000000815260040161048a90613064565b60606000806000806000868060200190518101906115aa9190612c33565b9550955095509550955050600384868b8686866040516020016115d397969594939291906135cb565b604051602081830303815290604052955050505050506115f7866003878685611e01565b505050505050565b3373ffffffffffffffffffffffffffffffffffffffff7f0000000000000000000000000000000000000000000000000000000000000000161461166e576040517f08c379a000000000000000000000000000000000000000000000000000000000815260040161048a90613064565b60006002858584604051602001611688949392919061356a565b60405160208183030381529060405290506000604051806060016040528060008152602001600081526020016040518060400160405280600281526020017f30780000000000000000000000000000000000000000000000000000000000008152508152509050611181876002868486611e01565b611705611d5f565b73ffffffffffffffffffffffffffffffffffffffff16611723611449565b73ffffffffffffffffffffffffffffffffffffffff16146117a557604080517f08c379a000000000000000000000000000000000000000000000000000000000815260206004820181905260248201527f4f776e61626c653a2063616c6c6572206973206e6f7420746865206f776e6572604482015290519081900360640190fd5b600380547fffffffffffffffffffffffffffffffffffffffffffffffffffffffffffffff0016911515919091179055565b6117de611d5f565b73ffffffffffffffffffffffffffffffffffffffff166117fc611449565b73ffffffffffffffffffffffffffffffffffffffff161461187e57604080517f08c379a000000000000000000000000000000000000000000000000000000000815260206004820181905260248201527f4f776e61626c653a2063616c6c6572206973206e6f7420746865206f776e6572604482015290519081900360640190fd5b6040517fcbed8b9c00000000000000000000000000000000000000000000000000000000815273ffffffffffffffffffffffffffffffffffffffff7f0000000000000000000000000000000000000000000000000000000000000000169063cbed8b9c906118f890889088908890889088906004016133af565b600060405180830381600087803b15801561191257600080fd5b505af1158015611926573d6000803e3d6000fd5b505050505050505050565b611939611d5f565b73ffffffffffffffffffffffffffffffffffffffff16611957611449565b73ffffffffffffffffffffffffffffffffffffffff16146119d957604080517f08c379a000000000000000000000000000000000000000000000000000000000815260206004820181905260248201527f4f776e61626c653a2063616c6c6572206973206e6f7420746865206f776e6572604482015290519081900360640190fd5b6040517f095ea7b300000000000000000000000000000000000000000000000000000000815273ffffffffffffffffffffffffffffffffffffffff84169063095ea7b390611a2d9085908590600401612ec1565b602060405180830381600087803b158015611a4757600080fd5b505af1158015611a5b573d6000803e3d6000fd5b505050506040513d601f19601f820116820180604052508101906112cc9190612455565b611a87611d5f565b73ffffffffffffffffffffffffffffffffffffffff16611aa5611449565b73ffffffffffffffffffffffffffffffffffffffff1614611b2757604080517f08c379a000000000000000000000000000000000000000000000000000000000815260206004820181905260248201527f4f776e61626c653a2063616c6c6572206973206e6f7420746865206f776e6572604482015290519081900360640190fd5b73ffffffffffffffffffffffffffffffffffffffff8116611b93576040517f08c379a00000000000000000000000000000000000000000000000000000000081526004018080602001828103825260268152602001806137496026913960400191505060405180910390fd5b6000805460405173ffffffffffffffffffffffffffffffffffffffff808516939216917f8be0079c531659141344cd1fd0a4f28419497f9722a3daafe3b4186f6b6457e091a3600080547fffffffffffffffffffffffff00000000000000000000000000000000000000001673ffffffffffffffffffffffffffffffffffffffff92909216919091179055565b7f000000000000000000000000000000000000000000000000000000000000000081565b611c4c611d5f565b73ffffffffffffffffffffffffffffffffffffffff16611c6a611449565b73ffffffffffffffffffffffffffffffffffffffff1614611cec57604080517f08c379a000000000000000000000000000000000000000000000000000000000815260206004820181905260248201527f4f776e61626c653a2063616c6c6572206973206e6f7420746865206f776e6572604482015290519081900360640190fd5b60018260ff1610158015611d04575060048260ff1611155b611d3a576040517f08c379a000000000000000000000000000000000000000000000000000000000815260040161048a90612f99565b61ffff909216600090815260026020908152604080832060ff90941683529290522055565b3390565b60408082015160140151825161ffff861660009081526002602090815284822060ff881683529052928320546060938493929091611da091611fc7565b905060008560200151118015611dcb575073ffffffffffffffffffffffffffffffffffffffff821615155b15611dea57611de38186602001518760400151612042565b9250611df6565b611df381612078565b92505b509095945050505050565b6000611e0e868685611d63565b905060007f000000000000000000000000000000000000000000000000000000000000000073ffffffffffffffffffffffffffffffffffffffff16637a14574888306040518363ffffffff1660e01b8152600401611e6d9291906130a8565b60206040518083038186803b158015611e8557600080fd5b505afa158015611e99573d6000803e3d6000fd5b505050506040513d601f19601f82011682018060405250810190611ebd91906129a5565b61ffff881660009081526001602081905260409182902091517fc58031000000000000000000000000000000000000000000000000000000000081529201925073ffffffffffffffffffffffffffffffffffffffff7f0000000000000000000000000000000000000000000000000000000000000000169163c5803100913491611f53918c9189908c9030908b906004016132b6565b6000604051808303818588803b158015611f6c57600080fd5b505af1158015611f80573d6000803e3d6000fd5b50505050507f8d3ee0df6a4b7e82a7f20a763f1c6826e6176323e655af64f32318827d2112d48682604051611fb6929190613637565b60405180910390a150505050505050565b60008282018381101561203b57604080517f08c379a000000000000000000000000000000000000000000000000000000000815260206004820152601b60248201527f536166654d6174683a206164646974696f6e206f766572666c6f770000000000604482015290519081900360640190fd5b9392505050565b60405160609060029061205f908290879087908790602001612e47565b6040516020818303038152906040529150509392505050565b6040516060906001906120919082908590602001612e12565b6040516020818303038152906040529150505b919050565b828054600181600116156101000203166002900490600052602060002090601f0160209004810192826120df5760008555612143565b82601f10612116578280017fffffffffffffffffffffffffffffffffffffffffffffffffffffffffffffff00823516178555612143565b82800160010185558215612143579182015b82811115612143578235825591602001919060010190612128565b5061214f929150612153565b5090565b5b8082111561214f5760008155600101612154565b80356120a4816136f0565b60008083601f840112612184578182fd5b50813567ffffffffffffffff81111561219b578182fd5b6020830191508360208285010111156121b357600080fd5b9250929050565b600082601f8301126121ca578081fd5b81356121dd6121d882613678565b613654565b8181528460208386010111156121f1578283fd5b816020850160208301379081016020019190915292915050565b600082601f83011261221b578081fd5b81516122296121d882613678565b81815284602083860101111561223d578283fd5b61224e8260208301602087016136c4565b949350505050565b600060408284031215612267578081fd5b6040516040810181811067ffffffffffffffff8211171561228457fe5b604052823581526020928301359281019290925250919050565b6000604082840312156122af578081fd5b6040516040810181811067ffffffffffffffff821117156122cc57fe5b604052825181526020928301519281019290925250919050565b600060c082840312156122f7578081fd5b60405160c0810181811067ffffffffffffffff8211171561231457fe5b8060405250809150823581526020830135602082015260408301356040820152606083013560608201526080830135608082015260a083013560a08201525092915050565b60006060828403121561236a578081fd5b6040516060810167ffffffffffffffff828210818311171561238857fe5b81604052829350843583526020850135602084015260408501359150808211156123b157600080fd5b506123be858286016121ba565b6040830152505092915050565b803561ffff811681146120a457600080fd5b6000602082840312156123ee578081fd5b813561203b816136f0565b60008060006060848603121561240d578182fd5b8335612418816136f0565b92506020840135612428816136f0565b929592945050506040919091013590565b60006020828403121561244a578081fd5b813561203b81613715565b600060208284031215612466578081fd5b815161203b81613715565b600060208284031215612482578081fd5b61203b826123cb565b600080600080600060c086880312156124a2578283fd5b6124ab866123cb565b945060208601356124bb816136f0565b93506124ca8760408801612256565b9250608086013567ffffffffffffffff808211156124e6578283fd5b6124f289838a01612359565b935060a0880135915080821115612507578283fd5b50612514888289016121ba565b9150509295509295909350565b600080600060408486031215612535578081fd5b61253e846123cb565b9250602084013567ffffffffffffffff811115612559578182fd5b61256586828701612173565b9497909650939450505050565b60008060008060808587031215612587578182fd5b612590856123cb565b9350602085013567ffffffffffffffff808211156125ac578384fd5b6125b8888389016121ba565b9450604087013591506125ca82613723565b909250606086013590808211156125df578283fd5b506125ec878288016121ba565b91505092959194509250565b60008060008060006080868803121561260f578283fd5b612618866123cb565b9450612626602087016123cb565b935060408601359250606086013567ffffffffffffffff811115612648578182fd5b61265488828901612173565b969995985093965092949392505050565b600080600080600060c0868803121561267c578283fd5b612685866123cb565b9450602086013593506040860135925060608601356126a3816136f0565b91506126b28760808801612256565b90509295509295909350565b60008060008060008060008060008060006101e08c8e0312156126df578889fd5b6126e88c6123cb565b9a5060208c0135995060408c0135985061270460608d01612168565b97506127138d60808e01612256565b96506127228d60c08e016122e6565b955067ffffffffffffffff806101808e0135111561273e578586fd5b61274f8e6101808f01358f01612359565b9550806101a08e01351115612762578485fd5b6127738e6101a08f01358f01612173565b90955093506101c08d0135811015612789578283fd5b5061279b8d6101c08e01358e01612173565b81935080925050509295989b509295989b9093969950565b60008060008060008060008060006101208a8c0312156127d1578283fd5b6127da8a6123cb565b985060208a0135975060408a0135965060608a01356127f8816136f0565b95506128078b60808c01612256565b945060c08a0135935060e08a013567ffffffffffffffff8082111561282a578485fd5b6128368d838e01612173565b90955093506101008c013591508082111561284f578283fd5b5061285c8c828d01612359565b9150509295985092959850929598565b6000806040838503121561287e578182fd5b612887836123cb565b9150602083013561289781613739565b809150509250929050565b600080600080600080600060a0888a0312156128bc578081fd5b6128c5886123cb565b965060208801356128d581613739565b9550604088013567ffffffffffffffff808211156128f1578283fd5b6128fd8b838c01612173565b909750955060608a0135915080821115612915578283fd5b6129218b838c01612173565b909550935060808a0135915080821115612939578283fd5b506129468a828b01612359565b91505092959891949750929550565b600080600060608486031215612969578081fd5b612972846123cb565b9250602084013561242881613739565b60008060408385031215612994578182fd5b505080516020909101519092909150565b6000602082840312156129b6578081fd5b815161203b81613723565b60008060008060a085870312156129d6578182fd5b84516129e181613739565b60208601516040870151919550935091506129ff866060870161229e565b905092959194509250565b60008060008060008060e08789031215612a22578384fd5b8651612a2d81613739565b6020880151604089015191975095509350612a4b886060890161229e565b925060a0870151915060c087015167ffffffffffffffff811115612a6d578182fd5b612a7989828a0161220b565b9150509295509295509295565b6000806000806000806000610100888a031215612aa1578081fd5b8751612aac81613739565b602089015160408a015191985096509450612aca8960608a0161229e565b935060a0880151925060c0880151915060e088015167ffffffffffffffff811115612af3578182fd5b6129468a828b0161220b565b600080600080600080600080888a036101c0811215612b1c578283fd5b8951612b2781613739565b8099505060208a0151975060408a0151965060608a01519550612b4d8b60808c0161229e565b945060c07fffffffffffffffffffffffffffffffffffffffffffffffffffffffffffffff4082011215612b7e578283fd5b5060405160c0810167ffffffffffffffff8282108183111715612b9d57fe5b604082815260c08d0151845260e08d015160208501526101008d0151908401526101208c015160608401526101408c015160808401526101608c015160a08401526101808c015192955080831115612bf3578485fd5b612bff8d848e0161220b565b94506101a08c0151925080831115612c15578384fd5b5050612c238b828c0161220b565b9150509295985092959890939650565b60008060008060008060c08789031215612c4b578384fd5b8651612c5681613739565b809650506020870151945060408701519350606087015192506080870151915060a087015167ffffffffffffffff811115612a6d578182fd5b73ffffffffffffffffffffffffffffffffffffffff169052565b600082845282826020860137806020848601015260207fffffffffffffffffffffffffffffffffffffffffffffffffffffffffffffffe0601f85011685010190509392505050565b60008151808452612d098160208601602086016136c4565b601f017fffffffffffffffffffffffffffffffffffffffffffffffffffffffffffffffe0169290920160200192915050565b80518252602090810151910152565b805182526020810151602083015260408101516040830152606081015160608301526080810151608083015260a081015160a08301525050565b6000808354600180821660008114612da35760018114612dd857612e07565b7fffffffffffffffffffffffffffffffffffffffffffffffffffffffffffffff0083168652607f600284041686019350612e07565b600283048786526020808720875b83811015612dff5781548a820152908501908201612de6565b505050860193505b509195945050505050565b60f09290921b7fffff000000000000000000000000000000000000000000000000000000000000168252600282015260220190565b60007fffff0000000000000000000000000000000000000000000000000000000000008660f01b1682528460028301528360228301528251612e908160428501602087016136c4565b9190910160420195945050505050565b73ffffffffffffffffffffffffffffffffffffffff91909116815260200190565b73ffffffffffffffffffffffffffffffffffffffff929092168252602082015260400190565b901515815260200190565b60006020825261203b6020830184612cf1565b6020808252601d908201527f53746172676174653a2042726964676520616c72656164792073657421000000604082015260600190565b60208082526034908201527f53746172676174653a206f6e6c79204c617965725a65726f20656e64706f696e60408201527f742063616e2063616c6c206c7a52656365697665000000000000000000000000606082015260800190565b6020808252601f908201527f53746172676174653a20696e76616c6964205f66756e6374696f6e5479706500604082015260600190565b6020808252601f908201527f53746172676174653a2062726964676520646f6573206e6f74206d6174636800604082015260600190565b60208082526023908201527f53746172676174653a20756e737570706f727465642066756e6374696f6e207460408201527f7970650000000000000000000000000000000000000000000000000000000000606082015260800190565b6020808252818101527f53746172676174653a2063616c6c6572206d75737420626520526f757465722e604082015260600190565b61ffff91909116815260200190565b61ffff92909216825273ffffffffffffffffffffffffffffffffffffffff16602082015260400190565b600061ffff8716825273ffffffffffffffffffffffffffffffffffffffff8616602083015260a0604083015261310b60a0830186612cf1565b841515606084015282810360808401526131258185612cf1565b98975050505050505050565b600061ffff851682526040602083015261314f604083018486612ca9565b95945050505050565b600061010061ffff8b1683528060208401526131768184018b612cf1565b67ffffffffffffffff99909916604084015250506060810195909552608085019390935273ffffffffffffffffffffffffffffffffffffffff9190911660a084015260c083015260e09091015292915050565b60006101c061ffff8c1683528060208401526131e78184018c612cf1565b905067ffffffffffffffff8a1660408401528860608401528760808401528660a084015273ffffffffffffffffffffffffffffffffffffffff861660c084015261323460e0840186612d4a565b8281036101a08401526132478185612cf1565b9c9b505050505050505050505050565b600061ffff8916825260e0602083015261327460e0830189612cf1565b67ffffffffffffffff881660408401528660608401528560808401528460a084015282810360c08401526132a88185612cf1565b9a9950505050505050505050565b600060c0820161ffff89168352602060c0818501528289546001808216600081146132e857600181146133255761335d565b607f600284041686527fffffffffffffffffffffffffffffffffffffffffffffffffffffffffffffff00831660e08901526101008801935061335d565b600283048087526133358e6136b8565b885b828110156133535781548b820160e00152908401908701613337565b8a0160e001955050505b5050508481036040860152613372818a612cf1565b925050506133836060840187612c8f565b6133906080840186612c8f565b82810360a08401526133a28185612cf1565b9998505050505050505050565b600061ffff8088168352808716602084015250846040830152608060608301526133dd608083018486612ca9565b979650505050505050565b61ffff85168152602081018490526040810183905260a0810161314f6060830184612d3b565b90815260200190565b918252602082015260400190565b60006101c060ff8d16835260ff8c16602084015260ff8b16604084015260ff8a166060840152613458608084018a612d3b565b61346560c0840189612d4a565b806101808401526134798184018789612ca9565b90508281036101a084015261348f818587612ca9565b9d9c50505050505050505050505050565b60ff858116825284811660208301528316604082015260a0810161314f6060830184612d3b565b600060ff8916825260ff8816602083015260ff871660408301526134ee6060830187612d3b565b60ff851660a083015260e060c08301526133a260e083018486612ca9565b600061010060ff8b16835260ff8a16602084015260ff891660408401526135366060840189612d3b565b60ff871660a084015260ff861660c08401528060e084015261355b8184018587612ca9565b9b9a5050505050505050505050565b60ff85168152602081018490526040810183905260a0810161314f6060830184612d3b565b600060ff891682528760208301528660408301526135b06060830187612d3b565b8460a083015260e060c08301526133a260e083018486612ca9565b600061010060ff8a1683528860208401528760408401526135ef6060840188612d3b565b8560a08401528460c08401528060e08401526132a881840185612cf1565b60006101c060ff8d1683528b60208401528a6040840152896060840152613458608084018a612d3b565b60ff92909216825267ffffffffffffffff16602082015260400190565b60405181810167ffffffffffffffff8111828210171561367057fe5b604052919050565b600067ffffffffffffffff82111561368c57fe5b50601f017fffffffffffffffffffffffffffffffffffffffffffffffffffffffffffffffe01660200190565b60009081526020902090565b60005b838110156136df5781810151838201526020016136c7565b838111156112cc5750506000910152565b73ffffffffffffffffffffffffffffffffffffffff8116811461371257600080fd5b50565b801515811461371257600080fd5b67ffffffffffffffff8116811461371257600080fd5b60ff8116811461371257600080fdfe4f776e61626c653a206e6577206f776e657220697320746865207a65726f2061646472657373a26469706673582212208e224463a242156e061f2347e4f2759d03d7b478ffd6902cb78aaa437381c6ba64736f6c63430007060033",
  "linkReferences": {},
  "deployedLinkReferences": {}
}