{
  "_format": "hh-sol-artifact-1",
  "contractName": "UlnBase",
  "sourceName": "contracts/uln/UlnBase.sol",
  "abi": [
    {
      "inputs": [
        {
          "internalType": "address",
          "name": "_ulnConfig",
          "type": "address"
        }
      ],
      "stateMutability": "nonpayable",
      "type": "constructor"
    },
    {
      "anonymous": false,
      "inputs": [
        {
          "indexed": false,
          "internalType": "address",
          "name": "verifier",
          "type": "address"
        },
        {
          "indexed": false,
          "internalType": "bytes",
          "name": "header",
          "type": "bytes"
        },
        {
          "indexed": false,
          "internalType": "uint256",
          "name": "confirmations",
          "type": "uint256"
        },
        {
          "indexed": false,
          "internalType": "bytes32",
          "name": "proofHash",
          "type": "bytes32"
        }
      ],
      "name": "PayloadSigned",
      "type": "event"
    },
    {
      "anonymous": false,
      "inputs": [
        {
          "indexed": false,
          "internalType": "address[]",
          "name": "verifiers",
          "type": "address[]"
        },
        {
          "indexed": false,
          "internalType": "address[]",
          "name": "optionalVerifiers",
          "type": "address[]"
        },
        {
          "indexed": false,
          "internalType": "uint256[]",
          "name": "fees",
          "type": "uint256[]"
        }
      ],
      "name": "VerifierFeePaid",
      "type": "event"
    },
    {
      "inputs": [
        {
          "internalType": "bytes32",
          "name": "headerHash",
          "type": "bytes32"
        },
        {
          "internalType": "bytes32",
          "name": "payloadHash",
          "type": "bytes32"
        },
        {
          "internalType": "address",
          "name": "verifier",
          "type": "address"
        }
      ],
      "name": "hashLookup",
      "outputs": [
        {
          "internalType": "uint64",
          "name": "confirmations",
          "type": "uint64"
        }
      ],
      "stateMutability": "view",
      "type": "function"
    },
    {
      "inputs": [
        {
          "internalType": "address",
          "name": "_verifier",
          "type": "address"
        },
        {
          "internalType": "bytes32",
          "name": "_headerHash",
          "type": "bytes32"
        },
        {
          "internalType": "bytes32",
          "name": "_payloadHash",
          "type": "bytes32"
        },
        {
          "internalType": "uint64",
          "name": "_requiredConfirmation",
          "type": "uint64"
        }
      ],
      "name": "verified",
      "outputs": [
        {
          "internalType": "bool",
          "name": "",
          "type": "bool"
        }
      ],
      "stateMutability": "view",
      "type": "function"
    },
    {
      "inputs": [
        {
          "components": [
            {
              "internalType": "uint64",
              "name": "inboundConfirmations",
              "type": "uint64"
            },
            {
              "internalType": "bool",
              "name": "useCustomVerifiers",
              "type": "bool"
            },
            {
              "internalType": "bool",
              "name": "useCustomOptionalVerifiers",
              "type": "bool"
            },
            {
              "internalType": "uint8",
              "name": "verifierCount",
              "type": "uint8"
            },
            {
              "internalType": "uint8",
              "name": "optionalVerifierCount",
              "type": "uint8"
            },
            {
              "internalType": "uint8",
              "name": "optionalVerifierThreshold",
              "type": "uint8"
            },
            {
              "internalType": "address[]",
              "name": "verifiers",
              "type": "address[]"
            },
            {
              "internalType": "address[]",
              "name": "optionalVerifiers",
              "type": "address[]"
            }
          ],
          "internalType": "struct UlnConfigStruct",
          "name": "_config",
          "type": "tuple"
        },
        {
          "internalType": "bytes32",
          "name": "_headerHash",
          "type": "bytes32"
        },
        {
          "internalType": "bytes32",
          "name": "_payloadHash",
          "type": "bytes32"
        }
      ],
      "name": "verifyConditionMet",
      "outputs": [
        {
          "internalType": "bool",
          "name": "",
          "type": "bool"
        }
      ],
      "stateMutability": "view",
      "type": "function"
    }
  ],
  "bytecode": "0x60a060405234801561001057600080fd5b5060405161068c38038061068c83398101604081905261002f91610040565b6001600160a01b0316608052610070565b60006020828403121561005257600080fd5b81516001600160a01b038116811461006957600080fd5b9392505050565b608051610604610088600039600050506106046000f3fe608060405234801561001057600080fd5b50600436106100415760003560e01c80633c782a5214610046578063a5972ec51461009e578063c7734173146100c1575b600080fd5b6100806100543660046102c9565b6000602081815293815260408082208552928152828120909352825290205467ffffffffffffffff1681565b60405167ffffffffffffffff90911681526020015b60405180910390f35b6100b16100ac366004610450565b61011c565b6040519015158152602001610095565b6100b16100cf366004610559565b60009283526020838152604080852093855292815282842073ffffffffffffffffffffffffffffffffffffffff9590951684529390935290205467ffffffffffffffff9182169116101590565b8251600090815b856060015160ff168110156101b7576101a08660c00151828151811061014b5761014b61059f565b60209081029190910181015160008881528083526040808220898352845280822073ffffffffffffffffffffffffffffffffffffffff90931682529190925290205467ffffffffffffffff8085169116101590565b6101af57600092505050610299565b600101610123565b506000856060015160ff161180156101d45750608085015160ff16155b156101e3576001915050610299565b6000805b866080015160ff16811015610291576102648760e00151828151811061020f5761020f61059f565b602090810291909101810151600089815280835260408082208a8352845280822073ffffffffffffffffffffffffffffffffffffffff90931682529190925290205467ffffffffffffffff8086169116101590565b15610289578160010191508660a0015160ff1682106102895760019350505050610299565b6001016101e7565b505060009150505b9392505050565b803573ffffffffffffffffffffffffffffffffffffffff811681146102c457600080fd5b919050565b6000806000606084860312156102de57600080fd5b83359250602084013591506102f5604085016102a0565b90509250925092565b7f4e487b7100000000000000000000000000000000000000000000000000000000600052604160045260246000fd5b604051610100810167ffffffffffffffff81118282101715610351576103516102fe565b60405290565b803567ffffffffffffffff811681146102c457600080fd5b803580151581146102c457600080fd5b803560ff811681146102c457600080fd5b600082601f8301126103a157600080fd5b8135602067ffffffffffffffff808311156103be576103be6102fe565b8260051b6040517fffffffffffffffffffffffffffffffffffffffffffffffffffffffffffffffe0603f83011681018181108482111715610401576104016102fe565b60405293845285810183019383810192508785111561041f57600080fd5b83870191505b8482101561044557610436826102a0565b83529183019190830190610425565b979650505050505050565b60008060006060848603121561046557600080fd5b833567ffffffffffffffff8082111561047d57600080fd5b90850190610100828803121561049257600080fd5b61049a61032d565b6104a383610357565b81526104b16020840161036f565b60208201526104c26040840161036f565b60408201526104d36060840161037f565b60608201526104e46080840161037f565b60808201526104f560a0840161037f565b60a082015260c08301358281111561050c57600080fd5b61051889828601610390565b60c08301525060e08301358281111561053057600080fd5b61053c89828601610390565b60e083015250976020870135975060409096013595945050505050565b6000806000806080858703121561056f57600080fd5b610578856102a0565b9350602085013592506040850135915061059460608601610357565b905092959194509250565b7f4e487b7100000000000000000000000000000000000000000000000000000000600052603260045260246000fdfea26469706673582212209a30226a8fd79f5d88ebf3dffe7848b0194e0b210d1aad8b685343a1376eceec64736f6c63430008130033",
  "linkReferences": {},
  "deployedLinkReferences": {}
}