{
  "_format": "hh-sol-artifact-1",
  "contractName": "ONFT721A",
  "sourceName": "contracts/token/onft/extension/ONFT721A.sol",
  "abi": [
    {
      "inputs": [
        {
          "internalType": "string",
          "name": "_name",
          "type": "string"
        },
        {
          "internalType": "string",
          "name": "_symbol",
          "type": "string"
        },
        {
          "internalType": "uint256",
          "name": "_minGasToTransferAndStore",
          "type": "uint256"
        },
        {
          "internalType": "address",
          "name": "_lzEndpoint",
          "type": "address"
        }
      ],
      "stateMutability": "nonpayable",
      "type": "constructor"
    },
    {
      "inputs": [],
      "name": "ApprovalCallerNotOwnerNorApproved",
      "type": "error"
    },
    {
      "inputs": [],
      "name": "ApprovalQueryForNonexistentToken",
      "type": "error"
    },
    {
      "inputs": [],
      "name": "BalanceQueryForZeroAddress",
      "type": "error"
    },
    {
      "inputs": [],
      "name": "MintERC2309QuantityExceedsLimit",
      "type": "error"
    },
    {
      "inputs": [],
      "name": "MintToZeroAddress",
      "type": "error"
    },
    {
      "inputs": [],
      "name": "MintZeroQuantity",
      "type": "error"
    },
    {
      "inputs": [],
      "name": "OwnerQueryForNonexistentToken",
      "type": "error"
    },
    {
      "inputs": [],
      "name": "OwnershipNotInitializedForExtraData",
      "type": "error"
    },
    {
      "inputs": [],
      "name": "TransferCallerNotOwnerNorApproved",
      "type": "error"
    },
    {
      "inputs": [],
      "name": "TransferFromIncorrectOwner",
      "type": "error"
    },
    {
      "inputs": [],
      "name": "TransferToNonERC721ReceiverImplementer",
      "type": "error"
    },
    {
      "inputs": [],
      "name": "TransferToZeroAddress",
      "type": "error"
    },
    {
      "inputs": [],
      "name": "URIQueryForNonexistentToken",
      "type": "error"
    },
    {
      "anonymous": false,
      "inputs": [
        {
          "indexed": true,
          "internalType": "address",
          "name": "owner",
          "type": "address"
        },
        {
          "indexed": true,
          "internalType": "address",
          "name": "approved",
          "type": "address"
        },
        {
          "indexed": true,
          "internalType": "uint256",
          "name": "tokenId",
          "type": "uint256"
        }
      ],
      "name": "Approval",
      "type": "event"
    },
    {
      "anonymous": false,
      "inputs": [
        {
          "indexed": true,
          "internalType": "address",
          "name": "owner",
          "type": "address"
        },
        {
          "indexed": true,
          "internalType": "address",
          "name": "operator",
          "type": "address"
        },
        {
          "indexed": false,
          "internalType": "bool",
          "name": "approved",
          "type": "bool"
        }
      ],
      "name": "ApprovalForAll",
      "type": "event"
    },
    {
      "anonymous": false,
      "inputs": [
        {
          "indexed": true,
          "internalType": "uint256",
          "name": "fromTokenId",
          "type": "uint256"
        },
        {
          "indexed": false,
          "internalType": "uint256",
          "name": "toTokenId",
          "type": "uint256"
        },
        {
          "indexed": true,
          "internalType": "address",
          "name": "from",
          "type": "address"
        },
        {
          "indexed": true,
          "internalType": "address",
          "name": "to",
          "type": "address"
        }
      ],
      "name": "ConsecutiveTransfer",
      "type": "event"
    },
    {
      "anonymous": false,
      "inputs": [
        {
          "indexed": false,
          "internalType": "bytes32",
          "name": "_hashedPayload",
          "type": "bytes32"
        }
      ],
      "name": "CreditCleared",
      "type": "event"
    },
    {
      "anonymous": false,
      "inputs": [
        {
          "indexed": false,
          "internalType": "bytes32",
          "name": "_hashedPayload",
          "type": "bytes32"
        },
        {
          "indexed": false,
          "internalType": "bytes",
          "name": "_payload",
          "type": "bytes"
        }
      ],
      "name": "CreditStored",
      "type": "event"
    },
    {
      "anonymous": false,
      "inputs": [
        {
          "indexed": false,
          "internalType": "uint16",
          "name": "_srcChainId",
          "type": "uint16"
        },
        {
          "indexed": false,
          "internalType": "bytes",
          "name": "_srcAddress",
          "type": "bytes"
        },
        {
          "indexed": false,
          "internalType": "uint64",
          "name": "_nonce",
          "type": "uint64"
        },
        {
          "indexed": false,
          "internalType": "bytes",
          "name": "_payload",
          "type": "bytes"
        },
        {
          "indexed": false,
          "internalType": "bytes",
          "name": "_reason",
          "type": "bytes"
        }
      ],
      "name": "MessageFailed",
      "type": "event"
    },
    {
      "anonymous": false,
      "inputs": [
        {
          "indexed": true,
          "internalType": "address",
          "name": "previousOwner",
          "type": "address"
        },
        {
          "indexed": true,
          "internalType": "address",
          "name": "newOwner",
          "type": "address"
        }
      ],
      "name": "OwnershipTransferred",
      "type": "event"
    },
    {
      "anonymous": false,
      "inputs": [
        {
          "indexed": true,
          "internalType": "uint16",
          "name": "_srcChainId",
          "type": "uint16"
        },
        {
          "indexed": true,
          "internalType": "bytes",
          "name": "_srcAddress",
          "type": "bytes"
        },
        {
          "indexed": true,
          "internalType": "address",
          "name": "_toAddress",
          "type": "address"
        },
        {
          "indexed": false,
          "internalType": "uint256[]",
          "name": "_tokenIds",
          "type": "uint256[]"
        }
      ],
      "name": "ReceiveFromChain",
      "type": "event"
    },
    {
      "anonymous": false,
      "inputs": [
        {
          "indexed": false,
          "internalType": "uint16",
          "name": "_srcChainId",
          "type": "uint16"
        },
        {
          "indexed": false,
          "internalType": "bytes",
          "name": "_srcAddress",
          "type": "bytes"
        },
        {
          "indexed": false,
          "internalType": "uint64",
          "name": "_nonce",
          "type": "uint64"
        },
        {
          "indexed": false,
          "internalType": "bytes32",
          "name": "_payloadHash",
          "type": "bytes32"
        }
      ],
      "name": "RetryMessageSuccess",
      "type": "event"
    },
    {
      "anonymous": false,
      "inputs": [
        {
          "indexed": true,
          "internalType": "uint16",
          "name": "_dstChainId",
          "type": "uint16"
        },
        {
          "indexed": true,
          "internalType": "address",
          "name": "_from",
          "type": "address"
        },
        {
          "indexed": true,
          "internalType": "bytes",
          "name": "_toAddress",
          "type": "bytes"
        },
        {
          "indexed": false,
          "internalType": "uint256[]",
          "name": "_tokenIds",
          "type": "uint256[]"
        }
      ],
      "name": "SendToChain",
      "type": "event"
    },
    {
      "anonymous": false,
      "inputs": [
        {
          "indexed": false,
          "internalType": "uint16",
          "name": "_dstChainId",
          "type": "uint16"
        },
        {
          "indexed": false,
          "internalType": "uint256",
          "name": "_dstChainIdToBatchLimit",
          "type": "uint256"
        }
      ],
      "name": "SetDstChainIdToBatchLimit",
      "type": "event"
    },
    {
      "anonymous": false,
      "inputs": [
        {
          "indexed": false,
          "internalType": "uint16",
          "name": "_dstChainId",
          "type": "uint16"
        },
        {
          "indexed": false,
          "internalType": "uint256",
          "name": "_dstChainIdToTransferGas",
          "type": "uint256"
        }
      ],
      "name": "SetDstChainIdToTransferGas",
      "type": "event"
    },
    {
      "anonymous": false,
      "inputs": [
        {
          "indexed": false,
          "internalType": "uint16",
          "name": "_dstChainId",
          "type": "uint16"
        },
        {
          "indexed": false,
          "internalType": "uint16",
          "name": "_type",
          "type": "uint16"
        },
        {
          "indexed": false,
          "internalType": "uint256",
          "name": "_minDstGas",
          "type": "uint256"
        }
      ],
      "name": "SetMinDstGas",
      "type": "event"
    },
    {
      "anonymous": false,
      "inputs": [
        {
          "indexed": false,
          "internalType": "uint256",
          "name": "_minGasToTransferAndStore",
          "type": "uint256"
        }
      ],
      "name": "SetMinGasToTransferAndStore",
      "type": "event"
    },
    {
      "anonymous": false,
      "inputs": [
        {
          "indexed": false,
          "internalType": "address",
          "name": "precrime",
          "type": "address"
        }
      ],
      "name": "SetPrecrime",
      "type": "event"
    },
    {
      "anonymous": false,
      "inputs": [
        {
          "indexed": false,
          "internalType": "uint16",
          "name": "_remoteChainId",
          "type": "uint16"
        },
        {
          "indexed": false,
          "internalType": "bytes",
          "name": "_path",
          "type": "bytes"
        }
      ],
      "name": "SetTrustedRemote",
      "type": "event"
    },
    {
      "anonymous": false,
      "inputs": [
        {
          "indexed": false,
          "internalType": "uint16",
          "name": "_remoteChainId",
          "type": "uint16"
        },
        {
          "indexed": false,
          "internalType": "bytes",
          "name": "_remoteAddress",
          "type": "bytes"
        }
      ],
      "name": "SetTrustedRemoteAddress",
      "type": "event"
    },
    {
      "anonymous": false,
      "inputs": [
        {
          "indexed": true,
          "internalType": "address",
          "name": "from",
          "type": "address"
        },
        {
          "indexed": true,
          "internalType": "address",
          "name": "to",
          "type": "address"
        },
        {
          "indexed": true,
          "internalType": "uint256",
          "name": "tokenId",
          "type": "uint256"
        }
      ],
      "name": "Transfer",
      "type": "event"
    },
    {
      "inputs": [],
      "name": "DEFAULT_PAYLOAD_SIZE_LIMIT",
      "outputs": [
        {
          "internalType": "uint256",
          "name": "",
          "type": "uint256"
        }
      ],
      "stateMutability": "view",
      "type": "function"
    },
    {
      "inputs": [],
      "name": "FUNCTION_TYPE_SEND",
      "outputs": [
        {
          "internalType": "uint16",
          "name": "",
          "type": "uint16"
        }
      ],
      "stateMutability": "view",
      "type": "function"
    },
    {
      "inputs": [
        {
          "internalType": "address",
          "name": "to",
          "type": "address"
        },
        {
          "internalType": "uint256",
          "name": "tokenId",
          "type": "uint256"
        }
      ],
      "name": "approve",
      "outputs": [],
      "stateMutability": "payable",
      "type": "function"
    },
    {
      "inputs": [
        {
          "internalType": "address",
          "name": "owner",
          "type": "address"
        }
      ],
      "name": "balanceOf",
      "outputs": [
        {
          "internalType": "uint256",
          "name": "",
          "type": "uint256"
        }
      ],
      "stateMutability": "view",
      "type": "function"
    },
    {
      "inputs": [
        {
          "internalType": "bytes",
          "name": "_payload",
          "type": "bytes"
        }
      ],
      "name": "clearCredits",
      "outputs": [],
      "stateMutability": "nonpayable",
      "type": "function"
    },
    {
      "inputs": [
        {
          "internalType": "uint16",
          "name": "",
          "type": "uint16"
        }
      ],
      "name": "dstChainIdToBatchLimit",
      "outputs": [
        {
          "internalType": "uint256",
          "name": "",
          "type": "uint256"
        }
      ],
      "stateMutability": "view",
      "type": "function"
    },
    {
      "inputs": [
        {
          "internalType": "uint16",
          "name": "",
          "type": "uint16"
        }
      ],
      "name": "dstChainIdToTransferGas",
      "outputs": [
        {
          "internalType": "uint256",
          "name": "",
          "type": "uint256"
        }
      ],
      "stateMutability": "view",
      "type": "function"
    },
    {
      "inputs": [
        {
          "internalType": "uint16",
          "name": "_dstChainId",
          "type": "uint16"
        },
        {
          "internalType": "bytes",
          "name": "_toAddress",
          "type": "bytes"
        },
        {
          "internalType": "uint256[]",
          "name": "_tokenIds",
          "type": "uint256[]"
        },
        {
          "internalType": "bool",
          "name": "_useZro",
          "type": "bool"
        },
        {
          "internalType": "bytes",
          "name": "_adapterParams",
          "type": "bytes"
        }
      ],
      "name": "estimateSendBatchFee",
      "outputs": [
        {
          "internalType": "uint256",
          "name": "nativeFee",
          "type": "uint256"
        },
        {
          "internalType": "uint256",
          "name": "zroFee",
          "type": "uint256"
        }
      ],
      "stateMutability": "view",
      "type": "function"
    },
    {
      "inputs": [
        {
          "internalType": "uint16",
          "name": "_dstChainId",
          "type": "uint16"
        },
        {
          "internalType": "bytes",
          "name": "_toAddress",
          "type": "bytes"
        },
        {
          "internalType": "uint256",
          "name": "_tokenId",
          "type": "uint256"
        },
        {
          "internalType": "bool",
          "name": "_useZro",
          "type": "bool"
        },
        {
          "internalType": "bytes",
          "name": "_adapterParams",
          "type": "bytes"
        }
      ],
      "name": "estimateSendFee",
      "outputs": [
        {
          "internalType": "uint256",
          "name": "nativeFee",
          "type": "uint256"
        },
        {
          "internalType": "uint256",
          "name": "zroFee",
          "type": "uint256"
        }
      ],
      "stateMutability": "view",
      "type": "function"
    },
    {
      "inputs": [
        {
          "internalType": "uint16",
          "name": "",
          "type": "uint16"
        },
        {
          "internalType": "bytes",
          "name": "",
          "type": "bytes"
        },
        {
          "internalType": "uint64",
          "name": "",
          "type": "uint64"
        }
      ],
      "name": "failedMessages",
      "outputs": [
        {
          "internalType": "bytes32",
          "name": "",
          "type": "bytes32"
        }
      ],
      "stateMutability": "view",
      "type": "function"
    },
    {
      "inputs": [
        {
          "internalType": "uint16",
          "name": "_srcChainId",
          "type": "uint16"
        },
        {
          "internalType": "bytes",
          "name": "_srcAddress",
          "type": "bytes"
        }
      ],
      "name": "forceResumeReceive",
      "outputs": [],
      "stateMutability": "nonpayable",
      "type": "function"
    },
    {
      "inputs": [
        {
          "internalType": "uint256",
          "name": "tokenId",
          "type": "uint256"
        }
      ],
      "name": "getApproved",
      "outputs": [
        {
          "internalType": "address",
          "name": "",
          "type": "address"
        }
      ],
      "stateMutability": "view",
      "type": "function"
    },
    {
      "inputs": [
        {
          "internalType": "uint16",
          "name": "_version",
          "type": "uint16"
        },
        {
          "internalType": "uint16",
          "name": "_chainId",
          "type": "uint16"
        },
        {
          "internalType": "address",
          "name": "",
          "type": "address"
        },
        {
          "internalType": "uint256",
          "name": "_configType",
          "type": "uint256"
        }
      ],
      "name": "getConfig",
      "outputs": [
        {
          "internalType": "bytes",
          "name": "",
          "type": "bytes"
        }
      ],
      "stateMutability": "view",
      "type": "function"
    },
    {
      "inputs": [
        {
          "internalType": "uint16",
          "name": "_remoteChainId",
          "type": "uint16"
        }
      ],
      "name": "getTrustedRemoteAddress",
      "outputs": [
        {
          "internalType": "bytes",
          "name": "",
          "type": "bytes"
        }
      ],
      "stateMutability": "view",
      "type": "function"
    },
    {
      "inputs": [
        {
          "internalType": "address",
          "name": "owner",
          "type": "address"
        },
        {
          "internalType": "address",
          "name": "operator",
          "type": "address"
        }
      ],
      "name": "isApprovedForAll",
      "outputs": [
        {
          "internalType": "bool",
          "name": "",
          "type": "bool"
        }
      ],
      "stateMutability": "view",
      "type": "function"
    },
    {
      "inputs": [
        {
          "internalType": "uint16",
          "name": "_srcChainId",
          "type": "uint16"
        },
        {
          "internalType": "bytes",
          "name": "_srcAddress",
          "type": "bytes"
        }
      ],
      "name": "isTrustedRemote",
      "outputs": [
        {
          "internalType": "bool",
          "name": "",
          "type": "bool"
        }
      ],
      "stateMutability": "view",
      "type": "function"
    },
    {
      "inputs": [],
      "name": "lzEndpoint",
      "outputs": [
        {
          "internalType": "contract ILayerZeroEndpoint",
          "name": "",
          "type": "address"
        }
      ],
      "stateMutability": "view",
      "type": "function"
    },
    {
      "inputs": [
        {
          "internalType": "uint16",
          "name": "_srcChainId",
          "type": "uint16"
        },
        {
          "internalType": "bytes",
          "name": "_srcAddress",
          "type": "bytes"
        },
        {
          "internalType": "uint64",
          "name": "_nonce",
          "type": "uint64"
        },
        {
          "internalType": "bytes",
          "name": "_payload",
          "type": "bytes"
        }
      ],
      "name": "lzReceive",
      "outputs": [],
      "stateMutability": "nonpayable",
      "type": "function"
    },
    {
      "inputs": [
        {
          "internalType": "uint16",
          "name": "",
          "type": "uint16"
        },
        {
          "internalType": "uint16",
          "name": "",
          "type": "uint16"
        }
      ],
      "name": "minDstGasLookup",
      "outputs": [
        {
          "internalType": "uint256",
          "name": "",
          "type": "uint256"
        }
      ],
      "stateMutability": "view",
      "type": "function"
    },
    {
      "inputs": [],
      "name": "minGasToTransferAndStore",
      "outputs": [
        {
          "internalType": "uint256",
          "name": "",
          "type": "uint256"
        }
      ],
      "stateMutability": "view",
      "type": "function"
    },
    {
      "inputs": [],
      "name": "name",
      "outputs": [
        {
          "internalType": "string",
          "name": "",
          "type": "string"
        }
      ],
      "stateMutability": "view",
      "type": "function"
    },
    {
      "inputs": [
        {
          "internalType": "uint16",
          "name": "_srcChainId",
          "type": "uint16"
        },
        {
          "internalType": "bytes",
          "name": "_srcAddress",
          "type": "bytes"
        },
        {
          "internalType": "uint64",
          "name": "_nonce",
          "type": "uint64"
        },
        {
          "internalType": "bytes",
          "name": "_payload",
          "type": "bytes"
        }
      ],
      "name": "nonblockingLzReceive",
      "outputs": [],
      "stateMutability": "nonpayable",
      "type": "function"
    },
    {
      "inputs": [
        {
          "internalType": "address",
          "name": "",
          "type": "address"
        },
        {
          "internalType": "address",
          "name": "",
          "type": "address"
        },
        {
          "internalType": "uint256",
          "name": "",
          "type": "uint256"
        },
        {
          "internalType": "bytes",
          "name": "",
          "type": "bytes"
        }
      ],
      "name": "onERC721Received",
      "outputs": [
        {
          "internalType": "bytes4",
          "name": "",
          "type": "bytes4"
        }
      ],
      "stateMutability": "nonpayable",
      "type": "function"
    },
    {
      "inputs": [],
      "name": "owner",
      "outputs": [
        {
          "internalType": "address",
          "name": "",
          "type": "address"
        }
      ],
      "stateMutability": "view",
      "type": "function"
    },
    {
      "inputs": [
        {
          "internalType": "uint256",
          "name": "tokenId",
          "type": "uint256"
        }
      ],
      "name": "ownerOf",
      "outputs": [
        {
          "internalType": "address",
          "name": "",
          "type": "address"
        }
      ],
      "stateMutability": "view",
      "type": "function"
    },
    {
      "inputs": [
        {
          "internalType": "uint16",
          "name": "",
          "type": "uint16"
        }
      ],
      "name": "payloadSizeLimitLookup",
      "outputs": [
        {
          "internalType": "uint256",
          "name": "",
          "type": "uint256"
        }
      ],
      "stateMutability": "view",
      "type": "function"
    },
    {
      "inputs": [],
      "name": "precrime",
      "outputs": [
        {
          "internalType": "address",
          "name": "",
          "type": "address"
        }
      ],
      "stateMutability": "view",
      "type": "function"
    },
    {
      "inputs": [],
      "name": "renounceOwnership",
      "outputs": [],
      "stateMutability": "nonpayable",
      "type": "function"
    },
    {
      "inputs": [
        {
          "internalType": "uint16",
          "name": "_srcChainId",
          "type": "uint16"
        },
        {
          "internalType": "bytes",
          "name": "_srcAddress",
          "type": "bytes"
        },
        {
          "internalType": "uint64",
          "name": "_nonce",
          "type": "uint64"
        },
        {
          "internalType": "bytes",
          "name": "_payload",
          "type": "bytes"
        }
      ],
      "name": "retryMessage",
      "outputs": [],
      "stateMutability": "payable",
      "type": "function"
    },
    {
      "inputs": [
        {
          "internalType": "address",
          "name": "from",
          "type": "address"
        },
        {
          "internalType": "address",
          "name": "to",
          "type": "address"
        },
        {
          "internalType": "uint256",
          "name": "tokenId",
          "type": "uint256"
        }
      ],
      "name": "safeTransferFrom",
      "outputs": [],
      "stateMutability": "payable",
      "type": "function"
    },
    {
      "inputs": [
        {
          "internalType": "address",
          "name": "from",
          "type": "address"
        },
        {
          "internalType": "address",
          "name": "to",
          "type": "address"
        },
        {
          "internalType": "uint256",
          "name": "tokenId",
          "type": "uint256"
        },
        {
          "internalType": "bytes",
          "name": "_data",
          "type": "bytes"
        }
      ],
      "name": "safeTransferFrom",
      "outputs": [],
      "stateMutability": "payable",
      "type": "function"
    },
    {
      "inputs": [
        {
          "internalType": "address",
          "name": "_from",
          "type": "address"
        },
        {
          "internalType": "uint16",
          "name": "_dstChainId",
          "type": "uint16"
        },
        {
          "internalType": "bytes",
          "name": "_toAddress",
          "type": "bytes"
        },
        {
          "internalType": "uint256[]",
          "name": "_tokenIds",
          "type": "uint256[]"
        },
        {
          "internalType": "address payable",
          "name": "_refundAddress",
          "type": "address"
        },
        {
          "internalType": "address",
          "name": "_zroPaymentAddress",
          "type": "address"
        },
        {
          "internalType": "bytes",
          "name": "_adapterParams",
          "type": "bytes"
        }
      ],
      "name": "sendBatchFrom",
      "outputs": [],
      "stateMutability": "payable",
      "type": "function"
    },
    {
      "inputs": [
        {
          "internalType": "address",
          "name": "_from",
          "type": "address"
        },
        {
          "internalType": "uint16",
          "name": "_dstChainId",
          "type": "uint16"
        },
        {
          "internalType": "bytes",
          "name": "_toAddress",
          "type": "bytes"
        },
        {
          "internalType": "uint256",
          "name": "_tokenId",
          "type": "uint256"
        },
        {
          "internalType": "address payable",
          "name": "_refundAddress",
          "type": "address"
        },
        {
          "internalType": "address",
          "name": "_zroPaymentAddress",
          "type": "address"
        },
        {
          "internalType": "bytes",
          "name": "_adapterParams",
          "type": "bytes"
        }
      ],
      "name": "sendFrom",
      "outputs": [],
      "stateMutability": "payable",
      "type": "function"
    },
    {
      "inputs": [
        {
          "internalType": "address",
          "name": "operator",
          "type": "address"
        },
        {
          "internalType": "bool",
          "name": "approved",
          "type": "bool"
        }
      ],
      "name": "setApprovalForAll",
      "outputs": [],
      "stateMutability": "nonpayable",
      "type": "function"
    },
    {
      "inputs": [
        {
          "internalType": "uint16",
          "name": "_version",
          "type": "uint16"
        },
        {
          "internalType": "uint16",
          "name": "_chainId",
          "type": "uint16"
        },
        {
          "internalType": "uint256",
          "name": "_configType",
          "type": "uint256"
        },
        {
          "internalType": "bytes",
          "name": "_config",
          "type": "bytes"
        }
      ],
      "name": "setConfig",
      "outputs": [],
      "stateMutability": "nonpayable",
      "type": "function"
    },
    {
      "inputs": [
        {
          "internalType": "uint16",
          "name": "_dstChainId",
          "type": "uint16"
        },
        {
          "internalType": "uint256",
          "name": "_dstChainIdToBatchLimit",
          "type": "uint256"
        }
      ],
      "name": "setDstChainIdToBatchLimit",
      "outputs": [],
      "stateMutability": "nonpayable",
      "type": "function"
    },
    {
      "inputs": [
        {
          "internalType": "uint16",
          "name": "_dstChainId",
          "type": "uint16"
        },
        {
          "internalType": "uint256",
          "name": "_dstChainIdToTransferGas",
          "type": "uint256"
        }
      ],
      "name": "setDstChainIdToTransferGas",
      "outputs": [],
      "stateMutability": "nonpayable",
      "type": "function"
    },
    {
      "inputs": [
        {
          "internalType": "uint16",
          "name": "_dstChainId",
          "type": "uint16"
        },
        {
          "internalType": "uint16",
          "name": "_packetType",
          "type": "uint16"
        },
        {
          "internalType": "uint256",
          "name": "_minGas",
          "type": "uint256"
        }
      ],
      "name": "setMinDstGas",
      "outputs": [],
      "stateMutability": "nonpayable",
      "type": "function"
    },
    {
      "inputs": [
        {
          "internalType": "uint256",
          "name": "_minGasToTransferAndStore",
          "type": "uint256"
        }
      ],
      "name": "setMinGasToTransferAndStore",
      "outputs": [],
      "stateMutability": "nonpayable",
      "type": "function"
    },
    {
      "inputs": [
        {
          "internalType": "uint16",
          "name": "_dstChainId",
          "type": "uint16"
        },
        {
          "internalType": "uint256",
          "name": "_size",
          "type": "uint256"
        }
      ],
      "name": "setPayloadSizeLimit",
      "outputs": [],
      "stateMutability": "nonpayable",
      "type": "function"
    },
    {
      "inputs": [
        {
          "internalType": "address",
          "name": "_precrime",
          "type": "address"
        }
      ],
      "name": "setPrecrime",
      "outputs": [],
      "stateMutability": "nonpayable",
      "type": "function"
    },
    {
      "inputs": [
        {
          "internalType": "uint16",
          "name": "_version",
          "type": "uint16"
        }
      ],
      "name": "setReceiveVersion",
      "outputs": [],
      "stateMutability": "nonpayable",
      "type": "function"
    },
    {
      "inputs": [
        {
          "internalType": "uint16",
          "name": "_version",
          "type": "uint16"
        }
      ],
      "name": "setSendVersion",
      "outputs": [],
      "stateMutability": "nonpayable",
      "type": "function"
    },
    {
      "inputs": [
        {
          "internalType": "uint16",
          "name": "_remoteChainId",
          "type": "uint16"
        },
        {
          "internalType": "bytes",
          "name": "_path",
          "type": "bytes"
        }
      ],
      "name": "setTrustedRemote",
      "outputs": [],
      "stateMutability": "nonpayable",
      "type": "function"
    },
    {
      "inputs": [
        {
          "internalType": "uint16",
          "name": "_remoteChainId",
          "type": "uint16"
        },
        {
          "internalType": "bytes",
          "name": "_remoteAddress",
          "type": "bytes"
        }
      ],
      "name": "setTrustedRemoteAddress",
      "outputs": [],
      "stateMutability": "nonpayable",
      "type": "function"
    },
    {
      "inputs": [
        {
          "internalType": "bytes32",
          "name": "",
          "type": "bytes32"
        }
      ],
      "name": "storedCredits",
      "outputs": [
        {
          "internalType": "uint16",
          "name": "srcChainId",
          "type": "uint16"
        },
        {
          "internalType": "address",
          "name": "toAddress",
          "type": "address"
        },
        {
          "internalType": "uint256",
          "name": "index",
          "type": "uint256"
        },
        {
          "internalType": "bool",
          "name": "creditsRemain",
          "type": "bool"
        }
      ],
      "stateMutability": "view",
      "type": "function"
    },
    {
      "inputs": [
        {
          "internalType": "bytes4",
          "name": "interfaceId",
          "type": "bytes4"
        }
      ],
      "name": "supportsInterface",
      "outputs": [
        {
          "internalType": "bool",
          "name": "",
          "type": "bool"
        }
      ],
      "stateMutability": "view",
      "type": "function"
    },
    {
      "inputs": [],
      "name": "symbol",
      "outputs": [
        {
          "internalType": "string",
          "name": "",
          "type": "string"
        }
      ],
      "stateMutability": "view",
      "type": "function"
    },
    {
      "inputs": [
        {
          "internalType": "uint256",
          "name": "tokenId",
          "type": "uint256"
        }
      ],
      "name": "tokenURI",
      "outputs": [
        {
          "internalType": "string",
          "name": "",
          "type": "string"
        }
      ],
      "stateMutability": "view",
      "type": "function"
    },
    {
      "inputs": [],
      "name": "totalSupply",
      "outputs": [
        {
          "internalType": "uint256",
          "name": "",
          "type": "uint256"
        }
      ],
      "stateMutability": "view",
      "type": "function"
    },
    {
      "inputs": [
        {
          "internalType": "address",
          "name": "from",
          "type": "address"
        },
        {
          "internalType": "address",
          "name": "to",
          "type": "address"
        },
        {
          "internalType": "uint256",
          "name": "tokenId",
          "type": "uint256"
        }
      ],
      "name": "transferFrom",
      "outputs": [],
      "stateMutability": "payable",
      "type": "function"
    },
    {
      "inputs": [
        {
          "internalType": "address",
          "name": "newOwner",
          "type": "address"
        }
      ],
      "name": "transferOwnership",
      "outputs": [],
      "stateMutability": "nonpayable",
      "type": "function"
    },
    {
      "inputs": [
        {
          "internalType": "uint16",
          "name": "",
          "type": "uint16"
        }
      ],
      "name": "trustedRemoteLookup",
      "outputs": [
        {
          "internalType": "bytes",
          "name": "",
          "type": "bytes"
        }
      ],
      "stateMutability": "view",
      "type": "function"
    }
  ],
  "bytecode": "0x60a06040523480156200001157600080fd5b506040516200432b3803806200432b8339810160408190526200003491620002ba565b8383838380806200004533620000f7565b6001600160a01b031660805250600160065581620000b55760405162461bcd60e51b8152602060048201526024808201527f6d696e476173546f5472616e73666572416e6453746f7265206d7573742062656044820152630203e20360e41b606482015260840160405180910390fd5b506007558151620000ce90600d90602085019062000147565b508051620000e490600e90602084019062000147565b506000600b55506200038c945050505050565b600080546001600160a01b038381166001600160a01b0319831681178455604051919092169283917f8be0079c531659141344cd1fd0a4f28419497f9722a3daafe3b4186f6b6457e09190a35050565b82805462000155906200034f565b90600052602060002090601f016020900481019282620001795760008555620001c4565b82601f106200019457805160ff1916838001178555620001c4565b82800160010185558215620001c4579182015b82811115620001c4578251825591602001919060010190620001a7565b50620001d2929150620001d6565b5090565b5b80821115620001d25760008155600101620001d7565b634e487b7160e01b600052604160045260246000fd5b600082601f8301126200021557600080fd5b81516001600160401b0380821115620002325762000232620001ed565b604051601f8301601f19908116603f011681019082821181831017156200025d576200025d620001ed565b816040528381526020925086838588010111156200027a57600080fd5b600091505b838210156200029e57858201830151818301840152908201906200027f565b83821115620002b05760008385830101525b9695505050505050565b60008060008060808587031215620002d157600080fd5b84516001600160401b0380821115620002e957600080fd5b620002f78883890162000203565b955060208701519150808211156200030e57600080fd5b506200031d8782880162000203565b60408701516060880151919550935090506001600160a01b03811681146200034457600080fd5b939692955090935050565b600181811c908216806200036457607f821691505b602082108114156200038657634e487b7160e01b600052602260045260246000fd5b50919050565b608051613f4b620003e0600039600081816108bb01528181610ab201528181610dbe01528181610fea015281816112f501528181611bd50152818161205c0152818161218f0152612da60152613f4b6000f3fe6080604052600436106103195760003560e01c80637533d788116101ab578063b88d4fde116100f7578063df2a5b3b11610095578063f23536411161006f578063f235364114610a22578063f2fde38b14610a42578063f5ecbdbc14610a62578063fa25f9b614610a8257600080fd5b8063df2a5b3b14610999578063e985e9c5146109b9578063eb8d72b714610a0257600080fd5b8063c87b56dd116100d1578063c87b56dd14610926578063cbed8b9c14610946578063d12473a514610966578063d1deba1f1461098657600080fd5b8063b88d4fde146108dd578063baf3292d146108f0578063c44618341461091057600080fd5b80639ea5d6b111610164578063a6c3d1651161013e578063a6c3d1651461084e578063ab3ffb931461086e578063af3fb21c14610881578063b353aaa7146108a957600080fd5b80639ea5d6b1146107ee5780639f38369a1461080e578063a22cb4651461082e57600080fd5b80637533d788146107235780638cfd8f5c146107435780638da5cb5b1461077b5780638ffa1f2a14610799578063950c8a74146107b957806395d89b41146107d957600080fd5b80632a205e3d1161026a5780634ac3f4ff116102235780636352211e116101fd5780636352211e146106ae57806366ad5c8a146106ce57806370a08231146106ee578063715018a61461070e57600080fd5b80634ac3f4ff1461061f578063519056361461064c5780635b8c41e61461065f57600080fd5b80632a205e3d146105545780633d8b38f6146105895780633f1f4fa4146105a957806342842e0e146105d657806342d65a8d146105e9578063482881901461060957600080fd5b80630b4cad4c116102d7578063150b7a02116102b1578063150b7a021461046257806318160ddd1461049b57806322a3ecf9146104be57806323b872dd1461054157600080fd5b80630b4cad4c146104025780630df374831461042257806310ddb1371461044257600080fd5b80621d35671461031e57806301ffc9a71461034057806306fdde031461037557806307e0db1714610397578063081812fc146103b7578063095ea7b3146103ef575b600080fd5b34801561032a57600080fd5b5061033e6103393660046130a8565b610aaf565b005b34801561034c57600080fd5b5061036061035b366004613151565b610ce0565b60405190151581526020015b60405180910390f35b34801561038157600080fd5b5061038a610d0b565b60405161036c91906131c6565b3480156103a357600080fd5b5061033e6103b23660046131d9565b610d9d565b3480156103c357600080fd5b506103d76103d23660046131f4565b610e26565b6040516001600160a01b03909116815260200161036c565b61033e6103fd36600461322d565b610e6a565b34801561040e57600080fd5b5061033e61041d3660046131f4565b610f0a565b34801561042e57600080fd5b5061033e61043d366004613259565b610faa565b34801561044e57600080fd5b5061033e61045d3660046131d9565b610fc9565b34801561046e57600080fd5b5061048261047d366004613338565b611021565b6040516001600160e01b0319909116815260200161036c565b3480156104a757600080fd5b50600c54600b54035b60405190815260200161036c565b3480156104ca57600080fd5b506105126104d93660046131f4565b600a6020526000908152604090208054600182015460029092015461ffff821692620100009092046001600160a01b0316919060ff1684565b6040805161ffff90951685526001600160a01b039093166020850152918301521515606082015260800161036c565b61033e61054f3660046133a3565b611032565b34801561056057600080fd5b5061057461056f3660046133f4565b6111c4565b6040805192835260208301919091520161036c565b34801561059557600080fd5b506103606105a4366004613482565b6111ea565b3480156105b557600080fd5b506104b06105c43660046131d9565b60036020526000908152604090205481565b61033e6105e43660046133a3565b6112b6565b3480156105f557600080fd5b5061033e610604366004613482565b6112d6565b34801561061557600080fd5b506104b060075481565b34801561062b57600080fd5b506104b061063a3660046131d9565b60086020526000908152604090205481565b61033e61065a3660046134d4565b61135c565b34801561066b57600080fd5b506104b061067a36600461358d565b6005602090815260009384526040808520845180860184018051928152908401958401959095209452929052825290205481565b3480156106ba57600080fd5b506103d76106c93660046131f4565b611373565b3480156106da57600080fd5b5061033e6106e93660046130a8565b61137e565b3480156106fa57600080fd5b506104b06107093660046135ea565b611452565b34801561071a57600080fd5b5061033e6114a0565b34801561072f57600080fd5b5061038a61073e3660046131d9565b6114b4565b34801561074f57600080fd5b506104b061075e366004613607565b600260209081526000928352604080842090915290825290205481565b34801561078757600080fd5b506000546001600160a01b03166103d7565b3480156107a557600080fd5b5061033e6107b436600461363a565b61154e565b3480156107c557600080fd5b506004546103d7906001600160a01b031681565b3480156107e557600080fd5b5061038a61179a565b3480156107fa57600080fd5b5061033e610809366004613259565b6117a9565b34801561081a57600080fd5b5061038a6108293660046131d9565b611860565b34801561083a57600080fd5b5061033e61084936600461366e565b611977565b34801561085a57600080fd5b5061033e610869366004613482565b6119e3565b61033e61087c366004613723565b611a76565b34801561088d57600080fd5b50610896600181565b60405161ffff909116815260200161036c565b3480156108b557600080fd5b506103d77f000000000000000000000000000000000000000000000000000000000000000081565b61033e6108eb366004613338565b611a85565b3480156108fc57600080fd5b5061033e61090b3660046135ea565b611acf565b34801561091c57600080fd5b506104b061271081565b34801561093257600080fd5b5061038a6109413660046131f4565b611b25565b34801561095257600080fd5b5061033e6109613660046137d8565b611bb6565b34801561097257600080fd5b5061033e610981366004613259565b611c4b565b61033e6109943660046130a8565b611cfb565b3480156109a557600080fd5b5061033e6109b4366004613846565b611f11565b3480156109c557600080fd5b506103606109d4366004613882565b6001600160a01b03918216600090815260126020908152604080832093909416825291909152205460ff1690565b348015610a0e57600080fd5b5061033e610a1d366004613482565b611fc3565b348015610a2e57600080fd5b50610574610a3d3660046138bb565b61201d565b348015610a4e57600080fd5b5061033e610a5d3660046135ea565b6120e8565b348015610a6e57600080fd5b5061038a610a7d366004613934565b61215e565b348015610a8e57600080fd5b506104b0610a9d3660046131d9565b60096020526000908152604090205481565b337f00000000000000000000000000000000000000000000000000000000000000006001600160a01b031614610b2c5760405162461bcd60e51b815260206004820152601e60248201527f4c7a4170703a20696e76616c696420656e64706f696e742063616c6c6572000060448201526064015b60405180910390fd5b61ffff861660009081526001602052604081208054610b4a90613981565b80601f0160208091040260200160405190810160405280929190818152602001828054610b7690613981565b8015610bc35780601f10610b9857610100808354040283529160200191610bc3565b820191906000526020600020905b815481529060010190602001808311610ba657829003601f168201915b50505050509050805186869050148015610bde575060008151115b8015610c06575080516020820120604051610bfc90889088906139bc565b6040518091039020145b610c615760405162461bcd60e51b815260206004820152602660248201527f4c7a4170703a20696e76616c696420736f757263652073656e64696e6720636f6044820152651b9d1c9858dd60d21b6064820152608401610b23565b610cd78787878080601f01602080910402602001604051908101604052809392919081815260200183838082843760009201919091525050604080516020601f8a018190048102820181019092528881528a93509150889088908190840183828082843760009201919091525061220f92505050565b50505050505050565b60006001600160e01b031982166322bac5d960e01b1480610d055750610d0582612288565b92915050565b6060600d8054610d1a90613981565b80601f0160208091040260200160405190810160405280929190818152602001828054610d4690613981565b8015610d935780601f10610d6857610100808354040283529160200191610d93565b820191906000526020600020905b815481529060010190602001808311610d7657829003601f168201915b5050505050905090565b610da56122d6565b6040516307e0db1760e01b815261ffff821660048201527f00000000000000000000000000000000000000000000000000000000000000006001600160a01b0316906307e0db17906024015b600060405180830381600087803b158015610e0b57600080fd5b505af1158015610e1f573d6000803e3d6000fd5b5050505050565b6000610e3182612330565b610e4e576040516333d1c03960e21b815260040160405180910390fd5b506000908152601160205260409020546001600160a01b031690565b6000610e7582611373565b9050336001600160a01b03821614610eae57610e9181336109d4565b610eae576040516367d9dca160e11b815260040160405180910390fd5b60008281526011602052604080822080546001600160a01b0319166001600160a01b0387811691821790925591518593918516917f8c5be1e5ebec7d5bd14f71427d1e84f3dd0314c0f7b2291e5b200ac8c7c3b92591a4505050565b610f126122d6565b60008111610f6e5760405162461bcd60e51b8152602060048201526024808201527f6d696e476173546f5472616e73666572416e6453746f7265206d7573742062656044820152630203e20360e41b6064820152608401610b23565b60078190556040518181527ffebbc4f8bb9ec2313950c718d43123124b15778efda4c1f1d529de2995b4f34d906020015b60405180910390a150565b610fb26122d6565b61ffff909116600090815260036020526040902055565b610fd16122d6565b6040516310ddb13760e01b815261ffff821660048201527f00000000000000000000000000000000000000000000000000000000000000006001600160a01b0316906310ddb13790602401610df1565b630a85bd0160e11b5b949350505050565b600061103d82612358565b9050836001600160a01b0316816001600160a01b0316146110705760405162a1148160e81b815260040160405180910390fd5b60008281526011602052604090208054338082146001600160a01b038816909114176110bd576110a086336109d4565b6110bd57604051632ce44b5f60e11b815260040160405180910390fd5b6001600160a01b0385166110e457604051633a954ecd60e21b815260040160405180910390fd5b80156110ef57600082555b6001600160a01b038681166000908152601060205260408082208054600019019055918716808252919020805460010190554260a01b17600160e11b176000858152600f6020526040902055600160e11b831661117a57600184016000818152600f602052604090205461117857600b548114611178576000818152600f602052604090208490555b505b83856001600160a01b0316876001600160a01b03167fddf252ad1be2c89b69c2b068fc378daa952ba7f163c4a11628f55a4df523b3ef60405160405180910390a45b505050505050565b6000806111dc87876111d5886123b9565b878761201d565b915091509550959350505050565b61ffff83166000908152600160205260408120805482919061120b90613981565b80601f016020809104026020016040519081016040528092919081815260200182805461123790613981565b80156112845780601f1061125957610100808354040283529160200191611284565b820191906000526020600020905b81548152906001019060200180831161126757829003601f168201915b50505050509050838360405161129b9291906139bc565b60405180910390208180519060200120149150509392505050565b6112d183838360405180602001604052806000815250611a85565b505050565b6112de6122d6565b6040516342d65a8d60e01b81526001600160a01b037f000000000000000000000000000000000000000000000000000000000000000016906342d65a8d9061132e908690869086906004016139f5565b600060405180830381600087803b15801561134857600080fd5b505af1158015610cd7573d6000803e3d6000fd5b610cd787878761136b886123b9565b878787612404565b6000610d0582612358565b3330146113dc5760405162461bcd60e51b815260206004820152602660248201527f4e6f6e626c6f636b696e674c7a4170703a2063616c6c6572206d7573742062656044820152650204c7a4170760d41b6064820152608401610b23565b6111bc8686868080601f01602080910402602001604051908101604052809392919081815260200183838082843760009201919091525050604080516020601f8901819004810282018101909252878152899350915087908790819084018382808284376000920191909152506125d892505050565b60006001600160a01b03821661147b576040516323d3ad8160e21b815260040160405180910390fd5b506001600160a01b03166000908152601060205260409020546001600160401b031690565b6114a86122d6565b6114b2600061272f565b565b600160205260009081526040902080546114cd90613981565b80601f01602080910402602001604051908101604052809291908181526020018280546114f990613981565b80156115465780601f1061151b57610100808354040283529160200191611546565b820191906000526020600020905b81548152906001019060200180831161152957829003601f168201915b505050505081565b61155661277f565b80516020808301919091206000818152600a90925260409091206002015460ff166115b75760405162461bcd60e51b81526020600482015260116024820152701b9bc818dc99591a5d1cc81cdd1bdc9959607a1b6044820152606401610b23565b6000828060200190518101906115cd9190613a58565b6000848152600a6020526040812080546001909101549294509092506116099161ffff8216916201000090046001600160a01b031690856127d9565b6000848152600a6020526040902060010154909150811161167e5760405162461bcd60e51b815260206004820152602960248201527f6e6f7420656e6f7567682067617320746f2070726f6365737320637265646974604482015268103a3930b739b332b960b91b6064820152608401610b23565b81518114156116f6576000838152600a602052604080822080546001600160b01b031916815560018101929092556002909101805460ff19169055517fd7be02b8dd0d27bd0517a9cb4d7469ce27df4313821ae5ec1ff69acc594ba233906116e99085815260200190565b60405180910390a161178a565b604080516080810182526000858152600a6020818152848320805461ffff80821687526001600160a01b03620100008084048216868a019081529989018b8152600160608b01818152998f90529790965297519851169096026001600160b01b03199091169690951695909517939093178455915191830191909155516002909101805491151560ff199092169190911790555b5050506117976001600655565b50565b6060600e8054610d1a90613981565b6117b16122d6565b6000811161180c5760405162461bcd60e51b815260206004820152602260248201527f647374436861696e4964546f42617463684c696d6974206d757374206265203e604482015261020360f41b6064820152608401610b23565b61ffff8216600081815260086020908152604091829020849055815192835282018390527f7315f7654d594ead24a30160ed9ba2d23247f543016b918343591e93d7afdb6d91015b60405180910390a15050565b61ffff811660009081526001602052604081208054606092919061188390613981565b80601f01602080910402602001604051908101604052809291908181526020018280546118af90613981565b80156118fc5780601f106118d1576101008083540402835291602001916118fc565b820191906000526020600020905b8154815290600101906020018083116118df57829003601f168201915b505050505090508051600014156119555760405162461bcd60e51b815260206004820152601d60248201527f4c7a4170703a206e6f20747275737465642070617468207265636f72640000006044820152606401610b23565b6119706000601483516119689190613b28565b83919061282b565b9392505050565b3360008181526012602090815260408083206001600160a01b03871680855290835292819020805460ff191686151590811790915590519081529192917f17307eab39ab6107e8899845ad3d59bd9653f200f220920489ca2b5937696c31910160405180910390a35050565b6119eb6122d6565b818130604051602001611a0093929190613b3f565b60408051601f1981840301815291815261ffff85166000908152600160209081529190208251611a3593919290910190612f25565b507f8c0400cfe2d1199b1a725c78960bcc2a344d869b80590d0f2bd005db15a572ce838383604051611a69939291906139f5565b60405180910390a1505050565b610cd787878787878787612404565b611a90848484611032565b6001600160a01b0383163b15611ac957611aac84848484612938565b611ac9576040516368d2bf6b60e11b815260040160405180910390fd5b50505050565b611ad76122d6565b600480546001600160a01b0319166001600160a01b0383169081179091556040519081527f5db758e995a17ec1ad84bdef7e8c3293a0bd6179bcce400dff5d4c3d87db726b90602001610f9f565b6060611b3082612330565b611b4d57604051630a14c4b560e41b815260040160405180910390fd5b6000611b6460408051602081019091526000815290565b9050805160001415611b855760405180602001604052806000815250611970565b80611b8f84612a1d565b604051602001611ba0929190613b65565b6040516020818303038152906040529392505050565b611bbe6122d6565b6040516332fb62e760e21b81526001600160a01b037f0000000000000000000000000000000000000000000000000000000000000000169063cbed8b9c90611c129088908890889088908890600401613b94565b600060405180830381600087803b158015611c2c57600080fd5b505af1158015611c40573d6000803e3d6000fd5b505050505050505050565b611c536122d6565b60008111611caf5760405162461bcd60e51b815260206004820152602360248201527f647374436861696e4964546f5472616e73666572476173206d7573742062652060448201526203e20360ec1b6064820152608401610b23565b61ffff8216600081815260096020908152604091829020849055815192835282018390527fc46df2983228ac2d9754e94a0d565e6671665dc8ad38602bc8e544f0685a29fb9101611854565b61ffff86166000908152600560205260408082209051611d1e90889088906139bc565b90815260408051602092819003830190206001600160401b03871660009081529252902054905080611d9e5760405162461bcd60e51b815260206004820152602360248201527f4e6f6e626c6f636b696e674c7a4170703a206e6f2073746f726564206d65737360448201526261676560e81b6064820152608401610b23565b808383604051611daf9291906139bc565b604051809103902014611e0e5760405162461bcd60e51b815260206004820152602160248201527f4e6f6e626c6f636b696e674c7a4170703a20696e76616c6964207061796c6f616044820152601960fa1b6064820152608401610b23565b61ffff87166000908152600560205260408082209051611e3190899089906139bc565b90815260408051602092819003830181206001600160401b038916600090815290845282902093909355601f88018290048202830182019052868252611ec9918991899089908190840183828082843760009201919091525050604080516020601f8a018190048102820181019092528881528a9350915088908890819084018382808284376000920191909152506125d892505050565b7fc264d91f3adc5588250e1551f547752ca0cfa8f6b530d243b9f9f4cab10ea8e58787878785604051611f00959493929190613bcd565b60405180910390a150505050505050565b611f196122d6565b60008111611f615760405162461bcd60e51b81526020600482015260156024820152744c7a4170703a20696e76616c6964206d696e47617360581b6044820152606401610b23565b61ffff83811660008181526002602090815260408083209487168084529482529182902085905581519283528201929092529081018290527f9d5c7c0b934da8fefa9c7760c98383778a12dfbfc0c3b3106518f43fb9508ac090606001611a69565b611fcb6122d6565b61ffff83166000908152600160205260409020611fe9908383612fa9565b507ffa41487ad5d6728f0b19276fa1eddc16558578f5109fc39d2dc33c3230470dab838383604051611a69939291906139f5565b60008060008686604051602001612035929190613c43565b60408051601f198184030181529082905263040a7bb160e41b825291506001600160a01b037f000000000000000000000000000000000000000000000000000000000000000016906340a7bb1090612099908b90309086908b908b90600401613c68565b6040805180830381865afa1580156120b5573d6000803e3d6000fd5b505050506040513d601f19601f820116820180604052508101906120d99190613cbc565b92509250509550959350505050565b6120f06122d6565b6001600160a01b0381166121555760405162461bcd60e51b815260206004820152602660248201527f4f776e61626c653a206e6577206f776e657220697320746865207a65726f206160448201526564647265737360d01b6064820152608401610b23565b6117978161272f565b604051633d7b2f6f60e21b815261ffff808616600483015284166024820152306044820152606481018290526060907f00000000000000000000000000000000000000000000000000000000000000006001600160a01b03169063f5ecbdbc90608401600060405180830381865afa1580156121de573d6000803e3d6000fd5b505050506040513d6000823e601f3d908101601f191682016040526122069190810190613ce0565b95945050505050565b6000806122725a60966366ad5c8a60e01b898989896040516024016122379493929190613d14565b60408051601f198184030181529190526020810180516001600160e01b03166001600160e01b03199093169290921790915230929190612a6b565b91509150816111bc576111bc8686868685612af5565b60006301ffc9a760e01b6001600160e01b0319831614806122b957506380ac58cd60e01b6001600160e01b03198316145b80610d055750506001600160e01b031916635b5e139f60e01b1490565b6000546001600160a01b031633146114b25760405162461bcd60e51b815260206004820181905260248201527f4f776e61626c653a2063616c6c6572206973206e6f7420746865206f776e65726044820152606401610b23565b6000600b5482108015610d055750506000908152600f6020526040902054600160e01b161590565b600081600b548110156123a0576000818152600f6020526040902054600160e01b811661239e575b806119705750600019016000818152600f6020526040902054612380565b505b604051636f96cda160e11b815260040160405180910390fd5b604080516001808252818301909252606091600091906020808301908036833701905050905082816000815181106123f3576123f3613d52565b602090810291909101015292915050565b600084511161244b5760405162461bcd60e51b8152602060048201526013602482015272746f6b656e4964735b5d20697320656d70747960681b6044820152606401610b23565b83516001148061246f575061ffff8616600090815260086020526040902054845111155b6124c65760405162461bcd60e51b815260206004820152602260248201527f62617463682073697a65206578636565647320647374206261746368206c696d6044820152611a5d60f21b6064820152608401610b23565b60005b8451811015612509576124f78888888885815181106124ea576124ea613d52565b6020026020010151612b92565b8061250181613d68565b9150506124c9565b506000858560405160200161251f929190613c43565b6040516020818303038152906040529050612564876001848851600960008d61ffff1661ffff1681526020019081526020016000205461255f9190613d83565b612b9d565b612572878286868634612c7c565b856040516125809190613da2565b6040518091039020886001600160a01b03168861ffff167fe1b87c47fdeb4f9cbadbca9df3af7aba453bb6e501075d0440d88125b711522a886040516125c69190613dbe565b60405180910390a45050505050505050565b600080828060200190518101906125ef9190613a58565b601482015191935091506000612607888383866127d9565b905082518110156126db5784516020808701919091206040805160808101825261ffff808d1682526001600160a01b038088168387019081528385018881526001606086018181526000898152600a909a529887902095518654935190941662010000026001600160b01b03199093169390941692909217178355519082015592516002909301805493151560ff199094169390931790925590517f10e0b70d256bccc84b7027506978bd8b68984a870788b93b479def144c839ad7906126d19083908990613dd1565b60405180910390a1505b816001600160a01b0316876040516126f39190613da2565b60405180910390208961ffff167f5b821db8a46f8ecbe1941ba2f51cfeea9643268b56631f70d45e2a745d990265866040516125c69190613dbe565b600080546001600160a01b038381166001600160a01b0319831681178455604051919092169283917f8be0079c531659141344cd1fd0a4f28419497f9722a3daafe3b4186f6b6457e09190a35050565b600260065414156127d25760405162461bcd60e51b815260206004820152601f60248201527f5265656e7472616e637947756172643a207265656e7472616e742063616c6c006044820152606401610b23565b6002600655565b6000825b8251811015612206576007545a10156127f557612206565b612819868685848151811061280c5761280c613d52565b6020026020010151612e22565b8061282381613d68565b9150506127dd565b60608161283981601f613dea565b10156128785760405162461bcd60e51b815260206004820152600e60248201526d736c6963655f6f766572666c6f7760901b6044820152606401610b23565b6128828284613dea565b845110156128c65760405162461bcd60e51b8152602060048201526011602482015270736c6963655f6f75744f66426f756e647360781b6044820152606401610b23565b6060821580156128e5576040519150600082526020820160405261292f565b6040519150601f8416801560200281840101858101878315602002848b0101015b8183101561291e578051835260209283019201612906565b5050858452601f01601f1916604052505b50949350505050565b604051630a85bd0160e11b81526000906001600160a01b0385169063150b7a029061296d903390899088908890600401613e02565b6020604051808303816000875af19250505080156129a8575060408051601f3d908101601f191682019092526129a591810190613e3f565b60015b612a03573d8080156129d6576040519150601f19603f3d011682016040523d82523d6000602084013e6129db565b606091505b5080516129fb576040516368d2bf6b60e11b815260040160405180910390fd5b805181602001fd5b6001600160e01b031916630a85bd0160e11b14905061102a565b606060a06040510180604052602081039150506000815280825b600183039250600a81066030018353600a900480612a5457612a59565b612a37565b50819003601f19909101908152919050565b6000606060008060008661ffff166001600160401b03811115612a9057612a90613275565b6040519080825280601f01601f191660200182016040528015612aba576020820181803683370190505b50905060008087516020890160008d8df191503d925086831115612adc578692505b828152826000602083013e909890975095505050505050565b8180519060200120600560008761ffff1661ffff16815260200190815260200160002085604051612b269190613da2565b9081526040805191829003602090810183206001600160401b0388166000908152915220919091557fe183f33de2837795525b4792ca4cd60535bd77c53b7e7030060bfcf5734d6b0c90612b839087908790879087908790613e5c565b60405180910390a15050505050565b611ac98430836112b6565b6000612ba883612e5b565b61ffff808716600090815260026020908152604080832093891683529290529081205491925090612bda908490613dea565b905060008111612c2c5760405162461bcd60e51b815260206004820152601a60248201527f4c7a4170703a206d696e4761734c696d6974206e6f74207365740000000000006044820152606401610b23565b808210156111bc5760405162461bcd60e51b815260206004820152601b60248201527f4c7a4170703a20676173206c696d697420697320746f6f206c6f7700000000006044820152606401610b23565b61ffff861660009081526001602052604081208054612c9a90613981565b80601f0160208091040260200160405190810160405280929190818152602001828054612cc690613981565b8015612d135780601f10612ce857610100808354040283529160200191612d13565b820191906000526020600020905b815481529060010190602001808311612cf657829003601f168201915b50505050509050805160001415612d855760405162461bcd60e51b815260206004820152603060248201527f4c7a4170703a2064657374696e6174696f6e20636861696e206973206e6f742060448201526f61207472757374656420736f7572636560801b6064820152608401610b23565b612d90878751612eb7565b60405162c5803160e81b81526001600160a01b037f0000000000000000000000000000000000000000000000000000000000000000169063c5803100908490612de7908b9086908c908c908c908c90600401613eae565b6000604051808303818588803b158015612e0057600080fd5b505af1158015612e14573d6000803e3d6000fd5b505050505050505050505050565b612e2b81612330565b8015612e47575030612e3c82611373565b6001600160a01b0316145b612e5057600080fd5b6112d13083836112b6565b6000602282511015612eaf5760405162461bcd60e51b815260206004820152601c60248201527f4c7a4170703a20696e76616c69642061646170746572506172616d73000000006044820152606401610b23565b506022015190565b61ffff821660009081526003602052604090205480612ed557506127105b808211156112d15760405162461bcd60e51b815260206004820181905260248201527f4c7a4170703a207061796c6f61642073697a6520697320746f6f206c617267656044820152606401610b23565b828054612f3190613981565b90600052602060002090601f016020900481019282612f535760008555612f99565b82601f10612f6c57805160ff1916838001178555612f99565b82800160010185558215612f99579182015b82811115612f99578251825591602001919060010190612f7e565b50612fa592915061301d565b5090565b828054612fb590613981565b90600052602060002090601f016020900481019282612fd75760008555612f99565b82601f10612ff05782800160ff19823516178555612f99565b82800160010185558215612f99579182015b82811115612f99578235825591602001919060010190613002565b5b80821115612fa5576000815560010161301e565b803561ffff8116811461304457600080fd5b919050565b60008083601f84011261305b57600080fd5b5081356001600160401b0381111561307257600080fd5b60208301915083602082850101111561308a57600080fd5b9250929050565b80356001600160401b038116811461304457600080fd5b600080600080600080608087890312156130c157600080fd5b6130ca87613032565b955060208701356001600160401b03808211156130e657600080fd5b6130f28a838b01613049565b909750955085915061310660408a01613091565b9450606089013591508082111561311c57600080fd5b5061312989828a01613049565b979a9699509497509295939492505050565b6001600160e01b03198116811461179757600080fd5b60006020828403121561316357600080fd5b81356119708161313b565b60005b83811015613189578181015183820152602001613171565b83811115611ac95750506000910152565b600081518084526131b281602086016020860161316e565b601f01601f19169290920160200192915050565b602081526000611970602083018461319a565b6000602082840312156131eb57600080fd5b61197082613032565b60006020828403121561320657600080fd5b5035919050565b6001600160a01b038116811461179757600080fd5b80356130448161320d565b6000806040838503121561324057600080fd5b823561324b8161320d565b946020939093013593505050565b6000806040838503121561326c57600080fd5b61324b83613032565b634e487b7160e01b600052604160045260246000fd5b604051601f8201601f191681016001600160401b03811182821017156132b3576132b3613275565b604052919050565b60006001600160401b038211156132d4576132d4613275565b50601f01601f191660200190565b600082601f8301126132f357600080fd5b8135613306613301826132bb565b61328b565b81815284602083860101111561331b57600080fd5b816020850160208301376000918101602001919091529392505050565b6000806000806080858703121561334e57600080fd5b84356133598161320d565b935060208501356133698161320d565b92506040850135915060608501356001600160401b0381111561338b57600080fd5b613397878288016132e2565b91505092959194509250565b6000806000606084860312156133b857600080fd5b83356133c38161320d565b925060208401356133d38161320d565b929592945050506040919091013590565b8035801515811461304457600080fd5b600080600080600060a0868803121561340c57600080fd5b61341586613032565b945060208601356001600160401b038082111561343157600080fd5b61343d89838a016132e2565b955060408801359450613452606089016133e4565b9350608088013591508082111561346857600080fd5b50613475888289016132e2565b9150509295509295909350565b60008060006040848603121561349757600080fd5b6134a084613032565b925060208401356001600160401b038111156134bb57600080fd5b6134c786828701613049565b9497909650939450505050565b600080600080600080600060e0888a0312156134ef57600080fd5b87356134fa8161320d565b965061350860208901613032565b955060408801356001600160401b038082111561352457600080fd5b6135308b838c016132e2565b965060608a0135955060808a013591506135498261320d565b90935060a08901359061355b8261320d565b90925060c0890135908082111561357157600080fd5b5061357e8a828b016132e2565b91505092959891949750929550565b6000806000606084860312156135a257600080fd5b6135ab84613032565b925060208401356001600160401b038111156135c657600080fd5b6135d2868287016132e2565b9250506135e160408501613091565b90509250925092565b6000602082840312156135fc57600080fd5b81356119708161320d565b6000806040838503121561361a57600080fd5b61362383613032565b915061363160208401613032565b90509250929050565b60006020828403121561364c57600080fd5b81356001600160401b0381111561366257600080fd5b61102a848285016132e2565b6000806040838503121561368157600080fd5b823561368c8161320d565b9150613631602084016133e4565b60006001600160401b038211156136b3576136b3613275565b5060051b60200190565b600082601f8301126136ce57600080fd5b813560206136de6133018361369a565b82815260059290921b840181019181810190868411156136fd57600080fd5b8286015b848110156137185780358352918301918301613701565b509695505050505050565b600080600080600080600060e0888a03121561373e57600080fd5b87356137498161320d565b965061375760208901613032565b955060408801356001600160401b038082111561377357600080fd5b61377f8b838c016132e2565b965060608a013591508082111561379557600080fd5b6137a18b838c016136bd565b955060808a013591506137b38261320d565b8194506137c260a08b01613222565b935060c08a013591508082111561357157600080fd5b6000806000806000608086880312156137f057600080fd5b6137f986613032565b945061380760208701613032565b93506040860135925060608601356001600160401b0381111561382957600080fd5b61383588828901613049565b969995985093965092949392505050565b60008060006060848603121561385b57600080fd5b61386484613032565b925061387260208501613032565b9150604084013590509250925092565b6000806040838503121561389557600080fd5b82356138a08161320d565b915060208301356138b08161320d565b809150509250929050565b600080600080600060a086880312156138d357600080fd5b6138dc86613032565b945060208601356001600160401b03808211156138f857600080fd5b61390489838a016132e2565b9550604088013591508082111561391a57600080fd5b61392689838a016136bd565b9450613452606089016133e4565b6000806000806080858703121561394a57600080fd5b61395385613032565b935061396160208601613032565b925060408501356139718161320d565b9396929550929360600135925050565b600181811c9082168061399557607f821691505b602082108114156139b657634e487b7160e01b600052602260045260246000fd5b50919050565b8183823760009101908152919050565b81835281816020850137506000828201602090810191909152601f909101601f19169091010190565b61ffff841681526040602082015260006122066040830184866139cc565b600082601f830112613a2457600080fd5b8151613a32613301826132bb565b818152846020838601011115613a4757600080fd5b61102a82602083016020870161316e565b60008060408385031215613a6b57600080fd5b82516001600160401b0380821115613a8257600080fd5b613a8e86838701613a13565b9350602091508185015181811115613aa557600080fd5b85019050601f81018613613ab857600080fd5b8051613ac66133018261369a565b81815260059190911b82018301908381019088831115613ae557600080fd5b928401925b82841015613b0357835182529284019290840190613aea565b80955050505050509250929050565b634e487b7160e01b600052601160045260246000fd5b600082821015613b3a57613b3a613b12565b500390565b8284823760609190911b6bffffffffffffffffffffffff19169101908152601401919050565b60008351613b7781846020880161316e565b835190830190613b8b81836020880161316e565b01949350505050565b600061ffff808816835280871660208401525084604083015260806060830152613bc26080830184866139cc565b979650505050505050565b61ffff86168152608060208201526000613beb6080830186886139cc565b6001600160401b0394909416604083015250606001529392505050565b600081518084526020808501945080840160005b83811015613c3857815187529582019590820190600101613c1c565b509495945050505050565b604081526000613c56604083018561319a565b82810360208401526122068185613c08565b61ffff861681526001600160a01b038516602082015260a060408201819052600090613c969083018661319a565b84151560608401528281036080840152613cb0818561319a565b98975050505050505050565b60008060408385031215613ccf57600080fd5b505080516020909101519092909150565b600060208284031215613cf257600080fd5b81516001600160401b03811115613d0857600080fd5b61102a84828501613a13565b61ffff85168152608060208201526000613d31608083018661319a565b6001600160401b03851660408401528281036060840152613bc2818561319a565b634e487b7160e01b600052603260045260246000fd5b6000600019821415613d7c57613d7c613b12565b5060010190565b6000816000190483118215151615613d9d57613d9d613b12565b500290565b60008251613db481846020870161316e565b9190910192915050565b6020815260006119706020830184613c08565b82815260406020820152600061102a604083018461319a565b60008219821115613dfd57613dfd613b12565b500190565b6001600160a01b0385811682528416602082015260408101839052608060608201819052600090613e359083018461319a565b9695505050505050565b600060208284031215613e5157600080fd5b81516119708161313b565b61ffff8616815260a060208201526000613e7960a083018761319a565b6001600160401b03861660408401528281036060840152613e9a818661319a565b90508281036080840152613cb0818561319a565b61ffff8716815260c060208201526000613ecb60c083018861319a565b8281036040840152613edd818861319a565b6001600160a01b0387811660608601528616608085015283810360a08501529050613f08818561319a565b999850505050505050505056fea2646970667358221220051aae830fcfc4a2c10a2ac24bba24e54d413f57bf37e6c180c130bdc18f8cf064736f6c634300080c0033",
  "linkReferences": {},
  "deployedLinkReferences": {}
}