{
  "_format": "hh-sol-artifact-1",
  "contractName": "StargateSwap",
  "sourceName": "contracts/stargate/StargateSwap.sol",
  "abi": [
    {
      "inputs": [
        {
          "internalType": "address",
          "name": "_stargateRouter",
          "type": "address"
        },
        {
          "internalType": "address",
          "name": "_widgetSwap",
          "type": "address"
        },
        {
          "internalType": "bytes2",
          "name": "_partnerId",
          "type": "bytes2"
        }
      ],
      "stateMutability": "nonpayable",
      "type": "constructor"
    },
    {
      "anonymous": false,
      "inputs": [
        {
          "indexed": false,
          "internalType": "address",
          "name": "token",
          "type": "address"
        },
        {
          "indexed": false,
          "internalType": "uint256",
          "name": "qty",
          "type": "uint256"
        }
      ],
      "name": "ReceivedOnDestination",
      "type": "event"
    },
    {
      "inputs": [],
      "name": "partnerId",
      "outputs": [
        {
          "internalType": "bytes2",
          "name": "",
          "type": "bytes2"
        }
      ],
      "stateMutability": "view",
      "type": "function"
    },
    {
      "inputs": [
        {
          "internalType": "uint16",
          "name": "",
          "type": "uint16"
        },
        {
          "internalType": "bytes",
          "name": "",
          "type": "bytes"
        },
        {
          "internalType": "uint256",
          "name": "",
          "type": "uint256"
        },
        {
          "internalType": "address",
          "name": "_token",
          "type": "address"
        },
        {
          "internalType": "uint256",
          "name": "amountLD",
          "type": "uint256"
        },
        {
          "internalType": "bytes",
          "name": "_payload",
          "type": "bytes"
        }
      ],
      "name": "sgReceive",
      "outputs": [],
      "stateMutability": "nonpayable",
      "type": "function"
    },
    {
      "inputs": [],
      "name": "stargateRouter",
      "outputs": [
        {
          "internalType": "address",
          "name": "",
          "type": "address"
        }
      ],
      "stateMutability": "view",
      "type": "function"
    },
    {
      "inputs": [
        {
          "internalType": "uint256",
          "name": "qty",
          "type": "uint256"
        },
        {
          "internalType": "address",
          "name": "bridgeToken",
          "type": "address"
        },
        {
          "internalType": "uint16",
          "name": "dstChainId",
          "type": "uint16"
        },
        {
          "internalType": "uint16",
          "name": "srcPoolId",
          "type": "uint16"
        },
        {
          "internalType": "uint16",
          "name": "dstPoolId",
          "type": "uint16"
        },
        {
          "internalType": "address",
          "name": "to",
          "type": "address"
        },
        {
          "internalType": "address",
          "name": "destStargateComposed",
          "type": "address"
        }
      ],
      "name": "swap",
      "outputs": [],
      "stateMutability": "payable",
      "type": "function"
    },
    {
      "inputs": [],
      "name": "widgetSwap",
      "outputs": [
        {
          "internalType": "address",
          "name": "",
          "type": "address"
        }
      ],
      "stateMutability": "view",
      "type": "function"
    }
  ],
  "bytecode": "0x608060405234801561001057600080fd5b50604051610d89380380610d8983398101604081905261002f91610095565b600080546001600160a01b039485166001600160a01b03199091161790556001805460f09290921c600160a01b026001600160b01b031990921692909316919091171790556100ea565b80516001600160a01b038116811461009057600080fd5b919050565b6000806000606084860312156100aa57600080fd5b6100b384610079565b92506100c160208501610079565b60408501519092506001600160f01b0319811681146100df57600080fd5b809150509250925092565b610c90806100f96000396000f3fe60806040526004361061004a5760003560e01c8063a9e56f3c1461004f578063aa37db6c1461008c578063ab8236f3146100c6578063b13bf315146100e8578063dd1bc08e146100fb575b600080fd5b34801561005b57600080fd5b5060005461006f906001600160a01b031681565b6040516001600160a01b0390911681526020015b60405180910390f35b34801561009857600080fd5b506001546100ad90600160a01b900460f01b81565b6040516001600160f01b03199091168152602001610083565b3480156100d257600080fd5b506100e66100e13660046109ae565b61011b565b005b6100e66100f6366004610a49565b610264565b34801561010757600080fd5b5060015461006f906001600160a01b031681565b6000546001600160a01b0316331461018b5760405162461bcd60e51b815260206004820152602860248201527f6f6e6c7920737461726761746520726f757465722063616e2063616c6c207367604482015267526563656976652160c01b60648201526084015b60405180910390fd5b6000818060200190518101906101a19190610ad0565b60405163a9059cbb60e01b81526001600160a01b038083166004830152602482018690529192509085169063a9059cbb906044016020604051808303816000875af11580156101f4573d6000803e3d6000fd5b505050506040513d601f19601f820116820180604052508101906102189190610af4565b50604080516001600160a01b0386168152602081018590527f9055ece9d44a86bda76b7ffbee0015dcdd504bd121fe9d4afd5300275ee817be910160405180910390a150505050505050565b600034116102da5760405162461bcd60e51b815260206004820152603760248201527f73746172676174652072657175697265732061206d73672e76616c756520746f60448201527f207061792063726f7373636861696e206d6573736167650000000000000000006064820152608401610182565b6000871161032a5760405162461bcd60e51b815260206004820152601e60248201527f6572726f723a2073776170282920726571756972657320717479203e203000006044820152606401610182565b604080516001600160a01b03841660208201526000910160408051601f1981840301815291905290506103686001600160a01b03881633308b6104ef565b600054610382906001600160a01b0389811691168a610560565b60008054906101000a90046001600160a01b03166001600160a01b0316639fbf10fc34888888338e6000604051806060016040528062030d4081526020016000815260200160405180604001604052806002815260200161060f60f31b8152508152508b60405160200161040e919060609190911b6bffffffffffffffffffffffff1916815260140190565b6040516020818303038152906040528b6040518b63ffffffff1660e01b815260040161044299989796959493929190610b6e565b6000604051808303818588803b15801561045b57600080fd5b505af115801561046f573d6000803e3d6000fd5b505060015460405163a87376e960e01b81526001600160f01b0319600160a01b830460f01b1660048201526001600160a01b03909116935063a87376e992506024019050600060405180830381600087803b1580156104cd57600080fd5b505af11580156104e1573d6000803e3d6000fd5b505050505050505050505050565b6040516001600160a01b038085166024830152831660448201526064810182905261055a9085906323b872dd60e01b906084015b60408051601f198184030181529190526020810180516001600160e01b03166001600160e01b03199093169290921790915261067a565b50505050565b8015806105da5750604051636eb1769f60e11b81523060048201526001600160a01b03838116602483015284169063dd62ed3e90604401602060405180830381865afa1580156105b4573d6000803e3d6000fd5b505050506040513d601f19601f820116820180604052508101906105d89190610c12565b155b6106455760405162461bcd60e51b815260206004820152603660248201527f5361666545524332303a20617070726f76652066726f6d206e6f6e2d7a65726f60448201527520746f206e6f6e2d7a65726f20616c6c6f77616e636560501b6064820152608401610182565b6040516001600160a01b03831660248201526044810182905261067590849063095ea7b360e01b90606401610523565b505050565b60006106cf826040518060400160405280602081526020017f5361666545524332303a206c6f772d6c6576656c2063616c6c206661696c6564815250856001600160a01b031661074f9092919063ffffffff16565b90508051600014806106f05750808060200190518101906106f09190610af4565b6106755760405162461bcd60e51b815260206004820152602a60248201527f5361666545524332303a204552433230206f7065726174696f6e20646964206e6044820152691bdd081cdd58d8d9595960b21b6064820152608401610182565b606061075e8484600085610766565b949350505050565b6060824710156107c75760405162461bcd60e51b815260206004820152602660248201527f416464726573733a20696e73756666696369656e742062616c616e636520666f6044820152651c8818d85b1b60d21b6064820152608401610182565b600080866001600160a01b031685876040516107e39190610c2b565b60006040518083038185875af1925050503d8060008114610820576040519150601f19603f3d011682016040523d82523d6000602084013e610825565b606091505b509150915061083687838387610841565b979650505050505050565b606083156108ad5782516108a6576001600160a01b0385163b6108a65760405162461bcd60e51b815260206004820152601d60248201527f416464726573733a2063616c6c20746f206e6f6e2d636f6e74726163740000006044820152606401610182565b508161075e565b61075e83838151156108c25781518083602001fd5b8060405162461bcd60e51b81526004016101829190610c47565b803561ffff811681146108ee57600080fd5b919050565b634e487b7160e01b600052604160045260246000fd5b600082601f83011261091a57600080fd5b813567ffffffffffffffff80821115610935576109356108f3565b604051601f8301601f19908116603f0116810190828211818310171561095d5761095d6108f3565b8160405283815286602085880101111561097657600080fd5b836020870160208301376000602085830101528094505050505092915050565b6001600160a01b03811681146109ab57600080fd5b50565b60008060008060008060c087890312156109c757600080fd5b6109d0876108dc565b9550602087013567ffffffffffffffff808211156109ed57600080fd5b6109f98a838b01610909565b96506040890135955060608901359150610a1282610996565b9093506080880135925060a08801359080821115610a2f57600080fd5b50610a3c89828a01610909565b9150509295509295509295565b600080600080600080600060e0888a031215610a6457600080fd5b873596506020880135610a7681610996565b9550610a84604089016108dc565b9450610a92606089016108dc565b9350610aa0608089016108dc565b925060a0880135610ab081610996565b915060c0880135610ac081610996565b8091505092959891949750929550565b600060208284031215610ae257600080fd5b8151610aed81610996565b9392505050565b600060208284031215610b0657600080fd5b81518015158114610aed57600080fd5b60005b83811015610b31578181015183820152602001610b19565b8381111561055a5750506000910152565b60008151808452610b5a816020860160208601610b16565b601f01601f19169290920160200192915050565b600061012061ffff808d168452808c166020850152808b1660408501525060018060a01b03891660608401528760808401528660a08401528060c084015285518184015250602085015161014083015260408501516060610160840152610bd9610180840182610b42565b905082810360e0840152610bed8186610b42565b9050828103610100840152610c028185610b42565b9c9b505050505050505050505050565b600060208284031215610c2457600080fd5b5051919050565b60008251610c3d818460208701610b16565b9190910192915050565b602081526000610aed6020830184610b4256fea2646970667358221220534abc4786111c7f8c37f5d2597332166ebec8239af00cd1cb35cd8d1070c14164736f6c634300080c0033",
  "linkReferences": {},
  "deployedLinkReferences": {}
}