{
  "_format": "hh-sol-artifact-1",
  "contractName": "OFT",
  "sourceName": "contracts/standards/oft/OFT.sol",
  "abi": [
    {
      "inputs": [
        {
          "internalType": "string",
          "name": "_name",
          "type": "string"
        },
        {
          "internalType": "string",
          "name": "_symbol",
          "type": "string"
        },
        {
          "internalType": "uint8",
          "name": "_localDecimals",
          "type": "uint8"
        },
        {
          "internalType": "address",
          "name": "_endpoint",
          "type": "address"
        }
      ],
      "stateMutability": "nonpayable",
      "type": "constructor"
    },
    {
      "inputs": [
        {
          "internalType": "uint256",
          "name": "_amountLDSend",
          "type": "uint256"
        },
        {
          "internalType": "uint256",
          "name": "_minAmountLD",
          "type": "uint256"
        }
      ],
      "name": "AmountSlippage",
      "type": "error"
    },
    {
      "inputs": [
        {
          "internalType": "address",
          "name": "addr",
          "type": "address"
        }
      ],
      "name": "EndpointOnly",
      "type": "error"
    },
    {
      "inputs": [
        {
          "internalType": "bytes32",
          "name": "addr",
          "type": "bytes32"
        }
      ],
      "name": "InvalidPeer",
      "type": "error"
    },
    {
      "inputs": [],
      "name": "InvalidPeerState",
      "type": "error"
    },
    {
      "inputs": [],
      "name": "LDMinusSD",
      "type": "error"
    },
    {
      "inputs": [
        {
          "internalType": "uint16",
          "name": "code",
          "type": "uint16"
        },
        {
          "internalType": "bytes",
          "name": "result",
          "type": "bytes"
        }
      ],
      "name": "LzReceiveRevert",
      "type": "error"
    },
    {
      "inputs": [
        {
          "internalType": "uint32",
          "name": "eid",
          "type": "uint32"
        }
      ],
      "name": "NoPeerSet",
      "type": "error"
    },
    {
      "inputs": [
        {
          "internalType": "address",
          "name": "addr",
          "type": "address"
        }
      ],
      "name": "PreCrimeOnly",
      "type": "error"
    },
    {
      "anonymous": false,
      "inputs": [
        {
          "indexed": true,
          "internalType": "address",
          "name": "owner",
          "type": "address"
        },
        {
          "indexed": true,
          "internalType": "address",
          "name": "spender",
          "type": "address"
        },
        {
          "indexed": false,
          "internalType": "uint256",
          "name": "value",
          "type": "uint256"
        }
      ],
      "name": "Approval",
      "type": "event"
    },
    {
      "anonymous": false,
      "inputs": [
        {
          "indexed": true,
          "internalType": "address",
          "name": "previousOwner",
          "type": "address"
        },
        {
          "indexed": true,
          "internalType": "address",
          "name": "newOwner",
          "type": "address"
        }
      ],
      "name": "OwnershipTransferred",
      "type": "event"
    },
    {
      "anonymous": false,
      "inputs": [
        {
          "indexed": true,
          "internalType": "bytes32",
          "name": "_guid",
          "type": "bytes32"
        },
        {
          "indexed": true,
          "internalType": "address",
          "name": "_toAddress",
          "type": "address"
        },
        {
          "indexed": false,
          "internalType": "uint256",
          "name": "_amountLD",
          "type": "uint256"
        }
      ],
      "name": "ReceiveOFT",
      "type": "event"
    },
    {
      "anonymous": false,
      "inputs": [
        {
          "indexed": true,
          "internalType": "bytes32",
          "name": "_guid",
          "type": "bytes32"
        },
        {
          "indexed": true,
          "internalType": "address",
          "name": "_fromAddress",
          "type": "address"
        },
        {
          "indexed": false,
          "internalType": "uint256",
          "name": "_amountLD",
          "type": "uint256"
        }
      ],
      "name": "SendOFT",
      "type": "event"
    },
    {
      "anonymous": false,
      "inputs": [
        {
          "components": [
            {
              "internalType": "uint16",
              "name": "msgType",
              "type": "uint16"
            },
            {
              "internalType": "uint32",
              "name": "eid",
              "type": "uint32"
            },
            {
              "internalType": "bytes",
              "name": "options",
              "type": "bytes"
            }
          ],
          "indexed": false,
          "internalType": "struct IOApp.EnforcedOptionParam[]",
          "name": "_enforcedOptions",
          "type": "tuple[]"
        }
      ],
      "name": "SetEnforcedOption",
      "type": "event"
    },
    {
      "anonymous": false,
      "inputs": [
        {
          "indexed": false,
          "internalType": "address",
          "name": "_inspector",
          "type": "address"
        }
      ],
      "name": "SetInspector",
      "type": "event"
    },
    {
      "anonymous": false,
      "inputs": [
        {
          "indexed": false,
          "internalType": "uint32",
          "name": "remoteEid",
          "type": "uint32"
        },
        {
          "indexed": false,
          "internalType": "bytes32",
          "name": "peer",
          "type": "bytes32"
        }
      ],
      "name": "SetPeer",
      "type": "event"
    },
    {
      "anonymous": false,
      "inputs": [
        {
          "indexed": false,
          "internalType": "address",
          "name": "precrime",
          "type": "address"
        }
      ],
      "name": "SetPrecrime",
      "type": "event"
    },
    {
      "anonymous": false,
      "inputs": [
        {
          "indexed": true,
          "internalType": "address",
          "name": "from",
          "type": "address"
        },
        {
          "indexed": true,
          "internalType": "address",
          "name": "to",
          "type": "address"
        },
        {
          "indexed": false,
          "internalType": "uint256",
          "name": "value",
          "type": "uint256"
        }
      ],
      "name": "Transfer",
      "type": "event"
    },
    {
      "inputs": [
        {
          "internalType": "address",
          "name": "owner",
          "type": "address"
        },
        {
          "internalType": "address",
          "name": "spender",
          "type": "address"
        }
      ],
      "name": "allowance",
      "outputs": [
        {
          "internalType": "uint256",
          "name": "",
          "type": "uint256"
        }
      ],
      "stateMutability": "view",
      "type": "function"
    },
    {
      "inputs": [
        {
          "internalType": "address",
          "name": "spender",
          "type": "address"
        },
        {
          "internalType": "uint256",
          "name": "amount",
          "type": "uint256"
        }
      ],
      "name": "approve",
      "outputs": [
        {
          "internalType": "bool",
          "name": "",
          "type": "bool"
        }
      ],
      "stateMutability": "nonpayable",
      "type": "function"
    },
    {
      "inputs": [
        {
          "internalType": "address",
          "name": "account",
          "type": "address"
        }
      ],
      "name": "balanceOf",
      "outputs": [
        {
          "internalType": "uint256",
          "name": "",
          "type": "uint256"
        }
      ],
      "stateMutability": "view",
      "type": "function"
    },
    {
      "inputs": [
        {
          "internalType": "bytes",
          "name": "_callData",
          "type": "bytes"
        }
      ],
      "name": "callEndpoint",
      "outputs": [],
      "stateMutability": "nonpayable",
      "type": "function"
    },
    {
      "inputs": [],
      "name": "decimals",
      "outputs": [
        {
          "internalType": "uint8",
          "name": "",
          "type": "uint8"
        }
      ],
      "stateMutability": "view",
      "type": "function"
    },
    {
      "inputs": [
        {
          "internalType": "address",
          "name": "spender",
          "type": "address"
        },
        {
          "internalType": "uint256",
          "name": "subtractedValue",
          "type": "uint256"
        }
      ],
      "name": "decreaseAllowance",
      "outputs": [
        {
          "internalType": "bool",
          "name": "",
          "type": "bool"
        }
      ],
      "stateMutability": "nonpayable",
      "type": "function"
    },
    {
      "inputs": [],
      "name": "endpoint",
      "outputs": [
        {
          "internalType": "contract ILayerZeroEndpointV2",
          "name": "",
          "type": "address"
        }
      ],
      "stateMutability": "view",
      "type": "function"
    },
    {
      "inputs": [
        {
          "internalType": "address",
          "name": "spender",
          "type": "address"
        },
        {
          "internalType": "uint256",
          "name": "addedValue",
          "type": "uint256"
        }
      ],
      "name": "increaseAllowance",
      "outputs": [
        {
          "internalType": "bool",
          "name": "",
          "type": "bool"
        }
      ],
      "stateMutability": "nonpayable",
      "type": "function"
    },
    {
      "inputs": [],
      "name": "inspector",
      "outputs": [
        {
          "internalType": "contract IInspector",
          "name": "",
          "type": "address"
        }
      ],
      "stateMutability": "view",
      "type": "function"
    },
    {
      "inputs": [
        {
          "components": [
            {
              "internalType": "uint32",
              "name": "srcEid",
              "type": "uint32"
            },
            {
              "internalType": "bytes32",
              "name": "sender",
              "type": "bytes32"
            },
            {
              "internalType": "uint64",
              "name": "nonce",
              "type": "uint64"
            }
          ],
          "internalType": "struct Origin",
          "name": "_origin",
          "type": "tuple"
        },
        {
          "internalType": "bytes32",
          "name": "_guid",
          "type": "bytes32"
        },
        {
          "internalType": "bytes",
          "name": "_message",
          "type": "bytes"
        },
        {
          "internalType": "address",
          "name": "_executor",
          "type": "address"
        },
        {
          "internalType": "bytes",
          "name": "_extraData",
          "type": "bytes"
        }
      ],
      "name": "lzReceive",
      "outputs": [],
      "stateMutability": "payable",
      "type": "function"
    },
    {
      "inputs": [
        {
          "components": [
            {
              "components": [
                {
                  "internalType": "uint32",
                  "name": "srcEid",
                  "type": "uint32"
                },
                {
                  "internalType": "bytes32",
                  "name": "sender",
                  "type": "bytes32"
                },
                {
                  "internalType": "uint64",
                  "name": "nonce",
                  "type": "uint64"
                }
              ],
              "internalType": "struct Origin",
              "name": "origin",
              "type": "tuple"
            },
            {
              "internalType": "bytes32",
              "name": "guid",
              "type": "bytes32"
            },
            {
              "internalType": "bytes",
              "name": "message",
              "type": "bytes"
            },
            {
              "internalType": "bytes",
              "name": "callParams",
              "type": "bytes"
            }
          ],
          "internalType": "struct IPreCrime.Packet[]",
          "name": "_packets",
          "type": "tuple[]"
        }
      ],
      "name": "lzReceiveAndRevert",
      "outputs": [],
      "stateMutability": "payable",
      "type": "function"
    },
    {
      "inputs": [],
      "name": "name",
      "outputs": [
        {
          "internalType": "string",
          "name": "",
          "type": "string"
        }
      ],
      "stateMutability": "view",
      "type": "function"
    },
    {
      "inputs": [
        {
          "internalType": "uint32",
          "name": "",
          "type": "uint32"
        },
        {
          "internalType": "bytes32",
          "name": "",
          "type": "bytes32"
        }
      ],
      "name": "nextNonce",
      "outputs": [
        {
          "internalType": "uint64",
          "name": "",
          "type": "uint64"
        }
      ],
      "stateMutability": "view",
      "type": "function"
    },
    {
      "inputs": [],
      "name": "owner",
      "outputs": [
        {
          "internalType": "address",
          "name": "",
          "type": "address"
        }
      ],
      "stateMutability": "view",
      "type": "function"
    },
    {
      "inputs": [
        {
          "internalType": "uint32",
          "name": "",
          "type": "uint32"
        }
      ],
      "name": "peers",
      "outputs": [
        {
          "internalType": "bytes32",
          "name": "",
          "type": "bytes32"
        }
      ],
      "stateMutability": "view",
      "type": "function"
    },
    {
      "inputs": [],
      "name": "precrime",
      "outputs": [
        {
          "internalType": "contract IPreCrime",
          "name": "",
          "type": "address"
        }
      ],
      "stateMutability": "view",
      "type": "function"
    },
    {
      "inputs": [
        {
          "components": [
            {
              "internalType": "bytes32",
              "name": "to",
              "type": "bytes32"
            },
            {
              "internalType": "uint256",
              "name": "amountLD",
              "type": "uint256"
            },
            {
              "internalType": "uint256",
              "name": "minAmountLD",
              "type": "uint256"
            },
            {
              "internalType": "uint32",
              "name": "dstEid",
              "type": "uint32"
            }
          ],
          "internalType": "struct IOFT.SendParam",
          "name": "_send",
          "type": "tuple"
        },
        {
          "internalType": "bytes",
          "name": "_extraOptions",
          "type": "bytes"
        },
        {
          "internalType": "bool",
          "name": "_useLZToken",
          "type": "bool"
        },
        {
          "internalType": "bytes",
          "name": "_composeMsg",
          "type": "bytes"
        }
      ],
      "name": "quoteSendAndCallFee",
      "outputs": [
        {
          "internalType": "uint256",
          "name": "nativeFee",
          "type": "uint256"
        },
        {
          "internalType": "uint256",
          "name": "lzTokenFee",
          "type": "uint256"
        }
      ],
      "stateMutability": "view",
      "type": "function"
    },
    {
      "inputs": [
        {
          "components": [
            {
              "internalType": "bytes32",
              "name": "to",
              "type": "bytes32"
            },
            {
              "internalType": "uint256",
              "name": "amountLD",
              "type": "uint256"
            },
            {
              "internalType": "uint256",
              "name": "minAmountLD",
              "type": "uint256"
            },
            {
              "internalType": "uint32",
              "name": "dstEid",
              "type": "uint32"
            }
          ],
          "internalType": "struct IOFT.SendParam",
          "name": "_send",
          "type": "tuple"
        },
        {
          "internalType": "bytes",
          "name": "_extraOptions",
          "type": "bytes"
        },
        {
          "internalType": "bool",
          "name": "_useLZToken",
          "type": "bool"
        }
      ],
      "name": "quoteSendFee",
      "outputs": [
        {
          "internalType": "uint256",
          "name": "nativeFee",
          "type": "uint256"
        },
        {
          "internalType": "uint256",
          "name": "lzTokenFee",
          "type": "uint256"
        }
      ],
      "stateMutability": "view",
      "type": "function"
    },
    {
      "inputs": [],
      "name": "renounceOwnership",
      "outputs": [],
      "stateMutability": "nonpayable",
      "type": "function"
    },
    {
      "inputs": [
        {
          "internalType": "uint32",
          "name": "_eid",
          "type": "uint32"
        }
      ],
      "name": "safeGetPeer",
      "outputs": [
        {
          "internalType": "bytes32",
          "name": "peer",
          "type": "bytes32"
        }
      ],
      "stateMutability": "view",
      "type": "function"
    },
    {
      "inputs": [
        {
          "components": [
            {
              "internalType": "bytes32",
              "name": "to",
              "type": "bytes32"
            },
            {
              "internalType": "uint256",
              "name": "amountLD",
              "type": "uint256"
            },
            {
              "internalType": "uint256",
              "name": "minAmountLD",
              "type": "uint256"
            },
            {
              "internalType": "uint32",
              "name": "dstEid",
              "type": "uint32"
            }
          ],
          "internalType": "struct IOFT.SendParam",
          "name": "_send",
          "type": "tuple"
        },
        {
          "internalType": "bytes",
          "name": "_extraOptions",
          "type": "bytes"
        },
        {
          "components": [
            {
              "internalType": "uint256",
              "name": "nativeFee",
              "type": "uint256"
            },
            {
              "internalType": "uint256",
              "name": "lzTokenFee",
              "type": "uint256"
            }
          ],
          "internalType": "struct MessagingFee",
          "name": "_msgFee",
          "type": "tuple"
        },
        {
          "internalType": "address payable",
          "name": "_refundAddress",
          "type": "address"
        }
      ],
      "name": "send",
      "outputs": [
        {
          "components": [
            {
              "internalType": "bytes32",
              "name": "guid",
              "type": "bytes32"
            },
            {
              "internalType": "uint64",
              "name": "nonce",
              "type": "uint64"
            },
            {
              "components": [
                {
                  "internalType": "uint256",
                  "name": "nativeFee",
                  "type": "uint256"
                },
                {
                  "internalType": "uint256",
                  "name": "lzTokenFee",
                  "type": "uint256"
                }
              ],
              "internalType": "struct MessagingFee",
              "name": "fee",
              "type": "tuple"
            }
          ],
          "internalType": "struct MessagingReceipt",
          "name": "msgReceipt",
          "type": "tuple"
        }
      ],
      "stateMutability": "payable",
      "type": "function"
    },
    {
      "inputs": [
        {
          "components": [
            {
              "internalType": "bytes32",
              "name": "to",
              "type": "bytes32"
            },
            {
              "internalType": "uint256",
              "name": "amountLD",
              "type": "uint256"
            },
            {
              "internalType": "uint256",
              "name": "minAmountLD",
              "type": "uint256"
            },
            {
              "internalType": "uint32",
              "name": "dstEid",
              "type": "uint32"
            }
          ],
          "internalType": "struct IOFT.SendParam",
          "name": "_send",
          "type": "tuple"
        },
        {
          "internalType": "bytes",
          "name": "_extraOptions",
          "type": "bytes"
        },
        {
          "components": [
            {
              "internalType": "uint256",
              "name": "nativeFee",
              "type": "uint256"
            },
            {
              "internalType": "uint256",
              "name": "lzTokenFee",
              "type": "uint256"
            }
          ],
          "internalType": "struct MessagingFee",
          "name": "_msgFee",
          "type": "tuple"
        },
        {
          "internalType": "address payable",
          "name": "_refundAddress",
          "type": "address"
        },
        {
          "internalType": "bytes",
          "name": "_composeMsg",
          "type": "bytes"
        }
      ],
      "name": "sendAndCall",
      "outputs": [
        {
          "components": [
            {
              "internalType": "bytes32",
              "name": "guid",
              "type": "bytes32"
            },
            {
              "internalType": "uint64",
              "name": "nonce",
              "type": "uint64"
            },
            {
              "components": [
                {
                  "internalType": "uint256",
                  "name": "nativeFee",
                  "type": "uint256"
                },
                {
                  "internalType": "uint256",
                  "name": "lzTokenFee",
                  "type": "uint256"
                }
              ],
              "internalType": "struct MessagingFee",
              "name": "fee",
              "type": "tuple"
            }
          ],
          "internalType": "struct MessagingReceipt",
          "name": "msgReceipt",
          "type": "tuple"
        }
      ],
      "stateMutability": "payable",
      "type": "function"
    },
    {
      "inputs": [
        {
          "components": [
            {
              "internalType": "uint16",
              "name": "msgType",
              "type": "uint16"
            },
            {
              "internalType": "uint32",
              "name": "eid",
              "type": "uint32"
            },
            {
              "internalType": "bytes",
              "name": "options",
              "type": "bytes"
            }
          ],
          "internalType": "struct IOApp.EnforcedOptionParam[]",
          "name": "_enforcedOptions",
          "type": "tuple[]"
        }
      ],
      "name": "setEnforcedOptions",
      "outputs": [],
      "stateMutability": "nonpayable",
      "type": "function"
    },
    {
      "inputs": [
        {
          "internalType": "address",
          "name": "_inspector",
          "type": "address"
        }
      ],
      "name": "setInspector",
      "outputs": [],
      "stateMutability": "nonpayable",
      "type": "function"
    },
    {
      "inputs": [
        {
          "internalType": "uint32",
          "name": "_eid",
          "type": "uint32"
        },
        {
          "internalType": "bytes32",
          "name": "_peer",
          "type": "bytes32"
        }
      ],
      "name": "setPeer",
      "outputs": [],
      "stateMutability": "nonpayable",
      "type": "function"
    },
    {
      "inputs": [
        {
          "internalType": "address",
          "name": "_precrime",
          "type": "address"
        }
      ],
      "name": "setPrecrime",
      "outputs": [],
      "stateMutability": "nonpayable",
      "type": "function"
    },
    {
      "inputs": [],
      "name": "sharedDecimals",
      "outputs": [
        {
          "internalType": "uint8",
          "name": "",
          "type": "uint8"
        }
      ],
      "stateMutability": "view",
      "type": "function"
    },
    {
      "inputs": [],
      "name": "symbol",
      "outputs": [
        {
          "internalType": "string",
          "name": "",
          "type": "string"
        }
      ],
      "stateMutability": "view",
      "type": "function"
    },
    {
      "inputs": [],
      "name": "token",
      "outputs": [
        {
          "internalType": "address",
          "name": "",
          "type": "address"
        }
      ],
      "stateMutability": "view",
      "type": "function"
    },
    {
      "inputs": [],
      "name": "totalSupply",
      "outputs": [
        {
          "internalType": "uint256",
          "name": "",
          "type": "uint256"
        }
      ],
      "stateMutability": "view",
      "type": "function"
    },
    {
      "inputs": [
        {
          "internalType": "address",
          "name": "to",
          "type": "address"
        },
        {
          "internalType": "uint256",
          "name": "amount",
          "type": "uint256"
        }
      ],
      "name": "transfer",
      "outputs": [
        {
          "internalType": "bool",
          "name": "",
          "type": "bool"
        }
      ],
      "stateMutability": "nonpayable",
      "type": "function"
    },
    {
      "inputs": [
        {
          "internalType": "address",
          "name": "from",
          "type": "address"
        },
        {
          "internalType": "address",
          "name": "to",
          "type": "address"
        },
        {
          "internalType": "uint256",
          "name": "amount",
          "type": "uint256"
        }
      ],
      "name": "transferFrom",
      "outputs": [
        {
          "internalType": "bool",
          "name": "",
          "type": "bool"
        }
      ],
      "stateMutability": "nonpayable",
      "type": "function"
    },
    {
      "inputs": [
        {
          "internalType": "address",
          "name": "newOwner",
          "type": "address"
        }
      ],
      "name": "transferOwnership",
      "outputs": [],
      "stateMutability": "nonpayable",
      "type": "function"
    },
    {
      "inputs": [],
      "name": "version",
      "outputs": [
        {
          "internalType": "uint256",
          "name": "",
          "type": "uint256"
        }
      ],
      "stateMutability": "view",
      "type": "function"
    },
    {
      "stateMutability": "payable",
      "type": "receive"
    }
  ],
  "bytecode": "0x60c06040523480156200001157600080fd5b5060405162003d7d38038062003d7d8339810160408190526200003491620001f1565b83838383806200004433620000dc565b6001600160a01b0316608052600660ff8316101562000076576040516384564cb760e01b815260040160405180910390fd5b62000083600683620002ab565b6200009090600a620003ca565b60a0525060089050620000a4838262000471565b506009620000b3828262000471565b50620000c0915050601290565b60ff168260ff1614620000d257600080fd5b505050506200053d565b600080546001600160a01b038381166001600160a01b0319831681178455604051919092169283917f8be0079c531659141344cd1fd0a4f28419497f9722a3daafe3b4186f6b6457e09190a35050565b634e487b7160e01b600052604160045260246000fd5b600082601f8301126200015457600080fd5b81516001600160401b03808211156200017157620001716200012c565b604051601f8301601f19908116603f011681019082821181831017156200019c576200019c6200012c565b81604052838152602092508683858801011115620001b957600080fd5b600091505b83821015620001dd5785820183015181830184015290820190620001be565b600093810190920192909252949350505050565b600080600080608085870312156200020857600080fd5b84516001600160401b03808211156200022057600080fd5b6200022e8883890162000142565b955060208701519150808211156200024557600080fd5b50620002548782880162000142565b935050604085015160ff811681146200026c57600080fd5b60608601519092506001600160a01b03811681146200028a57600080fd5b939692955090935050565b634e487b7160e01b600052601160045260246000fd5b60ff8281168282160390811115620002c757620002c762000295565b92915050565b600181815b808511156200030e578160001904821115620002f257620002f262000295565b808516156200030057918102915b93841c9390800290620002d2565b509250929050565b6000826200032757506001620002c7565b816200033657506000620002c7565b81600181146200034f57600281146200035a576200037a565b6001915050620002c7565b60ff8411156200036e576200036e62000295565b50506001821b620002c7565b5060208310610133831016604e8410600b84101617156200039f575081810a620002c7565b620003ab8383620002cd565b8060001904821115620003c257620003c262000295565b029392505050565b6000620003db60ff84168362000316565b9392505050565b600181811c90821680620003f757607f821691505b6020821081036200041857634e487b7160e01b600052602260045260246000fd5b50919050565b601f8211156200046c57600081815260208120601f850160051c81016020861015620004475750805b601f850160051c820191505b81811015620004685782815560010162000453565b5050505b505050565b81516001600160401b038111156200048d576200048d6200012c565b620004a5816200049e8454620003e2565b846200041e565b602080601f831160018114620004dd5760008415620004c45750858301515b600019600386901b1c1916600185901b17855562000468565b600085815260208120601f198616915b828110156200050e57888601518255948401946001909101908401620004ed565b50858210156200052d5787850151600019600388901b60f8161c191681555b5050505050600190811b01905550565b60805160a0516137e96200059460003960008181612005015281816121a0015261244101526000818161040d0152818161092f015281816112d4015281816118fe0152818161204801526122c501526137e96000f3fe60806040526004361061021d5760003560e01c8063857749b01161011d578063baf3292d116100b0578063dd62ed3e1161007f578063f2fde38b11610064578063f2fde38b146106fe578063f5c6ba5a1461071e578063fc0c546a1461073157600080fd5b8063dd62ed3e1461067e578063ed2cee9e146106d157600080fd5b8063baf3292d146105fe578063bb0b6a531461061e578063d0a227531461064b578063dbcd3b911461065e57600080fd5b8063a41d8a25116100ec578063a41d8a2514610569578063a457c2d71461059e578063a9059cbb146105be578063b0690b3e146105de57600080fd5b8063857749b0146104e85780638da5cb5b146104fc578063950c8a741461052757806395d89b411461055457600080fd5b8063313ce567116101b057806354fd4d501161017f57806370a082311161016457806370a0823114610454578063715018a6146104975780637d25a05e146104ac57600080fd5b806354fd4d50146103e65780635e280f11146103fb57600080fd5b8063313ce567146103645780633400288b1461038657806339509351146103a65780634e5cbf61146103c657600080fd5b806318160ddd116101ec57806318160ddd146102b957806323b872dd146102d857806323d509ba146102f857806326b27f841461034457600080fd5b806306fdde0314610229578063095ea7b314610254578063107a93d61461028457806313137d65146102a657600080fd5b3661022457005b600080fd5b34801561023557600080fd5b5061023e610744565b60405161024b91906126f0565b60405180910390f35b34801561026057600080fd5b5061027461026f366004612725565b6107d6565b604051901515815260200161024b565b34801561029057600080fd5b506102a461029f36600461279d565b6107f0565b005b6102a46102b4366004612821565b61092d565b3480156102c557600080fd5b506007545b60405190815260200161024b565b3480156102e457600080fd5b506102746102f33660046128c8565b610a37565b61030b61030636600461292d565b610a5b565b604080518251815260208084015167ffffffffffffffff168183015292820151805192820192909252910151606082015260800161024b565b34801561035057600080fd5b506102ca61035f3660046129be565b610ad9565b34801561037057600080fd5b5060125b60405160ff909116815260200161024b565b34801561039257600080fd5b506102a46103a13660046129d9565b610b33565b3480156103b257600080fd5b506102746103c1366004612725565b610bd8565b3480156103d257600080fd5b506102a46103e13660046129f5565b610c24565b3480156103f257600080fd5b506102ca600181565b34801561040757600080fd5b5061042f7f000000000000000000000000000000000000000000000000000000000000000081565b60405173ffffffffffffffffffffffffffffffffffffffff909116815260200161024b565b34801561046057600080fd5b506102ca61046f3660046129f5565b73ffffffffffffffffffffffffffffffffffffffff1660009081526005602052604090205490565b3480156104a357600080fd5b506102a4610ca6565b3480156104b857600080fd5b506104cf6104c73660046129d9565b600092915050565b60405167ffffffffffffffff909116815260200161024b565b3480156104f457600080fd5b506006610374565b34801561050857600080fd5b5060005473ffffffffffffffffffffffffffffffffffffffff1661042f565b34801561053357600080fd5b5060035461042f9073ffffffffffffffffffffffffffffffffffffffff1681565b34801561056057600080fd5b5061023e610cba565b34801561057557600080fd5b50610589610584366004612a20565b610cc9565b6040805192835260208301919091520161024b565b3480156105aa57600080fd5b506102746105b9366004612725565b610d80565b3480156105ca57600080fd5b506102746105d9366004612725565b610e51565b3480156105ea57600080fd5b506105896105f9366004612ab6565b610e5f565b34801561060a57600080fd5b506102a46106193660046129f5565b610eeb565b34801561062a57600080fd5b506102ca6106393660046129be565b60016020526000908152604090205481565b61030b610659366004612b1d565b610f66565b34801561066a57600080fd5b506102a4610679366004612baa565b610ffa565b34801561068a57600080fd5b506102ca610699366004612be0565b73ffffffffffffffffffffffffffffffffffffffff918216600090815260066020908152604080832093909416825291909152205490565b3480156106dd57600080fd5b5060045461042f9073ffffffffffffffffffffffffffffffffffffffff1681565b34801561070a57600080fd5b506102a46107193660046129f5565b611374565b6102a461072c36600461279d565b61142b565b34801561073d57600080fd5b503061042f565b60606008805461075390612c19565b80601f016020809104026020016040519081016040528092919081815260200182805461077f90612c19565b80156107cc5780601f106107a1576101008083540402835291602001916107cc565b820191906000526020600020905b8154815290600101906020018083116107af57829003601f168201915b5050505050905090565b6000336107e48185856115ff565b60019150505b92915050565b6107f86117b2565b60005b818110156108ef5782828281811061081557610815612c66565b90506020028101906108279190612c95565b610835906040810190612cd3565b6002600086868681811061084b5761084b612c66565b905060200281019061085d9190612c95565b61086e9060408101906020016129be565b63ffffffff1663ffffffff168152602001908152602001600020600086868681811061089c5761089c612c66565b90506020028101906108ae9190612c95565b6108bc906020810190612d4a565b61ffff1681526020810191909152604001600020916108dc919083612de2565b50806108e781612f2b565b9150506107fb565b507f0548419a320c116408d237dae51da66dc63603dfd20bd99ba0c8be4c5ff7a2008282604051610921929190612fac565b60405180910390a15050565b7f000000000000000000000000000000000000000000000000000000000000000073ffffffffffffffffffffffffffffffffffffffff1633146109a3576040517fab08c09e0000000000000000000000000000000000000000000000000000000081523360048201526024015b60405180910390fd5b602087018035906109b89061035f908a6129be565b146109f5576040517fc59a4f640000000000000000000000000000000000000000000000000000000081526020880135600482015260240161099a565b610a1f610a0560208901896129be565b6020890135610a1a60608b0160408c01613100565b505050565b610a2e87878787878787611833565b50505050505050565b600033610a458582856119d4565b610a50858585611aab565b506001949350505050565b610a6361263a565b610acf86610ab8610a7a60808301606084016129be565b600189898080601f016020809104026020016040519081016040528093929190818152602001838380828437600092019190915250611d2192505050565b858560405180602001604052806000815250611d71565b9695505050505050565b63ffffffff811660009081526001602052604090205480610b2e576040517f196fb6c000000000000000000000000000000000000000000000000000000000815263ffffffff8316600482015260240161099a565b919050565b610b3b6117b2565b63ffffffff8216600090815260016020526040902054819003610b8a576040517f9556766100000000000000000000000000000000000000000000000000000000815260040160405180910390fd5b63ffffffff8216600081815260016020908152604091829020849055815192835282018390527fd81b9101f39c530fa8f18e6c9c5a64e4a3d7cb699e959f5d7abb5951c65e318f9101610921565b33600081815260066020908152604080832073ffffffffffffffffffffffffffffffffffffffff871684529091528120549091906107e49082908690610c1f90879061311d565b6115ff565b610c2c6117b2565b600480547fffffffffffffffffffffffff00000000000000000000000000000000000000001673ffffffffffffffffffffffffffffffffffffffff83169081179091556040519081527ff8b6b91dd680bf19d37570578ae915537e6e8cd2106736ad3ca05b30447a72b0906020015b60405180910390a150565b610cae6117b2565b610cb86000611f89565b565b60606009805461075390612c19565b600080610d71610cdf60808a0160608b016129be565b610d1a8a35610cf160208d0135611ffe565b338989604051602001610d0693929190613130565b60405160208183030381529060405261202a565b87610d6c610d2e60808e0160608f016129be565b60028d8d8080601f016020809104026020016040519081016040528093929190818152602001838380828437600092019190915250611d2192505050565b612041565b90999098509650505050505050565b33600081815260066020908152604080832073ffffffffffffffffffffffffffffffffffffffff8716845290915281205490919083811015610e44576040517f08c379a000000000000000000000000000000000000000000000000000000000815260206004820152602560248201527f45524332303a2064656372656173656420616c6c6f77616e63652062656c6f7760448201527f207a65726f000000000000000000000000000000000000000000000000000000606482015260840161099a565b610a5082868684036115ff565b6000336107e4818585611aab565b600080610ede610e7560808801606089016129be565b610e8c8835610e8760208b0135611ffe565b6120fd565b85610d6c610ea060808c0160608d016129be565b60018b8b8080601f016020809104026020016040519081016040528093929190818152602001838380828437600092019190915250611d2192505050565b9097909650945050505050565b610ef36117b2565b600380547fffffffffffffffffffffffff00000000000000000000000000000000000000001673ffffffffffffffffffffffffffffffffffffffff83169081179091556040519081527f5db758e995a17ec1ad84bdef7e8c3293a0bd6179bcce400dff5d4c3d87db726b90602001610c9b565b610f6e61263a565b610fee88610fc3610f8560808301606084016129be565b60028b8b8080601f016020809104026020016040519081016040528093929190818152602001838380828437600092019190915250611d2192505050565b8787338888604051602001610fda93929190613130565b604051602081830303815290604052611d71565b98975050505050505050565b6110026117b2565b600061100e828461314a565b90507fffffffff0000000000000000000000000000000000000000000000000000000081167fb8007ff60000000000000000000000000000000000000000000000000000000014806110a157507fffffffff0000000000000000000000000000000000000000000000000000000081167f9e7fffcc00000000000000000000000000000000000000000000000000000000145b806110ed57507fffffffff0000000000000000000000000000000000000000000000000000000081167f0678327f00000000000000000000000000000000000000000000000000000000145b8061113957507fffffffff0000000000000000000000000000000000000000000000000000000081167fb8849ac900000000000000000000000000000000000000000000000000000000145b8061118557507fffffffff0000000000000000000000000000000000000000000000000000000081167fe16f964d00000000000000000000000000000000000000000000000000000000145b806111d157507fffffffff0000000000000000000000000000000000000000000000000000000081167f66bf43d600000000000000000000000000000000000000000000000000000000145b8061121d57507fffffffff0000000000000000000000000000000000000000000000000000000081167f965183d400000000000000000000000000000000000000000000000000000000145b8061126957507fffffffff0000000000000000000000000000000000000000000000000000000081167feaeacd6300000000000000000000000000000000000000000000000000000000145b6112cf576040517f08c379a000000000000000000000000000000000000000000000000000000000815260206004820152601a60248201527f4f4170703a2066756e6374696f6e206e6f7420616c6c6f776564000000000000604482015260640161099a565b6000807f000000000000000000000000000000000000000000000000000000000000000073ffffffffffffffffffffffffffffffffffffffff168585604051611319929190613192565b6000604051808303816000865af19150503d8060008114611356576040519150601f19603f3d011682016040523d82523d6000602084013e61135b565b606091505b50915091508161136d57805160208201fd5b5050505050565b61137c6117b2565b73ffffffffffffffffffffffffffffffffffffffff811661141f576040517f08c379a000000000000000000000000000000000000000000000000000000000815260206004820152602660248201527f4f776e61626c653a206e6577206f776e657220697320746865207a65726f206160448201527f6464726573730000000000000000000000000000000000000000000000000000606482015260840161099a565b61142881611f89565b50565b60035473ffffffffffffffffffffffffffffffffffffffff16331461147e576040517fc023811c00000000000000000000000000000000000000000000000000000000815233600482015260240161099a565b60005b81811015611514573683838381811061149c5761149c612c66565b90506020028101906114ae91906131a2565b905060006114c261035f60208401846129be565b9050602082013581146114d6575050611502565b6114ff8260608101356114ec6080830183612cd3565b336114fa60a0890189612cd3565b611833565b50505b8061150c81612f2b565b915050611481565b50600354604080517fd2968d57000000000000000000000000000000000000000000000000000000008152905160019273ffffffffffffffffffffffffffffffffffffffff169163d2968d579160048083019260009291908290030181865afa158015611585573d6000803e3d6000fd5b505050506040513d6000823e601f3d9081017fffffffffffffffffffffffffffffffffffffffffffffffffffffffffffffffe01682016040526115cb91908101906131ff565b6040517f0a78da8f00000000000000000000000000000000000000000000000000000000815260040161099a9291906132ca565b73ffffffffffffffffffffffffffffffffffffffff83166116a1576040517f08c379a0000000000000000000000000000000000000000000000000000000008152602060048201526024808201527f45524332303a20617070726f76652066726f6d20746865207a65726f2061646460448201527f7265737300000000000000000000000000000000000000000000000000000000606482015260840161099a565b73ffffffffffffffffffffffffffffffffffffffff8216611744576040517f08c379a000000000000000000000000000000000000000000000000000000000815260206004820152602260248201527f45524332303a20617070726f766520746f20746865207a65726f20616464726560448201527f7373000000000000000000000000000000000000000000000000000000000000606482015260840161099a565b73ffffffffffffffffffffffffffffffffffffffff83811660008181526006602090815260408083209487168084529482529182902085905590518481527f8c5be1e5ebec7d5bd14f71427d1e84f3dd0314c0f7b2291e5b200ac8c7c3b925910160405180910390a3505050565b60005473ffffffffffffffffffffffffffffffffffffffff163314610cb8576040517f08c379a000000000000000000000000000000000000000000000000000000000815260206004820181905260248201527f4f776e61626c653a2063616c6c6572206973206e6f7420746865206f776e6572604482015260640161099a565b60006118456118428787612157565b90565b9050600061187361185e6118598989612176565b612199565b8361186c60208d018d6129be565b5090919050565b9050600061188183836121cf565b9050602887111561196b5760006118be6118a160608d0160408e01613100565b6118ae60208e018e6129be565b846118b98d8d6121e1565b61222c565b6040517f754d3b9c00000000000000000000000000000000000000000000000000000000815290915073ffffffffffffffffffffffffffffffffffffffff7f0000000000000000000000000000000000000000000000000000000000000000169063754d3b9c906119379087908e9086906004016132ef565b600060405180830381600087803b15801561195157600080fd5b505af1158015611965573d6000803e3d6000fd5b50505050505b6119786118428989612157565b73ffffffffffffffffffffffffffffffffffffffff16897ffc1b5feb636aa495ed28914895ca443adffbd4e2da951d5694baa392b4ebd158836040516119c091815260200190565b60405180910390a350505050505050505050565b73ffffffffffffffffffffffffffffffffffffffff8381166000908152600660209081526040808320938616835292905220547fffffffffffffffffffffffffffffffffffffffffffffffffffffffffffffffff8114611aa55781811015611a98576040517f08c379a000000000000000000000000000000000000000000000000000000000815260206004820152601d60248201527f45524332303a20696e73756666696369656e7420616c6c6f77616e6365000000604482015260640161099a565b611aa584848484036115ff565b50505050565b73ffffffffffffffffffffffffffffffffffffffff8316611b4e576040517f08c379a000000000000000000000000000000000000000000000000000000000815260206004820152602560248201527f45524332303a207472616e736665722066726f6d20746865207a65726f20616460448201527f6472657373000000000000000000000000000000000000000000000000000000606482015260840161099a565b73ffffffffffffffffffffffffffffffffffffffff8216611bf1576040517f08c379a000000000000000000000000000000000000000000000000000000000815260206004820152602360248201527f45524332303a207472616e7366657220746f20746865207a65726f206164647260448201527f6573730000000000000000000000000000000000000000000000000000000000606482015260840161099a565b73ffffffffffffffffffffffffffffffffffffffff831660009081526005602052604090205481811015611ca7576040517f08c379a000000000000000000000000000000000000000000000000000000000815260206004820152602660248201527f45524332303a207472616e7366657220616d6f756e742065786365656473206260448201527f616c616e63650000000000000000000000000000000000000000000000000000606482015260840161099a565b73ffffffffffffffffffffffffffffffffffffffff80851660008181526005602052604080822086860390559286168082529083902080548601905591517fddf252ad1be2c89b69c2b068fc378daa952ba7f163c4a11628f55a4df523b3ef90611d149086815260200190565b60405180910390a3611aa5565b63ffffffff8316600090815260026020908152604080832061ffff861684528252918290209151606092611d59929091859101613324565b60405160208183030381529060405290509392505050565b611d7961263a565b6000611d976020880135611d9360808a0160608b016129be565b5090565b90506000611da48261225e565b90508760400135811015611df157604080517fac7247ca0000000000000000000000000000000000000000000000000000000081526004810183905290890135602482015260440161099a565b60608451600003611e1157611e0a8935610e8784611ffe565b9050611e28565b611e258935611e1f84611ffe565b8761202a565b90505b60045473ffffffffffffffffffffffffffffffffffffffff1615611ee057600480546040517f043a78eb00000000000000000000000000000000000000000000000000000000815273ffffffffffffffffffffffffffffffffffffffff9091169163043a78eb91611e9d9185918d91016133c9565b602060405180830381865afa158015611eba573d6000803e3d6000fd5b505050506040513d601f19601f82011682018060405250810190611ede91906133ee565b505b611f4360405180608001604052808b6060016020810190611f0191906129be565b63ffffffff168152602001611f1f61035f60808e0160608f016129be565b8152602081018490526040018a9052611f3d368a90038a018a61340b565b88612276565b805160405184815291955033917f3131f8d7ad296b074b480a9f6b3a760579632740b870b78725975df31c5da7789060200160405180910390a350505095945050505050565b6000805473ffffffffffffffffffffffffffffffffffffffff8381167fffffffffffffffffffffffff0000000000000000000000000000000000000000831681178455604051919092169283917f8be0079c531659141344cd1fd0a4f28419497f9722a3daafe3b4186f6b6457e09190a35050565b60006107ea7f00000000000000000000000000000000000000000000000000000000000000008361343d565b6060838383604051602001611d5993929190613478565b60008060007f000000000000000000000000000000000000000000000000000000000000000073ffffffffffffffffffffffffffffffffffffffff166383c4755930898989896040518663ffffffff1660e01b81526004016120a79594939291906134ca565b6040805180830381865afa1580156120c3573d6000803e3d6000fd5b505050506040513d601f19601f820116820180604052508101906120e7919061354f565b8051602090910151909890975095505050505050565b6060828260405160200161214092919091825260c01b7fffffffffffffffff00000000000000000000000000000000000000000000000016602082015260280190565b604051602081830303815290604052905092915050565b6000612166602082848661356b565b61216f91613595565b9392505050565b600061218660286020848661356b565b61218f916135d1565b60c01c9392505050565b60006107ea7f000000000000000000000000000000000000000000000000000000000000000067ffffffffffffffff8416613617565b60006121db8383612348565b50919050565b60606121f0826028818661356b565b8080601f016020809104026020016040519081016040528093929190818152602001838380828437600092019190915250929695505050505050565b606084848484604051602001612245949392919061362e565b6040516020818303038152906040529050949350505050565b60008061226a8361243d565b90506107ea3382612474565b61227e61263a565b825160208401516040517faca1b45a00000000000000000000000000000000000000000000000000000000815260009273ffffffffffffffffffffffffffffffffffffffff7f0000000000000000000000000000000000000000000000000000000000000000169263aca1b45a926122fc918a9189906004016136ac565b60806040518083038185885af115801561231a573d6000803e3d6000fd5b50505050506040513d601f19601f8201168201806040525081019061233f919061374b565b95945050505050565b73ffffffffffffffffffffffffffffffffffffffff82166123c5576040517f08c379a000000000000000000000000000000000000000000000000000000000815260206004820152601f60248201527f45524332303a206d696e7420746f20746865207a65726f206164647265737300604482015260640161099a565b80600760008282546123d7919061311d565b909155505073ffffffffffffffffffffffffffffffffffffffff82166000818152600560209081526040808320805486019055518481527fddf252ad1be2c89b69c2b068fc378daa952ba7f163c4a11628f55a4df523b3ef910160405180910390a35050565b60007f000000000000000000000000000000000000000000000000000000000000000061246a818461343d565b6107ea9190613617565b73ffffffffffffffffffffffffffffffffffffffff8216612517576040517f08c379a000000000000000000000000000000000000000000000000000000000815260206004820152602160248201527f45524332303a206275726e2066726f6d20746865207a65726f2061646472657360448201527f7300000000000000000000000000000000000000000000000000000000000000606482015260840161099a565b73ffffffffffffffffffffffffffffffffffffffff8216600090815260056020526040902054818110156125cd576040517f08c379a000000000000000000000000000000000000000000000000000000000815260206004820152602260248201527f45524332303a206275726e20616d6f756e7420657863656564732062616c616e60448201527f6365000000000000000000000000000000000000000000000000000000000000606482015260840161099a565b73ffffffffffffffffffffffffffffffffffffffff831660008181526005602090815260408083208686039055600780548790039055518581529192917fddf252ad1be2c89b69c2b068fc378daa952ba7f163c4a11628f55a4df523b3ef910160405180910390a3505050565b604051806060016040528060008019168152602001600067ffffffffffffffff16815260200161267d604051806040016040528060008152602001600081525090565b905290565b60005b8381101561269d578181015183820152602001612685565b50506000910152565b600081518084526126be816020860160208601612682565b601f017fffffffffffffffffffffffffffffffffffffffffffffffffffffffffffffffe0169290920160200192915050565b60208152600061216f60208301846126a6565b73ffffffffffffffffffffffffffffffffffffffff8116811461142857600080fd5b6000806040838503121561273857600080fd5b823561274381612703565b946020939093013593505050565b60008083601f84011261276357600080fd5b50813567ffffffffffffffff81111561277b57600080fd5b6020830191508360208260051b850101111561279657600080fd5b9250929050565b600080602083850312156127b057600080fd5b823567ffffffffffffffff8111156127c757600080fd5b6127d385828601612751565b90969095509350505050565b60008083601f8401126127f157600080fd5b50813567ffffffffffffffff81111561280957600080fd5b60208301915083602082850101111561279657600080fd5b600080600080600080600087890360e081121561283d57600080fd5b606081121561284b57600080fd5b5087965060608801359550608088013567ffffffffffffffff8082111561287157600080fd5b61287d8b838c016127df565b909750955060a08a0135915061289282612703565b90935060c089013590808211156128a857600080fd5b506128b58a828b016127df565b989b979a50959850939692959293505050565b6000806000606084860312156128dd57600080fd5b83356128e881612703565b925060208401356128f881612703565b929592945050506040919091013590565b6000608082840312156121db57600080fd5b6000604082840312156121db57600080fd5b6000806000806000610100868803121561294657600080fd5b6129508787612909565b9450608086013567ffffffffffffffff81111561296c57600080fd5b612978888289016127df565b909550935061298c90508760a0880161291b565b915060e086013561299c81612703565b809150509295509295909350565b803563ffffffff81168114610b2e57600080fd5b6000602082840312156129d057600080fd5b61216f826129aa565b600080604083850312156129ec57600080fd5b612743836129aa565b600060208284031215612a0757600080fd5b813561216f81612703565b801515811461142857600080fd5b60008060008060008060e08789031215612a3957600080fd5b612a438888612909565b9550608087013567ffffffffffffffff80821115612a6057600080fd5b612a6c8a838b016127df565b909750955060a08901359150612a8182612a12565b90935060c08801359080821115612a9757600080fd5b50612aa489828a016127df565b979a9699509497509295939492505050565b60008060008060c08587031215612acc57600080fd5b612ad68686612909565b9350608085013567ffffffffffffffff811115612af257600080fd5b612afe878288016127df565b90945092505060a0850135612b1281612a12565b939692955090935050565b6000806000806000806000610120888a031215612b3957600080fd5b612b438989612909565b9650608088013567ffffffffffffffff80821115612b6057600080fd5b612b6c8b838c016127df565b9098509650869150612b818b60a08c0161291b565b955060e08a01359150612b9382612703565b90935061010089013590808211156128a857600080fd5b60008060208385031215612bbd57600080fd5b823567ffffffffffffffff811115612bd457600080fd5b6127d3858286016127df565b60008060408385031215612bf357600080fd5b8235612bfe81612703565b91506020830135612c0e81612703565b809150509250929050565b600181811c90821680612c2d57607f821691505b6020821081036121db577f4e487b7100000000000000000000000000000000000000000000000000000000600052602260045260246000fd5b7f4e487b7100000000000000000000000000000000000000000000000000000000600052603260045260246000fd5b600082357fffffffffffffffffffffffffffffffffffffffffffffffffffffffffffffffa1833603018112612cc957600080fd5b9190910192915050565b60008083357fffffffffffffffffffffffffffffffffffffffffffffffffffffffffffffffe1843603018112612d0857600080fd5b83018035915067ffffffffffffffff821115612d2357600080fd5b60200191503681900382131561279657600080fd5b803561ffff81168114610b2e57600080fd5b600060208284031215612d5c57600080fd5b61216f82612d38565b7f4e487b7100000000000000000000000000000000000000000000000000000000600052604160045260246000fd5b601f821115610a1a57600081815260208120601f850160051c81016020861015612dbb5750805b601f850160051c820191505b81811015612dda57828155600101612dc7565b505050505050565b67ffffffffffffffff831115612dfa57612dfa612d65565b612e0e83612e088354612c19565b83612d94565b6000601f841160018114612e605760008515612e2a5750838201355b7fffffffffffffffffffffffffffffffffffffffffffffffffffffffffffffffff600387901b1c1916600186901b17835561136d565b6000838152602090207fffffffffffffffffffffffffffffffffffffffffffffffffffffffffffffffe0861690835b82811015612eaf5786850135825560209485019460019092019101612e8f565b5086821015612eea577fffffffffffffffffffffffffffffffffffffffffffffffffffffffffffffffff60f88860031b161c19848701351681555b505060018560011b0183555050505050565b7f4e487b7100000000000000000000000000000000000000000000000000000000600052601160045260246000fd5b60007fffffffffffffffffffffffffffffffffffffffffffffffffffffffffffffffff8203612f5c57612f5c612efc565b5060010190565b8183528181602085013750600060208284010152600060207fffffffffffffffffffffffffffffffffffffffffffffffffffffffffffffffe0601f840116840101905092915050565b60208082528181018390526000906040808401600586901b8501820187855b888110156130dc577fffffffffffffffffffffffffffffffffffffffffffffffffffffffffffffffc088840301845281357fffffffffffffffffffffffffffffffffffffffffffffffffffffffffffffffa18b360301811261302c57600080fd5b8a01606061ffff61303c83612d38565b16855263ffffffff61304f8984016129aa565b1688860152868201357fffffffffffffffffffffffffffffffffffffffffffffffffffffffffffffffe183360301811261308857600080fd5b90910187810191903567ffffffffffffffff8111156130a657600080fd5b8036038313156130b557600080fd5b81888701526130c78287018285612f63565b96890196955050509186019150600101612fcb565b509098975050505050505050565b67ffffffffffffffff8116811461142857600080fd5b60006020828403121561311257600080fd5b813561216f816130ea565b808201808211156107ea576107ea612efc565b838152818360208301376000910160200190815292915050565b7fffffffff00000000000000000000000000000000000000000000000000000000813581811691600485101561318a5780818660040360031b1b83161692505b505092915050565b8183823760009101908152919050565b600082357fffffffffffffffffffffffffffffffffffffffffffffffffffffffffffffff41833603018112612cc957600080fd5b6040805190810167ffffffffffffffff811182821017156131f9576131f9612d65565b60405290565b60006020828403121561321157600080fd5b815167ffffffffffffffff8082111561322957600080fd5b818401915084601f83011261323d57600080fd5b81518181111561324f5761324f612d65565b604051601f82017fffffffffffffffffffffffffffffffffffffffffffffffffffffffffffffffe0908116603f0116810190838211818310171561329557613295612d65565b816040528281528760208487010111156132ae57600080fd5b6132bf836020830160208801612682565b979650505050505050565b61ffff831681526040602082015260006132e760408301846126a6565b949350505050565b73ffffffffffffffffffffffffffffffffffffffff8416815282602082015260606040820152600061233f60608301846126a6565b600080845461333281612c19565b6001828116801561334a576001811461337d576133ac565b7fffffffffffffffffffffffffffffffffffffffffffffffffffffffffffffff00841687528215158302870194506133ac565b8860005260208060002060005b858110156133a35781548a82015290840190820161338a565b50505082870194505b5050505083516133c0818360208801612682565b01949350505050565b6040815260006133dc60408301856126a6565b828103602084015261233f81856126a6565b60006020828403121561340057600080fd5b815161216f81612a12565b60006040828403121561341d57600080fd5b6134256131d6565b82358152602083013560208201528091505092915050565b600082613473577f4e487b7100000000000000000000000000000000000000000000000000000000600052601260045260246000fd5b500490565b8381527fffffffffffffffff0000000000000000000000000000000000000000000000008360c01b166020820152600082516134bb816028850160208701612682565b91909101602801949350505050565b73ffffffffffffffffffffffffffffffffffffffff8616815263ffffffff8516602082015260a06040820152600061350560a08301866126a6565b84151560608401528281036080840152610fee81856126a6565b60006040828403121561353157600080fd5b6135396131d6565b9050815181526020820151602082015292915050565b60006040828403121561356157600080fd5b61216f838361351f565b6000808585111561357b57600080fd5b8386111561358857600080fd5b5050820193919092039150565b803560208310156107ea577fffffffffffffffffffffffffffffffffffffffffffffffffffffffffffffffff602084900360031b1b1692915050565b7fffffffffffffffff000000000000000000000000000000000000000000000000813581811691600885101561318a5760089490940360031b84901b1690921692915050565b80820281158282048414176107ea576107ea612efc565b7fffffffffffffffff0000000000000000000000000000000000000000000000008560c01b1681527fffffffff000000000000000000000000000000000000000000000000000000008460e01b16600882015282600c8201526000825161369c81602c850160208701612682565b91909101602c0195945050505050565b6060815263ffffffff84511660608201526020840151608082015260006040850151608060a08401526136e260e08401826126a6565b905060608601517fffffffffffffffffffffffffffffffffffffffffffffffffffffffffffffffa08483030160c085015261371d82826126a6565b9250505083602083015273ffffffffffffffffffffffffffffffffffffffff83166040830152949350505050565b60006080828403121561375d57600080fd5b6040516060810181811067ffffffffffffffff8211171561378057613780612d65565b604052825181526020830151613795816130ea565b60208201526137a7846040850161351f565b6040820152939250505056fea26469706673582212200b9e8eb3a26c0983459bbf90b2bcc9afca7f84623fff431f7aacc9f8685b22e464736f6c63430008130033",
  "linkReferences": {},
  "deployedLinkReferences": {}
}