{
  "_format": "hh-sol-artifact-1",
  "contractName": "ExampleONFT721Upgradeable",
  "sourceName": "contracts/contracts-upgradable/example/ExampleONFT721Upgradeable.sol",
  "abi": [
    {
      "anonymous": false,
      "inputs": [
        {
          "indexed": true,
          "internalType": "address",
          "name": "owner",
          "type": "address"
        },
        {
          "indexed": true,
          "internalType": "address",
          "name": "approved",
          "type": "address"
        },
        {
          "indexed": true,
          "internalType": "uint256",
          "name": "tokenId",
          "type": "uint256"
        }
      ],
      "name": "Approval",
      "type": "event"
    },
    {
      "anonymous": false,
      "inputs": [
        {
          "indexed": true,
          "internalType": "address",
          "name": "owner",
          "type": "address"
        },
        {
          "indexed": true,
          "internalType": "address",
          "name": "operator",
          "type": "address"
        },
        {
          "indexed": false,
          "internalType": "bool",
          "name": "approved",
          "type": "bool"
        }
      ],
      "name": "ApprovalForAll",
      "type": "event"
    },
    {
      "anonymous": false,
      "inputs": [
        {
          "indexed": false,
          "internalType": "bytes32",
          "name": "_hashedPayload",
          "type": "bytes32"
        }
      ],
      "name": "CreditCleared",
      "type": "event"
    },
    {
      "anonymous": false,
      "inputs": [
        {
          "indexed": false,
          "internalType": "bytes32",
          "name": "_hashedPayload",
          "type": "bytes32"
        },
        {
          "indexed": false,
          "internalType": "bytes",
          "name": "_payload",
          "type": "bytes"
        }
      ],
      "name": "CreditStored",
      "type": "event"
    },
    {
      "anonymous": false,
      "inputs": [
        {
          "indexed": false,
          "internalType": "uint8",
          "name": "version",
          "type": "uint8"
        }
      ],
      "name": "Initialized",
      "type": "event"
    },
    {
      "anonymous": false,
      "inputs": [
        {
          "indexed": false,
          "internalType": "uint16",
          "name": "_srcChainId",
          "type": "uint16"
        },
        {
          "indexed": false,
          "internalType": "bytes",
          "name": "_srcAddress",
          "type": "bytes"
        },
        {
          "indexed": false,
          "internalType": "uint64",
          "name": "_nonce",
          "type": "uint64"
        },
        {
          "indexed": false,
          "internalType": "bytes",
          "name": "_payload",
          "type": "bytes"
        },
        {
          "indexed": false,
          "internalType": "bytes",
          "name": "_reason",
          "type": "bytes"
        }
      ],
      "name": "MessageFailed",
      "type": "event"
    },
    {
      "anonymous": false,
      "inputs": [
        {
          "indexed": true,
          "internalType": "address",
          "name": "previousOwner",
          "type": "address"
        },
        {
          "indexed": true,
          "internalType": "address",
          "name": "newOwner",
          "type": "address"
        }
      ],
      "name": "OwnershipTransferred",
      "type": "event"
    },
    {
      "anonymous": false,
      "inputs": [
        {
          "indexed": true,
          "internalType": "uint16",
          "name": "_srcChainId",
          "type": "uint16"
        },
        {
          "indexed": true,
          "internalType": "bytes",
          "name": "_srcAddress",
          "type": "bytes"
        },
        {
          "indexed": true,
          "internalType": "address",
          "name": "_toAddress",
          "type": "address"
        },
        {
          "indexed": false,
          "internalType": "uint256[]",
          "name": "_tokenIds",
          "type": "uint256[]"
        }
      ],
      "name": "ReceiveFromChain",
      "type": "event"
    },
    {
      "anonymous": false,
      "inputs": [
        {
          "indexed": false,
          "internalType": "uint16",
          "name": "_srcChainId",
          "type": "uint16"
        },
        {
          "indexed": false,
          "internalType": "bytes",
          "name": "_srcAddress",
          "type": "bytes"
        },
        {
          "indexed": false,
          "internalType": "uint64",
          "name": "_nonce",
          "type": "uint64"
        },
        {
          "indexed": false,
          "internalType": "bytes32",
          "name": "_payloadHash",
          "type": "bytes32"
        }
      ],
      "name": "RetryMessageSuccess",
      "type": "event"
    },
    {
      "anonymous": false,
      "inputs": [
        {
          "indexed": true,
          "internalType": "uint16",
          "name": "_dstChainId",
          "type": "uint16"
        },
        {
          "indexed": true,
          "internalType": "address",
          "name": "_from",
          "type": "address"
        },
        {
          "indexed": true,
          "internalType": "bytes",
          "name": "_toAddress",
          "type": "bytes"
        },
        {
          "indexed": false,
          "internalType": "uint256[]",
          "name": "_tokenIds",
          "type": "uint256[]"
        }
      ],
      "name": "SendToChain",
      "type": "event"
    },
    {
      "anonymous": false,
      "inputs": [
        {
          "indexed": false,
          "internalType": "uint16",
          "name": "_dstChainId",
          "type": "uint16"
        },
        {
          "indexed": false,
          "internalType": "uint16",
          "name": "_type",
          "type": "uint16"
        },
        {
          "indexed": false,
          "internalType": "uint256",
          "name": "_minDstGas",
          "type": "uint256"
        }
      ],
      "name": "SetMinDstGas",
      "type": "event"
    },
    {
      "anonymous": false,
      "inputs": [
        {
          "indexed": false,
          "internalType": "address",
          "name": "precrime",
          "type": "address"
        }
      ],
      "name": "SetPrecrime",
      "type": "event"
    },
    {
      "anonymous": false,
      "inputs": [
        {
          "indexed": false,
          "internalType": "uint16",
          "name": "_remoteChainId",
          "type": "uint16"
        },
        {
          "indexed": false,
          "internalType": "bytes",
          "name": "_path",
          "type": "bytes"
        }
      ],
      "name": "SetTrustedRemote",
      "type": "event"
    },
    {
      "anonymous": false,
      "inputs": [
        {
          "indexed": false,
          "internalType": "uint16",
          "name": "_remoteChainId",
          "type": "uint16"
        },
        {
          "indexed": false,
          "internalType": "bytes",
          "name": "_remoteAddress",
          "type": "bytes"
        }
      ],
      "name": "SetTrustedRemoteAddress",
      "type": "event"
    },
    {
      "anonymous": false,
      "inputs": [
        {
          "indexed": true,
          "internalType": "address",
          "name": "from",
          "type": "address"
        },
        {
          "indexed": true,
          "internalType": "address",
          "name": "to",
          "type": "address"
        },
        {
          "indexed": true,
          "internalType": "uint256",
          "name": "tokenId",
          "type": "uint256"
        }
      ],
      "name": "Transfer",
      "type": "event"
    },
    {
      "inputs": [],
      "name": "DEFAULT_PAYLOAD_SIZE_LIMIT",
      "outputs": [
        {
          "internalType": "uint256",
          "name": "",
          "type": "uint256"
        }
      ],
      "stateMutability": "view",
      "type": "function"
    },
    {
      "inputs": [],
      "name": "FUNCTION_TYPE_SEND",
      "outputs": [
        {
          "internalType": "uint16",
          "name": "",
          "type": "uint16"
        }
      ],
      "stateMutability": "view",
      "type": "function"
    },
    {
      "inputs": [
        {
          "internalType": "address",
          "name": "to",
          "type": "address"
        },
        {
          "internalType": "uint256",
          "name": "tokenId",
          "type": "uint256"
        }
      ],
      "name": "approve",
      "outputs": [],
      "stateMutability": "nonpayable",
      "type": "function"
    },
    {
      "inputs": [
        {
          "internalType": "address",
          "name": "owner",
          "type": "address"
        }
      ],
      "name": "balanceOf",
      "outputs": [
        {
          "internalType": "uint256",
          "name": "",
          "type": "uint256"
        }
      ],
      "stateMutability": "view",
      "type": "function"
    },
    {
      "inputs": [
        {
          "internalType": "bytes",
          "name": "_payload",
          "type": "bytes"
        }
      ],
      "name": "clearCredits",
      "outputs": [],
      "stateMutability": "nonpayable",
      "type": "function"
    },
    {
      "inputs": [
        {
          "internalType": "uint16",
          "name": "",
          "type": "uint16"
        }
      ],
      "name": "dstChainIdToBatchLimit",
      "outputs": [
        {
          "internalType": "uint256",
          "name": "",
          "type": "uint256"
        }
      ],
      "stateMutability": "view",
      "type": "function"
    },
    {
      "inputs": [
        {
          "internalType": "uint16",
          "name": "",
          "type": "uint16"
        }
      ],
      "name": "dstChainIdToTransferGas",
      "outputs": [
        {
          "internalType": "uint256",
          "name": "",
          "type": "uint256"
        }
      ],
      "stateMutability": "view",
      "type": "function"
    },
    {
      "inputs": [
        {
          "internalType": "uint16",
          "name": "_dstChainId",
          "type": "uint16"
        },
        {
          "internalType": "bytes",
          "name": "_toAddress",
          "type": "bytes"
        },
        {
          "internalType": "uint256[]",
          "name": "_tokenIds",
          "type": "uint256[]"
        },
        {
          "internalType": "bool",
          "name": "_useZro",
          "type": "bool"
        },
        {
          "internalType": "bytes",
          "name": "_adapterParams",
          "type": "bytes"
        }
      ],
      "name": "estimateSendBatchFee",
      "outputs": [
        {
          "internalType": "uint256",
          "name": "nativeFee",
          "type": "uint256"
        },
        {
          "internalType": "uint256",
          "name": "zroFee",
          "type": "uint256"
        }
      ],
      "stateMutability": "view",
      "type": "function"
    },
    {
      "inputs": [
        {
          "internalType": "uint16",
          "name": "_dstChainId",
          "type": "uint16"
        },
        {
          "internalType": "bytes",
          "name": "_toAddress",
          "type": "bytes"
        },
        {
          "internalType": "uint256",
          "name": "_tokenId",
          "type": "uint256"
        },
        {
          "internalType": "bool",
          "name": "_useZro",
          "type": "bool"
        },
        {
          "internalType": "bytes",
          "name": "_adapterParams",
          "type": "bytes"
        }
      ],
      "name": "estimateSendFee",
      "outputs": [
        {
          "internalType": "uint256",
          "name": "nativeFee",
          "type": "uint256"
        },
        {
          "internalType": "uint256",
          "name": "zroFee",
          "type": "uint256"
        }
      ],
      "stateMutability": "view",
      "type": "function"
    },
    {
      "inputs": [
        {
          "internalType": "uint16",
          "name": "",
          "type": "uint16"
        },
        {
          "internalType": "bytes",
          "name": "",
          "type": "bytes"
        },
        {
          "internalType": "uint64",
          "name": "",
          "type": "uint64"
        }
      ],
      "name": "failedMessages",
      "outputs": [
        {
          "internalType": "bytes32",
          "name": "",
          "type": "bytes32"
        }
      ],
      "stateMutability": "view",
      "type": "function"
    },
    {
      "inputs": [
        {
          "internalType": "uint16",
          "name": "_srcChainId",
          "type": "uint16"
        },
        {
          "internalType": "bytes",
          "name": "_srcAddress",
          "type": "bytes"
        }
      ],
      "name": "forceResumeReceive",
      "outputs": [],
      "stateMutability": "nonpayable",
      "type": "function"
    },
    {
      "inputs": [
        {
          "internalType": "uint256",
          "name": "tokenId",
          "type": "uint256"
        }
      ],
      "name": "getApproved",
      "outputs": [
        {
          "internalType": "address",
          "name": "",
          "type": "address"
        }
      ],
      "stateMutability": "view",
      "type": "function"
    },
    {
      "inputs": [
        {
          "internalType": "uint16",
          "name": "_version",
          "type": "uint16"
        },
        {
          "internalType": "uint16",
          "name": "_chainId",
          "type": "uint16"
        },
        {
          "internalType": "address",
          "name": "",
          "type": "address"
        },
        {
          "internalType": "uint256",
          "name": "_configType",
          "type": "uint256"
        }
      ],
      "name": "getConfig",
      "outputs": [
        {
          "internalType": "bytes",
          "name": "",
          "type": "bytes"
        }
      ],
      "stateMutability": "view",
      "type": "function"
    },
    {
      "inputs": [
        {
          "internalType": "uint16",
          "name": "_remoteChainId",
          "type": "uint16"
        }
      ],
      "name": "getTrustedRemoteAddress",
      "outputs": [
        {
          "internalType": "bytes",
          "name": "",
          "type": "bytes"
        }
      ],
      "stateMutability": "view",
      "type": "function"
    },
    {
      "inputs": [
        {
          "internalType": "string",
          "name": "_name",
          "type": "string"
        },
        {
          "internalType": "string",
          "name": "_symbol",
          "type": "string"
        },
        {
          "internalType": "uint256",
          "name": "_minGasToTransfer",
          "type": "uint256"
        },
        {
          "internalType": "address",
          "name": "_lzEndpoint",
          "type": "address"
        }
      ],
      "name": "initialize",
      "outputs": [],
      "stateMutability": "nonpayable",
      "type": "function"
    },
    {
      "inputs": [
        {
          "internalType": "address",
          "name": "owner",
          "type": "address"
        },
        {
          "internalType": "address",
          "name": "operator",
          "type": "address"
        }
      ],
      "name": "isApprovedForAll",
      "outputs": [
        {
          "internalType": "bool",
          "name": "",
          "type": "bool"
        }
      ],
      "stateMutability": "view",
      "type": "function"
    },
    {
      "inputs": [
        {
          "internalType": "uint16",
          "name": "_srcChainId",
          "type": "uint16"
        },
        {
          "internalType": "bytes",
          "name": "_srcAddress",
          "type": "bytes"
        }
      ],
      "name": "isTrustedRemote",
      "outputs": [
        {
          "internalType": "bool",
          "name": "",
          "type": "bool"
        }
      ],
      "stateMutability": "view",
      "type": "function"
    },
    {
      "inputs": [],
      "name": "lzEndpoint",
      "outputs": [
        {
          "internalType": "contract ILayerZeroEndpointUpgradeable",
          "name": "",
          "type": "address"
        }
      ],
      "stateMutability": "view",
      "type": "function"
    },
    {
      "inputs": [
        {
          "internalType": "uint16",
          "name": "_srcChainId",
          "type": "uint16"
        },
        {
          "internalType": "bytes",
          "name": "_srcAddress",
          "type": "bytes"
        },
        {
          "internalType": "uint64",
          "name": "_nonce",
          "type": "uint64"
        },
        {
          "internalType": "bytes",
          "name": "_payload",
          "type": "bytes"
        }
      ],
      "name": "lzReceive",
      "outputs": [],
      "stateMutability": "nonpayable",
      "type": "function"
    },
    {
      "inputs": [
        {
          "internalType": "uint16",
          "name": "",
          "type": "uint16"
        },
        {
          "internalType": "uint16",
          "name": "",
          "type": "uint16"
        }
      ],
      "name": "minDstGasLookup",
      "outputs": [
        {
          "internalType": "uint256",
          "name": "",
          "type": "uint256"
        }
      ],
      "stateMutability": "view",
      "type": "function"
    },
    {
      "inputs": [],
      "name": "minGasToTransferAndStore",
      "outputs": [
        {
          "internalType": "uint256",
          "name": "",
          "type": "uint256"
        }
      ],
      "stateMutability": "view",
      "type": "function"
    },
    {
      "inputs": [
        {
          "internalType": "address",
          "name": "_tokenOwner",
          "type": "address"
        },
        {
          "internalType": "uint256",
          "name": "_newId",
          "type": "uint256"
        }
      ],
      "name": "mint",
      "outputs": [],
      "stateMutability": "nonpayable",
      "type": "function"
    },
    {
      "inputs": [],
      "name": "name",
      "outputs": [
        {
          "internalType": "string",
          "name": "",
          "type": "string"
        }
      ],
      "stateMutability": "view",
      "type": "function"
    },
    {
      "inputs": [
        {
          "internalType": "uint16",
          "name": "_srcChainId",
          "type": "uint16"
        },
        {
          "internalType": "bytes",
          "name": "_srcAddress",
          "type": "bytes"
        },
        {
          "internalType": "uint64",
          "name": "_nonce",
          "type": "uint64"
        },
        {
          "internalType": "bytes",
          "name": "_payload",
          "type": "bytes"
        }
      ],
      "name": "nonblockingLzReceive",
      "outputs": [],
      "stateMutability": "nonpayable",
      "type": "function"
    },
    {
      "inputs": [],
      "name": "owner",
      "outputs": [
        {
          "internalType": "address",
          "name": "",
          "type": "address"
        }
      ],
      "stateMutability": "view",
      "type": "function"
    },
    {
      "inputs": [
        {
          "internalType": "uint256",
          "name": "tokenId",
          "type": "uint256"
        }
      ],
      "name": "ownerOf",
      "outputs": [
        {
          "internalType": "address",
          "name": "",
          "type": "address"
        }
      ],
      "stateMutability": "view",
      "type": "function"
    },
    {
      "inputs": [
        {
          "internalType": "uint16",
          "name": "",
          "type": "uint16"
        }
      ],
      "name": "payloadSizeLimitLookup",
      "outputs": [
        {
          "internalType": "uint256",
          "name": "",
          "type": "uint256"
        }
      ],
      "stateMutability": "view",
      "type": "function"
    },
    {
      "inputs": [],
      "name": "precrime",
      "outputs": [
        {
          "internalType": "address",
          "name": "",
          "type": "address"
        }
      ],
      "stateMutability": "view",
      "type": "function"
    },
    {
      "inputs": [],
      "name": "renounceOwnership",
      "outputs": [],
      "stateMutability": "nonpayable",
      "type": "function"
    },
    {
      "inputs": [
        {
          "internalType": "uint16",
          "name": "_srcChainId",
          "type": "uint16"
        },
        {
          "internalType": "bytes",
          "name": "_srcAddress",
          "type": "bytes"
        },
        {
          "internalType": "uint64",
          "name": "_nonce",
          "type": "uint64"
        },
        {
          "internalType": "bytes",
          "name": "_payload",
          "type": "bytes"
        }
      ],
      "name": "retryMessage",
      "outputs": [],
      "stateMutability": "payable",
      "type": "function"
    },
    {
      "inputs": [
        {
          "internalType": "address",
          "name": "from",
          "type": "address"
        },
        {
          "internalType": "address",
          "name": "to",
          "type": "address"
        },
        {
          "internalType": "uint256",
          "name": "tokenId",
          "type": "uint256"
        }
      ],
      "name": "safeTransferFrom",
      "outputs": [],
      "stateMutability": "nonpayable",
      "type": "function"
    },
    {
      "inputs": [
        {
          "internalType": "address",
          "name": "from",
          "type": "address"
        },
        {
          "internalType": "address",
          "name": "to",
          "type": "address"
        },
        {
          "internalType": "uint256",
          "name": "tokenId",
          "type": "uint256"
        },
        {
          "internalType": "bytes",
          "name": "data",
          "type": "bytes"
        }
      ],
      "name": "safeTransferFrom",
      "outputs": [],
      "stateMutability": "nonpayable",
      "type": "function"
    },
    {
      "inputs": [
        {
          "internalType": "address",
          "name": "_from",
          "type": "address"
        },
        {
          "internalType": "uint16",
          "name": "_dstChainId",
          "type": "uint16"
        },
        {
          "internalType": "bytes",
          "name": "_toAddress",
          "type": "bytes"
        },
        {
          "internalType": "uint256[]",
          "name": "_tokenIds",
          "type": "uint256[]"
        },
        {
          "internalType": "address payable",
          "name": "_refundAddress",
          "type": "address"
        },
        {
          "internalType": "address",
          "name": "_zroPaymentAddress",
          "type": "address"
        },
        {
          "internalType": "bytes",
          "name": "_adapterParams",
          "type": "bytes"
        }
      ],
      "name": "sendBatchFrom",
      "outputs": [],
      "stateMutability": "payable",
      "type": "function"
    },
    {
      "inputs": [
        {
          "internalType": "address",
          "name": "_from",
          "type": "address"
        },
        {
          "internalType": "uint16",
          "name": "_dstChainId",
          "type": "uint16"
        },
        {
          "internalType": "bytes",
          "name": "_toAddress",
          "type": "bytes"
        },
        {
          "internalType": "uint256",
          "name": "_tokenId",
          "type": "uint256"
        },
        {
          "internalType": "address payable",
          "name": "_refundAddress",
          "type": "address"
        },
        {
          "internalType": "address",
          "name": "_zroPaymentAddress",
          "type": "address"
        },
        {
          "internalType": "bytes",
          "name": "_adapterParams",
          "type": "bytes"
        }
      ],
      "name": "sendFrom",
      "outputs": [],
      "stateMutability": "payable",
      "type": "function"
    },
    {
      "inputs": [
        {
          "internalType": "address",
          "name": "operator",
          "type": "address"
        },
        {
          "internalType": "bool",
          "name": "approved",
          "type": "bool"
        }
      ],
      "name": "setApprovalForAll",
      "outputs": [],
      "stateMutability": "nonpayable",
      "type": "function"
    },
    {
      "inputs": [
        {
          "internalType": "uint16",
          "name": "_version",
          "type": "uint16"
        },
        {
          "internalType": "uint16",
          "name": "_chainId",
          "type": "uint16"
        },
        {
          "internalType": "uint256",
          "name": "_configType",
          "type": "uint256"
        },
        {
          "internalType": "bytes",
          "name": "_config",
          "type": "bytes"
        }
      ],
      "name": "setConfig",
      "outputs": [],
      "stateMutability": "nonpayable",
      "type": "function"
    },
    {
      "inputs": [
        {
          "internalType": "uint16",
          "name": "_dstChainId",
          "type": "uint16"
        },
        {
          "internalType": "uint256",
          "name": "_dstChainIdToBatchLimit",
          "type": "uint256"
        }
      ],
      "name": "setDstChainIdToBatchLimit",
      "outputs": [],
      "stateMutability": "nonpayable",
      "type": "function"
    },
    {
      "inputs": [
        {
          "internalType": "uint16",
          "name": "_dstChainId",
          "type": "uint16"
        },
        {
          "internalType": "uint256",
          "name": "_dstChainIdToTransferGas",
          "type": "uint256"
        }
      ],
      "name": "setDstChainIdToTransferGas",
      "outputs": [],
      "stateMutability": "nonpayable",
      "type": "function"
    },
    {
      "inputs": [
        {
          "internalType": "uint16",
          "name": "_dstChainId",
          "type": "uint16"
        },
        {
          "internalType": "uint16",
          "name": "_packetType",
          "type": "uint16"
        },
        {
          "internalType": "uint256",
          "name": "_minGas",
          "type": "uint256"
        }
      ],
      "name": "setMinDstGas",
      "outputs": [],
      "stateMutability": "nonpayable",
      "type": "function"
    },
    {
      "inputs": [
        {
          "internalType": "uint256",
          "name": "_minGasToTransferAndStore",
          "type": "uint256"
        }
      ],
      "name": "setMinGasToTransferAndStore",
      "outputs": [],
      "stateMutability": "nonpayable",
      "type": "function"
    },
    {
      "inputs": [
        {
          "internalType": "uint16",
          "name": "_dstChainId",
          "type": "uint16"
        },
        {
          "internalType": "uint256",
          "name": "_size",
          "type": "uint256"
        }
      ],
      "name": "setPayloadSizeLimit",
      "outputs": [],
      "stateMutability": "nonpayable",
      "type": "function"
    },
    {
      "inputs": [
        {
          "internalType": "address",
          "name": "_precrime",
          "type": "address"
        }
      ],
      "name": "setPrecrime",
      "outputs": [],
      "stateMutability": "nonpayable",
      "type": "function"
    },
    {
      "inputs": [
        {
          "internalType": "uint16",
          "name": "_version",
          "type": "uint16"
        }
      ],
      "name": "setReceiveVersion",
      "outputs": [],
      "stateMutability": "nonpayable",
      "type": "function"
    },
    {
      "inputs": [
        {
          "internalType": "uint16",
          "name": "_version",
          "type": "uint16"
        }
      ],
      "name": "setSendVersion",
      "outputs": [],
      "stateMutability": "nonpayable",
      "type": "function"
    },
    {
      "inputs": [
        {
          "internalType": "uint16",
          "name": "_srcChainId",
          "type": "uint16"
        },
        {
          "internalType": "bytes",
          "name": "_path",
          "type": "bytes"
        }
      ],
      "name": "setTrustedRemote",
      "outputs": [],
      "stateMutability": "nonpayable",
      "type": "function"
    },
    {
      "inputs": [
        {
          "internalType": "uint16",
          "name": "_remoteChainId",
          "type": "uint16"
        },
        {
          "internalType": "bytes",
          "name": "_remoteAddress",
          "type": "bytes"
        }
      ],
      "name": "setTrustedRemoteAddress",
      "outputs": [],
      "stateMutability": "nonpayable",
      "type": "function"
    },
    {
      "inputs": [
        {
          "internalType": "bytes32",
          "name": "",
          "type": "bytes32"
        }
      ],
      "name": "storedCredits",
      "outputs": [
        {
          "internalType": "uint16",
          "name": "srcChainId",
          "type": "uint16"
        },
        {
          "internalType": "address",
          "name": "toAddress",
          "type": "address"
        },
        {
          "internalType": "uint256",
          "name": "index",
          "type": "uint256"
        },
        {
          "internalType": "bool",
          "name": "creditsRemain",
          "type": "bool"
        }
      ],
      "stateMutability": "view",
      "type": "function"
    },
    {
      "inputs": [
        {
          "internalType": "bytes4",
          "name": "interfaceId",
          "type": "bytes4"
        }
      ],
      "name": "supportsInterface",
      "outputs": [
        {
          "internalType": "bool",
          "name": "",
          "type": "bool"
        }
      ],
      "stateMutability": "view",
      "type": "function"
    },
    {
      "inputs": [],
      "name": "symbol",
      "outputs": [
        {
          "internalType": "string",
          "name": "",
          "type": "string"
        }
      ],
      "stateMutability": "view",
      "type": "function"
    },
    {
      "inputs": [
        {
          "internalType": "uint256",
          "name": "tokenId",
          "type": "uint256"
        }
      ],
      "name": "tokenURI",
      "outputs": [
        {
          "internalType": "string",
          "name": "",
          "type": "string"
        }
      ],
      "stateMutability": "view",
      "type": "function"
    },
    {
      "inputs": [
        {
          "internalType": "address",
          "name": "from",
          "type": "address"
        },
        {
          "internalType": "address",
          "name": "to",
          "type": "address"
        },
        {
          "internalType": "uint256",
          "name": "tokenId",
          "type": "uint256"
        }
      ],
      "name": "transferFrom",
      "outputs": [],
      "stateMutability": "nonpayable",
      "type": "function"
    },
    {
      "inputs": [
        {
          "internalType": "address",
          "name": "newOwner",
          "type": "address"
        }
      ],
      "name": "transferOwnership",
      "outputs": [],
      "stateMutability": "nonpayable",
      "type": "function"
    },
    {
      "inputs": [
        {
          "internalType": "uint16",
          "name": "",
          "type": "uint16"
        }
      ],
      "name": "trustedRemoteLookup",
      "outputs": [
        {
          "internalType": "bytes",
          "name": "",
          "type": "bytes"
        }
      ],
      "stateMutability": "view",
      "type": "function"
    }
  ],
  "bytecode": "0x608060405234801561001057600080fd5b5061478a806100206000396000f3fe6080604052600436106103195760003560e01c80638cfd8f5c116101ab578063baf3292d116100f7578063df2a5b3b11610095578063f23536411161006f578063f235364114610a35578063f2fde38b14610a55578063f5ecbdbc14610a75578063fa25f9b614610a9557600080fd5b8063df2a5b3b146109ab578063e985e9c5146109cb578063eb8d72b714610a1557600080fd5b8063c87b56dd116100d1578063c87b56dd14610938578063cbed8b9c14610958578063d12473a514610978578063d1deba1f1461099857600080fd5b8063baf3292d146108e2578063bd3a13f614610902578063c44618341461092257600080fd5b80639f38369a11610164578063ab3ffb931161013e578063ab3ffb9314610867578063af3fb21c1461087a578063b353aaa7146108a2578063b88d4fde146108c257600080fd5b80639f38369a14610807578063a22cb46514610827578063a6c3d1651461084757600080fd5b80638cfd8f5c1461073c5780638da5cb5b146107745780638ffa1f2a14610792578063950c8a74146107b257806395d89b41146107d25780639ea5d6b1146107e757600080fd5b80633f1f4fa41161026a578063519056361161022357806366ad5c8a116101fd57806366ad5c8a146106c757806370a08231146106e7578063715018a6146107075780637533d7881461071c57600080fd5b806351905636146106455780635b8c41e6146106585780636352211e146106a757600080fd5b80633f1f4fa41461056757806340c10f19146105a257806342842e0e146105c257806342d65a8d146105e257806348288190146106025780634ac3f4ff1461061857600080fd5b80630b4cad4c116102d757806322a3ecf9116102b157806322a3ecf91461046f57806323b872dd146104f25780632a205e3d146105125780633d8b38f61461054757600080fd5b80630b4cad4c1461040f5780630df374831461042f57806310ddb1371461044f57600080fd5b80621d35671461031e57806301ffc9a71461034057806306fdde031461037557806307e0db1714610397578063081812fc146103b7578063095ea7b3146103ef575b600080fd5b34801561032a57600080fd5b5061033e610339366004613736565b610ac2565b005b34801561034c57600080fd5b5061036061035b3660046137df565b610cde565b60405190151581526020015b60405180910390f35b34801561038157600080fd5b5061038a610d01565b60405161036c9190613854565b3480156103a357600080fd5b5061033e6103b2366004613867565b610d94565b3480156103c357600080fd5b506103d76103d2366004613882565b610e01565b6040516001600160a01b03909116815260200161036c565b3480156103fb57600080fd5b5061033e61040a3660046138bb565b610e29565b34801561041b57600080fd5b5061033e61042a366004613882565b610f3f565b34801561043b57600080fd5b5061033e61044a3660046138e7565b610fb2565b34801561045b57600080fd5b5061033e61046a366004613867565b610fd1565b34801561047b57600080fd5b506104c361048a366004613882565b60fe6020526000908152604090208054600182015460029092015461ffff821692620100009092046001600160a01b0316919060ff1684565b6040805161ffff90951685526001600160a01b039093166020850152918301521515606082015260800161036c565b3480156104fe57600080fd5b5061033e61050d366004613903565b61100d565b34801561051e57600080fd5b5061053261052d366004613a17565b61103f565b6040805192835260208301919091520161036c565b34801561055357600080fd5b50610360610562366004613aa5565b611065565b34801561057357600080fd5b50610594610582366004613867565b60686020526000908152604090205481565b60405190815260200161036c565b3480156105ae57600080fd5b5061033e6105bd3660046138bb565b611131565b3480156105ce57600080fd5b5061033e6105dd366004613903565b61113f565b3480156105ee57600080fd5b5061033e6105fd366004613aa5565b61115a565b34801561060e57600080fd5b5061059460fb5481565b34801561062457600080fd5b50610594610633366004613867565b60fc6020526000908152604090205481565b61033e610653366004613af7565b6111c4565b34801561066457600080fd5b50610594610673366004613bb0565b6097602090815260009384526040808520845180860184018051928152908401958401959095209452929052825290205481565b3480156106b357600080fd5b506103d76106c2366004613882565b6111db565b3480156106d357600080fd5b5061033e6106e2366004613736565b61123c565b3480156106f357600080fd5b50610594610702366004613c0d565b611318565b34801561071357600080fd5b5061033e61139f565b34801561072857600080fd5b5061038a610737366004613867565b6113b3565b34801561074857600080fd5b50610594610757366004613c2a565b606760209081526000928352604080842090915290825290205481565b34801561078057600080fd5b506033546001600160a01b03166103d7565b34801561079e57600080fd5b5061033e6107ad366004613c5d565b61144d565b3480156107be57600080fd5b506069546103d7906001600160a01b031681565b3480156107de57600080fd5b5061038a61169c565b3480156107f357600080fd5b5061033e6108023660046138e7565b6116ac565b34801561081357600080fd5b5061038a610822366004613867565b61172f565b34801561083357600080fd5b5061033e610842366004613c91565b611846565b34801561085357600080fd5b5061033e610862366004613aa5565b611851565b61033e610875366004613d46565b6118e4565b34801561088657600080fd5b5061088f600181565b60405161ffff909116815260200161036c565b3480156108ae57600080fd5b506065546103d7906001600160a01b031681565b3480156108ce57600080fd5b5061033e6108dd366004613dfb565b6118f3565b3480156108ee57600080fd5b5061033e6108fd366004613c0d565b611925565b34801561090e57600080fd5b5061033e61091d366004613e66565b611981565b34801561092e57600080fd5b5061059461271081565b34801561094457600080fd5b5061038a610953366004613882565b611a9a565b34801561096457600080fd5b5061033e610973366004613ee5565b611b0d565b34801561098457600080fd5b5061033e6109933660046138e7565b611b86565b61033e6109a6366004613736565b611c0a565b3480156109b757600080fd5b5061033e6109c6366004613f53565b611e20565b3480156109d757600080fd5b506103606109e6366004613f8f565b6001600160a01b0391821660009081526101326020908152604080832093909416825291909152205460ff1690565b348015610a2157600080fd5b5061033e610a30366004613aa5565b611ed2565b348015610a4157600080fd5b50610532610a50366004613fc8565b611f2c565b348015610a6157600080fd5b5061033e610a70366004613c0d565b611fda565b348015610a8157600080fd5b5061038a610a90366004614041565b612053565b348015610aa157600080fd5b50610594610ab0366004613867565b60fd6020526000908152604090205481565b6065546001600160a01b0316336001600160a01b031614610b2a5760405162461bcd60e51b815260206004820152601e60248201527f4c7a4170703a20696e76616c696420656e64706f696e742063616c6c6572000060448201526064015b60405180910390fd5b61ffff861660009081526066602052604081208054610b489061408e565b80601f0160208091040260200160405190810160405280929190818152602001828054610b749061408e565b8015610bc15780601f10610b9657610100808354040283529160200191610bc1565b820191906000526020600020905b815481529060010190602001808311610ba457829003601f168201915b50505050509050805186869050148015610bdc575060008151115b8015610c04575080516020820120604051610bfa90889088906140c9565b6040518091039020145b610c5f5760405162461bcd60e51b815260206004820152602660248201527f4c7a4170703a20696e76616c696420736f757263652073656e64696e6720636f6044820152651b9d1c9858dd60d21b6064820152608401610b21565b610cd58787878080601f01602080910402602001604051908101604052809392919081815260200183838082843760009201919091525050604080516020601f8a018190048102820181019092528881528a9350915088908890819084018382808284376000920191909152506120e892505050565b50505050505050565b60006001600160e01b031982161580610cfb5750610cfb82612161565b92915050565b606061012d8054610d119061408e565b80601f0160208091040260200160405190810160405280929190818152602001828054610d3d9061408e565b8015610d8a5780601f10610d5f57610100808354040283529160200191610d8a565b820191906000526020600020905b815481529060010190602001808311610d6d57829003601f168201915b5050505050905090565b610d9c6121a1565b6065546040516307e0db1760e01b815261ffff831660048201526001600160a01b03909116906307e0db17906024015b600060405180830381600087803b158015610de657600080fd5b505af1158015610dfa573d6000803e3d6000fd5b5050505050565b6000610e0c826121fb565b50600090815261013160205260409020546001600160a01b031690565b6000610e34826111db565b9050806001600160a01b0316836001600160a01b03161415610ea25760405162461bcd60e51b815260206004820152602160248201527f4552433732313a20617070726f76616c20746f2063757272656e74206f776e656044820152603960f91b6064820152608401610b21565b336001600160a01b0382161480610ebe5750610ebe81336109e6565b610f305760405162461bcd60e51b815260206004820152603e60248201527f4552433732313a20617070726f76652063616c6c6572206973206e6f7420746f60448201527f6b656e206f776e6572206e6f7220617070726f76656420666f7220616c6c00006064820152608401610b21565b610f3a838361224b565b505050565b610f476121a1565b60008111610fad5760405162461bcd60e51b815260206004820152602d60248201527f4f4e46543732313a206d696e476173546f5472616e73666572416e6453746f7260448201526c065206d757374206265203e203609c1b6064820152608401610b21565b60fb55565b610fba6121a1565b61ffff909116600090815260686020526040902055565b610fd96121a1565b6065546040516310ddb13760e01b815261ffff831660048201526001600160a01b03909116906310ddb13790602401610dcc565b611018335b826122ba565b6110345760405162461bcd60e51b8152600401610b21906140d9565b610f3a838383612339565b6000806110578787611050886124d8565b8787611f2c565b915091509550959350505050565b61ffff8316600090815260666020526040812080548291906110869061408e565b80601f01602080910402602001604051908101604052809291908181526020018280546110b29061408e565b80156110ff5780601f106110d4576101008083540402835291602001916110ff565b820191906000526020600020905b8154815290600101906020018083116110e257829003601f168201915b5050505050905083836040516111169291906140c9565b60405180910390208180519060200120149150509392505050565b61113b8282612523565b5050565b610f3a838383604051806020016040528060008152506118f3565b6111626121a1565b6065546040516342d65a8d60e01b81526001600160a01b03909116906342d65a8d9061119690869086908690600401614150565b600060405180830381600087803b1580156111b057600080fd5b505af1158015610cd5573d6000803e3d6000fd5b610cd58787876111d3886124d8565b87878761253d565b600081815261012f60205260408120546001600160a01b031680610cfb5760405162461bcd60e51b8152602060048201526018602482015277115490cdcc8c4e881a5b9d985b1a59081d1bdad95b88125160421b6044820152606401610b21565b33301461129a5760405162461bcd60e51b815260206004820152602660248201527f4e6f6e626c6f636b696e674c7a4170703a2063616c6c6572206d7573742062656044820152650204c7a4170760d41b6064820152608401610b21565b6113108686868080601f01602080910402602001604051908101604052809392919081815260200183838082843760009201919091525050604080516020601f89018190048102820181019092528781528993509150879087908190840183828082843760009201919091525061272492505050565b505050505050565b60006001600160a01b0382166113825760405162461bcd60e51b815260206004820152602960248201527f4552433732313a2061646472657373207a65726f206973206e6f7420612076616044820152683634b21037bbb732b960b91b6064820152608401610b21565b506001600160a01b03166000908152610130602052604090205490565b6113a76121a1565b6113b1600061287b565b565b606660205260009081526040902080546113cc9061408e565b80601f01602080910402602001604051908101604052809291908181526020018280546113f89061408e565b80156114455780601f1061141a57610100808354040283529160200191611445565b820191906000526020600020905b81548152906001019060200180831161142857829003601f168201915b505050505081565b8051602080830191909120600081815260fe90925260409091206002015460ff166114ba5760405162461bcd60e51b815260206004820152601a60248201527f4f4e46543732313a206e6f20637265646974732073746f7265640000000000006044820152606401610b21565b6000828060200190518101906114d091906141b3565b600084815260fe60205260408120805460019091015492945090925061150c9161ffff8216916201000090046001600160a01b031690856128cd565b600084815260fe6020526040902060010154909150811161158a5760405162461bcd60e51b815260206004820152603260248201527f4f4e46543732313a206e6f7420656e6f7567682067617320746f2070726f636560448201527139b99031b932b234ba103a3930b739b332b960711b6064820152608401610b21565b815181141561160257600083815260fe602052604080822080546001600160b01b031916815560018101929092556002909101805460ff19169055517fd7be02b8dd0d27bd0517a9cb4d7469ce27df4313821ae5ec1ff69acc594ba233906115f59085815260200190565b60405180910390a1611696565b60408051608081018252600085815260fe6020818152848320805461ffff80821687526001600160a01b03620100008084048216868a019081529989018b8152600160608b01818152998f90529790965297519851169096026001600160b01b03199091169690951695909517939093178455915191830191909155516002909101805491151560ff199092169190911790555b50505050565b606061012e8054610d119061408e565b6116b46121a1565b600081116117185760405162461bcd60e51b815260206004820152602b60248201527f4f4e46543732313a20647374436861696e4964546f42617463684c696d69742060448201526a06d757374206265203e20360ac1b6064820152608401610b21565b61ffff909116600090815260fc6020526040902055565b61ffff81166000908152606660205260408120805460609291906117529061408e565b80601f016020809104026020016040519081016040528092919081815260200182805461177e9061408e565b80156117cb5780601f106117a0576101008083540402835291602001916117cb565b820191906000526020600020905b8154815290600101906020018083116117ae57829003601f168201915b505050505090508051600014156118245760405162461bcd60e51b815260206004820152601d60248201527f4c7a4170703a206e6f20747275737465642070617468207265636f72640000006044820152606401610b21565b61183f6000601483516118379190614283565b83919061291f565b9392505050565b61113b338383612a2c565b6118596121a1565b81813060405160200161186e9392919061429a565b60408051601f1981840301815291815261ffff851660009081526066602090815291902082516118a3939192909101906135b3565b507f8c0400cfe2d1199b1a725c78960bcc2a344d869b80590d0f2bd005db15a572ce8383836040516118d793929190614150565b60405180910390a1505050565b610cd58787878787878761253d565b6118fd33836122ba565b6119195760405162461bcd60e51b8152600401610b21906140d9565b61169684848484612afc565b61192d6121a1565b606980546001600160a01b0319166001600160a01b0383169081179091556040519081527f5db758e995a17ec1ad84bdef7e8c3293a0bd6179bcce400dff5d4c3d87db726b9060200160405180910390a150565b600054610100900460ff16158080156119a15750600054600160ff909116105b806119bb5750303b1580156119bb575060005460ff166001145b611a1e5760405162461bcd60e51b815260206004820152602e60248201527f496e697469616c697a61626c653a20636f6e747261637420697320616c72656160448201526d191e481a5b9a5d1a585b1a5e995960921b6064820152608401610b21565b6000805460ff191660011790558015611a41576000805461ff0019166101001790555b611a4d85858585612b2f565b8015610dfa576000805461ff0019169055604051600181527f7f26b83ff96e1f2b6a682f133852f6798a09c465da95921460cefb3847402498906020015b60405180910390a15050505050565b6060611aa5826121fb565b6000611abc60408051602081019091526000815290565b90506000815111611adc576040518060200160405280600081525061183f565b80611ae684612b7a565b604051602001611af79291906142c0565b6040516020818303038152906040529392505050565b611b156121a1565b6065546040516332fb62e760e21b81526001600160a01b039091169063cbed8b9c90611b4d90889088908890889088906004016142ef565b600060405180830381600087803b158015611b6757600080fd5b505af1158015611b7b573d6000803e3d6000fd5b505050505050505050565b611b8e6121a1565b60008111611bf35760405162461bcd60e51b815260206004820152602c60248201527f4f4e46543732313a20647374436861696e4964546f5472616e7366657247617360448201526b0206d757374206265203e20360a41b6064820152608401610b21565b61ffff909116600090815260fd6020526040902055565b61ffff86166000908152609760205260408082209051611c2d90889088906140c9565b90815260408051602092819003830190206001600160401b03871660009081529252902054905080611cad5760405162461bcd60e51b815260206004820152602360248201527f4e6f6e626c6f636b696e674c7a4170703a206e6f2073746f726564206d65737360448201526261676560e81b6064820152608401610b21565b808383604051611cbe9291906140c9565b604051809103902014611d1d5760405162461bcd60e51b815260206004820152602160248201527f4e6f6e626c6f636b696e674c7a4170703a20696e76616c6964207061796c6f616044820152601960fa1b6064820152608401610b21565b61ffff87166000908152609760205260408082209051611d4090899089906140c9565b90815260408051602092819003830181206001600160401b038916600090815290845282902093909355601f88018290048202830182019052868252611dd8918991899089908190840183828082843760009201919091525050604080516020601f8a018190048102820181019092528881528a93509150889088908190840183828082843760009201919091525061272492505050565b7fc264d91f3adc5588250e1551f547752ca0cfa8f6b530d243b9f9f4cab10ea8e58787878785604051611e0f959493929190614328565b60405180910390a150505050505050565b611e286121a1565b60008111611e705760405162461bcd60e51b81526020600482015260156024820152744c7a4170703a20696e76616c6964206d696e47617360581b6044820152606401610b21565b61ffff83811660008181526067602090815260408083209487168084529482529182902085905581519283528201929092529081018290527f9d5c7c0b934da8fefa9c7760c98383778a12dfbfc0c3b3106518f43fb9508ac0906060016118d7565b611eda6121a1565b61ffff83166000908152606660205260409020611ef8908383613637565b507ffa41487ad5d6728f0b19276fa1eddc16558578f5109fc39d2dc33c3230470dab8383836040516118d793929190614150565b60008060008686604051602001611f4492919061439e565b60408051601f198184030181529082905260655463040a7bb160e41b83529092506001600160a01b0316906340a7bb1090611f8b908b90309086908b908b906004016143cc565b6040805180830381865afa158015611fa7573d6000803e3d6000fd5b505050506040513d601f19601f82011682018060405250810190611fcb9190614420565b92509250509550959350505050565b611fe26121a1565b6001600160a01b0381166120475760405162461bcd60e51b815260206004820152602660248201527f4f776e61626c653a206e6577206f776e657220697320746865207a65726f206160448201526564647265737360d01b6064820152608401610b21565b6120508161287b565b50565b606554604051633d7b2f6f60e21b815261ffff808716600483015285166024820152306044820152606481018390526060916001600160a01b03169063f5ecbdbc90608401600060405180830381865afa1580156120b5573d6000803e3d6000fd5b505050506040513d6000823e601f3d908101601f191682016040526120dd9190810190614444565b90505b949350505050565b60008061214b5a60966366ad5c8a60e01b898989896040516024016121109493929190614478565b60408051601f198184030181529190526020810180516001600160e01b03166001600160e01b03199093169290921790915230929190612c77565b9150915081611310576113108686868685612d01565b60006001600160e01b031982166380ac58cd60e01b148061219257506001600160e01b03198216635b5e139f60e01b145b80610cfb5750610cfb82612d8f565b6033546001600160a01b031633146113b15760405162461bcd60e51b815260206004820181905260248201527f4f776e61626c653a2063616c6c6572206973206e6f7420746865206f776e65726044820152606401610b21565b61220481612dc4565b6120505760405162461bcd60e51b8152602060048201526018602482015277115490cdcc8c4e881a5b9d985b1a59081d1bdad95b88125160421b6044820152606401610b21565b60008181526101316020526040902080546001600160a01b0319166001600160a01b0384169081179091558190612281826111db565b6001600160a01b03167f8c5be1e5ebec7d5bd14f71427d1e84f3dd0314c0f7b2291e5b200ac8c7c3b92560405160405180910390a45050565b6000806122c6836111db565b9050806001600160a01b0316846001600160a01b0316148061230e57506001600160a01b038082166000908152610132602090815260408083209388168352929052205460ff165b806120e05750836001600160a01b031661232784610e01565b6001600160a01b031614949350505050565b826001600160a01b031661234c826111db565b6001600160a01b0316146123b05760405162461bcd60e51b815260206004820152602560248201527f4552433732313a207472616e736665722066726f6d20696e636f72726563742060448201526437bbb732b960d91b6064820152608401610b21565b6001600160a01b0382166124125760405162461bcd60e51b8152602060048201526024808201527f4552433732313a207472616e7366657220746f20746865207a65726f206164646044820152637265737360e01b6064820152608401610b21565b61241d60008261224b565b6001600160a01b038316600090815261013060205260408120805460019290612447908490614283565b90915550506001600160a01b0382166000908152610130602052604081208054600192906124769084906144b6565b9091555050600081815261012f602052604080822080546001600160a01b0319166001600160a01b0386811691821790925591518493918716917fddf252ad1be2c89b69c2b068fc378daa952ba7f163c4a11628f55a4df523b3ef91a4505050565b60408051600180825281830190925260609160009190602080830190803683370190505090508281600081518110612512576125126144ce565b602090810291909101015292915050565b61113b828260405180602001604052806000815250612de2565b600084511161258e5760405162461bcd60e51b815260206004820152601a60248201527f4c7a4170703a20746f6b656e4964735b5d20697320656d7074790000000000006044820152606401610b21565b8351600114806125b2575061ffff8616600090815260fc6020526040902054845111155b6126125760405162461bcd60e51b815260206004820152602b60248201527f4f4e46543732313a2062617463682073697a652065786365656473206473742060448201526a18985d18da081b1a5b5a5d60aa1b6064820152608401610b21565b60005b845181101561265557612643888888888581518110612636576126366144ce565b6020026020010151612e15565b8061264d816144e4565b915050612615565b506000858560405160200161266b92919061439e565b60405160208183030381529060405290506126b087600184885160fd60008d61ffff1661ffff168152602001908152602001600020546126ab91906144ff565b612f00565b6126be878286868634612fdf565b856040516126cc919061451e565b6040518091039020886001600160a01b03168861ffff167fe1b87c47fdeb4f9cbadbca9df3af7aba453bb6e501075d0440d88125b711522a88604051612712919061453a565b60405180910390a45050505050505050565b6000808280602001905181019061273b91906141b3565b601482015191935091506000612753888383866128cd565b905082518110156128275784516020808701919091206040805160808101825261ffff808d1682526001600160a01b03808816838701908152838501888152600160608601818152600089815260fe909a529887902095518654935190941662010000026001600160b01b03199093169390941692909217178355519082015592516002909301805493151560ff199094169390931790925590517f10e0b70d256bccc84b7027506978bd8b68984a870788b93b479def144c839ad79061281d908390899061454d565b60405180910390a1505b816001600160a01b03168760405161283f919061451e565b60405180910390208961ffff167f5b821db8a46f8ecbe1941ba2f51cfeea9643268b56631f70d45e2a745d99026586604051612712919061453a565b603380546001600160a01b038381166001600160a01b0319831681179093556040519116919082907f8be0079c531659141344cd1fd0a4f28419497f9722a3daafe3b4186f6b6457e090600090a35050565b6000825b82518110156120dd5760fb545a10156128e9576120dd565b61290d8686858481518110612900576129006144ce565b6020026020010151613169565b80612917816144e4565b9150506128d1565b60608161292d81601f6144b6565b101561296c5760405162461bcd60e51b815260206004820152600e60248201526d736c6963655f6f766572666c6f7760901b6044820152606401610b21565b61297682846144b6565b845110156129ba5760405162461bcd60e51b8152602060048201526011602482015270736c6963655f6f75744f66426f756e647360781b6044820152606401610b21565b6060821580156129d95760405191506000825260208201604052612a23565b6040519150601f8416801560200281840101858101878315602002848b0101015b81831015612a125780518352602092830192016129fa565b5050858452601f01601f1916604052505b50949350505050565b816001600160a01b0316836001600160a01b03161415612a8e5760405162461bcd60e51b815260206004820152601960248201527f4552433732313a20617070726f766520746f2063616c6c6572000000000000006044820152606401610b21565b6001600160a01b0383811660008181526101326020908152604080832094871680845294825291829020805460ff191686151590811790915591519182527f17307eab39ab6107e8899845ad3d59bd9653f200f220920489ca2b5937696c31910160405180910390a3505050565b612b07848484612339565b612b13848484846131c9565b6116965760405162461bcd60e51b8152600401610b2190614566565b600054610100900460ff16612b565760405162461bcd60e51b8152600401610b21906145b8565b612b6084846132c4565b612b68613314565b612b7181613344565b6116968261338d565b606081612b9e5750506040805180820190915260018152600360fc1b602082015290565b8160005b8115612bc85780612bb2816144e4565b9150612bc19050600a83614619565b9150612ba2565b6000816001600160401b03811115612be257612be2613944565b6040519080825280601f01601f191660200182016040528015612c0c576020820181803683370190505b5090505b84156120e057612c21600183614283565b9150612c2e600a8661462d565b612c399060306144b6565b60f81b818381518110612c4e57612c4e6144ce565b60200101906001600160f81b031916908160001a905350612c70600a86614619565b9450612c10565b6000606060008060008661ffff166001600160401b03811115612c9c57612c9c613944565b6040519080825280601f01601f191660200182016040528015612cc6576020820181803683370190505b50905060008087516020890160008d8df191503d925086831115612ce8578692505b828152826000602083013e909890975095505050505050565b8180519060200120609760008761ffff1661ffff16815260200190815260200160002085604051612d32919061451e565b9081526040805191829003602090810183206001600160401b0388166000908152915220919091557fe183f33de2837795525b4792ca4cd60535bd77c53b7e7030060bfcf5734d6b0c90611a8b9087908790879087908790614641565b60006001600160e01b031982166322bac5d960e01b1480610cfb57506301ffc9a760e01b6001600160e01b0319831614610cfb565b600090815261012f60205260409020546001600160a01b0316151590565b612dec83836133b4565b612df960008484846131c9565b610f3a5760405162461bcd60e51b8152600401610b2190614566565b612e1e33611012565b612e815760405162461bcd60e51b815260206004820152602e60248201527f4f4e46543732313a2073656e642063616c6c6572206973206e6f74206f776e6560448201526d1c881b9bdc88185c1c1c9bdd995960921b6064820152608401610b21565b836001600160a01b0316612e94826111db565b6001600160a01b031614612ef55760405162461bcd60e51b815260206004820152602260248201527f4f4e46543732313a2073656e642066726f6d20696e636f7272656374206f776e60448201526132b960f11b6064820152608401610b21565b611696843083612339565b6000612f0b836134e9565b61ffff808716600090815260676020908152604080832093891683529290529081205491925090612f3d9084906144b6565b905060008111612f8f5760405162461bcd60e51b815260206004820152601a60248201527f4c7a4170703a206d696e4761734c696d6974206e6f74207365740000000000006044820152606401610b21565b808210156113105760405162461bcd60e51b815260206004820152601b60248201527f4c7a4170703a20676173206c696d697420697320746f6f206c6f7700000000006044820152606401610b21565b61ffff861660009081526066602052604081208054612ffd9061408e565b80601f01602080910402602001604051908101604052809291908181526020018280546130299061408e565b80156130765780601f1061304b57610100808354040283529160200191613076565b820191906000526020600020905b81548152906001019060200180831161305957829003601f168201915b505050505090508051600014156130e85760405162461bcd60e51b815260206004820152603060248201527f4c7a4170703a2064657374696e6174696f6e20636861696e206973206e6f742060448201526f61207472757374656420736f7572636560801b6064820152608401610b21565b6130f3878751613545565b60655460405162c5803160e81b81526001600160a01b039091169063c580310090849061312e908b9086908c908c908c908c90600401614693565b6000604051808303818588803b15801561314757600080fd5b505af115801561315b573d6000803e3d6000fd5b505050505050505050505050565b61317281612dc4565b158061319e575061318281612dc4565b801561319e575030613193826111db565b6001600160a01b0316145b6131a757600080fd5b6131b081612dc4565b6131be57610f3a8282612523565b610f3a308383612339565b60006001600160a01b0384163b156132bc57604051630a85bd0160e11b81526001600160a01b0385169063150b7a029061320d9033908990889088906004016146fa565b6020604051808303816000875af1925050508015613248575060408051601f3d908101601f1916820190925261324591810190614737565b60015b6132a2573d808015613276576040519150601f19603f3d011682016040523d82523d6000602084013e61327b565b606091505b50805161329a5760405162461bcd60e51b8152600401610b2190614566565b805181602001fd5b6001600160e01b031916630a85bd0160e11b1490506120e0565b5060016120e0565b600054610100900460ff166132eb5760405162461bcd60e51b8152600401610b21906145b8565b81516132ff9061012d9060208501906135b3565b508051610f3a9061012e9060208401906135b3565b600054610100900460ff1661333b5760405162461bcd60e51b8152600401610b21906145b8565b6113b13361287b565b600054610100900460ff1661336b5760405162461bcd60e51b8152600401610b21906145b8565b606580546001600160a01b0319166001600160a01b0392909216919091179055565b600054610100900460ff16610f475760405162461bcd60e51b8152600401610b21906145b8565b6001600160a01b03821661340a5760405162461bcd60e51b815260206004820181905260248201527f4552433732313a206d696e7420746f20746865207a65726f20616464726573736044820152606401610b21565b61341381612dc4565b156134605760405162461bcd60e51b815260206004820152601c60248201527f4552433732313a20746f6b656e20616c7265616479206d696e746564000000006044820152606401610b21565b6001600160a01b03821660009081526101306020526040812080546001929061348a9084906144b6565b9091555050600081815261012f602052604080822080546001600160a01b0319166001600160a01b03861690811790915590518392907fddf252ad1be2c89b69c2b068fc378daa952ba7f163c4a11628f55a4df523b3ef908290a45050565b600060228251101561353d5760405162461bcd60e51b815260206004820152601c60248201527f4c7a4170703a20696e76616c69642061646170746572506172616d73000000006044820152606401610b21565b506022015190565b61ffff82166000908152606860205260409020548061356357506127105b80821115610f3a5760405162461bcd60e51b815260206004820181905260248201527f4c7a4170703a207061796c6f61642073697a6520697320746f6f206c617267656044820152606401610b21565b8280546135bf9061408e565b90600052602060002090601f0160209004810192826135e15760008555613627565b82601f106135fa57805160ff1916838001178555613627565b82800160010185558215613627579182015b8281111561362757825182559160200191906001019061360c565b506136339291506136ab565b5090565b8280546136439061408e565b90600052602060002090601f0160209004810192826136655760008555613627565b82601f1061367e5782800160ff19823516178555613627565b82800160010185558215613627579182015b82811115613627578235825591602001919060010190613690565b5b8082111561363357600081556001016136ac565b803561ffff811681146136d257600080fd5b919050565b60008083601f8401126136e957600080fd5b5081356001600160401b0381111561370057600080fd5b60208301915083602082850101111561371857600080fd5b9250929050565b80356001600160401b03811681146136d257600080fd5b6000806000806000806080878903121561374f57600080fd5b613758876136c0565b955060208701356001600160401b038082111561377457600080fd5b6137808a838b016136d7565b909750955085915061379460408a0161371f565b945060608901359150808211156137aa57600080fd5b506137b789828a016136d7565b979a9699509497509295939492505050565b6001600160e01b03198116811461205057600080fd5b6000602082840312156137f157600080fd5b813561183f816137c9565b60005b838110156138175781810151838201526020016137ff565b838111156116965750506000910152565b600081518084526138408160208601602086016137fc565b601f01601f19169290920160200192915050565b60208152600061183f6020830184613828565b60006020828403121561387957600080fd5b61183f826136c0565b60006020828403121561389457600080fd5b5035919050565b6001600160a01b038116811461205057600080fd5b80356136d28161389b565b600080604083850312156138ce57600080fd5b82356138d98161389b565b946020939093013593505050565b600080604083850312156138fa57600080fd5b6138d9836136c0565b60008060006060848603121561391857600080fd5b83356139238161389b565b925060208401356139338161389b565b929592945050506040919091013590565b634e487b7160e01b600052604160045260246000fd5b604051601f8201601f191681016001600160401b038111828210171561398257613982613944565b604052919050565b60006001600160401b038211156139a3576139a3613944565b50601f01601f191660200190565b600082601f8301126139c257600080fd5b81356139d56139d08261398a565b61395a565b8181528460208386010111156139ea57600080fd5b816020850160208301376000918101602001919091529392505050565b803580151581146136d257600080fd5b600080600080600060a08688031215613a2f57600080fd5b613a38866136c0565b945060208601356001600160401b0380821115613a5457600080fd5b613a6089838a016139b1565b955060408801359450613a7560608901613a07565b93506080880135915080821115613a8b57600080fd5b50613a98888289016139b1565b9150509295509295909350565b600080600060408486031215613aba57600080fd5b613ac3846136c0565b925060208401356001600160401b03811115613ade57600080fd5b613aea868287016136d7565b9497909650939450505050565b600080600080600080600060e0888a031215613b1257600080fd5b8735613b1d8161389b565b9650613b2b602089016136c0565b955060408801356001600160401b0380821115613b4757600080fd5b613b538b838c016139b1565b965060608a0135955060808a01359150613b6c8261389b565b90935060a089013590613b7e8261389b565b90925060c08901359080821115613b9457600080fd5b50613ba18a828b016139b1565b91505092959891949750929550565b600080600060608486031215613bc557600080fd5b613bce846136c0565b925060208401356001600160401b03811115613be957600080fd5b613bf5868287016139b1565b925050613c046040850161371f565b90509250925092565b600060208284031215613c1f57600080fd5b813561183f8161389b565b60008060408385031215613c3d57600080fd5b613c46836136c0565b9150613c54602084016136c0565b90509250929050565b600060208284031215613c6f57600080fd5b81356001600160401b03811115613c8557600080fd5b6120e0848285016139b1565b60008060408385031215613ca457600080fd5b8235613caf8161389b565b9150613c5460208401613a07565b60006001600160401b03821115613cd657613cd6613944565b5060051b60200190565b600082601f830112613cf157600080fd5b81356020613d016139d083613cbd565b82815260059290921b84018101918181019086841115613d2057600080fd5b8286015b84811015613d3b5780358352918301918301613d24565b509695505050505050565b600080600080600080600060e0888a031215613d6157600080fd5b8735613d6c8161389b565b9650613d7a602089016136c0565b955060408801356001600160401b0380821115613d9657600080fd5b613da28b838c016139b1565b965060608a0135915080821115613db857600080fd5b613dc48b838c01613ce0565b955060808a01359150613dd68261389b565b819450613de560a08b016138b0565b935060c08a0135915080821115613b9457600080fd5b60008060008060808587031215613e1157600080fd5b8435613e1c8161389b565b93506020850135613e2c8161389b565b92506040850135915060608501356001600160401b03811115613e4e57600080fd5b613e5a878288016139b1565b91505092959194509250565b60008060008060808587031215613e7c57600080fd5b84356001600160401b0380821115613e9357600080fd5b613e9f888389016139b1565b95506020870135915080821115613eb557600080fd5b50613ec2878288016139b1565b935050604085013591506060850135613eda8161389b565b939692955090935050565b600080600080600060808688031215613efd57600080fd5b613f06866136c0565b9450613f14602087016136c0565b93506040860135925060608601356001600160401b03811115613f3657600080fd5b613f42888289016136d7565b969995985093965092949392505050565b600080600060608486031215613f6857600080fd5b613f71846136c0565b9250613f7f602085016136c0565b9150604084013590509250925092565b60008060408385031215613fa257600080fd5b8235613fad8161389b565b91506020830135613fbd8161389b565b809150509250929050565b600080600080600060a08688031215613fe057600080fd5b613fe9866136c0565b945060208601356001600160401b038082111561400557600080fd5b61401189838a016139b1565b9550604088013591508082111561402757600080fd5b61403389838a01613ce0565b9450613a7560608901613a07565b6000806000806080858703121561405757600080fd5b614060856136c0565b935061406e602086016136c0565b9250604085013561407e8161389b565b9396929550929360600135925050565b600181811c908216806140a257607f821691505b602082108114156140c357634e487b7160e01b600052602260045260246000fd5b50919050565b8183823760009101908152919050565b6020808252602e908201527f4552433732313a2063616c6c6572206973206e6f7420746f6b656e206f776e6560408201526d1c881b9bdc88185c1c1c9bdd995960921b606082015260800190565b81835281816020850137506000828201602090810191909152601f909101601f19169091010190565b61ffff841681526040602082015260006120dd604083018486614127565b600082601f83011261417f57600080fd5b815161418d6139d08261398a565b8181528460208386010111156141a257600080fd5b6120e08260208301602087016137fc565b600080604083850312156141c657600080fd5b82516001600160401b03808211156141dd57600080fd5b6141e98683870161416e565b935060209150818501518181111561420057600080fd5b85019050601f8101861361421357600080fd5b80516142216139d082613cbd565b81815260059190911b8201830190838101908883111561424057600080fd5b928401925b8284101561425e57835182529284019290840190614245565b80955050505050509250929050565b634e487b7160e01b600052601160045260246000fd5b6000828210156142955761429561426d565b500390565b8284823760609190911b6bffffffffffffffffffffffff19169101908152601401919050565b600083516142d28184602088016137fc565b8351908301906142e68183602088016137fc565b01949350505050565b600061ffff80881683528087166020840152508460408301526080606083015261431d608083018486614127565b979650505050505050565b61ffff86168152608060208201526000614346608083018688614127565b6001600160401b0394909416604083015250606001529392505050565b600081518084526020808501945080840160005b8381101561439357815187529582019590820190600101614377565b509495945050505050565b6040815260006143b16040830185613828565b82810360208401526143c38185614363565b95945050505050565b61ffff861681526001600160a01b038516602082015260a0604082018190526000906143fa90830186613828565b841515606084015282810360808401526144148185613828565b98975050505050505050565b6000806040838503121561443357600080fd5b505080516020909101519092909150565b60006020828403121561445657600080fd5b81516001600160401b0381111561446c57600080fd5b6120e08482850161416e565b61ffff851681526080602082015260006144956080830186613828565b6001600160401b0385166040840152828103606084015261431d8185613828565b600082198211156144c9576144c961426d565b500190565b634e487b7160e01b600052603260045260246000fd5b60006000198214156144f8576144f861426d565b5060010190565b60008160001904831182151516156145195761451961426d565b500290565b600082516145308184602087016137fc565b9190910192915050565b60208152600061183f6020830184614363565b8281526040602082015260006120e06040830184613828565b60208082526032908201527f4552433732313a207472616e7366657220746f206e6f6e20455243373231526560408201527131b2b4bb32b91034b6b83632b6b2b73a32b960711b606082015260800190565b6020808252602b908201527f496e697469616c697a61626c653a20636f6e7472616374206973206e6f74206960408201526a6e697469616c697a696e6760a81b606082015260800190565b634e487b7160e01b600052601260045260246000fd5b60008261462857614628614603565b500490565b60008261463c5761463c614603565b500690565b61ffff8616815260a06020820152600061465e60a0830187613828565b6001600160401b0386166040840152828103606084015261467f8186613828565b905082810360808401526144148185613828565b61ffff8716815260c0602082015260006146b060c0830188613828565b82810360408401526146c28188613828565b6001600160a01b0387811660608601528616608085015283810360a085015290506146ed8185613828565b9998505050505050505050565b6001600160a01b038581168252841660208201526040810183905260806060820181905260009061472d90830184613828565b9695505050505050565b60006020828403121561474957600080fd5b815161183f816137c956fea2646970667358221220ba4876231cff39c6b8f34b7321a508d086427df3e0393b7c057e4a294c31d6e064736f6c634300080c0033",
  "linkReferences": {},
  "deployedLinkReferences": {}
}