{
  "_format": "hh-sol-artifact-1",
  "contractName": "TreasuryFeeHandler",
  "sourceName": "contracts/uln/uln301/TreasuryFeeHandler.sol",
  "abi": [
    {
      "inputs": [
        {
          "internalType": "address",
          "name": "_lzToken",
          "type": "address"
        },
        {
          "internalType": "address",
          "name": "_sender",
          "type": "address"
        },
        {
          "internalType": "address",
          "name": "_lzTokenPaymentAddress",
          "type": "address"
        },
        {
          "internalType": "uint256",
          "name": "_required",
          "type": "uint256"
        },
        {
          "internalType": "uint256",
          "name": "_supplied",
          "type": "uint256"
        },
        {
          "internalType": "address",
          "name": "_treasury",
          "type": "address"
        }
      ],
      "name": "payFee",
      "outputs": [],
      "stateMutability": "nonpayable",
      "type": "function"
    }
  ],
  "bytecode": "0x608060405234801561001057600080fd5b506106e3806100206000396000f3fe608060405234801561001057600080fd5b506004361061002b5760003560e01c806367f8d2f214610030575b600080fd5b61004361003e36600461058d565b610045565b005b8473ffffffffffffffffffffffffffffffffffffffff168473ffffffffffffffffffffffffffffffffffffffff161480610094575073ffffffffffffffffffffffffffffffffffffffff841632145b6040518060400160405280600781526020017f4c5a3130303030000000000000000000000000000000000000000000000000008152509061010b576040517f08c379a00000000000000000000000000000000000000000000000000000000081526004016101029190610617565b60405180910390fd5b5060408051808201909152600781527f4c5a31303030330000000000000000000000000000000000000000000000000060208201528284111561017b576040517f08c379a00000000000000000000000000000000000000000000000000000000081526004016101029190610617565b5061019e73ffffffffffffffffffffffffffffffffffffffff87168583866101a6565b505050505050565b6040805173ffffffffffffffffffffffffffffffffffffffff85811660248301528416604482015260648082018490528251808303909101815260849091019091526020810180517bffffffffffffffffffffffffffffffffffffffffffffffffffffffff167f23b872dd0000000000000000000000000000000000000000000000000000000017905261023b908590610241565b50505050565b60006102a3826040518060400160405280602081526020017f5361666545524332303a206c6f772d6c6576656c2063616c6c206661696c65648152508573ffffffffffffffffffffffffffffffffffffffff166103559092919063ffffffff16565b90508051600014806102c45750808060200190518101906102c49190610668565b610350576040517f08c379a000000000000000000000000000000000000000000000000000000000815260206004820152602a60248201527f5361666545524332303a204552433230206f7065726174696f6e20646964206e60448201527f6f742073756363656564000000000000000000000000000000000000000000006064820152608401610102565b505050565b6060610364848460008561036c565b949350505050565b6060824710156103fe576040517f08c379a000000000000000000000000000000000000000000000000000000000815260206004820152602660248201527f416464726573733a20696e73756666696369656e742062616c616e636520666f60448201527f722063616c6c00000000000000000000000000000000000000000000000000006064820152608401610102565b6000808673ffffffffffffffffffffffffffffffffffffffff1685876040516104279190610691565b60006040518083038185875af1925050503d8060008114610464576040519150601f19603f3d011682016040523d82523d6000602084013e610469565b606091505b509150915061047a87838387610485565b979650505050505050565b6060831561051b5782516000036105145773ffffffffffffffffffffffffffffffffffffffff85163b610514576040517f08c379a000000000000000000000000000000000000000000000000000000000815260206004820152601d60248201527f416464726573733a2063616c6c20746f206e6f6e2d636f6e74726163740000006044820152606401610102565b5081610364565b61036483838151156105305781518083602001fd5b806040517f08c379a00000000000000000000000000000000000000000000000000000000081526004016101029190610617565b803573ffffffffffffffffffffffffffffffffffffffff8116811461058857600080fd5b919050565b60008060008060008060c087890312156105a657600080fd5b6105af87610564565b95506105bd60208801610564565b94506105cb60408801610564565b935060608701359250608087013591506105e760a08801610564565b90509295509295509295565b60005b8381101561060e5781810151838201526020016105f6565b50506000910152565b60208152600082518060208401526106368160408501602087016105f3565b601f017fffffffffffffffffffffffffffffffffffffffffffffffffffffffffffffffe0169190910160400192915050565b60006020828403121561067a57600080fd5b8151801515811461068a57600080fd5b9392505050565b600082516106a38184602087016105f3565b919091019291505056fea26469706673582212204b7286c5fd2b4fc56df90f4dc3258f322acb742a157f452e87da7514ad6c383864736f6c63430008130033",
  "linkReferences": {},
  "deployedLinkReferences": {}
}