{
  "address": "0xD499f5F7d3C918D0e553BA03954c4E02af16B6e4",
  "abi": [
    {
      "stateMutability": "nonpayable",
      "type": "fallback"
    },
    {
      "inputs": [
        {
          "internalType": "bytes4",
          "name": "interfaceId",
          "type": "bytes4"
        }
      ],
      "name": "supportsInterface",
      "outputs": [
        {
          "internalType": "bool",
          "name": "",
          "type": "bool"
        }
      ],
      "stateMutability": "view",
      "type": "function"
    },
    {
      "inputs": [],
      "name": "version",
      "outputs": [
        {
          "internalType": "uint64",
          "name": "major",
          "type": "uint64"
        },
        {
          "internalType": "uint8",
          "name": "minor",
          "type": "uint8"
        },
        {
          "internalType": "uint8",
          "name": "endpointVersion",
          "type": "uint8"
        }
      ],
      "stateMutability": "pure",
      "type": "function"
    }
  ],
  "transactionHash": "0xed50f6dd1e0105ef6bb5cda890153831fa829d7e9c6455000fcbfd4b9da0c1ac",
  "args": [],
  "numDeployments": 1,
  "solcInputHash": "0b0276ecf431cf7585fa4b31b150b06b",
  "bytecode": "0x608060405234801561001057600080fd5b50610277806100206000396000f3fe608060405234801561001057600080fd5b50600436106100365760003560e01c806301ffc9a7146100a457806354fd4d50146100cc575b604080518082018252600781527f4c5a433030303000000000000000000000000000000000000000000000000000602082015290517f08c379a000000000000000000000000000000000000000000000000000000000815261009b919060040161018c565b60405180910390fd5b6100b76100b23660046101f8565b6100f3565b60405190151581526020015b60405180910390f35b6040805167ffffffffffffffff815260ff60208201526002918101919091526060016100c3565b60007fffffffff0000000000000000000000000000000000000000000000000000000082167fd913d0cd00000000000000000000000000000000000000000000000000000000148061018657507f01ffc9a7000000000000000000000000000000000000000000000000000000007fffffffff000000000000000000000000000000000000000000000000000000008316145b92915050565b600060208083528351808285015260005b818110156101b95785810183015185820160400152820161019d565b5060006040828601015260407fffffffffffffffffffffffffffffffffffffffffffffffffffffffffffffffe0601f8301168501019250505092915050565b60006020828403121561020a57600080fd5b81357fffffffff000000000000000000000000000000000000000000000000000000008116811461023a57600080fd5b939250505056fea2646970667358221220819537c63e3b24acc77d1b5a05e8bab5044cd2d4b7b48ad8089599a7b8e7693564736f6c63430008130033",
  "devdoc": {
    "kind": "dev",
    "methods": {
      "supportsInterface(bytes4)": {
        "details": "See {IERC165-supportsInterface}."
      }
    },
    "version": 1
  },
  "userdoc": {
    "kind": "user",
    "methods": {},
    "version": 1
  },
  "storageLayout": {
    "storage": [],
    "types": null
  }
}