{
  "address": "0x23d351BA89eaAc4E328133Cb48e050064C219A1E",
  "abi": [
    {
      "inputs": [
        {
          "internalType": "address",
          "name": "_endpoint",
          "type": "address"
        },
        {
          "internalType": "address",
          "name": "_treasury",
          "type": "address"
        }
      ],
      "stateMutability": "nonpayable",
      "type": "constructor"
    },
    {
      "inputs": [
        {
          "internalType": "address",
          "name": "expected",
          "type": "address"
        },
        {
          "internalType": "address",
          "name": "actual",
          "type": "address"
        }
      ],
      "name": "InvalidEndpoint",
      "type": "error"
    },
    {
      "anonymous": false,
      "inputs": [
        {
          "indexed": true,
          "internalType": "address",
          "name": "previousOwner",
          "type": "address"
        },
        {
          "indexed": true,
          "internalType": "address",
          "name": "newOwner",
          "type": "address"
        }
      ],
      "name": "OwnershipTransferred",
      "type": "event"
    },
    {
      "stateMutability": "payable",
      "type": "fallback"
    },
    {
      "inputs": [],
      "name": "defaultOption",
      "outputs": [
        {
          "internalType": "bytes",
          "name": "",
          "type": "bytes"
        }
      ],
      "stateMutability": "view",
      "type": "function"
    },
    {
      "inputs": [],
      "name": "endpoint",
      "outputs": [
        {
          "internalType": "address",
          "name": "",
          "type": "address"
        }
      ],
      "stateMutability": "view",
      "type": "function"
    },
    {
      "inputs": [
        {
          "internalType": "uint32",
          "name": "",
          "type": "uint32"
        }
      ],
      "name": "isSupportedEid",
      "outputs": [
        {
          "internalType": "bool",
          "name": "",
          "type": "bool"
        }
      ],
      "stateMutability": "pure",
      "type": "function"
    },
    {
      "inputs": [],
      "name": "localEid",
      "outputs": [
        {
          "internalType": "uint32",
          "name": "",
          "type": "uint32"
        }
      ],
      "stateMutability": "view",
      "type": "function"
    },
    {
      "inputs": [],
      "name": "lzTokenFee",
      "outputs": [
        {
          "internalType": "uint256",
          "name": "",
          "type": "uint256"
        }
      ],
      "stateMutability": "view",
      "type": "function"
    },
    {
      "inputs": [],
      "name": "nativeFee",
      "outputs": [
        {
          "internalType": "uint256",
          "name": "",
          "type": "uint256"
        }
      ],
      "stateMutability": "view",
      "type": "function"
    },
    {
      "inputs": [],
      "name": "owner",
      "outputs": [
        {
          "internalType": "address",
          "name": "",
          "type": "address"
        }
      ],
      "stateMutability": "view",
      "type": "function"
    },
    {
      "inputs": [],
      "name": "packetVersion",
      "outputs": [
        {
          "internalType": "uint8",
          "name": "",
          "type": "uint8"
        }
      ],
      "stateMutability": "view",
      "type": "function"
    },
    {
      "inputs": [
        {
          "components": [
            {
              "internalType": "address",
              "name": "sender",
              "type": "address"
            },
            {
              "internalType": "uint32",
              "name": "dstEid",
              "type": "uint32"
            },
            {
              "internalType": "bytes",
              "name": "message",
              "type": "bytes"
            }
          ],
          "internalType": "struct IPacket.PacketForQuote",
          "name": "",
          "type": "tuple"
        },
        {
          "internalType": "bool",
          "name": "_payInLzToken",
          "type": "bool"
        },
        {
          "internalType": "bytes",
          "name": "",
          "type": "bytes"
        }
      ],
      "name": "quote",
      "outputs": [
        {
          "components": [
            {
              "internalType": "uint256",
              "name": "nativeFee",
              "type": "uint256"
            },
            {
              "internalType": "uint256",
              "name": "lzTokenFee",
              "type": "uint256"
            }
          ],
          "internalType": "struct ILayerZeroEndpointV2.MessagingFee",
          "name": "",
          "type": "tuple"
        }
      ],
      "stateMutability": "view",
      "type": "function"
    },
    {
      "inputs": [],
      "name": "renounceOwnership",
      "outputs": [],
      "stateMutability": "nonpayable",
      "type": "function"
    },
    {
      "inputs": [
        {
          "components": [
            {
              "internalType": "uint64",
              "name": "nonce",
              "type": "uint64"
            },
            {
              "internalType": "uint32",
              "name": "srcEid",
              "type": "uint32"
            },
            {
              "internalType": "address",
              "name": "sender",
              "type": "address"
            },
            {
              "internalType": "uint32",
              "name": "dstEid",
              "type": "uint32"
            },
            {
              "internalType": "bytes32",
              "name": "receiver",
              "type": "bytes32"
            },
            {
              "internalType": "bytes32",
              "name": "guid",
              "type": "bytes32"
            },
            {
              "internalType": "bytes",
              "name": "message",
              "type": "bytes"
            }
          ],
          "internalType": "struct IPacket.Packet",
          "name": "_packet",
          "type": "tuple"
        },
        {
          "internalType": "bytes",
          "name": "_options",
          "type": "bytes"
        },
        {
          "internalType": "bool",
          "name": "_payInLzToken",
          "type": "bool"
        }
      ],
      "name": "send",
      "outputs": [
        {
          "components": [
            {
              "internalType": "bytes32",
              "name": "guid",
              "type": "bytes32"
            },
            {
              "internalType": "uint64",
              "name": "nonce",
              "type": "uint64"
            },
            {
              "components": [
                {
                  "internalType": "uint256",
                  "name": "nativeFee",
                  "type": "uint256"
                },
                {
                  "internalType": "uint256",
                  "name": "lzTokenFee",
                  "type": "uint256"
                }
              ],
              "internalType": "struct ILayerZeroEndpointV2.MessagingFee",
              "name": "fee",
              "type": "tuple"
            }
          ],
          "internalType": "struct ILayerZeroEndpointV2.MessagingReceipt",
          "name": "receipt",
          "type": "tuple"
        },
        {
          "internalType": "bytes",
          "name": "encodedPacket",
          "type": "bytes"
        },
        {
          "internalType": "bytes",
          "name": "options",
          "type": "bytes"
        }
      ],
      "stateMutability": "nonpayable",
      "type": "function"
    },
    {
      "inputs": [
        {
          "internalType": "bytes",
          "name": "_defaultOption",
          "type": "bytes"
        }
      ],
      "name": "setDefaultOption",
      "outputs": [],
      "stateMutability": "nonpayable",
      "type": "function"
    },
    {
      "inputs": [
        {
          "internalType": "uint256",
          "name": "_nativeFee",
          "type": "uint256"
        },
        {
          "internalType": "uint256",
          "name": "_lzTokenFee",
          "type": "uint256"
        }
      ],
      "name": "setMessagingFee",
      "outputs": [],
      "stateMutability": "nonpayable",
      "type": "function"
    },
    {
      "inputs": [
        {
          "internalType": "address",
          "name": "_whitelistCaller",
          "type": "address"
        }
      ],
      "name": "setWhitelistCaller",
      "outputs": [],
      "stateMutability": "nonpayable",
      "type": "function"
    },
    {
      "inputs": [
        {
          "internalType": "bytes4",
          "name": "interfaceId",
          "type": "bytes4"
        }
      ],
      "name": "supportsInterface",
      "outputs": [
        {
          "internalType": "bool",
          "name": "",
          "type": "bool"
        }
      ],
      "stateMutability": "view",
      "type": "function"
    },
    {
      "inputs": [
        {
          "internalType": "address",
          "name": "newOwner",
          "type": "address"
        }
      ],
      "name": "transferOwnership",
      "outputs": [],
      "stateMutability": "nonpayable",
      "type": "function"
    },
    {
      "inputs": [],
      "name": "treasury",
      "outputs": [
        {
          "internalType": "address",
          "name": "",
          "type": "address"
        }
      ],
      "stateMutability": "view",
      "type": "function"
    },
    {
      "inputs": [
        {
          "internalType": "bytes",
          "name": "packetBytes",
          "type": "bytes"
        }
      ],
      "name": "validatePacket",
      "outputs": [],
      "stateMutability": "nonpayable",
      "type": "function"
    },
    {
      "inputs": [],
      "name": "version",
      "outputs": [
        {
          "internalType": "uint64",
          "name": "major",
          "type": "uint64"
        },
        {
          "internalType": "uint8",
          "name": "minor",
          "type": "uint8"
        },
        {
          "internalType": "uint8",
          "name": "endpointVersion",
          "type": "uint8"
        }
      ],
      "stateMutability": "pure",
      "type": "function"
    },
    {
      "inputs": [],
      "name": "whitelistCaller",
      "outputs": [
        {
          "internalType": "address",
          "name": "",
          "type": "address"
        }
      ],
      "stateMutability": "view",
      "type": "function"
    },
    {
      "inputs": [
        {
          "internalType": "address",
          "name": "_to",
          "type": "address"
        },
        {
          "internalType": "uint256",
          "name": "_amount",
          "type": "uint256"
        }
      ],
      "name": "withdrawFee",
      "outputs": [],
      "stateMutability": "nonpayable",
      "type": "function"
    },
    {
      "inputs": [
        {
          "internalType": "address",
          "name": "_to",
          "type": "address"
        },
        {
          "internalType": "uint256",
          "name": "_amount",
          "type": "uint256"
        }
      ],
      "name": "withdrawLzTokenFee",
      "outputs": [],
      "stateMutability": "nonpayable",
      "type": "function"
    },
    {
      "stateMutability": "payable",
      "type": "receive"
    }
  ],
  "transactionHash": "0xc2e6798153b07749d37e316bde2367f8563775af9e59881b286c5039faa2e988",
  "args": [
    "0xDadd1125B8Df98A66Abd5EB302C0d9Ca5A061dC2",
    "0x70997970C51812dc3A010C7d01b50e0d17dc79C8"
  ],
  "numDeployments": 1,
  "solcInputHash": "a0962aea9626180b1c1dd40eb482a600",
  "bytecode": "0x60e06040523480156200001157600080fd5b506040516200201b3803806200201b83398101604081905262000034916200013f565b6200003f33620000d2565b6001600160a01b03808316608081905290821660a0526040805163416ecebf60e01b8152905163416ecebf916004808201926020929091908290030181865afa15801562000091573d6000803e3d6000fd5b505050506040513d601f19601f82011682018060405250810190620000b7919062000177565b63ffffffff1660c052505060636002556064600355620001a6565b600080546001600160a01b038381166001600160a01b0319831681178455604051919092169283917f8be0079c531659141344cd1fd0a4f28419497f9722a3daafe3b4186f6b6457e09190a35050565b80516001600160a01b03811681146200013a57600080fd5b919050565b600080604083850312156200015357600080fd5b6200015e8362000122565b91506200016e6020840162000122565b90509250929050565b6000602082840312156200018a57600080fd5b815163ffffffff811681146200019f57600080fd5b9392505050565b60805160a05160c051611e29620001f26000396000610416015260006103ac0152600081816103780152818161075c015281816108b501528181610b640152610e4a0152611e296000f3fe6080604052600436106101795760003560e01c8063715018a6116100cb578063909532381161007f578063dabca06311610059578063dabca06314610514578063f2fde38b14610534578063fd9be5221461055457610180565b806390953238146104ba578063996f79c0146104de578063aec336e6146104f457610180565b806372d71322116100b057806372d713221461044d5780638da5cb5b1461046f5780638f58aa7a1461049a57610180565b8063715018a6146103ef578063726075371461040457610180565b8063334993ff1161012d5780635e280f11116101075780635e280f111461036657806361d027b31461039a5780636750cd4c146103ce57610180565b8063334993ff146102eb5780634389e58f1461030b57806354fd4d501461033a57610180565b806307d7b2f91161015e57806307d7b2f91461024a57806312cc947f146102775780631c7c294e1461029957610180565b806301ffc9a7146101ee5780630395b8da1461022357610180565b3661018057005b604080518082018252600781527f4c5a433030303000000000000000000000000000000000000000000000000000602082015290517f08c379a00000000000000000000000000000000000000000000000000000000081526101e59190600401611568565b60405180910390fd5b3480156101fa57600080fd5b5061020e61020936600461157b565b610574565b60405190151581526020015b60405180910390f35b34801561022f57600080fd5b50610238600181565b60405160ff909116815260200161021a565b34801561025657600080fd5b5061026a61026536600461160d565b61060d565b60405161021a9190611690565b34801561028357600080fd5b506102976102923660046116a7565b610651565b005b3480156102a557600080fd5b506001546102c69073ffffffffffffffffffffffffffffffffffffffff1681565b60405173ffffffffffffffffffffffffffffffffffffffff909116815260200161021a565b3480156102f757600080fd5b506102976103063660046116e9565b61085f565b34801561031757600080fd5b5061032b6103263660046117e5565b610872565b60405161021a93929190611865565b34801561034657600080fd5b50604080516000808252602082015260029181019190915260600161021a565b34801561037257600080fd5b506102c67f000000000000000000000000000000000000000000000000000000000000000081565b3480156103a657600080fd5b506102c67f000000000000000000000000000000000000000000000000000000000000000081565b3480156103da57600080fd5b5061020e6103e93660046118cc565b50600190565b3480156103fb57600080fd5b50610297610a33565b34801561041057600080fd5b506104387f000000000000000000000000000000000000000000000000000000000000000081565b60405163ffffffff909116815260200161021a565b34801561045957600080fd5b50610462610a47565b60405161021a9190611568565b34801561047b57600080fd5b5060005473ffffffffffffffffffffffffffffffffffffffff166102c6565b3480156104a657600080fd5b506102976104b5366004611914565b610ad5565b3480156104c657600080fd5b506104d060025481565b60405190815260200161021a565b3480156104ea57600080fd5b506104d060035481565b34801561050057600080fd5b5061029761050f366004611940565b610c9d565b34801561052057600080fd5b5061029761052f36600461195d565b610cec565b34801561054057600080fd5b5061029761054f366004611940565b610d04565b34801561056057600080fd5b5061029761056f366004611914565b610dbb565b60007fffffffff0000000000000000000000000000000000000000000000000000000082167fd913d0cd00000000000000000000000000000000000000000000000000000000148061060757507f01ffc9a7000000000000000000000000000000000000000000000000000000007fffffffff000000000000000000000000000000000000000000000000000000008316145b92915050565b60408051808201909152600080825260208201526040518060400160405280600354815260200185610640576000610644565b6002545b905290505b949350505050565b60015473ffffffffffffffffffffffffffffffffffffffff16158061068d575060015473ffffffffffffffffffffffffffffffffffffffff1633145b6040518060400160405280600781526020017f4c5a353030303000000000000000000000000000000000000000000000000000815250906106fb576040517f08c379a00000000000000000000000000000000000000000000000000000000081526004016101e59190611568565b50600060405180606001604052806107138585610f69565b63ffffffff1681526020016107288585610f8c565b81526020016107378585610fac565b67ffffffffffffffff169052905073ffffffffffffffffffffffffffffffffffffffff7f0000000000000000000000000000000000000000000000000000000000000000166345c6dcc48261078c8686610fcf565b6107968787610fe1565b6040516107a4929190611992565b6040805191829003822060e086901b7fffffffff00000000000000000000000000000000000000000000000000000000168352845163ffffffff1660048401526020850151602484015293015167ffffffffffffffff16604482015273ffffffffffffffffffffffffffffffffffffffff9091166064820152608481019190915260a401600060405180830381600087803b15801561084257600080fd5b505af1158015610856573d6000803e3d6000fd5b50505050505050565b610867610ffd565b600391909155600255565b61087a6114b2565b60408051808201909152600781527f4c5a353030303000000000000000000000000000000000000000000000000000602082015260609081907f000000000000000000000000000000000000000000000000000000000000000073ffffffffffffffffffffffffffffffffffffffff163314610923576040517f08c379a00000000000000000000000000000000000000000000000000000000081526004016101e59190611568565b5061092f60018761107e565b9150845160001461094057846109cc565b6004805461094d906119a2565b80601f0160208091040260200160405190810160405280929190818152602001828054610979906119a2565b80156109c65780601f1061099b576101008083540402835291602001916109c6565b820191906000526020600020905b8154815290600101906020018083116109a957829003601f168201915b50505050505b9050604080516060810190915260a087013581526020808201906109f2908901896119f5565b67ffffffffffffffff1681526020016040518060400160405280600354815260200187610a20576000610a24565b6002545b90529052969195509350915050565b610a3b610ffd565b610a456000611120565b565b60048054610a54906119a2565b80601f0160208091040260200160405190810160405280929190818152602001828054610a80906119a2565b8015610acd5780601f10610aa257610100808354040283529160200191610acd565b820191906000526020600020905b815481529060010190602001808311610ab057829003601f168201915b505050505081565b610add610ffd565b60408051808201909152600781527f4c5a313030303000000000000000000000000000000000000000000000000000602082015273ffffffffffffffffffffffffffffffffffffffff8316610b5f576040517f08c379a00000000000000000000000000000000000000000000000000000000081526004016101e59190611568565b5060007f000000000000000000000000000000000000000000000000000000000000000073ffffffffffffffffffffffffffffffffffffffff166307b9ca7c6040518163ffffffff1660e01b8152600401602060405180830381865afa158015610bcd573d6000803e3d6000fd5b505050506040513d601f19601f82011682018060405250810190610bf19190611a1f565b60408051808201909152600781527f4c5a443030303200000000000000000000000000000000000000000000000000602082015290915073ffffffffffffffffffffffffffffffffffffffff8216610c76576040517f08c379a00000000000000000000000000000000000000000000000000000000081526004016101e59190611568565b50610c9873ffffffffffffffffffffffffffffffffffffffff82168484611195565b505050565b610ca5610ffd565b600180547fffffffffffffffffffffffff00000000000000000000000000000000000000001673ffffffffffffffffffffffffffffffffffffffff92909216919091179055565b610cf4610ffd565b6004610d008282611a8a565b5050565b610d0c610ffd565b73ffffffffffffffffffffffffffffffffffffffff8116610daf576040517f08c379a000000000000000000000000000000000000000000000000000000000815260206004820152602660248201527f4f776e61626c653a206e6577206f776e657220697320746865207a65726f206160448201527f646472657373000000000000000000000000000000000000000000000000000060648201526084016101e5565b610db881611120565b50565b610dc3610ffd565b60408051808201909152600781527f4c5a313030303000000000000000000000000000000000000000000000000000602082015273ffffffffffffffffffffffffffffffffffffffff8316610e45576040517f08c379a00000000000000000000000000000000000000000000000000000000081526004016101e59190611568565b5060007f000000000000000000000000000000000000000000000000000000000000000073ffffffffffffffffffffffffffffffffffffffff1663f936112b6040518163ffffffff1660e01b8152600401602060405180830381865afa158015610eb3573d6000803e3d6000fd5b505050506040513d601f19601f82011682018060405250810190610ed79190611a1f565b905073ffffffffffffffffffffffffffffffffffffffff811615801590610f1e57610f1973ffffffffffffffffffffffffffffffffffffffff83168585611195565b610f63565b60405173ffffffffffffffffffffffffffffffffffffffff85169084156108fc029085906000818181858888f19350505050158015610f61573d6000803e3d6000fd5b505b50505050565b6000610f79600d60098486611ba4565b610f8291611bce565b60e01c9392505050565b6000610f9c602d600d8486611ba4565b610fa591611c16565b9392505050565b6000610fbc600960018486611ba4565b610fc591611c52565b60c01c9392505050565b6000610fa5610fde8484611222565b90565b366000610ff18360518187611ba4565b915091505b9250929050565b60005473ffffffffffffffffffffffffffffffffffffffff163314610a45576040517f08c379a000000000000000000000000000000000000000000000000000000000815260206004820181905260248201527f4f776e61626c653a2063616c6c6572206973206e6f7420746865206f776e657260448201526064016101e5565b60608261108e60208401846119f5565b61109e60408501602086016118cc565b6110ca6110b16060870160408801611940565b73ffffffffffffffffffffffffffffffffffffffff1690565b6110da60808701606088016118cc565b608087013560a08801356110f160c08a018a611c98565b60405160200161110999989796959493929190611cfd565b604051602081830303815290604052905092915050565b6000805473ffffffffffffffffffffffffffffffffffffffff8381167fffffffffffffffffffffffff0000000000000000000000000000000000000000831681178455604051919092169283917f8be0079c531659141344cd1fd0a4f28419497f9722a3daafe3b4186f6b6457e09190a35050565b6040805173ffffffffffffffffffffffffffffffffffffffff8416602482015260448082018490528251808303909101815260649091019091526020810180517bffffffffffffffffffffffffffffffffffffffffffffffffffffffff167fa9059cbb00000000000000000000000000000000000000000000000000000000179052610c98908490611232565b6000610f9c605160318486611ba4565b6000611294826040518060400160405280602081526020017f5361666545524332303a206c6f772d6c6576656c2063616c6c206661696c65648152508573ffffffffffffffffffffffffffffffffffffffff166113419092919063ffffffff16565b90508051600014806112b55750808060200190518101906112b59190611dba565b610c98576040517f08c379a000000000000000000000000000000000000000000000000000000000815260206004820152602a60248201527f5361666545524332303a204552433230206f7065726174696f6e20646964206e60448201527f6f7420737563636565640000000000000000000000000000000000000000000060648201526084016101e5565b60606106498484600085856000808673ffffffffffffffffffffffffffffffffffffffff1685876040516113759190611dd7565b60006040518083038185875af1925050503d80600081146113b2576040519150601f19603f3d011682016040523d82523d6000602084013e6113b7565b606091505b50915091506113c8878383876113d3565b979650505050505050565b606083156114695782516000036114625773ffffffffffffffffffffffffffffffffffffffff85163b611462576040517f08c379a000000000000000000000000000000000000000000000000000000000815260206004820152601d60248201527f416464726573733a2063616c6c20746f206e6f6e2d636f6e747261637400000060448201526064016101e5565b5081610649565b610649838381511561147e5781518083602001fd5b806040517f08c379a00000000000000000000000000000000000000000000000000000000081526004016101e59190611568565b604051806060016040528060008019168152602001600067ffffffffffffffff1681526020016114f5604051806040016040528060008152602001600081525090565b905290565b60005b838110156115155781810151838201526020016114fd565b50506000910152565b600081518084526115368160208601602086016114fa565b601f017fffffffffffffffffffffffffffffffffffffffffffffffffffffffffffffffe0169290920160200192915050565b602081526000610fa5602083018461151e565b60006020828403121561158d57600080fd5b81357fffffffff0000000000000000000000000000000000000000000000000000000081168114610fa557600080fd5b8015158114610db857600080fd5b60008083601f8401126115dd57600080fd5b50813567ffffffffffffffff8111156115f557600080fd5b602083019150836020828501011115610ff657600080fd5b6000806000806060858703121561162357600080fd5b843567ffffffffffffffff8082111561163b57600080fd5b908601906060828903121561164f57600080fd5b909450602086013590611661826115bd565b9093506040860135908082111561167757600080fd5b50611684878288016115cb565b95989497509550505050565b815181526020808301519082015260408101610607565b600080602083850312156116ba57600080fd5b823567ffffffffffffffff8111156116d157600080fd5b6116dd858286016115cb565b90969095509350505050565b600080604083850312156116fc57600080fd5b50508035926020909101359150565b7f4e487b7100000000000000000000000000000000000000000000000000000000600052604160045260246000fd5b600082601f83011261174b57600080fd5b813567ffffffffffffffff808211156117665761176661170b565b604051601f83017fffffffffffffffffffffffffffffffffffffffffffffffffffffffffffffffe0908116603f011681019082821181831017156117ac576117ac61170b565b816040528381528660208588010111156117c557600080fd5b836020870160208301376000602085830101528094505050505092915050565b6000806000606084860312156117fa57600080fd5b833567ffffffffffffffff8082111561181257600080fd5b9085019060e0828803121561182657600080fd5b9093506020850135908082111561183c57600080fd5b506118498682870161173a565b925050604084013561185a816115bd565b809150509250925092565b8351815267ffffffffffffffff60208501511660208201526000604085015161189b604084018280518252602090810151910152565b5060c060808301526118b060c083018561151e565b82810360a08401526118c2818561151e565b9695505050505050565b6000602082840312156118de57600080fd5b813563ffffffff81168114610fa557600080fd5b73ffffffffffffffffffffffffffffffffffffffff81168114610db857600080fd5b6000806040838503121561192757600080fd5b8235611932816118f2565b946020939093013593505050565b60006020828403121561195257600080fd5b8135610fa5816118f2565b60006020828403121561196f57600080fd5b813567ffffffffffffffff81111561198657600080fd5b6106498482850161173a565b8183823760009101908152919050565b600181811c908216806119b657607f821691505b6020821081036119ef577f4e487b7100000000000000000000000000000000000000000000000000000000600052602260045260246000fd5b50919050565b600060208284031215611a0757600080fd5b813567ffffffffffffffff81168114610fa557600080fd5b600060208284031215611a3157600080fd5b8151610fa5816118f2565b601f821115610c9857600081815260208120601f850160051c81016020861015611a635750805b601f850160051c820191505b81811015611a8257828155600101611a6f565b505050505050565b815167ffffffffffffffff811115611aa457611aa461170b565b611ab881611ab284546119a2565b84611a3c565b602080601f831160018114611b0b5760008415611ad55750858301515b7fffffffffffffffffffffffffffffffffffffffffffffffffffffffffffffffff600386901b1c1916600185901b178555611a82565b6000858152602081207fffffffffffffffffffffffffffffffffffffffffffffffffffffffffffffffe08616915b82811015611b5857888601518255948401946001909101908401611b39565b5085821015611b9457878501517fffffffffffffffffffffffffffffffffffffffffffffffffffffffffffffffff600388901b60f8161c191681555b5050505050600190811b01905550565b60008085851115611bb457600080fd5b83861115611bc157600080fd5b5050820193919092039150565b7fffffffff000000000000000000000000000000000000000000000000000000008135818116916004851015611c0e5780818660040360031b1b83161692505b505092915050565b80356020831015610607577fffffffffffffffffffffffffffffffffffffffffffffffffffffffffffffffff602084900360031b1b1692915050565b7fffffffffffffffff0000000000000000000000000000000000000000000000008135818116916008851015611c0e5760089490940360031b84901b1690921692915050565b60008083357fffffffffffffffffffffffffffffffffffffffffffffffffffffffffffffffe1843603018112611ccd57600080fd5b83018035915067ffffffffffffffff821115611ce857600080fd5b602001915036819003821315610ff657600080fd5b7fff000000000000000000000000000000000000000000000000000000000000008a60f81b1681527fffffffffffffffff0000000000000000000000000000000000000000000000008960c01b16600182015260007fffffffff00000000000000000000000000000000000000000000000000000000808a60e01b16600984015288600d840152808860e01b16602d8401525085603183015284605183015282846071840137506000910160710190815298975050505050505050565b600060208284031215611dcc57600080fd5b8151610fa5816115bd565b60008251611de98184602087016114fa565b919091019291505056fea26469706673582212206622e30ee743a28b3b8facd6a3df8b8bbea0c8f834397a2a61b80747dc87279f64736f6c63430008130033",
  "devdoc": {
    "kind": "dev",
    "methods": {
      "owner()": {
        "details": "Returns the address of the current owner."
      },
      "renounceOwnership()": {
        "details": "Leaves the contract without owner. It will not be possible to call `onlyOwner` functions. Can only be called by the current owner. NOTE: Renouncing ownership will leave the contract without an owner, thereby disabling any functionality that is only available to the owner."
      },
      "supportsInterface(bytes4)": {
        "details": "See {IERC165-supportsInterface}."
      },
      "transferOwnership(address)": {
        "details": "Transfers ownership of the contract to a new account (`newOwner`). Can only be called by the current owner."
      }
    },
    "version": 1
  },
  "userdoc": {
    "kind": "user",
    "methods": {},
    "version": 1
  },
  "storageLayout": {
    "storage": [
      {
        "astId": 7,
        "contract": "contracts/messagelib/SimpleMessageLib.sol:SimpleMessageLib",
        "label": "_owner",
        "offset": 0,
        "slot": "0",
        "type": "t_address"
      },
      {
        "astId": 4847,
        "contract": "contracts/messagelib/SimpleMessageLib.sol:SimpleMessageLib",
        "label": "whitelistCaller",
        "offset": 0,
        "slot": "1",
        "type": "t_address"
      },
      {
        "astId": 4849,
        "contract": "contracts/messagelib/SimpleMessageLib.sol:SimpleMessageLib",
        "label": "lzTokenFee",
        "offset": 0,
        "slot": "2",
        "type": "t_uint256"
      },
      {
        "astId": 4851,
        "contract": "contracts/messagelib/SimpleMessageLib.sol:SimpleMessageLib",
        "label": "nativeFee",
        "offset": 0,
        "slot": "3",
        "type": "t_uint256"
      },
      {
        "astId": 4853,
        "contract": "contracts/messagelib/SimpleMessageLib.sol:SimpleMessageLib",
        "label": "defaultOption",
        "offset": 0,
        "slot": "4",
        "type": "t_bytes_storage"
      }
    ],
    "types": {
      "t_address": {
        "encoding": "inplace",
        "label": "address",
        "numberOfBytes": "20"
      },
      "t_bytes_storage": {
        "encoding": "bytes",
        "label": "bytes",
        "numberOfBytes": "32"
      },
      "t_uint256": {
        "encoding": "inplace",
        "label": "uint256",
        "numberOfBytes": "32"
      }
    }
  }
}