{
  "address": "0x8990C5DAAA40673eF8826990A6Fd8284a0a17d61",
  "abi": [
    {
      "inputs": [
        {
          "internalType": "address",
          "name": "_endpoint",
          "type": "address"
        },
        {
          "internalType": "uint256",
          "name": "_treasuryGasCap",
          "type": "uint256"
        },
        {
          "internalType": "address",
          "name": "_nonceContract",
          "type": "address"
        },
        {
          "internalType": "uint32",
          "name": "_localEid",
          "type": "uint32"
        },
        {
          "internalType": "address",
          "name": "_treasuryFeeHandler",
          "type": "address"
        },
        {
          "internalType": "address",
          "name": "_ulnConfig",
          "type": "address"
        }
      ],
      "stateMutability": "nonpayable",
      "type": "constructor"
    },
    {
      "anonymous": false,
      "inputs": [
        {
          "indexed": false,
          "internalType": "address",
          "name": "executor",
          "type": "address"
        },
        {
          "indexed": false,
          "internalType": "uint256",
          "name": "fee",
          "type": "uint256"
        }
      ],
      "name": "ExecutorFeePaid",
      "type": "event"
    },
    {
      "anonymous": false,
      "inputs": [
        {
          "indexed": true,
          "internalType": "uint16",
          "name": "srcChainId",
          "type": "uint16"
        },
        {
          "indexed": false,
          "internalType": "bytes32",
          "name": "srcAddress",
          "type": "bytes32"
        },
        {
          "indexed": true,
          "internalType": "address",
          "name": "dstAddress",
          "type": "address"
        },
        {
          "indexed": false,
          "internalType": "uint64",
          "name": "nonce",
          "type": "uint64"
        },
        {
          "indexed": false,
          "internalType": "bytes32",
          "name": "payloadHash",
          "type": "bytes32"
        }
      ],
      "name": "InvalidDst",
      "type": "event"
    },
    {
      "anonymous": false,
      "inputs": [
        {
          "indexed": false,
          "internalType": "address",
          "name": "user",
          "type": "address"
        },
        {
          "indexed": false,
          "internalType": "address",
          "name": "receiver",
          "type": "address"
        },
        {
          "indexed": false,
          "internalType": "uint256",
          "name": "amount",
          "type": "uint256"
        }
      ],
      "name": "NativeFeeWithdrawn",
      "type": "event"
    },
    {
      "anonymous": false,
      "inputs": [
        {
          "indexed": true,
          "internalType": "address",
          "name": "previousOwner",
          "type": "address"
        },
        {
          "indexed": true,
          "internalType": "address",
          "name": "newOwner",
          "type": "address"
        }
      ],
      "name": "OwnershipTransferred",
      "type": "event"
    },
    {
      "anonymous": false,
      "inputs": [
        {
          "components": [
            {
              "internalType": "uint32",
              "name": "srcEid",
              "type": "uint32"
            },
            {
              "internalType": "bytes32",
              "name": "sender",
              "type": "bytes32"
            },
            {
              "internalType": "uint64",
              "name": "nonce",
              "type": "uint64"
            }
          ],
          "indexed": false,
          "internalType": "struct Origin",
          "name": "origin",
          "type": "tuple"
        },
        {
          "indexed": false,
          "internalType": "address",
          "name": "receiver",
          "type": "address"
        }
      ],
      "name": "PacketReceived",
      "type": "event"
    },
    {
      "anonymous": false,
      "inputs": [
        {
          "indexed": false,
          "internalType": "bytes",
          "name": "encodedPayload",
          "type": "bytes"
        },
        {
          "indexed": false,
          "internalType": "bytes",
          "name": "options",
          "type": "bytes"
        },
        {
          "indexed": false,
          "internalType": "uint256",
          "name": "nativeFee",
          "type": "uint256"
        },
        {
          "indexed": false,
          "internalType": "uint256",
          "name": "lzTokenFee",
          "type": "uint256"
        }
      ],
      "name": "PacketSent",
      "type": "event"
    },
    {
      "anonymous": false,
      "inputs": [
        {
          "indexed": false,
          "internalType": "address",
          "name": "verifier",
          "type": "address"
        },
        {
          "indexed": false,
          "internalType": "bytes",
          "name": "header",
          "type": "bytes"
        },
        {
          "indexed": false,
          "internalType": "uint256",
          "name": "confirmations",
          "type": "uint256"
        },
        {
          "indexed": false,
          "internalType": "bytes32",
          "name": "proofHash",
          "type": "bytes32"
        }
      ],
      "name": "PayloadSigned",
      "type": "event"
    },
    {
      "anonymous": false,
      "inputs": [
        {
          "indexed": false,
          "internalType": "address[]",
          "name": "verifiers",
          "type": "address[]"
        },
        {
          "indexed": false,
          "internalType": "address[]",
          "name": "optionalVerifiers",
          "type": "address[]"
        },
        {
          "indexed": false,
          "internalType": "uint256[]",
          "name": "fees",
          "type": "uint256[]"
        }
      ],
      "name": "VerifierFeePaid",
      "type": "event"
    },
    {
      "inputs": [
        {
          "internalType": "uint32",
          "name": "dstEid",
          "type": "uint32"
        }
      ],
      "name": "addressSizes",
      "outputs": [
        {
          "internalType": "uint256",
          "name": "size",
          "type": "uint256"
        }
      ],
      "stateMutability": "view",
      "type": "function"
    },
    {
      "inputs": [
        {
          "internalType": "uint32",
          "name": "dstEid",
          "type": "uint32"
        }
      ],
      "name": "defaultOptions",
      "outputs": [
        {
          "internalType": "bytes",
          "name": "option",
          "type": "bytes"
        }
      ],
      "stateMutability": "view",
      "type": "function"
    },
    {
      "inputs": [
        {
          "internalType": "bytes",
          "name": "_packet",
          "type": "bytes"
        },
        {
          "internalType": "uint256",
          "name": "_gasLimit",
          "type": "uint256"
        }
      ],
      "name": "deliver",
      "outputs": [],
      "stateMutability": "nonpayable",
      "type": "function"
    },
    {
      "inputs": [
        {
          "internalType": "bytes",
          "name": "_packetHeader",
          "type": "bytes"
        },
        {
          "internalType": "bytes32",
          "name": "_payloadHash",
          "type": "bytes32"
        }
      ],
      "name": "deliverable",
      "outputs": [
        {
          "internalType": "enum DeliveryState",
          "name": "",
          "type": "uint8"
        }
      ],
      "stateMutability": "view",
      "type": "function"
    },
    {
      "inputs": [
        {
          "internalType": "uint16",
          "name": "_dstEid",
          "type": "uint16"
        },
        {
          "internalType": "address",
          "name": "_sender",
          "type": "address"
        },
        {
          "internalType": "bytes",
          "name": "_message",
          "type": "bytes"
        },
        {
          "internalType": "bool",
          "name": "_payInLzToken",
          "type": "bool"
        },
        {
          "internalType": "bytes",
          "name": "_options",
          "type": "bytes"
        }
      ],
      "name": "estimateFees",
      "outputs": [
        {
          "internalType": "uint256",
          "name": "nativeFee",
          "type": "uint256"
        },
        {
          "internalType": "uint256",
          "name": "zroFee",
          "type": "uint256"
        }
      ],
      "stateMutability": "view",
      "type": "function"
    },
    {
      "inputs": [
        {
          "internalType": "address",
          "name": "worker",
          "type": "address"
        }
      ],
      "name": "fees",
      "outputs": [
        {
          "internalType": "uint256",
          "name": "",
          "type": "uint256"
        }
      ],
      "stateMutability": "view",
      "type": "function"
    },
    {
      "inputs": [
        {
          "internalType": "uint16",
          "name": "_eid",
          "type": "uint16"
        },
        {
          "internalType": "address",
          "name": "_oapp",
          "type": "address"
        },
        {
          "internalType": "uint256",
          "name": "_configType",
          "type": "uint256"
        }
      ],
      "name": "getConfig",
      "outputs": [
        {
          "internalType": "bytes",
          "name": "config",
          "type": "bytes"
        }
      ],
      "stateMutability": "view",
      "type": "function"
    },
    {
      "inputs": [
        {
          "internalType": "uint32",
          "name": "_eid",
          "type": "uint32"
        },
        {
          "internalType": "uint32",
          "name": "_configType",
          "type": "uint32"
        }
      ],
      "name": "getDefaultConfig",
      "outputs": [
        {
          "internalType": "bytes",
          "name": "",
          "type": "bytes"
        }
      ],
      "stateMutability": "view",
      "type": "function"
    },
    {
      "inputs": [
        {
          "internalType": "bytes32",
          "name": "headerHash",
          "type": "bytes32"
        },
        {
          "internalType": "bytes32",
          "name": "payloadHash",
          "type": "bytes32"
        },
        {
          "internalType": "address",
          "name": "verifier",
          "type": "address"
        }
      ],
      "name": "hashLookup",
      "outputs": [
        {
          "internalType": "uint64",
          "name": "confirmations",
          "type": "uint64"
        }
      ],
      "stateMutability": "view",
      "type": "function"
    },
    {
      "inputs": [],
      "name": "owner",
      "outputs": [
        {
          "internalType": "address",
          "name": "",
          "type": "address"
        }
      ],
      "stateMutability": "view",
      "type": "function"
    },
    {
      "inputs": [],
      "name": "renounceOwnership",
      "outputs": [],
      "stateMutability": "nonpayable",
      "type": "function"
    },
    {
      "inputs": [
        {
          "internalType": "address",
          "name": "_sender",
          "type": "address"
        },
        {
          "internalType": "uint64",
          "name": "",
          "type": "uint64"
        },
        {
          "internalType": "uint16",
          "name": "_dstEid",
          "type": "uint16"
        },
        {
          "internalType": "bytes",
          "name": "_path",
          "type": "bytes"
        },
        {
          "internalType": "bytes",
          "name": "_message",
          "type": "bytes"
        },
        {
          "internalType": "address payable",
          "name": "_refundAddress",
          "type": "address"
        },
        {
          "internalType": "address",
          "name": "_lzTokenPaymentAddress",
          "type": "address"
        },
        {
          "internalType": "bytes",
          "name": "_options",
          "type": "bytes"
        }
      ],
      "name": "send",
      "outputs": [],
      "stateMutability": "payable",
      "type": "function"
    },
    {
      "inputs": [
        {
          "internalType": "uint16",
          "name": "_eid",
          "type": "uint16"
        },
        {
          "internalType": "uint256",
          "name": "_size",
          "type": "uint256"
        }
      ],
      "name": "setAddressSize",
      "outputs": [],
      "stateMutability": "nonpayable",
      "type": "function"
    },
    {
      "inputs": [
        {
          "internalType": "uint16",
          "name": "_eid",
          "type": "uint16"
        },
        {
          "internalType": "address",
          "name": "_oapp",
          "type": "address"
        },
        {
          "internalType": "uint256",
          "name": "_configType",
          "type": "uint256"
        },
        {
          "internalType": "bytes",
          "name": "_config",
          "type": "bytes"
        }
      ],
      "name": "setConfig",
      "outputs": [],
      "stateMutability": "nonpayable",
      "type": "function"
    },
    {
      "inputs": [
        {
          "internalType": "uint32",
          "name": "_dstEid",
          "type": "uint32"
        },
        {
          "internalType": "bytes",
          "name": "_options",
          "type": "bytes"
        }
      ],
      "name": "setDefaultOptions",
      "outputs": [],
      "stateMutability": "nonpayable",
      "type": "function"
    },
    {
      "inputs": [
        {
          "internalType": "address",
          "name": "_layerZeroToken",
          "type": "address"
        }
      ],
      "name": "setLayerZeroToken",
      "outputs": [],
      "stateMutability": "nonpayable",
      "type": "function"
    },
    {
      "inputs": [
        {
          "internalType": "address",
          "name": "_treasury",
          "type": "address"
        }
      ],
      "name": "setTreasury",
      "outputs": [],
      "stateMutability": "nonpayable",
      "type": "function"
    },
    {
      "inputs": [
        {
          "internalType": "address",
          "name": "newOwner",
          "type": "address"
        }
      ],
      "name": "transferOwnership",
      "outputs": [],
      "stateMutability": "nonpayable",
      "type": "function"
    },
    {
      "inputs": [],
      "name": "treasury",
      "outputs": [
        {
          "internalType": "address",
          "name": "",
          "type": "address"
        }
      ],
      "stateMutability": "view",
      "type": "function"
    },
    {
      "inputs": [
        {
          "internalType": "address",
          "name": "_verifier",
          "type": "address"
        },
        {
          "internalType": "bytes32",
          "name": "_headerHash",
          "type": "bytes32"
        },
        {
          "internalType": "bytes32",
          "name": "_payloadHash",
          "type": "bytes32"
        },
        {
          "internalType": "uint64",
          "name": "_requiredConfirmation",
          "type": "uint64"
        }
      ],
      "name": "verified",
      "outputs": [
        {
          "internalType": "bool",
          "name": "",
          "type": "bool"
        }
      ],
      "stateMutability": "view",
      "type": "function"
    },
    {
      "inputs": [
        {
          "internalType": "bytes",
          "name": "_packetHeader",
          "type": "bytes"
        },
        {
          "internalType": "bytes32",
          "name": "_payloadHash",
          "type": "bytes32"
        },
        {
          "internalType": "uint64",
          "name": "_confirmations",
          "type": "uint64"
        }
      ],
      "name": "verify",
      "outputs": [],
      "stateMutability": "nonpayable",
      "type": "function"
    },
    {
      "inputs": [
        {
          "components": [
            {
              "internalType": "uint64",
              "name": "inboundConfirmations",
              "type": "uint64"
            },
            {
              "internalType": "bool",
              "name": "useCustomVerifiers",
              "type": "bool"
            },
            {
              "internalType": "bool",
              "name": "useCustomOptionalVerifiers",
              "type": "bool"
            },
            {
              "internalType": "uint8",
              "name": "verifierCount",
              "type": "uint8"
            },
            {
              "internalType": "uint8",
              "name": "optionalVerifierCount",
              "type": "uint8"
            },
            {
              "internalType": "uint8",
              "name": "optionalVerifierThreshold",
              "type": "uint8"
            },
            {
              "internalType": "address[]",
              "name": "verifiers",
              "type": "address[]"
            },
            {
              "internalType": "address[]",
              "name": "optionalVerifiers",
              "type": "address[]"
            }
          ],
          "internalType": "struct UlnConfigStruct",
          "name": "_config",
          "type": "tuple"
        },
        {
          "internalType": "bytes32",
          "name": "_headerHash",
          "type": "bytes32"
        },
        {
          "internalType": "bytes32",
          "name": "_payloadHash",
          "type": "bytes32"
        }
      ],
      "name": "verifyConditionMet",
      "outputs": [
        {
          "internalType": "bool",
          "name": "",
          "type": "bool"
        }
      ],
      "stateMutability": "view",
      "type": "function"
    },
    {
      "inputs": [],
      "name": "version",
      "outputs": [
        {
          "internalType": "uint64",
          "name": "major",
          "type": "uint64"
        },
        {
          "internalType": "uint8",
          "name": "minor",
          "type": "uint8"
        },
        {
          "internalType": "uint8",
          "name": "endpointVersion",
          "type": "uint8"
        }
      ],
      "stateMutability": "pure",
      "type": "function"
    },
    {
      "inputs": [
        {
          "internalType": "address",
          "name": "_to",
          "type": "address"
        },
        {
          "internalType": "uint256",
          "name": "_amount",
          "type": "uint256"
        }
      ],
      "name": "withdrawFee",
      "outputs": [],
      "stateMutability": "nonpayable",
      "type": "function"
    }
  ],
  "transactionHash": "0xfc5f40ebf7cb6448ae6880c0406dddc8bdb6809ede6994b054df67f8c6d07e10",
  "args": [
    "0x0000000000000000000000000000000000000001",
    100000,
    "0xbe241D1B7b54bF06742cefd45A3440C6562f7603",
    20106,
    "0xA82ED5224ba72f2f776e09B11DC99E30Ee65Da8d",
    "0x17C8b71E5eE01A726766c99d397D619219C8CAF3"
  ],
  "numDeployments": 1,
  "solcInputHash": "5ca99727c7fedfa1f4b820c3cc1e8e86",
  "bytecode": "0x6101606040523480156200001257600080fd5b5060405162005a0b38038062005a0b833981016040819052620000359162000109565b6001600160a01b038116608052856001868686868582868662000058336200009a565b6001600160a01b0393841660a05263ffffffff90921660c05260ff1660e052610100529283166101205290911661014052506200018b98505050505050505050565b600180546001600160a01b038381166001600160a01b0319831681179093556040519116919082907f8be0079c531659141344cd1fd0a4f28419497f9722a3daafe3b4186f6b6457e090600090a35050565b80516001600160a01b03811681146200010457600080fd5b919050565b60008060008060008060c087890312156200012357600080fd5b6200012e87620000ec565b9550602087015194506200014560408801620000ec565b9350606087015163ffffffff811681146200015f57600080fd5b92506200016f60808801620000ec565b91506200017f60a08801620000ec565b90509295509295509295565b60805160a05160c05160e0516101005161012051610140516157d16200023a6000396000611639015260006123b7015260006122cb01526000818161140801526118570152600081816118de0152818161245401526125520152600081816105dd015281816110bb01528181611b100152611ca50152600081816107f60152818161093c01528181610ad901528181610d030152818161114d015281816129680152612c3801526157d16000f3fe60806040526004361061018b5760003560e01c8063715018a6116100d6578063e9817f341161007f578063f8e1734c11610059578063f8e1734c14610503578063faaebd2114610523578063fd9be5221461055057600080fd5b8063e9817f34146104a3578063f0f44260146104c3578063f2fde38b146104e357600080fd5b8063a5972ec5116100b0578063a5972ec514610433578063c773417314610463578063df1e309f1461048357600080fd5b8063715018a6146103c65780637c0cf763146103db5780638da5cb5b1461040857600080fd5b806352d3b5001161013857806361d027b31161011257806361d027b314610334578063690c6555146103865780636d26e5d0146103a657600080fd5b806352d3b500146102c757806354fd4d50146102e757806356fe19be1461031457600080fd5b806340a7bb101161016957806340a7bb10146102525780634d3a0f7c1461028757806352d2871f1461029a57600080fd5b80630223536e146101905780630f8355c0146101b25780633c782a52146101f2575b600080fd5b34801561019c57600080fd5b506101b06101ab366004614257565b610570565b005b3480156101be57600080fd5b506101df6101cd3660046142c8565b60066020526000908152604090205481565b6040519081526020015b60405180910390f35b3480156101fe57600080fd5b5061023961020d366004614312565b6000602081815293815260408082208552928152828120909352825290205467ffffffffffffffff1681565b60405167ffffffffffffffff90911681526020016101e9565b34801561025e57600080fd5b5061027261026d366004614376565b610582565b604080519283526020830191909152016101e9565b6101b061029536600461441e565b6105a7565b3480156102a657600080fd5b506102ba6102b5366004614512565b610798565b6040516101e991906145a1565b3480156102d357600080fd5b506101b06102e23660046145b4565b610870565b3480156102f357600080fd5b506040805160038152600060208201526001918101919091526060016101e9565b34801561032057600080fd5b506101b061032f3660046145d1565b6108bf565b34801561034057600080fd5b506002546103619073ffffffffffffffffffffffffffffffffffffffff1681565b60405173ffffffffffffffffffffffffffffffffffffffff90911681526020016101e9565b34801561039257600080fd5b506102ba6103a136600461461d565b610a9a565b3480156103b257600080fd5b506101b06103c1366004614656565b610b66565b3480156103d257600080fd5b506101b0610c4a565b3480156103e757600080fd5b506103fb6103f63660046145d1565b610c5e565b6040516101e991906146af565b34801561041457600080fd5b5060015473ffffffffffffffffffffffffffffffffffffffff16610361565b34801561043f57600080fd5b5061045361044e36600461482c565b610d90565b60405190151581526020016101e9565b34801561046f57600080fd5b5061045361047e366004614935565b610e88565b34801561048f57600080fd5b506101b061049e366004614974565b610ed7565b3480156104af57600080fd5b506102ba6104be3660046142c8565b610eff565b3480156104cf57600080fd5b506101b06104de3660046145b4565b610f99565b3480156104ef57600080fd5b506101b06104fe3660046145b4565b610fe8565b34801561050f57600080fd5b506101b061051e3660046149c9565b611085565b34801561052f57600080fd5b506101df61053e3660046145b4565b60046020526000908152604090205481565b34801561055c57600080fd5b506101b061056b366004614a3a565b6111c3565b61057c84848484611231565b50505050565b6000806105978861ffff8b16888888886112ef565b9150915097509795505050505050565b60408051808201909152600781527f4c5a35303030300000000000000000000000000000000000000000000000000060208201527f000000000000000000000000000000000000000000000000000000000000000073ffffffffffffffffffffffffffffffffffffffff16331461063a5760405162461bcd60e51b815260040161063191906145a1565b60405180910390fd5b5060008060006106508e8d8d8d8d8d8b8b6113ed565b9194509250905061ffff8c168e600073ffffffffffffffffffffffffffffffffffffffff89161580159061069b575060055473ffffffffffffffffffffffffffffffffffffffff1615155b90506000806106ac848688866114b0565b90925090506106bb8287614a87565b9550348611156040518060400160405280600781526020017f4c5a313030303300000000000000000000000000000000000000000000000000815250906107155760405162461bcd60e51b815260040161063191906145a1565b5060006107228734614a9a565b90508015610734576107348d82611510565b811561074557610745858d846115c8565b7f3dc6f2ede34d1db05729bbb76e5efd17ec1bc83f98f665e7fba0596dca438b96888a898560405161077a9493929190614aad565b60405180910390a15050505050505050505050505050505050505050565b6040517f8fd061fc00000000000000000000000000000000000000000000000000000000815261ffff8416600482015273ffffffffffffffffffffffffffffffffffffffff838116602483015263ffffffff831660448301526060917f000000000000000000000000000000000000000000000000000000000000000090911690638fd061fc90606401600060405180830381865afa15801561083f573d6000803e3d6000fd5b505050506040513d6000823e601f3d908101601f191682016040526108679190810190614b55565b50949350505050565b61087861169c565b600580547fffffffffffffffffffffffff00000000000000000000000000000000000000001673ffffffffffffffffffffffffffffffffffffffff92909216919091179055565b60006108cb8484611703565b905060006108e76108dc8686611715565b63ffffffff16611738565b6040517f43ea4fa900000000000000000000000000000000000000000000000000000000815273ffffffffffffffffffffffffffffffffffffffff848116600483015261ffff831660248301529192506000917f000000000000000000000000000000000000000000000000000000000000000016906343ea4fa990604401600060405180830381865afa158015610983573d6000803e3d6000fd5b505050506040513d6000823e601f3d908101601f191682016040526109ab9190810190614cec565b905060026109cc826109bd89896117b6565b6109c78b8b6117d2565b6117fc565b60038111156109dd576109dd614680565b146040518060400160405280600781526020017f4c5a31303030300000000000000000000000000000000000000000000000000081525090610a325760405162461bcd60e51b815260040161063191906145a1565b50610a9282610a4188886119a9565b85610a4c8a8a6119c2565b610a568b8b6119e5565b8080601f0160208091040260200160405190810160405280939291908181526020018383808284376000920191909152508c92506119f5915050565b505050505050565b6040517f560042df00000000000000000000000000000000000000000000000000000000815263ffffffff8084166004830152821660248201526060907f000000000000000000000000000000000000000000000000000000000000000073ffffffffffffffffffffffffffffffffffffffff169063560042df90604401600060405180830381865afa158015610b35573d6000803e3d6000fd5b505050506040513d6000823e601f3d908101601f19168201604052610b5d9190810190614d21565b90505b92915050565b610b6e61169c565b60208111156040518060400160405280600781526020017f4c5a31303030390000000000000000000000000000000000000000000000000081525090610bc75760405162461bcd60e51b815260040161063191906145a1565b5061ffff8216600090815260066020908152604091829020548251808401909352600783527f4c5a3830303030000000000000000000000000000000000000000000000000009183019190915215610c325760405162461bcd60e51b815260040161063191906145a1565b5061ffff909116600090815260066020526040902055565b610c5261169c565b610c5c6000611c18565b565b600080610c6b8585611703565b90506000610c7c6108dc8787611715565b90506000610c8c82848989611c8f565b90506001816003811115610ca257610ca2614680565b14610cb1579250610d89915050565b6040517f43ea4fa900000000000000000000000000000000000000000000000000000000815273ffffffffffffffffffffffffffffffffffffffff848116600483015261ffff841660248301526000917f0000000000000000000000000000000000000000000000000000000000000000909116906343ea4fa990604401600060405180830381865afa158015610d4c573d6000803e3d6000fd5b505050506040513d6000823e601f3d908101601f19168201604052610d749190810190614cec565b9050610d82818989896117fc565b9450505050505b9392505050565b8251600090815b856060015160ff16811015610de657610dcf8660c001518281518110610dbf57610dbf614d56565b6020026020010151868685610e88565b610dde57600092505050610d89565b600101610d97565b506000856060015160ff16118015610e035750608085015160ff16155b15610e12576001915050610d89565b6000805b866080015160ff16811015610e7b57610e4e8760e001518281518110610e3e57610e3e614d56565b6020026020010151878786610e88565b15610e73578160010191508660a0015160ff168210610e735760019350505050610d89565b600101610e16565b5060009695505050505050565b600083815260208181526040808320858452825280832073ffffffffffffffffffffffffffffffffffffffff8816845290915290205467ffffffffffffffff828116911610155b949350505050565b610edf61169c565b63ffffffff8316600090815260036020526040902061057c828483614e1e565b60036020526000908152604090208054610f1890614d85565b80601f0160208091040260200160405190810160405280929190818152602001828054610f4490614d85565b8015610f915780601f10610f6657610100808354040283529160200191610f91565b820191906000526020600020905b815481529060010190602001808311610f7457829003601f168201915b505050505081565b610fa161169c565b600280547fffffffffffffffffffffffff00000000000000000000000000000000000000001673ffffffffffffffffffffffffffffffffffffffff92909216919091179055565b610ff061169c565b73ffffffffffffffffffffffffffffffffffffffff81166110795760405162461bcd60e51b815260206004820152602660248201527f4f776e61626c653a206e6577206f776e657220697320746865207a65726f206160448201527f64647265737300000000000000000000000000000000000000000000000000006064820152608401610631565b61108281611c18565b50565b60408051808201909152600781527f4c5a35303030300000000000000000000000000000000000000000000000000060208201527f000000000000000000000000000000000000000000000000000000000000000073ffffffffffffffffffffffffffffffffffffffff16331461110f5760405162461bcd60e51b815260040161063191906145a1565b506040517fd59104ed00000000000000000000000000000000000000000000000000000000815273ffffffffffffffffffffffffffffffffffffffff7f0000000000000000000000000000000000000000000000000000000000000000169063d59104ed9061118a9088908890889088908890600401614f46565b600060405180830381600087803b1580156111a457600080fd5b505af11580156111b8573d6000803e3d6000fd5b505050505050505050565b6111cd8282611fb2565b6111d78282611510565b6040805133815273ffffffffffffffffffffffffffffffffffffffff841660208201529081018290527f820b7fd51bf79c54350bab98400651b3314ff6e79b33528821871d94a66698839060600160405180910390a15050565b806000808686604051611245929190614f97565b604080519182900390912082526020808301939093529081016000908120868252835281812033808352935281902080547fffffffffffffffffffffffffffffffffffffffffffffffff00000000000000001667ffffffffffffffff949094169390931790925590517fd57606ee258836ec1b40f83a128d2b514581eaf4f71801fbed3bc94b5358ecc0916112e1918790879086908890614fa7565b60405180910390a150505050565b600080600080611300898787612063565b925092505060008060006113158d8d8661216e565b9250925092506113258b8261218d565b8173ffffffffffffffffffffffffffffffffffffffff1663709eb6648d8f8e896040518563ffffffff1660e01b81526004016113649493929190614ff5565b602060405180830381865afa158015611381573d6000803e3d6000fd5b505050506040513d601f19601f820116820180604052508101906113a59190615040565b6113af9084614a87565b92506000806113c08f8f878f6121e7565b909250905081156113d8576113d58286614a87565b94505b939e939d50929b505050505050505050505050565b6060806000806114018c8c8c8c8c8c612323565b905061142d7f0000000000000000000000000000000000000000000000000000000000000000826125fb565b925060608061144183606001518989612063565b91975092509050600080806114568685612660565b919450925090506114678388614a87565b60c08701515190975061147a818361218d565b61148f8388606001518960400151848a612687565b6114999089614a87565b975050505050505050985098509895505050505050565b6000806114bf868686866121e7565b909250905081156115075760025473ffffffffffffffffffffffffffffffffffffffff1660009081526004602052604081208054849290611501908490614a87565b90915550505b94509492505050565b60008273ffffffffffffffffffffffffffffffffffffffff168260405160006040518083038185875af1925050503d806000811461156a576040519150601f19603f3d011682016040523d82523d6000602084013e61156f565b606091505b50509050806040518060400160405280600781526020017f4c5a3330303030000000000000000000000000000000000000000000000000008152509061057c5760405162461bcd60e51b815260040161063191906145a1565b6005546002546040517f67f8d2f200000000000000000000000000000000000000000000000000000000815273ffffffffffffffffffffffffffffffffffffffff928316600482015285831660248201528483166044820152606481018490526084810184905290821660a48201527f0000000000000000000000000000000000000000000000000000000000000000909116906367f8d2f29060c401600060405180830381600087803b15801561167f57600080fd5b505af1158015611693573d6000803e3d6000fd5b50505050505050565b60015473ffffffffffffffffffffffffffffffffffffffff163314610c5c5760405162461bcd60e51b815260206004820181905260248201527f4f776e61626c653a2063616c6c6572206973206e6f7420746865206f776e65726044820152606401610631565b6000610b5d61171284846127c0565b90565b6000611725600d60098486615059565b61172e91615083565b60e01c9392505050565b600061ffff8211156117b25760405162461bcd60e51b815260206004820152602660248201527f53616665436173743a2076616c756520646f65736e27742066697420696e203160448201527f36206269747300000000000000000000000000000000000000000000000000006064820152608401610631565b5090565b3660006117c66051828587615059565b915091505b9250929050565b60006117de83836127d0565b6040516117ec929190614f97565b6040518091039020905092915050565b60408051808201909152600781527f4c5a3130303039000000000000000000000000000000000000000000000000006020820152600090605184146118545760405162461bcd60e51b815260040161063191906145a1565b507f000000000000000000000000000000000000000000000000000000000000000060ff1661188385856127e0565b60ff16146040518060400160405280600781526020017f4c5a313030303700000000000000000000000000000000000000000000000000815250906118db5760405162461bcd60e51b815260040161063191906145a1565b507f000000000000000000000000000000000000000000000000000000000000000063ffffffff1661190d8585612802565b63ffffffff16146040518060400160405280600781526020017f4c5a313030303800000000000000000000000000000000000000000000000000815250906119685760405162461bcd60e51b815260040161063191906145a1565b50600061198d86868660405161197f929190614f97565b604051809103902085610d90565b9050801561199f576002915050610ecf565b6000915050610ecf565b60006119b9602d600d8486615059565b610b5d916150cb565b60006119d2600960018486615059565b6119db91615107565b60c01c9392505050565b3660006117c68360718187615059565b8373ffffffffffffffffffffffffffffffffffffffff163b600003611a92578373ffffffffffffffffffffffffffffffffffffffff168661ffff167feca5e9e3d49c3ee9d9362efa82baa91c668a7f032b3a403638ae65e27368013687868680519060200120604051611a859392919092835267ffffffffffffffff919091166020830152604082015260600190565b60405180910390a3610a92565b61ffff8616600090815260066020526040812054611ab1908790612812565b85604051602001611ac392919061514d565b60408051601f19818403018152908290527fc2fa4813000000000000000000000000000000000000000000000000000000008252915073ffffffffffffffffffffffffffffffffffffffff7f0000000000000000000000000000000000000000000000000000000000000000169063c2fa481390611b4f908a9085908a908a9089908b90600401615197565b600060405180830381600087803b158015611b6957600080fd5b505af1158015611b7d573d6000803e3d6000fd5b5050604080516060808201835261ffff8c1680835260208084018d815267ffffffffffffffff8c8116868801908152875194855291519284019290925251169381019390935273ffffffffffffffffffffffffffffffffffffffff8a169083015292507f2d05fd3bd2a2620dfaf6174f2083d54fbfd9106a4ee93c81238ea5a5f731aede915060800160405180910390a15050505050505050565b6001805473ffffffffffffffffffffffffffffffffffffffff8381167fffffffffffffffffffffffff0000000000000000000000000000000000000000831681179093556040519116919082907f8be0079c531659141344cd1fd0a4f28419497f9722a3daafe3b4186f6b6457e090600090a35050565b61ffff84166000908152600660205260408120547f0000000000000000000000000000000000000000000000000000000000000000908290611cdb90611cd587876119a9565b90612812565b905060008187604051602001611cf292919061514d565b60405160208183030381529060405290506000611d0f87876119c2565b6040517f71ba2fd600000000000000000000000000000000000000000000000000000000815273ffffffffffffffffffffffffffffffffffffffff8a8116600483015291925030918616906371ba2fd690602401602060405180830381865afa158015611d80573d6000803e3d6000fd5b505050506040513d601f19601f82011682018060405250810190611da49190615205565b73ffffffffffffffffffffffffffffffffffffffff16146040518060400160405280600781526020017f4c5a35303030300000000000000000000000000000000000000000000000000081525090611e0f5760405162461bcd60e51b815260040161063191906145a1565b506040517ffdc07c7000000000000000000000000000000000000000000000000000000000815260009073ffffffffffffffffffffffffffffffffffffffff86169063fdc07c7090611e67908d908790600401615222565b602060405180830381865afa158015611e84573d6000803e3d6000fd5b505050506040513d601f19601f82011682018060405250810190611ea8919061523f565b90508067ffffffffffffffff168267ffffffffffffffff1611611ed357600295505050505050610ecf565b611ede81600161525c565b67ffffffffffffffff168267ffffffffffffffff161180611f8f57506040517f0eaf6ea600000000000000000000000000000000000000000000000000000000815273ffffffffffffffffffffffffffffffffffffffff861690630eaf6ea690611f4e908d908790600401615222565b602060405180830381865afa158015611f6b573d6000803e3d6000fd5b505050506040513d601f19601f82011682018060405250810190611f8f9190615284565b15611fa257600395505050505050610ecf565b5060019998505050505050505050565b73ffffffffffffffffffffffffffffffffffffffff821615801590611fe65750336000908152600460205260409020548111155b6040518060400160405280600781526020017f4c5a3130303030000000000000000000000000000000000000000000000000008152509061203a5760405162461bcd60e51b815260040161063191906145a1565b50336000908152600460205260408120805483929061205a908490614a9a565b90915550505050565b6060808060008490036121155763ffffffff86166000908152600360205260409020805461209090614d85565b80601f01602080910402602001604051908101604052809291908181526020018280546120bc90614d85565b80156121095780601f106120de57610100808354040283529160200191612109565b820191906000526020600020905b8154815290600101906020018083116120ec57829003601f168201915b5050505050925061214f565b84848080601f0160208091040260200160405190810160405280939291908181526020018383808284376000920191909152509295505050505b8251156121655761215f836128f7565b90925090505b93509350939050565b600080600061217e86868661290c565b92509250925093509350939050565b60408051808201909152600781527f4c5a3130303039000000000000000000000000000000000000000000000000006020820152818311156121e25760405162461bcd60e51b815260040161063191906145a1565b505050565b600254600090819073ffffffffffffffffffffffffffffffffffffffff1615611507576002546040517fd424422100000000000000000000000000000000000000000000000000000000815273ffffffffffffffffffffffffffffffffffffffff888116600483015263ffffffff881660248301526044820187905285151560648301529091169063d424422190608401602060405180830381865afa9250505080156122b1575060408051601f3d908101601f191682019092526122ae91810190615040565b60015b156115075783156122c457809150612319565b60006122f07f00000000000000000000000000000000000000000000000000000000000000003a6152a1565b905060008187116123015781612303565b865b90508083116123125782612314565b805b945050505b5094509492505050565b6040805160e0810182526000808252602080830182905282840182905260608084018390526080840183905260a0840183905260c084015261ffff8916825260069052919091205461237788878784612a65565b6040517f6fe7b67300000000000000000000000000000000000000000000000000000000815260009073ffffffffffffffffffffffffffffffffffffffff7f00000000000000000000000000000000000000000000000000000000000000001690636fe7b673906123f2908b908d908c908c906004016152b8565b6020604051808303816000875af1158015612411573d6000803e3d6000fd5b505050506040513d601f19601f82011682018060405250810190612435919061523f565b9050600061244d61244884838a8c615059565b612b60565b90506000827f000000000000000000000000000000000000000000000000000000000000000073ffffffffffffffffffffffffffffffffffffffff8d1660405160c09390931b7fffffffffffffffff00000000000000000000000000000000000000000000000016602084015260e091821b7fffffffff00000000000000000000000000000000000000000000000000000000166028840152602c8301528b901b7dffff0000000000000000000000000000000000000000000000000000000016604c820152605081018390526070016040516020818303038152906040528051906020012090506040518060e001604052808467ffffffffffffffff1681526020017f000000000000000000000000000000000000000000000000000000000000000063ffffffff1681526020018c73ffffffffffffffffffffffffffffffffffffffff1681526020018b61ffff1663ffffffff16815260200183815260200182815260200188888080601f01602080910402602001604051908101604052809392919081815260200183838082843760009201919091525050509152509b9a5050505050505050505050565b8051602080830151604080850151606080870151608088015160a089015160c08a015195519398612649988c989197919673ffffffffffffffffffffffffffffffffffffffff1695016152f2565b604051602081830303815290604052905092915050565b600080600061267a60048587604001518860600151612bdc565b9250925092509250925092565b6040517f717e8a4200000000000000000000000000000000000000000000000000000000815260009073ffffffffffffffffffffffffffffffffffffffff87169063717e8a42906126e2908890889088908890600401614ff5565b6020604051808303816000875af1158015612701573d6000803e3d6000fd5b505050506040513d601f19601f820116820180604052508101906127259190615040565b905080156127685773ffffffffffffffffffffffffffffffffffffffff861660009081526004602052604081208054839290612762908490614a87565b90915550505b6040805173ffffffffffffffffffffffffffffffffffffffff88168152602081018390527f61ed099e74a97a1d7f8bb0952a88ca8b7b8ebd00c126ea04671f92a81213318a910160405180910390a195945050505050565b60006119b9605160318486615059565b3660006117c68360518187615059565b60006127ef6001828486615059565b6127f8916153b8565b60f81c9392505050565b60006117256031602d8486615059565b6060600082118015612825575060208211155b6040518060400160405280600781526020017f4c5a313030303900000000000000000000000000000000000000000000000000815250906128795760405162461bcd60e51b815260040161063191906145a1565b5060008360405160200161288f91815260200190565b60405160208183030381529060405290508267ffffffffffffffff8111156128b9576128b96146f0565b6040519080825280601f01601f1916602001820160405280156128e3576020820181803683370190505b506040939093030151602083015250919050565b60608061290383612d81565b91509150915091565b6040517f3563876b00000000000000000000000000000000000000000000000000000000815273ffffffffffffffffffffffffffffffffffffffff848116600483015263ffffffff8416602483015260009182918291829182917f000000000000000000000000000000000000000000000000000000000000000090911690633563876b90604401600060405180830381865afa1580156129b1573d6000803e3d6000fd5b505050506040513d6000823e601f3d908101601f191682016040526129d991908101906153fe565b9150915080604001519350806000015163ffffffff16925060008651600014612a205786600081518110612a0f57612a0f614d56565b602002602001015160200151612a31565b604051806020016040528060008152505b9050600080612a3f83612e6c565b91509150612a55858b86602001518e86866131cc565b9750505050505093509350939050565b612a70816014614a87565b60408051808201909152600781527f4c5a3130303030000000000000000000000000000000000000000000000000006020820152908314612ac45760405162461bcd60e51b815260040161063191906145a1565b506000612adb612ad684848188615059565b613369565b90508073ffffffffffffffffffffffffffffffffffffffff168573ffffffffffffffffffffffffffffffffffffffff16146040518060400160405280600781526020017f4c5a31303030300000000000000000000000000000000000000000000000000081525090610a925760405162461bcd60e51b815260040161063191906145a1565b600060208383905011156040518060400160405280600781526020017f4c5a31303030390000000000000000000000000000000000000000000000000081525090612bbe5760405162461bcd60e51b815260040161063191906145a1565b50612bc982846150cb565b6020929092036008029190911c92915050565b6040517f3563876b00000000000000000000000000000000000000000000000000000000815273ffffffffffffffffffffffffffffffffffffffff838116600483015263ffffffff8316602483015260009182918291829182917f000000000000000000000000000000000000000000000000000000000000000090911690633563876b90604401600060405180830381865afa158015612c81573d6000803e3d6000fd5b505050506040513d6000823e601f3d908101601f19168201604052612ca991908101906153fe565b9150915080604001519350806000015163ffffffff16925060008851600014612cf05788600081518110612cdf57612cdf614d56565b602002602001015160200151612d01565b604051806020016040528060008152505b9050600080612d0f83612e6c565b915091506060612d288d878c88602001518f88886133d6565b60c088015160e0890151604051939c509193507f4ec2ac8fdaa552cf8e85ded259f20fa01c58d98ceaf21c87f6db54dad6d4ec4992612d69929085906154ff565b60405180910390a15050505050509450945094915050565b606080600080612d9085613685565b915091508051600003612de857604080516000808252602082019092528391612ddc565b604080518082019091526000815260606020820152815260200190600190039081612db45790505b50935093505050915091565b604080516001808252818301909252600091816020015b604080518082019091526000815260606020820152815260200190600190039081612dff5790505090506040518060400160405280600260ff1681526020018381525081600081518110612e5557612e55614d56565b602090810291909101015291959194509092505050565b6060808251600003612e7d57915091565b6000612e888461384a565b90508060ff16600103612f3a5760408051600180825281830190925290816020015b6060815260200190600190039081612eaa5790505092508383600081518110612ed557612ed5614d56565b602090810291909101015260408051600180825281830190925290816020016020820280368337019050509150612f0d8460036139cc565b82600081518110612f2057612f20614d56565b602002602001019060ff16908160ff168152505050915091565b8060ff1667ffffffffffffffff811115612f5657612f566146f0565b604051908082528060200260200182016040528015612f7f578160200160208202803683370190505b5091508060ff1667ffffffffffffffff811115612f9e57612f9e6146f0565b604051908082528060200260200182016040528015612fd157816020015b6060815260200190600190039081612fbc5790505b50925060008060ff5b8651831015613108576001909201916000612ff58885613a32565b905060028401935060028161ffff1610156040518060400160405280600781526020017f4c5a3130303039000000000000000000000000000000000000000000000000008152509061305a5760405162461bcd60e51b815260040161063191906145a1565b50600061306789866139cc565b90508260ff1660ff03613078578092505b8260ff168160ff16146130cf577ffffffffffffffffffffffffffffffffffffffffffffffffffffffffffffffffd8486030160006130b78b8784613a98565b90506130c58a8a8784613bc0565b5093909301929150815b8161ffff1685019450885185036131015783850360006130f08b8784613a98565b90506130fe8a8a8584613bc0565b50505b5050612fda565b865183146040518060400160405280600781526020017f4c5a313030303900000000000000000000000000000000000000000000000000815250906131605760405162461bcd60e51b815260040161063191906145a1565b5060005b8460ff168160ff1610156131c257858160ff168151811061318757613187614d56565b6020908102919091010180517fffffffffffffffffffffffffffffffffffffffffffffffffffffffffffffffff0160ff169052600101613164565b5050505050915091565b600080876080015188606001516131e39190615568565b905060005b8160ff1681101561335d57600060608a6060015160ff168310613231578a60e001518b6060015160ff1684038151811061322457613224614d56565b6020026020010151613250565b8a60c00151838151811061324757613247614d56565b60200260200101515b915060005b86518110156132aa578387828151811061327157613271614d56565b602002602001015160ff16036132a25787818151811061329357613293614d56565b602002602001015191506132aa565b600101613255565b506040517f30bb3aac00000000000000000000000000000000000000000000000000000000815273ffffffffffffffffffffffffffffffffffffffff8316906330bb3aac90613303908d908d908d908790600401615581565b602060405180830381865afa158015613320573d6000803e3d6000fd5b505050506040513d601f19601f820116820180604052508101906133449190615040565b61334e9086614a87565b945082600101925050506131e8565b50509695505050505050565b60408051808201909152600781527f4c5a3130303039000000000000000000000000000000000000000000000000006020820152600090601483146133c15760405162461bcd60e51b815260040161063191906145a1565b506133cc82846155cc565b60601c9392505050565b600060606000886080015189606001516133f09190615568565b90508060ff1667ffffffffffffffff81111561340e5761340e6146f0565b604051908082528060200260200182016040528015613437578160200160208202803683370190505b5091506000805b8260ff1681101561367657600060608c6060015160ff168310613487578c60e001518d6060015160ff1684038151811061347a5761347a614d56565b60200260200101516134a6565b8c60c00151838151811061349d5761349d614d56565b60200260200101515b9150600088511180156134d457508784815181106134c6576134c6614d56565b602002602001015160ff1683145b156134fb57885160018501948a9181106134f0576134f0614d56565b602002602001015190505b6040517fe4fbd90300000000000000000000000000000000000000000000000000000000815273ffffffffffffffffffffffffffffffffffffffff83169063e4fbd90390613553908f908f908f908790600401615581565b6020604051808303816000875af1158015613572573d6000803e3d6000fd5b505050506040513d601f19601f820116820180604052508101906135969190615040565b8684815181106135a8576135a8614d56565b60200260200101818152505060008684815181106135c8576135c8614d56565b6020026020010151111561366c578583815181106135e8576135e8614d56565b60200260200101518e60008473ffffffffffffffffffffffffffffffffffffffff1673ffffffffffffffffffffffffffffffffffffffff168152602001908152602001600020600082825461363d9190614a87565b9250508190555085838151811061365657613656614d56565b6020026020010151876136699190614a87565b96505b505060010161343e565b50505097509795505050505050565b60608060006136948482613a32565b905060027ffffffffffffffffffffffffffffffffffffffffffffffffffffffffffffffffd61ffff831601613836578060005b86518310156137d65760006136dc88856139cc565b90508160ff166000036136ed578091505b8160ff168160ff16146137265760006137098985808803613a98565b905061371788888584613d24565b90985096508493509091508190505b60019093019260006137388986613a32565b905060008161ffff16116040518060400160405280600781526020017f4c5a313030303900000000000000000000000000000000000000000000000000815250906137965760405162461bcd60e51b815260040161063191906145a1565b508060020161ffff1685019450885185036137cf5760006137ba8a86808903613a98565b90506137c889898584613d24565b9099509750505b50506136c7565b865183146040518060400160405280600781526020017f4c5a3130303039000000000000000000000000000000000000000000000000008152509061382e5760405162461bcd60e51b815260040161063191906145a1565b505050613843565b6138408286613e3e565b93505b5050915091565b60008060005b835182101561396c57600190910190600061386b8584613a32565b905060028301925060028161ffff1610156040518060400160405280600781526020017f4c5a313030303900000000000000000000000000000000000000000000000000815250906138d05760405162461bcd60e51b815260040161063191906145a1565b5060006138dd86856139cc565b905060ff8160ff16106040518060400160405280600781526020017f4c5a3130303131000000000000000000000000000000000000000000000000008152509061393a5760405162461bcd60e51b815260040161063191906145a1565b5060018181019060ff82161b841661395c5760019586019560ff82161b841793505b505061ffff169190910190613850565b835182146040518060400160405280600781526020017f4c5a313030303900000000000000000000000000000000000000000000000000815250906139c45760405162461bcd60e51b815260040161063191906145a1565b505050919050565b60006139d9826001614a87565b83511015613a295760405162461bcd60e51b815260206004820152601360248201527f746f55696e74385f6f75744f66426f756e6473000000000000000000000000006044820152606401610631565b50016001015190565b6000613a3f826002614a87565b83511015613a8f5760405162461bcd60e51b815260206004820152601460248201527f746f55696e7431365f6f75744f66426f756e64730000000000000000000000006044820152606401610631565b50016002015190565b606081613aa681601f614a87565b1015613af45760405162461bcd60e51b815260206004820152600e60248201527f736c6963655f6f766572666c6f770000000000000000000000000000000000006044820152606401610631565b613afe8284614a87565b84511015613b4e5760405162461bcd60e51b815260206004820152601160248201527f736c6963655f6f75744f66426f756e64730000000000000000000000000000006044820152606401610631565b606082158015613b6d5760405191506000825260208201604052610867565b6040519150601f8416801560200281840101858101878315602002848b0101015b81831015613ba6578051835260209283019201613b8e565b5050858452601f01601f1916604052505090509392505050565b60408051808201909152600781527f4c5a313030313100000000000000000000000000000000000000000000000000602082015260ff83811610613c175760405162461bcd60e51b815260040161063191906145a1565b506000613c25836001615568565b905060005b84518160ff161015610a92576000858260ff1681518110613c4d57613c4d614d56565b602002602001015190508060ff168360ff1603613cc857868260ff1681518110613c7957613c79614d56565b602002602001015184604051602001613c93929190615612565b604051602081830303815290604052878360ff1681518110613cb757613cb7614d56565b602002602001018190525050610a92565b8060ff16600003613d135782868360ff1681518110613ce957613ce9614d56565b602002602001019060ff16908160ff168152505083878360ff1681518110613cb757613cb7614d56565b50613d1d81615641565b9050613c2a565b6060807fffffffffffffffffffffffffffffffffffffffffffffffffffffffffffffffff60ff851601613d8857855115613d7f578583604051602001613d6b929190615612565b604051602081830303815290604052613d81565b825b9550613e34565b7ffffffffffffffffffffffffffffffffffffffffffffffffffffffffffffffffe60ff851601613de957845115613de0578483604051602001613dcc929190615612565b604051602081830303815290604052613de2565b825b9450613e34565b604080518082018252600781527f4c5a3130303133000000000000000000000000000000000000000000000000006020820152905162461bcd60e51b815261063191906004016145a1565b5093949293505050565b60607fffffffffffffffffffffffffffffffffffffffffffffffffffffffffffffffff61ffff841601613f785781516022146040518060400160405280600781526020017f4c5a31303030390000000000000000000000000000000000000000000000000081525090613ec45760405162461bcd60e51b815260040161063191906145a1565b506000613eda613ed5846002614101565b614167565b6040517f0100000000000000000000000000000000000000000000000000000000000000602082018190527e11000000000000000000000000000000000000000000000000000000000000602183015260238201527fffffffffffffffffffffffffffffffff00000000000000000000000000000000608083901b166024820152909150603401604051602081830303815290604052915050610b60565b7ffffffffffffffffffffffffffffffffffffffffffffffffffffffffffffffffe61ffff8416016140b65760428251118015613fb657506062825111155b6040518060400160405280600781526020017f4c5a3130303039000000000000000000000000000000000000000000000000008152509061400a5760405162461bcd60e51b815260040161063191906145a1565b50600061401b613ed5846002614101565b9050600061402d613ed5856022614101565b84519091506000907fffffffffffffffffffffffffffffffffffffffffffffffffffffffffffffffbe0161406386604283613a98565b61406c90615660565b60405160086020938403029190911c925061409d916001916011918391889183916031916002918b918b91016156a2565b6040516020818303038152906040529350505050610b60565b604080518082018252600781527f4c5a4330303030000000000000000000000000000000000000000000000000006020820152905162461bcd60e51b815261063191906004016145a1565b600061410e826020614a87565b8351101561415e5760405162461bcd60e51b815260206004820152601560248201527f746f55696e743235365f6f75744f66426f756e647300000000000000000000006044820152606401610631565b50016020015190565b60006fffffffffffffffffffffffffffffffff8211156117b25760405162461bcd60e51b815260206004820152602760248201527f53616665436173743a2076616c756520646f65736e27742066697420696e203160448201527f32382062697473000000000000000000000000000000000000000000000000006064820152608401610631565b60008083601f84011261420157600080fd5b50813567ffffffffffffffff81111561421957600080fd5b6020830191508360208285010111156117cb57600080fd5b67ffffffffffffffff8116811461108257600080fd5b803561425281614231565b919050565b6000806000806060858703121561426d57600080fd5b843567ffffffffffffffff81111561428457600080fd5b614290878288016141ef565b9095509350506020850135915060408501356142ab81614231565b939692955090935050565b63ffffffff8116811461108257600080fd5b6000602082840312156142da57600080fd5b8135610d89816142b6565b73ffffffffffffffffffffffffffffffffffffffff8116811461108257600080fd5b8035614252816142e5565b60008060006060848603121561432757600080fd5b83359250602084013591506040840135614340816142e5565b809150509250925092565b803561ffff8116811461425257600080fd5b801515811461108257600080fd5b80356142528161435d565b600080600080600080600060a0888a03121561439157600080fd5b61439a8861434b565b965060208801356143aa816142e5565b9550604088013567ffffffffffffffff808211156143c757600080fd5b6143d38b838c016141ef565b909750955060608a013591506143e88261435d565b909350608089013590808211156143fe57600080fd5b5061440b8a828b016141ef565b989b979a50959850939692959293505050565b60008060008060008060008060008060006101008c8e03121561444057600080fd5b6144498c614307565b9a5061445760208d01614247565b995061446560408d0161434b565b985067ffffffffffffffff8060608e0135111561448157600080fd5b6144918e60608f01358f016141ef565b909950975060808d01358110156144a757600080fd5b6144b78e60808f01358f016141ef565b90975095506144c860a08e01614307565b94506144d660c08e01614307565b93508060e08e013511156144e957600080fd5b506144fa8d60e08e01358e016141ef565b81935080925050509295989b509295989b9093969950565b60008060006060848603121561452757600080fd5b6145308461434b565b92506020840135614540816142e5565b929592945050506040919091013590565b60005b8381101561456c578181015183820152602001614554565b50506000910152565b6000815180845261458d816020860160208601614551565b601f01601f19169290920160200192915050565b602081526000610b5d6020830184614575565b6000602082840312156145c657600080fd5b8135610d89816142e5565b6000806000604084860312156145e657600080fd5b833567ffffffffffffffff8111156145fd57600080fd5b614609868287016141ef565b909790965060209590950135949350505050565b6000806040838503121561463057600080fd5b823561463b816142b6565b9150602083013561464b816142b6565b809150509250929050565b6000806040838503121561466957600080fd5b6146728361434b565b946020939093013593505050565b7f4e487b7100000000000000000000000000000000000000000000000000000000600052602160045260246000fd5b60208101600483106146ea577f4e487b7100000000000000000000000000000000000000000000000000000000600052602160045260246000fd5b91905290565b7f4e487b7100000000000000000000000000000000000000000000000000000000600052604160045260246000fd5b604051610100810167ffffffffffffffff81118282101715614743576147436146f0565b60405290565b604051601f8201601f1916810167ffffffffffffffff81118282101715614772576147726146f0565b604052919050565b60ff8116811461108257600080fd5b80356142528161477a565b600067ffffffffffffffff8211156147ae576147ae6146f0565b5060051b60200190565b600082601f8301126147c957600080fd5b813560206147de6147d983614794565b614749565b82815260059290921b840181019181810190868411156147fd57600080fd5b8286015b84811015614821578035614814816142e5565b8352918301918301614801565b509695505050505050565b60008060006060848603121561484157600080fd5b833567ffffffffffffffff8082111561485957600080fd5b90850190610100828803121561486e57600080fd5b61487661471f565b61487f83614247565b815261488d6020840161436b565b602082015261489e6040840161436b565b60408201526148af60608401614789565b60608201526148c060808401614789565b60808201526148d160a08401614789565b60a082015260c0830135828111156148e857600080fd5b6148f4898286016147b8565b60c08301525060e08301358281111561490c57600080fd5b614918898286016147b8565b60e083015250976020870135975060409096013595945050505050565b6000806000806080858703121561494b57600080fd5b8435614956816142e5565b9350602085013592506040850135915060608501356142ab81614231565b60008060006040848603121561498957600080fd5b8335614994816142b6565b9250602084013567ffffffffffffffff8111156149b057600080fd5b6149bc868287016141ef565b9497909650939450505050565b6000806000806000608086880312156149e157600080fd5b6149ea8661434b565b945060208601356149fa816142e5565b935060408601359250606086013567ffffffffffffffff811115614a1d57600080fd5b614a29888289016141ef565b969995985093965092949392505050565b60008060408385031215614a4d57600080fd5b8235614672816142e5565b7f4e487b7100000000000000000000000000000000000000000000000000000000600052601160045260246000fd5b80820180821115610b6057610b60614a58565b81810381811115610b6057610b60614a58565b608081526000614ac06080830187614575565b8281036020840152614ad28187614575565b604084019590955250506060015292915050565b600082601f830112614af757600080fd5b815167ffffffffffffffff811115614b1157614b116146f0565b614b246020601f19601f84011601614749565b818152846020838601011115614b3957600080fd5b610ecf826020830160208701614551565b80516142528161435d565b60008060408385031215614b6857600080fd5b825167ffffffffffffffff811115614b7f57600080fd5b614b8b85828601614ae6565b925050602083015161464b8161435d565b805161425281614231565b80516142528161477a565b600082601f830112614bc357600080fd5b81516020614bd36147d983614794565b82815260059290921b84018101918181019086841115614bf257600080fd5b8286015b84811015614821578051614c09816142e5565b8352918301918301614bf6565b60006101008284031215614c2957600080fd5b614c3161471f565b9050614c3c82614b9c565b8152614c4a60208301614b4a565b6020820152614c5b60408301614b4a565b6040820152614c6c60608301614ba7565b6060820152614c7d60808301614ba7565b6080820152614c8e60a08301614ba7565b60a082015260c082015167ffffffffffffffff80821115614cae57600080fd5b614cba85838601614bb2565b60c084015260e0840151915080821115614cd357600080fd5b50614ce084828501614bb2565b60e08301525092915050565b600060208284031215614cfe57600080fd5b815167ffffffffffffffff811115614d1557600080fd5b610ecf84828501614c16565b600060208284031215614d3357600080fd5b815167ffffffffffffffff811115614d4a57600080fd5b610ecf84828501614ae6565b7f4e487b7100000000000000000000000000000000000000000000000000000000600052603260045260246000fd5b600181811c90821680614d9957607f821691505b602082108103614dd2577f4e487b7100000000000000000000000000000000000000000000000000000000600052602260045260246000fd5b50919050565b601f8211156121e257600081815260208120601f850160051c81016020861015614dff5750805b601f850160051c820191505b81811015610a9257828155600101614e0b565b67ffffffffffffffff831115614e3657614e366146f0565b614e4a83614e448354614d85565b83614dd8565b6000601f841160018114614e9c5760008515614e665750838201355b7fffffffffffffffffffffffffffffffffffffffffffffffffffffffffffffffff600387901b1c1916600186901b178355614f14565b600083815260209020601f19861690835b82811015614ecd5786850135825560209485019460019092019101614ead565b5086821015614f08577fffffffffffffffffffffffffffffffffffffffffffffffffffffffffffffffff60f88860031b161c19848701351681555b505060018560011b0183555b5050505050565b818352818160208501375060006020828401015260006020601f19601f840116840101905092915050565b61ffff8616815273ffffffffffffffffffffffffffffffffffffffff8516602082015263ffffffff84166040820152608060608201526000614f8c608083018486614f1b565b979650505050505050565b8183823760009101908152919050565b73ffffffffffffffffffffffffffffffffffffffff86168152608060208201526000614fd7608083018688614f1b565b67ffffffffffffffff94909416604083015250606001529392505050565b63ffffffff8516815273ffffffffffffffffffffffffffffffffffffffff841660208201528260408201526080606082015260006150366080830184614575565b9695505050505050565b60006020828403121561505257600080fd5b5051919050565b6000808585111561506957600080fd5b8386111561507657600080fd5b5050820193919092039150565b7fffffffff0000000000000000000000000000000000000000000000000000000081358181169160048510156150c35780818660040360031b1b83161692505b505092915050565b80356020831015610b60577fffffffffffffffffffffffffffffffffffffffffffffffffffffffffffffffff602084900360031b1b1692915050565b7fffffffffffffffff00000000000000000000000000000000000000000000000081358181169160088510156150c35760089490940360031b84901b1690921692915050565b6000835161515f818460208801614551565b60609390931b7fffffffffffffffffffffffffffffffffffffffff000000000000000000000000169190920190815260140192915050565b61ffff8716815260c0602082015260006151b460c0830188614575565b73ffffffffffffffffffffffffffffffffffffffff8716604084015267ffffffffffffffff8616606084015284608084015282810360a08401526151f88185614575565b9998505050505050505050565b60006020828403121561521757600080fd5b8151610d89816142e5565b61ffff83168152604060208201526000610ecf6040830184614575565b60006020828403121561525157600080fd5b8151610d8981614231565b67ffffffffffffffff81811683821601908082111561527d5761527d614a58565b5092915050565b60006020828403121561529657600080fd5b8151610d898161435d565b8082028115828204841417610b6057610b60614a58565b61ffff8516815273ffffffffffffffffffffffffffffffffffffffff84166020820152606060408201526000615036606083018486614f1b565b7fff000000000000000000000000000000000000000000000000000000000000008960f81b1681527fffffffffffffffff0000000000000000000000000000000000000000000000008860c01b16600182015260007fffffffff00000000000000000000000000000000000000000000000000000000808960e01b16600984015287600d840152808760e01b16602d8401525084603183015283605183015282516153a4816071850160208701614551565b919091016071019998505050505050505050565b7fff0000000000000000000000000000000000000000000000000000000000000081358181169160018510156150c35760019490940360031b84901b1690921692915050565b600080828403608081121561541257600080fd5b835167ffffffffffffffff8082111561542a57600080fd5b61543687838801614c16565b94506060601f198401121561544a57600080fd5b60405192506060830191508282108183111715615469576154696146f0565b50604052602084015161547b816142b6565b8152604084015161548b81614231565b6020820152606084015161549e816142e5565b6040820152919491935090915050565b600081518084526020808501945080840160005b838110156154f457815173ffffffffffffffffffffffffffffffffffffffff16875295820195908201906001016154c2565b509495945050505050565b60608152600061551260608301866154ae565b60208382038185015261552582876154ae565b8481036040860152855180825282870193509082019060005b8181101561555a5784518352938301939183019160010161553e565b509098975050505050505050565b60ff8181168382160190811115610b6057610b60614a58565b63ffffffff8516815267ffffffffffffffff8416602082015273ffffffffffffffffffffffffffffffffffffffff831660408201526080606082015260006150366080830184614575565b7fffffffffffffffffffffffffffffffffffffffff00000000000000000000000081358181169160148510156150c35760149490940360031b84901b1690921692915050565b60008351615624818460208801614551565b835190830190615638818360208801614551565b01949350505050565b600060ff821660ff810361565757615657614a58565b60010192915050565b80516020808301519190811015614dd2577fffffffffffffffffffffffffffffffffffffffffffffffffffffffffffffffff60209190910360031b1b16919050565b60007fff00000000000000000000000000000000000000000000000000000000000000808c60f81b1683527fffff000000000000000000000000000000000000000000000000000000000000808c60f01b166001850152818b60f81b1660038501527fffffffffffffffffffffffffffffffff000000000000000000000000000000008a60801b166004850152818960f81b166014850152808860f01b16601585015250808660f81b16601784015250615783601883018560801b7fffffffffffffffffffffffffffffffff00000000000000000000000000000000169052565b5060288101919091526048019897505050505050505056fea26469706673582212204a46a6237f130b21d05c7fec335fe407e48609f92462e5ab7d81ea1ff3fe4de164736f6c63430008130033",
  "devdoc": {
    "details": "ULN301 will be deployed on EndpointV1 and is for backward compatability with ULN302 on EndpointV2. 301 can talk to both 301 and 302",
    "kind": "dev",
    "methods": {
      "deliver(bytes,uint256)": {
        "details": "in 301, this is equivalent to execution as in Endpoint V2dont need to check endpoint deliverable here to save gas, as it will reverts if not deliverable."
      },
      "deliverable(bytes,bytes32)": {
        "details": "keeping the same interface as 302a deliverable message requires it to be endpoint deliverable and ULN deliverable"
      },
      "owner()": {
        "details": "Returns the address of the current owner."
      },
      "renounceOwnership()": {
        "details": "Leaves the contract without owner. It will not be possible to call `onlyOwner` functions. Can only be called by the current owner. NOTE: Renouncing ownership will leave the contract without an owner, thereby disabling any functionality that is only available to the owner."
      },
      "transferOwnership(address)": {
        "details": "Transfers ownership of the contract to a new account (`newOwner`). Can only be called by the current owner."
      },
      "verifyConditionMet((uint64,bool,bool,uint8,uint8,uint8,address[],address[]),bytes32,bytes32)": {
        "details": "requires that the MUST-Verifiers have signed the payload and there is enough OPTIONAL-Verifiers signed"
      }
    },
    "version": 1
  },
  "userdoc": {
    "kind": "user",
    "methods": {},
    "version": 1
  },
  "storageLayout": {
    "storage": [
      {
        "astId": 13715,
        "contract": "contracts/uln/uln301/UltraLightNode301.sol:UltraLightNode301",
        "label": "hashLookup",
        "offset": 0,
        "slot": "0",
        "type": "t_mapping(t_bytes32,t_mapping(t_bytes32,t_mapping(t_address,t_uint64)))"
      },
      {
        "astId": 5168,
        "contract": "contracts/uln/uln301/UltraLightNode301.sol:UltraLightNode301",
        "label": "_owner",
        "offset": 0,
        "slot": "1",
        "type": "t_address"
      },
      {
        "astId": 10253,
        "contract": "contracts/uln/uln301/UltraLightNode301.sol:UltraLightNode301",
        "label": "treasury",
        "offset": 0,
        "slot": "2",
        "type": "t_address"
      },
      {
        "astId": 10257,
        "contract": "contracts/uln/uln301/UltraLightNode301.sol:UltraLightNode301",
        "label": "defaultOptions",
        "offset": 0,
        "slot": "3",
        "type": "t_mapping(t_uint32,t_bytes_storage)"
      },
      {
        "astId": 10261,
        "contract": "contracts/uln/uln301/UltraLightNode301.sol:UltraLightNode301",
        "label": "fees",
        "offset": 0,
        "slot": "4",
        "type": "t_mapping(t_address,t_uint256)"
      },
      {
        "astId": 17629,
        "contract": "contracts/uln/uln301/UltraLightNode301.sol:UltraLightNode301",
        "label": "layerZeroToken",
        "offset": 0,
        "slot": "5",
        "type": "t_address"
      },
      {
        "astId": 17633,
        "contract": "contracts/uln/uln301/UltraLightNode301.sol:UltraLightNode301",
        "label": "addressSizes",
        "offset": 0,
        "slot": "6",
        "type": "t_mapping(t_uint32,t_uint256)"
      }
    ],
    "types": {
      "t_address": {
        "encoding": "inplace",
        "label": "address",
        "numberOfBytes": "20"
      },
      "t_bytes32": {
        "encoding": "inplace",
        "label": "bytes32",
        "numberOfBytes": "32"
      },
      "t_bytes_storage": {
        "encoding": "bytes",
        "label": "bytes",
        "numberOfBytes": "32"
      },
      "t_mapping(t_address,t_uint256)": {
        "encoding": "mapping",
        "key": "t_address",
        "label": "mapping(address => uint256)",
        "numberOfBytes": "32",
        "value": "t_uint256"
      },
      "t_mapping(t_address,t_uint64)": {
        "encoding": "mapping",
        "key": "t_address",
        "label": "mapping(address => uint64)",
        "numberOfBytes": "32",
        "value": "t_uint64"
      },
      "t_mapping(t_bytes32,t_mapping(t_address,t_uint64))": {
        "encoding": "mapping",
        "key": "t_bytes32",
        "label": "mapping(bytes32 => mapping(address => uint64))",
        "numberOfBytes": "32",
        "value": "t_mapping(t_address,t_uint64)"
      },
      "t_mapping(t_bytes32,t_mapping(t_bytes32,t_mapping(t_address,t_uint64)))": {
        "encoding": "mapping",
        "key": "t_bytes32",
        "label": "mapping(bytes32 => mapping(bytes32 => mapping(address => uint64)))",
        "numberOfBytes": "32",
        "value": "t_mapping(t_bytes32,t_mapping(t_address,t_uint64))"
      },
      "t_mapping(t_uint32,t_bytes_storage)": {
        "encoding": "mapping",
        "key": "t_uint32",
        "label": "mapping(uint32 => bytes)",
        "numberOfBytes": "32",
        "value": "t_bytes_storage"
      },
      "t_mapping(t_uint32,t_uint256)": {
        "encoding": "mapping",
        "key": "t_uint32",
        "label": "mapping(uint32 => uint256)",
        "numberOfBytes": "32",
        "value": "t_uint256"
      },
      "t_uint256": {
        "encoding": "inplace",
        "label": "uint256",
        "numberOfBytes": "32"
      },
      "t_uint32": {
        "encoding": "inplace",
        "label": "uint32",
        "numberOfBytes": "4"
      },
      "t_uint64": {
        "encoding": "inplace",
        "label": "uint64",
        "numberOfBytes": "8"
      }
    }
  }
}