{
  "_format": "hh-sol-artifact-1",
  "contractName": "OFTStakingMock",
  "sourceName": "contracts/mocks/OFTStakingMock.sol",
  "abi": [
    {
      "inputs": [
        {
          "internalType": "address",
          "name": "_oft",
          "type": "address"
        }
      ],
      "stateMutability": "nonpayable",
      "type": "constructor"
    },
    {
      "anonymous": false,
      "inputs": [
        {
          "indexed": false,
          "internalType": "address",
          "name": "from",
          "type": "address"
        },
        {
          "indexed": false,
          "internalType": "uint256",
          "name": "amount",
          "type": "uint256"
        }
      ],
      "name": "Deposit",
      "type": "event"
    },
    {
      "anonymous": false,
      "inputs": [
        {
          "indexed": false,
          "internalType": "address",
          "name": "from",
          "type": "address"
        },
        {
          "indexed": false,
          "internalType": "uint16",
          "name": "dstChainId",
          "type": "uint16"
        },
        {
          "indexed": false,
          "internalType": "bytes",
          "name": "to",
          "type": "bytes"
        },
        {
          "indexed": false,
          "internalType": "uint256",
          "name": "amountOut",
          "type": "uint256"
        }
      ],
      "name": "DepositToDstChain",
      "type": "event"
    },
    {
      "anonymous": false,
      "inputs": [
        {
          "indexed": false,
          "internalType": "address",
          "name": "to",
          "type": "address"
        },
        {
          "indexed": false,
          "internalType": "uint256",
          "name": "amount",
          "type": "uint256"
        }
      ],
      "name": "Withdrawal",
      "type": "event"
    },
    {
      "inputs": [],
      "name": "DST_GAS_FOR_CALL",
      "outputs": [
        {
          "internalType": "uint64",
          "name": "",
          "type": "uint64"
        }
      ],
      "stateMutability": "view",
      "type": "function"
    },
    {
      "inputs": [],
      "name": "PT_DEPOSIT_TO_REMOTE_CHAIN",
      "outputs": [
        {
          "internalType": "uint8",
          "name": "",
          "type": "uint8"
        }
      ],
      "stateMutability": "view",
      "type": "function"
    },
    {
      "inputs": [
        {
          "internalType": "address",
          "name": "",
          "type": "address"
        }
      ],
      "name": "balances",
      "outputs": [
        {
          "internalType": "uint256",
          "name": "",
          "type": "uint256"
        }
      ],
      "stateMutability": "view",
      "type": "function"
    },
    {
      "inputs": [
        {
          "internalType": "uint256",
          "name": "_amount",
          "type": "uint256"
        }
      ],
      "name": "deposit",
      "outputs": [],
      "stateMutability": "payable",
      "type": "function"
    },
    {
      "inputs": [
        {
          "internalType": "uint16",
          "name": "_dstChainId",
          "type": "uint16"
        },
        {
          "internalType": "bytes",
          "name": "_to",
          "type": "bytes"
        },
        {
          "internalType": "uint256",
          "name": "_amount",
          "type": "uint256"
        },
        {
          "internalType": "bytes",
          "name": "_adapterParams",
          "type": "bytes"
        }
      ],
      "name": "depositToDstChain",
      "outputs": [],
      "stateMutability": "payable",
      "type": "function"
    },
    {
      "inputs": [],
      "name": "oft",
      "outputs": [
        {
          "internalType": "contract IComposableOFTCore",
          "name": "",
          "type": "address"
        }
      ],
      "stateMutability": "view",
      "type": "function"
    },
    {
      "inputs": [
        {
          "internalType": "uint16",
          "name": "_srcChainId",
          "type": "uint16"
        },
        {
          "internalType": "bytes",
          "name": "",
          "type": "bytes"
        },
        {
          "internalType": "uint64",
          "name": "",
          "type": "uint64"
        },
        {
          "internalType": "bytes",
          "name": "_from",
          "type": "bytes"
        },
        {
          "internalType": "uint256",
          "name": "_amount",
          "type": "uint256"
        },
        {
          "internalType": "bytes",
          "name": "_payload",
          "type": "bytes"
        }
      ],
      "name": "onOFTReceived",
      "outputs": [],
      "stateMutability": "nonpayable",
      "type": "function"
    },
    {
      "inputs": [],
      "name": "paused",
      "outputs": [
        {
          "internalType": "bool",
          "name": "",
          "type": "bool"
        }
      ],
      "stateMutability": "view",
      "type": "function"
    },
    {
      "inputs": [
        {
          "internalType": "uint16",
          "name": "_dstChainId",
          "type": "uint16"
        },
        {
          "internalType": "bytes",
          "name": "_to",
          "type": "bytes"
        },
        {
          "internalType": "uint256",
          "name": "_amount",
          "type": "uint256"
        },
        {
          "internalType": "bytes",
          "name": "_adapterParams",
          "type": "bytes"
        }
      ],
      "name": "quoteForDeposit",
      "outputs": [
        {
          "internalType": "uint256",
          "name": "nativeFee",
          "type": "uint256"
        },
        {
          "internalType": "uint256",
          "name": "zroFee",
          "type": "uint256"
        }
      ],
      "stateMutability": "view",
      "type": "function"
    },
    {
      "inputs": [
        {
          "internalType": "uint16",
          "name": "",
          "type": "uint16"
        }
      ],
      "name": "remoteStakingContracts",
      "outputs": [
        {
          "internalType": "bytes",
          "name": "",
          "type": "bytes"
        }
      ],
      "stateMutability": "view",
      "type": "function"
    },
    {
      "inputs": [
        {
          "internalType": "bool",
          "name": "_paused",
          "type": "bool"
        }
      ],
      "name": "setPaused",
      "outputs": [],
      "stateMutability": "nonpayable",
      "type": "function"
    },
    {
      "inputs": [
        {
          "internalType": "uint16",
          "name": "_chainId",
          "type": "uint16"
        },
        {
          "internalType": "bytes",
          "name": "_stakingContract",
          "type": "bytes"
        }
      ],
      "name": "setRemoteStakingContract",
      "outputs": [],
      "stateMutability": "nonpayable",
      "type": "function"
    },
    {
      "inputs": [
        {
          "internalType": "uint256",
          "name": "_amount",
          "type": "uint256"
        }
      ],
      "name": "withdraw",
      "outputs": [],
      "stateMutability": "nonpayable",
      "type": "function"
    },
    {
      "inputs": [
        {
          "internalType": "uint256",
          "name": "_amount",
          "type": "uint256"
        },
        {
          "internalType": "address",
          "name": "_to",
          "type": "address"
        }
      ],
      "name": "withdrawTo",
      "outputs": [],
      "stateMutability": "nonpayable",
      "type": "function"
    }
  ],
  "bytecode": "0x60806040523480156200001157600080fd5b5060405162001ec038038062001ec08339810160408190526200003491620004b9565b600080546001600160a01b0319166001600160a01b03831690811790915560408051637e062a3560e11b81529051620000dd9284926000199263fc0c546a916004808201926020929091908290030181865afa15801562000099573d6000803e3d6000fd5b505050506040513d601f19601f82011682018060405250810190620000bf9190620004b9565b6001600160a01b0316620000e460201b62000bd6179092919060201c565b50620005af565b801580620001625750604051636eb1769f60e11b81523060048201526001600160a01b03838116602483015284169063dd62ed3e90604401602060405180830381865afa1580156200013a573d6000803e3d6000fd5b505050506040513d601f19601f82011682018060405250810190620001609190620004eb565b155b620001da5760405162461bcd60e51b815260206004820152603660248201527f5361666545524332303a20617070726f76652066726f6d206e6f6e2d7a65726f60448201527f20746f206e6f6e2d7a65726f20616c6c6f77616e63650000000000000000000060648201526084015b60405180910390fd5b604080516001600160a01b038416602482015260448082018490528251808303909101815260649091019091526020810180516001600160e01b0390811663095ea7b360e01b17909152620002329185916200023716565b505050565b600062000293826040518060400160405280602081526020017f5361666545524332303a206c6f772d6c6576656c2063616c6c206661696c6564815250856001600160a01b03166200031860201b62000d23179092919060201c565b9050805160001480620002b7575080806020019051810190620002b7919062000505565b620002325760405162461bcd60e51b815260206004820152602a60248201527f5361666545524332303a204552433230206f7065726174696f6e20646964206e6044820152691bdd081cdd58d8d9595960b21b6064820152608401620001d1565b606062000329848460008562000331565b949350505050565b606082471015620003945760405162461bcd60e51b815260206004820152602660248201527f416464726573733a20696e73756666696369656e742062616c616e636520666f6044820152651c8818d85b1b60d21b6064820152608401620001d1565b600080866001600160a01b03168587604051620003b291906200055c565b60006040518083038185875af1925050503d8060008114620003f1576040519150601f19603f3d011682016040523d82523d6000602084013e620003f6565b606091505b5090925090506200040a8783838762000415565b979650505050505050565b60608315620004865782516200047e576001600160a01b0385163b6200047e5760405162461bcd60e51b815260206004820152601d60248201527f416464726573733a2063616c6c20746f206e6f6e2d636f6e74726163740000006044820152606401620001d1565b508162000329565b6200032983838151156200049d5781518083602001fd5b8060405162461bcd60e51b8152600401620001d191906200057a565b600060208284031215620004cc57600080fd5b81516001600160a01b0381168114620004e457600080fd5b9392505050565b600060208284031215620004fe57600080fd5b5051919050565b6000602082840312156200051857600080fd5b81518015158114620004e457600080fd5b60005b83811015620005465781810151838201526020016200052c565b8381111562000556576000848401525b50505050565b600082516200057081846020870162000529565b9190910192915050565b60208152600082518060208401526200059b81604085016020870162000529565b601f01601f19169190910160400192915050565b61190180620005bf6000396000f3fe6080604052600436106100dd5760003560e01c80639b5215f61161007f578063b2acc0a511610059578063b2acc0a514610293578063b6b55f25146102b3578063c86283c8146102c6578063f2ab0e04146102e657600080fd5b80639b5215f614610204578063aadda7f61461023c578063acd4b8271461026357600080fd5b80632e1a7d4d116100bb5780632e1a7d4d146101725780635485ab3c146101925780635c975abb146101c75780637242abf6146101f157600080fd5b8063147a7d71146100e257806316c38b3c1461010457806327e235e314610132575b600080fd5b3480156100ee57600080fd5b506101026100fd366004611210565b610313565b005b34801561011057600080fd5b5061010261011f3660046112e5565b6003805460ff1916911515919091179055565b34801561013e57600080fd5b5061015f61014d36600461131e565b60026020526000908152604090205481565b6040519081526020015b60405180910390f35b34801561017e57600080fd5b5061010261018d36600461133b565b6104f0565b34801561019e57600080fd5b506101b26101ad366004611354565b6104fd565b60408051928352602083019190915201610169565b3480156101d357600080fd5b506003546101e19060ff1681565b6040519015158152602001610169565b6101026101ff366004611354565b6106c7565b34801561021057600080fd5b50600054610224906001600160a01b031681565b6040516001600160a01b039091168152602001610169565b34801561024857600080fd5b50610251600181565b60405160ff9091168152602001610169565b34801561026f57600080fd5b5061027a620493e081565b60405167ffffffffffffffff9091168152602001610169565b34801561029f57600080fd5b506101026102ae3660046113de565b610958565b6101026102c136600461133b565b61097c565b3480156102d257600080fd5b506101026102e1366004611431565b610a33565b3480156102f257600080fd5b50610306610301366004611461565b610b3c565b60405161016991906114d4565b60035460ff16156103545760405162461bcd60e51b81526020600482015260066024820152651c185d5cd95960d21b60448201526064015b60405180910390fd5b6000546001600160a01b031633146103b85760405162461bcd60e51b815260206004820152602160248201527f6f6e6c79206f66742063616e2063616c6c206f6e4f46545265636569766564286044820152602960f81b606482015260840161034b565b61ffff88166000908152600160205260409081902090516103d99190611522565b604051809103902084846040516103f19291906115be565b6040518091039020146104355760405162461bcd60e51b815260206004820152600c60248201526b696e76616c69642066726f6d60a01b604482015260640161034b565b602081015160ff8116600114156104a65760008280602001905181019061045c91906115ce565b91506000905061046c8282610d3a565b6001600160a01b038116600090815260026020526040812080549293508792909190610499908490611677565b909155506104e592505050565b60405162461bcd60e51b8152602060048201526014602482015273696e76616c6964206465706f736974207479706560601b604482015260640161034b565b505050505050505050565b6104fa8133610a33565b50565b61ffff8616600090815260016020526040812080548291829161051f906114e7565b80601f016020809104026020016040519081016040528092919081815260200182805461054b906114e7565b80156105985780601f1061056d57610100808354040283529160200191610598565b820191906000526020600020905b81548152906001019060200180831161057b57829003601f168201915b505050505090507fc5d2460186f7233c927e7db2dcc703c0e500b653ca82273b7bfad8045d85a4708180519060200120141561060c5760405162461bcd60e51b81526020600482015260136024820152721a5b9d985b1a590817d91cdd10da185a5b9259606a1b604482015260640161034b565b600060018989604051602001610624939291906116b8565b60408051601f19818403018152908290526000805463642cc6e560e11b84529193506001600160a01b039091169163c8598dca91610676918e9187918d918891620493e091908f908f906004016116de565b6040805180830381865afa158015610692573d6000803e3d6000fd5b505050506040513d601f19601f820116820180604052508101906106b6919061174f565b935093505050965096945050505050565b61ffff8616600090815260016020526040812080546106e5906114e7565b80601f0160208091040260200160405190810160405280929190818152602001828054610711906114e7565b801561075e5780601f106107335761010080835404028352916020019161075e565b820191906000526020600020905b81548152906001019060200180831161074157829003601f168201915b505050505090507fc5d2460186f7233c927e7db2dcc703c0e500b653ca82273b7bfad8045d85a470818051906020012014156107d25760405162461bcd60e51b81526020600482015260136024820152721a5b9d985b1a590817d91cdd10da185a5b9259606a1b604482015260640161034b565b61085e33308660008054906101000a90046001600160a01b03166001600160a01b031663fc0c546a6040518163ffffffff1660e01b8152600401602060405180830381865afa158015610829573d6000803e3d6000fd5b505050506040513d601f19601f8201168201806040525081019061084d9190611773565b6001600160a01b0316929190610d9f565b600060018787604051602001610876939291906116b8565b604051602081830303815290604052905060008054906101000a90046001600160a01b03166001600160a01b031663e7f0c59f34308b868a87620493e03360008e8e6040518c63ffffffff1660e01b81526004016108dd9a99989796959493929190611790565b6000604051808303818588803b1580156108f657600080fd5b505af115801561090a573d6000803e3d6000fd5b50505050507ff19a8f0b78556c2027690fa47020dd2adb2b807bdf2b287ae4685a7c0adde38a3389898989604051610946959493929190611821565b60405180910390a15050505050505050565b61ffff83166000908152600160205260409020610976908383611052565b50505050565b6109d333308360008054906101000a90046001600160a01b03166001600160a01b031663fc0c546a6040518163ffffffff1660e01b8152600401602060405180830381865afa158015610829573d6000803e3d6000fd5b33600090815260026020526040812080548392906109f2908490611677565b909155505060408051338152602081018390527fe1fffcc4923d04b559f4d29a8bfc6cda04eb5b0d3c460751c2402c5c5cc9109c910160405180910390a150565b33600090815260026020526040902054821115610a4f57600080fd5b3360009081526002602052604081208054849290610a6e908490611862565b92505081905550610aff818360008054906101000a90046001600160a01b03166001600160a01b031663fc0c546a6040518163ffffffff1660e01b8152600401602060405180830381865afa158015610acb573d6000803e3d6000fd5b505050506040513d601f19601f82011682018060405250810190610aef9190611773565b6001600160a01b03169190610dd7565b60408051338152602081018490527f7fcf532c15f0a6db0bd6d0e038bea71d30d808c7d98cb3bf7268a95bf5081b65910160405180910390a15050565b60016020526000908152604090208054610b55906114e7565b80601f0160208091040260200160405190810160405280929190818152602001828054610b81906114e7565b8015610bce5780601f10610ba357610100808354040283529160200191610bce565b820191906000526020600020905b815481529060010190602001808311610bb157829003601f168201915b505050505081565b801580610c505750604051636eb1769f60e11b81523060048201526001600160a01b03838116602483015284169063dd62ed3e90604401602060405180830381865afa158015610c2a573d6000803e3d6000fd5b505050506040513d601f19601f82011682018060405250810190610c4e9190611879565b155b610cbb5760405162461bcd60e51b815260206004820152603660248201527f5361666545524332303a20617070726f76652066726f6d206e6f6e2d7a65726f60448201527520746f206e6f6e2d7a65726f20616c6c6f77616e636560501b606482015260840161034b565b6040516001600160a01b038316602482015260448101829052610d1e90849063095ea7b360e01b906064015b60408051601f198184030181529190526020810180516001600160e01b03166001600160e01b031990931692909217909152610e07565b505050565b6060610d328484600085610edc565b949350505050565b6000610d47826014611677565b83511015610d8f5760405162461bcd60e51b8152602060048201526015602482015274746f416464726573735f6f75744f66426f756e647360581b604482015260640161034b565b500160200151600160601b900490565b6040516001600160a01b03808516602483015283166044820152606481018290526109769085906323b872dd60e01b90608401610ce7565b6040516001600160a01b038316602482015260448101829052610d1e90849063a9059cbb60e01b90606401610ce7565b6000610e5c826040518060400160405280602081526020017f5361666545524332303a206c6f772d6c6576656c2063616c6c206661696c6564815250856001600160a01b0316610d239092919063ffffffff16565b9050805160001480610e7d575080806020019051810190610e7d9190611892565b610d1e5760405162461bcd60e51b815260206004820152602a60248201527f5361666545524332303a204552433230206f7065726174696f6e20646964206e6044820152691bdd081cdd58d8d9595960b21b606482015260840161034b565b606082471015610f3d5760405162461bcd60e51b815260206004820152602660248201527f416464726573733a20696e73756666696369656e742062616c616e636520666f6044820152651c8818d85b1b60d21b606482015260840161034b565b600080866001600160a01b03168587604051610f5991906118af565b60006040518083038185875af1925050503d8060008114610f96576040519150601f19603f3d011682016040523d82523d6000602084013e610f9b565b606091505b5091509150610fac87838387610fb7565b979650505050505050565b6060831561102357825161101c576001600160a01b0385163b61101c5760405162461bcd60e51b815260206004820152601d60248201527f416464726573733a2063616c6c20746f206e6f6e2d636f6e7472616374000000604482015260640161034b565b5081610d32565b610d3283838151156110385781518083602001fd5b8060405162461bcd60e51b815260040161034b91906114d4565b82805461105e906114e7565b90600052602060002090601f01602090048101928261108057600085556110c6565b82601f106110995782800160ff198235161785556110c6565b828001600101855582156110c6579182015b828111156110c65782358255916020019190600101906110ab565b506110d29291506110d6565b5090565b5b808211156110d257600081556001016110d7565b803561ffff811681146110fd57600080fd5b919050565b60008083601f84011261111457600080fd5b50813567ffffffffffffffff81111561112c57600080fd5b60208301915083602082850101111561114457600080fd5b9250929050565b634e487b7160e01b600052604160045260246000fd5b604051601f8201601f1916810167ffffffffffffffff8111828210171561118a5761118a61114b565b604052919050565b600067ffffffffffffffff8211156111ac576111ac61114b565b50601f01601f191660200190565b600082601f8301126111cb57600080fd5b81356111de6111d982611192565b611161565b8181528460208386010111156111f357600080fd5b816020850160208301376000918101602001919091529392505050565b60008060008060008060008060c0898b03121561122c57600080fd5b611235896110eb565b9750602089013567ffffffffffffffff8082111561125257600080fd5b61125e8c838d01611102565b909950975060408b01359150808216821461127857600080fd5b90955060608a0135908082111561128e57600080fd5b61129a8c838d01611102565b909650945060808b0135935060a08b01359150808211156112ba57600080fd5b506112c78b828c016111ba565b9150509295985092959890939650565b80151581146104fa57600080fd5b6000602082840312156112f757600080fd5b8135611302816112d7565b9392505050565b6001600160a01b03811681146104fa57600080fd5b60006020828403121561133057600080fd5b813561130281611309565b60006020828403121561134d57600080fd5b5035919050565b6000806000806000806080878903121561136d57600080fd5b611376876110eb565b9550602087013567ffffffffffffffff8082111561139357600080fd5b61139f8a838b01611102565b90975095506040890135945060608901359150808211156113bf57600080fd5b506113cc89828a01611102565b979a9699509497509295939492505050565b6000806000604084860312156113f357600080fd5b6113fc846110eb565b9250602084013567ffffffffffffffff81111561141857600080fd5b61142486828701611102565b9497909650939450505050565b6000806040838503121561144457600080fd5b82359150602083013561145681611309565b809150509250929050565b60006020828403121561147357600080fd5b611302826110eb565b60005b8381101561149757818101518382015260200161147f565b838111156109765750506000910152565b600081518084526114c081602086016020860161147c565b601f01601f19169290920160200192915050565b60208152600061130260208301846114a8565b600181811c908216806114fb57607f821691505b6020821081141561151c57634e487b7160e01b600052602260045260246000fd5b50919050565b600080835481600182811c91508083168061153e57607f831692505b602080841082141561155e57634e487b7160e01b86526022600452602486fd5b8180156115725760018114611583576115b0565b60ff198616895284890196506115b0565b60008a81526020902060005b868110156115a85781548b82015290850190830161158f565b505084890196505b509498975050505050505050565b8183823760009101908152919050565b600080604083850312156115e157600080fd5b825160ff811681146115f257600080fd5b602084015190925067ffffffffffffffff81111561160f57600080fd5b8301601f8101851361162057600080fd5b805161162e6111d982611192565b81815286602083850101111561164357600080fd5b61165482602083016020860161147c565b8093505050509250929050565b634e487b7160e01b600052601160045260246000fd5b6000821982111561168a5761168a611661565b500190565b81835281816020850137506000828201602090810191909152601f909101601f19169091010190565b60ff841681526040602082015260006116d560408301848661168f565b95945050505050565b61ffff8916815260e0602082015260006116fb60e083018a6114a8565b886040840152828103606084015261171381896114a8565b905067ffffffffffffffff8716608084015285151560a084015282810360c084015261174081858761168f565b9b9a5050505050505050505050565b6000806040838503121561176257600080fd5b505080516020909101519092909150565b60006020828403121561178557600080fd5b815161130281611309565b6001600160a01b038b8116825261ffff8b166020830152610120604083018190526000916117c08483018d6114a8565b91508a606085015283820360808501526117da828b6114a8565b67ffffffffffffffff8a1660a086015288821660c086015290871660e0850152838103610100850152905061181081858761168f565b9d9c50505050505050505050505050565b6001600160a01b038616815261ffff85166020820152608060408201819052600090611850908301858761168f565b90508260608301529695505050505050565b60008282101561187457611874611661565b500390565b60006020828403121561188b57600080fd5b5051919050565b6000602082840312156118a457600080fd5b8151611302816112d7565b600082516118c181846020870161147c565b919091019291505056fea26469706673582212206e0bab6dfd5cfbb81db406edd6b07db712beea3b9f9b68678bc957c8a694a32464736f6c634300080c0033",
  "linkReferences": {},
  "deployedLinkReferences": {}
}