{
  "address": "0xc3301e01A236002DDa8c1F68b17Ff9117B6A8651",
  "abi": [
    {
      "inputs": [],
      "name": "getBlockNumber",
      "outputs": [
        {
          "internalType": "uint256",
          "name": "",
          "type": "uint256"
        }
      ],
      "stateMutability": "view",
      "type": "function"
    }
  ],
  "transactionHash": "0xe46c69b761690e01ef0a78be9b0f7aa928d775c0fc6adfc349a3ea4cc8ae98d1",
  "args": [],
  "numDeployments": 1,
  "solcInputHash": "7f84568ae1a38a5f8e6c6d3cfad19e46",
  "bytecode": "0x6080604052348015600f57600080fd5b50607f8061001e6000396000f3fe6080604052348015600f57600080fd5b506004361060285760003560e01c806342cbb15c14602d575b600080fd5b60336045565b60408051918252519081900360200190f35b439056fea2646970667358221220be75f0d910f7df649933f8ad169e510d48595ae3b9cb067fea37dc468c7c5ab564736f6c63430007060033",
  "devdoc": {
    "kind": "dev",
    "methods": {},
    "version": 1
  },
  "userdoc": {
    "kind": "user",
    "methods": {},
    "version": 1
  },
  "storageLayout": {
    "storage": [],
    "types": null
  }
}