{
  "address": "0x2D624Dcd01e1BB4f74a541a2Bbc924052180037e",
  "abi": [
    {
      "inputs": [
        {
          "internalType": "address",
          "name": "_factory",
          "type": "address"
        }
      ],
      "stateMutability": "nonpayable",
      "type": "constructor"
    },
    {
      "anonymous": false,
      "inputs": [
        {
          "indexed": true,
          "internalType": "address",
          "name": "previousOwner",
          "type": "address"
        },
        {
          "indexed": true,
          "internalType": "address",
          "name": "newOwner",
          "type": "address"
        }
      ],
      "name": "OwnershipTransferred",
      "type": "event"
    },
    {
      "inputs": [],
      "name": "DELTA_1",
      "outputs": [
        {
          "internalType": "uint256",
          "name": "",
          "type": "uint256"
        }
      ],
      "stateMutability": "view",
      "type": "function"
    },
    {
      "inputs": [],
      "name": "DELTA_2",
      "outputs": [
        {
          "internalType": "uint256",
          "name": "",
          "type": "uint256"
        }
      ],
      "stateMutability": "view",
      "type": "function"
    },
    {
      "inputs": [],
      "name": "DENOMINATOR",
      "outputs": [
        {
          "internalType": "uint256",
          "name": "",
          "type": "uint256"
        }
      ],
      "stateMutability": "view",
      "type": "function"
    },
    {
      "inputs": [],
      "name": "LAMBDA_1",
      "outputs": [
        {
          "internalType": "uint256",
          "name": "",
          "type": "uint256"
        }
      ],
      "stateMutability": "view",
      "type": "function"
    },
    {
      "inputs": [],
      "name": "LAMBDA_2",
      "outputs": [
        {
          "internalType": "uint256",
          "name": "",
          "type": "uint256"
        }
      ],
      "stateMutability": "view",
      "type": "function"
    },
    {
      "inputs": [],
      "name": "LP_FEE",
      "outputs": [
        {
          "internalType": "uint256",
          "name": "",
          "type": "uint256"
        }
      ],
      "stateMutability": "view",
      "type": "function"
    },
    {
      "inputs": [],
      "name": "PROTOCOL_FEE",
      "outputs": [
        {
          "internalType": "uint256",
          "name": "",
          "type": "uint256"
        }
      ],
      "stateMutability": "view",
      "type": "function"
    },
    {
      "inputs": [],
      "name": "PROTOCOL_SUBSIDY",
      "outputs": [
        {
          "internalType": "uint256",
          "name": "",
          "type": "uint256"
        }
      ],
      "stateMutability": "view",
      "type": "function"
    },
    {
      "inputs": [],
      "name": "factory",
      "outputs": [
        {
          "internalType": "contract Factory",
          "name": "",
          "type": "address"
        }
      ],
      "stateMutability": "view",
      "type": "function"
    },
    {
      "inputs": [
        {
          "internalType": "uint256",
          "name": "idealBalance",
          "type": "uint256"
        },
        {
          "internalType": "uint256",
          "name": "beforeBalance",
          "type": "uint256"
        },
        {
          "internalType": "uint256",
          "name": "amountSD",
          "type": "uint256"
        }
      ],
      "name": "getEquilibriumFee",
      "outputs": [
        {
          "internalType": "uint256",
          "name": "",
          "type": "uint256"
        },
        {
          "internalType": "uint256",
          "name": "",
          "type": "uint256"
        }
      ],
      "stateMutability": "pure",
      "type": "function"
    },
    {
      "inputs": [
        {
          "internalType": "uint256",
          "name": "_srcPoolId",
          "type": "uint256"
        },
        {
          "internalType": "uint256",
          "name": "_dstPoolId",
          "type": "uint256"
        },
        {
          "internalType": "uint16",
          "name": "_dstChainId",
          "type": "uint16"
        },
        {
          "internalType": "address",
          "name": "",
          "type": "address"
        },
        {
          "internalType": "uint256",
          "name": "_amountSD",
          "type": "uint256"
        }
      ],
      "name": "getFees",
      "outputs": [
        {
          "components": [
            {
              "internalType": "uint256",
              "name": "amount",
              "type": "uint256"
            },
            {
              "internalType": "uint256",
              "name": "eqFee",
              "type": "uint256"
            },
            {
              "internalType": "uint256",
              "name": "eqReward",
              "type": "uint256"
            },
            {
              "internalType": "uint256",
              "name": "lpFee",
              "type": "uint256"
            },
            {
              "internalType": "uint256",
              "name": "protocolFee",
              "type": "uint256"
            },
            {
              "internalType": "uint256",
              "name": "lkbRemove",
              "type": "uint256"
            }
          ],
          "internalType": "struct Pool.SwapObj",
          "name": "s",
          "type": "tuple"
        }
      ],
      "stateMutability": "view",
      "type": "function"
    },
    {
      "inputs": [
        {
          "internalType": "uint256",
          "name": "lambda",
          "type": "uint256"
        },
        {
          "internalType": "uint256",
          "name": "yOffset",
          "type": "uint256"
        },
        {
          "internalType": "uint256",
          "name": "xUpperBound",
          "type": "uint256"
        },
        {
          "internalType": "uint256",
          "name": "xLowerBound",
          "type": "uint256"
        },
        {
          "internalType": "uint256",
          "name": "xStart",
          "type": "uint256"
        },
        {
          "internalType": "uint256",
          "name": "xEnd",
          "type": "uint256"
        }
      ],
      "name": "getTrapezoidArea",
      "outputs": [
        {
          "internalType": "uint256",
          "name": "",
          "type": "uint256"
        }
      ],
      "stateMutability": "pure",
      "type": "function"
    },
    {
      "inputs": [],
      "name": "getVersion",
      "outputs": [
        {
          "internalType": "string",
          "name": "",
          "type": "string"
        }
      ],
      "stateMutability": "pure",
      "type": "function"
    },
    {
      "inputs": [],
      "name": "owner",
      "outputs": [
        {
          "internalType": "address",
          "name": "",
          "type": "address"
        }
      ],
      "stateMutability": "view",
      "type": "function"
    },
    {
      "inputs": [],
      "name": "renounceOwnership",
      "outputs": [],
      "stateMutability": "nonpayable",
      "type": "function"
    },
    {
      "inputs": [
        {
          "internalType": "address",
          "name": "newOwner",
          "type": "address"
        }
      ],
      "name": "transferOwnership",
      "outputs": [],
      "stateMutability": "nonpayable",
      "type": "function"
    }
  ],
  "transactionHash": "0x2118c709e9fce39042f150ee901e0ddc4b9605ae9189783dbdbf33d8a8cf0f98",
  "args": [
    "0x6695E24B91163f10a17fb92e9cE97bb479fd4C40"
  ],
  "numDeployments": 1,
  "solcInputHash": "7726894fd215076bb1a30f54ef119d8e",
  "bytecode": "0x60a060405234801561001057600080fd5b506040516111f73803806111f783398101604081905261002f916100cf565b60006100396100cb565b600080546001600160a01b0319166001600160a01b0383169081178255604051929350917f8be0079c531659141344cd1fd0a4f28419497f9722a3daafe3b4186f6b6457e0908290a350600180556001600160a01b0381166100b65760405162461bcd60e51b81526004016100ad906100fd565b60405180910390fd5b60601b6001600160601b03191660805261013e565b3390565b6000602082840312156100e0578081fd5b81516001600160a01b03811681146100f6578182fd5b9392505050565b60208082526021908201527f4665654c6962726172793a20466163746f72792063616e6e6f742062652030786040820152600360fc1b606082015260800190565b60805160601c6110976101606000398061027e52806107c752506110976000f3fe608060405234801561001057600080fd5b50600436106101005760003560e01c806360d86e7711610097578063918f867411610066578063918f8674146101d3578063a810de6c146101db578063c45a0155146101e3578063f2fde38b146101eb57610100565b806360d86e7714610199578063715018a6146101ac5780637ba5c12f146101b65780638da5cb5b146101be57610100565b806334b6a602116100d357806334b6a602146101605780633dad0dd514610181578063518a9f9f146101895780635e3f27271461019157610100565b8063012a1c2d146101055780630b4501fd146101235780630d8e6e2c1461012b5780631ab6243014610140575b600080fd5b61010d6101fe565b60405161011a9190610fdb565b60405180910390f35b61010d61020a565b610133610215565b60405161011a9190610ec2565b61015361014e366004610df0565b610234565b60405161011a9190610f83565b61017361016e366004610e41565b610681565b60405161011a929190610fe4565b61010d61069b565b61010d6106a7565b61010d6106b2565b61010d6101a7366004610e6c565b6106bc565b6101b46106d7565b005b61010d610795565b6101c661079f565b60405161011a9190610eae565b61010d6107ae565b61010d6107ba565b6101c66107c5565b6101b46101f9366004610d09565b6107e9565b670dd280b9144a000081565b6601c6bf5263400081565b6040805180820190915260058152640332e302e360dc1b602082015290565b61023c610cb3565b61025f670de0b6b3a7640000610259846601c6bf526340006108fd565b9061095f565b608082015260405163068bcd8d60e01b81526000906001600160a01b037f0000000000000000000000000000000000000000000000000000000000000000169063068bcd8d906102b3908a90600401610fdb565b60206040518083038186803b1580156102cb57600080fd5b505afa1580156102df573d6000803e3d6000fd5b505050506040513d601f19601f820116820180604052508101906103039190610d25565b90506000816001600160a01b031663159f6add87896040518363ffffffff1660e01b8152600401610335929190610fc7565b6101006040518083038186803b15801561034e57600080fd5b505afa158015610362573d6000803e3d6000fd5b505050506040513d601f19601f820116820180604052508101906103869190610d41565b905060008061039e8360e001518460800151886109c6565b60208701829052608087015191935091506103b99082610b42565b8560800181815250506000846001600160a01b031663fc0c546a6040518163ffffffff1660e01b815260040160206040518083038186803b1580156103fd57600080fd5b505afa158015610411573d6000803e3d6000fd5b505050506040513d601f19601f820116820180604052508101906104359190610d25565b90506000610529866001600160a01b031663feb56b156040518163ffffffff1660e01b815260040160206040518083038186803b15801561047557600080fd5b505afa158015610489573d6000803e3d6000fd5b505050506040513d601f19601f820116820180604052508101906104ad9190610dd8565b6040516370a0823160e01b81526001600160a01b038516906370a08231906104d9908b90600401610eae565b60206040518083038186803b1580156104f157600080fd5b505afa158015610505573d6000803e3d6000fd5b505050506040513d601f19601f820116820180604052508101906102599190610dd8565b90506000866001600160a01b03166315770f926040518163ffffffff1660e01b815260040160206040518083038186803b15801561056657600080fd5b505afa15801561057a573d6000803e3d6000fd5b505050506040513d601f19601f8201168201806040525081019061059e9190610dd8565b9050818111156106505760006105b48284610b42565b90506000886001600160a01b0316639bb811196040518163ffffffff1660e01b815260040160206040518083038186803b1580156105f157600080fd5b505afa158015610605573d6000803e3d6000fd5b505050506040513d601f19601f820116820180604052508101906106299190610dd8565b9050600061063b83610259848f6108fd565b9050818111156106485750805b60408b015250505b61066c670de0b6b3a76400006102598b655af3107a40006108fd565b60608901525050505050505095945050505050565b60008061068f8585856109c6565b91509150935093915050565b670853a0d2313c000081565b66b1a2bc2ec5000081565b655af3107a400081565b60006106cc878787878787610b9f565b979650505050505050565b6106df610c55565b6001600160a01b03166106f061079f565b6001600160a01b03161461074b576040805162461bcd60e51b815260206004820181905260248201527f4f776e61626c653a2063616c6c6572206973206e6f7420746865206f776e6572604482015290519081900360640190fd5b600080546040516001600160a01b03909116907f8be0079c531659141344cd1fd0a4f28419497f9722a3daafe3b4186f6b6457e0908390a3600080546001600160a01b0319169055565b651b48eb57e00081565b6000546001600160a01b031690565b670de0b6b3a764000081565b660e35fa931a000081565b7f000000000000000000000000000000000000000000000000000000000000000081565b6107f1610c55565b6001600160a01b031661080261079f565b6001600160a01b03161461085d576040805162461bcd60e51b815260206004820181905260248201527f4f776e61626c653a2063616c6c6572206973206e6f7420746865206f776e6572604482015290519081900360640190fd5b6001600160a01b0381166108a25760405162461bcd60e51b815260040180806020018281038252602681526020018061101b6026913960400191505060405180910390fd5b600080546040516001600160a01b03808516939216917f8be0079c531659141344cd1fd0a4f28419497f9722a3daafe3b4186f6b6457e091a3600080546001600160a01b0319166001600160a01b0392909216919091179055565b60008261090c57506000610959565b8282028284828161091957fe5b04146109565760405162461bcd60e51b81526004018080602001828103825260218152602001806110416021913960400191505060405180910390fd5b90505b92915050565b60008082116109b5576040805162461bcd60e51b815260206004820152601a60248201527f536166654d6174683a206469766973696f6e206279207a65726f000000000000604482015290519081900360640190fd5b8183816109be57fe5b049392505050565b600080828410156109f25760405162461bcd60e51b81526004016109e990610f4c565b60405180910390fd5b60006109fe8585610b42565b90506000610a20670de0b6b3a764000061025989670853a0d2313c00006108fd565b90506000610a41670de0b6b3a76400006102598a66b1a2bc2ec500006108fd565b9050600080838510610a7357610a69670de0b6b3a76400006102598a651b48eb57e0006108fd565b9150819050610b33565b828510610aab576000848a10610a895784610a8b565b895b9050610aa3660e35fa931a000060008787858b610b9f565b925050610b33565b828910610b08576000848a10610ac15784610ac3565b895b9050610ae5610ade660e35fa931a000060008888868a610b9f565b8490610c59565b9250610aa3610ade670dd280b9144a0000660e35fa931a0000876000898c610b9f565b610b30610b29670dd280b9144a0000660e35fa931a00008660008e8b610b9f565b8390610c59565b91505b90999098509650505050505050565b600082821115610b99576040805162461bcd60e51b815260206004820152601e60248201527f536166654d6174683a207375627472616374696f6e206f766572666c6f770000604482015290519081900360640190fd5b50900390565b6000838210158015610bb15750848311155b610bcd5760405162461bcd60e51b81526004016109e990610f15565b6000610bd98686610b42565b90506000610bff88610bf9846102598d610bf38d8c610b42565b906108fd565b90610c59565b90506000610c1989610bf9856102598e610bf38e8c610b42565b90506000610c278787610b42565b9050610c46670de0b6b3a764000061025960028185610bf38989610c59565b9b9a5050505050505050505050565b3390565b600082820183811015610956576040805162461bcd60e51b815260206004820152601b60248201527f536166654d6174683a206164646974696f6e206f766572666c6f770000000000604482015290519081900360640190fd5b6040518060c001604052806000815260200160008152602001600081526020016000815260200160008152602001600081525090565b80518015158114610cf957600080fd5b919050565b8051610cf98161100a565b600060208284031215610d1a578081fd5b813561095681610ff2565b600060208284031215610d36578081fd5b815161095681610ff2565b6000610100808385031215610d54578182fd5b6040519081019067ffffffffffffffff82118183101715610d7157fe5b81604052610d7e84610ce9565b8152610d8c60208501610cfe565b602082015260408401516040820152606084015160608201526080840151608082015260a084015160a082015260c084015160c082015260e084015160e0820152809250505092915050565b600060208284031215610de9578081fd5b5051919050565b600080600080600060a08688031215610e07578081fd5b85359450602086013593506040860135610e208161100a565b92506060860135610e3081610ff2565b949793965091946080013592915050565b600080600060608486031215610e55578283fd5b505081359360208301359350604090920135919050565b60008060008060008060c08789031215610e84578081fd5b505084359660208601359650604086013595606081013595506080810135945060a0013592509050565b6001600160a01b0391909116815260200190565b6000602080835283518082850152825b81811015610eee57858101830151858201604001528201610ed2565b81811115610eff5783604083870101525b50601f01601f1916929092016040019392505050565b6020808252601e908201527f53746172676174653a2062616c616e6365206f7574206f6620626f756e640000604082015260600190565b6020808252601c908201527f53746172676174653a206e6f7420656e6f7567682062616c616e636500000000604082015260600190565b600060c082019050825182526020830151602083015260408301516040830152606083015160608301526080830151608083015260a083015160a083015292915050565b61ffff929092168252602082015260400190565b90815260200190565b918252602082015260400190565b6001600160a01b038116811461100757600080fd5b50565b61ffff8116811461100757600080fdfe4f776e61626c653a206e6577206f776e657220697320746865207a65726f2061646472657373536166654d6174683a206d756c7469706c69636174696f6e206f766572666c6f77a2646970667358221220e3fc4d41702809519ac1c7520ab76b2451fb18e20c4c787f1b1b5822e1bea43e64736f6c63430007060033",
  "devdoc": {
    "kind": "dev",
    "methods": {
      "owner()": {
        "details": "Returns the address of the current owner."
      },
      "renounceOwnership()": {
        "details": "Leaves the contract without owner. It will not be possible to call `onlyOwner` functions anymore. Can only be called by the current owner. NOTE: Renouncing ownership will leave the contract without an owner, thereby removing any functionality that is only available to the owner."
      },
      "transferOwnership(address)": {
        "details": "Transfers ownership of the contract to a new account (`newOwner`). Can only be called by the current owner."
      }
    },
    "version": 1
  },
  "userdoc": {
    "kind": "user",
    "methods": {},
    "version": 1
  },
  "storageLayout": {
    "storage": [
      {
        "astId": 197,
        "contract": "contracts/libraries/StargateFeeLibraryV03.sol:StargateFeeLibraryV03",
        "label": "_owner",
        "offset": 0,
        "slot": "0",
        "type": "t_address"
      },
      {
        "astId": 2270,
        "contract": "contracts/libraries/StargateFeeLibraryV03.sol:StargateFeeLibraryV03",
        "label": "_status",
        "offset": 0,
        "slot": "1",
        "type": "t_uint256"
      }
    ],
    "types": {
      "t_address": {
        "encoding": "inplace",
        "label": "address",
        "numberOfBytes": "20"
      },
      "t_uint256": {
        "encoding": "inplace",
        "label": "uint256",
        "numberOfBytes": "32"
      }
    }
  }
}