{
  "_format": "hh-sol-artifact-1",
  "contractName": "StargateComposed",
  "sourceName": "contracts/StargateComposed.sol",
  "abi": [
    {
      "inputs": [
        {
          "internalType": "address",
          "name": "_stargateRouter",
          "type": "address"
        },
        {
          "internalType": "address",
          "name": "_ammRouter",
          "type": "address"
        }
      ],
      "stateMutability": "nonpayable",
      "type": "constructor"
    },
    {
      "anonymous": false,
      "inputs": [
        {
          "indexed": false,
          "internalType": "address",
          "name": "token",
          "type": "address"
        },
        {
          "indexed": false,
          "internalType": "uint256",
          "name": "qty",
          "type": "uint256"
        }
      ],
      "name": "ReceivedOnDestination",
      "type": "event"
    },
    {
      "inputs": [],
      "name": "OUT_TO_NATIVE",
      "outputs": [
        {
          "internalType": "address",
          "name": "",
          "type": "address"
        }
      ],
      "stateMutability": "view",
      "type": "function"
    },
    {
      "inputs": [],
      "name": "ammRouter",
      "outputs": [
        {
          "internalType": "address",
          "name": "",
          "type": "address"
        }
      ],
      "stateMutability": "view",
      "type": "function"
    },
    {
      "inputs": [
        {
          "internalType": "uint16",
          "name": "",
          "type": "uint16"
        },
        {
          "internalType": "bytes",
          "name": "",
          "type": "bytes"
        },
        {
          "internalType": "uint256",
          "name": "",
          "type": "uint256"
        },
        {
          "internalType": "address",
          "name": "_token",
          "type": "address"
        },
        {
          "internalType": "uint256",
          "name": "amountLD",
          "type": "uint256"
        },
        {
          "internalType": "bytes",
          "name": "payload",
          "type": "bytes"
        }
      ],
      "name": "sgReceive",
      "outputs": [],
      "stateMutability": "nonpayable",
      "type": "function"
    },
    {
      "inputs": [],
      "name": "stargateRouter",
      "outputs": [
        {
          "internalType": "address",
          "name": "",
          "type": "address"
        }
      ],
      "stateMutability": "view",
      "type": "function"
    },
    {
      "inputs": [
        {
          "internalType": "uint16",
          "name": "dstChainId",
          "type": "uint16"
        },
        {
          "internalType": "address",
          "name": "bridgeToken",
          "type": "address"
        },
        {
          "internalType": "uint16",
          "name": "srcPoolId",
          "type": "uint16"
        },
        {
          "internalType": "uint16",
          "name": "dstPoolId",
          "type": "uint16"
        },
        {
          "internalType": "uint256",
          "name": "nativeAmountIn",
          "type": "uint256"
        },
        {
          "internalType": "address",
          "name": "to",
          "type": "address"
        },
        {
          "internalType": "uint256",
          "name": "amountOutMin",
          "type": "uint256"
        },
        {
          "internalType": "uint256",
          "name": "amountOutMinSg",
          "type": "uint256"
        },
        {
          "internalType": "uint256",
          "name": "amountOutMinDest",
          "type": "uint256"
        },
        {
          "internalType": "uint256",
          "name": "deadline",
          "type": "uint256"
        },
        {
          "internalType": "address",
          "name": "destStargateComposed",
          "type": "address"
        }
      ],
      "name": "swapNativeForNative",
      "outputs": [],
      "stateMutability": "payable",
      "type": "function"
    }
  ],
  "bytecode": "0x6080604052600280546001600160a01b031916905534801561002057600080fd5b5060405161124f38038061124f83398101604081905261003f9161008c565b600080546001600160a01b039384166001600160a01b031991821617909155600180549290931691161790556100bf565b80516001600160a01b038116811461008757600080fd5b919050565b6000806040838503121561009f57600080fd5b6100a883610070565b91506100b660208401610070565b90509250929050565b611181806100ce6000396000f3fe60806040526004361061004a5760003560e01c80637b4ad01a1461004f57806390b3c4e71461008b578063a9e56f3c146100ab578063ab8236f3146100cb578063d0328113146100ed575b600080fd5b34801561005b57600080fd5b5060025461006f906001600160a01b031681565b6040516001600160a01b03909116815260200160405180910390f35b34801561009757600080fd5b5060015461006f906001600160a01b031681565b3480156100b757600080fd5b5060005461006f906001600160a01b031681565b3480156100d757600080fd5b506100eb6100e6366004610cb4565b610100565b005b6100eb6100fb366004610d4f565b610736565b6000546001600160a01b031633146101705760405162461bcd60e51b815260206004820152602860248201527f6f6e6c7920737461726761746520726f757465722063616e2063616c6c207367604482015267526563656976652160c01b60648201526084015b60405180910390fd5b6000806000808480602001905181019061018a9190610e00565b60015460405163095ea7b360e01b81526001600160a01b039182166004820152602481018c9052949850929650909450925088169063095ea7b3906044016020604051808303816000875af11580156101e7573d6000803e3d6000fd5b505050506040513d601f19601f8201168201806040525081019061020b9190610e4c565b506001600160a01b038082163190851661046c57604080516002808252606082018352600092602083019080368337019050509050888160008151811061025457610254610e6e565b6001600160a01b03928316602091820292909201810191909152600154604080516315ab88c960e31b81529051919093169263ad5c46489260048083019391928290030181865afa1580156102ad573d6000803e3d6000fd5b505050506040513d601f19601f820116820180604052508101906102d19190610e84565b816001815181106102e4576102e4610e6e565b6001600160a01b0392831660209182029290920101526001546040516318cbafe560e01b81529116906318cbafe590610329908b908890869089908c90600401610ee5565b6000604051808303816000875af192505050801561036957506040513d6000823e601f3d908101601f191682016040526103669190810190610f21565b60015b6104165760405163a9059cbb60e01b81526001600160a01b038481166004830152602482018a90528a169063a9059cbb906044016020604051808303816000875af11580156103bc573d6000803e3d6000fd5b505050506040513d601f19601f820116820180604052508101906103e09190610e4c565b50604080516001600160a01b038b168152602081018a905260008051602061112c833981519152910160405180910390a1610466565b5060025460008051602061112c833981519152906001600160a01b03908116906104439086163185610bbb565b604080516001600160a01b03909316835260208301919091520160405180910390a15b50610729565b6040516370a0823160e01b81526001600160a01b038381166004830152600091908716906370a0823190602401602060405180830381865afa1580156104b6573d6000803e3d6000fd5b505050506040513d601f19601f820116820180604052508101906104da9190610fc7565b6040805160028082526060820183529293506000929091602083019080368337019050509050898160008151811061051457610514610e6e565b60200260200101906001600160a01b031690816001600160a01b031681525050868160018151811061054857610548610e6e565b6001600160a01b0392831660209182029290920101526001546040516338ed173960e01b81529116906338ed17399061058d908c90899086908a908d90600401610ee5565b6000604051808303816000875af19250505080156105cd57506040513d6000823e601f3d908101601f191682016040526105ca9190810190610f21565b60015b61067a5760405163a9059cbb60e01b81526001600160a01b038581166004830152602482018b90528b169063a9059cbb906044016020604051808303816000875af1158015610620573d6000803e3d6000fd5b505050506040513d601f19601f820116820180604052508101906106449190610e4c565b50604080516001600160a01b038c168152602081018b905260008051602061112c833981519152910160405180910390a1610726565b506040516370a0823160e01b81526001600160a01b03858116600483015260008051602061112c8339815191529189916107039186918416906370a0823190602401602060405180830381865afa1580156106d9573d6000803e3d6000fd5b505050506040513d601f19601f820116820180604052508101906106fd9190610fc7565b90610bbb565b604080516001600160a01b03909316835260208301919091520160405180910390a15b50505b5050505050505050505050565b600087116107945760405162461bcd60e51b815260206004820152602560248201527f6e6174697665416d6f756e74496e206d75737420626520677265617465722074604482015264068616e20360dc1b6064820152608401610167565b60006107a03489610bbb565b116108055760405162461bcd60e51b815260206004820152602f60248201527f73746172676174652072657175697265732066656520746f207061792063726f60448201526e7373636861696e206d65737361676560881b6064820152608401610167565b604080516002808252606082018352600092839291906020830190803683375050600154604080516315ab88c960e31b815290519394506001600160a01b039091169263ad5c4648925060048083019260209291908290030181865afa158015610873573d6000803e3d6000fd5b505050506040513d601f19601f820116820180604052508101906108979190610e84565b816000815181106108aa576108aa610e6e565b60200260200101906001600160a01b031690816001600160a01b0316815250508b816001815181106108de576108de610e6e565b6001600160a01b039283166020918202929092010152600154604051637ff36ab560e01b81526000929190911690637ff36ab5908c90610928908c90879030908c90600401610fe0565b60006040518083038185885af1158015610946573d6000803e3d6000fd5b50505050506040513d6000823e601f3d908101601f1916820160405261096f9190810190610f21565b90508060018151811061098457610984610e6e565b6020026020010151925060008311610a045760405162461bcd60e51b815260206004820152603960248201527f6572726f723a20616d6d526f757465722067617665207573203020746f6b656e60448201527f7320746f207377617028292077697468207374617267617465000000000000006064820152608401610167565b60005460405163095ea7b360e01b81526001600160a01b03918216600482015260248101859052908e169063095ea7b3906044016020604051808303816000875af1158015610a57573d6000803e3d6000fd5b505050506040513d601f19601f82011682018060405250810190610a7b9190610e4c565b5050600254604080516001600160a01b0392831660208201529081018690526060808201889052918a16608082015290915060a00160408051601f198184030181529190526000549091506001600160a01b0316639fbf10fc610ade348c610bbb565b8f8e8e33888d60405180606001604052806207a12081526020016000815260200160405180604001604052806002815260200161060f60f31b8152508152508c604051602001610b46919060609190911b6bffffffffffffffffffffffff1916815260140190565b6040516020818303038152906040528b6040518b63ffffffff1660e01b8152600401610b7a99989796959493929190611062565b6000604051808303818588803b158015610b9357600080fd5b505af1158015610ba7573d6000803e3d6000fd5b505050505050505050505050505050505050565b6000610bc78284611106565b9392505050565b803561ffff81168114610be057600080fd5b919050565b634e487b7160e01b600052604160045260246000fd5b604051601f8201601f1916810167ffffffffffffffff81118282101715610c2457610c24610be5565b604052919050565b600082601f830112610c3d57600080fd5b813567ffffffffffffffff811115610c5757610c57610be5565b610c6a601f8201601f1916602001610bfb565b818152846020838601011115610c7f57600080fd5b816020850160208301376000918101602001919091529392505050565b6001600160a01b0381168114610cb157600080fd5b50565b60008060008060008060c08789031215610ccd57600080fd5b610cd687610bce565b9550602087013567ffffffffffffffff80821115610cf357600080fd5b610cff8a838b01610c2c565b96506040890135955060608901359150610d1882610c9c565b9093506080880135925060a08801359080821115610d3557600080fd5b50610d4289828a01610c2c565b9150509295509295509295565b60008060008060008060008060008060006101608c8e031215610d7157600080fd5b610d7a8c610bce565b9a5060208c0135610d8a81610c9c565b9950610d9860408d01610bce565b9850610da660608d01610bce565b975060808c0135965060a08c0135610dbd81610c9c565b955060c08c0135945060e08c013593506101008c013592506101208c013591506101408c0135610dec81610c9c565b809150509295989b509295989b9093969950565b60008060008060808587031215610e1657600080fd5b8451610e2181610c9c565b8094505060208501519250604085015191506060850151610e4181610c9c565b939692955090935050565b600060208284031215610e5e57600080fd5b81518015158114610bc757600080fd5b634e487b7160e01b600052603260045260246000fd5b600060208284031215610e9657600080fd5b8151610bc781610c9c565b600081518084526020808501945080840160005b83811015610eda5781516001600160a01b031687529582019590820190600101610eb5565b509495945050505050565b85815284602082015260a060408201526000610f0460a0830186610ea1565b6001600160a01b0394909416606083015250608001529392505050565b60006020808385031215610f3457600080fd5b825167ffffffffffffffff80821115610f4c57600080fd5b818501915085601f830112610f6057600080fd5b815181811115610f7257610f72610be5565b8060051b9150610f83848301610bfb565b8181529183018401918481019088841115610f9d57600080fd5b938501935b83851015610fbb57845182529385019390850190610fa2565b98975050505050505050565b600060208284031215610fd957600080fd5b5051919050565b848152608060208201526000610ff96080830186610ea1565b6001600160a01b03949094166040830152506060015292915050565b6000815180845260005b8181101561103b5760208185018101518683018201520161101f565b8181111561104d576000602083870101525b50601f01601f19169290920160200192915050565b600061012061ffff808d168452808c166020850152808b1660408501525060018060a01b03891660608401528760808401528660a08401528060c0840152855181840152506020850151610140830152604085015160606101608401526110cd610180840182611015565b905082810360e08401526110e18186611015565b90508281036101008401526110f68185611015565b9c9b505050505050505050505050565b60008282101561112657634e487b7160e01b600052601160045260246000fd5b50039056fe9055ece9d44a86bda76b7ffbee0015dcdd504bd121fe9d4afd5300275ee817bea264697066735822122013490e75ca027bfe72ec39bcde0d8ed4a883fd22d8c4c1a5058d5cf0cefe64f964736f6c634300080c0033",
  "linkReferences": {},
  "deployedLinkReferences": {}
}