{
  "address": "0xfbfbfDdd6e35dA57b7B0F9a2C10E34Be70B3A4E9",
  "abi": [
    {
      "inputs": [
        {
          "internalType": "address[]",
          "name": "_messageLibs",
          "type": "address[]"
        },
        {
          "internalType": "address",
          "name": "_priceFeed",
          "type": "address"
        },
        {
          "internalType": "address[]",
          "name": "_signers",
          "type": "address[]"
        },
        {
          "internalType": "uint64",
          "name": "_quorum",
          "type": "uint64"
        },
        {
          "internalType": "address[]",
          "name": "_admins",
          "type": "address[]"
        }
      ],
      "stateMutability": "nonpayable",
      "type": "constructor"
    },
    {
      "anonymous": false,
      "inputs": [
        {
          "indexed": false,
          "internalType": "uint32",
          "name": "dstEid",
          "type": "uint32"
        },
        {
          "indexed": false,
          "internalType": "address",
          "name": "oapp",
          "type": "address"
        },
        {
          "indexed": false,
          "internalType": "uint64",
          "name": "confirmations",
          "type": "uint64"
        },
        {
          "indexed": false,
          "internalType": "uint256",
          "name": "totalFee",
          "type": "uint256"
        }
      ],
      "name": "AssignJob",
      "type": "event"
    },
    {
      "anonymous": false,
      "inputs": [
        {
          "indexed": false,
          "internalType": "uint256",
          "name": "_index",
          "type": "uint256"
        },
        {
          "indexed": false,
          "internalType": "bytes",
          "name": "_data",
          "type": "bytes"
        }
      ],
      "name": "ExecuteFailed",
      "type": "event"
    },
    {
      "anonymous": false,
      "inputs": [
        {
          "components": [
            {
              "internalType": "address",
              "name": "target",
              "type": "address"
            },
            {
              "internalType": "bytes",
              "name": "callData",
              "type": "bytes"
            },
            {
              "internalType": "uint256",
              "name": "expiration",
              "type": "uint256"
            },
            {
              "internalType": "bytes",
              "name": "signatures",
              "type": "bytes"
            }
          ],
          "indexed": false,
          "internalType": "struct ExecuteParam",
          "name": "param",
          "type": "tuple"
        },
        {
          "indexed": false,
          "internalType": "bytes32",
          "name": "_hash",
          "type": "bytes32"
        }
      ],
      "name": "HashAlreadyUsed",
      "type": "event"
    },
    {
      "anonymous": false,
      "inputs": [
        {
          "indexed": true,
          "internalType": "bytes32",
          "name": "role",
          "type": "bytes32"
        },
        {
          "indexed": true,
          "internalType": "bytes32",
          "name": "previousAdminRole",
          "type": "bytes32"
        },
        {
          "indexed": true,
          "internalType": "bytes32",
          "name": "newAdminRole",
          "type": "bytes32"
        }
      ],
      "name": "RoleAdminChanged",
      "type": "event"
    },
    {
      "anonymous": false,
      "inputs": [
        {
          "indexed": true,
          "internalType": "bytes32",
          "name": "role",
          "type": "bytes32"
        },
        {
          "indexed": true,
          "internalType": "address",
          "name": "account",
          "type": "address"
        },
        {
          "indexed": true,
          "internalType": "address",
          "name": "sender",
          "type": "address"
        }
      ],
      "name": "RoleGranted",
      "type": "event"
    },
    {
      "anonymous": false,
      "inputs": [
        {
          "indexed": true,
          "internalType": "bytes32",
          "name": "role",
          "type": "bytes32"
        },
        {
          "indexed": true,
          "internalType": "address",
          "name": "account",
          "type": "address"
        },
        {
          "indexed": true,
          "internalType": "address",
          "name": "sender",
          "type": "address"
        }
      ],
      "name": "RoleRevoked",
      "type": "event"
    },
    {
      "anonymous": false,
      "inputs": [
        {
          "indexed": false,
          "internalType": "uint16",
          "name": "multiplierBps",
          "type": "uint16"
        }
      ],
      "name": "SetDefaultMultiplierBps",
      "type": "event"
    },
    {
      "anonymous": false,
      "inputs": [
        {
          "components": [
            {
              "internalType": "uint32",
              "name": "dstEid",
              "type": "uint32"
            },
            {
              "internalType": "uint64",
              "name": "gas",
              "type": "uint64"
            },
            {
              "internalType": "uint16",
              "name": "multiplierBps",
              "type": "uint16"
            },
            {
              "internalType": "uint128",
              "name": "floorMarginUSD",
              "type": "uint128"
            }
          ],
          "indexed": false,
          "internalType": "struct IOracle.DstConfigParam[]",
          "name": "params",
          "type": "tuple[]"
        }
      ],
      "name": "SetDstConfig",
      "type": "event"
    },
    {
      "anonymous": false,
      "inputs": [
        {
          "indexed": false,
          "internalType": "address",
          "name": "priceFeed",
          "type": "address"
        }
      ],
      "name": "SetPriceFeed",
      "type": "event"
    },
    {
      "anonymous": false,
      "inputs": [
        {
          "indexed": false,
          "internalType": "address",
          "name": "workerLib",
          "type": "address"
        }
      ],
      "name": "SetWorkerLib",
      "type": "event"
    },
    {
      "anonymous": false,
      "inputs": [
        {
          "indexed": false,
          "internalType": "uint64",
          "name": "_quorum",
          "type": "uint64"
        }
      ],
      "name": "UpdateQuorum",
      "type": "event"
    },
    {
      "anonymous": false,
      "inputs": [
        {
          "indexed": false,
          "internalType": "address",
          "name": "_signer",
          "type": "address"
        },
        {
          "indexed": false,
          "internalType": "bool",
          "name": "_active",
          "type": "bool"
        }
      ],
      "name": "UpdateSigner",
      "type": "event"
    },
    {
      "anonymous": false,
      "inputs": [
        {
          "indexed": false,
          "internalType": "address",
          "name": "lib",
          "type": "address"
        },
        {
          "indexed": false,
          "internalType": "address",
          "name": "to",
          "type": "address"
        },
        {
          "indexed": false,
          "internalType": "uint256",
          "name": "amount",
          "type": "uint256"
        }
      ],
      "name": "Withdraw",
      "type": "event"
    },
    {
      "inputs": [],
      "name": "ADMIN_ROLE",
      "outputs": [
        {
          "internalType": "bytes32",
          "name": "",
          "type": "bytes32"
        }
      ],
      "stateMutability": "view",
      "type": "function"
    },
    {
      "inputs": [],
      "name": "ALLOWLIST",
      "outputs": [
        {
          "internalType": "bytes32",
          "name": "",
          "type": "bytes32"
        }
      ],
      "stateMutability": "view",
      "type": "function"
    },
    {
      "inputs": [],
      "name": "DEFAULT_ADMIN_ROLE",
      "outputs": [
        {
          "internalType": "bytes32",
          "name": "",
          "type": "bytes32"
        }
      ],
      "stateMutability": "view",
      "type": "function"
    },
    {
      "inputs": [],
      "name": "DENYLIST",
      "outputs": [
        {
          "internalType": "bytes32",
          "name": "",
          "type": "bytes32"
        }
      ],
      "stateMutability": "view",
      "type": "function"
    },
    {
      "inputs": [],
      "name": "MESSAGE_LIB_ROLE",
      "outputs": [
        {
          "internalType": "bytes32",
          "name": "",
          "type": "bytes32"
        }
      ],
      "stateMutability": "view",
      "type": "function"
    },
    {
      "inputs": [],
      "name": "allowlistSize",
      "outputs": [
        {
          "internalType": "uint64",
          "name": "",
          "type": "uint64"
        }
      ],
      "stateMutability": "view",
      "type": "function"
    },
    {
      "inputs": [
        {
          "internalType": "uint16",
          "name": "_dstEid",
          "type": "uint16"
        },
        {
          "internalType": "uint16",
          "name": "",
          "type": "uint16"
        },
        {
          "internalType": "uint64",
          "name": "_confirmations",
          "type": "uint64"
        },
        {
          "internalType": "address",
          "name": "_sender",
          "type": "address"
        }
      ],
      "name": "assignJob",
      "outputs": [
        {
          "internalType": "uint256",
          "name": "totalFee",
          "type": "uint256"
        }
      ],
      "stateMutability": "nonpayable",
      "type": "function"
    },
    {
      "inputs": [
        {
          "internalType": "uint32",
          "name": "_dstEid",
          "type": "uint32"
        },
        {
          "internalType": "uint64",
          "name": "_confirmations",
          "type": "uint64"
        },
        {
          "internalType": "address",
          "name": "_sender",
          "type": "address"
        },
        {
          "internalType": "bytes",
          "name": "_options",
          "type": "bytes"
        }
      ],
      "name": "assignJob",
      "outputs": [
        {
          "internalType": "uint256",
          "name": "totalFee",
          "type": "uint256"
        }
      ],
      "stateMutability": "payable",
      "type": "function"
    },
    {
      "inputs": [],
      "name": "defaultMultiplierBps",
      "outputs": [
        {
          "internalType": "uint16",
          "name": "",
          "type": "uint16"
        }
      ],
      "stateMutability": "view",
      "type": "function"
    },
    {
      "inputs": [
        {
          "internalType": "uint32",
          "name": "dstEid",
          "type": "uint32"
        }
      ],
      "name": "dstConfig",
      "outputs": [
        {
          "internalType": "uint64",
          "name": "gas",
          "type": "uint64"
        },
        {
          "internalType": "uint16",
          "name": "multiplierBps",
          "type": "uint16"
        },
        {
          "internalType": "uint128",
          "name": "floorMarginUSD",
          "type": "uint128"
        }
      ],
      "stateMutability": "view",
      "type": "function"
    },
    {
      "inputs": [
        {
          "components": [
            {
              "internalType": "address",
              "name": "target",
              "type": "address"
            },
            {
              "internalType": "bytes",
              "name": "callData",
              "type": "bytes"
            },
            {
              "internalType": "uint256",
              "name": "expiration",
              "type": "uint256"
            },
            {
              "internalType": "bytes",
              "name": "signatures",
              "type": "bytes"
            }
          ],
          "internalType": "struct ExecuteParam[]",
          "name": "_params",
          "type": "tuple[]"
        }
      ],
      "name": "execute",
      "outputs": [],
      "stateMutability": "nonpayable",
      "type": "function"
    },
    {
      "inputs": [
        {
          "internalType": "uint32",
          "name": "_dstEid",
          "type": "uint32"
        },
        {
          "internalType": "uint64",
          "name": "_confirmations",
          "type": "uint64"
        },
        {
          "internalType": "address",
          "name": "_sender",
          "type": "address"
        },
        {
          "internalType": "bytes",
          "name": "_options",
          "type": "bytes"
        }
      ],
      "name": "getFee",
      "outputs": [
        {
          "internalType": "uint256",
          "name": "fee",
          "type": "uint256"
        }
      ],
      "stateMutability": "view",
      "type": "function"
    },
    {
      "inputs": [
        {
          "internalType": "uint16",
          "name": "_dstEid",
          "type": "uint16"
        },
        {
          "internalType": "uint16",
          "name": "",
          "type": "uint16"
        },
        {
          "internalType": "uint64",
          "name": "_confirmations",
          "type": "uint64"
        },
        {
          "internalType": "address",
          "name": "_sender",
          "type": "address"
        }
      ],
      "name": "getFee",
      "outputs": [
        {
          "internalType": "uint256",
          "name": "fee",
          "type": "uint256"
        }
      ],
      "stateMutability": "view",
      "type": "function"
    },
    {
      "inputs": [
        {
          "internalType": "bytes32",
          "name": "role",
          "type": "bytes32"
        }
      ],
      "name": "getRoleAdmin",
      "outputs": [
        {
          "internalType": "bytes32",
          "name": "",
          "type": "bytes32"
        }
      ],
      "stateMutability": "view",
      "type": "function"
    },
    {
      "inputs": [
        {
          "internalType": "bytes32",
          "name": "role",
          "type": "bytes32"
        },
        {
          "internalType": "address",
          "name": "account",
          "type": "address"
        }
      ],
      "name": "grantRole",
      "outputs": [],
      "stateMutability": "nonpayable",
      "type": "function"
    },
    {
      "inputs": [
        {
          "internalType": "bytes32",
          "name": "role",
          "type": "bytes32"
        },
        {
          "internalType": "address",
          "name": "account",
          "type": "address"
        }
      ],
      "name": "hasRole",
      "outputs": [
        {
          "internalType": "bool",
          "name": "",
          "type": "bool"
        }
      ],
      "stateMutability": "view",
      "type": "function"
    },
    {
      "inputs": [
        {
          "internalType": "address",
          "name": "_target",
          "type": "address"
        },
        {
          "internalType": "bytes",
          "name": "_callData",
          "type": "bytes"
        },
        {
          "internalType": "uint256",
          "name": "_expiration",
          "type": "uint256"
        }
      ],
      "name": "hashCallData",
      "outputs": [
        {
          "internalType": "bytes32",
          "name": "",
          "type": "bytes32"
        }
      ],
      "stateMutability": "pure",
      "type": "function"
    },
    {
      "inputs": [],
      "name": "paused",
      "outputs": [
        {
          "internalType": "bool",
          "name": "",
          "type": "bool"
        }
      ],
      "stateMutability": "view",
      "type": "function"
    },
    {
      "inputs": [],
      "name": "priceFeed",
      "outputs": [
        {
          "internalType": "address",
          "name": "",
          "type": "address"
        }
      ],
      "stateMutability": "view",
      "type": "function"
    },
    {
      "inputs": [],
      "name": "quorum",
      "outputs": [
        {
          "internalType": "uint64",
          "name": "",
          "type": "uint64"
        }
      ],
      "stateMutability": "view",
      "type": "function"
    },
    {
      "inputs": [
        {
          "internalType": "bytes32",
          "name": "",
          "type": "bytes32"
        },
        {
          "internalType": "address",
          "name": "",
          "type": "address"
        }
      ],
      "name": "renounceRole",
      "outputs": [],
      "stateMutability": "nonpayable",
      "type": "function"
    },
    {
      "inputs": [
        {
          "internalType": "bytes32",
          "name": "role",
          "type": "bytes32"
        },
        {
          "internalType": "address",
          "name": "account",
          "type": "address"
        }
      ],
      "name": "revokeRole",
      "outputs": [],
      "stateMutability": "nonpayable",
      "type": "function"
    },
    {
      "inputs": [
        {
          "internalType": "uint16",
          "name": "_multiplierBps",
          "type": "uint16"
        }
      ],
      "name": "setDefaultMultiplierBps",
      "outputs": [],
      "stateMutability": "nonpayable",
      "type": "function"
    },
    {
      "inputs": [
        {
          "components": [
            {
              "internalType": "uint32",
              "name": "dstEid",
              "type": "uint32"
            },
            {
              "internalType": "uint64",
              "name": "gas",
              "type": "uint64"
            },
            {
              "internalType": "uint16",
              "name": "multiplierBps",
              "type": "uint16"
            },
            {
              "internalType": "uint128",
              "name": "floorMarginUSD",
              "type": "uint128"
            }
          ],
          "internalType": "struct IOracle.DstConfigParam[]",
          "name": "_params",
          "type": "tuple[]"
        }
      ],
      "name": "setDstConfig",
      "outputs": [],
      "stateMutability": "nonpayable",
      "type": "function"
    },
    {
      "inputs": [
        {
          "internalType": "bool",
          "name": "_paused",
          "type": "bool"
        }
      ],
      "name": "setPaused",
      "outputs": [],
      "stateMutability": "nonpayable",
      "type": "function"
    },
    {
      "inputs": [
        {
          "internalType": "address",
          "name": "_priceFeed",
          "type": "address"
        }
      ],
      "name": "setPriceFeed",
      "outputs": [],
      "stateMutability": "nonpayable",
      "type": "function"
    },
    {
      "inputs": [
        {
          "internalType": "uint64",
          "name": "_quorum",
          "type": "uint64"
        }
      ],
      "name": "setQuorum",
      "outputs": [],
      "stateMutability": "nonpayable",
      "type": "function"
    },
    {
      "inputs": [
        {
          "internalType": "address",
          "name": "_signer",
          "type": "address"
        },
        {
          "internalType": "bool",
          "name": "_active",
          "type": "bool"
        }
      ],
      "name": "setSigner",
      "outputs": [],
      "stateMutability": "nonpayable",
      "type": "function"
    },
    {
      "inputs": [
        {
          "internalType": "address",
          "name": "_workerFeeLib",
          "type": "address"
        }
      ],
      "name": "setWorkerFeeLib",
      "outputs": [],
      "stateMutability": "nonpayable",
      "type": "function"
    },
    {
      "inputs": [
        {
          "internalType": "contract IUltraLightNode",
          "name": "_uln",
          "type": "address"
        },
        {
          "internalType": "bytes",
          "name": "_packetHeader",
          "type": "bytes"
        },
        {
          "internalType": "bytes32",
          "name": "_payloadHash",
          "type": "bytes32"
        },
        {
          "internalType": "uint64",
          "name": "_confirmations",
          "type": "uint64"
        }
      ],
      "name": "signAndDeliver",
      "outputs": [],
      "stateMutability": "nonpayable",
      "type": "function"
    },
    {
      "inputs": [],
      "name": "signerSize",
      "outputs": [
        {
          "internalType": "uint64",
          "name": "",
          "type": "uint64"
        }
      ],
      "stateMutability": "view",
      "type": "function"
    },
    {
      "inputs": [
        {
          "internalType": "address",
          "name": "signer",
          "type": "address"
        }
      ],
      "name": "signers",
      "outputs": [
        {
          "internalType": "bool",
          "name": "active",
          "type": "bool"
        }
      ],
      "stateMutability": "view",
      "type": "function"
    },
    {
      "inputs": [
        {
          "internalType": "bytes4",
          "name": "interfaceId",
          "type": "bytes4"
        }
      ],
      "name": "supportsInterface",
      "outputs": [
        {
          "internalType": "bool",
          "name": "",
          "type": "bool"
        }
      ],
      "stateMutability": "view",
      "type": "function"
    },
    {
      "inputs": [
        {
          "internalType": "bytes32",
          "name": "executableHash",
          "type": "bytes32"
        }
      ],
      "name": "usedHashes",
      "outputs": [
        {
          "internalType": "bool",
          "name": "used",
          "type": "bool"
        }
      ],
      "stateMutability": "view",
      "type": "function"
    },
    {
      "inputs": [
        {
          "internalType": "bytes32",
          "name": "_hash",
          "type": "bytes32"
        },
        {
          "internalType": "bytes",
          "name": "_signatures",
          "type": "bytes"
        }
      ],
      "name": "verifySignatures",
      "outputs": [
        {
          "internalType": "bool",
          "name": "",
          "type": "bool"
        }
      ],
      "stateMutability": "view",
      "type": "function"
    },
    {
      "inputs": [
        {
          "internalType": "address",
          "name": "_lib",
          "type": "address"
        },
        {
          "internalType": "address payable",
          "name": "_to",
          "type": "address"
        },
        {
          "internalType": "uint256",
          "name": "_amount",
          "type": "uint256"
        }
      ],
      "name": "withdrawFee",
      "outputs": [],
      "stateMutability": "nonpayable",
      "type": "function"
    },
    {
      "inputs": [
        {
          "internalType": "address",
          "name": "_lib",
          "type": "address"
        },
        {
          "internalType": "address payable",
          "name": "_to",
          "type": "address"
        },
        {
          "internalType": "uint256",
          "name": "_amount",
          "type": "uint256"
        }
      ],
      "name": "withdrawFeeFromUlnV2",
      "outputs": [],
      "stateMutability": "nonpayable",
      "type": "function"
    },
    {
      "inputs": [],
      "name": "workerFeeLib",
      "outputs": [
        {
          "internalType": "address",
          "name": "",
          "type": "address"
        }
      ],
      "stateMutability": "view",
      "type": "function"
    }
  ],
  "transactionHash": "0x0a2b2b8bf6194762ce3545a79f971215367f81717bd38cdf46fc96dcafa14620",
  "args": [
    [
      "0x0f5D1ef48f12b6f691401bfe88c2037c690a6afe",
      "0x381445710b5e73d34aF196c53A3D5cDa58EDBf7A"
    ],
    "0x13D69Cf7d6CE4218F646B759Dcf334D82c023d8e",
    [
      "0x9c79357189d6aF261691ECF48de9A6bbF30438Fc",
      "0xC4c81D5C1851702d27d602aA8ff830A7689F17cc"
    ],
    1,
    [
      "0xc13b65f7c53Cd6db2EA205a4b574b4a0858720A6",
      "0x0e9971c0005D91336c1441b8F03c1C4fe5FB4584"
    ]
  ],
  "numDeployments": 1,
  "solcInputHash": "5ffde9e3e6b2b0a4f1d21e15c800c066",
  "bytecode": "0x60806040523480156200001157600080fd5b50604051620044813803806200448183398101604081905262000034916200050a565b6001805461ffff60e01b191661017760e51b179055600280546001600160a01b0319166001600160a01b03861617905582828686612ee06000866200007a8280620002d0565b60005b8551811015620000ea57620000d57f724aface199fe5bed93ae8508474576a9adf3dc443b2c451842a2242919f19de878381518110620000c157620000c1620005c8565b6020026020010151620002d060201b60201c565b80620000e181620005f4565b9150506200007d565b5060005b81518110156200014757620001327fa49807205ce4d355092ef5a8a18f56e8913cf4a201fbe287825b095693c21775838381518110620000c157620000c1620005c8565b806200013e81620005f4565b915050620000ee565b505050505050806001600160401b03168251101580156200017157506000816001600160401b0316115b620001c35760405162461bcd60e51b815260206004820152601960248201527f4d756c74695369673a207369676e65727320746f6f206665770000000000000060448201526064015b60405180910390fd5b6000805b83518110156200028f576000848281518110620001e857620001e8620005c8565b60200260200101519050826001600160a01b0316816001600160a01b031611620002555760405162461bcd60e51b815260206004820152601c60248201527f4d756c74695369673a207369676e657273206e6f7420736f72746564000000006044820152606401620001ba565b6001600160a01b0381166000908152600360205260409020805460ff191660011790559150806200028681620005f4565b915050620001c7565b50509051600480546001600160401b0393841668010000000000000000026001600160801b0319909116939092169290921717905550620006419350505050565b7f74845de37cfabd357633214b47fa91ccd19b05b7c5a08ac22c187f811fb62bca821480156200032157506000828152602081815260408083206001600160a01b038516845290915290205460ff16155b156200036f5760018054600160a01b90046001600160401b0316906014620003498362000610565b91906101000a8154816001600160401b0302191690836001600160401b03160217905550505b6200038682826200038a60201b620023111760201c565b5050565b6000828152602081815260408083206001600160a01b038516845290915290205460ff1662000386576000828152602081815260408083206001600160a01b03851684529091529020805460ff19166001179055620003e63390565b6001600160a01b0316816001600160a01b0316837f2f8788117e7eff1d82e926ec794901d17c78024a50270940304540a733656f0d60405160405180910390a45050565b634e487b7160e01b600052604160045260246000fd5b80516001600160a01b03811681146200045857600080fd5b919050565b600082601f8301126200046f57600080fd5b815160206001600160401b03808311156200048e576200048e6200042a565b8260051b604051601f19603f83011681018181108482111715620004b657620004b66200042a565b604052938452858101830193838101925087851115620004d557600080fd5b83870191505b84821015620004ff57620004ef8262000440565b83529183019190830190620004db565b979650505050505050565b600080600080600060a086880312156200052357600080fd5b85516001600160401b03808211156200053b57600080fd5b6200054989838a016200045d565b9650620005596020890162000440565b955060408801519150808211156200057057600080fd5b6200057e89838a016200045d565b94506060880151915080821682146200059657600080fd5b608088015191935080821115620005ac57600080fd5b50620005bb888289016200045d565b9150509295509295909350565b634e487b7160e01b600052603260045260246000fd5b634e487b7160e01b600052601160045260246000fd5b600060018201620006095762000609620005de565b5060010190565b60006001600160401b038281166002600160401b03198101620006375762000637620005de565b6001019392505050565b613e3080620006516000396000f3fe6080604052600436106102845760003560e01c806375b238fc11610153578063c5e193cd116100cb578063dafe0ccc1161007f578063e4fbd90311610064578063e4fbd903146108f7578063f3ad31f41461090a578063fd62e7501461092a57600080fd5b8063dafe0ccc146108b7578063de980a43146108d757600080fd5b8063c7b2370b116100b0578063c7b2370b1461083e578063d2ae21041461085e578063d547741f1461089757600080fd5b8063c5e193cd146107fe578063c7a823e01461081e57600080fd5b8063a217fddf11610122578063aef18bf711610107578063aef18bf714610781578063c358de0a146107b1578063c416aa51146107d157600080fd5b8063a217fddf14610738578063a98586e11461074d57600080fd5b806375b238fc146105ee5780638585c9451461062257806391d14854146106425780639e9449651461069357600080fd5b80632f2ff15d116102015780635553fb8e116101b5578063724e78da1161019a578063724e78da1461054c578063736c0d5b1461056c578063741bef1a1461059c57600080fd5b80635553fb8e146104fa5780635c975abb1461051a57600080fd5b806331cb6105116101e657806331cb61051461049a57806336568abe146104ba57806352d3b871146104da57600080fd5b80632f2ff15d1461045a57806330bb3aac1461047a57600080fd5b806316c38b3c116102585780631f3a6f041161023d5780631f3a6f04146103d6578063248a9ca31461040a5780632d80eb361461043a57600080fd5b806316c38b3c146103705780631703a0181461039057600080fd5b8062bf2e801461028957806301ffc9a7146102dc578063036c0a2c1461030c5780631095b6d71461034e575b600080fd5b34801561029557600080fd5b506001546102c4907c0100000000000000000000000000000000000000000000000000000000900461ffff1681565b60405161ffff90911681526020015b60405180910390f35b3480156102e857600080fd5b506102fc6102f7366004612f1d565b61094b565b60405190151581526020016102d3565b34801561031857600080fd5b506103407f4270fae16c6d150d00e80b689daca99e8073b1838ff2b6063a37be9d851283e481565b6040519081526020016102d3565b34801561035a57600080fd5b5061036e610369366004612f81565b6109e4565b005b34801561037c57600080fd5b5061036e61038b366004612fd0565b610ba8565b34801561039c57600080fd5b506004546103bd9068010000000000000000900467ffffffffffffffff1681565b60405167ffffffffffffffff90911681526020016102d3565b3480156103e257600080fd5b506103407f74845de37cfabd357633214b47fa91ccd19b05b7c5a08ac22c187f811fb62bca81565b34801561041657600080fd5b50610340610425366004612fed565b60009081526020819052604090206001015490565b34801561044657600080fd5b5061036e610455366004613006565b610bfe565b34801561046657600080fd5b5061036e61047536600461307b565b610e43565b34801561048657600080fd5b50610340610495366004613183565b610fef565b3480156104a657600080fd5b5061036e6104b536600461326a565b6112ac565b3480156104c657600080fd5b5061036e6104d536600461307b565b611323565b3480156104e657600080fd5b5061036e6104f53660046132aa565b611385565b34801561050657600080fd5b506103406105153660046133c0565b61150b565b34801561052657600080fd5b506002546102fc9074010000000000000000000000000000000000000000900460ff1681565b34801561055857600080fd5b5061036e610567366004613416565b61171b565b34801561057857600080fd5b506102fc610587366004613416565b60036020526000908152604090205460ff1681565b3480156105a857600080fd5b506002546105c99073ffffffffffffffffffffffffffffffffffffffff1681565b60405173ffffffffffffffffffffffffffffffffffffffff90911681526020016102d3565b3480156105fa57600080fd5b506103407fa49807205ce4d355092ef5a8a18f56e8913cf4a201fbe287825b095693c2177581565b34801561062e57600080fd5b5061036e61063d366004613433565b6117b8565b34801561064e57600080fd5b506102fc61065d36600461307b565b60009182526020828152604080842073ffffffffffffffffffffffffffffffffffffffff93909316845291905290205460ff1690565b34801561069f57600080fd5b506106fd6106ae36600461344e565b60056020526000908152604090205467ffffffffffffffff81169068010000000000000000810461ffff16906a010000000000000000000090046fffffffffffffffffffffffffffffffff1683565b6040805167ffffffffffffffff909416845261ffff90921660208401526fffffffffffffffffffffffffffffffff16908201526060016102d3565b34801561074457600080fd5b50610340600081565b34801561075957600080fd5b506103407f724aface199fe5bed93ae8508474576a9adf3dc443b2c451842a2242919f19de81565b34801561078d57600080fd5b506102fc61079c366004612fed565b60066020526000908152604090205460ff1681565b3480156107bd57600080fd5b5061036e6107cc366004613469565b61182d565b3480156107dd57600080fd5b506001546105c99073ffffffffffffffffffffffffffffffffffffffff1681565b34801561080a57600080fd5b506103406108193660046133c0565b6118da565b34801561082a57600080fd5b506102fc6108393660046134cd565b6119a3565b34801561084a57600080fd5b5061036e610859366004613416565b611bb9565b34801561086a57600080fd5b506001546103bd9074010000000000000000000000000000000000000000900467ffffffffffffffff1681565b3480156108a357600080fd5b5061036e6108b236600461307b565b611c5f565b3480156108c357600080fd5b5061036e6108d2366004612f81565b611da4565b3480156108e357600080fd5b5061036e6108f2366004613519565b611f0a565b610340610905366004613589565b6121f1565b34801561091657600080fd5b50610340610925366004613601565b6122d8565b34801561093657600080fd5b506004546103bd9067ffffffffffffffff1681565b60007fffffffff0000000000000000000000000000000000000000000000000000000082167f7965db0b0000000000000000000000000000000000000000000000000000000014806109de57507f01ffc9a7000000000000000000000000000000000000000000000000000000007fffffffff000000000000000000000000000000000000000000000000000000008316145b92915050565b7fa49807205ce4d355092ef5a8a18f56e8913cf4a201fbe287825b095693c21775610a0e81612401565b73ffffffffffffffffffffffffffffffffffffffff841660009081527f9b50f4667d2d24216ccbf0dce3a90c0f620fa4d895e7b069d80ff6247fd25620602052604090205460ff16610ac1576040517f08c379a000000000000000000000000000000000000000000000000000000000815260206004820152601b60248201527f576f726b65723a20496e76616c6964206d657373616765206c6962000000000060448201526064015b60405180910390fd5b6040517ffd9be52200000000000000000000000000000000000000000000000000000000815273ffffffffffffffffffffffffffffffffffffffff84811660048301526024820184905285169063fd9be52290604401600060405180830381600087803b158015610b3157600080fd5b505af1158015610b45573d6000803e3d6000fd5b50506040805173ffffffffffffffffffffffffffffffffffffffff8089168252871660208201529081018590527f9b1bfa7fa9ee420a16e124f794c35ac9f90472acc99140eb2f6447c714cad8eb9250606001905060405180910390a150505050565b6000610bb381612401565b506002805491151574010000000000000000000000000000000000000000027fffffffffffffffffffffff00ffffffffffffffffffffffffffffffffffffffff909216919091179055565b7fa49807205ce4d355092ef5a8a18f56e8913cf4a201fbe287825b095693c21775610c2881612401565b60005b82811015610e3d5736848483818110610c4657610c4661365d565b9050602002810190610c58919061368c565b905042816040013511610c6b5750610e2b565b6000610c94610c7d6020840184613416565b610c8a60208501856136ca565b85604001356122d8565b9050610cb4610ca660208401846136ca565b610caf9161372f565b61240b565b15610d485760008181526006602052604090205460ff1615610d10577f9c26528f222eb4f79639dea7fe30c7257c124af7ed741437170674ca68249e4e8282604051610d01929190613824565b60405180910390a15050610e2b565b600081815260066020526040902080547fffffffffffffffffffffffffffffffffffffffffffffffffffffffffffffff001660011790555b610d598161083960608501856136ca565b15610e2857600080610d6e6020850185613416565b73ffffffffffffffffffffffffffffffffffffffff16610d9160208601866136ca565b604051610d9f9291906138d3565b6000604051808303816000865af19150503d8060008114610ddc576040519150601f19603f3d011682016040523d82523d6000602084013e610de1565b606091505b509150915081610e25577fdc8cdd96296241bbefda4a8e18ad2e0985a8da6495b34d409cfc4c886ee3b0cf8582604051610e1c929190613951565b60405180910390a15b50505b50505b80610e35816139a1565b915050610c2b565b50505050565b817f74845de37cfabd357633214b47fa91ccd19b05b7c5a08ac22c187f811fb62bca811480610e9157507f4270fae16c6d150d00e80b689daca99e8073b1838ff2b6063a37be9d851283e481145b80610ebb57507f724aface199fe5bed93ae8508474576a9adf3dc443b2c451842a2242919f19de81145b15610f2e57303314610f29576040517f08c379a000000000000000000000000000000000000000000000000000000000815260206004820152601b60248201527f4f7261636c653a2063616c6c6572206d7573742062652073656c6600000000006044820152606401610ab8565b610fe0565b7fa49807205ce4d355092ef5a8a18f56e8913cf4a201fbe287825b095693c217758103610f7e57610f297fa49807205ce4d355092ef5a8a18f56e8913cf4a201fbe287825b095693c21775612401565b6040517f08c379a000000000000000000000000000000000000000000000000000000000815260206004820152601460248201527f4f7261636c653a20696e76616c696420726f6c650000000000000000000000006044820152606401610ab8565b610fea83836124f4565b505050565b73ffffffffffffffffffffffffffffffffffffffff821660009081527f93c430521711328044ae92d0f1f1286cf040bc4a382f1642bd89984e866305536020526040812054839060ff16156110a0576040517f08c379a000000000000000000000000000000000000000000000000000000000815260206004820152601360248201527f576f726b65723a206e6f7420616c6c6f776564000000000000000000000000006044820152606401610ab8565b60015474010000000000000000000000000000000000000000900467ffffffffffffffff161580611115575073ffffffffffffffffffffffffffffffffffffffff811660009081527f4ac82e3087b7dedf7f532cbc6915c722df8c1e31f1388c318a617b52760eaf8b602052604090205460ff165b15611241576040805160c08101825260025473ffffffffffffffffffffffffffffffffffffffff908116825263ffffffff8916602080840182905267ffffffffffffffff808b1685870152898416606086015260048054680100000000000000009004909116608086015260015461ffff7c010000000000000000000000000000000000000000000000000000000082041660a0870152600093845260059092529185902094517f7bfa20a90000000000000000000000000000000000000000000000000000000081529394921692637bfa20a9926111f89286928a91016139d9565b602060405180830381865afa158015611215573d6000803e3d6000fd5b505050506040513d601f19601f820116820180604052508101906112399190613aa6565b9250506112a3565b6040517f08c379a000000000000000000000000000000000000000000000000000000000815260206004820152601360248201527f576f726b65723a206e6f7420616c6c6f776564000000000000000000000000006044820152606401610ab8565b50949350505050565b303314611315576040517f08c379a000000000000000000000000000000000000000000000000000000000815260206004820152601b60248201527f4f7261636c653a2063616c6c6572206d7573742062652073656c6600000000006044820152606401610ab8565b61131f82826125ba565b5050565b6040517f08c379a000000000000000000000000000000000000000000000000000000000815260206004820152601c60248201527f576f726b65723a2063616e6e6f742072656e6f756e636520726f6c65000000006044820152606401610ab8565b7fa49807205ce4d355092ef5a8a18f56e8913cf4a201fbe287825b095693c217756113af81612401565b60005b82518110156114cf5760008382815181106113cf576113cf61365d565b60209081029190910181015160408051606080820183528385015167ffffffffffffffff90811683528385015161ffff908116848801908152928601516fffffffffffffffffffffffffffffffff908116858701908152965163ffffffff16600090815260059098529490962092518354925195519094166a0100000000000000000000027fffffffffffff00000000000000000000000000000000ffffffffffffffffffff9590961668010000000000000000027fffffffffffffffffffffffffffffffffffffffffffff00000000000000000000909216931692909217919091179190911691909117905550806114c7816139a1565b9150506113b2565b507f7dd21e42791b013d1929e86f0c59085e4fca24251f0f1aa81917b3b1611766e0826040516114ff9190613abf565b60405180910390a15050565b73ffffffffffffffffffffffffffffffffffffffff811660009081527f93c430521711328044ae92d0f1f1286cf040bc4a382f1642bd89984e866305536020526040812054829060ff16156115bc576040517f08c379a000000000000000000000000000000000000000000000000000000000815260206004820152601360248201527f576f726b65723a206e6f7420616c6c6f776564000000000000000000000000006044820152606401610ab8565b60015474010000000000000000000000000000000000000000900467ffffffffffffffff161580611631575073ffffffffffffffffffffffffffffffffffffffff811660009081527f4ac82e3087b7dedf7f532cbc6915c722df8c1e31f1388c318a617b52760eaf8b602052604090205460ff165b15611241576040805160c08101825260025473ffffffffffffffffffffffffffffffffffffffff908116825261ffff808a16602080850182905267ffffffffffffffff808b168688015289851660608701526004805468010000000000000000900490911660808701526001547c0100000000000000000000000000000000000000000000000000000000810490941660a08701526000928352600582528683208751928301885292825295517f7bfa20a900000000000000000000000000000000000000000000000000000000815294959290931693637bfa20a9936111f893879392016139d9565b7fa49807205ce4d355092ef5a8a18f56e8913cf4a201fbe287825b095693c2177561174581612401565b600280547fffffffffffffffffffffffff00000000000000000000000000000000000000001673ffffffffffffffffffffffffffffffffffffffff84169081179091556040519081527ff724a45d041687842411f2b977ef22ab8f43c8f1104f4592b42a00f9b34a643d906020016114ff565b303314611821576040517f08c379a000000000000000000000000000000000000000000000000000000000815260206004820152601b60248201527f4f7261636c653a2063616c6c6572206d7573742062652073656c6600000000006044820152606401610ab8565b61182a81612824565b50565b7fa49807205ce4d355092ef5a8a18f56e8913cf4a201fbe287825b095693c2177561185781612401565b600180547fffff0000ffffffffffffffffffffffffffffffffffffffffffffffffffffffff167c010000000000000000000000000000000000000000000000000000000061ffff8516908102919091179091556040519081527f7af0ac740036ffb1c97b03697859d729e80a44ae5030543d64971c313565ab4d906020016114ff565b60007f724aface199fe5bed93ae8508474576a9adf3dc443b2c451842a2242919f19de61190681612401565b60008661ffff16905061192a81868660405180602001604052806000815250610fef565b6040805163ffffffff8416815273ffffffffffffffffffffffffffffffffffffffff8716602082015267ffffffffffffffff8816818301526060810183905290519194507f2fc4e514b16a8f0f9f15009b848663b25939a33de41fa2b98a534b3ac4d5a572919081900360800190a15050949350505050565b6004546000906119ca9068010000000000000000900467ffffffffffffffff166041613b49565b8210156119d957506000611bb2565b6000611a32856040517f19457468657265756d205369676e6564204d6573736167653a0a3332000000006020820152603c8101829052600090605c01604051602081830303815290604052805190602001209050919050565b90506000805b60045468010000000000000000900467ffffffffffffffff16811015611baa576000806000611a9e89898080601f01602080910402602001604051908101604052809392919081815260200183838082843760009201919091525088925061292f915050565b925092509250600060018785858560405160008152602001604052604051611ae2949392919093845260ff9290921660208401526040830152606082015260800190565b6020604051602081039080840390855afa158015611b04573d6000803e3d6000fd5b5050506020604051035190508573ffffffffffffffffffffffffffffffffffffffff168173ffffffffffffffffffffffffffffffffffffffff1611611b53576000975050505050505050611bb2565b73ffffffffffffffffffffffffffffffffffffffff811660009081526003602052604090205460ff16611b90576000975050505050505050611bb2565b809550505050508080611ba2906139a1565b915050611a38565b506001925050505b9392505050565b7fa49807205ce4d355092ef5a8a18f56e8913cf4a201fbe287825b095693c21775611be381612401565b611bec8261294d565b600180547fffffffffffffffffffffffff00000000000000000000000000000000000000001673ffffffffffffffffffffffffffffffffffffffff84169081179091556040519081527f1399be28223800f8669b3ba5f8721d9fc16fc4e8d0bbf98378791c8c5a3015e0906020016114ff565b817f74845de37cfabd357633214b47fa91ccd19b05b7c5a08ac22c187f811fb62bca811480611cad57507f4270fae16c6d150d00e80b689daca99e8073b1838ff2b6063a37be9d851283e481145b80611cd757507f724aface199fe5bed93ae8508474576a9adf3dc443b2c451842a2242919f19de81145b15611d4a57303314611d45576040517f08c379a000000000000000000000000000000000000000000000000000000000815260206004820152601b60248201527f4f7261636c653a2063616c6c6572206d7573742062652073656c6600000000006044820152606401610ab8565b611d9a565b7fa49807205ce4d355092ef5a8a18f56e8913cf4a201fbe287825b095693c217758103610f7e57611d457fa49807205ce4d355092ef5a8a18f56e8913cf4a201fbe287825b095693c21775612401565b610fea8383612a87565b7fa49807205ce4d355092ef5a8a18f56e8913cf4a201fbe287825b095693c21775611dce81612401565b73ffffffffffffffffffffffffffffffffffffffff841660009081527f9b50f4667d2d24216ccbf0dce3a90c0f620fa4d895e7b069d80ff6247fd25620602052604090205460ff16611e7c576040517f08c379a000000000000000000000000000000000000000000000000000000000815260206004820152601b60248201527f4f7261636c653a20496e76616c6964206d657373616765206c696200000000006044820152606401610ab8565b6040517f07b18bde00000000000000000000000000000000000000000000000000000000815273ffffffffffffffffffffffffffffffffffffffff8481166004830152602482018490528516906307b18bde90604401600060405180830381600087803b158015611eec57600080fd5b505af1158015611f00573d6000803e3d6000fd5b5050505050505050565b303314611f73576040517f08c379a000000000000000000000000000000000000000000000000000000000815260206004820152601b60248201527f4f7261636c653a2063616c6c6572206d7573742062652073656c6600000000006044820152606401610ab8565b73ffffffffffffffffffffffffffffffffffffffff851660009081527f9b50f4667d2d24216ccbf0dce3a90c0f620fa4d895e7b069d80ff6247fd25620602052604090205460ff16612021576040517f08c379a000000000000000000000000000000000000000000000000000000000815260206004820152601360248201527f4f7261636c653a20696e76616c696420756c6e000000000000000000000000006044820152606401610ab8565b6040517f7e09a8d600000000000000000000000000000000000000000000000000000000815273ffffffffffffffffffffffffffffffffffffffff861690637e09a8d690612079908790879087908790600401613b60565b600060405180830381600087803b15801561209357600080fd5b505af11580156120a7573d6000803e3d6000fd5b50600192506120b4915050565b6040517f7c0cf76300000000000000000000000000000000000000000000000000000000815273ffffffffffffffffffffffffffffffffffffffff871690637c0cf7639061210a90889088908890600401613bc4565b602060405180830381865afa158015612127573d6000803e3d6000fd5b505050506040513d601f19601f8201168201806040525081019061214b9190613be8565b600381111561215c5761215c613b95565b036121ea576040517f5ed31c5900000000000000000000000000000000000000000000000000000000815273ffffffffffffffffffffffffffffffffffffffff861690635ed31c59906121b790879087908790600401613bc4565b600060405180830381600087803b1580156121d157600080fd5b505af11580156121e5573d6000803e3d6000fd5b505050505b5050505050565b60007f724aface199fe5bed93ae8508474576a9adf3dc443b2c451842a2242919f19de61221d81612401565b61225f87878787878080601f016020809104026020016040519081016040528093929190818152602001838380828437600092019190915250610fef92505050565b6040805163ffffffff8a16815273ffffffffffffffffffffffffffffffffffffffff8816602082015267ffffffffffffffff8916818301526060810183905290519193507f2fc4e514b16a8f0f9f15009b848663b25939a33de41fa2b98a534b3ac4d5a572919081900360800190a15095945050505050565b6000848285856040516020016122f19493929190613c09565b604051602081830303815290604052805190602001209050949350505050565b60008281526020818152604080832073ffffffffffffffffffffffffffffffffffffffff8516845290915290205460ff1661131f5760008281526020818152604080832073ffffffffffffffffffffffffffffffffffffffff85168452909152902080547fffffffffffffffffffffffffffffffffffffffffffffffffffffffffffffff001660011790556123a33390565b73ffffffffffffffffffffffffffffffffffffffff168173ffffffffffffffffffffffffffffffffffffffff16837f2f8788117e7eff1d82e926ec794901d17c78024a50270940304540a733656f0d60405160405180910390a45050565b61182a8133612b4c565b60007fffffffff0000000000000000000000000000000000000000000000000000000082167f7e09a8d600000000000000000000000000000000000000000000000000000000148015906124a157507fffffffff0000000000000000000000000000000000000000000000000000000082167fde980a430000000000000000000000000000000000000000000000000000000014155b80156109de57507fffffffff0000000000000000000000000000000000000000000000000000000082167f704316e500000000000000000000000000000000000000000000000000000000141592915050565b7f74845de37cfabd357633214b47fa91ccd19b05b7c5a08ac22c187f811fb62bca82148015612551575060008281526020818152604080832073ffffffffffffffffffffffffffffffffffffffff8516845290915290205460ff16155b156125b0576001805474010000000000000000000000000000000000000000900467ffffffffffffffff1690601461258883613c4f565b91906101000a81548167ffffffffffffffff021916908367ffffffffffffffff160217905550505b61131f8282612311565b73ffffffffffffffffffffffffffffffffffffffff821660009081526003602052604090205481151560ff909116151503612677576040517f08c379a000000000000000000000000000000000000000000000000000000000815260206004820152602660248201527f4d756c74695369673a207369676e657220616c726561647920696e207468617460448201527f20737461746500000000000000000000000000000000000000000000000000006064820152608401610ab8565b73ffffffffffffffffffffffffffffffffffffffff8216600090815260036020526040902080547fffffffffffffffffffffffffffffffffffffffffffffffffffffffffffffff0016821515179055806126e9576004546126e49060019067ffffffffffffffff16613c76565b612701565b6004546127019067ffffffffffffffff166001613c9e565b600480547fffffffffffffffffffffffffffffffffffffffffffffffff00000000000000001667ffffffffffffffff928316908117918290556801000000000000000090910490911611156127d7576040517f08c379a0000000000000000000000000000000000000000000000000000000008152602060048201526024808201527f4d756c74695369673a20636f6d6d69747465652073697a65203c20746872657360448201527f686f6c64000000000000000000000000000000000000000000000000000000006064820152608401610ab8565b6040805173ffffffffffffffffffffffffffffffffffffffff8416815282151560208201527f863d338cad74814b108a06288ad5e0e80d56495e0332238b1d2cdcfa0ca8e5ce91016114ff565b60045467ffffffffffffffff9081169082161180159061284e575060008167ffffffffffffffff16115b6128b4576040517f08c379a000000000000000000000000000000000000000000000000000000000815260206004820152601860248201527f4d756c74695369673a20696e76616c69642071756f72756d00000000000000006044820152606401610ab8565b600480547fffffffffffffffffffffffffffffffff0000000000000000ffffffffffffffff166801000000000000000067ffffffffffffffff8416908102919091179091556040519081527fb600f3cf7f38a4b49bb0c75f722ef69f7e3e39ef3bb4aa8207fd86e724a232499060200160405180910390a150565b60419081029190910160208101516040820151919092015160ff1692565b6040517f01ffc9a70000000000000000000000000000000000000000000000000000000081527f7bfa20a900000000000000000000000000000000000000000000000000000000600482015273ffffffffffffffffffffffffffffffffffffffff8216906301ffc9a790602401602060405180830381865afa1580156129d7573d6000803e3d6000fd5b505050506040513d601f19601f820116820180604052508101906129fb9190613cbf565b61182a576040517f08c379a000000000000000000000000000000000000000000000000000000000815260206004820152603760248201527f4f7261636c653a20776f726b657220666565206c696220646f6573206e6f742060448201527f696d706c656d656e7420494f7261636c654665654c69620000000000000000006064820152608401610ab8565b7f74845de37cfabd357633214b47fa91ccd19b05b7c5a08ac22c187f811fb62bca82148015612ae3575060008281526020818152604080832073ffffffffffffffffffffffffffffffffffffffff8516845290915290205460ff165b15612b42576001805474010000000000000000000000000000000000000000900467ffffffffffffffff16906014612b1a83613cdc565b91906101000a81548167ffffffffffffffff021916908367ffffffffffffffff160217905550505b61131f8282612c04565b60008281526020818152604080832073ffffffffffffffffffffffffffffffffffffffff8516845290915290205460ff1661131f57612b8a81612cbb565b612b95836020612cda565b604051602001612ba6929190613d1e565b604080517fffffffffffffffffffffffffffffffffffffffffffffffffffffffffffffffe0818403018152908290527f08c379a0000000000000000000000000000000000000000000000000000000008252610ab891600401613d9f565b60008281526020818152604080832073ffffffffffffffffffffffffffffffffffffffff8516845290915290205460ff161561131f5760008281526020818152604080832073ffffffffffffffffffffffffffffffffffffffff8516808552925280832080547fffffffffffffffffffffffffffffffffffffffffffffffffffffffffffffff0016905551339285917ff6391f5c32d9c69d2a47ea670b442974b53935d1edc7fd64eb21e047a839171b9190a45050565b60606109de73ffffffffffffffffffffffffffffffffffffffff831660145b60606000612ce9836002613b49565b612cf4906002613db2565b67ffffffffffffffff811115612d0c57612d0c6130dc565b6040519080825280601f01601f191660200182016040528015612d36576020820181803683370190505b5090507f300000000000000000000000000000000000000000000000000000000000000081600081518110612d6d57612d6d61365d565b60200101907effffffffffffffffffffffffffffffffffffffffffffffffffffffffffffff1916908160001a9053507f780000000000000000000000000000000000000000000000000000000000000081600181518110612dd057612dd061365d565b60200101907effffffffffffffffffffffffffffffffffffffffffffffffffffffffffffff1916908160001a9053506000612e0c846002613b49565b612e17906001613db2565b90505b6001811115612eb4577f303132333435363738396162636465660000000000000000000000000000000085600f1660108110612e5857612e5861365d565b1a60f81b828281518110612e6e57612e6e61365d565b60200101907effffffffffffffffffffffffffffffffffffffffffffffffffffffffffffff1916908160001a90535060049490941c93612ead81613dc5565b9050612e1a565b508315611bb2576040517f08c379a000000000000000000000000000000000000000000000000000000000815260206004820181905260248201527f537472696e67733a20686578206c656e67746820696e73756666696369656e746044820152606401610ab8565b600060208284031215612f2f57600080fd5b81357fffffffff0000000000000000000000000000000000000000000000000000000081168114611bb257600080fd5b73ffffffffffffffffffffffffffffffffffffffff8116811461182a57600080fd5b600080600060608486031215612f9657600080fd5b8335612fa181612f5f565b92506020840135612fb181612f5f565b929592945050506040919091013590565b801515811461182a57600080fd5b600060208284031215612fe257600080fd5b8135611bb281612fc2565b600060208284031215612fff57600080fd5b5035919050565b6000806020838503121561301957600080fd5b823567ffffffffffffffff8082111561303157600080fd5b818501915085601f83011261304557600080fd5b81358181111561305457600080fd5b8660208260051b850101111561306957600080fd5b60209290920196919550909350505050565b6000806040838503121561308e57600080fd5b8235915060208301356130a081612f5f565b809150509250929050565b803563ffffffff811681146130bf57600080fd5b919050565b803567ffffffffffffffff811681146130bf57600080fd5b7f4e487b7100000000000000000000000000000000000000000000000000000000600052604160045260246000fd5b6040516080810167ffffffffffffffff8111828210171561312e5761312e6130dc565b60405290565b604051601f82017fffffffffffffffffffffffffffffffffffffffffffffffffffffffffffffffe016810167ffffffffffffffff8111828210171561317b5761317b6130dc565b604052919050565b6000806000806080858703121561319957600080fd5b6131a2856130ab565b935060206131b18187016130c4565b935060408601356131c181612f5f565b9250606086013567ffffffffffffffff808211156131de57600080fd5b818801915088601f8301126131f257600080fd5b813581811115613204576132046130dc565b613234847fffffffffffffffffffffffffffffffffffffffffffffffffffffffffffffffe0601f84011601613134565b9150808252898482850101111561324a57600080fd5b808484018584013760008482840101525080935050505092959194509250565b6000806040838503121561327d57600080fd5b823561328881612f5f565b915060208301356130a081612fc2565b803561ffff811681146130bf57600080fd5b600060208083850312156132bd57600080fd5b823567ffffffffffffffff808211156132d557600080fd5b818501915085601f8301126132e957600080fd5b8135818111156132fb576132fb6130dc565b613309848260051b01613134565b818152848101925060079190911b83018401908782111561332957600080fd5b928401925b818410156133b557608084890312156133475760008081fd5b61334f61310b565b613358856130ab565b81526133658686016130c4565b868201526040613376818701613298565b908201526060858101356fffffffffffffffffffffffffffffffff8116811461339f5760008081fd5b908201528352608093909301929184019161332e565b979650505050505050565b600080600080608085870312156133d657600080fd5b6133df85613298565b93506133ed60208601613298565b92506133fb604086016130c4565b9150606085013561340b81612f5f565b939692955090935050565b60006020828403121561342857600080fd5b8135611bb281612f5f565b60006020828403121561344557600080fd5b611bb2826130c4565b60006020828403121561346057600080fd5b611bb2826130ab565b60006020828403121561347b57600080fd5b611bb282613298565b60008083601f84011261349657600080fd5b50813567ffffffffffffffff8111156134ae57600080fd5b6020830191508360208285010111156134c657600080fd5b9250929050565b6000806000604084860312156134e257600080fd5b83359250602084013567ffffffffffffffff81111561350057600080fd5b61350c86828701613484565b9497909650939450505050565b60008060008060006080868803121561353157600080fd5b853561353c81612f5f565b9450602086013567ffffffffffffffff81111561355857600080fd5b61356488828901613484565b9095509350506040860135915061357d606087016130c4565b90509295509295909350565b6000806000806000608086880312156135a157600080fd5b6135aa866130ab565b94506135b8602087016130c4565b935060408601356135c881612f5f565b9250606086013567ffffffffffffffff8111156135e457600080fd5b6135f088828901613484565b969995985093965092949392505050565b6000806000806060858703121561361757600080fd5b843561362281612f5f565b9350602085013567ffffffffffffffff81111561363e57600080fd5b61364a87828801613484565b9598909750949560400135949350505050565b7f4e487b7100000000000000000000000000000000000000000000000000000000600052603260045260246000fd5b600082357fffffffffffffffffffffffffffffffffffffffffffffffffffffffffffffff818336030181126136c057600080fd5b9190910192915050565b60008083357fffffffffffffffffffffffffffffffffffffffffffffffffffffffffffffffe18436030181126136ff57600080fd5b83018035915067ffffffffffffffff82111561371a57600080fd5b6020019150368190038213156134c657600080fd5b7fffffffff00000000000000000000000000000000000000000000000000000000813581811691600485101561376f5780818660040360031b1b83161692505b505092915050565b60008083357fffffffffffffffffffffffffffffffffffffffffffffffffffffffffffffffe18436030181126137ac57600080fd5b830160208101925035905067ffffffffffffffff8111156137cc57600080fd5b8036038213156134c657600080fd5b8183528181602085013750600060208284010152600060207fffffffffffffffffffffffffffffffffffffffffffffffffffffffffffffffe0601f840116840101905092915050565b604081526000833561383581612f5f565b73ffffffffffffffffffffffffffffffffffffffff16604083015261385d6020850185613777565b6080606085015261387260c0850182846137db565b9150506040850135608084015261388c6060860186613777565b7fffffffffffffffffffffffffffffffffffffffffffffffffffffffffffffffc08584030160a08601526138c18382846137db565b93505050508260208301529392505050565b8183823760009101908152919050565b60005b838110156138fe5781810151838201526020016138e6565b50506000910152565b6000815180845261391f8160208601602086016138e3565b601f017fffffffffffffffffffffffffffffffffffffffffffffffffffffffffffffffe0169290920160200192915050565b82815260406020820152600061396a6040830184613907565b949350505050565b7f4e487b7100000000000000000000000000000000000000000000000000000000600052601160045260246000fd5b60007fffffffffffffffffffffffffffffffffffffffffffffffffffffffffffffffff82036139d2576139d2613972565b5060010190565b600061014073ffffffffffffffffffffffffffffffffffffffff80875116845263ffffffff6020880151166020850152604087015167ffffffffffffffff80821660408701528260608a01511660608701528060808a015116608087015250505061ffff60a08701511660a0840152613a8960c08401865467ffffffffffffffff81168252604081811c61ffff16602084015260509190911c6fffffffffffffffffffffffffffffffff16910152565b80610120840152613a9c81840185613907565b9695505050505050565b600060208284031215613ab857600080fd5b5051919050565b602080825282518282018190526000919060409081850190868401855b82811015613b3c578151805163ffffffff1685528681015167ffffffffffffffff16878601528581015161ffff16868601526060908101516fffffffffffffffffffffffffffffffff169085015260809093019290850190600101613adc565b5091979650505050505050565b80820281158282048414176109de576109de613972565b606081526000613b746060830186886137db565b905083602083015267ffffffffffffffff8316604083015295945050505050565b7f4e487b7100000000000000000000000000000000000000000000000000000000600052602160045260246000fd5b604081526000613bd86040830185876137db565b9050826020830152949350505050565b600060208284031215613bfa57600080fd5b815160048110611bb257600080fd5b7fffffffffffffffffffffffffffffffffffffffff0000000000000000000000008560601b16815283601482015281836034830137600091016034019081529392505050565b600067ffffffffffffffff808316818103613c6c57613c6c613972565b6001019392505050565b67ffffffffffffffff828116828216039080821115613c9757613c97613972565b5092915050565b67ffffffffffffffff818116838216019080821115613c9757613c97613972565b600060208284031215613cd157600080fd5b8151611bb281612fc2565b600067ffffffffffffffff821680613cf657613cf6613972565b7fffffffffffffffffffffffffffffffffffffffffffffffffffffffffffffffff0192915050565b7f416363657373436f6e74726f6c3a206163636f756e7420000000000000000000815260008351613d568160178501602088016138e3565b7f206973206d697373696e6720726f6c65200000000000000000000000000000006017918401918201528351613d938160288401602088016138e3565b01602801949350505050565b602081526000611bb26020830184613907565b808201808211156109de576109de613972565b600081613dd457613dd4613972565b507fffffffffffffffffffffffffffffffffffffffffffffffffffffffffffffffff019056fea2646970667358221220e817ab18a267a996bbdc1adf70f33cba24869bf3f7c98183293b2045b479422a64736f6c63430008120033",
  "devdoc": {
    "events": {
      "RoleAdminChanged(bytes32,bytes32,bytes32)": {
        "details": "Emitted when `newAdminRole` is set as ``role``'s admin role, replacing `previousAdminRole` `DEFAULT_ADMIN_ROLE` is the starting admin for all roles, despite {RoleAdminChanged} not being emitted signaling this. _Available since v3.1._"
      },
      "RoleGranted(bytes32,address,address)": {
        "details": "Emitted when `account` is granted `role`. `sender` is the account that originated the contract call, an admin role bearer except when using {AccessControl-_setupRole}."
      },
      "RoleRevoked(bytes32,address,address)": {
        "details": "Emitted when `account` is revoked `role`. `sender` is the account that originated the contract call:   - if using `revokeRole`, it is the admin role bearer   - if using `renounceRole`, it is the role bearer (i.e. `account`)"
      }
    },
    "kind": "dev",
    "methods": {
      "getRoleAdmin(bytes32)": {
        "details": "Returns the admin role that controls `role`. See {grantRole} and {revokeRole}. To change a role's admin, use {_setRoleAdmin}."
      },
      "grantRole(bytes32,address)": {
        "details": "Grants `role` to `account`. If `account` had not been already granted `role`, emits a {RoleGranted} event. Requirements: - the caller must have ``role``'s admin role. May emit a {RoleGranted} event."
      },
      "hasRole(bytes32,address)": {
        "details": "Returns `true` if `account` has been granted `role`."
      },
      "revokeRole(bytes32,address)": {
        "details": "Revokes `role` from `account`. If `account` had been granted `role`, emits a {RoleRevoked} event. Requirements: - the caller must have ``role``'s admin role. May emit a {RoleRevoked} event."
      },
      "supportsInterface(bytes4)": {
        "details": "See {IERC165-supportsInterface}."
      }
    },
    "version": 1
  },
  "userdoc": {
    "kind": "user",
    "methods": {},
    "version": 1
  },
  "storageLayout": {
    "storage": [
      {
        "astId": 5255,
        "contract": "contracts/uln/MultiSigOracle.sol:MultiSigOracle",
        "label": "_roles",
        "offset": 0,
        "slot": "0",
        "type": "t_mapping(t_bytes32,t_struct(RoleData)5250_storage)"
      },
      {
        "astId": 11407,
        "contract": "contracts/uln/MultiSigOracle.sol:MultiSigOracle",
        "label": "workerFeeLib",
        "offset": 0,
        "slot": "1",
        "type": "t_address"
      },
      {
        "astId": 11409,
        "contract": "contracts/uln/MultiSigOracle.sol:MultiSigOracle",
        "label": "allowlistSize",
        "offset": 20,
        "slot": "1",
        "type": "t_uint64"
      },
      {
        "astId": 11411,
        "contract": "contracts/uln/MultiSigOracle.sol:MultiSigOracle",
        "label": "defaultMultiplierBps",
        "offset": 28,
        "slot": "1",
        "type": "t_uint16"
      },
      {
        "astId": 11413,
        "contract": "contracts/uln/MultiSigOracle.sol:MultiSigOracle",
        "label": "priceFeed",
        "offset": 0,
        "slot": "2",
        "type": "t_address"
      },
      {
        "astId": 11415,
        "contract": "contracts/uln/MultiSigOracle.sol:MultiSigOracle",
        "label": "paused",
        "offset": 20,
        "slot": "2",
        "type": "t_bool"
      },
      {
        "astId": 12289,
        "contract": "contracts/uln/MultiSigOracle.sol:MultiSigOracle",
        "label": "signers",
        "offset": 0,
        "slot": "3",
        "type": "t_mapping(t_address,t_bool)"
      },
      {
        "astId": 12291,
        "contract": "contracts/uln/MultiSigOracle.sol:MultiSigOracle",
        "label": "signerSize",
        "offset": 0,
        "slot": "4",
        "type": "t_uint64"
      },
      {
        "astId": 12293,
        "contract": "contracts/uln/MultiSigOracle.sol:MultiSigOracle",
        "label": "quorum",
        "offset": 8,
        "slot": "4",
        "type": "t_uint64"
      },
      {
        "astId": 12611,
        "contract": "contracts/uln/MultiSigOracle.sol:MultiSigOracle",
        "label": "dstConfig",
        "offset": 0,
        "slot": "5",
        "type": "t_mapping(t_uint32,t_struct(DstConfig)14364_storage)"
      },
      {
        "astId": 12615,
        "contract": "contracts/uln/MultiSigOracle.sol:MultiSigOracle",
        "label": "usedHashes",
        "offset": 0,
        "slot": "6",
        "type": "t_mapping(t_bytes32,t_bool)"
      }
    ],
    "types": {
      "t_address": {
        "encoding": "inplace",
        "label": "address",
        "numberOfBytes": "20"
      },
      "t_bool": {
        "encoding": "inplace",
        "label": "bool",
        "numberOfBytes": "1"
      },
      "t_bytes32": {
        "encoding": "inplace",
        "label": "bytes32",
        "numberOfBytes": "32"
      },
      "t_mapping(t_address,t_bool)": {
        "encoding": "mapping",
        "key": "t_address",
        "label": "mapping(address => bool)",
        "numberOfBytes": "32",
        "value": "t_bool"
      },
      "t_mapping(t_bytes32,t_bool)": {
        "encoding": "mapping",
        "key": "t_bytes32",
        "label": "mapping(bytes32 => bool)",
        "numberOfBytes": "32",
        "value": "t_bool"
      },
      "t_mapping(t_bytes32,t_struct(RoleData)5250_storage)": {
        "encoding": "mapping",
        "key": "t_bytes32",
        "label": "mapping(bytes32 => struct AccessControl.RoleData)",
        "numberOfBytes": "32",
        "value": "t_struct(RoleData)5250_storage"
      },
      "t_mapping(t_uint32,t_struct(DstConfig)14364_storage)": {
        "encoding": "mapping",
        "key": "t_uint32",
        "label": "mapping(uint32 => struct IOracle.DstConfig)",
        "numberOfBytes": "32",
        "value": "t_struct(DstConfig)14364_storage"
      },
      "t_struct(DstConfig)14364_storage": {
        "encoding": "inplace",
        "label": "struct IOracle.DstConfig",
        "members": [
          {
            "astId": 14359,
            "contract": "contracts/uln/MultiSigOracle.sol:MultiSigOracle",
            "label": "gas",
            "offset": 0,
            "slot": "0",
            "type": "t_uint64"
          },
          {
            "astId": 14361,
            "contract": "contracts/uln/MultiSigOracle.sol:MultiSigOracle",
            "label": "multiplierBps",
            "offset": 8,
            "slot": "0",
            "type": "t_uint16"
          },
          {
            "astId": 14363,
            "contract": "contracts/uln/MultiSigOracle.sol:MultiSigOracle",
            "label": "floorMarginUSD",
            "offset": 10,
            "slot": "0",
            "type": "t_uint128"
          }
        ],
        "numberOfBytes": "32"
      },
      "t_struct(RoleData)5250_storage": {
        "encoding": "inplace",
        "label": "struct AccessControl.RoleData",
        "members": [
          {
            "astId": 5247,
            "contract": "contracts/uln/MultiSigOracle.sol:MultiSigOracle",
            "label": "members",
            "offset": 0,
            "slot": "0",
            "type": "t_mapping(t_address,t_bool)"
          },
          {
            "astId": 5249,
            "contract": "contracts/uln/MultiSigOracle.sol:MultiSigOracle",
            "label": "adminRole",
            "offset": 0,
            "slot": "1",
            "type": "t_bytes32"
          }
        ],
        "numberOfBytes": "64"
      },
      "t_uint128": {
        "encoding": "inplace",
        "label": "uint128",
        "numberOfBytes": "16"
      },
      "t_uint16": {
        "encoding": "inplace",
        "label": "uint16",
        "numberOfBytes": "2"
      },
      "t_uint32": {
        "encoding": "inplace",
        "label": "uint32",
        "numberOfBytes": "4"
      },
      "t_uint64": {
        "encoding": "inplace",
        "label": "uint64",
        "numberOfBytes": "8"
      }
    }
  }
}