{
  "address": "0x2dE080e97B0caE9825375D31f5D0eD5751fDf16D",
  "abi": [
    {
      "inputs": [
        {
          "internalType": "address",
          "name": "_endpoint",
          "type": "address"
        }
      ],
      "stateMutability": "nonpayable",
      "type": "constructor"
    },
    {
      "inputs": [],
      "name": "endpoint",
      "outputs": [
        {
          "internalType": "contract ILayerZeroEndpoint",
          "name": "",
          "type": "address"
        }
      ],
      "stateMutability": "view",
      "type": "function"
    },
    {
      "inputs": [
        {
          "internalType": "uint16",
          "name": "_chainId",
          "type": "uint16"
        },
        {
          "internalType": "address",
          "name": "_ua",
          "type": "address"
        },
        {
          "internalType": "bytes",
          "name": "_path",
          "type": "bytes"
        }
      ],
      "name": "increment",
      "outputs": [
        {
          "internalType": "uint64",
          "name": "",
          "type": "uint64"
        }
      ],
      "stateMutability": "nonpayable",
      "type": "function"
    },
    {
      "inputs": [
        {
          "internalType": "uint16",
          "name": "dstEid",
          "type": "uint16"
        },
        {
          "internalType": "bytes",
          "name": "path",
          "type": "bytes"
        }
      ],
      "name": "outboundNonce",
      "outputs": [
        {
          "internalType": "uint64",
          "name": "nonce",
          "type": "uint64"
        }
      ],
      "stateMutability": "view",
      "type": "function"
    }
  ],
  "transactionHash": "0x04a2f6006feed8ac06ca5b9f12789073f2be4e247f2f5059026a7460e5320a3f",
  "args": [
    "0x8464135c8F25Da09e49BC8782676a84730C318bC"
  ],
  "numDeployments": 1,
  "solcInputHash": "5ca99727c7fedfa1f4b820c3cc1e8e86",
  "bytecode": "0x60a060405234801561001057600080fd5b5060405161060038038061060083398101604081905261002f91610040565b6001600160a01b0316608052610070565b60006020828403121561005257600080fd5b81516001600160a01b038116811461006957600080fd5b9392505050565b60805161056f61009160003960008181604b0152610150015261056f6000f3fe608060405234801561001057600080fd5b50600436106100415760003560e01c80635e280f11146100465780636fe7b67314610097578063c533338f146100c3575b600080fd5b61006d7f000000000000000000000000000000000000000000000000000000000000000081565b60405173ffffffffffffffffffffffffffffffffffffffff90911681526020015b60405180910390f35b6100aa6100a5366004610318565b610106565b60405167ffffffffffffffff909116815260200161008e565b6100aa6100d13660046103d7565b6000602081815292815260409020815180830184018051928152908401929093019190912091525467ffffffffffffffff1681565b6040517f9c729da100000000000000000000000000000000000000000000000000000000815273ffffffffffffffffffffffffffffffffffffffff848116600483015260009133917f00000000000000000000000000000000000000000000000000000000000000001690639c729da190602401602060405180830381865afa158015610197573d6000803e3d6000fd5b505050506040513d601f19601f820116820180604052508101906101bb91906104b7565b73ffffffffffffffffffffffffffffffffffffffff1614610262576040517f08c379a000000000000000000000000000000000000000000000000000000000815260206004820152603260248201527f4e6f6e6365436f6e74726163743a206d73672e73656e646572206973206e6f7460448201527f2076616c69642073656e646c6962726172790000000000000000000000000000606482015260840160405180910390fd5b61ffff851660009081526020819052604090819020905161028690859085906104db565b90815260405190819003602001902080546000906102ad9067ffffffffffffffff166104eb565b91906101000a81548167ffffffffffffffff021916908367ffffffffffffffff16021790559050949350505050565b803561ffff811681146102ee57600080fd5b919050565b73ffffffffffffffffffffffffffffffffffffffff8116811461031557600080fd5b50565b6000806000806060858703121561032e57600080fd5b610337856102dc565b93506020850135610347816102f3565b9250604085013567ffffffffffffffff8082111561036457600080fd5b818701915087601f83011261037857600080fd5b81358181111561038757600080fd5b88602082850101111561039957600080fd5b95989497505060200194505050565b7f4e487b7100000000000000000000000000000000000000000000000000000000600052604160045260246000fd5b600080604083850312156103ea57600080fd5b6103f3836102dc565b9150602083013567ffffffffffffffff8082111561041057600080fd5b818501915085601f83011261042457600080fd5b813581811115610436576104366103a8565b604051601f82017fffffffffffffffffffffffffffffffffffffffffffffffffffffffffffffffe0908116603f0116810190838211818310171561047c5761047c6103a8565b8160405282815288602084870101111561049557600080fd5b8260208601602083013760006020848301015280955050505050509250929050565b6000602082840312156104c957600080fd5b81516104d4816102f3565b9392505050565b8183823760009101908152919050565b600067ffffffffffffffff80831681810361052f577f4e487b7100000000000000000000000000000000000000000000000000000000600052601160045260246000fd5b600101939250505056fea26469706673582212209b47e3a63bdaa3a265f62cc88f12de6cc0687a3d53e700d909e594cfc2d7a81464736f6c63430008130033",
  "devdoc": {
    "kind": "dev",
    "methods": {},
    "version": 1
  },
  "userdoc": {
    "kind": "user",
    "methods": {},
    "version": 1
  },
  "storageLayout": {
    "storage": [
      {
        "astId": 18363,
        "contract": "contracts/uln/uln301/NonceContract.sol:NonceContract",
        "label": "outboundNonce",
        "offset": 0,
        "slot": "0",
        "type": "t_mapping(t_uint16,t_mapping(t_bytes_memory_ptr,t_uint64))"
      }
    ],
    "types": {
      "t_bytes_memory_ptr": {
        "encoding": "bytes",
        "label": "bytes",
        "numberOfBytes": "32"
      },
      "t_mapping(t_bytes_memory_ptr,t_uint64)": {
        "encoding": "mapping",
        "key": "t_bytes_memory_ptr",
        "label": "mapping(bytes => uint64)",
        "numberOfBytes": "32",
        "value": "t_uint64"
      },
      "t_mapping(t_uint16,t_mapping(t_bytes_memory_ptr,t_uint64))": {
        "encoding": "mapping",
        "key": "t_uint16",
        "label": "mapping(uint16 => mapping(bytes => uint64))",
        "numberOfBytes": "32",
        "value": "t_mapping(t_bytes_memory_ptr,t_uint64)"
      },
      "t_uint16": {
        "encoding": "inplace",
        "label": "uint16",
        "numberOfBytes": "2"
      },
      "t_uint64": {
        "encoding": "inplace",
        "label": "uint64",
        "numberOfBytes": "8"
      }
    }
  }
}