{
  "address": "0x76ca03a67C049477FfB09694dFeF00416dB69746",
  "abi": [
    {
      "inputs": [
        {
          "internalType": "address",
          "name": "_endpoint",
          "type": "address"
        },
        {
          "internalType": "address payable",
          "name": "_counter",
          "type": "address"
        }
      ],
      "stateMutability": "nonpayable",
      "type": "constructor"
    },
    {
      "inputs": [
        {
          "internalType": "uint16",
          "name": "code",
          "type": "uint16"
        },
        {
          "internalType": "bytes",
          "name": "result",
          "type": "bytes"
        }
      ],
      "name": "LzReceiveRevert",
      "type": "error"
    },
    {
      "inputs": [
        {
          "internalType": "uint16",
          "name": "code",
          "type": "uint16"
        },
        {
          "internalType": "bytes",
          "name": "message",
          "type": "bytes"
        }
      ],
      "name": "SimulateRevert",
      "type": "error"
    },
    {
      "inputs": [
        {
          "components": [
            {
              "components": [
                {
                  "internalType": "uint32",
                  "name": "srcEid",
                  "type": "uint32"
                },
                {
                  "internalType": "bytes32",
                  "name": "sender",
                  "type": "bytes32"
                },
                {
                  "internalType": "uint64",
                  "name": "nonce",
                  "type": "uint64"
                }
              ],
              "internalType": "struct IMessageOrigin.MessageOrigin",
              "name": "origin",
              "type": "tuple"
            },
            {
              "internalType": "bytes32",
              "name": "guid",
              "type": "bytes32"
            },
            {
              "internalType": "bytes",
              "name": "message",
              "type": "bytes"
            },
            {
              "internalType": "bytes",
              "name": "callParams",
              "type": "bytes"
            }
          ],
          "internalType": "struct IPreCrime.Packet[]",
          "name": "_packets",
          "type": "tuple[]"
        }
      ],
      "name": "_simulateAndRevert",
      "outputs": [],
      "stateMutability": "payable",
      "type": "function"
    },
    {
      "inputs": [
        {
          "components": [
            {
              "components": [
                {
                  "internalType": "uint32",
                  "name": "srcEid",
                  "type": "uint32"
                },
                {
                  "internalType": "bytes32",
                  "name": "sender",
                  "type": "bytes32"
                },
                {
                  "internalType": "uint64",
                  "name": "nonce",
                  "type": "uint64"
                }
              ],
              "internalType": "struct IMessageOrigin.MessageOrigin",
              "name": "origin",
              "type": "tuple"
            },
            {
              "internalType": "bytes32",
              "name": "guid",
              "type": "bytes32"
            },
            {
              "internalType": "bytes",
              "name": "message",
              "type": "bytes"
            },
            {
              "internalType": "bytes",
              "name": "callParams",
              "type": "bytes"
            }
          ],
          "internalType": "struct IPreCrime.Packet[]",
          "name": "_packets",
          "type": "tuple[]"
        }
      ],
      "name": "getPrecrimeConfig",
      "outputs": [
        {
          "internalType": "bytes",
          "name": "",
          "type": "bytes"
        }
      ],
      "stateMutability": "view",
      "type": "function"
    },
    {
      "inputs": [],
      "name": "pAdmin",
      "outputs": [
        {
          "internalType": "address",
          "name": "",
          "type": "address"
        }
      ],
      "stateMutability": "view",
      "type": "function"
    },
    {
      "inputs": [],
      "name": "pMaxBatchSize",
      "outputs": [
        {
          "internalType": "uint64",
          "name": "",
          "type": "uint64"
        }
      ],
      "stateMutability": "view",
      "type": "function"
    },
    {
      "inputs": [
        {
          "components": [
            {
              "components": [
                {
                  "internalType": "uint32",
                  "name": "srcEid",
                  "type": "uint32"
                },
                {
                  "internalType": "bytes32",
                  "name": "sender",
                  "type": "bytes32"
                },
                {
                  "internalType": "uint64",
                  "name": "nonce",
                  "type": "uint64"
                }
              ],
              "internalType": "struct IMessageOrigin.MessageOrigin",
              "name": "origin",
              "type": "tuple"
            },
            {
              "internalType": "bytes32",
              "name": "guid",
              "type": "bytes32"
            },
            {
              "internalType": "bytes",
              "name": "message",
              "type": "bytes"
            },
            {
              "internalType": "bytes",
              "name": "callParams",
              "type": "bytes"
            }
          ],
          "internalType": "struct IPreCrime.Packet[]",
          "name": "_packets",
          "type": "tuple[]"
        },
        {
          "internalType": "bytes[]",
          "name": "_simulation",
          "type": "bytes[]"
        }
      ],
      "name": "precrime",
      "outputs": [
        {
          "internalType": "uint16",
          "name": "code",
          "type": "uint16"
        },
        {
          "internalType": "bytes",
          "name": "reason",
          "type": "bytes"
        }
      ],
      "stateMutability": "view",
      "type": "function"
    },
    {
      "inputs": [
        {
          "internalType": "uint32",
          "name": "eid",
          "type": "uint32"
        }
      ],
      "name": "precrimeEidToPeer",
      "outputs": [
        {
          "internalType": "bytes32",
          "name": "peer",
          "type": "bytes32"
        }
      ],
      "stateMutability": "view",
      "type": "function"
    },
    {
      "inputs": [
        {
          "internalType": "uint256",
          "name": "",
          "type": "uint256"
        }
      ],
      "name": "precrimeEids",
      "outputs": [
        {
          "internalType": "uint32",
          "name": "",
          "type": "uint32"
        }
      ],
      "stateMutability": "view",
      "type": "function"
    },
    {
      "inputs": [
        {
          "internalType": "uint256",
          "name": "",
          "type": "uint256"
        }
      ],
      "name": "precrimePeers",
      "outputs": [
        {
          "internalType": "bytes32",
          "name": "",
          "type": "bytes32"
        }
      ],
      "stateMutability": "view",
      "type": "function"
    },
    {
      "inputs": [],
      "name": "precrimeVersion",
      "outputs": [
        {
          "internalType": "uint16",
          "name": "",
          "type": "uint16"
        }
      ],
      "stateMutability": "pure",
      "type": "function"
    },
    {
      "inputs": [
        {
          "internalType": "address",
          "name": "_admin",
          "type": "address"
        }
      ],
      "name": "setPrecrimeAdmin",
      "outputs": [],
      "stateMutability": "nonpayable",
      "type": "function"
    },
    {
      "inputs": [
        {
          "internalType": "uint64",
          "name": "_maxBatchSize",
          "type": "uint64"
        }
      ],
      "name": "setPrecrimeMaxBatchSize",
      "outputs": [],
      "stateMutability": "nonpayable",
      "type": "function"
    },
    {
      "inputs": [
        {
          "internalType": "uint32[]",
          "name": "_eids",
          "type": "uint32[]"
        },
        {
          "internalType": "bytes32[]",
          "name": "_peers",
          "type": "bytes32[]"
        }
      ],
      "name": "setPrecrimePeers",
      "outputs": [],
      "stateMutability": "nonpayable",
      "type": "function"
    },
    {
      "inputs": [
        {
          "components": [
            {
              "components": [
                {
                  "internalType": "uint32",
                  "name": "srcEid",
                  "type": "uint32"
                },
                {
                  "internalType": "bytes32",
                  "name": "sender",
                  "type": "bytes32"
                },
                {
                  "internalType": "uint64",
                  "name": "nonce",
                  "type": "uint64"
                }
              ],
              "internalType": "struct IMessageOrigin.MessageOrigin",
              "name": "origin",
              "type": "tuple"
            },
            {
              "internalType": "bytes32",
              "name": "guid",
              "type": "bytes32"
            },
            {
              "internalType": "bytes",
              "name": "message",
              "type": "bytes"
            },
            {
              "internalType": "bytes",
              "name": "callParams",
              "type": "bytes"
            }
          ],
          "internalType": "struct IPreCrime.Packet[]",
          "name": "_packets",
          "type": "tuple[]"
        }
      ],
      "name": "simulate",
      "outputs": [
        {
          "internalType": "uint16",
          "name": "code",
          "type": "uint16"
        },
        {
          "internalType": "bytes",
          "name": "data",
          "type": "bytes"
        }
      ],
      "stateMutability": "payable",
      "type": "function"
    },
    {
      "inputs": [
        {
          "components": [
            {
              "components": [
                {
                  "internalType": "uint32",
                  "name": "srcEid",
                  "type": "uint32"
                },
                {
                  "internalType": "bytes32",
                  "name": "sender",
                  "type": "bytes32"
                },
                {
                  "internalType": "uint64",
                  "name": "nonce",
                  "type": "uint64"
                }
              ],
              "internalType": "struct IMessageOrigin.MessageOrigin",
              "name": "origin",
              "type": "tuple"
            },
            {
              "internalType": "bytes32",
              "name": "guid",
              "type": "bytes32"
            },
            {
              "internalType": "bytes",
              "name": "message",
              "type": "bytes"
            },
            {
              "internalType": "bytes",
              "name": "callParams",
              "type": "bytes"
            }
          ],
          "internalType": "struct IPreCrime.Packet[]",
          "name": "",
          "type": "tuple[]"
        }
      ],
      "name": "simulateView",
      "outputs": [
        {
          "internalType": "uint16",
          "name": "",
          "type": "uint16"
        },
        {
          "internalType": "bytes",
          "name": "",
          "type": "bytes"
        }
      ],
      "stateMutability": "pure",
      "type": "function"
    },
    {
      "inputs": [],
      "name": "simulationCallback",
      "outputs": [
        {
          "internalType": "bytes",
          "name": "",
          "type": "bytes"
        }
      ],
      "stateMutability": "view",
      "type": "function"
    }
  ],
  "transactionHash": "0xc60833c31951016f0f9c6a9cd7db7e45e10be5f4297287aa2e87db86dad1f7bc",
  "args": [
    "0x1275D096B9DBf2347bD2a131Fb6BDaB0B4882487",
    "0x39dD11C243Ac4Ac250980FA3AEa016f73C509f37"
  ],
  "numDeployments": 1,
  "solcInputHash": "678dd2c8bfaae833f2471ff1cdef9557",
  "bytecode": "0x60c06040523480156200001157600080fd5b5060405162002edd38038062002edd833981016040819052620000349162000110565b8180806001600160a01b03166080816001600160a01b0316815250506080516001600160a01b031663416ecebf6040518163ffffffff1660e01b8152600401602060405180830381865afa15801562000091573d6000803e3d6000fd5b505050506040513d601f19601f82011682018060405250810190620000b791906200014f565b63ffffffff1660a052505060008054336001600160a01b031991821617909155600480549091166001600160a01b0392909216919091179055506200017e565b6001600160a01b03811681146200010d57600080fd5b50565b600080604083850312156200012457600080fd5b82516200013181620000f7565b60208401519092506200014481620000f7565b809150509250929050565b6000602082840312156200016257600080fd5b815163ffffffff811681146200017757600080fd5b9392505050565b60805160a051612d1d620001c060003960008181610a7901528181610d1701528181610f710152818161111d01526111f4015260006113a30152612d1d6000f3fe6080604052600436106100e85760003560e01c80636ece7d361161008a578063d2968d5711610059578063d2968d57146102b3578063e51ac4b0146102d5578063e780f25414610327578063fd4c212e1461034757600080fd5b80636ece7d36146102405780637a4359d51461026057806392d99a7f1461028057806399877564146102a057600080fd5b80632c79305d116100c65780632c79305d1461018357806330515e561461019f57806354b3ab69146101f15780635bf88a001461021e57600080fd5b806312fb9ea5146100ed57806328318b621461012057806329c246281461014e575b600080fd5b3480156100f957600080fd5b5061010d610108366004611e79565b61035a565b6040519081526020015b60405180910390f35b34801561012c57600080fd5b5061014061013b366004611ed7565b61037b565b604051610117929190611fb1565b34801561015a57600080fd5b5061016e610169366004611e79565b6104f5565b60405163ffffffff9091168152602001610117565b34801561018f57600080fd5b5060405160018152602001610117565b3480156101ab57600080fd5b506000546101d89074010000000000000000000000000000000000000000900467ffffffffffffffff1681565b60405167ffffffffffffffff9091168152602001610117565b3480156101fd57600080fd5b5061010d61020c366004611feb565b60036020526000908152604090205481565b34801561022a57600080fd5b5061023e61023936600461218b565b61052f565b005b34801561024c57600080fd5b5061023e61025b366004612263565b610657565b34801561026c57600080fd5b5061014061027b366004612280565b61072b565b34801561028c57600080fd5b5061023e61029b3660046122c2565b610793565b6101406102ae366004612280565b61085b565b3480156102bf57600080fd5b506102c8610ac6565b60405161011791906122f8565b3480156102e157600080fd5b506000546103029073ffffffffffffffffffffffffffffffffffffffff1681565b60405173ffffffffffffffffffffffffffffffffffffffff9091168152602001610117565b34801561033357600080fd5b506102c8610342366004612280565b610d62565b61023e610355366004612280565b610dbf565b6002818154811061036a57600080fd5b600091825260209091200154905081565b60006060818367ffffffffffffffff8111156103995761039961200f565b6040519080825280602002602001820160405280156103cc57816020015b60608152602001906001900390816103b75790505b50905060008467ffffffffffffffff8111156103ea576103ea61200f565b604051908082528060200260200182016040528015610413578160200160208202803683370190505b50905060005b858110156104b9576000808888848181106104365761043661230b565b9050602002810190610448919061233a565b8101906104559190612436565b915091508184848151811061046c5761046c61230b565b602002602001019063ffffffff16908163ffffffff1681525050808584815181106104995761049961230b565b6020026020010181905250505080806104b1906124ab565b915050610419565b506104c5888883610e6f565b909450925061ffff8416156104db5750506104ec565b6104e482611039565b909450925050505b94509492505050565b6001818154811061050557600080fd5b9060005260206000209060089182820401919006600402915054906101000a900463ffffffff1681565b60005473ffffffffffffffffffffffffffffffffffffffff1633146105b5576040517f08c379a000000000000000000000000000000000000000000000000000000000815260206004820152600a60248201527f6f6e6c792061646d696e0000000000000000000000000000000000000000000060448201526064015b60405180910390fd5b81516105c8906001906020850190611d7a565b5080516105dc906002906020840190611e29565b5060005b8251811015610652578181815181106105fb576105fb61230b565b6020026020010151600360008584815181106106195761061961230b565b602002602001015163ffffffff1663ffffffff16815260200190815260200160002081905550808061064a906124ab565b9150506105e0565b505050565b60005473ffffffffffffffffffffffffffffffffffffffff1633146106d8576040517f08c379a000000000000000000000000000000000000000000000000000000000815260206004820152600a60248201527f6f6e6c792061646d696e0000000000000000000000000000000000000000000060448201526064016105ac565b6000805467ffffffffffffffff90921674010000000000000000000000000000000000000000027fffffffff0000000000000000ffffffffffffffffffffffffffffffffffffffff909216919091179055565b6040517f08c379a000000000000000000000000000000000000000000000000000000000815260206004820152600f60248201527f6e6f7420696d706c656d656e746564000000000000000000000000000000000060448201526000906060906064016105ac565b60005473ffffffffffffffffffffffffffffffffffffffff163314610814576040517f08c379a000000000000000000000000000000000000000000000000000000000815260206004820152600a60248201527f6f6e6c792061646d696e0000000000000000000000000000000000000000000060448201526064016105ac565b600080547fffffffffffffffffffffffff00000000000000000000000000000000000000001673ffffffffffffffffffffffffffffffffffffffff92909216919091179055565b60006060610869848461127f565b909250905061ffff8216610abf576000803073ffffffffffffffffffffffffffffffffffffffff163463fd4c212e60e01b88886040516024016108ad929190612590565b604080517fffffffffffffffffffffffffffffffffffffffffffffffffffffffffffffffe08184030181529181526020820180517bffffffffffffffffffffffffffffffffffffffffffffffffffffffff167fffffffff0000000000000000000000000000000000000000000000000000000090941693909317909252905161093691906126c0565b60006040518083038185875af1925050503d8060008114610973576040519150601f19603f3d011682016040523d82523d6000602084013e610978565b606091505b50909250905034156109b25760405133903480156108fc02916000818181858888f193505050501580156109b0573d6000803e3d6000fd5b505b8115610a3f576040517f08c379a0000000000000000000000000000000000000000000000000000000008152602060048201526024808201527f73696d756c6174652073686f756c64206e657665722072657475726e2073756360448201527f636573730000000000000000000000000000000000000000000000000000000060648201526084016105ac565b610a69817f3ef0530200000000000000000000000000000000000000000000000000000000611588565b909450925061ffff8416610abc577f000000000000000000000000000000000000000000000000000000000000000083604051602001610aaa9291906126dc565b60405160208183030381529060405292505b50505b9250929050565b60015460609060009067ffffffffffffffff811115610ae757610ae761200f565b604051908082528060200260200182016040528015610b4257816020015b610b2f6040518060600160405280600063ffffffff16815260200160008152602001600081525090565b815260200190600190039081610b055790505b50905060005b600154811015610d0657600060018281548110610b6757610b6761230b565b600091825260209182902060088204015460408051606081018252600790931660049081026101000a90920463ffffffff16808452825491517f56a472890000000000000000000000000000000000000000000000000000000081529283018190529450919283019173ffffffffffffffffffffffffffffffffffffffff16906356a4728990602401602060405180830381865afa158015610c0d573d6000803e3d6000fd5b505050506040513d601f19601f82011682018060405250810190610c3191906126fb565b8152600480546040517f622f17f600000000000000000000000000000000000000000000000000000000815263ffffffff86169281019290925260209092019173ffffffffffffffffffffffffffffffffffffffff169063622f17f690602401602060405180830381865afa158015610cae573d6000803e3d6000fd5b505050506040513d601f19601f82011682018060405250810190610cd291906126fb565b815250838381518110610ce757610ce761230b565b6020026020010181905250508080610cfe906124ab565b915050610b48565b5060408051808201825263ffffffff7f000000000000000000000000000000000000000000000000000000000000000016815260208082018490529151610d4d9201612714565b60405160208183030381529060405291505090565b6060600080610d71858561160c565b915091506001600060149054906101000a900467ffffffffffffffff1683518484604051602001610da695949392919061278f565b6040516020818303038152906040529250505092915050565b333014610e28576040517f08c379a000000000000000000000000000000000000000000000000000000000815260206004820152601360248201527f5072656372696d653a206f6e6c792073656c660000000000000000000000000060448201526064016105ac565b600080610e3584846116ff565b9150915081816040517f3ef053020000000000000000000000000000000000000000000000000000000081526004016105ac929190611fb1565b600060608315610f62576000610e85868661160c565b50905060005b8151811015610f5f576000805b8651811015610f0157838381518110610eb357610eb361230b565b602002602001015163ffffffff16878281518110610ed357610ed361230b565b602002602001015163ffffffff1603610eef5760019150610f01565b80610ef9816124ab565b915050610e98565b5080610f4c576101926040518060400160405280601e81526020017f6d697373696e6720706565722073696d756c6174696f6e20726573756c74000081525094509450505050611031565b5080610f57816124ab565b915050610e8b565b50505b6000805b8451811015610fd6577f000000000000000000000000000000000000000000000000000000000000000063ffffffff16858281518110610fa857610fa861230b565b602002602001015163ffffffff1603610fc45760019150610fd6565b80610fce816124ab565b915050610f66565b508061101c57505060408051808201909152601f81527f6d697373696e67206c6f63616c2073696d756c6174696f6e20726573756c740060208201526101929150611031565b50506040805160208101909152600080825291505b935093915050565b600060606110606040518060400160405280600063ffffffff168152602001606081525090565b6000845167ffffffffffffffff81111561107c5761107c61200f565b6040519080825280602002602001820160405280156110c257816020015b60408051808201909152600081526060602082015281526020019060019003908161109a5790505b50905060005b855181101561119a578581815181106110e3576110e361230b565b60200260200101518060200190518101906110fe9190612853565b8282815181106111105761111061230b565b60200260200101819052507f000000000000000000000000000000000000000000000000000000000000000063ffffffff168282815181106111545761115461230b565b60200260200101516000015163ffffffff16036111885781818151811061117d5761117d61230b565b602002602001015192505b80611192816124ab565b9150506110c8565b5060005b81518110156112615760006111d0848484815181106111bf576111bf61230b565b602002602001015160000151611919565b50905060006112188484815181106111ea576111ea61230b565b60200260200101517f0000000000000000000000000000000000000000000000000000000000000000611919565b9150508082111561124c576001604051806060016040528060318152602001612cb760319139965096505050505050915091565b50508080611259906124ab565b91505061119e565b50600060405180602001604052806000815250935093505050915091565b6000805460609074010000000000000000000000000000000000000000900467ffffffffffffffff1683111561130957600054610190906112e19074010000000000000000000000000000000000000000900467ffffffffffffffff166119cd565b6040516020016112f19190612962565b60405160208183030381529060405291509150610abf565b821561156e5760008080805b868110156115695760008888838181106113315761133161230b565b905060200281019061134391906129a7565b61134c906129db565b80515190915063ffffffff868116911614158061136e57508051602001518414155b156114ef578051805160208201516040909201519096509094509250600073ffffffffffffffffffffffffffffffffffffffff7f00000000000000000000000000000000000000000000000000000000000000001663a0dd43fc6113e760045473ffffffffffffffffffffffffffffffffffffffff1690565b6040517fffffffff0000000000000000000000000000000000000000000000000000000060e084901b16815273ffffffffffffffffffffffffffffffffffffffff909116600482015263ffffffff8916602482015260448101889052606401602060405180830381865afa158015611463573d6000803e3d6000fd5b505050506040513d601f19601f820116820180604052508101906114879190612a9f565b611492906001612abc565b90508067ffffffffffffffff168467ffffffffffffffff16146114e9576101916114bb846119cd565b6040516020016114cb9190612ae4565b60405160208183030381529060405297509750505050505050610abf565b50611556565b6114f883612b4f565b92508267ffffffffffffffff1681600001516040015167ffffffffffffffff161461155657610191611529836119cd565b6040516020016115399190612b76565b604051602081830303815290604052965096505050505050610abf565b5080611561816124ab565b915050611315565b505050505b505060408051602081019091526000808252909250929050565b600060607fffffffff0000000000000000000000000000000000000000000000000000000083166115b885612bbb565b7fffffffff0000000000000000000000000000000000000000000000000000000016146115e757835160208501fd5b600484019350838060200190518101906116019190612c0b565b915091509250929050565b60608060008390036116f557600160028180548060200260200160405190810160405280929190818152602001828054801561169357602002820191906000526020600020906000905b82829054906101000a900463ffffffff1663ffffffff16815260200190600401906020826003010492830192600103820291508084116116565790505b50505050509150808054806020026020016040519081016040528092919081815260200182805480156116e557602002820191906000526020600020905b8154815260200190600101908083116116d1575b5050505050905091509150610abf565b6116018484611a8b565b6004546040516000916060918391829173ffffffffffffffffffffffffffffffffffffffff9091169034907ff5c6ba5a000000000000000000000000000000000000000000000000000000009061175c908a908a90602401612590565b604080517fffffffffffffffffffffffffffffffffffffffffffffffffffffffffffffffe08184030181529181526020820180517bffffffffffffffffffffffffffffffffffffffffffffffffffffffff167fffffffff000000000000000000000000000000000000000000000000000000009094169390931790925290516117e591906126c0565b60006040518083038185875af1925050503d8060008114611822576040519150601f19603f3d011682016040523d82523d6000602084013e611827565b606091505b509150915081156118e0576040517f08c379a000000000000000000000000000000000000000000000000000000000815260206004820152604360248201527f4f6d6e69436f756e7465725072654372696d653a2073696d756c6174696f6e4360448201527f616c6c6261636b2073686f756c642062652063616c6c6564207669612072657660648201527f6572740000000000000000000000000000000000000000000000000000000000608482015260a4016105ac565b61190a817f0a78da8f00000000000000000000000000000000000000000000000000000000611588565b60009890975095505050505050565b60008060005b8460200151518110156119c0578363ffffffff16856020015182815181106119495761194961230b565b60200260200101516000015163ffffffff16036119ae57846020015181815181106119765761197661230b565b602002602001015160200151856020015182815181106119985761199861230b565b6020026020010151604001519250925050610abf565b806119b8816124ab565b91505061191f565b5060009485945092505050565b606060006119da83611c97565b600101905060008167ffffffffffffffff8111156119fa576119fa61200f565b6040519080825280601f01601f191660200182016040528015611a24576020820181803683370190505b5090508181016020015b7fffffffffffffffffffffffffffffffffffffffffffffffffffffffffffffffff017f3031323334353637383961626364656600000000000000000000000000000000600a86061a8153600a8504945084611a2e57509392505050565b6060806000805b84811015611b11576000600381888885818110611ab157611ab161230b565b9050602002810190611ac391906129a7565b611ad1906020810190611feb565b63ffffffff1663ffffffff1681526020019081526020016000205414611aff5781611afb81612c9f565b9250505b80611b09816124ab565b915050611a92565b508061ffff1667ffffffffffffffff811115611b2f57611b2f61200f565b604051908082528060200260200182016040528015611b58578160200160208202803683370190505b5092508061ffff1667ffffffffffffffff811115611b7857611b7861200f565b604051908082528060200260200182016040528015611ba1578160200160208202803683370190505b50915060005b84811015610abc57600060036000888885818110611bc757611bc761230b565b9050602002810190611bd991906129a7565b611be7906020810190611feb565b63ffffffff16815260208101919091526040016000205490508015611c8457868683818110611c1857611c1861230b565b9050602002810190611c2a91906129a7565b611c38906020810190611feb565b858381518110611c4a57611c4a61230b565b602002602001019063ffffffff16908163ffffffff168152505080848381518110611c7757611c7761230b565b6020026020010181815250505b5080611c8f816124ab565b915050611ba7565b6000807a184f03e93ff9f4daa797ed6e38ed64bf6a1f0100000000000000008310611ce0577a184f03e93ff9f4daa797ed6e38ed64bf6a1f010000000000000000830492506040015b6d04ee2d6d415b85acef81000000008310611d0c576d04ee2d6d415b85acef8100000000830492506020015b662386f26fc100008310611d2a57662386f26fc10000830492506010015b6305f5e1008310611d42576305f5e100830492506008015b6127108310611d5657612710830492506004015b60648310611d68576064830492506002015b600a8310611d74576001015b92915050565b82805482825590600052602060002090600701600890048101928215611e195791602002820160005b83821115611de757835183826101000a81548163ffffffff021916908363ffffffff1602179055509260200192600401602081600301049283019260010302611da3565b8015611e175782816101000a81549063ffffffff0219169055600401602081600301049283019260010302611de7565b505b50611e25929150611e64565b5090565b828054828255906000526020600020908101928215611e19579160200282015b82811115611e19578251825591602001919060010190611e49565b5b80821115611e255760008155600101611e65565b600060208284031215611e8b57600080fd5b5035919050565b60008083601f840112611ea457600080fd5b50813567ffffffffffffffff811115611ebc57600080fd5b6020830191508360208260051b8501011115610abf57600080fd5b60008060008060408587031215611eed57600080fd5b843567ffffffffffffffff80821115611f0557600080fd5b611f1188838901611e92565b90965094506020870135915080821115611f2a57600080fd5b50611f3787828801611e92565b95989497509550505050565b60005b83811015611f5e578181015183820152602001611f46565b50506000910152565b60008151808452611f7f816020860160208601611f43565b601f017fffffffffffffffffffffffffffffffffffffffffffffffffffffffffffffffe0169290920160200192915050565b61ffff83168152604060208201526000611fce6040830184611f67565b949350505050565b63ffffffff81168114611fe857600080fd5b50565b600060208284031215611ffd57600080fd5b813561200881611fd6565b9392505050565b7f4e487b7100000000000000000000000000000000000000000000000000000000600052604160045260246000fd5b6040805190810167ffffffffffffffff811182821017156120615761206161200f565b60405290565b6040516060810167ffffffffffffffff811182821017156120615761206161200f565b6040516080810167ffffffffffffffff811182821017156120615761206161200f565b604051601f82017fffffffffffffffffffffffffffffffffffffffffffffffffffffffffffffffe016810167ffffffffffffffff811182821017156120f4576120f461200f565b604052919050565b600067ffffffffffffffff8211156121165761211661200f565b5060051b60200190565b600082601f83011261213157600080fd5b81356020612146612141836120fc565b6120ad565b82815260059290921b8401810191818101908684111561216557600080fd5b8286015b848110156121805780358352918301918301612169565b509695505050505050565b6000806040838503121561219e57600080fd5b823567ffffffffffffffff808211156121b657600080fd5b818501915085601f8301126121ca57600080fd5b813560206121da612141836120fc565b82815260059290921b840181019181810190898411156121f957600080fd5b948201945b8386101561222057853561221181611fd6565b825294820194908201906121fe565b9650508601359250508082111561223657600080fd5b5061224385828601612120565b9150509250929050565b67ffffffffffffffff81168114611fe857600080fd5b60006020828403121561227557600080fd5b81356120088161224d565b6000806020838503121561229357600080fd5b823567ffffffffffffffff8111156122aa57600080fd5b6122b685828601611e92565b90969095509350505050565b6000602082840312156122d457600080fd5b813573ffffffffffffffffffffffffffffffffffffffff8116811461200857600080fd5b6020815260006120086020830184611f67565b7f4e487b7100000000000000000000000000000000000000000000000000000000600052603260045260246000fd5b60008083357fffffffffffffffffffffffffffffffffffffffffffffffffffffffffffffffe184360301811261236f57600080fd5b83018035915067ffffffffffffffff82111561238a57600080fd5b602001915036819003821315610abf57600080fd5b600067ffffffffffffffff8211156123b9576123b961200f565b50601f017fffffffffffffffffffffffffffffffffffffffffffffffffffffffffffffffe01660200190565b600082601f8301126123f657600080fd5b81356124046121418261239f565b81815284602083860101111561241957600080fd5b816020850160208301376000918101602001919091529392505050565b6000806040838503121561244957600080fd5b823561245481611fd6565b9150602083013567ffffffffffffffff81111561247057600080fd5b612243858286016123e5565b7f4e487b7100000000000000000000000000000000000000000000000000000000600052601160045260246000fd5b60007fffffffffffffffffffffffffffffffffffffffffffffffffffffffffffffffff82036124dc576124dc61247c565b5060010190565b60008083357fffffffffffffffffffffffffffffffffffffffffffffffffffffffffffffffe184360301811261251857600080fd5b830160208101925035905067ffffffffffffffff81111561253857600080fd5b803603821315610abf57600080fd5b8183528181602085013750600060208284010152600060207fffffffffffffffffffffffffffffffffffffffffffffffffffffffffffffffe0601f840116840101905092915050565b60208082528181018390526000906040808401600586901b850182018785805b898110156126b1577fffffffffffffffffffffffffffffffffffffffffffffffffffffffffffffffc089850301855282357fffffffffffffffffffffffffffffffffffffffffffffffffffffffffffffff418c3603018112612610578283fd5b8b0160c0813561261f81611fd6565b63ffffffff16865281890135898701528782013561263c8161224d565b67ffffffffffffffff1686890152606082810135908701526080612662818401846124e3565b83838a0152612674848a018284612547565b935050505060a0612687818401846124e3565b93508783038289015261269b838583612547565b988b0198975050509388019350506001016125b0565b50919998505050505050505050565b600082516126d2818460208701611f43565b9190910192915050565b63ffffffff83168152604060208201526000611fce6040830184611f67565b60006020828403121561270d57600080fd5b5051919050565b60006020808352606080840163ffffffff8087511684870152838701516040808189015283825180865260808a0191508784019550600093505b8084101561278157855180518616835288810151898401528301518383015294870194600193909301929086019061274e565b509998505050505050505050565b7fffff0000000000000000000000000000000000000000000000000000000000008660f01b1681527fffffffffffffffff0000000000000000000000000000000000000000000000008560c01b16600282015283600a8201526000602a82018451602080870160005b8381101561281a57815163ffffffff16855293820193908201906001016127f8565b5050855181870193925060005b8181101561284357845184529382019392820192600101612827565b50919a9950505050505050505050565b6000602080838503121561286657600080fd5b825167ffffffffffffffff8082111561287e57600080fd5b8185019150604080838803121561289457600080fd5b61289c61203e565b83516128a781611fd6565b815283850151838111156128ba57600080fd5b80850194505087601f8501126128cf57600080fd5b835192506128df612141846120fc565b8381526060938402850186019386820191908a8611156128fe57600080fd5b958701955b8587101561294f5780878c03121561291b5760008081fd5b612923612067565b875161292e81611fd6565b81528789015189820152858801518682015283529586019591870191612903565b5095820195909552979650505050505050565b7f7061636b6574732073697a6520657863656564206c696d69746564200000000081526000825161299a81601c850160208701611f43565b91909101601c0192915050565b600082357fffffffffffffffffffffffffffffffffffffffffffffffffffffffffffffff418336030181126126d257600080fd5b600081360360c08112156129ee57600080fd5b6129f661208a565b6060821215612a0457600080fd5b612a0c612067565b91508335612a1981611fd6565b8252602084810135908301526040840135612a338161224d565b60408301529081526060830135602082015260808301359067ffffffffffffffff80831115612a6157600080fd5b612a6d368487016123e5565b604083015260a0850135925080831115612a8657600080fd5b50612a93368386016123e5565b60608201529392505050565b600060208284031215612ab157600080fd5b81516120088161224d565b67ffffffffffffffff818116838216019080821115612add57612add61247c565b5092915050565b7f736b697070656420696e626f756e644e6f6e63652c207061636b657420696e6481527f65783a2000000000000000000000000000000000000000000000000000000000602082015260008251612b42816024850160208701611f43565b9190910160240192915050565b600067ffffffffffffffff808316818103612b6c57612b6c61247c565b6001019392505050565b7f756e736f72746564207061636b6574732c207061636b657420696e6465783a20815260008251612bae816020850160208701611f43565b9190910160200192915050565b6000815160208301517fffffffff0000000000000000000000000000000000000000000000000000000080821693506004831015612c035780818460040360031b1b83161693505b505050919050565b60008060408385031215612c1e57600080fd5b825161ffff81168114612c3057600080fd5b602084015190925067ffffffffffffffff811115612c4d57600080fd5b8301601f81018513612c5e57600080fd5b8051612c6c6121418261239f565b818152866020838501011115612c8157600080fd5b612c92826020830160208601611f43565b8093505050509250929050565b600061ffff808316818103612b6c57612b6c61247c56fe4f6d6e69436f756e7465725072654372696d653a20696e626f756e64436f756e74203e206f7574626f756e64436f756e74a2646970667358221220b0b563348acce1a1f0a98afaf7f4e4e959f1466b530798f17973ffbcca4267cf64736f6c63430008130033",
  "devdoc": {
    "kind": "dev",
    "methods": {},
    "version": 1
  },
  "userdoc": {
    "kind": "user",
    "methods": {},
    "version": 1
  },
  "storageLayout": {
    "storage": [
      {
        "astId": 6822,
        "contract": "contracts/examples/OmniCounterPreCrime.sol:OmniCounterPreCrime",
        "label": "pAdmin",
        "offset": 0,
        "slot": "0",
        "type": "t_address"
      },
      {
        "astId": 6824,
        "contract": "contracts/examples/OmniCounterPreCrime.sol:OmniCounterPreCrime",
        "label": "pMaxBatchSize",
        "offset": 20,
        "slot": "0",
        "type": "t_uint64"
      },
      {
        "astId": 6827,
        "contract": "contracts/examples/OmniCounterPreCrime.sol:OmniCounterPreCrime",
        "label": "precrimeEids",
        "offset": 0,
        "slot": "1",
        "type": "t_array(t_uint32)dyn_storage"
      },
      {
        "astId": 6830,
        "contract": "contracts/examples/OmniCounterPreCrime.sol:OmniCounterPreCrime",
        "label": "precrimePeers",
        "offset": 0,
        "slot": "2",
        "type": "t_array(t_bytes32)dyn_storage"
      },
      {
        "astId": 6834,
        "contract": "contracts/examples/OmniCounterPreCrime.sol:OmniCounterPreCrime",
        "label": "precrimeEidToPeer",
        "offset": 0,
        "slot": "3",
        "type": "t_mapping(t_uint32,t_bytes32)"
      },
      {
        "astId": 8267,
        "contract": "contracts/examples/OmniCounterPreCrime.sol:OmniCounterPreCrime",
        "label": "counter",
        "offset": 0,
        "slot": "4",
        "type": "t_contract(OmniCounter)8257"
      }
    ],
    "types": {
      "t_address": {
        "encoding": "inplace",
        "label": "address",
        "numberOfBytes": "20"
      },
      "t_array(t_bytes32)dyn_storage": {
        "base": "t_bytes32",
        "encoding": "dynamic_array",
        "label": "bytes32[]",
        "numberOfBytes": "32"
      },
      "t_array(t_uint32)dyn_storage": {
        "base": "t_uint32",
        "encoding": "dynamic_array",
        "label": "uint32[]",
        "numberOfBytes": "32"
      },
      "t_bytes32": {
        "encoding": "inplace",
        "label": "bytes32",
        "numberOfBytes": "32"
      },
      "t_contract(OmniCounter)8257": {
        "encoding": "inplace",
        "label": "contract OmniCounter",
        "numberOfBytes": "20"
      },
      "t_mapping(t_uint32,t_bytes32)": {
        "encoding": "mapping",
        "key": "t_uint32",
        "label": "mapping(uint32 => bytes32)",
        "numberOfBytes": "32",
        "value": "t_bytes32"
      },
      "t_uint32": {
        "encoding": "inplace",
        "label": "uint32",
        "numberOfBytes": "4"
      },
      "t_uint64": {
        "encoding": "inplace",
        "label": "uint64",
        "numberOfBytes": "8"
      }
    }
  }
}