{
  "address": "0x10Aeafac83d48E2f9ac4bAAf94311c45fACe1404",
  "abi": [
    {
      "anonymous": false,
      "inputs": [
        {
          "indexed": false,
          "internalType": "uint32",
          "name": "dstEid",
          "type": "uint32"
        },
        {
          "indexed": false,
          "internalType": "address",
          "name": "oapp",
          "type": "address"
        },
        {
          "indexed": false,
          "internalType": "uint64",
          "name": "confirmations",
          "type": "uint64"
        },
        {
          "indexed": false,
          "internalType": "uint256",
          "name": "totalFee",
          "type": "uint256"
        }
      ],
      "name": "AssignJob",
      "type": "event"
    },
    {
      "anonymous": false,
      "inputs": [
        {
          "indexed": false,
          "internalType": "address",
          "name": "_target",
          "type": "address"
        },
        {
          "indexed": false,
          "internalType": "bytes32",
          "name": "_callDataHash",
          "type": "bytes32"
        },
        {
          "indexed": false,
          "internalType": "bool",
          "name": "_success",
          "type": "bool"
        },
        {
          "indexed": false,
          "internalType": "bytes",
          "name": "_data",
          "type": "bytes"
        }
      ],
      "name": "Execute",
      "type": "event"
    },
    {
      "anonymous": false,
      "inputs": [
        {
          "indexed": false,
          "internalType": "uint8",
          "name": "version",
          "type": "uint8"
        }
      ],
      "name": "Initialized",
      "type": "event"
    },
    {
      "anonymous": false,
      "inputs": [
        {
          "indexed": true,
          "internalType": "bytes32",
          "name": "role",
          "type": "bytes32"
        },
        {
          "indexed": true,
          "internalType": "bytes32",
          "name": "previousAdminRole",
          "type": "bytes32"
        },
        {
          "indexed": true,
          "internalType": "bytes32",
          "name": "newAdminRole",
          "type": "bytes32"
        }
      ],
      "name": "RoleAdminChanged",
      "type": "event"
    },
    {
      "anonymous": false,
      "inputs": [
        {
          "indexed": true,
          "internalType": "bytes32",
          "name": "role",
          "type": "bytes32"
        },
        {
          "indexed": true,
          "internalType": "address",
          "name": "account",
          "type": "address"
        },
        {
          "indexed": true,
          "internalType": "address",
          "name": "sender",
          "type": "address"
        }
      ],
      "name": "RoleGranted",
      "type": "event"
    },
    {
      "anonymous": false,
      "inputs": [
        {
          "indexed": true,
          "internalType": "bytes32",
          "name": "role",
          "type": "bytes32"
        },
        {
          "indexed": true,
          "internalType": "address",
          "name": "account",
          "type": "address"
        },
        {
          "indexed": true,
          "internalType": "address",
          "name": "sender",
          "type": "address"
        }
      ],
      "name": "RoleRevoked",
      "type": "event"
    },
    {
      "anonymous": false,
      "inputs": [
        {
          "indexed": false,
          "internalType": "uint16",
          "name": "multiplierBps",
          "type": "uint16"
        }
      ],
      "name": "SetDefaultMultiplierBps",
      "type": "event"
    },
    {
      "anonymous": false,
      "inputs": [
        {
          "components": [
            {
              "internalType": "uint32",
              "name": "dstEid",
              "type": "uint32"
            },
            {
              "internalType": "uint64",
              "name": "gas",
              "type": "uint64"
            },
            {
              "internalType": "uint16",
              "name": "multiplierBps",
              "type": "uint16"
            },
            {
              "internalType": "uint128",
              "name": "floorMarginUSD",
              "type": "uint128"
            }
          ],
          "indexed": false,
          "internalType": "struct IOracle.DstConfigParam[]",
          "name": "params",
          "type": "tuple[]"
        }
      ],
      "name": "SetDstConfig",
      "type": "event"
    },
    {
      "anonymous": false,
      "inputs": [
        {
          "indexed": false,
          "internalType": "address",
          "name": "priceFeed",
          "type": "address"
        }
      ],
      "name": "SetPriceFeed",
      "type": "event"
    },
    {
      "anonymous": false,
      "inputs": [
        {
          "indexed": false,
          "internalType": "address",
          "name": "workerLib",
          "type": "address"
        }
      ],
      "name": "SetWorkerLib",
      "type": "event"
    },
    {
      "anonymous": false,
      "inputs": [
        {
          "indexed": false,
          "internalType": "uint64",
          "name": "_quorum",
          "type": "uint64"
        }
      ],
      "name": "UpdateQuorum",
      "type": "event"
    },
    {
      "anonymous": false,
      "inputs": [
        {
          "indexed": false,
          "internalType": "address",
          "name": "_signer",
          "type": "address"
        },
        {
          "indexed": false,
          "internalType": "bool",
          "name": "_active",
          "type": "bool"
        }
      ],
      "name": "UpdateSigner",
      "type": "event"
    },
    {
      "anonymous": false,
      "inputs": [
        {
          "indexed": false,
          "internalType": "address",
          "name": "lib",
          "type": "address"
        },
        {
          "indexed": false,
          "internalType": "address",
          "name": "to",
          "type": "address"
        },
        {
          "indexed": false,
          "internalType": "uint256",
          "name": "amount",
          "type": "uint256"
        }
      ],
      "name": "Withdraw",
      "type": "event"
    },
    {
      "inputs": [],
      "name": "ADMIN_ROLE",
      "outputs": [
        {
          "internalType": "bytes32",
          "name": "",
          "type": "bytes32"
        }
      ],
      "stateMutability": "view",
      "type": "function"
    },
    {
      "inputs": [],
      "name": "ALLOWLIST",
      "outputs": [
        {
          "internalType": "bytes32",
          "name": "",
          "type": "bytes32"
        }
      ],
      "stateMutability": "view",
      "type": "function"
    },
    {
      "inputs": [],
      "name": "DEFAULT_ADMIN_ROLE",
      "outputs": [
        {
          "internalType": "bytes32",
          "name": "",
          "type": "bytes32"
        }
      ],
      "stateMutability": "view",
      "type": "function"
    },
    {
      "inputs": [],
      "name": "DENYLIST",
      "outputs": [
        {
          "internalType": "bytes32",
          "name": "",
          "type": "bytes32"
        }
      ],
      "stateMutability": "view",
      "type": "function"
    },
    {
      "inputs": [],
      "name": "MESSAGE_LIB_ROLE",
      "outputs": [
        {
          "internalType": "bytes32",
          "name": "",
          "type": "bytes32"
        }
      ],
      "stateMutability": "view",
      "type": "function"
    },
    {
      "inputs": [],
      "name": "allowlistSize",
      "outputs": [
        {
          "internalType": "uint64",
          "name": "",
          "type": "uint64"
        }
      ],
      "stateMutability": "view",
      "type": "function"
    },
    {
      "inputs": [
        {
          "internalType": "uint32",
          "name": "_dstEid",
          "type": "uint32"
        },
        {
          "internalType": "uint64",
          "name": "_confirmations",
          "type": "uint64"
        },
        {
          "internalType": "address",
          "name": "_sender",
          "type": "address"
        },
        {
          "internalType": "bytes",
          "name": "_options",
          "type": "bytes"
        }
      ],
      "name": "assignJob",
      "outputs": [
        {
          "internalType": "uint256",
          "name": "totalFee",
          "type": "uint256"
        }
      ],
      "stateMutability": "payable",
      "type": "function"
    },
    {
      "inputs": [],
      "name": "defaultMultiplierBps",
      "outputs": [
        {
          "internalType": "uint16",
          "name": "",
          "type": "uint16"
        }
      ],
      "stateMutability": "view",
      "type": "function"
    },
    {
      "inputs": [
        {
          "internalType": "uint32",
          "name": "dstEid",
          "type": "uint32"
        }
      ],
      "name": "dstConfig",
      "outputs": [
        {
          "internalType": "uint64",
          "name": "gas",
          "type": "uint64"
        },
        {
          "internalType": "uint16",
          "name": "multiplierBps",
          "type": "uint16"
        },
        {
          "internalType": "uint128",
          "name": "floorMarginUSD",
          "type": "uint128"
        }
      ],
      "stateMutability": "view",
      "type": "function"
    },
    {
      "inputs": [
        {
          "internalType": "address",
          "name": "_target",
          "type": "address"
        },
        {
          "internalType": "bytes",
          "name": "_callData",
          "type": "bytes"
        },
        {
          "internalType": "uint256",
          "name": "_expiration",
          "type": "uint256"
        },
        {
          "internalType": "bytes",
          "name": "_signatures",
          "type": "bytes"
        },
        {
          "internalType": "bool",
          "name": "_tryDeliver",
          "type": "bool"
        }
      ],
      "name": "execute",
      "outputs": [],
      "stateMutability": "nonpayable",
      "type": "function"
    },
    {
      "inputs": [
        {
          "internalType": "uint32",
          "name": "_dstEid",
          "type": "uint32"
        },
        {
          "internalType": "uint64",
          "name": "_confirmations",
          "type": "uint64"
        },
        {
          "internalType": "address",
          "name": "_sender",
          "type": "address"
        },
        {
          "internalType": "bytes",
          "name": "_options",
          "type": "bytes"
        }
      ],
      "name": "getFee",
      "outputs": [
        {
          "internalType": "uint256",
          "name": "fee",
          "type": "uint256"
        }
      ],
      "stateMutability": "view",
      "type": "function"
    },
    {
      "inputs": [
        {
          "internalType": "uint32",
          "name": "_dstEid",
          "type": "uint32"
        }
      ],
      "name": "getPrice",
      "outputs": [
        {
          "internalType": "uint128",
          "name": "",
          "type": "uint128"
        },
        {
          "internalType": "uint64",
          "name": "",
          "type": "uint64"
        }
      ],
      "stateMutability": "view",
      "type": "function"
    },
    {
      "inputs": [
        {
          "internalType": "bytes32",
          "name": "role",
          "type": "bytes32"
        }
      ],
      "name": "getRoleAdmin",
      "outputs": [
        {
          "internalType": "bytes32",
          "name": "",
          "type": "bytes32"
        }
      ],
      "stateMutability": "view",
      "type": "function"
    },
    {
      "inputs": [
        {
          "internalType": "bytes32",
          "name": "role",
          "type": "bytes32"
        },
        {
          "internalType": "address",
          "name": "account",
          "type": "address"
        }
      ],
      "name": "grantRole",
      "outputs": [],
      "stateMutability": "nonpayable",
      "type": "function"
    },
    {
      "inputs": [
        {
          "internalType": "bytes32",
          "name": "role",
          "type": "bytes32"
        },
        {
          "internalType": "address",
          "name": "account",
          "type": "address"
        }
      ],
      "name": "hasRole",
      "outputs": [
        {
          "internalType": "bool",
          "name": "",
          "type": "bool"
        }
      ],
      "stateMutability": "view",
      "type": "function"
    },
    {
      "inputs": [
        {
          "internalType": "address",
          "name": "_target",
          "type": "address"
        },
        {
          "internalType": "bytes",
          "name": "_callData",
          "type": "bytes"
        },
        {
          "internalType": "uint256",
          "name": "_expiration",
          "type": "uint256"
        }
      ],
      "name": "hashCallData",
      "outputs": [
        {
          "internalType": "bytes32",
          "name": "",
          "type": "bytes32"
        }
      ],
      "stateMutability": "pure",
      "type": "function"
    },
    {
      "inputs": [
        {
          "internalType": "address[]",
          "name": "_messageLibs",
          "type": "address[]"
        },
        {
          "internalType": "address",
          "name": "_priceFeed",
          "type": "address"
        },
        {
          "internalType": "address[]",
          "name": "_signers",
          "type": "address[]"
        },
        {
          "internalType": "uint64",
          "name": "_quorum",
          "type": "uint64"
        },
        {
          "internalType": "address[]",
          "name": "_admins",
          "type": "address[]"
        }
      ],
      "name": "initialize",
      "outputs": [],
      "stateMutability": "nonpayable",
      "type": "function"
    },
    {
      "inputs": [],
      "name": "paused",
      "outputs": [
        {
          "internalType": "bool",
          "name": "",
          "type": "bool"
        }
      ],
      "stateMutability": "view",
      "type": "function"
    },
    {
      "inputs": [],
      "name": "priceFeed",
      "outputs": [
        {
          "internalType": "contract ILayerZeroPriceFeed",
          "name": "",
          "type": "address"
        }
      ],
      "stateMutability": "view",
      "type": "function"
    },
    {
      "inputs": [],
      "name": "quorum",
      "outputs": [
        {
          "internalType": "uint64",
          "name": "",
          "type": "uint64"
        }
      ],
      "stateMutability": "view",
      "type": "function"
    },
    {
      "inputs": [
        {
          "internalType": "bytes32",
          "name": "",
          "type": "bytes32"
        },
        {
          "internalType": "address",
          "name": "",
          "type": "address"
        }
      ],
      "name": "renounceRole",
      "outputs": [],
      "stateMutability": "nonpayable",
      "type": "function"
    },
    {
      "inputs": [
        {
          "internalType": "bytes32",
          "name": "role",
          "type": "bytes32"
        },
        {
          "internalType": "address",
          "name": "account",
          "type": "address"
        }
      ],
      "name": "revokeRole",
      "outputs": [],
      "stateMutability": "nonpayable",
      "type": "function"
    },
    {
      "inputs": [
        {
          "internalType": "uint16",
          "name": "_multiplierBps",
          "type": "uint16"
        }
      ],
      "name": "setDefaultMultiplierBps",
      "outputs": [],
      "stateMutability": "nonpayable",
      "type": "function"
    },
    {
      "inputs": [
        {
          "components": [
            {
              "internalType": "uint32",
              "name": "dstEid",
              "type": "uint32"
            },
            {
              "internalType": "uint64",
              "name": "gas",
              "type": "uint64"
            },
            {
              "internalType": "uint16",
              "name": "multiplierBps",
              "type": "uint16"
            },
            {
              "internalType": "uint128",
              "name": "floorMarginUSD",
              "type": "uint128"
            }
          ],
          "internalType": "struct IOracle.DstConfigParam[]",
          "name": "_params",
          "type": "tuple[]"
        }
      ],
      "name": "setDstConfig",
      "outputs": [],
      "stateMutability": "nonpayable",
      "type": "function"
    },
    {
      "inputs": [
        {
          "internalType": "bool",
          "name": "_paused",
          "type": "bool"
        }
      ],
      "name": "setPaused",
      "outputs": [],
      "stateMutability": "nonpayable",
      "type": "function"
    },
    {
      "inputs": [
        {
          "internalType": "address",
          "name": "_priceFeed",
          "type": "address"
        }
      ],
      "name": "setPriceFeed",
      "outputs": [],
      "stateMutability": "nonpayable",
      "type": "function"
    },
    {
      "inputs": [
        {
          "internalType": "uint64",
          "name": "_quorum",
          "type": "uint64"
        }
      ],
      "name": "setQuorum",
      "outputs": [],
      "stateMutability": "nonpayable",
      "type": "function"
    },
    {
      "inputs": [
        {
          "internalType": "address",
          "name": "_signer",
          "type": "address"
        },
        {
          "internalType": "bool",
          "name": "_active",
          "type": "bool"
        }
      ],
      "name": "setSigner",
      "outputs": [],
      "stateMutability": "nonpayable",
      "type": "function"
    },
    {
      "inputs": [
        {
          "internalType": "address",
          "name": "_workerLib",
          "type": "address"
        }
      ],
      "name": "setWorkerLib",
      "outputs": [],
      "stateMutability": "nonpayable",
      "type": "function"
    },
    {
      "inputs": [],
      "name": "signerSize",
      "outputs": [
        {
          "internalType": "uint64",
          "name": "",
          "type": "uint64"
        }
      ],
      "stateMutability": "view",
      "type": "function"
    },
    {
      "inputs": [
        {
          "internalType": "address",
          "name": "signer",
          "type": "address"
        }
      ],
      "name": "signers",
      "outputs": [
        {
          "internalType": "bool",
          "name": "active",
          "type": "bool"
        }
      ],
      "stateMutability": "view",
      "type": "function"
    },
    {
      "inputs": [
        {
          "internalType": "bytes4",
          "name": "interfaceId",
          "type": "bytes4"
        }
      ],
      "name": "supportsInterface",
      "outputs": [
        {
          "internalType": "bool",
          "name": "",
          "type": "bool"
        }
      ],
      "stateMutability": "view",
      "type": "function"
    },
    {
      "inputs": [
        {
          "internalType": "bytes32",
          "name": "executableHash",
          "type": "bytes32"
        }
      ],
      "name": "usedHashes",
      "outputs": [
        {
          "internalType": "bool",
          "name": "used",
          "type": "bool"
        }
      ],
      "stateMutability": "view",
      "type": "function"
    },
    {
      "inputs": [
        {
          "internalType": "bytes32",
          "name": "_hash",
          "type": "bytes32"
        },
        {
          "internalType": "bytes",
          "name": "_signatures",
          "type": "bytes"
        }
      ],
      "name": "verifySignatures",
      "outputs": [],
      "stateMutability": "view",
      "type": "function"
    },
    {
      "inputs": [
        {
          "internalType": "address",
          "name": "_lib",
          "type": "address"
        },
        {
          "internalType": "address payable",
          "name": "_to",
          "type": "address"
        },
        {
          "internalType": "uint256",
          "name": "_amount",
          "type": "uint256"
        }
      ],
      "name": "withdrawFee",
      "outputs": [],
      "stateMutability": "nonpayable",
      "type": "function"
    },
    {
      "inputs": [],
      "name": "workerLib",
      "outputs": [
        {
          "internalType": "address",
          "name": "",
          "type": "address"
        }
      ],
      "stateMutability": "view",
      "type": "function"
    }
  ],
  "transactionHash": "0x0612aeacbbd11438501dcef1d1bc46d5ea8776e462b5978da448b677b81a2887",
  "args": [],
  "numDeployments": 1,
  "solcInputHash": "12821035dc6b52fddd2b30f510462795",
  "bytecode": "0x608060405234801561001057600080fd5b50613eef806100206000396000f3fe60806040526004361061024e5760003560e01c806375b238fc11610138578063aef18bf7116100b0578063d547741f1161007f578063e4fbd90311610064578063e4fbd903146108b4578063f3ad31f4146108c7578063fd62e750146108e757600080fd5b8063d547741f14610843578063da26663a1461086357600080fd5b8063aef18bf71461079a578063c358de0a146107ca578063c7a823e0146107ea578063d2ae21041461080a57600080fd5b806391d14854116101075780639f32e2a3116100ec5780639f32e2a314610731578063a217fddf14610751578063a98586e11461076657600080fd5b806391d14854146106395780639e9449651461068c57600080fd5b806375b238fc14610598578063770f015f146105cc578063834dfdce146105f95780638585c9451461061957600080fd5b806330bb3aac116101cb578063545f8c6b1161019a578063724e78da1161017f578063724e78da146104f6578063736c0d5b14610516578063741bef1a1461054657600080fd5b8063545f8c6b146104a45780635c975abb146104c457600080fd5b806330bb3aac1461042457806331cb61051461044457806336568abe1461046457806352d3b8711461048457600080fd5b806316c38b3c116102225780631f3a6f04116102075780631f3a6f04146103a0578063248a9ca3146103d45780632f2ff15d1461040457600080fd5b806316c38b3c1461033a5780631703a0181461035a57600080fd5b8062bf2e801461025357806301ffc9a7146102a6578063036c0a2c146102d65780631095b6d714610318575b600080fd5b34801561025f57600080fd5b5060975461028e907c0100000000000000000000000000000000000000000000000000000000900461ffff1681565b60405161ffff90911681526020015b60405180910390f35b3480156102b257600080fd5b506102c66102c1366004613077565b610908565b604051901515815260200161029d565b3480156102e257600080fd5b5061030a7f4270fae16c6d150d00e80b689daca99e8073b1838ff2b6063a37be9d851283e481565b60405190815260200161029d565b34801561032457600080fd5b506103386103333660046130db565b6109a1565b005b34801561034657600080fd5b5061033861035536600461312a565b610b4b565b34801561036657600080fd5b5060cb546103879068010000000000000000900467ffffffffffffffff1681565b60405167ffffffffffffffff909116815260200161029d565b3480156103ac57600080fd5b5061030a7f74845de37cfabd357633214b47fa91ccd19b05b7c5a08ac22c187f811fb62bca81565b3480156103e057600080fd5b5061030a6103ef366004613147565b60009081526065602052604090206001015490565b34801561041057600080fd5b5061033861041f366004613160565b610ba1565b34801561043057600080fd5b5061030a61043f366004613211565b610cb1565b34801561045057600080fd5b5061033861045f36600461328d565b610fa8565b34801561047057600080fd5b5061033861047f366004613160565b611005565b34801561049057600080fd5b5061033861049f3660046133b6565b61104d565b3480156104b057600080fd5b506103386104bf366004613517565b6111d3565b3480156104d057600080fd5b506098546102c69074010000000000000000000000000000000000000000900460ff1681565b34801561050257600080fd5b506103386105113660046135c9565b611408565b34801561052257600080fd5b506102c66105313660046135c9565b60ca6020526000908152604090205460ff1681565b34801561055257600080fd5b506098546105739073ffffffffffffffffffffffffffffffffffffffff1681565b60405173ffffffffffffffffffffffffffffffffffffffff909116815260200161029d565b3480156105a457600080fd5b5061030a7fa49807205ce4d355092ef5a8a18f56e8913cf4a201fbe287825b095693c2177581565b3480156105d857600080fd5b506097546105739073ffffffffffffffffffffffffffffffffffffffff1681565b34801561060557600080fd5b506103386106143660046135e6565b6114a5565b34801561062557600080fd5b50610338610634366004613686565b611956565b34801561064557600080fd5b506102c6610654366004613160565b600091825260656020908152604080842073ffffffffffffffffffffffffffffffffffffffff93909316845291905290205460ff1690565b34801561069857600080fd5b506106f66106a73660046136a3565b60fd6020526000908152604090205467ffffffffffffffff81169068010000000000000000810461ffff16906a010000000000000000000090046fffffffffffffffffffffffffffffffff1683565b6040805167ffffffffffffffff909416845261ffff90921660208401526fffffffffffffffffffffffffffffffff169082015260600161029d565b34801561073d57600080fd5b5061033861074c3660046135c9565b6119b1565b34801561075d57600080fd5b5061030a600081565b34801561077257600080fd5b5061030a7f724aface199fe5bed93ae8508474576a9adf3dc443b2c451842a2242919f19de81565b3480156107a657600080fd5b506102c66107b5366004613147565b60fe6020526000908152604090205460ff1681565b3480156107d657600080fd5b506103386107e53660046136c0565b611a57565b3480156107f657600080fd5b506103386108053660046136db565b611b04565b34801561081657600080fd5b506097546103879074010000000000000000000000000000000000000000900467ffffffffffffffff1681565b34801561084f57600080fd5b5061033861085e366004613160565b611e0c565b34801561086f57600080fd5b5061088361087e3660046136a3565b611f17565b604080516fffffffffffffffffffffffffffffffff909316835267ffffffffffffffff90911660208301520161029d565b61030a6108c2366004613211565b611fc7565b3480156108d357600080fd5b5061030a6108e2366004613727565b612079565b3480156108f357600080fd5b5060cb546103879067ffffffffffffffff1681565b60007fffffffff0000000000000000000000000000000000000000000000000000000082167f7965db0b00000000000000000000000000000000000000000000000000000000148061099b57507f01ffc9a7000000000000000000000000000000000000000000000000000000007fffffffff000000000000000000000000000000000000000000000000000000008316145b92915050565b7fa49807205ce4d355092ef5a8a18f56e8913cf4a201fbe287825b095693c217756109cb816120b2565b73ffffffffffffffffffffffffffffffffffffffff841660009081527fe3a3b2721d010eec8988605a93cd7c15d969808c0e2b42f6155dc2b4fa13c081602052604090205460ff16610a645760405162461bcd60e51b815260206004820152601b60248201527f576f726b65723a20496e76616c6964206d657373616765206c6962000000000060448201526064015b60405180910390fd5b6040517ffd9be52200000000000000000000000000000000000000000000000000000000815273ffffffffffffffffffffffffffffffffffffffff84811660048301526024820184905285169063fd9be52290604401600060405180830381600087803b158015610ad457600080fd5b505af1158015610ae8573d6000803e3d6000fd5b50506040805173ffffffffffffffffffffffffffffffffffffffff8089168252871660208201529081018590527f9b1bfa7fa9ee420a16e124f794c35ac9f90472acc99140eb2f6447c714cad8eb9250606001905060405180910390a150505050565b6000610b56816120b2565b506098805491151574010000000000000000000000000000000000000000027fffffffffffffffffffffff00ffffffffffffffffffffffffffffffffffffffff909216919091179055565b817f74845de37cfabd357633214b47fa91ccd19b05b7c5a08ac22c187f811fb62bca811480610bef57507f4270fae16c6d150d00e80b689daca99e8073b1838ff2b6063a37be9d851283e481145b80610c1957507f724aface199fe5bed93ae8508474576a9adf3dc443b2c451842a2242919f19de81145b15610c7257303314610c6d5760405162461bcd60e51b815260206004820152601b60248201527f4f7261636c653a2063616c6c6572206d7573742062652073656c6600000000006044820152606401610a5b565b610ca2565b7fa49807205ce4d355092ef5a8a18f56e8913cf4a201fbe287825b095693c217758103610ca257610ca2816120b2565b610cac83836120bc565b505050565b73ffffffffffffffffffffffffffffffffffffffff831660009081527f0f6a9529577ef7bf1cbc8fccda1cc3c881f755c7e92e34c7c4deac1fa3c1c7916020526040812054849060ff1615610d485760405162461bcd60e51b815260206004820152601360248201527f576f726b65723a206e6f7420616c6c6f776564000000000000000000000000006044820152606401610a5b565b60975474010000000000000000000000000000000000000000900467ffffffffffffffff161580610dbd575073ffffffffffffffffffffffffffffffffffffffff811660009081527f35c5067391a9036240763c1067bfa438a7b0131204a675a2fe562dd73782ce85602052604090205460ff165b15610f565760985474010000000000000000000000000000000000000000900460ff1615610e2d5760405162461bcd60e51b815260206004820152600e60248201527f576f726b65723a207061757365640000000000000000000000000000000000006044820152606401610a5b565b6040805160c08101825260985473ffffffffffffffffffffffffffffffffffffffff908116825263ffffffff8a16602080840182905267ffffffffffffffff808c16858701528a8416606086015260cb5468010000000000000000900416608085015260975461ffff7c010000000000000000000000000000000000000000000000000000000082041660a0860152600092835260fd9091529084902093517f7bfa20a90000000000000000000000000000000000000000000000000000000081529293911691637bfa20a991610f0d918591908a908a906004016137cc565b602060405180830381865afa158015610f2a573d6000803e3d6000fd5b505050506040513d601f19601f82011682018060405250810190610f4e9190613890565b925050610f9e565b60405162461bcd60e51b815260206004820152601360248201527f576f726b65723a206e6f7420616c6c6f776564000000000000000000000000006044820152606401610a5b565b5095945050505050565b303314610ff75760405162461bcd60e51b815260206004820152601b60248201527f4f7261636c653a2063616c6c6572206d7573742062652073656c6600000000006044820152606401610a5b565b6110018282612184565b5050565b60405162461bcd60e51b815260206004820152601c60248201527f576f726b65723a2063616e6e6f742072656e6f756e636520726f6c65000000006044820152606401610a5b565b7fa49807205ce4d355092ef5a8a18f56e8913cf4a201fbe287825b095693c21775611077816120b2565b60005b8251811015611197576000838281518110611097576110976138a9565b60209081029190910181015160408051606080820183528385015167ffffffffffffffff90811683528385015161ffff908116848801908152928601516fffffffffffffffffffffffffffffffff908116858701908152965163ffffffff16600090815260fd9098529490962092518354925195519094166a0100000000000000000000027fffffffffffff00000000000000000000000000000000ffffffffffffffffffff9590961668010000000000000000027fffffffffffffffffffffffffffffffffffffffffffff000000000000000000009092169316929092179190911791909116919091179055508061118f81613907565b91505061107a565b507f7dd21e42791b013d1929e86f0c59085e4fca24251f0f1aa81917b3b1611766e0826040516111c7919061393f565b60405180910390a15050565b60006111fd7fb53127684a568b3173ae13b9f8a6016e243e63b6e8ee1178d6a717850b5d61035490565b905073ffffffffffffffffffffffffffffffffffffffff81166112565773ffffffffffffffffffffffffffffffffffffffff7fb53127684a568b3173ae13b9f8a6016e243e63b6e8ee1178d6a717850b5d610355611278565b3373ffffffffffffffffffffffffffffffffffffffff82161461127857600080fd5b600054610100900460ff16158080156112985750600054600160ff909116105b806112b25750303b1580156112b2575060005460ff166001145b6113245760405162461bcd60e51b815260206004820152602e60248201527f496e697469616c697a61626c653a20636f6e747261637420697320616c72656160448201527f647920696e697469616c697a65640000000000000000000000000000000000006064820152608401610a5b565b600080547fffffffffffffffffffffffffffffffffffffffffffffffffffffffffffffff00166001179055801561138257600080547fffffffffffffffffffffffffffffffffffffffffffffffffffffffffffff00ff166101001790555b6113928787612ee06000876123ba565b61139c858561244b565b80156113ff57600080547fffffffffffffffffffffffffffffffffffffffffffffffffffffffffffff00ff169055604051600181527f7f26b83ff96e1f2b6a682f133852f6798a09c465da95921460cefb38474024989060200160405180910390a15b50505050505050565b7fa49807205ce4d355092ef5a8a18f56e8913cf4a201fbe287825b095693c21775611432816120b2565b609880547fffffffffffffffffffffffff00000000000000000000000000000000000000001673ffffffffffffffffffffffffffffffffffffffff84169081179091556040519081527ff724a45d041687842411f2b977ef22ab8f43c8f1104f4592b42a00f9b34a643d906020016111c7565b7fa49807205ce4d355092ef5a8a18f56e8913cf4a201fbe287825b095693c217756114cf816120b2565b73ffffffffffffffffffffffffffffffffffffffff881660009081527fe3a3b2721d010eec8988605a93cd7c15d969808c0e2b42f6155dc2b4fa13c081602052604090205460ff1680611537575073ffffffffffffffffffffffffffffffffffffffff881630145b6115a95760405162461bcd60e51b815260206004820152602960248201527f4f7261636c653a20746172676574206d757374206265206d6573736167656c6960448201527f62206f722073656c6600000000000000000000000000000000000000000000006064820152608401610a5b565b4285116115f85760405162461bcd60e51b815260206004820152601960248201527f4f7261636c653a2063616c6c20646174612065787069726564000000000000006044820152606401610a5b565b600061160689898989612079565b600081815260fe602052604090205490915060ff161561168e5760405162461bcd60e51b815260206004820152602260248201527f4f7261636c653a2063616c6c206461746120616c72656164792065786563757460448201527f65640000000000000000000000000000000000000000000000000000000000006064820152608401610a5b565b600081815260fe6020526040902080547fffffffffffffffffffffffffffffffffffffffffffffffffffffffffffffff001660011790556116d0818686611b04565b6000808a73ffffffffffffffffffffffffffffffffffffffff168a8a6040516116fa9291906139c9565b6000604051808303816000865af19150503d8060008114611737576040519150601f19603f3d011682016040523d82523d6000602084013e61173c565b606091505b50915091507f293e3a2153dc5c8d3667cbd6ede71a71674b2381e5dc4b40c91ad0e813447c0f8b8484846040516117769493929190613a47565b60405180910390a18480156117885750815b80156117de57507f7e09a8d6000000000000000000000000000000000000000000000000000000006117ba8a8c613a8e565b7fffffffff0000000000000000000000000000000000000000000000000000000016145b156119495760008b90506000808c8c60049080926117fe93929190613ad6565b81019061180b9190613b00565b50909250905060016040517f7c0cf76300000000000000000000000000000000000000000000000000000000815273ffffffffffffffffffffffffffffffffffffffff851690637c0cf763906118679086908690600401613bfc565b602060405180830381865afa158015611884573d6000803e3d6000fd5b505050506040513d601f19601f820116820180604052508101906118a89190613c1e565b60038111156118b9576118b9613bcd565b03611945576040517f5ed31c5900000000000000000000000000000000000000000000000000000000815273ffffffffffffffffffffffffffffffffffffffff841690635ed31c59906119129085908590600401613bfc565b600060405180830381600087803b15801561192c57600080fd5b505af1158015611940573d6000803e3d6000fd5b505050505b5050505b5050505050505050505050565b3033146119a55760405162461bcd60e51b815260206004820152601b60248201527f4f7261636c653a2063616c6c6572206d7573742062652073656c6600000000006044820152606401610a5b565b6119ae816124d2565b50565b7fa49807205ce4d355092ef5a8a18f56e8913cf4a201fbe287825b095693c217756119db816120b2565b6119e4826125c3565b609780547fffffffffffffffffffffffff00000000000000000000000000000000000000001673ffffffffffffffffffffffffffffffffffffffff84169081179091556040519081527f1399be28223800f8669b3ba5f8721d9fc16fc4e8d0bbf98378791c8c5a3015e0906020016111c7565b7fa49807205ce4d355092ef5a8a18f56e8913cf4a201fbe287825b095693c21775611a81816120b2565b609780547fffff0000ffffffffffffffffffffffffffffffffffffffffffffffffffffffff167c010000000000000000000000000000000000000000000000000000000061ffff8516908102919091179091556040519081527f7af0ac740036ffb1c97b03697859d729e80a44ae5030543d64971c313565ab4d906020016111c7565b60cb54611b289068010000000000000000900467ffffffffffffffff166041613c3f565b811015611b775760405162461bcd60e51b815260206004820152601e60248201527f4d756c74695369673a207369676e61747572657320746f6f2073686f727400006044820152606401610a5b565b6000611bd0846040517f19457468657265756d205369676e6564204d6573736167653a0a3332000000006020820152603c8101829052600090605c01604051602081830303815290604052805190602001209050919050565b90506000805b60cb5468010000000000000000900467ffffffffffffffff16811015611e04576000806000611c3c88888080601f0160208091040260200160405190810160405280939291908181526020018383808284376000920191909152508892506126e3915050565b925092509250600060018785858560405160008152602001604052604051611c80949392919093845260ff9290921660208401526040830152606082015260800190565b6020604051602081039080840390855afa158015611ca2573d6000803e3d6000fd5b5050506020604051035190508573ffffffffffffffffffffffffffffffffffffffff168173ffffffffffffffffffffffffffffffffffffffff1611611d4f5760405162461bcd60e51b815260206004820152602f60248201527f4d756c74695369673a207369676e617475726573206d75737420626520696e2060448201527f617363656e64696e67206f7264657200000000000000000000000000000000006064820152608401610a5b565b73ffffffffffffffffffffffffffffffffffffffff8116600090815260ca602052604090205460ff16611dea5760405162461bcd60e51b815260206004820152602860248201527f4d756c74695369673a207369676e6174757265206973206e6f742066726f6d2060448201527f61207369676e65720000000000000000000000000000000000000000000000006064820152608401610a5b565b809550505050508080611dfc90613907565b915050611bd6565b505050505050565b817f74845de37cfabd357633214b47fa91ccd19b05b7c5a08ac22c187f811fb62bca811480611e5a57507f4270fae16c6d150d00e80b689daca99e8073b1838ff2b6063a37be9d851283e481145b80611e8457507f724aface199fe5bed93ae8508474576a9adf3dc443b2c451842a2242919f19de81145b15611edd57303314611ed85760405162461bcd60e51b815260206004820152601b60248201527f4f7261636c653a2063616c6c6572206d7573742062652073656c6600000000006044820152606401610a5b565b611f0d565b7fa49807205ce4d355092ef5a8a18f56e8913cf4a201fbe287825b095693c217758103611f0d57611f0d816120b2565b610cac8383612701565b6098546040517fda26663a00000000000000000000000000000000000000000000000000000000815263ffffffff831660048201526000918291829173ffffffffffffffffffffffffffffffffffffffff169063da26663a90602401606060405180830381865afa158015611f90573d6000803e3d6000fd5b505050506040513d601f19601f82011682018060405250810190611fb49190613c56565b8051602090910151909590945092505050565b60007f724aface199fe5bed93ae8508474576a9adf3dc443b2c451842a2242919f19de611ff3816120b2565b6120008787878787610cb1565b6040805163ffffffff8a16815273ffffffffffffffffffffffffffffffffffffffff8816602082015267ffffffffffffffff8916818301526060810183905290519193507f2fc4e514b16a8f0f9f15009b848663b25939a33de41fa2b98a534b3ac4d5a572919081900360800190a15095945050505050565b6000848285856040516020016120929493929190613cc8565b604051602081830303815290604052805190602001209050949350505050565b6119ae81336127c8565b7f74845de37cfabd357633214b47fa91ccd19b05b7c5a08ac22c187f811fb62bca8214801561211b5750600082815260656020908152604080832073ffffffffffffffffffffffffffffffffffffffff8516845290915290205460ff16155b1561217a576097805474010000000000000000000000000000000000000000900467ffffffffffffffff1690601461215283613d0e565b91906101000a81548167ffffffffffffffff021916908367ffffffffffffffff160217905550505b6110018282612868565b73ffffffffffffffffffffffffffffffffffffffff8216600090815260ca602052604090205481151560ff9091161515036122275760405162461bcd60e51b815260206004820152602660248201527f4d756c74695369673a207369676e657220616c726561647920696e207468617460448201527f20737461746500000000000000000000000000000000000000000000000000006064820152608401610a5b565b73ffffffffffffffffffffffffffffffffffffffff8216600090815260ca6020526040902080547fffffffffffffffffffffffffffffffffffffffffffffffffffffffffffffff0016821515179055806122995760cb546122949060019067ffffffffffffffff16613d35565b6122b1565b60cb546122b19067ffffffffffffffff166001613d5d565b60cb80547fffffffffffffffffffffffffffffffffffffffffffffffff00000000000000001667ffffffffffffffff9283169081179182905568010000000000000000909104909116111561236d5760405162461bcd60e51b8152602060048201526024808201527f4d756c74695369673a20636f6d6d69747465652073697a65203c20746872657360448201527f686f6c64000000000000000000000000000000000000000000000000000000006064820152608401610a5b565b6040805173ffffffffffffffffffffffffffffffffffffffff8416815282151560208201527f863d338cad74814b108a06288ad5e0e80d56495e0332238b1d2cdcfa0ca8e5ce91016111c7565b600054610100900460ff166124375760405162461bcd60e51b815260206004820152602b60248201527f496e697469616c697a61626c653a20636f6e7472616374206973206e6f74206960448201527f6e697469616c697a696e670000000000000000000000000000000000000000006064820152608401610a5b565b612444858585858561295c565b5050505050565b600054610100900460ff166124c85760405162461bcd60e51b815260206004820152602b60248201527f496e697469616c697a61626c653a20636f6e7472616374206973206e6f74206960448201527f6e697469616c697a696e670000000000000000000000000000000000000000006064820152608401610a5b565b6110018282612b27565b60cb5467ffffffffffffffff908116908216118015906124fc575060008167ffffffffffffffff16115b6125485760405162461bcd60e51b815260206004820152601860248201527f4d756c74695369673a20696e76616c69642071756f72756d00000000000000006044820152606401610a5b565b60cb80547fffffffffffffffffffffffffffffffff0000000000000000ffffffffffffffff166801000000000000000067ffffffffffffffff8416908102919091179091556040519081527fb600f3cf7f38a4b49bb0c75f722ef69f7e3e39ef3bb4aa8207fd86e724a232499060200160405180910390a150565b6040517f01ffc9a70000000000000000000000000000000000000000000000000000000081527f7bfa20a900000000000000000000000000000000000000000000000000000000600482015273ffffffffffffffffffffffffffffffffffffffff8216906301ffc9a790602401602060405180830381865afa15801561264d573d6000803e3d6000fd5b505050506040513d601f19601f820116820180604052508101906126719190613d7e565b6119ae5760405162461bcd60e51b815260206004820152602f60248201527f4f7261636c653a20776f726b657220646f6573206e6f7420696d706c656d656e60448201527f7420494f7261636c654665654c696200000000000000000000000000000000006064820152608401610a5b565b60419081029190910160208101516040820151919092015160ff1692565b7f74845de37cfabd357633214b47fa91ccd19b05b7c5a08ac22c187f811fb62bca8214801561275f5750600082815260656020908152604080832073ffffffffffffffffffffffffffffffffffffffff8516845290915290205460ff165b156127be576097805474010000000000000000000000000000000000000000900467ffffffffffffffff1690601461279683613d9b565b91906101000a81548167ffffffffffffffff021916908367ffffffffffffffff160217905550505b6110018282612d6d565b600082815260656020908152604080832073ffffffffffffffffffffffffffffffffffffffff8516845290915290205460ff166110015761280881612e28565b612813836020612e47565b604051602001612824929190613ddd565b604080517fffffffffffffffffffffffffffffffffffffffffffffffffffffffffffffffe08184030181529082905262461bcd60e51b8252610a5b91600401613e5e565b600082815260656020908152604080832073ffffffffffffffffffffffffffffffffffffffff8516845290915290205460ff1661100157600082815260656020908152604080832073ffffffffffffffffffffffffffffffffffffffff85168452909152902080547fffffffffffffffffffffffffffffffffffffffffffffffffffffffffffffff001660011790556128fe3390565b73ffffffffffffffffffffffffffffffffffffffff168173ffffffffffffffffffffffffffffffffffffffff16837f2f8788117e7eff1d82e926ec794901d17c78024a50270940304540a733656f0d60405160405180910390a45050565b600054610100900460ff166129d95760405162461bcd60e51b815260206004820152602b60248201527f496e697469616c697a61626c653a20636f6e7472616374206973206e6f74206960448201527f6e697469616c697a696e670000000000000000000000000000000000000000006064820152608401610a5b565b609780547fffff0000ffffffffffffffffffffffffffffffffffffffffffffffffffffffff167c010000000000000000000000000000000000000000000000000000000061ffff861602179055609880547fffffffffffffffffffffffff00000000000000000000000000000000000000001673ffffffffffffffffffffffffffffffffffffffff8616179055612a716000836120bc565b60005b8551811015612ad257612ac07f724aface199fe5bed93ae8508474576a9adf3dc443b2c451842a2242919f19de878381518110612ab357612ab36138a9565b60200260200101516120bc565b80612aca81613907565b915050612a74565b5060005b8151811015611e0457612b157fa49807205ce4d355092ef5a8a18f56e8913cf4a201fbe287825b095693c21775838381518110612ab357612ab36138a9565b80612b1f81613907565b915050612ad6565b600054610100900460ff16612ba45760405162461bcd60e51b815260206004820152602b60248201527f496e697469616c697a61626c653a20636f6e7472616374206973206e6f74206960448201527f6e697469616c697a696e670000000000000000000000000000000000000000006064820152608401610a5b565b8067ffffffffffffffff16825110158015612bc9575060008167ffffffffffffffff16115b612c155760405162461bcd60e51b815260206004820152601960248201527f4d756c74695369673a207369676e65727320746f6f20666577000000000000006044820152606401610a5b565b6000805b8351811015612d1d576000848281518110612c3657612c366138a9565b602002602001015190508273ffffffffffffffffffffffffffffffffffffffff168173ffffffffffffffffffffffffffffffffffffffff1611612cbb5760405162461bcd60e51b815260206004820152601c60248201527f4d756c74695369673a207369676e657273206e6f7420736f72746564000000006044820152606401610a5b565b73ffffffffffffffffffffffffffffffffffffffff8116600090815260ca6020526040902080547fffffffffffffffffffffffffffffffffffffffffffffffffffffffffffffff00166001179055915080612d1581613907565b915050612c19565b5050905160cb805467ffffffffffffffff93841668010000000000000000027fffffffffffffffffffffffffffffffff000000000000000000000000000000009091169390921692909217179055565b600082815260656020908152604080832073ffffffffffffffffffffffffffffffffffffffff8516845290915290205460ff161561100157600082815260656020908152604080832073ffffffffffffffffffffffffffffffffffffffff8516808552925280832080547fffffffffffffffffffffffffffffffffffffffffffffffffffffffffffffff0016905551339285917ff6391f5c32d9c69d2a47ea670b442974b53935d1edc7fd64eb21e047a839171b9190a45050565b606061099b73ffffffffffffffffffffffffffffffffffffffff831660145b60606000612e56836002613c3f565b612e61906002613e71565b67ffffffffffffffff811115612e7957612e796132bb565b6040519080825280601f01601f191660200182016040528015612ea3576020820181803683370190505b5090507f300000000000000000000000000000000000000000000000000000000000000081600081518110612eda57612eda6138a9565b60200101907effffffffffffffffffffffffffffffffffffffffffffffffffffffffffffff1916908160001a9053507f780000000000000000000000000000000000000000000000000000000000000081600181518110612f3d57612f3d6138a9565b60200101907effffffffffffffffffffffffffffffffffffffffffffffffffffffffffffff1916908160001a9053506000612f79846002613c3f565b612f84906001613e71565b90505b6001811115613021577f303132333435363738396162636465660000000000000000000000000000000085600f1660108110612fc557612fc56138a9565b1a60f81b828281518110612fdb57612fdb6138a9565b60200101907effffffffffffffffffffffffffffffffffffffffffffffffffffffffffffff1916908160001a90535060049490941c9361301a81613e84565b9050612f87565b5083156130705760405162461bcd60e51b815260206004820181905260248201527f537472696e67733a20686578206c656e67746820696e73756666696369656e746044820152606401610a5b565b9392505050565b60006020828403121561308957600080fd5b81357fffffffff000000000000000000000000000000000000000000000000000000008116811461307057600080fd5b73ffffffffffffffffffffffffffffffffffffffff811681146119ae57600080fd5b6000806000606084860312156130f057600080fd5b83356130fb816130b9565b9250602084013561310b816130b9565b929592945050506040919091013590565b80151581146119ae57600080fd5b60006020828403121561313c57600080fd5b81356130708161311c565b60006020828403121561315957600080fd5b5035919050565b6000806040838503121561317357600080fd5b823591506020830135613185816130b9565b809150509250929050565b63ffffffff811681146119ae57600080fd5b67ffffffffffffffff811681146119ae57600080fd5b80356131c3816131a2565b919050565b60008083601f8401126131da57600080fd5b50813567ffffffffffffffff8111156131f257600080fd5b60208301915083602082850101111561320a57600080fd5b9250929050565b60008060008060006080868803121561322957600080fd5b853561323481613190565b94506020860135613244816131a2565b93506040860135613254816130b9565b9250606086013567ffffffffffffffff81111561327057600080fd5b61327c888289016131c8565b969995985093965092949392505050565b600080604083850312156132a057600080fd5b82356132ab816130b9565b915060208301356131858161311c565b7f4e487b7100000000000000000000000000000000000000000000000000000000600052604160045260246000fd5b6040516080810167ffffffffffffffff8111828210171561330d5761330d6132bb565b60405290565b604051601f82017fffffffffffffffffffffffffffffffffffffffffffffffffffffffffffffffe016810167ffffffffffffffff8111828210171561335a5761335a6132bb565b604052919050565b600067ffffffffffffffff82111561337c5761337c6132bb565b5060051b60200190565b803561ffff811681146131c357600080fd5b6fffffffffffffffffffffffffffffffff811681146119ae57600080fd5b600060208083850312156133c957600080fd5b823567ffffffffffffffff8111156133e057600080fd5b8301601f810185136133f157600080fd5b80356134046133ff82613362565b613313565b81815260079190911b8201830190838101908783111561342357600080fd5b928401925b8284101561349d57608084890312156134415760008081fd5b6134496132ea565b843561345481613190565b815284860135613463816131a2565b818701526040613474868201613386565b9082015260608581013561348781613398565b9082015282526080939093019290840190613428565b979650505050505050565b600082601f8301126134b957600080fd5b813560206134c96133ff83613362565b82815260059290921b840181019181810190868411156134e857600080fd5b8286015b8481101561350c5780356134ff816130b9565b83529183019183016134ec565b509695505050505050565b600080600080600060a0868803121561352f57600080fd5b853567ffffffffffffffff8082111561354757600080fd5b61355389838a016134a8565b965060208801359150613565826130b9565b9094506040870135908082111561357b57600080fd5b61358789838a016134a8565b945060608801359150613599826131a2565b909250608087013590808211156135af57600080fd5b506135bc888289016134a8565b9150509295509295909350565b6000602082840312156135db57600080fd5b8135613070816130b9565b600080600080600080600060a0888a03121561360157600080fd5b873561360c816130b9565b9650602088013567ffffffffffffffff8082111561362957600080fd5b6136358b838c016131c8565b909850965060408a0135955060608a013591508082111561365557600080fd5b506136628a828b016131c8565b90945092505060808801356136768161311c565b8091505092959891949750929550565b60006020828403121561369857600080fd5b8135613070816131a2565b6000602082840312156136b557600080fd5b813561307081613190565b6000602082840312156136d257600080fd5b61307082613386565b6000806000604084860312156136f057600080fd5b83359250602084013567ffffffffffffffff81111561370e57600080fd5b61371a868287016131c8565b9497909650939450505050565b6000806000806060858703121561373d57600080fd5b8435613748816130b9565b9350602085013567ffffffffffffffff81111561376457600080fd5b613770878288016131c8565b9598909750949560400135949350505050565b8183528181602085013750600060208284010152600060207fffffffffffffffffffffffffffffffffffffffffffffffffffffffffffffffe0601f840116840101905092915050565b600061014073ffffffffffffffffffffffffffffffffffffffff80885116845263ffffffff6020890151166020850152604088015167ffffffffffffffff80821660408701528260608b01511660608701528060808b015116608087015250505061ffff60a08801511660a084015261387c60c08401875467ffffffffffffffff81168252604081811c61ffff16602084015260509190911c6fffffffffffffffffffffffffffffffff16910152565b8061012084015261349d8184018587613783565b6000602082840312156138a257600080fd5b5051919050565b7f4e487b7100000000000000000000000000000000000000000000000000000000600052603260045260246000fd5b7f4e487b7100000000000000000000000000000000000000000000000000000000600052601160045260246000fd5b60007fffffffffffffffffffffffffffffffffffffffffffffffffffffffffffffffff8203613938576139386138d8565b5060010190565b602080825282518282018190526000919060409081850190868401855b828110156139bc578151805163ffffffff1685528681015167ffffffffffffffff16878601528581015161ffff16868601526060908101516fffffffffffffffffffffffffffffffff16908501526080909301929085019060010161395c565b5091979650505050505050565b8183823760009101908152919050565b60005b838110156139f45781810151838201526020016139dc565b50506000910152565b60008151808452613a158160208601602086016139d9565b601f017fffffffffffffffffffffffffffffffffffffffffffffffffffffffffffffffe0169290920160200192915050565b73ffffffffffffffffffffffffffffffffffffffff851681528360208201528215156040820152608060608201526000613a8460808301846139fd565b9695505050505050565b7fffffffff000000000000000000000000000000000000000000000000000000008135818116916004851015613ace5780818660040360031b1b83161692505b505092915050565b60008085851115613ae657600080fd5b83861115613af357600080fd5b5050820193919092039150565b600080600060608486031215613b1557600080fd5b833567ffffffffffffffff80821115613b2d57600080fd5b818601915086601f830112613b4157600080fd5b8135602082821115613b5557613b556132bb565b613b85817fffffffffffffffffffffffffffffffffffffffffffffffffffffffffffffffe0601f85011601613313565b92508183528881838601011115613b9b57600080fd5b8181850182850137600081838501015282965080880135955050505050613bc4604085016131b8565b90509250925092565b7f4e487b7100000000000000000000000000000000000000000000000000000000600052602160045260246000fd5b604081526000613c0f60408301856139fd565b90508260208301529392505050565b600060208284031215613c3057600080fd5b81516004811061307057600080fd5b808202811582820484141761099b5761099b6138d8565b600060608284031215613c6857600080fd5b6040516060810181811067ffffffffffffffff82111715613c8b57613c8b6132bb565b6040528251613c9981613398565b81526020830151613ca9816131a2565b60208201526040830151613cbc81613190565b60408201529392505050565b7fffffffffffffffffffffffffffffffffffffffff0000000000000000000000008560601b16815283601482015281836034830137600091016034019081529392505050565b600067ffffffffffffffff808316818103613d2b57613d2b6138d8565b6001019392505050565b67ffffffffffffffff828116828216039080821115613d5657613d566138d8565b5092915050565b67ffffffffffffffff818116838216019080821115613d5657613d566138d8565b600060208284031215613d9057600080fd5b81516130708161311c565b600067ffffffffffffffff821680613db557613db56138d8565b7fffffffffffffffffffffffffffffffffffffffffffffffffffffffffffffffff0192915050565b7f416363657373436f6e74726f6c3a206163636f756e7420000000000000000000815260008351613e158160178501602088016139d9565b7f206973206d697373696e6720726f6c65200000000000000000000000000000006017918401918201528351613e528160288401602088016139d9565b01602801949350505050565b60208152600061307060208301846139fd565b8082018082111561099b5761099b6138d8565b600081613e9357613e936138d8565b507fffffffffffffffffffffffffffffffffffffffffffffffffffffffffffffffff019056fea264697066735822122084eecb57bb92f6d0d5fc98179a7bf67417ee13d33bec8427657c6f79e3f8a2ea64736f6c63430008120033",
  "devdoc": {
    "events": {
      "Initialized(uint8)": {
        "details": "Triggered when the contract has been initialized or reinitialized."
      },
      "RoleAdminChanged(bytes32,bytes32,bytes32)": {
        "details": "Emitted when `newAdminRole` is set as ``role``'s admin role, replacing `previousAdminRole` `DEFAULT_ADMIN_ROLE` is the starting admin for all roles, despite {RoleAdminChanged} not being emitted signaling this. _Available since v3.1._"
      },
      "RoleGranted(bytes32,address,address)": {
        "details": "Emitted when `account` is granted `role`. `sender` is the account that originated the contract call, an admin role bearer except when using {AccessControl-_setupRole}."
      },
      "RoleRevoked(bytes32,address,address)": {
        "details": "Emitted when `account` is revoked `role`. `sender` is the account that originated the contract call:   - if using `revokeRole`, it is the admin role bearer   - if using `renounceRole`, it is the role bearer (i.e. `account`)"
      }
    },
    "kind": "dev",
    "methods": {
      "getRoleAdmin(bytes32)": {
        "details": "Returns the admin role that controls `role`. See {grantRole} and {revokeRole}. To change a role's admin, use {_setRoleAdmin}."
      },
      "grantRole(bytes32,address)": {
        "details": "Grants `role` to `account`. If `account` had not been already granted `role`, emits a {RoleGranted} event. Requirements: - the caller must have ``role``'s admin role. May emit a {RoleGranted} event."
      },
      "hasRole(bytes32,address)": {
        "details": "Returns `true` if `account` has been granted `role`."
      },
      "revokeRole(bytes32,address)": {
        "details": "Revokes `role` from `account`. If `account` had been granted `role`, emits a {RoleRevoked} event. Requirements: - the caller must have ``role``'s admin role. May emit a {RoleRevoked} event."
      },
      "supportsInterface(bytes4)": {
        "details": "See {IERC165-supportsInterface}."
      }
    },
    "version": 1
  },
  "userdoc": {
    "kind": "user",
    "methods": {},
    "version": 1
  },
  "storageLayout": {
    "storage": [
      {
        "astId": 3197,
        "contract": "contracts/uln/Oracle.sol:Oracle",
        "label": "_initialized",
        "offset": 0,
        "slot": "0",
        "type": "t_uint8"
      },
      {
        "astId": 3200,
        "contract": "contracts/uln/Oracle.sol:Oracle",
        "label": "_initializing",
        "offset": 1,
        "slot": "0",
        "type": "t_bool"
      },
      {
        "astId": 3814,
        "contract": "contracts/uln/Oracle.sol:Oracle",
        "label": "__gap",
        "offset": 0,
        "slot": "1",
        "type": "t_array(t_uint256)50_storage"
      },
      {
        "astId": 4087,
        "contract": "contracts/uln/Oracle.sol:Oracle",
        "label": "__gap",
        "offset": 0,
        "slot": "51",
        "type": "t_array(t_uint256)50_storage"
      },
      {
        "astId": 2689,
        "contract": "contracts/uln/Oracle.sol:Oracle",
        "label": "_roles",
        "offset": 0,
        "slot": "101",
        "type": "t_mapping(t_bytes32,t_struct(RoleData)2684_storage)"
      },
      {
        "astId": 2984,
        "contract": "contracts/uln/Oracle.sol:Oracle",
        "label": "__gap",
        "offset": 0,
        "slot": "102",
        "type": "t_array(t_uint256)49_storage"
      },
      {
        "astId": 9625,
        "contract": "contracts/uln/Oracle.sol:Oracle",
        "label": "workerLib",
        "offset": 0,
        "slot": "151",
        "type": "t_address"
      },
      {
        "astId": 9627,
        "contract": "contracts/uln/Oracle.sol:Oracle",
        "label": "allowlistSize",
        "offset": 20,
        "slot": "151",
        "type": "t_uint64"
      },
      {
        "astId": 9629,
        "contract": "contracts/uln/Oracle.sol:Oracle",
        "label": "defaultMultiplierBps",
        "offset": 28,
        "slot": "151",
        "type": "t_uint16"
      },
      {
        "astId": 9632,
        "contract": "contracts/uln/Oracle.sol:Oracle",
        "label": "priceFeed",
        "offset": 0,
        "slot": "152",
        "type": "t_contract(ILayerZeroPriceFeed)10191"
      },
      {
        "astId": 9634,
        "contract": "contracts/uln/Oracle.sol:Oracle",
        "label": "paused",
        "offset": 20,
        "slot": "152",
        "type": "t_bool"
      },
      {
        "astId": 9988,
        "contract": "contracts/uln/Oracle.sol:Oracle",
        "label": "__gap",
        "offset": 0,
        "slot": "153",
        "type": "t_array(t_uint256)49_storage"
      },
      {
        "astId": 10578,
        "contract": "contracts/uln/Oracle.sol:Oracle",
        "label": "signers",
        "offset": 0,
        "slot": "202",
        "type": "t_mapping(t_address,t_bool)"
      },
      {
        "astId": 10580,
        "contract": "contracts/uln/Oracle.sol:Oracle",
        "label": "signerSize",
        "offset": 0,
        "slot": "203",
        "type": "t_uint64"
      },
      {
        "astId": 10582,
        "contract": "contracts/uln/Oracle.sol:Oracle",
        "label": "quorum",
        "offset": 8,
        "slot": "203",
        "type": "t_uint64"
      },
      {
        "astId": 10890,
        "contract": "contracts/uln/Oracle.sol:Oracle",
        "label": "__gap",
        "offset": 0,
        "slot": "204",
        "type": "t_array(t_uint256)49_storage"
      },
      {
        "astId": 10913,
        "contract": "contracts/uln/Oracle.sol:Oracle",
        "label": "dstConfig",
        "offset": 0,
        "slot": "253",
        "type": "t_mapping(t_uint32,t_struct(DstConfig)12455_storage)"
      },
      {
        "astId": 10917,
        "contract": "contracts/uln/Oracle.sol:Oracle",
        "label": "usedHashes",
        "offset": 0,
        "slot": "254",
        "type": "t_mapping(t_bytes32,t_bool)"
      }
    ],
    "types": {
      "t_address": {
        "encoding": "inplace",
        "label": "address",
        "numberOfBytes": "20"
      },
      "t_array(t_uint256)49_storage": {
        "base": "t_uint256",
        "encoding": "inplace",
        "label": "uint256[49]",
        "numberOfBytes": "1568"
      },
      "t_array(t_uint256)50_storage": {
        "base": "t_uint256",
        "encoding": "inplace",
        "label": "uint256[50]",
        "numberOfBytes": "1600"
      },
      "t_bool": {
        "encoding": "inplace",
        "label": "bool",
        "numberOfBytes": "1"
      },
      "t_bytes32": {
        "encoding": "inplace",
        "label": "bytes32",
        "numberOfBytes": "32"
      },
      "t_contract(ILayerZeroPriceFeed)10191": {
        "encoding": "inplace",
        "label": "contract ILayerZeroPriceFeed",
        "numberOfBytes": "20"
      },
      "t_mapping(t_address,t_bool)": {
        "encoding": "mapping",
        "key": "t_address",
        "label": "mapping(address => bool)",
        "numberOfBytes": "32",
        "value": "t_bool"
      },
      "t_mapping(t_bytes32,t_bool)": {
        "encoding": "mapping",
        "key": "t_bytes32",
        "label": "mapping(bytes32 => bool)",
        "numberOfBytes": "32",
        "value": "t_bool"
      },
      "t_mapping(t_bytes32,t_struct(RoleData)2684_storage)": {
        "encoding": "mapping",
        "key": "t_bytes32",
        "label": "mapping(bytes32 => struct AccessControlUpgradeable.RoleData)",
        "numberOfBytes": "32",
        "value": "t_struct(RoleData)2684_storage"
      },
      "t_mapping(t_uint32,t_struct(DstConfig)12455_storage)": {
        "encoding": "mapping",
        "key": "t_uint32",
        "label": "mapping(uint32 => struct IOracle.DstConfig)",
        "numberOfBytes": "32",
        "value": "t_struct(DstConfig)12455_storage"
      },
      "t_struct(DstConfig)12455_storage": {
        "encoding": "inplace",
        "label": "struct IOracle.DstConfig",
        "members": [
          {
            "astId": 12450,
            "contract": "contracts/uln/Oracle.sol:Oracle",
            "label": "gas",
            "offset": 0,
            "slot": "0",
            "type": "t_uint64"
          },
          {
            "astId": 12452,
            "contract": "contracts/uln/Oracle.sol:Oracle",
            "label": "multiplierBps",
            "offset": 8,
            "slot": "0",
            "type": "t_uint16"
          },
          {
            "astId": 12454,
            "contract": "contracts/uln/Oracle.sol:Oracle",
            "label": "floorMarginUSD",
            "offset": 10,
            "slot": "0",
            "type": "t_uint128"
          }
        ],
        "numberOfBytes": "32"
      },
      "t_struct(RoleData)2684_storage": {
        "encoding": "inplace",
        "label": "struct AccessControlUpgradeable.RoleData",
        "members": [
          {
            "astId": 2681,
            "contract": "contracts/uln/Oracle.sol:Oracle",
            "label": "members",
            "offset": 0,
            "slot": "0",
            "type": "t_mapping(t_address,t_bool)"
          },
          {
            "astId": 2683,
            "contract": "contracts/uln/Oracle.sol:Oracle",
            "label": "adminRole",
            "offset": 0,
            "slot": "1",
            "type": "t_bytes32"
          }
        ],
        "numberOfBytes": "64"
      },
      "t_uint128": {
        "encoding": "inplace",
        "label": "uint128",
        "numberOfBytes": "16"
      },
      "t_uint16": {
        "encoding": "inplace",
        "label": "uint16",
        "numberOfBytes": "2"
      },
      "t_uint256": {
        "encoding": "inplace",
        "label": "uint256",
        "numberOfBytes": "32"
      },
      "t_uint32": {
        "encoding": "inplace",
        "label": "uint32",
        "numberOfBytes": "4"
      },
      "t_uint64": {
        "encoding": "inplace",
        "label": "uint64",
        "numberOfBytes": "8"
      },
      "t_uint8": {
        "encoding": "inplace",
        "label": "uint8",
        "numberOfBytes": "1"
      }
    }
  }
}