{
  "address": "0x93C7a6D00849c44Ef3E92E95DCEFfccd447909Ae",
  "abi": [
    {
      "inputs": [
        {
          "components": [
            {
              "internalType": "address",
              "name": "priceFeed",
              "type": "address"
            },
            {
              "internalType": "uint32",
              "name": "dstEid",
              "type": "uint32"
            },
            {
              "internalType": "uint64",
              "name": "confirmations",
              "type": "uint64"
            },
            {
              "internalType": "address",
              "name": "sender",
              "type": "address"
            },
            {
              "internalType": "uint64",
              "name": "quorum",
              "type": "uint64"
            },
            {
              "internalType": "uint16",
              "name": "defaultMultiplierBps",
              "type": "uint16"
            }
          ],
          "internalType": "struct IOracleFeeLib.FeeParams",
          "name": "_params",
          "type": "tuple"
        },
        {
          "components": [
            {
              "internalType": "uint64",
              "name": "gas",
              "type": "uint64"
            },
            {
              "internalType": "uint16",
              "name": "multiplierBps",
              "type": "uint16"
            },
            {
              "internalType": "uint128",
              "name": "floorMarginUSD",
              "type": "uint128"
            }
          ],
          "internalType": "struct IOracle.DstConfig",
          "name": "_dstConfig",
          "type": "tuple"
        },
        {
          "internalType": "bytes",
          "name": "",
          "type": "bytes"
        }
      ],
      "name": "getFee",
      "outputs": [
        {
          "internalType": "uint256",
          "name": "",
          "type": "uint256"
        }
      ],
      "stateMutability": "view",
      "type": "function"
    },
    {
      "inputs": [
        {
          "internalType": "contract ILayerZeroPriceFeed",
          "name": "_priceFeed",
          "type": "address"
        },
        {
          "internalType": "uint32",
          "name": "_dstEid",
          "type": "uint32"
        }
      ],
      "name": "getPrice",
      "outputs": [
        {
          "internalType": "uint128",
          "name": "",
          "type": "uint128"
        },
        {
          "internalType": "uint64",
          "name": "",
          "type": "uint64"
        }
      ],
      "stateMutability": "view",
      "type": "function"
    },
    {
      "inputs": [
        {
          "internalType": "bytes4",
          "name": "interfaceId",
          "type": "bytes4"
        }
      ],
      "name": "supportsInterface",
      "outputs": [
        {
          "internalType": "bool",
          "name": "",
          "type": "bool"
        }
      ],
      "stateMutability": "view",
      "type": "function"
    }
  ],
  "transactionHash": "0xb074312515d90c01482569ecf1d8b10389aacb096193d0129afc3dd59fb9d5c4",
  "args": [],
  "numDeployments": 1,
  "solcInputHash": "5ffde9e3e6b2b0a4f1d21e15c800c066",
  "bytecode": "0x608060405234801561001057600080fd5b50610946806100206000396000f3fe608060405234801561001057600080fd5b50600436106100415760003560e01c806301ffc9a714610046578063228cdc031461006e5780637bfa20a9146100b2575b600080fd5b610059610054366004610454565b6100d3565b60405190151581526020015b60405180910390f35b61008161007c3660046104cd565b61016c565b604080516fffffffffffffffffffffffffffffffff909316835267ffffffffffffffff909116602083015201610065565b6100c56100c03660046106ca565b61021b565b604051908152602001610065565b60007fffffffff0000000000000000000000000000000000000000000000000000000082167f7bfa20a900000000000000000000000000000000000000000000000000000000148061016657507f01ffc9a7000000000000000000000000000000000000000000000000000000007fffffffff000000000000000000000000000000000000000000000000000000008316145b92915050565b6040517fda26663a00000000000000000000000000000000000000000000000000000000815263ffffffff821660048201526000908190819073ffffffffffffffffffffffffffffffffffffffff86169063da26663a90602401606060405180830381865afa1580156101e3573d6000803e3d6000fd5b505050506040513d601f19601f8201168201806040525081019061020791906107a4565b805160209091015190969095509350505050565b600080604161ffff16856080015167ffffffffffffffff1661023d9190610827565b905061024a60208261086d565b156102725761025a60208261086d565b6102649082610881565b61026f906020610894565b90505b60008161028160e06044610894565b61028b9190610894565b610296906040610894565b8651602088015187516040517f88a4124c00000000000000000000000000000000000000000000000000000000815263ffffffff90921660048301526024820184905267ffffffffffffffff166044820152919250600091829173ffffffffffffffffffffffffffffffffffffffff16906388a4124c90606401608060405180830381865afa15801561032d573d6000803e3d6000fd5b505050506040513d601f19601f8201168201806040525081019061035191906108a7565b9350505091506000876020015161ffff16600014610373578760200151610379565b8860a001515b9050600061271061038e61ffff841686610827565b61039891906108fc565b90506fffffffffffffffffffffffffffffffff831615806103cd575060408901516fffffffffffffffffffffffffffffffff16155b156103df57955061044d945050505050565b6000836fffffffffffffffffffffffffffffffff16670de0b6b3a76400008b604001516fffffffffffffffffffffffffffffffff1661041e9190610827565b61042891906108fc565b6104329086610894565b90508181116104415781610443565b805b9750505050505050505b9392505050565b60006020828403121561046657600080fd5b81357fffffffff000000000000000000000000000000000000000000000000000000008116811461044d57600080fd5b73ffffffffffffffffffffffffffffffffffffffff811681146104b857600080fd5b50565b63ffffffff811681146104b857600080fd5b600080604083850312156104e057600080fd5b82356104eb81610496565b915060208301356104fb816104bb565b809150509250929050565b7f4e487b7100000000000000000000000000000000000000000000000000000000600052604160045260246000fd5b6040516060810167ffffffffffffffff8111828210171561055857610558610506565b60405290565b60405160c0810167ffffffffffffffff8111828210171561055857610558610506565b67ffffffffffffffff811681146104b857600080fd5b803561ffff811681146105a957600080fd5b919050565b6fffffffffffffffffffffffffffffffff811681146104b857600080fd5b6000606082840312156105de57600080fd5b6105e6610535565b905081356105f381610581565b815261060160208301610597565b60208201526040820135610614816105ae565b604082015292915050565b600082601f83011261063057600080fd5b813567ffffffffffffffff8082111561064b5761064b610506565b604051601f83017fffffffffffffffffffffffffffffffffffffffffffffffffffffffffffffffe0908116603f0116810190828211818310171561069157610691610506565b816040528381528660208588010111156106aa57600080fd5b836020870160208301376000602085830101528094505050505092915050565b60008060008385036101408112156106e157600080fd5b60c08112156106ef57600080fd5b506106f861055e565b843561070381610496565b81526020850135610713816104bb565b6020820152604085013561072681610581565b6040820152606085013561073981610496565b6060820152608085013561074c81610581565b608082015261075d60a08601610597565b60a082015292506107718560c086016105cc565b915061012084013567ffffffffffffffff81111561078e57600080fd5b61079a8682870161061f565b9150509250925092565b6000606082840312156107b657600080fd5b6107be610535565b82516107c9816105ae565b815260208301516107d981610581565b602082015260408301516107ec816104bb565b60408201529392505050565b7f4e487b7100000000000000000000000000000000000000000000000000000000600052601160045260246000fd5b8082028115828204841417610166576101666107f8565b7f4e487b7100000000000000000000000000000000000000000000000000000000600052601260045260246000fd5b60008261087c5761087c61083e565b500690565b81810381811115610166576101666107f8565b80820180821115610166576101666107f8565b600080600080608085870312156108bd57600080fd5b8451935060208501516108cf816105ae565b60408601519093506108e0816105ae565b60608601519092506108f1816105ae565b939692955090935050565b60008261090b5761090b61083e565b50049056fea26469706673582212209a8dfb2589587bcd1bc1d331f28f7a1d728aa04c6e2a53448e9d77836f01c6e864736f6c63430008120033",
  "devdoc": {
    "kind": "dev",
    "methods": {},
    "version": 1
  },
  "userdoc": {
    "kind": "user",
    "methods": {},
    "version": 1
  },
  "storageLayout": {
    "storage": [],
    "types": null
  }
}