{
  "address": "0x94B75AA39bEC4cB15e7B9593C315aF203B7B847f",
  "abi": [
    {
      "inputs": [
        {
          "internalType": "contract ILayerZeroPriceFeed",
          "name": "_priceFeed",
          "type": "address"
        },
        {
          "internalType": "uint32",
          "name": "_dstEid",
          "type": "uint32"
        },
        {
          "internalType": "address",
          "name": "",
          "type": "address"
        },
        {
          "internalType": "uint256",
          "name": "_calldataSize",
          "type": "uint256"
        },
        {
          "internalType": "uint16",
          "name": "_defaultMultiplierBps",
          "type": "uint16"
        },
        {
          "components": [
            {
              "internalType": "uint64",
              "name": "baseGas",
              "type": "uint64"
            },
            {
              "internalType": "uint16",
              "name": "multiplierBps",
              "type": "uint16"
            },
            {
              "internalType": "uint128",
              "name": "floorMarginUSD",
              "type": "uint128"
            },
            {
              "internalType": "uint128",
              "name": "airdropCap",
              "type": "uint128"
            }
          ],
          "internalType": "struct IRelayer.DstConfig",
          "name": "_dstConfig",
          "type": "tuple"
        },
        {
          "internalType": "bytes",
          "name": "_options",
          "type": "bytes"
        }
      ],
      "name": "getFee",
      "outputs": [
        {
          "internalType": "uint256",
          "name": "fee",
          "type": "uint256"
        }
      ],
      "stateMutability": "view",
      "type": "function"
    },
    {
      "inputs": [
        {
          "internalType": "bytes4",
          "name": "interfaceId",
          "type": "bytes4"
        }
      ],
      "name": "supportsInterface",
      "outputs": [
        {
          "internalType": "bool",
          "name": "",
          "type": "bool"
        }
      ],
      "stateMutability": "view",
      "type": "function"
    }
  ],
  "transactionHash": "0x81940bde2959b6f89ff3c86388506a4fc2f2066ba111f30e61edd41c4ba6ad3a",
  "args": [],
  "numDeployments": 1,
  "solcInputHash": "f4e8736b759ec283a614e6b3dfdfade8",
  "bytecode": "0x608060405234801561001057600080fd5b5061103e806100206000396000f3fe608060405234801561001057600080fd5b50600436106100365760003560e01c806301ffc9a71461003b5780635017cfd214610063575b600080fd5b61004e610049366004610c80565b610084565b60405190151581526020015b60405180910390f35b610076610071366004610d8d565b61011d565b60405190815260200161005a565b60007fffffffff0000000000000000000000000000000000000000000000000000000082167f5017cfd200000000000000000000000000000000000000000000000000000000148061011757507f01ffc9a7000000000000000000000000000000000000000000000000000000007fffffffff000000000000000000000000000000000000000000000000000000008316145b92915050565b6000816101975760405162461bcd60e51b815260206004820152602260248201527f52656c617965724665654c69623a206e6f206f7074696f6e732070726f76696460448201527f656400000000000000000000000000000000000000000000000000000000000060648201526084015b60405180910390fd5b8351606085015185918a918c918a918a9160009182916101b8918c8c61031e565b6040517fd5c7155000000000000000000000000000000000000000000000000000000000815263ffffffff891660048201526024810187905260448101829052919350915060009081908190819073ffffffffffffffffffffffffffffffffffffffff8a169063d5c7155090606401608060405180830381865afa158015610244573d6000803e3d6000fd5b505050506040513d601f19601f820116820180604052508101906102689190610ee2565b935093509350935061029b848c6020015161ffff1660001461028e578c60200151610290565b885b8d6040015184610623565b9b508515610307576127108761ffff16836fffffffffffffffffffffffffffffffff16856fffffffffffffffffffffffffffffffff16896102dc9190610f4d565b6102e69190610f64565b6102f09190610f4d565b6102fa9190610f64565b610304908d610f86565b9b505b505050505050505050505098975050505050505050565b600080600061036285858080601f0160208091040260200160405190810160405280939291908181526020018383808284376000920191909152506106ec92505050565b905060008767ffffffffffffffff16925060005b82518110156105f757600261ffff1683828151811061039757610397610f99565b60200260200101516000015161ffff16036104715760006103d48483815181106103c3576103c3610f99565b602002602001015160200151610894565b509050886fffffffffffffffffffffffffffffffff1681111561045f5760405162461bcd60e51b815260206004820152602960248201527f52656c617965724665654c69623a2061697264726f7020616d6f756e7420657860448201527f6365656473206361700000000000000000000000000000000000000000000000606482015260840161018e565b6104698187610f86565b9550506105e5565b600161ffff1683828151811061048957610489610f99565b60200260200101516000015161ffff16036104eb576000806104c78584815181106104b6576104b6610f99565b602002602001015160200151610903565b90925090506104d68188610f86565b96506104e28287610f86565b955050506105e5565b600361ffff1683828151811061050357610503610f99565b60200260200101516000015161ffff1603610541576000806104c785848151811061053057610530610f99565b6020026020010151602001516109a0565b600461ffff1683828151811061055957610559610f99565b60200260200101516000015161ffff160361057757600191506105e5565b60405162461bcd60e51b815260206004820152602260248201527f52656c617965724665654c69623a20696e76616c6964206f7074696f6e20747960448201527f7065000000000000000000000000000000000000000000000000000000000000606482015260840161018e565b806105ef81610faf565b915050610376565b50801561061857606461060b846066610f4d565b6106159190610f64565b92505b505094509492505050565b60008061271061063761ffff871688610f4d565b6106419190610f64565b90506fffffffffffffffffffffffffffffffff8316158061067257506fffffffffffffffffffffffffffffffff8416155b1561067e5790506106e4565b600086846fffffffffffffffffffffffffffffffff16670de0b6b3a7640000876fffffffffffffffffffffffffffffffff166106ba9190610f4d565b6106c49190610f64565b6106ce9190610f86565b90508181116106dd57816106df565b805b925050505b949350505050565b60606000806106fb8482610a08565b9050610708600283610f86565b915060008161ffff1667ffffffffffffffff81111561072957610729610d05565b60405190808252806020026020018201604052801561076f57816020015b6040805180820190915260008152606060208201528152602001906001900390816107475790505b5090506000805b8361ffff168161ffff1610156108895760006107928887610a08565b905061079f600287610f86565b95508261ffff168161ffff16116107f85760405162461bcd60e51b815260206004820152600760248201527f4c5a313030303600000000000000000000000000000000000000000000000000604482015260640161018e565b91508160006108078988610a08565b9050610814600288610f86565b965060006108278a8961ffff8516610a6e565b905061083761ffff831689610f86565b975060405180604001604052808461ffff16815260200182815250868561ffff168151811061086857610868610f99565b6020026020010181905250505050808061088190610fe7565b915050610776565b509095945050505050565b60008082516030146108d25760405162461bcd60e51b81526020600482015260076024820152664c5a313030303960c81b604482015260640161018e565b6108dd836000610bb4565b6fffffffffffffffffffffffffffffffff1691506108fc836010610c1a565b9050915091565b600080825160101480610917575082516020145b61094d5760405162461bcd60e51b81526020600482015260076024820152664c5a313030303960c81b604482015260640161018e565b610958836000610bb4565b6fffffffffffffffffffffffffffffffff169150825160201461097c576000610987565b610987836010610bb4565b6fffffffffffffffffffffffffffffffff169050915091565b60008082516020146109de5760405162461bcd60e51b81526020600482015260076024820152664c5a313030303960c81b604482015260640161018e565b6109e9836000610bb4565b6fffffffffffffffffffffffffffffffff169150610987836010610bb4565b6000610a15826002610f86565b83511015610a655760405162461bcd60e51b815260206004820152601460248201527f746f55696e7431365f6f75744f66426f756e6473000000000000000000000000604482015260640161018e565b50016002015190565b606081610a7c81601f610f86565b1015610aca5760405162461bcd60e51b815260206004820152600e60248201527f736c6963655f6f766572666c6f77000000000000000000000000000000000000604482015260640161018e565b610ad48284610f86565b84511015610b245760405162461bcd60e51b815260206004820152601160248201527f736c6963655f6f75744f66426f756e6473000000000000000000000000000000604482015260640161018e565b606082158015610b435760405191506000825260208201604052610bab565b6040519150601f8416801560200281840101858101878315602002848b0101015b81831015610b7c578051835260209283019201610b64565b5050858452601f017fffffffffffffffffffffffffffffffffffffffffffffffffffffffffffffffe016604052505b50949350505050565b6000610bc1826010610f86565b83511015610c115760405162461bcd60e51b815260206004820152601560248201527f746f55696e743132385f6f75744f66426f756e64730000000000000000000000604482015260640161018e565b50016010015190565b6000610c27826020610f86565b83511015610c775760405162461bcd60e51b815260206004820152601560248201527f746f427974657333325f6f75744f66426f756e64730000000000000000000000604482015260640161018e565b50016020015190565b600060208284031215610c9257600080fd5b81357fffffffff0000000000000000000000000000000000000000000000000000000081168114610cc257600080fd5b9392505050565b73ffffffffffffffffffffffffffffffffffffffff81168114610ceb57600080fd5b50565b803561ffff81168114610d0057600080fd5b919050565b634e487b7160e01b600052604160045260246000fd5b6fffffffffffffffffffffffffffffffff81168114610ceb57600080fd5b8035610d0081610d1b565b60008083601f840112610d5657600080fd5b50813567ffffffffffffffff811115610d6e57600080fd5b602083019150836020828501011115610d8657600080fd5b9250929050565b600080600080600080600080888a03610140811215610dab57600080fd5b8935610db681610cc9565b985060208a013563ffffffff81168114610dcf57600080fd5b975060408a0135610ddf81610cc9565b965060608a01359550610df460808b01610cee565b945060807fffffffffffffffffffffffffffffffffffffffffffffffffffffffffffffff6082011215610e2657600080fd5b506040516080810167ffffffffffffffff8282108183111715610e5957634e487b7160e01b600052604160045260246000fd5b8160405260a08c013591508082168214610e7257600080fd5b818352610e8160c08d01610cee565b6020840152610e9260e08d01610d39565b6040840152610ea46101008d01610d39565b60608401529194506101208b01359180831115610ec057600080fd5b5050610ece8b828c01610d44565b999c989b5096995094979396929594505050565b60008060008060808587031215610ef857600080fd5b845193506020850151610f0a81610d1b565b6040860151909350610f1b81610d1b565b6060860151909250610f2c81610d1b565b939692955090935050565b634e487b7160e01b600052601160045260246000fd5b808202811582820484141761011757610117610f37565b600082610f8157634e487b7160e01b600052601260045260246000fd5b500490565b8082018082111561011757610117610f37565b634e487b7160e01b600052603260045260246000fd5b60007fffffffffffffffffffffffffffffffffffffffffffffffffffffffffffffffff8203610fe057610fe0610f37565b5060010190565b600061ffff808316818103610ffe57610ffe610f37565b600101939250505056fea264697066735822122048a59abf2cd287f491a5572fb2e12442e3b5493e87a4c4db57ad13bc289742ce64736f6c63430008110033",
  "devdoc": {
    "kind": "dev",
    "methods": {},
    "version": 1
  },
  "userdoc": {
    "kind": "user",
    "methods": {},
    "version": 1
  },
  "storageLayout": {
    "storage": [],
    "types": null
  }
}