{
  "address": "0x6e989C01a3e3A94C973A62280a72EC335598490e",
  "abi": [
    {
      "anonymous": false,
      "inputs": [
        {
          "indexed": false,
          "internalType": "uint8",
          "name": "version",
          "type": "uint8"
        }
      ],
      "name": "Initialized",
      "type": "event"
    },
    {
      "anonymous": false,
      "inputs": [
        {
          "indexed": true,
          "internalType": "bytes32",
          "name": "role",
          "type": "bytes32"
        },
        {
          "indexed": true,
          "internalType": "bytes32",
          "name": "previousAdminRole",
          "type": "bytes32"
        },
        {
          "indexed": true,
          "internalType": "bytes32",
          "name": "newAdminRole",
          "type": "bytes32"
        }
      ],
      "name": "RoleAdminChanged",
      "type": "event"
    },
    {
      "anonymous": false,
      "inputs": [
        {
          "indexed": true,
          "internalType": "bytes32",
          "name": "role",
          "type": "bytes32"
        },
        {
          "indexed": true,
          "internalType": "address",
          "name": "account",
          "type": "address"
        },
        {
          "indexed": true,
          "internalType": "address",
          "name": "sender",
          "type": "address"
        }
      ],
      "name": "RoleGranted",
      "type": "event"
    },
    {
      "anonymous": false,
      "inputs": [
        {
          "indexed": true,
          "internalType": "bytes32",
          "name": "role",
          "type": "bytes32"
        },
        {
          "indexed": true,
          "internalType": "address",
          "name": "account",
          "type": "address"
        },
        {
          "indexed": true,
          "internalType": "address",
          "name": "sender",
          "type": "address"
        }
      ],
      "name": "RoleRevoked",
      "type": "event"
    },
    {
      "anonymous": false,
      "inputs": [
        {
          "indexed": false,
          "internalType": "uint16",
          "name": "multiplierBps",
          "type": "uint16"
        }
      ],
      "name": "SetDefaultMultiplierBps",
      "type": "event"
    },
    {
      "anonymous": false,
      "inputs": [
        {
          "components": [
            {
              "internalType": "uint32",
              "name": "dstEid",
              "type": "uint32"
            },
            {
              "internalType": "uint64",
              "name": "baseGas",
              "type": "uint64"
            },
            {
              "internalType": "uint16",
              "name": "multiplierBps",
              "type": "uint16"
            },
            {
              "internalType": "uint128",
              "name": "floorMarginUSD",
              "type": "uint128"
            },
            {
              "internalType": "uint128",
              "name": "airdropCap",
              "type": "uint128"
            }
          ],
          "indexed": false,
          "internalType": "struct IRelayer.DstConfigParam[]",
          "name": "params",
          "type": "tuple[]"
        }
      ],
      "name": "SetDstConfig",
      "type": "event"
    },
    {
      "anonymous": false,
      "inputs": [
        {
          "indexed": false,
          "internalType": "address",
          "name": "priceFeed",
          "type": "address"
        }
      ],
      "name": "SetPriceFeed",
      "type": "event"
    },
    {
      "anonymous": false,
      "inputs": [
        {
          "indexed": false,
          "internalType": "address",
          "name": "workerLib",
          "type": "address"
        }
      ],
      "name": "SetWorkerLib",
      "type": "event"
    },
    {
      "anonymous": false,
      "inputs": [
        {
          "indexed": false,
          "internalType": "address",
          "name": "lib",
          "type": "address"
        },
        {
          "indexed": false,
          "internalType": "address",
          "name": "to",
          "type": "address"
        },
        {
          "indexed": false,
          "internalType": "uint256",
          "name": "amount",
          "type": "uint256"
        }
      ],
      "name": "Withdraw",
      "type": "event"
    },
    {
      "inputs": [],
      "name": "ADMIN_ROLE",
      "outputs": [
        {
          "internalType": "bytes32",
          "name": "",
          "type": "bytes32"
        }
      ],
      "stateMutability": "view",
      "type": "function"
    },
    {
      "inputs": [],
      "name": "ALLOWLIST",
      "outputs": [
        {
          "internalType": "bytes32",
          "name": "",
          "type": "bytes32"
        }
      ],
      "stateMutability": "view",
      "type": "function"
    },
    {
      "inputs": [],
      "name": "DEFAULT_ADMIN_ROLE",
      "outputs": [
        {
          "internalType": "bytes32",
          "name": "",
          "type": "bytes32"
        }
      ],
      "stateMutability": "view",
      "type": "function"
    },
    {
      "inputs": [],
      "name": "DENYLIST",
      "outputs": [
        {
          "internalType": "bytes32",
          "name": "",
          "type": "bytes32"
        }
      ],
      "stateMutability": "view",
      "type": "function"
    },
    {
      "inputs": [],
      "name": "MESSAGE_LIB_ROLE",
      "outputs": [
        {
          "internalType": "bytes32",
          "name": "",
          "type": "bytes32"
        }
      ],
      "stateMutability": "view",
      "type": "function"
    },
    {
      "inputs": [],
      "name": "allowlistSize",
      "outputs": [
        {
          "internalType": "uint64",
          "name": "",
          "type": "uint64"
        }
      ],
      "stateMutability": "view",
      "type": "function"
    },
    {
      "inputs": [
        {
          "internalType": "uint32",
          "name": "_dstEid",
          "type": "uint32"
        },
        {
          "internalType": "address",
          "name": "_sender",
          "type": "address"
        },
        {
          "internalType": "uint256",
          "name": "_calldataSize",
          "type": "uint256"
        },
        {
          "internalType": "bytes",
          "name": "_options",
          "type": "bytes"
        }
      ],
      "name": "assignJob",
      "outputs": [
        {
          "internalType": "uint256",
          "name": "fee",
          "type": "uint256"
        }
      ],
      "stateMutability": "payable",
      "type": "function"
    },
    {
      "inputs": [],
      "name": "defaultMultiplierBps",
      "outputs": [
        {
          "internalType": "uint16",
          "name": "",
          "type": "uint16"
        }
      ],
      "stateMutability": "view",
      "type": "function"
    },
    {
      "inputs": [
        {
          "internalType": "uint32",
          "name": "",
          "type": "uint32"
        }
      ],
      "name": "dstConfig",
      "outputs": [
        {
          "internalType": "uint64",
          "name": "baseGas",
          "type": "uint64"
        },
        {
          "internalType": "uint16",
          "name": "multiplierBps",
          "type": "uint16"
        },
        {
          "internalType": "uint128",
          "name": "floorMarginUSD",
          "type": "uint128"
        },
        {
          "internalType": "uint128",
          "name": "airdropCap",
          "type": "uint128"
        }
      ],
      "stateMutability": "view",
      "type": "function"
    },
    {
      "inputs": [
        {
          "internalType": "uint32",
          "name": "_dstEid",
          "type": "uint32"
        },
        {
          "internalType": "address",
          "name": "_sender",
          "type": "address"
        },
        {
          "internalType": "uint256",
          "name": "_calldataSize",
          "type": "uint256"
        },
        {
          "internalType": "bytes",
          "name": "_options",
          "type": "bytes"
        }
      ],
      "name": "getFee",
      "outputs": [
        {
          "internalType": "uint256",
          "name": "fee",
          "type": "uint256"
        }
      ],
      "stateMutability": "view",
      "type": "function"
    },
    {
      "inputs": [
        {
          "internalType": "uint32",
          "name": "_dstEid",
          "type": "uint32"
        }
      ],
      "name": "getPrice",
      "outputs": [
        {
          "internalType": "uint128",
          "name": "",
          "type": "uint128"
        },
        {
          "internalType": "uint64",
          "name": "",
          "type": "uint64"
        }
      ],
      "stateMutability": "view",
      "type": "function"
    },
    {
      "inputs": [
        {
          "internalType": "bytes32",
          "name": "role",
          "type": "bytes32"
        }
      ],
      "name": "getRoleAdmin",
      "outputs": [
        {
          "internalType": "bytes32",
          "name": "",
          "type": "bytes32"
        }
      ],
      "stateMutability": "view",
      "type": "function"
    },
    {
      "inputs": [
        {
          "internalType": "bytes32",
          "name": "role",
          "type": "bytes32"
        },
        {
          "internalType": "address",
          "name": "account",
          "type": "address"
        }
      ],
      "name": "grantRole",
      "outputs": [],
      "stateMutability": "nonpayable",
      "type": "function"
    },
    {
      "inputs": [
        {
          "internalType": "bytes32",
          "name": "role",
          "type": "bytes32"
        },
        {
          "internalType": "address",
          "name": "account",
          "type": "address"
        }
      ],
      "name": "hasRole",
      "outputs": [
        {
          "internalType": "bool",
          "name": "",
          "type": "bool"
        }
      ],
      "stateMutability": "view",
      "type": "function"
    },
    {
      "inputs": [
        {
          "internalType": "address[]",
          "name": "_messageLibs",
          "type": "address[]"
        },
        {
          "internalType": "address",
          "name": "_priceFeed",
          "type": "address"
        },
        {
          "internalType": "address",
          "name": "_roleAdmin",
          "type": "address"
        },
        {
          "internalType": "address[]",
          "name": "_admins",
          "type": "address[]"
        }
      ],
      "name": "initialize",
      "outputs": [],
      "stateMutability": "nonpayable",
      "type": "function"
    },
    {
      "inputs": [],
      "name": "paused",
      "outputs": [
        {
          "internalType": "bool",
          "name": "",
          "type": "bool"
        }
      ],
      "stateMutability": "view",
      "type": "function"
    },
    {
      "inputs": [],
      "name": "priceFeed",
      "outputs": [
        {
          "internalType": "contract ILayerZeroPriceFeed",
          "name": "",
          "type": "address"
        }
      ],
      "stateMutability": "view",
      "type": "function"
    },
    {
      "inputs": [
        {
          "internalType": "bytes32",
          "name": "",
          "type": "bytes32"
        },
        {
          "internalType": "address",
          "name": "",
          "type": "address"
        }
      ],
      "name": "renounceRole",
      "outputs": [],
      "stateMutability": "nonpayable",
      "type": "function"
    },
    {
      "inputs": [
        {
          "internalType": "bytes32",
          "name": "role",
          "type": "bytes32"
        },
        {
          "internalType": "address",
          "name": "account",
          "type": "address"
        }
      ],
      "name": "revokeRole",
      "outputs": [],
      "stateMutability": "nonpayable",
      "type": "function"
    },
    {
      "inputs": [
        {
          "internalType": "uint16",
          "name": "_multiplierBps",
          "type": "uint16"
        }
      ],
      "name": "setDefaultMultiplierBps",
      "outputs": [],
      "stateMutability": "nonpayable",
      "type": "function"
    },
    {
      "inputs": [
        {
          "components": [
            {
              "internalType": "uint32",
              "name": "dstEid",
              "type": "uint32"
            },
            {
              "internalType": "uint64",
              "name": "baseGas",
              "type": "uint64"
            },
            {
              "internalType": "uint16",
              "name": "multiplierBps",
              "type": "uint16"
            },
            {
              "internalType": "uint128",
              "name": "floorMarginUSD",
              "type": "uint128"
            },
            {
              "internalType": "uint128",
              "name": "airdropCap",
              "type": "uint128"
            }
          ],
          "internalType": "struct IRelayer.DstConfigParam[]",
          "name": "_params",
          "type": "tuple[]"
        }
      ],
      "name": "setDstConfig",
      "outputs": [],
      "stateMutability": "nonpayable",
      "type": "function"
    },
    {
      "inputs": [
        {
          "internalType": "bool",
          "name": "_paused",
          "type": "bool"
        }
      ],
      "name": "setPaused",
      "outputs": [],
      "stateMutability": "nonpayable",
      "type": "function"
    },
    {
      "inputs": [
        {
          "internalType": "address",
          "name": "_priceFeed",
          "type": "address"
        }
      ],
      "name": "setPriceFeed",
      "outputs": [],
      "stateMutability": "nonpayable",
      "type": "function"
    },
    {
      "inputs": [
        {
          "internalType": "address",
          "name": "_workerLib",
          "type": "address"
        }
      ],
      "name": "setWorkerLib",
      "outputs": [],
      "stateMutability": "nonpayable",
      "type": "function"
    },
    {
      "inputs": [
        {
          "internalType": "bytes4",
          "name": "interfaceId",
          "type": "bytes4"
        }
      ],
      "name": "supportsInterface",
      "outputs": [
        {
          "internalType": "bool",
          "name": "",
          "type": "bool"
        }
      ],
      "stateMutability": "view",
      "type": "function"
    },
    {
      "inputs": [
        {
          "internalType": "address",
          "name": "_lib",
          "type": "address"
        },
        {
          "internalType": "address payable",
          "name": "_to",
          "type": "address"
        },
        {
          "internalType": "uint256",
          "name": "_amount",
          "type": "uint256"
        }
      ],
      "name": "withdrawFee",
      "outputs": [],
      "stateMutability": "nonpayable",
      "type": "function"
    },
    {
      "inputs": [],
      "name": "workerLib",
      "outputs": [
        {
          "internalType": "address",
          "name": "",
          "type": "address"
        }
      ],
      "stateMutability": "view",
      "type": "function"
    }
  ],
  "transactionHash": "0x1e152eb6243a5b568ea769eae38bfba6263f505c09b4000f257f344cd853dfd7",
  "args": [],
  "numDeployments": 1,
  "solcInputHash": "f4e8736b759ec283a614e6b3dfdfade8",
  "bytecode": "0x608060405234801561001057600080fd5b50612364806100206000396000f3fe6080604052600436106101ab5760003560e01c8063724e78da116100ec578063a217fddf1161008a578063c358de0a11610064578063c358de0a146105ec578063d2ae21041461060c578063d547741f1461064d578063da26663a1461066d57600080fd5b8063a217fddf14610583578063a98586e114610598578063acdbcca5146105cc57600080fd5b8063770f015f116100c6578063770f015f1461044257806391d14854146104625780639e944965146104a85780639f32e2a31461056357600080fd5b8063724e78da146103b6578063741bef1a146103d657806375b238fc1461040e57600080fd5b8063248a9ca31161015957806336568abe1161013357806336568abe146103425780635c975abb14610362578063709eb66414610383578063717e8a42146103a357600080fd5b8063248a9ca3146102d257806325b16ebe146103025780632f2ff15d1461032257600080fd5b80631095b6d71161018a5780631095b6d71461025c57806316c38b3c1461027e5780631f3a6f041461029e57600080fd5b8062bf2e80146101b057806301ffc9a7146101ea578063036c0a2c1461021a575b600080fd5b3480156101bc57600080fd5b506097546101d290600160e01b900461ffff1681565b60405161ffff90911681526020015b60405180910390f35b3480156101f657600080fd5b5061020a610205366004611a83565b6106be565b60405190151581526020016101e1565b34801561022657600080fd5b5061024e7f4270fae16c6d150d00e80b689daca99e8073b1838ff2b6063a37be9d851283e481565b6040519081526020016101e1565b34801561026857600080fd5b5061027c610277366004611ada565b610757565b005b34801561028a57600080fd5b5061027c610299366004611b29565b6108da565b3480156102aa57600080fd5b5061024e7f74845de37cfabd357633214b47fa91ccd19b05b7c5a08ac22c187f811fb62bca81565b3480156102de57600080fd5b5061024e6102ed366004611b46565b60009081526065602052604090206001015490565b34801561030e57600080fd5b5061027c61031d366004611c67565b61091f565b34801561032e57600080fd5b5061027c61033d366004611cf4565b610ac9565b34801561034e57600080fd5b5061027c61035d366004611cf4565b610af3565b34801561036e57600080fd5b5060985461020a90600160a01b900460ff1681565b34801561038f57600080fd5b5061024e61039e366004611d36565b610b3b565b61024e6103b1366004611d36565b610d90565b3480156103c257600080fd5b5061027c6103d1366004611dd5565b610dd4565b3480156103e257600080fd5b506098546103f6906001600160a01b031681565b6040516001600160a01b0390911681526020016101e1565b34801561041a57600080fd5b5061024e7fa49807205ce4d355092ef5a8a18f56e8913cf4a201fbe287825b095693c2177581565b34801561044e57600080fd5b506097546103f6906001600160a01b031681565b34801561046e57600080fd5b5061020a61047d366004611cf4565b60009182526065602090815260408084206001600160a01b0393909316845291905290205460ff1690565b3480156104b457600080fd5b5061051d6104c3366004611df2565b60ca602052600090815260409020805460019091015467ffffffffffffffff82169161ffff68010000000000000000820416916fffffffffffffffffffffffffffffffff6a01000000000000000000009092048216911684565b6040805167ffffffffffffffff909516855261ffff90931660208501526fffffffffffffffffffffffffffffffff918216928401929092521660608201526080016101e1565b34801561056f57600080fd5b5061027c61057e366004611dd5565b610e61565b34801561058f57600080fd5b5061024e600081565b3480156105a457600080fd5b5061024e7f724aface199fe5bed93ae8508474576a9adf3dc443b2c451842a2242919f19de81565b3480156105d857600080fd5b5061027c6105e7366004611e5a565b610eef565b3480156105f857600080fd5b5061027c610607366004611f57565b6110a9565b34801561061857600080fd5b5060975461063490600160a01b900467ffffffffffffffff1681565b60405167ffffffffffffffff90911681526020016101e1565b34801561065957600080fd5b5061027c610668366004611cf4565b61113d565b34801561067957600080fd5b5061068d610688366004611df2565b611162565b604080516fffffffffffffffffffffffffffffffff909316835267ffffffffffffffff9091166020830152016101e1565b60007fffffffff0000000000000000000000000000000000000000000000000000000082167f7965db0b00000000000000000000000000000000000000000000000000000000148061075157507f01ffc9a7000000000000000000000000000000000000000000000000000000007fffffffff000000000000000000000000000000000000000000000000000000008316145b92915050565b7fa49807205ce4d355092ef5a8a18f56e8913cf4a201fbe287825b095693c2177561078181611205565b6001600160a01b03841660009081527fe3a3b2721d010eec8988605a93cd7c15d969808c0e2b42f6155dc2b4fa13c081602052604090205460ff1661080d5760405162461bcd60e51b815260206004820152601b60248201527f576f726b65723a20496e76616c6964206d657373616765206c6962000000000060448201526064015b60405180910390fd5b6040517ffd9be5220000000000000000000000000000000000000000000000000000000081526001600160a01b0384811660048301526024820184905285169063fd9be52290604401600060405180830381600087803b15801561087057600080fd5b505af1158015610884573d6000803e3d6000fd5b5050604080516001600160a01b038089168252871660208201529081018590527f9b1bfa7fa9ee420a16e124f794c35ac9f90472acc99140eb2f6447c714cad8eb9250606001905060405180910390a150505050565b60006108e581611205565b5060988054911515600160a01b027fffffffffffffffffffffff00ffffffffffffffffffffffffffffffffffffffff909216919091179055565b60006109497fb53127684a568b3173ae13b9f8a6016e243e63b6e8ee1178d6a717850b5d61035490565b90506001600160a01b038116610988576001600160a01b037fb53127684a568b3173ae13b9f8a6016e243e63b6e8ee1178d6a717850b5d61035561099d565b336001600160a01b0382161461099d57600080fd5b600054610100900460ff16158080156109bd5750600054600160ff909116105b806109d75750303b1580156109d7575060005460ff166001145b610a495760405162461bcd60e51b815260206004820152602e60248201527f496e697469616c697a61626c653a20636f6e747261637420697320616c72656160448201527f647920696e697469616c697a65640000000000000000000000000000000000006064820152608401610804565b6000805460ff191660011790558015610a6c576000805461ff0019166101001790555b610a7b8686612ee08787611212565b8015610ac1576000805461ff0019169055604051600181527f7f26b83ff96e1f2b6a682f133852f6798a09c465da95921460cefb38474024989060200160405180910390a15b505050505050565b600082815260656020526040902060010154610ae481611205565b610aee83836112a3565b505050565b60405162461bcd60e51b815260206004820152601c60248201527f576f726b65723a2063616e6e6f742072656e6f756e636520726f6c65000000006044820152606401610804565b6001600160a01b03841660009081527f0f6a9529577ef7bf1cbc8fccda1cc3c881f755c7e92e34c7c4deac1fa3c1c7916020526040812054859060ff1615610bc55760405162461bcd60e51b815260206004820152601360248201527f576f726b65723a206e6f7420616c6c6f776564000000000000000000000000006044820152606401610804565b609754600160a01b900467ffffffffffffffff161580610c1c57506001600160a01b03811660009081527f35c5067391a9036240763c1067bfa438a7b0131204a675a2fe562dd73782ce85602052604090205460ff165b15610d3e57609854600160a01b900460ff1615610c7b5760405162461bcd60e51b815260206004820152600e60248201527f576f726b65723a207061757365640000000000000000000000000000000000006044820152606401610804565b60975460985463ffffffff8916600090815260ca60205260409081902090517f5017cfd20000000000000000000000000000000000000000000000000000000081526001600160a01b0380851694635017cfd294610cf6949216928d928d928d92600160e01b90910461ffff1691908d908d90600401611f9d565b602060405180830381865afa158015610d13573d6000803e3d6000fd5b505050506040513d601f19601f82011682018060405250810190610d379190612042565b9150610d86565b60405162461bcd60e51b815260206004820152601360248201527f576f726b65723a206e6f7420616c6c6f776564000000000000000000000000006044820152606401610804565b5095945050505050565b60007f724aface199fe5bed93ae8508474576a9adf3dc443b2c451842a2242919f19de610dbc81611205565b610dc98787878787610b3b565b979650505050505050565b7fa49807205ce4d355092ef5a8a18f56e8913cf4a201fbe287825b095693c21775610dfe81611205565b6098805473ffffffffffffffffffffffffffffffffffffffff19166001600160a01b0384169081179091556040519081527ff724a45d041687842411f2b977ef22ab8f43c8f1104f4592b42a00f9b34a643d906020015b60405180910390a15050565b7fa49807205ce4d355092ef5a8a18f56e8913cf4a201fbe287825b095693c21775610e8b81611205565b610e9482611351565b6097805473ffffffffffffffffffffffffffffffffffffffff19166001600160a01b0384169081179091556040519081527f1399be28223800f8669b3ba5f8721d9fc16fc4e8d0bbf98378791c8c5a3015e090602001610e55565b7fa49807205ce4d355092ef5a8a18f56e8913cf4a201fbe287825b095693c21775610f1981611205565b60005b8251811015611079576000838281518110610f3957610f3961205b565b60209081029190910181015160408051608080820183528385015167ffffffffffffffff90811683528385015161ffff9081168488019081526060808801516fffffffffffffffffffffffffffffffff908116878901908152958901518116918701918252975163ffffffff16600090815260ca90995295909720935184549751935187166a0100000000000000000000027fffffffffffff00000000000000000000000000000000ffffffffffffffffffff9490921668010000000000000000027fffffffffffffffffffffffffffffffffffffffffffff0000000000000000000090981692169190911795909517169390931783555160019092018054929091167fffffffffffffffffffffffffffffffff00000000000000000000000000000000909216919091179055508061107181612087565b915050610f1c565b507f6a8fd812e5ea6ffe24c32b247c8f038b9134be0ec81c08b0ff4169eb7f10ccec82604051610e5591906120a1565b7fa49807205ce4d355092ef5a8a18f56e8913cf4a201fbe287825b095693c217756110d381611205565b609780547fffff0000ffffffffffffffffffffffffffffffffffffffffffffffffffffffff16600160e01b61ffff8516908102919091179091556040519081527f7af0ac740036ffb1c97b03697859d729e80a44ae5030543d64971c313565ab4d90602001610e55565b60008281526065602052604090206001015461115881611205565b610aee8383611464565b6098546040517fda26663a00000000000000000000000000000000000000000000000000000000815263ffffffff83166004820152600091829182916001600160a01b03169063da26663a90602401606060405180830381865afa1580156111ce573d6000803e3d6000fd5b505050506040513d601f19601f820116820180604052508101906111f2919061213b565b8051602090910151909590945092505050565b61120f813361150d565b50565b600054610100900460ff1661128f5760405162461bcd60e51b815260206004820152602b60248201527f496e697469616c697a61626c653a20636f6e7472616374206973206e6f74206960448201527f6e697469616c697a696e670000000000000000000000000000000000000000006064820152608401610804565b61129c8585858585611582565b5050505050565b7f74845de37cfabd357633214b47fa91ccd19b05b7c5a08ac22c187f811fb62bca821480156112f5575060008281526065602090815260408083206001600160a01b038516845290915290205460ff16155b156113435760978054600160a01b900467ffffffffffffffff1690601461131b836121ad565b91906101000a81548167ffffffffffffffff021916908367ffffffffffffffff160217905550505b61134d828261171c565b5050565b6040517f01ffc9a70000000000000000000000000000000000000000000000000000000081527f5017cfd20000000000000000000000000000000000000000000000000000000060048201526001600160a01b038216906301ffc9a790602401602060405180830381865afa1580156113ce573d6000803e3d6000fd5b505050506040513d601f19601f820116820180604052508101906113f291906121d4565b61120f5760405162461bcd60e51b815260206004820152603160248201527f52656c617965723a20776f726b657220646f6573206e6f7420696d706c656d6560448201527f6e74204952656c617965724665654c69620000000000000000000000000000006064820152608401610804565b7f74845de37cfabd357633214b47fa91ccd19b05b7c5a08ac22c187f811fb62bca821480156114b5575060008281526065602090815260408083206001600160a01b038516845290915290205460ff165b156115035760978054600160a01b900467ffffffffffffffff169060146114db836121f1565b91906101000a81548167ffffffffffffffff021916908367ffffffffffffffff160217905550505b61134d82826117be565b60008281526065602090815260408083206001600160a01b038516845290915290205460ff1661134d5761154081611841565b61154b836020611853565b60405160200161155c929190612239565b60408051601f198184030181529082905262461bcd60e51b8252610804916004016122ba565b600054610100900460ff166115ff5760405162461bcd60e51b815260206004820152602b60248201527f496e697469616c697a61626c653a20636f6e7472616374206973206e6f74206960448201527f6e697469616c697a696e670000000000000000000000000000000000000000006064820152608401610804565b609780547fffff0000ffffffffffffffffffffffffffffffffffffffffffffffffffffffff16600160e01b61ffff8616021790556098805473ffffffffffffffffffffffffffffffffffffffff19166001600160a01b0386161790556116666000836112a3565b60005b85518110156116c7576116b57f724aface199fe5bed93ae8508474576a9adf3dc443b2c451842a2242919f19de8783815181106116a8576116a861205b565b60200260200101516112a3565b806116bf81612087565b915050611669565b5060005b8151811015610ac15761170a7fa49807205ce4d355092ef5a8a18f56e8913cf4a201fbe287825b095693c217758383815181106116a8576116a861205b565b8061171481612087565b9150506116cb565b60008281526065602090815260408083206001600160a01b038516845290915290205460ff1661134d5760008281526065602090815260408083206001600160a01b03851684529091529020805460ff1916600117905561177a3390565b6001600160a01b0316816001600160a01b0316837f2f8788117e7eff1d82e926ec794901d17c78024a50270940304540a733656f0d60405160405180910390a45050565b60008281526065602090815260408083206001600160a01b038516845290915290205460ff161561134d5760008281526065602090815260408083206001600160a01b0385168085529252808320805460ff1916905551339285917ff6391f5c32d9c69d2a47ea670b442974b53935d1edc7fd64eb21e047a839171b9190a45050565b60606107516001600160a01b03831660145b606060006118628360026122ed565b61186d906002612304565b67ffffffffffffffff81111561188557611885611b5f565b6040519080825280601f01601f1916602001820160405280156118af576020820181803683370190505b5090507f3000000000000000000000000000000000000000000000000000000000000000816000815181106118e6576118e661205b565b60200101907effffffffffffffffffffffffffffffffffffffffffffffffffffffffffffff1916908160001a9053507f7800000000000000000000000000000000000000000000000000000000000000816001815181106119495761194961205b565b60200101907effffffffffffffffffffffffffffffffffffffffffffffffffffffffffffff1916908160001a90535060006119858460026122ed565b611990906001612304565b90505b6001811115611a2d577f303132333435363738396162636465660000000000000000000000000000000085600f16601081106119d1576119d161205b565b1a60f81b8282815181106119e7576119e761205b565b60200101907effffffffffffffffffffffffffffffffffffffffffffffffffffffffffffff1916908160001a90535060049490941c93611a2681612317565b9050611993565b508315611a7c5760405162461bcd60e51b815260206004820181905260248201527f537472696e67733a20686578206c656e67746820696e73756666696369656e746044820152606401610804565b9392505050565b600060208284031215611a9557600080fd5b81357fffffffff0000000000000000000000000000000000000000000000000000000081168114611a7c57600080fd5b6001600160a01b038116811461120f57600080fd5b600080600060608486031215611aef57600080fd5b8335611afa81611ac5565b92506020840135611b0a81611ac5565b929592945050506040919091013590565b801515811461120f57600080fd5b600060208284031215611b3b57600080fd5b8135611a7c81611b1b565b600060208284031215611b5857600080fd5b5035919050565b634e487b7160e01b600052604160045260246000fd5b60405160a0810167ffffffffffffffff81118282101715611b9857611b98611b5f565b60405290565b604051601f8201601f1916810167ffffffffffffffff81118282101715611bc757611bc7611b5f565b604052919050565b600067ffffffffffffffff821115611be957611be9611b5f565b5060051b60200190565b600082601f830112611c0457600080fd5b81356020611c19611c1483611bcf565b611b9e565b82815260059290921b84018101918181019086841115611c3857600080fd5b8286015b84811015611c5c578035611c4f81611ac5565b8352918301918301611c3c565b509695505050505050565b60008060008060808587031215611c7d57600080fd5b843567ffffffffffffffff80821115611c9557600080fd5b611ca188838901611bf3565b955060208701359150611cb382611ac5565b909350604086013590611cc582611ac5565b90925060608601359080821115611cdb57600080fd5b50611ce887828801611bf3565b91505092959194509250565b60008060408385031215611d0757600080fd5b823591506020830135611d1981611ac5565b809150509250929050565b63ffffffff8116811461120f57600080fd5b600080600080600060808688031215611d4e57600080fd5b8535611d5981611d24565b94506020860135611d6981611ac5565b935060408601359250606086013567ffffffffffffffff80821115611d8d57600080fd5b818801915088601f830112611da157600080fd5b813581811115611db057600080fd5b896020828501011115611dc257600080fd5b9699959850939650602001949392505050565b600060208284031215611de757600080fd5b8135611a7c81611ac5565b600060208284031215611e0457600080fd5b8135611a7c81611d24565b67ffffffffffffffff8116811461120f57600080fd5b803561ffff81168114611e3757600080fd5b919050565b6fffffffffffffffffffffffffffffffff8116811461120f57600080fd5b60006020808385031215611e6d57600080fd5b823567ffffffffffffffff811115611e8457600080fd5b8301601f81018513611e9557600080fd5b8035611ea3611c1482611bcf565b81815260a09182028301840191848201919088841115611ec257600080fd5b938501935b83851015611f4b5780858a031215611edf5760008081fd5b611ee7611b75565b8535611ef281611d24565b815285870135611f0181611e0f565b818801526040611f12878201611e25565b90820152606086810135611f2581611e3c565b90820152608086810135611f3881611e3c565b9082015283529384019391850191611ec7565b50979650505050505050565b600060208284031215611f6957600080fd5b611a7c82611e25565b818352818160208501375060006020828401015260006020601f19601f840116840101905092915050565b60006101406001600160a01b03808c16845263ffffffff8b166020850152808a1660408501525087606084015261ffff8088166080850152865467ffffffffffffffff811660a0860152818160401c1660c08601526fffffffffffffffffffffffffffffffff9150818160501c1660e0860152508060018801541661010085015250806101208401526120338184018587611f72565b9b9a5050505050505050505050565b60006020828403121561205457600080fd5b5051919050565b634e487b7160e01b600052603260045260246000fd5b634e487b7160e01b600052601160045260246000fd5b6000600019820361209a5761209a612071565b5060010190565b602080825282518282018190526000919060409081850190868401855b8281101561212e578151805163ffffffff1685528681015167ffffffffffffffff16878601528581015161ffff16868601526060808201516fffffffffffffffffffffffffffffffff90811691870191909152608091820151169085015260a090930192908501906001016120be565b5091979650505050505050565b60006060828403121561214d57600080fd5b6040516060810181811067ffffffffffffffff8211171561217057612170611b5f565b604052825161217e81611e3c565b8152602083015161218e81611e0f565b602082015260408301516121a181611d24565b60408201529392505050565b600067ffffffffffffffff8083168181036121ca576121ca612071565b6001019392505050565b6000602082840312156121e657600080fd5b8151611a7c81611b1b565b600067ffffffffffffffff82168061220b5761220b612071565b6000190192915050565b60005b83811015612230578181015183820152602001612218565b50506000910152565b7f416363657373436f6e74726f6c3a206163636f756e7420000000000000000000815260008351612271816017850160208801612215565b7f206973206d697373696e6720726f6c652000000000000000000000000000000060179184019182015283516122ae816028840160208801612215565b01602801949350505050565b60208152600082518060208401526122d9816040850160208701612215565b601f01601f19169190910160400192915050565b808202811582820484141761075157610751612071565b8082018082111561075157610751612071565b60008161232657612326612071565b50600019019056fea26469706673582212209ceec7e84c531c9d12ae899a70f09f3b5bf657b183094060e5b1e56bc08c317464736f6c63430008110033",
  "devdoc": {
    "kind": "dev",
    "methods": {
      "getRoleAdmin(bytes32)": {
        "details": "Returns the admin role that controls `role`. See {grantRole} and {revokeRole}. To change a role's admin, use {_setRoleAdmin}."
      },
      "grantRole(bytes32,address)": {
        "details": "Grants `role` to `account`. If `account` had not been already granted `role`, emits a {RoleGranted} event. Requirements: - the caller must have ``role``'s admin role. May emit a {RoleGranted} event."
      },
      "hasRole(bytes32,address)": {
        "details": "Returns `true` if `account` has been granted `role`."
      },
      "revokeRole(bytes32,address)": {
        "details": "Revokes `role` from `account`. If `account` had been granted `role`, emits a {RoleRevoked} event. Requirements: - the caller must have ``role``'s admin role. May emit a {RoleRevoked} event."
      },
      "supportsInterface(bytes4)": {
        "details": "See {IERC165-supportsInterface}."
      }
    },
    "version": 1
  },
  "userdoc": {
    "kind": "user",
    "methods": {},
    "version": 1
  },
  "storageLayout": {
    "storage": [
      {
        "astId": 2853,
        "contract": "contracts/Relayer.sol:Relayer",
        "label": "_initialized",
        "offset": 0,
        "slot": "0",
        "type": "t_uint8"
      },
      {
        "astId": 2856,
        "contract": "contracts/Relayer.sol:Relayer",
        "label": "_initializing",
        "offset": 1,
        "slot": "0",
        "type": "t_bool"
      },
      {
        "astId": 3386,
        "contract": "contracts/Relayer.sol:Relayer",
        "label": "__gap",
        "offset": 0,
        "slot": "1",
        "type": "t_array(t_uint256)50_storage"
      },
      {
        "astId": 3659,
        "contract": "contracts/Relayer.sol:Relayer",
        "label": "__gap",
        "offset": 0,
        "slot": "51",
        "type": "t_array(t_uint256)50_storage"
      },
      {
        "astId": 2345,
        "contract": "contracts/Relayer.sol:Relayer",
        "label": "_roles",
        "offset": 0,
        "slot": "101",
        "type": "t_mapping(t_bytes32,t_struct(RoleData)2340_storage)"
      },
      {
        "astId": 2640,
        "contract": "contracts/Relayer.sol:Relayer",
        "label": "__gap",
        "offset": 0,
        "slot": "102",
        "type": "t_array(t_uint256)49_storage"
      },
      {
        "astId": 9117,
        "contract": "contracts/Relayer.sol:Relayer",
        "label": "workerLib",
        "offset": 0,
        "slot": "151",
        "type": "t_address"
      },
      {
        "astId": 9119,
        "contract": "contracts/Relayer.sol:Relayer",
        "label": "allowlistSize",
        "offset": 20,
        "slot": "151",
        "type": "t_uint64"
      },
      {
        "astId": 9121,
        "contract": "contracts/Relayer.sol:Relayer",
        "label": "defaultMultiplierBps",
        "offset": 28,
        "slot": "151",
        "type": "t_uint16"
      },
      {
        "astId": 9124,
        "contract": "contracts/Relayer.sol:Relayer",
        "label": "priceFeed",
        "offset": 0,
        "slot": "152",
        "type": "t_contract(ILayerZeroPriceFeed)9542"
      },
      {
        "astId": 9126,
        "contract": "contracts/Relayer.sol:Relayer",
        "label": "paused",
        "offset": 20,
        "slot": "152",
        "type": "t_bool"
      },
      {
        "astId": 9480,
        "contract": "contracts/Relayer.sol:Relayer",
        "label": "__gap",
        "offset": 0,
        "slot": "153",
        "type": "t_array(t_uint256)49_storage"
      },
      {
        "astId": 8349,
        "contract": "contracts/Relayer.sol:Relayer",
        "label": "dstConfig",
        "offset": 0,
        "slot": "202",
        "type": "t_mapping(t_uint32,t_struct(DstConfig)9616_storage)"
      }
    ],
    "types": {
      "t_address": {
        "encoding": "inplace",
        "label": "address",
        "numberOfBytes": "20"
      },
      "t_array(t_uint256)49_storage": {
        "base": "t_uint256",
        "encoding": "inplace",
        "label": "uint256[49]",
        "numberOfBytes": "1568"
      },
      "t_array(t_uint256)50_storage": {
        "base": "t_uint256",
        "encoding": "inplace",
        "label": "uint256[50]",
        "numberOfBytes": "1600"
      },
      "t_bool": {
        "encoding": "inplace",
        "label": "bool",
        "numberOfBytes": "1"
      },
      "t_bytes32": {
        "encoding": "inplace",
        "label": "bytes32",
        "numberOfBytes": "32"
      },
      "t_contract(ILayerZeroPriceFeed)9542": {
        "encoding": "inplace",
        "label": "contract ILayerZeroPriceFeed",
        "numberOfBytes": "20"
      },
      "t_mapping(t_address,t_bool)": {
        "encoding": "mapping",
        "key": "t_address",
        "label": "mapping(address => bool)",
        "numberOfBytes": "32",
        "value": "t_bool"
      },
      "t_mapping(t_bytes32,t_struct(RoleData)2340_storage)": {
        "encoding": "mapping",
        "key": "t_bytes32",
        "label": "mapping(bytes32 => struct AccessControlUpgradeable.RoleData)",
        "numberOfBytes": "32",
        "value": "t_struct(RoleData)2340_storage"
      },
      "t_mapping(t_uint32,t_struct(DstConfig)9616_storage)": {
        "encoding": "mapping",
        "key": "t_uint32",
        "label": "mapping(uint32 => struct IRelayer.DstConfig)",
        "numberOfBytes": "32",
        "value": "t_struct(DstConfig)9616_storage"
      },
      "t_struct(DstConfig)9616_storage": {
        "encoding": "inplace",
        "label": "struct IRelayer.DstConfig",
        "members": [
          {
            "astId": 9609,
            "contract": "contracts/Relayer.sol:Relayer",
            "label": "baseGas",
            "offset": 0,
            "slot": "0",
            "type": "t_uint64"
          },
          {
            "astId": 9611,
            "contract": "contracts/Relayer.sol:Relayer",
            "label": "multiplierBps",
            "offset": 8,
            "slot": "0",
            "type": "t_uint16"
          },
          {
            "astId": 9613,
            "contract": "contracts/Relayer.sol:Relayer",
            "label": "floorMarginUSD",
            "offset": 10,
            "slot": "0",
            "type": "t_uint128"
          },
          {
            "astId": 9615,
            "contract": "contracts/Relayer.sol:Relayer",
            "label": "airdropCap",
            "offset": 0,
            "slot": "1",
            "type": "t_uint128"
          }
        ],
        "numberOfBytes": "64"
      },
      "t_struct(RoleData)2340_storage": {
        "encoding": "inplace",
        "label": "struct AccessControlUpgradeable.RoleData",
        "members": [
          {
            "astId": 2337,
            "contract": "contracts/Relayer.sol:Relayer",
            "label": "members",
            "offset": 0,
            "slot": "0",
            "type": "t_mapping(t_address,t_bool)"
          },
          {
            "astId": 2339,
            "contract": "contracts/Relayer.sol:Relayer",
            "label": "adminRole",
            "offset": 0,
            "slot": "1",
            "type": "t_bytes32"
          }
        ],
        "numberOfBytes": "64"
      },
      "t_uint128": {
        "encoding": "inplace",
        "label": "uint128",
        "numberOfBytes": "16"
      },
      "t_uint16": {
        "encoding": "inplace",
        "label": "uint16",
        "numberOfBytes": "2"
      },
      "t_uint256": {
        "encoding": "inplace",
        "label": "uint256",
        "numberOfBytes": "32"
      },
      "t_uint32": {
        "encoding": "inplace",
        "label": "uint32",
        "numberOfBytes": "4"
      },
      "t_uint64": {
        "encoding": "inplace",
        "label": "uint64",
        "numberOfBytes": "8"
      },
      "t_uint8": {
        "encoding": "inplace",
        "label": "uint8",
        "numberOfBytes": "1"
      }
    }
  }
}