{
  "_format": "hh-sol-artifact-1",
  "contractName": "ONFT721AMock",
  "sourceName": "contracts/mocks/ONFT721AMock.sol",
  "abi": [
    {
      "inputs": [
        {
          "internalType": "string",
          "name": "_name",
          "type": "string"
        },
        {
          "internalType": "string",
          "name": "_symbol",
          "type": "string"
        },
        {
          "internalType": "uint256",
          "name": "_minGasToTransferAndStore",
          "type": "uint256"
        },
        {
          "internalType": "address",
          "name": "_layerZeroEndpoint",
          "type": "address"
        }
      ],
      "stateMutability": "nonpayable",
      "type": "constructor"
    },
    {
      "inputs": [],
      "name": "ApprovalCallerNotOwnerNorApproved",
      "type": "error"
    },
    {
      "inputs": [],
      "name": "ApprovalQueryForNonexistentToken",
      "type": "error"
    },
    {
      "inputs": [],
      "name": "BalanceQueryForZeroAddress",
      "type": "error"
    },
    {
      "inputs": [],
      "name": "MintERC2309QuantityExceedsLimit",
      "type": "error"
    },
    {
      "inputs": [],
      "name": "MintToZeroAddress",
      "type": "error"
    },
    {
      "inputs": [],
      "name": "MintZeroQuantity",
      "type": "error"
    },
    {
      "inputs": [],
      "name": "OwnerQueryForNonexistentToken",
      "type": "error"
    },
    {
      "inputs": [],
      "name": "OwnershipNotInitializedForExtraData",
      "type": "error"
    },
    {
      "inputs": [],
      "name": "TransferCallerNotOwnerNorApproved",
      "type": "error"
    },
    {
      "inputs": [],
      "name": "TransferFromIncorrectOwner",
      "type": "error"
    },
    {
      "inputs": [],
      "name": "TransferToNonERC721ReceiverImplementer",
      "type": "error"
    },
    {
      "inputs": [],
      "name": "TransferToZeroAddress",
      "type": "error"
    },
    {
      "inputs": [],
      "name": "URIQueryForNonexistentToken",
      "type": "error"
    },
    {
      "anonymous": false,
      "inputs": [
        {
          "indexed": true,
          "internalType": "address",
          "name": "owner",
          "type": "address"
        },
        {
          "indexed": true,
          "internalType": "address",
          "name": "approved",
          "type": "address"
        },
        {
          "indexed": true,
          "internalType": "uint256",
          "name": "tokenId",
          "type": "uint256"
        }
      ],
      "name": "Approval",
      "type": "event"
    },
    {
      "anonymous": false,
      "inputs": [
        {
          "indexed": true,
          "internalType": "address",
          "name": "owner",
          "type": "address"
        },
        {
          "indexed": true,
          "internalType": "address",
          "name": "operator",
          "type": "address"
        },
        {
          "indexed": false,
          "internalType": "bool",
          "name": "approved",
          "type": "bool"
        }
      ],
      "name": "ApprovalForAll",
      "type": "event"
    },
    {
      "anonymous": false,
      "inputs": [
        {
          "indexed": true,
          "internalType": "uint256",
          "name": "fromTokenId",
          "type": "uint256"
        },
        {
          "indexed": false,
          "internalType": "uint256",
          "name": "toTokenId",
          "type": "uint256"
        },
        {
          "indexed": true,
          "internalType": "address",
          "name": "from",
          "type": "address"
        },
        {
          "indexed": true,
          "internalType": "address",
          "name": "to",
          "type": "address"
        }
      ],
      "name": "ConsecutiveTransfer",
      "type": "event"
    },
    {
      "anonymous": false,
      "inputs": [
        {
          "indexed": false,
          "internalType": "bytes32",
          "name": "_hashedPayload",
          "type": "bytes32"
        }
      ],
      "name": "CreditCleared",
      "type": "event"
    },
    {
      "anonymous": false,
      "inputs": [
        {
          "indexed": false,
          "internalType": "bytes32",
          "name": "_hashedPayload",
          "type": "bytes32"
        },
        {
          "indexed": false,
          "internalType": "bytes",
          "name": "_payload",
          "type": "bytes"
        }
      ],
      "name": "CreditStored",
      "type": "event"
    },
    {
      "anonymous": false,
      "inputs": [
        {
          "indexed": false,
          "internalType": "uint16",
          "name": "_srcChainId",
          "type": "uint16"
        },
        {
          "indexed": false,
          "internalType": "bytes",
          "name": "_srcAddress",
          "type": "bytes"
        },
        {
          "indexed": false,
          "internalType": "uint64",
          "name": "_nonce",
          "type": "uint64"
        },
        {
          "indexed": false,
          "internalType": "bytes",
          "name": "_payload",
          "type": "bytes"
        },
        {
          "indexed": false,
          "internalType": "bytes",
          "name": "_reason",
          "type": "bytes"
        }
      ],
      "name": "MessageFailed",
      "type": "event"
    },
    {
      "anonymous": false,
      "inputs": [
        {
          "indexed": true,
          "internalType": "address",
          "name": "previousOwner",
          "type": "address"
        },
        {
          "indexed": true,
          "internalType": "address",
          "name": "newOwner",
          "type": "address"
        }
      ],
      "name": "OwnershipTransferred",
      "type": "event"
    },
    {
      "anonymous": false,
      "inputs": [
        {
          "indexed": true,
          "internalType": "uint16",
          "name": "_srcChainId",
          "type": "uint16"
        },
        {
          "indexed": true,
          "internalType": "bytes",
          "name": "_srcAddress",
          "type": "bytes"
        },
        {
          "indexed": true,
          "internalType": "address",
          "name": "_toAddress",
          "type": "address"
        },
        {
          "indexed": false,
          "internalType": "uint256[]",
          "name": "_tokenIds",
          "type": "uint256[]"
        }
      ],
      "name": "ReceiveFromChain",
      "type": "event"
    },
    {
      "anonymous": false,
      "inputs": [
        {
          "indexed": false,
          "internalType": "uint16",
          "name": "_srcChainId",
          "type": "uint16"
        },
        {
          "indexed": false,
          "internalType": "bytes",
          "name": "_srcAddress",
          "type": "bytes"
        },
        {
          "indexed": false,
          "internalType": "uint64",
          "name": "_nonce",
          "type": "uint64"
        },
        {
          "indexed": false,
          "internalType": "bytes32",
          "name": "_payloadHash",
          "type": "bytes32"
        }
      ],
      "name": "RetryMessageSuccess",
      "type": "event"
    },
    {
      "anonymous": false,
      "inputs": [
        {
          "indexed": true,
          "internalType": "uint16",
          "name": "_dstChainId",
          "type": "uint16"
        },
        {
          "indexed": true,
          "internalType": "address",
          "name": "_from",
          "type": "address"
        },
        {
          "indexed": true,
          "internalType": "bytes",
          "name": "_toAddress",
          "type": "bytes"
        },
        {
          "indexed": false,
          "internalType": "uint256[]",
          "name": "_tokenIds",
          "type": "uint256[]"
        }
      ],
      "name": "SendToChain",
      "type": "event"
    },
    {
      "anonymous": false,
      "inputs": [
        {
          "indexed": false,
          "internalType": "uint16",
          "name": "_dstChainId",
          "type": "uint16"
        },
        {
          "indexed": false,
          "internalType": "uint256",
          "name": "_dstChainIdToBatchLimit",
          "type": "uint256"
        }
      ],
      "name": "SetDstChainIdToBatchLimit",
      "type": "event"
    },
    {
      "anonymous": false,
      "inputs": [
        {
          "indexed": false,
          "internalType": "uint16",
          "name": "_dstChainId",
          "type": "uint16"
        },
        {
          "indexed": false,
          "internalType": "uint256",
          "name": "_dstChainIdToTransferGas",
          "type": "uint256"
        }
      ],
      "name": "SetDstChainIdToTransferGas",
      "type": "event"
    },
    {
      "anonymous": false,
      "inputs": [
        {
          "indexed": false,
          "internalType": "uint16",
          "name": "_dstChainId",
          "type": "uint16"
        },
        {
          "indexed": false,
          "internalType": "uint16",
          "name": "_type",
          "type": "uint16"
        },
        {
          "indexed": false,
          "internalType": "uint256",
          "name": "_minDstGas",
          "type": "uint256"
        }
      ],
      "name": "SetMinDstGas",
      "type": "event"
    },
    {
      "anonymous": false,
      "inputs": [
        {
          "indexed": false,
          "internalType": "uint256",
          "name": "_minGasToTransferAndStore",
          "type": "uint256"
        }
      ],
      "name": "SetMinGasToTransferAndStore",
      "type": "event"
    },
    {
      "anonymous": false,
      "inputs": [
        {
          "indexed": false,
          "internalType": "address",
          "name": "precrime",
          "type": "address"
        }
      ],
      "name": "SetPrecrime",
      "type": "event"
    },
    {
      "anonymous": false,
      "inputs": [
        {
          "indexed": false,
          "internalType": "uint16",
          "name": "_remoteChainId",
          "type": "uint16"
        },
        {
          "indexed": false,
          "internalType": "bytes",
          "name": "_path",
          "type": "bytes"
        }
      ],
      "name": "SetTrustedRemote",
      "type": "event"
    },
    {
      "anonymous": false,
      "inputs": [
        {
          "indexed": false,
          "internalType": "uint16",
          "name": "_remoteChainId",
          "type": "uint16"
        },
        {
          "indexed": false,
          "internalType": "bytes",
          "name": "_remoteAddress",
          "type": "bytes"
        }
      ],
      "name": "SetTrustedRemoteAddress",
      "type": "event"
    },
    {
      "anonymous": false,
      "inputs": [
        {
          "indexed": true,
          "internalType": "address",
          "name": "from",
          "type": "address"
        },
        {
          "indexed": true,
          "internalType": "address",
          "name": "to",
          "type": "address"
        },
        {
          "indexed": true,
          "internalType": "uint256",
          "name": "tokenId",
          "type": "uint256"
        }
      ],
      "name": "Transfer",
      "type": "event"
    },
    {
      "inputs": [],
      "name": "DEFAULT_PAYLOAD_SIZE_LIMIT",
      "outputs": [
        {
          "internalType": "uint256",
          "name": "",
          "type": "uint256"
        }
      ],
      "stateMutability": "view",
      "type": "function"
    },
    {
      "inputs": [],
      "name": "FUNCTION_TYPE_SEND",
      "outputs": [
        {
          "internalType": "uint16",
          "name": "",
          "type": "uint16"
        }
      ],
      "stateMutability": "view",
      "type": "function"
    },
    {
      "inputs": [
        {
          "internalType": "address",
          "name": "to",
          "type": "address"
        },
        {
          "internalType": "uint256",
          "name": "tokenId",
          "type": "uint256"
        }
      ],
      "name": "approve",
      "outputs": [],
      "stateMutability": "payable",
      "type": "function"
    },
    {
      "inputs": [
        {
          "internalType": "address",
          "name": "owner",
          "type": "address"
        }
      ],
      "name": "balanceOf",
      "outputs": [
        {
          "internalType": "uint256",
          "name": "",
          "type": "uint256"
        }
      ],
      "stateMutability": "view",
      "type": "function"
    },
    {
      "inputs": [
        {
          "internalType": "bytes",
          "name": "_payload",
          "type": "bytes"
        }
      ],
      "name": "clearCredits",
      "outputs": [],
      "stateMutability": "nonpayable",
      "type": "function"
    },
    {
      "inputs": [
        {
          "internalType": "uint16",
          "name": "",
          "type": "uint16"
        }
      ],
      "name": "dstChainIdToBatchLimit",
      "outputs": [
        {
          "internalType": "uint256",
          "name": "",
          "type": "uint256"
        }
      ],
      "stateMutability": "view",
      "type": "function"
    },
    {
      "inputs": [
        {
          "internalType": "uint16",
          "name": "",
          "type": "uint16"
        }
      ],
      "name": "dstChainIdToTransferGas",
      "outputs": [
        {
          "internalType": "uint256",
          "name": "",
          "type": "uint256"
        }
      ],
      "stateMutability": "view",
      "type": "function"
    },
    {
      "inputs": [
        {
          "internalType": "uint16",
          "name": "_dstChainId",
          "type": "uint16"
        },
        {
          "internalType": "bytes",
          "name": "_toAddress",
          "type": "bytes"
        },
        {
          "internalType": "uint256[]",
          "name": "_tokenIds",
          "type": "uint256[]"
        },
        {
          "internalType": "bool",
          "name": "_useZro",
          "type": "bool"
        },
        {
          "internalType": "bytes",
          "name": "_adapterParams",
          "type": "bytes"
        }
      ],
      "name": "estimateSendBatchFee",
      "outputs": [
        {
          "internalType": "uint256",
          "name": "nativeFee",
          "type": "uint256"
        },
        {
          "internalType": "uint256",
          "name": "zroFee",
          "type": "uint256"
        }
      ],
      "stateMutability": "view",
      "type": "function"
    },
    {
      "inputs": [
        {
          "internalType": "uint16",
          "name": "_dstChainId",
          "type": "uint16"
        },
        {
          "internalType": "bytes",
          "name": "_toAddress",
          "type": "bytes"
        },
        {
          "internalType": "uint256",
          "name": "_tokenId",
          "type": "uint256"
        },
        {
          "internalType": "bool",
          "name": "_useZro",
          "type": "bool"
        },
        {
          "internalType": "bytes",
          "name": "_adapterParams",
          "type": "bytes"
        }
      ],
      "name": "estimateSendFee",
      "outputs": [
        {
          "internalType": "uint256",
          "name": "nativeFee",
          "type": "uint256"
        },
        {
          "internalType": "uint256",
          "name": "zroFee",
          "type": "uint256"
        }
      ],
      "stateMutability": "view",
      "type": "function"
    },
    {
      "inputs": [
        {
          "internalType": "uint16",
          "name": "",
          "type": "uint16"
        },
        {
          "internalType": "bytes",
          "name": "",
          "type": "bytes"
        },
        {
          "internalType": "uint64",
          "name": "",
          "type": "uint64"
        }
      ],
      "name": "failedMessages",
      "outputs": [
        {
          "internalType": "bytes32",
          "name": "",
          "type": "bytes32"
        }
      ],
      "stateMutability": "view",
      "type": "function"
    },
    {
      "inputs": [
        {
          "internalType": "uint16",
          "name": "_srcChainId",
          "type": "uint16"
        },
        {
          "internalType": "bytes",
          "name": "_srcAddress",
          "type": "bytes"
        }
      ],
      "name": "forceResumeReceive",
      "outputs": [],
      "stateMutability": "nonpayable",
      "type": "function"
    },
    {
      "inputs": [
        {
          "internalType": "uint256",
          "name": "tokenId",
          "type": "uint256"
        }
      ],
      "name": "getApproved",
      "outputs": [
        {
          "internalType": "address",
          "name": "",
          "type": "address"
        }
      ],
      "stateMutability": "view",
      "type": "function"
    },
    {
      "inputs": [
        {
          "internalType": "uint16",
          "name": "_version",
          "type": "uint16"
        },
        {
          "internalType": "uint16",
          "name": "_chainId",
          "type": "uint16"
        },
        {
          "internalType": "address",
          "name": "",
          "type": "address"
        },
        {
          "internalType": "uint256",
          "name": "_configType",
          "type": "uint256"
        }
      ],
      "name": "getConfig",
      "outputs": [
        {
          "internalType": "bytes",
          "name": "",
          "type": "bytes"
        }
      ],
      "stateMutability": "view",
      "type": "function"
    },
    {
      "inputs": [
        {
          "internalType": "uint16",
          "name": "_remoteChainId",
          "type": "uint16"
        }
      ],
      "name": "getTrustedRemoteAddress",
      "outputs": [
        {
          "internalType": "bytes",
          "name": "",
          "type": "bytes"
        }
      ],
      "stateMutability": "view",
      "type": "function"
    },
    {
      "inputs": [
        {
          "internalType": "address",
          "name": "owner",
          "type": "address"
        },
        {
          "internalType": "address",
          "name": "operator",
          "type": "address"
        }
      ],
      "name": "isApprovedForAll",
      "outputs": [
        {
          "internalType": "bool",
          "name": "",
          "type": "bool"
        }
      ],
      "stateMutability": "view",
      "type": "function"
    },
    {
      "inputs": [
        {
          "internalType": "uint16",
          "name": "_srcChainId",
          "type": "uint16"
        },
        {
          "internalType": "bytes",
          "name": "_srcAddress",
          "type": "bytes"
        }
      ],
      "name": "isTrustedRemote",
      "outputs": [
        {
          "internalType": "bool",
          "name": "",
          "type": "bool"
        }
      ],
      "stateMutability": "view",
      "type": "function"
    },
    {
      "inputs": [],
      "name": "lzEndpoint",
      "outputs": [
        {
          "internalType": "contract ILayerZeroEndpoint",
          "name": "",
          "type": "address"
        }
      ],
      "stateMutability": "view",
      "type": "function"
    },
    {
      "inputs": [
        {
          "internalType": "uint16",
          "name": "_srcChainId",
          "type": "uint16"
        },
        {
          "internalType": "bytes",
          "name": "_srcAddress",
          "type": "bytes"
        },
        {
          "internalType": "uint64",
          "name": "_nonce",
          "type": "uint64"
        },
        {
          "internalType": "bytes",
          "name": "_payload",
          "type": "bytes"
        }
      ],
      "name": "lzReceive",
      "outputs": [],
      "stateMutability": "nonpayable",
      "type": "function"
    },
    {
      "inputs": [
        {
          "internalType": "uint16",
          "name": "",
          "type": "uint16"
        },
        {
          "internalType": "uint16",
          "name": "",
          "type": "uint16"
        }
      ],
      "name": "minDstGasLookup",
      "outputs": [
        {
          "internalType": "uint256",
          "name": "",
          "type": "uint256"
        }
      ],
      "stateMutability": "view",
      "type": "function"
    },
    {
      "inputs": [],
      "name": "minGasToTransferAndStore",
      "outputs": [
        {
          "internalType": "uint256",
          "name": "",
          "type": "uint256"
        }
      ],
      "stateMutability": "view",
      "type": "function"
    },
    {
      "inputs": [
        {
          "internalType": "uint256",
          "name": "_amount",
          "type": "uint256"
        }
      ],
      "name": "mint",
      "outputs": [],
      "stateMutability": "payable",
      "type": "function"
    },
    {
      "inputs": [],
      "name": "name",
      "outputs": [
        {
          "internalType": "string",
          "name": "",
          "type": "string"
        }
      ],
      "stateMutability": "view",
      "type": "function"
    },
    {
      "inputs": [
        {
          "internalType": "uint16",
          "name": "_srcChainId",
          "type": "uint16"
        },
        {
          "internalType": "bytes",
          "name": "_srcAddress",
          "type": "bytes"
        },
        {
          "internalType": "uint64",
          "name": "_nonce",
          "type": "uint64"
        },
        {
          "internalType": "bytes",
          "name": "_payload",
          "type": "bytes"
        }
      ],
      "name": "nonblockingLzReceive",
      "outputs": [],
      "stateMutability": "nonpayable",
      "type": "function"
    },
    {
      "inputs": [
        {
          "internalType": "address",
          "name": "",
          "type": "address"
        },
        {
          "internalType": "address",
          "name": "",
          "type": "address"
        },
        {
          "internalType": "uint256",
          "name": "",
          "type": "uint256"
        },
        {
          "internalType": "bytes",
          "name": "",
          "type": "bytes"
        }
      ],
      "name": "onERC721Received",
      "outputs": [
        {
          "internalType": "bytes4",
          "name": "",
          "type": "bytes4"
        }
      ],
      "stateMutability": "nonpayable",
      "type": "function"
    },
    {
      "inputs": [],
      "name": "owner",
      "outputs": [
        {
          "internalType": "address",
          "name": "",
          "type": "address"
        }
      ],
      "stateMutability": "view",
      "type": "function"
    },
    {
      "inputs": [
        {
          "internalType": "uint256",
          "name": "tokenId",
          "type": "uint256"
        }
      ],
      "name": "ownerOf",
      "outputs": [
        {
          "internalType": "address",
          "name": "",
          "type": "address"
        }
      ],
      "stateMutability": "view",
      "type": "function"
    },
    {
      "inputs": [
        {
          "internalType": "uint16",
          "name": "",
          "type": "uint16"
        }
      ],
      "name": "payloadSizeLimitLookup",
      "outputs": [
        {
          "internalType": "uint256",
          "name": "",
          "type": "uint256"
        }
      ],
      "stateMutability": "view",
      "type": "function"
    },
    {
      "inputs": [],
      "name": "precrime",
      "outputs": [
        {
          "internalType": "address",
          "name": "",
          "type": "address"
        }
      ],
      "stateMutability": "view",
      "type": "function"
    },
    {
      "inputs": [],
      "name": "renounceOwnership",
      "outputs": [],
      "stateMutability": "nonpayable",
      "type": "function"
    },
    {
      "inputs": [
        {
          "internalType": "uint16",
          "name": "_srcChainId",
          "type": "uint16"
        },
        {
          "internalType": "bytes",
          "name": "_srcAddress",
          "type": "bytes"
        },
        {
          "internalType": "uint64",
          "name": "_nonce",
          "type": "uint64"
        },
        {
          "internalType": "bytes",
          "name": "_payload",
          "type": "bytes"
        }
      ],
      "name": "retryMessage",
      "outputs": [],
      "stateMutability": "payable",
      "type": "function"
    },
    {
      "inputs": [
        {
          "internalType": "address",
          "name": "from",
          "type": "address"
        },
        {
          "internalType": "address",
          "name": "to",
          "type": "address"
        },
        {
          "internalType": "uint256",
          "name": "tokenId",
          "type": "uint256"
        }
      ],
      "name": "safeTransferFrom",
      "outputs": [],
      "stateMutability": "payable",
      "type": "function"
    },
    {
      "inputs": [
        {
          "internalType": "address",
          "name": "from",
          "type": "address"
        },
        {
          "internalType": "address",
          "name": "to",
          "type": "address"
        },
        {
          "internalType": "uint256",
          "name": "tokenId",
          "type": "uint256"
        },
        {
          "internalType": "bytes",
          "name": "_data",
          "type": "bytes"
        }
      ],
      "name": "safeTransferFrom",
      "outputs": [],
      "stateMutability": "payable",
      "type": "function"
    },
    {
      "inputs": [
        {
          "internalType": "address",
          "name": "_from",
          "type": "address"
        },
        {
          "internalType": "uint16",
          "name": "_dstChainId",
          "type": "uint16"
        },
        {
          "internalType": "bytes",
          "name": "_toAddress",
          "type": "bytes"
        },
        {
          "internalType": "uint256[]",
          "name": "_tokenIds",
          "type": "uint256[]"
        },
        {
          "internalType": "address payable",
          "name": "_refundAddress",
          "type": "address"
        },
        {
          "internalType": "address",
          "name": "_zroPaymentAddress",
          "type": "address"
        },
        {
          "internalType": "bytes",
          "name": "_adapterParams",
          "type": "bytes"
        }
      ],
      "name": "sendBatchFrom",
      "outputs": [],
      "stateMutability": "payable",
      "type": "function"
    },
    {
      "inputs": [
        {
          "internalType": "address",
          "name": "_from",
          "type": "address"
        },
        {
          "internalType": "uint16",
          "name": "_dstChainId",
          "type": "uint16"
        },
        {
          "internalType": "bytes",
          "name": "_toAddress",
          "type": "bytes"
        },
        {
          "internalType": "uint256",
          "name": "_tokenId",
          "type": "uint256"
        },
        {
          "internalType": "address payable",
          "name": "_refundAddress",
          "type": "address"
        },
        {
          "internalType": "address",
          "name": "_zroPaymentAddress",
          "type": "address"
        },
        {
          "internalType": "bytes",
          "name": "_adapterParams",
          "type": "bytes"
        }
      ],
      "name": "sendFrom",
      "outputs": [],
      "stateMutability": "payable",
      "type": "function"
    },
    {
      "inputs": [
        {
          "internalType": "address",
          "name": "operator",
          "type": "address"
        },
        {
          "internalType": "bool",
          "name": "approved",
          "type": "bool"
        }
      ],
      "name": "setApprovalForAll",
      "outputs": [],
      "stateMutability": "nonpayable",
      "type": "function"
    },
    {
      "inputs": [
        {
          "internalType": "uint16",
          "name": "_version",
          "type": "uint16"
        },
        {
          "internalType": "uint16",
          "name": "_chainId",
          "type": "uint16"
        },
        {
          "internalType": "uint256",
          "name": "_configType",
          "type": "uint256"
        },
        {
          "internalType": "bytes",
          "name": "_config",
          "type": "bytes"
        }
      ],
      "name": "setConfig",
      "outputs": [],
      "stateMutability": "nonpayable",
      "type": "function"
    },
    {
      "inputs": [
        {
          "internalType": "uint16",
          "name": "_dstChainId",
          "type": "uint16"
        },
        {
          "internalType": "uint256",
          "name": "_dstChainIdToBatchLimit",
          "type": "uint256"
        }
      ],
      "name": "setDstChainIdToBatchLimit",
      "outputs": [],
      "stateMutability": "nonpayable",
      "type": "function"
    },
    {
      "inputs": [
        {
          "internalType": "uint16",
          "name": "_dstChainId",
          "type": "uint16"
        },
        {
          "internalType": "uint256",
          "name": "_dstChainIdToTransferGas",
          "type": "uint256"
        }
      ],
      "name": "setDstChainIdToTransferGas",
      "outputs": [],
      "stateMutability": "nonpayable",
      "type": "function"
    },
    {
      "inputs": [
        {
          "internalType": "uint16",
          "name": "_dstChainId",
          "type": "uint16"
        },
        {
          "internalType": "uint16",
          "name": "_packetType",
          "type": "uint16"
        },
        {
          "internalType": "uint256",
          "name": "_minGas",
          "type": "uint256"
        }
      ],
      "name": "setMinDstGas",
      "outputs": [],
      "stateMutability": "nonpayable",
      "type": "function"
    },
    {
      "inputs": [
        {
          "internalType": "uint256",
          "name": "_minGasToTransferAndStore",
          "type": "uint256"
        }
      ],
      "name": "setMinGasToTransferAndStore",
      "outputs": [],
      "stateMutability": "nonpayable",
      "type": "function"
    },
    {
      "inputs": [
        {
          "internalType": "uint16",
          "name": "_dstChainId",
          "type": "uint16"
        },
        {
          "internalType": "uint256",
          "name": "_size",
          "type": "uint256"
        }
      ],
      "name": "setPayloadSizeLimit",
      "outputs": [],
      "stateMutability": "nonpayable",
      "type": "function"
    },
    {
      "inputs": [
        {
          "internalType": "address",
          "name": "_precrime",
          "type": "address"
        }
      ],
      "name": "setPrecrime",
      "outputs": [],
      "stateMutability": "nonpayable",
      "type": "function"
    },
    {
      "inputs": [
        {
          "internalType": "uint16",
          "name": "_version",
          "type": "uint16"
        }
      ],
      "name": "setReceiveVersion",
      "outputs": [],
      "stateMutability": "nonpayable",
      "type": "function"
    },
    {
      "inputs": [
        {
          "internalType": "uint16",
          "name": "_version",
          "type": "uint16"
        }
      ],
      "name": "setSendVersion",
      "outputs": [],
      "stateMutability": "nonpayable",
      "type": "function"
    },
    {
      "inputs": [
        {
          "internalType": "uint16",
          "name": "_remoteChainId",
          "type": "uint16"
        },
        {
          "internalType": "bytes",
          "name": "_path",
          "type": "bytes"
        }
      ],
      "name": "setTrustedRemote",
      "outputs": [],
      "stateMutability": "nonpayable",
      "type": "function"
    },
    {
      "inputs": [
        {
          "internalType": "uint16",
          "name": "_remoteChainId",
          "type": "uint16"
        },
        {
          "internalType": "bytes",
          "name": "_remoteAddress",
          "type": "bytes"
        }
      ],
      "name": "setTrustedRemoteAddress",
      "outputs": [],
      "stateMutability": "nonpayable",
      "type": "function"
    },
    {
      "inputs": [
        {
          "internalType": "bytes32",
          "name": "",
          "type": "bytes32"
        }
      ],
      "name": "storedCredits",
      "outputs": [
        {
          "internalType": "uint16",
          "name": "srcChainId",
          "type": "uint16"
        },
        {
          "internalType": "address",
          "name": "toAddress",
          "type": "address"
        },
        {
          "internalType": "uint256",
          "name": "index",
          "type": "uint256"
        },
        {
          "internalType": "bool",
          "name": "creditsRemain",
          "type": "bool"
        }
      ],
      "stateMutability": "view",
      "type": "function"
    },
    {
      "inputs": [
        {
          "internalType": "bytes4",
          "name": "interfaceId",
          "type": "bytes4"
        }
      ],
      "name": "supportsInterface",
      "outputs": [
        {
          "internalType": "bool",
          "name": "",
          "type": "bool"
        }
      ],
      "stateMutability": "view",
      "type": "function"
    },
    {
      "inputs": [],
      "name": "symbol",
      "outputs": [
        {
          "internalType": "string",
          "name": "",
          "type": "string"
        }
      ],
      "stateMutability": "view",
      "type": "function"
    },
    {
      "inputs": [
        {
          "internalType": "uint256",
          "name": "tokenId",
          "type": "uint256"
        }
      ],
      "name": "tokenURI",
      "outputs": [
        {
          "internalType": "string",
          "name": "",
          "type": "string"
        }
      ],
      "stateMutability": "view",
      "type": "function"
    },
    {
      "inputs": [],
      "name": "totalSupply",
      "outputs": [
        {
          "internalType": "uint256",
          "name": "",
          "type": "uint256"
        }
      ],
      "stateMutability": "view",
      "type": "function"
    },
    {
      "inputs": [
        {
          "internalType": "address",
          "name": "from",
          "type": "address"
        },
        {
          "internalType": "address",
          "name": "to",
          "type": "address"
        },
        {
          "internalType": "uint256",
          "name": "tokenId",
          "type": "uint256"
        }
      ],
      "name": "transferFrom",
      "outputs": [],
      "stateMutability": "payable",
      "type": "function"
    },
    {
      "inputs": [
        {
          "internalType": "address",
          "name": "newOwner",
          "type": "address"
        }
      ],
      "name": "transferOwnership",
      "outputs": [],
      "stateMutability": "nonpayable",
      "type": "function"
    },
    {
      "inputs": [
        {
          "internalType": "uint16",
          "name": "",
          "type": "uint16"
        }
      ],
      "name": "trustedRemoteLookup",
      "outputs": [
        {
          "internalType": "bytes",
          "name": "",
          "type": "bytes"
        }
      ],
      "stateMutability": "view",
      "type": "function"
    }
  ],
  "bytecode": "0x60a06040523480156200001157600080fd5b50604051620044d8380380620044d88339810160408190526200003491620002c2565b838383838383838380806200004933620000ff565b6001600160a01b031660805250600160065581620000b95760405162461bcd60e51b8152602060048201526024808201527f6d696e476173546f5472616e73666572416e6453746f7265206d7573742062656044820152630203e20360e41b606482015260840160405180910390fd5b506007558151620000d290600d9060208501906200014f565b508051620000e890600e9060208401906200014f565b506000600b55506200039498505050505050505050565b600080546001600160a01b038381166001600160a01b0319831681178455604051919092169283917f8be0079c531659141344cd1fd0a4f28419497f9722a3daafe3b4186f6b6457e09190a35050565b8280546200015d9062000357565b90600052602060002090601f016020900481019282620001815760008555620001cc565b82601f106200019c57805160ff1916838001178555620001cc565b82800160010185558215620001cc579182015b82811115620001cc578251825591602001919060010190620001af565b50620001da929150620001de565b5090565b5b80821115620001da5760008155600101620001df565b634e487b7160e01b600052604160045260246000fd5b600082601f8301126200021d57600080fd5b81516001600160401b03808211156200023a576200023a620001f5565b604051601f8301601f19908116603f01168101908282118183101715620002655762000265620001f5565b816040528381526020925086838588010111156200028257600080fd5b600091505b83821015620002a6578582018301518183018401529082019062000287565b83821115620002b85760008385830101525b9695505050505050565b60008060008060808587031215620002d957600080fd5b84516001600160401b0380821115620002f157600080fd5b620002ff888389016200020b565b955060208701519150808211156200031657600080fd5b5062000325878288016200020b565b60408701516060880151919550935090506001600160a01b03811681146200034c57600080fd5b939692955090935050565b600181811c908216806200036c57607f821691505b602082108114156200038e57634e487b7160e01b600052602260045260246000fd5b50919050565b6080516140f0620003e8600039600081816108e901528181610ae001528181610dec015281816110180152818161132301528181611c1d015281816120a4015281816121d70152612e5401526140f06000f3fe6080604052600436106103345760003560e01c80638cfd8f5c116101ab578063b88d4fde116100f7578063df2a5b3b11610095578063f23536411161006f578063f235364114610a50578063f2fde38b14610a70578063f5ecbdbc14610a90578063fa25f9b614610ab057600080fd5b8063df2a5b3b146109c7578063e985e9c5146109e7578063eb8d72b714610a3057600080fd5b8063c87b56dd116100d1578063c87b56dd14610954578063cbed8b9c14610974578063d12473a514610994578063d1deba1f146109b457600080fd5b8063b88d4fde1461090b578063baf3292d1461091e578063c44618341461093e57600080fd5b80639f38369a11610164578063a6c3d1651161013e578063a6c3d1651461087c578063ab3ffb931461089c578063af3fb21c146108af578063b353aaa7146108d757600080fd5b80639f38369a14610829578063a0712d6814610849578063a22cb4651461085c57600080fd5b80638cfd8f5c1461075e5780638da5cb5b146107965780638ffa1f2a146107b4578063950c8a74146107d457806395d89b41146107f45780639ea5d6b11461080957600080fd5b80632a205e3d11610285578063519056361161022357806366ad5c8a116101fd57806366ad5c8a146106e957806370a0823114610709578063715018a6146107295780637533d7881461073e57600080fd5b806351905636146106675780635b8c41e61461067a5780636352211e146106c957600080fd5b806342842e0e1161025f57806342842e0e146105f157806342d65a8d1461060457806348288190146106245780634ac3f4ff1461063a57600080fd5b80632a205e3d1461056f5780633d8b38f6146105a45780633f1f4fa4146105c457600080fd5b80630b4cad4c116102f2578063150b7a02116102cc578063150b7a021461047d57806318160ddd146104b657806322a3ecf9146104d957806323b872dd1461055c57600080fd5b80630b4cad4c1461041d5780630df374831461043d57806310ddb1371461045d57600080fd5b80621d35671461033957806301ffc9a71461035b57806306fdde031461039057806307e0db17146103b2578063081812fc146103d2578063095ea7b31461040a575b600080fd5b34801561034557600080fd5b5061035961035436600461324d565b610add565b005b34801561036757600080fd5b5061037b6103763660046132f6565b610d0e565b60405190151581526020015b60405180910390f35b34801561039c57600080fd5b506103a5610d39565b604051610387919061336b565b3480156103be57600080fd5b506103596103cd36600461337e565b610dcb565b3480156103de57600080fd5b506103f26103ed366004613399565b610e54565b6040516001600160a01b039091168152602001610387565b6103596104183660046133d2565b610e98565b34801561042957600080fd5b50610359610438366004613399565b610f38565b34801561044957600080fd5b506103596104583660046133fe565b610fd8565b34801561046957600080fd5b5061035961047836600461337e565b610ff7565b34801561048957600080fd5b5061049d6104983660046134dd565b61104f565b6040516001600160e01b03199091168152602001610387565b3480156104c257600080fd5b50600c54600b54035b604051908152602001610387565b3480156104e557600080fd5b5061052d6104f4366004613399565b600a6020526000908152604090208054600182015460029092015461ffff821692620100009092046001600160a01b0316919060ff1684565b6040805161ffff90951685526001600160a01b0390931660208501529183015215156060820152608001610387565b61035961056a366004613548565b611060565b34801561057b57600080fd5b5061058f61058a366004613599565b6111f2565b60408051928352602083019190915201610387565b3480156105b057600080fd5b5061037b6105bf366004613627565b611218565b3480156105d057600080fd5b506104cb6105df36600461337e565b60036020526000908152604090205481565b6103596105ff366004613548565b6112e4565b34801561061057600080fd5b5061035961061f366004613627565b611304565b34801561063057600080fd5b506104cb60075481565b34801561064657600080fd5b506104cb61065536600461337e565b60086020526000908152604090205481565b610359610675366004613679565b61138a565b34801561068657600080fd5b506104cb610695366004613732565b6005602090815260009384526040808520845180860184018051928152908401958401959095209452929052825290205481565b3480156106d557600080fd5b506103f26106e4366004613399565b6113a1565b3480156106f557600080fd5b5061035961070436600461324d565b6113ac565b34801561071557600080fd5b506104cb61072436600461378f565b611480565b34801561073557600080fd5b506103596114ce565b34801561074a57600080fd5b506103a561075936600461337e565b6114e2565b34801561076a57600080fd5b506104cb6107793660046137ac565b600260209081526000928352604080842090915290825290205481565b3480156107a257600080fd5b506000546001600160a01b03166103f2565b3480156107c057600080fd5b506103596107cf3660046137df565b61157c565b3480156107e057600080fd5b506004546103f2906001600160a01b031681565b34801561080057600080fd5b506103a56117c8565b34801561081557600080fd5b506103596108243660046133fe565b6117d7565b34801561083557600080fd5b506103a561084436600461337e565b61188e565b610359610857366004613399565b6119a5565b34801561086857600080fd5b50610359610877366004613813565b6119bf565b34801561088857600080fd5b50610359610897366004613627565b611a2b565b6103596108aa3660046138c8565b611abe565b3480156108bb57600080fd5b506108c4600181565b60405161ffff9091168152602001610387565b3480156108e357600080fd5b506103f27f000000000000000000000000000000000000000000000000000000000000000081565b6103596109193660046134dd565b611acd565b34801561092a57600080fd5b5061035961093936600461378f565b611b17565b34801561094a57600080fd5b506104cb61271081565b34801561096057600080fd5b506103a561096f366004613399565b611b6d565b34801561098057600080fd5b5061035961098f36600461397d565b611bfe565b3480156109a057600080fd5b506103596109af3660046133fe565b611c93565b6103596109c236600461324d565b611d43565b3480156109d357600080fd5b506103596109e23660046139eb565b611f59565b3480156109f357600080fd5b5061037b610a02366004613a27565b6001600160a01b03918216600090815260126020908152604080832093909416825291909152205460ff1690565b348015610a3c57600080fd5b50610359610a4b366004613627565b61200b565b348015610a5c57600080fd5b5061058f610a6b366004613a60565b612065565b348015610a7c57600080fd5b50610359610a8b36600461378f565b612130565b348015610a9c57600080fd5b506103a5610aab366004613ad9565b6121a6565b348015610abc57600080fd5b506104cb610acb36600461337e565b60096020526000908152604090205481565b337f00000000000000000000000000000000000000000000000000000000000000006001600160a01b031614610b5a5760405162461bcd60e51b815260206004820152601e60248201527f4c7a4170703a20696e76616c696420656e64706f696e742063616c6c6572000060448201526064015b60405180910390fd5b61ffff861660009081526001602052604081208054610b7890613b26565b80601f0160208091040260200160405190810160405280929190818152602001828054610ba490613b26565b8015610bf15780601f10610bc657610100808354040283529160200191610bf1565b820191906000526020600020905b815481529060010190602001808311610bd457829003601f168201915b50505050509050805186869050148015610c0c575060008151115b8015610c34575080516020820120604051610c2a9088908890613b61565b6040518091039020145b610c8f5760405162461bcd60e51b815260206004820152602660248201527f4c7a4170703a20696e76616c696420736f757263652073656e64696e6720636f6044820152651b9d1c9858dd60d21b6064820152608401610b51565b610d058787878080601f01602080910402602001604051908101604052809392919081815260200183838082843760009201919091525050604080516020601f8a018190048102820181019092528881528a93509150889088908190840183828082843760009201919091525061225792505050565b50505050505050565b60006001600160e01b031982166322bac5d960e01b1480610d335750610d33826122d0565b92915050565b6060600d8054610d4890613b26565b80601f0160208091040260200160405190810160405280929190818152602001828054610d7490613b26565b8015610dc15780601f10610d9657610100808354040283529160200191610dc1565b820191906000526020600020905b815481529060010190602001808311610da457829003601f168201915b5050505050905090565b610dd361231e565b6040516307e0db1760e01b815261ffff821660048201527f00000000000000000000000000000000000000000000000000000000000000006001600160a01b0316906307e0db17906024015b600060405180830381600087803b158015610e3957600080fd5b505af1158015610e4d573d6000803e3d6000fd5b5050505050565b6000610e5f82612378565b610e7c576040516333d1c03960e21b815260040160405180910390fd5b506000908152601160205260409020546001600160a01b031690565b6000610ea3826113a1565b9050336001600160a01b03821614610edc57610ebf8133610a02565b610edc576040516367d9dca160e11b815260040160405180910390fd5b60008281526011602052604080822080546001600160a01b0319166001600160a01b0387811691821790925591518593918516917f8c5be1e5ebec7d5bd14f71427d1e84f3dd0314c0f7b2291e5b200ac8c7c3b92591a4505050565b610f4061231e565b60008111610f9c5760405162461bcd60e51b8152602060048201526024808201527f6d696e476173546f5472616e73666572416e6453746f7265206d7573742062656044820152630203e20360e41b6064820152608401610b51565b60078190556040518181527ffebbc4f8bb9ec2313950c718d43123124b15778efda4c1f1d529de2995b4f34d906020015b60405180910390a150565b610fe061231e565b61ffff909116600090815260036020526040902055565b610fff61231e565b6040516310ddb13760e01b815261ffff821660048201527f00000000000000000000000000000000000000000000000000000000000000006001600160a01b0316906310ddb13790602401610e1f565b630a85bd0160e11b5b949350505050565b600061106b826123a0565b9050836001600160a01b0316816001600160a01b03161461109e5760405162a1148160e81b815260040160405180910390fd5b60008281526011602052604090208054338082146001600160a01b038816909114176110eb576110ce8633610a02565b6110eb57604051632ce44b5f60e11b815260040160405180910390fd5b6001600160a01b03851661111257604051633a954ecd60e21b815260040160405180910390fd5b801561111d57600082555b6001600160a01b038681166000908152601060205260408082208054600019019055918716808252919020805460010190554260a01b17600160e11b176000858152600f6020526040902055600160e11b83166111a857600184016000818152600f60205260409020546111a657600b5481146111a6576000818152600f602052604090208490555b505b83856001600160a01b0316876001600160a01b03167fddf252ad1be2c89b69c2b068fc378daa952ba7f163c4a11628f55a4df523b3ef60405160405180910390a45b505050505050565b60008061120a878761120388612401565b8787612065565b915091509550959350505050565b61ffff83166000908152600160205260408120805482919061123990613b26565b80601f016020809104026020016040519081016040528092919081815260200182805461126590613b26565b80156112b25780601f10611287576101008083540402835291602001916112b2565b820191906000526020600020905b81548152906001019060200180831161129557829003601f168201915b5050505050905083836040516112c9929190613b61565b60405180910390208180519060200120149150509392505050565b6112ff83838360405180602001604052806000815250611acd565b505050565b61130c61231e565b6040516342d65a8d60e01b81526001600160a01b037f000000000000000000000000000000000000000000000000000000000000000016906342d65a8d9061135c90869086908690600401613b9a565b600060405180830381600087803b15801561137657600080fd5b505af1158015610d05573d6000803e3d6000fd5b610d0587878761139988612401565b87878761244c565b6000610d33826123a0565b33301461140a5760405162461bcd60e51b815260206004820152602660248201527f4e6f6e626c6f636b696e674c7a4170703a2063616c6c6572206d7573742062656044820152650204c7a4170760d41b6064820152608401610b51565b6111ea8686868080601f01602080910402602001604051908101604052809392919081815260200183838082843760009201919091525050604080516020601f89018190048102820181019092528781528993509150879087908190840183828082843760009201919091525061262092505050565b60006001600160a01b0382166114a9576040516323d3ad8160e21b815260040160405180910390fd5b506001600160a01b03166000908152601060205260409020546001600160401b031690565b6114d661231e565b6114e06000612777565b565b600160205260009081526040902080546114fb90613b26565b80601f016020809104026020016040519081016040528092919081815260200182805461152790613b26565b80156115745780601f1061154957610100808354040283529160200191611574565b820191906000526020600020905b81548152906001019060200180831161155757829003601f168201915b505050505081565b6115846127c7565b80516020808301919091206000818152600a90925260409091206002015460ff166115e55760405162461bcd60e51b81526020600482015260116024820152701b9bc818dc99591a5d1cc81cdd1bdc9959607a1b6044820152606401610b51565b6000828060200190518101906115fb9190613bfd565b6000848152600a6020526040812080546001909101549294509092506116379161ffff8216916201000090046001600160a01b03169085612821565b6000848152600a602052604090206001015490915081116116ac5760405162461bcd60e51b815260206004820152602960248201527f6e6f7420656e6f7567682067617320746f2070726f6365737320637265646974604482015268103a3930b739b332b960b91b6064820152608401610b51565b8151811415611724576000838152600a602052604080822080546001600160b01b031916815560018101929092556002909101805460ff19169055517fd7be02b8dd0d27bd0517a9cb4d7469ce27df4313821ae5ec1ff69acc594ba233906117179085815260200190565b60405180910390a16117b8565b604080516080810182526000858152600a6020818152848320805461ffff80821687526001600160a01b03620100008084048216868a019081529989018b8152600160608b01818152998f90529790965297519851169096026001600160b01b03199091169690951695909517939093178455915191830191909155516002909101805491151560ff199092169190911790555b5050506117c56001600655565b50565b6060600e8054610d4890613b26565b6117df61231e565b6000811161183a5760405162461bcd60e51b815260206004820152602260248201527f647374436861696e4964546f42617463684c696d6974206d757374206265203e604482015261020360f41b6064820152608401610b51565b61ffff8216600081815260086020908152604091829020849055815192835282018390527f7315f7654d594ead24a30160ed9ba2d23247f543016b918343591e93d7afdb6d91015b60405180910390a15050565b61ffff81166000908152600160205260408120805460609291906118b190613b26565b80601f01602080910402602001604051908101604052809291908181526020018280546118dd90613b26565b801561192a5780601f106118ff5761010080835404028352916020019161192a565b820191906000526020600020905b81548152906001019060200180831161190d57829003601f168201915b505050505090508051600014156119835760405162461bcd60e51b815260206004820152601d60248201527f4c7a4170703a206e6f20747275737465642070617468207265636f72640000006044820152606401610b51565b61199e6000601483516119969190613ccd565b839190612873565b9392505050565b6117c5338260405180602001604052806000815250612980565b3360008181526012602090815260408083206001600160a01b03871680855290835292819020805460ff191686151590811790915590519081529192917f17307eab39ab6107e8899845ad3d59bd9653f200f220920489ca2b5937696c31910160405180910390a35050565b611a3361231e565b818130604051602001611a4893929190613ce4565b60408051601f1981840301815291815261ffff85166000908152600160209081529190208251611a7d939192909101906130ca565b507f8c0400cfe2d1199b1a725c78960bcc2a344d869b80590d0f2bd005db15a572ce838383604051611ab193929190613b9a565b60405180910390a1505050565b610d058787878787878761244c565b611ad8848484611060565b6001600160a01b0383163b15611b1157611af4848484846129e6565b611b11576040516368d2bf6b60e11b815260040160405180910390fd5b50505050565b611b1f61231e565b600480546001600160a01b0319166001600160a01b0383169081179091556040519081527f5db758e995a17ec1ad84bdef7e8c3293a0bd6179bcce400dff5d4c3d87db726b90602001610fcd565b6060611b7882612378565b611b9557604051630a14c4b560e41b815260040160405180910390fd5b6000611bac60408051602081019091526000815290565b9050805160001415611bcd576040518060200160405280600081525061199e565b80611bd784612acb565b604051602001611be8929190613d0a565b6040516020818303038152906040529392505050565b611c0661231e565b6040516332fb62e760e21b81526001600160a01b037f0000000000000000000000000000000000000000000000000000000000000000169063cbed8b9c90611c5a9088908890889088908890600401613d39565b600060405180830381600087803b158015611c7457600080fd5b505af1158015611c88573d6000803e3d6000fd5b505050505050505050565b611c9b61231e565b60008111611cf75760405162461bcd60e51b815260206004820152602360248201527f647374436861696e4964546f5472616e73666572476173206d7573742062652060448201526203e20360ec1b6064820152608401610b51565b61ffff8216600081815260096020908152604091829020849055815192835282018390527fc46df2983228ac2d9754e94a0d565e6671665dc8ad38602bc8e544f0685a29fb9101611882565b61ffff86166000908152600560205260408082209051611d669088908890613b61565b90815260408051602092819003830190206001600160401b03871660009081529252902054905080611de65760405162461bcd60e51b815260206004820152602360248201527f4e6f6e626c6f636b696e674c7a4170703a206e6f2073746f726564206d65737360448201526261676560e81b6064820152608401610b51565b808383604051611df7929190613b61565b604051809103902014611e565760405162461bcd60e51b815260206004820152602160248201527f4e6f6e626c6f636b696e674c7a4170703a20696e76616c6964207061796c6f616044820152601960fa1b6064820152608401610b51565b61ffff87166000908152600560205260408082209051611e799089908990613b61565b90815260408051602092819003830181206001600160401b038916600090815290845282902093909355601f88018290048202830182019052868252611f11918991899089908190840183828082843760009201919091525050604080516020601f8a018190048102820181019092528881528a93509150889088908190840183828082843760009201919091525061262092505050565b7fc264d91f3adc5588250e1551f547752ca0cfa8f6b530d243b9f9f4cab10ea8e58787878785604051611f48959493929190613d72565b60405180910390a150505050505050565b611f6161231e565b60008111611fa95760405162461bcd60e51b81526020600482015260156024820152744c7a4170703a20696e76616c6964206d696e47617360581b6044820152606401610b51565b61ffff83811660008181526002602090815260408083209487168084529482529182902085905581519283528201929092529081018290527f9d5c7c0b934da8fefa9c7760c98383778a12dfbfc0c3b3106518f43fb9508ac090606001611ab1565b61201361231e565b61ffff8316600090815260016020526040902061203190838361314e565b507ffa41487ad5d6728f0b19276fa1eddc16558578f5109fc39d2dc33c3230470dab838383604051611ab193929190613b9a565b6000806000868660405160200161207d929190613de8565b60408051601f198184030181529082905263040a7bb160e41b825291506001600160a01b037f000000000000000000000000000000000000000000000000000000000000000016906340a7bb10906120e1908b90309086908b908b90600401613e0d565b6040805180830381865afa1580156120fd573d6000803e3d6000fd5b505050506040513d601f19601f820116820180604052508101906121219190613e61565b92509250509550959350505050565b61213861231e565b6001600160a01b03811661219d5760405162461bcd60e51b815260206004820152602660248201527f4f776e61626c653a206e6577206f776e657220697320746865207a65726f206160448201526564647265737360d01b6064820152608401610b51565b6117c581612777565b604051633d7b2f6f60e21b815261ffff808616600483015284166024820152306044820152606481018290526060907f00000000000000000000000000000000000000000000000000000000000000006001600160a01b03169063f5ecbdbc90608401600060405180830381865afa158015612226573d6000803e3d6000fd5b505050506040513d6000823e601f3d908101601f1916820160405261224e9190810190613e85565b95945050505050565b6000806122ba5a60966366ad5c8a60e01b8989898960405160240161227f9493929190613eb9565b60408051601f198184030181529190526020810180516001600160e01b03166001600160e01b03199093169290921790915230929190612b19565b91509150816111ea576111ea8686868685612ba3565b60006301ffc9a760e01b6001600160e01b03198316148061230157506380ac58cd60e01b6001600160e01b03198316145b80610d335750506001600160e01b031916635b5e139f60e01b1490565b6000546001600160a01b031633146114e05760405162461bcd60e51b815260206004820181905260248201527f4f776e61626c653a2063616c6c6572206973206e6f7420746865206f776e65726044820152606401610b51565b6000600b5482108015610d335750506000908152600f6020526040902054600160e01b161590565b600081600b548110156123e8576000818152600f6020526040902054600160e01b81166123e6575b8061199e5750600019016000818152600f60205260409020546123c8565b505b604051636f96cda160e11b815260040160405180910390fd5b6040805160018082528183019092526060916000919060208083019080368337019050509050828160008151811061243b5761243b613ef7565b602090810291909101015292915050565b60008451116124935760405162461bcd60e51b8152602060048201526013602482015272746f6b656e4964735b5d20697320656d70747960681b6044820152606401610b51565b8351600114806124b7575061ffff8616600090815260086020526040902054845111155b61250e5760405162461bcd60e51b815260206004820152602260248201527f62617463682073697a65206578636565647320647374206261746368206c696d6044820152611a5d60f21b6064820152608401610b51565b60005b84518110156125515761253f88888888858151811061253257612532613ef7565b6020026020010151612c40565b8061254981613f0d565b915050612511565b5060008585604051602001612567929190613de8565b60405160208183030381529060405290506125ac876001848851600960008d61ffff1661ffff168152602001908152602001600020546125a79190613f28565b612c4b565b6125ba878286868634612d2a565b856040516125c89190613f47565b6040518091039020886001600160a01b03168861ffff167fe1b87c47fdeb4f9cbadbca9df3af7aba453bb6e501075d0440d88125b711522a8860405161260e9190613f63565b60405180910390a45050505050505050565b600080828060200190518101906126379190613bfd565b60148201519193509150600061264f88838386612821565b905082518110156127235784516020808701919091206040805160808101825261ffff808d1682526001600160a01b038088168387019081528385018881526001606086018181526000898152600a909a529887902095518654935190941662010000026001600160b01b03199093169390941692909217178355519082015592516002909301805493151560ff199094169390931790925590517f10e0b70d256bccc84b7027506978bd8b68984a870788b93b479def144c839ad7906127199083908990613f76565b60405180910390a1505b816001600160a01b03168760405161273b9190613f47565b60405180910390208961ffff167f5b821db8a46f8ecbe1941ba2f51cfeea9643268b56631f70d45e2a745d9902658660405161260e9190613f63565b600080546001600160a01b038381166001600160a01b0319831681178455604051919092169283917f8be0079c531659141344cd1fd0a4f28419497f9722a3daafe3b4186f6b6457e09190a35050565b6002600654141561281a5760405162461bcd60e51b815260206004820152601f60248201527f5265656e7472616e637947756172643a207265656e7472616e742063616c6c006044820152606401610b51565b6002600655565b6000825b825181101561224e576007545a101561283d5761224e565b612861868685848151811061285457612854613ef7565b6020026020010151612ed0565b8061286b81613f0d565b915050612825565b60608161288181601f613f8f565b10156128c05760405162461bcd60e51b815260206004820152600e60248201526d736c6963655f6f766572666c6f7760901b6044820152606401610b51565b6128ca8284613f8f565b8451101561290e5760405162461bcd60e51b8152602060048201526011602482015270736c6963655f6f75744f66426f756e647360781b6044820152606401610b51565b60608215801561292d5760405191506000825260208201604052612977565b6040519150601f8416801560200281840101858101878315602002848b0101015b8183101561296657805183526020928301920161294e565b5050858452601f01601f1916604052505b50949350505050565b61298a8383612f09565b6001600160a01b0383163b156112ff57600b548281035b6129b460008683806001019450866129e6565b6129d1576040516368d2bf6b60e11b815260040160405180910390fd5b8181106129a15781600b5414610e4d57600080fd5b604051630a85bd0160e11b81526000906001600160a01b0385169063150b7a0290612a1b903390899088908890600401613fa7565b6020604051808303816000875af1925050508015612a56575060408051601f3d908101601f19168201909252612a5391810190613fe4565b60015b612ab1573d808015612a84576040519150601f19603f3d011682016040523d82523d6000602084013e612a89565b606091505b508051612aa9576040516368d2bf6b60e11b815260040160405180910390fd5b805181602001fd5b6001600160e01b031916630a85bd0160e11b149050611058565b606060a06040510180604052602081039150506000815280825b600183039250600a81066030018353600a900480612b0257612b07565b612ae5565b50819003601f19909101908152919050565b6000606060008060008661ffff166001600160401b03811115612b3e57612b3e61341a565b6040519080825280601f01601f191660200182016040528015612b68576020820181803683370190505b50905060008087516020890160008d8df191503d925086831115612b8a578692505b828152826000602083013e909890975095505050505050565b8180519060200120600560008761ffff1661ffff16815260200190815260200160002085604051612bd49190613f47565b9081526040805191829003602090810183206001600160401b0388166000908152915220919091557fe183f33de2837795525b4792ca4cd60535bd77c53b7e7030060bfcf5734d6b0c90612c319087908790879087908790614001565b60405180910390a15050505050565b611b118430836112e4565b6000612c5683613000565b61ffff808716600090815260026020908152604080832093891683529290529081205491925090612c88908490613f8f565b905060008111612cda5760405162461bcd60e51b815260206004820152601a60248201527f4c7a4170703a206d696e4761734c696d6974206e6f74207365740000000000006044820152606401610b51565b808210156111ea5760405162461bcd60e51b815260206004820152601b60248201527f4c7a4170703a20676173206c696d697420697320746f6f206c6f7700000000006044820152606401610b51565b61ffff861660009081526001602052604081208054612d4890613b26565b80601f0160208091040260200160405190810160405280929190818152602001828054612d7490613b26565b8015612dc15780601f10612d9657610100808354040283529160200191612dc1565b820191906000526020600020905b815481529060010190602001808311612da457829003601f168201915b50505050509050805160001415612e335760405162461bcd60e51b815260206004820152603060248201527f4c7a4170703a2064657374696e6174696f6e20636861696e206973206e6f742060448201526f61207472757374656420736f7572636560801b6064820152608401610b51565b612e3e87875161305c565b60405162c5803160e81b81526001600160a01b037f0000000000000000000000000000000000000000000000000000000000000000169063c5803100908490612e95908b9086908c908c908c908c90600401614053565b6000604051808303818588803b158015612eae57600080fd5b505af1158015612ec2573d6000803e3d6000fd5b505050505050505050505050565b612ed981612378565b8015612ef5575030612eea826113a1565b6001600160a01b0316145b612efe57600080fd5b6112ff3083836112e4565b600b5481612f2a5760405163b562e8dd60e01b815260040160405180910390fd5b6001600160a01b03831660008181526010602090815260408083208054680100000000000000018802019055848352600f90915281206001851460e11b4260a01b178317905582840190839083907fddf252ad1be2c89b69c2b068fc378daa952ba7f163c4a11628f55a4df523b3ef8180a4600183015b818114612fd957808360007fddf252ad1be2c89b69c2b068fc378daa952ba7f163c4a11628f55a4df523b3ef600080a4600101612fa1565b5081612ff757604051622e076360e81b815260040160405180910390fd5b600b5550505050565b60006022825110156130545760405162461bcd60e51b815260206004820152601c60248201527f4c7a4170703a20696e76616c69642061646170746572506172616d73000000006044820152606401610b51565b506022015190565b61ffff82166000908152600360205260409020548061307a57506127105b808211156112ff5760405162461bcd60e51b815260206004820181905260248201527f4c7a4170703a207061796c6f61642073697a6520697320746f6f206c617267656044820152606401610b51565b8280546130d690613b26565b90600052602060002090601f0160209004810192826130f8576000855561313e565b82601f1061311157805160ff191683800117855561313e565b8280016001018555821561313e579182015b8281111561313e578251825591602001919060010190613123565b5061314a9291506131c2565b5090565b82805461315a90613b26565b90600052602060002090601f01602090048101928261317c576000855561313e565b82601f106131955782800160ff1982351617855561313e565b8280016001018555821561313e579182015b8281111561313e5782358255916020019190600101906131a7565b5b8082111561314a57600081556001016131c3565b803561ffff811681146131e957600080fd5b919050565b60008083601f84011261320057600080fd5b5081356001600160401b0381111561321757600080fd5b60208301915083602082850101111561322f57600080fd5b9250929050565b80356001600160401b03811681146131e957600080fd5b6000806000806000806080878903121561326657600080fd5b61326f876131d7565b955060208701356001600160401b038082111561328b57600080fd5b6132978a838b016131ee565b90975095508591506132ab60408a01613236565b945060608901359150808211156132c157600080fd5b506132ce89828a016131ee565b979a9699509497509295939492505050565b6001600160e01b0319811681146117c557600080fd5b60006020828403121561330857600080fd5b813561199e816132e0565b60005b8381101561332e578181015183820152602001613316565b83811115611b115750506000910152565b60008151808452613357816020860160208601613313565b601f01601f19169290920160200192915050565b60208152600061199e602083018461333f565b60006020828403121561339057600080fd5b61199e826131d7565b6000602082840312156133ab57600080fd5b5035919050565b6001600160a01b03811681146117c557600080fd5b80356131e9816133b2565b600080604083850312156133e557600080fd5b82356133f0816133b2565b946020939093013593505050565b6000806040838503121561341157600080fd5b6133f0836131d7565b634e487b7160e01b600052604160045260246000fd5b604051601f8201601f191681016001600160401b03811182821017156134585761345861341a565b604052919050565b60006001600160401b038211156134795761347961341a565b50601f01601f191660200190565b600082601f83011261349857600080fd5b81356134ab6134a682613460565b613430565b8181528460208386010111156134c057600080fd5b816020850160208301376000918101602001919091529392505050565b600080600080608085870312156134f357600080fd5b84356134fe816133b2565b9350602085013561350e816133b2565b92506040850135915060608501356001600160401b0381111561353057600080fd5b61353c87828801613487565b91505092959194509250565b60008060006060848603121561355d57600080fd5b8335613568816133b2565b92506020840135613578816133b2565b929592945050506040919091013590565b803580151581146131e957600080fd5b600080600080600060a086880312156135b157600080fd5b6135ba866131d7565b945060208601356001600160401b03808211156135d657600080fd5b6135e289838a01613487565b9550604088013594506135f760608901613589565b9350608088013591508082111561360d57600080fd5b5061361a88828901613487565b9150509295509295909350565b60008060006040848603121561363c57600080fd5b613645846131d7565b925060208401356001600160401b0381111561366057600080fd5b61366c868287016131ee565b9497909650939450505050565b600080600080600080600060e0888a03121561369457600080fd5b873561369f816133b2565b96506136ad602089016131d7565b955060408801356001600160401b03808211156136c957600080fd5b6136d58b838c01613487565b965060608a0135955060808a013591506136ee826133b2565b90935060a089013590613700826133b2565b90925060c0890135908082111561371657600080fd5b506137238a828b01613487565b91505092959891949750929550565b60008060006060848603121561374757600080fd5b613750846131d7565b925060208401356001600160401b0381111561376b57600080fd5b61377786828701613487565b92505061378660408501613236565b90509250925092565b6000602082840312156137a157600080fd5b813561199e816133b2565b600080604083850312156137bf57600080fd5b6137c8836131d7565b91506137d6602084016131d7565b90509250929050565b6000602082840312156137f157600080fd5b81356001600160401b0381111561380757600080fd5b61105884828501613487565b6000806040838503121561382657600080fd5b8235613831816133b2565b91506137d660208401613589565b60006001600160401b038211156138585761385861341a565b5060051b60200190565b600082601f83011261387357600080fd5b813560206138836134a68361383f565b82815260059290921b840181019181810190868411156138a257600080fd5b8286015b848110156138bd57803583529183019183016138a6565b509695505050505050565b600080600080600080600060e0888a0312156138e357600080fd5b87356138ee816133b2565b96506138fc602089016131d7565b955060408801356001600160401b038082111561391857600080fd5b6139248b838c01613487565b965060608a013591508082111561393a57600080fd5b6139468b838c01613862565b955060808a01359150613958826133b2565b81945061396760a08b016133c7565b935060c08a013591508082111561371657600080fd5b60008060008060006080868803121561399557600080fd5b61399e866131d7565b94506139ac602087016131d7565b93506040860135925060608601356001600160401b038111156139ce57600080fd5b6139da888289016131ee565b969995985093965092949392505050565b600080600060608486031215613a0057600080fd5b613a09846131d7565b9250613a17602085016131d7565b9150604084013590509250925092565b60008060408385031215613a3a57600080fd5b8235613a45816133b2565b91506020830135613a55816133b2565b809150509250929050565b600080600080600060a08688031215613a7857600080fd5b613a81866131d7565b945060208601356001600160401b0380821115613a9d57600080fd5b613aa989838a01613487565b95506040880135915080821115613abf57600080fd5b613acb89838a01613862565b94506135f760608901613589565b60008060008060808587031215613aef57600080fd5b613af8856131d7565b9350613b06602086016131d7565b92506040850135613b16816133b2565b9396929550929360600135925050565b600181811c90821680613b3a57607f821691505b60208210811415613b5b57634e487b7160e01b600052602260045260246000fd5b50919050565b8183823760009101908152919050565b81835281816020850137506000828201602090810191909152601f909101601f19169091010190565b61ffff8416815260406020820152600061224e604083018486613b71565b600082601f830112613bc957600080fd5b8151613bd76134a682613460565b818152846020838601011115613bec57600080fd5b611058826020830160208701613313565b60008060408385031215613c1057600080fd5b82516001600160401b0380821115613c2757600080fd5b613c3386838701613bb8565b9350602091508185015181811115613c4a57600080fd5b85019050601f81018613613c5d57600080fd5b8051613c6b6134a68261383f565b81815260059190911b82018301908381019088831115613c8a57600080fd5b928401925b82841015613ca857835182529284019290840190613c8f565b80955050505050509250929050565b634e487b7160e01b600052601160045260246000fd5b600082821015613cdf57613cdf613cb7565b500390565b8284823760609190911b6bffffffffffffffffffffffff19169101908152601401919050565b60008351613d1c818460208801613313565b835190830190613d30818360208801613313565b01949350505050565b600061ffff808816835280871660208401525084604083015260806060830152613d67608083018486613b71565b979650505050505050565b61ffff86168152608060208201526000613d90608083018688613b71565b6001600160401b0394909416604083015250606001529392505050565b600081518084526020808501945080840160005b83811015613ddd57815187529582019590820190600101613dc1565b509495945050505050565b604081526000613dfb604083018561333f565b828103602084015261224e8185613dad565b61ffff861681526001600160a01b038516602082015260a060408201819052600090613e3b9083018661333f565b84151560608401528281036080840152613e55818561333f565b98975050505050505050565b60008060408385031215613e7457600080fd5b505080516020909101519092909150565b600060208284031215613e9757600080fd5b81516001600160401b03811115613ead57600080fd5b61105884828501613bb8565b61ffff85168152608060208201526000613ed6608083018661333f565b6001600160401b03851660408401528281036060840152613d67818561333f565b634e487b7160e01b600052603260045260246000fd5b6000600019821415613f2157613f21613cb7565b5060010190565b6000816000190483118215151615613f4257613f42613cb7565b500290565b60008251613f59818460208701613313565b9190910192915050565b60208152600061199e6020830184613dad565b828152604060208201526000611058604083018461333f565b60008219821115613fa257613fa2613cb7565b500190565b6001600160a01b0385811682528416602082015260408101839052608060608201819052600090613fda9083018461333f565b9695505050505050565b600060208284031215613ff657600080fd5b815161199e816132e0565b61ffff8616815260a06020820152600061401e60a083018761333f565b6001600160401b0386166040840152828103606084015261403f818661333f565b90508281036080840152613e55818561333f565b61ffff8716815260c06020820152600061407060c083018861333f565b8281036040840152614082818861333f565b6001600160a01b0387811660608601528616608085015283810360a085015290506140ad818561333f565b999850505050505050505056fea26469706673582212204b5b68b38df0ea6252a63a2134ecacea03a812d960f629fd7cb4e3fdf5b3989864736f6c634300080c0033",
  "linkReferences": {},
  "deployedLinkReferences": {}
}