{
  "_format": "hh-sol-artifact-1",
  "contractName": "MessagingComposer",
  "sourceName": "contracts/MessagingComposer.sol",
  "abi": [
    {
      "anonymous": false,
      "inputs": [
        {
          "indexed": false,
          "internalType": "address",
          "name": "receiver",
          "type": "address"
        },
        {
          "indexed": false,
          "internalType": "address",
          "name": "composer",
          "type": "address"
        },
        {
          "indexed": false,
          "internalType": "bytes32",
          "name": "guid",
          "type": "bytes32"
        },
        {
          "indexed": false,
          "internalType": "bytes",
          "name": "message",
          "type": "bytes"
        }
      ],
      "name": "ComposedMessageDelivered",
      "type": "event"
    },
    {
      "anonymous": false,
      "inputs": [
        {
          "indexed": false,
          "internalType": "address",
          "name": "receiver",
          "type": "address"
        },
        {
          "indexed": false,
          "internalType": "address",
          "name": "composer",
          "type": "address"
        },
        {
          "indexed": false,
          "internalType": "bytes32",
          "name": "guid",
          "type": "bytes32"
        },
        {
          "indexed": false,
          "internalType": "bytes32",
          "name": "messageHash",
          "type": "bytes32"
        },
        {
          "indexed": false,
          "internalType": "address",
          "name": "caller",
          "type": "address"
        }
      ],
      "name": "ComposedMessageReceived",
      "type": "event"
    },
    {
      "anonymous": false,
      "inputs": [
        {
          "indexed": false,
          "internalType": "address",
          "name": "sender",
          "type": "address"
        },
        {
          "indexed": false,
          "internalType": "address",
          "name": "receiver",
          "type": "address"
        },
        {
          "indexed": false,
          "internalType": "bytes32",
          "name": "guid",
          "type": "bytes32"
        },
        {
          "indexed": false,
          "internalType": "bytes32",
          "name": "messageHash",
          "type": "bytes32"
        },
        {
          "indexed": false,
          "internalType": "address",
          "name": "caller",
          "type": "address"
        },
        {
          "indexed": false,
          "internalType": "bytes",
          "name": "reason",
          "type": "bytes"
        }
      ],
      "name": "LzComposeFailed",
      "type": "event"
    },
    {
      "inputs": [
        {
          "internalType": "address",
          "name": "receiver",
          "type": "address"
        },
        {
          "internalType": "address",
          "name": "composer",
          "type": "address"
        },
        {
          "internalType": "bytes32",
          "name": "guid",
          "type": "bytes32"
        }
      ],
      "name": "composedMessages",
      "outputs": [
        {
          "internalType": "bytes32",
          "name": "messageHash",
          "type": "bytes32"
        }
      ],
      "stateMutability": "view",
      "type": "function"
    },
    {
      "inputs": [
        {
          "internalType": "address",
          "name": "_composer",
          "type": "address"
        },
        {
          "internalType": "bytes32",
          "name": "_guid",
          "type": "bytes32"
        },
        {
          "internalType": "bytes",
          "name": "_message",
          "type": "bytes"
        }
      ],
      "name": "deliverComposedMessage",
      "outputs": [],
      "stateMutability": "nonpayable",
      "type": "function"
    },
    {
      "inputs": [
        {
          "internalType": "address",
          "name": "_sender",
          "type": "address"
        },
        {
          "internalType": "address",
          "name": "_composer",
          "type": "address"
        },
        {
          "internalType": "bytes32",
          "name": "_guid",
          "type": "bytes32"
        },
        {
          "internalType": "bytes",
          "name": "_message",
          "type": "bytes"
        },
        {
          "internalType": "bytes",
          "name": "_extraData",
          "type": "bytes"
        }
      ],
      "name": "lzCompose",
      "outputs": [
        {
          "internalType": "bool",
          "name": "success",
          "type": "bool"
        },
        {
          "internalType": "bytes",
          "name": "reason",
          "type": "bytes"
        }
      ],
      "stateMutability": "payable",
      "type": "function"
    }
  ],
  "bytecode": "0x608060405234801561001057600080fd5b506109ed806100206000396000f3fe6080604052600436106100345760003560e01c8063754d3b9c146100395780639c9dd91d1461005b578063f405c859146100ab575b600080fd5b34801561004557600080fd5b50610059610054366004610687565b6100cc565b005b34801561006757600080fd5b506100986100763660046106e1565b6000602081815293815260408082208552928152828120909352825290205481565b6040519081526020015b60405180910390f35b6100be6100b936600461071d565b61020c565b6040516100a292919061081c565b3360009081526020818152604080832073ffffffffffffffffffffffffffffffffffffffff881684528252808320868452825291829020548251808401909352600783527f4c5a3830303030000000000000000000000000000000000000000000000000009183019190915215610179576040517f08c379a0000000000000000000000000000000000000000000000000000000008152600401610170919061083f565b60405180910390fd5b50818160405161018a929190610859565b60408051918290038220336000818152602081815284822073ffffffffffffffffffffffffffffffffffffffff8b1683528152848220898352905292909220557f7c0503be82d6ab0d4ea200b69f9930b82aec3c92ed138ed1a28f60cd9c3626db916101fe919087908790879087906108b2565b60405180910390a150505050565b73ffffffffffffffffffffffffffffffffffffffff808816600090815260208181526040808320938a1683529281528282208883529052818120549151909160609161025b9088908890610859565b60408051918290038220828201909152600782527f4c5a363030303000000000000000000000000000000000000000000000000000602083015282146102ce576040517f08c379a0000000000000000000000000000000000000000000000000000000008152600401610170919061083f565b5073ffffffffffffffffffffffffffffffffffffffff808b16600090815260208181526040808320938d1683529281528282208b835290528181206001905590517fd0a10260000000000000000000000000000000000000000000000000000000009061034b908d908c908c908c9033908d908d906024016108fd565b604080517fffffffffffffffffffffffffffffffffffffffffffffffffffffffffffffffe08184030181529190526020810180517bffffffffffffffffffffffffffffffffffffffffffffffffffffffff167fffffffff000000000000000000000000000000000000000000000000000000009093169290921790915290506103ed5a73ffffffffffffffffffffffffffffffffffffffff8c169034846105b0565b9094509250508215610463576040805173ffffffffffffffffffffffffffffffffffffffff808d1682528b166020820152908101899052606081018290523360808201527fe8de892dbb4fd705fc4c154fd784700f6f24789e8ffea6922947d082606887949060a00160405180910390a16105a3565b73ffffffffffffffffffffffffffffffffffffffff808b16600090815260208181526040808320938d1683529281528282208b8352905220819055341561056157604051600090339034908381818185875af1925050503d80600081146104e6576040519150601f19603f3d011682016040523d82523d6000602084013e6104eb565b606091505b50509050806040518060400160405280600781526020017f4c5a3330303030000000000000000000000000000000000000000000000000008152509061055e576040517f08c379a0000000000000000000000000000000000000000000000000000000008152600401610170919061083f565b50505b7f8054fc0b1a2df897569746b52a49553918b57ffcedcd0a35f0e8553d5ebba6768a8a8a84338760405161059a9695949392919061095e565b60405180910390a15b5097509795505050505050565b60408051606480825260a0820190925260009160609183918291829082602082018180368337019050509050600080885160208a018b8e8ef192503d9350818411156105fa578193505b838152836000602083013e9199919850909650505050505050565b803573ffffffffffffffffffffffffffffffffffffffff8116811461063957600080fd5b919050565b60008083601f84011261065057600080fd5b50813567ffffffffffffffff81111561066857600080fd5b60208301915083602082850101111561068057600080fd5b9250929050565b6000806000806060858703121561069d57600080fd5b6106a685610615565b935060208501359250604085013567ffffffffffffffff8111156106c957600080fd5b6106d58782880161063e565b95989497509550505050565b6000806000606084860312156106f657600080fd5b6106ff84610615565b925061070d60208501610615565b9150604084013590509250925092565b600080600080600080600060a0888a03121561073857600080fd5b61074188610615565b965061074f60208901610615565b955060408801359450606088013567ffffffffffffffff8082111561077357600080fd5b61077f8b838c0161063e565b909650945060808a013591508082111561079857600080fd5b506107a58a828b0161063e565b989b979a50959850939692959293505050565b6000815180845260005b818110156107de576020818501810151868301820152016107c2565b5060006020828601015260207fffffffffffffffffffffffffffffffffffffffffffffffffffffffffffffffe0601f83011685010191505092915050565b821515815260406020820152600061083760408301846107b8565b949350505050565b60208152600061085260208301846107b8565b9392505050565b8183823760009101908152919050565b8183528181602085013750600060208284010152600060207fffffffffffffffffffffffffffffffffffffffffffffffffffffffffffffffe0601f840116840101905092915050565b600073ffffffffffffffffffffffffffffffffffffffff8088168352808716602084015250846040830152608060608301526108f2608083018486610869565b979650505050505050565b600073ffffffffffffffffffffffffffffffffffffffff808a16835288602084015260a0604084015261093460a08401888a610869565b8187166060850152838103608085015261094f818688610869565b9b9a5050505050505050505050565b600073ffffffffffffffffffffffffffffffffffffffff8089168352808816602084015286604084015285606084015280851660808401525060c060a08301526109ab60c08301846107b8565b9897505050505050505056fea2646970667358221220c2743f1589b2c087f443e7c637009dfbbeb2a9c86298e619778f6fa9e5eb1ed564736f6c63430008130033",
  "linkReferences": {},
  "deployedLinkReferences": {}
}