{
  "_format": "hh-sol-artifact-1",
  "contractName": "Pool",
  "sourceName": "contracts/Pool.sol",
  "abi": [
    {
      "inputs": [
        {
          "internalType": "uint256",
          "name": "_poolId",
          "type": "uint256"
        },
        {
          "internalType": "address",
          "name": "_router",
          "type": "address"
        },
        {
          "internalType": "address",
          "name": "_token",
          "type": "address"
        },
        {
          "internalType": "uint256",
          "name": "_sharedDecimals",
          "type": "uint256"
        },
        {
          "internalType": "uint256",
          "name": "_localDecimals",
          "type": "uint256"
        },
        {
          "internalType": "address",
          "name": "_feeLibrary",
          "type": "address"
        },
        {
          "internalType": "string",
          "name": "_name",
          "type": "string"
        },
        {
          "internalType": "string",
          "name": "_symbol",
          "type": "string"
        }
      ],
      "stateMutability": "nonpayable",
      "type": "constructor"
    },
    {
      "anonymous": false,
      "inputs": [
        {
          "indexed": true,
          "internalType": "address",
          "name": "owner",
          "type": "address"
        },
        {
          "indexed": true,
          "internalType": "address",
          "name": "spender",
          "type": "address"
        },
        {
          "indexed": false,
          "internalType": "uint256",
          "name": "value",
          "type": "uint256"
        }
      ],
      "name": "Approval",
      "type": "event"
    },
    {
      "anonymous": false,
      "inputs": [
        {
          "indexed": false,
          "internalType": "address",
          "name": "from",
          "type": "address"
        },
        {
          "indexed": false,
          "internalType": "uint256",
          "name": "amountLP",
          "type": "uint256"
        },
        {
          "indexed": false,
          "internalType": "uint256",
          "name": "amountSD",
          "type": "uint256"
        }
      ],
      "name": "Burn",
      "type": "event"
    },
    {
      "anonymous": false,
      "inputs": [
        {
          "indexed": false,
          "internalType": "uint16",
          "name": "dstChainId",
          "type": "uint16"
        },
        {
          "indexed": false,
          "internalType": "uint256",
          "name": "dstPoolId",
          "type": "uint256"
        },
        {
          "indexed": false,
          "internalType": "uint256",
          "name": "weight",
          "type": "uint256"
        }
      ],
      "name": "ChainPathUpdate",
      "type": "event"
    },
    {
      "anonymous": false,
      "inputs": [
        {
          "indexed": false,
          "internalType": "uint16",
          "name": "chainId",
          "type": "uint16"
        },
        {
          "indexed": false,
          "internalType": "uint256",
          "name": "srcPoolId",
          "type": "uint256"
        },
        {
          "indexed": false,
          "internalType": "uint256",
          "name": "amountSD",
          "type": "uint256"
        },
        {
          "indexed": false,
          "internalType": "uint256",
          "name": "idealBalance",
          "type": "uint256"
        }
      ],
      "name": "CreditChainPath",
      "type": "event"
    },
    {
      "anonymous": false,
      "inputs": [
        {
          "indexed": false,
          "internalType": "bool",
          "name": "batched",
          "type": "bool"
        },
        {
          "indexed": false,
          "internalType": "uint256",
          "name": "swapDeltaBP",
          "type": "uint256"
        },
        {
          "indexed": false,
          "internalType": "uint256",
          "name": "lpDeltaBP",
          "type": "uint256"
        },
        {
          "indexed": false,
          "internalType": "bool",
          "name": "defaultSwapMode",
          "type": "bool"
        },
        {
          "indexed": false,
          "internalType": "bool",
          "name": "defaultLPMode",
          "type": "bool"
        }
      ],
      "name": "DeltaParamUpdated",
      "type": "event"
    },
    {
      "anonymous": false,
      "inputs": [
        {
          "indexed": false,
          "internalType": "address",
          "name": "feeLibraryAddr",
          "type": "address"
        }
      ],
      "name": "FeeLibraryUpdated",
      "type": "event"
    },
    {
      "anonymous": false,
      "inputs": [
        {
          "indexed": false,
          "internalType": "uint256",
          "name": "mintFeeBP",
          "type": "uint256"
        }
      ],
      "name": "FeesUpdated",
      "type": "event"
    },
    {
      "anonymous": false,
      "inputs": [
        {
          "indexed": false,
          "internalType": "address",
          "name": "from",
          "type": "address"
        },
        {
          "indexed": false,
          "internalType": "uint256",
          "name": "amountLP",
          "type": "uint256"
        },
        {
          "indexed": false,
          "internalType": "uint256",
          "name": "amountSD",
          "type": "uint256"
        },
        {
          "indexed": false,
          "internalType": "address",
          "name": "to",
          "type": "address"
        }
      ],
      "name": "InstantRedeemLocal",
      "type": "event"
    },
    {
      "anonymous": false,
      "inputs": [
        {
          "indexed": false,
          "internalType": "address",
          "name": "to",
          "type": "address"
        },
        {
          "indexed": false,
          "internalType": "uint256",
          "name": "amountLP",
          "type": "uint256"
        },
        {
          "indexed": false,
          "internalType": "uint256",
          "name": "amountSD",
          "type": "uint256"
        },
        {
          "indexed": false,
          "internalType": "uint256",
          "name": "mintFeeAmountSD",
          "type": "uint256"
        }
      ],
      "name": "Mint",
      "type": "event"
    },
    {
      "anonymous": false,
      "inputs": [
        {
          "indexed": false,
          "internalType": "address",
          "name": "from",
          "type": "address"
        },
        {
          "indexed": false,
          "internalType": "uint256",
          "name": "amountLP",
          "type": "uint256"
        },
        {
          "indexed": false,
          "internalType": "uint256",
          "name": "amountSD",
          "type": "uint256"
        },
        {
          "indexed": false,
          "internalType": "uint16",
          "name": "chainId",
          "type": "uint16"
        },
        {
          "indexed": false,
          "internalType": "uint256",
          "name": "dstPoolId",
          "type": "uint256"
        },
        {
          "indexed": false,
          "internalType": "bytes",
          "name": "to",
          "type": "bytes"
        }
      ],
      "name": "RedeemLocal",
      "type": "event"
    },
    {
      "anonymous": false,
      "inputs": [
        {
          "indexed": false,
          "internalType": "address",
          "name": "_to",
          "type": "address"
        },
        {
          "indexed": false,
          "internalType": "uint256",
          "name": "_amountSD",
          "type": "uint256"
        },
        {
          "indexed": false,
          "internalType": "uint256",
          "name": "_amountToMintSD",
          "type": "uint256"
        }
      ],
      "name": "RedeemLocalCallback",
      "type": "event"
    },
    {
      "anonymous": false,
      "inputs": [
        {
          "indexed": false,
          "internalType": "uint16",
          "name": "chainId",
          "type": "uint16"
        },
        {
          "indexed": false,
          "internalType": "uint256",
          "name": "dstPoolId",
          "type": "uint256"
        },
        {
          "indexed": false,
          "internalType": "address",
          "name": "from",
          "type": "address"
        },
        {
          "indexed": false,
          "internalType": "uint256",
          "name": "amountLP",
          "type": "uint256"
        },
        {
          "indexed": false,
          "internalType": "uint256",
          "name": "amountSD",
          "type": "uint256"
        }
      ],
      "name": "RedeemRemote",
      "type": "event"
    },
    {
      "anonymous": false,
      "inputs": [
        {
          "indexed": false,
          "internalType": "uint16",
          "name": "dstChainId",
          "type": "uint16"
        },
        {
          "indexed": false,
          "internalType": "uint256",
          "name": "dstPoolId",
          "type": "uint256"
        },
        {
          "indexed": false,
          "internalType": "uint256",
          "name": "credits",
          "type": "uint256"
        },
        {
          "indexed": false,
          "internalType": "uint256",
          "name": "idealBalance",
          "type": "uint256"
        }
      ],
      "name": "SendCredits",
      "type": "event"
    },
    {
      "anonymous": false,
      "inputs": [
        {
          "indexed": false,
          "internalType": "bool",
          "name": "swapStop",
          "type": "bool"
        }
      ],
      "name": "StopSwapUpdated",
      "type": "event"
    },
    {
      "anonymous": false,
      "inputs": [
        {
          "indexed": false,
          "internalType": "uint16",
          "name": "chainId",
          "type": "uint16"
        },
        {
          "indexed": false,
          "internalType": "uint256",
          "name": "dstPoolId",
          "type": "uint256"
        },
        {
          "indexed": false,
          "internalType": "address",
          "name": "from",
          "type": "address"
        },
        {
          "indexed": false,
          "internalType": "uint256",
          "name": "amountSD",
          "type": "uint256"
        },
        {
          "indexed": false,
          "internalType": "uint256",
          "name": "eqReward",
          "type": "uint256"
        },
        {
          "indexed": false,
          "internalType": "uint256",
          "name": "eqFee",
          "type": "uint256"
        },
        {
          "indexed": false,
          "internalType": "uint256",
          "name": "protocolFee",
          "type": "uint256"
        },
        {
          "indexed": false,
          "internalType": "uint256",
          "name": "lpFee",
          "type": "uint256"
        }
      ],
      "name": "Swap",
      "type": "event"
    },
    {
      "anonymous": false,
      "inputs": [
        {
          "indexed": false,
          "internalType": "address",
          "name": "to",
          "type": "address"
        },
        {
          "indexed": false,
          "internalType": "uint256",
          "name": "amountSD",
          "type": "uint256"
        },
        {
          "indexed": false,
          "internalType": "uint256",
          "name": "protocolFee",
          "type": "uint256"
        },
        {
          "indexed": false,
          "internalType": "uint256",
          "name": "dstFee",
          "type": "uint256"
        }
      ],
      "name": "SwapRemote",
      "type": "event"
    },
    {
      "anonymous": false,
      "inputs": [
        {
          "indexed": true,
          "internalType": "address",
          "name": "from",
          "type": "address"
        },
        {
          "indexed": true,
          "internalType": "address",
          "name": "to",
          "type": "address"
        },
        {
          "indexed": false,
          "internalType": "uint256",
          "name": "value",
          "type": "uint256"
        }
      ],
      "name": "Transfer",
      "type": "event"
    },
    {
      "anonymous": false,
      "inputs": [
        {
          "indexed": false,
          "internalType": "address",
          "name": "to",
          "type": "address"
        },
        {
          "indexed": false,
          "internalType": "uint256",
          "name": "amountSD",
          "type": "uint256"
        }
      ],
      "name": "WithdrawMintFeeBalance",
      "type": "event"
    },
    {
      "anonymous": false,
      "inputs": [
        {
          "indexed": false,
          "internalType": "address",
          "name": "to",
          "type": "address"
        },
        {
          "indexed": false,
          "internalType": "uint256",
          "name": "amountSD",
          "type": "uint256"
        }
      ],
      "name": "WithdrawProtocolFeeBalance",
      "type": "event"
    },
    {
      "anonymous": false,
      "inputs": [
        {
          "indexed": false,
          "internalType": "uint16",
          "name": "srcChainId",
          "type": "uint16"
        },
        {
          "indexed": false,
          "internalType": "uint256",
          "name": "srcPoolId",
          "type": "uint256"
        },
        {
          "indexed": false,
          "internalType": "uint256",
          "name": "swapAmount",
          "type": "uint256"
        },
        {
          "indexed": false,
          "internalType": "uint256",
          "name": "mintAmount",
          "type": "uint256"
        }
      ],
      "name": "WithdrawRemote",
      "type": "event"
    },
    {
      "inputs": [],
      "name": "BP_DENOMINATOR",
      "outputs": [
        {
          "internalType": "uint256",
          "name": "",
          "type": "uint256"
        }
      ],
      "stateMutability": "view",
      "type": "function"
    },
    {
      "inputs": [],
      "name": "DOMAIN_SEPARATOR",
      "outputs": [
        {
          "internalType": "bytes32",
          "name": "",
          "type": "bytes32"
        }
      ],
      "stateMutability": "view",
      "type": "function"
    },
    {
      "inputs": [],
      "name": "PERMIT_TYPEHASH",
      "outputs": [
        {
          "internalType": "bytes32",
          "name": "",
          "type": "bytes32"
        }
      ],
      "stateMutability": "view",
      "type": "function"
    },
    {
      "inputs": [
        {
          "internalType": "uint16",
          "name": "_dstChainId",
          "type": "uint16"
        },
        {
          "internalType": "uint256",
          "name": "_dstPoolId",
          "type": "uint256"
        }
      ],
      "name": "activateChainPath",
      "outputs": [],
      "stateMutability": "nonpayable",
      "type": "function"
    },
    {
      "inputs": [
        {
          "internalType": "address",
          "name": "",
          "type": "address"
        },
        {
          "internalType": "address",
          "name": "",
          "type": "address"
        }
      ],
      "name": "allowance",
      "outputs": [
        {
          "internalType": "uint256",
          "name": "",
          "type": "uint256"
        }
      ],
      "stateMutability": "view",
      "type": "function"
    },
    {
      "inputs": [
        {
          "internalType": "uint256",
          "name": "_amountLP",
          "type": "uint256"
        }
      ],
      "name": "amountLPtoLD",
      "outputs": [
        {
          "internalType": "uint256",
          "name": "",
          "type": "uint256"
        }
      ],
      "stateMutability": "view",
      "type": "function"
    },
    {
      "inputs": [
        {
          "internalType": "address",
          "name": "spender",
          "type": "address"
        },
        {
          "internalType": "uint256",
          "name": "value",
          "type": "uint256"
        }
      ],
      "name": "approve",
      "outputs": [
        {
          "internalType": "bool",
          "name": "",
          "type": "bool"
        }
      ],
      "stateMutability": "nonpayable",
      "type": "function"
    },
    {
      "inputs": [
        {
          "internalType": "address",
          "name": "",
          "type": "address"
        }
      ],
      "name": "balanceOf",
      "outputs": [
        {
          "internalType": "uint256",
          "name": "",
          "type": "uint256"
        }
      ],
      "stateMutability": "view",
      "type": "function"
    },
    {
      "inputs": [],
      "name": "batched",
      "outputs": [
        {
          "internalType": "bool",
          "name": "",
          "type": "bool"
        }
      ],
      "stateMutability": "view",
      "type": "function"
    },
    {
      "inputs": [
        {
          "internalType": "bool",
          "name": "_fullMode",
          "type": "bool"
        }
      ],
      "name": "callDelta",
      "outputs": [],
      "stateMutability": "nonpayable",
      "type": "function"
    },
    {
      "inputs": [
        {
          "internalType": "uint16",
          "name": "",
          "type": "uint16"
        },
        {
          "internalType": "uint256",
          "name": "",
          "type": "uint256"
        }
      ],
      "name": "chainPathIndexLookup",
      "outputs": [
        {
          "internalType": "uint256",
          "name": "",
          "type": "uint256"
        }
      ],
      "stateMutability": "view",
      "type": "function"
    },
    {
      "inputs": [
        {
          "internalType": "uint256",
          "name": "",
          "type": "uint256"
        }
      ],
      "name": "chainPaths",
      "outputs": [
        {
          "internalType": "bool",
          "name": "ready",
          "type": "bool"
        },
        {
          "internalType": "uint16",
          "name": "dstChainId",
          "type": "uint16"
        },
        {
          "internalType": "uint256",
          "name": "dstPoolId",
          "type": "uint256"
        },
        {
          "internalType": "uint256",
          "name": "weight",
          "type": "uint256"
        },
        {
          "internalType": "uint256",
          "name": "balance",
          "type": "uint256"
        },
        {
          "internalType": "uint256",
          "name": "lkb",
          "type": "uint256"
        },
        {
          "internalType": "uint256",
          "name": "credits",
          "type": "uint256"
        },
        {
          "internalType": "uint256",
          "name": "idealBalance",
          "type": "uint256"
        }
      ],
      "stateMutability": "view",
      "type": "function"
    },
    {
      "inputs": [],
      "name": "convertRate",
      "outputs": [
        {
          "internalType": "uint256",
          "name": "",
          "type": "uint256"
        }
      ],
      "stateMutability": "view",
      "type": "function"
    },
    {
      "inputs": [
        {
          "internalType": "uint16",
          "name": "_dstChainId",
          "type": "uint16"
        },
        {
          "internalType": "uint256",
          "name": "_dstPoolId",
          "type": "uint256"
        },
        {
          "internalType": "uint256",
          "name": "_weight",
          "type": "uint256"
        }
      ],
      "name": "createChainPath",
      "outputs": [],
      "stateMutability": "nonpayable",
      "type": "function"
    },
    {
      "inputs": [
        {
          "internalType": "uint16",
          "name": "_dstChainId",
          "type": "uint16"
        },
        {
          "internalType": "uint256",
          "name": "_dstPoolId",
          "type": "uint256"
        },
        {
          "components": [
            {
              "internalType": "uint256",
              "name": "credits",
              "type": "uint256"
            },
            {
              "internalType": "uint256",
              "name": "idealBalance",
              "type": "uint256"
            }
          ],
          "internalType": "struct Pool.CreditObj",
          "name": "_c",
          "type": "tuple"
        }
      ],
      "name": "creditChainPath",
      "outputs": [],
      "stateMutability": "nonpayable",
      "type": "function"
    },
    {
      "inputs": [],
      "name": "decimals",
      "outputs": [
        {
          "internalType": "uint256",
          "name": "",
          "type": "uint256"
        }
      ],
      "stateMutability": "view",
      "type": "function"
    },
    {
      "inputs": [
        {
          "internalType": "address",
          "name": "spender",
          "type": "address"
        },
        {
          "internalType": "uint256",
          "name": "subtractedValue",
          "type": "uint256"
        }
      ],
      "name": "decreaseAllowance",
      "outputs": [
        {
          "internalType": "bool",
          "name": "",
          "type": "bool"
        }
      ],
      "stateMutability": "nonpayable",
      "type": "function"
    },
    {
      "inputs": [],
      "name": "defaultLPMode",
      "outputs": [
        {
          "internalType": "bool",
          "name": "",
          "type": "bool"
        }
      ],
      "stateMutability": "view",
      "type": "function"
    },
    {
      "inputs": [],
      "name": "defaultSwapMode",
      "outputs": [
        {
          "internalType": "bool",
          "name": "",
          "type": "bool"
        }
      ],
      "stateMutability": "view",
      "type": "function"
    },
    {
      "inputs": [],
      "name": "deltaCredit",
      "outputs": [
        {
          "internalType": "uint256",
          "name": "",
          "type": "uint256"
        }
      ],
      "stateMutability": "view",
      "type": "function"
    },
    {
      "inputs": [],
      "name": "eqFeePool",
      "outputs": [
        {
          "internalType": "uint256",
          "name": "",
          "type": "uint256"
        }
      ],
      "stateMutability": "view",
      "type": "function"
    },
    {
      "inputs": [],
      "name": "feeLibrary",
      "outputs": [
        {
          "internalType": "address",
          "name": "",
          "type": "address"
        }
      ],
      "stateMutability": "view",
      "type": "function"
    },
    {
      "inputs": [
        {
          "internalType": "uint16",
          "name": "_dstChainId",
          "type": "uint16"
        },
        {
          "internalType": "uint256",
          "name": "_dstPoolId",
          "type": "uint256"
        }
      ],
      "name": "getChainPath",
      "outputs": [
        {
          "components": [
            {
              "internalType": "bool",
              "name": "ready",
              "type": "bool"
            },
            {
              "internalType": "uint16",
              "name": "dstChainId",
              "type": "uint16"
            },
            {
              "internalType": "uint256",
              "name": "dstPoolId",
              "type": "uint256"
            },
            {
              "internalType": "uint256",
              "name": "weight",
              "type": "uint256"
            },
            {
              "internalType": "uint256",
              "name": "balance",
              "type": "uint256"
            },
            {
              "internalType": "uint256",
              "name": "lkb",
              "type": "uint256"
            },
            {
              "internalType": "uint256",
              "name": "credits",
              "type": "uint256"
            },
            {
              "internalType": "uint256",
              "name": "idealBalance",
              "type": "uint256"
            }
          ],
          "internalType": "struct Pool.ChainPath",
          "name": "",
          "type": "tuple"
        }
      ],
      "stateMutability": "view",
      "type": "function"
    },
    {
      "inputs": [],
      "name": "getChainPathsLength",
      "outputs": [
        {
          "internalType": "uint256",
          "name": "",
          "type": "uint256"
        }
      ],
      "stateMutability": "view",
      "type": "function"
    },
    {
      "inputs": [
        {
          "internalType": "address",
          "name": "spender",
          "type": "address"
        },
        {
          "internalType": "uint256",
          "name": "addedValue",
          "type": "uint256"
        }
      ],
      "name": "increaseAllowance",
      "outputs": [
        {
          "internalType": "bool",
          "name": "",
          "type": "bool"
        }
      ],
      "stateMutability": "nonpayable",
      "type": "function"
    },
    {
      "inputs": [
        {
          "internalType": "address",
          "name": "_from",
          "type": "address"
        },
        {
          "internalType": "uint256",
          "name": "_amountLP",
          "type": "uint256"
        },
        {
          "internalType": "address",
          "name": "_to",
          "type": "address"
        }
      ],
      "name": "instantRedeemLocal",
      "outputs": [
        {
          "internalType": "uint256",
          "name": "amountSD",
          "type": "uint256"
        }
      ],
      "stateMutability": "nonpayable",
      "type": "function"
    },
    {
      "inputs": [],
      "name": "localDecimals",
      "outputs": [
        {
          "internalType": "uint256",
          "name": "",
          "type": "uint256"
        }
      ],
      "stateMutability": "view",
      "type": "function"
    },
    {
      "inputs": [],
      "name": "lpDeltaBP",
      "outputs": [
        {
          "internalType": "uint256",
          "name": "",
          "type": "uint256"
        }
      ],
      "stateMutability": "view",
      "type": "function"
    },
    {
      "inputs": [
        {
          "internalType": "address",
          "name": "_to",
          "type": "address"
        },
        {
          "internalType": "uint256",
          "name": "_amountLD",
          "type": "uint256"
        }
      ],
      "name": "mint",
      "outputs": [
        {
          "internalType": "uint256",
          "name": "",
          "type": "uint256"
        }
      ],
      "stateMutability": "nonpayable",
      "type": "function"
    },
    {
      "inputs": [],
      "name": "mintFeeBP",
      "outputs": [
        {
          "internalType": "uint256",
          "name": "",
          "type": "uint256"
        }
      ],
      "stateMutability": "view",
      "type": "function"
    },
    {
      "inputs": [],
      "name": "mintFeeBalance",
      "outputs": [
        {
          "internalType": "uint256",
          "name": "",
          "type": "uint256"
        }
      ],
      "stateMutability": "view",
      "type": "function"
    },
    {
      "inputs": [],
      "name": "name",
      "outputs": [
        {
          "internalType": "string",
          "name": "",
          "type": "string"
        }
      ],
      "stateMutability": "view",
      "type": "function"
    },
    {
      "inputs": [
        {
          "internalType": "address",
          "name": "",
          "type": "address"
        }
      ],
      "name": "nonces",
      "outputs": [
        {
          "internalType": "uint256",
          "name": "",
          "type": "uint256"
        }
      ],
      "stateMutability": "view",
      "type": "function"
    },
    {
      "inputs": [
        {
          "internalType": "address",
          "name": "owner",
          "type": "address"
        },
        {
          "internalType": "address",
          "name": "spender",
          "type": "address"
        },
        {
          "internalType": "uint256",
          "name": "value",
          "type": "uint256"
        },
        {
          "internalType": "uint256",
          "name": "deadline",
          "type": "uint256"
        },
        {
          "internalType": "uint8",
          "name": "v",
          "type": "uint8"
        },
        {
          "internalType": "bytes32",
          "name": "r",
          "type": "bytes32"
        },
        {
          "internalType": "bytes32",
          "name": "s",
          "type": "bytes32"
        }
      ],
      "name": "permit",
      "outputs": [],
      "stateMutability": "nonpayable",
      "type": "function"
    },
    {
      "inputs": [],
      "name": "poolId",
      "outputs": [
        {
          "internalType": "uint256",
          "name": "",
          "type": "uint256"
        }
      ],
      "stateMutability": "view",
      "type": "function"
    },
    {
      "inputs": [],
      "name": "protocolFeeBalance",
      "outputs": [
        {
          "internalType": "uint256",
          "name": "",
          "type": "uint256"
        }
      ],
      "stateMutability": "view",
      "type": "function"
    },
    {
      "inputs": [
        {
          "internalType": "address",
          "name": "_from",
          "type": "address"
        },
        {
          "internalType": "uint256",
          "name": "_amountLP",
          "type": "uint256"
        },
        {
          "internalType": "uint16",
          "name": "_dstChainId",
          "type": "uint16"
        },
        {
          "internalType": "uint256",
          "name": "_dstPoolId",
          "type": "uint256"
        },
        {
          "internalType": "bytes",
          "name": "_to",
          "type": "bytes"
        }
      ],
      "name": "redeemLocal",
      "outputs": [
        {
          "internalType": "uint256",
          "name": "amountSD",
          "type": "uint256"
        }
      ],
      "stateMutability": "nonpayable",
      "type": "function"
    },
    {
      "inputs": [
        {
          "internalType": "uint16",
          "name": "_srcChainId",
          "type": "uint16"
        },
        {
          "internalType": "uint256",
          "name": "_srcPoolId",
          "type": "uint256"
        },
        {
          "internalType": "address",
          "name": "_to",
          "type": "address"
        },
        {
          "internalType": "uint256",
          "name": "_amountSD",
          "type": "uint256"
        },
        {
          "internalType": "uint256",
          "name": "_amountToMintSD",
          "type": "uint256"
        }
      ],
      "name": "redeemLocalCallback",
      "outputs": [],
      "stateMutability": "nonpayable",
      "type": "function"
    },
    {
      "inputs": [
        {
          "internalType": "uint16",
          "name": "_srcChainId",
          "type": "uint16"
        },
        {
          "internalType": "uint256",
          "name": "_srcPoolId",
          "type": "uint256"
        },
        {
          "internalType": "uint256",
          "name": "_amountSD",
          "type": "uint256"
        }
      ],
      "name": "redeemLocalCheckOnRemote",
      "outputs": [
        {
          "internalType": "uint256",
          "name": "swapAmount",
          "type": "uint256"
        },
        {
          "internalType": "uint256",
          "name": "mintAmount",
          "type": "uint256"
        }
      ],
      "stateMutability": "nonpayable",
      "type": "function"
    },
    {
      "inputs": [
        {
          "internalType": "uint16",
          "name": "_dstChainId",
          "type": "uint16"
        },
        {
          "internalType": "uint256",
          "name": "_dstPoolId",
          "type": "uint256"
        },
        {
          "internalType": "address",
          "name": "_from",
          "type": "address"
        },
        {
          "internalType": "uint256",
          "name": "_amountLP",
          "type": "uint256"
        }
      ],
      "name": "redeemRemote",
      "outputs": [],
      "stateMutability": "nonpayable",
      "type": "function"
    },
    {
      "inputs": [],
      "name": "router",
      "outputs": [
        {
          "internalType": "address",
          "name": "",
          "type": "address"
        }
      ],
      "stateMutability": "view",
      "type": "function"
    },
    {
      "inputs": [
        {
          "internalType": "uint16",
          "name": "_dstChainId",
          "type": "uint16"
        },
        {
          "internalType": "uint256",
          "name": "_dstPoolId",
          "type": "uint256"
        }
      ],
      "name": "sendCredits",
      "outputs": [
        {
          "components": [
            {
              "internalType": "uint256",
              "name": "credits",
              "type": "uint256"
            },
            {
              "internalType": "uint256",
              "name": "idealBalance",
              "type": "uint256"
            }
          ],
          "internalType": "struct Pool.CreditObj",
          "name": "c",
          "type": "tuple"
        }
      ],
      "stateMutability": "nonpayable",
      "type": "function"
    },
    {
      "inputs": [
        {
          "internalType": "bool",
          "name": "_batched",
          "type": "bool"
        },
        {
          "internalType": "uint256",
          "name": "_swapDeltaBP",
          "type": "uint256"
        },
        {
          "internalType": "uint256",
          "name": "_lpDeltaBP",
          "type": "uint256"
        },
        {
          "internalType": "bool",
          "name": "_defaultSwapMode",
          "type": "bool"
        },
        {
          "internalType": "bool",
          "name": "_defaultLPMode",
          "type": "bool"
        }
      ],
      "name": "setDeltaParam",
      "outputs": [],
      "stateMutability": "nonpayable",
      "type": "function"
    },
    {
      "inputs": [
        {
          "internalType": "uint256",
          "name": "_mintFeeBP",
          "type": "uint256"
        }
      ],
      "name": "setFee",
      "outputs": [],
      "stateMutability": "nonpayable",
      "type": "function"
    },
    {
      "inputs": [
        {
          "internalType": "address",
          "name": "_feeLibraryAddr",
          "type": "address"
        }
      ],
      "name": "setFeeLibrary",
      "outputs": [],
      "stateMutability": "nonpayable",
      "type": "function"
    },
    {
      "inputs": [
        {
          "internalType": "bool",
          "name": "_swapStop",
          "type": "bool"
        }
      ],
      "name": "setSwapStop",
      "outputs": [],
      "stateMutability": "nonpayable",
      "type": "function"
    },
    {
      "inputs": [
        {
          "internalType": "uint16",
          "name": "_dstChainId",
          "type": "uint16"
        },
        {
          "internalType": "uint256",
          "name": "_dstPoolId",
          "type": "uint256"
        },
        {
          "internalType": "uint16",
          "name": "_weight",
          "type": "uint16"
        }
      ],
      "name": "setWeightForChainPath",
      "outputs": [],
      "stateMutability": "nonpayable",
      "type": "function"
    },
    {
      "inputs": [],
      "name": "sharedDecimals",
      "outputs": [
        {
          "internalType": "uint256",
          "name": "",
          "type": "uint256"
        }
      ],
      "stateMutability": "view",
      "type": "function"
    },
    {
      "inputs": [],
      "name": "stopSwap",
      "outputs": [
        {
          "internalType": "bool",
          "name": "",
          "type": "bool"
        }
      ],
      "stateMutability": "view",
      "type": "function"
    },
    {
      "inputs": [
        {
          "internalType": "uint16",
          "name": "_dstChainId",
          "type": "uint16"
        },
        {
          "internalType": "uint256",
          "name": "_dstPoolId",
          "type": "uint256"
        },
        {
          "internalType": "address",
          "name": "_from",
          "type": "address"
        },
        {
          "internalType": "uint256",
          "name": "_amountLD",
          "type": "uint256"
        },
        {
          "internalType": "uint256",
          "name": "_minAmountLD",
          "type": "uint256"
        },
        {
          "internalType": "bool",
          "name": "newLiquidity",
          "type": "bool"
        }
      ],
      "name": "swap",
      "outputs": [
        {
          "components": [
            {
              "internalType": "uint256",
              "name": "amount",
              "type": "uint256"
            },
            {
              "internalType": "uint256",
              "name": "eqFee",
              "type": "uint256"
            },
            {
              "internalType": "uint256",
              "name": "eqReward",
              "type": "uint256"
            },
            {
              "internalType": "uint256",
              "name": "lpFee",
              "type": "uint256"
            },
            {
              "internalType": "uint256",
              "name": "protocolFee",
              "type": "uint256"
            },
            {
              "internalType": "uint256",
              "name": "lkbRemove",
              "type": "uint256"
            }
          ],
          "internalType": "struct Pool.SwapObj",
          "name": "",
          "type": "tuple"
        }
      ],
      "stateMutability": "nonpayable",
      "type": "function"
    },
    {
      "inputs": [],
      "name": "swapDeltaBP",
      "outputs": [
        {
          "internalType": "uint256",
          "name": "",
          "type": "uint256"
        }
      ],
      "stateMutability": "view",
      "type": "function"
    },
    {
      "inputs": [
        {
          "internalType": "uint16",
          "name": "_srcChainId",
          "type": "uint16"
        },
        {
          "internalType": "uint256",
          "name": "_srcPoolId",
          "type": "uint256"
        },
        {
          "internalType": "address",
          "name": "_to",
          "type": "address"
        },
        {
          "components": [
            {
              "internalType": "uint256",
              "name": "amount",
              "type": "uint256"
            },
            {
              "internalType": "uint256",
              "name": "eqFee",
              "type": "uint256"
            },
            {
              "internalType": "uint256",
              "name": "eqReward",
              "type": "uint256"
            },
            {
              "internalType": "uint256",
              "name": "lpFee",
              "type": "uint256"
            },
            {
              "internalType": "uint256",
              "name": "protocolFee",
              "type": "uint256"
            },
            {
              "internalType": "uint256",
              "name": "lkbRemove",
              "type": "uint256"
            }
          ],
          "internalType": "struct Pool.SwapObj",
          "name": "_s",
          "type": "tuple"
        }
      ],
      "name": "swapRemote",
      "outputs": [
        {
          "internalType": "uint256",
          "name": "amountLD",
          "type": "uint256"
        }
      ],
      "stateMutability": "nonpayable",
      "type": "function"
    },
    {
      "inputs": [],
      "name": "symbol",
      "outputs": [
        {
          "internalType": "string",
          "name": "",
          "type": "string"
        }
      ],
      "stateMutability": "view",
      "type": "function"
    },
    {
      "inputs": [],
      "name": "token",
      "outputs": [
        {
          "internalType": "address",
          "name": "",
          "type": "address"
        }
      ],
      "stateMutability": "view",
      "type": "function"
    },
    {
      "inputs": [],
      "name": "totalLiquidity",
      "outputs": [
        {
          "internalType": "uint256",
          "name": "",
          "type": "uint256"
        }
      ],
      "stateMutability": "view",
      "type": "function"
    },
    {
      "inputs": [],
      "name": "totalSupply",
      "outputs": [
        {
          "internalType": "uint256",
          "name": "",
          "type": "uint256"
        }
      ],
      "stateMutability": "view",
      "type": "function"
    },
    {
      "inputs": [],
      "name": "totalWeight",
      "outputs": [
        {
          "internalType": "uint256",
          "name": "",
          "type": "uint256"
        }
      ],
      "stateMutability": "view",
      "type": "function"
    },
    {
      "inputs": [
        {
          "internalType": "address",
          "name": "to",
          "type": "address"
        },
        {
          "internalType": "uint256",
          "name": "value",
          "type": "uint256"
        }
      ],
      "name": "transfer",
      "outputs": [
        {
          "internalType": "bool",
          "name": "",
          "type": "bool"
        }
      ],
      "stateMutability": "nonpayable",
      "type": "function"
    },
    {
      "inputs": [
        {
          "internalType": "address",
          "name": "from",
          "type": "address"
        },
        {
          "internalType": "address",
          "name": "to",
          "type": "address"
        },
        {
          "internalType": "uint256",
          "name": "value",
          "type": "uint256"
        }
      ],
      "name": "transferFrom",
      "outputs": [
        {
          "internalType": "bool",
          "name": "",
          "type": "bool"
        }
      ],
      "stateMutability": "nonpayable",
      "type": "function"
    },
    {
      "inputs": [
        {
          "internalType": "address",
          "name": "_to",
          "type": "address"
        }
      ],
      "name": "withdrawMintFeeBalance",
      "outputs": [],
      "stateMutability": "nonpayable",
      "type": "function"
    },
    {
      "inputs": [
        {
          "internalType": "address",
          "name": "_to",
          "type": "address"
        }
      ],
      "name": "withdrawProtocolFeeBalance",
      "outputs": [],
      "stateMutability": "nonpayable",
      "type": "function"
    }
  ],
  "bytecode": "0x6101006040523480156200001257600080fd5b50604051620051b8380380620051b8833981016040819052620000359162000435565b8151829082906200004e906000906020850190620002d1565b50805162000064906001906020840190620002d1565b5060004690507f8b73c3c69bb8fe3d512ecc4cf759cc79239f7b179b0ffacaa9a75d522b39400f60006040518082805460018160011615610100020316600290048015620000ec5780601f10620000c9576101008083540402835291820191620000ec565b820191906000526020600020905b815481529060010190602001808311620000d7575b50506040805191829003822082820182526001808452603160f81b602094850152825180850197909752868301919091527fc89efdaa54c0f20c7adf612882df0950f5a951637e0307cdcb4c672f298b8bc6606087015260808601969096523060a0808701919091528151808703909101815260c090950190528351930192909220600255505060085550506001600160a01b038616620001aa5760405162461bcd60e51b8152600401620001a190620004f2565b60405180910390fd5b6001600160a01b038716620001d35760405162461bcd60e51b8152600401620001a19062000529565b6080889052606087811b6001600160601b031990811660e0529087901b1660c052600b85905560ff8516600355600c8490556200021d848662000273602090811b62002c2f17901c565b600a0a60a05250506000600f55601480546001600160a01b039092166001600160a01b031990921691909117905550506016805462ff00001961ffff199091166101001716620100001790555062000560915050565b600082821115620002cb576040805162461bcd60e51b815260206004820152601e60248201527f536166654d6174683a207375627472616374696f6e206f766572666c6f770000604482015290519081900360640190fd5b50900390565b828054600181600116156101000203166002900490600052602060002090601f01602090048101928262000309576000855562000354565b82601f106200032457805160ff191683800117855562000354565b8280016001018555821562000354579182015b828111156200035457825182559160200191906001019062000337565b506200036292915062000366565b5090565b5b8082111562000362576000815560010162000367565b80516001600160a01b03811681146200039557600080fd5b919050565b600082601f830112620003ab578081fd5b81516001600160401b0380821115620003c057fe5b6040516020601f8401601f1916820181018381118382101715620003e057fe5b6040528382528584018101871015620003f7578485fd5b8492505b838310156200041a5785830181015182840182015291820191620003fb565b838311156200042b57848185840101525b5095945050505050565b600080600080600080600080610100898b03121562000452578384fd5b885197506200046460208a016200037d565b96506200047460408a016200037d565b955060608901519450608089015193506200049260a08a016200037d565b60c08a01519093506001600160401b0380821115620004af578384fd5b620004bd8c838d016200039a565b935060e08b0151915080821115620004d3578283fd5b50620004e28b828c016200039a565b9150509295985092959890939650565b6020808252601e908201527f53746172676174653a205f746f6b656e2063616e6e6f74206265203078300000604082015260600190565b6020808252601f908201527f53746172676174653a205f726f757465722063616e6e6f742062652030783000604082015260600190565b60805160a05160c05160601c60e05160601c614b9062000628600039806108d35280610a705280610d0f528061108f52806115ce528061163c5280611716528061183c52806119575280611aa25280611b065280611c185280611f265280611fff528061210f52806122f45280612470528061258b52806129135280612ad05280612bbf525080610b27528061169a5280611d2b528061238352806125e95280612be9525080612c0d5280612fde52806131a6525080610e0052806115355250614b906000f3fe608060405234801561001057600080fd5b50600436106103ae5760003560e01c80637ecebe00116101f4578063b0fab0bc1161011a578063e065608b116100ad578063f887ea401161007c578063f887ea401461076e578063faa24f0714610776578063fc0c546a1461077e578063feb56b1514610786576103ae565b8063e065608b1461071f578063e46e705814610732578063ea89e2aa1461073a578063f6cd35ee1461075b576103ae565b8063be310294116100e9578063be310294146106de578063cdfed0ab146106f1578063d505accf146106f9578063dd62ed3e1461070c576103ae565b8063b0fab0bc1461069d578063b30daeac146106b0578063b633b364146106c3578063b6addec7146106cb576103ae565b806399a22d6811610192578063a9059cbb11610161578063a9059cbb1461065c578063a985565f1461066f578063abe685cd14610682578063ac2cc36b1461068a576103ae565b806399a22d68146106125780639bb811191461061a578063a138ed6b14610622578063a457c2d714610649576103ae565b80638bd86d0a116101ce5780638bd86d0a146105dc578063902b8ab7146105ef57806395d89b411461060257806396c82e571461060a576103ae565b80637ecebe00146105ae5780637fb65265146105c1578063857749b0146105d4576103ae565b806328f079c2116102d957806340c10f191161027757806365152f2b1161024657806365152f2b1461056d57806369fe0e2d1461057557806370a08231146105885780637298a5dc1461059b576103ae565b806340c10f1914610521578063476efe40146105345780634b5cacbc1461054757806364c5f02d1461055a576103ae565b806336448777116102b357806336448777146104f65780633644e515146104fe57806339509351146105065780633e0dc34e14610519576103ae565b806328f079c2146104de57806330adf81f146104e6578063313ce567146104ee576103ae565b8063159f6add116103515780631e8e51da116103205780631e8e51da146104a657806320d6bc75146104ae57806323b872dd146104c357806327f92376146104d6576103ae565b8063159f6add14610456578063163ef4901461047657806318160ddd1461047e5780631b7319b614610486576103ae565b8063095ea7b31161038d578063095ea7b3146104065780630986b61a146104265780630a22d68c1461044657806315770f921461044e576103ae565b80621edfab146103b357806306fdde03146103d157806308e9d8c2146103e6575b600080fd5b6103bb61078e565b6040516103c891906140fa565b60405180910390f35b6103d96107aa565b6040516103c891906142dd565b6103f96103f4366004613df4565b610856565b6040516103c89190614944565b610419610414366004613be6565b6109e2565b6040516103c89190614264565b610439610434366004613c0f565b6109f9565b6040516103c891906142d4565b610439610b99565b610439610b9f565b610469610464366004613df4565b610ba5565b6040516103c891906148e5565b610439610c86565b610439610c8c565b610499610494366004613f6f565b610c92565b6040516103c8919061495b565b610439611071565b6104c16104bc366004614094565b611077565b005b6104196104d1366004613b3a565b6113c4565b61041961149d565b6104196114a6565b6104396114b5565b6104396114d9565b6104396114df565b6104396114e5565b610419610514366004613be6565b6114eb565b610439611533565b61043961052f366004613be6565b611557565b6104c1610542366004613aee565b611624565b6104c1610555366004613aee565b6116fe565b610439610568366004613df4565b611801565b61043961181e565b6104c16105833660046140c6565b611824565b610439610596366004613aee565b6118d0565b6104c16105a9366004613edf565b6118e2565b6104396105bc366004613aee565b611a78565b6104c16105cf366004613ceb565b611a8a565b610439611ae8565b6104c16105ea366004613df4565b611aee565b6104396105fd366004613e0f565b611ba1565b6103d9611db5565b610439611e2d565b610419611e33565b610439611e41565b6106356106303660046140c6565b611e47565b6040516103c898979695949392919061426f565b610419610657366004613be6565b611ea5565b61041961066a366004613be6565b611f01565b6104c161067d366004614062565b611f0e565b610439611fe1565b6104c1610698366004613ceb565b611fe7565b6104396106ab366004613c4a565b612098565b6104c16106be366004613f22565b61227f565b6104196123f2565b6104c16106d9366004613fd1565b6123fb565b6104c16106ec366004613aee565b612573565b610439612640565b6104c1610707366004613b75565b612646565b61043961071a366004613b08565b6128de565b6104c161072d366004613d23565b6128fb565b610439612a52565b61074d610748366004614094565b612a58565b6040516103c8929190614a8b565b6104396107693660046140c6565b612ba7565b6103bb612bbd565b610439612be1565b6103bb612be7565b610439612c0b565b60145473ffffffffffffffffffffffffffffffffffffffff1681565b6000805460408051602060026001851615610100027fffffffffffffffffffffffffffffffffffffffffffffffffffffffffffffffff0190941693909304601f8101849004840282018401909252818152929183018282801561084e5780601f106108235761010080835404028352916020019161084e565b820191906000526020600020905b81548152906001019060200180831161083157829003601f168201915b505050505081565b61085e613a1d565b600260085414156108b6576040805162461bcd60e51b815260206004820152601f60248201527f5265656e7472616e637947756172643a207265656e7472616e742063616c6c00604482015290519081900360640190fd5b60026008553373ffffffffffffffffffffffffffffffffffffffff7f000000000000000000000000000000000000000000000000000000000000000016146109195760405162461bcd60e51b81526004016109109061474f565b60405180910390fd5b60006109258484612c8c565b805490915060ff16151560011461094e5760405162461bcd60e51b815260040161091090614612565b6005810154600482015461096191612d29565b6004820155600f546002820154600e5461098692916109809190612d83565b90612ddc565b6020830181905260058201805480855260009091556040517f6939f93e3f21cf1362eb17155b740277de5687dae9a83a85909fd71da95944e7926109ce928892889290614a6a565b60405180910390a150600160085592915050565b60006109ef338484612e43565b5060015b92915050565b600060026008541415610a53576040805162461bcd60e51b815260206004820152601f60248201527f5265656e7472616e637947756172643a207265656e7472616e742063616c6c00604482015290519081900360640190fd5b60026008553373ffffffffffffffffffffffffffffffffffffffff7f00000000000000000000000000000000000000000000000000000000000000001614610aad5760405162461bcd60e51b81526004016109109061474f565b73ffffffffffffffffffffffffffffffffffffffff8416610ae05760405162461bcd60e51b8152600401610910906145db565b6015546000610aee82612eb2565b905080851115610afc578094505b610b068686612ef0565b9250610b128284612c2f565b6015556000610b2084612fd6565b9050610b4d7f00000000000000000000000000000000000000000000000000000000000000008683613002565b7f2125a70154569bd1686edd3cf981bb23dea7c1fa1637909dbb3c9a967cb0c2f287878688604051610b82949392919061416f565b60405180910390a150506001600855509392505050565b60115481565b600e5481565b610bad613a37565b61ffff83166000908152600a60209081526040808320858452909152812054600980549091908110610bdb57fe5b60009182526020918290206040805161010080820183526007909402909201805460ff81161515845261ffff94900484169483018590526001810154918301919091526002810154606083015260038101546080830152600481015460a0830152600581015460c08301526006015460e082015292508516148015610c635750828160400151145b610c7f5760405162461bcd60e51b81526004016109109061438b565b9392505050565b60095490565b60045481565b610c9a613a82565b60026008541415610cf2576040805162461bcd60e51b815260206004820152601f60248201527f5265656e7472616e637947756172643a207265656e7472616e742063616c6c00604482015290519081900360640190fd5b60026008553373ffffffffffffffffffffffffffffffffffffffff7f00000000000000000000000000000000000000000000000000000000000000001614610d4c5760405162461bcd60e51b81526004016109109061474f565b600d5460ff1615610d6f5760405162461bcd60e51b8152600401610910906148ae565b6000610d7b8888612c8c565b805490915060ff161515600114610da45760405162461bcd60e51b815260040161091090614612565b6000610daf8661319e565b90506000610dbc8661319e565b90506000601460009054906101000a900473ffffffffffffffffffffffffffffffffffffffff1673ffffffffffffffffffffffffffffffffffffffff16631ab624307f00000000000000000000000000000000000000000000000000000000000000008c8e8d886040518663ffffffff1660e01b8152600401610e43959493929190614a99565b60c060405180830381600087803b158015610e5d57600080fd5b505af1158015610e71573d6000803e3d6000fd5b505050506040513d601f19601f82011682018060405250810190610e959190613d81565b9050610eb08160400151601354612c2f90919063ffffffff16565b601355606081015160808201516020830151610eda9291610ed49182908890612c2f565b90612c2f565b80825260408201518391610eed91612d29565b1015610f0b5760405162461bcd60e51b81526004016109109061481a565b610f308160400151610f2a836060015186612c2f90919063ffffffff16565b90612d29565b60a0820181905260038501541015610f5a5760405162461bcd60e51b8152600401610910906147e3565b60a08101516003850154610f6d91612c2f565b60038501558515610f9d57610f958160400151610f2a85601554612d2990919063ffffffff16565b601555610fbc565b604081015115610fbc576040810151601554610fb891612d29565b6015555b60165460ff161580610fec5750610fe6612710610980601754600e54612d8390919063ffffffff16565b60155410155b156110055760165461100590610100900460ff166131ca565b7f34660fc8af304464529f48a778e03d03e4d34bcd5f9b6f0cfbf3cd238c642f7f8b8b8b846000015185604001518660200151876080015188606001516040516110569897969594939291906149de565b60405180910390a160016008559a9950505050505050505050565b60155481565b3373ffffffffffffffffffffffffffffffffffffffff7f000000000000000000000000000000000000000000000000000000000000000016146110cc5760405162461bcd60e51b81526004016109109061474f565b60005b60095481101561119a576000600982815481106110e857fe5b600091825260208083206040805161010080820183526007909502909201805460ff81161515845261ffff95900485169383018490526001810154918301919091526002810154606083015260038101546080830152600481015460a0830152600581015460c08301526006015460e082015293509087161480156111705750848260400151145b905080156111905760405162461bcd60e51b8152600401610910906146cc565b50506001016110cf565b50600f546111a89082612d29565b600f556009805461ffff8581166000818152600a602090815260408083208984528252808320869055805161010080820183528482529281019485528082018a8152606082018a81526080830186815260a0840187815260c0850188815260e0860189815260018d018e559c90985293517f6e1540171b6c0c960b71a7020d9f60077f6af931a8bbf590da0223dacf75c7af6007909b029a8b01805499517fffffffffffffffffffffffffffffffffffffffffffffffffffffffffffffff00909a16911515919091177fffffffffffffffffffffffffffffffffffffffffffffffffffffffffff0000ff16989099169095029690961790965594517f6e1540171b6c0c960b71a7020d9f60077f6af931a8bbf590da0223dacf75c7b087015592517f6e1540171b6c0c960b71a7020d9f60077f6af931a8bbf590da0223dacf75c7b1860155517f6e1540171b6c0c960b71a7020d9f60077f6af931a8bbf590da0223dacf75c7b285015591517f6e1540171b6c0c960b71a7020d9f60077f6af931a8bbf590da0223dacf75c7b384015590517f6e1540171b6c0c960b71a7020d9f60077f6af931a8bbf590da0223dacf75c7b483015591517f6e1540171b6c0c960b71a7020d9f60077f6af931a8bbf590da0223dacf75c7b590910155517f8fb3b21a941c2361df46475f9ae2f7b5dac5de7bd085fa22415ec0bb30c77e22906113b790859085908590614a4e565b60405180910390a1505050565b73ffffffffffffffffffffffffffffffffffffffff831660009081526006602090815260408083203384529091528120547fffffffffffffffffffffffffffffffffffffffffffffffffffffffffffffffff146114885773ffffffffffffffffffffffffffffffffffffffff841660009081526006602090815260408083203384529091529020546114569083612c2f565b73ffffffffffffffffffffffffffffffffffffffff851660009081526006602090815260408083203384529091529020555b6114938484846135bc565b5060019392505050565b60165460ff1681565b60165462010000900460ff1681565b7f6e71edae12b1b97f4d1f60370fef10105fa2faae0126114a169c64845d6126c981565b60035481565b60185481565b60025481565b33600081815260066020908152604080832073ffffffffffffffffffffffffffffffffffffffff8716845290915281205490916109ef91859061152e9086612d29565b612e43565b7f000000000000000000000000000000000000000000000000000000000000000081565b6000600260085414156115b1576040805162461bcd60e51b815260206004820152601f60248201527f5265656e7472616e637947756172643a207265656e7472616e742063616c6c00604482015290519081900360640190fd5b60026008553373ffffffffffffffffffffffffffffffffffffffff7f0000000000000000000000000000000000000000000000000000000000000000161461160b5760405162461bcd60e51b81526004016109109061474f565b6116188383600180613691565b60016008559392505050565b3373ffffffffffffffffffffffffffffffffffffffff7f000000000000000000000000000000000000000000000000000000000000000016146116795760405162461bcd60e51b81526004016109109061474f565b601254156116fb57600061168e601254612fd6565b600060125590506116c07f00000000000000000000000000000000000000000000000000000000000000008383613002565b7f87b3b2749102aa96f2d08396e34cd47673e57148af9cfff965d99bc0378a87dc82826040516116f192919061411b565b60405180910390a1505b50565b3373ffffffffffffffffffffffffffffffffffffffff7f000000000000000000000000000000000000000000000000000000000000000016146117535760405162461bcd60e51b81526004016109109061474f565b73ffffffffffffffffffffffffffffffffffffffff81166117865760405162461bcd60e51b81526004016109109061457e565b601480547fffffffffffffffffffffffff00000000000000000000000000000000000000001673ffffffffffffffffffffffffffffffffffffffff83161790556040517f5138b884a20454b6db937b9e11c8534e02e708750e0c465df6cd9701622952ce906117f69083906140fa565b60405180910390a150565b600a60209081526000928352604080842090915290825290205481565b60125481565b3373ffffffffffffffffffffffffffffffffffffffff7f000000000000000000000000000000000000000000000000000000000000000016146118795760405162461bcd60e51b81526004016109109061474f565b61271081111561189b5760405162461bcd60e51b815260040161091090614510565b60108190556040517f9fe6eeb0f0541c644a56c67efeb872dbadd803a60b909d7dde1b35a3fe230b0e906117f69083906142d4565b60056020526000908152604090205481565b6002600854141561193a576040805162461bcd60e51b815260206004820152601f60248201527f5265656e7472616e637947756172643a207265656e7472616e742063616c6c00604482015290519081900360640190fd5b60026008553373ffffffffffffffffffffffffffffffffffffffff7f000000000000000000000000000000000000000000000000000000000000000016146119945760405162461bcd60e51b81526004016109109061474f565b73ffffffffffffffffffffffffffffffffffffffff82166119c75760405162461bcd60e51b8152600401610910906145db565b60006119d38383612ef0565b60165490915060ff161580611a055750611a00612710610980601854600e54612d8390919063ffffffff16565b601554115b15611a1f57601654611a1f9062010000900460ff166131ca565b6000611a2a82612fd6565b90507fa33f5c0b76f00f6737b1780a8a7f18e19c3fe8fe9ee01a6c1b8ce1eae5ed54f98686868685604051611a6395949392919061499f565b60405180910390a15050600160085550505050565b60076020526000908152604090205481565b3373ffffffffffffffffffffffffffffffffffffffff7f00000000000000000000000000000000000000000000000000000000000000001614611adf5760405162461bcd60e51b81526004016109109061474f565b6116fb816131ca565b600b5481565b3373ffffffffffffffffffffffffffffffffffffffff7f00000000000000000000000000000000000000000000000000000000000000001614611b435760405162461bcd60e51b81526004016109109061474f565b6000611b4f8383612c8c565b805490915060ff1615611b745760405162461bcd60e51b815260040161091090614445565b80547fffffffffffffffffffffffffffffffffffffffffffffffffffffffffffffff001660011790555050565b600060026008541415611bfb576040805162461bcd60e51b815260206004820152601f60248201527f5265656e7472616e637947756172643a207265656e7472616e742063616c6c00604482015290519081900360640190fd5b60026008553373ffffffffffffffffffffffffffffffffffffffff7f00000000000000000000000000000000000000000000000000000000000000001614611c555760405162461bcd60e51b81526004016109109061474f565b6060820151600e54611c6691612d29565b600e556020820151601354611c7a91612d29565b6013556080820151601154611c8e91612d29565b60115561ffff85166000908152600a6020908152604080832087845290915290205460a083015160098054611ce992919084908110611cc957fe5b906000526020600020906007020160040154612c2f90919063ffffffff16565b60098281548110611cf657fe5b600091825260209091206004600790920201015560408301518351611d2491611d1f9190612d29565b612fd6565b9150611d517f00000000000000000000000000000000000000000000000000000000000000008584613002565b604083015183517ffb2b592367452f1c437675bed47f5e1e6c25188c17d7ba01a12eb030bc41ccef918691611d8591612d29565b85608001518660200151604051611d9f9493929190614231565b60405180910390a1506001600855949350505050565b60018054604080516020600284861615610100027fffffffffffffffffffffffffffffffffffffffffffffffffffffffffffffffff0190941693909304601f8101849004840282018401909252818152929183018282801561084e5780601f106108235761010080835404028352916020019161084e565b600f5481565b601654610100900460ff1681565b60135481565b60098181548110611e5757600080fd5b6000918252602090912060079091020180546001820154600283015460038401546004850154600586015460069096015460ff8616975061010090950461ffff169593949293919290919088565b60006109ef338461152e85604051806060016040528060258152602001614b366025913933600090815260066020908152604080832073ffffffffffffffffffffffffffffffffffffffff8d16845290915290205491906137eb565b60006109ef3384846135bc565b3373ffffffffffffffffffffffffffffffffffffffff7f00000000000000000000000000000000000000000000000000000000000000001614611f635760405162461bcd60e51b81526004016109109061474f565b6000611f6f8484612c8c565b9050611f928261ffff16610f2a8360020154600f54612c2f90919063ffffffff16565b600f5561ffff821660028201556040517f8fb3b21a941c2361df46475f9ae2f7b5dac5de7bd085fa22415ec0bb30c77e2290611fd390869086908690614a30565b60405180910390a150505050565b61271081565b3373ffffffffffffffffffffffffffffffffffffffff7f0000000000000000000000000000000000000000000000000000000000000000161461203c5760405162461bcd60e51b81526004016109109061474f565b600d80547fffffffffffffffffffffffffffffffffffffffffffffffffffffffffffffff00168215151790556040517f59a9350977452c5240699f57f18b5915cd0440a56f08820a38b9f2432a82ba3e906117f6908390614264565b6000600260085414156120f2576040805162461bcd60e51b815260206004820152601f60248201527f5265656e7472616e637947756172643a207265656e7472616e742063616c6c00604482015290519081900360640190fd5b60026008553373ffffffffffffffffffffffffffffffffffffffff7f0000000000000000000000000000000000000000000000000000000000000000161461214c5760405162461bcd60e51b81526004016109109061474f565b73ffffffffffffffffffffffffffffffffffffffff871661217f5760405162461bcd60e51b8152600401610910906145db565b61ffff85166000908152600a602090815260408083208784529091529020546009805490919081106121ad57fe5b600091825260209091206007909102015460ff1615156001146121e25760405162461bcd60e51b815260040161091090614612565b6121ec8787612ef0565b60165490915060ff16158061221e5750612219612710610980601854600e54612d8390919063ffffffff16565b601554115b1561222d5761222d60006131ca565b7f53c03ee0722b52efeb42444f48d90173854501b3de3c590fcb445743377115c28787838888888860405161226897969594939291906141a7565b60405180910390a160016008559695505050505050565b600260085414156122d7576040805162461bcd60e51b815260206004820152601f60248201527f5265656e7472616e637947756172643a207265656e7472616e742063616c6c00604482015290519081900360640190fd5b60026008553373ffffffffffffffffffffffffffffffffffffffff7f000000000000000000000000000000000000000000000000000000000000000016146123315760405162461bcd60e51b81526004016109109061474f565b801561234e5761234c8361234483612fd6565b600080613691565b505b600061235a8686612c8c565b600481015490915061236c9084612c2f565b6004820155600061237c84612fd6565b90506123a97f00000000000000000000000000000000000000000000000000000000000000008683613002565b7fa97166013ecf5305dd9a58d6d867f05e646d4275f52d2bd52a5c7f00a690ad1b8585856040516123dc93929190614141565b60405180910390a1505060016008555050505050565b600d5460ff1681565b60026008541415612453576040805162461bcd60e51b815260206004820152601f60248201527f5265656e7472616e637947756172643a207265656e7472616e742063616c6c00604482015290519081900360640190fd5b60026008553373ffffffffffffffffffffffffffffffffffffffff7f000000000000000000000000000000000000000000000000000000000000000016146124ad5760405162461bcd60e51b81526004016109109061474f565b61ffff83166000908152600a602090815260408083208584529091528120546009805490919081106124db57fe5b9060005260206000209060070201905061250682600001518260030154612d2990919063ffffffff16565b6003820155602082015160068201541461252557602082015160068201555b815160208301516040517fdbdd25248751feb2f3b66721dfdd11662a68bc155af3771e661aabec92fba8149261256092889288929190614a6a565b60405180910390a1505060016008555050565b3373ffffffffffffffffffffffffffffffffffffffff7f000000000000000000000000000000000000000000000000000000000000000016146125c85760405162461bcd60e51b81526004016109109061474f565b601154156116fb5760006125dd601154612fd6565b6000601155905061260f7f00000000000000000000000000000000000000000000000000000000000000008383613002565b7f70dc5a44816033bea80f836440f4b1fe1b3bb06b568c8dc2301901f03bf237c782826040516116f192919061411b565b60175481565b4284101561269b576040805162461bcd60e51b815260206004820152600f60248201527f4272696467653a20455850495245440000000000000000000000000000000000604482015290519081900360640190fd5b60025473ffffffffffffffffffffffffffffffffffffffff80891660008181526007602090815260408083208054600180820190925582517f6e71edae12b1b97f4d1f60370fef10105fa2faae0126114a169c64845d6126c98186015280840196909652958d166060860152608085018c905260a085019590955260c08085018b90528151808603909101815260e0850182528051908301207f19010000000000000000000000000000000000000000000000000000000000006101008601526101028501969096526101228085019690965280518085039096018652610142840180825286519683019690962095839052610162840180825286905260ff89166101828501526101a284018890526101c28401879052519193926101e2808201937fffffffffffffffffffffffffffffffffffffffffffffffffffffffffffffffe081019281900390910190855afa1580156127fc573d6000803e3d6000fd5b50506040517fffffffffffffffffffffffffffffffffffffffffffffffffffffffffffffffe0015191505073ffffffffffffffffffffffffffffffffffffffff81161580159061287757508873ffffffffffffffffffffffffffffffffffffffff168173ffffffffffffffffffffffffffffffffffffffff16145b6128c8576040805162461bcd60e51b815260206004820152601960248201527f4272696467653a20494e56414c49445f5349474e415455524500000000000000604482015290519081900360640190fd5b6128d3898989612e43565b505050505050505050565b600660209081526000928352604080842090915290825290205481565b3373ffffffffffffffffffffffffffffffffffffffff7f000000000000000000000000000000000000000000000000000000000000000016146129505760405162461bcd60e51b81526004016109109061474f565b612710841115801561296457506127108311155b6129805760405162461bcd60e51b815260040161091090614547565b60168054601786905560188590557fffffffffffffffffffffffffffffffffffffffffffffffffffffffffffffff0016861515177fffffffffffffffffffffffffffffffffffffffffffffffffffffffffffff00ff1661010084151502177fffffffffffffffffffffffffffffffffffffffffffffffffffffffffff00ffff1662010000831515021790556040517f7cc11124872dc29ed41dd447ee7ab07d9eee5d8ebb55f65dd92bce19bb20224a90612a4390879087908790879087906142ab565b60405180910390a15050505050565b600c5481565b60008060026008541415612ab3576040805162461bcd60e51b815260206004820152601f60248201527f5265656e7472616e637947756172643a207265656e7472616e742063616c6c00604482015290519081900360640190fd5b60026008553373ffffffffffffffffffffffffffffffffffffffff7f00000000000000000000000000000000000000000000000000000000000000001614612b0d5760405162461bcd60e51b81526004016109109061474f565b6000612b198686612c8c565b90508060030154841115612b3e57600381018054600090915592508284039150612b5a565b6003810154612b4d9085612c2f565b6003820155839250600091505b7f44d3575fd94f9e0a41d7ebbc7e952f9b615c3f8d1faf924e1e9e98c0edf0d38086868585604051612b8f9493929190614a6a565b60405180910390a15060016008559094909350915050565b6000612bb5611d1f83613882565b90505b919050565b7f000000000000000000000000000000000000000000000000000000000000000081565b60105481565b7f000000000000000000000000000000000000000000000000000000000000000081565b7f000000000000000000000000000000000000000000000000000000000000000081565b600082821115612c86576040805162461bcd60e51b815260206004820152601e60248201527f536166654d6174683a207375627472616374696f6e206f766572666c6f770000604482015290519081900360640190fd5b50900390565b600954600090612cae5760405162461bcd60e51b8152600401610910906144d9565b61ffff83166000908152600a60209081526040808320858452909152812054600980549091908110612cdc57fe5b60009182526020909120600790910201805490915061ffff85811661010090920416148015610c63575082816001015414610c7f5760405162461bcd60e51b81526004016109109061438b565b600082820183811015610c7f576040805162461bcd60e51b815260206004820152601b60248201527f536166654d6174683a206164646974696f6e206f766572666c6f770000000000604482015290519081900360640190fd5b600082612d92575060006109f3565b82820282848281612d9f57fe5b0414610c7f5760405162461bcd60e51b8152600401808060200182810382526021815260200180614b156021913960400191505060405180910390fd5b6000808211612e32576040805162461bcd60e51b815260206004820152601a60248201527f536166654d6174683a206469766973696f6e206279207a65726f000000000000604482015290519081900360640190fd5b818381612e3b57fe5b049392505050565b73ffffffffffffffffffffffffffffffffffffffff808416600081815260066020908152604080832094871680845294825291829020859055815185815291517f8c5be1e5ebec7d5bd14f71427d1e84f3dd0314c0f7b2291e5b200ac8c7c3b9259281900390910190a3505050565b600080600e5411612ed55760405162461bcd60e51b81526004016109109061432e565b612bb5600e5461098060045485612d8390919063ffffffff16565b60008060045411612f135760405162461bcd60e51b8152600401610910906143e8565b73ffffffffffffffffffffffffffffffffffffffff831660009081526005602052604090205482811015612f595760405162461bcd60e51b815260040161091090614851565b6000612f76600454610980600e5487612d8390919063ffffffff16565b600e54909150612f869082612c2f565b600e55612f9385856138c0565b7f49995e5dd6158cf69ad3e9777c46755a1a826a446c6416992167462dad033b2a858583604051612fc693929190614141565b60405180910390a1949350505050565b6000612bb5827f0000000000000000000000000000000000000000000000000000000000000000612d83565b604080518082018252601981527f7472616e7366657228616464726573732c75696e74323536290000000000000060209091015251600090819073ffffffffffffffffffffffffffffffffffffffff8616907fa9059cbb2ab09eb219583f4a59a5d0623ade346d962bcd4e46b11da047c9049b90613086908790879060240161411b565b604080517fffffffffffffffffffffffffffffffffffffffffffffffffffffffffffffffe08184030181529181526020820180517bffffffffffffffffffffffffffffffffffffffffffffffffffffffff167fffffffff0000000000000000000000000000000000000000000000000000000090941693909317909252905161310f91906140de565b6000604051808303816000865af19150503d806000811461314c576040519150601f19603f3d011682016040523d82523d6000602084013e613151565b606091505b509150915081801561317b57508051158061317b57508080602001905181019061317b9190613d07565b6131975760405162461bcd60e51b8152600401610910906144a2565b5050505050565b6000612bb5827f0000000000000000000000000000000000000000000000000000000000000000612ddc565b60006015541180156131de57506000600f54115b156116fb5760095460008167ffffffffffffffff811180156131ff57600080fd5b50604051908082528060200260200182016040528015613229578160200160208202803683370190505b5090506000805b838110156132f35760006009828154811061324757fe5b906000526020600020906007020190506000613278600f546109808460020154600e54612d8390919063ffffffff16565b9050600061329783600501548460040154612d2990919063ffffffff16565b9050808211156132e5578082038685815181106132b057fe5b6020026020010181815250506132e28685815181106132cb57fe5b602002602001015186612d2990919063ffffffff16565b94505b505050806001019050613230565b506000816133915784801561330a57506000601554115b1561338c5760005b8481101561338a5760006009828154811061332957fe5b90600052602060002090600702019050600061335a600f546109808460020154601554612d8390919063ffffffff16565b90506133668482612d29565b60058301549094506133789082612d29565b60059092019190915550600101613312565b505b6135a5565b60155482116134fe5784156134685760155482900360005b858110156134615760008582815181106133bf57fe5b60200260200101511115613459576000600982815481106133dc57fe5b90600052602060002090600702019050600061343061340e600f54610980856002015488612d8390919063ffffffff16565b88858151811061341a57fe5b6020026020010151612d2990919063ffffffff16565b905061343c8582612d29565b600583015490955061344e9082612d29565b826005018190555050505b6001016133a9565b505061338c565b60005b8481101561338a57600084828151811061348157fe5b602002602001015111156134f65760006009828154811061349e57fe5b9060005260206000209060070201905060008583815181106134bc57fe5b602002602001015190506134d98185612d2990919063ffffffff16565b60058301549094506134eb9082612d29565b826005018190555050505b60010161346b565b60005b848110156135a357600084828151811061351757fe5b6020026020010151111561359b5760006009828154811061353457fe5b9060005260206000209060070201905060006135728561098060155489878151811061355c57fe5b6020026020010151612d8390919063ffffffff16565b905061357e8482612d29565b60058301549094506135909082612d29565b826005018190555050505b600101613501565b505b6015546135b29082612c2f565b6015555050505050565b73ffffffffffffffffffffffffffffffffffffffff83166000908152600560205260409020546135ec9082612c2f565b73ffffffffffffffffffffffffffffffffffffffff80851660009081526005602052604080822093909355908416815220546136289082612d29565b73ffffffffffffffffffffffffffffffffffffffff80841660008181526005602090815260409182902094909455805185815290519193928716927fddf252ad1be2c89b69c2b068fc378daa952ba7f163c4a11628f55a4df523b3ef92918290030190a3505050565b600080600f54116136b45760405162461bcd60e51b8152600401610910906147ac565b6136bd8461319e565b905060008315613702576136e261271061098060105485612d8390919063ffffffff16565b90506136ee8282612c2f565b6012549092506136fe9082612d29565b6012555b8215613719576015546137159083612d29565b6015555b6004548290156137415761373e600e5461098060045486612d8390919063ffffffff16565b90505b600e5461374e9084612d29565b600e5561375b8782613978565b7fb4c03061fb5b7fed76389d5af8f2e0ddb09f8c70d1333abbb62582835e10accb878285856040516137909493929190614231565b60405180910390a160165460ff1615806137c757506137c2612710610980601854600e54612d8390919063ffffffff16565b601554115b156137e1576016546137e19062010000900460ff166131ca565b5050949350505050565b6000818484111561387a5760405162461bcd60e51b81526004018080602001828103825283818151815260200191508051906020019080838360005b8381101561383f578181015183820152602001613827565b50505050905090810190601f16801561386c5780820380516001836020036101000a031916815260200191505b509250505060405180910390fd5b505050900390565b600080600454116138a55760405162461bcd60e51b81526004016109109061466f565b612bb5600454610980600e5485612d8390919063ffffffff16565b73ffffffffffffffffffffffffffffffffffffffff82166000908152600560205260409020546138f09082612c2f565b73ffffffffffffffffffffffffffffffffffffffff83166000908152600560205260409020556004546139239082612c2f565b60045560408051828152905160009173ffffffffffffffffffffffffffffffffffffffff8516917fddf252ad1be2c89b69c2b068fc378daa952ba7f163c4a11628f55a4df523b3ef9181900360200190a35050565b6004546139859082612d29565b60045573ffffffffffffffffffffffffffffffffffffffff82166000908152600560205260409020546139b89082612d29565b73ffffffffffffffffffffffffffffffffffffffff831660008181526005602090815260408083209490945583518581529351929391927fddf252ad1be2c89b69c2b068fc378daa952ba7f163c4a11628f55a4df523b3ef9281900390910190a35050565b604051806040016040528060008152602001600081525090565b604051806101000160405280600015158152602001600061ffff1681526020016000815260200160008152602001600081526020016000815260200160008152602001600081525090565b6040518060c001604052806000815260200160008152602001600081526020016000815260200160008152602001600081525090565b803573ffffffffffffffffffffffffffffffffffffffff81168114612bb857600080fd5b803561ffff81168114612bb857600080fd5b600060208284031215613aff578081fd5b610c7f82613ab8565b60008060408385031215613b1a578081fd5b613b2383613ab8565b9150613b3160208401613ab8565b90509250929050565b600080600060608486031215613b4e578081fd5b613b5784613ab8565b9250613b6560208501613ab8565b9150604084013590509250925092565b600080600080600080600060e0888a031215613b8f578283fd5b613b9888613ab8565b9650613ba660208901613ab8565b95506040880135945060608801359350608088013560ff81168114613bc9578384fd5b9699959850939692959460a0840135945060c09093013592915050565b60008060408385031215613bf8578182fd5b613c0183613ab8565b946020939093013593505050565b600080600060608486031215613c23578283fd5b613c2c84613ab8565b925060208401359150613c4160408501613ab8565b90509250925092565b60008060008060008060a08789031215613c62578182fd5b613c6b87613ab8565b955060208701359450613c8060408801613adc565b935060608701359250608087013567ffffffffffffffff80821115613ca3578384fd5b818901915089601f830112613cb6578384fd5b813581811115613cc4578485fd5b8a6020828501011115613cd5578485fd5b6020830194508093505050509295509295509295565b600060208284031215613cfc578081fd5b8135610c7f81614b06565b600060208284031215613d18578081fd5b8151610c7f81614b06565b600080600080600060a08688031215613d3a578283fd5b8535613d4581614b06565b945060208601359350604086013592506060860135613d6381614b06565b91506080860135613d7381614b06565b809150509295509295909350565b600060c08284031215613d92578081fd5b60405160c0810181811067ffffffffffffffff82111715613daf57fe5b8060405250825181526020830151602082015260408301516040820152606083015160608201526080830151608082015260a083015160a08201528091505092915050565b60008060408385031215613e06578182fd5b613c0183613adc565b600080600080848603610120811215613e26578283fd5b613e2f86613adc565b945060208601359350613e4460408701613ab8565b925060c07fffffffffffffffffffffffffffffffffffffffffffffffffffffffffffffffa082011215613e75578182fd5b5060405160c0810181811067ffffffffffffffff82111715613e9357fe5b8060405250606086013581526080860135602082015260a0860135604082015260c0860135606082015260e0860135608082015261010086013560a08201528091505092959194509250565b60008060008060808587031215613ef4578182fd5b613efd85613adc565b935060208501359250613f1260408601613ab8565b9396929550929360600135925050565b600080600080600060a08688031215613f39578283fd5b613f4286613adc565b945060208601359350613f5760408701613ab8565b94979396509394606081013594506080013592915050565b60008060008060008060c08789031215613f87578384fd5b613f9087613adc565b955060208701359450613fa560408801613ab8565b9350606087013592506080870135915060a0870135613fc381614b06565b809150509295509295509295565b60008060008385036080811215613fe6578182fd5b613fef85613adc565b93506020850135925060407fffffffffffffffffffffffffffffffffffffffffffffffffffffffffffffffc082011215614027578182fd5b506040516040810181811067ffffffffffffffff8211171561404557fe5b604090815285013581526060909401356020850152509093909250565b600080600060608486031215614076578081fd5b61407f84613adc565b925060208401359150613c4160408501613adc565b6000806000606084860312156140a8578081fd5b6140b184613adc565b95602085013595506040909401359392505050565b6000602082840312156140d7578081fd5b5035919050565b600082516140f0818460208701614ad6565b9190910192915050565b73ffffffffffffffffffffffffffffffffffffffff91909116815260200190565b73ffffffffffffffffffffffffffffffffffffffff929092168252602082015260400190565b73ffffffffffffffffffffffffffffffffffffffff9390931683526020830191909152604082015260600190565b73ffffffffffffffffffffffffffffffffffffffff948516815260208101939093526040830191909152909116606082015260800190565b600073ffffffffffffffffffffffffffffffffffffffff8916825287602083015286604083015261ffff8616606083015284608083015260c060a08301528260c0830152828460e084013781830160e090810191909152601f9092017fffffffffffffffffffffffffffffffffffffffffffffffffffffffffffffffe01601019695505050505050565b73ffffffffffffffffffffffffffffffffffffffff94909416845260208401929092526040830152606082015260800190565b901515815260200190565b971515885261ffff96909616602088015260408701949094526060860192909252608085015260a084015260c083015260e08201526101000190565b941515855260208501939093526040840191909152151560608301521515608082015260a00190565b90815260200190565b60006020825282518060208401526142fc816040850160208701614ad6565b601f017fffffffffffffffffffffffffffffffffffffffffffffffffffffffffffffffe0169190910160400192915050565b60208082526030908201527f53746172676174653a2063616e7420636f6e76657274205344746f4c5020776860408201527f656e20746f74616c4c6971203d3d203000000000000000000000000000000000606082015260800190565b60208082526028908201527f53746172676174653a206c6f63616c20636861696e5061746820646f6573206e60408201527f6f74206578697374000000000000000000000000000000000000000000000000606082015260800190565b60208082526029908201527f53746172676174653a2063616e74206275726e207768656e20746f74616c537560408201527f70706c79203d3d20300000000000000000000000000000000000000000000000606082015260800190565b60208082526025908201527f53746172676174653a20636861696e5061746820697320616c7265616479206160408201527f6374697665000000000000000000000000000000000000000000000000000000606082015260800190565b60208082526019908201527f53746172676174653a205452414e534645525f4641494c454400000000000000604082015260600190565b6020808252601d908201527f53746172676174653a206e6f20636861696e7061746873206578697374000000604082015260600190565b60208082526017908201527f4272696467653a2063756d2066656573203e2031303025000000000000000000604082015260600190565b6020808252601b908201527f53746172676174653a2077726f6e672044656c746120706172616d0000000000604082015260600190565b60208082526021908201527f53746172676174653a20666565206c6962726172792063616e7420626520307860408201527f3000000000000000000000000000000000000000000000000000000000000000606082015260800190565b6020808252601d908201527f53746172676174653a205f66726f6d2063616e6e6f7420626520307830000000604082015260600190565b60208082526028908201527f53746172676174653a20636f756e74657220636861696e50617468206973206e60408201527f6f74207265616479000000000000000000000000000000000000000000000000606082015260800190565b60208082526033908201527f53746172676174653a2063616e7420636f6e76657274204c50746f534420776860408201527f656e20746f74616c537570706c79203d3d203000000000000000000000000000606082015260800190565b60208082526044908201527f53746172676174653a2063616e7420637265617465436861696e50617468206f60408201527f66206578697374696e6720647374436861696e496420616e64205f647374506f60608201527f6f6c496400000000000000000000000000000000000000000000000000000000608082015260a00190565b6020808252602e908201527f53746172676174653a206f6e6c792074686520726f757465722063616e20636160408201527f6c6c2074686973206d6574686f64000000000000000000000000000000000000606082015260800190565b6020808252601d908201527f53746172676174653a204e6f20436861696e5061746873206578697374000000604082015260600190565b6020808252601d908201527f53746172676174653a206473742062616c616e636520746f6f206c6f77000000604082015260600190565b6020808252601b908201527f53746172676174653a20736c69707061676520746f6f20686967680000000000604082015260600190565b60208082526026908201527f53746172676174653a206e6f7420656e6f756768204c5020746f6b656e73207460408201527f6f206275726e0000000000000000000000000000000000000000000000000000606082015260800190565b6020808252601b908201527f53746172676174653a20737761702066756e632073746f707065640000000000604082015260600190565b60006101008201905082511515825261ffff602084015116602083015260408301516040830152606083015160608301526080830151608083015260a083015160a083015260c083015160c083015260e083015160e083015292915050565b815181526020918201519181019190915260400190565b600060c082019050825182526020830151602083015260408301516040830152606083015160608301526080830151608083015260a083015160a083015292915050565b61ffff959095168552602085019390935273ffffffffffffffffffffffffffffffffffffffff9190911660408401526060830152608082015260a00190565b61ffff989098168852602088019690965273ffffffffffffffffffffffffffffffffffffffff9490941660408701526060860192909252608085015260a084015260c083015260e08201526101000190565b61ffff93841681526020810192909252909116604082015260600190565b61ffff9390931683526020830191909152604082015260600190565b61ffff94909416845260208401929092526040830152606082015260800190565b918252602082015260400190565b948552602085019390935261ffff91909116604084015273ffffffffffffffffffffffffffffffffffffffff166060830152608082015260a00190565b60005b83811015614af1578181015183820152602001614ad9565b83811115614b00576000848401525b50505050565b80151581146116fb57600080fdfe536166654d6174683a206d756c7469706c69636174696f6e206f766572666c6f7745524332303a2064656372656173656420616c6c6f77616e63652062656c6f77207a65726fa26469706673582212207e60c0f2e29671b68e1981176ee890ea338b893ffbe95f010176db4361242ca164736f6c63430007060033",
  "linkReferences": {},
  "deployedLinkReferences": {}
}