{
  "_format": "hh-sol-artifact-1",
  "contractName": "ComposableProxyOFT",
  "sourceName": "contracts/token/oft/composable/ComposableProxyOFT.sol",
  "abi": [
    {
      "inputs": [
        {
          "internalType": "address",
          "name": "_lzEndpoint",
          "type": "address"
        },
        {
          "internalType": "address",
          "name": "_proxyToken",
          "type": "address"
        }
      ],
      "stateMutability": "nonpayable",
      "type": "constructor"
    },
    {
      "anonymous": false,
      "inputs": [
        {
          "indexed": true,
          "internalType": "uint16",
          "name": "_srcChainId",
          "type": "uint16"
        },
        {
          "indexed": false,
          "internalType": "bytes",
          "name": "_srcAddress",
          "type": "bytes"
        },
        {
          "indexed": false,
          "internalType": "uint64",
          "name": "_nonce",
          "type": "uint64"
        },
        {
          "indexed": false,
          "internalType": "bytes",
          "name": "_from",
          "type": "bytes"
        },
        {
          "indexed": true,
          "internalType": "address",
          "name": "_to",
          "type": "address"
        },
        {
          "indexed": false,
          "internalType": "uint256",
          "name": "_amount",
          "type": "uint256"
        },
        {
          "indexed": false,
          "internalType": "bytes",
          "name": "_payload",
          "type": "bytes"
        },
        {
          "indexed": false,
          "internalType": "bytes",
          "name": "_reason",
          "type": "bytes"
        }
      ],
      "name": "CallOFTReceivedFailure",
      "type": "event"
    },
    {
      "anonymous": false,
      "inputs": [
        {
          "indexed": true,
          "internalType": "uint16",
          "name": "_srcChainId",
          "type": "uint16"
        },
        {
          "indexed": false,
          "internalType": "bytes",
          "name": "_srcAddress",
          "type": "bytes"
        },
        {
          "indexed": false,
          "internalType": "uint64",
          "name": "_nonce",
          "type": "uint64"
        },
        {
          "indexed": false,
          "internalType": "bytes32",
          "name": "_hash",
          "type": "bytes32"
        }
      ],
      "name": "CallOFTReceivedSuccess",
      "type": "event"
    },
    {
      "anonymous": false,
      "inputs": [
        {
          "indexed": false,
          "internalType": "uint16",
          "name": "_srcChainId",
          "type": "uint16"
        },
        {
          "indexed": false,
          "internalType": "bytes",
          "name": "_srcAddress",
          "type": "bytes"
        },
        {
          "indexed": false,
          "internalType": "uint64",
          "name": "_nonce",
          "type": "uint64"
        },
        {
          "indexed": false,
          "internalType": "bytes",
          "name": "_payload",
          "type": "bytes"
        },
        {
          "indexed": false,
          "internalType": "bytes",
          "name": "_reason",
          "type": "bytes"
        }
      ],
      "name": "MessageFailed",
      "type": "event"
    },
    {
      "anonymous": false,
      "inputs": [
        {
          "indexed": false,
          "internalType": "address",
          "name": "_address",
          "type": "address"
        }
      ],
      "name": "NonContractAddress",
      "type": "event"
    },
    {
      "anonymous": false,
      "inputs": [
        {
          "indexed": true,
          "internalType": "address",
          "name": "previousOwner",
          "type": "address"
        },
        {
          "indexed": true,
          "internalType": "address",
          "name": "newOwner",
          "type": "address"
        }
      ],
      "name": "OwnershipTransferred",
      "type": "event"
    },
    {
      "anonymous": false,
      "inputs": [
        {
          "indexed": true,
          "internalType": "uint16",
          "name": "_srcChainId",
          "type": "uint16"
        },
        {
          "indexed": true,
          "internalType": "address",
          "name": "_to",
          "type": "address"
        },
        {
          "indexed": false,
          "internalType": "uint256",
          "name": "_amount",
          "type": "uint256"
        }
      ],
      "name": "ReceiveFromChain",
      "type": "event"
    },
    {
      "anonymous": false,
      "inputs": [
        {
          "indexed": false,
          "internalType": "uint16",
          "name": "_srcChainId",
          "type": "uint16"
        },
        {
          "indexed": false,
          "internalType": "bytes",
          "name": "_srcAddress",
          "type": "bytes"
        },
        {
          "indexed": false,
          "internalType": "uint64",
          "name": "_nonce",
          "type": "uint64"
        },
        {
          "indexed": false,
          "internalType": "bytes32",
          "name": "_payloadHash",
          "type": "bytes32"
        }
      ],
      "name": "RetryMessageSuccess",
      "type": "event"
    },
    {
      "anonymous": false,
      "inputs": [
        {
          "indexed": false,
          "internalType": "bytes32",
          "name": "_messageHash",
          "type": "bytes32"
        }
      ],
      "name": "RetryOFTReceivedSuccess",
      "type": "event"
    },
    {
      "anonymous": false,
      "inputs": [
        {
          "indexed": true,
          "internalType": "uint16",
          "name": "_dstChainId",
          "type": "uint16"
        },
        {
          "indexed": true,
          "internalType": "address",
          "name": "_from",
          "type": "address"
        },
        {
          "indexed": false,
          "internalType": "bytes",
          "name": "_toAddress",
          "type": "bytes"
        },
        {
          "indexed": false,
          "internalType": "uint256",
          "name": "_amount",
          "type": "uint256"
        }
      ],
      "name": "SendToChain",
      "type": "event"
    },
    {
      "anonymous": false,
      "inputs": [
        {
          "indexed": false,
          "internalType": "uint16",
          "name": "_dstChainId",
          "type": "uint16"
        },
        {
          "indexed": false,
          "internalType": "uint16",
          "name": "_type",
          "type": "uint16"
        },
        {
          "indexed": false,
          "internalType": "uint256",
          "name": "_minDstGas",
          "type": "uint256"
        }
      ],
      "name": "SetMinDstGas",
      "type": "event"
    },
    {
      "anonymous": false,
      "inputs": [
        {
          "indexed": false,
          "internalType": "address",
          "name": "precrime",
          "type": "address"
        }
      ],
      "name": "SetPrecrime",
      "type": "event"
    },
    {
      "anonymous": false,
      "inputs": [
        {
          "indexed": false,
          "internalType": "uint16",
          "name": "_remoteChainId",
          "type": "uint16"
        },
        {
          "indexed": false,
          "internalType": "bytes",
          "name": "_path",
          "type": "bytes"
        }
      ],
      "name": "SetTrustedRemote",
      "type": "event"
    },
    {
      "anonymous": false,
      "inputs": [
        {
          "indexed": false,
          "internalType": "uint16",
          "name": "_remoteChainId",
          "type": "uint16"
        },
        {
          "indexed": false,
          "internalType": "bytes",
          "name": "_remoteAddress",
          "type": "bytes"
        }
      ],
      "name": "SetTrustedRemoteAddress",
      "type": "event"
    },
    {
      "anonymous": false,
      "inputs": [
        {
          "indexed": false,
          "internalType": "bool",
          "name": "_useCustomAdapterParams",
          "type": "bool"
        }
      ],
      "name": "SetUseCustomAdapterParams",
      "type": "event"
    },
    {
      "inputs": [],
      "name": "DEFAULT_PAYLOAD_SIZE_LIMIT",
      "outputs": [
        {
          "internalType": "uint256",
          "name": "",
          "type": "uint256"
        }
      ],
      "stateMutability": "view",
      "type": "function"
    },
    {
      "inputs": [],
      "name": "NO_EXTRA_GAS",
      "outputs": [
        {
          "internalType": "uint256",
          "name": "",
          "type": "uint256"
        }
      ],
      "stateMutability": "view",
      "type": "function"
    },
    {
      "inputs": [],
      "name": "PT_SEND",
      "outputs": [
        {
          "internalType": "uint16",
          "name": "",
          "type": "uint16"
        }
      ],
      "stateMutability": "view",
      "type": "function"
    },
    {
      "inputs": [],
      "name": "PT_SEND_AND_CALL",
      "outputs": [
        {
          "internalType": "uint16",
          "name": "",
          "type": "uint16"
        }
      ],
      "stateMutability": "view",
      "type": "function"
    },
    {
      "inputs": [],
      "name": "circulatingSupply",
      "outputs": [
        {
          "internalType": "uint256",
          "name": "",
          "type": "uint256"
        }
      ],
      "stateMutability": "view",
      "type": "function"
    },
    {
      "inputs": [
        {
          "internalType": "uint16",
          "name": "_dstChainId",
          "type": "uint16"
        },
        {
          "internalType": "bytes",
          "name": "_toAddress",
          "type": "bytes"
        },
        {
          "internalType": "uint256",
          "name": "_amount",
          "type": "uint256"
        },
        {
          "internalType": "bytes",
          "name": "_payload",
          "type": "bytes"
        },
        {
          "internalType": "uint64",
          "name": "_dstGasForCall",
          "type": "uint64"
        },
        {
          "internalType": "bool",
          "name": "_useZro",
          "type": "bool"
        },
        {
          "internalType": "bytes",
          "name": "_adapterParams",
          "type": "bytes"
        }
      ],
      "name": "estimateSendAndCallFee",
      "outputs": [
        {
          "internalType": "uint256",
          "name": "nativeFee",
          "type": "uint256"
        },
        {
          "internalType": "uint256",
          "name": "zroFee",
          "type": "uint256"
        }
      ],
      "stateMutability": "view",
      "type": "function"
    },
    {
      "inputs": [
        {
          "internalType": "uint16",
          "name": "_dstChainId",
          "type": "uint16"
        },
        {
          "internalType": "bytes",
          "name": "_toAddress",
          "type": "bytes"
        },
        {
          "internalType": "uint256",
          "name": "_amount",
          "type": "uint256"
        },
        {
          "internalType": "bool",
          "name": "_useZro",
          "type": "bool"
        },
        {
          "internalType": "bytes",
          "name": "_adapterParams",
          "type": "bytes"
        }
      ],
      "name": "estimateSendFee",
      "outputs": [
        {
          "internalType": "uint256",
          "name": "nativeFee",
          "type": "uint256"
        },
        {
          "internalType": "uint256",
          "name": "zroFee",
          "type": "uint256"
        }
      ],
      "stateMutability": "view",
      "type": "function"
    },
    {
      "inputs": [
        {
          "internalType": "uint16",
          "name": "",
          "type": "uint16"
        },
        {
          "internalType": "bytes",
          "name": "",
          "type": "bytes"
        },
        {
          "internalType": "uint64",
          "name": "",
          "type": "uint64"
        }
      ],
      "name": "failedMessages",
      "outputs": [
        {
          "internalType": "bytes32",
          "name": "",
          "type": "bytes32"
        }
      ],
      "stateMutability": "view",
      "type": "function"
    },
    {
      "inputs": [
        {
          "internalType": "uint16",
          "name": "",
          "type": "uint16"
        },
        {
          "internalType": "bytes",
          "name": "",
          "type": "bytes"
        },
        {
          "internalType": "uint64",
          "name": "",
          "type": "uint64"
        }
      ],
      "name": "failedOFTReceivedMessages",
      "outputs": [
        {
          "internalType": "bytes32",
          "name": "",
          "type": "bytes32"
        }
      ],
      "stateMutability": "view",
      "type": "function"
    },
    {
      "inputs": [
        {
          "internalType": "uint16",
          "name": "_srcChainId",
          "type": "uint16"
        },
        {
          "internalType": "bytes",
          "name": "_srcAddress",
          "type": "bytes"
        }
      ],
      "name": "forceResumeReceive",
      "outputs": [],
      "stateMutability": "nonpayable",
      "type": "function"
    },
    {
      "inputs": [
        {
          "internalType": "uint16",
          "name": "_version",
          "type": "uint16"
        },
        {
          "internalType": "uint16",
          "name": "_chainId",
          "type": "uint16"
        },
        {
          "internalType": "address",
          "name": "",
          "type": "address"
        },
        {
          "internalType": "uint256",
          "name": "_configType",
          "type": "uint256"
        }
      ],
      "name": "getConfig",
      "outputs": [
        {
          "internalType": "bytes",
          "name": "",
          "type": "bytes"
        }
      ],
      "stateMutability": "view",
      "type": "function"
    },
    {
      "inputs": [
        {
          "internalType": "uint16",
          "name": "_remoteChainId",
          "type": "uint16"
        }
      ],
      "name": "getTrustedRemoteAddress",
      "outputs": [
        {
          "internalType": "bytes",
          "name": "",
          "type": "bytes"
        }
      ],
      "stateMutability": "view",
      "type": "function"
    },
    {
      "inputs": [
        {
          "internalType": "uint16",
          "name": "_srcChainId",
          "type": "uint16"
        },
        {
          "internalType": "bytes",
          "name": "_srcAddress",
          "type": "bytes"
        }
      ],
      "name": "isTrustedRemote",
      "outputs": [
        {
          "internalType": "bool",
          "name": "",
          "type": "bool"
        }
      ],
      "stateMutability": "view",
      "type": "function"
    },
    {
      "inputs": [],
      "name": "lzEndpoint",
      "outputs": [
        {
          "internalType": "contract ILayerZeroEndpoint",
          "name": "",
          "type": "address"
        }
      ],
      "stateMutability": "view",
      "type": "function"
    },
    {
      "inputs": [
        {
          "internalType": "uint16",
          "name": "_srcChainId",
          "type": "uint16"
        },
        {
          "internalType": "bytes",
          "name": "_srcAddress",
          "type": "bytes"
        },
        {
          "internalType": "uint64",
          "name": "_nonce",
          "type": "uint64"
        },
        {
          "internalType": "bytes",
          "name": "_payload",
          "type": "bytes"
        }
      ],
      "name": "lzReceive",
      "outputs": [],
      "stateMutability": "nonpayable",
      "type": "function"
    },
    {
      "inputs": [
        {
          "internalType": "uint16",
          "name": "",
          "type": "uint16"
        },
        {
          "internalType": "uint16",
          "name": "",
          "type": "uint16"
        }
      ],
      "name": "minDstGasLookup",
      "outputs": [
        {
          "internalType": "uint256",
          "name": "",
          "type": "uint256"
        }
      ],
      "stateMutability": "view",
      "type": "function"
    },
    {
      "inputs": [
        {
          "internalType": "uint16",
          "name": "_srcChainId",
          "type": "uint16"
        },
        {
          "internalType": "bytes",
          "name": "_srcAddress",
          "type": "bytes"
        },
        {
          "internalType": "uint64",
          "name": "_nonce",
          "type": "uint64"
        },
        {
          "internalType": "bytes",
          "name": "_payload",
          "type": "bytes"
        }
      ],
      "name": "nonblockingLzReceive",
      "outputs": [],
      "stateMutability": "nonpayable",
      "type": "function"
    },
    {
      "inputs": [],
      "name": "owner",
      "outputs": [
        {
          "internalType": "address",
          "name": "",
          "type": "address"
        }
      ],
      "stateMutability": "view",
      "type": "function"
    },
    {
      "inputs": [
        {
          "internalType": "uint16",
          "name": "",
          "type": "uint16"
        }
      ],
      "name": "payloadSizeLimitLookup",
      "outputs": [
        {
          "internalType": "uint256",
          "name": "",
          "type": "uint256"
        }
      ],
      "stateMutability": "view",
      "type": "function"
    },
    {
      "inputs": [],
      "name": "precrime",
      "outputs": [
        {
          "internalType": "address",
          "name": "",
          "type": "address"
        }
      ],
      "stateMutability": "view",
      "type": "function"
    },
    {
      "inputs": [],
      "name": "renounceOwnership",
      "outputs": [],
      "stateMutability": "nonpayable",
      "type": "function"
    },
    {
      "inputs": [
        {
          "internalType": "uint16",
          "name": "_srcChainId",
          "type": "uint16"
        },
        {
          "internalType": "bytes",
          "name": "_srcAddress",
          "type": "bytes"
        },
        {
          "internalType": "uint64",
          "name": "_nonce",
          "type": "uint64"
        },
        {
          "internalType": "bytes",
          "name": "_payload",
          "type": "bytes"
        }
      ],
      "name": "retryMessage",
      "outputs": [],
      "stateMutability": "payable",
      "type": "function"
    },
    {
      "inputs": [
        {
          "internalType": "uint16",
          "name": "_srcChainId",
          "type": "uint16"
        },
        {
          "internalType": "bytes",
          "name": "_srcAddress",
          "type": "bytes"
        },
        {
          "internalType": "uint64",
          "name": "_nonce",
          "type": "uint64"
        },
        {
          "internalType": "bytes",
          "name": "_from",
          "type": "bytes"
        },
        {
          "internalType": "address",
          "name": "_to",
          "type": "address"
        },
        {
          "internalType": "uint256",
          "name": "_amount",
          "type": "uint256"
        },
        {
          "internalType": "bytes",
          "name": "_payload",
          "type": "bytes"
        }
      ],
      "name": "retryOFTReceived",
      "outputs": [],
      "stateMutability": "nonpayable",
      "type": "function"
    },
    {
      "inputs": [
        {
          "internalType": "address",
          "name": "_from",
          "type": "address"
        },
        {
          "internalType": "uint16",
          "name": "_dstChainId",
          "type": "uint16"
        },
        {
          "internalType": "bytes",
          "name": "_toAddress",
          "type": "bytes"
        },
        {
          "internalType": "uint256",
          "name": "_amount",
          "type": "uint256"
        },
        {
          "internalType": "bytes",
          "name": "_payload",
          "type": "bytes"
        },
        {
          "internalType": "uint64",
          "name": "_dstGasForCall",
          "type": "uint64"
        },
        {
          "internalType": "address payable",
          "name": "_refundAddress",
          "type": "address"
        },
        {
          "internalType": "address",
          "name": "_zroPaymentAddress",
          "type": "address"
        },
        {
          "internalType": "bytes",
          "name": "_adapterParams",
          "type": "bytes"
        }
      ],
      "name": "sendAndCall",
      "outputs": [],
      "stateMutability": "payable",
      "type": "function"
    },
    {
      "inputs": [
        {
          "internalType": "address",
          "name": "_from",
          "type": "address"
        },
        {
          "internalType": "uint16",
          "name": "_dstChainId",
          "type": "uint16"
        },
        {
          "internalType": "bytes",
          "name": "_toAddress",
          "type": "bytes"
        },
        {
          "internalType": "uint256",
          "name": "_amount",
          "type": "uint256"
        },
        {
          "internalType": "address payable",
          "name": "_refundAddress",
          "type": "address"
        },
        {
          "internalType": "address",
          "name": "_zroPaymentAddress",
          "type": "address"
        },
        {
          "internalType": "bytes",
          "name": "_adapterParams",
          "type": "bytes"
        }
      ],
      "name": "sendFrom",
      "outputs": [],
      "stateMutability": "payable",
      "type": "function"
    },
    {
      "inputs": [
        {
          "internalType": "uint16",
          "name": "_version",
          "type": "uint16"
        },
        {
          "internalType": "uint16",
          "name": "_chainId",
          "type": "uint16"
        },
        {
          "internalType": "uint256",
          "name": "_configType",
          "type": "uint256"
        },
        {
          "internalType": "bytes",
          "name": "_config",
          "type": "bytes"
        }
      ],
      "name": "setConfig",
      "outputs": [],
      "stateMutability": "nonpayable",
      "type": "function"
    },
    {
      "inputs": [
        {
          "internalType": "uint16",
          "name": "_dstChainId",
          "type": "uint16"
        },
        {
          "internalType": "uint16",
          "name": "_packetType",
          "type": "uint16"
        },
        {
          "internalType": "uint256",
          "name": "_minGas",
          "type": "uint256"
        }
      ],
      "name": "setMinDstGas",
      "outputs": [],
      "stateMutability": "nonpayable",
      "type": "function"
    },
    {
      "inputs": [
        {
          "internalType": "uint16",
          "name": "_dstChainId",
          "type": "uint16"
        },
        {
          "internalType": "uint256",
          "name": "_size",
          "type": "uint256"
        }
      ],
      "name": "setPayloadSizeLimit",
      "outputs": [],
      "stateMutability": "nonpayable",
      "type": "function"
    },
    {
      "inputs": [
        {
          "internalType": "address",
          "name": "_precrime",
          "type": "address"
        }
      ],
      "name": "setPrecrime",
      "outputs": [],
      "stateMutability": "nonpayable",
      "type": "function"
    },
    {
      "inputs": [
        {
          "internalType": "uint16",
          "name": "_version",
          "type": "uint16"
        }
      ],
      "name": "setReceiveVersion",
      "outputs": [],
      "stateMutability": "nonpayable",
      "type": "function"
    },
    {
      "inputs": [
        {
          "internalType": "uint16",
          "name": "_version",
          "type": "uint16"
        }
      ],
      "name": "setSendVersion",
      "outputs": [],
      "stateMutability": "nonpayable",
      "type": "function"
    },
    {
      "inputs": [
        {
          "internalType": "uint16",
          "name": "_remoteChainId",
          "type": "uint16"
        },
        {
          "internalType": "bytes",
          "name": "_path",
          "type": "bytes"
        }
      ],
      "name": "setTrustedRemote",
      "outputs": [],
      "stateMutability": "nonpayable",
      "type": "function"
    },
    {
      "inputs": [
        {
          "internalType": "uint16",
          "name": "_remoteChainId",
          "type": "uint16"
        },
        {
          "internalType": "bytes",
          "name": "_remoteAddress",
          "type": "bytes"
        }
      ],
      "name": "setTrustedRemoteAddress",
      "outputs": [],
      "stateMutability": "nonpayable",
      "type": "function"
    },
    {
      "inputs": [
        {
          "internalType": "bool",
          "name": "_useCustomAdapterParams",
          "type": "bool"
        }
      ],
      "name": "setUseCustomAdapterParams",
      "outputs": [],
      "stateMutability": "nonpayable",
      "type": "function"
    },
    {
      "inputs": [
        {
          "internalType": "bytes4",
          "name": "interfaceId",
          "type": "bytes4"
        }
      ],
      "name": "supportsInterface",
      "outputs": [
        {
          "internalType": "bool",
          "name": "",
          "type": "bool"
        }
      ],
      "stateMutability": "view",
      "type": "function"
    },
    {
      "inputs": [],
      "name": "token",
      "outputs": [
        {
          "internalType": "address",
          "name": "",
          "type": "address"
        }
      ],
      "stateMutability": "view",
      "type": "function"
    },
    {
      "inputs": [
        {
          "internalType": "address",
          "name": "newOwner",
          "type": "address"
        }
      ],
      "name": "transferOwnership",
      "outputs": [],
      "stateMutability": "nonpayable",
      "type": "function"
    },
    {
      "inputs": [
        {
          "internalType": "uint16",
          "name": "",
          "type": "uint16"
        }
      ],
      "name": "trustedRemoteLookup",
      "outputs": [
        {
          "internalType": "bytes",
          "name": "",
          "type": "bytes"
        }
      ],
      "stateMutability": "view",
      "type": "function"
    },
    {
      "inputs": [],
      "name": "useCustomAdapterParams",
      "outputs": [
        {
          "internalType": "bool",
          "name": "",
          "type": "bool"
        }
      ],
      "stateMutability": "view",
      "type": "function"
    }
  ],
  "bytecode": "0x60c06040523480156200001157600080fd5b506040516200421e3803806200421e8339810160408190526200003491620000d0565b81808080620000433362000063565b6001600160a01b039081166080529390931660a052506200010892505050565b600080546001600160a01b038381166001600160a01b0319831681178455604051919092169283917f8be0079c531659141344cd1fd0a4f28419497f9722a3daafe3b4186f6b6457e09190a35050565b80516001600160a01b0381168114620000cb57600080fd5b919050565b60008060408385031215620000e457600080fd5b620000ef83620000b3565b9150620000ff60208401620000b3565b90509250929050565b60805160a051614079620001a56000396000818161079801528181610f6401528181610fd90152818161220d0152818161228f015281816122ce015281816128cc01528181612946015261298e0152600081816105dc015281816107bf01528181610a3901528181610ae101528181610b5b01528181610cd6015281816112c60152818161138d01528181611ae2015261247f01526140796000f3fe60806040526004361061022f5760003560e01c80639358928b1161012e578063d1deba1f116100ab578063eb8d72b71161006f578063eb8d72b71461070f578063ed629c5c1461072f578063f2fde38b14610749578063f5ecbdbc14610769578063fc0c546a1461078957600080fd5b8063d1deba1f14610694578063df2a5b3b146106a7578063e6a20ae6146106c7578063e7f0c59f146106dc578063eab45d9c146106ef57600080fd5b8063baf3292d116100f2578063baf3292d146105fe578063c44618341461061e578063c8598dca14610634578063cbed8b9c14610654578063cfd6528e1461067457600080fd5b80639358928b14610555578063950c8a741461056a5780639f38369a1461058a578063a6c3d165146105aa578063b353aaa7146105ca57600080fd5b806344770515116101bc57806366ad5c8a1161018057806366ad5c8a14610489578063715018a6146104a95780637533d788146104be5780638cfd8f5c146104eb5780638da5cb5b1461052357600080fd5b8063447705151461039b5780634c42899a146103b057806351905636146103d85780635b8c41e6146103eb5780636096cc581461043a57600080fd5b806310ddb1371161020357806310ddb137146102cb5780632a205e3d146102eb5780633d8b38f6146103205780633f1f4fa41461034057806342d65a8d1461037b57600080fd5b80621d35671461023457806301ffc9a71461025657806307e0db171461028b5780630df37483146102ab575b600080fd5b34801561024057600080fd5b5061025461024f366004612fe6565b6107bc565b005b34801561026257600080fd5b5061027661027136600461307c565b6109ed565b60405190151581526020015b60405180910390f35b34801561029757600080fd5b506102546102a63660046130a6565b610a18565b3480156102b757600080fd5b506102546102c63660046130c3565b610aa1565b3480156102d757600080fd5b506102546102e63660046130a6565b610ac0565b3480156102f757600080fd5b5061030b610306366004613108565b610b18565b60408051928352602083019190915201610282565b34801561032c57600080fd5b5061027661033b3660046131a8565b610beb565b34801561034c57600080fd5b5061036d61035b3660046130a6565b60036020526000908152604090205481565b604051908152602001610282565b34801561038757600080fd5b506102546103963660046131a8565b610cb7565b3480156103a757600080fd5b5061036d600081565b3480156103bc57600080fd5b506103c5600081565b60405161ffff9091168152602001610282565b6102546103e636600461321c565b610d3d565b3480156103f757600080fd5b5061036d610406366004613352565b6005602090815260009384526040808520845180860184018051928152908401958401959095209452929052825290205481565b34801561044657600080fd5b5061036d610455366004613352565b6007602090815260009384526040808520845180860184018051928152908401958401959095209452929052825290205481565b34801561049557600080fd5b506102546104a4366004612fe6565b610dc2565b3480156104b557600080fd5b50610254610e9e565b3480156104ca57600080fd5b506104de6104d93660046130a6565b610eb2565b6040516102829190613450565b3480156104f757600080fd5b5061036d610506366004613463565b600260209081526000928352604080842090915290825290205481565b34801561052f57600080fd5b506000546001600160a01b03165b6040516001600160a01b039091168152602001610282565b34801561056157600080fd5b5061036d610f4c565b34801561057657600080fd5b5060045461053d906001600160a01b031681565b34801561059657600080fd5b506104de6105a53660046130a6565b61105f565b3480156105b657600080fd5b506102546105c53660046131a8565b611176565b3480156105d657600080fd5b5061053d7f000000000000000000000000000000000000000000000000000000000000000081565b34801561060a57600080fd5b5061025461061936600461349c565b611209565b34801561062a57600080fd5b5061036d61271081565b34801561064057600080fd5b5061030b61064f3660046134b9565b611266565b34801561066057600080fd5b5061025461066f366004613597565b61136e565b34801561068057600080fd5b5061025461068f366004613609565b6113f8565b6102546106a2366004612fe6565b61163e565b3480156106b357600080fd5b506102546106c23660046136c3565b611854565b3480156106d357600080fd5b506103c5600181565b6102546106ea366004613704565b611906565b3480156106fb57600080fd5b5061025461070a36600461380d565b611995565b34801561071b57600080fd5b5061025461072a3660046131a8565b6119de565b34801561073b57600080fd5b506006546102769060ff1681565b34801561075557600080fd5b5061025461076436600461349c565b611a38565b34801561077557600080fd5b506104de61078436600461382a565b611ab1565b34801561079557600080fd5b507f000000000000000000000000000000000000000000000000000000000000000061053d565b337f00000000000000000000000000000000000000000000000000000000000000006001600160a01b0316146108395760405162461bcd60e51b815260206004820152601e60248201527f4c7a4170703a20696e76616c696420656e64706f696e742063616c6c6572000060448201526064015b60405180910390fd5b61ffff8616600090815260016020526040812080546108579061387b565b80601f01602080910402602001604051908101604052809291908181526020018280546108839061387b565b80156108d05780601f106108a5576101008083540402835291602001916108d0565b820191906000526020600020905b8154815290600101906020018083116108b357829003601f168201915b505050505090508051868690501480156108eb575060008151115b801561091357508051602082012060405161090990889088906138b6565b6040518091039020145b61096e5760405162461bcd60e51b815260206004820152602660248201527f4c7a4170703a20696e76616c696420736f757263652073656e64696e6720636f6044820152651b9d1c9858dd60d21b6064820152608401610830565b6109e48787878080601f01602080910402602001604051908101604052809392919081815260200183838082843760009201919091525050604080516020601f8a018190048102820181019092528881528a935091508890889081908401838280828437600092019190915250611b6492505050565b50505050505050565b60006001600160e01b0319821663e07f1adb60e01b1480610a125750610a1282611bdd565b92915050565b610a20611c12565b6040516307e0db1760e01b815261ffff821660048201527f00000000000000000000000000000000000000000000000000000000000000006001600160a01b0316906307e0db17906024015b600060405180830381600087803b158015610a8657600080fd5b505af1158015610a9a573d6000803e3d6000fd5b5050505050565b610aa9611c12565b61ffff909116600090815260036020526040902055565b610ac8611c12565b6040516310ddb13760e01b815261ffff821660048201527f00000000000000000000000000000000000000000000000000000000000000006001600160a01b0316906310ddb13790602401610a6c565b600080600080898989604051602001610b3494939291906138ef565b60408051601f198184030181529082905263040a7bb160e41b825291506001600160a01b037f000000000000000000000000000000000000000000000000000000000000000016906340a7bb1090610b9a908d90309086908c908c908c9060040161391e565b6040805180830381865afa158015610bb6573d6000803e3d6000fd5b505050506040513d601f19601f82011682018060405250810190610bda9190613974565b925092505097509795505050505050565b61ffff831660009081526001602052604081208054829190610c0c9061387b565b80601f0160208091040260200160405190810160405280929190818152602001828054610c389061387b565b8015610c855780601f10610c5a57610100808354040283529160200191610c85565b820191906000526020600020905b815481529060010190602001808311610c6857829003601f168201915b505050505090508383604051610c9c9291906138b6565b60405180910390208180519060200120149150509392505050565b610cbf611c12565b6040516342d65a8d60e01b81526001600160a01b037f000000000000000000000000000000000000000000000000000000000000000016906342d65a8d90610d0f90869086908690600401613998565b600060405180830381600087803b158015610d2957600080fd5b505af11580156109e4573d6000803e3d6000fd5b610db7898989898080601f01602080910402602001604051908101604052809392919081815260200183838082843760009201919091525050604080516020601f8a018190048102820181019092528881528c93508b92508a918a908a9081908401838280828437600092019190915250611c6c92505050565b505050505050505050565b333014610e205760405162461bcd60e51b815260206004820152602660248201527f4e6f6e626c6f636b696e674c7a4170703a2063616c6c6572206d7573742062656044820152650204c7a4170760d41b6064820152608401610830565b610e968686868080601f01602080910402602001604051908101604052809392919081815260200183838082843760009201919091525050604080516020601f890181900481028201810190925287815289935091508790879081908401838280828437600092019190915250611d1392505050565b505050505050565b610ea6611c12565b610eb06000611da2565b565b60016020526000908152604090208054610ecb9061387b565b80601f0160208091040260200160405190810160405280929190818152602001828054610ef79061387b565b8015610f445780601f10610f1957610100808354040283529160200191610f44565b820191906000526020600020905b815481529060010190602001808311610f2757829003601f168201915b505050505081565b6040516370a0823160e01b81523060048201526000907f00000000000000000000000000000000000000000000000000000000000000006001600160a01b0316906370a0823190602401602060405180830381865afa158015610fb3573d6000803e3d6000fd5b505050506040513d601f19601f82011682018060405250810190610fd791906139b6565b7f00000000000000000000000000000000000000000000000000000000000000006001600160a01b03166318160ddd6040518163ffffffff1660e01b8152600401602060405180830381865afa158015611035573d6000803e3d6000fd5b505050506040513d601f19601f8201168201806040525081019061105991906139b6565b03905090565b61ffff81166000908152600160205260408120805460609291906110829061387b565b80601f01602080910402602001604051908101604052809291908181526020018280546110ae9061387b565b80156110fb5780601f106110d0576101008083540402835291602001916110fb565b820191906000526020600020905b8154815290600101906020018083116110de57829003601f168201915b505050505090508051600014156111545760405162461bcd60e51b815260206004820152601d60248201527f4c7a4170703a206e6f20747275737465642070617468207265636f72640000006044820152606401610830565b61116f60006014835161116791906139e5565b839190611df2565b9392505050565b61117e611c12565b818130604051602001611193939291906139fc565b60408051601f1981840301815291815261ffff851660009081526001602090815291902082516111c893919290910190612e51565b507f8c0400cfe2d1199b1a725c78960bcc2a344d869b80590d0f2bd005db15a572ce8383836040516111fc93929190613998565b60405180910390a1505050565b611211611c12565b600480546001600160a01b0319166001600160a01b0383169081179091556040519081527f5db758e995a17ec1ad84bdef7e8c3293a0bd6179bcce400dff5d4c3d87db726b906020015b60405180910390a150565b6040516001600160601b03193360601b1660208201526000908190819060019060340160408051601f19818403018152908290526112b392918f908f908f908f908f908f90602001613a1d565b60405160208183030381529060405290507f00000000000000000000000000000000000000000000000000000000000000006001600160a01b03166340a7bb108e30848a8a8a6040518763ffffffff1660e01b815260040161131a9695949392919061391e565b6040805180830381865afa158015611336573d6000803e3d6000fd5b505050506040513d601f19601f8201168201806040525081019061135a9190613974565b92509250509a509a98505050505050505050565b611376611c12565b6040516332fb62e760e21b81526001600160a01b037f0000000000000000000000000000000000000000000000000000000000000000169063cbed8b9c906113ca9088908890889088908890600401613a87565b600060405180830381600087803b1580156113e457600080fd5b505af1158015610db7573d6000803e3d6000fd5b61ffff8a16600090815260076020526040808220905161141b908c908c906138b6565b90815260408051602092819003830190206001600160401b038b16600090815292529020549050806114a55760405162461bcd60e51b815260206004820152602d60248201527f436f6d706f7361626c654f4654436f72653a206e6f206661696c6564206d657360448201526c7361676520746f20726574727960981b6064820152608401610830565b60008787878787876040516020016114c296959493929190613ab5565b6040516020818303038152906040528051906020012090508181146115415760405162461bcd60e51b815260206004820152602f60248201527f436f6d706f7361626c654f4654436f72653a206661696c6564206d657373616760448201526e0ca40d0c2e6d040dad2e6dac2e8c6d608b1b6064820152608401610830565b61ffff8c16600090815260076020526040908190209051611565908d908d906138b6565b9081526040805191829003602090810183206001600160401b038d16600090815291529081205563147a7d7160e01b81526001600160a01b0387169063147a7d71906115c5908f908f908f908f908f908f908e908e908e90600401613af2565b600060405180830381600087803b1580156115df57600080fd5b505af11580156115f3573d6000803e3d6000fd5b505050507f41ea88d75e53240e2c5ace3a3d7263efe6c8f4fe42c0e3ef269f71daef1001c88160405161162891815260200190565b60405180910390a1505050505050505050505050565b61ffff8616600090815260056020526040808220905161166190889088906138b6565b90815260408051602092819003830190206001600160401b038716600090815292529020549050806116e15760405162461bcd60e51b815260206004820152602360248201527f4e6f6e626c6f636b696e674c7a4170703a206e6f2073746f726564206d65737360448201526261676560e81b6064820152608401610830565b8083836040516116f29291906138b6565b6040518091039020146117515760405162461bcd60e51b815260206004820152602160248201527f4e6f6e626c6f636b696e674c7a4170703a20696e76616c6964207061796c6f616044820152601960fa1b6064820152608401610830565b61ffff8716600090815260056020526040808220905161177490899089906138b6565b90815260408051602092819003830181206001600160401b038916600090815290845282902093909355601f8801829004820283018201905286825261180c918991899089908190840183828082843760009201919091525050604080516020601f8a018190048102820181019092528881528a935091508890889081908401838280828437600092019190915250611d1392505050565b7fc264d91f3adc5588250e1551f547752ca0cfa8f6b530d243b9f9f4cab10ea8e58787878785604051611843959493929190613b5d565b60405180910390a150505050505050565b61185c611c12565b600081116118a45760405162461bcd60e51b81526020600482015260156024820152744c7a4170703a20696e76616c6964206d696e47617360581b6044820152606401610830565b61ffff83811660008181526002602090815260408083209487168084529482529182902085905581519283528201929092529081018290527f9d5c7c0b934da8fefa9c7760c98383778a12dfbfc0c3b3106518f43fb9508ac0906060016111fc565b6119878c8c8c8c8080601f01602080910402602001604051908101604052809392919081815260200183838082843760009201919091525050604080516020601f8a018190048102820181019092528881528f93508e92508d918d918d918d91908d908d9081908401838280828437600092019190915250611eff92505050565b505050505050505050505050565b61199d611c12565b6006805460ff19168215159081179091556040519081527f1584ad594a70cbe1e6515592e1272a987d922b097ead875069cebe8b40c004a49060200161125b565b6119e6611c12565b61ffff83166000908152600160205260409020611a04908383612ed5565b507ffa41487ad5d6728f0b19276fa1eddc16558578f5109fc39d2dc33c3230470dab8383836040516111fc93929190613998565b611a40611c12565b6001600160a01b038116611aa55760405162461bcd60e51b815260206004820152602660248201527f4f776e61626c653a206e6577206f776e657220697320746865207a65726f206160448201526564647265737360d01b6064820152608401610830565b611aae81611da2565b50565b604051633d7b2f6f60e21b815261ffff808616600483015284166024820152306044820152606481018290526060907f00000000000000000000000000000000000000000000000000000000000000006001600160a01b03169063f5ecbdbc90608401600060405180830381865afa158015611b31573d6000803e3d6000fd5b505050506040513d6000823e601f3d908101601f19168201604052611b599190810190613bdd565b90505b949350505050565b600080611bc75a60966366ad5c8a60e01b89898989604051602401611b8c9493929190613c11565b60408051601f198184030181529190526020810180516001600160e01b03166001600160e01b03199093169290921790915230929190611fdf565b9150915081610e9657610e968686868685612069565b60006001600160e01b03198216630a72677560e11b1480610a1257506301ffc9a760e01b6001600160e01b0319831614610a12565b6000546001600160a01b03163314610eb05760405162461bcd60e51b815260206004820181905260248201527f4f776e61626c653a2063616c6c6572206973206e6f7420746865206f776e65726044820152606401610830565b611c7a866000836000612106565b6000611c8888888888612186565b90506000808783604051602001611ca193929190613c4f565b6040516020818303038152906040529050611cc0888287878734612355565b886001600160a01b03168861ffff167f39a4c66499bcf4b56d79f0dde8ed7a9d4925a0df55825206b2b8531e202be0d08985604051611d00929190613c7c565b60405180910390a3505050505050505050565b602081015161ffff8116611d3257611d2d858585856124ed565b610a9a565b61ffff811660011415611d4b57611d2d85858585612577565b60405162461bcd60e51b815260206004820152602660248201527f436f6d706f7361626c654f4654436f72653a20756e6b6e6f776e207061636b6560448201526574207479706560d01b6064820152608401610830565b600080546001600160a01b038381166001600160a01b0319831681178455604051919092169283917f8be0079c531659141344cd1fd0a4f28419497f9722a3daafe3b4186f6b6457e09190a35050565b606081611e0081601f613c9e565b1015611e3f5760405162461bcd60e51b815260206004820152600e60248201526d736c6963655f6f766572666c6f7760901b6044820152606401610830565b611e498284613c9e565b84511015611e8d5760405162461bcd60e51b8152602060048201526011602482015270736c6963655f6f75744f66426f756e647360781b6044820152606401610830565b606082158015611eac5760405191506000825260208201604052611ef6565b6040519150601f8416801560200281840101858101878315602002848b0101015b81831015611ee5578051835260209283019201611ecd565b5050858452601f01601f1916604052505b50949350505050565b611f1589600183876001600160401b0316612106565b6000611f238b8b8b8b612186565b604080513360601b6001600160601b03191660208201528151601481830301815260348201909252919250600091611f6a916001918d9086908d908d908d90605401613cb6565b6040516020818303038152906040529050611f898b8287878734612355565b8b6001600160a01b03168b61ffff167f39a4c66499bcf4b56d79f0dde8ed7a9d4925a0df55825206b2b8531e202be0d08c85604051611fc9929190613c7c565b60405180910390a3505050505050505050505050565b6000606060008060008661ffff166001600160401b03811115612004576120046132e5565b6040519080825280601f01601f19166020018201604052801561202e576020820181803683370190505b50905060008087516020890160008d8df191503d925086831115612050578692505b828152826000602083013e909890975095505050505050565b8180519060200120600560008761ffff1661ffff1681526020019081526020016000208560405161209a9190613d1e565b9081526040805191829003602090810183206001600160401b0388166000908152915220919091557fe183f33de2837795525b4792ca4cd60535bd77c53b7e7030060bfcf5734d6b0c906120f79087908790879087908790613d3a565b60405180910390a15050505050565b60065460ff16156121225761211d84848484612686565b612180565b8151156121805760405162461bcd60e51b815260206004820152602660248201527f4f4654436f72653a205f61646170746572506172616d73206d7573742062652060448201526532b6b83a3c9760d11b6064820152608401610830565b50505050565b60006001600160a01b03851633146121f55760405162461bcd60e51b815260206004820152602c60248201527f436f6d706f7361626c6550726f78794f46543a206f776e6572206973206e6f7460448201526b1039b2b7321031b0b63632b960a11b6064820152608401610830565b6040516370a0823160e01b81523060048201526000907f00000000000000000000000000000000000000000000000000000000000000006001600160a01b0316906370a0823190602401602060405180830381865afa15801561225c573d6000803e3d6000fd5b505050506040513d601f19601f8201168201806040525081019061228091906139b6565b90506122b76001600160a01b037f000000000000000000000000000000000000000000000000000000000000000016873086612765565b6040516370a0823160e01b815230600482015281907f00000000000000000000000000000000000000000000000000000000000000006001600160a01b0316906370a0823190602401602060405180830381865afa15801561231d573d6000803e3d6000fd5b505050506040513d601f19601f8201168201806040525081019061234191906139b6565b61234b91906139e5565b9695505050505050565b61ffff8616600090815260016020526040812080546123739061387b565b80601f016020809104026020016040519081016040528092919081815260200182805461239f9061387b565b80156123ec5780601f106123c1576101008083540402835291602001916123ec565b820191906000526020600020905b8154815290600101906020018083116123cf57829003601f168201915b5050505050905080516000141561245e5760405162461bcd60e51b815260206004820152603060248201527f4c7a4170703a2064657374696e6174696f6e20636861696e206973206e6f742060448201526f61207472757374656420736f7572636560801b6064820152608401610830565b6124698787516127d0565b60405162c5803160e81b81526001600160a01b037f0000000000000000000000000000000000000000000000000000000000000000169063c58031009084906124c0908b9086908c908c908c908c90600401613d98565b6000604051808303818588803b1580156124d957600080fd5b505af1158015611987573d6000803e3d6000fd5b600080828060200190518101906125049190613df2565b9093509150600090506125178382612843565b90506125248782846128a8565b9150806001600160a01b03168761ffff167fbf551ec93859b170f9b2141bd9298bf3f64322c6f7beb2543a0cb669834118bf8460405161256691815260200190565b60405180910390a350505050505050565b6000806000806000858060200190518101906125939190613e4b565b955095509550955095505060006125b460008661284390919063ffffffff16565b90506125c18a82866128a8565b9350806001600160a01b03168a61ffff167fbf551ec93859b170f9b2141bd9298bf3f64322c6f7beb2543a0cb669834118bf8660405161260391815260200190565b60405180910390a36001600160a01b0381163b612661576040516001600160a01b03821681527f9aedf5fdba8716db3b6705ca00150643309995d4f818a249ed6dde6677e7792d9060200160405180910390a1505050505050612180565b61267a8a8a8a89858989896001600160401b0316612a0e565b50505050505050505050565b600061269183612bd0565b61ffff8087166000908152600260209081526040808320938916835292905290812054919250906126c3908490613c9e565b9050600081116127155760405162461bcd60e51b815260206004820152601a60248201527f4c7a4170703a206d696e4761734c696d6974206e6f74207365740000000000006044820152606401610830565b80821015610e965760405162461bcd60e51b815260206004820152601b60248201527f4c7a4170703a20676173206c696d697420697320746f6f206c6f7700000000006044820152606401610830565b6040516001600160a01b03808516602483015283166044820152606481018290526121809085906323b872dd60e01b906084015b60408051601f198184030181529190526020810180516001600160e01b03166001600160e01b031990931692909217909152612c2c565b61ffff8216600090815260036020526040902054806127ee57506127105b8082111561283e5760405162461bcd60e51b815260206004820181905260248201527f4c7a4170703a207061796c6f61642073697a6520697320746f6f206c617267656044820152606401610830565b505050565b6000612850826014613c9e565b835110156128985760405162461bcd60e51b8152602060048201526015602482015274746f416464726573735f6f75744f66426f756e647360581b6044820152606401610830565b500160200151600160601b900490565b6040516370a0823160e01b81526001600160a01b03838116600483015260009182917f000000000000000000000000000000000000000000000000000000000000000016906370a0823190602401602060405180830381865afa158015612913573d6000803e3d6000fd5b505050506040513d601f19601f8201168201806040525081019061293791906139b6565b905061296d6001600160a01b037f0000000000000000000000000000000000000000000000000000000000000000168585612d01565b6040516370a0823160e01b81526001600160a01b03858116600483015282917f0000000000000000000000000000000000000000000000000000000000000000909116906370a0823190602401602060405180830381865afa1580156129d7573d6000803e3d6000fd5b505050506040513d601f19601f820116820180604052508101906129fb91906139b6565b612a0591906139e5565b95945050505050565b600080612a7e83609663147a7d7160e01b8d8d8d8d8c8c604051602401612a3a96959493929190613f03565b60408051601f198184030181529190526020810180516001600160e01b03166001600160e01b0319909316929092179091526001600160a01b038a16929190611fdf565b9150915081612b525786868686604051602001612a9e9493929190613f5b565b60408051601f19818403018152828252805160209182012061ffff8e16600090815260079092529190209091612ad5908c90613d1e565b9081526040805191829003602090810183206001600160401b038d166000908152915220919091556001600160a01b0387169061ffff8c16907f95c1ad3ef50dd05e668d7b80e9a723079395ac4867a4050552d5d9219e683d7490612b45908d908d908d908c908c908a90613f96565b60405180910390a361267a565b600087878787604051602001612b6b9493929190613f5b565b6040516020818303038152906040528051906020012090508a61ffff167fb8890edbfc1c74692f527444645f95489c3703cc2df42e4a366f5d06fa6cd8848b8b84604051612bbb93929190613ff8565b60405180910390a25050505050505050505050565b6000602282511015612c245760405162461bcd60e51b815260206004820152601c60248201527f4c7a4170703a20696e76616c69642061646170746572506172616d73000000006044820152606401610830565b506022015190565b6000612c81826040518060400160405280602081526020017f5361666545524332303a206c6f772d6c6576656c2063616c6c206661696c6564815250856001600160a01b0316612d319092919063ffffffff16565b9050805160001480612ca2575080806020019051810190612ca29190614026565b61283e5760405162461bcd60e51b815260206004820152602a60248201527f5361666545524332303a204552433230206f7065726174696f6e20646964206e6044820152691bdd081cdd58d8d9595960b21b6064820152608401610830565b6040516001600160a01b03831660248201526044810182905261283e90849063a9059cbb60e01b90606401612799565b6060611b5c848460008585600080866001600160a01b03168587604051612d589190613d1e565b60006040518083038185875af1925050503d8060008114612d95576040519150601f19603f3d011682016040523d82523d6000602084013e612d9a565b606091505b5091509150612dab87838387612db6565b979650505050505050565b60608315612e22578251612e1b576001600160a01b0385163b612e1b5760405162461bcd60e51b815260206004820152601d60248201527f416464726573733a2063616c6c20746f206e6f6e2d636f6e74726163740000006044820152606401610830565b5081611b5c565b611b5c8383815115612e375781518083602001fd5b8060405162461bcd60e51b81526004016108309190613450565b828054612e5d9061387b565b90600052602060002090601f016020900481019282612e7f5760008555612ec5565b82601f10612e9857805160ff1916838001178555612ec5565b82800160010185558215612ec5579182015b82811115612ec5578251825591602001919060010190612eaa565b50612ed1929150612f49565b5090565b828054612ee19061387b565b90600052602060002090601f016020900481019282612f035760008555612ec5565b82601f10612f1c5782800160ff19823516178555612ec5565b82800160010185558215612ec5579182015b82811115612ec5578235825591602001919060010190612f2e565b5b80821115612ed15760008155600101612f4a565b61ffff81168114611aae57600080fd5b8035612f7981612f5e565b919050565b60008083601f840112612f9057600080fd5b5081356001600160401b03811115612fa757600080fd5b602083019150836020828501011115612fbf57600080fd5b9250929050565b6001600160401b0381168114611aae57600080fd5b8035612f7981612fc6565b60008060008060008060808789031215612fff57600080fd5b863561300a81612f5e565b955060208701356001600160401b038082111561302657600080fd5b6130328a838b01612f7e565b90975095506040890135915061304782612fc6565b9093506060880135908082111561305d57600080fd5b5061306a89828a01612f7e565b979a9699509497509295939492505050565b60006020828403121561308e57600080fd5b81356001600160e01b03198116811461116f57600080fd5b6000602082840312156130b857600080fd5b813561116f81612f5e565b600080604083850312156130d657600080fd5b82356130e181612f5e565b946020939093013593505050565b8015158114611aae57600080fd5b8035612f79816130ef565b600080600080600080600060a0888a03121561312357600080fd5b873561312e81612f5e565b965060208801356001600160401b038082111561314a57600080fd5b6131568b838c01612f7e565b909850965060408a0135955060608a01359150613172826130ef565b9093506080890135908082111561318857600080fd5b506131958a828b01612f7e565b989b979a50959850939692959293505050565b6000806000604084860312156131bd57600080fd5b83356131c881612f5e565b925060208401356001600160401b038111156131e357600080fd5b6131ef86828701612f7e565b9497909650939450505050565b6001600160a01b0381168114611aae57600080fd5b8035612f79816131fc565b600080600080600080600080600060e08a8c03121561323a57600080fd5b8935613245816131fc565b985060208a013561325581612f5e565b975060408a01356001600160401b038082111561327157600080fd5b61327d8d838e01612f7e565b909950975060608c0135965060808c01359150613299826131fc565b90945060a08b0135906132ab826131fc565b90935060c08b013590808211156132c157600080fd5b506132ce8c828d01612f7e565b915080935050809150509295985092959850929598565b634e487b7160e01b600052604160045260246000fd5b604051601f8201601f191681016001600160401b0381118282101715613323576133236132e5565b604052919050565b60006001600160401b03821115613344576133446132e5565b50601f01601f191660200190565b60008060006060848603121561336757600080fd5b833561337281612f5e565b925060208401356001600160401b0381111561338d57600080fd5b8401601f8101861361339e57600080fd5b80356133b16133ac8261332b565b6132fb565b8181528760208385010111156133c657600080fd5b8160208401602083013760006020838301015280945050505060408401356133ed81612fc6565b809150509250925092565b60005b838110156134135781810151838201526020016133fb565b838111156121805750506000910152565b6000815180845261343c8160208601602086016133f8565b601f01601f19169290920160200192915050565b60208152600061116f6020830184613424565b6000806040838503121561347657600080fd5b823561348181612f5e565b9150602083013561349181612f5e565b809150509250929050565b6000602082840312156134ae57600080fd5b813561116f816131fc565b60008060008060008060008060008060e08b8d0312156134d857600080fd5b8a356134e381612f5e565b995060208b01356001600160401b03808211156134ff57600080fd5b61350b8e838f01612f7e565b909b50995060408d0135985060608d013591508082111561352b57600080fd5b6135378e838f01612f7e565b909850965060808d0135915061354c82612fc6565b81955061355b60a08e016130fd565b945060c08d013591508082111561357157600080fd5b5061357e8d828e01612f7e565b915080935050809150509295989b9194979a5092959850565b6000806000806000608086880312156135af57600080fd5b85356135ba81612f5e565b945060208601356135ca81612f5e565b93506040860135925060608601356001600160401b038111156135ec57600080fd5b6135f888828901612f7e565b969995985093965092949392505050565b60008060008060008060008060008060e08b8d03121561362857600080fd5b8a3561363381612f5e565b995060208b01356001600160401b038082111561364f57600080fd5b61365b8e838f01612f7e565b909b50995060408d0135915061367082612fc6565b90975060608c0135908082111561368657600080fd5b6136928e838f01612f7e565b90985096508691506136a660808e01613211565b955060a08d0135945060c08d013591508082111561357157600080fd5b6000806000606084860312156136d857600080fd5b83356136e381612f5e565b925060208401356136f381612f5e565b929592945050506040919091013590565b6000806000806000806000806000806000806101208d8f03121561372757600080fd5b6137308d613211565b9b5061373e60208e01612f6e565b9a506001600160401b0360408e0135111561375857600080fd5b6137688e60408f01358f01612f7e565b909a50985060608d013597506001600160401b0360808e0135111561378c57600080fd5b61379c8e60808f01358f01612f7e565b90975095506137ad60a08e01612fdb565b94506137bb60c08e01613211565b93506137c960e08e01613211565b92506001600160401b036101008e013511156137e457600080fd5b6137f58e6101008f01358f01612f7e565b81935080925050509295989b509295989b509295989b565b60006020828403121561381f57600080fd5b813561116f816130ef565b6000806000806080858703121561384057600080fd5b843561384b81612f5e565b9350602085013561385b81612f5e565b9250604085013561386b816131fc565b9396929550929360600135925050565b600181811c9082168061388f57607f821691505b602082108114156138b057634e487b7160e01b600052602260045260246000fd5b50919050565b8183823760009101908152919050565b81835281816020850137506000828201602090810191909152601f909101601f19169091010190565b61ffff8516815260606020820152600061390d6060830185876138c6565b905082604083015295945050505050565b61ffff871681526001600160a01b038616602082015260a06040820181905260009061394c90830187613424565b851515606084015282810360808401526139678185876138c6565b9998505050505050505050565b6000806040838503121561398757600080fd5b505080516020909101519092909150565b61ffff84168152604060208201526000611b596040830184866138c6565b6000602082840312156139c857600080fd5b5051919050565b634e487b7160e01b600052601160045260246000fd5b6000828210156139f7576139f76139cf565b500390565b8284823760609190911b6001600160601b0319169101908152601401919050565b61ffff8916815260c060208201526000613a3a60c083018a613424565b8281036040840152613a4d81898b6138c6565b90508660608401528281036080840152613a688186886138c6565b9150506001600160401b03831660a08301529998505050505050505050565b600061ffff808816835280871660208401525084604083015260806060830152612dab6080830184866138c6565b608081526000613ac960808301888a6138c6565b6001600160a01b03871660208401526040830186905282810360608401526139678185876138c6565b61ffff8a16815260c060208201526000613b1060c083018a8c6138c6565b6001600160401b03891660408401528281036060840152613b3281888a6138c6565b905085608084015282810360a0840152613b4d8185876138c6565b9c9b505050505050505050505050565b61ffff86168152608060208201526000613b7b6080830186886138c6565b6001600160401b0394909416604083015250606001529392505050565b600082601f830112613ba957600080fd5b8151613bb76133ac8261332b565b818152846020838601011115613bcc57600080fd5b611b5c8260208301602087016133f8565b600060208284031215613bef57600080fd5b81516001600160401b03811115613c0557600080fd5b611b5c84828501613b98565b61ffff85168152608060208201526000613c2e6080830186613424565b6001600160401b03851660408401528281036060840152612dab8185613424565b61ffff84168152606060208201526000613c6c6060830185613424565b9050826040830152949350505050565b604081526000613c8f6040830185613424565b90508260208301529392505050565b60008219821115613cb157613cb16139cf565b500190565b61ffff8816815260c060208201526000613cd360c0830189613424565b8281036040840152613ce58189613424565b90508660608401528281036080840152613d008186886138c6565b9150506001600160401b03831660a083015298975050505050505050565b60008251613d308184602087016133f8565b9190910192915050565b61ffff8616815260a060208201526000613d5760a0830187613424565b6001600160401b03861660408401528281036060840152613d788186613424565b90508281036080840152613d8c8185613424565b98975050505050505050565b61ffff8716815260c060208201526000613db560c0830188613424565b8281036040840152613dc78188613424565b6001600160a01b0387811660608601528616608085015283810360a085015290506139678185613424565b600080600060608486031215613e0757600080fd5b8351613e1281612f5e565b60208501519093506001600160401b03811115613e2e57600080fd5b613e3a86828701613b98565b925050604084015190509250925092565b60008060008060008060c08789031215613e6457600080fd5b8651613e6f81612f5e565b60208801519096506001600160401b0380821115613e8c57600080fd5b613e988a838b01613b98565b96506040890151915080821115613eae57600080fd5b613eba8a838b01613b98565b9550606089015194506080890151915080821115613ed757600080fd5b50613ee489828a01613b98565b92505060a0870151613ef581612fc6565b809150509295509295509295565b61ffff8716815260c060208201526000613f2060c0830188613424565b6001600160401b03871660408401528281036060840152613f418187613424565b905084608084015282810360a08401526139678185613424565b608081526000613f6e6080830187613424565b6001600160a01b0386166020840152604083018590528281036060840152612dab8185613424565b60c081526000613fa960c0830189613424565b6001600160401b03881660208401528281036040840152613fca8188613424565b90508560608401528281036080840152613fe48186613424565b905082810360a08401526139678185613424565b60608152600061400b6060830186613424565b6001600160401b039490941660208301525060400152919050565b60006020828403121561403857600080fd5b815161116f816130ef56fea26469706673582212206b6473fef4a6694b06fe8b513df946d6c93702e389c9d10336f512dd102c178c64736f6c634300080c0033",
  "linkReferences": {},
  "deployedLinkReferences": {}
}