{
  "_format": "hh-sol-artifact-1",
  "contractName": "MessagingChannel",
  "sourceName": "contracts/MessagingChannel.sol",
  "abi": [
    {
      "inputs": [
        {
          "internalType": "uint32",
          "name": "_eid",
          "type": "uint32"
        }
      ],
      "stateMutability": "nonpayable",
      "type": "constructor"
    },
    {
      "anonymous": false,
      "inputs": [
        {
          "indexed": false,
          "internalType": "uint32",
          "name": "srcEid",
          "type": "uint32"
        },
        {
          "indexed": false,
          "internalType": "bytes32",
          "name": "sender",
          "type": "bytes32"
        },
        {
          "indexed": false,
          "internalType": "address",
          "name": "receiver",
          "type": "address"
        },
        {
          "indexed": false,
          "internalType": "uint64",
          "name": "nonce",
          "type": "uint64"
        }
      ],
      "name": "InboundNonceSkipped",
      "type": "event"
    },
    {
      "inputs": [],
      "name": "eid",
      "outputs": [
        {
          "internalType": "uint32",
          "name": "",
          "type": "uint32"
        }
      ],
      "stateMutability": "view",
      "type": "function"
    },
    {
      "inputs": [
        {
          "internalType": "address",
          "name": "_receiver",
          "type": "address"
        },
        {
          "internalType": "uint32",
          "name": "_srcEid",
          "type": "uint32"
        },
        {
          "internalType": "bytes32",
          "name": "_sender",
          "type": "bytes32"
        },
        {
          "internalType": "uint64",
          "name": "_nonce",
          "type": "uint64"
        }
      ],
      "name": "hasPayloadHash",
      "outputs": [
        {
          "internalType": "bool",
          "name": "",
          "type": "bool"
        }
      ],
      "stateMutability": "view",
      "type": "function"
    },
    {
      "inputs": [
        {
          "internalType": "address",
          "name": "_receiver",
          "type": "address"
        },
        {
          "internalType": "uint32",
          "name": "_srcEid",
          "type": "uint32"
        },
        {
          "internalType": "bytes32",
          "name": "_sender",
          "type": "bytes32"
        }
      ],
      "name": "inboundNonce",
      "outputs": [
        {
          "internalType": "uint64",
          "name": "",
          "type": "uint64"
        }
      ],
      "stateMutability": "view",
      "type": "function"
    },
    {
      "inputs": [
        {
          "internalType": "address",
          "name": "receiver",
          "type": "address"
        },
        {
          "internalType": "uint32",
          "name": "srcEid",
          "type": "uint32"
        },
        {
          "internalType": "bytes32",
          "name": "sender",
          "type": "bytes32"
        },
        {
          "internalType": "uint64",
          "name": "inboundNonce",
          "type": "uint64"
        }
      ],
      "name": "inboundPayloadHash",
      "outputs": [
        {
          "internalType": "bytes32",
          "name": "payloadHash",
          "type": "bytes32"
        }
      ],
      "stateMutability": "view",
      "type": "function"
    },
    {
      "inputs": [
        {
          "internalType": "address",
          "name": "_sender",
          "type": "address"
        },
        {
          "internalType": "uint32",
          "name": "_dstEid",
          "type": "uint32"
        },
        {
          "internalType": "bytes32",
          "name": "_receiver",
          "type": "bytes32"
        }
      ],
      "name": "nextGuid",
      "outputs": [
        {
          "internalType": "bytes32",
          "name": "",
          "type": "bytes32"
        }
      ],
      "stateMutability": "view",
      "type": "function"
    },
    {
      "inputs": [
        {
          "internalType": "address",
          "name": "sender",
          "type": "address"
        },
        {
          "internalType": "uint32",
          "name": "dstEid",
          "type": "uint32"
        },
        {
          "internalType": "bytes32",
          "name": "receiver",
          "type": "bytes32"
        }
      ],
      "name": "outboundNonce",
      "outputs": [
        {
          "internalType": "uint64",
          "name": "nonce",
          "type": "uint64"
        }
      ],
      "stateMutability": "view",
      "type": "function"
    },
    {
      "inputs": [
        {
          "internalType": "uint32",
          "name": "_srcEid",
          "type": "uint32"
        },
        {
          "internalType": "bytes32",
          "name": "_sender",
          "type": "bytes32"
        },
        {
          "internalType": "uint64",
          "name": "_nonce",
          "type": "uint64"
        }
      ],
      "name": "skip",
      "outputs": [],
      "stateMutability": "nonpayable",
      "type": "function"
    }
  ],
  "bytecode": "0x60a060405234801561001057600080fd5b5060405161082a38038061082a83398101604081905261002f9161003d565b63ffffffff1660805261006a565b60006020828403121561004f57600080fd5b815163ffffffff8116811461006357600080fd5b9392505050565b60805161079f61008b60003960008181608701526104a2015261079f6000f3fe608060405234801561001057600080fd5b506004361061007d5760003560e01c8063aafe5e071161005b578063aafe5e071461012a578063c9fc7bcd1461014b578063e361b59c14610185578063eaeacd63146101fe57600080fd5b8063416ecebf146100825780639c6d7340146100c3578063a0dd43fc14610117575b600080fd5b6100a97f000000000000000000000000000000000000000000000000000000000000000081565b60405163ffffffff90911681526020015b60405180910390f35b6100fe6100d136600461057d565b600260209081526000938452604080852082529284528284209052825290205467ffffffffffffffff1681565b60405167ffffffffffffffff90911681526020016100ba565b6100fe61012536600461057d565b610213565b61013d61013836600461057d565b6102c3565b6040519081526020016100ba565b61013d6101593660046105d1565b600160209081526000948552604080862082529385528385208152918452828420909152825290205481565b6101ee6101933660046105d1565b73ffffffffffffffffffffffffffffffffffffffff8416600090815260016020908152604080832063ffffffff871684528252808320858452825280832067ffffffffffffffff851684529091529020541515949350505050565b60405190151581526020016100ba565b61021161020c36600461061e565b610330565b005b73ffffffffffffffffffffffffffffffffffffffff831660009081526020818152604080832063ffffffff86168452825280832084845290915281205467ffffffffffffffff165b73ffffffffffffffffffffffffffffffffffffffff8516600090815260016020818152604080842063ffffffff891685528252808420878552825280842092850167ffffffffffffffff168452919052902054156102bb5760010161025b565b949350505050565b73ffffffffffffffffffffffffffffffffffffffff8316600090815260026020908152604080832063ffffffff86168452825280832084845290915281205481906103199067ffffffffffffffff16600161065a565b90506103278186868661047b565b95945050505050565b61033b338484610213565b61034690600161065a565b67ffffffffffffffff168167ffffffffffffffff16146040518060400160405280600781526020017f4c5a313030303400000000000000000000000000000000000000000000000000815250906103d3576040517f08c379a00000000000000000000000000000000000000000000000000000000081526004016103ca91906106cd565b60405180910390fd5b503360008181526020818152604080832063ffffffff8816808552908352818420878552835292819020805467ffffffffffffffff87167fffffffffffffffffffffffffffffffffffffffffffffffff00000000000000009091168117909155815193845291830186905282810193909352606082015290517f28f40053783033ef755556a0c3315379141f51a33aed8334174ffbadd90bde489181900360800190a1505050565b604080517fffffffff000000000000000000000000000000000000000000000000000000007f000000000000000000000000000000000000000000000000000000000000000060e090811b8216602084015273ffffffffffffffffffffffffffffffffffffffff8716602484015285901b166044820152604880820184905282518083039091018152606882019092526000919061051f908790839060880161071e565b60405160208183030381529060405280519060200120915050949350505050565b803573ffffffffffffffffffffffffffffffffffffffff8116811461056457600080fd5b919050565b803563ffffffff8116811461056457600080fd5b60008060006060848603121561059257600080fd5b61059b84610540565b92506105a960208501610569565b9150604084013590509250925092565b803567ffffffffffffffff8116811461056457600080fd5b600080600080608085870312156105e757600080fd5b6105f085610540565b93506105fe60208601610569565b925060408501359150610613606086016105b9565b905092959194509250565b60008060006060848603121561063357600080fd5b61063c84610569565b925060208401359150610651604085016105b9565b90509250925092565b67ffffffffffffffff8181168382160190808211156106a2577f4e487b7100000000000000000000000000000000000000000000000000000000600052601160045260246000fd5b5092915050565b60005b838110156106c45781810151838201526020016106ac565b50506000910152565b60208152600082518060208401526106ec8160408501602087016106a9565b601f017fffffffffffffffffffffffffffffffffffffffffffffffffffffffffffffffe0169190910160400192915050565b7fffffffffffffffff0000000000000000000000000000000000000000000000008360c01b1681526000825161075b8160088501602087016106a9565b91909101600801939250505056fea2646970667358221220626a3c3dbb08430115c3874a137898bad99c54b4d16b0faeecf254d03fd2c81064736f6c63430008130033",
  "linkReferences": {},
  "deployedLinkReferences": {}
}