{
  "_format": "hh-sol-artifact-1",
  "contractName": "VerifierNetwork",
  "sourceName": "contracts/uln/VerifierNetwork.sol",
  "abi": [
    {
      "inputs": [
        {
          "internalType": "address[]",
          "name": "_messageLibs",
          "type": "address[]"
        },
        {
          "internalType": "address",
          "name": "_priceFeed",
          "type": "address"
        },
        {
          "internalType": "address[]",
          "name": "_signers",
          "type": "address[]"
        },
        {
          "internalType": "uint64",
          "name": "_quorum",
          "type": "uint64"
        },
        {
          "internalType": "address[]",
          "name": "_admins",
          "type": "address[]"
        }
      ],
      "stateMutability": "nonpayable",
      "type": "constructor"
    },
    {
      "anonymous": false,
      "inputs": [
        {
          "indexed": false,
          "internalType": "uint32",
          "name": "dstEid",
          "type": "uint32"
        },
        {
          "indexed": false,
          "internalType": "address",
          "name": "oapp",
          "type": "address"
        },
        {
          "indexed": false,
          "internalType": "uint64",
          "name": "confirmations",
          "type": "uint64"
        },
        {
          "indexed": false,
          "internalType": "uint256",
          "name": "totalFee",
          "type": "uint256"
        }
      ],
      "name": "AssignJob",
      "type": "event"
    },
    {
      "anonymous": false,
      "inputs": [
        {
          "indexed": false,
          "internalType": "uint256",
          "name": "_index",
          "type": "uint256"
        },
        {
          "indexed": false,
          "internalType": "bytes",
          "name": "_data",
          "type": "bytes"
        }
      ],
      "name": "ExecuteFailed",
      "type": "event"
    },
    {
      "anonymous": false,
      "inputs": [
        {
          "components": [
            {
              "internalType": "address",
              "name": "target",
              "type": "address"
            },
            {
              "internalType": "bytes",
              "name": "callData",
              "type": "bytes"
            },
            {
              "internalType": "uint256",
              "name": "expiration",
              "type": "uint256"
            },
            {
              "internalType": "bytes",
              "name": "signatures",
              "type": "bytes"
            }
          ],
          "indexed": false,
          "internalType": "struct ExecuteParam",
          "name": "param",
          "type": "tuple"
        },
        {
          "indexed": false,
          "internalType": "bytes32",
          "name": "_hash",
          "type": "bytes32"
        }
      ],
      "name": "HashAlreadyUsed",
      "type": "event"
    },
    {
      "anonymous": false,
      "inputs": [
        {
          "indexed": true,
          "internalType": "bytes32",
          "name": "role",
          "type": "bytes32"
        },
        {
          "indexed": true,
          "internalType": "bytes32",
          "name": "previousAdminRole",
          "type": "bytes32"
        },
        {
          "indexed": true,
          "internalType": "bytes32",
          "name": "newAdminRole",
          "type": "bytes32"
        }
      ],
      "name": "RoleAdminChanged",
      "type": "event"
    },
    {
      "anonymous": false,
      "inputs": [
        {
          "indexed": true,
          "internalType": "bytes32",
          "name": "role",
          "type": "bytes32"
        },
        {
          "indexed": true,
          "internalType": "address",
          "name": "account",
          "type": "address"
        },
        {
          "indexed": true,
          "internalType": "address",
          "name": "sender",
          "type": "address"
        }
      ],
      "name": "RoleGranted",
      "type": "event"
    },
    {
      "anonymous": false,
      "inputs": [
        {
          "indexed": true,
          "internalType": "bytes32",
          "name": "role",
          "type": "bytes32"
        },
        {
          "indexed": true,
          "internalType": "address",
          "name": "account",
          "type": "address"
        },
        {
          "indexed": true,
          "internalType": "address",
          "name": "sender",
          "type": "address"
        }
      ],
      "name": "RoleRevoked",
      "type": "event"
    },
    {
      "anonymous": false,
      "inputs": [
        {
          "indexed": false,
          "internalType": "uint16",
          "name": "multiplierBps",
          "type": "uint16"
        }
      ],
      "name": "SetDefaultMultiplierBps",
      "type": "event"
    },
    {
      "anonymous": false,
      "inputs": [
        {
          "components": [
            {
              "internalType": "uint32",
              "name": "dstEid",
              "type": "uint32"
            },
            {
              "internalType": "uint64",
              "name": "gas",
              "type": "uint64"
            },
            {
              "internalType": "uint16",
              "name": "multiplierBps",
              "type": "uint16"
            },
            {
              "internalType": "uint128",
              "name": "floorMarginUSD",
              "type": "uint128"
            }
          ],
          "indexed": false,
          "internalType": "struct IVerifier.DstConfigParam[]",
          "name": "params",
          "type": "tuple[]"
        }
      ],
      "name": "SetDstConfig",
      "type": "event"
    },
    {
      "anonymous": false,
      "inputs": [
        {
          "indexed": false,
          "internalType": "address",
          "name": "priceFeed",
          "type": "address"
        }
      ],
      "name": "SetPriceFeed",
      "type": "event"
    },
    {
      "anonymous": false,
      "inputs": [
        {
          "indexed": false,
          "internalType": "address",
          "name": "workerLib",
          "type": "address"
        }
      ],
      "name": "SetWorkerLib",
      "type": "event"
    },
    {
      "anonymous": false,
      "inputs": [
        {
          "indexed": false,
          "internalType": "uint64",
          "name": "_quorum",
          "type": "uint64"
        }
      ],
      "name": "UpdateQuorum",
      "type": "event"
    },
    {
      "anonymous": false,
      "inputs": [
        {
          "indexed": false,
          "internalType": "address",
          "name": "_signer",
          "type": "address"
        },
        {
          "indexed": false,
          "internalType": "bool",
          "name": "_active",
          "type": "bool"
        }
      ],
      "name": "UpdateSigner",
      "type": "event"
    },
    {
      "anonymous": false,
      "inputs": [
        {
          "indexed": false,
          "internalType": "address",
          "name": "lib",
          "type": "address"
        },
        {
          "indexed": false,
          "internalType": "address",
          "name": "to",
          "type": "address"
        },
        {
          "indexed": false,
          "internalType": "uint256",
          "name": "amount",
          "type": "uint256"
        }
      ],
      "name": "Withdraw",
      "type": "event"
    },
    {
      "inputs": [],
      "name": "DEFAULT_ADMIN_ROLE",
      "outputs": [
        {
          "internalType": "bytes32",
          "name": "",
          "type": "bytes32"
        }
      ],
      "stateMutability": "view",
      "type": "function"
    },
    {
      "inputs": [],
      "name": "allowlistSize",
      "outputs": [
        {
          "internalType": "uint64",
          "name": "",
          "type": "uint64"
        }
      ],
      "stateMutability": "view",
      "type": "function"
    },
    {
      "inputs": [
        {
          "internalType": "uint16",
          "name": "_dstEid",
          "type": "uint16"
        },
        {
          "internalType": "uint16",
          "name": "",
          "type": "uint16"
        },
        {
          "internalType": "uint64",
          "name": "_confirmations",
          "type": "uint64"
        },
        {
          "internalType": "address",
          "name": "_sender",
          "type": "address"
        }
      ],
      "name": "assignJob",
      "outputs": [
        {
          "internalType": "uint256",
          "name": "totalFee",
          "type": "uint256"
        }
      ],
      "stateMutability": "nonpayable",
      "type": "function"
    },
    {
      "inputs": [
        {
          "internalType": "uint32",
          "name": "_dstEid",
          "type": "uint32"
        },
        {
          "internalType": "uint64",
          "name": "_confirmations",
          "type": "uint64"
        },
        {
          "internalType": "address",
          "name": "_sender",
          "type": "address"
        },
        {
          "internalType": "bytes",
          "name": "_options",
          "type": "bytes"
        }
      ],
      "name": "assignJob",
      "outputs": [
        {
          "internalType": "uint256",
          "name": "totalFee",
          "type": "uint256"
        }
      ],
      "stateMutability": "payable",
      "type": "function"
    },
    {
      "inputs": [],
      "name": "defaultMultiplierBps",
      "outputs": [
        {
          "internalType": "uint16",
          "name": "",
          "type": "uint16"
        }
      ],
      "stateMutability": "view",
      "type": "function"
    },
    {
      "inputs": [
        {
          "internalType": "uint32",
          "name": "dstEid",
          "type": "uint32"
        }
      ],
      "name": "dstConfig",
      "outputs": [
        {
          "internalType": "uint64",
          "name": "gas",
          "type": "uint64"
        },
        {
          "internalType": "uint16",
          "name": "multiplierBps",
          "type": "uint16"
        },
        {
          "internalType": "uint128",
          "name": "floorMarginUSD",
          "type": "uint128"
        }
      ],
      "stateMutability": "view",
      "type": "function"
    },
    {
      "inputs": [
        {
          "components": [
            {
              "internalType": "address",
              "name": "target",
              "type": "address"
            },
            {
              "internalType": "bytes",
              "name": "callData",
              "type": "bytes"
            },
            {
              "internalType": "uint256",
              "name": "expiration",
              "type": "uint256"
            },
            {
              "internalType": "bytes",
              "name": "signatures",
              "type": "bytes"
            }
          ],
          "internalType": "struct ExecuteParam[]",
          "name": "_params",
          "type": "tuple[]"
        }
      ],
      "name": "execute",
      "outputs": [],
      "stateMutability": "nonpayable",
      "type": "function"
    },
    {
      "inputs": [
        {
          "internalType": "uint32",
          "name": "_dstEid",
          "type": "uint32"
        },
        {
          "internalType": "uint64",
          "name": "_confirmations",
          "type": "uint64"
        },
        {
          "internalType": "address",
          "name": "_sender",
          "type": "address"
        },
        {
          "internalType": "bytes",
          "name": "_options",
          "type": "bytes"
        }
      ],
      "name": "getFee",
      "outputs": [
        {
          "internalType": "uint256",
          "name": "fee",
          "type": "uint256"
        }
      ],
      "stateMutability": "view",
      "type": "function"
    },
    {
      "inputs": [
        {
          "internalType": "uint16",
          "name": "_dstEid",
          "type": "uint16"
        },
        {
          "internalType": "uint16",
          "name": "",
          "type": "uint16"
        },
        {
          "internalType": "uint64",
          "name": "_confirmations",
          "type": "uint64"
        },
        {
          "internalType": "address",
          "name": "_sender",
          "type": "address"
        }
      ],
      "name": "getFee",
      "outputs": [
        {
          "internalType": "uint256",
          "name": "fee",
          "type": "uint256"
        }
      ],
      "stateMutability": "view",
      "type": "function"
    },
    {
      "inputs": [
        {
          "internalType": "bytes32",
          "name": "role",
          "type": "bytes32"
        }
      ],
      "name": "getRoleAdmin",
      "outputs": [
        {
          "internalType": "bytes32",
          "name": "",
          "type": "bytes32"
        }
      ],
      "stateMutability": "view",
      "type": "function"
    },
    {
      "inputs": [
        {
          "internalType": "bytes32",
          "name": "_role",
          "type": "bytes32"
        },
        {
          "internalType": "address",
          "name": "_account",
          "type": "address"
        }
      ],
      "name": "grantRole",
      "outputs": [],
      "stateMutability": "nonpayable",
      "type": "function"
    },
    {
      "inputs": [
        {
          "internalType": "bytes32",
          "name": "role",
          "type": "bytes32"
        },
        {
          "internalType": "address",
          "name": "account",
          "type": "address"
        }
      ],
      "name": "hasRole",
      "outputs": [
        {
          "internalType": "bool",
          "name": "",
          "type": "bool"
        }
      ],
      "stateMutability": "view",
      "type": "function"
    },
    {
      "inputs": [
        {
          "internalType": "address",
          "name": "_target",
          "type": "address"
        },
        {
          "internalType": "bytes",
          "name": "_callData",
          "type": "bytes"
        },
        {
          "internalType": "uint256",
          "name": "_expiration",
          "type": "uint256"
        }
      ],
      "name": "hashCallData",
      "outputs": [
        {
          "internalType": "bytes32",
          "name": "",
          "type": "bytes32"
        }
      ],
      "stateMutability": "pure",
      "type": "function"
    },
    {
      "inputs": [],
      "name": "paused",
      "outputs": [
        {
          "internalType": "bool",
          "name": "",
          "type": "bool"
        }
      ],
      "stateMutability": "view",
      "type": "function"
    },
    {
      "inputs": [],
      "name": "priceFeed",
      "outputs": [
        {
          "internalType": "address",
          "name": "",
          "type": "address"
        }
      ],
      "stateMutability": "view",
      "type": "function"
    },
    {
      "inputs": [],
      "name": "quorum",
      "outputs": [
        {
          "internalType": "uint64",
          "name": "",
          "type": "uint64"
        }
      ],
      "stateMutability": "view",
      "type": "function"
    },
    {
      "inputs": [
        {
          "internalType": "bytes32",
          "name": "",
          "type": "bytes32"
        },
        {
          "internalType": "address",
          "name": "",
          "type": "address"
        }
      ],
      "name": "renounceRole",
      "outputs": [],
      "stateMutability": "pure",
      "type": "function"
    },
    {
      "inputs": [
        {
          "internalType": "bytes32",
          "name": "_role",
          "type": "bytes32"
        },
        {
          "internalType": "address",
          "name": "_account",
          "type": "address"
        }
      ],
      "name": "revokeRole",
      "outputs": [],
      "stateMutability": "nonpayable",
      "type": "function"
    },
    {
      "inputs": [
        {
          "internalType": "uint16",
          "name": "_multiplierBps",
          "type": "uint16"
        }
      ],
      "name": "setDefaultMultiplierBps",
      "outputs": [],
      "stateMutability": "nonpayable",
      "type": "function"
    },
    {
      "inputs": [
        {
          "components": [
            {
              "internalType": "uint32",
              "name": "dstEid",
              "type": "uint32"
            },
            {
              "internalType": "uint64",
              "name": "gas",
              "type": "uint64"
            },
            {
              "internalType": "uint16",
              "name": "multiplierBps",
              "type": "uint16"
            },
            {
              "internalType": "uint128",
              "name": "floorMarginUSD",
              "type": "uint128"
            }
          ],
          "internalType": "struct IVerifier.DstConfigParam[]",
          "name": "_params",
          "type": "tuple[]"
        }
      ],
      "name": "setDstConfig",
      "outputs": [],
      "stateMutability": "nonpayable",
      "type": "function"
    },
    {
      "inputs": [
        {
          "internalType": "bool",
          "name": "_paused",
          "type": "bool"
        }
      ],
      "name": "setPaused",
      "outputs": [],
      "stateMutability": "nonpayable",
      "type": "function"
    },
    {
      "inputs": [
        {
          "internalType": "address",
          "name": "_priceFeed",
          "type": "address"
        }
      ],
      "name": "setPriceFeed",
      "outputs": [],
      "stateMutability": "nonpayable",
      "type": "function"
    },
    {
      "inputs": [
        {
          "internalType": "uint64",
          "name": "_quorum",
          "type": "uint64"
        }
      ],
      "name": "setQuorum",
      "outputs": [],
      "stateMutability": "nonpayable",
      "type": "function"
    },
    {
      "inputs": [
        {
          "internalType": "address",
          "name": "_signer",
          "type": "address"
        },
        {
          "internalType": "bool",
          "name": "_active",
          "type": "bool"
        }
      ],
      "name": "setSigner",
      "outputs": [],
      "stateMutability": "nonpayable",
      "type": "function"
    },
    {
      "inputs": [
        {
          "internalType": "address",
          "name": "_workerFeeLib",
          "type": "address"
        }
      ],
      "name": "setWorkerFeeLib",
      "outputs": [],
      "stateMutability": "nonpayable",
      "type": "function"
    },
    {
      "inputs": [],
      "name": "signerSize",
      "outputs": [
        {
          "internalType": "uint64",
          "name": "",
          "type": "uint64"
        }
      ],
      "stateMutability": "view",
      "type": "function"
    },
    {
      "inputs": [
        {
          "internalType": "address",
          "name": "signer",
          "type": "address"
        }
      ],
      "name": "signers",
      "outputs": [
        {
          "internalType": "bool",
          "name": "active",
          "type": "bool"
        }
      ],
      "stateMutability": "view",
      "type": "function"
    },
    {
      "inputs": [
        {
          "internalType": "bytes4",
          "name": "interfaceId",
          "type": "bytes4"
        }
      ],
      "name": "supportsInterface",
      "outputs": [
        {
          "internalType": "bool",
          "name": "",
          "type": "bool"
        }
      ],
      "stateMutability": "view",
      "type": "function"
    },
    {
      "inputs": [
        {
          "internalType": "bytes32",
          "name": "executableHash",
          "type": "bytes32"
        }
      ],
      "name": "usedHashes",
      "outputs": [
        {
          "internalType": "bool",
          "name": "used",
          "type": "bool"
        }
      ],
      "stateMutability": "view",
      "type": "function"
    },
    {
      "inputs": [
        {
          "internalType": "contract IUltraLightNode",
          "name": "_uln",
          "type": "address"
        },
        {
          "internalType": "bytes",
          "name": "_packetHeader",
          "type": "bytes"
        },
        {
          "internalType": "bytes32",
          "name": "_payloadHash",
          "type": "bytes32"
        },
        {
          "internalType": "uint64",
          "name": "_confirmations",
          "type": "uint64"
        }
      ],
      "name": "verifyAndDeliver",
      "outputs": [],
      "stateMutability": "nonpayable",
      "type": "function"
    },
    {
      "inputs": [
        {
          "internalType": "bytes32",
          "name": "_hash",
          "type": "bytes32"
        },
        {
          "internalType": "bytes",
          "name": "_signatures",
          "type": "bytes"
        }
      ],
      "name": "verifySignatures",
      "outputs": [
        {
          "internalType": "bool",
          "name": "",
          "type": "bool"
        }
      ],
      "stateMutability": "view",
      "type": "function"
    },
    {
      "inputs": [
        {
          "internalType": "address",
          "name": "_lib",
          "type": "address"
        },
        {
          "internalType": "address",
          "name": "_to",
          "type": "address"
        },
        {
          "internalType": "uint256",
          "name": "_amount",
          "type": "uint256"
        }
      ],
      "name": "withdrawFee",
      "outputs": [],
      "stateMutability": "nonpayable",
      "type": "function"
    },
    {
      "inputs": [
        {
          "internalType": "address",
          "name": "_lib",
          "type": "address"
        },
        {
          "internalType": "address payable",
          "name": "_to",
          "type": "address"
        },
        {
          "internalType": "uint256",
          "name": "_amount",
          "type": "uint256"
        }
      ],
      "name": "withdrawFeeFromUlnV2",
      "outputs": [],
      "stateMutability": "nonpayable",
      "type": "function"
    },
    {
      "inputs": [],
      "name": "workerFeeLib",
      "outputs": [
        {
          "internalType": "address",
          "name": "",
          "type": "address"
        }
      ],
      "stateMutability": "view",
      "type": "function"
    }
  ],
  "bytecode": "0x60806040523480156200001157600080fd5b50604051620046ef380380620046ef8339810160408190526200003491620004fa565b6001805461ffff60e01b191661017760e51b179055600280546001600160a01b0319166001600160a01b03861617905582828686612ee06000866200007a8280620002cc565b60005b8551811015620000e857620000d57f724aface199fe5bed93ae8508474576a9adf3dc443b2c451842a2242919f19de878381518110620000c157620000c1620005b8565b6020026020010151620002cc60201b60201c565b620000e081620005e4565b90506200007d565b5060005b81518110156200014357620001307fa49807205ce4d355092ef5a8a18f56e8913cf4a201fbe287825b095693c21775838381518110620000c157620000c1620005b8565b6200013b81620005e4565b9050620000ec565b505050505050806001600160401b03168251101580156200016d57506000816001600160401b0316115b620001bf5760405162461bcd60e51b815260206004820152601960248201527f4d756c74695369673a207369676e65727320746f6f206665770000000000000060448201526064015b60405180910390fd5b6000805b83518110156200028b576000848281518110620001e457620001e4620005b8565b60200260200101519050826001600160a01b0316816001600160a01b031611620002515760405162461bcd60e51b815260206004820152601c60248201527f4d756c74695369673a207369676e657273206e6f7420736f72746564000000006044820152606401620001b6565b6001600160a01b0381166000908152600360205260409020805460ff191660011790559150806200028281620005e4565b915050620001c3565b50509051600480546001600160401b0393841668010000000000000000026001600160801b0319909116939092169290921717905550620006319350505050565b7f74845de37cfabd357633214b47fa91ccd19b05b7c5a08ac22c187f811fb62bca821480156200031d57506000828152602081815260408083206001600160a01b038516845290915290205460ff16155b156200036a57600180546014906200034590600160a01b90046001600160401b031662000600565b91906101000a8154816001600160401b0302191690836001600160401b031602179055505b6200037682826200037a565b5050565b6000828152602081815260408083206001600160a01b038516845290915290205460ff1662000376576000828152602081815260408083206001600160a01b03851684529091529020805460ff19166001179055620003d63390565b6001600160a01b0316816001600160a01b0316837f2f8788117e7eff1d82e926ec794901d17c78024a50270940304540a733656f0d60405160405180910390a45050565b634e487b7160e01b600052604160045260246000fd5b80516001600160a01b03811681146200044857600080fd5b919050565b600082601f8301126200045f57600080fd5b815160206001600160401b03808311156200047e576200047e6200041a565b8260051b604051601f19603f83011681018181108482111715620004a657620004a66200041a565b604052938452858101830193838101925087851115620004c557600080fd5b83870191505b84821015620004ef57620004df8262000430565b83529183019190830190620004cb565b979650505050505050565b600080600080600060a086880312156200051357600080fd5b85516001600160401b03808211156200052b57600080fd5b6200053989838a016200044d565b9650620005496020890162000430565b955060408801519150808211156200056057600080fd5b6200056e89838a016200044d565b94506060880151915080821682146200058657600080fd5b6080880151919350808211156200059c57600080fd5b50620005ab888289016200044d565b9150509295509295909350565b634e487b7160e01b600052603260045260246000fd5b634e487b7160e01b600052601160045260246000fd5b600060018201620005f957620005f9620005ce565b5060010190565b60006001600160401b038281166002600160401b03198101620006275762000627620005ce565b6001019392505050565b6140ae80620006416000396000f3fe6080604052600436106102185760003560e01c80638585c9451161011d578063c5e193cd116100b0578063d547741f1161007f578063e4fbd90311610064578063e4fbd903146107bb578063f3ad31f4146107ce578063fd62e750146107ee57600080fd5b8063d547741f1461077b578063dafe0ccc1461079b57600080fd5b8063c5e193cd146106e2578063c7a823e014610702578063c7b2370b14610722578063d2ae21041461074257600080fd5b8063aef18bf7116100ec578063aef18bf714610645578063b724b13314610675578063c358de0a14610695578063c416aa51146106b557600080fd5b80638585c9451461051a57806391d148541461053a5780639e9449651461058b578063a217fddf1461063057600080fd5b806330bb3aac116101b05780635553fb8e1161017f578063724e78da11610164578063724e78da14610478578063736c0d5b14610498578063741bef1a146104c857600080fd5b80635553fb8e146104265780635c975abb1461044657600080fd5b806330bb3aac146103a657806331cb6105146103c657806336568abe146103e657806352d3b8711461040657600080fd5b80631703a018116101ec5780631703a018146102e2578063248a9ca3146103285780632d80eb36146103665780632f2ff15d1461038657600080fd5b8062bf2e801461021d57806301ffc9a7146102705780631095b6d7146102a057806316c38b3c146102c2575b600080fd5b34801561022957600080fd5b50600154610258907c0100000000000000000000000000000000000000000000000000000000900461ffff1681565b60405161ffff90911681526020015b60405180910390f35b34801561027c57600080fd5b5061029061028b3660046131f2565b61080f565b6040519015158152602001610267565b3480156102ac57600080fd5b506102c06102bb366004613256565b6108a8565b005b3480156102ce57600080fd5b506102c06102dd3660046132ac565b610a6c565b3480156102ee57600080fd5b5060045461030f9068010000000000000000900467ffffffffffffffff1681565b60405167ffffffffffffffff9091168152602001610267565b34801561033457600080fd5b506103586103433660046132c7565b60009081526020819052604090206001015490565b604051908152602001610267565b34801561037257600080fd5b506102c06103813660046132e0565b610ac2565b34801561039257600080fd5b506102c06103a1366004613355565b610d1b565b3480156103b257600080fd5b506103586103c13660046133fa565b610ec7565b3480156103d257600080fd5b506102c06103e1366004613472565b611187565b3480156103f257600080fd5b506102c0610401366004613355565b6111fe565b34801561041257600080fd5b506102c06104213660046134a7565b611260565b34801561043257600080fd5b5061035861044136600461351c565b611434565b34801561045257600080fd5b506002546102909074010000000000000000000000000000000000000000900460ff1681565b34801561048457600080fd5b506102c0610493366004613572565b611690565b3480156104a457600080fd5b506102906104b3366004613572565b60036020526000908152604090205460ff1681565b3480156104d457600080fd5b506002546104f59073ffffffffffffffffffffffffffffffffffffffff1681565b60405173ffffffffffffffffffffffffffffffffffffffff9091168152602001610267565b34801561052657600080fd5b506102c061053536600461358f565b611735565b34801561054657600080fd5b50610290610555366004613355565b60009182526020828152604080842073ffffffffffffffffffffffffffffffffffffffff93909316845291905290205460ff1690565b34801561059757600080fd5b506105f56105a63660046135aa565b60056020526000908152604090205467ffffffffffffffff81169068010000000000000000810461ffff16906a010000000000000000000090046fffffffffffffffffffffffffffffffff1683565b6040805167ffffffffffffffff909416845261ffff90921660208401526fffffffffffffffffffffffffffffffff1690820152606001610267565b34801561063c57600080fd5b50610358600081565b34801561065157600080fd5b506102906106603660046132c7565b60066020526000908152604090205460ff1681565b34801561068157600080fd5b506102c06106903660046135c5565b6117aa565b3480156106a157600080fd5b506102c06106b0366004613635565b611a91565b3480156106c157600080fd5b506001546104f59073ffffffffffffffffffffffffffffffffffffffff1681565b3480156106ee57600080fd5b506103586106fd36600461351c565b611b3e565b34801561070e57600080fd5b5061029061071d366004613650565b611e39565b34801561072e57600080fd5b506102c061073d366004613572565b612018565b34801561074e57600080fd5b5060015461030f9074010000000000000000000000000000000000000000900467ffffffffffffffff1681565b34801561078757600080fd5b506102c0610796366004613355565b6120b5565b3480156107a757600080fd5b506102c06107b6366004613256565b6121fa565b6103586107c93660046133fa565b612360565b3480156107da57600080fd5b506103586107e936600461369c565b612655565b3480156107fa57600080fd5b5060045461030f9067ffffffffffffffff1681565b60007fffffffff0000000000000000000000000000000000000000000000000000000082167f7965db0b0000000000000000000000000000000000000000000000000000000014806108a257507f01ffc9a7000000000000000000000000000000000000000000000000000000007fffffffff000000000000000000000000000000000000000000000000000000008316145b92915050565b7fa49807205ce4d355092ef5a8a18f56e8913cf4a201fbe287825b095693c217756108d28161268e565b73ffffffffffffffffffffffffffffffffffffffff841660009081527f9b50f4667d2d24216ccbf0dce3a90c0f620fa4d895e7b069d80ff6247fd25620602052604090205460ff16610985576040517f08c379a000000000000000000000000000000000000000000000000000000000815260206004820152601b60248201527f576f726b65723a20496e76616c6964206d657373616765206c6962000000000060448201526064015b60405180910390fd5b6040517ffd9be52200000000000000000000000000000000000000000000000000000000815273ffffffffffffffffffffffffffffffffffffffff84811660048301526024820184905285169063fd9be52290604401600060405180830381600087803b1580156109f557600080fd5b505af1158015610a09573d6000803e3d6000fd5b50506040805173ffffffffffffffffffffffffffffffffffffffff8089168252871660208201529081018590527f9b1bfa7fa9ee420a16e124f794c35ac9f90472acc99140eb2f6447c714cad8eb9250606001905060405180910390a150505050565b6000610a778161268e565b506002805491151574010000000000000000000000000000000000000000027fffffffffffffffffffffff00ffffffffffffffffffffffffffffffffffffffff909216919091179055565b7fa49807205ce4d355092ef5a8a18f56e8913cf4a201fbe287825b095693c21775610aec8161268e565b60005b82811015610d155736848483818110610b0a57610b0a6136f8565b9050602002810190610b1c9190613727565b905042816040013511610b2f5750610d05565b6000610b58610b416020840184613572565b610b4e6020850185613765565b8560400135612655565b90506000610b7a610b6c6020850185613765565b610b75916137ca565b612698565b9050808015610b97575060008281526006602052604090205460ff165b15610bdd577f9c26528f222eb4f79639dea7fe30c7257c124af7ed741437170674ca68249e4e8383604051610bcd9291906138bf565b60405180910390a1505050610d05565b610bee8261071d6060860186613765565b15610d0157600080610c036020860186613572565b73ffffffffffffffffffffffffffffffffffffffff16610c266020870187613765565b604051610c3492919061396e565b6000604051808303816000865af19150503d8060008114610c71576040519150601f19603f3d011682016040523d82523d6000602084013e610c76565b606091505b50915091508115610cc4578215610cbf57600084815260066020526040902080547fffffffffffffffffffffffffffffffffffffffffffffffffffffffffffffff001660011790555b610cfe565b7fdc8cdd96296241bbefda4a8e18ad2e0985a8da6495b34d409cfc4c886ee3b0cf8682604051610cf59291906139ec565b60405180910390a15b50505b5050505b610d0e81613a3c565b9050610aef565b50505050565b817f74845de37cfabd357633214b47fa91ccd19b05b7c5a08ac22c187f811fb62bca811480610d6957507f4270fae16c6d150d00e80b689daca99e8073b1838ff2b6063a37be9d851283e481145b80610d9357507f724aface199fe5bed93ae8508474576a9adf3dc443b2c451842a2242919f19de81145b15610e0657303314610e01576040517f08c379a000000000000000000000000000000000000000000000000000000000815260206004820152601d60248201527f56657269666965723a2063616c6c6572206d7573742062652073656c66000000604482015260640161097c565b610eb8565b7fa49807205ce4d355092ef5a8a18f56e8913cf4a201fbe287825b095693c217758103610e5657610e017fa49807205ce4d355092ef5a8a18f56e8913cf4a201fbe287825b095693c2177561268e565b6040517f08c379a000000000000000000000000000000000000000000000000000000000815260206004820152601660248201527f56657269666965723a20696e76616c696420726f6c6500000000000000000000604482015260640161097c565b610ec28383612781565b505050565b73ffffffffffffffffffffffffffffffffffffffff831660009081527f93c430521711328044ae92d0f1f1286cf040bc4a382f1642bd89984e866305536020526040812054849060ff1615610f78576040517f08c379a000000000000000000000000000000000000000000000000000000000815260206004820152601360248201527f576f726b65723a206e6f7420616c6c6f77656400000000000000000000000000604482015260640161097c565b60015474010000000000000000000000000000000000000000900467ffffffffffffffff161580610fed575073ffffffffffffffffffffffffffffffffffffffff811660009081527f4ac82e3087b7dedf7f532cbc6915c722df8c1e31f1388c318a617b52760eaf8b602052604090205460ff165b1561111b576040805160c08101825260025473ffffffffffffffffffffffffffffffffffffffff908116825263ffffffff8a16602080840182905267ffffffffffffffff808c16858701528a8416606086015260048054680100000000000000009004909116608086015260015461ffff7c010000000000000000000000000000000000000000000000000000000082041660a0870152600093845260059092529185902094517f7bfa20a90000000000000000000000000000000000000000000000000000000081529394921692637bfa20a9926110d29286928b918b9101613a74565b602060405180830381865afa1580156110ef573d6000803e3d6000fd5b505050506040513d601f19601f820116820180604052508101906111139190613b41565b92505061117d565b6040517f08c379a000000000000000000000000000000000000000000000000000000000815260206004820152601360248201527f576f726b65723a206e6f7420616c6c6f77656400000000000000000000000000604482015260640161097c565b5095945050505050565b3033146111f0576040517f08c379a000000000000000000000000000000000000000000000000000000000815260206004820152601d60248201527f56657269666965723a2063616c6c6572206d7573742062652073656c66000000604482015260640161097c565b6111fa8282612846565b5050565b6040517f08c379a000000000000000000000000000000000000000000000000000000000815260206004820152601c60248201527f576f726b65723a2063616e6e6f742072656e6f756e636520726f6c6500000000604482015260640161097c565b7fa49807205ce4d355092ef5a8a18f56e8913cf4a201fbe287825b095693c2177561128a8161268e565b60005b828110156113f557368484838181106112a8576112a86136f8565b905060800201905060405180606001604052808260200160208101906112ce919061358f565b67ffffffffffffffff1681526020016112ed6060840160408501613635565b61ffff1681526020016113066080840160608501613b7a565b6fffffffffffffffffffffffffffffffff1690526005600061132b60208501856135aa565b63ffffffff1681526020808201929092526040908101600020835181549385015194909201516fffffffffffffffffffffffffffffffff166a0100000000000000000000027fffffffffffff00000000000000000000000000000000ffffffffffffffffffff61ffff90951668010000000000000000027fffffffffffffffffffffffffffffffffffffffffffff0000000000000000000090941667ffffffffffffffff909316929092179290921792909216919091179055506113ee81613a3c565b905061128d565b507f7dd21e42791b013d1929e86f0c59085e4fca24251f0f1aa81917b3b1611766e08383604051611427929190613b95565b60405180910390a1505050565b73ffffffffffffffffffffffffffffffffffffffff811660009081527f93c430521711328044ae92d0f1f1286cf040bc4a382f1642bd89984e866305536020526040812054829060ff16156114e5576040517f08c379a000000000000000000000000000000000000000000000000000000000815260206004820152601360248201527f576f726b65723a206e6f7420616c6c6f77656400000000000000000000000000604482015260640161097c565b60015474010000000000000000000000000000000000000000900467ffffffffffffffff16158061155a575073ffffffffffffffffffffffffffffffffffffffff811660009081527f4ac82e3087b7dedf7f532cbc6915c722df8c1e31f1388c318a617b52760eaf8b602052604090205460ff165b1561111b576040805160c08101825260025473ffffffffffffffffffffffffffffffffffffffff908116825261ffff808a16602080850182905267ffffffffffffffff808b168688015289851660608701526004805468010000000000000000900490911660808701526001547c0100000000000000000000000000000000000000000000000000000000810490941660a08701526000928352600582528683208751928301885292825295517f7bfa20a900000000000000000000000000000000000000000000000000000000815294959290931693637bfa20a9936116449387939201613c33565b602060405180830381865afa158015611661573d6000803e3d6000fd5b505050506040513d601f19601f820116820180604052508101906116859190613b41565b979650505050505050565b7fa49807205ce4d355092ef5a8a18f56e8913cf4a201fbe287825b095693c217756116ba8161268e565b600280547fffffffffffffffffffffffff00000000000000000000000000000000000000001673ffffffffffffffffffffffffffffffffffffffff84169081179091556040519081527ff724a45d041687842411f2b977ef22ab8f43c8f1104f4592b42a00f9b34a643d906020015b60405180910390a15050565b30331461179e576040517f08c379a000000000000000000000000000000000000000000000000000000000815260206004820152601d60248201527f56657269666965723a2063616c6c6572206d7573742062652073656c66000000604482015260640161097c565b6117a781612ab0565b50565b303314611813576040517f08c379a000000000000000000000000000000000000000000000000000000000815260206004820152601d60248201527f56657269666965723a2063616c6c6572206d7573742062652073656c66000000604482015260640161097c565b73ffffffffffffffffffffffffffffffffffffffff851660009081527f9b50f4667d2d24216ccbf0dce3a90c0f620fa4d895e7b069d80ff6247fd25620602052604090205460ff166118c1576040517f08c379a000000000000000000000000000000000000000000000000000000000815260206004820152601560248201527f56657269666965723a20696e76616c696420756c6e0000000000000000000000604482015260640161097c565b6040517f0223536e00000000000000000000000000000000000000000000000000000000815273ffffffffffffffffffffffffffffffffffffffff861690630223536e90611919908790879087908790600401613d09565b600060405180830381600087803b15801561193357600080fd5b505af1158015611947573d6000803e3d6000fd5b5060019250611954915050565b6040517f7c0cf76300000000000000000000000000000000000000000000000000000000815273ffffffffffffffffffffffffffffffffffffffff871690637c0cf763906119aa90889088908890600401613d6d565b602060405180830381865afa1580156119c7573d6000803e3d6000fd5b505050506040513d601f19601f820116820180604052508101906119eb9190613d91565b60038111156119fc576119fc613d3e565b03611a8a576040517f5ed31c5900000000000000000000000000000000000000000000000000000000815273ffffffffffffffffffffffffffffffffffffffff861690635ed31c5990611a5790879087908790600401613d6d565b600060405180830381600087803b158015611a7157600080fd5b505af1158015611a85573d6000803e3d6000fd5b505050505b5050505050565b7fa49807205ce4d355092ef5a8a18f56e8913cf4a201fbe287825b095693c21775611abb8161268e565b600180547fffff0000ffffffffffffffffffffffffffffffffffffffffffffffffffffffff167c010000000000000000000000000000000000000000000000000000000061ffff8516908102919091179091556040519081527f7af0ac740036ffb1c97b03697859d729e80a44ae5030543d64971c313565ab4d90602001611729565b60007f724aface199fe5bed93ae8508474576a9adf3dc443b2c451842a2242919f19de611b6a8161268e565b73ffffffffffffffffffffffffffffffffffffffff831660009081527f93c430521711328044ae92d0f1f1286cf040bc4a382f1642bd89984e866305536020526040902054839060ff1615611c1b576040517f08c379a000000000000000000000000000000000000000000000000000000000815260206004820152601360248201527f576f726b65723a206e6f7420616c6c6f77656400000000000000000000000000604482015260640161097c565b60015474010000000000000000000000000000000000000000900467ffffffffffffffff161580611c90575073ffffffffffffffffffffffffffffffffffffffff811660009081527f4ac82e3087b7dedf7f532cbc6915c722df8c1e31f1388c318a617b52760eaf8b602052604090205460ff165b1561111b576040805160c08101825260025473ffffffffffffffffffffffffffffffffffffffff908116825261ffff808b16602080850182905267ffffffffffffffff808c16868801528a851660608701526004805468010000000000000000900490911660808701526001547c0100000000000000000000000000000000000000000000000000000000810490941660a08701526000838152600583528781208851938401895290835296517fdf2b057e0000000000000000000000000000000000000000000000000000000081529296939094169363df2b057e93611d7b938793919201613c33565b6020604051808303816000875af1158015611d9a573d6000803e3d6000fd5b505050506040513d601f19601f82011682018060405250810190611dbe9190613b41565b6040805163ffffffff8516815273ffffffffffffffffffffffffffffffffffffffff8916602082015267ffffffffffffffff8a16818301526060810183905290519196507f2fc4e514b16a8f0f9f15009b848663b25939a33de41fa2b98a534b3ac4d5a572919081900360800190a150505050949350505050565b600454600090611e609068010000000000000000900467ffffffffffffffff166041613db2565b8214611e6e57506000612011565b6000611ec7856040517f19457468657265756d205369676e6564204d6573736167653a0a3332000000006020820152603c8101829052600090605c01604051602081830303815290604052805190602001209050919050565b90506000805b60045468010000000000000000900467ffffffffffffffff16811015612009576000806000611efd898986612bbb565b925092509250600060018785858560405160008152602001604052604051611f41949392919093845260ff9290921660208401526040830152606082015260800190565b6020604051602081039080840390855afa158015611f63573d6000803e3d6000fd5b5050506020604051035190508573ffffffffffffffffffffffffffffffffffffffff168173ffffffffffffffffffffffffffffffffffffffff1611611fb2576000975050505050505050612011565b73ffffffffffffffffffffffffffffffffffffffff811660009081526003602052604090205460ff16611fef576000975050505050505050612011565b80955050505050808061200190613a3c565b915050611ecd565b506001925050505b9392505050565b7fa49807205ce4d355092ef5a8a18f56e8913cf4a201fbe287825b095693c217756120428161268e565b600180547fffffffffffffffffffffffff00000000000000000000000000000000000000001673ffffffffffffffffffffffffffffffffffffffff84169081179091556040519081527f1399be28223800f8669b3ba5f8721d9fc16fc4e8d0bbf98378791c8c5a3015e090602001611729565b817f74845de37cfabd357633214b47fa91ccd19b05b7c5a08ac22c187f811fb62bca81148061210357507f4270fae16c6d150d00e80b689daca99e8073b1838ff2b6063a37be9d851283e481145b8061212d57507f724aface199fe5bed93ae8508474576a9adf3dc443b2c451842a2242919f19de81145b156121a05730331461219b576040517f08c379a000000000000000000000000000000000000000000000000000000000815260206004820152601d60248201527f56657269666965723a2063616c6c6572206d7573742062652073656c66000000604482015260640161097c565b6121f0565b7fa49807205ce4d355092ef5a8a18f56e8913cf4a201fbe287825b095693c217758103610e565761219b7fa49807205ce4d355092ef5a8a18f56e8913cf4a201fbe287825b095693c2177561268e565b610ec28383612c6d565b7fa49807205ce4d355092ef5a8a18f56e8913cf4a201fbe287825b095693c217756122248161268e565b73ffffffffffffffffffffffffffffffffffffffff841660009081527f9b50f4667d2d24216ccbf0dce3a90c0f620fa4d895e7b069d80ff6247fd25620602052604090205460ff166122d2576040517f08c379a000000000000000000000000000000000000000000000000000000000815260206004820152601d60248201527f56657269666965723a20496e76616c6964206d657373616765206c6962000000604482015260640161097c565b6040517f07b18bde00000000000000000000000000000000000000000000000000000000815273ffffffffffffffffffffffffffffffffffffffff8481166004830152602482018490528516906307b18bde90604401600060405180830381600087803b15801561234257600080fd5b505af1158015612356573d6000803e3d6000fd5b5050505050505050565b60007f724aface199fe5bed93ae8508474576a9adf3dc443b2c451842a2242919f19de61238c8161268e565b73ffffffffffffffffffffffffffffffffffffffff851660009081527f93c430521711328044ae92d0f1f1286cf040bc4a382f1642bd89984e866305536020526040902054859060ff161561243d576040517f08c379a000000000000000000000000000000000000000000000000000000000815260206004820152601360248201527f576f726b65723a206e6f7420616c6c6f77656400000000000000000000000000604482015260640161097c565b60015474010000000000000000000000000000000000000000900467ffffffffffffffff1615806124b2575073ffffffffffffffffffffffffffffffffffffffff811660009081527f4ac82e3087b7dedf7f532cbc6915c722df8c1e31f1388c318a617b52760eaf8b602052604090205460ff165b1561111b576040805160c08101825260025473ffffffffffffffffffffffffffffffffffffffff908116825263ffffffff8b16602080840182905267ffffffffffffffff808d16858701528b8416606086015260048054680100000000000000009004909116608086015260015461ffff7c010000000000000000000000000000000000000000000000000000000082041660a0870152600093845260059092529185902094517fdf2b057e000000000000000000000000000000000000000000000000000000008152939492169263df2b057e926125979286928c918c9101613a74565b6020604051808303816000875af11580156125b6573d6000803e3d6000fd5b505050506040513d601f19601f820116820180604052508101906125da9190613b41565b6040805163ffffffff8c16815273ffffffffffffffffffffffffffffffffffffffff8a16602082015267ffffffffffffffff8b16818301526060810183905290519195507f2fc4e514b16a8f0f9f15009b848663b25939a33de41fa2b98a534b3ac4d5a572919081900360800190a150505095945050505050565b60008482858560405160200161266e9493929190613dc9565b604051602081830303815290604052805190602001209050949350505050565b6117a78133612d31565b60007fffffffff0000000000000000000000000000000000000000000000000000000082167f0223536e000000000000000000000000000000000000000000000000000000001480159061272e57507fffffffff0000000000000000000000000000000000000000000000000000000082167fb724b1330000000000000000000000000000000000000000000000000000000014155b80156108a257507fffffffff0000000000000000000000000000000000000000000000000000000082167f704316e500000000000000000000000000000000000000000000000000000000141592915050565b7f74845de37cfabd357633214b47fa91ccd19b05b7c5a08ac22c187f811fb62bca821480156127de575060008281526020818152604080832073ffffffffffffffffffffffffffffffffffffffff8516845290915290205460ff16155b1561283c57600180546014906128159074010000000000000000000000000000000000000000900467ffffffffffffffff16613e0f565b91906101000a81548167ffffffffffffffff021916908367ffffffffffffffff1602179055505b6111fa8282612de9565b73ffffffffffffffffffffffffffffffffffffffff821660009081526003602052604090205481151560ff909116151503612903576040517f08c379a000000000000000000000000000000000000000000000000000000000815260206004820152602660248201527f4d756c74695369673a207369676e657220616c726561647920696e207468617460448201527f2073746174650000000000000000000000000000000000000000000000000000606482015260840161097c565b73ffffffffffffffffffffffffffffffffffffffff8216600090815260036020526040902080547fffffffffffffffffffffffffffffffffffffffffffffffffffffffffffffff001682151517905580612975576004546129709060019067ffffffffffffffff16613e36565b61298d565b60045461298d9067ffffffffffffffff166001613e5e565b600480547fffffffffffffffffffffffffffffffffffffffffffffffff00000000000000001667ffffffffffffffff92831690811791829055680100000000000000009091049091161115612a63576040517f08c379a0000000000000000000000000000000000000000000000000000000008152602060048201526024808201527f4d756c74695369673a20636f6d6d69747465652073697a65203c20746872657360448201527f686f6c6400000000000000000000000000000000000000000000000000000000606482015260840161097c565b6040805173ffffffffffffffffffffffffffffffffffffffff8416815282151560208201527f863d338cad74814b108a06288ad5e0e80d56495e0332238b1d2cdcfa0ca8e5ce9101611729565b60045467ffffffffffffffff90811690821611801590612ada575060008167ffffffffffffffff16115b612b40576040517f08c379a000000000000000000000000000000000000000000000000000000000815260206004820152601860248201527f4d756c74695369673a20696e76616c69642071756f72756d0000000000000000604482015260640161097c565b600480547fffffffffffffffffffffffffffffffff0000000000000000ffffffffffffffff166801000000000000000067ffffffffffffffff8416908102919091179091556040519081527fb600f3cf7f38a4b49bb0c75f722ef69f7e3e39ef3bb4aa8207fd86e724a232499060200160405180910390a150565b6000808080612bcb856041613db2565b90508686612bda836000613e7f565b90612be6846020613e7f565b92612bf393929190613e92565b612bfc91613ebc565b92508686612c0b836020613e7f565b90612c17846040613e7f565b92612c2493929190613e92565b612c2d91613ebc565b91508686612c3c836040613e7f565b90612c48846041613e7f565b92612c5593929190613e92565b612c5e91613ef8565b60f81c93505093509350939050565b7f74845de37cfabd357633214b47fa91ccd19b05b7c5a08ac22c187f811fb62bca82148015612cc9575060008281526020818152604080832073ffffffffffffffffffffffffffffffffffffffff8516845290915290205460ff165b15612d275760018054601490612d009074010000000000000000000000000000000000000000900467ffffffffffffffff16613f3e565b91906101000a81548167ffffffffffffffff021916908367ffffffffffffffff1602179055505b6111fa8282612ed9565b60008281526020818152604080832073ffffffffffffffffffffffffffffffffffffffff8516845290915290205460ff166111fa57612d6f81612f90565b612d7a836020612faf565b604051602001612d8b929190613f80565b604080517fffffffffffffffffffffffffffffffffffffffffffffffffffffffffffffffe0818403018152908290527f08c379a000000000000000000000000000000000000000000000000000000000825261097c91600401614001565b60008281526020818152604080832073ffffffffffffffffffffffffffffffffffffffff8516845290915290205460ff166111fa5760008281526020818152604080832073ffffffffffffffffffffffffffffffffffffffff85168452909152902080547fffffffffffffffffffffffffffffffffffffffffffffffffffffffffffffff00166001179055612e7b3390565b73ffffffffffffffffffffffffffffffffffffffff168173ffffffffffffffffffffffffffffffffffffffff16837f2f8788117e7eff1d82e926ec794901d17c78024a50270940304540a733656f0d60405160405180910390a45050565b60008281526020818152604080832073ffffffffffffffffffffffffffffffffffffffff8516845290915290205460ff16156111fa5760008281526020818152604080832073ffffffffffffffffffffffffffffffffffffffff8516808552925280832080547fffffffffffffffffffffffffffffffffffffffffffffffffffffffffffffff0016905551339285917ff6391f5c32d9c69d2a47ea670b442974b53935d1edc7fd64eb21e047a839171b9190a45050565b60606108a273ffffffffffffffffffffffffffffffffffffffff831660145b60606000612fbe836002613db2565b612fc9906002613e7f565b67ffffffffffffffff811115612fe157612fe1614014565b6040519080825280601f01601f19166020018201604052801561300b576020820181803683370190505b5090507f300000000000000000000000000000000000000000000000000000000000000081600081518110613042576130426136f8565b60200101907effffffffffffffffffffffffffffffffffffffffffffffffffffffffffffff1916908160001a9053507f7800000000000000000000000000000000000000000000000000000000000000816001815181106130a5576130a56136f8565b60200101907effffffffffffffffffffffffffffffffffffffffffffffffffffffffffffff1916908160001a90535060006130e1846002613db2565b6130ec906001613e7f565b90505b6001811115613189577f303132333435363738396162636465660000000000000000000000000000000085600f166010811061312d5761312d6136f8565b1a60f81b828281518110613143576131436136f8565b60200101907effffffffffffffffffffffffffffffffffffffffffffffffffffffffffffff1916908160001a90535060049490941c9361318281614043565b90506130ef565b508315612011576040517f08c379a000000000000000000000000000000000000000000000000000000000815260206004820181905260248201527f537472696e67733a20686578206c656e67746820696e73756666696369656e74604482015260640161097c565b60006020828403121561320457600080fd5b81357fffffffff000000000000000000000000000000000000000000000000000000008116811461201157600080fd5b73ffffffffffffffffffffffffffffffffffffffff811681146117a757600080fd5b60008060006060848603121561326b57600080fd5b833561327681613234565b9250602084013561328681613234565b929592945050506040919091013590565b803580151581146132a757600080fd5b919050565b6000602082840312156132be57600080fd5b61201182613297565b6000602082840312156132d957600080fd5b5035919050565b600080602083850312156132f357600080fd5b823567ffffffffffffffff8082111561330b57600080fd5b818501915085601f83011261331f57600080fd5b81358181111561332e57600080fd5b8660208260051b850101111561334357600080fd5b60209290920196919550909350505050565b6000806040838503121561336857600080fd5b82359150602083013561337a81613234565b809150509250929050565b803563ffffffff811681146132a757600080fd5b803567ffffffffffffffff811681146132a757600080fd5b60008083601f8401126133c357600080fd5b50813567ffffffffffffffff8111156133db57600080fd5b6020830191508360208285010111156133f357600080fd5b9250929050565b60008060008060006080868803121561341257600080fd5b61341b86613385565b945061342960208701613399565b9350604086013561343981613234565b9250606086013567ffffffffffffffff81111561345557600080fd5b613461888289016133b1565b969995985093965092949392505050565b6000806040838503121561348557600080fd5b823561349081613234565b915061349e60208401613297565b90509250929050565b600080602083850312156134ba57600080fd5b823567ffffffffffffffff808211156134d257600080fd5b818501915085601f8301126134e657600080fd5b8135818111156134f557600080fd5b8660208260071b850101111561334357600080fd5b803561ffff811681146132a757600080fd5b6000806000806080858703121561353257600080fd5b61353b8561350a565b93506135496020860161350a565b925061355760408601613399565b9150606085013561356781613234565b939692955090935050565b60006020828403121561358457600080fd5b813561201181613234565b6000602082840312156135a157600080fd5b61201182613399565b6000602082840312156135bc57600080fd5b61201182613385565b6000806000806000608086880312156135dd57600080fd5b85356135e881613234565b9450602086013567ffffffffffffffff81111561360457600080fd5b613610888289016133b1565b9095509350506040860135915061362960608701613399565b90509295509295909350565b60006020828403121561364757600080fd5b6120118261350a565b60008060006040848603121561366557600080fd5b83359250602084013567ffffffffffffffff81111561368357600080fd5b61368f868287016133b1565b9497909650939450505050565b600080600080606085870312156136b257600080fd5b84356136bd81613234565b9350602085013567ffffffffffffffff8111156136d957600080fd5b6136e5878288016133b1565b9598909750949560400135949350505050565b7f4e487b7100000000000000000000000000000000000000000000000000000000600052603260045260246000fd5b600082357fffffffffffffffffffffffffffffffffffffffffffffffffffffffffffffff8183360301811261375b57600080fd5b9190910192915050565b60008083357fffffffffffffffffffffffffffffffffffffffffffffffffffffffffffffffe184360301811261379a57600080fd5b83018035915067ffffffffffffffff8211156137b557600080fd5b6020019150368190038213156133f357600080fd5b7fffffffff00000000000000000000000000000000000000000000000000000000813581811691600485101561380a5780818660040360031b1b83161692505b505092915050565b60008083357fffffffffffffffffffffffffffffffffffffffffffffffffffffffffffffffe184360301811261384757600080fd5b830160208101925035905067ffffffffffffffff81111561386757600080fd5b8036038213156133f357600080fd5b8183528181602085013750600060208284010152600060207fffffffffffffffffffffffffffffffffffffffffffffffffffffffffffffffe0601f840116840101905092915050565b60408152600083356138d081613234565b73ffffffffffffffffffffffffffffffffffffffff1660408301526138f86020850185613812565b6080606085015261390d60c085018284613876565b915050604085013560808401526139276060860186613812565b7fffffffffffffffffffffffffffffffffffffffffffffffffffffffffffffffc08584030160a086015261395c838284613876565b93505050508260208301529392505050565b8183823760009101908152919050565b60005b83811015613999578181015183820152602001613981565b50506000910152565b600081518084526139ba81602086016020860161397e565b601f017fffffffffffffffffffffffffffffffffffffffffffffffffffffffffffffffe0169290920160200192915050565b828152604060208201526000613a0560408301846139a2565b949350505050565b7f4e487b7100000000000000000000000000000000000000000000000000000000600052601160045260246000fd5b60007fffffffffffffffffffffffffffffffffffffffffffffffffffffffffffffffff8203613a6d57613a6d613a0d565b5060010190565b6000610140613aec838873ffffffffffffffffffffffffffffffffffffffff80825116835263ffffffff6020830151166020840152604082015167ffffffffffffffff808216604086015282606085015116606086015280608085015116608086015250505061ffff60a08201511660a08301525050565b613b2d60c08401875467ffffffffffffffff81168252604081811c61ffff16602084015260509190911c6fffffffffffffffffffffffffffffffff16910152565b806101208401526116858184018587613876565b600060208284031215613b5357600080fd5b5051919050565b80356fffffffffffffffffffffffffffffffff811681146132a757600080fd5b600060208284031215613b8c57600080fd5b61201182613b5a565b6020808252818101839052600090604080840186845b87811015613c265763ffffffff613bc183613385565b16835267ffffffffffffffff613bd8868401613399565b168584015261ffff613beb85840161350a565b168484015260606fffffffffffffffffffffffffffffffff613c0e828501613b5a565b16908401526080928301929190910190600101613bab565b5090979650505050505050565b6000610140613cab838773ffffffffffffffffffffffffffffffffffffffff80825116835263ffffffff6020830151166020840152604082015167ffffffffffffffff808216604086015282606085015116606086015280608085015116608086015250505061ffff60a08201511660a08301525050565b613cec60c08401865467ffffffffffffffff81168252604081811c61ffff16602084015260509190911c6fffffffffffffffffffffffffffffffff16910152565b80610120840152613cff818401856139a2565b9695505050505050565b606081526000613d1d606083018688613876565b905083602083015267ffffffffffffffff8316604083015295945050505050565b7f4e487b7100000000000000000000000000000000000000000000000000000000600052602160045260246000fd5b604081526000613d81604083018587613876565b9050826020830152949350505050565b600060208284031215613da357600080fd5b81516004811061201157600080fd5b80820281158282048414176108a2576108a2613a0d565b7fffffffffffffffffffffffffffffffffffffffff0000000000000000000000008560601b16815283601482015281836034830137600091016034019081529392505050565b600067ffffffffffffffff808316818103613e2c57613e2c613a0d565b6001019392505050565b67ffffffffffffffff828116828216039080821115613e5757613e57613a0d565b5092915050565b67ffffffffffffffff818116838216019080821115613e5757613e57613a0d565b808201808211156108a2576108a2613a0d565b60008085851115613ea257600080fd5b83861115613eaf57600080fd5b5050820193919092039150565b803560208310156108a2577fffffffffffffffffffffffffffffffffffffffffffffffffffffffffffffffff602084900360031b1b1692915050565b7fff00000000000000000000000000000000000000000000000000000000000000813581811691600185101561380a5760019490940360031b84901b1690921692915050565b600067ffffffffffffffff821680613f5857613f58613a0d565b7fffffffffffffffffffffffffffffffffffffffffffffffffffffffffffffffff0192915050565b7f416363657373436f6e74726f6c3a206163636f756e7420000000000000000000815260008351613fb881601785016020880161397e565b7f206973206d697373696e6720726f6c65200000000000000000000000000000006017918401918201528351613ff581602884016020880161397e565b01602801949350505050565b60208152600061201160208301846139a2565b7f4e487b7100000000000000000000000000000000000000000000000000000000600052604160045260246000fd5b60008161405257614052613a0d565b507fffffffffffffffffffffffffffffffffffffffffffffffffffffffffffffffff019056fea2646970667358221220b96acc6d43cc48b3fcf95ad801eb8a5fbdbe129941a46806dc24e840378fa4a764736f6c63430008130033",
  "linkReferences": {},
  "deployedLinkReferences": {}
}