{
  "_format": "hh-sol-artifact-1",
  "contractName": "ONFT721Upgradeable",
  "sourceName": "contracts/contracts-upgradable/token/onft/ERC721/ONFT721Upgradeable.sol",
  "abi": [
    {
      "anonymous": false,
      "inputs": [
        {
          "indexed": true,
          "internalType": "address",
          "name": "owner",
          "type": "address"
        },
        {
          "indexed": true,
          "internalType": "address",
          "name": "approved",
          "type": "address"
        },
        {
          "indexed": true,
          "internalType": "uint256",
          "name": "tokenId",
          "type": "uint256"
        }
      ],
      "name": "Approval",
      "type": "event"
    },
    {
      "anonymous": false,
      "inputs": [
        {
          "indexed": true,
          "internalType": "address",
          "name": "owner",
          "type": "address"
        },
        {
          "indexed": true,
          "internalType": "address",
          "name": "operator",
          "type": "address"
        },
        {
          "indexed": false,
          "internalType": "bool",
          "name": "approved",
          "type": "bool"
        }
      ],
      "name": "ApprovalForAll",
      "type": "event"
    },
    {
      "anonymous": false,
      "inputs": [
        {
          "indexed": false,
          "internalType": "bytes32",
          "name": "_hashedPayload",
          "type": "bytes32"
        }
      ],
      "name": "CreditCleared",
      "type": "event"
    },
    {
      "anonymous": false,
      "inputs": [
        {
          "indexed": false,
          "internalType": "bytes32",
          "name": "_hashedPayload",
          "type": "bytes32"
        },
        {
          "indexed": false,
          "internalType": "bytes",
          "name": "_payload",
          "type": "bytes"
        }
      ],
      "name": "CreditStored",
      "type": "event"
    },
    {
      "anonymous": false,
      "inputs": [
        {
          "indexed": false,
          "internalType": "uint8",
          "name": "version",
          "type": "uint8"
        }
      ],
      "name": "Initialized",
      "type": "event"
    },
    {
      "anonymous": false,
      "inputs": [
        {
          "indexed": false,
          "internalType": "uint16",
          "name": "_srcChainId",
          "type": "uint16"
        },
        {
          "indexed": false,
          "internalType": "bytes",
          "name": "_srcAddress",
          "type": "bytes"
        },
        {
          "indexed": false,
          "internalType": "uint64",
          "name": "_nonce",
          "type": "uint64"
        },
        {
          "indexed": false,
          "internalType": "bytes",
          "name": "_payload",
          "type": "bytes"
        },
        {
          "indexed": false,
          "internalType": "bytes",
          "name": "_reason",
          "type": "bytes"
        }
      ],
      "name": "MessageFailed",
      "type": "event"
    },
    {
      "anonymous": false,
      "inputs": [
        {
          "indexed": true,
          "internalType": "address",
          "name": "previousOwner",
          "type": "address"
        },
        {
          "indexed": true,
          "internalType": "address",
          "name": "newOwner",
          "type": "address"
        }
      ],
      "name": "OwnershipTransferred",
      "type": "event"
    },
    {
      "anonymous": false,
      "inputs": [
        {
          "indexed": true,
          "internalType": "uint16",
          "name": "_srcChainId",
          "type": "uint16"
        },
        {
          "indexed": true,
          "internalType": "bytes",
          "name": "_srcAddress",
          "type": "bytes"
        },
        {
          "indexed": true,
          "internalType": "address",
          "name": "_toAddress",
          "type": "address"
        },
        {
          "indexed": false,
          "internalType": "uint256[]",
          "name": "_tokenIds",
          "type": "uint256[]"
        }
      ],
      "name": "ReceiveFromChain",
      "type": "event"
    },
    {
      "anonymous": false,
      "inputs": [
        {
          "indexed": false,
          "internalType": "uint16",
          "name": "_srcChainId",
          "type": "uint16"
        },
        {
          "indexed": false,
          "internalType": "bytes",
          "name": "_srcAddress",
          "type": "bytes"
        },
        {
          "indexed": false,
          "internalType": "uint64",
          "name": "_nonce",
          "type": "uint64"
        },
        {
          "indexed": false,
          "internalType": "bytes32",
          "name": "_payloadHash",
          "type": "bytes32"
        }
      ],
      "name": "RetryMessageSuccess",
      "type": "event"
    },
    {
      "anonymous": false,
      "inputs": [
        {
          "indexed": true,
          "internalType": "uint16",
          "name": "_dstChainId",
          "type": "uint16"
        },
        {
          "indexed": true,
          "internalType": "address",
          "name": "_from",
          "type": "address"
        },
        {
          "indexed": true,
          "internalType": "bytes",
          "name": "_toAddress",
          "type": "bytes"
        },
        {
          "indexed": false,
          "internalType": "uint256[]",
          "name": "_tokenIds",
          "type": "uint256[]"
        }
      ],
      "name": "SendToChain",
      "type": "event"
    },
    {
      "anonymous": false,
      "inputs": [
        {
          "indexed": false,
          "internalType": "uint16",
          "name": "_dstChainId",
          "type": "uint16"
        },
        {
          "indexed": false,
          "internalType": "uint16",
          "name": "_type",
          "type": "uint16"
        },
        {
          "indexed": false,
          "internalType": "uint256",
          "name": "_minDstGas",
          "type": "uint256"
        }
      ],
      "name": "SetMinDstGas",
      "type": "event"
    },
    {
      "anonymous": false,
      "inputs": [
        {
          "indexed": false,
          "internalType": "address",
          "name": "precrime",
          "type": "address"
        }
      ],
      "name": "SetPrecrime",
      "type": "event"
    },
    {
      "anonymous": false,
      "inputs": [
        {
          "indexed": false,
          "internalType": "uint16",
          "name": "_remoteChainId",
          "type": "uint16"
        },
        {
          "indexed": false,
          "internalType": "bytes",
          "name": "_path",
          "type": "bytes"
        }
      ],
      "name": "SetTrustedRemote",
      "type": "event"
    },
    {
      "anonymous": false,
      "inputs": [
        {
          "indexed": false,
          "internalType": "uint16",
          "name": "_remoteChainId",
          "type": "uint16"
        },
        {
          "indexed": false,
          "internalType": "bytes",
          "name": "_remoteAddress",
          "type": "bytes"
        }
      ],
      "name": "SetTrustedRemoteAddress",
      "type": "event"
    },
    {
      "anonymous": false,
      "inputs": [
        {
          "indexed": true,
          "internalType": "address",
          "name": "from",
          "type": "address"
        },
        {
          "indexed": true,
          "internalType": "address",
          "name": "to",
          "type": "address"
        },
        {
          "indexed": true,
          "internalType": "uint256",
          "name": "tokenId",
          "type": "uint256"
        }
      ],
      "name": "Transfer",
      "type": "event"
    },
    {
      "inputs": [],
      "name": "DEFAULT_PAYLOAD_SIZE_LIMIT",
      "outputs": [
        {
          "internalType": "uint256",
          "name": "",
          "type": "uint256"
        }
      ],
      "stateMutability": "view",
      "type": "function"
    },
    {
      "inputs": [],
      "name": "FUNCTION_TYPE_SEND",
      "outputs": [
        {
          "internalType": "uint16",
          "name": "",
          "type": "uint16"
        }
      ],
      "stateMutability": "view",
      "type": "function"
    },
    {
      "inputs": [
        {
          "internalType": "address",
          "name": "to",
          "type": "address"
        },
        {
          "internalType": "uint256",
          "name": "tokenId",
          "type": "uint256"
        }
      ],
      "name": "approve",
      "outputs": [],
      "stateMutability": "nonpayable",
      "type": "function"
    },
    {
      "inputs": [
        {
          "internalType": "address",
          "name": "owner",
          "type": "address"
        }
      ],
      "name": "balanceOf",
      "outputs": [
        {
          "internalType": "uint256",
          "name": "",
          "type": "uint256"
        }
      ],
      "stateMutability": "view",
      "type": "function"
    },
    {
      "inputs": [
        {
          "internalType": "bytes",
          "name": "_payload",
          "type": "bytes"
        }
      ],
      "name": "clearCredits",
      "outputs": [],
      "stateMutability": "nonpayable",
      "type": "function"
    },
    {
      "inputs": [
        {
          "internalType": "uint16",
          "name": "",
          "type": "uint16"
        }
      ],
      "name": "dstChainIdToBatchLimit",
      "outputs": [
        {
          "internalType": "uint256",
          "name": "",
          "type": "uint256"
        }
      ],
      "stateMutability": "view",
      "type": "function"
    },
    {
      "inputs": [
        {
          "internalType": "uint16",
          "name": "",
          "type": "uint16"
        }
      ],
      "name": "dstChainIdToTransferGas",
      "outputs": [
        {
          "internalType": "uint256",
          "name": "",
          "type": "uint256"
        }
      ],
      "stateMutability": "view",
      "type": "function"
    },
    {
      "inputs": [
        {
          "internalType": "uint16",
          "name": "_dstChainId",
          "type": "uint16"
        },
        {
          "internalType": "bytes",
          "name": "_toAddress",
          "type": "bytes"
        },
        {
          "internalType": "uint256[]",
          "name": "_tokenIds",
          "type": "uint256[]"
        },
        {
          "internalType": "bool",
          "name": "_useZro",
          "type": "bool"
        },
        {
          "internalType": "bytes",
          "name": "_adapterParams",
          "type": "bytes"
        }
      ],
      "name": "estimateSendBatchFee",
      "outputs": [
        {
          "internalType": "uint256",
          "name": "nativeFee",
          "type": "uint256"
        },
        {
          "internalType": "uint256",
          "name": "zroFee",
          "type": "uint256"
        }
      ],
      "stateMutability": "view",
      "type": "function"
    },
    {
      "inputs": [
        {
          "internalType": "uint16",
          "name": "_dstChainId",
          "type": "uint16"
        },
        {
          "internalType": "bytes",
          "name": "_toAddress",
          "type": "bytes"
        },
        {
          "internalType": "uint256",
          "name": "_tokenId",
          "type": "uint256"
        },
        {
          "internalType": "bool",
          "name": "_useZro",
          "type": "bool"
        },
        {
          "internalType": "bytes",
          "name": "_adapterParams",
          "type": "bytes"
        }
      ],
      "name": "estimateSendFee",
      "outputs": [
        {
          "internalType": "uint256",
          "name": "nativeFee",
          "type": "uint256"
        },
        {
          "internalType": "uint256",
          "name": "zroFee",
          "type": "uint256"
        }
      ],
      "stateMutability": "view",
      "type": "function"
    },
    {
      "inputs": [
        {
          "internalType": "uint16",
          "name": "",
          "type": "uint16"
        },
        {
          "internalType": "bytes",
          "name": "",
          "type": "bytes"
        },
        {
          "internalType": "uint64",
          "name": "",
          "type": "uint64"
        }
      ],
      "name": "failedMessages",
      "outputs": [
        {
          "internalType": "bytes32",
          "name": "",
          "type": "bytes32"
        }
      ],
      "stateMutability": "view",
      "type": "function"
    },
    {
      "inputs": [
        {
          "internalType": "uint16",
          "name": "_srcChainId",
          "type": "uint16"
        },
        {
          "internalType": "bytes",
          "name": "_srcAddress",
          "type": "bytes"
        }
      ],
      "name": "forceResumeReceive",
      "outputs": [],
      "stateMutability": "nonpayable",
      "type": "function"
    },
    {
      "inputs": [
        {
          "internalType": "uint256",
          "name": "tokenId",
          "type": "uint256"
        }
      ],
      "name": "getApproved",
      "outputs": [
        {
          "internalType": "address",
          "name": "",
          "type": "address"
        }
      ],
      "stateMutability": "view",
      "type": "function"
    },
    {
      "inputs": [
        {
          "internalType": "uint16",
          "name": "_version",
          "type": "uint16"
        },
        {
          "internalType": "uint16",
          "name": "_chainId",
          "type": "uint16"
        },
        {
          "internalType": "address",
          "name": "",
          "type": "address"
        },
        {
          "internalType": "uint256",
          "name": "_configType",
          "type": "uint256"
        }
      ],
      "name": "getConfig",
      "outputs": [
        {
          "internalType": "bytes",
          "name": "",
          "type": "bytes"
        }
      ],
      "stateMutability": "view",
      "type": "function"
    },
    {
      "inputs": [
        {
          "internalType": "uint16",
          "name": "_remoteChainId",
          "type": "uint16"
        }
      ],
      "name": "getTrustedRemoteAddress",
      "outputs": [
        {
          "internalType": "bytes",
          "name": "",
          "type": "bytes"
        }
      ],
      "stateMutability": "view",
      "type": "function"
    },
    {
      "inputs": [
        {
          "internalType": "address",
          "name": "owner",
          "type": "address"
        },
        {
          "internalType": "address",
          "name": "operator",
          "type": "address"
        }
      ],
      "name": "isApprovedForAll",
      "outputs": [
        {
          "internalType": "bool",
          "name": "",
          "type": "bool"
        }
      ],
      "stateMutability": "view",
      "type": "function"
    },
    {
      "inputs": [
        {
          "internalType": "uint16",
          "name": "_srcChainId",
          "type": "uint16"
        },
        {
          "internalType": "bytes",
          "name": "_srcAddress",
          "type": "bytes"
        }
      ],
      "name": "isTrustedRemote",
      "outputs": [
        {
          "internalType": "bool",
          "name": "",
          "type": "bool"
        }
      ],
      "stateMutability": "view",
      "type": "function"
    },
    {
      "inputs": [],
      "name": "lzEndpoint",
      "outputs": [
        {
          "internalType": "contract ILayerZeroEndpointUpgradeable",
          "name": "",
          "type": "address"
        }
      ],
      "stateMutability": "view",
      "type": "function"
    },
    {
      "inputs": [
        {
          "internalType": "uint16",
          "name": "_srcChainId",
          "type": "uint16"
        },
        {
          "internalType": "bytes",
          "name": "_srcAddress",
          "type": "bytes"
        },
        {
          "internalType": "uint64",
          "name": "_nonce",
          "type": "uint64"
        },
        {
          "internalType": "bytes",
          "name": "_payload",
          "type": "bytes"
        }
      ],
      "name": "lzReceive",
      "outputs": [],
      "stateMutability": "nonpayable",
      "type": "function"
    },
    {
      "inputs": [
        {
          "internalType": "uint16",
          "name": "",
          "type": "uint16"
        },
        {
          "internalType": "uint16",
          "name": "",
          "type": "uint16"
        }
      ],
      "name": "minDstGasLookup",
      "outputs": [
        {
          "internalType": "uint256",
          "name": "",
          "type": "uint256"
        }
      ],
      "stateMutability": "view",
      "type": "function"
    },
    {
      "inputs": [],
      "name": "minGasToTransferAndStore",
      "outputs": [
        {
          "internalType": "uint256",
          "name": "",
          "type": "uint256"
        }
      ],
      "stateMutability": "view",
      "type": "function"
    },
    {
      "inputs": [],
      "name": "name",
      "outputs": [
        {
          "internalType": "string",
          "name": "",
          "type": "string"
        }
      ],
      "stateMutability": "view",
      "type": "function"
    },
    {
      "inputs": [
        {
          "internalType": "uint16",
          "name": "_srcChainId",
          "type": "uint16"
        },
        {
          "internalType": "bytes",
          "name": "_srcAddress",
          "type": "bytes"
        },
        {
          "internalType": "uint64",
          "name": "_nonce",
          "type": "uint64"
        },
        {
          "internalType": "bytes",
          "name": "_payload",
          "type": "bytes"
        }
      ],
      "name": "nonblockingLzReceive",
      "outputs": [],
      "stateMutability": "nonpayable",
      "type": "function"
    },
    {
      "inputs": [],
      "name": "owner",
      "outputs": [
        {
          "internalType": "address",
          "name": "",
          "type": "address"
        }
      ],
      "stateMutability": "view",
      "type": "function"
    },
    {
      "inputs": [
        {
          "internalType": "uint256",
          "name": "tokenId",
          "type": "uint256"
        }
      ],
      "name": "ownerOf",
      "outputs": [
        {
          "internalType": "address",
          "name": "",
          "type": "address"
        }
      ],
      "stateMutability": "view",
      "type": "function"
    },
    {
      "inputs": [
        {
          "internalType": "uint16",
          "name": "",
          "type": "uint16"
        }
      ],
      "name": "payloadSizeLimitLookup",
      "outputs": [
        {
          "internalType": "uint256",
          "name": "",
          "type": "uint256"
        }
      ],
      "stateMutability": "view",
      "type": "function"
    },
    {
      "inputs": [],
      "name": "precrime",
      "outputs": [
        {
          "internalType": "address",
          "name": "",
          "type": "address"
        }
      ],
      "stateMutability": "view",
      "type": "function"
    },
    {
      "inputs": [],
      "name": "renounceOwnership",
      "outputs": [],
      "stateMutability": "nonpayable",
      "type": "function"
    },
    {
      "inputs": [
        {
          "internalType": "uint16",
          "name": "_srcChainId",
          "type": "uint16"
        },
        {
          "internalType": "bytes",
          "name": "_srcAddress",
          "type": "bytes"
        },
        {
          "internalType": "uint64",
          "name": "_nonce",
          "type": "uint64"
        },
        {
          "internalType": "bytes",
          "name": "_payload",
          "type": "bytes"
        }
      ],
      "name": "retryMessage",
      "outputs": [],
      "stateMutability": "payable",
      "type": "function"
    },
    {
      "inputs": [
        {
          "internalType": "address",
          "name": "from",
          "type": "address"
        },
        {
          "internalType": "address",
          "name": "to",
          "type": "address"
        },
        {
          "internalType": "uint256",
          "name": "tokenId",
          "type": "uint256"
        }
      ],
      "name": "safeTransferFrom",
      "outputs": [],
      "stateMutability": "nonpayable",
      "type": "function"
    },
    {
      "inputs": [
        {
          "internalType": "address",
          "name": "from",
          "type": "address"
        },
        {
          "internalType": "address",
          "name": "to",
          "type": "address"
        },
        {
          "internalType": "uint256",
          "name": "tokenId",
          "type": "uint256"
        },
        {
          "internalType": "bytes",
          "name": "data",
          "type": "bytes"
        }
      ],
      "name": "safeTransferFrom",
      "outputs": [],
      "stateMutability": "nonpayable",
      "type": "function"
    },
    {
      "inputs": [
        {
          "internalType": "address",
          "name": "_from",
          "type": "address"
        },
        {
          "internalType": "uint16",
          "name": "_dstChainId",
          "type": "uint16"
        },
        {
          "internalType": "bytes",
          "name": "_toAddress",
          "type": "bytes"
        },
        {
          "internalType": "uint256[]",
          "name": "_tokenIds",
          "type": "uint256[]"
        },
        {
          "internalType": "address payable",
          "name": "_refundAddress",
          "type": "address"
        },
        {
          "internalType": "address",
          "name": "_zroPaymentAddress",
          "type": "address"
        },
        {
          "internalType": "bytes",
          "name": "_adapterParams",
          "type": "bytes"
        }
      ],
      "name": "sendBatchFrom",
      "outputs": [],
      "stateMutability": "payable",
      "type": "function"
    },
    {
      "inputs": [
        {
          "internalType": "address",
          "name": "_from",
          "type": "address"
        },
        {
          "internalType": "uint16",
          "name": "_dstChainId",
          "type": "uint16"
        },
        {
          "internalType": "bytes",
          "name": "_toAddress",
          "type": "bytes"
        },
        {
          "internalType": "uint256",
          "name": "_tokenId",
          "type": "uint256"
        },
        {
          "internalType": "address payable",
          "name": "_refundAddress",
          "type": "address"
        },
        {
          "internalType": "address",
          "name": "_zroPaymentAddress",
          "type": "address"
        },
        {
          "internalType": "bytes",
          "name": "_adapterParams",
          "type": "bytes"
        }
      ],
      "name": "sendFrom",
      "outputs": [],
      "stateMutability": "payable",
      "type": "function"
    },
    {
      "inputs": [
        {
          "internalType": "address",
          "name": "operator",
          "type": "address"
        },
        {
          "internalType": "bool",
          "name": "approved",
          "type": "bool"
        }
      ],
      "name": "setApprovalForAll",
      "outputs": [],
      "stateMutability": "nonpayable",
      "type": "function"
    },
    {
      "inputs": [
        {
          "internalType": "uint16",
          "name": "_version",
          "type": "uint16"
        },
        {
          "internalType": "uint16",
          "name": "_chainId",
          "type": "uint16"
        },
        {
          "internalType": "uint256",
          "name": "_configType",
          "type": "uint256"
        },
        {
          "internalType": "bytes",
          "name": "_config",
          "type": "bytes"
        }
      ],
      "name": "setConfig",
      "outputs": [],
      "stateMutability": "nonpayable",
      "type": "function"
    },
    {
      "inputs": [
        {
          "internalType": "uint16",
          "name": "_dstChainId",
          "type": "uint16"
        },
        {
          "internalType": "uint256",
          "name": "_dstChainIdToBatchLimit",
          "type": "uint256"
        }
      ],
      "name": "setDstChainIdToBatchLimit",
      "outputs": [],
      "stateMutability": "nonpayable",
      "type": "function"
    },
    {
      "inputs": [
        {
          "internalType": "uint16",
          "name": "_dstChainId",
          "type": "uint16"
        },
        {
          "internalType": "uint256",
          "name": "_dstChainIdToTransferGas",
          "type": "uint256"
        }
      ],
      "name": "setDstChainIdToTransferGas",
      "outputs": [],
      "stateMutability": "nonpayable",
      "type": "function"
    },
    {
      "inputs": [
        {
          "internalType": "uint16",
          "name": "_dstChainId",
          "type": "uint16"
        },
        {
          "internalType": "uint16",
          "name": "_packetType",
          "type": "uint16"
        },
        {
          "internalType": "uint256",
          "name": "_minGas",
          "type": "uint256"
        }
      ],
      "name": "setMinDstGas",
      "outputs": [],
      "stateMutability": "nonpayable",
      "type": "function"
    },
    {
      "inputs": [
        {
          "internalType": "uint256",
          "name": "_minGasToTransferAndStore",
          "type": "uint256"
        }
      ],
      "name": "setMinGasToTransferAndStore",
      "outputs": [],
      "stateMutability": "nonpayable",
      "type": "function"
    },
    {
      "inputs": [
        {
          "internalType": "uint16",
          "name": "_dstChainId",
          "type": "uint16"
        },
        {
          "internalType": "uint256",
          "name": "_size",
          "type": "uint256"
        }
      ],
      "name": "setPayloadSizeLimit",
      "outputs": [],
      "stateMutability": "nonpayable",
      "type": "function"
    },
    {
      "inputs": [
        {
          "internalType": "address",
          "name": "_precrime",
          "type": "address"
        }
      ],
      "name": "setPrecrime",
      "outputs": [],
      "stateMutability": "nonpayable",
      "type": "function"
    },
    {
      "inputs": [
        {
          "internalType": "uint16",
          "name": "_version",
          "type": "uint16"
        }
      ],
      "name": "setReceiveVersion",
      "outputs": [],
      "stateMutability": "nonpayable",
      "type": "function"
    },
    {
      "inputs": [
        {
          "internalType": "uint16",
          "name": "_version",
          "type": "uint16"
        }
      ],
      "name": "setSendVersion",
      "outputs": [],
      "stateMutability": "nonpayable",
      "type": "function"
    },
    {
      "inputs": [
        {
          "internalType": "uint16",
          "name": "_srcChainId",
          "type": "uint16"
        },
        {
          "internalType": "bytes",
          "name": "_path",
          "type": "bytes"
        }
      ],
      "name": "setTrustedRemote",
      "outputs": [],
      "stateMutability": "nonpayable",
      "type": "function"
    },
    {
      "inputs": [
        {
          "internalType": "uint16",
          "name": "_remoteChainId",
          "type": "uint16"
        },
        {
          "internalType": "bytes",
          "name": "_remoteAddress",
          "type": "bytes"
        }
      ],
      "name": "setTrustedRemoteAddress",
      "outputs": [],
      "stateMutability": "nonpayable",
      "type": "function"
    },
    {
      "inputs": [
        {
          "internalType": "bytes32",
          "name": "",
          "type": "bytes32"
        }
      ],
      "name": "storedCredits",
      "outputs": [
        {
          "internalType": "uint16",
          "name": "srcChainId",
          "type": "uint16"
        },
        {
          "internalType": "address",
          "name": "toAddress",
          "type": "address"
        },
        {
          "internalType": "uint256",
          "name": "index",
          "type": "uint256"
        },
        {
          "internalType": "bool",
          "name": "creditsRemain",
          "type": "bool"
        }
      ],
      "stateMutability": "view",
      "type": "function"
    },
    {
      "inputs": [
        {
          "internalType": "bytes4",
          "name": "interfaceId",
          "type": "bytes4"
        }
      ],
      "name": "supportsInterface",
      "outputs": [
        {
          "internalType": "bool",
          "name": "",
          "type": "bool"
        }
      ],
      "stateMutability": "view",
      "type": "function"
    },
    {
      "inputs": [],
      "name": "symbol",
      "outputs": [
        {
          "internalType": "string",
          "name": "",
          "type": "string"
        }
      ],
      "stateMutability": "view",
      "type": "function"
    },
    {
      "inputs": [
        {
          "internalType": "uint256",
          "name": "tokenId",
          "type": "uint256"
        }
      ],
      "name": "tokenURI",
      "outputs": [
        {
          "internalType": "string",
          "name": "",
          "type": "string"
        }
      ],
      "stateMutability": "view",
      "type": "function"
    },
    {
      "inputs": [
        {
          "internalType": "address",
          "name": "from",
          "type": "address"
        },
        {
          "internalType": "address",
          "name": "to",
          "type": "address"
        },
        {
          "internalType": "uint256",
          "name": "tokenId",
          "type": "uint256"
        }
      ],
      "name": "transferFrom",
      "outputs": [],
      "stateMutability": "nonpayable",
      "type": "function"
    },
    {
      "inputs": [
        {
          "internalType": "address",
          "name": "newOwner",
          "type": "address"
        }
      ],
      "name": "transferOwnership",
      "outputs": [],
      "stateMutability": "nonpayable",
      "type": "function"
    },
    {
      "inputs": [
        {
          "internalType": "uint16",
          "name": "",
          "type": "uint16"
        }
      ],
      "name": "trustedRemoteLookup",
      "outputs": [
        {
          "internalType": "bytes",
          "name": "",
          "type": "bytes"
        }
      ],
      "stateMutability": "view",
      "type": "function"
    }
  ],
  "bytecode": "0x608060405234801561001057600080fd5b506143f6806100206000396000f3fe6080604052600436106102e35760003560e01c80638cfd8f5c11610190578063baf3292d116100dc578063df2a5b3b11610095578063f23536411161006f578063f2353641146109bf578063f2fde38b146109df578063f5ecbdbc146109ff578063fa25f9b614610a1f57600080fd5b8063df2a5b3b14610935578063e985e9c514610955578063eb8d72b71461099f57600080fd5b8063baf3292d1461088c578063c4461834146108ac578063c87b56dd146108c2578063cbed8b9c146108e2578063d12473a514610902578063d1deba1f1461092257600080fd5b80639f38369a11610149578063ab3ffb9311610123578063ab3ffb9314610811578063af3fb21c14610824578063b353aaa71461084c578063b88d4fde1461086c57600080fd5b80639f38369a146107b1578063a22cb465146107d1578063a6c3d165146107f157600080fd5b80638cfd8f5c146106e65780638da5cb5b1461071e5780638ffa1f2a1461073c578063950c8a741461075c57806395d89b411461077c5780639ea5d6b11461079157600080fd5b80633d8b38f61161024f578063519056361161020857806366ad5c8a116101e257806366ad5c8a1461067157806370a0823114610691578063715018a6146106b15780637533d788146106c657600080fd5b806351905636146105ef5780635b8c41e6146106025780636352211e1461065157600080fd5b80633d8b38f6146105115780633f1f4fa41461053157806342842e0e1461056c57806342d65a8d1461058c57806348288190146105ac5780634ac3f4ff146105c257600080fd5b80630b4cad4c116102a15780630b4cad4c146103d95780630df37483146103f957806310ddb1371461041957806322a3ecf91461043957806323b872dd146104bc5780632a205e3d146104dc57600080fd5b80621d3567146102e857806301ffc9a71461030a57806306fdde031461033f57806307e0db1714610361578063081812fc14610381578063095ea7b3146103b9575b600080fd5b3480156102f457600080fd5b5061030861030336600461346c565b610a4c565b005b34801561031657600080fd5b5061032a610325366004613515565b610c68565b60405190151581526020015b60405180910390f35b34801561034b57600080fd5b50610354610c8b565b604051610336919061358a565b34801561036d57600080fd5b5061030861037c36600461359d565b610d1e565b34801561038d57600080fd5b506103a161039c3660046135b8565b610d8b565b6040516001600160a01b039091168152602001610336565b3480156103c557600080fd5b506103086103d43660046135f1565b610db3565b3480156103e557600080fd5b506103086103f43660046135b8565b610ec9565b34801561040557600080fd5b5061030861041436600461361d565b610f3c565b34801561042557600080fd5b5061030861043436600461359d565b610f5b565b34801561044557600080fd5b5061048d6104543660046135b8565b60fe6020526000908152604090208054600182015460029092015461ffff821692620100009092046001600160a01b0316919060ff1684565b6040805161ffff90951685526001600160a01b0390931660208501529183015215156060820152608001610336565b3480156104c857600080fd5b506103086104d7366004613639565b610f97565b3480156104e857600080fd5b506104fc6104f736600461374d565b610fc9565b60408051928352602083019190915201610336565b34801561051d57600080fd5b5061032a61052c3660046137db565b610fef565b34801561053d57600080fd5b5061055e61054c36600461359d565b60686020526000908152604090205481565b604051908152602001610336565b34801561057857600080fd5b50610308610587366004613639565b6110bb565b34801561059857600080fd5b506103086105a73660046137db565b6110d6565b3480156105b857600080fd5b5061055e60fb5481565b3480156105ce57600080fd5b5061055e6105dd36600461359d565b60fc6020526000908152604090205481565b6103086105fd36600461382d565b611140565b34801561060e57600080fd5b5061055e61061d3660046138e6565b6097602090815260009384526040808520845180860184018051928152908401958401959095209452929052825290205481565b34801561065d57600080fd5b506103a161066c3660046135b8565b611157565b34801561067d57600080fd5b5061030861068c36600461346c565b6111b8565b34801561069d57600080fd5b5061055e6106ac366004613943565b611294565b3480156106bd57600080fd5b5061030861131b565b3480156106d257600080fd5b506103546106e136600461359d565b61132f565b3480156106f257600080fd5b5061055e610701366004613960565b606760209081526000928352604080842090915290825290205481565b34801561072a57600080fd5b506033546001600160a01b03166103a1565b34801561074857600080fd5b50610308610757366004613993565b6113c9565b34801561076857600080fd5b506069546103a1906001600160a01b031681565b34801561078857600080fd5b50610354611618565b34801561079d57600080fd5b506103086107ac36600461361d565b611628565b3480156107bd57600080fd5b506103546107cc36600461359d565b6116ab565b3480156107dd57600080fd5b506103086107ec3660046139c7565b6117c2565b3480156107fd57600080fd5b5061030861080c3660046137db565b6117d1565b61030861081f366004613a7c565b611864565b34801561083057600080fd5b50610839600181565b60405161ffff9091168152602001610336565b34801561085857600080fd5b506065546103a1906001600160a01b031681565b34801561087857600080fd5b50610308610887366004613b31565b611873565b34801561089857600080fd5b506103086108a7366004613943565b6118a5565b3480156108b857600080fd5b5061055e61271081565b3480156108ce57600080fd5b506103546108dd3660046135b8565b611901565b3480156108ee57600080fd5b506103086108fd366004613b9c565b611974565b34801561090e57600080fd5b5061030861091d36600461361d565b6119ed565b61030861093036600461346c565b611a71565b34801561094157600080fd5b50610308610950366004613c0a565b611c87565b34801561096157600080fd5b5061032a610970366004613c46565b6001600160a01b0391821660009081526101326020908152604080832093909416825291909152205460ff1690565b3480156109ab57600080fd5b506103086109ba3660046137db565b611d39565b3480156109cb57600080fd5b506104fc6109da366004613c7f565b611d93565b3480156109eb57600080fd5b506103086109fa366004613943565b611e41565b348015610a0b57600080fd5b50610354610a1a366004613cf8565b611eba565b348015610a2b57600080fd5b5061055e610a3a36600461359d565b60fd6020526000908152604090205481565b6065546001600160a01b0316336001600160a01b031614610ab45760405162461bcd60e51b815260206004820152601e60248201527f4c7a4170703a20696e76616c696420656e64706f696e742063616c6c6572000060448201526064015b60405180910390fd5b61ffff861660009081526066602052604081208054610ad290613d45565b80601f0160208091040260200160405190810160405280929190818152602001828054610afe90613d45565b8015610b4b5780601f10610b2057610100808354040283529160200191610b4b565b820191906000526020600020905b815481529060010190602001808311610b2e57829003601f168201915b50505050509050805186869050148015610b66575060008151115b8015610b8e575080516020820120604051610b849088908890613d80565b6040518091039020145b610be95760405162461bcd60e51b815260206004820152602660248201527f4c7a4170703a20696e76616c696420736f757263652073656e64696e6720636f6044820152651b9d1c9858dd60d21b6064820152608401610aab565b610c5f8787878080601f01602080910402602001604051908101604052809392919081815260200183838082843760009201919091525050604080516020601f8a018190048102820181019092528881528a935091508890889081908401838280828437600092019190915250611f4f92505050565b50505050505050565b60006001600160e01b031982161580610c855750610c8582611fc8565b92915050565b606061012d8054610c9b90613d45565b80601f0160208091040260200160405190810160405280929190818152602001828054610cc790613d45565b8015610d145780601f10610ce957610100808354040283529160200191610d14565b820191906000526020600020905b815481529060010190602001808311610cf757829003601f168201915b5050505050905090565b610d26612008565b6065546040516307e0db1760e01b815261ffff831660048201526001600160a01b03909116906307e0db17906024015b600060405180830381600087803b158015610d7057600080fd5b505af1158015610d84573d6000803e3d6000fd5b5050505050565b6000610d9682612062565b50600090815261013160205260409020546001600160a01b031690565b6000610dbe82611157565b9050806001600160a01b0316836001600160a01b03161415610e2c5760405162461bcd60e51b815260206004820152602160248201527f4552433732313a20617070726f76616c20746f2063757272656e74206f776e656044820152603960f91b6064820152608401610aab565b336001600160a01b0382161480610e485750610e488133610970565b610eba5760405162461bcd60e51b815260206004820152603e60248201527f4552433732313a20617070726f76652063616c6c6572206973206e6f7420746f60448201527f6b656e206f776e6572206e6f7220617070726f76656420666f7220616c6c00006064820152608401610aab565b610ec483836120b2565b505050565b610ed1612008565b60008111610f375760405162461bcd60e51b815260206004820152602d60248201527f4f4e46543732313a206d696e476173546f5472616e73666572416e6453746f7260448201526c065206d757374206265203e203609c1b6064820152608401610aab565b60fb55565b610f44612008565b61ffff909116600090815260686020526040902055565b610f63612008565b6065546040516310ddb13760e01b815261ffff831660048201526001600160a01b03909116906310ddb13790602401610d56565b610fa2335b82612121565b610fbe5760405162461bcd60e51b8152600401610aab90613d90565b610ec48383836121a0565b600080610fe18787610fda8861233f565b8787611d93565b915091509550959350505050565b61ffff83166000908152606660205260408120805482919061101090613d45565b80601f016020809104026020016040519081016040528092919081815260200182805461103c90613d45565b80156110895780601f1061105e57610100808354040283529160200191611089565b820191906000526020600020905b81548152906001019060200180831161106c57829003601f168201915b5050505050905083836040516110a0929190613d80565b60405180910390208180519060200120149150509392505050565b610ec483838360405180602001604052806000815250611873565b6110de612008565b6065546040516342d65a8d60e01b81526001600160a01b03909116906342d65a8d9061111290869086908690600401613e07565b600060405180830381600087803b15801561112c57600080fd5b505af1158015610c5f573d6000803e3d6000fd5b610c5f87878761114f8861233f565b87878761238a565b600081815261012f60205260408120546001600160a01b031680610c855760405162461bcd60e51b8152602060048201526018602482015277115490cdcc8c4e881a5b9d985b1a59081d1bdad95b88125160421b6044820152606401610aab565b3330146112165760405162461bcd60e51b815260206004820152602660248201527f4e6f6e626c6f636b696e674c7a4170703a2063616c6c6572206d7573742062656044820152650204c7a4170760d41b6064820152608401610aab565b61128c8686868080601f01602080910402602001604051908101604052809392919081815260200183838082843760009201919091525050604080516020601f89018190048102820181019092528781528993509150879087908190840183828082843760009201919091525061257192505050565b505050505050565b60006001600160a01b0382166112fe5760405162461bcd60e51b815260206004820152602960248201527f4552433732313a2061646472657373207a65726f206973206e6f7420612076616044820152683634b21037bbb732b960b91b6064820152608401610aab565b506001600160a01b03166000908152610130602052604090205490565b611323612008565b61132d60006126c8565b565b6066602052600090815260409020805461134890613d45565b80601f016020809104026020016040519081016040528092919081815260200182805461137490613d45565b80156113c15780601f10611396576101008083540402835291602001916113c1565b820191906000526020600020905b8154815290600101906020018083116113a457829003601f168201915b505050505081565b8051602080830191909120600081815260fe90925260409091206002015460ff166114365760405162461bcd60e51b815260206004820152601a60248201527f4f4e46543732313a206e6f20637265646974732073746f7265640000000000006044820152606401610aab565b60008280602001905181019061144c9190613e6a565b600084815260fe6020526040812080546001909101549294509092506114889161ffff8216916201000090046001600160a01b0316908561271a565b600084815260fe602052604090206001015490915081116115065760405162461bcd60e51b815260206004820152603260248201527f4f4e46543732313a206e6f7420656e6f7567682067617320746f2070726f636560448201527139b99031b932b234ba103a3930b739b332b960711b6064820152608401610aab565b815181141561157e57600083815260fe602052604080822080546001600160b01b031916815560018101929092556002909101805460ff19169055517fd7be02b8dd0d27bd0517a9cb4d7469ce27df4313821ae5ec1ff69acc594ba233906115719085815260200190565b60405180910390a1611612565b60408051608081018252600085815260fe6020818152848320805461ffff80821687526001600160a01b03620100008084048216868a019081529989018b8152600160608b01818152998f90529790965297519851169096026001600160b01b03199091169690951695909517939093178455915191830191909155516002909101805491151560ff199092169190911790555b50505050565b606061012e8054610c9b90613d45565b611630612008565b600081116116945760405162461bcd60e51b815260206004820152602b60248201527f4f4e46543732313a20647374436861696e4964546f42617463684c696d69742060448201526a06d757374206265203e20360ac1b6064820152608401610aab565b61ffff909116600090815260fc6020526040902055565b61ffff81166000908152606660205260408120805460609291906116ce90613d45565b80601f01602080910402602001604051908101604052809291908181526020018280546116fa90613d45565b80156117475780601f1061171c57610100808354040283529160200191611747565b820191906000526020600020905b81548152906001019060200180831161172a57829003601f168201915b505050505090508051600014156117a05760405162461bcd60e51b815260206004820152601d60248201527f4c7a4170703a206e6f20747275737465642070617468207265636f72640000006044820152606401610aab565b6117bb6000601483516117b39190613f3a565b83919061276c565b9392505050565b6117cd338383612879565b5050565b6117d9612008565b8181306040516020016117ee93929190613f51565b60408051601f1981840301815291815261ffff85166000908152606660209081529190208251611823939192909101906132e9565b507f8c0400cfe2d1199b1a725c78960bcc2a344d869b80590d0f2bd005db15a572ce83838360405161185793929190613e07565b60405180910390a1505050565b610c5f8787878787878761238a565b61187d3383612121565b6118995760405162461bcd60e51b8152600401610aab90613d90565b61161284848484612949565b6118ad612008565b606980546001600160a01b0319166001600160a01b0383169081179091556040519081527f5db758e995a17ec1ad84bdef7e8c3293a0bd6179bcce400dff5d4c3d87db726b9060200160405180910390a150565b606061190c82612062565b600061192360408051602081019091526000815290565b9050600081511161194357604051806020016040528060008152506117bb565b8061194d8461297c565b60405160200161195e929190613f77565b6040516020818303038152906040529392505050565b61197c612008565b6065546040516332fb62e760e21b81526001600160a01b039091169063cbed8b9c906119b49088908890889088908890600401613fa6565b600060405180830381600087803b1580156119ce57600080fd5b505af11580156119e2573d6000803e3d6000fd5b505050505050505050565b6119f5612008565b60008111611a5a5760405162461bcd60e51b815260206004820152602c60248201527f4f4e46543732313a20647374436861696e4964546f5472616e7366657247617360448201526b0206d757374206265203e20360a41b6064820152608401610aab565b61ffff909116600090815260fd6020526040902055565b61ffff86166000908152609760205260408082209051611a949088908890613d80565b90815260408051602092819003830190206001600160401b03871660009081529252902054905080611b145760405162461bcd60e51b815260206004820152602360248201527f4e6f6e626c6f636b696e674c7a4170703a206e6f2073746f726564206d65737360448201526261676560e81b6064820152608401610aab565b808383604051611b25929190613d80565b604051809103902014611b845760405162461bcd60e51b815260206004820152602160248201527f4e6f6e626c6f636b696e674c7a4170703a20696e76616c6964207061796c6f616044820152601960fa1b6064820152608401610aab565b61ffff87166000908152609760205260408082209051611ba79089908990613d80565b90815260408051602092819003830181206001600160401b038916600090815290845282902093909355601f88018290048202830182019052868252611c3f918991899089908190840183828082843760009201919091525050604080516020601f8a018190048102820181019092528881528a93509150889088908190840183828082843760009201919091525061257192505050565b7fc264d91f3adc5588250e1551f547752ca0cfa8f6b530d243b9f9f4cab10ea8e58787878785604051611c76959493929190613fdf565b60405180910390a150505050505050565b611c8f612008565b60008111611cd75760405162461bcd60e51b81526020600482015260156024820152744c7a4170703a20696e76616c6964206d696e47617360581b6044820152606401610aab565b61ffff83811660008181526067602090815260408083209487168084529482529182902085905581519283528201929092529081018290527f9d5c7c0b934da8fefa9c7760c98383778a12dfbfc0c3b3106518f43fb9508ac090606001611857565b611d41612008565b61ffff83166000908152606660205260409020611d5f90838361336d565b507ffa41487ad5d6728f0b19276fa1eddc16558578f5109fc39d2dc33c3230470dab83838360405161185793929190613e07565b60008060008686604051602001611dab929190614055565b60408051601f198184030181529082905260655463040a7bb160e41b83529092506001600160a01b0316906340a7bb1090611df2908b90309086908b908b90600401614083565b6040805180830381865afa158015611e0e573d6000803e3d6000fd5b505050506040513d601f19601f82011682018060405250810190611e3291906140d7565b92509250509550959350505050565b611e49612008565b6001600160a01b038116611eae5760405162461bcd60e51b815260206004820152602660248201527f4f776e61626c653a206e6577206f776e657220697320746865207a65726f206160448201526564647265737360d01b6064820152608401610aab565b611eb7816126c8565b50565b606554604051633d7b2f6f60e21b815261ffff808716600483015285166024820152306044820152606481018390526060916001600160a01b03169063f5ecbdbc90608401600060405180830381865afa158015611f1c573d6000803e3d6000fd5b505050506040513d6000823e601f3d908101601f19168201604052611f4491908101906140fb565b90505b949350505050565b600080611fb25a60966366ad5c8a60e01b89898989604051602401611f77949392919061412f565b60408051601f198184030181529190526020810180516001600160e01b03166001600160e01b03199093169290921790915230929190612a79565b915091508161128c5761128c8686868685612b03565b60006001600160e01b031982166380ac58cd60e01b1480611ff957506001600160e01b03198216635b5e139f60e01b145b80610c855750610c8582612ba0565b6033546001600160a01b0316331461132d5760405162461bcd60e51b815260206004820181905260248201527f4f776e61626c653a2063616c6c6572206973206e6f7420746865206f776e65726044820152606401610aab565b61206b81612bd5565b611eb75760405162461bcd60e51b8152602060048201526018602482015277115490cdcc8c4e881a5b9d985b1a59081d1bdad95b88125160421b6044820152606401610aab565b60008181526101316020526040902080546001600160a01b0319166001600160a01b03841690811790915581906120e882611157565b6001600160a01b03167f8c5be1e5ebec7d5bd14f71427d1e84f3dd0314c0f7b2291e5b200ac8c7c3b92560405160405180910390a45050565b60008061212d83611157565b9050806001600160a01b0316846001600160a01b0316148061217557506001600160a01b038082166000908152610132602090815260408083209388168352929052205460ff165b80611f475750836001600160a01b031661218e84610d8b565b6001600160a01b031614949350505050565b826001600160a01b03166121b382611157565b6001600160a01b0316146122175760405162461bcd60e51b815260206004820152602560248201527f4552433732313a207472616e736665722066726f6d20696e636f72726563742060448201526437bbb732b960d91b6064820152608401610aab565b6001600160a01b0382166122795760405162461bcd60e51b8152602060048201526024808201527f4552433732313a207472616e7366657220746f20746865207a65726f206164646044820152637265737360e01b6064820152608401610aab565b6122846000826120b2565b6001600160a01b0383166000908152610130602052604081208054600192906122ae908490613f3a565b90915550506001600160a01b0382166000908152610130602052604081208054600192906122dd90849061416d565b9091555050600081815261012f602052604080822080546001600160a01b0319166001600160a01b0386811691821790925591518493918716917fddf252ad1be2c89b69c2b068fc378daa952ba7f163c4a11628f55a4df523b3ef91a4505050565b6040805160018082528183019092526060916000919060208083019080368337019050509050828160008151811061237957612379614185565b602090810291909101015292915050565b60008451116123db5760405162461bcd60e51b815260206004820152601a60248201527f4c7a4170703a20746f6b656e4964735b5d20697320656d7074790000000000006044820152606401610aab565b8351600114806123ff575061ffff8616600090815260fc6020526040902054845111155b61245f5760405162461bcd60e51b815260206004820152602b60248201527f4f4e46543732313a2062617463682073697a652065786365656473206473742060448201526a18985d18da081b1a5b5a5d60aa1b6064820152608401610aab565b60005b84518110156124a25761249088888888858151811061248357612483614185565b6020026020010151612bf3565b8061249a8161419b565b915050612462565b50600085856040516020016124b8929190614055565b60405160208183030381529060405290506124fd87600184885160fd60008d61ffff1661ffff168152602001908152602001600020546124f891906141b6565b612cde565b61250b878286868634612dbd565b8560405161251991906141d5565b6040518091039020886001600160a01b03168861ffff167fe1b87c47fdeb4f9cbadbca9df3af7aba453bb6e501075d0440d88125b711522a8860405161255f91906141f1565b60405180910390a45050505050505050565b600080828060200190518101906125889190613e6a565b6014820151919350915060006125a08883838661271a565b905082518110156126745784516020808701919091206040805160808101825261ffff808d1682526001600160a01b03808816838701908152838501888152600160608601818152600089815260fe909a529887902095518654935190941662010000026001600160b01b03199093169390941692909217178355519082015592516002909301805493151560ff199094169390931790925590517f10e0b70d256bccc84b7027506978bd8b68984a870788b93b479def144c839ad79061266a9083908990614204565b60405180910390a1505b816001600160a01b03168760405161268c91906141d5565b60405180910390208961ffff167f5b821db8a46f8ecbe1941ba2f51cfeea9643268b56631f70d45e2a745d9902658660405161255f91906141f1565b603380546001600160a01b038381166001600160a01b0319831681179093556040519116919082907f8be0079c531659141344cd1fd0a4f28419497f9722a3daafe3b4186f6b6457e090600090a35050565b6000825b8251811015611f445760fb545a101561273657611f44565b61275a868685848151811061274d5761274d614185565b6020026020010151612f47565b806127648161419b565b91505061271e565b60608161277a81601f61416d565b10156127b95760405162461bcd60e51b815260206004820152600e60248201526d736c6963655f6f766572666c6f7760901b6044820152606401610aab565b6127c3828461416d565b845110156128075760405162461bcd60e51b8152602060048201526011602482015270736c6963655f6f75744f66426f756e647360781b6044820152606401610aab565b6060821580156128265760405191506000825260208201604052612870565b6040519150601f8416801560200281840101858101878315602002848b0101015b8183101561285f578051835260209283019201612847565b5050858452601f01601f1916604052505b50949350505050565b816001600160a01b0316836001600160a01b031614156128db5760405162461bcd60e51b815260206004820152601960248201527f4552433732313a20617070726f766520746f2063616c6c6572000000000000006044820152606401610aab565b6001600160a01b0383811660008181526101326020908152604080832094871680845294825291829020805460ff191686151590811790915591519182527f17307eab39ab6107e8899845ad3d59bd9653f200f220920489ca2b5937696c31910160405180910390a3505050565b6129548484846121a0565b61296084848484612fa7565b6116125760405162461bcd60e51b8152600401610aab9061421d565b6060816129a05750506040805180820190915260018152600360fc1b602082015290565b8160005b81156129ca57806129b48161419b565b91506129c39050600a83614285565b91506129a4565b6000816001600160401b038111156129e4576129e461367a565b6040519080825280601f01601f191660200182016040528015612a0e576020820181803683370190505b5090505b8415611f4757612a23600183613f3a565b9150612a30600a86614299565b612a3b90603061416d565b60f81b818381518110612a5057612a50614185565b60200101906001600160f81b031916908160001a905350612a72600a86614285565b9450612a12565b6000606060008060008661ffff166001600160401b03811115612a9e57612a9e61367a565b6040519080825280601f01601f191660200182016040528015612ac8576020820181803683370190505b50905060008087516020890160008d8df191503d925086831115612aea578692505b828152826000602083013e909890975095505050505050565b8180519060200120609760008761ffff1661ffff16815260200190815260200160002085604051612b3491906141d5565b9081526040805191829003602090810183206001600160401b0388166000908152915220919091557fe183f33de2837795525b4792ca4cd60535bd77c53b7e7030060bfcf5734d6b0c90612b9190879087908790879087906142ad565b60405180910390a15050505050565b60006001600160e01b031982166322bac5d960e01b1480610c8557506301ffc9a760e01b6001600160e01b0319831614610c85565b600090815261012f60205260409020546001600160a01b0316151590565b612bfc33610f9c565b612c5f5760405162461bcd60e51b815260206004820152602e60248201527f4f4e46543732313a2073656e642063616c6c6572206973206e6f74206f776e6560448201526d1c881b9bdc88185c1c1c9bdd995960921b6064820152608401610aab565b836001600160a01b0316612c7282611157565b6001600160a01b031614612cd35760405162461bcd60e51b815260206004820152602260248201527f4f4e46543732313a2073656e642066726f6d20696e636f7272656374206f776e60448201526132b960f11b6064820152608401610aab565b6116128430836121a0565b6000612ce9836130a2565b61ffff808716600090815260676020908152604080832093891683529290529081205491925090612d1b90849061416d565b905060008111612d6d5760405162461bcd60e51b815260206004820152601a60248201527f4c7a4170703a206d696e4761734c696d6974206e6f74207365740000000000006044820152606401610aab565b8082101561128c5760405162461bcd60e51b815260206004820152601b60248201527f4c7a4170703a20676173206c696d697420697320746f6f206c6f7700000000006044820152606401610aab565b61ffff861660009081526066602052604081208054612ddb90613d45565b80601f0160208091040260200160405190810160405280929190818152602001828054612e0790613d45565b8015612e545780601f10612e2957610100808354040283529160200191612e54565b820191906000526020600020905b815481529060010190602001808311612e3757829003601f168201915b50505050509050805160001415612ec65760405162461bcd60e51b815260206004820152603060248201527f4c7a4170703a2064657374696e6174696f6e20636861696e206973206e6f742060448201526f61207472757374656420736f7572636560801b6064820152608401610aab565b612ed18787516130fe565b60655460405162c5803160e81b81526001600160a01b039091169063c5803100908490612f0c908b9086908c908c908c908c906004016142ff565b6000604051808303818588803b158015612f2557600080fd5b505af1158015612f39573d6000803e3d6000fd5b505050505050505050505050565b612f5081612bd5565b1580612f7c5750612f6081612bd5565b8015612f7c575030612f7182611157565b6001600160a01b0316145b612f8557600080fd5b612f8e81612bd5565b612f9c57610ec4828261316c565b610ec43083836121a0565b60006001600160a01b0384163b1561309a57604051630a85bd0160e11b81526001600160a01b0385169063150b7a0290612feb903390899088908890600401614366565b6020604051808303816000875af1925050508015613026575060408051601f3d908101601f19168201909252613023918101906143a3565b60015b613080573d808015613054576040519150601f19603f3d011682016040523d82523d6000602084013e613059565b606091505b5080516130785760405162461bcd60e51b8152600401610aab9061421d565b805181602001fd5b6001600160e01b031916630a85bd0160e11b149050611f47565b506001611f47565b60006022825110156130f65760405162461bcd60e51b815260206004820152601c60248201527f4c7a4170703a20696e76616c69642061646170746572506172616d73000000006044820152606401610aab565b506022015190565b61ffff82166000908152606860205260409020548061311c57506127105b80821115610ec45760405162461bcd60e51b815260206004820181905260248201527f4c7a4170703a207061796c6f61642073697a6520697320746f6f206c617267656044820152606401610aab565b6117cd82826040518060200160405280600081525061318b83836131b4565b6131986000848484612fa7565b610ec45760405162461bcd60e51b8152600401610aab9061421d565b6001600160a01b03821661320a5760405162461bcd60e51b815260206004820181905260248201527f4552433732313a206d696e7420746f20746865207a65726f20616464726573736044820152606401610aab565b61321381612bd5565b156132605760405162461bcd60e51b815260206004820152601c60248201527f4552433732313a20746f6b656e20616c7265616479206d696e746564000000006044820152606401610aab565b6001600160a01b03821660009081526101306020526040812080546001929061328a90849061416d565b9091555050600081815261012f602052604080822080546001600160a01b0319166001600160a01b03861690811790915590518392907fddf252ad1be2c89b69c2b068fc378daa952ba7f163c4a11628f55a4df523b3ef908290a45050565b8280546132f590613d45565b90600052602060002090601f016020900481019282613317576000855561335d565b82601f1061333057805160ff191683800117855561335d565b8280016001018555821561335d579182015b8281111561335d578251825591602001919060010190613342565b506133699291506133e1565b5090565b82805461337990613d45565b90600052602060002090601f01602090048101928261339b576000855561335d565b82601f106133b45782800160ff1982351617855561335d565b8280016001018555821561335d579182015b8281111561335d5782358255916020019190600101906133c6565b5b8082111561336957600081556001016133e2565b803561ffff8116811461340857600080fd5b919050565b60008083601f84011261341f57600080fd5b5081356001600160401b0381111561343657600080fd5b60208301915083602082850101111561344e57600080fd5b9250929050565b80356001600160401b038116811461340857600080fd5b6000806000806000806080878903121561348557600080fd5b61348e876133f6565b955060208701356001600160401b03808211156134aa57600080fd5b6134b68a838b0161340d565b90975095508591506134ca60408a01613455565b945060608901359150808211156134e057600080fd5b506134ed89828a0161340d565b979a9699509497509295939492505050565b6001600160e01b031981168114611eb757600080fd5b60006020828403121561352757600080fd5b81356117bb816134ff565b60005b8381101561354d578181015183820152602001613535565b838111156116125750506000910152565b60008151808452613576816020860160208601613532565b601f01601f19169290920160200192915050565b6020815260006117bb602083018461355e565b6000602082840312156135af57600080fd5b6117bb826133f6565b6000602082840312156135ca57600080fd5b5035919050565b6001600160a01b0381168114611eb757600080fd5b8035613408816135d1565b6000806040838503121561360457600080fd5b823561360f816135d1565b946020939093013593505050565b6000806040838503121561363057600080fd5b61360f836133f6565b60008060006060848603121561364e57600080fd5b8335613659816135d1565b92506020840135613669816135d1565b929592945050506040919091013590565b634e487b7160e01b600052604160045260246000fd5b604051601f8201601f191681016001600160401b03811182821017156136b8576136b861367a565b604052919050565b60006001600160401b038211156136d9576136d961367a565b50601f01601f191660200190565b600082601f8301126136f857600080fd5b813561370b613706826136c0565b613690565b81815284602083860101111561372057600080fd5b816020850160208301376000918101602001919091529392505050565b8035801515811461340857600080fd5b600080600080600060a0868803121561376557600080fd5b61376e866133f6565b945060208601356001600160401b038082111561378a57600080fd5b61379689838a016136e7565b9550604088013594506137ab6060890161373d565b935060808801359150808211156137c157600080fd5b506137ce888289016136e7565b9150509295509295909350565b6000806000604084860312156137f057600080fd5b6137f9846133f6565b925060208401356001600160401b0381111561381457600080fd5b6138208682870161340d565b9497909650939450505050565b600080600080600080600060e0888a03121561384857600080fd5b8735613853816135d1565b9650613861602089016133f6565b955060408801356001600160401b038082111561387d57600080fd5b6138898b838c016136e7565b965060608a0135955060808a013591506138a2826135d1565b90935060a0890135906138b4826135d1565b90925060c089013590808211156138ca57600080fd5b506138d78a828b016136e7565b91505092959891949750929550565b6000806000606084860312156138fb57600080fd5b613904846133f6565b925060208401356001600160401b0381111561391f57600080fd5b61392b868287016136e7565b92505061393a60408501613455565b90509250925092565b60006020828403121561395557600080fd5b81356117bb816135d1565b6000806040838503121561397357600080fd5b61397c836133f6565b915061398a602084016133f6565b90509250929050565b6000602082840312156139a557600080fd5b81356001600160401b038111156139bb57600080fd5b611f47848285016136e7565b600080604083850312156139da57600080fd5b82356139e5816135d1565b915061398a6020840161373d565b60006001600160401b03821115613a0c57613a0c61367a565b5060051b60200190565b600082601f830112613a2757600080fd5b81356020613a37613706836139f3565b82815260059290921b84018101918181019086841115613a5657600080fd5b8286015b84811015613a715780358352918301918301613a5a565b509695505050505050565b600080600080600080600060e0888a031215613a9757600080fd5b8735613aa2816135d1565b9650613ab0602089016133f6565b955060408801356001600160401b0380821115613acc57600080fd5b613ad88b838c016136e7565b965060608a0135915080821115613aee57600080fd5b613afa8b838c01613a16565b955060808a01359150613b0c826135d1565b819450613b1b60a08b016135e6565b935060c08a01359150808211156138ca57600080fd5b60008060008060808587031215613b4757600080fd5b8435613b52816135d1565b93506020850135613b62816135d1565b92506040850135915060608501356001600160401b03811115613b8457600080fd5b613b90878288016136e7565b91505092959194509250565b600080600080600060808688031215613bb457600080fd5b613bbd866133f6565b9450613bcb602087016133f6565b93506040860135925060608601356001600160401b03811115613bed57600080fd5b613bf98882890161340d565b969995985093965092949392505050565b600080600060608486031215613c1f57600080fd5b613c28846133f6565b9250613c36602085016133f6565b9150604084013590509250925092565b60008060408385031215613c5957600080fd5b8235613c64816135d1565b91506020830135613c74816135d1565b809150509250929050565b600080600080600060a08688031215613c9757600080fd5b613ca0866133f6565b945060208601356001600160401b0380821115613cbc57600080fd5b613cc889838a016136e7565b95506040880135915080821115613cde57600080fd5b613cea89838a01613a16565b94506137ab6060890161373d565b60008060008060808587031215613d0e57600080fd5b613d17856133f6565b9350613d25602086016133f6565b92506040850135613d35816135d1565b9396929550929360600135925050565b600181811c90821680613d5957607f821691505b60208210811415613d7a57634e487b7160e01b600052602260045260246000fd5b50919050565b8183823760009101908152919050565b6020808252602e908201527f4552433732313a2063616c6c6572206973206e6f7420746f6b656e206f776e6560408201526d1c881b9bdc88185c1c1c9bdd995960921b606082015260800190565b81835281816020850137506000828201602090810191909152601f909101601f19169091010190565b61ffff84168152604060208201526000611f44604083018486613dde565b600082601f830112613e3657600080fd5b8151613e44613706826136c0565b818152846020838601011115613e5957600080fd5b611f47826020830160208701613532565b60008060408385031215613e7d57600080fd5b82516001600160401b0380821115613e9457600080fd5b613ea086838701613e25565b9350602091508185015181811115613eb757600080fd5b85019050601f81018613613eca57600080fd5b8051613ed8613706826139f3565b81815260059190911b82018301908381019088831115613ef757600080fd5b928401925b82841015613f1557835182529284019290840190613efc565b80955050505050509250929050565b634e487b7160e01b600052601160045260246000fd5b600082821015613f4c57613f4c613f24565b500390565b8284823760609190911b6bffffffffffffffffffffffff19169101908152601401919050565b60008351613f89818460208801613532565b835190830190613f9d818360208801613532565b01949350505050565b600061ffff808816835280871660208401525084604083015260806060830152613fd4608083018486613dde565b979650505050505050565b61ffff86168152608060208201526000613ffd608083018688613dde565b6001600160401b0394909416604083015250606001529392505050565b600081518084526020808501945080840160005b8381101561404a5781518752958201959082019060010161402e565b509495945050505050565b604081526000614068604083018561355e565b828103602084015261407a818561401a565b95945050505050565b61ffff861681526001600160a01b038516602082015260a0604082018190526000906140b19083018661355e565b841515606084015282810360808401526140cb818561355e565b98975050505050505050565b600080604083850312156140ea57600080fd5b505080516020909101519092909150565b60006020828403121561410d57600080fd5b81516001600160401b0381111561412357600080fd5b611f4784828501613e25565b61ffff8516815260806020820152600061414c608083018661355e565b6001600160401b03851660408401528281036060840152613fd4818561355e565b6000821982111561418057614180613f24565b500190565b634e487b7160e01b600052603260045260246000fd5b60006000198214156141af576141af613f24565b5060010190565b60008160001904831182151516156141d0576141d0613f24565b500290565b600082516141e7818460208701613532565b9190910192915050565b6020815260006117bb602083018461401a565b828152604060208201526000611f47604083018461355e565b60208082526032908201527f4552433732313a207472616e7366657220746f206e6f6e20455243373231526560408201527131b2b4bb32b91034b6b83632b6b2b73a32b960711b606082015260800190565b634e487b7160e01b600052601260045260246000fd5b6000826142945761429461426f565b500490565b6000826142a8576142a861426f565b500690565b61ffff8616815260a0602082015260006142ca60a083018761355e565b6001600160401b038616604084015282810360608401526142eb818661355e565b905082810360808401526140cb818561355e565b61ffff8716815260c06020820152600061431c60c083018861355e565b828103604084015261432e818861355e565b6001600160a01b0387811660608601528616608085015283810360a08501529050614359818561355e565b9998505050505050505050565b6001600160a01b03858116825284166020820152604081018390526080606082018190526000906143999083018461355e565b9695505050505050565b6000602082840312156143b557600080fd5b81516117bb816134ff56fea2646970667358221220e420af7f905948c6d50f2b1cafd68ad005ebc4ffe783726774bfd550c5206d5a64736f6c634300080c0033",
  "linkReferences": {},
  "deployedLinkReferences": {}
}