{
  "_format": "hh-sol-artifact-1",
  "contractName": "LZEndpointMock",
  "sourceName": "contracts/mocks/LZEndpointMock.sol",
  "abi": [
    {
      "inputs": [
        {
          "internalType": "uint16",
          "name": "_chainId",
          "type": "uint16"
        }
      ],
      "stateMutability": "nonpayable",
      "type": "constructor"
    },
    {
      "anonymous": false,
      "inputs": [
        {
          "indexed": false,
          "internalType": "uint16",
          "name": "srcChainId",
          "type": "uint16"
        },
        {
          "indexed": false,
          "internalType": "bytes",
          "name": "srcAddress",
          "type": "bytes"
        },
        {
          "indexed": false,
          "internalType": "uint64",
          "name": "nonce",
          "type": "uint64"
        },
        {
          "indexed": false,
          "internalType": "address",
          "name": "dstAddress",
          "type": "address"
        }
      ],
      "name": "PayloadCleared",
      "type": "event"
    },
    {
      "anonymous": false,
      "inputs": [
        {
          "indexed": false,
          "internalType": "uint16",
          "name": "srcChainId",
          "type": "uint16"
        },
        {
          "indexed": false,
          "internalType": "bytes",
          "name": "srcAddress",
          "type": "bytes"
        },
        {
          "indexed": false,
          "internalType": "address",
          "name": "dstAddress",
          "type": "address"
        },
        {
          "indexed": false,
          "internalType": "uint64",
          "name": "nonce",
          "type": "uint64"
        },
        {
          "indexed": false,
          "internalType": "bytes",
          "name": "payload",
          "type": "bytes"
        },
        {
          "indexed": false,
          "internalType": "bytes",
          "name": "reason",
          "type": "bytes"
        }
      ],
      "name": "PayloadStored",
      "type": "event"
    },
    {
      "anonymous": false,
      "inputs": [
        {
          "indexed": false,
          "internalType": "uint16",
          "name": "chainId",
          "type": "uint16"
        },
        {
          "indexed": false,
          "internalType": "bytes",
          "name": "srcAddress",
          "type": "bytes"
        }
      ],
      "name": "UaForceResumeReceive",
      "type": "event"
    },
    {
      "anonymous": false,
      "inputs": [
        {
          "indexed": true,
          "internalType": "address",
          "name": "to",
          "type": "address"
        },
        {
          "indexed": true,
          "internalType": "uint256",
          "name": "quantity",
          "type": "uint256"
        }
      ],
      "name": "ValueTransferFailed",
      "type": "event"
    },
    {
      "inputs": [],
      "name": "blockNextMsg",
      "outputs": [],
      "stateMutability": "nonpayable",
      "type": "function"
    },
    {
      "inputs": [],
      "name": "defaultAdapterParams",
      "outputs": [
        {
          "internalType": "bytes",
          "name": "",
          "type": "bytes"
        }
      ],
      "stateMutability": "view",
      "type": "function"
    },
    {
      "inputs": [
        {
          "internalType": "uint16",
          "name": "_dstChainId",
          "type": "uint16"
        },
        {
          "internalType": "address",
          "name": "_userApplication",
          "type": "address"
        },
        {
          "internalType": "bytes",
          "name": "_payload",
          "type": "bytes"
        },
        {
          "internalType": "bool",
          "name": "_payInZRO",
          "type": "bool"
        },
        {
          "internalType": "bytes",
          "name": "_adapterParams",
          "type": "bytes"
        }
      ],
      "name": "estimateFees",
      "outputs": [
        {
          "internalType": "uint256",
          "name": "nativeFee",
          "type": "uint256"
        },
        {
          "internalType": "uint256",
          "name": "zroFee",
          "type": "uint256"
        }
      ],
      "stateMutability": "view",
      "type": "function"
    },
    {
      "inputs": [
        {
          "internalType": "uint16",
          "name": "_srcChainId",
          "type": "uint16"
        },
        {
          "internalType": "bytes",
          "name": "_path",
          "type": "bytes"
        }
      ],
      "name": "forceResumeReceive",
      "outputs": [],
      "stateMutability": "nonpayable",
      "type": "function"
    },
    {
      "inputs": [],
      "name": "getChainId",
      "outputs": [
        {
          "internalType": "uint16",
          "name": "",
          "type": "uint16"
        }
      ],
      "stateMutability": "view",
      "type": "function"
    },
    {
      "inputs": [
        {
          "internalType": "uint16",
          "name": "",
          "type": "uint16"
        },
        {
          "internalType": "uint16",
          "name": "",
          "type": "uint16"
        },
        {
          "internalType": "address",
          "name": "",
          "type": "address"
        },
        {
          "internalType": "uint256",
          "name": "",
          "type": "uint256"
        }
      ],
      "name": "getConfig",
      "outputs": [
        {
          "internalType": "bytes",
          "name": "",
          "type": "bytes"
        }
      ],
      "stateMutability": "pure",
      "type": "function"
    },
    {
      "inputs": [
        {
          "internalType": "uint16",
          "name": "_chainID",
          "type": "uint16"
        },
        {
          "internalType": "bytes",
          "name": "_path",
          "type": "bytes"
        }
      ],
      "name": "getInboundNonce",
      "outputs": [
        {
          "internalType": "uint64",
          "name": "",
          "type": "uint64"
        }
      ],
      "stateMutability": "view",
      "type": "function"
    },
    {
      "inputs": [
        {
          "internalType": "uint16",
          "name": "_srcChainId",
          "type": "uint16"
        },
        {
          "internalType": "bytes",
          "name": "_srcAddress",
          "type": "bytes"
        }
      ],
      "name": "getLengthOfQueue",
      "outputs": [
        {
          "internalType": "uint256",
          "name": "",
          "type": "uint256"
        }
      ],
      "stateMutability": "view",
      "type": "function"
    },
    {
      "inputs": [
        {
          "internalType": "uint16",
          "name": "_chainID",
          "type": "uint16"
        },
        {
          "internalType": "address",
          "name": "_srcAddress",
          "type": "address"
        }
      ],
      "name": "getOutboundNonce",
      "outputs": [
        {
          "internalType": "uint64",
          "name": "",
          "type": "uint64"
        }
      ],
      "stateMutability": "view",
      "type": "function"
    },
    {
      "inputs": [
        {
          "internalType": "address",
          "name": "",
          "type": "address"
        }
      ],
      "name": "getReceiveLibraryAddress",
      "outputs": [
        {
          "internalType": "address",
          "name": "",
          "type": "address"
        }
      ],
      "stateMutability": "view",
      "type": "function"
    },
    {
      "inputs": [
        {
          "internalType": "address",
          "name": "",
          "type": "address"
        }
      ],
      "name": "getReceiveVersion",
      "outputs": [
        {
          "internalType": "uint16",
          "name": "",
          "type": "uint16"
        }
      ],
      "stateMutability": "pure",
      "type": "function"
    },
    {
      "inputs": [
        {
          "internalType": "address",
          "name": "",
          "type": "address"
        }
      ],
      "name": "getSendLibraryAddress",
      "outputs": [
        {
          "internalType": "address",
          "name": "",
          "type": "address"
        }
      ],
      "stateMutability": "view",
      "type": "function"
    },
    {
      "inputs": [
        {
          "internalType": "address",
          "name": "",
          "type": "address"
        }
      ],
      "name": "getSendVersion",
      "outputs": [
        {
          "internalType": "uint16",
          "name": "",
          "type": "uint16"
        }
      ],
      "stateMutability": "pure",
      "type": "function"
    },
    {
      "inputs": [
        {
          "internalType": "uint16",
          "name": "_srcChainId",
          "type": "uint16"
        },
        {
          "internalType": "bytes",
          "name": "_path",
          "type": "bytes"
        }
      ],
      "name": "hasStoredPayload",
      "outputs": [
        {
          "internalType": "bool",
          "name": "",
          "type": "bool"
        }
      ],
      "stateMutability": "view",
      "type": "function"
    },
    {
      "inputs": [
        {
          "internalType": "uint16",
          "name": "",
          "type": "uint16"
        },
        {
          "internalType": "bytes",
          "name": "",
          "type": "bytes"
        }
      ],
      "name": "inboundNonce",
      "outputs": [
        {
          "internalType": "uint64",
          "name": "",
          "type": "uint64"
        }
      ],
      "stateMutability": "view",
      "type": "function"
    },
    {
      "inputs": [],
      "name": "isReceivingPayload",
      "outputs": [
        {
          "internalType": "bool",
          "name": "",
          "type": "bool"
        }
      ],
      "stateMutability": "view",
      "type": "function"
    },
    {
      "inputs": [],
      "name": "isSendingPayload",
      "outputs": [
        {
          "internalType": "bool",
          "name": "",
          "type": "bool"
        }
      ],
      "stateMutability": "view",
      "type": "function"
    },
    {
      "inputs": [
        {
          "internalType": "address",
          "name": "",
          "type": "address"
        }
      ],
      "name": "lzEndpointLookup",
      "outputs": [
        {
          "internalType": "address",
          "name": "",
          "type": "address"
        }
      ],
      "stateMutability": "view",
      "type": "function"
    },
    {
      "inputs": [],
      "name": "mockChainId",
      "outputs": [
        {
          "internalType": "uint16",
          "name": "",
          "type": "uint16"
        }
      ],
      "stateMutability": "view",
      "type": "function"
    },
    {
      "inputs": [
        {
          "internalType": "uint16",
          "name": "",
          "type": "uint16"
        },
        {
          "internalType": "bytes",
          "name": "",
          "type": "bytes"
        },
        {
          "internalType": "uint256",
          "name": "",
          "type": "uint256"
        }
      ],
      "name": "msgsToDeliver",
      "outputs": [
        {
          "internalType": "address",
          "name": "dstAddress",
          "type": "address"
        },
        {
          "internalType": "uint64",
          "name": "nonce",
          "type": "uint64"
        },
        {
          "internalType": "bytes",
          "name": "payload",
          "type": "bytes"
        }
      ],
      "stateMutability": "view",
      "type": "function"
    },
    {
      "inputs": [],
      "name": "nextMsgBlocked",
      "outputs": [
        {
          "internalType": "bool",
          "name": "",
          "type": "bool"
        }
      ],
      "stateMutability": "view",
      "type": "function"
    },
    {
      "inputs": [],
      "name": "oracleFee",
      "outputs": [
        {
          "internalType": "uint256",
          "name": "",
          "type": "uint256"
        }
      ],
      "stateMutability": "view",
      "type": "function"
    },
    {
      "inputs": [
        {
          "internalType": "uint16",
          "name": "",
          "type": "uint16"
        },
        {
          "internalType": "address",
          "name": "",
          "type": "address"
        }
      ],
      "name": "outboundNonce",
      "outputs": [
        {
          "internalType": "uint64",
          "name": "",
          "type": "uint64"
        }
      ],
      "stateMutability": "view",
      "type": "function"
    },
    {
      "inputs": [],
      "name": "protocolFeeConfig",
      "outputs": [
        {
          "internalType": "uint256",
          "name": "zroFee",
          "type": "uint256"
        },
        {
          "internalType": "uint256",
          "name": "nativeBP",
          "type": "uint256"
        }
      ],
      "stateMutability": "view",
      "type": "function"
    },
    {
      "inputs": [
        {
          "internalType": "uint16",
          "name": "_srcChainId",
          "type": "uint16"
        },
        {
          "internalType": "bytes",
          "name": "_path",
          "type": "bytes"
        },
        {
          "internalType": "address",
          "name": "_dstAddress",
          "type": "address"
        },
        {
          "internalType": "uint64",
          "name": "_nonce",
          "type": "uint64"
        },
        {
          "internalType": "uint256",
          "name": "_gasLimit",
          "type": "uint256"
        },
        {
          "internalType": "bytes",
          "name": "_payload",
          "type": "bytes"
        }
      ],
      "name": "receivePayload",
      "outputs": [],
      "stateMutability": "nonpayable",
      "type": "function"
    },
    {
      "inputs": [],
      "name": "relayerFeeConfig",
      "outputs": [
        {
          "internalType": "uint128",
          "name": "dstPriceRatio",
          "type": "uint128"
        },
        {
          "internalType": "uint128",
          "name": "dstGasPriceInWei",
          "type": "uint128"
        },
        {
          "internalType": "uint128",
          "name": "dstNativeAmtCap",
          "type": "uint128"
        },
        {
          "internalType": "uint64",
          "name": "baseGas",
          "type": "uint64"
        },
        {
          "internalType": "uint64",
          "name": "gasPerByte",
          "type": "uint64"
        }
      ],
      "stateMutability": "view",
      "type": "function"
    },
    {
      "inputs": [
        {
          "internalType": "uint16",
          "name": "_srcChainId",
          "type": "uint16"
        },
        {
          "internalType": "bytes",
          "name": "_path",
          "type": "bytes"
        },
        {
          "internalType": "bytes",
          "name": "_payload",
          "type": "bytes"
        }
      ],
      "name": "retryPayload",
      "outputs": [],
      "stateMutability": "nonpayable",
      "type": "function"
    },
    {
      "inputs": [
        {
          "internalType": "uint16",
          "name": "_chainId",
          "type": "uint16"
        },
        {
          "internalType": "bytes",
          "name": "_path",
          "type": "bytes"
        },
        {
          "internalType": "bytes",
          "name": "_payload",
          "type": "bytes"
        },
        {
          "internalType": "address payable",
          "name": "_refundAddress",
          "type": "address"
        },
        {
          "internalType": "address",
          "name": "_zroPaymentAddress",
          "type": "address"
        },
        {
          "internalType": "bytes",
          "name": "_adapterParams",
          "type": "bytes"
        }
      ],
      "name": "send",
      "outputs": [],
      "stateMutability": "payable",
      "type": "function"
    },
    {
      "inputs": [
        {
          "internalType": "uint16",
          "name": "",
          "type": "uint16"
        },
        {
          "internalType": "uint16",
          "name": "",
          "type": "uint16"
        },
        {
          "internalType": "uint256",
          "name": "",
          "type": "uint256"
        },
        {
          "internalType": "bytes",
          "name": "",
          "type": "bytes"
        }
      ],
      "name": "setConfig",
      "outputs": [],
      "stateMutability": "nonpayable",
      "type": "function"
    },
    {
      "inputs": [
        {
          "internalType": "bytes",
          "name": "_adapterParams",
          "type": "bytes"
        }
      ],
      "name": "setDefaultAdapterParams",
      "outputs": [],
      "stateMutability": "nonpayable",
      "type": "function"
    },
    {
      "inputs": [
        {
          "internalType": "address",
          "name": "destAddr",
          "type": "address"
        },
        {
          "internalType": "address",
          "name": "lzEndpointAddr",
          "type": "address"
        }
      ],
      "name": "setDestLzEndpoint",
      "outputs": [],
      "stateMutability": "nonpayable",
      "type": "function"
    },
    {
      "inputs": [
        {
          "internalType": "uint256",
          "name": "_oracleFee",
          "type": "uint256"
        }
      ],
      "name": "setOracleFee",
      "outputs": [],
      "stateMutability": "nonpayable",
      "type": "function"
    },
    {
      "inputs": [
        {
          "internalType": "uint256",
          "name": "_zroFee",
          "type": "uint256"
        },
        {
          "internalType": "uint256",
          "name": "_nativeBP",
          "type": "uint256"
        }
      ],
      "name": "setProtocolFee",
      "outputs": [],
      "stateMutability": "nonpayable",
      "type": "function"
    },
    {
      "inputs": [
        {
          "internalType": "uint16",
          "name": "",
          "type": "uint16"
        }
      ],
      "name": "setReceiveVersion",
      "outputs": [],
      "stateMutability": "nonpayable",
      "type": "function"
    },
    {
      "inputs": [
        {
          "internalType": "uint128",
          "name": "_dstPriceRatio",
          "type": "uint128"
        },
        {
          "internalType": "uint128",
          "name": "_dstGasPriceInWei",
          "type": "uint128"
        },
        {
          "internalType": "uint128",
          "name": "_dstNativeAmtCap",
          "type": "uint128"
        },
        {
          "internalType": "uint64",
          "name": "_baseGas",
          "type": "uint64"
        },
        {
          "internalType": "uint64",
          "name": "_gasPerByte",
          "type": "uint64"
        }
      ],
      "name": "setRelayerPrice",
      "outputs": [],
      "stateMutability": "nonpayable",
      "type": "function"
    },
    {
      "inputs": [
        {
          "internalType": "uint16",
          "name": "",
          "type": "uint16"
        }
      ],
      "name": "setSendVersion",
      "outputs": [],
      "stateMutability": "nonpayable",
      "type": "function"
    },
    {
      "inputs": [
        {
          "internalType": "uint16",
          "name": "",
          "type": "uint16"
        },
        {
          "internalType": "bytes",
          "name": "",
          "type": "bytes"
        }
      ],
      "name": "storedPayload",
      "outputs": [
        {
          "internalType": "uint64",
          "name": "payloadLength",
          "type": "uint64"
        },
        {
          "internalType": "address",
          "name": "dstAddress",
          "type": "address"
        },
        {
          "internalType": "bytes32",
          "name": "payloadHash",
          "type": "bytes32"
        }
      ],
      "stateMutability": "view",
      "type": "function"
    }
  ],
  "bytecode": "0x6080604052600c805461ffff19166101011790553480156200002057600080fd5b50604051620030b7380380620030b78339810160408190526200004391620001f7565b6001805461ffff191661ffff83161781556040805160a0810182526402540be400808252602080830191909152678ac7230489e8000082840152606460608301526080909101929092527402540be400000000000000000000000002540be4006002557801000000000000006400000000000000008ac7230489e800006003558051808201909152670de0b6b3a76400008082526103e8918301829052600455600555662386f26fc100006006556200010a9062030d409062000128811b62001c9d17901c565b8051620001209160079160209091019062000151565b505062000261565b60408051600160f01b602082015260228082019390935281518082039093018352604201905290565b8280546200015f9062000224565b90600052602060002090601f016020900481019282620001835760008555620001ce565b82601f106200019e57805160ff1916838001178555620001ce565b82800160010185558215620001ce579182015b82811115620001ce578251825591602001919060010190620001b1565b50620001dc929150620001e0565b5090565b5b80821115620001dc5760008155600101620001e1565b6000602082840312156200020a57600080fd5b815161ffff811681146200021d57600080fd5b9392505050565b600181811c908216806200023957607f821691505b602082108114156200025b57634e487b7160e01b600052602260045260246000fd5b50919050565b612e4680620002716000396000f3fe60806040526004361061021a5760003560e01c80639924d33b11610123578063ca066b35116100ab578063e97a448a1161006f578063e97a448a1461083c578063f5ecbdbc14610858578063f9cd3ceb1461088a578063fbba623b146108a0578063fdc07c70146108c057600080fd5b8063ca066b35146107bc578063cbed8b9c146107dd578063d23104f1146107fe578063da1a7c9a14610274578063db14f3051461082157600080fd5b8063b6d9ef60116100f2578063b6d9ef60146106ea578063c08f15a11461070a578063c2fa481314610753578063c580310014610773578063c81b383a1461078657600080fd5b80639924d33b146106375780639c729da11461043e578063aaff5f1614610689578063b2086499146106a957600080fd5b80633408e470116101a657806371ba2fd61161017557806371ba2fd61461043e57806376a386dc146104765780637a1457481461050f5780637f6df8e614610579578063907c5e7e146105a757600080fd5b80633408e470146103c55780633e0dd83e146103de57806340a7bb10146103fe57806342d65a8d1461041e57600080fd5b806310ddb137116101ed57806310ddb1371461025457806312a9ee6b146102d8578063240de27714610307578063272bd3841461032d5780632c365e251461034f57600080fd5b806307d3277f1461021f57806307e0db1714610254578063096568f6146102745780630eaf6ea6146102a8575b600080fd5b34801561022b57600080fd5b5060045460055461023a919082565b604080519283526020830191909152015b60405180910390f35b34801561026057600080fd5b5061027261026f366004612315565b50565b005b34801561028057600080fd5b5061029561028f366004612345565b50600190565b60405161ffff909116815260200161024b565b3480156102b457600080fd5b506102c86102c33660046123aa565b6108e0565b604051901515815260200161024b565b3480156102e457600080fd5b506102f86102f336600461249e565b610926565b60405161024b93929190612541565b34801561031357600080fd5b5061027261032236600461257d565b600491909155600555565b34801561033957600080fd5b50610342610a23565b60405161024b919061259f565b34801561035b57600080fd5b5061027261036a3660046125e0565b6001600160801b03948516600160801b94861685021760025560038054939095166001600160c01b0319909316929092176001600160401b03918216909302929092176001600160c01b0316600160c01b9190921602179055565b3480156103d157600080fd5b5060015461ffff16610295565b3480156103ea57600080fd5b506001546102c89062010000900460ff1681565b34801561040a57600080fd5b5061023a610419366004612645565b610ab1565b34801561042a57600080fd5b506102726104393660046123aa565b610bb0565b34801561044a57600080fd5b5061045e610459366004612345565b503090565b6040516001600160a01b03909116815260200161024b565b34801561048257600080fd5b506104e26104913660046126e5565b600a6020908152600092835260409092208151808301840180519281529084019290930191909120915280546001909101546001600160401b03821691600160401b90046001600160a01b03169083565b604080516001600160401b0390941684526001600160a01b0390921660208401529082015260600161024b565b34801561051b57600080fd5b5061056161052a366004612732565b61ffff821660009081526009602090815260408083206001600160a01b03851684529091529020546001600160401b031692915050565b6040516001600160401b03909116815260200161024b565b34801561058557600080fd5b506105996105943660046123aa565b610cf7565b60405190815260200161024b565b3480156105b357600080fd5b506002546003546105f3916001600160801b0380821692600160801b92839004821692918116916001600160401b03908204811691600160c01b90041685565b604080516001600160801b039687168152948616602086015292909416918301919091526001600160401b039081166060830152909116608082015260a00161024b565b34801561064357600080fd5b506105616106523660046126e5565b600860209081526000928352604090922081518083018401805192815290840192909301919091209152546001600160401b031681565b34801561069557600080fd5b506102726106a4366004612769565b610d33565b3480156106b557600080fd5b506105616106c4366004612732565b60096020908152600092835260408084209091529082529020546001600160401b031681565b3480156106f657600080fd5b506102726107053660046127e9565b600655565b34801561071657600080fd5b50610272610725366004612802565b6001600160a01b03918216600090815260208190526040902080546001600160a01b03191691909216179055565b34801561075f57600080fd5b5061027261076e366004612820565b610f49565b6102726107813660046128cf565b6116a6565b34801561079257600080fd5b5061045e6107a1366004612345565b6000602081905290815260409020546001600160a01b031681565b3480156107c857600080fd5b506102c8600c54610100900460ff1660021490565b3480156107e957600080fd5b506102726107f8366004612996565b50505050565b34801561080a57600080fd5b506102726001805462ff0000191662010000179055565b34801561082d57600080fd5b506001546102959061ffff1681565b34801561084857600080fd5b506102c8600c5460ff1660021490565b34801561086457600080fd5b506103426108733660046129fd565b604080516020810190915260008152949350505050565b34801561089657600080fd5b5061059960065481565b3480156108ac57600080fd5b506102726108bb366004612a4a565b611c41565b3480156108cc57600080fd5b506105616108db3660046123aa565b611c58565b61ffff83166000908152600a602052604080822090518291906109069086908690612a86565b9081526040519081900360200190206001015415159150505b9392505050565b600b602090815260008481526040902083518085018301805192815290830192850192909220915280548290811061095d57600080fd5b6000918252602090912060029091020180546001820180546001600160a01b0383169650600160a01b9092046001600160401b031694509192506109a090612a96565b80601f01602080910402602001604051908101604052809291908181526020018280546109cc90612a96565b8015610a195780601f106109ee57610100808354040283529160200191610a19565b820191906000526020600020905b8154815290600101906020018083116109fc57829003601f168201915b5050505050905083565b60078054610a3090612a96565b80601f0160208091040260200160405190810160405280929190818152602001828054610a5c90612a96565b8015610aa95780601f10610a7e57610100808354040283529160200191610aa9565b820191906000526020600020905b815481529060010190602001808311610a8c57829003601f168201915b505050505081565b600080600080845111610b4e5760078054610acb90612a96565b80601f0160208091040260200160405190810160405280929190818152602001828054610af790612a96565b8015610b445780601f10610b1957610100808354040283529160200191610b44565b820191906000526020600020905b815481529060010190602001808311610b2757829003601f168201915b5050505050610b50565b835b90506000610b638960018a8a5186611cc6565b90506000610b748783600654611e60565b905086610b845780945084610b89565b809350835b50600654610b978387612ae7565b610ba19190612ae7565b94505050509550959350505050565b61ffff83166000908152600a60205260408082209051610bd39085908590612a86565b9081526040519081900360200190206001810154909150610c3b5760405162461bcd60e51b815260206004820181905260248201527f4c617965725a65726f4d6f636b3a206e6f2073746f726564207061796c6f616460448201526064015b60405180910390fd5b8054600160401b90046001600160a01b03163314610c9b5760405162461bcd60e51b815260206004820152601d60248201527f4c617965725a65726f4d6f636b3a20696e76616c69642063616c6c65720000006044820152606401610c32565b80546001600160e01b0319168155600060018201556040517f23d2684f396e92a6e2ff2d16f98e6fea00d50cb27a64b531bc0748f730211f9890610ce490869086908690612b28565b60405180910390a16107f8848484611e9d565b61ffff83166000908152600b60205260408082209051610d1a9085908590612a86565b9081526040519081900360200190205490509392505050565b61ffff85166000908152600a60205260408082209051610d569087908790612a86565b9081526040519081900360200190206001810154909150610db95760405162461bcd60e51b815260206004820181905260248201527f4c617965725a65726f4d6f636b3a206e6f2073746f726564207061796c6f61646044820152606401610c32565b80546001600160401b031682148015610dec575080600101548383604051610de2929190612a86565b6040518091039020145b610e385760405162461bcd60e51b815260206004820152601e60248201527f4c617965725a65726f4d6f636b3a20696e76616c6964207061796c6f616400006044820152606401610c32565b80546001600160e01b03198116825560006001830181905561ffff88168152600860205260408082209051600160401b9093046001600160a01b031692610e829089908990612a86565b90815260405190819003602001812054621d356760e01b82526001600160401b031691506001600160a01b03831690621d356790610ece908b908b908b9087908c908c90600401612b46565b600060405180830381600087803b158015610ee857600080fd5b505af1158015610efc573d6000803e3d6000fd5b505050507f612434f39581c8e7d99746c9c20c6eb0ce8c0eb99f007c5719d620841370957d8888888486604051610f37959493929190612b93565b60405180910390a15050505050505050565b600c54610100900460ff16600114610faf5760405162461bcd60e51b8152602060048201526024808201527f4c617965725a65726f4d6f636b3a206e6f2072656365697665207265656e7472604482015263616e637960e01b6064820152608401610c32565b600c805461ff00191661020017905561ffff88166000908152600a60205260408082209051610fe1908a908a90612a86565b90815260200160405180910390209050600860008a61ffff1661ffff168152602001908152602001600020888860405161101c929190612a86565b9081526040519081900360200190208054600090611042906001600160401b0316612bdc565b91906101000a8154816001600160401b0302191690836001600160401b0316021790556001600160401b0316856001600160401b0316146110c55760405162461bcd60e51b815260206004820152601a60248201527f4c617965725a65726f4d6f636b3a2077726f6e67206e6f6e63650000000000006044820152606401610c32565b6001810154156113b95761ffff89166000908152600b602052604080822090516110f2908b908b90612a86565b9081526020016040518091039020905060006040518060600160405280896001600160a01b03168152602001886001600160401b0316815260200186868080601f016020809104026020016040519081016040528093929190818152602001838380828437600092019190915250505091525082549091501561134357815460018181018455600084815260209081902084516002909402018054828601516001600160401b0316600160a01b026001600160e01b03199091166001600160a01b0390951694909417939093178355604084015180518594936111da939085019201906121b4565b50505060005b82546111ee90600190612c03565b8110156112c15782818154811061120757611207612c1a565b9060005260206000209060020201838260016112239190612ae7565b8154811061123357611233612c1a565b60009182526020909120825460029092020180546001600160a01b039092166001600160a01b031983168117825583546001600160e01b031990931617600160a01b928390046001600160401b0316909202919091178155600180830180549183019161129f90612a96565b6112aa929190612238565b5090505080806112b990612c30565b9150506111e0565b5080826000815481106112d6576112d6612c1a565b600091825260209182902083516002909202018054848401516001600160401b0316600160a01b026001600160e01b03199091166001600160a01b039093169290921791909117815560408301518051919261133a926001850192909101906121b4565b509050506113b2565b815460018181018455600084815260209081902084516002909402018054828601516001600160401b0316600160a01b026001600160e01b03199091166001600160a01b0390951694909417939093178355604084015180518594936113ae939085019201906121b4565b5050505b505061168c565b60015462010000900460ff16156114e7576040518060600160405280848490506001600160401b03168152602001876001600160a01b031681526020018484604051611406929190612a86565b604080519182900390912090915261ffff8b166000908152600a6020528190209051611435908b908b90612a86565b90815260408051918290036020908101832084518154868401516001600160a01b0316600160401b026001600160e01b03199091166001600160401b03909216919091171781559382015160019094019390935591810182526000815290517f0f9e4d95b62f08222d612b5ab92039cd8fbbbea550a95e8df9f927436bbdf5db916114ce918c918c918c918c918c918b918b9190612c4b565b60405180910390a16001805462ff00001916905561168c565b604051621d356760e01b81526001600160a01b03871690621d356790869061151d908d908d908d908c908b908b90600401612b46565b600060405180830381600088803b15801561153757600080fd5b5087f193505050508015611549575060015b61168c573d808015611577576040519150601f19603f3d011682016040523d82523d6000602084013e61157c565b606091505b506040518060600160405280858590506001600160401b03168152602001886001600160a01b0316815260200185856040516115b9929190612a86565b604080519182900390912090915261ffff8c166000908152600a60205281902090516115e8908c908c90612a86565b90815260408051918290036020908101832084518154928601516001600160a01b0316600160401b026001600160e01b03199093166001600160401b03909116179190911781559201516001909201919091557f0f9e4d95b62f08222d612b5ab92039cd8fbbbea550a95e8df9f927436bbdf5db90611676908c908c908c908c908c908b908b908a90612c4b565b60405180910390a1506001805462ff0000191690555b5050600c805461ff00191661010017905550505050505050565b600c5460ff166001146117055760405162461bcd60e51b815260206004820152602160248201527f4c617965725a65726f4d6f636b3a206e6f2073656e64207265656e7472616e636044820152607960f81b6064820152608401610c32565b600c805460ff1916600217905585516028146117785760405162461bcd60e51b815260206004820152602c60248201527f4c617965725a65726f4d6f636b3a20696e636f72726563742072656d6f74652060448201526b616464726573732073697a6560a01b6064820152608401610c32565b60148601516001600160a01b03808216600090815260208190526040902054168061180b5760405162461bcd60e51b815260206004820152603760248201527f4c617965725a65726f4d6f636b3a2064657374696e6174696f6e204c6179657260448201527f5a65726f20456e64706f696e74206e6f7420666f756e640000000000000000006064820152608401610c32565b6000808451116118a5576007805461182290612a96565b80601f016020809104026020016040519081016040528092919081815260200182805461184e90612a96565b801561189b5780601f106118705761010080835404028352916020019161189b565b820191906000526020600020905b81548152906001019060200180831161187e57829003601f168201915b50505050506118a7565b835b905060006118f88b338b8b8080601f0160208091040260200160405190810160405280939291908181526020018383808284376000920191909152505050506001600160a01b038a16151586610ab1565b5090508034101561195d5760405162461bcd60e51b815260206004820152602960248201527f4c617965725a65726f4d6f636b3a206e6f7420656e6f756768206e617469766560448201526820666f72206665657360b81b6064820152608401610c32565b61ffff8b166000908152600960209081526040808320338452909152812080548290611991906001600160401b0316612bdc565b91906101000a8154816001600160401b0302191690836001600160401b0316021790559050600082346119c49190612c03565b90508015611a71576000896001600160a01b03168260405160006040518083038185875af1925050503d8060008114611a19576040519150601f19603f3d011682016040523d82523d6000602084013e611a1e565b606091505b5050905080611a6f5760405162461bcd60e51b815260206004820152601f60248201527f4c617965725a65726f4d6f636b3a206661696c656420746f20726566756e64006044820152606401610c32565b505b6000806000611a7f87612094565b91955093509150508115611b21576000816001600160a01b03168360405160006040518083038185875af1925050503d8060008114611ada576040519150601f19603f3d011682016040523d82523d6000602084013e611adf565b606091505b5050905080611b1f5760405183906001600160a01b038416907f2c7a964ca3de5ec1d42d9822f9bbd0eb142a59cc9f855e9d93813b773192c7a390600090a35b505b6040516bffffffffffffffffffffffff1933606090811b821660208401528b901b166034820152600090604801604051602081830303815290604052905060008f8f8080601f016020809104026020016040519081016040528093929190818152602001838380828437600081840152601f19601f820116905080830192505050505050509050896001600160a01b031663c2fa4813600160009054906101000a900461ffff16848e8b8a876040518763ffffffff1660e01b8152600401611bee96959493929190612cbd565b600060405180830381600087803b158015611c0857600080fd5b505af1158015611c1c573d6000803e3d6000fd5b5050600c805460ff191660011790555050505050505050505050505050505050505050565b8051611c549060079060208401906121b4565b5050565b61ffff83166000908152600860205260408082209051611c7b9085908590612a86565b908152604051908190036020019020546001600160401b031690509392505050565b60408051600160f01b602082015260228082019390935281518082039093018352604201905290565b600080600080611cd585612094565b5092509250925060008361ffff1660021415611d62576003546001600160801b0316821115611d555760405162461bcd60e51b815260206004820152602660248201527f4c617965725a65726f4d6f636b3a206473744e6174697665416d7420746f6f2060448201526503630b933b2960d51b6064820152608401610c32565b611d5f8282612ae7565b90505b600354600090611d83908590600160801b90046001600160401b0316612ae7565b600254611da09190600160801b90046001600160801b0316612d11565b9050611dac8183612ae7565b6002549092506000906402540be40090611dcf906001600160801b031685612d11565b611dd99190612d46565b6002546003549192506000916402540be400916001600160801b0380821692611e1c92600160c01b9091046001600160401b031691600160801b90910416612d5a565b611e269190612d5a565b611e309190612d89565b6001600160801b03169050611e45818b612d11565b611e4f9083612ae7565b9d9c50505050505050505050505050565b60008315611e71575060045461091f565b60055461271090611e828486612ae7565b611e8c9190612d11565b611e969190612d46565b905061091f565b61ffff83166000908152600b60205260408082209051611ec09085908590612a86565b908152602001604051809103902090505b8054156107f85780546000908290611eeb90600190612c03565b81548110611efb57611efb612c1a565b600091825260209182902060408051606081018252600290930290910180546001600160a01b03811684526001600160401b03600160a01b909104169383019390935260018301805492939291840191611f5490612a96565b80601f0160208091040260200160405190810160405280929190818152602001828054611f8090612a96565b8015611fcd5780601f10611fa257610100808354040283529160200191611fcd565b820191906000526020600020905b815481529060010190602001808311611fb057829003601f168201915b505050505081525050905080600001516001600160a01b0316621d3567868686856020015186604001516040518663ffffffff1660e01b8152600401612017959493929190612daf565b600060405180830381600087803b15801561203157600080fd5b505af1158015612045573d6000803e3d6000fd5b505050508180548061205957612059612dfa565b60008281526020812060026000199093019283020180546001600160e01b03191681559061208a60018301826122b3565b5050905550611ed1565b6000806000808451602214806120ab575060428551115b6120ef5760405162461bcd60e51b8152602060048201526015602482015274496e76616c69642061646170746572506172616d7360581b6044820152606401610c32565b60028501519350602285015192508361ffff166001148061211457508361ffff166002145b6121555760405162461bcd60e51b8152602060048201526012602482015271556e737570706f727465642074785479706560701b6044820152606401610c32565b600083116121935760405162461bcd60e51b815260206004820152600b60248201526a47617320746f6f206c6f7760a81b6044820152606401610c32565b8361ffff16600214156121ad575050604283015160568401515b9193509193565b8280546121c090612a96565b90600052602060002090601f0160209004810192826121e25760008555612228565b82601f106121fb57805160ff1916838001178555612228565b82800160010185558215612228579182015b8281111561222857825182559160200191906001019061220d565b506122349291506122e9565b5090565b82805461224490612a96565b90600052602060002090601f0160209004810192826122665760008555612228565b82601f106122775780548555612228565b8280016001018555821561222857600052602060002091601f016020900482015b82811115612228578254825591600101919060010190612298565b5080546122bf90612a96565b6000825580601f106122cf575050565b601f01602090049060005260206000209081019061026f91905b5b8082111561223457600081556001016122ea565b803561ffff8116811461231057600080fd5b919050565b60006020828403121561232757600080fd5b61091f826122fe565b6001600160a01b038116811461026f57600080fd5b60006020828403121561235757600080fd5b813561091f81612330565b60008083601f84011261237457600080fd5b5081356001600160401b0381111561238b57600080fd5b6020830191508360208285010111156123a357600080fd5b9250929050565b6000806000604084860312156123bf57600080fd5b6123c8846122fe565b925060208401356001600160401b038111156123e357600080fd5b6123ef86828701612362565b9497909650939450505050565b634e487b7160e01b600052604160045260246000fd5b600082601f83011261242357600080fd5b81356001600160401b038082111561243d5761243d6123fc565b604051601f8301601f19908116603f01168101908282118183101715612465576124656123fc565b8160405283815286602085880101111561247e57600080fd5b836020870160208301376000602085830101528094505050505092915050565b6000806000606084860312156124b357600080fd5b6124bc846122fe565b925060208401356001600160401b038111156124d757600080fd5b6124e386828701612412565b925050604084013590509250925092565b6000815180845260005b8181101561251a576020818501810151868301820152016124fe565b8181111561252c576000602083870101525b50601f01601f19169290920160200192915050565b6001600160a01b03841681526001600160401b0383166020820152606060408201819052600090612574908301846124f4565b95945050505050565b6000806040838503121561259057600080fd5b50508035926020909101359150565b60208152600061091f60208301846124f4565b80356001600160801b038116811461231057600080fd5b80356001600160401b038116811461231057600080fd5b600080600080600060a086880312156125f857600080fd5b612601866125b2565b945061260f602087016125b2565b935061261d604087016125b2565b925061262b606087016125c9565b9150612639608087016125c9565b90509295509295909350565b600080600080600060a0868803121561265d57600080fd5b612666866122fe565b9450602086013561267681612330565b935060408601356001600160401b038082111561269257600080fd5b61269e89838a01612412565b94506060880135915081151582146126b557600080fd5b909250608087013590808211156126cb57600080fd5b506126d888828901612412565b9150509295509295909350565b600080604083850312156126f857600080fd5b612701836122fe565b915060208301356001600160401b0381111561271c57600080fd5b61272885828601612412565b9150509250929050565b6000806040838503121561274557600080fd5b61274e836122fe565b9150602083013561275e81612330565b809150509250929050565b60008060008060006060868803121561278157600080fd5b61278a866122fe565b945060208601356001600160401b03808211156127a657600080fd5b6127b289838a01612362565b909650945060408801359150808211156127cb57600080fd5b506127d888828901612362565b969995985093965092949392505050565b6000602082840312156127fb57600080fd5b5035919050565b6000806040838503121561281557600080fd5b823561274e81612330565b60008060008060008060008060c0898b03121561283c57600080fd5b612845896122fe565b975060208901356001600160401b038082111561286157600080fd5b61286d8c838d01612362565b909950975060408b0135915061288282612330565b81965061289160608c016125c9565b955060808b0135945060a08b01359150808211156128ae57600080fd5b506128bb8b828c01612362565b999c989b5096995094979396929594505050565b600080600080600080600060c0888a0312156128ea57600080fd5b6128f3886122fe565b965060208801356001600160401b038082111561290f57600080fd5b61291b8b838c01612412565b975060408a013591508082111561293157600080fd5b61293d8b838c01612362565b909750955060608a0135915061295282612330565b90935060808901359061296482612330565b90925060a0890135908082111561297a57600080fd5b506129878a828b01612412565b91505092959891949750929550565b600080600080608085870312156129ac57600080fd5b6129b5856122fe565b93506129c3602086016122fe565b92506040850135915060608501356001600160401b038111156129e557600080fd5b6129f187828801612412565b91505092959194509250565b60008060008060808587031215612a1357600080fd5b612a1c856122fe565b9350612a2a602086016122fe565b92506040850135612a3a81612330565b9396929550929360600135925050565b600060208284031215612a5c57600080fd5b81356001600160401b03811115612a7257600080fd5b612a7e84828501612412565b949350505050565b8183823760009101908152919050565b600181811c90821680612aaa57607f821691505b60208210811415612acb57634e487b7160e01b600052602260045260246000fd5b50919050565b634e487b7160e01b600052601160045260246000fd5b60008219821115612afa57612afa612ad1565b500190565b81835281816020850137506000828201602090810191909152601f909101601f19169091010190565b61ffff84168152604060208201526000612574604083018486612aff565b61ffff87168152608060208201526000612b64608083018789612aff565b6001600160401b03861660408401528281036060840152612b86818587612aff565b9998505050505050505050565b61ffff86168152608060208201526000612bb1608083018688612aff565b6001600160401b03949094166040830152506001600160a01b03919091166060909101529392505050565b60006001600160401b0380831681811415612bf957612bf9612ad1565b6001019392505050565b600082821015612c1557612c15612ad1565b500390565b634e487b7160e01b600052603260045260246000fd5b6000600019821415612c4457612c44612ad1565b5060010190565b61ffff8916815260c060208201526000612c6960c08301898b612aff565b6001600160a01b03881660408401526001600160401b03871660608401528281036080840152612c9a818688612aff565b905082810360a0840152612cae81856124f4565b9b9a5050505050505050505050565b61ffff8716815260c060208201526000612cda60c08301886124f4565b6001600160a01b03871660408401526001600160401b03861660608401526080830185905282810360a0840152612b8681856124f4565b6000816000190483118215151615612d2b57612d2b612ad1565b500290565b634e487b7160e01b600052601260045260246000fd5b600082612d5557612d55612d30565b500490565b60006001600160801b0380831681851681830481118215151615612d8057612d80612ad1565b02949350505050565b60006001600160801b0380841680612da357612da3612d30565b92169190910492915050565b61ffff86168152608060208201526000612dcd608083018688612aff565b6001600160401b03851660408401528281036060840152612dee81856124f4565b98975050505050505050565b634e487b7160e01b600052603160045260246000fdfea26469706673582212202188b3aa5c294f91bd11a6f559748fb99afa95266ed891db019fd644185e681d64736f6c634300080c0033",
  "linkReferences": {},
  "deployedLinkReferences": {}
}