{
  "address": "0x7cacBe439EaD55fa1c22790330b12835c6884a91",
  "abi": [
    {
      "inputs": [
        {
          "internalType": "contract ILayerZeroPriceFeed",
          "name": "_priceFeed",
          "type": "address"
        },
        {
          "internalType": "uint16",
          "name": "_dstChainId",
          "type": "uint16"
        },
        {
          "internalType": "uint64",
          "name": "_baseGas",
          "type": "uint64"
        },
        {
          "internalType": "uint64",
          "name": "_quorum",
          "type": "uint64"
        },
        {
          "internalType": "uint128",
          "name": "_defaultMultiplier",
          "type": "uint128"
        },
        {
          "internalType": "uint128",
          "name": "_multiplier",
          "type": "uint128"
        },
        {
          "internalType": "uint128",
          "name": "_floorMarginUSD",
          "type": "uint128"
        }
      ],
      "name": "getFee",
      "outputs": [
        {
          "internalType": "uint256",
          "name": "",
          "type": "uint256"
        }
      ],
      "stateMutability": "view",
      "type": "function"
    }
  ],
  "transactionHash": "0x1c125e0e477550e2f65417a8ee95c959499a7ea298117269bd84cf29b41a0d8e",
  "args": [],
  "numDeployments": 1,
  "solcInputHash": "e6ca2b9c6fa8ee462ed0424e2d42e86d",
  "bytecode": "0x608060405234801561001057600080fd5b5061057e806100206000396000f3fe608060405234801561001057600080fd5b506004361061002b5760003560e01c8063dc60028014610030575b600080fd5b61004361003e366004610316565b610055565b60405190815260200160405180910390f35b60008061006d604167ffffffffffffffff88166103f7565b90508061007b602082610443565b156100a35761008b602083610443565b6100959083610457565b6100a090602061046a565b90505b6000816100b260e0604461046a565b6100bc919061046a565b6100c790604061046a565b6040517f7bc3c9ab00000000000000000000000000000000000000000000000000000000815261ffff8c1660048201526024810182905267ffffffffffffffff8b16604482015290915060009073ffffffffffffffffffffffffffffffffffffffff8d1690637bc3c9ab906064016040805180830381865afa158015610151573d6000803e3d6000fd5b505050506040513d601f19601f82011682018060405250810190610175919061047d565b509050866fffffffffffffffffffffffffffffffff16600003610196578796505b60006127106101b76fffffffffffffffffffffffffffffffff8a16846103f7565b6101c191906104ad565b905060008d73ffffffffffffffffffffffffffffffffffffffff166392807f586040518163ffffffff1660e01b8152600401602060405180830381865afa158015610210573d6000803e3d6000fd5b505050506040513d601f19601f8201168201806040525081019061023491906104c1565b90506fffffffffffffffffffffffffffffffff8116158061026557506fffffffffffffffffffffffffffffffff8816155b15610277575094506102cd9350505050565b60008161028c8a670de0b6b3a76400006104e5565b6102969190610519565b6102b2906fffffffffffffffffffffffffffffffff168561046a565b90508281116102c157826102c3565b805b9750505050505050505b979650505050505050565b803567ffffffffffffffff811681146102f057600080fd5b919050565b6fffffffffffffffffffffffffffffffff8116811461031357600080fd5b50565b600080600080600080600060e0888a03121561033157600080fd5b873573ffffffffffffffffffffffffffffffffffffffff8116811461035557600080fd5b9650602088013561ffff8116811461036c57600080fd5b955061037a604089016102d8565b9450610388606089016102d8565b93506080880135610398816102f5565b925060a08801356103a8816102f5565b915060c08801356103b8816102f5565b8091505092959891949750929550565b7f4e487b7100000000000000000000000000000000000000000000000000000000600052601160045260246000fd5b808202811582820484141761040e5761040e6103c8565b92915050565b7f4e487b7100000000000000000000000000000000000000000000000000000000600052601260045260246000fd5b60008261045257610452610414565b500690565b8181038181111561040e5761040e6103c8565b8082018082111561040e5761040e6103c8565b6000806040838503121561049057600080fd5b8251915060208301516104a2816102f5565b809150509250929050565b6000826104bc576104bc610414565b500490565b6000602082840312156104d357600080fd5b81516104de816102f5565b9392505050565b6fffffffffffffffffffffffffffffffff818116838216028082169190828114610511576105116103c8565b505092915050565b60006fffffffffffffffffffffffffffffffff8084168061053c5761053c610414565b9216919091049291505056fea2646970667358221220334557367a781fdfb5add2298668b459ea947ae4fd49004efec054dc8e61951064736f6c63430008110033",
  "devdoc": {
    "kind": "dev",
    "methods": {},
    "version": 1
  },
  "userdoc": {
    "kind": "user",
    "methods": {},
    "version": 1
  },
  "storageLayout": {
    "storage": [],
    "types": null
  }
}