{
  "_format": "hh-sol-artifact-1",
  "contractName": "ProxyONFT1155",
  "sourceName": "contracts/token/onft/extension/ProxyONFT1155.sol",
  "abi": [
    {
      "inputs": [
        {
          "internalType": "address",
          "name": "_lzEndpoint",
          "type": "address"
        },
        {
          "internalType": "address",
          "name": "_proxyToken",
          "type": "address"
        }
      ],
      "stateMutability": "nonpayable",
      "type": "constructor"
    },
    {
      "anonymous": false,
      "inputs": [
        {
          "indexed": false,
          "internalType": "uint16",
          "name": "_srcChainId",
          "type": "uint16"
        },
        {
          "indexed": false,
          "internalType": "bytes",
          "name": "_srcAddress",
          "type": "bytes"
        },
        {
          "indexed": false,
          "internalType": "uint64",
          "name": "_nonce",
          "type": "uint64"
        },
        {
          "indexed": false,
          "internalType": "bytes",
          "name": "_payload",
          "type": "bytes"
        },
        {
          "indexed": false,
          "internalType": "bytes",
          "name": "_reason",
          "type": "bytes"
        }
      ],
      "name": "MessageFailed",
      "type": "event"
    },
    {
      "anonymous": false,
      "inputs": [
        {
          "indexed": true,
          "internalType": "address",
          "name": "previousOwner",
          "type": "address"
        },
        {
          "indexed": true,
          "internalType": "address",
          "name": "newOwner",
          "type": "address"
        }
      ],
      "name": "OwnershipTransferred",
      "type": "event"
    },
    {
      "anonymous": false,
      "inputs": [
        {
          "indexed": true,
          "internalType": "uint16",
          "name": "_srcChainId",
          "type": "uint16"
        },
        {
          "indexed": true,
          "internalType": "bytes",
          "name": "_srcAddress",
          "type": "bytes"
        },
        {
          "indexed": true,
          "internalType": "address",
          "name": "_toAddress",
          "type": "address"
        },
        {
          "indexed": false,
          "internalType": "uint256[]",
          "name": "_tokenIds",
          "type": "uint256[]"
        },
        {
          "indexed": false,
          "internalType": "uint256[]",
          "name": "_amounts",
          "type": "uint256[]"
        }
      ],
      "name": "ReceiveBatchFromChain",
      "type": "event"
    },
    {
      "anonymous": false,
      "inputs": [
        {
          "indexed": true,
          "internalType": "uint16",
          "name": "_srcChainId",
          "type": "uint16"
        },
        {
          "indexed": true,
          "internalType": "bytes",
          "name": "_srcAddress",
          "type": "bytes"
        },
        {
          "indexed": true,
          "internalType": "address",
          "name": "_toAddress",
          "type": "address"
        },
        {
          "indexed": false,
          "internalType": "uint256",
          "name": "_tokenId",
          "type": "uint256"
        },
        {
          "indexed": false,
          "internalType": "uint256",
          "name": "_amount",
          "type": "uint256"
        }
      ],
      "name": "ReceiveFromChain",
      "type": "event"
    },
    {
      "anonymous": false,
      "inputs": [
        {
          "indexed": false,
          "internalType": "uint16",
          "name": "_srcChainId",
          "type": "uint16"
        },
        {
          "indexed": false,
          "internalType": "bytes",
          "name": "_srcAddress",
          "type": "bytes"
        },
        {
          "indexed": false,
          "internalType": "uint64",
          "name": "_nonce",
          "type": "uint64"
        },
        {
          "indexed": false,
          "internalType": "bytes32",
          "name": "_payloadHash",
          "type": "bytes32"
        }
      ],
      "name": "RetryMessageSuccess",
      "type": "event"
    },
    {
      "anonymous": false,
      "inputs": [
        {
          "indexed": true,
          "internalType": "uint16",
          "name": "_dstChainId",
          "type": "uint16"
        },
        {
          "indexed": true,
          "internalType": "address",
          "name": "_from",
          "type": "address"
        },
        {
          "indexed": true,
          "internalType": "bytes",
          "name": "_toAddress",
          "type": "bytes"
        },
        {
          "indexed": false,
          "internalType": "uint256[]",
          "name": "_tokenIds",
          "type": "uint256[]"
        },
        {
          "indexed": false,
          "internalType": "uint256[]",
          "name": "_amounts",
          "type": "uint256[]"
        }
      ],
      "name": "SendBatchToChain",
      "type": "event"
    },
    {
      "anonymous": false,
      "inputs": [
        {
          "indexed": true,
          "internalType": "uint16",
          "name": "_dstChainId",
          "type": "uint16"
        },
        {
          "indexed": true,
          "internalType": "address",
          "name": "_from",
          "type": "address"
        },
        {
          "indexed": true,
          "internalType": "bytes",
          "name": "_toAddress",
          "type": "bytes"
        },
        {
          "indexed": false,
          "internalType": "uint256",
          "name": "_tokenId",
          "type": "uint256"
        },
        {
          "indexed": false,
          "internalType": "uint256",
          "name": "_amount",
          "type": "uint256"
        }
      ],
      "name": "SendToChain",
      "type": "event"
    },
    {
      "anonymous": false,
      "inputs": [
        {
          "indexed": false,
          "internalType": "uint16",
          "name": "_dstChainId",
          "type": "uint16"
        },
        {
          "indexed": false,
          "internalType": "uint16",
          "name": "_type",
          "type": "uint16"
        },
        {
          "indexed": false,
          "internalType": "uint256",
          "name": "_minDstGas",
          "type": "uint256"
        }
      ],
      "name": "SetMinDstGas",
      "type": "event"
    },
    {
      "anonymous": false,
      "inputs": [
        {
          "indexed": false,
          "internalType": "address",
          "name": "precrime",
          "type": "address"
        }
      ],
      "name": "SetPrecrime",
      "type": "event"
    },
    {
      "anonymous": false,
      "inputs": [
        {
          "indexed": false,
          "internalType": "uint16",
          "name": "_remoteChainId",
          "type": "uint16"
        },
        {
          "indexed": false,
          "internalType": "bytes",
          "name": "_path",
          "type": "bytes"
        }
      ],
      "name": "SetTrustedRemote",
      "type": "event"
    },
    {
      "anonymous": false,
      "inputs": [
        {
          "indexed": false,
          "internalType": "uint16",
          "name": "_remoteChainId",
          "type": "uint16"
        },
        {
          "indexed": false,
          "internalType": "bytes",
          "name": "_remoteAddress",
          "type": "bytes"
        }
      ],
      "name": "SetTrustedRemoteAddress",
      "type": "event"
    },
    {
      "anonymous": false,
      "inputs": [
        {
          "indexed": false,
          "internalType": "bool",
          "name": "_useCustomAdapterParams",
          "type": "bool"
        }
      ],
      "name": "SetUseCustomAdapterParams",
      "type": "event"
    },
    {
      "inputs": [],
      "name": "DEFAULT_PAYLOAD_SIZE_LIMIT",
      "outputs": [
        {
          "internalType": "uint256",
          "name": "",
          "type": "uint256"
        }
      ],
      "stateMutability": "view",
      "type": "function"
    },
    {
      "inputs": [],
      "name": "FUNCTION_TYPE_SEND",
      "outputs": [
        {
          "internalType": "uint16",
          "name": "",
          "type": "uint16"
        }
      ],
      "stateMutability": "view",
      "type": "function"
    },
    {
      "inputs": [],
      "name": "FUNCTION_TYPE_SEND_BATCH",
      "outputs": [
        {
          "internalType": "uint16",
          "name": "",
          "type": "uint16"
        }
      ],
      "stateMutability": "view",
      "type": "function"
    },
    {
      "inputs": [],
      "name": "NO_EXTRA_GAS",
      "outputs": [
        {
          "internalType": "uint256",
          "name": "",
          "type": "uint256"
        }
      ],
      "stateMutability": "view",
      "type": "function"
    },
    {
      "inputs": [
        {
          "internalType": "uint16",
          "name": "_dstChainId",
          "type": "uint16"
        },
        {
          "internalType": "bytes",
          "name": "_toAddress",
          "type": "bytes"
        },
        {
          "internalType": "uint256[]",
          "name": "_tokenIds",
          "type": "uint256[]"
        },
        {
          "internalType": "uint256[]",
          "name": "_amounts",
          "type": "uint256[]"
        },
        {
          "internalType": "bool",
          "name": "_useZro",
          "type": "bool"
        },
        {
          "internalType": "bytes",
          "name": "_adapterParams",
          "type": "bytes"
        }
      ],
      "name": "estimateSendBatchFee",
      "outputs": [
        {
          "internalType": "uint256",
          "name": "nativeFee",
          "type": "uint256"
        },
        {
          "internalType": "uint256",
          "name": "zroFee",
          "type": "uint256"
        }
      ],
      "stateMutability": "view",
      "type": "function"
    },
    {
      "inputs": [
        {
          "internalType": "uint16",
          "name": "_dstChainId",
          "type": "uint16"
        },
        {
          "internalType": "bytes",
          "name": "_toAddress",
          "type": "bytes"
        },
        {
          "internalType": "uint256",
          "name": "_tokenId",
          "type": "uint256"
        },
        {
          "internalType": "uint256",
          "name": "_amount",
          "type": "uint256"
        },
        {
          "internalType": "bool",
          "name": "_useZro",
          "type": "bool"
        },
        {
          "internalType": "bytes",
          "name": "_adapterParams",
          "type": "bytes"
        }
      ],
      "name": "estimateSendFee",
      "outputs": [
        {
          "internalType": "uint256",
          "name": "nativeFee",
          "type": "uint256"
        },
        {
          "internalType": "uint256",
          "name": "zroFee",
          "type": "uint256"
        }
      ],
      "stateMutability": "view",
      "type": "function"
    },
    {
      "inputs": [
        {
          "internalType": "uint16",
          "name": "",
          "type": "uint16"
        },
        {
          "internalType": "bytes",
          "name": "",
          "type": "bytes"
        },
        {
          "internalType": "uint64",
          "name": "",
          "type": "uint64"
        }
      ],
      "name": "failedMessages",
      "outputs": [
        {
          "internalType": "bytes32",
          "name": "",
          "type": "bytes32"
        }
      ],
      "stateMutability": "view",
      "type": "function"
    },
    {
      "inputs": [
        {
          "internalType": "uint16",
          "name": "_srcChainId",
          "type": "uint16"
        },
        {
          "internalType": "bytes",
          "name": "_srcAddress",
          "type": "bytes"
        }
      ],
      "name": "forceResumeReceive",
      "outputs": [],
      "stateMutability": "nonpayable",
      "type": "function"
    },
    {
      "inputs": [
        {
          "internalType": "uint16",
          "name": "_version",
          "type": "uint16"
        },
        {
          "internalType": "uint16",
          "name": "_chainId",
          "type": "uint16"
        },
        {
          "internalType": "address",
          "name": "",
          "type": "address"
        },
        {
          "internalType": "uint256",
          "name": "_configType",
          "type": "uint256"
        }
      ],
      "name": "getConfig",
      "outputs": [
        {
          "internalType": "bytes",
          "name": "",
          "type": "bytes"
        }
      ],
      "stateMutability": "view",
      "type": "function"
    },
    {
      "inputs": [
        {
          "internalType": "uint16",
          "name": "_remoteChainId",
          "type": "uint16"
        }
      ],
      "name": "getTrustedRemoteAddress",
      "outputs": [
        {
          "internalType": "bytes",
          "name": "",
          "type": "bytes"
        }
      ],
      "stateMutability": "view",
      "type": "function"
    },
    {
      "inputs": [
        {
          "internalType": "uint16",
          "name": "_srcChainId",
          "type": "uint16"
        },
        {
          "internalType": "bytes",
          "name": "_srcAddress",
          "type": "bytes"
        }
      ],
      "name": "isTrustedRemote",
      "outputs": [
        {
          "internalType": "bool",
          "name": "",
          "type": "bool"
        }
      ],
      "stateMutability": "view",
      "type": "function"
    },
    {
      "inputs": [],
      "name": "lzEndpoint",
      "outputs": [
        {
          "internalType": "contract ILayerZeroEndpoint",
          "name": "",
          "type": "address"
        }
      ],
      "stateMutability": "view",
      "type": "function"
    },
    {
      "inputs": [
        {
          "internalType": "uint16",
          "name": "_srcChainId",
          "type": "uint16"
        },
        {
          "internalType": "bytes",
          "name": "_srcAddress",
          "type": "bytes"
        },
        {
          "internalType": "uint64",
          "name": "_nonce",
          "type": "uint64"
        },
        {
          "internalType": "bytes",
          "name": "_payload",
          "type": "bytes"
        }
      ],
      "name": "lzReceive",
      "outputs": [],
      "stateMutability": "nonpayable",
      "type": "function"
    },
    {
      "inputs": [
        {
          "internalType": "uint16",
          "name": "",
          "type": "uint16"
        },
        {
          "internalType": "uint16",
          "name": "",
          "type": "uint16"
        }
      ],
      "name": "minDstGasLookup",
      "outputs": [
        {
          "internalType": "uint256",
          "name": "",
          "type": "uint256"
        }
      ],
      "stateMutability": "view",
      "type": "function"
    },
    {
      "inputs": [
        {
          "internalType": "uint16",
          "name": "_srcChainId",
          "type": "uint16"
        },
        {
          "internalType": "bytes",
          "name": "_srcAddress",
          "type": "bytes"
        },
        {
          "internalType": "uint64",
          "name": "_nonce",
          "type": "uint64"
        },
        {
          "internalType": "bytes",
          "name": "_payload",
          "type": "bytes"
        }
      ],
      "name": "nonblockingLzReceive",
      "outputs": [],
      "stateMutability": "nonpayable",
      "type": "function"
    },
    {
      "inputs": [
        {
          "internalType": "address",
          "name": "_operator",
          "type": "address"
        },
        {
          "internalType": "address",
          "name": "",
          "type": "address"
        },
        {
          "internalType": "uint256[]",
          "name": "",
          "type": "uint256[]"
        },
        {
          "internalType": "uint256[]",
          "name": "",
          "type": "uint256[]"
        },
        {
          "internalType": "bytes",
          "name": "",
          "type": "bytes"
        }
      ],
      "name": "onERC1155BatchReceived",
      "outputs": [
        {
          "internalType": "bytes4",
          "name": "",
          "type": "bytes4"
        }
      ],
      "stateMutability": "nonpayable",
      "type": "function"
    },
    {
      "inputs": [
        {
          "internalType": "address",
          "name": "_operator",
          "type": "address"
        },
        {
          "internalType": "address",
          "name": "",
          "type": "address"
        },
        {
          "internalType": "uint256",
          "name": "",
          "type": "uint256"
        },
        {
          "internalType": "uint256",
          "name": "",
          "type": "uint256"
        },
        {
          "internalType": "bytes",
          "name": "",
          "type": "bytes"
        }
      ],
      "name": "onERC1155Received",
      "outputs": [
        {
          "internalType": "bytes4",
          "name": "",
          "type": "bytes4"
        }
      ],
      "stateMutability": "nonpayable",
      "type": "function"
    },
    {
      "inputs": [],
      "name": "owner",
      "outputs": [
        {
          "internalType": "address",
          "name": "",
          "type": "address"
        }
      ],
      "stateMutability": "view",
      "type": "function"
    },
    {
      "inputs": [
        {
          "internalType": "uint16",
          "name": "",
          "type": "uint16"
        }
      ],
      "name": "payloadSizeLimitLookup",
      "outputs": [
        {
          "internalType": "uint256",
          "name": "",
          "type": "uint256"
        }
      ],
      "stateMutability": "view",
      "type": "function"
    },
    {
      "inputs": [],
      "name": "precrime",
      "outputs": [
        {
          "internalType": "address",
          "name": "",
          "type": "address"
        }
      ],
      "stateMutability": "view",
      "type": "function"
    },
    {
      "inputs": [],
      "name": "renounceOwnership",
      "outputs": [],
      "stateMutability": "nonpayable",
      "type": "function"
    },
    {
      "inputs": [
        {
          "internalType": "uint16",
          "name": "_srcChainId",
          "type": "uint16"
        },
        {
          "internalType": "bytes",
          "name": "_srcAddress",
          "type": "bytes"
        },
        {
          "internalType": "uint64",
          "name": "_nonce",
          "type": "uint64"
        },
        {
          "internalType": "bytes",
          "name": "_payload",
          "type": "bytes"
        }
      ],
      "name": "retryMessage",
      "outputs": [],
      "stateMutability": "payable",
      "type": "function"
    },
    {
      "inputs": [
        {
          "internalType": "address",
          "name": "_from",
          "type": "address"
        },
        {
          "internalType": "uint16",
          "name": "_dstChainId",
          "type": "uint16"
        },
        {
          "internalType": "bytes",
          "name": "_toAddress",
          "type": "bytes"
        },
        {
          "internalType": "uint256[]",
          "name": "_tokenIds",
          "type": "uint256[]"
        },
        {
          "internalType": "uint256[]",
          "name": "_amounts",
          "type": "uint256[]"
        },
        {
          "internalType": "address payable",
          "name": "_refundAddress",
          "type": "address"
        },
        {
          "internalType": "address",
          "name": "_zroPaymentAddress",
          "type": "address"
        },
        {
          "internalType": "bytes",
          "name": "_adapterParams",
          "type": "bytes"
        }
      ],
      "name": "sendBatchFrom",
      "outputs": [],
      "stateMutability": "payable",
      "type": "function"
    },
    {
      "inputs": [
        {
          "internalType": "address",
          "name": "_from",
          "type": "address"
        },
        {
          "internalType": "uint16",
          "name": "_dstChainId",
          "type": "uint16"
        },
        {
          "internalType": "bytes",
          "name": "_toAddress",
          "type": "bytes"
        },
        {
          "internalType": "uint256",
          "name": "_tokenId",
          "type": "uint256"
        },
        {
          "internalType": "uint256",
          "name": "_amount",
          "type": "uint256"
        },
        {
          "internalType": "address payable",
          "name": "_refundAddress",
          "type": "address"
        },
        {
          "internalType": "address",
          "name": "_zroPaymentAddress",
          "type": "address"
        },
        {
          "internalType": "bytes",
          "name": "_adapterParams",
          "type": "bytes"
        }
      ],
      "name": "sendFrom",
      "outputs": [],
      "stateMutability": "payable",
      "type": "function"
    },
    {
      "inputs": [
        {
          "internalType": "uint16",
          "name": "_version",
          "type": "uint16"
        },
        {
          "internalType": "uint16",
          "name": "_chainId",
          "type": "uint16"
        },
        {
          "internalType": "uint256",
          "name": "_configType",
          "type": "uint256"
        },
        {
          "internalType": "bytes",
          "name": "_config",
          "type": "bytes"
        }
      ],
      "name": "setConfig",
      "outputs": [],
      "stateMutability": "nonpayable",
      "type": "function"
    },
    {
      "inputs": [
        {
          "internalType": "uint16",
          "name": "_dstChainId",
          "type": "uint16"
        },
        {
          "internalType": "uint16",
          "name": "_packetType",
          "type": "uint16"
        },
        {
          "internalType": "uint256",
          "name": "_minGas",
          "type": "uint256"
        }
      ],
      "name": "setMinDstGas",
      "outputs": [],
      "stateMutability": "nonpayable",
      "type": "function"
    },
    {
      "inputs": [
        {
          "internalType": "uint16",
          "name": "_dstChainId",
          "type": "uint16"
        },
        {
          "internalType": "uint256",
          "name": "_size",
          "type": "uint256"
        }
      ],
      "name": "setPayloadSizeLimit",
      "outputs": [],
      "stateMutability": "nonpayable",
      "type": "function"
    },
    {
      "inputs": [
        {
          "internalType": "address",
          "name": "_precrime",
          "type": "address"
        }
      ],
      "name": "setPrecrime",
      "outputs": [],
      "stateMutability": "nonpayable",
      "type": "function"
    },
    {
      "inputs": [
        {
          "internalType": "uint16",
          "name": "_version",
          "type": "uint16"
        }
      ],
      "name": "setReceiveVersion",
      "outputs": [],
      "stateMutability": "nonpayable",
      "type": "function"
    },
    {
      "inputs": [
        {
          "internalType": "uint16",
          "name": "_version",
          "type": "uint16"
        }
      ],
      "name": "setSendVersion",
      "outputs": [],
      "stateMutability": "nonpayable",
      "type": "function"
    },
    {
      "inputs": [
        {
          "internalType": "uint16",
          "name": "_remoteChainId",
          "type": "uint16"
        },
        {
          "internalType": "bytes",
          "name": "_path",
          "type": "bytes"
        }
      ],
      "name": "setTrustedRemote",
      "outputs": [],
      "stateMutability": "nonpayable",
      "type": "function"
    },
    {
      "inputs": [
        {
          "internalType": "uint16",
          "name": "_remoteChainId",
          "type": "uint16"
        },
        {
          "internalType": "bytes",
          "name": "_remoteAddress",
          "type": "bytes"
        }
      ],
      "name": "setTrustedRemoteAddress",
      "outputs": [],
      "stateMutability": "nonpayable",
      "type": "function"
    },
    {
      "inputs": [
        {
          "internalType": "bool",
          "name": "_useCustomAdapterParams",
          "type": "bool"
        }
      ],
      "name": "setUseCustomAdapterParams",
      "outputs": [],
      "stateMutability": "nonpayable",
      "type": "function"
    },
    {
      "inputs": [
        {
          "internalType": "bytes4",
          "name": "interfaceId",
          "type": "bytes4"
        }
      ],
      "name": "supportsInterface",
      "outputs": [
        {
          "internalType": "bool",
          "name": "",
          "type": "bool"
        }
      ],
      "stateMutability": "view",
      "type": "function"
    },
    {
      "inputs": [],
      "name": "token",
      "outputs": [
        {
          "internalType": "contract IERC1155",
          "name": "",
          "type": "address"
        }
      ],
      "stateMutability": "view",
      "type": "function"
    },
    {
      "inputs": [
        {
          "internalType": "address",
          "name": "newOwner",
          "type": "address"
        }
      ],
      "name": "transferOwnership",
      "outputs": [],
      "stateMutability": "nonpayable",
      "type": "function"
    },
    {
      "inputs": [
        {
          "internalType": "uint16",
          "name": "",
          "type": "uint16"
        }
      ],
      "name": "trustedRemoteLookup",
      "outputs": [
        {
          "internalType": "bytes",
          "name": "",
          "type": "bytes"
        }
      ],
      "stateMutability": "view",
      "type": "function"
    },
    {
      "inputs": [],
      "name": "useCustomAdapterParams",
      "outputs": [
        {
          "internalType": "bool",
          "name": "",
          "type": "bool"
        }
      ],
      "stateMutability": "view",
      "type": "function"
    }
  ],
  "bytecode": "0x60c06040523480156200001157600080fd5b506040516200360b3803806200360b83398101604081905262000034916200023d565b8180806200004233620000e4565b6001600160a01b0390811660805262000074925083169050636cdb3d1360e11b62000134602090811b6200167817901c565b620000d15760405162461bcd60e51b8152602060048201526024808201527f50726f78794f4e4654313135353a20696e76616c69642045524331313535207460448201526337b5b2b760e11b606482015260840160405180910390fd5b6001600160a01b031660a0525062000275565b600080546001600160a01b038381166001600160a01b0319831681178455604051919092169283917f8be0079c531659141344cd1fd0a4f28419497f9722a3daafe3b4186f6b6457e09190a35050565b600062000141836200015c565b801562000155575062000155838362000195565b9392505050565b600062000171826301ffc9a760e01b62000195565b80156200018f57506200018d826001600160e01b031962000195565b155b92915050565b604080516001600160e01b03198316602480830191909152825180830390910181526044909101909152602080820180516001600160e01b03166301ffc9a760e01b178152825160009392849283928392918391908a617530fa92503d9150600051905082801562000208575060208210155b8015620002155750600081115b979650505050505050565b80516001600160a01b03811681146200023857600080fd5b919050565b600080604083850312156200025157600080fd5b6200025c8362000220565b91506200026c6020840162000220565b90509250929050565b60805160a05161332a620002e16000396000818161076501528181611edc01526121b30152600081816105b50152818161078a01528181610a0401528181610aac01528181610bce015281816110140152818161114a015281816116010152612120015261332a6000f3fe6080604052600436106102245760003560e01c8063950c8a7411610123578063cbed8b9c116100ab578063ed629c5c1161006f578063ed629c5c146106d9578063f23a6e61146106f3578063f2fde38b14610713578063f5ecbdbc14610733578063fc0c546a1461075357600080fd5b8063cbed8b9c14610646578063d1deba1f14610666578063df2a5b3b14610679578063eab45d9c14610699578063eb8d72b7146106b957600080fd5b8063b2535663116100f2578063b253566314610583578063b353aaa7146105a3578063baf3292d146105d7578063bc197c81146105f7578063c44618341461063057600080fd5b8063950c8a741461050e5780639f38369a1461052e578063a6c3d1651461054e578063af3fb21c1461056e57600080fd5b806344770515116101b1578063715018a611610175578063715018a61461042d5780637533d788146104425780638608e5f81461046f5780638cfd8f5c146104a45780638da5cb5b146104dc57600080fd5b806344770515146103835780634ab4e687146103985780634db8226a146103ab5780635b8c41e6146103be57806366ad5c8a1461040d57600080fd5b806310ddb137116101f857806310ddb137146102c0578063149e3e1f146102e05780633d8b38f6146103085780633f1f4fa41461032857806342d65a8d1461036357600080fd5b80621d35671461022957806301ffc9a71461024b57806307e0db17146102805780630df37483146102a0575b600080fd5b34801561023557600080fd5b5061024961024436600461246e565b610787565b005b34801561025757600080fd5b5061026b610266366004612501565b6109b8565b60405190151581526020015b60405180910390f35b34801561028c57600080fd5b5061024961029b36600461252b565b6109e3565b3480156102ac57600080fd5b506102496102bb366004612546565b610a6c565b3480156102cc57600080fd5b506102496102db36600461252b565b610a8b565b3480156102ec57600080fd5b506102f5600281565b60405161ffff9091168152602001610277565b34801561031457600080fd5b5061026b610323366004612570565b610ae3565b34801561033457600080fd5b5061035561034336600461252b565b60036020526000908152604090205481565b604051908152602001610277565b34801561036f57600080fd5b5061024961037e366004612570565b610baf565b34801561038f57600080fd5b50610355600081565b6102496103a636600461272e565b610c35565b6102496103b936600461281d565b610c4f565b3480156103ca57600080fd5b506103556103d93660046128c3565b6005602090815260009384526040808520845180860184018051928152908401958401959095209452929052825290205481565b34801561041957600080fd5b5061024961042836600461246e565b610c6f565b34801561043957600080fd5b50610249610d4b565b34801561044e57600080fd5b5061046261045d36600461252b565b610d5f565b604051610277919061297c565b34801561047b57600080fd5b5061048f61048a36600461299f565b610df9565b60408051928352602083019190915201610277565b3480156104b057600080fd5b506103556104bf366004612a35565b600260209081526000928352604080842090915290825290205481565b3480156104e857600080fd5b506000546001600160a01b03165b6040516001600160a01b039091168152602001610277565b34801561051a57600080fd5b506004546104f6906001600160a01b031681565b34801561053a57600080fd5b5061046261054936600461252b565b610e29565b34801561055a57600080fd5b50610249610569366004612570565b610f40565b34801561057a57600080fd5b506102f5600181565b34801561058f57600080fd5b5061048f61059e366004612a68565b610fd3565b3480156105af57600080fd5b506104f67f000000000000000000000000000000000000000000000000000000000000000081565b3480156105e357600080fd5b506102496105f2366004612b04565b6110a1565b34801561060357600080fd5b50610617610612366004612b21565b6110fe565b6040516001600160e01b03199091168152602001610277565b34801561063c57600080fd5b5061035561271081565b34801561065257600080fd5b50610249610661366004612bce565b61112b565b61024961067436600461246e565b6111c0565b34801561068557600080fd5b50610249610694366004612c3c565b6113d6565b3480156106a557600080fd5b506102496106b4366004612c78565b611488565b3480156106c557600080fd5b506102496106d4366004612570565b6114d1565b3480156106e557600080fd5b5060065461026b9060ff1681565b3480156106ff57600080fd5b5061061761070e366004612c93565b61152b565b34801561071f57600080fd5b5061024961072e366004612b04565b611557565b34801561073f57600080fd5b5061046261074e366004612cfb565b6115d0565b34801561075f57600080fd5b506104f67f000000000000000000000000000000000000000000000000000000000000000081565b337f00000000000000000000000000000000000000000000000000000000000000006001600160a01b0316146108045760405162461bcd60e51b815260206004820152601e60248201527f4c7a4170703a20696e76616c696420656e64706f696e742063616c6c6572000060448201526064015b60405180910390fd5b61ffff86166000908152600160205260408120805461082290612d48565b80601f016020809104026020016040519081016040528092919081815260200182805461084e90612d48565b801561089b5780601f106108705761010080835404028352916020019161089b565b820191906000526020600020905b81548152906001019060200180831161087e57829003601f168201915b505050505090508051868690501480156108b6575060008151115b80156108de5750805160208201206040516108d49088908890612d83565b6040518091039020145b6109395760405162461bcd60e51b815260206004820152602660248201527f4c7a4170703a20696e76616c696420736f757263652073656e64696e6720636f6044820152651b9d1c9858dd60d21b60648201526084016107fb565b6109af8787878080601f01602080910402602001604051908101604052809392919081815260200183838082843760009201919091525050604080516020601f8a018190048102820181019092528881528a93509150889088908190840183828082843760009201919091525061169492505050565b50505050505050565b60006001600160e01b03198216630271189760e51b14806109dd57506109dd8261170d565b92915050565b6109eb611742565b6040516307e0db1760e01b815261ffff821660048201527f00000000000000000000000000000000000000000000000000000000000000006001600160a01b0316906307e0db17906024015b600060405180830381600087803b158015610a5157600080fd5b505af1158015610a65573d6000803e3d6000fd5b5050505050565b610a74611742565b61ffff909116600090815260036020526040902055565b610a93611742565b6040516310ddb13760e01b815261ffff821660048201527f00000000000000000000000000000000000000000000000000000000000000006001600160a01b0316906310ddb13790602401610a37565b61ffff831660009081526001602052604081208054829190610b0490612d48565b80601f0160208091040260200160405190810160405280929190818152602001828054610b3090612d48565b8015610b7d5780601f10610b5257610100808354040283529160200191610b7d565b820191906000526020600020905b815481529060010190602001808311610b6057829003601f168201915b505050505090508383604051610b94929190612d83565b60405180910390208180519060200120149150509392505050565b610bb7611742565b6040516342d65a8d60e01b81526001600160a01b037f000000000000000000000000000000000000000000000000000000000000000016906342d65a8d90610c0790869086908690600401612dbc565b600060405180830381600087803b158015610c2157600080fd5b505af11580156109af573d6000803e3d6000fd5b610c45888888888888888861179c565b5050505050505050565b610c45888888610c5e89611984565b610c6789611984565b88888861179c565b333014610ccd5760405162461bcd60e51b815260206004820152602660248201527f4e6f6e626c6f636b696e674c7a4170703a2063616c6c6572206d7573742062656044820152650204c7a4170760d41b60648201526084016107fb565b610d438686868080601f01602080910402602001604051908101604052809392919081815260200183838082843760009201919091525050604080516020601f8901819004810282018101909252878152899350915087908790819084018382808284376000920191909152506119cf92505050565b505050505050565b610d53611742565b610d5d6000611b1d565b565b60016020526000908152604090208054610d7890612d48565b80601f0160208091040260200160405190810160405280929190818152602001828054610da490612d48565b8015610df15780601f10610dc657610100808354040283529160200191610df1565b820191906000526020600020905b815481529060010190602001808311610dd457829003601f168201915b505050505081565b600080610e1a8888610e0a89611984565b610e1389611984565b8888610fd3565b91509150965096945050505050565b61ffff8116600090815260016020526040812080546060929190610e4c90612d48565b80601f0160208091040260200160405190810160405280929190818152602001828054610e7890612d48565b8015610ec55780601f10610e9a57610100808354040283529160200191610ec5565b820191906000526020600020905b815481529060010190602001808311610ea857829003601f168201915b50505050509050805160001415610f1e5760405162461bcd60e51b815260206004820152601d60248201527f4c7a4170703a206e6f20747275737465642070617468207265636f726400000060448201526064016107fb565b610f39600060148351610f319190612df0565b839190611b6d565b9392505050565b610f48611742565b818130604051602001610f5d93929190612e07565b60408051601f1981840301815291815261ffff85166000908152600160209081529190208251610f92939192909101906122eb565b507f8c0400cfe2d1199b1a725c78960bcc2a344d869b80590d0f2bd005db15a572ce838383604051610fc693929190612dbc565b60405180910390a1505050565b6000806000878787604051602001610fed93929190612e68565b60408051601f198184030181529082905263040a7bb160e41b825291506001600160a01b037f000000000000000000000000000000000000000000000000000000000000000016906340a7bb1090611051908c90309086908b908b90600401612eab565b6040805180830381865afa15801561106d573d6000803e3d6000fd5b505050506040513d601f19601f820116820180604052508101906110919190612eff565b9250925050965096945050505050565b6110a9611742565b600480546001600160a01b0319166001600160a01b0383169081179091556040519081527f5db758e995a17ec1ad84bdef7e8c3293a0bd6179bcce400dff5d4c3d87db726b906020015b60405180910390a150565b60006001600160a01b038616301461111857506000611122565b5063bc197c8160e01b5b95945050505050565b611133611742565b6040516332fb62e760e21b81526001600160a01b037f0000000000000000000000000000000000000000000000000000000000000000169063cbed8b9c906111879088908890889088908890600401612f23565b600060405180830381600087803b1580156111a157600080fd5b505af11580156111b5573d6000803e3d6000fd5b505050505050505050565b61ffff861660009081526005602052604080822090516111e39088908890612d83565b90815260408051602092819003830190206001600160401b038716600090815292529020549050806112635760405162461bcd60e51b815260206004820152602360248201527f4e6f6e626c6f636b696e674c7a4170703a206e6f2073746f726564206d65737360448201526261676560e81b60648201526084016107fb565b808383604051611274929190612d83565b6040518091039020146112d35760405162461bcd60e51b815260206004820152602160248201527f4e6f6e626c6f636b696e674c7a4170703a20696e76616c6964207061796c6f616044820152601960fa1b60648201526084016107fb565b61ffff871660009081526005602052604080822090516112f69089908990612d83565b90815260408051602092819003830181206001600160401b038916600090815290845282902093909355601f8801829004820283018201905286825261138e918991899089908190840183828082843760009201919091525050604080516020601f8a018190048102820181019092528881528a9350915088908890819084018382808284376000920191909152506119cf92505050565b7fc264d91f3adc5588250e1551f547752ca0cfa8f6b530d243b9f9f4cab10ea8e587878787856040516113c5959493929190612f51565b60405180910390a150505050505050565b6113de611742565b600081116114265760405162461bcd60e51b81526020600482015260156024820152744c7a4170703a20696e76616c6964206d696e47617360581b60448201526064016107fb565b61ffff83811660008181526002602090815260408083209487168084529482529182902085905581519283528201929092529081018290527f9d5c7c0b934da8fefa9c7760c98383778a12dfbfc0c3b3106518f43fb9508ac090606001610fc6565b611490611742565b6006805460ff19168215159081179091556040519081527f1584ad594a70cbe1e6515592e1272a987d922b097ead875069cebe8b40c004a4906020016110f3565b6114d9611742565b61ffff831660009081526001602052604090206114f790838361236f565b507ffa41487ad5d6728f0b19276fa1eddc16558578f5109fc39d2dc33c3230470dab838383604051610fc693929190612dbc565b60006001600160a01b038616301461154557506000611122565b5063f23a6e6160e01b95945050505050565b61155f611742565b6001600160a01b0381166115c45760405162461bcd60e51b815260206004820152602660248201527f4f776e61626c653a206e6577206f776e657220697320746865207a65726f206160448201526564647265737360d01b60648201526084016107fb565b6115cd81611b1d565b50565b604051633d7b2f6f60e21b815261ffff808616600483015284166024820152306044820152606481018290526060907f00000000000000000000000000000000000000000000000000000000000000006001600160a01b03169063f5ecbdbc90608401600060405180830381865afa158015611650573d6000803e3d6000fd5b505050506040513d6000823e601f3d908101601f191682016040526111229190810190612fd9565b600061168383611c7a565b8015610f395750610f398383611cad565b6000806116f75a60966366ad5c8a60e01b898989896040516024016116bc949392919061300d565b60408051601f198184030181529190526020810180516001600160e01b03166001600160e01b03199093169290921790915230929190611d36565b9150915081610d4357610d438686868685611dc0565b60006001600160e01b031982166319abbbbb60e11b14806109dd57506301ffc9a760e01b6001600160e01b03198316146109dd565b6000546001600160a01b03163314610d5d5760405162461bcd60e51b815260206004820181905260248201527f4f776e61626c653a2063616c6c6572206973206e6f7420746865206f776e657260448201526064016107fb565b6117a98888888888611e5d565b60008686866040516020016117c093929190612e68565b60405160208183030381529060405290508551600114156118c65760065460ff16156117f9576117f4886001846000611f17565b611818565b8151156118185760405162461bcd60e51b81526004016107fb9061304b565b611826888286868634611ff6565b86604051611834919061308f565b6040518091039020896001600160a01b03168961ffff167f968b0d61ebcf43e5d76ed87bd2c4ee2f22b4969b9f4ca49e3373c025eddd5eeb8960008151811061187f5761187f6130ab565b60200260200101518960008151811061189a5761189a6130ab565b60200260200101516040516118b9929190918252602082015260400190565b60405180910390a46111b5565b6001865111156111b55760065460ff16156118ee576118e9886002846000611f17565b61190d565b81511561190d5760405162461bcd60e51b81526004016107fb9061304b565b61191b888286868634611ff6565b86604051611929919061308f565b6040518091039020896001600160a01b03168961ffff167fddd15f7cfbd674ac2096d598f1650367f8a8bd72b4e3abd85591099ea3b57e3389896040516119719291906130c1565b60405180910390a4505050505050505050565b604080516001808252818301909252606091600091906020808301908036833701905050905082816000815181106119be576119be6130ab565b602090810291909101015292915050565b6000806000838060200190518101906119e89190613141565b60148301519295509093509150611a018882858561219c565b825160011415611aab57806001600160a01b031687604051611a23919061308f565b60405180910390208961ffff167f1bf64e58d19fc43de4c44b3d1bb1fae313979af831a7a39f3297564294329f0f86600081518110611a6457611a646130ab565b602002602001015186600081518110611a7f57611a7f6130ab565b6020026020010151604051611a9e929190918252602082015260400190565b60405180910390a4610c45565b600183511115610c4557806001600160a01b031687604051611acd919061308f565b60405180910390208961ffff167f1ae08edbbcd7baa8d064835de8593ce16b313414525ac89534e349f4da7926e48686604051611b0b9291906130c1565b60405180910390a45050505050505050565b600080546001600160a01b038381166001600160a01b0319831681178455604051919092169283917f8be0079c531659141344cd1fd0a4f28419497f9722a3daafe3b4186f6b6457e09190a35050565b606081611b7b81601f6131c8565b1015611bba5760405162461bcd60e51b815260206004820152600e60248201526d736c6963655f6f766572666c6f7760901b60448201526064016107fb565b611bc482846131c8565b84511015611c085760405162461bcd60e51b8152602060048201526011602482015270736c6963655f6f75744f66426f756e647360781b60448201526064016107fb565b606082158015611c275760405191506000825260208201604052611c71565b6040519150601f8416801560200281840101858101878315602002848b0101015b81831015611c60578051835260209283019201611c48565b5050858452601f01601f1916604052505b50949350505050565b6000611c8d826301ffc9a760e01b611cad565b80156109dd5750611ca6826001600160e01b0319611cad565b1592915050565b604080516001600160e01b03198316602480830191909152825180830390910181526044909101909152602080820180516001600160e01b03166301ffc9a760e01b178152825160009392849283928392918391908a617530fa92503d91506000519050828015611d1f575060208210155b8015611d2b5750600081115b979650505050505050565b6000606060008060008661ffff166001600160401b03811115611d5b57611d5b6125e2565b6040519080825280601f01601f191660200182016040528015611d85576020820181803683370190505b50905060008087516020890160008d8df191503d925086831115611da7578692505b828152826000602083013e909890975095505050505050565b8180519060200120600560008761ffff1661ffff16815260200190815260200160002085604051611df1919061308f565b9081526040805191829003602090810183206001600160401b0388166000908152915220919091557fe183f33de2837795525b4792ca4cd60535bd77c53b7e7030060bfcf5734d6b0c90611e4e90879087908790879087906131e0565b60405180910390a15050505050565b6001600160a01b0385163314611ec55760405162461bcd60e51b815260206004820152602760248201527f50726f78794f4e4654313135353a206f776e6572206973206e6f742073656e646044820152661031b0b63632b960c91b60648201526084016107fb565b604051631759616b60e11b81526001600160a01b037f00000000000000000000000000000000000000000000000000000000000000001690632eb2c2d690611187908890309087908790600401613232565b6000611f228361221c565b61ffff808716600090815260026020908152604080832093891683529290529081205491925090611f549084906131c8565b905060008111611fa65760405162461bcd60e51b815260206004820152601a60248201527f4c7a4170703a206d696e4761734c696d6974206e6f742073657400000000000060448201526064016107fb565b80821015610d435760405162461bcd60e51b815260206004820152601b60248201527f4c7a4170703a20676173206c696d697420697320746f6f206c6f77000000000060448201526064016107fb565b61ffff86166000908152600160205260408120805461201490612d48565b80601f016020809104026020016040519081016040528092919081815260200182805461204090612d48565b801561208d5780601f106120625761010080835404028352916020019161208d565b820191906000526020600020905b81548152906001019060200180831161207057829003601f168201915b505050505090508051600014156120ff5760405162461bcd60e51b815260206004820152603060248201527f4c7a4170703a2064657374696e6174696f6e20636861696e206973206e6f742060448201526f61207472757374656420736f7572636560801b60648201526084016107fb565b61210a878751612278565b60405162c5803160e81b81526001600160a01b037f0000000000000000000000000000000000000000000000000000000000000000169063c5803100908490612161908b9086908c908c908c908c9060040161328d565b6000604051808303818588803b15801561217a57600080fd5b505af115801561218e573d6000803e3d6000fd5b505050505050505050505050565b604051631759616b60e11b81526001600160a01b037f00000000000000000000000000000000000000000000000000000000000000001690632eb2c2d6906121ee903090879087908790600401613232565b600060405180830381600087803b15801561220857600080fd5b505af1158015610c45573d6000803e3d6000fd5b60006022825110156122705760405162461bcd60e51b815260206004820152601c60248201527f4c7a4170703a20696e76616c69642061646170746572506172616d730000000060448201526064016107fb565b506022015190565b61ffff82166000908152600360205260409020548061229657506127105b808211156122e65760405162461bcd60e51b815260206004820181905260248201527f4c7a4170703a207061796c6f61642073697a6520697320746f6f206c6172676560448201526064016107fb565b505050565b8280546122f790612d48565b90600052602060002090601f016020900481019282612319576000855561235f565b82601f1061233257805160ff191683800117855561235f565b8280016001018555821561235f579182015b8281111561235f578251825591602001919060010190612344565b5061236b9291506123e3565b5090565b82805461237b90612d48565b90600052602060002090601f01602090048101928261239d576000855561235f565b82601f106123b65782800160ff1982351617855561235f565b8280016001018555821561235f579182015b8281111561235f5782358255916020019190600101906123c8565b5b8082111561236b57600081556001016123e4565b803561ffff8116811461240a57600080fd5b919050565b60008083601f84011261242157600080fd5b5081356001600160401b0381111561243857600080fd5b60208301915083602082850101111561245057600080fd5b9250929050565b80356001600160401b038116811461240a57600080fd5b6000806000806000806080878903121561248757600080fd5b612490876123f8565b955060208701356001600160401b03808211156124ac57600080fd5b6124b88a838b0161240f565b90975095508591506124cc60408a01612457565b945060608901359150808211156124e257600080fd5b506124ef89828a0161240f565b979a9699509497509295939492505050565b60006020828403121561251357600080fd5b81356001600160e01b031981168114610f3957600080fd5b60006020828403121561253d57600080fd5b610f39826123f8565b6000806040838503121561255957600080fd5b612562836123f8565b946020939093013593505050565b60008060006040848603121561258557600080fd5b61258e846123f8565b925060208401356001600160401b038111156125a957600080fd5b6125b58682870161240f565b9497909650939450505050565b6001600160a01b03811681146115cd57600080fd5b803561240a816125c2565b634e487b7160e01b600052604160045260246000fd5b604051601f8201601f191681016001600160401b0381118282101715612620576126206125e2565b604052919050565b60006001600160401b03821115612641576126416125e2565b50601f01601f191660200190565b600082601f83011261266057600080fd5b813561267361266e82612628565b6125f8565b81815284602083860101111561268857600080fd5b816020850160208301376000918101602001919091529392505050565b60006001600160401b038211156126be576126be6125e2565b5060051b60200190565b600082601f8301126126d957600080fd5b813560206126e961266e836126a5565b82815260059290921b8401810191818101908684111561270857600080fd5b8286015b84811015612723578035835291830191830161270c565b509695505050505050565b600080600080600080600080610100898b03121561274b57600080fd5b612754896125d7565b975061276260208a016123f8565b965060408901356001600160401b038082111561277e57600080fd5b61278a8c838d0161264f565b975060608b01359150808211156127a057600080fd5b6127ac8c838d016126c8565b965060808b01359150808211156127c257600080fd5b6127ce8c838d016126c8565b95506127dc60a08c016125d7565b94506127ea60c08c016125d7565b935060e08b013591508082111561280057600080fd5b5061280d8b828c0161264f565b9150509295985092959890939650565b600080600080600080600080610100898b03121561283a57600080fd5b8835612845816125c2565b975061285360208a016123f8565b965060408901356001600160401b038082111561286f57600080fd5b61287b8c838d0161264f565b975060608b0135965060808b0135955060a08b0135915061289b826125c2565b90935060c08a0135906128ad826125c2565b90925060e08a0135908082111561280057600080fd5b6000806000606084860312156128d857600080fd5b6128e1846123f8565b925060208401356001600160401b038111156128fc57600080fd5b6129088682870161264f565b92505061291760408501612457565b90509250925092565b60005b8381101561293b578181015183820152602001612923565b8381111561294a576000848401525b50505050565b60008151808452612968816020860160208601612920565b601f01601f19169290920160200192915050565b602081526000610f396020830184612950565b8035801515811461240a57600080fd5b60008060008060008060c087890312156129b857600080fd5b6129c1876123f8565b955060208701356001600160401b03808211156129dd57600080fd5b6129e98a838b0161264f565b96506040890135955060608901359450612a0560808a0161298f565b935060a0890135915080821115612a1b57600080fd5b50612a2889828a0161264f565b9150509295509295509295565b60008060408385031215612a4857600080fd5b612a51836123f8565b9150612a5f602084016123f8565b90509250929050565b60008060008060008060c08789031215612a8157600080fd5b612a8a876123f8565b955060208701356001600160401b0380821115612aa657600080fd5b612ab28a838b0161264f565b96506040890135915080821115612ac857600080fd5b612ad48a838b016126c8565b95506060890135915080821115612aea57600080fd5b612af68a838b016126c8565b9450612a0560808a0161298f565b600060208284031215612b1657600080fd5b8135610f39816125c2565b600080600080600060a08688031215612b3957600080fd5b8535612b44816125c2565b94506020860135612b54816125c2565b935060408601356001600160401b0380821115612b7057600080fd5b612b7c89838a016126c8565b94506060880135915080821115612b9257600080fd5b612b9e89838a016126c8565b93506080880135915080821115612bb457600080fd5b50612bc18882890161264f565b9150509295509295909350565b600080600080600060808688031215612be657600080fd5b612bef866123f8565b9450612bfd602087016123f8565b93506040860135925060608601356001600160401b03811115612c1f57600080fd5b612c2b8882890161240f565b969995985093965092949392505050565b600080600060608486031215612c5157600080fd5b612c5a846123f8565b9250612c68602085016123f8565b9150604084013590509250925092565b600060208284031215612c8a57600080fd5b610f398261298f565b600080600080600060a08688031215612cab57600080fd5b8535612cb6816125c2565b94506020860135612cc6816125c2565b9350604086013592506060860135915060808601356001600160401b03811115612cef57600080fd5b612bc18882890161264f565b60008060008060808587031215612d1157600080fd5b612d1a856123f8565b9350612d28602086016123f8565b92506040850135612d38816125c2565b9396929550929360600135925050565b600181811c90821680612d5c57607f821691505b60208210811415612d7d57634e487b7160e01b600052602260045260246000fd5b50919050565b8183823760009101908152919050565b81835281816020850137506000828201602090810191909152601f909101601f19169091010190565b61ffff84168152604060208201526000611122604083018486612d93565b634e487b7160e01b600052601160045260246000fd5b600082821015612e0257612e02612dda565b500390565b8284823760609190911b6bffffffffffffffffffffffff19169101908152601401919050565b600081518084526020808501945080840160005b83811015612e5d57815187529582019590820190600101612e41565b509495945050505050565b606081526000612e7b6060830186612950565b8281036020840152612e8d8186612e2d565b90508281036040840152612ea18185612e2d565b9695505050505050565b61ffff861681526001600160a01b038516602082015260a060408201819052600090612ed990830186612950565b84151560608401528281036080840152612ef38185612950565b98975050505050505050565b60008060408385031215612f1257600080fd5b505080516020909101519092909150565b600061ffff808816835280871660208401525084604083015260806060830152611d2b608083018486612d93565b61ffff86168152608060208201526000612f6f608083018688612d93565b6001600160401b0394909416604083015250606001529392505050565b600082601f830112612f9d57600080fd5b8151612fab61266e82612628565b818152846020838601011115612fc057600080fd5b612fd1826020830160208701612920565b949350505050565b600060208284031215612feb57600080fd5b81516001600160401b0381111561300157600080fd5b612fd184828501612f8c565b61ffff8516815260806020820152600061302a6080830186612950565b6001600160401b03851660408401528281036060840152611d2b8185612950565b60208082526024908201527f4c7a4170703a205f61646170746572506172616d73206d75737420626520656d604082015263383a3c9760e11b606082015260800190565b600082516130a1818460208701612920565b9190910192915050565b634e487b7160e01b600052603260045260246000fd5b6040815260006130d46040830185612e2d565b82810360208401526111228185612e2d565b600082601f8301126130f757600080fd5b8151602061310761266e836126a5565b82815260059290921b8401810191818101908684111561312657600080fd5b8286015b84811015612723578051835291830191830161312a565b60008060006060848603121561315657600080fd5b83516001600160401b038082111561316d57600080fd5b61317987838801612f8c565b9450602086015191508082111561318f57600080fd5b61319b878388016130e6565b935060408601519150808211156131b157600080fd5b506131be868287016130e6565b9150509250925092565b600082198211156131db576131db612dda565b500190565b61ffff8616815260a0602082015260006131fd60a0830187612950565b6001600160401b0386166040840152828103606084015261321e8186612950565b90508281036080840152612ef38185612950565b6001600160a01b0385811682528416602082015260a06040820181905260009061325e90830185612e2d565b82810360608401526132708185612e2d565b838103608090940193909352505060008152602001949350505050565b61ffff8716815260c0602082015260006132aa60c0830188612950565b82810360408401526132bc8188612950565b6001600160a01b0387811660608601528616608085015283810360a085015290506132e78185612950565b999850505050505050505056fea26469706673582212201b02e1c5f7eca210aa9081cdefef4559eb454a9fd9a7e5a549309834cbe1fd5f64736f6c634300080c0033",
  "linkReferences": {},
  "deployedLinkReferences": {}
}