{
  "_format": "hh-sol-artifact-1",
  "contractName": "UltraLightNode302",
  "sourceName": "contracts/uln/uln302/UltraLightNode302.sol",
  "abi": [
    {
      "inputs": [
        {
          "internalType": "address",
          "name": "_endpoint",
          "type": "address"
        },
        {
          "internalType": "uint256",
          "name": "_treasuryGasCap",
          "type": "uint256"
        },
        {
          "internalType": "address",
          "name": "_ulnConfig",
          "type": "address"
        }
      ],
      "stateMutability": "nonpayable",
      "type": "constructor"
    },
    {
      "anonymous": false,
      "inputs": [
        {
          "indexed": false,
          "internalType": "address",
          "name": "executor",
          "type": "address"
        },
        {
          "indexed": false,
          "internalType": "uint256",
          "name": "fee",
          "type": "uint256"
        }
      ],
      "name": "ExecutorFeePaid",
      "type": "event"
    },
    {
      "anonymous": false,
      "inputs": [
        {
          "indexed": false,
          "internalType": "address",
          "name": "lzToken",
          "type": "address"
        },
        {
          "indexed": false,
          "internalType": "address",
          "name": "receiver",
          "type": "address"
        },
        {
          "indexed": false,
          "internalType": "uint256",
          "name": "amount",
          "type": "uint256"
        }
      ],
      "name": "LzTokenFeeWithdrawn",
      "type": "event"
    },
    {
      "anonymous": false,
      "inputs": [
        {
          "indexed": false,
          "internalType": "address",
          "name": "worker",
          "type": "address"
        },
        {
          "indexed": false,
          "internalType": "address",
          "name": "receiver",
          "type": "address"
        },
        {
          "indexed": false,
          "internalType": "uint256",
          "name": "amount",
          "type": "uint256"
        }
      ],
      "name": "NativeOrAltTokenFeeWithdrawn",
      "type": "event"
    },
    {
      "anonymous": false,
      "inputs": [
        {
          "indexed": true,
          "internalType": "address",
          "name": "previousOwner",
          "type": "address"
        },
        {
          "indexed": true,
          "internalType": "address",
          "name": "newOwner",
          "type": "address"
        }
      ],
      "name": "OwnershipTransferred",
      "type": "event"
    },
    {
      "anonymous": false,
      "inputs": [
        {
          "indexed": false,
          "internalType": "address",
          "name": "verifier",
          "type": "address"
        },
        {
          "indexed": false,
          "internalType": "bytes",
          "name": "header",
          "type": "bytes"
        },
        {
          "indexed": false,
          "internalType": "uint256",
          "name": "confirmations",
          "type": "uint256"
        },
        {
          "indexed": false,
          "internalType": "bytes32",
          "name": "proofHash",
          "type": "bytes32"
        }
      ],
      "name": "PayloadSigned",
      "type": "event"
    },
    {
      "anonymous": false,
      "inputs": [
        {
          "indexed": false,
          "internalType": "address[]",
          "name": "verifiers",
          "type": "address[]"
        },
        {
          "indexed": false,
          "internalType": "address[]",
          "name": "optionalVerifiers",
          "type": "address[]"
        },
        {
          "indexed": false,
          "internalType": "uint256[]",
          "name": "fees",
          "type": "uint256[]"
        }
      ],
      "name": "VerifierFeePaid",
      "type": "event"
    },
    {
      "inputs": [
        {
          "internalType": "uint32",
          "name": "dstEid",
          "type": "uint32"
        }
      ],
      "name": "defaultOptions",
      "outputs": [
        {
          "internalType": "bytes",
          "name": "option",
          "type": "bytes"
        }
      ],
      "stateMutability": "view",
      "type": "function"
    },
    {
      "inputs": [
        {
          "internalType": "bytes",
          "name": "_packetHeader",
          "type": "bytes"
        },
        {
          "internalType": "bytes32",
          "name": "_payloadHash",
          "type": "bytes32"
        }
      ],
      "name": "deliver",
      "outputs": [],
      "stateMutability": "nonpayable",
      "type": "function"
    },
    {
      "inputs": [
        {
          "internalType": "bytes",
          "name": "_packetHeader",
          "type": "bytes"
        },
        {
          "internalType": "bytes32",
          "name": "_payloadHash",
          "type": "bytes32"
        }
      ],
      "name": "deliverable",
      "outputs": [
        {
          "internalType": "enum IMessageLibBase.DeliveryState",
          "name": "",
          "type": "uint8"
        }
      ],
      "stateMutability": "view",
      "type": "function"
    },
    {
      "inputs": [
        {
          "internalType": "address",
          "name": "worker",
          "type": "address"
        }
      ],
      "name": "fees",
      "outputs": [
        {
          "internalType": "uint256",
          "name": "",
          "type": "uint256"
        }
      ],
      "stateMutability": "view",
      "type": "function"
    },
    {
      "inputs": [
        {
          "internalType": "uint32",
          "name": "_eid",
          "type": "uint32"
        },
        {
          "internalType": "address",
          "name": "_oapp",
          "type": "address"
        },
        {
          "internalType": "uint32",
          "name": "_configType",
          "type": "uint32"
        }
      ],
      "name": "getConfig",
      "outputs": [
        {
          "internalType": "bytes",
          "name": "",
          "type": "bytes"
        },
        {
          "internalType": "bool",
          "name": "",
          "type": "bool"
        }
      ],
      "stateMutability": "view",
      "type": "function"
    },
    {
      "inputs": [
        {
          "internalType": "uint32",
          "name": "_eid",
          "type": "uint32"
        },
        {
          "internalType": "uint32",
          "name": "_configType",
          "type": "uint32"
        }
      ],
      "name": "getDefaultConfig",
      "outputs": [
        {
          "internalType": "bytes",
          "name": "",
          "type": "bytes"
        }
      ],
      "stateMutability": "view",
      "type": "function"
    },
    {
      "inputs": [
        {
          "internalType": "bytes32",
          "name": "headerHash",
          "type": "bytes32"
        },
        {
          "internalType": "bytes32",
          "name": "payloadHash",
          "type": "bytes32"
        },
        {
          "internalType": "address",
          "name": "verifier",
          "type": "address"
        }
      ],
      "name": "hashLookup",
      "outputs": [
        {
          "internalType": "uint64",
          "name": "confirmations",
          "type": "uint64"
        }
      ],
      "stateMutability": "view",
      "type": "function"
    },
    {
      "inputs": [
        {
          "internalType": "uint32",
          "name": "_eid",
          "type": "uint32"
        }
      ],
      "name": "isSupportedEid",
      "outputs": [
        {
          "internalType": "bool",
          "name": "",
          "type": "bool"
        }
      ],
      "stateMutability": "view",
      "type": "function"
    },
    {
      "inputs": [],
      "name": "owner",
      "outputs": [
        {
          "internalType": "address",
          "name": "",
          "type": "address"
        }
      ],
      "stateMutability": "view",
      "type": "function"
    },
    {
      "inputs": [
        {
          "components": [
            {
              "internalType": "address",
              "name": "sender",
              "type": "address"
            },
            {
              "internalType": "uint32",
              "name": "dstEid",
              "type": "uint32"
            },
            {
              "internalType": "bytes",
              "name": "message",
              "type": "bytes"
            }
          ],
          "internalType": "struct IPacket.PacketForQuote",
          "name": "_packet",
          "type": "tuple"
        },
        {
          "internalType": "bool",
          "name": "_payInLzToken",
          "type": "bool"
        },
        {
          "internalType": "bytes",
          "name": "_options",
          "type": "bytes"
        }
      ],
      "name": "quote",
      "outputs": [
        {
          "components": [
            {
              "internalType": "uint256",
              "name": "nativeFee",
              "type": "uint256"
            },
            {
              "internalType": "uint256",
              "name": "lzTokenFee",
              "type": "uint256"
            }
          ],
          "internalType": "struct ILayerZeroEndpointV2.MessagingFee",
          "name": "",
          "type": "tuple"
        }
      ],
      "stateMutability": "view",
      "type": "function"
    },
    {
      "inputs": [],
      "name": "renounceOwnership",
      "outputs": [],
      "stateMutability": "nonpayable",
      "type": "function"
    },
    {
      "inputs": [
        {
          "internalType": "uint32[]",
          "name": "_eids",
          "type": "uint32[]"
        },
        {
          "internalType": "address",
          "name": "_oapp",
          "type": "address"
        }
      ],
      "name": "resetConfig",
      "outputs": [],
      "stateMutability": "nonpayable",
      "type": "function"
    },
    {
      "inputs": [
        {
          "components": [
            {
              "internalType": "uint64",
              "name": "nonce",
              "type": "uint64"
            },
            {
              "internalType": "uint32",
              "name": "srcEid",
              "type": "uint32"
            },
            {
              "internalType": "address",
              "name": "sender",
              "type": "address"
            },
            {
              "internalType": "uint32",
              "name": "dstEid",
              "type": "uint32"
            },
            {
              "internalType": "bytes32",
              "name": "receiver",
              "type": "bytes32"
            },
            {
              "internalType": "bytes32",
              "name": "guid",
              "type": "bytes32"
            },
            {
              "internalType": "bytes",
              "name": "message",
              "type": "bytes"
            }
          ],
          "internalType": "struct IPacket.Packet",
          "name": "_packet",
          "type": "tuple"
        },
        {
          "internalType": "bytes",
          "name": "_options",
          "type": "bytes"
        },
        {
          "internalType": "bool",
          "name": "_payInLzToken",
          "type": "bool"
        }
      ],
      "name": "send",
      "outputs": [
        {
          "components": [
            {
              "internalType": "bytes32",
              "name": "guid",
              "type": "bytes32"
            },
            {
              "internalType": "uint64",
              "name": "nonce",
              "type": "uint64"
            },
            {
              "components": [
                {
                  "internalType": "uint256",
                  "name": "nativeFee",
                  "type": "uint256"
                },
                {
                  "internalType": "uint256",
                  "name": "lzTokenFee",
                  "type": "uint256"
                }
              ],
              "internalType": "struct ILayerZeroEndpointV2.MessagingFee",
              "name": "fee",
              "type": "tuple"
            }
          ],
          "internalType": "struct ILayerZeroEndpointV2.MessagingReceipt",
          "name": "",
          "type": "tuple"
        },
        {
          "internalType": "bytes",
          "name": "",
          "type": "bytes"
        },
        {
          "internalType": "bytes",
          "name": "",
          "type": "bytes"
        }
      ],
      "stateMutability": "nonpayable",
      "type": "function"
    },
    {
      "inputs": [
        {
          "internalType": "address",
          "name": "_oapp",
          "type": "address"
        },
        {
          "internalType": "uint32",
          "name": "_eid",
          "type": "uint32"
        },
        {
          "components": [
            {
              "internalType": "uint32",
              "name": "configType",
              "type": "uint32"
            },
            {
              "internalType": "bytes",
              "name": "config",
              "type": "bytes"
            }
          ],
          "internalType": "struct IMessageLibManager.SetConfigParam[]",
          "name": "_params",
          "type": "tuple[]"
        }
      ],
      "name": "setConfig",
      "outputs": [],
      "stateMutability": "nonpayable",
      "type": "function"
    },
    {
      "inputs": [
        {
          "internalType": "uint32",
          "name": "_dstEid",
          "type": "uint32"
        },
        {
          "internalType": "bytes",
          "name": "_options",
          "type": "bytes"
        }
      ],
      "name": "setDefaultOptions",
      "outputs": [],
      "stateMutability": "nonpayable",
      "type": "function"
    },
    {
      "inputs": [
        {
          "internalType": "address",
          "name": "_treasury",
          "type": "address"
        }
      ],
      "name": "setTreasury",
      "outputs": [],
      "stateMutability": "nonpayable",
      "type": "function"
    },
    {
      "inputs": [
        {
          "internalType": "uint32[]",
          "name": "_eids",
          "type": "uint32[]"
        },
        {
          "internalType": "address",
          "name": "_oapp",
          "type": "address"
        }
      ],
      "name": "snapshotConfig",
      "outputs": [],
      "stateMutability": "nonpayable",
      "type": "function"
    },
    {
      "inputs": [
        {
          "internalType": "bytes4",
          "name": "_interfaceId",
          "type": "bytes4"
        }
      ],
      "name": "supportsInterface",
      "outputs": [
        {
          "internalType": "bool",
          "name": "",
          "type": "bool"
        }
      ],
      "stateMutability": "view",
      "type": "function"
    },
    {
      "inputs": [
        {
          "internalType": "address",
          "name": "newOwner",
          "type": "address"
        }
      ],
      "name": "transferOwnership",
      "outputs": [],
      "stateMutability": "nonpayable",
      "type": "function"
    },
    {
      "inputs": [],
      "name": "treasury",
      "outputs": [
        {
          "internalType": "address",
          "name": "",
          "type": "address"
        }
      ],
      "stateMutability": "view",
      "type": "function"
    },
    {
      "inputs": [
        {
          "internalType": "address",
          "name": "_verifier",
          "type": "address"
        },
        {
          "internalType": "bytes32",
          "name": "_headerHash",
          "type": "bytes32"
        },
        {
          "internalType": "bytes32",
          "name": "_payloadHash",
          "type": "bytes32"
        },
        {
          "internalType": "uint64",
          "name": "_requiredConfirmation",
          "type": "uint64"
        }
      ],
      "name": "verified",
      "outputs": [
        {
          "internalType": "bool",
          "name": "",
          "type": "bool"
        }
      ],
      "stateMutability": "view",
      "type": "function"
    },
    {
      "inputs": [
        {
          "internalType": "bytes",
          "name": "_packetHeader",
          "type": "bytes"
        },
        {
          "internalType": "bytes32",
          "name": "_payloadHash",
          "type": "bytes32"
        },
        {
          "internalType": "uint64",
          "name": "_confirmations",
          "type": "uint64"
        }
      ],
      "name": "verify",
      "outputs": [],
      "stateMutability": "nonpayable",
      "type": "function"
    },
    {
      "inputs": [
        {
          "components": [
            {
              "internalType": "uint64",
              "name": "inboundConfirmations",
              "type": "uint64"
            },
            {
              "internalType": "bool",
              "name": "useCustomVerifiers",
              "type": "bool"
            },
            {
              "internalType": "bool",
              "name": "useCustomOptionalVerifiers",
              "type": "bool"
            },
            {
              "internalType": "uint8",
              "name": "verifierCount",
              "type": "uint8"
            },
            {
              "internalType": "uint8",
              "name": "optionalVerifierCount",
              "type": "uint8"
            },
            {
              "internalType": "uint8",
              "name": "optionalVerifierThreshold",
              "type": "uint8"
            },
            {
              "internalType": "address[]",
              "name": "verifiers",
              "type": "address[]"
            },
            {
              "internalType": "address[]",
              "name": "optionalVerifiers",
              "type": "address[]"
            }
          ],
          "internalType": "struct UlnConfigStruct",
          "name": "_config",
          "type": "tuple"
        },
        {
          "internalType": "bytes32",
          "name": "_headerHash",
          "type": "bytes32"
        },
        {
          "internalType": "bytes32",
          "name": "_payloadHash",
          "type": "bytes32"
        }
      ],
      "name": "verifyConditionMet",
      "outputs": [
        {
          "internalType": "bool",
          "name": "",
          "type": "bool"
        }
      ],
      "stateMutability": "view",
      "type": "function"
    },
    {
      "inputs": [],
      "name": "version",
      "outputs": [
        {
          "internalType": "uint64",
          "name": "major",
          "type": "uint64"
        },
        {
          "internalType": "uint8",
          "name": "minor",
          "type": "uint8"
        },
        {
          "internalType": "uint8",
          "name": "endpointVersion",
          "type": "uint8"
        }
      ],
      "stateMutability": "pure",
      "type": "function"
    },
    {
      "inputs": [
        {
          "internalType": "address",
          "name": "_to",
          "type": "address"
        },
        {
          "internalType": "uint256",
          "name": "_amount",
          "type": "uint256"
        }
      ],
      "name": "withdrawFee",
      "outputs": [],
      "stateMutability": "nonpayable",
      "type": "function"
    },
    {
      "inputs": [
        {
          "internalType": "address",
          "name": "_lzToken",
          "type": "address"
        },
        {
          "internalType": "address",
          "name": "_to",
          "type": "address"
        },
        {
          "internalType": "uint256",
          "name": "_amount",
          "type": "uint256"
        }
      ],
      "name": "withdrawLzTokenFee",
      "outputs": [],
      "stateMutability": "nonpayable",
      "type": "function"
    },
    {
      "stateMutability": "payable",
      "type": "receive"
    }
  ],
  "bytecode": "0x6101206040523480156200001257600080fd5b5060405162005b4738038062005b47833981016040819052620000359162000158565b8260018382836001600160a01b031663416ecebf6040518163ffffffff1660e01b8152600401602060405180830381865afa15801562000079573d6000803e3d6000fd5b505050506040513d601f19601f820116820180604052508101906200009f919062000199565b6001600160a01b0386166080528383620000b933620000e9565b6001600160a01b0390931660a05263ffffffff90911660c05260ff1660e0526101005250620001c8945050505050565b600180546001600160a01b038381166001600160a01b0319831681179093556040519116919082907f8be0079c531659141344cd1fd0a4f28419497f9722a3daafe3b4186f6b6457e090600090a35050565b80516001600160a01b03811681146200015357600080fd5b919050565b6000806000606084860312156200016e57600080fd5b62000179846200013b565b92506020840151915062000190604085016200013b565b90509250925092565b600060208284031215620001ac57600080fd5b815163ffffffff81168114620001c157600080fd5b9392505050565b60805160a05160c05160e051610100516158bc6200028b60003960006125bf015260008181611b8a0152611d4e01526000611dd501526000818161077c0152818161090e01528181610aea01528181610dc1015281816113fc0152818161157e0152818161180501528181612071015261216601526000818161081701528181610c0001528181610edc01528181610f9b015281816110de015281816111c90152818161149a01528181611610015281816129d60152612b3e01526158bc6000f3fe6080604052600436106101a55760003560e01c80637c0cf763116100e1578063d2d287f01161008a578063f0f4426011610064578063f0f4426014610593578063f2fde38b146105b3578063faaebd21146105d3578063fd9be5221461060e57600080fd5b8063d2d287f014610533578063df1e309f14610553578063e9817f341461057357600080fd5b8063a5972ec5116100bb578063a5972ec51461048b578063b8007ff6146104ab578063c7734173146104cb57600080fd5b80637c0cf763146104055780638da5cb5b146104325780639c33abf71461045d57600080fd5b80634389e58f1161014e57806361d027b31161012857806361d027b3146103515780636750cd4c146103a3578063690c6555146103c3578063715018a6146103f057600080fd5b80634389e58f146102d557806354fd4d50146103045780635ed31c591461033157600080fd5b80631c63e3b61161017f5780631c63e3b614610235578063200175f7146102555780633c782a521461027557600080fd5b806301ffc9a7146101b15780630223536e146101e657806307d7b2f91461020857600080fd5b366101ac57005b600080fd5b3480156101bd57600080fd5b506101d16101cc36600461428b565b61062e565b60405190151581526020015b60405180910390f35b3480156101f257600080fd5b5061020661020136600461433c565b6106c7565b005b34801561021457600080fd5b506102286102233660046143b4565b6106d9565b6040516101dd9190614437565b34801561024157600080fd5b506102066102503660046144b5565b610746565b34801561026157600080fd5b5061020661027036600461450c565b610887565b34801561028157600080fd5b506102bc61029036600461454d565b6000602081815293815260408082208552928152828120909352825290205467ffffffffffffffff1681565b60405167ffffffffffffffff90911681526020016101dd565b3480156102e157600080fd5b506102f56102f036600461457b565b610aa7565b6040516101dd93929190614644565b34801561031057600080fd5b506040805160038152600060208201526002918101919091526060016101dd565b34801561033d57600080fd5b5061020661034c3660046146ab565b610bfc565b34801561035d57600080fd5b5060025461037e9073ffffffffffffffffffffffffffffffffffffffff1681565b60405173ffffffffffffffffffffffffffffffffffffffff90911681526020016101dd565b3480156103af57600080fd5b506101d16103be366004614709565b610ea5565b3480156103cf57600080fd5b506103e36103de366004614726565b610f5c565b6040516101dd919061475f565b3480156103fc57600080fd5b50610206611026565b34801561041157600080fd5b506104256104203660046146ab565b61103a565b6040516101dd91906147a1565b34801561043e57600080fd5b5060015473ffffffffffffffffffffffffffffffffffffffff1661037e565b34801561046957600080fd5b5061047d6104783660046147e2565b611169565b6040516101dd929190614822565b34801561049757600080fd5b506101d16104a6366004614982565b611244565b3480156104b757600080fd5b506102066104c6366004614a8b565b6113c6565b3480156104d757600080fd5b506101d16104e6366004614ae4565b60009283526020838152604080852093855292815282842073ffffffffffffffffffffffffffffffffffffffff9590951684529390935290205467ffffffffffffffff9182169116101590565b34801561053f57600080fd5b5061020661054e3660046144b5565b611548565b34801561055f57600080fd5b5061020661056e366004614b23565b611649565b34801561057f57600080fd5b506103e361058e366004614709565b611671565b34801561059f57600080fd5b506102066105ae366004614b78565b61170b565b3480156105bf57600080fd5b506102066105ce366004614b78565b61175a565b3480156105df57600080fd5b506106006105ee366004614b78565b60046020526000908152604090205481565b6040519081526020016101dd565b34801561061a57600080fd5b50610206610629366004614b95565b6117f7565b60007fffffffff0000000000000000000000000000000000000000000000000000000082167fd913d0cd0000000000000000000000000000000000000000000000000000000014806106c157507f01ffc9a7000000000000000000000000000000000000000000000000000000007fffffffff000000000000000000000000000000000000000000000000000000008316145b92915050565b6106d384848484611940565b50505050565b60408051808201909152600080825260208201526000806107276107006020890189614b78565b61071060408a0160208b01614709565b61071d60408b018b614bc1565b90508989896119f0565b604080518082019091529182526020820152925050505b949350505050565b60408051808201909152600781527f4c5a35303030300000000000000000000000000000000000000000000000000060208201527f000000000000000000000000000000000000000000000000000000000000000073ffffffffffffffffffffffffffffffffffffffff1633146107d95760405162461bcd60e51b81526004016107d0919061475f565b60405180910390fd5b506040517f1c63e3b600000000000000000000000000000000000000000000000000000000815273ffffffffffffffffffffffffffffffffffffffff7f00000000000000000000000000000000000000000000000000000000000000001690631c63e3b69061085090869086908690600401614c26565b600060405180830381600087803b15801561086a57600080fd5b505af115801561087e573d6000803e3d6000fd5b50505050505050565b60025460408051808201909152600781527f4c5a35303030300000000000000000000000000000000000000000000000000060208201529073ffffffffffffffffffffffffffffffffffffffff1633146108f45760405162461bcd60e51b81526004016107d0919061475f565b508273ffffffffffffffffffffffffffffffffffffffff167f000000000000000000000000000000000000000000000000000000000000000073ffffffffffffffffffffffffffffffffffffffff1663f936112b6040518163ffffffff1660e01b8152600401602060405180830381865afa158015610977573d6000803e3d6000fd5b505050506040513d601f19601f8201168201806040525081019061099b9190614c90565b73ffffffffffffffffffffffffffffffffffffffff16141580156109d4575073ffffffffffffffffffffffffffffffffffffffff821615155b6040518060400160405280600781526020017f4c5a31303030300000000000000000000000000000000000000000000000000081525090610a285760405162461bcd60e51b81526004016107d0919061475f565b50610a4a73ffffffffffffffffffffffffffffffffffffffff84168383611aee565b6040805173ffffffffffffffffffffffffffffffffffffffff8086168252841660208201529081018290527fe081464b7278501267de69fa85b7b9560b0ae05d5fbfaab9b1986c70356e2efe9060600160405180910390a1505050565b610aaf614243565b60408051808201909152600781527f4c5a353030303000000000000000000000000000000000000000000000000000602082015260609081907f000000000000000000000000000000000000000000000000000000000000000073ffffffffffffffffffffffffffffffffffffffff163314610b3e5760405162461bcd60e51b81526004016107d0919061475f565b506000806000610b4f8a8a8a611b80565b925092509250600080610b85610b6b60608e0160408f01614b78565b8d6060016020810190610b7e9190614709565b858c611c5e565b9092509050610b948284614cdc565b9250600060405180606001604052808e60a0013581526020018e6000016020810190610bc09190614cef565b67ffffffffffffffff1681526040805180820190915295865260208087019490945292909201939093529b929a50929850909650505050505050565b60007f000000000000000000000000000000000000000000000000000000000000000073ffffffffffffffffffffffffffffffffffffffff166343ea4fa9610c448686611cbe565b610c4e8787611cd0565b6040517fffffffff0000000000000000000000000000000000000000000000000000000060e085901b16815273ffffffffffffffffffffffffffffffffffffffff909216600483015263ffffffff166024820152604401600060405180830381865afa158015610cc2573d6000803e3d6000fd5b505050506040513d6000823e601f3d908101601f19168201604052610cea9190810190614e67565b90506001610cfa82868686611cf3565b6003811115610d0b57610d0b614772565b146040518060400160405280600781526020017f4c5a31303030300000000000000000000000000000000000000000000000000081525090610d605760405162461bcd60e51b81526004016107d0919061475f565b5060006040518060600160405280610d788787611cd0565b63ffffffff168152602001610d8d8787611ea0565b8152602001610d9c8787611eb9565b67ffffffffffffffff169052905073ffffffffffffffffffffffffffffffffffffffff7f0000000000000000000000000000000000000000000000000000000000000000166345c6dcc482610df18888611cbe565b604080517fffffffff0000000000000000000000000000000000000000000000000000000060e086901b168152835163ffffffff1660048201526020840151602482015292015167ffffffffffffffff16604483015273ffffffffffffffffffffffffffffffffffffffff1660648201526084810186905260a401600060405180830381600087803b158015610e8657600080fd5b505af1158015610e9a573d6000803e3d6000fd5b505050505050505050565b6040517f6750cd4c00000000000000000000000000000000000000000000000000000000815263ffffffff821660048201526000907f000000000000000000000000000000000000000000000000000000000000000073ffffffffffffffffffffffffffffffffffffffff1690636750cd4c90602401602060405180830381865afa158015610f38573d6000803e3d6000fd5b505050506040513d601f19601f820116820180604052508101906106c19190614e9c565b6040517f560042df00000000000000000000000000000000000000000000000000000000815263ffffffff8084166004830152821660248201526060907f000000000000000000000000000000000000000000000000000000000000000073ffffffffffffffffffffffffffffffffffffffff169063560042df90604401600060405180830381865afa158015610ff7573d6000803e3d6000fd5b505050506040513d6000823e601f3d908101601f1916820160405261101f9190810190614f1d565b9392505050565b61102e611edc565b6110386000611f43565b565b6000806110478585611cbe565b905060006110558686611cd0565b9050600061106582848989611fba565b9050600181600381111561107b5761107b614772565b1461108a57925061101f915050565b6040517f43ea4fa900000000000000000000000000000000000000000000000000000000815273ffffffffffffffffffffffffffffffffffffffff848116600483015263ffffffff841660248301526000917f0000000000000000000000000000000000000000000000000000000000000000909116906343ea4fa990604401600060405180830381865afa158015611127573d6000803e3d6000fd5b505050506040513d6000823e601f3d908101601f1916820160405261114f9190810190614e67565b905061115d81898989611cf3565b98975050505050505050565b6040517f8fd061fc00000000000000000000000000000000000000000000000000000000815263ffffffff808516600483015273ffffffffffffffffffffffffffffffffffffffff848116602484015290831660448301526060916000917f00000000000000000000000000000000000000000000000000000000000000001690638fd061fc90606401600060405180830381865afa158015611210573d6000803e3d6000fd5b505050506040513d6000823e601f3d908101601f191682016040526112389190810190614f52565b91509150935093915050565b8251600090815b856060015160ff168110156112df576112c88660c00151828151811061127357611273614f99565b60209081029190910181015160008881528083526040808220898352845280822073ffffffffffffffffffffffffffffffffffffffff90931682529190925290205467ffffffffffffffff8085169116101590565b6112d75760009250505061101f565b60010161124b565b506000856060015160ff161180156112fc5750608085015160ff16155b1561130b57600191505061101f565b6000805b866080015160ff168110156113b95761138c8760e00151828151811061133757611337614f99565b602090810291909101810151600089815280835260408082208a8352845280822073ffffffffffffffffffffffffffffffffffffffff90931682529190925290205467ffffffffffffffff8086169116101590565b156113b1578160010191508660a0015160ff1682106113b1576001935050505061101f565b60010161130f565b5060009695505050505050565b60408051808201909152600781527f4c5a35303030300000000000000000000000000000000000000000000000000060208201527f000000000000000000000000000000000000000000000000000000000000000073ffffffffffffffffffffffffffffffffffffffff1633146114505760405162461bcd60e51b81526004016107d0919061475f565b5060005b81811015611541573683838381811061146f5761146f614f99565b90506020028101906114819190614fc8565b905073ffffffffffffffffffffffffffffffffffffffff7f00000000000000000000000000000000000000000000000000000000000000001663d59104ed86886114ce6020860186614709565b6114db6020870187614bc1565b6040518663ffffffff1660e01b81526004016114fb959493929190615031565b600060405180830381600087803b15801561151557600080fd5b505af1158015611529573d6000803e3d6000fd5b5050505050808061153990615077565b915050611454565b5050505050565b60408051808201909152600781527f4c5a35303030300000000000000000000000000000000000000000000000000060208201527f000000000000000000000000000000000000000000000000000000000000000073ffffffffffffffffffffffffffffffffffffffff1633146115d25760405162461bcd60e51b81526004016107d0919061475f565b506040517fd2d287f000000000000000000000000000000000000000000000000000000000815273ffffffffffffffffffffffffffffffffffffffff7f0000000000000000000000000000000000000000000000000000000000000000169063d2d287f09061085090869086908690600401614c26565b611651611edc565b63ffffffff831660009081526003602052604090206106d3828483615148565b6003602052600090815260409020805461168a906150af565b80601f01602080910402602001604051908101604052809291908181526020018280546116b6906150af565b80156117035780601f106116d857610100808354040283529160200191611703565b820191906000526020600020905b8154815290600101906020018083116116e657829003601f168201915b505050505081565b611713611edc565b600280547fffffffffffffffffffffffff00000000000000000000000000000000000000001673ffffffffffffffffffffffffffffffffffffffff92909216919091179055565b611762611edc565b73ffffffffffffffffffffffffffffffffffffffff81166117eb5760405162461bcd60e51b815260206004820152602660248201527f4f776e61626c653a206e6577206f776e657220697320746865207a65726f206160448201527f646472657373000000000000000000000000000000000000000000000000000060648201526084016107d0565b6117f481611f43565b50565b61180182826121f3565b60007f000000000000000000000000000000000000000000000000000000000000000073ffffffffffffffffffffffffffffffffffffffff1663f936112b6040518163ffffffff1660e01b8152600401602060405180830381865afa15801561186e573d6000803e3d6000fd5b505050506040513d601f19601f820116820180604052508101906118929190614c90565b905073ffffffffffffffffffffffffffffffffffffffff8116158015906118d9576118d473ffffffffffffffffffffffffffffffffffffffff83168585611aee565b6118e3565b6118e384846122a4565b6040805133815273ffffffffffffffffffffffffffffffffffffffff861660208201529081018490527fb41e4a699a31f6278037fa278d73d6618985e1568fb5cfa02c743e48c965a751906060015b60405180910390a150505050565b806000808686604051611954929190615244565b604080519182900390912082526020808301939093529081016000908120868252835281812033808352935281902080547fffffffffffffffffffffffffffffffffffffffffffffffff00000000000000001667ffffffffffffffff949094169390931790925590517fd57606ee258836ec1b40f83a128d2b514581eaf4f71801fbed3bc94b5358ecc091611932918790879086908890615254565b600080600080611a0189878761235c565b92509250506000806000611a168d8d86612467565b925092509250611a268b82612486565b8173ffffffffffffffffffffffffffffffffffffffff1663709eb6648d8f8e896040518563ffffffff1660e01b8152600401611a6594939291906152a2565b602060405180830381865afa158015611a82573d6000803e3d6000fd5b505050506040513d601f19601f82011682018060405250810190611aa691906152e3565b611ab09084614cdc565b9250600080611ac18f8f878f6124db565b90925090508115611ad957611ad68286614cdc565b94505b939e939d50929b505050505050505050505050565b6040805173ffffffffffffffffffffffffffffffffffffffff8416602482015260448082018490528251808303909101815260649091019091526020810180517bffffffffffffffffffffffffffffffffffffffffffffffffffffffff167fa9059cbb00000000000000000000000000000000000000000000000000000000179052611b7b908490612617565b505050565b6060806000611baf7f00000000000000000000000000000000000000000000000000000000000000008761270c565b9150606080611bcd611bc660808a018a8401614709565b888861235c565b9196509250905060008080611be28b856127ae565b91945092509050611bf38387614cdc565b95506000611c0460c08d018d614bc1565b90509050611c128183612486565b611c43838d6060016020810190611c299190614709565b8e6040016020810190611c3c9190614b78565b848a6127ea565b611c4d9088614cdc565b965050505050505093509350939050565b600080611c6d868686866124db565b90925090508115611cb55760025473ffffffffffffffffffffffffffffffffffffffff1660009081526004602052604081208054849290611caf908490614cdc565b90915550505b94509492505050565b600061101f611ccd8484612923565b90565b6000611ce0600d600984866152fc565b611ce991615326565b60e01c9392505050565b60408051808201909152600781527f4c5a313030303900000000000000000000000000000000000000000000000000602082015260009060518414611d4b5760405162461bcd60e51b81526004016107d0919061475f565b507f000000000000000000000000000000000000000000000000000000000000000060ff16611d7a8585612933565b60ff16146040518060400160405280600781526020017f4c5a31303030370000000000000000000000000000000000000000000000000081525090611dd25760405162461bcd60e51b81526004016107d0919061475f565b507f000000000000000000000000000000000000000000000000000000000000000063ffffffff16611e048585612955565b63ffffffff16146040518060400160405280600781526020017f4c5a31303030380000000000000000000000000000000000000000000000000081525090611e5f5760405162461bcd60e51b81526004016107d0919061475f565b506000611e84868686604051611e76929190615244565b604051809103902085611244565b90508015611e9657600191505061073e565b600091505061073e565b6000611eb0602d600d84866152fc565b61101f9161536e565b6000611ec96009600184866152fc565b611ed2916153aa565b60c01c9392505050565b60015473ffffffffffffffffffffffffffffffffffffffff1633146110385760405162461bcd60e51b815260206004820181905260248201527f4f776e61626c653a2063616c6c6572206973206e6f7420746865206f776e657260448201526064016107d0565b6001805473ffffffffffffffffffffffffffffffffffffffff8381167fffffffffffffffffffffffff0000000000000000000000000000000000000000831681179093556040519116919082907f8be0079c531659141344cd1fd0a4f28419497f9722a3daafe3b4186f6b6457e090600090a35050565b60008060405180606001604052808763ffffffff168152602001611fde8686611ea0565b8152602001611fed8686611eb9565b67ffffffffffffffff908116909152604080517f418ba351000000000000000000000000000000000000000000000000000000008152835163ffffffff1660048201526020840151602482015290830151909116604482015230606482015273ffffffffffffffffffffffffffffffffffffffff87811660848301529192506000917f0000000000000000000000000000000000000000000000000000000000000000169063418ba3519060a401602060405180830381865afa1580156120b8573d6000803e3d6000fd5b505050506040513d601f19601f820116820180604052508101906120dc9190614e9c565b9050806120ee5760029250505061073e565b8151602083015160408085015190517fe361b59c00000000000000000000000000000000000000000000000000000000815273ffffffffffffffffffffffffffffffffffffffff8a8116600483015263ffffffff9094166024820152604481019290925267ffffffffffffffff1660648201526000917f0000000000000000000000000000000000000000000000000000000000000000169063e361b59c90608401602060405180830381865afa1580156121ad573d6000803e3d6000fd5b505050506040513d601f19601f820116820180604052508101906121d19190614e9c565b905080156121e5576002935050505061073e565b506001979650505050505050565b73ffffffffffffffffffffffffffffffffffffffff8216158015906122275750336000908152600460205260409020548111155b6040518060400160405280600781526020017f4c5a3130303030000000000000000000000000000000000000000000000000008152509061227b5760405162461bcd60e51b81526004016107d0919061475f565b50336000908152600460205260408120805483929061229b9084906153f0565b90915550505050565b60008273ffffffffffffffffffffffffffffffffffffffff168260405160006040518083038185875af1925050503d80600081146122fe576040519150601f19603f3d011682016040523d82523d6000602084013e612303565b606091505b50509050806040518060400160405280600781526020017f4c5a333030303000000000000000000000000000000000000000000000000000815250906106d35760405162461bcd60e51b81526004016107d0919061475f565b60608080600084900361240e5763ffffffff861660009081526003602052604090208054612389906150af565b80601f01602080910402602001604051908101604052809291908181526020018280546123b5906150af565b80156124025780601f106123d757610100808354040283529160200191612402565b820191906000526020600020905b8154815290600101906020018083116123e557829003601f168201915b50505050509250612448565b84848080601f0160208091040260200160405190810160405280939291908181526020018383808284376000920191909152509295505050505b82511561245e5761245883612965565b90925090505b93509350939050565b600080600061247786868661297a565b92509250925093509350939050565b60408051808201909152600781527f4c5a313030303900000000000000000000000000000000000000000000000000602082015281831115611b7b5760405162461bcd60e51b81526004016107d0919061475f565b600254600090819073ffffffffffffffffffffffffffffffffffffffff1615611cb5576002546040517fd424422100000000000000000000000000000000000000000000000000000000815273ffffffffffffffffffffffffffffffffffffffff888116600483015263ffffffff881660248301526044820187905285151560648301529091169063d424422190608401602060405180830381865afa9250505080156125a5575060408051601f3d908101601f191682019092526125a2918101906152e3565b60015b15611cb55783156125b85780915061260d565b60006125e47f00000000000000000000000000000000000000000000000000000000000000003a615403565b905060008187116125f557816125f7565b865b90508083116126065782612608565b805b945050505b5094509492505050565b6000612679826040518060400160405280602081526020017f5361666545524332303a206c6f772d6c6576656c2063616c6c206661696c65648152508573ffffffffffffffffffffffffffffffffffffffff16612ad39092919063ffffffff16565b905080516000148061269a57508080602001905181019061269a9190614e9c565b611b7b5760405162461bcd60e51b815260206004820152602a60248201527f5361666545524332303a204552433230206f7065726174696f6e20646964206e60448201527f6f7420737563636565640000000000000000000000000000000000000000000060648201526084016107d0565b60608261271c6020840184614cef565b61272c6040850160208601614709565b61275861273f6060870160408801614b78565b73ffffffffffffffffffffffffffffffffffffffff1690565b6127686080870160608801614709565b608087013560a088013561277f60c08a018a614bc1565b6040516020016127979998979695949392919061541a565b604051602081830303815290604052905092915050565b600080806127dd6004856127c86060890160408a01614b78565b6127d860808a0160608b01614709565b612ae2565b9250925092509250925092565b6040517f717e8a4200000000000000000000000000000000000000000000000000000000815260009073ffffffffffffffffffffffffffffffffffffffff87169063717e8a42906128459088908890889088906004016152a2565b6020604051808303816000875af1158015612864573d6000803e3d6000fd5b505050506040513d601f19601f8201168201806040525081019061288891906152e3565b905080156128cb5773ffffffffffffffffffffffffffffffffffffffff8616600090815260046020526040812080548392906128c5908490614cdc565b90915550505b6040805173ffffffffffffffffffffffffffffffffffffffff88168152602081018390527f61ed099e74a97a1d7f8bb0952a88ca8b7b8ebd00c126ea04671f92a81213318a910160405180910390a195945050505050565b6000611eb06051603184866152fc565b600061294260018284866152fc565b61294b916154d7565b60f81c9392505050565b6000611ce06031602d84866152fc565b60608061297183612c87565b91509150915091565b6040517f3563876b00000000000000000000000000000000000000000000000000000000815273ffffffffffffffffffffffffffffffffffffffff848116600483015263ffffffff8416602483015260009182918291829182917f000000000000000000000000000000000000000000000000000000000000000090911690633563876b90604401600060405180830381865afa158015612a1f573d6000803e3d6000fd5b505050506040513d6000823e601f3d908101601f19168201604052612a47919081019061551d565b9150915080604001519350806000015163ffffffff16925060008651600014612a8e5786600081518110612a7d57612a7d614f99565b602002602001015160200151612a9f565b604051806020016040528060008152505b9050600080612aad83612d72565b91509150612ac3858b86602001518e86866130d2565b9750505050505093509350939050565b606061073e848460008561326f565b6040517f3563876b00000000000000000000000000000000000000000000000000000000815273ffffffffffffffffffffffffffffffffffffffff838116600483015263ffffffff8316602483015260009182918291829182917f000000000000000000000000000000000000000000000000000000000000000090911690633563876b90604401600060405180830381865afa158015612b87573d6000803e3d6000fd5b505050506040513d6000823e601f3d908101601f19168201604052612baf919081019061551d565b9150915080604001519350806000015163ffffffff16925060008851600014612bf65788600081518110612be557612be5614f99565b602002602001015160200151612c07565b604051806020016040528060008152505b9050600080612c1583612d72565b915091506060612c2e8d878c88602001518f888861336e565b60c088015160e0890151604051939c509193507f4ec2ac8fdaa552cf8e85ded259f20fa01c58d98ceaf21c87f6db54dad6d4ec4992612c6f9290859061561e565b60405180910390a15050505050509450945094915050565b606080600080612c968561361d565b915091508051600003612cee57604080516000808252602082019092528391612ce2565b604080518082019091526000815260606020820152815260200190600190039081612cba5790505b50935093505050915091565b604080516001808252818301909252600091816020015b604080518082019091526000815260606020820152815260200190600190039081612d055790505090506040518060400160405280600260ff1681526020018381525081600081518110612d5b57612d5b614f99565b602090810291909101015291959194509092505050565b6060808251600003612d8357915091565b6000612d8e846137e2565b90508060ff16600103612e405760408051600180825281830190925290816020015b6060815260200190600190039081612db05790505092508383600081518110612ddb57612ddb614f99565b602090810291909101015260408051600180825281830190925290816020016020820280368337019050509150612e13846003613964565b82600081518110612e2657612e26614f99565b602002602001019060ff16908160ff168152505050915091565b8060ff1667ffffffffffffffff811115612e5c57612e5c614846565b604051908082528060200260200182016040528015612e85578160200160208202803683370190505b5091508060ff1667ffffffffffffffff811115612ea457612ea4614846565b604051908082528060200260200182016040528015612ed757816020015b6060815260200190600190039081612ec25790505b50925060008060ff5b865183101561300e576001909201916000612efb88856139ca565b905060028401935060028161ffff1610156040518060400160405280600781526020017f4c5a31303030390000000000000000000000000000000000000000000000000081525090612f605760405162461bcd60e51b81526004016107d0919061475f565b506000612f6d8986613964565b90508260ff1660ff03612f7e578092505b8260ff168160ff1614612fd5577ffffffffffffffffffffffffffffffffffffffffffffffffffffffffffffffffd848603016000612fbd8b8784613a30565b9050612fcb8a8a8784613b58565b5093909301929150815b8161ffff168501945088518503613007578385036000612ff68b8784613a30565b90506130048a8a8584613b58565b50505b5050612ee0565b865183146040518060400160405280600781526020017f4c5a313030303900000000000000000000000000000000000000000000000000815250906130665760405162461bcd60e51b81526004016107d0919061475f565b5060005b8460ff168160ff1610156130c857858160ff168151811061308d5761308d614f99565b6020908102919091010180517fffffffffffffffffffffffffffffffffffffffffffffffffffffffffffffffff0160ff16905260010161306a565b5050505050915091565b600080876080015188606001516130e99190615687565b905060005b8160ff1681101561326357600060608a6060015160ff168310613137578a60e001518b6060015160ff1684038151811061312a5761312a614f99565b6020026020010151613156565b8a60c00151838151811061314d5761314d614f99565b60200260200101515b915060005b86518110156131b0578387828151811061317757613177614f99565b602002602001015160ff16036131a85787818151811061319957613199614f99565b602002602001015191506131b0565b60010161315b565b506040517f30bb3aac00000000000000000000000000000000000000000000000000000000815273ffffffffffffffffffffffffffffffffffffffff8316906330bb3aac90613209908d908d908d9087906004016156a0565b602060405180830381865afa158015613226573d6000803e3d6000fd5b505050506040513d601f19601f8201168201806040525081019061324a91906152e3565b6132549086614cdc565b945082600101925050506130ee565b50509695505050505050565b6060824710156132e75760405162461bcd60e51b815260206004820152602660248201527f416464726573733a20696e73756666696369656e742062616c616e636520666f60448201527f722063616c6c000000000000000000000000000000000000000000000000000060648201526084016107d0565b6000808673ffffffffffffffffffffffffffffffffffffffff16858760405161331091906156eb565b60006040518083038185875af1925050503d806000811461334d576040519150601f19603f3d011682016040523d82523d6000602084013e613352565b606091505b509150915061336387838387613cc4565b979650505050505050565b600060606000886080015189606001516133889190615687565b90508060ff1667ffffffffffffffff8111156133a6576133a6614846565b6040519080825280602002602001820160405280156133cf578160200160208202803683370190505b5091506000805b8260ff1681101561360e57600060608c6060015160ff16831061341f578c60e001518d6060015160ff1684038151811061341257613412614f99565b602002602001015161343e565b8c60c00151838151811061343557613435614f99565b60200260200101515b91506000885111801561346c575087848151811061345e5761345e614f99565b602002602001015160ff1683145b1561349357885160018501948a91811061348857613488614f99565b602002602001015190505b6040517fe4fbd90300000000000000000000000000000000000000000000000000000000815273ffffffffffffffffffffffffffffffffffffffff83169063e4fbd903906134eb908f908f908f9087906004016156a0565b6020604051808303816000875af115801561350a573d6000803e3d6000fd5b505050506040513d601f19601f8201168201806040525081019061352e91906152e3565b86848151811061354057613540614f99565b602002602001018181525050600086848151811061356057613560614f99565b602002602001015111156136045785838151811061358057613580614f99565b60200260200101518e60008473ffffffffffffffffffffffffffffffffffffffff1673ffffffffffffffffffffffffffffffffffffffff16815260200190815260200160002060008282546135d59190614cdc565b925050819055508583815181106135ee576135ee614f99565b6020026020010151876136019190614cdc565b96505b50506001016133d6565b50505097509795505050505050565b606080600061362c84826139ca565b905060027ffffffffffffffffffffffffffffffffffffffffffffffffffffffffffffffffd61ffff8316016137ce578060005b865183101561376e5760006136748885613964565b90508160ff16600003613685578091505b8160ff168160ff16146136be5760006136a18985808803613a30565b90506136af88888584613d4a565b90985096508493509091508190505b60019093019260006136d089866139ca565b905060008161ffff16116040518060400160405280600781526020017f4c5a3130303039000000000000000000000000000000000000000000000000008152509061372e5760405162461bcd60e51b81526004016107d0919061475f565b508060020161ffff1685019450885185036137675760006137528a86808903613a30565b905061376089898584613d4a565b9099509750505b505061365f565b865183146040518060400160405280600781526020017f4c5a313030303900000000000000000000000000000000000000000000000000815250906137c65760405162461bcd60e51b81526004016107d0919061475f565b5050506137db565b6137d88286613e64565b93505b5050915091565b60008060005b835182101561390457600190910190600061380385846139ca565b905060028301925060028161ffff1610156040518060400160405280600781526020017f4c5a313030303900000000000000000000000000000000000000000000000000815250906138685760405162461bcd60e51b81526004016107d0919061475f565b5060006138758685613964565b905060ff8160ff16106040518060400160405280600781526020017f4c5a313030313100000000000000000000000000000000000000000000000000815250906138d25760405162461bcd60e51b81526004016107d0919061475f565b5060018181019060ff82161b84166138f45760019586019560ff82161b841793505b505061ffff1691909101906137e8565b835182146040518060400160405280600781526020017f4c5a3130303039000000000000000000000000000000000000000000000000008152509061395c5760405162461bcd60e51b81526004016107d0919061475f565b505050919050565b6000613971826001614cdc565b835110156139c15760405162461bcd60e51b815260206004820152601360248201527f746f55696e74385f6f75744f66426f756e64730000000000000000000000000060448201526064016107d0565b50016001015190565b60006139d7826002614cdc565b83511015613a275760405162461bcd60e51b815260206004820152601460248201527f746f55696e7431365f6f75744f66426f756e647300000000000000000000000060448201526064016107d0565b50016002015190565b606081613a3e81601f614cdc565b1015613a8c5760405162461bcd60e51b815260206004820152600e60248201527f736c6963655f6f766572666c6f7700000000000000000000000000000000000060448201526064016107d0565b613a968284614cdc565b84511015613ae65760405162461bcd60e51b815260206004820152601160248201527f736c6963655f6f75744f66426f756e647300000000000000000000000000000060448201526064016107d0565b606082158015613b055760405191506000825260208201604052613b4f565b6040519150601f8416801560200281840101858101878315602002848b0101015b81831015613b3e578051835260209283019201613b26565b5050858452601f01601f1916604052505b50949350505050565b60408051808201909152600781527f4c5a313030313100000000000000000000000000000000000000000000000000602082015260ff83811610613baf5760405162461bcd60e51b81526004016107d0919061475f565b506000613bbd836001615687565b905060005b84518160ff161015613cbc576000858260ff1681518110613be557613be5614f99565b602002602001015190508060ff168360ff1603613c6057868260ff1681518110613c1157613c11614f99565b602002602001015184604051602001613c2b9291906156fd565b604051602081830303815290604052878360ff1681518110613c4f57613c4f614f99565b602002602001018190525050613cbc565b8060ff16600003613cab5782868360ff1681518110613c8157613c81614f99565b602002602001019060ff16908160ff168152505083878360ff1681518110613c4f57613c4f614f99565b50613cb58161572c565b9050613bc2565b505050505050565b60608315613d40578251600003613d395773ffffffffffffffffffffffffffffffffffffffff85163b613d395760405162461bcd60e51b815260206004820152601d60248201527f416464726573733a2063616c6c20746f206e6f6e2d636f6e747261637400000060448201526064016107d0565b508161073e565b61073e8383614127565b6060807fffffffffffffffffffffffffffffffffffffffffffffffffffffffffffffffff60ff851601613dae57855115613da5578583604051602001613d919291906156fd565b604051602081830303815290604052613da7565b825b9550613e5a565b7ffffffffffffffffffffffffffffffffffffffffffffffffffffffffffffffffe60ff851601613e0f57845115613e06578483604051602001613df29291906156fd565b604051602081830303815290604052613e08565b825b9450613e5a565b604080518082018252600781527f4c5a3130303133000000000000000000000000000000000000000000000000006020820152905162461bcd60e51b81526107d0919060040161475f565b5093949293505050565b60607fffffffffffffffffffffffffffffffffffffffffffffffffffffffffffffffff61ffff841601613f9e5781516022146040518060400160405280600781526020017f4c5a31303030390000000000000000000000000000000000000000000000000081525090613eea5760405162461bcd60e51b81526004016107d0919061475f565b506000613f00613efb846002614151565b6141b7565b6040517f0100000000000000000000000000000000000000000000000000000000000000602082018190527e11000000000000000000000000000000000000000000000000000000000000602183015260238201527fffffffffffffffffffffffffffffffff00000000000000000000000000000000608083901b1660248201529091506034016040516020818303038152906040529150506106c1565b7ffffffffffffffffffffffffffffffffffffffffffffffffffffffffffffffffe61ffff8416016140dc5760428251118015613fdc57506062825111155b6040518060400160405280600781526020017f4c5a313030303900000000000000000000000000000000000000000000000000815250906140305760405162461bcd60e51b81526004016107d0919061475f565b506000614041613efb846002614151565b90506000614053613efb856022614151565b84519091506000907fffffffffffffffffffffffffffffffffffffffffffffffffffffffffffffffbe0161408986604283613a30565b6140929061574b565b60405160086020938403029190911c92506140c3916001916011918391889183916031916002918b918b910161578d565b60405160208183030381529060405293505050506106c1565b604080518082018252600781527f4c5a4330303030000000000000000000000000000000000000000000000000006020820152905162461bcd60e51b81526107d0919060040161475f565b8151156141375781518083602001fd5b8060405162461bcd60e51b81526004016107d0919061475f565b600061415e826020614cdc565b835110156141ae5760405162461bcd60e51b815260206004820152601560248201527f746f55696e743235365f6f75744f66426f756e6473000000000000000000000060448201526064016107d0565b50016020015190565b60006fffffffffffffffffffffffffffffffff82111561423f5760405162461bcd60e51b815260206004820152602760248201527f53616665436173743a2076616c756520646f65736e27742066697420696e203160448201527f323820626974730000000000000000000000000000000000000000000000000060648201526084016107d0565b5090565b604051806060016040528060008019168152602001600067ffffffffffffffff168152602001614286604051806040016040528060008152602001600081525090565b905290565b60006020828403121561429d57600080fd5b81357fffffffff000000000000000000000000000000000000000000000000000000008116811461101f57600080fd5b60008083601f8401126142df57600080fd5b50813567ffffffffffffffff8111156142f757600080fd5b60208301915083602082850101111561430f57600080fd5b9250929050565b67ffffffffffffffff811681146117f457600080fd5b803561433781614316565b919050565b6000806000806060858703121561435257600080fd5b843567ffffffffffffffff81111561436957600080fd5b614375878288016142cd565b90955093505060208501359150604085013561439081614316565b939692955090935050565b80151581146117f457600080fd5b80356143378161439b565b600080600080606085870312156143ca57600080fd5b843567ffffffffffffffff808211156143e257600080fd5b90860190606082890312156143f657600080fd5b9094506020860135906144088261439b565b9093506040860135908082111561441e57600080fd5b5061442b878288016142cd565b95989497509550505050565b8151815260208083015190820152604081016106c1565b60008083601f84011261446057600080fd5b50813567ffffffffffffffff81111561447857600080fd5b6020830191508360208260051b850101111561430f57600080fd5b73ffffffffffffffffffffffffffffffffffffffff811681146117f457600080fd5b6000806000604084860312156144ca57600080fd5b833567ffffffffffffffff8111156144e157600080fd5b6144ed8682870161444e565b909450925050602084013561450181614493565b809150509250925092565b60008060006060848603121561452157600080fd5b833561452c81614493565b9250602084013561453c81614493565b929592945050506040919091013590565b60008060006060848603121561456257600080fd5b8335925060208401359150604084013561450181614493565b6000806000806060858703121561459157600080fd5b843567ffffffffffffffff808211156145a957600080fd5b9086019060e082890312156145bd57600080fd5b909450602086013590808211156145d357600080fd5b506145e0878288016142cd565b90945092505060408501356143908161439b565b60005b8381101561460f5781810151838201526020016145f7565b50506000910152565b600081518084526146308160208601602086016145f4565b601f01601f19169290920160200192915050565b8351815267ffffffffffffffff60208501511660208201526000604085015161467a604084018280518252602090810151910152565b5060c0608083015261468f60c0830185614618565b82810360a08401526146a18185614618565b9695505050505050565b6000806000604084860312156146c057600080fd5b833567ffffffffffffffff8111156146d757600080fd5b6146e3868287016142cd565b909790965060209590950135949350505050565b63ffffffff811681146117f457600080fd5b60006020828403121561471b57600080fd5b813561101f816146f7565b6000806040838503121561473957600080fd5b8235614744816146f7565b91506020830135614754816146f7565b809150509250929050565b60208152600061101f6020830184614618565b7f4e487b7100000000000000000000000000000000000000000000000000000000600052602160045260246000fd5b60208101600483106147dc577f4e487b7100000000000000000000000000000000000000000000000000000000600052602160045260246000fd5b91905290565b6000806000606084860312156147f757600080fd5b8335614802816146f7565b9250602084013561481281614493565b91506040840135614501816146f7565b6040815260006148356040830185614618565b905082151560208301529392505050565b7f4e487b7100000000000000000000000000000000000000000000000000000000600052604160045260246000fd5b604051610100810167ffffffffffffffff8111828210171561489957614899614846565b60405290565b604051601f8201601f1916810167ffffffffffffffff811182821017156148c8576148c8614846565b604052919050565b60ff811681146117f457600080fd5b8035614337816148d0565b600067ffffffffffffffff82111561490457614904614846565b5060051b60200190565b600082601f83011261491f57600080fd5b8135602061493461492f836148ea565b61489f565b82815260059290921b8401810191818101908684111561495357600080fd5b8286015b8481101561497757803561496a81614493565b8352918301918301614957565b509695505050505050565b60008060006060848603121561499757600080fd5b833567ffffffffffffffff808211156149af57600080fd5b9085019061010082880312156149c457600080fd5b6149cc614875565b6149d58361432c565b81526149e3602084016143a9565b60208201526149f4604084016143a9565b6040820152614a05606084016148df565b6060820152614a16608084016148df565b6080820152614a2760a084016148df565b60a082015260c083013582811115614a3e57600080fd5b614a4a8982860161490e565b60c08301525060e083013582811115614a6257600080fd5b614a6e8982860161490e565b60e083015250976020870135975060409096013595945050505050565b60008060008060608587031215614aa157600080fd5b8435614aac81614493565b93506020850135614abc816146f7565b9250604085013567ffffffffffffffff811115614ad857600080fd5b61442b8782880161444e565b60008060008060808587031215614afa57600080fd5b8435614b0581614493565b93506020850135925060408501359150606085013561439081614316565b600080600060408486031215614b3857600080fd5b8335614b43816146f7565b9250602084013567ffffffffffffffff811115614b5f57600080fd5b614b6b868287016142cd565b9497909650939450505050565b600060208284031215614b8a57600080fd5b813561101f81614493565b60008060408385031215614ba857600080fd5b8235614bb381614493565b946020939093013593505050565b60008083357fffffffffffffffffffffffffffffffffffffffffffffffffffffffffffffffe1843603018112614bf657600080fd5b83018035915067ffffffffffffffff821115614c1157600080fd5b60200191503681900382131561430f57600080fd5b6040808252810183905260008460608301825b86811015614c66578235614c4c816146f7565b63ffffffff16825260209283019290910190600101614c39565b50809250505073ffffffffffffffffffffffffffffffffffffffff83166020830152949350505050565b600060208284031215614ca257600080fd5b815161101f81614493565b7f4e487b7100000000000000000000000000000000000000000000000000000000600052601160045260246000fd5b808201808211156106c1576106c1614cad565b600060208284031215614d0157600080fd5b813561101f81614316565b805161433781614316565b80516143378161439b565b8051614337816148d0565b600082601f830112614d3e57600080fd5b81516020614d4e61492f836148ea565b82815260059290921b84018101918181019086841115614d6d57600080fd5b8286015b84811015614977578051614d8481614493565b8352918301918301614d71565b60006101008284031215614da457600080fd5b614dac614875565b9050614db782614d0c565b8152614dc560208301614d17565b6020820152614dd660408301614d17565b6040820152614de760608301614d22565b6060820152614df860808301614d22565b6080820152614e0960a08301614d22565b60a082015260c082015167ffffffffffffffff80821115614e2957600080fd5b614e3585838601614d2d565b60c084015260e0840151915080821115614e4e57600080fd5b50614e5b84828501614d2d565b60e08301525092915050565b600060208284031215614e7957600080fd5b815167ffffffffffffffff811115614e9057600080fd5b61073e84828501614d91565b600060208284031215614eae57600080fd5b815161101f8161439b565b600082601f830112614eca57600080fd5b815167ffffffffffffffff811115614ee457614ee4614846565b614ef76020601f19601f8401160161489f565b818152846020838601011115614f0c57600080fd5b61073e8260208301602087016145f4565b600060208284031215614f2f57600080fd5b815167ffffffffffffffff811115614f4657600080fd5b61073e84828501614eb9565b60008060408385031215614f6557600080fd5b825167ffffffffffffffff811115614f7c57600080fd5b614f8885828601614eb9565b92505060208301516147548161439b565b7f4e487b7100000000000000000000000000000000000000000000000000000000600052603260045260246000fd5b600082357fffffffffffffffffffffffffffffffffffffffffffffffffffffffffffffffc1833603018112614ffc57600080fd5b9190910192915050565b818352818160208501375060006020828401015260006020601f19601f840116840101905092915050565b600063ffffffff808816835273ffffffffffffffffffffffffffffffffffffffff8716602084015280861660408401525060806060830152613363608083018486615006565b60007fffffffffffffffffffffffffffffffffffffffffffffffffffffffffffffffff82036150a8576150a8614cad565b5060010190565b600181811c908216806150c357607f821691505b6020821081036150fc577f4e487b7100000000000000000000000000000000000000000000000000000000600052602260045260246000fd5b50919050565b601f821115611b7b57600081815260208120601f850160051c810160208610156151295750805b601f850160051c820191505b81811015613cbc57828155600101615135565b67ffffffffffffffff83111561516057615160614846565b6151748361516e83546150af565b83615102565b6000601f8411600181146151c657600085156151905750838201355b7fffffffffffffffffffffffffffffffffffffffffffffffffffffffffffffffff600387901b1c1916600186901b178355611541565b600083815260209020601f19861690835b828110156151f757868501358255602094850194600190920191016151d7565b5086821015615232577fffffffffffffffffffffffffffffffffffffffffffffffffffffffffffffffff60f88860031b161c19848701351681555b505060018560011b0183555050505050565b8183823760009101908152919050565b73ffffffffffffffffffffffffffffffffffffffff86168152608060208201526000615284608083018688615006565b67ffffffffffffffff94909416604083015250606001529392505050565b63ffffffff8516815273ffffffffffffffffffffffffffffffffffffffff841660208201528260408201526080606082015260006146a16080830184614618565b6000602082840312156152f557600080fd5b5051919050565b6000808585111561530c57600080fd5b8386111561531957600080fd5b5050820193919092039150565b7fffffffff0000000000000000000000000000000000000000000000000000000081358181169160048510156153665780818660040360031b1b83161692505b505092915050565b803560208310156106c1577fffffffffffffffffffffffffffffffffffffffffffffffffffffffffffffffff602084900360031b1b1692915050565b7fffffffffffffffff00000000000000000000000000000000000000000000000081358181169160088510156153665760089490940360031b84901b1690921692915050565b818103818111156106c1576106c1614cad565b80820281158282048414176106c1576106c1614cad565b7fff000000000000000000000000000000000000000000000000000000000000008a60f81b1681527fffffffffffffffff0000000000000000000000000000000000000000000000008960c01b16600182015260007fffffffff00000000000000000000000000000000000000000000000000000000808a60e01b16600984015288600d840152808860e01b16602d8401525085603183015284605183015282846071840137506000910160710190815298975050505050505050565b7fff0000000000000000000000000000000000000000000000000000000000000081358181169160018510156153665760019490940360031b84901b1690921692915050565b600080828403608081121561553157600080fd5b835167ffffffffffffffff8082111561554957600080fd5b61555587838801614d91565b94506060601f198401121561556957600080fd5b6040519250606083019150828210818311171561558857615588614846565b50604052602084015161559a816146f7565b815260408401516155aa81614316565b602082015260608401516155bd81614493565b6040820152919491935090915050565b600081518084526020808501945080840160005b8381101561561357815173ffffffffffffffffffffffffffffffffffffffff16875295820195908201906001016155e1565b509495945050505050565b60608152600061563160608301866155cd565b60208382038185015261564482876155cd565b8481036040860152855180825282870193509082019060005b818110156156795784518352938301939183019160010161565d565b509098975050505050505050565b60ff81811683821601908111156106c1576106c1614cad565b63ffffffff8516815267ffffffffffffffff8416602082015273ffffffffffffffffffffffffffffffffffffffff831660408201526080606082015260006146a16080830184614618565b60008251614ffc8184602087016145f4565b6000835161570f8184602088016145f4565b8351908301906157238183602088016145f4565b01949350505050565b600060ff821660ff810361574257615742614cad565b60010192915050565b805160208083015191908110156150fc577fffffffffffffffffffffffffffffffffffffffffffffffffffffffffffffffff60209190910360031b1b16919050565b60007fff00000000000000000000000000000000000000000000000000000000000000808c60f81b1683527fffff000000000000000000000000000000000000000000000000000000000000808c60f01b166001850152818b60f81b1660038501527fffffffffffffffffffffffffffffffff000000000000000000000000000000008a60801b166004850152818960f81b166014850152808860f01b16601585015250808660f81b1660178401525061586e601883018560801b7fffffffffffffffffffffffffffffffff00000000000000000000000000000000169052565b5060288101919091526048019897505050505050505056fea2646970667358221220d02997114138e675e8b008e7e8dace01f307f3f6b2a1530434021e65f20cf5cc64736f6c63430008130033",
  "linkReferences": {},
  "deployedLinkReferences": {}
}