{
  "_format": "hh-sol-artifact-1",
  "contractName": "PingPong",
  "sourceName": "contracts/examples/PingPong.sol",
  "abi": [
    {
      "inputs": [
        {
          "internalType": "address",
          "name": "_endpoint",
          "type": "address"
        }
      ],
      "stateMutability": "nonpayable",
      "type": "constructor"
    },
    {
      "anonymous": false,
      "inputs": [
        {
          "indexed": false,
          "internalType": "uint16",
          "name": "_srcChainId",
          "type": "uint16"
        },
        {
          "indexed": false,
          "internalType": "bytes",
          "name": "_srcAddress",
          "type": "bytes"
        },
        {
          "indexed": false,
          "internalType": "uint64",
          "name": "_nonce",
          "type": "uint64"
        },
        {
          "indexed": false,
          "internalType": "bytes",
          "name": "_payload",
          "type": "bytes"
        },
        {
          "indexed": false,
          "internalType": "bytes",
          "name": "_reason",
          "type": "bytes"
        }
      ],
      "name": "MessageFailed",
      "type": "event"
    },
    {
      "anonymous": false,
      "inputs": [
        {
          "indexed": true,
          "internalType": "address",
          "name": "previousOwner",
          "type": "address"
        },
        {
          "indexed": true,
          "internalType": "address",
          "name": "newOwner",
          "type": "address"
        }
      ],
      "name": "OwnershipTransferred",
      "type": "event"
    },
    {
      "anonymous": false,
      "inputs": [
        {
          "indexed": false,
          "internalType": "address",
          "name": "account",
          "type": "address"
        }
      ],
      "name": "Paused",
      "type": "event"
    },
    {
      "anonymous": false,
      "inputs": [
        {
          "indexed": false,
          "internalType": "uint256",
          "name": "pings",
          "type": "uint256"
        }
      ],
      "name": "Ping",
      "type": "event"
    },
    {
      "anonymous": false,
      "inputs": [
        {
          "indexed": false,
          "internalType": "uint16",
          "name": "_srcChainId",
          "type": "uint16"
        },
        {
          "indexed": false,
          "internalType": "bytes",
          "name": "_srcAddress",
          "type": "bytes"
        },
        {
          "indexed": false,
          "internalType": "uint64",
          "name": "_nonce",
          "type": "uint64"
        },
        {
          "indexed": false,
          "internalType": "bytes32",
          "name": "_payloadHash",
          "type": "bytes32"
        }
      ],
      "name": "RetryMessageSuccess",
      "type": "event"
    },
    {
      "anonymous": false,
      "inputs": [
        {
          "indexed": false,
          "internalType": "uint16",
          "name": "_dstChainId",
          "type": "uint16"
        },
        {
          "indexed": false,
          "internalType": "uint16",
          "name": "_type",
          "type": "uint16"
        },
        {
          "indexed": false,
          "internalType": "uint256",
          "name": "_minDstGas",
          "type": "uint256"
        }
      ],
      "name": "SetMinDstGas",
      "type": "event"
    },
    {
      "anonymous": false,
      "inputs": [
        {
          "indexed": false,
          "internalType": "address",
          "name": "precrime",
          "type": "address"
        }
      ],
      "name": "SetPrecrime",
      "type": "event"
    },
    {
      "anonymous": false,
      "inputs": [
        {
          "indexed": false,
          "internalType": "uint16",
          "name": "_remoteChainId",
          "type": "uint16"
        },
        {
          "indexed": false,
          "internalType": "bytes",
          "name": "_path",
          "type": "bytes"
        }
      ],
      "name": "SetTrustedRemote",
      "type": "event"
    },
    {
      "anonymous": false,
      "inputs": [
        {
          "indexed": false,
          "internalType": "uint16",
          "name": "_remoteChainId",
          "type": "uint16"
        },
        {
          "indexed": false,
          "internalType": "bytes",
          "name": "_remoteAddress",
          "type": "bytes"
        }
      ],
      "name": "SetTrustedRemoteAddress",
      "type": "event"
    },
    {
      "anonymous": false,
      "inputs": [
        {
          "indexed": false,
          "internalType": "address",
          "name": "account",
          "type": "address"
        }
      ],
      "name": "Unpaused",
      "type": "event"
    },
    {
      "inputs": [],
      "name": "DEFAULT_PAYLOAD_SIZE_LIMIT",
      "outputs": [
        {
          "internalType": "uint256",
          "name": "",
          "type": "uint256"
        }
      ],
      "stateMutability": "view",
      "type": "function"
    },
    {
      "inputs": [
        {
          "internalType": "bool",
          "name": "en",
          "type": "bool"
        }
      ],
      "name": "enable",
      "outputs": [],
      "stateMutability": "nonpayable",
      "type": "function"
    },
    {
      "inputs": [
        {
          "internalType": "uint16",
          "name": "",
          "type": "uint16"
        },
        {
          "internalType": "bytes",
          "name": "",
          "type": "bytes"
        },
        {
          "internalType": "uint64",
          "name": "",
          "type": "uint64"
        }
      ],
      "name": "failedMessages",
      "outputs": [
        {
          "internalType": "bytes32",
          "name": "",
          "type": "bytes32"
        }
      ],
      "stateMutability": "view",
      "type": "function"
    },
    {
      "inputs": [
        {
          "internalType": "uint16",
          "name": "_srcChainId",
          "type": "uint16"
        },
        {
          "internalType": "bytes",
          "name": "_srcAddress",
          "type": "bytes"
        }
      ],
      "name": "forceResumeReceive",
      "outputs": [],
      "stateMutability": "nonpayable",
      "type": "function"
    },
    {
      "inputs": [
        {
          "internalType": "uint16",
          "name": "_version",
          "type": "uint16"
        },
        {
          "internalType": "uint16",
          "name": "_chainId",
          "type": "uint16"
        },
        {
          "internalType": "address",
          "name": "",
          "type": "address"
        },
        {
          "internalType": "uint256",
          "name": "_configType",
          "type": "uint256"
        }
      ],
      "name": "getConfig",
      "outputs": [
        {
          "internalType": "bytes",
          "name": "",
          "type": "bytes"
        }
      ],
      "stateMutability": "view",
      "type": "function"
    },
    {
      "inputs": [
        {
          "internalType": "uint16",
          "name": "_remoteChainId",
          "type": "uint16"
        }
      ],
      "name": "getTrustedRemoteAddress",
      "outputs": [
        {
          "internalType": "bytes",
          "name": "",
          "type": "bytes"
        }
      ],
      "stateMutability": "view",
      "type": "function"
    },
    {
      "inputs": [
        {
          "internalType": "uint16",
          "name": "_srcChainId",
          "type": "uint16"
        },
        {
          "internalType": "bytes",
          "name": "_srcAddress",
          "type": "bytes"
        }
      ],
      "name": "isTrustedRemote",
      "outputs": [
        {
          "internalType": "bool",
          "name": "",
          "type": "bool"
        }
      ],
      "stateMutability": "view",
      "type": "function"
    },
    {
      "inputs": [],
      "name": "lzEndpoint",
      "outputs": [
        {
          "internalType": "contract ILayerZeroEndpoint",
          "name": "",
          "type": "address"
        }
      ],
      "stateMutability": "view",
      "type": "function"
    },
    {
      "inputs": [
        {
          "internalType": "uint16",
          "name": "_srcChainId",
          "type": "uint16"
        },
        {
          "internalType": "bytes",
          "name": "_srcAddress",
          "type": "bytes"
        },
        {
          "internalType": "uint64",
          "name": "_nonce",
          "type": "uint64"
        },
        {
          "internalType": "bytes",
          "name": "_payload",
          "type": "bytes"
        }
      ],
      "name": "lzReceive",
      "outputs": [],
      "stateMutability": "nonpayable",
      "type": "function"
    },
    {
      "inputs": [
        {
          "internalType": "uint16",
          "name": "",
          "type": "uint16"
        },
        {
          "internalType": "uint16",
          "name": "",
          "type": "uint16"
        }
      ],
      "name": "minDstGasLookup",
      "outputs": [
        {
          "internalType": "uint256",
          "name": "",
          "type": "uint256"
        }
      ],
      "stateMutability": "view",
      "type": "function"
    },
    {
      "inputs": [
        {
          "internalType": "uint16",
          "name": "_srcChainId",
          "type": "uint16"
        },
        {
          "internalType": "bytes",
          "name": "_srcAddress",
          "type": "bytes"
        },
        {
          "internalType": "uint64",
          "name": "_nonce",
          "type": "uint64"
        },
        {
          "internalType": "bytes",
          "name": "_payload",
          "type": "bytes"
        }
      ],
      "name": "nonblockingLzReceive",
      "outputs": [],
      "stateMutability": "nonpayable",
      "type": "function"
    },
    {
      "inputs": [],
      "name": "owner",
      "outputs": [
        {
          "internalType": "address",
          "name": "",
          "type": "address"
        }
      ],
      "stateMutability": "view",
      "type": "function"
    },
    {
      "inputs": [],
      "name": "paused",
      "outputs": [
        {
          "internalType": "bool",
          "name": "",
          "type": "bool"
        }
      ],
      "stateMutability": "view",
      "type": "function"
    },
    {
      "inputs": [
        {
          "internalType": "uint16",
          "name": "",
          "type": "uint16"
        }
      ],
      "name": "payloadSizeLimitLookup",
      "outputs": [
        {
          "internalType": "uint256",
          "name": "",
          "type": "uint256"
        }
      ],
      "stateMutability": "view",
      "type": "function"
    },
    {
      "inputs": [
        {
          "internalType": "uint16",
          "name": "_dstChainId",
          "type": "uint16"
        },
        {
          "internalType": "address",
          "name": "",
          "type": "address"
        },
        {
          "internalType": "uint256",
          "name": "pings",
          "type": "uint256"
        }
      ],
      "name": "ping",
      "outputs": [],
      "stateMutability": "payable",
      "type": "function"
    },
    {
      "inputs": [],
      "name": "precrime",
      "outputs": [
        {
          "internalType": "address",
          "name": "",
          "type": "address"
        }
      ],
      "stateMutability": "view",
      "type": "function"
    },
    {
      "inputs": [],
      "name": "renounceOwnership",
      "outputs": [],
      "stateMutability": "nonpayable",
      "type": "function"
    },
    {
      "inputs": [
        {
          "internalType": "uint16",
          "name": "_srcChainId",
          "type": "uint16"
        },
        {
          "internalType": "bytes",
          "name": "_srcAddress",
          "type": "bytes"
        },
        {
          "internalType": "uint64",
          "name": "_nonce",
          "type": "uint64"
        },
        {
          "internalType": "bytes",
          "name": "_payload",
          "type": "bytes"
        }
      ],
      "name": "retryMessage",
      "outputs": [],
      "stateMutability": "payable",
      "type": "function"
    },
    {
      "inputs": [
        {
          "internalType": "uint16",
          "name": "_version",
          "type": "uint16"
        },
        {
          "internalType": "uint16",
          "name": "_chainId",
          "type": "uint16"
        },
        {
          "internalType": "uint256",
          "name": "_configType",
          "type": "uint256"
        },
        {
          "internalType": "bytes",
          "name": "_config",
          "type": "bytes"
        }
      ],
      "name": "setConfig",
      "outputs": [],
      "stateMutability": "nonpayable",
      "type": "function"
    },
    {
      "inputs": [
        {
          "internalType": "uint16",
          "name": "_dstChainId",
          "type": "uint16"
        },
        {
          "internalType": "uint16",
          "name": "_packetType",
          "type": "uint16"
        },
        {
          "internalType": "uint256",
          "name": "_minGas",
          "type": "uint256"
        }
      ],
      "name": "setMinDstGas",
      "outputs": [],
      "stateMutability": "nonpayable",
      "type": "function"
    },
    {
      "inputs": [
        {
          "internalType": "uint16",
          "name": "_dstChainId",
          "type": "uint16"
        },
        {
          "internalType": "uint256",
          "name": "_size",
          "type": "uint256"
        }
      ],
      "name": "setPayloadSizeLimit",
      "outputs": [],
      "stateMutability": "nonpayable",
      "type": "function"
    },
    {
      "inputs": [
        {
          "internalType": "address",
          "name": "_precrime",
          "type": "address"
        }
      ],
      "name": "setPrecrime",
      "outputs": [],
      "stateMutability": "nonpayable",
      "type": "function"
    },
    {
      "inputs": [
        {
          "internalType": "uint16",
          "name": "_version",
          "type": "uint16"
        }
      ],
      "name": "setReceiveVersion",
      "outputs": [],
      "stateMutability": "nonpayable",
      "type": "function"
    },
    {
      "inputs": [
        {
          "internalType": "uint16",
          "name": "_version",
          "type": "uint16"
        }
      ],
      "name": "setSendVersion",
      "outputs": [],
      "stateMutability": "nonpayable",
      "type": "function"
    },
    {
      "inputs": [
        {
          "internalType": "uint16",
          "name": "_remoteChainId",
          "type": "uint16"
        },
        {
          "internalType": "bytes",
          "name": "_path",
          "type": "bytes"
        }
      ],
      "name": "setTrustedRemote",
      "outputs": [],
      "stateMutability": "nonpayable",
      "type": "function"
    },
    {
      "inputs": [
        {
          "internalType": "uint16",
          "name": "_remoteChainId",
          "type": "uint16"
        },
        {
          "internalType": "bytes",
          "name": "_remoteAddress",
          "type": "bytes"
        }
      ],
      "name": "setTrustedRemoteAddress",
      "outputs": [],
      "stateMutability": "nonpayable",
      "type": "function"
    },
    {
      "inputs": [
        {
          "internalType": "address",
          "name": "newOwner",
          "type": "address"
        }
      ],
      "name": "transferOwnership",
      "outputs": [],
      "stateMutability": "nonpayable",
      "type": "function"
    },
    {
      "inputs": [
        {
          "internalType": "uint16",
          "name": "",
          "type": "uint16"
        }
      ],
      "name": "trustedRemoteLookup",
      "outputs": [
        {
          "internalType": "bytes",
          "name": "",
          "type": "bytes"
        }
      ],
      "stateMutability": "view",
      "type": "function"
    },
    {
      "stateMutability": "payable",
      "type": "receive"
    }
  ],
  "bytecode": "0x60a06040523480156200001157600080fd5b5060405162002506380380620025068339810160408190526200003491620000af565b808062000041336200005f565b6001600160a01b031660805250506006805460ff19169055620000e1565b600080546001600160a01b038381166001600160a01b0319831681178455604051919092169283917f8be0079c531659141344cd1fd0a4f28419497f9722a3daafe3b4186f6b6457e09190a35050565b600060208284031215620000c257600080fd5b81516001600160a01b0381168114620000da57600080fd5b9392505050565b6080516123d86200012e6000396000818161049d015281816105be0152818161080d015281816108b5015281816109d701528181610e0601528181611364015261184101526123d86000f3fe6080604052600436106101ba5760003560e01c80638da5cb5b116100ec578063cbed8b9c1161008a578063eb8d72b711610064578063eb8d72b714610548578063f2d566fc14610568578063f2fde38b1461057b578063f5ecbdbc1461059b57600080fd5b8063cbed8b9c146104f5578063d1deba1f14610515578063df2a5b3b1461052857600080fd5b8063a6c3d165116100c6578063a6c3d1651461046b578063b353aaa71461048b578063baf3292d146104bf578063c4461834146104df57600080fd5b80638da5cb5b146103f9578063950c8a741461042b5780639f38369a1461044b57600080fd5b80634df68ada1161015957806366ad5c8a1161013357806366ad5c8a1461035f578063715018a61461037f5780637533d788146103945780638cfd8f5c146103c157600080fd5b80634df68ada146102d85780635b8c41e6146102f85780635c975abb1461034757600080fd5b806310ddb1371161019557806310ddb137146102285780633d8b38f6146102485780633f1f4fa41461027d57806342d65a8d146102b857600080fd5b80621d3567146101c657806307e0db17146101e85780630df374831461020857600080fd5b366101c157005b600080fd5b3480156101d257600080fd5b506101e66101e1366004611c23565b6105bb565b005b3480156101f457600080fd5b506101e6610203366004611cb6565b6107ec565b34801561021457600080fd5b506101e6610223366004611cd1565b610875565b34801561023457600080fd5b506101e6610243366004611cb6565b610894565b34801561025457600080fd5b50610268610263366004611cfb565b6108ec565b60405190151581526020015b60405180910390f35b34801561028957600080fd5b506102aa610298366004611cb6565b60036020526000908152604090205481565b604051908152602001610274565b3480156102c457600080fd5b506101e66102d3366004611cfb565b6109b8565b3480156102e457600080fd5b506101e66102f3366004611d4d565b610a3e565b34801561030457600080fd5b506102aa610313366004611ddc565b6005602090815260009384526040808520845180860184018051928152908401958401959095209452929052825290205481565b34801561035357600080fd5b5060065460ff16610268565b34801561036b57600080fd5b506101e661037a366004611c23565b610a57565b34801561038b57600080fd5b506101e6610b33565b3480156103a057600080fd5b506103b46103af366004611cb6565b610b47565b6040516102749190611ed8565b3480156103cd57600080fd5b506102aa6103dc366004611eeb565b600260209081526000928352604080842090915290825290205481565b34801561040557600080fd5b506000546001600160a01b03165b6040516001600160a01b039091168152602001610274565b34801561043757600080fd5b50600454610413906001600160a01b031681565b34801561045757600080fd5b506103b4610466366004611cb6565b610be1565b34801561047757600080fd5b506101e6610486366004611cfb565b610cf8565b34801561049757600080fd5b506104137f000000000000000000000000000000000000000000000000000000000000000081565b3480156104cb57600080fd5b506101e66104da366004611f35565b610d8b565b3480156104eb57600080fd5b506102aa61271081565b34801561050157600080fd5b506101e6610510366004611f50565b610de7565b6101e6610523366004611c23565b610e7c565b34801561053457600080fd5b506101e6610543366004611fbe565b611092565b34801561055457600080fd5b506101e6610563366004611cfb565b611144565b6101e6610576366004611ffa565b61119e565b34801561058757600080fd5b506101e6610596366004611f35565b6112bd565b3480156105a757600080fd5b506103b46105b6366004612026565b611333565b337f00000000000000000000000000000000000000000000000000000000000000006001600160a01b0316146106385760405162461bcd60e51b815260206004820152601e60248201527f4c7a4170703a20696e76616c696420656e64706f696e742063616c6c6572000060448201526064015b60405180910390fd5b61ffff86166000908152600160205260408120805461065690612071565b80601f016020809104026020016040519081016040528092919081815260200182805461068290612071565b80156106cf5780601f106106a4576101008083540402835291602001916106cf565b820191906000526020600020905b8154815290600101906020018083116106b257829003601f168201915b505050505090508051868690501480156106ea575060008151115b801561071257508051602082012060405161070890889088906120ac565b6040518091039020145b61076d5760405162461bcd60e51b815260206004820152602660248201527f4c7a4170703a20696e76616c696420736f757263652073656e64696e6720636f6044820152651b9d1c9858dd60d21b606482015260840161062f565b6107e38787878080601f01602080910402602001604051908101604052809392919081815260200183838082843760009201919091525050604080516020601f8a018190048102820181019092528881528a9350915088908890819084018382808284376000920191909152506113e492505050565b50505050505050565b6107f461145d565b6040516307e0db1760e01b815261ffff821660048201527f00000000000000000000000000000000000000000000000000000000000000006001600160a01b0316906307e0db17906024015b600060405180830381600087803b15801561085a57600080fd5b505af115801561086e573d6000803e3d6000fd5b5050505050565b61087d61145d565b61ffff909116600090815260036020526040902055565b61089c61145d565b6040516310ddb13760e01b815261ffff821660048201527f00000000000000000000000000000000000000000000000000000000000000006001600160a01b0316906310ddb13790602401610840565b61ffff83166000908152600160205260408120805482919061090d90612071565b80601f016020809104026020016040519081016040528092919081815260200182805461093990612071565b80156109865780601f1061095b57610100808354040283529160200191610986565b820191906000526020600020905b81548152906001019060200180831161096957829003601f168201915b50505050509050838360405161099d9291906120ac565b60405180910390208180519060200120149150509392505050565b6109c061145d565b6040516342d65a8d60e01b81526001600160a01b037f000000000000000000000000000000000000000000000000000000000000000016906342d65a8d90610a10908690869086906004016120e5565b600060405180830381600087803b158015610a2a57600080fd5b505af11580156107e3573d6000803e3d6000fd5b8015610a4f57610a4c6114b7565b50565b610a4c611511565b333014610ab55760405162461bcd60e51b815260206004820152602660248201527f4e6f6e626c6f636b696e674c7a4170703a2063616c6c6572206d7573742062656044820152650204c7a4170760d41b606482015260840161062f565b610b2b8686868080601f01602080910402602001604051908101604052809392919081815260200183838082843760009201919091525050604080516020601f89018190048102820181019092528781528993509150879087908190840183828082843760009201919091525061154a92505050565b505050505050565b610b3b61145d565b610b456000611574565b565b60016020526000908152604090208054610b6090612071565b80601f0160208091040260200160405190810160405280929190818152602001828054610b8c90612071565b8015610bd95780601f10610bae57610100808354040283529160200191610bd9565b820191906000526020600020905b815481529060010190602001808311610bbc57829003601f168201915b505050505081565b61ffff8116600090815260016020526040812080546060929190610c0490612071565b80601f0160208091040260200160405190810160405280929190818152602001828054610c3090612071565b8015610c7d5780601f10610c5257610100808354040283529160200191610c7d565b820191906000526020600020905b815481529060010190602001808311610c6057829003601f168201915b50505050509050805160001415610cd65760405162461bcd60e51b815260206004820152601d60248201527f4c7a4170703a206e6f20747275737465642070617468207265636f7264000000604482015260640161062f565b610cf1600060148351610ce99190612119565b8391906115c4565b9392505050565b610d0061145d565b818130604051602001610d1593929190612130565b60408051601f1981840301815291815261ffff85166000908152600160209081529190208251610d4a93919290910190611aa0565b507f8c0400cfe2d1199b1a725c78960bcc2a344d869b80590d0f2bd005db15a572ce838383604051610d7e939291906120e5565b60405180910390a1505050565b610d9361145d565b600480546001600160a01b0319166001600160a01b0383169081179091556040519081527f5db758e995a17ec1ad84bdef7e8c3293a0bd6179bcce400dff5d4c3d87db726b9060200160405180910390a150565b610def61145d565b6040516332fb62e760e21b81526001600160a01b037f0000000000000000000000000000000000000000000000000000000000000000169063cbed8b9c90610e439088908890889088908890600401612156565b600060405180830381600087803b158015610e5d57600080fd5b505af1158015610e71573d6000803e3d6000fd5b505050505050505050565b61ffff86166000908152600560205260408082209051610e9f90889088906120ac565b90815260408051602092819003830190206001600160401b03871660009081529252902054905080610f1f5760405162461bcd60e51b815260206004820152602360248201527f4e6f6e626c6f636b696e674c7a4170703a206e6f2073746f726564206d65737360448201526261676560e81b606482015260840161062f565b808383604051610f309291906120ac565b604051809103902014610f8f5760405162461bcd60e51b815260206004820152602160248201527f4e6f6e626c6f636b696e674c7a4170703a20696e76616c6964207061796c6f616044820152601960fa1b606482015260840161062f565b61ffff87166000908152600560205260408082209051610fb290899089906120ac565b90815260408051602092819003830181206001600160401b038916600090815290845282902093909355601f8801829004820283018201905286825261104a918991899089908190840183828082843760009201919091525050604080516020601f8a018190048102820181019092528881528a93509150889088908190840183828082843760009201919091525061154a92505050565b7fc264d91f3adc5588250e1551f547752ca0cfa8f6b530d243b9f9f4cab10ea8e5878787878560405161108195949392919061218f565b60405180910390a150505050505050565b61109a61145d565b600081116110e25760405162461bcd60e51b81526020600482015260156024820152744c7a4170703a20696e76616c6964206d696e47617360581b604482015260640161062f565b61ffff83811660008181526002602090815260408083209487168084529482529182902085905581519283528201929092529081018290527f9d5c7c0b934da8fefa9c7760c98383778a12dfbfc0c3b3106518f43fb9508ac090606001610d7e565b61114c61145d565b61ffff8316600090815260016020526040902061116a908383611b24565b507ffa41487ad5d6728f0b19276fa1eddc16558578f5109fc39d2dc33c3230470dab838383604051610d7e939291906120e5565b6111a66116d1565b6000471161121e576040805162461bcd60e51b81526020600482015260248101919091527f7468652062616c616e6365206f66207468697320636f6e74726163742069732060448201527f302e20706c732073656e642067617320666f72206d6573736167652066656573606482015260840161062f565b7f48257dc961b6f792c2b78a080dacfed693b660960a702de21cee364e20270e2f611248826121ca565b60405181815290925060200160405180910390a160008160405160200161127191815260200190565b60408051601f19818403018152828252600160f01b602084015262055730602280850182905283518086039091018152604290940190925292506001916107e387853060008534611717565b6112c561145d565b6001600160a01b03811661132a5760405162461bcd60e51b815260206004820152602660248201527f4f776e61626c653a206e6577206f776e657220697320746865207a65726f206160448201526564647265737360d01b606482015260840161062f565b610a4c81611574565b604051633d7b2f6f60e21b815261ffff808616600483015284166024820152306044820152606481018290526060907f00000000000000000000000000000000000000000000000000000000000000006001600160a01b03169063f5ecbdbc90608401600060405180830381865afa1580156113b3573d6000803e3d6000fd5b505050506040513d6000823e601f3d908101601f191682016040526113db91908101906121e5565b95945050505050565b6000806114475a60966366ad5c8a60e01b8989898960405160240161140c9493929190612252565b60408051601f198184030181529190526020810180516001600160e01b03166001600160e01b031990931692909217909152309291906118bd565b9150915081610b2b57610b2b8686868685611947565b6000546001600160a01b03163314610b455760405162461bcd60e51b815260206004820181905260248201527f4f776e61626c653a2063616c6c6572206973206e6f7420746865206f776e6572604482015260640161062f565b6114bf6116d1565b6006805460ff191660011790557f62e78cea01bee320cd4e420270b5ea74000d11b0c9f74754ebdbfc544b05a2586114f43390565b6040516001600160a01b03909116815260200160405180910390a1565b6115196119e4565b6006805460ff191690557f5db9ee0a495bf2e6ff9c91a7834c1ba4fdd244a5e8aa4e537bd38aeae4b073aa336114f4565b601483015181516000906115679084016020908101908501612290565b9050610b2b86838361119e565b600080546001600160a01b038381166001600160a01b0319831681178455604051919092169283917f8be0079c531659141344cd1fd0a4f28419497f9722a3daafe3b4186f6b6457e09190a35050565b6060816115d281601f6122a9565b10156116115760405162461bcd60e51b815260206004820152600e60248201526d736c6963655f6f766572666c6f7760901b604482015260640161062f565b61161b82846122a9565b8451101561165f5760405162461bcd60e51b8152602060048201526011602482015270736c6963655f6f75744f66426f756e647360781b604482015260640161062f565b60608215801561167e57604051915060008252602082016040526116c8565b6040519150601f8416801560200281840101858101878315602002848b0101015b818310156116b757805183526020928301920161169f565b5050858452601f01601f1916604052505b50949350505050565b60065460ff1615610b455760405162461bcd60e51b815260206004820152601060248201526f14185d5cd8589b194e881c185d5cd95960821b604482015260640161062f565b61ffff86166000908152600160205260408120805461173590612071565b80601f016020809104026020016040519081016040528092919081815260200182805461176190612071565b80156117ae5780601f10611783576101008083540402835291602001916117ae565b820191906000526020600020905b81548152906001019060200180831161179157829003601f168201915b505050505090508051600014156118205760405162461bcd60e51b815260206004820152603060248201527f4c7a4170703a2064657374696e6174696f6e20636861696e206973206e6f742060448201526f61207472757374656420736f7572636560801b606482015260840161062f565b61182b878751611a2d565b60405162c5803160e81b81526001600160a01b037f0000000000000000000000000000000000000000000000000000000000000000169063c5803100908490611882908b9086908c908c908c908c906004016122c1565b6000604051808303818588803b15801561189b57600080fd5b505af11580156118af573d6000803e3d6000fd5b505050505050505050505050565b6000606060008060008661ffff166001600160401b038111156118e2576118e2611d6f565b6040519080825280601f01601f19166020018201604052801561190c576020820181803683370190505b50905060008087516020890160008d8df191503d92508683111561192e578692505b828152826000602083013e909890975095505050505050565b8180519060200120600560008761ffff1661ffff168152602001908152602001600020856040516119789190612328565b9081526040805191829003602090810183206001600160401b0388166000908152915220919091557fe183f33de2837795525b4792ca4cd60535bd77c53b7e7030060bfcf5734d6b0c906119d59087908790879087908790612344565b60405180910390a15050505050565b60065460ff16610b455760405162461bcd60e51b815260206004820152601460248201527314185d5cd8589b194e881b9bdd081c185d5cd95960621b604482015260640161062f565b61ffff821660009081526003602052604090205480611a4b57506127105b80821115611a9b5760405162461bcd60e51b815260206004820181905260248201527f4c7a4170703a207061796c6f61642073697a6520697320746f6f206c61726765604482015260640161062f565b505050565b828054611aac90612071565b90600052602060002090601f016020900481019282611ace5760008555611b14565b82601f10611ae757805160ff1916838001178555611b14565b82800160010185558215611b14579182015b82811115611b14578251825591602001919060010190611af9565b50611b20929150611b98565b5090565b828054611b3090612071565b90600052602060002090601f016020900481019282611b525760008555611b14565b82601f10611b6b5782800160ff19823516178555611b14565b82800160010185558215611b14579182015b82811115611b14578235825591602001919060010190611b7d565b5b80821115611b205760008155600101611b99565b803561ffff81168114611bbf57600080fd5b919050565b60008083601f840112611bd657600080fd5b5081356001600160401b03811115611bed57600080fd5b602083019150836020828501011115611c0557600080fd5b9250929050565b80356001600160401b0381168114611bbf57600080fd5b60008060008060008060808789031215611c3c57600080fd5b611c4587611bad565b955060208701356001600160401b0380821115611c6157600080fd5b611c6d8a838b01611bc4565b9097509550859150611c8160408a01611c0c565b94506060890135915080821115611c9757600080fd5b50611ca489828a01611bc4565b979a9699509497509295939492505050565b600060208284031215611cc857600080fd5b610cf182611bad565b60008060408385031215611ce457600080fd5b611ced83611bad565b946020939093013593505050565b600080600060408486031215611d1057600080fd5b611d1984611bad565b925060208401356001600160401b03811115611d3457600080fd5b611d4086828701611bc4565b9497909650939450505050565b600060208284031215611d5f57600080fd5b81358015158114610cf157600080fd5b634e487b7160e01b600052604160045260246000fd5b604051601f8201601f191681016001600160401b0381118282101715611dad57611dad611d6f565b604052919050565b60006001600160401b03821115611dce57611dce611d6f565b50601f01601f191660200190565b600080600060608486031215611df157600080fd5b611dfa84611bad565b925060208401356001600160401b03811115611e1557600080fd5b8401601f81018613611e2657600080fd5b8035611e39611e3482611db5565b611d85565b818152876020838501011115611e4e57600080fd5b81602084016020830137600060208383010152809450505050611e7360408501611c0c565b90509250925092565b60005b83811015611e97578181015183820152602001611e7f565b83811115611ea6576000848401525b50505050565b60008151808452611ec4816020860160208601611e7c565b601f01601f19169290920160200192915050565b602081526000610cf16020830184611eac565b60008060408385031215611efe57600080fd5b611f0783611bad565b9150611f1560208401611bad565b90509250929050565b80356001600160a01b0381168114611bbf57600080fd5b600060208284031215611f4757600080fd5b610cf182611f1e565b600080600080600060808688031215611f6857600080fd5b611f7186611bad565b9450611f7f60208701611bad565b93506040860135925060608601356001600160401b03811115611fa157600080fd5b611fad88828901611bc4565b969995985093965092949392505050565b600080600060608486031215611fd357600080fd5b611fdc84611bad565b9250611fea60208501611bad565b9150604084013590509250925092565b60008060006060848603121561200f57600080fd5b61201884611bad565b9250611fea60208501611f1e565b6000806000806080858703121561203c57600080fd5b61204585611bad565b935061205360208601611bad565b925061206160408601611f1e565b9396929550929360600135925050565b600181811c9082168061208557607f821691505b602082108114156120a657634e487b7160e01b600052602260045260246000fd5b50919050565b8183823760009101908152919050565b81835281816020850137506000828201602090810191909152601f909101601f19169091010190565b61ffff841681526040602082015260006113db6040830184866120bc565b634e487b7160e01b600052601160045260246000fd5b60008282101561212b5761212b612103565b500390565b8284823760609190911b6bffffffffffffffffffffffff19169101908152601401919050565b600061ffff8088168352808716602084015250846040830152608060608301526121846080830184866120bc565b979650505050505050565b61ffff861681526080602082015260006121ad6080830186886120bc565b6001600160401b0394909416604083015250606001529392505050565b60006000198214156121de576121de612103565b5060010190565b6000602082840312156121f757600080fd5b81516001600160401b0381111561220d57600080fd5b8201601f8101841361221e57600080fd5b805161222c611e3482611db5565b81815285602083850101111561224157600080fd5b6113db826020830160208601611e7c565b61ffff8516815260806020820152600061226f6080830186611eac565b6001600160401b038516604084015282810360608401526121848185611eac565b6000602082840312156122a257600080fd5b5051919050565b600082198211156122bc576122bc612103565b500190565b61ffff8716815260c0602082015260006122de60c0830188611eac565b82810360408401526122f08188611eac565b6001600160a01b0387811660608601528616608085015283810360a0850152905061231b8185611eac565b9998505050505050505050565b6000825161233a818460208701611e7c565b9190910192915050565b61ffff8616815260a06020820152600061236160a0830187611eac565b6001600160401b038616604084015282810360608401526123828186611eac565b905082810360808401526123968185611eac565b9897505050505050505056fea26469706673582212201f6eaaae10715db147fdc58c26791f6e7147667ad4860ff8c83cb9c9945ecdb564736f6c634300080c0033",
  "linkReferences": {},
  "deployedLinkReferences": {}
}