{
  "address": "0xdd694e82fEF17d787d977EA76b1820433c69b5f0",
  "abi": [
    {
      "inputs": [
        {
          "components": [
            {
              "internalType": "address",
              "name": "priceFeed",
              "type": "address"
            },
            {
              "internalType": "uint32",
              "name": "dstEid",
              "type": "uint32"
            },
            {
              "internalType": "address",
              "name": "sender",
              "type": "address"
            },
            {
              "internalType": "uint256",
              "name": "calldataSize",
              "type": "uint256"
            },
            {
              "internalType": "uint16",
              "name": "defaultMultiplierBps",
              "type": "uint16"
            }
          ],
          "internalType": "struct IExecutorFeeLib.FeeParams",
          "name": "_params",
          "type": "tuple"
        },
        {
          "components": [
            {
              "internalType": "uint64",
              "name": "baseGas",
              "type": "uint64"
            },
            {
              "internalType": "uint16",
              "name": "multiplierBps",
              "type": "uint16"
            },
            {
              "internalType": "uint128",
              "name": "floorMarginUSD",
              "type": "uint128"
            },
            {
              "internalType": "uint128",
              "name": "airdropCap",
              "type": "uint128"
            }
          ],
          "internalType": "struct IExecutor.DstConfig",
          "name": "_dstConfig",
          "type": "tuple"
        },
        {
          "internalType": "bytes",
          "name": "_options",
          "type": "bytes"
        }
      ],
      "name": "getFee",
      "outputs": [
        {
          "internalType": "uint256",
          "name": "fee",
          "type": "uint256"
        }
      ],
      "stateMutability": "view",
      "type": "function"
    },
    {
      "inputs": [
        {
          "components": [
            {
              "internalType": "address",
              "name": "priceFeed",
              "type": "address"
            },
            {
              "internalType": "uint32",
              "name": "dstEid",
              "type": "uint32"
            },
            {
              "internalType": "address",
              "name": "sender",
              "type": "address"
            },
            {
              "internalType": "uint256",
              "name": "calldataSize",
              "type": "uint256"
            },
            {
              "internalType": "uint16",
              "name": "defaultMultiplierBps",
              "type": "uint16"
            }
          ],
          "internalType": "struct IExecutorFeeLib.FeeParams",
          "name": "_params",
          "type": "tuple"
        },
        {
          "components": [
            {
              "internalType": "uint64",
              "name": "baseGas",
              "type": "uint64"
            },
            {
              "internalType": "uint16",
              "name": "multiplierBps",
              "type": "uint16"
            },
            {
              "internalType": "uint128",
              "name": "floorMarginUSD",
              "type": "uint128"
            },
            {
              "internalType": "uint128",
              "name": "airdropCap",
              "type": "uint128"
            }
          ],
          "internalType": "struct IExecutor.DstConfig",
          "name": "_dstConfig",
          "type": "tuple"
        },
        {
          "internalType": "bytes",
          "name": "_options",
          "type": "bytes"
        }
      ],
      "name": "getFeeOnSend",
      "outputs": [
        {
          "internalType": "uint256",
          "name": "fee",
          "type": "uint256"
        }
      ],
      "stateMutability": "nonpayable",
      "type": "function"
    }
  ],
  "transactionHash": "0xd16c47bd0c4d2870161a6051cd279ef79c0ecb8bbe4daa8c947fe2c65d42fa5c",
  "args": [],
  "numDeployments": 1,
  "solcInputHash": "23618ae04a8987a244e2ff990cbbeac7",
  "bytecode": "0x608060405234801561001057600080fd5b5061109c806100206000396000f3fe608060405234801561001057600080fd5b50600436106100365760003560e01c8063371c3a8e1461003b578063f43bcfc514610060575b600080fd5b61004e610049366004610d0f565b610073565b60405190815260200160405180910390f35b61004e61006e366004610d0f565b610193565b600080600061008c86600001518760600151878761036e565b885160208a015160608b01516040517f88a4124c00000000000000000000000000000000000000000000000000000000815263ffffffff909216600483015260248201526044810183905292945090925060009182918291829173ffffffffffffffffffffffffffffffffffffffff16906388a4124c90606401608060405180830381865afa158015610123573d6000803e3d6000fd5b505050506040513d601f19601f820116820180604052508101906101479190610dd5565b9350935093509350610168848b602001518d608001518d60400151856107dd565b965061017a8684848e608001516108c0565b6101849088610e59565b9b9a5050505050505050505050565b60008060006101ac86600001518760600151878761036e565b885160208a015160608b01516040517f11f2c34300000000000000000000000000000000000000000000000000000000815263ffffffff909216600483015260248201526044810183905292945090925060009173ffffffffffffffffffffffffffffffffffffffff909116906311f2c343906064016020604051808303816000875af1158015610241573d6000803e3d6000fd5b505050506040513d601f19601f820116820180604052508101906102659190610e6c565b885160208a015160608b01516040517fc1723a1d00000000000000000000000000000000000000000000000000000000815263ffffffff909216600483015260248201526044810185905291925060009182918291829173ffffffffffffffffffffffffffffffffffffffff169063c1723a1d90879060640160806040518083038185885af11580156102fc573d6000803e3d6000fd5b50505050506040513d601f19601f820116820180604052508101906103219190610dd5565b9350935093509350610342848c602001518e608001518e60400151856107dd565b97506103548784848f608001516108c0565b61035e9089610e59565b9c9b505050505050505050505050565b60008082610403576040517f08c379a000000000000000000000000000000000000000000000000000000000815260206004820152602360248201527f4578656375746f724665654c69623a206e6f206f7074696f6e732070726f766960448201527f646564000000000000000000000000000000000000000000000000000000000060648201526084015b60405180910390fd5b5067ffffffffffffffff8516600080805b8582101561074857600036818061042c8b8b8861092a565b9850919550935091508590506104428785610980565b156040518060400160405280600781526020017f4c5a313030313200000000000000000000000000000000000000000000000000815250906104b1576040517f08c379a00000000000000000000000000000000000000000000000000000000081526004016103fa9190610e85565b50600160ff85161b871796507fffffffffffffffffffffffffffffffffffffffffffffffffffffffffffffffff60ff85160161053c576000806104f48585610992565b90925090506105156fffffffffffffffffffffffffffffffff82168c610e59565b9a506105336fffffffffffffffffffffffffffffffff83168b610e59565b9950505061073f565b7ffffffffffffffffffffffffffffffffffffffffffffffffffffffffffffffffe60ff85160161064d5760006105728484610a45565b5090508c6fffffffffffffffffffffffffffffffff16816fffffffffffffffffffffffffffffffff161115610629576040517f08c379a000000000000000000000000000000000000000000000000000000000815260206004820152602a60248201527f4578656375746f724665654c69623a2061697264726f7020616d6f756e74206560448201527f786365656473206361700000000000000000000000000000000000000000000060648201526084016103fa565b6106456fffffffffffffffffffffffffffffffff82168b610e59565b99505061073f565b7ffffffffffffffffffffffffffffffffffffffffffffffffffffffffffffffffd60ff851601610684576000806104f48585610992565b7ffffffffffffffffffffffffffffffffffffffffffffffffffffffffffffffffc60ff8516016106b7576001945061073f565b6040517f08c379a000000000000000000000000000000000000000000000000000000000815260206004820152602360248201527f4578656375746f724665654c69623a20696e76616c6964206f7074696f6e207460448201527f797065000000000000000000000000000000000000000000000000000000000060648201526084016103fa565b50505050610414565b8186146107b1576040517f08c379a000000000000000000000000000000000000000000000000000000000815260206004820152601f60248201527f4578656375746f724665654c69623a20696e76616c6964206f7074696f6e730060448201526064016103fa565b80156107d15760646107c4856066610ef1565b6107ce9190610f08565b93505b50505094509492505050565b60008061ffff8616156107f057856107f2565b845b9050600061271061080761ffff84168a610ef1565b6108119190610f08565b90506fffffffffffffffffffffffffffffffff8416158061084257506fffffffffffffffffffffffffffffffff8516155b156108505791506108b79050565b600088856fffffffffffffffffffffffffffffffff16670de0b6b3a7640000886fffffffffffffffffffffffffffffffff1661088c9190610ef1565b6108969190610f08565b6108a09190610e59565b90508181116108af57816108b1565b805b93505050505b95945050505050565b60008415610922576127108261ffff16846fffffffffffffffffffffffffffffffff16866fffffffffffffffffffffffffffffffff16886109019190610ef1565b61090b9190610f08565b6109159190610ef1565b61091f9190610f08565b90505b949350505050565b60003681600184018161093e888884610ad4565b600292909201919050610952888884610afb565b94506001820161ffff8216830161096b81838b8d610f43565b979b909a50969850505061ffff160193505050565b600160ff82161b821615155b92915050565b60008060108314806109a45750602083145b6040518060400160405280600781526020017f4c5a31303030390000000000000000000000000000000000000000000000000081525090610a12576040517f08c379a00000000000000000000000000000000000000000000000000000000081526004016103fa9190610e85565b50610a1f84846000610b20565b915060208314610a30576000610a3c565b610a3c84846010610b20565b90509250929050565b60408051808201909152600781527f4c5a3130303039000000000000000000000000000000000000000000000000006020820152600090819060308414610ab9576040517f08c379a00000000000000000000000000000000000000000000000000000000081526004016103fa9190610e85565b50610ac684846000610b20565b9150610a3c84846010610b47565b600060028201610ae681848688610f43565b610aef91610f6d565b60f01c95945050505050565b6000838383818110610b0f57610b0f610fb5565b919091013560f81c95945050505050565b600060108201610b3281848688610f43565b610b3b91610fe4565b60801c95945050505050565b600060208201610b5981848688610f43565b6108b79161102a565b60405160a0810167ffffffffffffffff81118282101715610bac577f4e487b7100000000000000000000000000000000000000000000000000000000600052604160045260246000fd5b60405290565b803573ffffffffffffffffffffffffffffffffffffffff81168114610bd657600080fd5b919050565b803561ffff81168114610bd657600080fd5b6fffffffffffffffffffffffffffffffff81168114610c0b57600080fd5b50565b600060808284031215610c2057600080fd5b6040516080810167ffffffffffffffff8282108183111715610c6b577f4e487b7100000000000000000000000000000000000000000000000000000000600052604160045260246000fd5b81604052829350843591508082168214610c8457600080fd5b508152610c9360208401610bdb565b60208201526040830135610ca681610bed565b60408201526060830135610cb981610bed565b6060919091015292915050565b60008083601f840112610cd857600080fd5b50813567ffffffffffffffff811115610cf057600080fd5b602083019150836020828501011115610d0857600080fd5b9250929050565b600080600080848603610140811215610d2757600080fd5b60a0811215610d3557600080fd5b50610d3e610b62565b610d4786610bb2565b8152602086013563ffffffff81168114610d6057600080fd5b6020820152610d7160408701610bb2565b604082015260608601356060820152610d8c60808701610bdb565b60808201529350610da08660a08701610c0e565b925061012085013567ffffffffffffffff811115610dbd57600080fd5b610dc987828801610cc6565b95989497509550505050565b60008060008060808587031215610deb57600080fd5b845193506020850151610dfd81610bed565b6040860151909350610e0e81610bed565b6060860151909250610e1f81610bed565b939692955090935050565b7f4e487b7100000000000000000000000000000000000000000000000000000000600052601160045260246000fd5b8082018082111561098c5761098c610e2a565b600060208284031215610e7e57600080fd5b5051919050565b600060208083528351808285015260005b81811015610eb257858101830151858201604001528201610e96565b5060006040828601015260407fffffffffffffffffffffffffffffffffffffffffffffffffffffffffffffffe0601f8301168501019250505092915050565b808202811582820484141761098c5761098c610e2a565b600082610f3e577f4e487b7100000000000000000000000000000000000000000000000000000000600052601260045260246000fd5b500490565b60008085851115610f5357600080fd5b83861115610f6057600080fd5b5050820193919092039150565b7fffff0000000000000000000000000000000000000000000000000000000000008135818116916002851015610fad5780818660020360031b1b83161692505b505092915050565b7f4e487b7100000000000000000000000000000000000000000000000000000000600052603260045260246000fd5b7fffffffffffffffffffffffffffffffff000000000000000000000000000000008135818116916010851015610fad5760109490940360031b84901b1690921692915050565b8035602083101561098c577fffffffffffffffffffffffffffffffffffffffffffffffffffffffffffffffff602084900360031b1b169291505056fea2646970667358221220d6cbc0b7a3b297afe25bb58a665ca8b805fe1235a76b7c98c6b34c426bb160c964736f6c63430008130033",
  "devdoc": {
    "kind": "dev",
    "methods": {},
    "version": 1
  },
  "userdoc": {
    "kind": "user",
    "methods": {},
    "version": 1
  },
  "storageLayout": {
    "storage": [],
    "types": null
  }
}