{
  "_format": "hh-sol-artifact-1",
  "contractName": "StargateFeeLibraryV01",
  "sourceName": "contracts/libraries/StargateFeeLibraryV01.sol",
  "abi": [
    {
      "inputs": [
        {
          "internalType": "address",
          "name": "_factory",
          "type": "address"
        }
      ],
      "stateMutability": "nonpayable",
      "type": "constructor"
    },
    {
      "anonymous": false,
      "inputs": [
        {
          "indexed": false,
          "internalType": "uint256",
          "name": "lpFeeBP",
          "type": "uint256"
        },
        {
          "indexed": false,
          "internalType": "uint256",
          "name": "protocolFeeBP",
          "type": "uint256"
        }
      ],
      "name": "FeesUpdated",
      "type": "event"
    },
    {
      "anonymous": false,
      "inputs": [
        {
          "indexed": true,
          "internalType": "address",
          "name": "previousOwner",
          "type": "address"
        },
        {
          "indexed": true,
          "internalType": "address",
          "name": "newOwner",
          "type": "address"
        }
      ],
      "name": "OwnershipTransferred",
      "type": "event"
    },
    {
      "inputs": [],
      "name": "BP_DENOMINATOR",
      "outputs": [
        {
          "internalType": "uint256",
          "name": "",
          "type": "uint256"
        }
      ],
      "stateMutability": "view",
      "type": "function"
    },
    {
      "inputs": [],
      "name": "eqFeeBP",
      "outputs": [
        {
          "internalType": "uint256",
          "name": "",
          "type": "uint256"
        }
      ],
      "stateMutability": "view",
      "type": "function"
    },
    {
      "inputs": [],
      "name": "eqRewardBP",
      "outputs": [
        {
          "internalType": "uint256",
          "name": "",
          "type": "uint256"
        }
      ],
      "stateMutability": "view",
      "type": "function"
    },
    {
      "inputs": [],
      "name": "factory",
      "outputs": [
        {
          "internalType": "contract Factory",
          "name": "",
          "type": "address"
        }
      ],
      "stateMutability": "view",
      "type": "function"
    },
    {
      "inputs": [
        {
          "internalType": "uint256",
          "name": "",
          "type": "uint256"
        },
        {
          "internalType": "uint256",
          "name": "",
          "type": "uint256"
        },
        {
          "internalType": "uint16",
          "name": "",
          "type": "uint16"
        },
        {
          "internalType": "address",
          "name": "",
          "type": "address"
        },
        {
          "internalType": "uint256",
          "name": "_amountSD",
          "type": "uint256"
        }
      ],
      "name": "getFees",
      "outputs": [
        {
          "components": [
            {
              "internalType": "uint256",
              "name": "amount",
              "type": "uint256"
            },
            {
              "internalType": "uint256",
              "name": "eqFee",
              "type": "uint256"
            },
            {
              "internalType": "uint256",
              "name": "eqReward",
              "type": "uint256"
            },
            {
              "internalType": "uint256",
              "name": "lpFee",
              "type": "uint256"
            },
            {
              "internalType": "uint256",
              "name": "protocolFee",
              "type": "uint256"
            },
            {
              "internalType": "uint256",
              "name": "lkbRemove",
              "type": "uint256"
            }
          ],
          "internalType": "struct Pool.SwapObj",
          "name": "s",
          "type": "tuple"
        }
      ],
      "stateMutability": "view",
      "type": "function"
    },
    {
      "inputs": [],
      "name": "getVersion",
      "outputs": [
        {
          "internalType": "string",
          "name": "",
          "type": "string"
        }
      ],
      "stateMutability": "pure",
      "type": "function"
    },
    {
      "inputs": [],
      "name": "lpFeeBP",
      "outputs": [
        {
          "internalType": "uint256",
          "name": "",
          "type": "uint256"
        }
      ],
      "stateMutability": "view",
      "type": "function"
    },
    {
      "inputs": [],
      "name": "owner",
      "outputs": [
        {
          "internalType": "address",
          "name": "",
          "type": "address"
        }
      ],
      "stateMutability": "view",
      "type": "function"
    },
    {
      "inputs": [],
      "name": "protocolFeeBP",
      "outputs": [
        {
          "internalType": "uint256",
          "name": "",
          "type": "uint256"
        }
      ],
      "stateMutability": "view",
      "type": "function"
    },
    {
      "inputs": [],
      "name": "renounceOwnership",
      "outputs": [],
      "stateMutability": "nonpayable",
      "type": "function"
    },
    {
      "inputs": [
        {
          "internalType": "uint256",
          "name": "_lpFeeBP",
          "type": "uint256"
        },
        {
          "internalType": "uint256",
          "name": "_protocolFeeBP",
          "type": "uint256"
        },
        {
          "internalType": "uint256",
          "name": "_eqFeeBP",
          "type": "uint256"
        },
        {
          "internalType": "uint256",
          "name": "_eqRewardBP",
          "type": "uint256"
        }
      ],
      "name": "setFees",
      "outputs": [],
      "stateMutability": "nonpayable",
      "type": "function"
    },
    {
      "inputs": [
        {
          "internalType": "address",
          "name": "newOwner",
          "type": "address"
        }
      ],
      "name": "transferOwnership",
      "outputs": [],
      "stateMutability": "nonpayable",
      "type": "function"
    }
  ],
  "bytecode": "0x608060405234801561001057600080fd5b50604051610cd0380380610cd083398101604081905261002f916100df565b60006100396100db565b600080546001600160a01b0319166001600160a01b0383169081178255604051929350917f8be0079c531659141344cd1fd0a4f28419497f9722a3daafe3b4186f6b6457e0908290a350600180556001600160a01b0381166100b65760405162461bcd60e51b81526004016100ad9061010d565b60405180910390fd5b600280546001600160a01b0319166001600160a01b039290921691909117905561014e565b3390565b6000602082840312156100f0578081fd5b81516001600160a01b0381168114610106578182fd5b9392505050565b60208082526021908201527f4665654c6962726172793a20466163746f72792063616e6e6f742062652030786040820152600360fc1b606082015260800190565b610b738061015d6000396000f3fe608060405234801561001057600080fd5b50600436106100d45760003560e01c806398a6c1cf11610081578063c5fba0b81161005b578063c5fba0b814610176578063cc95f9b71461017e578063f2fde38b14610186576100d4565b806398a6c1cf1461015e578063abe685cd14610166578063c45a01551461016e576100d4565b8063715018a6116100b2578063715018a61461012c578063838aa646146101345780638da5cb5b14610149576100d4565b80630d8e6e2c146100d95780631ab62430146100f75780636fcba37714610117575b600080fd5b6100e1610199565b6040516100ee9190610996565b60405180910390f35b61010a6101053660046108ef565b6101d0565b6040516100ee9190610a9b565b61012a610125366004610944565b610258565b005b61012a6103ec565b61013c610503565b6040516100ee9190610adf565b610151610509565b6040516100ee9190610975565b61013c610525565b61013c61052b565b610151610531565b61013c61054d565b61013c610553565b61012a6101943660046108ce565b610559565b60408051808201909152600581527f312e302e30000000000000000000000000000000000000000000000000000000602082015290565b6101d861086f565b6101f96127106101f3600454856106fa90919063ffffffff16565b90610776565b608082015260035461021490612710906101f39085906106fa565b606082015260055461022f90612710906101f39085906106fa565b602082015260065461024a90612710906101f39085906106fa565b604082015295945050505050565b6102606107f7565b73ffffffffffffffffffffffffffffffffffffffff1661027e610509565b73ffffffffffffffffffffffffffffffffffffffff161461030057604080517f08c379a000000000000000000000000000000000000000000000000000000000815260206004820181905260248201527f4f776e61626c653a2063616c6c6572206973206e6f7420746865206f776e6572604482015290519081900360640190fd5b61271061031982610313858189896107fb565b906107fb565b111561035a576040517f08c379a000000000000000000000000000000000000000000000000000000000815260040161035190610a64565b60405180910390fd5b6005546006541115610398576040517f08c379a000000000000000000000000000000000000000000000000000000000815260040161035190610a07565b60038490556004839055600582905560068190556040517f5c6323bf1c2d7aaea2c091a4751c1c87af7f2864650c336507a77d0557af37a1906103de9086908690610ae8565b60405180910390a150505050565b6103f46107f7565b73ffffffffffffffffffffffffffffffffffffffff16610412610509565b73ffffffffffffffffffffffffffffffffffffffff161461049457604080517f08c379a000000000000000000000000000000000000000000000000000000000815260206004820181905260248201527f4f776e61626c653a2063616c6c6572206973206e6f7420746865206f776e6572604482015290519081900360640190fd5b6000805460405173ffffffffffffffffffffffffffffffffffffffff909116907f8be0079c531659141344cd1fd0a4f28419497f9722a3daafe3b4186f6b6457e0908390a3600080547fffffffffffffffffffffffff0000000000000000000000000000000000000000169055565b60065481565b60005473ffffffffffffffffffffffffffffffffffffffff1690565b60035481565b61271081565b60025473ffffffffffffffffffffffffffffffffffffffff1681565b60045481565b60055481565b6105616107f7565b73ffffffffffffffffffffffffffffffffffffffff1661057f610509565b73ffffffffffffffffffffffffffffffffffffffff161461060157604080517f08c379a000000000000000000000000000000000000000000000000000000000815260206004820181905260248201527f4f776e61626c653a2063616c6c6572206973206e6f7420746865206f776e6572604482015290519081900360640190fd5b73ffffffffffffffffffffffffffffffffffffffff811661066d576040517f08c379a0000000000000000000000000000000000000000000000000000000008152600401808060200182810382526026815260200180610af76026913960400191505060405180910390fd5b6000805460405173ffffffffffffffffffffffffffffffffffffffff808516939216917f8be0079c531659141344cd1fd0a4f28419497f9722a3daafe3b4186f6b6457e091a3600080547fffffffffffffffffffffffff00000000000000000000000000000000000000001673ffffffffffffffffffffffffffffffffffffffff92909216919091179055565b60008261070957506000610770565b8282028284828161071657fe5b041461076d576040517f08c379a0000000000000000000000000000000000000000000000000000000008152600401808060200182810382526021815260200180610b1d6021913960400191505060405180910390fd5b90505b92915050565b60008082116107e657604080517f08c379a000000000000000000000000000000000000000000000000000000000815260206004820152601a60248201527f536166654d6174683a206469766973696f6e206279207a65726f000000000000604482015290519081900360640190fd5b8183816107ef57fe5b049392505050565b3390565b60008282018381101561076d57604080517f08c379a000000000000000000000000000000000000000000000000000000000815260206004820152601b60248201527f536166654d6174683a206164646974696f6e206f766572666c6f770000000000604482015290519081900360640190fd5b6040518060c001604052806000815260200160008152602001600081526020016000815260200160008152602001600081525090565b803573ffffffffffffffffffffffffffffffffffffffff811681146108c957600080fd5b919050565b6000602082840312156108df578081fd5b6108e8826108a5565b9392505050565b600080600080600060a08688031215610906578081fd5b8535945060208601359350604086013561ffff81168114610925578182fd5b9250610933606087016108a5565b949793965091946080013592915050565b60008060008060808587031215610959578384fd5b5050823594602084013594506040840135936060013592509050565b73ffffffffffffffffffffffffffffffffffffffff91909116815260200190565b6000602080835283518082850152825b818110156109c2578581018301518582016040015282016109a6565b818111156109d35783604083870101525b50601f017fffffffffffffffffffffffffffffffffffffffffffffffffffffffffffffffe016929092016040019392505050565b60208082526022908201527f4665654c6962726172793a2065712066656520706172616d20696e636f72726560408201527f6374000000000000000000000000000000000000000000000000000000000000606082015260800190565b6020808252601b908201527f4665654c6962726172793a2073756d2066656573203e20313030250000000000604082015260600190565b600060c082019050825182526020830151602083015260408301516040830152606083015160608301526080830151608083015260a083015160a083015292915050565b90815260200190565b91825260208201526040019056fe4f776e61626c653a206e6577206f776e657220697320746865207a65726f2061646472657373536166654d6174683a206d756c7469706c69636174696f6e206f766572666c6f77a26469706673582212208ebd669beed620a191a17655b31020c7a4afb78a53f1811456936c839b901c3464736f6c63430007060033",
  "linkReferences": {},
  "deployedLinkReferences": {}
}