{
  "_format": "hh-sol-artifact-1",
  "contractName": "ONFT1155",
  "sourceName": "contracts/token/onft/ONFT1155.sol",
  "abi": [
    {
      "inputs": [
        {
          "internalType": "string",
          "name": "_uri",
          "type": "string"
        },
        {
          "internalType": "address",
          "name": "_lzEndpoint",
          "type": "address"
        }
      ],
      "stateMutability": "nonpayable",
      "type": "constructor"
    },
    {
      "anonymous": false,
      "inputs": [
        {
          "indexed": true,
          "internalType": "address",
          "name": "account",
          "type": "address"
        },
        {
          "indexed": true,
          "internalType": "address",
          "name": "operator",
          "type": "address"
        },
        {
          "indexed": false,
          "internalType": "bool",
          "name": "approved",
          "type": "bool"
        }
      ],
      "name": "ApprovalForAll",
      "type": "event"
    },
    {
      "anonymous": false,
      "inputs": [
        {
          "indexed": false,
          "internalType": "uint16",
          "name": "_srcChainId",
          "type": "uint16"
        },
        {
          "indexed": false,
          "internalType": "bytes",
          "name": "_srcAddress",
          "type": "bytes"
        },
        {
          "indexed": false,
          "internalType": "uint64",
          "name": "_nonce",
          "type": "uint64"
        },
        {
          "indexed": false,
          "internalType": "bytes",
          "name": "_payload",
          "type": "bytes"
        },
        {
          "indexed": false,
          "internalType": "bytes",
          "name": "_reason",
          "type": "bytes"
        }
      ],
      "name": "MessageFailed",
      "type": "event"
    },
    {
      "anonymous": false,
      "inputs": [
        {
          "indexed": true,
          "internalType": "address",
          "name": "previousOwner",
          "type": "address"
        },
        {
          "indexed": true,
          "internalType": "address",
          "name": "newOwner",
          "type": "address"
        }
      ],
      "name": "OwnershipTransferred",
      "type": "event"
    },
    {
      "anonymous": false,
      "inputs": [
        {
          "indexed": true,
          "internalType": "uint16",
          "name": "_srcChainId",
          "type": "uint16"
        },
        {
          "indexed": true,
          "internalType": "bytes",
          "name": "_srcAddress",
          "type": "bytes"
        },
        {
          "indexed": true,
          "internalType": "address",
          "name": "_toAddress",
          "type": "address"
        },
        {
          "indexed": false,
          "internalType": "uint256[]",
          "name": "_tokenIds",
          "type": "uint256[]"
        },
        {
          "indexed": false,
          "internalType": "uint256[]",
          "name": "_amounts",
          "type": "uint256[]"
        }
      ],
      "name": "ReceiveBatchFromChain",
      "type": "event"
    },
    {
      "anonymous": false,
      "inputs": [
        {
          "indexed": true,
          "internalType": "uint16",
          "name": "_srcChainId",
          "type": "uint16"
        },
        {
          "indexed": true,
          "internalType": "bytes",
          "name": "_srcAddress",
          "type": "bytes"
        },
        {
          "indexed": true,
          "internalType": "address",
          "name": "_toAddress",
          "type": "address"
        },
        {
          "indexed": false,
          "internalType": "uint256",
          "name": "_tokenId",
          "type": "uint256"
        },
        {
          "indexed": false,
          "internalType": "uint256",
          "name": "_amount",
          "type": "uint256"
        }
      ],
      "name": "ReceiveFromChain",
      "type": "event"
    },
    {
      "anonymous": false,
      "inputs": [
        {
          "indexed": false,
          "internalType": "uint16",
          "name": "_srcChainId",
          "type": "uint16"
        },
        {
          "indexed": false,
          "internalType": "bytes",
          "name": "_srcAddress",
          "type": "bytes"
        },
        {
          "indexed": false,
          "internalType": "uint64",
          "name": "_nonce",
          "type": "uint64"
        },
        {
          "indexed": false,
          "internalType": "bytes32",
          "name": "_payloadHash",
          "type": "bytes32"
        }
      ],
      "name": "RetryMessageSuccess",
      "type": "event"
    },
    {
      "anonymous": false,
      "inputs": [
        {
          "indexed": true,
          "internalType": "uint16",
          "name": "_dstChainId",
          "type": "uint16"
        },
        {
          "indexed": true,
          "internalType": "address",
          "name": "_from",
          "type": "address"
        },
        {
          "indexed": true,
          "internalType": "bytes",
          "name": "_toAddress",
          "type": "bytes"
        },
        {
          "indexed": false,
          "internalType": "uint256[]",
          "name": "_tokenIds",
          "type": "uint256[]"
        },
        {
          "indexed": false,
          "internalType": "uint256[]",
          "name": "_amounts",
          "type": "uint256[]"
        }
      ],
      "name": "SendBatchToChain",
      "type": "event"
    },
    {
      "anonymous": false,
      "inputs": [
        {
          "indexed": true,
          "internalType": "uint16",
          "name": "_dstChainId",
          "type": "uint16"
        },
        {
          "indexed": true,
          "internalType": "address",
          "name": "_from",
          "type": "address"
        },
        {
          "indexed": true,
          "internalType": "bytes",
          "name": "_toAddress",
          "type": "bytes"
        },
        {
          "indexed": false,
          "internalType": "uint256",
          "name": "_tokenId",
          "type": "uint256"
        },
        {
          "indexed": false,
          "internalType": "uint256",
          "name": "_amount",
          "type": "uint256"
        }
      ],
      "name": "SendToChain",
      "type": "event"
    },
    {
      "anonymous": false,
      "inputs": [
        {
          "indexed": false,
          "internalType": "uint16",
          "name": "_dstChainId",
          "type": "uint16"
        },
        {
          "indexed": false,
          "internalType": "uint16",
          "name": "_type",
          "type": "uint16"
        },
        {
          "indexed": false,
          "internalType": "uint256",
          "name": "_minDstGas",
          "type": "uint256"
        }
      ],
      "name": "SetMinDstGas",
      "type": "event"
    },
    {
      "anonymous": false,
      "inputs": [
        {
          "indexed": false,
          "internalType": "address",
          "name": "precrime",
          "type": "address"
        }
      ],
      "name": "SetPrecrime",
      "type": "event"
    },
    {
      "anonymous": false,
      "inputs": [
        {
          "indexed": false,
          "internalType": "uint16",
          "name": "_remoteChainId",
          "type": "uint16"
        },
        {
          "indexed": false,
          "internalType": "bytes",
          "name": "_path",
          "type": "bytes"
        }
      ],
      "name": "SetTrustedRemote",
      "type": "event"
    },
    {
      "anonymous": false,
      "inputs": [
        {
          "indexed": false,
          "internalType": "uint16",
          "name": "_remoteChainId",
          "type": "uint16"
        },
        {
          "indexed": false,
          "internalType": "bytes",
          "name": "_remoteAddress",
          "type": "bytes"
        }
      ],
      "name": "SetTrustedRemoteAddress",
      "type": "event"
    },
    {
      "anonymous": false,
      "inputs": [
        {
          "indexed": false,
          "internalType": "bool",
          "name": "_useCustomAdapterParams",
          "type": "bool"
        }
      ],
      "name": "SetUseCustomAdapterParams",
      "type": "event"
    },
    {
      "anonymous": false,
      "inputs": [
        {
          "indexed": true,
          "internalType": "address",
          "name": "operator",
          "type": "address"
        },
        {
          "indexed": true,
          "internalType": "address",
          "name": "from",
          "type": "address"
        },
        {
          "indexed": true,
          "internalType": "address",
          "name": "to",
          "type": "address"
        },
        {
          "indexed": false,
          "internalType": "uint256[]",
          "name": "ids",
          "type": "uint256[]"
        },
        {
          "indexed": false,
          "internalType": "uint256[]",
          "name": "values",
          "type": "uint256[]"
        }
      ],
      "name": "TransferBatch",
      "type": "event"
    },
    {
      "anonymous": false,
      "inputs": [
        {
          "indexed": true,
          "internalType": "address",
          "name": "operator",
          "type": "address"
        },
        {
          "indexed": true,
          "internalType": "address",
          "name": "from",
          "type": "address"
        },
        {
          "indexed": true,
          "internalType": "address",
          "name": "to",
          "type": "address"
        },
        {
          "indexed": false,
          "internalType": "uint256",
          "name": "id",
          "type": "uint256"
        },
        {
          "indexed": false,
          "internalType": "uint256",
          "name": "value",
          "type": "uint256"
        }
      ],
      "name": "TransferSingle",
      "type": "event"
    },
    {
      "anonymous": false,
      "inputs": [
        {
          "indexed": false,
          "internalType": "string",
          "name": "value",
          "type": "string"
        },
        {
          "indexed": true,
          "internalType": "uint256",
          "name": "id",
          "type": "uint256"
        }
      ],
      "name": "URI",
      "type": "event"
    },
    {
      "inputs": [],
      "name": "DEFAULT_PAYLOAD_SIZE_LIMIT",
      "outputs": [
        {
          "internalType": "uint256",
          "name": "",
          "type": "uint256"
        }
      ],
      "stateMutability": "view",
      "type": "function"
    },
    {
      "inputs": [],
      "name": "FUNCTION_TYPE_SEND",
      "outputs": [
        {
          "internalType": "uint16",
          "name": "",
          "type": "uint16"
        }
      ],
      "stateMutability": "view",
      "type": "function"
    },
    {
      "inputs": [],
      "name": "FUNCTION_TYPE_SEND_BATCH",
      "outputs": [
        {
          "internalType": "uint16",
          "name": "",
          "type": "uint16"
        }
      ],
      "stateMutability": "view",
      "type": "function"
    },
    {
      "inputs": [],
      "name": "NO_EXTRA_GAS",
      "outputs": [
        {
          "internalType": "uint256",
          "name": "",
          "type": "uint256"
        }
      ],
      "stateMutability": "view",
      "type": "function"
    },
    {
      "inputs": [
        {
          "internalType": "address",
          "name": "account",
          "type": "address"
        },
        {
          "internalType": "uint256",
          "name": "id",
          "type": "uint256"
        }
      ],
      "name": "balanceOf",
      "outputs": [
        {
          "internalType": "uint256",
          "name": "",
          "type": "uint256"
        }
      ],
      "stateMutability": "view",
      "type": "function"
    },
    {
      "inputs": [
        {
          "internalType": "address[]",
          "name": "accounts",
          "type": "address[]"
        },
        {
          "internalType": "uint256[]",
          "name": "ids",
          "type": "uint256[]"
        }
      ],
      "name": "balanceOfBatch",
      "outputs": [
        {
          "internalType": "uint256[]",
          "name": "",
          "type": "uint256[]"
        }
      ],
      "stateMutability": "view",
      "type": "function"
    },
    {
      "inputs": [
        {
          "internalType": "uint16",
          "name": "_dstChainId",
          "type": "uint16"
        },
        {
          "internalType": "bytes",
          "name": "_toAddress",
          "type": "bytes"
        },
        {
          "internalType": "uint256[]",
          "name": "_tokenIds",
          "type": "uint256[]"
        },
        {
          "internalType": "uint256[]",
          "name": "_amounts",
          "type": "uint256[]"
        },
        {
          "internalType": "bool",
          "name": "_useZro",
          "type": "bool"
        },
        {
          "internalType": "bytes",
          "name": "_adapterParams",
          "type": "bytes"
        }
      ],
      "name": "estimateSendBatchFee",
      "outputs": [
        {
          "internalType": "uint256",
          "name": "nativeFee",
          "type": "uint256"
        },
        {
          "internalType": "uint256",
          "name": "zroFee",
          "type": "uint256"
        }
      ],
      "stateMutability": "view",
      "type": "function"
    },
    {
      "inputs": [
        {
          "internalType": "uint16",
          "name": "_dstChainId",
          "type": "uint16"
        },
        {
          "internalType": "bytes",
          "name": "_toAddress",
          "type": "bytes"
        },
        {
          "internalType": "uint256",
          "name": "_tokenId",
          "type": "uint256"
        },
        {
          "internalType": "uint256",
          "name": "_amount",
          "type": "uint256"
        },
        {
          "internalType": "bool",
          "name": "_useZro",
          "type": "bool"
        },
        {
          "internalType": "bytes",
          "name": "_adapterParams",
          "type": "bytes"
        }
      ],
      "name": "estimateSendFee",
      "outputs": [
        {
          "internalType": "uint256",
          "name": "nativeFee",
          "type": "uint256"
        },
        {
          "internalType": "uint256",
          "name": "zroFee",
          "type": "uint256"
        }
      ],
      "stateMutability": "view",
      "type": "function"
    },
    {
      "inputs": [
        {
          "internalType": "uint16",
          "name": "",
          "type": "uint16"
        },
        {
          "internalType": "bytes",
          "name": "",
          "type": "bytes"
        },
        {
          "internalType": "uint64",
          "name": "",
          "type": "uint64"
        }
      ],
      "name": "failedMessages",
      "outputs": [
        {
          "internalType": "bytes32",
          "name": "",
          "type": "bytes32"
        }
      ],
      "stateMutability": "view",
      "type": "function"
    },
    {
      "inputs": [
        {
          "internalType": "uint16",
          "name": "_srcChainId",
          "type": "uint16"
        },
        {
          "internalType": "bytes",
          "name": "_srcAddress",
          "type": "bytes"
        }
      ],
      "name": "forceResumeReceive",
      "outputs": [],
      "stateMutability": "nonpayable",
      "type": "function"
    },
    {
      "inputs": [
        {
          "internalType": "uint16",
          "name": "_version",
          "type": "uint16"
        },
        {
          "internalType": "uint16",
          "name": "_chainId",
          "type": "uint16"
        },
        {
          "internalType": "address",
          "name": "",
          "type": "address"
        },
        {
          "internalType": "uint256",
          "name": "_configType",
          "type": "uint256"
        }
      ],
      "name": "getConfig",
      "outputs": [
        {
          "internalType": "bytes",
          "name": "",
          "type": "bytes"
        }
      ],
      "stateMutability": "view",
      "type": "function"
    },
    {
      "inputs": [
        {
          "internalType": "uint16",
          "name": "_remoteChainId",
          "type": "uint16"
        }
      ],
      "name": "getTrustedRemoteAddress",
      "outputs": [
        {
          "internalType": "bytes",
          "name": "",
          "type": "bytes"
        }
      ],
      "stateMutability": "view",
      "type": "function"
    },
    {
      "inputs": [
        {
          "internalType": "address",
          "name": "account",
          "type": "address"
        },
        {
          "internalType": "address",
          "name": "operator",
          "type": "address"
        }
      ],
      "name": "isApprovedForAll",
      "outputs": [
        {
          "internalType": "bool",
          "name": "",
          "type": "bool"
        }
      ],
      "stateMutability": "view",
      "type": "function"
    },
    {
      "inputs": [
        {
          "internalType": "uint16",
          "name": "_srcChainId",
          "type": "uint16"
        },
        {
          "internalType": "bytes",
          "name": "_srcAddress",
          "type": "bytes"
        }
      ],
      "name": "isTrustedRemote",
      "outputs": [
        {
          "internalType": "bool",
          "name": "",
          "type": "bool"
        }
      ],
      "stateMutability": "view",
      "type": "function"
    },
    {
      "inputs": [],
      "name": "lzEndpoint",
      "outputs": [
        {
          "internalType": "contract ILayerZeroEndpoint",
          "name": "",
          "type": "address"
        }
      ],
      "stateMutability": "view",
      "type": "function"
    },
    {
      "inputs": [
        {
          "internalType": "uint16",
          "name": "_srcChainId",
          "type": "uint16"
        },
        {
          "internalType": "bytes",
          "name": "_srcAddress",
          "type": "bytes"
        },
        {
          "internalType": "uint64",
          "name": "_nonce",
          "type": "uint64"
        },
        {
          "internalType": "bytes",
          "name": "_payload",
          "type": "bytes"
        }
      ],
      "name": "lzReceive",
      "outputs": [],
      "stateMutability": "nonpayable",
      "type": "function"
    },
    {
      "inputs": [
        {
          "internalType": "uint16",
          "name": "",
          "type": "uint16"
        },
        {
          "internalType": "uint16",
          "name": "",
          "type": "uint16"
        }
      ],
      "name": "minDstGasLookup",
      "outputs": [
        {
          "internalType": "uint256",
          "name": "",
          "type": "uint256"
        }
      ],
      "stateMutability": "view",
      "type": "function"
    },
    {
      "inputs": [
        {
          "internalType": "uint16",
          "name": "_srcChainId",
          "type": "uint16"
        },
        {
          "internalType": "bytes",
          "name": "_srcAddress",
          "type": "bytes"
        },
        {
          "internalType": "uint64",
          "name": "_nonce",
          "type": "uint64"
        },
        {
          "internalType": "bytes",
          "name": "_payload",
          "type": "bytes"
        }
      ],
      "name": "nonblockingLzReceive",
      "outputs": [],
      "stateMutability": "nonpayable",
      "type": "function"
    },
    {
      "inputs": [],
      "name": "owner",
      "outputs": [
        {
          "internalType": "address",
          "name": "",
          "type": "address"
        }
      ],
      "stateMutability": "view",
      "type": "function"
    },
    {
      "inputs": [
        {
          "internalType": "uint16",
          "name": "",
          "type": "uint16"
        }
      ],
      "name": "payloadSizeLimitLookup",
      "outputs": [
        {
          "internalType": "uint256",
          "name": "",
          "type": "uint256"
        }
      ],
      "stateMutability": "view",
      "type": "function"
    },
    {
      "inputs": [],
      "name": "precrime",
      "outputs": [
        {
          "internalType": "address",
          "name": "",
          "type": "address"
        }
      ],
      "stateMutability": "view",
      "type": "function"
    },
    {
      "inputs": [],
      "name": "renounceOwnership",
      "outputs": [],
      "stateMutability": "nonpayable",
      "type": "function"
    },
    {
      "inputs": [
        {
          "internalType": "uint16",
          "name": "_srcChainId",
          "type": "uint16"
        },
        {
          "internalType": "bytes",
          "name": "_srcAddress",
          "type": "bytes"
        },
        {
          "internalType": "uint64",
          "name": "_nonce",
          "type": "uint64"
        },
        {
          "internalType": "bytes",
          "name": "_payload",
          "type": "bytes"
        }
      ],
      "name": "retryMessage",
      "outputs": [],
      "stateMutability": "payable",
      "type": "function"
    },
    {
      "inputs": [
        {
          "internalType": "address",
          "name": "from",
          "type": "address"
        },
        {
          "internalType": "address",
          "name": "to",
          "type": "address"
        },
        {
          "internalType": "uint256[]",
          "name": "ids",
          "type": "uint256[]"
        },
        {
          "internalType": "uint256[]",
          "name": "amounts",
          "type": "uint256[]"
        },
        {
          "internalType": "bytes",
          "name": "data",
          "type": "bytes"
        }
      ],
      "name": "safeBatchTransferFrom",
      "outputs": [],
      "stateMutability": "nonpayable",
      "type": "function"
    },
    {
      "inputs": [
        {
          "internalType": "address",
          "name": "from",
          "type": "address"
        },
        {
          "internalType": "address",
          "name": "to",
          "type": "address"
        },
        {
          "internalType": "uint256",
          "name": "id",
          "type": "uint256"
        },
        {
          "internalType": "uint256",
          "name": "amount",
          "type": "uint256"
        },
        {
          "internalType": "bytes",
          "name": "data",
          "type": "bytes"
        }
      ],
      "name": "safeTransferFrom",
      "outputs": [],
      "stateMutability": "nonpayable",
      "type": "function"
    },
    {
      "inputs": [
        {
          "internalType": "address",
          "name": "_from",
          "type": "address"
        },
        {
          "internalType": "uint16",
          "name": "_dstChainId",
          "type": "uint16"
        },
        {
          "internalType": "bytes",
          "name": "_toAddress",
          "type": "bytes"
        },
        {
          "internalType": "uint256[]",
          "name": "_tokenIds",
          "type": "uint256[]"
        },
        {
          "internalType": "uint256[]",
          "name": "_amounts",
          "type": "uint256[]"
        },
        {
          "internalType": "address payable",
          "name": "_refundAddress",
          "type": "address"
        },
        {
          "internalType": "address",
          "name": "_zroPaymentAddress",
          "type": "address"
        },
        {
          "internalType": "bytes",
          "name": "_adapterParams",
          "type": "bytes"
        }
      ],
      "name": "sendBatchFrom",
      "outputs": [],
      "stateMutability": "payable",
      "type": "function"
    },
    {
      "inputs": [
        {
          "internalType": "address",
          "name": "_from",
          "type": "address"
        },
        {
          "internalType": "uint16",
          "name": "_dstChainId",
          "type": "uint16"
        },
        {
          "internalType": "bytes",
          "name": "_toAddress",
          "type": "bytes"
        },
        {
          "internalType": "uint256",
          "name": "_tokenId",
          "type": "uint256"
        },
        {
          "internalType": "uint256",
          "name": "_amount",
          "type": "uint256"
        },
        {
          "internalType": "address payable",
          "name": "_refundAddress",
          "type": "address"
        },
        {
          "internalType": "address",
          "name": "_zroPaymentAddress",
          "type": "address"
        },
        {
          "internalType": "bytes",
          "name": "_adapterParams",
          "type": "bytes"
        }
      ],
      "name": "sendFrom",
      "outputs": [],
      "stateMutability": "payable",
      "type": "function"
    },
    {
      "inputs": [
        {
          "internalType": "address",
          "name": "operator",
          "type": "address"
        },
        {
          "internalType": "bool",
          "name": "approved",
          "type": "bool"
        }
      ],
      "name": "setApprovalForAll",
      "outputs": [],
      "stateMutability": "nonpayable",
      "type": "function"
    },
    {
      "inputs": [
        {
          "internalType": "uint16",
          "name": "_version",
          "type": "uint16"
        },
        {
          "internalType": "uint16",
          "name": "_chainId",
          "type": "uint16"
        },
        {
          "internalType": "uint256",
          "name": "_configType",
          "type": "uint256"
        },
        {
          "internalType": "bytes",
          "name": "_config",
          "type": "bytes"
        }
      ],
      "name": "setConfig",
      "outputs": [],
      "stateMutability": "nonpayable",
      "type": "function"
    },
    {
      "inputs": [
        {
          "internalType": "uint16",
          "name": "_dstChainId",
          "type": "uint16"
        },
        {
          "internalType": "uint16",
          "name": "_packetType",
          "type": "uint16"
        },
        {
          "internalType": "uint256",
          "name": "_minGas",
          "type": "uint256"
        }
      ],
      "name": "setMinDstGas",
      "outputs": [],
      "stateMutability": "nonpayable",
      "type": "function"
    },
    {
      "inputs": [
        {
          "internalType": "uint16",
          "name": "_dstChainId",
          "type": "uint16"
        },
        {
          "internalType": "uint256",
          "name": "_size",
          "type": "uint256"
        }
      ],
      "name": "setPayloadSizeLimit",
      "outputs": [],
      "stateMutability": "nonpayable",
      "type": "function"
    },
    {
      "inputs": [
        {
          "internalType": "address",
          "name": "_precrime",
          "type": "address"
        }
      ],
      "name": "setPrecrime",
      "outputs": [],
      "stateMutability": "nonpayable",
      "type": "function"
    },
    {
      "inputs": [
        {
          "internalType": "uint16",
          "name": "_version",
          "type": "uint16"
        }
      ],
      "name": "setReceiveVersion",
      "outputs": [],
      "stateMutability": "nonpayable",
      "type": "function"
    },
    {
      "inputs": [
        {
          "internalType": "uint16",
          "name": "_version",
          "type": "uint16"
        }
      ],
      "name": "setSendVersion",
      "outputs": [],
      "stateMutability": "nonpayable",
      "type": "function"
    },
    {
      "inputs": [
        {
          "internalType": "uint16",
          "name": "_remoteChainId",
          "type": "uint16"
        },
        {
          "internalType": "bytes",
          "name": "_path",
          "type": "bytes"
        }
      ],
      "name": "setTrustedRemote",
      "outputs": [],
      "stateMutability": "nonpayable",
      "type": "function"
    },
    {
      "inputs": [
        {
          "internalType": "uint16",
          "name": "_remoteChainId",
          "type": "uint16"
        },
        {
          "internalType": "bytes",
          "name": "_remoteAddress",
          "type": "bytes"
        }
      ],
      "name": "setTrustedRemoteAddress",
      "outputs": [],
      "stateMutability": "nonpayable",
      "type": "function"
    },
    {
      "inputs": [
        {
          "internalType": "bool",
          "name": "_useCustomAdapterParams",
          "type": "bool"
        }
      ],
      "name": "setUseCustomAdapterParams",
      "outputs": [],
      "stateMutability": "nonpayable",
      "type": "function"
    },
    {
      "inputs": [
        {
          "internalType": "bytes4",
          "name": "interfaceId",
          "type": "bytes4"
        }
      ],
      "name": "supportsInterface",
      "outputs": [
        {
          "internalType": "bool",
          "name": "",
          "type": "bool"
        }
      ],
      "stateMutability": "view",
      "type": "function"
    },
    {
      "inputs": [
        {
          "internalType": "address",
          "name": "newOwner",
          "type": "address"
        }
      ],
      "name": "transferOwnership",
      "outputs": [],
      "stateMutability": "nonpayable",
      "type": "function"
    },
    {
      "inputs": [
        {
          "internalType": "uint16",
          "name": "",
          "type": "uint16"
        }
      ],
      "name": "trustedRemoteLookup",
      "outputs": [
        {
          "internalType": "bytes",
          "name": "",
          "type": "bytes"
        }
      ],
      "stateMutability": "view",
      "type": "function"
    },
    {
      "inputs": [
        {
          "internalType": "uint256",
          "name": "",
          "type": "uint256"
        }
      ],
      "name": "uri",
      "outputs": [
        {
          "internalType": "string",
          "name": "",
          "type": "string"
        }
      ],
      "stateMutability": "view",
      "type": "function"
    },
    {
      "inputs": [],
      "name": "useCustomAdapterParams",
      "outputs": [
        {
          "internalType": "bool",
          "name": "",
          "type": "bool"
        }
      ],
      "stateMutability": "view",
      "type": "function"
    }
  ],
  "bytecode": "0x60a06040523480156200001157600080fd5b50604051620045c5380380620045c58339810160408190526200003491620001a8565b81818080620000433362000066565b6001600160a01b0316608052506200005d905081620000b6565b505050620002d6565b600080546001600160a01b038381166001600160a01b0319831681178455604051919092169283917f8be0079c531659141344cd1fd0a4f28419497f9722a3daafe3b4186f6b6457e09190a35050565b8051620000cb906009906020840190620000cf565b5050565b828054620000dd9062000299565b90600052602060002090601f0160209004810192826200010157600085556200014c565b82601f106200011c57805160ff19168380011785556200014c565b828001600101855582156200014c579182015b828111156200014c5782518255916020019190600101906200012f565b506200015a9291506200015e565b5090565b5b808211156200015a57600081556001016200015f565b634e487b7160e01b600052604160045260246000fd5b80516001600160a01b0381168114620001a357600080fd5b919050565b60008060408385031215620001bc57600080fd5b82516001600160401b0380821115620001d457600080fd5b818501915085601f830112620001e957600080fd5b815181811115620001fe57620001fe62000175565b604051601f8201601f19908116603f0116810190838211818310171562000229576200022962000175565b816040528281526020935088848487010111156200024657600080fd5b600091505b828210156200026a57848201840151818301850152908301906200024b565b828211156200027c5760008484830101525b95506200028e9150508582016200018b565b925050509250929050565b600181811c90821680620002ae57607f821691505b60208210811415620002d057634e487b7160e01b600052602260045260246000fd5b50919050565b60805161429b6200032a6000396000818161068d0152818161083e01528181610b4301528181610c7f01528181610de6015281816113640152818161146d0152818161193d0152612896015261429b6000f3fe60806040526004361061024f5760003560e01c80638cfd8f5c11610139578063c4461834116100b6578063eab45d9c1161007a578063eab45d9c14610781578063eb8d72b7146107a1578063ed629c5c146107c1578063f242432a146107db578063f2fde38b146107fb578063f5ecbdbc1461081b57600080fd5b8063c4461834146106cf578063cbed8b9c146106e5578063d1deba1f14610705578063df2a5b3b14610718578063e985e9c51461073857600080fd5b8063a6c3d165116100fd578063a6c3d16514610626578063af3fb21c14610646578063b25356631461065b578063b353aaa71461067b578063baf3292d146106af57600080fd5b80638cfd8f5c1461055c5780638da5cb5b14610594578063950c8a74146105c65780639f38369a146105e6578063a22cb4651461060657600080fd5b80633f1f4fa4116101d25780634e1273f4116101965780634e1273f4146104565780635b8c41e61461048357806366ad5c8a146104d2578063715018a6146104f25780637533d788146105075780638608e5f81461052757600080fd5b80633f1f4fa4146103ce57806342d65a8d146103fb578063447705151461041b5780634ab4e687146104305780634db8226a1461044357600080fd5b80630e89341c116102195780630e89341c1461031957806310ddb13714610346578063149e3e1f146103665780632eb2c2d61461038e5780633d8b38f6146103ae57600080fd5b80621d356714610254578062fdd58e1461027657806301ffc9a7146102a957806307e0db17146102d95780630df37483146102f9575b600080fd5b34801561026057600080fd5b5061027461026f366004612fcb565b61083b565b005b34801561028257600080fd5b5061029661029136600461307e565b610a6c565b6040519081526020015b60405180910390f35b3480156102b557600080fd5b506102c96102c43660046130c0565b610aff565b60405190151581526020016102a0565b3480156102e557600080fd5b506102746102f43660046130dd565b610b22565b34801561030557600080fd5b506102746103143660046130f8565b610bab565b34801561032557600080fd5b50610339610334366004613114565b610bca565b6040516102a09190613185565b34801561035257600080fd5b506102746103613660046130dd565b610c5e565b34801561037257600080fd5b5061037b600281565b60405161ffff90911681526020016102a0565b34801561039a57600080fd5b506102746103a93660046132f1565b610cb6565b3480156103ba57600080fd5b506102c96103c936600461339e565b610cfb565b3480156103da57600080fd5b506102966103e93660046130dd565b60036020526000908152604090205481565b34801561040757600080fd5b5061027461041636600461339e565b610dc7565b34801561042757600080fd5b50610296600081565b61027461043e3660046133f0565b610e4d565b6102746104513660046134df565b610e67565b34801561046257600080fd5b50610476610471366004613585565b610e87565b6040516102a0919061368c565b34801561048f57600080fd5b5061029661049e36600461369f565b6005602090815260009384526040808520845180860184018051928152908401958401959095209452929052825290205481565b3480156104de57600080fd5b506102746104ed366004612fcb565b610fb0565b3480156104fe57600080fd5b5061027461108c565b34801561051357600080fd5b506103396105223660046130dd565b6110a0565b34801561053357600080fd5b5061054761054236600461370c565b61113a565b604080519283526020830191909152016102a0565b34801561056857600080fd5b506102966105773660046137a2565b600260209081526000928352604080842090915290825290205481565b3480156105a057600080fd5b506000546001600160a01b03165b6040516001600160a01b0390911681526020016102a0565b3480156105d257600080fd5b506004546105ae906001600160a01b031681565b3480156105f257600080fd5b506103396106013660046130dd565b61116a565b34801561061257600080fd5b506102746106213660046137d5565b611281565b34801561063257600080fd5b5061027461064136600461339e565b611290565b34801561065257600080fd5b5061037b600181565b34801561066757600080fd5b50610547610676366004613801565b611323565b34801561068757600080fd5b506105ae7f000000000000000000000000000000000000000000000000000000000000000081565b3480156106bb57600080fd5b506102746106ca36600461389d565b6113f1565b3480156106db57600080fd5b5061029661271081565b3480156106f157600080fd5b506102746107003660046138ba565b61144e565b610274610713366004612fcb565b6114e3565b34801561072457600080fd5b50610274610733366004613928565b6116f9565b34801561074457600080fd5b506102c9610753366004613964565b6001600160a01b03918216600090815260086020908152604080832093909416825291909152205460ff1690565b34801561078d57600080fd5b5061027461079c36600461399d565b6117ab565b3480156107ad57600080fd5b506102746107bc36600461339e565b6117f4565b3480156107cd57600080fd5b506006546102c99060ff1681565b3480156107e757600080fd5b506102746107f63660046139b8565b61184e565b34801561080757600080fd5b5061027461081636600461389d565b611893565b34801561082757600080fd5b50610339610836366004613a20565b61190c565b337f00000000000000000000000000000000000000000000000000000000000000006001600160a01b0316146108b85760405162461bcd60e51b815260206004820152601e60248201527f4c7a4170703a20696e76616c696420656e64706f696e742063616c6c6572000060448201526064015b60405180910390fd5b61ffff8616600090815260016020526040812080546108d690613a6d565b80601f016020809104026020016040519081016040528092919081815260200182805461090290613a6d565b801561094f5780601f106109245761010080835404028352916020019161094f565b820191906000526020600020905b81548152906001019060200180831161093257829003601f168201915b5050505050905080518686905014801561096a575060008151115b80156109925750805160208201206040516109889088908890613aa8565b6040518091039020145b6109ed5760405162461bcd60e51b815260206004820152602660248201527f4c7a4170703a20696e76616c696420736f757263652073656e64696e6720636f6044820152651b9d1c9858dd60d21b60648201526084016108af565b610a638787878080601f01602080910402602001604051908101604052809392919081815260200183838082843760009201919091525050604080516020601f8a018190048102820181019092528881528a9350915088908890819084018382808284376000920191909152506119bd92505050565b50505050505050565b60006001600160a01b038316610ad75760405162461bcd60e51b815260206004820152602a60248201527f455243313135353a2061646472657373207a65726f206973206e6f742061207660448201526930b634b21037bbb732b960b11b60648201526084016108af565b5060009081526007602090815260408083206001600160a01b03949094168352929052205490565b60006001600160e01b031982161580610b1c5750610b1c82611a36565b92915050565b610b2a611a76565b6040516307e0db1760e01b815261ffff821660048201527f00000000000000000000000000000000000000000000000000000000000000006001600160a01b0316906307e0db17906024015b600060405180830381600087803b158015610b9057600080fd5b505af1158015610ba4573d6000803e3d6000fd5b5050505050565b610bb3611a76565b61ffff909116600090815260036020526040902055565b606060098054610bd990613a6d565b80601f0160208091040260200160405190810160405280929190818152602001828054610c0590613a6d565b8015610c525780601f10610c2757610100808354040283529160200191610c52565b820191906000526020600020905b815481529060010190602001808311610c3557829003601f168201915b50505050509050919050565b610c66611a76565b6040516310ddb13760e01b815261ffff821660048201527f00000000000000000000000000000000000000000000000000000000000000006001600160a01b0316906310ddb13790602401610b76565b6001600160a01b038516331480610cd25750610cd28533610753565b610cee5760405162461bcd60e51b81526004016108af90613ab8565b610ba48585858585611ad0565b61ffff831660009081526001602052604081208054829190610d1c90613a6d565b80601f0160208091040260200160405190810160405280929190818152602001828054610d4890613a6d565b8015610d955780601f10610d6a57610100808354040283529160200191610d95565b820191906000526020600020905b815481529060010190602001808311610d7857829003601f168201915b505050505090508383604051610dac929190613aa8565b60405180910390208180519060200120149150509392505050565b610dcf611a76565b6040516342d65a8d60e01b81526001600160a01b037f000000000000000000000000000000000000000000000000000000000000000016906342d65a8d90610e1f90869086908690600401613b2f565b600060405180830381600087803b158015610e3957600080fd5b505af1158015610a63573d6000803e3d6000fd5b610e5d8888888888888888611c67565b5050505050505050565b610e5d888888610e7689611e4f565b610e7f89611e4f565b888888611c67565b60608151835114610eec5760405162461bcd60e51b815260206004820152602960248201527f455243313135353a206163636f756e747320616e6420696473206c656e677468604482015268040dad2e6dac2e8c6d60bb1b60648201526084016108af565b600083516001600160401b03811115610f0757610f07613198565b604051908082528060200260200182016040528015610f30578160200160208202803683370190505b50905060005b8451811015610fa857610f7b858281518110610f5457610f54613b4d565b6020026020010151858381518110610f6e57610f6e613b4d565b6020026020010151610a6c565b828281518110610f8d57610f8d613b4d565b6020908102919091010152610fa181613b79565b9050610f36565b509392505050565b33301461100e5760405162461bcd60e51b815260206004820152602660248201527f4e6f6e626c6f636b696e674c7a4170703a2063616c6c6572206d7573742062656044820152650204c7a4170760d41b60648201526084016108af565b6110848686868080601f01602080910402602001604051908101604052809392919081815260200183838082843760009201919091525050604080516020601f890181900481028201810190925287815289935091508790879081908401838280828437600092019190915250611e9a92505050565b505050505050565b611094611a76565b61109e6000611fe8565b565b600160205260009081526040902080546110b990613a6d565b80601f01602080910402602001604051908101604052809291908181526020018280546110e590613a6d565b80156111325780601f1061110757610100808354040283529160200191611132565b820191906000526020600020905b81548152906001019060200180831161111557829003601f168201915b505050505081565b60008061115b888861114b89611e4f565b61115489611e4f565b8888611323565b91509150965096945050505050565b61ffff811660009081526001602052604081208054606092919061118d90613a6d565b80601f01602080910402602001604051908101604052809291908181526020018280546111b990613a6d565b80156112065780601f106111db57610100808354040283529160200191611206565b820191906000526020600020905b8154815290600101906020018083116111e957829003601f168201915b5050505050905080516000141561125f5760405162461bcd60e51b815260206004820152601d60248201527f4c7a4170703a206e6f20747275737465642070617468207265636f726400000060448201526064016108af565b61127a6000601483516112729190613b94565b839190612038565b9392505050565b61128c338383612145565b5050565b611298611a76565b8181306040516020016112ad93929190613bab565b60408051601f1981840301815291815261ffff851660009081526001602090815291902082516112e293919290910190612e48565b507f8c0400cfe2d1199b1a725c78960bcc2a344d869b80590d0f2bd005db15a572ce83838360405161131693929190613b2f565b60405180910390a1505050565b600080600087878760405160200161133d93929190613bd1565b60408051601f198184030181529082905263040a7bb160e41b825291506001600160a01b037f000000000000000000000000000000000000000000000000000000000000000016906340a7bb10906113a1908c90309086908b908b90600401613c14565b6040805180830381865afa1580156113bd573d6000803e3d6000fd5b505050506040513d601f19601f820116820180604052508101906113e19190613c68565b9250925050965096945050505050565b6113f9611a76565b600480546001600160a01b0319166001600160a01b0383169081179091556040519081527f5db758e995a17ec1ad84bdef7e8c3293a0bd6179bcce400dff5d4c3d87db726b906020015b60405180910390a150565b611456611a76565b6040516332fb62e760e21b81526001600160a01b037f0000000000000000000000000000000000000000000000000000000000000000169063cbed8b9c906114aa9088908890889088908890600401613c8c565b600060405180830381600087803b1580156114c457600080fd5b505af11580156114d8573d6000803e3d6000fd5b505050505050505050565b61ffff861660009081526005602052604080822090516115069088908890613aa8565b90815260408051602092819003830190206001600160401b038716600090815292529020549050806115865760405162461bcd60e51b815260206004820152602360248201527f4e6f6e626c6f636b696e674c7a4170703a206e6f2073746f726564206d65737360448201526261676560e81b60648201526084016108af565b808383604051611597929190613aa8565b6040518091039020146115f65760405162461bcd60e51b815260206004820152602160248201527f4e6f6e626c6f636b696e674c7a4170703a20696e76616c6964207061796c6f616044820152601960fa1b60648201526084016108af565b61ffff871660009081526005602052604080822090516116199089908990613aa8565b90815260408051602092819003830181206001600160401b038916600090815290845282902093909355601f880182900482028301820190528682526116b1918991899089908190840183828082843760009201919091525050604080516020601f8a018190048102820181019092528881528a935091508890889081908401838280828437600092019190915250611e9a92505050565b7fc264d91f3adc5588250e1551f547752ca0cfa8f6b530d243b9f9f4cab10ea8e587878787856040516116e8959493929190613cc5565b60405180910390a150505050505050565b611701611a76565b600081116117495760405162461bcd60e51b81526020600482015260156024820152744c7a4170703a20696e76616c6964206d696e47617360581b60448201526064016108af565b61ffff83811660008181526002602090815260408083209487168084529482529182902085905581519283528201929092529081018290527f9d5c7c0b934da8fefa9c7760c98383778a12dfbfc0c3b3106518f43fb9508ac090606001611316565b6117b3611a76565b6006805460ff19168215159081179091556040519081527f1584ad594a70cbe1e6515592e1272a987d922b097ead875069cebe8b40c004a490602001611443565b6117fc611a76565b61ffff8316600090815260016020526040902061181a908383612ecc565b507ffa41487ad5d6728f0b19276fa1eddc16558578f5109fc39d2dc33c3230470dab83838360405161131693929190613b2f565b6001600160a01b03851633148061186a575061186a8533610753565b6118865760405162461bcd60e51b81526004016108af90613ab8565b610ba48585858585612226565b61189b611a76565b6001600160a01b0381166119005760405162461bcd60e51b815260206004820152602660248201527f4f776e61626c653a206e6577206f776e657220697320746865207a65726f206160448201526564647265737360d01b60648201526084016108af565b61190981611fe8565b50565b604051633d7b2f6f60e21b815261ffff808616600483015284166024820152306044820152606481018290526060907f00000000000000000000000000000000000000000000000000000000000000006001600160a01b03169063f5ecbdbc90608401600060405180830381865afa15801561198c573d6000803e3d6000fd5b505050506040513d6000823e601f3d908101601f191682016040526119b49190810190613d4f565b95945050505050565b600080611a205a60966366ad5c8a60e01b898989896040516024016119e59493929190613d8b565b60408051601f198184030181529190526020810180516001600160e01b03166001600160e01b03199093169290921790915230929190612349565b91509150816110845761108486868686856123d3565b60006001600160e01b03198216636cdb3d1360e11b1480611a6757506001600160e01b031982166303a24d0760e21b145b80610b1c5750610b1c82612470565b6000546001600160a01b0316331461109e5760405162461bcd60e51b815260206004820181905260248201527f4f776e61626c653a2063616c6c6572206973206e6f7420746865206f776e657260448201526064016108af565b8151835114611af15760405162461bcd60e51b81526004016108af90613dc9565b6001600160a01b038416611b175760405162461bcd60e51b81526004016108af90613e11565b3360005b8451811015611c01576000858281518110611b3857611b38613b4d565b602002602001015190506000858381518110611b5657611b56613b4d565b60209081029190910181015160008481526007835260408082206001600160a01b038e168352909352919091205490915081811015611ba75760405162461bcd60e51b81526004016108af90613e56565b60008381526007602090815260408083206001600160a01b038e8116855292528083208585039055908b16825281208054849290611be6908490613ea0565b9250508190555050505080611bfa90613b79565b9050611b1b565b50846001600160a01b0316866001600160a01b0316826001600160a01b03167f4a39dc06d4c0dbc64b70af90fd698a233a518aa5d07e595d983b8c0526c8f7fb8787604051611c51929190613eb8565b60405180910390a46110848187878787876124a5565b611c748888888888612601565b6000868686604051602001611c8b93929190613bd1565b6040516020818303038152906040529050855160011415611d915760065460ff1615611cc457611cbf88600184600061268d565b611ce3565b815115611ce35760405162461bcd60e51b81526004016108af90613edd565b611cf188828686863461276c565b86604051611cff9190613f21565b6040518091039020896001600160a01b03168961ffff167f968b0d61ebcf43e5d76ed87bd2c4ee2f22b4969b9f4ca49e3373c025eddd5eeb89600081518110611d4a57611d4a613b4d565b602002602001015189600081518110611d6557611d65613b4d565b6020026020010151604051611d84929190918252602082015260400190565b60405180910390a46114d8565b6001865111156114d85760065460ff1615611db957611db488600284600061268d565b611dd8565b815115611dd85760405162461bcd60e51b81526004016108af90613edd565b611de688828686863461276c565b86604051611df49190613f21565b6040518091039020896001600160a01b03168961ffff167fddd15f7cfbd674ac2096d598f1650367f8a8bd72b4e3abd85591099ea3b57e338989604051611e3c929190613eb8565b60405180910390a4505050505050505050565b60408051600180825281830190925260609160009190602080830190803683370190505090508281600081518110611e8957611e89613b4d565b602090810291909101015292915050565b600080600083806020019051810190611eb39190613fa3565b60148301519295509093509150611ecc88828585612912565b825160011415611f7657806001600160a01b031687604051611eee9190613f21565b60405180910390208961ffff167f1bf64e58d19fc43de4c44b3d1bb1fae313979af831a7a39f3297564294329f0f86600081518110611f2f57611f2f613b4d565b602002602001015186600081518110611f4a57611f4a613b4d565b6020026020010151604051611f69929190918252602082015260400190565b60405180910390a4610e5d565b600183511115610e5d57806001600160a01b031687604051611f989190613f21565b60405180910390208961ffff167f1ae08edbbcd7baa8d064835de8593ce16b313414525ac89534e349f4da7926e48686604051611fd6929190613eb8565b60405180910390a45050505050505050565b600080546001600160a01b038381166001600160a01b0319831681178455604051919092169283917f8be0079c531659141344cd1fd0a4f28419497f9722a3daafe3b4186f6b6457e09190a35050565b60608161204681601f613ea0565b10156120855760405162461bcd60e51b815260206004820152600e60248201526d736c6963655f6f766572666c6f7760901b60448201526064016108af565b61208f8284613ea0565b845110156120d35760405162461bcd60e51b8152602060048201526011602482015270736c6963655f6f75744f66426f756e647360781b60448201526064016108af565b6060821580156120f2576040519150600082526020820160405261213c565b6040519150601f8416801560200281840101858101878315602002848b0101015b8183101561212b578051835260209283019201612113565b5050858452601f01601f1916604052505b50949350505050565b816001600160a01b0316836001600160a01b031614156121b95760405162461bcd60e51b815260206004820152602960248201527f455243313135353a2073657474696e6720617070726f76616c20737461747573604482015268103337b91039b2b63360b91b60648201526084016108af565b6001600160a01b03838116600081815260086020908152604080832094871680845294825291829020805460ff191686151590811790915591519182527f17307eab39ab6107e8899845ad3d59bd9653f200f220920489ca2b5937696c31910160405180910390a3505050565b6001600160a01b03841661224c5760405162461bcd60e51b81526004016108af90613e11565b33600061225885611e4f565b9050600061226585611e4f565b905060008681526007602090815260408083206001600160a01b038c168452909152902054858110156122aa5760405162461bcd60e51b81526004016108af90613e56565b60008781526007602090815260408083206001600160a01b038d8116855292528083208985039055908a168252812080548892906122e9908490613ea0565b909155505060408051888152602081018890526001600160a01b03808b16928c821692918816917fc3d58168c5ae7397731d063d5bbf3d657854427343f4c083240f7aacaa2d0f62910160405180910390a46114d8848a8a8a8a8a612933565b6000606060008060008661ffff166001600160401b0381111561236e5761236e613198565b6040519080825280601f01601f191660200182016040528015612398576020820181803683370190505b50905060008087516020890160008d8df191503d9250868311156123ba578692505b828152826000602083013e909890975095505050505050565b8180519060200120600560008761ffff1661ffff168152602001908152602001600020856040516124049190613f21565b9081526040805191829003602090810183206001600160401b0388166000908152915220919091557fe183f33de2837795525b4792ca4cd60535bd77c53b7e7030060bfcf5734d6b0c90612461908790879087908790879061402a565b60405180910390a15050505050565b60006001600160e01b031982166319abbbbb60e11b1480610b1c57506301ffc9a760e01b6001600160e01b0319831614610b1c565b6001600160a01b0384163b156110845760405163bc197c8160e01b81526001600160a01b0385169063bc197c81906124e9908990899088908890889060040161407c565b6020604051808303816000875af1925050508015612524575060408051601f3d908101601f19168201909252612521918101906140ba565b60015b6125d1576125306140d7565b806308c379a0141561256a57506125456140f3565b80612550575061256c565b8060405162461bcd60e51b81526004016108af9190613185565b505b60405162461bcd60e51b815260206004820152603460248201527f455243313135353a207472616e7366657220746f206e6f6e2d455243313135356044820152732932b1b2b4bb32b91034b6b83632b6b2b73a32b960611b60648201526084016108af565b6001600160e01b0319811663bc197c8160e01b14610a635760405162461bcd60e51b81526004016108af9061417c565b336001600160a01b03861681148061261e575061261e8682610753565b6126825760405162461bcd60e51b815260206004820152602f60248201527f4f4e4654313135353a2073656e642063616c6c6572206973206e6f74206f776e60448201526e195c881b9bdc88185c1c1c9bdd9959608a1b60648201526084016108af565b6110848684846129ee565b600061269883612bf3565b61ffff8087166000908152600260209081526040808320938916835292905290812054919250906126ca908490613ea0565b90506000811161271c5760405162461bcd60e51b815260206004820152601a60248201527f4c7a4170703a206d696e4761734c696d6974206e6f742073657400000000000060448201526064016108af565b808210156110845760405162461bcd60e51b815260206004820152601b60248201527f4c7a4170703a20676173206c696d697420697320746f6f206c6f77000000000060448201526064016108af565b61ffff86166000908152600160205260408120805461278a90613a6d565b80601f01602080910402602001604051908101604052809291908181526020018280546127b690613a6d565b80156128035780601f106127d857610100808354040283529160200191612803565b820191906000526020600020905b8154815290600101906020018083116127e657829003601f168201915b505050505090508051600014156128755760405162461bcd60e51b815260206004820152603060248201527f4c7a4170703a2064657374696e6174696f6e20636861696e206973206e6f742060448201526f61207472757374656420736f7572636560801b60648201526084016108af565b612880878751612c4f565b60405162c5803160e81b81526001600160a01b037f0000000000000000000000000000000000000000000000000000000000000000169063c58031009084906128d7908b9086908c908c908c908c906004016141c4565b6000604051808303818588803b1580156128f057600080fd5b505af1158015612904573d6000803e3d6000fd5b505050505050505050505050565b61292d83838360405180602001604052806000815250612cc2565b50505050565b6001600160a01b0384163b156110845760405163f23a6e6160e01b81526001600160a01b0385169063f23a6e6190612977908990899088908890889060040161422b565b6020604051808303816000875af19250505080156129b2575060408051601f3d908101601f191682019092526129af918101906140ba565b60015b6129be576125306140d7565b6001600160e01b0319811663f23a6e6160e01b14610a635760405162461bcd60e51b81526004016108af9061417c565b6001600160a01b038316612a505760405162461bcd60e51b815260206004820152602360248201527f455243313135353a206275726e2066726f6d20746865207a65726f206164647260448201526265737360e81b60648201526084016108af565b8051825114612a715760405162461bcd60e51b81526004016108af90613dc9565b604080516020810190915260009081905233905b8351811015612b86576000848281518110612aa257612aa2613b4d565b602002602001015190506000848381518110612ac057612ac0613b4d565b60209081029190910181015160008481526007835260408082206001600160a01b038c168352909352919091205490915081811015612b4d5760405162461bcd60e51b8152602060048201526024808201527f455243313135353a206275726e20616d6f756e7420657863656564732062616c604482015263616e636560e01b60648201526084016108af565b60009283526007602090815260408085206001600160a01b038b1686529091529092209103905580612b7e81613b79565b915050612a85565b5060006001600160a01b0316846001600160a01b0316826001600160a01b03167f4a39dc06d4c0dbc64b70af90fd698a233a518aa5d07e595d983b8c0526c8f7fb8686604051612bd7929190613eb8565b60405180910390a460408051602081019091526000905261292d565b6000602282511015612c475760405162461bcd60e51b815260206004820152601c60248201527f4c7a4170703a20696e76616c69642061646170746572506172616d730000000060448201526064016108af565b506022015190565b61ffff821660009081526003602052604090205480612c6d57506127105b80821115612cbd5760405162461bcd60e51b815260206004820181905260248201527f4c7a4170703a207061796c6f61642073697a6520697320746f6f206c6172676560448201526064016108af565b505050565b6001600160a01b038416612d225760405162461bcd60e51b815260206004820152602160248201527f455243313135353a206d696e7420746f20746865207a65726f206164647265736044820152607360f81b60648201526084016108af565b8151835114612d435760405162461bcd60e51b81526004016108af90613dc9565b3360005b8451811015612de057838181518110612d6257612d62613b4d565b602002602001015160076000878481518110612d8057612d80613b4d565b602002602001015181526020019081526020016000206000886001600160a01b03166001600160a01b031681526020019081526020016000206000828254612dc89190613ea0565b90915550819050612dd881613b79565b915050612d47565b50846001600160a01b031660006001600160a01b0316826001600160a01b03167f4a39dc06d4c0dbc64b70af90fd698a233a518aa5d07e595d983b8c0526c8f7fb8787604051612e31929190613eb8565b60405180910390a4610ba4816000878787876124a5565b828054612e5490613a6d565b90600052602060002090601f016020900481019282612e765760008555612ebc565b82601f10612e8f57805160ff1916838001178555612ebc565b82800160010185558215612ebc579182015b82811115612ebc578251825591602001919060010190612ea1565b50612ec8929150612f40565b5090565b828054612ed890613a6d565b90600052602060002090601f016020900481019282612efa5760008555612ebc565b82601f10612f135782800160ff19823516178555612ebc565b82800160010185558215612ebc579182015b82811115612ebc578235825591602001919060010190612f25565b5b80821115612ec85760008155600101612f41565b803561ffff81168114612f6757600080fd5b919050565b60008083601f840112612f7e57600080fd5b5081356001600160401b03811115612f9557600080fd5b602083019150836020828501011115612fad57600080fd5b9250929050565b80356001600160401b0381168114612f6757600080fd5b60008060008060008060808789031215612fe457600080fd5b612fed87612f55565b955060208701356001600160401b038082111561300957600080fd5b6130158a838b01612f6c565b909750955085915061302960408a01612fb4565b9450606089013591508082111561303f57600080fd5b5061304c89828a01612f6c565b979a9699509497509295939492505050565b6001600160a01b038116811461190957600080fd5b8035612f678161305e565b6000806040838503121561309157600080fd5b823561309c8161305e565b946020939093013593505050565b6001600160e01b03198116811461190957600080fd5b6000602082840312156130d257600080fd5b813561127a816130aa565b6000602082840312156130ef57600080fd5b61127a82612f55565b6000806040838503121561310b57600080fd5b61309c83612f55565b60006020828403121561312657600080fd5b5035919050565b60005b83811015613148578181015183820152602001613130565b8381111561292d5750506000910152565b6000815180845261317181602086016020860161312d565b601f01601f19169290920160200192915050565b60208152600061127a6020830184613159565b634e487b7160e01b600052604160045260246000fd5b601f8201601f191681016001600160401b03811182821017156131d3576131d3613198565b6040525050565b60006001600160401b038211156131f3576131f3613198565b5060051b60200190565b600082601f83011261320e57600080fd5b8135602061321b826131da565b60405161322882826131ae565b83815260059390931b850182019282810191508684111561324857600080fd5b8286015b84811015613263578035835291830191830161324c565b509695505050505050565b60006001600160401b0382111561328757613287613198565b50601f01601f191660200190565b600082601f8301126132a657600080fd5b81356132b18161326e565b6040516132be82826131ae565b8281528560208487010111156132d357600080fd5b82602086016020830137600092810160200192909252509392505050565b600080600080600060a0868803121561330957600080fd5b85356133148161305e565b945060208601356133248161305e565b935060408601356001600160401b038082111561334057600080fd5b61334c89838a016131fd565b9450606088013591508082111561336257600080fd5b61336e89838a016131fd565b9350608088013591508082111561338457600080fd5b5061339188828901613295565b9150509295509295909350565b6000806000604084860312156133b357600080fd5b6133bc84612f55565b925060208401356001600160401b038111156133d757600080fd5b6133e386828701612f6c565b9497909650939450505050565b600080600080600080600080610100898b03121561340d57600080fd5b61341689613073565b975061342460208a01612f55565b965060408901356001600160401b038082111561344057600080fd5b61344c8c838d01613295565b975060608b013591508082111561346257600080fd5b61346e8c838d016131fd565b965060808b013591508082111561348457600080fd5b6134908c838d016131fd565b955061349e60a08c01613073565b94506134ac60c08c01613073565b935060e08b01359150808211156134c257600080fd5b506134cf8b828c01613295565b9150509295985092959890939650565b600080600080600080600080610100898b0312156134fc57600080fd5b88356135078161305e565b975061351560208a01612f55565b965060408901356001600160401b038082111561353157600080fd5b61353d8c838d01613295565b975060608b0135965060808b0135955060a08b0135915061355d8261305e565b90935060c08a01359061356f8261305e565b90925060e08a013590808211156134c257600080fd5b6000806040838503121561359857600080fd5b82356001600160401b03808211156135af57600080fd5b818501915085601f8301126135c357600080fd5b813560206135d0826131da565b6040516135dd82826131ae565b83815260059390931b85018201928281019150898411156135fd57600080fd5b948201945b838610156136245785356136158161305e565b82529482019490820190613602565b9650508601359250508082111561363a57600080fd5b50613647858286016131fd565b9150509250929050565b600081518084526020808501945080840160005b8381101561368157815187529582019590820190600101613665565b509495945050505050565b60208152600061127a6020830184613651565b6000806000606084860312156136b457600080fd5b6136bd84612f55565b925060208401356001600160401b038111156136d857600080fd5b6136e486828701613295565b9250506136f360408501612fb4565b90509250925092565b80358015158114612f6757600080fd5b60008060008060008060c0878903121561372557600080fd5b61372e87612f55565b955060208701356001600160401b038082111561374a57600080fd5b6137568a838b01613295565b9650604089013595506060890135945061377260808a016136fc565b935060a089013591508082111561378857600080fd5b5061379589828a01613295565b9150509295509295509295565b600080604083850312156137b557600080fd5b6137be83612f55565b91506137cc60208401612f55565b90509250929050565b600080604083850312156137e857600080fd5b82356137f38161305e565b91506137cc602084016136fc565b60008060008060008060c0878903121561381a57600080fd5b61382387612f55565b955060208701356001600160401b038082111561383f57600080fd5b61384b8a838b01613295565b9650604089013591508082111561386157600080fd5b61386d8a838b016131fd565b9550606089013591508082111561388357600080fd5b61388f8a838b016131fd565b945061377260808a016136fc565b6000602082840312156138af57600080fd5b813561127a8161305e565b6000806000806000608086880312156138d257600080fd5b6138db86612f55565b94506138e960208701612f55565b93506040860135925060608601356001600160401b0381111561390b57600080fd5b61391788828901612f6c565b969995985093965092949392505050565b60008060006060848603121561393d57600080fd5b61394684612f55565b925061395460208501612f55565b9150604084013590509250925092565b6000806040838503121561397757600080fd5b82356139828161305e565b915060208301356139928161305e565b809150509250929050565b6000602082840312156139af57600080fd5b61127a826136fc565b600080600080600060a086880312156139d057600080fd5b85356139db8161305e565b945060208601356139eb8161305e565b9350604086013592506060860135915060808601356001600160401b03811115613a1457600080fd5b61339188828901613295565b60008060008060808587031215613a3657600080fd5b613a3f85612f55565b9350613a4d60208601612f55565b92506040850135613a5d8161305e565b9396929550929360600135925050565b600181811c90821680613a8157607f821691505b60208210811415613aa257634e487b7160e01b600052602260045260246000fd5b50919050565b8183823760009101908152919050565b6020808252602e908201527f455243313135353a2063616c6c6572206973206e6f7420746f6b656e206f776e60408201526d195c881bdc88185c1c1c9bdd995960921b606082015260800190565b81835281816020850137506000828201602090810191909152601f909101601f19169091010190565b61ffff841681526040602082015260006119b4604083018486613b06565b634e487b7160e01b600052603260045260246000fd5b634e487b7160e01b600052601160045260246000fd5b6000600019821415613b8d57613b8d613b63565b5060010190565b600082821015613ba657613ba6613b63565b500390565b8284823760609190911b6bffffffffffffffffffffffff19169101908152601401919050565b606081526000613be46060830186613159565b8281036020840152613bf68186613651565b90508281036040840152613c0a8185613651565b9695505050505050565b61ffff861681526001600160a01b038516602082015260a060408201819052600090613c4290830186613159565b84151560608401528281036080840152613c5c8185613159565b98975050505050505050565b60008060408385031215613c7b57600080fd5b505080516020909101519092909150565b600061ffff808816835280871660208401525084604083015260806060830152613cba608083018486613b06565b979650505050505050565b61ffff86168152608060208201526000613ce3608083018688613b06565b6001600160401b0394909416604083015250606001529392505050565b600082601f830112613d1157600080fd5b8151613d1c8161326e565b604051613d2982826131ae565b828152856020848701011115613d3e57600080fd5b6119b483602083016020880161312d565b600060208284031215613d6157600080fd5b81516001600160401b03811115613d7757600080fd5b613d8384828501613d00565b949350505050565b61ffff85168152608060208201526000613da86080830186613159565b6001600160401b03851660408401528281036060840152613cba8185613159565b60208082526028908201527f455243313135353a2069647320616e6420616d6f756e7473206c656e677468206040820152670dad2e6dac2e8c6d60c31b606082015260800190565b60208082526025908201527f455243313135353a207472616e7366657220746f20746865207a65726f206164604082015264647265737360d81b606082015260800190565b6020808252602a908201527f455243313135353a20696e73756666696369656e742062616c616e636520666f60408201526939103a3930b739b332b960b11b606082015260800190565b60008219821115613eb357613eb3613b63565b500190565b604081526000613ecb6040830185613651565b82810360208401526119b48185613651565b60208082526024908201527f4c7a4170703a205f61646170746572506172616d73206d75737420626520656d604082015263383a3c9760e11b606082015260800190565b60008251613f3381846020870161312d565b9190910192915050565b600082601f830112613f4e57600080fd5b81516020613f5b826131da565b604051613f6882826131ae565b83815260059390931b8501820192828101915086841115613f8857600080fd5b8286015b848110156132635780518352918301918301613f8c565b600080600060608486031215613fb857600080fd5b83516001600160401b0380821115613fcf57600080fd5b613fdb87838801613d00565b94506020860151915080821115613ff157600080fd5b613ffd87838801613f3d565b9350604086015191508082111561401357600080fd5b5061402086828701613f3d565b9150509250925092565b61ffff8616815260a06020820152600061404760a0830187613159565b6001600160401b038616604084015282810360608401526140688186613159565b90508281036080840152613c5c8185613159565b6001600160a01b0386811682528516602082015260a0604082018190526000906140a890830186613651565b82810360608401526140688186613651565b6000602082840312156140cc57600080fd5b815161127a816130aa565b600060033d11156140f05760046000803e5060005160e01c5b90565b600060443d10156141015790565b6040516003193d81016004833e81513d6001600160401b03816024840111818411171561413057505050505090565b82850191508151818111156141485750505050505090565b843d87010160208285010111156141625750505050505090565b614171602082860101876131ae565b509095945050505050565b60208082526028908201527f455243313135353a204552433131353552656365697665722072656a656374656040820152676420746f6b656e7360c01b606082015260800190565b61ffff8716815260c0602082015260006141e160c0830188613159565b82810360408401526141f38188613159565b6001600160a01b0387811660608601528616608085015283810360a0850152905061421e8185613159565b9998505050505050505050565b6001600160a01b03868116825285166020820152604081018490526060810183905260a060808201819052600090613cba9083018461315956fea26469706673582212203bb339cdacff31f1f83bff2c1c7462cb341c54eaadf367159c98ab299483bb6a64736f6c634300080c0033",
  "linkReferences": {},
  "deployedLinkReferences": {}
}