{
  "_format": "hh-sol-artifact-1",
  "contractName": "LPStaking",
  "sourceName": "contracts/LPStaking.sol",
  "abi": [
    {
      "inputs": [
        {
          "internalType": "contract StargateToken",
          "name": "_stargate",
          "type": "address"
        },
        {
          "internalType": "uint256",
          "name": "_stargatePerBlock",
          "type": "uint256"
        },
        {
          "internalType": "uint256",
          "name": "_startBlock",
          "type": "uint256"
        },
        {
          "internalType": "uint256",
          "name": "_bonusEndBlock",
          "type": "uint256"
        }
      ],
      "stateMutability": "nonpayable",
      "type": "constructor"
    },
    {
      "anonymous": false,
      "inputs": [
        {
          "indexed": true,
          "internalType": "address",
          "name": "user",
          "type": "address"
        },
        {
          "indexed": true,
          "internalType": "uint256",
          "name": "pid",
          "type": "uint256"
        },
        {
          "indexed": false,
          "internalType": "uint256",
          "name": "amount",
          "type": "uint256"
        }
      ],
      "name": "Deposit",
      "type": "event"
    },
    {
      "anonymous": false,
      "inputs": [
        {
          "indexed": true,
          "internalType": "address",
          "name": "user",
          "type": "address"
        },
        {
          "indexed": true,
          "internalType": "uint256",
          "name": "pid",
          "type": "uint256"
        },
        {
          "indexed": false,
          "internalType": "uint256",
          "name": "amount",
          "type": "uint256"
        }
      ],
      "name": "EmergencyWithdraw",
      "type": "event"
    },
    {
      "anonymous": false,
      "inputs": [
        {
          "indexed": true,
          "internalType": "address",
          "name": "previousOwner",
          "type": "address"
        },
        {
          "indexed": true,
          "internalType": "address",
          "name": "newOwner",
          "type": "address"
        }
      ],
      "name": "OwnershipTransferred",
      "type": "event"
    },
    {
      "anonymous": false,
      "inputs": [
        {
          "indexed": true,
          "internalType": "address",
          "name": "user",
          "type": "address"
        },
        {
          "indexed": true,
          "internalType": "uint256",
          "name": "pid",
          "type": "uint256"
        },
        {
          "indexed": false,
          "internalType": "uint256",
          "name": "amount",
          "type": "uint256"
        }
      ],
      "name": "Withdraw",
      "type": "event"
    },
    {
      "inputs": [],
      "name": "BONUS_MULTIPLIER",
      "outputs": [
        {
          "internalType": "uint256",
          "name": "",
          "type": "uint256"
        }
      ],
      "stateMutability": "view",
      "type": "function"
    },
    {
      "inputs": [
        {
          "internalType": "uint256",
          "name": "_allocPoint",
          "type": "uint256"
        },
        {
          "internalType": "contract IERC20",
          "name": "_lpToken",
          "type": "address"
        }
      ],
      "name": "add",
      "outputs": [],
      "stateMutability": "nonpayable",
      "type": "function"
    },
    {
      "inputs": [],
      "name": "bonusEndBlock",
      "outputs": [
        {
          "internalType": "uint256",
          "name": "",
          "type": "uint256"
        }
      ],
      "stateMutability": "view",
      "type": "function"
    },
    {
      "inputs": [
        {
          "internalType": "uint256",
          "name": "_pid",
          "type": "uint256"
        },
        {
          "internalType": "uint256",
          "name": "_amount",
          "type": "uint256"
        }
      ],
      "name": "deposit",
      "outputs": [],
      "stateMutability": "nonpayable",
      "type": "function"
    },
    {
      "inputs": [
        {
          "internalType": "uint256",
          "name": "_pid",
          "type": "uint256"
        }
      ],
      "name": "emergencyWithdraw",
      "outputs": [],
      "stateMutability": "nonpayable",
      "type": "function"
    },
    {
      "inputs": [
        {
          "internalType": "uint256",
          "name": "_from",
          "type": "uint256"
        },
        {
          "internalType": "uint256",
          "name": "_to",
          "type": "uint256"
        }
      ],
      "name": "getMultiplier",
      "outputs": [
        {
          "internalType": "uint256",
          "name": "",
          "type": "uint256"
        }
      ],
      "stateMutability": "view",
      "type": "function"
    },
    {
      "inputs": [
        {
          "internalType": "uint256",
          "name": "",
          "type": "uint256"
        }
      ],
      "name": "lpBalances",
      "outputs": [
        {
          "internalType": "uint256",
          "name": "",
          "type": "uint256"
        }
      ],
      "stateMutability": "view",
      "type": "function"
    },
    {
      "inputs": [],
      "name": "massUpdatePools",
      "outputs": [],
      "stateMutability": "nonpayable",
      "type": "function"
    },
    {
      "inputs": [],
      "name": "owner",
      "outputs": [
        {
          "internalType": "address",
          "name": "",
          "type": "address"
        }
      ],
      "stateMutability": "view",
      "type": "function"
    },
    {
      "inputs": [
        {
          "internalType": "uint256",
          "name": "_pid",
          "type": "uint256"
        },
        {
          "internalType": "address",
          "name": "_user",
          "type": "address"
        }
      ],
      "name": "pendingStargate",
      "outputs": [
        {
          "internalType": "uint256",
          "name": "",
          "type": "uint256"
        }
      ],
      "stateMutability": "view",
      "type": "function"
    },
    {
      "inputs": [
        {
          "internalType": "uint256",
          "name": "",
          "type": "uint256"
        }
      ],
      "name": "poolInfo",
      "outputs": [
        {
          "internalType": "contract IERC20",
          "name": "lpToken",
          "type": "address"
        },
        {
          "internalType": "uint256",
          "name": "allocPoint",
          "type": "uint256"
        },
        {
          "internalType": "uint256",
          "name": "lastRewardBlock",
          "type": "uint256"
        },
        {
          "internalType": "uint256",
          "name": "accStargatePerShare",
          "type": "uint256"
        }
      ],
      "stateMutability": "view",
      "type": "function"
    },
    {
      "inputs": [],
      "name": "poolLength",
      "outputs": [
        {
          "internalType": "uint256",
          "name": "",
          "type": "uint256"
        }
      ],
      "stateMutability": "view",
      "type": "function"
    },
    {
      "inputs": [],
      "name": "renounceOwnership",
      "outputs": [],
      "stateMutability": "nonpayable",
      "type": "function"
    },
    {
      "inputs": [
        {
          "internalType": "uint256",
          "name": "_pid",
          "type": "uint256"
        },
        {
          "internalType": "uint256",
          "name": "_allocPoint",
          "type": "uint256"
        }
      ],
      "name": "set",
      "outputs": [],
      "stateMutability": "nonpayable",
      "type": "function"
    },
    {
      "inputs": [
        {
          "internalType": "uint256",
          "name": "_stargatePerBlock",
          "type": "uint256"
        }
      ],
      "name": "setStargatePerBlock",
      "outputs": [],
      "stateMutability": "nonpayable",
      "type": "function"
    },
    {
      "inputs": [],
      "name": "stargate",
      "outputs": [
        {
          "internalType": "contract StargateToken",
          "name": "",
          "type": "address"
        }
      ],
      "stateMutability": "view",
      "type": "function"
    },
    {
      "inputs": [],
      "name": "stargatePerBlock",
      "outputs": [
        {
          "internalType": "uint256",
          "name": "",
          "type": "uint256"
        }
      ],
      "stateMutability": "view",
      "type": "function"
    },
    {
      "inputs": [],
      "name": "startBlock",
      "outputs": [
        {
          "internalType": "uint256",
          "name": "",
          "type": "uint256"
        }
      ],
      "stateMutability": "view",
      "type": "function"
    },
    {
      "inputs": [],
      "name": "totalAllocPoint",
      "outputs": [
        {
          "internalType": "uint256",
          "name": "",
          "type": "uint256"
        }
      ],
      "stateMutability": "view",
      "type": "function"
    },
    {
      "inputs": [
        {
          "internalType": "address",
          "name": "newOwner",
          "type": "address"
        }
      ],
      "name": "transferOwnership",
      "outputs": [],
      "stateMutability": "nonpayable",
      "type": "function"
    },
    {
      "inputs": [
        {
          "internalType": "uint256",
          "name": "_pid",
          "type": "uint256"
        }
      ],
      "name": "updatePool",
      "outputs": [],
      "stateMutability": "nonpayable",
      "type": "function"
    },
    {
      "inputs": [
        {
          "internalType": "uint256",
          "name": "",
          "type": "uint256"
        },
        {
          "internalType": "address",
          "name": "",
          "type": "address"
        }
      ],
      "name": "userInfo",
      "outputs": [
        {
          "internalType": "uint256",
          "name": "amount",
          "type": "uint256"
        },
        {
          "internalType": "uint256",
          "name": "rewardDebt",
          "type": "uint256"
        }
      ],
      "stateMutability": "view",
      "type": "function"
    },
    {
      "inputs": [
        {
          "internalType": "uint256",
          "name": "_pid",
          "type": "uint256"
        },
        {
          "internalType": "uint256",
          "name": "_amount",
          "type": "uint256"
        }
      ],
      "name": "withdraw",
      "outputs": [],
      "stateMutability": "nonpayable",
      "type": "function"
    }
  ],
  "bytecode": "0x608060405260006008553480156200001657600080fd5b5060405162001ee438038062001ee4833981810160405260808110156200003c57600080fd5b508051602082015160408301516060909301519192909160006200005f620001a5565b600080546001600160a01b0319166001600160a01b0383169081178255604051929350917f8be0079c531659141344cd1fd0a4f28419497f9722a3daafe3b4186f6b6457e0908290a35043821015620000ea5760405162461bcd60e51b815260040180806020018281038252602f81526020018062001eb5602f913960400191505060405180910390fd5b818110156200012b5760405162461bcd60e51b815260040180806020018281038252603481526020018062001e816034913960400191505060405180910390fd5b6001600160a01b038416620001725760405162461bcd60e51b815260040180806020018281038252602181526020018062001e606021913960400191505060405180910390fd5b600180546001600160a01b0319166001600160a01b039590951694909417909355600391909155600955600255620001a9565b3390565b611ca780620001b96000396000f3fe608060405234801561001057600080fd5b506004361061018d5760003560e01c806351eb05a6116100e35780638da5cb5b1161008c57806398c03a721161006657806398c03a7214610412578063e2bbb1581461041a578063f2fde38b1461043d5761018d565b80638da5cb5b146103955780638dbb1e3a1461039d57806393f1a40b146103c05761018d565b80636c099dee116100bd5780636c099dee14610354578063715018a6146103855780638aa285501461038d5761018d565b806351eb05a6146103125780635312ea8e1461032f578063630b5ba11461034c5761018d565b80631aed655311610145578063349707061161011f57806334970706146102ca578063441a3e70146102e757806348cd4cb11461030a5761018d565b80631aed6553146102505780632b8bbbe8146102585780632f607fdd146102915761018d565b80631526fe27116101765780631526fe27146101c957806317caf6f1146102235780631ab06ee51461022b5761018d565b80630328e32f14610192578063081e3eda146101c1575b600080fd5b6101af600480360360208110156101a857600080fd5b5035610470565b60408051918252519081900360200190f35b6101af610482565b6101e6600480360360208110156101df57600080fd5b5035610488565b6040805173ffffffffffffffffffffffffffffffffffffffff90951685526020850193909352838301919091526060830152519081900360800190f35b6101af6104d9565b61024e6004803603604081101561024157600080fd5b50803590602001356104df565b005b6101af6105f9565b61024e6004803603604081101561026e57600080fd5b508035906020013573ffffffffffffffffffffffffffffffffffffffff166105ff565b6101af600480360360408110156102a757600080fd5b508035906020013573ffffffffffffffffffffffffffffffffffffffff16610935565b61024e600480360360208110156102e057600080fd5b5035610adf565b61024e600480360360408110156102fd57600080fd5b5080359060200135610b94565b6101af610d3b565b61024e6004803603602081101561032857600080fd5b5035610d41565b61024e6004803603602081101561034557600080fd5b5035610e9e565b61024e610f75565b61035c610f98565b6040805173ffffffffffffffffffffffffffffffffffffffff9092168252519081900360200190f35b61024e610fb4565b6101af61105e565b61035c611063565b6101af600480360360408110156103b357600080fd5b508035906020013561107f565b6103f9600480360360408110156103d657600080fd5b508035906020013573ffffffffffffffffffffffffffffffffffffffff166110e5565b6040805192835260208301919091528051918290030190f35b6101af611109565b61024e6004803603604081101561043057600080fd5b508035906020013561110f565b61024e6004803603602081101561045357600080fd5b503573ffffffffffffffffffffffffffffffffffffffff1661124f565b60056020526000908152604090205481565b60065490565b6006818154811061049857600080fd5b6000918252602090912060049091020180546001820154600283015460039093015473ffffffffffffffffffffffffffffffffffffffff9092169350919084565b60085481565b6104e76113f0565b73ffffffffffffffffffffffffffffffffffffffff16610505611063565b73ffffffffffffffffffffffffffffffffffffffff161461058757604080517f08c379a000000000000000000000000000000000000000000000000000000000815260206004820181905260248201527f4f776e61626c653a2063616c6c6572206973206e6f7420746865206f776e6572604482015290519081900360640190fd5b61058f610f75565b6105cc816105c6600685815481106105a357fe5b9060005260206000209060040201600101546008546113f490919063ffffffff16565b9061146b565b60088190555080600683815481106105e057fe5b9060005260206000209060040201600101819055505050565b60025481565b6106076113f0565b73ffffffffffffffffffffffffffffffffffffffff16610625611063565b73ffffffffffffffffffffffffffffffffffffffff16146106a757604080517f08c379a000000000000000000000000000000000000000000000000000000000815260206004820181905260248201527f4f776e61626c653a2063616c6c6572206973206e6f7420746865206f776e6572604482015290519081900360640190fd5b6106af610f75565b73ffffffffffffffffffffffffffffffffffffffff811661073157604080517f08c379a000000000000000000000000000000000000000000000000000000000815260206004820152601d60248201527f53746172476174653a206c70546f6b656e2063616e7420626520307830000000604482015290519081900360640190fd5b73ffffffffffffffffffffffffffffffffffffffff811660009081526004602052604090205460ff16156107b0576040517f08c379a0000000000000000000000000000000000000000000000000000000008152600401808060200182810382526021815260200180611bba6021913960400191505060405180910390fd5b73ffffffffffffffffffffffffffffffffffffffff8116600090815260046020526040812080547fffffffffffffffffffffffffffffffffffffffffffffffffffffffffffffff00166001179055600954431161080f57600954610811565b435b600854909150610821908461146b565b6008556040805160808101825273ffffffffffffffffffffffffffffffffffffffff93841681526020810194855290810191825260006060820181815260068054600181018255925291517ff652222313e28459528d920b65115c16c04f3efc82aaedc97be59f3f377c0d3f600490920291820180547fffffffffffffffffffffffff000000000000000000000000000000000000000016919095161790935592517ff652222313e28459528d920b65115c16c04f3efc82aaedc97be59f3f377c0d40830155517ff652222313e28459528d920b65115c16c04f3efc82aaedc97be59f3f377c0d4182015590517ff652222313e28459528d920b65115c16c04f3efc82aaedc97be59f3f377c0d4290910155565b6000806006848154811061094557fe5b6000918252602080832087845260078252604080852073ffffffffffffffffffffffffffffffffffffffff898116875290845281862060049586029093016003810154815484517f70a082310000000000000000000000000000000000000000000000000000000081523098810198909852935191985093969395939492909116926370a08231926024808301939192829003018186803b1580156109e957600080fd5b505afa1580156109fd573d6000803e3d6000fd5b505050506040513d6020811015610a1357600080fd5b5051600285015490915043118015610a2a57508015155b8015610a3857506000600854115b15610aa4576000610a4d85600201544361107f565b90506000610a80600854610a7a8860010154610a74600354876114e690919063ffffffff16565b906114e6565b90611559565b9050610a9f610a9884610a7a8464e8d4a510006114e6565b859061146b565b935050505b610ad28360010154610acc64e8d4a51000610a7a8688600001546114e690919063ffffffff16565b906113f4565b9450505050505b92915050565b610ae76113f0565b73ffffffffffffffffffffffffffffffffffffffff16610b05611063565b73ffffffffffffffffffffffffffffffffffffffff1614610b8757604080517f08c379a000000000000000000000000000000000000000000000000000000000815260206004820181905260248201527f4f776e61626c653a2063616c6c6572206973206e6f7420746865206f776e6572604482015290519081900360640190fd5b610b8f610f75565b600355565b600060068381548110610ba357fe5b600091825260208083208684526007825260408085203386529092529220805460049092029092019250831115610c3b57604080517f08c379a000000000000000000000000000000000000000000000000000000000815260206004820152601e60248201527f77697468647261773a205f616d6f756e7420697320746f6f206c617267650000604482015290519081900360640190fd5b610c4484610d41565b6000610c728260010154610acc64e8d4a51000610a7a876003015487600001546114e690919063ffffffff16565b9050610c7e33826115da565b8154610c8a90856113f4565b8083556003840154610ca79164e8d4a5100091610a7a91906114e6565b60018301558254610ccf9073ffffffffffffffffffffffffffffffffffffffff1633866116fb565b600085815260056020526040902054610ce890856113f4565b6000868152600560209081526040918290209290925580518681529051879233927ff279e6a1f5e320cca91135676d9cb6e44ca8a08c0b88342bcdb1144f6511b568929081900390910190a35050505050565b60095481565b600060068281548110610d5057fe5b9060005260206000209060040201905080600201544311610d715750610e9b565b8054604080517f70a08231000000000000000000000000000000000000000000000000000000008152306004820152905160009273ffffffffffffffffffffffffffffffffffffffff16916370a08231916024808301926020929190829003018186803b158015610de157600080fd5b505afa158015610df5573d6000803e3d6000fd5b505050506040513d6020811015610e0b57600080fd5b50519050801580610e1c5750600854155b15610e2e575043600290910155610e9b565b6000610e3e83600201544361107f565b90506000610e65600854610a7a8660010154610a74600354876114e690919063ffffffff16565b9050610e88610e7d84610a7a8464e8d4a510006114e6565b60038601549061146b565b6003850155505043600290920191909155505b50565b600060068281548110610ead57fe5b600091825260208083208584526007825260408085203380875293528420805485825560018201959095556004909302018054909450919291610f0a9173ffffffffffffffffffffffffffffffffffffffff9190911690836116fb565b600084815260056020526040902054610f2390826113f4565b6000858152600560209081526040918290209290925580518381529051869233927fbb757047c2b5f3974fe26b7c10f732e7bce710b0952a71082702781e62ae0595929081900390910190a350505050565b60065460005b81811015610f9457610f8c81610d41565b600101610f7b565b5050565b60015473ffffffffffffffffffffffffffffffffffffffff1681565b610fbc6113f0565b73ffffffffffffffffffffffffffffffffffffffff16610fda611063565b73ffffffffffffffffffffffffffffffffffffffff161461105c57604080517f08c379a000000000000000000000000000000000000000000000000000000000815260206004820181905260248201527f4f776e61626c653a2063616c6c6572206973206e6f7420746865206f776e6572604482015290519081900360640190fd5b565b600181565b60005473ffffffffffffffffffffffffffffffffffffffff1690565b600060025482116110a0576110996001610a7484866113f4565b9050610ad9565b60025483106110b35761109982846113f4565b6110996110cb600254846113f490919063ffffffff16565b6105c66001610a74876002546113f490919063ffffffff16565b60076020908152600092835260408084209091529082529020805460019091015482565b60035481565b60006006838154811061111e57fe5b6000918252602080832086845260078252604080852033865290925292206004909102909101915061114f84610d41565b8054156111925760006111848260010154610acc64e8d4a51000610a7a876003015487600001546114e690919063ffffffff16565b905061119033826115da565b505b81546111b69073ffffffffffffffffffffffffffffffffffffffff16333086611788565b80546111c2908461146b565b80825560038301546111df9164e8d4a5100091610a7a91906114e6565b60018201556000848152600560205260409020546111fd908461146b565b6000858152600560209081526040918290209290925580518581529051869233927f90890809c654f11d6e72a28fa60149770a0d11ec6c92319d6ceb2bb0a4ea1a15929081900390910190a350505050565b6112576113f0565b73ffffffffffffffffffffffffffffffffffffffff16611275611063565b73ffffffffffffffffffffffffffffffffffffffff16146112f757604080517f08c379a000000000000000000000000000000000000000000000000000000000815260206004820181905260248201527f4f776e61626c653a2063616c6c6572206973206e6f7420746865206f776e6572604482015290519081900360640190fd5b73ffffffffffffffffffffffffffffffffffffffff8116611363576040517f08c379a0000000000000000000000000000000000000000000000000000000008152600401808060200182810382526026815260200180611bdb6026913960400191505060405180910390fd5b6000805460405173ffffffffffffffffffffffffffffffffffffffff808516939216917f8be0079c531659141344cd1fd0a4f28419497f9722a3daafe3b4186f6b6457e091a3600080547fffffffffffffffffffffffff00000000000000000000000000000000000000001673ffffffffffffffffffffffffffffffffffffffff92909216919091179055565b3390565b60008282111561146557604080517f08c379a000000000000000000000000000000000000000000000000000000000815260206004820152601e60248201527f536166654d6174683a207375627472616374696f6e206f766572666c6f770000604482015290519081900360640190fd5b50900390565b6000828201838110156114df57604080517f08c379a000000000000000000000000000000000000000000000000000000000815260206004820152601b60248201527f536166654d6174683a206164646974696f6e206f766572666c6f770000000000604482015290519081900360640190fd5b9392505050565b6000826114f557506000610ad9565b8282028284828161150257fe5b04146114df576040517f08c379a0000000000000000000000000000000000000000000000000000000008152600401808060200182810382526021815260200180611c276021913960400191505060405180910390fd5b60008082116115c957604080517f08c379a000000000000000000000000000000000000000000000000000000000815260206004820152601a60248201527f536166654d6174683a206469766973696f6e206279207a65726f000000000000604482015290519081900360640190fd5b8183816115d257fe5b049392505050565b600154604080517f70a08231000000000000000000000000000000000000000000000000000000008152306004820152905160009273ffffffffffffffffffffffffffffffffffffffff16916370a08231916024808301926020929190829003018186803b15801561164b57600080fd5b505afa15801561165f573d6000803e3d6000fd5b505050506040513d602081101561167557600080fd5b50519050818110156116d2576040517f08c379a0000000000000000000000000000000000000000000000000000000008152600401808060200182810382526029815260200180611b916029913960400191505060405180910390fd5b6001546116f69073ffffffffffffffffffffffffffffffffffffffff1684846116fb565b505050565b6040805173ffffffffffffffffffffffffffffffffffffffff8416602482015260448082018490528251808303909101815260649091019091526020810180517bffffffffffffffffffffffffffffffffffffffffffffffffffffffff167fa9059cbb000000000000000000000000000000000000000000000000000000001790526116f6908490611823565b6040805173ffffffffffffffffffffffffffffffffffffffff80861660248301528416604482015260648082018490528251808303909101815260849091019091526020810180517bffffffffffffffffffffffffffffffffffffffffffffffffffffffff167f23b872dd0000000000000000000000000000000000000000000000000000000017905261181d908590611823565b50505050565b6000611885826040518060400160405280602081526020017f5361666545524332303a206c6f772d6c6576656c2063616c6c206661696c65648152508573ffffffffffffffffffffffffffffffffffffffff166118fb9092919063ffffffff16565b8051909150156116f6578080602001905160208110156118a457600080fd5b50516116f6576040517f08c379a000000000000000000000000000000000000000000000000000000000815260040180806020018281038252602a815260200180611c48602a913960400191505060405180910390fd5b606061190a8484600085611912565b949350505050565b60608247101561196d576040517f08c379a0000000000000000000000000000000000000000000000000000000008152600401808060200182810382526026815260200180611c016026913960400191505060405180910390fd5b61197685611acc565b6119e157604080517f08c379a000000000000000000000000000000000000000000000000000000000815260206004820152601d60248201527f416464726573733a2063616c6c20746f206e6f6e2d636f6e7472616374000000604482015290519081900360640190fd5b6000808673ffffffffffffffffffffffffffffffffffffffff1685876040518082805190602001908083835b60208310611a4a57805182527fffffffffffffffffffffffffffffffffffffffffffffffffffffffffffffffe09092019160209182019101611a0d565b6001836020036101000a03801982511681845116808217855250505050505090500191505060006040518083038185875af1925050503d8060008114611aac576040519150601f19603f3d011682016040523d82523d6000602084013e611ab1565b606091505b5091509150611ac1828286611ad2565b979650505050505050565b3b151590565b60608315611ae15750816114df565b825115611af15782518084602001fd5b816040517f08c379a00000000000000000000000000000000000000000000000000000000081526004018080602001828103825283818151815260200191508051906020019080838360005b83811015611b55578181015183820152602001611b3d565b50505050905090810190601f168015611b825780820380516001836020036101000a031916815260200191505b509250505060405180910390fdfe4c505374616b696e673a20737461726761746542616c206d757374206265203e3d205f616d6f756e7453746172476174653a205f6c70546f6b656e20616c7265616479206578697374734f776e61626c653a206e6577206f776e657220697320746865207a65726f2061646472657373416464726573733a20696e73756666696369656e742062616c616e636520666f722063616c6c536166654d6174683a206d756c7469706c69636174696f6e206f766572666c6f775361666545524332303a204552433230206f7065726174696f6e20646964206e6f742073756363656564a26469706673582212201c99c306253ce9482ad2fbecdd28466572794827062c181294ca35e33b00c2b664736f6c6343000706003353746172676174653a205f73746172676174652063616e6e6f74206265203078304c505374616b696e673a205f626f6e7573456e64426c6f636b206d757374206265203e207468616e205f7374617274426c6f636b4c505374616b696e673a205f7374617274426c6f636b206d757374206265203e3d2063757272656e7420626c6f636b",
  "linkReferences": {},
  "deployedLinkReferences": {}
}