{
  "_format": "hh-sol-artifact-1",
  "contractName": "DistributeONFT721Mock",
  "sourceName": "contracts/mocks/DistributeONFT721Mock.sol",
  "abi": [
    {
      "inputs": [
        {
          "internalType": "address",
          "name": "_layerZeroEndpoint",
          "type": "address"
        },
        {
          "internalType": "uint256[]",
          "name": "_indexArray",
          "type": "uint256[]"
        },
        {
          "internalType": "uint256[]",
          "name": "_valueArray",
          "type": "uint256[]"
        }
      ],
      "stateMutability": "nonpayable",
      "type": "constructor"
    },
    {
      "anonymous": false,
      "inputs": [
        {
          "indexed": true,
          "internalType": "address",
          "name": "owner",
          "type": "address"
        },
        {
          "indexed": true,
          "internalType": "address",
          "name": "approved",
          "type": "address"
        },
        {
          "indexed": true,
          "internalType": "uint256",
          "name": "tokenId",
          "type": "uint256"
        }
      ],
      "name": "Approval",
      "type": "event"
    },
    {
      "anonymous": false,
      "inputs": [
        {
          "indexed": true,
          "internalType": "address",
          "name": "owner",
          "type": "address"
        },
        {
          "indexed": true,
          "internalType": "address",
          "name": "operator",
          "type": "address"
        },
        {
          "indexed": false,
          "internalType": "bool",
          "name": "approved",
          "type": "bool"
        }
      ],
      "name": "ApprovalForAll",
      "type": "event"
    },
    {
      "anonymous": false,
      "inputs": [
        {
          "indexed": false,
          "internalType": "bytes32",
          "name": "_hashedPayload",
          "type": "bytes32"
        }
      ],
      "name": "CreditCleared",
      "type": "event"
    },
    {
      "anonymous": false,
      "inputs": [
        {
          "indexed": false,
          "internalType": "bytes32",
          "name": "_hashedPayload",
          "type": "bytes32"
        },
        {
          "indexed": false,
          "internalType": "bytes",
          "name": "_payload",
          "type": "bytes"
        }
      ],
      "name": "CreditStored",
      "type": "event"
    },
    {
      "anonymous": false,
      "inputs": [
        {
          "indexed": true,
          "internalType": "uint16",
          "name": "_srcChainId",
          "type": "uint16"
        },
        {
          "components": [
            {
              "internalType": "uint256",
              "name": "index",
              "type": "uint256"
            },
            {
              "internalType": "uint256",
              "name": "value",
              "type": "uint256"
            }
          ],
          "indexed": false,
          "internalType": "struct DistributeONFT721.TokenDistribute[]",
          "name": "tokenDistribute",
          "type": "tuple[]"
        }
      ],
      "name": "Distribute",
      "type": "event"
    },
    {
      "anonymous": false,
      "inputs": [
        {
          "indexed": false,
          "internalType": "uint16",
          "name": "_srcChainId",
          "type": "uint16"
        },
        {
          "indexed": false,
          "internalType": "bytes",
          "name": "_srcAddress",
          "type": "bytes"
        },
        {
          "indexed": false,
          "internalType": "uint64",
          "name": "_nonce",
          "type": "uint64"
        },
        {
          "indexed": false,
          "internalType": "bytes",
          "name": "_payload",
          "type": "bytes"
        },
        {
          "indexed": false,
          "internalType": "bytes",
          "name": "_reason",
          "type": "bytes"
        }
      ],
      "name": "MessageFailed",
      "type": "event"
    },
    {
      "anonymous": false,
      "inputs": [
        {
          "indexed": true,
          "internalType": "address",
          "name": "previousOwner",
          "type": "address"
        },
        {
          "indexed": true,
          "internalType": "address",
          "name": "newOwner",
          "type": "address"
        }
      ],
      "name": "OwnershipTransferred",
      "type": "event"
    },
    {
      "anonymous": false,
      "inputs": [
        {
          "indexed": true,
          "internalType": "uint16",
          "name": "_srcChainId",
          "type": "uint16"
        },
        {
          "indexed": true,
          "internalType": "bytes",
          "name": "_srcAddress",
          "type": "bytes"
        },
        {
          "components": [
            {
              "internalType": "uint256",
              "name": "index",
              "type": "uint256"
            },
            {
              "internalType": "uint256",
              "name": "value",
              "type": "uint256"
            }
          ],
          "indexed": false,
          "internalType": "struct DistributeONFT721.TokenDistribute[]",
          "name": "tokenDistribute",
          "type": "tuple[]"
        }
      ],
      "name": "ReceiveDistribute",
      "type": "event"
    },
    {
      "anonymous": false,
      "inputs": [
        {
          "indexed": true,
          "internalType": "uint16",
          "name": "_srcChainId",
          "type": "uint16"
        },
        {
          "indexed": true,
          "internalType": "bytes",
          "name": "_srcAddress",
          "type": "bytes"
        },
        {
          "indexed": true,
          "internalType": "address",
          "name": "_toAddress",
          "type": "address"
        },
        {
          "indexed": false,
          "internalType": "uint256[]",
          "name": "_tokenIds",
          "type": "uint256[]"
        }
      ],
      "name": "ReceiveFromChain",
      "type": "event"
    },
    {
      "anonymous": false,
      "inputs": [
        {
          "indexed": false,
          "internalType": "uint16",
          "name": "_srcChainId",
          "type": "uint16"
        },
        {
          "indexed": false,
          "internalType": "bytes",
          "name": "_srcAddress",
          "type": "bytes"
        },
        {
          "indexed": false,
          "internalType": "uint64",
          "name": "_nonce",
          "type": "uint64"
        },
        {
          "indexed": false,
          "internalType": "bytes32",
          "name": "_payloadHash",
          "type": "bytes32"
        }
      ],
      "name": "RetryMessageSuccess",
      "type": "event"
    },
    {
      "anonymous": false,
      "inputs": [
        {
          "indexed": true,
          "internalType": "uint16",
          "name": "_dstChainId",
          "type": "uint16"
        },
        {
          "indexed": true,
          "internalType": "address",
          "name": "_from",
          "type": "address"
        },
        {
          "indexed": true,
          "internalType": "bytes",
          "name": "_toAddress",
          "type": "bytes"
        },
        {
          "indexed": false,
          "internalType": "uint256[]",
          "name": "_tokenIds",
          "type": "uint256[]"
        }
      ],
      "name": "SendToChain",
      "type": "event"
    },
    {
      "anonymous": false,
      "inputs": [
        {
          "indexed": false,
          "internalType": "uint256",
          "name": "_distributeBaseDstGas",
          "type": "uint256"
        }
      ],
      "name": "SetDistributeBaseDstGas",
      "type": "event"
    },
    {
      "anonymous": false,
      "inputs": [
        {
          "indexed": false,
          "internalType": "uint256",
          "name": "_distributeGasPerIdx",
          "type": "uint256"
        }
      ],
      "name": "SetDistributeGasPerIdx",
      "type": "event"
    },
    {
      "anonymous": false,
      "inputs": [
        {
          "indexed": false,
          "internalType": "uint16",
          "name": "_dstChainId",
          "type": "uint16"
        },
        {
          "indexed": false,
          "internalType": "uint256",
          "name": "_dstChainIdToBatchLimit",
          "type": "uint256"
        }
      ],
      "name": "SetDstChainIdToBatchLimit",
      "type": "event"
    },
    {
      "anonymous": false,
      "inputs": [
        {
          "indexed": false,
          "internalType": "uint16",
          "name": "_dstChainId",
          "type": "uint16"
        },
        {
          "indexed": false,
          "internalType": "uint256",
          "name": "_dstChainIdToTransferGas",
          "type": "uint256"
        }
      ],
      "name": "SetDstChainIdToTransferGas",
      "type": "event"
    },
    {
      "anonymous": false,
      "inputs": [
        {
          "indexed": false,
          "internalType": "uint16",
          "name": "_dstChainId",
          "type": "uint16"
        },
        {
          "indexed": false,
          "internalType": "uint16",
          "name": "_type",
          "type": "uint16"
        },
        {
          "indexed": false,
          "internalType": "uint256",
          "name": "_minDstGas",
          "type": "uint256"
        }
      ],
      "name": "SetMinDstGas",
      "type": "event"
    },
    {
      "anonymous": false,
      "inputs": [
        {
          "indexed": false,
          "internalType": "uint256",
          "name": "_minGasToTransferAndStore",
          "type": "uint256"
        }
      ],
      "name": "SetMinGasToTransferAndStore",
      "type": "event"
    },
    {
      "anonymous": false,
      "inputs": [
        {
          "indexed": false,
          "internalType": "address",
          "name": "precrime",
          "type": "address"
        }
      ],
      "name": "SetPrecrime",
      "type": "event"
    },
    {
      "anonymous": false,
      "inputs": [
        {
          "indexed": false,
          "internalType": "uint16",
          "name": "_remoteChainId",
          "type": "uint16"
        },
        {
          "indexed": false,
          "internalType": "bytes",
          "name": "_path",
          "type": "bytes"
        }
      ],
      "name": "SetTrustedRemote",
      "type": "event"
    },
    {
      "anonymous": false,
      "inputs": [
        {
          "indexed": false,
          "internalType": "uint16",
          "name": "_remoteChainId",
          "type": "uint16"
        },
        {
          "indexed": false,
          "internalType": "bytes",
          "name": "_remoteAddress",
          "type": "bytes"
        }
      ],
      "name": "SetTrustedRemoteAddress",
      "type": "event"
    },
    {
      "anonymous": false,
      "inputs": [
        {
          "indexed": true,
          "internalType": "address",
          "name": "from",
          "type": "address"
        },
        {
          "indexed": true,
          "internalType": "address",
          "name": "to",
          "type": "address"
        },
        {
          "indexed": true,
          "internalType": "uint256",
          "name": "tokenId",
          "type": "uint256"
        }
      ],
      "name": "Transfer",
      "type": "event"
    },
    {
      "inputs": [],
      "name": "DEFAULT_PAYLOAD_SIZE_LIMIT",
      "outputs": [
        {
          "internalType": "uint256",
          "name": "",
          "type": "uint256"
        }
      ],
      "stateMutability": "view",
      "type": "function"
    },
    {
      "inputs": [],
      "name": "FUNCTION_TYPE_DISTRIBUTE",
      "outputs": [
        {
          "internalType": "uint16",
          "name": "",
          "type": "uint16"
        }
      ],
      "stateMutability": "view",
      "type": "function"
    },
    {
      "inputs": [],
      "name": "FUNCTION_TYPE_SEND",
      "outputs": [
        {
          "internalType": "uint16",
          "name": "",
          "type": "uint16"
        }
      ],
      "stateMutability": "view",
      "type": "function"
    },
    {
      "inputs": [],
      "name": "MAX_TOKENS_PER_INDEX",
      "outputs": [
        {
          "internalType": "uint16",
          "name": "",
          "type": "uint16"
        }
      ],
      "stateMutability": "view",
      "type": "function"
    },
    {
      "inputs": [],
      "name": "NUM_TOKENS_PER_INDEX",
      "outputs": [
        {
          "internalType": "uint16",
          "name": "",
          "type": "uint16"
        }
      ],
      "stateMutability": "view",
      "type": "function"
    },
    {
      "inputs": [
        {
          "internalType": "address",
          "name": "to",
          "type": "address"
        },
        {
          "internalType": "uint256",
          "name": "tokenId",
          "type": "uint256"
        }
      ],
      "name": "approve",
      "outputs": [],
      "stateMutability": "nonpayable",
      "type": "function"
    },
    {
      "inputs": [
        {
          "internalType": "address",
          "name": "owner",
          "type": "address"
        }
      ],
      "name": "balanceOf",
      "outputs": [
        {
          "internalType": "uint256",
          "name": "",
          "type": "uint256"
        }
      ],
      "stateMutability": "view",
      "type": "function"
    },
    {
      "inputs": [
        {
          "internalType": "bytes",
          "name": "_payload",
          "type": "bytes"
        }
      ],
      "name": "clearCredits",
      "outputs": [],
      "stateMutability": "nonpayable",
      "type": "function"
    },
    {
      "inputs": [],
      "name": "countAllSetBits",
      "outputs": [
        {
          "internalType": "uint256",
          "name": "count",
          "type": "uint256"
        }
      ],
      "stateMutability": "view",
      "type": "function"
    },
    {
      "inputs": [],
      "name": "distributeBaseDstGas",
      "outputs": [
        {
          "internalType": "uint256",
          "name": "",
          "type": "uint256"
        }
      ],
      "stateMutability": "view",
      "type": "function"
    },
    {
      "inputs": [],
      "name": "distributeGasPerIdx",
      "outputs": [
        {
          "internalType": "uint256",
          "name": "",
          "type": "uint256"
        }
      ],
      "stateMutability": "view",
      "type": "function"
    },
    {
      "inputs": [
        {
          "internalType": "uint16",
          "name": "_dstChainId",
          "type": "uint16"
        },
        {
          "components": [
            {
              "internalType": "uint256",
              "name": "index",
              "type": "uint256"
            },
            {
              "internalType": "uint256",
              "name": "value",
              "type": "uint256"
            }
          ],
          "internalType": "struct DistributeONFT721.TokenDistribute[]",
          "name": "_tokenDistribute",
          "type": "tuple[]"
        },
        {
          "internalType": "address payable",
          "name": "_refundAddress",
          "type": "address"
        },
        {
          "internalType": "address",
          "name": "_zroPaymentAddress",
          "type": "address"
        }
      ],
      "name": "distributeTokens",
      "outputs": [],
      "stateMutability": "payable",
      "type": "function"
    },
    {
      "inputs": [
        {
          "internalType": "uint16",
          "name": "",
          "type": "uint16"
        }
      ],
      "name": "dstChainIdToBatchLimit",
      "outputs": [
        {
          "internalType": "uint256",
          "name": "",
          "type": "uint256"
        }
      ],
      "stateMutability": "view",
      "type": "function"
    },
    {
      "inputs": [
        {
          "internalType": "uint16",
          "name": "",
          "type": "uint16"
        }
      ],
      "name": "dstChainIdToTransferGas",
      "outputs": [
        {
          "internalType": "uint256",
          "name": "",
          "type": "uint256"
        }
      ],
      "stateMutability": "view",
      "type": "function"
    },
    {
      "inputs": [
        {
          "internalType": "uint16",
          "name": "_dstChainId",
          "type": "uint16"
        },
        {
          "components": [
            {
              "internalType": "uint256",
              "name": "index",
              "type": "uint256"
            },
            {
              "internalType": "uint256",
              "name": "value",
              "type": "uint256"
            }
          ],
          "internalType": "struct DistributeONFT721.TokenDistribute[]",
          "name": "_tokenDistribute",
          "type": "tuple[]"
        },
        {
          "internalType": "bool",
          "name": "_useZro",
          "type": "bool"
        }
      ],
      "name": "estimateDistributeFee",
      "outputs": [
        {
          "internalType": "uint256",
          "name": "nativeFee",
          "type": "uint256"
        },
        {
          "internalType": "uint256",
          "name": "zroFee",
          "type": "uint256"
        }
      ],
      "stateMutability": "view",
      "type": "function"
    },
    {
      "inputs": [
        {
          "internalType": "uint16",
          "name": "_dstChainId",
          "type": "uint16"
        },
        {
          "internalType": "bytes",
          "name": "_toAddress",
          "type": "bytes"
        },
        {
          "internalType": "uint256[]",
          "name": "_tokenIds",
          "type": "uint256[]"
        },
        {
          "internalType": "bool",
          "name": "_useZro",
          "type": "bool"
        },
        {
          "internalType": "bytes",
          "name": "_adapterParams",
          "type": "bytes"
        }
      ],
      "name": "estimateSendBatchFee",
      "outputs": [
        {
          "internalType": "uint256",
          "name": "nativeFee",
          "type": "uint256"
        },
        {
          "internalType": "uint256",
          "name": "zroFee",
          "type": "uint256"
        }
      ],
      "stateMutability": "view",
      "type": "function"
    },
    {
      "inputs": [
        {
          "internalType": "uint16",
          "name": "_dstChainId",
          "type": "uint16"
        },
        {
          "internalType": "bytes",
          "name": "_toAddress",
          "type": "bytes"
        },
        {
          "internalType": "uint256",
          "name": "_tokenId",
          "type": "uint256"
        },
        {
          "internalType": "bool",
          "name": "_useZro",
          "type": "bool"
        },
        {
          "internalType": "bytes",
          "name": "_adapterParams",
          "type": "bytes"
        }
      ],
      "name": "estimateSendFee",
      "outputs": [
        {
          "internalType": "uint256",
          "name": "nativeFee",
          "type": "uint256"
        },
        {
          "internalType": "uint256",
          "name": "zroFee",
          "type": "uint256"
        }
      ],
      "stateMutability": "view",
      "type": "function"
    },
    {
      "inputs": [
        {
          "internalType": "uint16",
          "name": "",
          "type": "uint16"
        },
        {
          "internalType": "bytes",
          "name": "",
          "type": "bytes"
        },
        {
          "internalType": "uint64",
          "name": "",
          "type": "uint64"
        }
      ],
      "name": "failedMessages",
      "outputs": [
        {
          "internalType": "bytes32",
          "name": "",
          "type": "bytes32"
        }
      ],
      "stateMutability": "view",
      "type": "function"
    },
    {
      "inputs": [
        {
          "internalType": "uint16",
          "name": "_srcChainId",
          "type": "uint16"
        },
        {
          "internalType": "bytes",
          "name": "_srcAddress",
          "type": "bytes"
        }
      ],
      "name": "forceResumeReceive",
      "outputs": [],
      "stateMutability": "nonpayable",
      "type": "function"
    },
    {
      "inputs": [
        {
          "internalType": "uint256",
          "name": "tokenId",
          "type": "uint256"
        }
      ],
      "name": "getApproved",
      "outputs": [
        {
          "internalType": "address",
          "name": "",
          "type": "address"
        }
      ],
      "stateMutability": "view",
      "type": "function"
    },
    {
      "inputs": [
        {
          "internalType": "uint16",
          "name": "_version",
          "type": "uint16"
        },
        {
          "internalType": "uint16",
          "name": "_chainId",
          "type": "uint16"
        },
        {
          "internalType": "address",
          "name": "",
          "type": "address"
        },
        {
          "internalType": "uint256",
          "name": "_configType",
          "type": "uint256"
        }
      ],
      "name": "getConfig",
      "outputs": [
        {
          "internalType": "bytes",
          "name": "",
          "type": "bytes"
        }
      ],
      "stateMutability": "view",
      "type": "function"
    },
    {
      "inputs": [
        {
          "internalType": "uint256",
          "name": "_amount",
          "type": "uint256"
        }
      ],
      "name": "getDistributeTokens",
      "outputs": [
        {
          "components": [
            {
              "internalType": "uint256",
              "name": "index",
              "type": "uint256"
            },
            {
              "internalType": "uint256",
              "name": "value",
              "type": "uint256"
            }
          ],
          "internalType": "struct DistributeONFT721.TokenDistribute[]",
          "name": "",
          "type": "tuple[]"
        }
      ],
      "stateMutability": "view",
      "type": "function"
    },
    {
      "inputs": [
        {
          "internalType": "uint16",
          "name": "_remoteChainId",
          "type": "uint16"
        }
      ],
      "name": "getTrustedRemoteAddress",
      "outputs": [
        {
          "internalType": "bytes",
          "name": "",
          "type": "bytes"
        }
      ],
      "stateMutability": "view",
      "type": "function"
    },
    {
      "inputs": [
        {
          "internalType": "address",
          "name": "owner",
          "type": "address"
        },
        {
          "internalType": "address",
          "name": "operator",
          "type": "address"
        }
      ],
      "name": "isApprovedForAll",
      "outputs": [
        {
          "internalType": "bool",
          "name": "",
          "type": "bool"
        }
      ],
      "stateMutability": "view",
      "type": "function"
    },
    {
      "inputs": [
        {
          "internalType": "uint16",
          "name": "_srcChainId",
          "type": "uint16"
        },
        {
          "internalType": "bytes",
          "name": "_srcAddress",
          "type": "bytes"
        }
      ],
      "name": "isTrustedRemote",
      "outputs": [
        {
          "internalType": "bool",
          "name": "",
          "type": "bool"
        }
      ],
      "stateMutability": "view",
      "type": "function"
    },
    {
      "inputs": [],
      "name": "lzEndpoint",
      "outputs": [
        {
          "internalType": "contract ILayerZeroEndpoint",
          "name": "",
          "type": "address"
        }
      ],
      "stateMutability": "view",
      "type": "function"
    },
    {
      "inputs": [
        {
          "internalType": "uint16",
          "name": "_srcChainId",
          "type": "uint16"
        },
        {
          "internalType": "bytes",
          "name": "_srcAddress",
          "type": "bytes"
        },
        {
          "internalType": "uint64",
          "name": "_nonce",
          "type": "uint64"
        },
        {
          "internalType": "bytes",
          "name": "_payload",
          "type": "bytes"
        }
      ],
      "name": "lzReceive",
      "outputs": [],
      "stateMutability": "nonpayable",
      "type": "function"
    },
    {
      "inputs": [
        {
          "internalType": "uint16",
          "name": "",
          "type": "uint16"
        },
        {
          "internalType": "uint16",
          "name": "",
          "type": "uint16"
        }
      ],
      "name": "minDstGasLookup",
      "outputs": [
        {
          "internalType": "uint256",
          "name": "",
          "type": "uint256"
        }
      ],
      "stateMutability": "view",
      "type": "function"
    },
    {
      "inputs": [],
      "name": "minGasToTransferAndStore",
      "outputs": [
        {
          "internalType": "uint256",
          "name": "",
          "type": "uint256"
        }
      ],
      "stateMutability": "view",
      "type": "function"
    },
    {
      "inputs": [],
      "name": "mint",
      "outputs": [],
      "stateMutability": "nonpayable",
      "type": "function"
    },
    {
      "inputs": [],
      "name": "name",
      "outputs": [
        {
          "internalType": "string",
          "name": "",
          "type": "string"
        }
      ],
      "stateMutability": "view",
      "type": "function"
    },
    {
      "inputs": [
        {
          "internalType": "uint16",
          "name": "_srcChainId",
          "type": "uint16"
        },
        {
          "internalType": "bytes",
          "name": "_srcAddress",
          "type": "bytes"
        },
        {
          "internalType": "uint64",
          "name": "_nonce",
          "type": "uint64"
        },
        {
          "internalType": "bytes",
          "name": "_payload",
          "type": "bytes"
        }
      ],
      "name": "nonblockingLzReceive",
      "outputs": [],
      "stateMutability": "nonpayable",
      "type": "function"
    },
    {
      "inputs": [],
      "name": "owner",
      "outputs": [
        {
          "internalType": "address",
          "name": "",
          "type": "address"
        }
      ],
      "stateMutability": "view",
      "type": "function"
    },
    {
      "inputs": [
        {
          "internalType": "uint256",
          "name": "tokenId",
          "type": "uint256"
        }
      ],
      "name": "ownerOf",
      "outputs": [
        {
          "internalType": "address",
          "name": "",
          "type": "address"
        }
      ],
      "stateMutability": "view",
      "type": "function"
    },
    {
      "inputs": [
        {
          "internalType": "uint16",
          "name": "",
          "type": "uint16"
        }
      ],
      "name": "payloadSizeLimitLookup",
      "outputs": [
        {
          "internalType": "uint256",
          "name": "",
          "type": "uint256"
        }
      ],
      "stateMutability": "view",
      "type": "function"
    },
    {
      "inputs": [],
      "name": "precrime",
      "outputs": [
        {
          "internalType": "address",
          "name": "",
          "type": "address"
        }
      ],
      "stateMutability": "view",
      "type": "function"
    },
    {
      "inputs": [
        {
          "internalType": "uint256",
          "name": "tokenId",
          "type": "uint256"
        }
      ],
      "name": "rawOwnerOf",
      "outputs": [
        {
          "internalType": "address",
          "name": "",
          "type": "address"
        }
      ],
      "stateMutability": "view",
      "type": "function"
    },
    {
      "inputs": [],
      "name": "renounceOwnership",
      "outputs": [],
      "stateMutability": "nonpayable",
      "type": "function"
    },
    {
      "inputs": [
        {
          "internalType": "uint16",
          "name": "_srcChainId",
          "type": "uint16"
        },
        {
          "internalType": "bytes",
          "name": "_srcAddress",
          "type": "bytes"
        },
        {
          "internalType": "uint64",
          "name": "_nonce",
          "type": "uint64"
        },
        {
          "internalType": "bytes",
          "name": "_payload",
          "type": "bytes"
        }
      ],
      "name": "retryMessage",
      "outputs": [],
      "stateMutability": "payable",
      "type": "function"
    },
    {
      "inputs": [
        {
          "internalType": "address",
          "name": "from",
          "type": "address"
        },
        {
          "internalType": "address",
          "name": "to",
          "type": "address"
        },
        {
          "internalType": "uint256",
          "name": "tokenId",
          "type": "uint256"
        }
      ],
      "name": "safeTransferFrom",
      "outputs": [],
      "stateMutability": "nonpayable",
      "type": "function"
    },
    {
      "inputs": [
        {
          "internalType": "address",
          "name": "from",
          "type": "address"
        },
        {
          "internalType": "address",
          "name": "to",
          "type": "address"
        },
        {
          "internalType": "uint256",
          "name": "tokenId",
          "type": "uint256"
        },
        {
          "internalType": "bytes",
          "name": "data",
          "type": "bytes"
        }
      ],
      "name": "safeTransferFrom",
      "outputs": [],
      "stateMutability": "nonpayable",
      "type": "function"
    },
    {
      "inputs": [
        {
          "internalType": "address",
          "name": "_from",
          "type": "address"
        },
        {
          "internalType": "uint16",
          "name": "_dstChainId",
          "type": "uint16"
        },
        {
          "internalType": "bytes",
          "name": "_toAddress",
          "type": "bytes"
        },
        {
          "internalType": "uint256[]",
          "name": "_tokenIds",
          "type": "uint256[]"
        },
        {
          "internalType": "address payable",
          "name": "_refundAddress",
          "type": "address"
        },
        {
          "internalType": "address",
          "name": "_zroPaymentAddress",
          "type": "address"
        },
        {
          "internalType": "bytes",
          "name": "_adapterParams",
          "type": "bytes"
        }
      ],
      "name": "sendBatchFrom",
      "outputs": [],
      "stateMutability": "payable",
      "type": "function"
    },
    {
      "inputs": [
        {
          "internalType": "address",
          "name": "_from",
          "type": "address"
        },
        {
          "internalType": "uint16",
          "name": "_dstChainId",
          "type": "uint16"
        },
        {
          "internalType": "bytes",
          "name": "_toAddress",
          "type": "bytes"
        },
        {
          "internalType": "uint256",
          "name": "_tokenId",
          "type": "uint256"
        },
        {
          "internalType": "address payable",
          "name": "_refundAddress",
          "type": "address"
        },
        {
          "internalType": "address",
          "name": "_zroPaymentAddress",
          "type": "address"
        },
        {
          "internalType": "bytes",
          "name": "_adapterParams",
          "type": "bytes"
        }
      ],
      "name": "sendFrom",
      "outputs": [],
      "stateMutability": "payable",
      "type": "function"
    },
    {
      "inputs": [
        {
          "internalType": "address",
          "name": "operator",
          "type": "address"
        },
        {
          "internalType": "bool",
          "name": "approved",
          "type": "bool"
        }
      ],
      "name": "setApprovalForAll",
      "outputs": [],
      "stateMutability": "nonpayable",
      "type": "function"
    },
    {
      "inputs": [
        {
          "internalType": "uint16",
          "name": "_version",
          "type": "uint16"
        },
        {
          "internalType": "uint16",
          "name": "_chainId",
          "type": "uint16"
        },
        {
          "internalType": "uint256",
          "name": "_configType",
          "type": "uint256"
        },
        {
          "internalType": "bytes",
          "name": "_config",
          "type": "bytes"
        }
      ],
      "name": "setConfig",
      "outputs": [],
      "stateMutability": "nonpayable",
      "type": "function"
    },
    {
      "inputs": [
        {
          "internalType": "uint256",
          "name": "_distributeBaseDstGas",
          "type": "uint256"
        }
      ],
      "name": "setDistributeBaseDstGas",
      "outputs": [],
      "stateMutability": "nonpayable",
      "type": "function"
    },
    {
      "inputs": [
        {
          "internalType": "uint256",
          "name": "_distributeGasPerIdx",
          "type": "uint256"
        }
      ],
      "name": "setDistributeGasPerIdx",
      "outputs": [],
      "stateMutability": "nonpayable",
      "type": "function"
    },
    {
      "inputs": [
        {
          "internalType": "uint16",
          "name": "_dstChainId",
          "type": "uint16"
        },
        {
          "internalType": "uint256",
          "name": "_dstChainIdToBatchLimit",
          "type": "uint256"
        }
      ],
      "name": "setDstChainIdToBatchLimit",
      "outputs": [],
      "stateMutability": "nonpayable",
      "type": "function"
    },
    {
      "inputs": [
        {
          "internalType": "uint16",
          "name": "_dstChainId",
          "type": "uint16"
        },
        {
          "internalType": "uint256",
          "name": "_dstChainIdToTransferGas",
          "type": "uint256"
        }
      ],
      "name": "setDstChainIdToTransferGas",
      "outputs": [],
      "stateMutability": "nonpayable",
      "type": "function"
    },
    {
      "inputs": [
        {
          "internalType": "uint16",
          "name": "_dstChainId",
          "type": "uint16"
        },
        {
          "internalType": "uint16",
          "name": "_packetType",
          "type": "uint16"
        },
        {
          "internalType": "uint256",
          "name": "_minGas",
          "type": "uint256"
        }
      ],
      "name": "setMinDstGas",
      "outputs": [],
      "stateMutability": "nonpayable",
      "type": "function"
    },
    {
      "inputs": [
        {
          "internalType": "uint256",
          "name": "_minGasToTransferAndStore",
          "type": "uint256"
        }
      ],
      "name": "setMinGasToTransferAndStore",
      "outputs": [],
      "stateMutability": "nonpayable",
      "type": "function"
    },
    {
      "inputs": [
        {
          "internalType": "uint16",
          "name": "_dstChainId",
          "type": "uint16"
        },
        {
          "internalType": "uint256",
          "name": "_size",
          "type": "uint256"
        }
      ],
      "name": "setPayloadSizeLimit",
      "outputs": [],
      "stateMutability": "nonpayable",
      "type": "function"
    },
    {
      "inputs": [
        {
          "internalType": "address",
          "name": "_precrime",
          "type": "address"
        }
      ],
      "name": "setPrecrime",
      "outputs": [],
      "stateMutability": "nonpayable",
      "type": "function"
    },
    {
      "inputs": [
        {
          "internalType": "uint16",
          "name": "_version",
          "type": "uint16"
        }
      ],
      "name": "setReceiveVersion",
      "outputs": [],
      "stateMutability": "nonpayable",
      "type": "function"
    },
    {
      "inputs": [
        {
          "internalType": "uint16",
          "name": "_version",
          "type": "uint16"
        }
      ],
      "name": "setSendVersion",
      "outputs": [],
      "stateMutability": "nonpayable",
      "type": "function"
    },
    {
      "inputs": [
        {
          "internalType": "uint16",
          "name": "_remoteChainId",
          "type": "uint16"
        },
        {
          "internalType": "bytes",
          "name": "_path",
          "type": "bytes"
        }
      ],
      "name": "setTrustedRemote",
      "outputs": [],
      "stateMutability": "nonpayable",
      "type": "function"
    },
    {
      "inputs": [
        {
          "internalType": "uint16",
          "name": "_remoteChainId",
          "type": "uint16"
        },
        {
          "internalType": "bytes",
          "name": "_remoteAddress",
          "type": "bytes"
        }
      ],
      "name": "setTrustedRemoteAddress",
      "outputs": [],
      "stateMutability": "nonpayable",
      "type": "function"
    },
    {
      "inputs": [
        {
          "internalType": "bytes32",
          "name": "",
          "type": "bytes32"
        }
      ],
      "name": "storedCredits",
      "outputs": [
        {
          "internalType": "uint16",
          "name": "srcChainId",
          "type": "uint16"
        },
        {
          "internalType": "address",
          "name": "toAddress",
          "type": "address"
        },
        {
          "internalType": "uint256",
          "name": "index",
          "type": "uint256"
        },
        {
          "internalType": "bool",
          "name": "creditsRemain",
          "type": "bool"
        }
      ],
      "stateMutability": "view",
      "type": "function"
    },
    {
      "inputs": [
        {
          "internalType": "bytes4",
          "name": "interfaceId",
          "type": "bytes4"
        }
      ],
      "name": "supportsInterface",
      "outputs": [
        {
          "internalType": "bool",
          "name": "",
          "type": "bool"
        }
      ],
      "stateMutability": "view",
      "type": "function"
    },
    {
      "inputs": [],
      "name": "symbol",
      "outputs": [
        {
          "internalType": "string",
          "name": "",
          "type": "string"
        }
      ],
      "stateMutability": "view",
      "type": "function"
    },
    {
      "inputs": [
        {
          "internalType": "uint256",
          "name": "",
          "type": "uint256"
        }
      ],
      "name": "tokenIds",
      "outputs": [
        {
          "internalType": "uint256",
          "name": "",
          "type": "uint256"
        }
      ],
      "stateMutability": "view",
      "type": "function"
    },
    {
      "inputs": [
        {
          "internalType": "uint256",
          "name": "tokenId",
          "type": "uint256"
        }
      ],
      "name": "tokenURI",
      "outputs": [
        {
          "internalType": "string",
          "name": "",
          "type": "string"
        }
      ],
      "stateMutability": "view",
      "type": "function"
    },
    {
      "inputs": [
        {
          "internalType": "address",
          "name": "from",
          "type": "address"
        },
        {
          "internalType": "address",
          "name": "to",
          "type": "address"
        },
        {
          "internalType": "uint256",
          "name": "tokenId",
          "type": "uint256"
        }
      ],
      "name": "transferFrom",
      "outputs": [],
      "stateMutability": "nonpayable",
      "type": "function"
    },
    {
      "inputs": [
        {
          "internalType": "address",
          "name": "newOwner",
          "type": "address"
        }
      ],
      "name": "transferOwnership",
      "outputs": [],
      "stateMutability": "nonpayable",
      "type": "function"
    },
    {
      "inputs": [
        {
          "internalType": "uint16",
          "name": "",
          "type": "uint16"
        }
      ],
      "name": "trustedRemoteLookup",
      "outputs": [
        {
          "internalType": "bytes",
          "name": "",
          "type": "bytes"
        }
      ],
      "stateMutability": "view",
      "type": "function"
    }
  ],
  "bytecode": "0x61c3506011556161a8601255602860a08181526105c06040529060c0610500803683375050815162000039926013925060200190620002c8565b503480156200004757600080fd5b5060405162005e1538038062005e158339810160408190526200006a9162000465565b604051806040016040528060118152602001704578616d706c654469737472696275746560781b8152506040518060400160405280600481526020016313d3919560e21b815250620249f085858585858585838383838080620000dc620000d66200027460201b60201c565b62000278565b6001600160a01b0316608052506001600655816200014d5760405162461bcd60e51b8152602060048201526024808201527f6d696e476173546f5472616e73666572416e6453746f7265206d7573742062656044820152630203e20360e41b60648201526084015b60405180910390fd5b5060075581516200016690600b90602085019062000318565b5080516200017c90600c90602084019062000318565b5050505050505060008251905081518114620001f35760405162461bcd60e51b815260206004820152602f60248201527f5f696e646578417272617920616e64205f76616c75654172726179206d75737460448201526e040c4ca40e6c2daca40d8cadccee8d608b1b606482015260840162000144565b60005b818110156200026357828181518110620002145762000214620004ef565b60200260200101516013858381518110620002335762000233620004ef565b6020026020010151815481106200024e576200024e620004ef565b600091825260209091200155600101620001f6565b505050505050505050505062000542565b3390565b600080546001600160a01b038381166001600160a01b0319831681178455604051919092169283917f8be0079c531659141344cd1fd0a4f28419497f9722a3daafe3b4186f6b6457e09190a35050565b82805482825590600052602060002090810192821562000306579160200282015b8281111562000306578251825591602001919060010190620002e9565b506200031492915062000394565b5090565b828054620003269062000505565b90600052602060002090601f0160209004810192826200034a576000855562000306565b82601f106200036557805160ff191683800117855562000306565b8280016001018555821562000306579182018281111562000306578251825591602001919060010190620002e9565b5b8082111562000314576000815560010162000395565b634e487b7160e01b600052604160045260246000fd5b600082601f830112620003d357600080fd5b815160206001600160401b0380831115620003f257620003f2620003ab565b8260051b604051601f19603f830116810181811084821117156200041a576200041a620003ab565b6040529384528581018301938381019250878511156200043957600080fd5b83870191505b848210156200045a578151835291830191908301906200043f565b979650505050505050565b6000806000606084860312156200047b57600080fd5b83516001600160a01b03811681146200049357600080fd5b60208501519093506001600160401b0380821115620004b157600080fd5b620004bf87838801620003c1565b93506040860151915080821115620004d657600080fd5b50620004e586828701620003c1565b9150509250925092565b634e487b7160e01b600052603260045260246000fd5b600181811c908216806200051a57607f821691505b602082108114156200053c57634e487b7160e01b600052602260045260246000fd5b50919050565b6080516158786200059d60003960008181610a5b01528181610cc201528181610fc6015281816112880152818161151901528181611f64015281816125f70152818161272a015281816133d701526139ef01526158786000f3fe6080604052600436106103cd5760003560e01c80637f81be69116101fd578063b88d4fde11610118578063d58778d6116100ab578063eb8d72b71161007a578063eb8d72b714610c12578063f235364114610c32578063f2fde38b14610c52578063f5ecbdbc14610c72578063fa25f9b614610c9257600080fd5b8063d58778d614610b5c578063d807e9e914610b7c578063df2a5b3b14610ba9578063e985e9c514610bc957600080fd5b8063cbed8b9c116100e7578063cbed8b9c14610af3578063ce30e2a914610b13578063d12473a514610b29578063d1deba1f14610b4957600080fd5b8063b88d4fde14610a7d578063baf3292d14610a9d578063c446183414610abd578063c87b56dd14610ad357600080fd5b80639ea5d6b111610190578063a6c3d1651161015f578063a6c3d16514610a01578063ab3ffb9314610a21578063af3fb21c14610a34578063b353aaa714610a4957600080fd5b80639ea5d6b11461098e5780639f38369a146109ae578063a22cb465146109ce578063a3049482146109ee57600080fd5b80638ffa1f2a116101cc5780638ffa1f2a14610923578063911611e714610943578063950c8a741461095957806395d89b411461097957600080fd5b80637f81be691461088d5780638cfd8f5c146108ad5780638da5cb5b146108e55780638eca19b91461090357600080fd5b80632ea80877116102ed5780635b8c41e6116102805780636a621d491161024f5780636a621d491461082357806370a0823114610838578063715018a6146108585780637533d7881461086d57600080fd5b80635b8c41e6146107745780636305cb97146107c35780636352211e146107e357806366ad5c8a1461080357600080fd5b806342d65a8d116102bc57806342d65a8d146106fe578063482881901461071e5780634ac3f4ff14610734578063519056361461076157600080fd5b80632ea80877146106695780633d8b38f6146106915780633f1f4fa4146106b157806342842e0e146106de57600080fd5b80630e7512941161036557806322a3ecf91161033457806322a3ecf91461057b57806323b872dd146105fe5780632518552b1461061e5780632a205e3d1461063457600080fd5b80630e7512941461050357806310ddb137146105235780631249c58b1461054357806318ec341c1461055857600080fd5b8063081812fc116103a1578063081812fc1461046b578063095ea7b3146104a35780630b4cad4c146104c35780630df37483146104e357600080fd5b80621d3567146103d257806301ffc9a7146103f457806306fdde031461042957806307e0db171461044b575b600080fd5b3480156103de57600080fd5b506103f26103ed3660046145fb565b610cbf565b005b34801561040057600080fd5b5061041461040f3660046146a6565b610ef0565b60405190151581526020015b60405180910390f35b34801561043557600080fd5b5061043e610f13565b604051610420919061471b565b34801561045757600080fd5b506103f261046636600461472e565b610fa5565b34801561047757600080fd5b5061048b61048636600461474b565b61102e565b6040516001600160a01b039091168152602001610420565b3480156104af57600080fd5b506103f26104be366004614784565b611055565b3480156104cf57600080fd5b506103f26104de36600461474b565b61116b565b3480156104ef57600080fd5b506103f26104fe3660046147b0565b61120b565b34801561050f57600080fd5b506103f261051e36600461474b565b61122a565b34801561052f57600080fd5b506103f261053e36600461472e565b611267565b34801561054f57600080fd5b506103f26112bf565b34801561056457600080fd5b5061056d611345565b604051908152602001610420565b34801561058757600080fd5b506105cf61059636600461474b565b600a6020526000908152604090208054600182015460029092015461ffff821692620100009092046001600160a01b0316919060ff1684565b6040805161ffff90951685526001600160a01b0390931660208501529183015215156060820152608001610420565b34801561060a57600080fd5b506103f26106193660046147ce565b6113bb565b34801561062a57600080fd5b5061056d60125481565b34801561064057600080fd5b5061065461064f36600461490a565b6113ed565b60408051928352602083019190915201610420565b34801561067557600080fd5b5061067e600281565b60405161ffff9091168152602001610420565b34801561069d57600080fd5b506104146106ac36600461499a565b611413565b3480156106bd57600080fd5b5061056d6106cc36600461472e565b60036020526000908152604090205481565b3480156106ea57600080fd5b506103f26106f93660046147ce565b6114df565b34801561070a57600080fd5b506103f261071936600461499a565b6114fa565b34801561072a57600080fd5b5061056d60075481565b34801561074057600080fd5b5061056d61074f36600461472e565b60086020526000908152604090205481565b6103f261076f3660046149ee565b611580565b34801561078057600080fd5b5061056d61078f366004614aa9565b6005602090815260009384526040808520845180860184018051928152908401958401959095209452929052825290205481565b3480156107cf57600080fd5b506103f26107de36600461474b565b611597565b3480156107ef57600080fd5b5061048b6107fe36600461474b565b6115d4565b34801561080f57600080fd5b506103f261081e3660046145fb565b611634565b34801561082f57600080fd5b5061067e60fa81565b34801561084457600080fd5b5061056d610853366004614b08565b611710565b34801561086457600080fd5b506103f2611796565b34801561087957600080fd5b5061043e61088836600461472e565b6117aa565b34801561089957600080fd5b5061048b6108a836600461474b565b611844565b3480156108b957600080fd5b5061056d6108c8366004614b25565b600260209081526000928352604080842090915290825290205481565b3480156108f157600080fd5b506000546001600160a01b031661048b565b34801561090f57600080fd5b5061065461091e366004614c0b565b611865565b34801561092f57600080fd5b506103f261093e366004614c61565b6118a3565b34801561094f57600080fd5b5061056d60115481565b34801561096557600080fd5b5060045461048b906001600160a01b031681565b34801561098557600080fd5b5061043e611adf565b34801561099a57600080fd5b506103f26109a93660046147b0565b611aee565b3480156109ba57600080fd5b5061043e6109c936600461472e565b611ba5565b3480156109da57600080fd5b506103f26109e9366004614c95565b611cbc565b6103f26109fc366004614cca565b611ccb565b348015610a0d57600080fd5b506103f2610a1c36600461499a565b611da8565b6103f2610a2f366004614d99565b611e3b565b348015610a4057600080fd5b5061067e600181565b348015610a5557600080fd5b5061048b7f000000000000000000000000000000000000000000000000000000000000000081565b348015610a8957600080fd5b506103f2610a98366004614e4b565b611e4a565b348015610aa957600080fd5b506103f2610ab8366004614b08565b611e7c565b348015610ac957600080fd5b5061056d61271081565b348015610adf57600080fd5b5061043e610aee36600461474b565b611ed2565b348015610aff57600080fd5b506103f2610b0e366004614eb6565b611f45565b348015610b1f57600080fd5b5061067e61010081565b348015610b3557600080fd5b506103f2610b443660046147b0565b611fda565b6103f2610b573660046145fb565b61208a565b348015610b6857600080fd5b5061056d610b7736600461474b565b6122a0565b348015610b8857600080fd5b50610b9c610b9736600461474b565b6122c1565b6040516104209190614f6e565b348015610bb557600080fd5b506103f2610bc4366004614f81565b6124a9565b348015610bd557600080fd5b50610414610be4366004614fb1565b6001600160a01b03918216600090815260106020908152604080832093909416825291909152205460ff1690565b348015610c1e57600080fd5b506103f2610c2d36600461499a565b61255b565b348015610c3e57600080fd5b50610654610c4d366004614fdf565b6125b5565b348015610c5e57600080fd5b506103f2610c6d366004614b08565b612683565b348015610c7e57600080fd5b5061043e610c8d36600461505a565b6126f9565b348015610c9e57600080fd5b5061056d610cad36600461472e565b60096020526000908152604090205481565b337f00000000000000000000000000000000000000000000000000000000000000006001600160a01b031614610d3c5760405162461bcd60e51b815260206004820152601e60248201527f4c7a4170703a20696e76616c696420656e64706f696e742063616c6c6572000060448201526064015b60405180910390fd5b61ffff861660009081526001602052604081208054610d5a906150ab565b80601f0160208091040260200160405190810160405280929190818152602001828054610d86906150ab565b8015610dd35780601f10610da857610100808354040283529160200191610dd3565b820191906000526020600020905b815481529060010190602001808311610db657829003601f168201915b50505050509050805186869050148015610dee575060008151115b8015610e16575080516020820120604051610e0c90889088906150e6565b6040518091039020145b610e715760405162461bcd60e51b815260206004820152602660248201527f4c7a4170703a20696e76616c696420736f757263652073656e64696e6720636f6044820152651b9d1c9858dd60d21b6064820152608401610d33565b610ee78787878080601f01602080910402602001604051908101604052809392919081815260200183838082843760009201919091525050604080516020601f8a018190048102820181019092528881528a9350915088908890819084018382808284376000920191909152506127ac92505050565b50505050505050565b60006001600160e01b031982161580610f0d5750610f0d82612825565b92915050565b6060600b8054610f22906150ab565b80601f0160208091040260200160405190810160405280929190818152602001828054610f4e906150ab565b8015610f9b5780601f10610f7057610100808354040283529160200191610f9b565b820191906000526020600020905b815481529060010190602001808311610f7e57829003601f168201915b5050505050905090565b610fad612865565b6040516307e0db1760e01b815261ffff821660048201527f00000000000000000000000000000000000000000000000000000000000000006001600160a01b0316906307e0db17906024015b600060405180830381600087803b15801561101357600080fd5b505af1158015611027573d6000803e3d6000fd5b5050505050565b6000611039826128bf565b506000908152600f60205260409020546001600160a01b031690565b6000611060826115d4565b9050806001600160a01b0316836001600160a01b031614156110ce5760405162461bcd60e51b815260206004820152602160248201527f4552433732313a20617070726f76616c20746f2063757272656e74206f776e656044820152603960f91b6064820152608401610d33565b336001600160a01b03821614806110ea57506110ea8133610be4565b61115c5760405162461bcd60e51b815260206004820152603d60248201527f4552433732313a20617070726f76652063616c6c6572206973206e6f7420746f60448201527f6b656e206f776e6572206f7220617070726f76656420666f7220616c6c0000006064820152608401610d33565b611166838361290f565b505050565b611173612865565b600081116111cf5760405162461bcd60e51b8152602060048201526024808201527f6d696e476173546f5472616e73666572416e6453746f7265206d7573742062656044820152630203e20360e41b6064820152608401610d33565b60078190556040518181527ffebbc4f8bb9ec2313950c718d43123124b15778efda4c1f1d529de2995b4f34d906020015b60405180910390a150565b611213612865565b61ffff909116600090815260036020526040902055565b611232612865565b60128190556040518181527fe995f60b841a7336cf7af18b9017aab284c6678cf2a818f43c35098d5a901bc890602001611200565b61126f612865565b6040516310ddb13760e01b815261ffff821660048201527f00000000000000000000000000000000000000000000000000000000000000006001600160a01b0316906310ddb13790602401610ff9565b60016112c9611345565b101561132c5760405162461bcd60e51b815260206004820152602c60248201527f446973747269627574654f4e46543732313a204e6f7420656e6f75676820746f60448201526b1ad95b9cc81d1bc8135a5b9d60a21b6064820152608401610d33565b600061133661297d565b90506113423382612a44565b50565b601354600090815b818110156113b65760006013828154811061136a5761136a6150f6565b906000526020600020015411156113ae576113a160138281548110611391576113916150f6565b9060005260206000200154612a5e565b6113ab9084615122565b92505b60010161134d565b505090565b6113c6335b82612cbc565b6113e25760405162461bcd60e51b8152600401610d339061513a565b611166838383612d3a565b60008061140587876113fe88612e9e565b87876125b5565b915091509550959350505050565b61ffff831660009081526001602052604081208054829190611434906150ab565b80601f0160208091040260200160405190810160405280929190818152602001828054611460906150ab565b80156114ad5780601f10611482576101008083540402835291602001916114ad565b820191906000526020600020905b81548152906001019060200180831161149057829003601f168201915b5050505050905083836040516114c49291906150e6565b60405180910390208180519060200120149150509392505050565b61116683838360405180602001604052806000815250611e4a565b611502612865565b6040516342d65a8d60e01b81526001600160a01b037f000000000000000000000000000000000000000000000000000000000000000016906342d65a8d90611552908690869086906004016151b0565b600060405180830381600087803b15801561156c57600080fd5b505af1158015610ee7573d6000803e3d6000fd5b610ee787878761158f88612e9e565b878787612ee9565b61159f612865565b60118190556040518181527f872735ac071276affce3a0a7de8308e2d22a272718a68dcd010a42ec626ecb5f90602001611200565b6000818152600d60205260408120546001600160a01b031680610f0d5760405162461bcd60e51b8152602060048201526018602482015277115490cdcc8c4e881a5b9d985b1a59081d1bdad95b88125160421b6044820152606401610d33565b3330146116925760405162461bcd60e51b815260206004820152602660248201527f4e6f6e626c6f636b696e674c7a4170703a2063616c6c6572206d7573742062656044820152650204c7a4170760d41b6064820152608401610d33565b6117088686868080601f01602080910402602001604051908101604052809392919081815260200183838082843760009201919091525050604080516020601f8901819004810282018101909252878152899350915087908790819084018382808284376000920191909152506130b692505050565b505050505050565b60006001600160a01b03821661177a5760405162461bcd60e51b815260206004820152602960248201527f4552433732313a2061646472657373207a65726f206973206e6f7420612076616044820152683634b21037bbb732b960b91b6064820152608401610d33565b506001600160a01b03166000908152600e602052604090205490565b61179e612865565b6117a86000613365565b565b600160205260009081526040902080546117c3906150ab565b80601f01602080910402602001604051908101604052809291908181526020018280546117ef906150ab565b801561183c5780601f106118115761010080835404028352916020019161183c565b820191906000526020600020905b81548152906001019060200180831161181f57829003601f168201915b505050505081565b600061184f826133b5565b1561185d57610f0d826115d4565b506000919050565b600080611897856002866040516020016118809291906151ce565b6040516020818303038152906040528651866133d2565b91509150935093915050565b80516020808301919091206000818152600a90925260409091206002015460ff166119045760405162461bcd60e51b81526020600482015260116024820152701b9bc818dc99591a5d1cc81cdd1bdc9959607a1b6044820152606401610d33565b60008280602001905181019061191a9190615230565b6000858152600a602052604081208054600190910154929550909350611958925061ffff811691620100009091046001600160a01b0316908561347e565b6000848152600a602052604090206001015490915081116119cd5760405162461bcd60e51b815260206004820152602960248201527f6e6f7420656e6f7567682067617320746f2070726f6365737320637265646974604482015268103a3930b739b332b960b91b6064820152608401610d33565b8151811415611a45576000838152600a602052604080822080546001600160b01b031916815560018101929092556002909101805460ff19169055517fd7be02b8dd0d27bd0517a9cb4d7469ce27df4313821ae5ec1ff69acc594ba23390611a389085815260200190565b60405180910390a1611ad9565b604080516080810182526000858152600a6020818152848320805461ffff80821687526001600160a01b03620100008084048216868a019081529989018b8152600160608b01818152998f90529790965297519851169096026001600160b01b03199091169690951695909517939093178455915191830191909155516002909101805491151560ff199092169190911790555b50505050565b6060600c8054610f22906150ab565b611af6612865565b60008111611b515760405162461bcd60e51b815260206004820152602260248201527f647374436861696e4964546f42617463684c696d6974206d757374206265203e604482015261020360f41b6064820152608401610d33565b61ffff8216600081815260086020908152604091829020849055815192835282018390527f7315f7654d594ead24a30160ed9ba2d23247f543016b918343591e93d7afdb6d91015b60405180910390a15050565b61ffff8116600090815260016020526040812080546060929190611bc8906150ab565b80601f0160208091040260200160405190810160405280929190818152602001828054611bf4906150ab565b8015611c415780601f10611c1657610100808354040283529160200191611c41565b820191906000526020600020905b815481529060010190602001808311611c2457829003601f168201915b50505050509050805160001415611c9a5760405162461bcd60e51b815260206004820152601d60248201527f4c7a4170703a206e6f20747275737465642070617468207265636f72640000006044820152606401610d33565b611cb5600060148351611cad91906152fd565b8391906134d0565b9392505050565b611cc73383836135dd565b5050565b611cd3612865565b611cdc836136ac565b611d185760405162461bcd60e51b815260206004820152600d60248201526c125b9d985b1a59081a5b9c1d5d609a1b6044820152606401610d33565b611d2183613762565b6000600284604051602001611d379291906151ce565b60405160208183030381529060405290506000611d54855161380d565b9050611d648683868685346138c5565b8561ffff167f9a72ab77f30e4ce04bdedd777b2dc64764e70205166233d02bd8411af912c44386604051611d989190614f6e565b60405180910390a2505050505050565b611db0612865565b818130604051602001611dc593929190615314565b60408051601f1981840301815291815261ffff85166000908152600160209081529190208251611dfa9391929091019061447f565b507f8c0400cfe2d1199b1a725c78960bcc2a344d869b80590d0f2bd005db15a572ce838383604051611e2e939291906151b0565b60405180910390a1505050565b610ee787878787878787612ee9565b611e543383612cbc565b611e705760405162461bcd60e51b8152600401610d339061513a565b611ad984848484613a6b565b611e84612865565b600480546001600160a01b0319166001600160a01b0383169081179091556040519081527f5db758e995a17ec1ad84bdef7e8c3293a0bd6179bcce400dff5d4c3d87db726b90602001611200565b6060611edd826128bf565b6000611ef460408051602081019091526000815290565b90506000815111611f145760405180602001604052806000815250611cb5565b80611f1e84613a9e565b604051602001611f2f92919061533a565b6040516020818303038152906040529392505050565b611f4d612865565b6040516332fb62e760e21b81526001600160a01b037f0000000000000000000000000000000000000000000000000000000000000000169063cbed8b9c90611fa19088908890889088908890600401615369565b600060405180830381600087803b158015611fbb57600080fd5b505af1158015611fcf573d6000803e3d6000fd5b505050505050505050565b611fe2612865565b6000811161203e5760405162461bcd60e51b815260206004820152602360248201527f647374436861696e4964546f5472616e73666572476173206d7573742062652060448201526203e20360ec1b6064820152608401610d33565b61ffff8216600081815260096020908152604091829020849055815192835282018390527fc46df2983228ac2d9754e94a0d565e6671665dc8ad38602bc8e544f0685a29fb9101611b99565b61ffff861660009081526005602052604080822090516120ad90889088906150e6565b90815260408051602092819003830190206001600160401b0387166000908152925290205490508061212d5760405162461bcd60e51b815260206004820152602360248201527f4e6f6e626c6f636b696e674c7a4170703a206e6f2073746f726564206d65737360448201526261676560e81b6064820152608401610d33565b80838360405161213e9291906150e6565b60405180910390201461219d5760405162461bcd60e51b815260206004820152602160248201527f4e6f6e626c6f636b696e674c7a4170703a20696e76616c6964207061796c6f616044820152601960fa1b6064820152608401610d33565b61ffff871660009081526005602052604080822090516121c090899089906150e6565b90815260408051602092819003830181206001600160401b038916600090815290845282902093909355601f88018290048202830182019052868252612258918991899089908190840183828082843760009201919091525050604080516020601f8a018190048102820181019092528881528a9350915088908890819084018382808284376000920191909152506130b692505050565b7fc264d91f3adc5588250e1551f547752ca0cfa8f6b530d243b9f9f4cab10ea8e5878787878560405161228f9594939291906153a2565b60405180910390a150505050505050565b601381815481106122b057600080fd5b600091825260209091200154905081565b6060600082116123095760405162461bcd60e51b815260206004820152601360248201527205f616d6f756e74206d757374206265203e203606c1b6044820152606401610d33565b600061231483613b3a565b9050806123635760405162461bcd60e51b815260206004820152601f60248201527f4e6f7420656e6f75676820746f6b656e7320746f2064697374726962757465006044820152606401610d33565b60135483906000836001600160401b038111156123825761238261480f565b6040519080825280602002602001820160405280156123c757816020015b60408051808201909152600080825260208201528152602001906001900390816123a05790505b5090506000805b8381101561249d576000601382815481106123eb576123eb6150f6565b90600052602060002001549050806000141561240a57506001016123ce565b85612415575061249d565b6000805b871561245c5761242883613bc6565b600160ff9190911681811b948518949384179390925090612449908a6152fd565b985083612456575061245c565b50612419565b604051806040016040528085815260200183815250868681518110612483576124836150f6565b6020908102919091010152505050600191820191016123ce565b50909695505050505050565b6124b1612865565b600081116124f95760405162461bcd60e51b81526020600482015260156024820152744c7a4170703a20696e76616c6964206d696e47617360581b6044820152606401610d33565b61ffff83811660008181526002602090815260408083209487168084529482529182902085905581519283528201929092529081018290527f9d5c7c0b934da8fefa9c7760c98383778a12dfbfc0c3b3106518f43fb9508ac090606001611e2e565b612563612865565b61ffff83166000908152600160205260409020612581908383614503565b507ffa41487ad5d6728f0b19276fa1eddc16558578f5109fc39d2dc33c3230470dab838383604051611e2e939291906151b0565b6000806000600187876040516020016125d09392919061540d565b60408051601f198184030181529082905263040a7bb160e41b825291506001600160a01b037f000000000000000000000000000000000000000000000000000000000000000016906340a7bb1090612634908b90309086908b908b90600401615446565b6040805180830381865afa158015612650573d6000803e3d6000fd5b505050506040513d601f19601f82011682018060405250810190612674919061549a565b92509250509550959350505050565b61268b612865565b6001600160a01b0381166126f05760405162461bcd60e51b815260206004820152602660248201527f4f776e61626c653a206e6577206f776e657220697320746865207a65726f206160448201526564647265737360d01b6064820152608401610d33565b61134281613365565b604051633d7b2f6f60e21b815261ffff808616600483015284166024820152306044820152606481018290526060907f00000000000000000000000000000000000000000000000000000000000000006001600160a01b03169063f5ecbdbc90608401600060405180830381865afa158015612779573d6000803e3d6000fd5b505050506040513d6000823e601f3d908101601f191682016040526127a191908101906154be565b90505b949350505050565b60008061280f5a60966366ad5c8a60e01b898989896040516024016127d494939291906154f2565b60408051601f198184030181529190526020810180516001600160e01b03166001600160e01b03199093169290921790915230929190613cbc565b9150915081611708576117088686868685613d46565b60006001600160e01b031982166380ac58cd60e01b148061285657506001600160e01b03198216635b5e139f60e01b145b80610f0d5750610f0d82613de3565b6000546001600160a01b031633146117a85760405162461bcd60e51b815260206004820181905260248201527f4f776e61626c653a2063616c6c6572206973206e6f7420746865206f776e65726044820152606401610d33565b6128c8816133b5565b6113425760405162461bcd60e51b8152602060048201526018602482015277115490cdcc8c4e881a5b9d985b1a59081d1bdad95b88125160421b6044820152606401610d33565b6000818152600f6020526040902080546001600160a01b0319166001600160a01b0384169081179091558190612944826115d4565b6001600160a01b03167f8c5be1e5ebec7d5bd14f71427d1e84f3dd0314c0f7b2291e5b200ac8c7c3b92560405160405180910390a45050565b601354600090815b818110156113b6576000601382815481106129a2576129a26150f6565b9060005260206000200154905080600014156129c15750600101612985565b60006129cc82613bc6565b60ff1690506000816001901b905080601385815481106129ee576129ee6150f6565b90600052602060002001541860138581548110612a0d57612a0d6150f6565b600091825260209091200155612a2460fa85615530565b612a30836101006152fd565b612a3a9190615122565b9550505050505090565b611cc7828260405180602001604052806000815250613e18565b60007f5555555555555555555555555555555555555555555555555555555555555555600183901c167f55555555555555555555555555555555555555555555555555555555555555558316612ab49190615122565b91507f3333333333333333333333333333333333333333333333333333333333333333600283901c167f33333333333333333333333333333333333333333333333333333333333333338316612b0a9190615122565b91507f0f0f0f0f0f0f0f0f0f0f0f0f0f0f0f0f0f0f0f0f0f0f0f0f0f0f0f0f0f0f0f0f600483901c167f0f0f0f0f0f0f0f0f0f0f0f0f0f0f0f0f0f0f0f0f0f0f0f0f0f0f0f0f0f0f0f0f8316612b609190615122565b91507eff00ff00ff00ff00ff00ff00ff00ff00ff00ff00ff00ff00ff00ff00ff00ff600883901c167eff00ff00ff00ff00ff00ff00ff00ff00ff00ff00ff00ff00ff00ff00ff00ff8316612bb49190615122565b91507dffff0000ffff0000ffff0000ffff0000ffff0000ffff0000ffff0000ffff601083901c167dffff0000ffff0000ffff0000ffff0000ffff0000ffff0000ffff0000ffff8316612c069190615122565b91507bffffffff00000000ffffffff00000000ffffffff00000000ffffffff602083901c167bffffffff00000000ffffffff00000000ffffffff00000000ffffffff8316612c549190615122565b915077ffffffffffffffff0000000000000000ffffffffffffffff604083901c1677ffffffffffffffff0000000000000000ffffffffffffffff8316612c9a9190615122565b9150610f0d608083901c6fffffffffffffffffffffffffffffffff8416615122565b600080612cc8836115d4565b9050806001600160a01b0316846001600160a01b03161480612d0f57506001600160a01b0380821660009081526010602090815260408083209388168352929052205460ff165b806127a45750836001600160a01b0316612d288461102e565b6001600160a01b031614949350505050565b826001600160a01b0316612d4d826115d4565b6001600160a01b031614612d735760405162461bcd60e51b8152600401610d339061554f565b6001600160a01b038216612dd55760405162461bcd60e51b8152602060048201526024808201527f4552433732313a207472616e7366657220746f20746865207a65726f206164646044820152637265737360e01b6064820152608401610d33565b826001600160a01b0316612de8826115d4565b6001600160a01b031614612e0e5760405162461bcd60e51b8152600401610d339061554f565b6000818152600f6020908152604080832080546001600160a01b03199081169091556001600160a01b03878116808652600e8552838620805460001901905590871680865283862080546001019055868652600d90945282852080549092168417909155905184937fddf252ad1be2c89b69c2b068fc378daa952ba7f163c4a11628f55a4df523b3ef91a4505050565b60408051600180825281830190925260609160009190602080830190803683370190505090508281600081518110612ed857612ed86150f6565b602090810291909101015292915050565b6000845111612f305760405162461bcd60e51b8152602060048201526013602482015272746f6b656e4964735b5d20697320656d70747960681b6044820152606401610d33565b835160011480612f54575061ffff8616600090815260086020526040902054845111155b612fab5760405162461bcd60e51b815260206004820152602260248201527f62617463682073697a65206578636565647320647374206261746368206c696d6044820152611a5d60f21b6064820152608401610d33565b60005b8451811015612fe457612fdc888888888581518110612fcf57612fcf6150f6565b6020026020010151613e4b565b600101612fae565b50600060018686604051602001612ffd9392919061540d565b6040516020818303038152906040529050613042876001848851600960008d61ffff1661ffff1681526020019081526020016000205461303d9190615530565b613f36565b6130508782868686346138c5565b8560405161305e9190615594565b6040518091039020886001600160a01b03168861ffff167fe1b87c47fdeb4f9cbadbca9df3af7aba453bb6e501075d0440d88125b711522a886040516130a491906155b0565b60405180910390a45050505050505050565b602081015160ff81166001141561323157600080838060200190518101906130de9190615230565b60148201519194509250905060006130f88983838661347e565b905082518110156131cc5785516020808801919091206040805160808101825261ffff808e1682526001600160a01b038088168387019081528385018881526001606086018181526000898152600a909a529887902095518654935190941662010000026001600160b01b03199093169390941692909217178355519082015592516002909301805493151560ff199094169390931790925590517f10e0b70d256bccc84b7027506978bd8b68984a870788b93b479def144c839ad7906131c29083908a906155c3565b60405180910390a1505b816001600160a01b0316886040516131e49190615594565b60405180910390208a61ffff167f5b821db8a46f8ecbe1941ba2f51cfeea9643268b56631f70d45e2a745d9902658660405161322091906155b0565b60405180910390a450505050611027565b60ff8116600214156110275760008280602001905181019061325391906155dc565b8051909250905060005b81811015613309576000601384838151811061327b5761327b6150f6565b60200260200101516000015181548110613297576132976150f6565b906000526020600020015490508382815181106132b6576132b66150f6565b602002602001015160200151811760138584815181106132d8576132d86150f6565b602002602001015160000151815481106132f4576132f46150f6565b6000918252602090912001555060010161325d565b50856040516133189190615594565b60405180910390208761ffff167f3f87fd8a477104807d0f98e80e5446db6b5df756b08a6a7437b19c8f02f4c0cd846040516133549190614f6e565b60405180910390a350505050505050565b600080546001600160a01b038381166001600160a01b0319831681178455604051919092169283917f8be0079c531659141344cd1fd0a4f28419497f9722a3daafe3b4186f6b6457e09190a35050565b6000908152600d60205260409020546001600160a01b0316151590565b6000807f00000000000000000000000000000000000000000000000000000000000000006001600160a01b03166340a7bb10873088876134118a61380d565b6040518663ffffffff1660e01b8152600401613431959493929190615446565b6040805180830381865afa15801561344d573d6000803e3d6000fd5b505050506040513d601f19601f82011682018060405250810190613471919061549a565b9150915094509492505050565b6000825b82518110156127a1576007545a101561349a576127a1565b6134be86868584815181106134b1576134b16150f6565b6020026020010151614015565b806134c8816156a7565b915050613482565b6060816134de81601f615122565b101561351d5760405162461bcd60e51b815260206004820152600e60248201526d736c6963655f6f766572666c6f7760901b6044820152606401610d33565b6135278284615122565b8451101561356b5760405162461bcd60e51b8152602060048201526011602482015270736c6963655f6f75744f66426f756e647360781b6044820152606401610d33565b60608215801561358a57604051915060008252602082016040526135d4565b6040519150601f8416801560200281840101858101878315602002848b0101015b818310156135c35780518352602092830192016135ab565b5050858452601f01601f1916604052505b50949350505050565b816001600160a01b0316836001600160a01b0316141561363f5760405162461bcd60e51b815260206004820152601960248201527f4552433732313a20617070726f766520746f2063616c6c6572000000000000006044820152606401610d33565b6001600160a01b03838116600081815260106020908152604080832094871680845294825291829020805460ff191686151590811790915591519182527f17307eab39ab6107e8899845ad3d59bd9653f200f220920489ca2b5937696c31910160405180910390a3505050565b8051600090815b8181101561375857600060138583815181106136d1576136d16150f6565b602002602001015160000151815481106136ed576136ed6150f6565b90600052602060002001549050600085838151811061370e5761370e6150f6565b60200260200101516020015182169050858381518110613730576137306150f6565b602002602001015160200151811461374e5750600095945050505050565b50506001016136b3565b5060019392505050565b805160005b8181101561116657828181518110613781576137816150f6565b60200260200101516020015160138483815181106137a1576137a16150f6565b602002602001015160000151815481106137bd576137bd6150f6565b90600052602060002001541860138483815181106137dd576137dd6150f6565b602002602001015160000151815481106137f9576137f96150f6565b600091825260209091200155600101613767565b60606000821161385f5760405162461bcd60e51b815260206004820152601d60248201527f416d6f756e74206d7573742062652067726561746572207468616e20300000006044820152606401610d33565b60125460019060009061387283866152fd565b61387c9190615530565b6011546138899190615122565b6040516001600160f01b031960f085901b1660208201526022810182905290915060420160405160208183030381529060405292505050919050565b61ffff8616600090815260016020526040812080546138e3906150ab565b80601f016020809104026020016040519081016040528092919081815260200182805461390f906150ab565b801561395c5780601f106139315761010080835404028352916020019161395c565b820191906000526020600020905b81548152906001019060200180831161393f57829003601f168201915b505050505090508051600014156139ce5760405162461bcd60e51b815260206004820152603060248201527f4c7a4170703a2064657374696e6174696f6e20636861696e206973206e6f742060448201526f61207472757374656420736f7572636560801b6064820152608401610d33565b6139d9878751614075565b60405162c5803160e81b81526001600160a01b037f0000000000000000000000000000000000000000000000000000000000000000169063c5803100908490613a30908b9086908c908c908c908c906004016156c2565b6000604051808303818588803b158015613a4957600080fd5b505af1158015613a5d573d6000803e3d6000fd5b505050505050505050505050565b613a76848484612d3a565b613a82848484846140e3565b611ad95760405162461bcd60e51b8152600401610d3390615729565b60606000613aab836141de565b60010190506000816001600160401b03811115613aca57613aca61480f565b6040519080825280601f01601f191660200182016040528015613af4576020820181803683370190505b5090508181016020015b600019016f181899199a1a9b1b9c1cb0b131b232b360811b600a86061a8153600a8504945084613b2d57613b32565b613afe565b509392505050565b60135460009081908190815b81811015613bba57600060138281548110613b6357613b636150f6565b906000526020600020015490506000613b7b82612a5e565b90508015613b9157613b8e600186615122565b94505b613b9b8187615122565b9550878610613bb05750929695505050505050565b5050600101613b46565b50600095945050505050565b600081613bd557506000919050565b600160801b8210613bf357608091821c91613bf0908261577b565b90505b680100000000000000008210613c1657604091821c91613c13908261577b565b90505b6401000000008210613c3557602091821c91613c32908261577b565b90505b620100008210613c5257601091821c91613c4f908261577b565b90505b6101008210613c6e57600891821c91613c6b908261577b565b90505b60108210613c8957600491821c91613c86908261577b565b90505b60048210613ca457600291821c91613ca1908261577b565b90505b60028210613cb757610f0d60018261577b565b919050565b6000606060008060008661ffff166001600160401b03811115613ce157613ce161480f565b6040519080825280601f01601f191660200182016040528015613d0b576020820181803683370190505b50905060008087516020890160008d8df191503d925086831115613d2d578692505b828152826000602083013e909890975095505050505050565b8180519060200120600560008761ffff1661ffff16815260200190815260200160002085604051613d779190615594565b9081526040805191829003602090810183206001600160401b0388166000908152915220919091557fe183f33de2837795525b4792ca4cd60535bd77c53b7e7030060bfcf5734d6b0c90613dd490879087908790879087906157a0565b60405180910390a15050505050565b60006001600160e01b031982166322bac5d960e01b1480610f0d57506301ffc9a760e01b6001600160e01b0319831614610f0d565b613e2283836142b6565b613e2f60008484846140e3565b6111665760405162461bcd60e51b8152600401610d3390615729565b613e54336113c0565b613eb75760405162461bcd60e51b815260206004820152602e60248201527f4f4e46543732313a2073656e642063616c6c6572206973206e6f74206f776e6560448201526d1c881b9bdc88185c1c1c9bdd995960921b6064820152608401610d33565b836001600160a01b0316613eca826115d4565b6001600160a01b031614613f2b5760405162461bcd60e51b815260206004820152602260248201527f4f4e46543732313a2073656e642066726f6d20696e636f7272656374206f776e60448201526132b960f11b6064820152608401610d33565b611ad9843083612d3a565b6000613f4183614423565b61ffff808716600090815260026020908152604080832093891683529290529081205491925090613f73908490615122565b905060008111613fc55760405162461bcd60e51b815260206004820152601a60248201527f4c7a4170703a206d696e4761734c696d6974206e6f74207365740000000000006044820152606401610d33565b808210156117085760405162461bcd60e51b815260206004820152601b60248201527f4c7a4170703a20676173206c696d697420697320746f6f206c6f7700000000006044820152606401610d33565b61401e816133b5565b158061404a575061402e816133b5565b801561404a57503061403f826115d4565b6001600160a01b0316145b61405357600080fd5b61405c816133b5565b61406a576111668282612a44565b611166308383612d3a565b61ffff82166000908152600360205260409020548061409357506127105b808211156111665760405162461bcd60e51b815260206004820181905260248201527f4c7a4170703a207061796c6f61642073697a6520697320746f6f206c617267656044820152606401610d33565b60006001600160a01b0384163b156141d657604051630a85bd0160e11b81526001600160a01b0385169063150b7a02906141279033908990889088906004016157f2565b6020604051808303816000875af1925050508015614162575060408051601f3d908101601f1916820190925261415f91810190615825565b60015b6141bc573d808015614190576040519150601f19603f3d011682016040523d82523d6000602084013e614195565b606091505b5080516141b45760405162461bcd60e51b8152600401610d3390615729565b805181602001fd5b6001600160e01b031916630a85bd0160e11b1490506127a4565b5060016127a4565b60008072184f03e93ff9f4daa797ed6e38ed64bf6a1f0160401b831061421d5772184f03e93ff9f4daa797ed6e38ed64bf6a1f0160401b830492506040015b6d04ee2d6d415b85acef81000000008310614249576d04ee2d6d415b85acef8100000000830492506020015b662386f26fc10000831061426757662386f26fc10000830492506010015b6305f5e100831061427f576305f5e100830492506008015b612710831061429357612710830492506004015b606483106142a5576064830492506002015b600a8310610f0d5760010192915050565b6001600160a01b03821661430c5760405162461bcd60e51b815260206004820181905260248201527f4552433732313a206d696e7420746f20746865207a65726f20616464726573736044820152606401610d33565b614315816133b5565b156143625760405162461bcd60e51b815260206004820152601c60248201527f4552433732313a20746f6b656e20616c7265616479206d696e746564000000006044820152606401610d33565b61436b816133b5565b156143b85760405162461bcd60e51b815260206004820152601c60248201527f4552433732313a20746f6b656e20616c7265616479206d696e746564000000006044820152606401610d33565b6001600160a01b0382166000818152600e6020908152604080832080546001019055848352600d90915280822080546001600160a01b0319168417905551839291907fddf252ad1be2c89b69c2b068fc378daa952ba7f163c4a11628f55a4df523b3ef908290a45050565b60006022825110156144775760405162461bcd60e51b815260206004820152601c60248201527f4c7a4170703a20696e76616c69642061646170746572506172616d73000000006044820152606401610d33565b506022015190565b82805461448b906150ab565b90600052602060002090601f0160209004810192826144ad57600085556144f3565b82601f106144c657805160ff19168380011785556144f3565b828001600101855582156144f3579182015b828111156144f35782518255916020019190600101906144d8565b506144ff929150614577565b5090565b82805461450f906150ab565b90600052602060002090601f01602090048101928261453157600085556144f3565b82601f1061454a5782800160ff198235161785556144f3565b828001600101855582156144f3579182015b828111156144f357823582559160200191906001019061455c565b5b808211156144ff5760008155600101614578565b61ffff8116811461134257600080fd5b60008083601f8401126145ae57600080fd5b5081356001600160401b038111156145c557600080fd5b6020830191508360208285010111156145dd57600080fd5b9250929050565b80356001600160401b0381168114613cb757600080fd5b6000806000806000806080878903121561461457600080fd5b863561461f8161458c565b955060208701356001600160401b038082111561463b57600080fd5b6146478a838b0161459c565b909750955085915061465b60408a016145e4565b9450606089013591508082111561467157600080fd5b5061467e89828a0161459c565b979a9699509497509295939492505050565b6001600160e01b03198116811461134257600080fd5b6000602082840312156146b857600080fd5b8135611cb581614690565b60005b838110156146de5781810151838201526020016146c6565b83811115611ad95750506000910152565b600081518084526147078160208601602086016146c3565b601f01601f19169290920160200192915050565b602081526000611cb560208301846146ef565b60006020828403121561474057600080fd5b8135611cb58161458c565b60006020828403121561475d57600080fd5b5035919050565b6001600160a01b038116811461134257600080fd5b8035613cb781614764565b6000806040838503121561479757600080fd5b82356147a281614764565b946020939093013593505050565b600080604083850312156147c357600080fd5b82356147a28161458c565b6000806000606084860312156147e357600080fd5b83356147ee81614764565b925060208401356147fe81614764565b929592945050506040919091013590565b634e487b7160e01b600052604160045260246000fd5b604080519081016001600160401b03811182821017156148475761484761480f565b60405290565b604051601f8201601f191681016001600160401b03811182821017156148755761487561480f565b604052919050565b60006001600160401b038211156148965761489661480f565b50601f01601f191660200190565b600082601f8301126148b557600080fd5b81356148c86148c38261487d565b61484d565b8181528460208386010111156148dd57600080fd5b816020850160208301376000918101602001919091529392505050565b80358015158114613cb757600080fd5b600080600080600060a0868803121561492257600080fd5b853561492d8161458c565b945060208601356001600160401b038082111561494957600080fd5b61495589838a016148a4565b95506040880135945061496a606089016148fa565b9350608088013591508082111561498057600080fd5b5061498d888289016148a4565b9150509295509295909350565b6000806000604084860312156149af57600080fd5b83356149ba8161458c565b925060208401356001600160401b038111156149d557600080fd5b6149e18682870161459c565b9497909650939450505050565b600080600080600080600060e0888a031215614a0957600080fd5b8735614a1481614764565b96506020880135614a248161458c565b955060408801356001600160401b0380821115614a4057600080fd5b614a4c8b838c016148a4565b965060608a0135955060808a01359150614a6582614764565b90935060a089013590614a7782614764565b90925060c08901359080821115614a8d57600080fd5b50614a9a8a828b016148a4565b91505092959891949750929550565b600080600060608486031215614abe57600080fd5b8335614ac98161458c565b925060208401356001600160401b03811115614ae457600080fd5b614af0868287016148a4565b925050614aff604085016145e4565b90509250925092565b600060208284031215614b1a57600080fd5b8135611cb581614764565b60008060408385031215614b3857600080fd5b8235614b438161458c565b91506020830135614b538161458c565b809150509250929050565b60006001600160401b03821115614b7757614b7761480f565b5060051b60200190565b600082601f830112614b9257600080fd5b81356020614ba26148c383614b5e565b82815260069290921b84018101918181019086841115614bc157600080fd5b8286015b84811015614c005760408189031215614bde5760008081fd5b614be6614825565b813581528482013585820152835291830191604001614bc5565b509695505050505050565b600080600060608486031215614c2057600080fd5b8335614c2b8161458c565b925060208401356001600160401b03811115614c4657600080fd5b614c5286828701614b81565b925050614aff604085016148fa565b600060208284031215614c7357600080fd5b81356001600160401b03811115614c8957600080fd5b6127a4848285016148a4565b60008060408385031215614ca857600080fd5b8235614cb381614764565b9150614cc1602084016148fa565b90509250929050565b60008060008060808587031215614ce057600080fd5b8435614ceb8161458c565b935060208501356001600160401b03811115614d0657600080fd5b614d1287828801614b81565b9350506040850135614d2381614764565b91506060850135614d3381614764565b939692955090935050565b600082601f830112614d4f57600080fd5b81356020614d5f6148c383614b5e565b82815260059290921b84018101918181019086841115614d7e57600080fd5b8286015b84811015614c005780358352918301918301614d82565b600080600080600080600060e0888a031215614db457600080fd5b8735614dbf81614764565b96506020880135614dcf8161458c565b955060408801356001600160401b0380821115614deb57600080fd5b614df78b838c016148a4565b965060608a0135915080821115614e0d57600080fd5b614e198b838c01614d3e565b9550614e2760808b01614779565b9450614e3560a08b01614779565b935060c08a0135915080821115614a8d57600080fd5b60008060008060808587031215614e6157600080fd5b8435614e6c81614764565b93506020850135614e7c81614764565b92506040850135915060608501356001600160401b03811115614e9e57600080fd5b614eaa878288016148a4565b91505092959194509250565b600080600080600060808688031215614ece57600080fd5b8535614ed98161458c565b94506020860135614ee98161458c565b93506040860135925060608601356001600160401b03811115614f0b57600080fd5b614f178882890161459c565b969995985093965092949392505050565b600081518084526020808501945080840160005b83811015614f63578151805188528301518388015260409096019590820190600101614f3c565b509495945050505050565b602081526000611cb56020830184614f28565b600080600060608486031215614f9657600080fd5b8335614fa18161458c565b925060208401356147fe8161458c565b60008060408385031215614fc457600080fd5b8235614fcf81614764565b91506020830135614b5381614764565b600080600080600060a08688031215614ff757600080fd5b85356150028161458c565b945060208601356001600160401b038082111561501e57600080fd5b61502a89838a016148a4565b9550604088013591508082111561504057600080fd5b61504c89838a01614d3e565b945061496a606089016148fa565b6000806000806080858703121561507057600080fd5b843561507b8161458c565b9350602085013561508b8161458c565b9250604085013561509b81614764565b9396929550929360600135925050565b600181811c908216806150bf57607f821691505b602082108114156150e057634e487b7160e01b600052602260045260246000fd5b50919050565b8183823760009101908152919050565b634e487b7160e01b600052603260045260246000fd5b634e487b7160e01b600052601160045260246000fd5b600082198211156151355761513561510c565b500190565b6020808252602d908201527f4552433732313a2063616c6c6572206973206e6f7420746f6b656e206f776e6560408201526c1c881bdc88185c1c1c9bdd9959609a1b606082015260800190565b81835281816020850137506000828201602090810191909152601f909101601f19169091010190565b61ffff841681526040602082015260006127a1604083018486615187565b61ffff831681526040602082015260006127a46040830184614f28565b600082601f8301126151fc57600080fd5b815161520a6148c38261487d565b81815284602083860101111561521f57600080fd5b6127a48260208301602087016146c3565b60008060006060848603121561524557600080fd5b83516152508161458c565b809350506020808501516001600160401b038082111561526f57600080fd5b61527b888389016151eb565b9450604087015191508082111561529157600080fd5b508501601f810187136152a357600080fd5b80516152b16148c382614b5e565b81815260059190911b820183019083810190898311156152d057600080fd5b928401925b828410156152ee578351825292840192908401906152d5565b80955050505050509250925092565b60008282101561530f5761530f61510c565b500390565b8284823760609190911b6bffffffffffffffffffffffff19169101908152601401919050565b6000835161534c8184602088016146c3565b8351908301906153608183602088016146c3565b01949350505050565b600061ffff808816835280871660208401525084604083015260806060830152615397608083018486615187565b979650505050505050565b61ffff861681526080602082015260006153c0608083018688615187565b6001600160401b0394909416604083015250606001529392505050565b600081518084526020808501945080840160005b83811015614f63578151875295820195908201906001016153f1565b61ffff8416815260606020820152600061542a60608301856146ef565b828103604084015261543c81856153dd565b9695505050505050565b61ffff861681526001600160a01b038516602082015260a060408201819052600090615474908301866146ef565b8415156060840152828103608084015261548e81856146ef565b98975050505050505050565b600080604083850312156154ad57600080fd5b505080516020909101519092909150565b6000602082840312156154d057600080fd5b81516001600160401b038111156154e657600080fd5b6127a4848285016151eb565b61ffff8516815260806020820152600061550f60808301866146ef565b6001600160401b0385166040840152828103606084015261539781856146ef565b600081600019048311821515161561554a5761554a61510c565b500290565b60208082526025908201527f4552433732313a207472616e736665722066726f6d20696e636f72726563742060408201526437bbb732b960d91b606082015260800190565b600082516155a68184602087016146c3565b9190910192915050565b602081526000611cb560208301846153dd565b8281526040602082015260006127a460408301846146ef565b60008060408084860312156155f057600080fd5b83516155fb8161458c565b809350506020808501516001600160401b0381111561561957600080fd5b8501601f8101871361562a57600080fd5b80516156386148c382614b5e565b81815260069190911b8201830190838101908983111561565757600080fd5b928401925b828410156156975785848b0312156156745760008081fd5b61567c614825565b8451815285850151868201528252928501929084019061565c565b8096505050505050509250929050565b60006000198214156156bb576156bb61510c565b5060010190565b61ffff8716815260c0602082015260006156df60c08301886146ef565b82810360408401526156f181886146ef565b6001600160a01b0387811660608601528616608085015283810360a0850152905061571c81856146ef565b9998505050505050505050565b60208082526032908201527f4552433732313a207472616e7366657220746f206e6f6e20455243373231526560408201527131b2b4bb32b91034b6b83632b6b2b73a32b960711b606082015260800190565b600060ff821660ff84168060ff038211156157985761579861510c565b019392505050565b61ffff8616815260a0602082015260006157bd60a08301876146ef565b6001600160401b038616604084015282810360608401526157de81866146ef565b9050828103608084015261548e81856146ef565b6001600160a01b038581168252841660208201526040810183905260806060820181905260009061543c908301846146ef565b60006020828403121561583757600080fd5b8151611cb58161469056fea264697066735822122006f62fa3f769f97cacdd9391fab1f90356af2d5ee814d6ba70baf598d46bd19264736f6c634300080c0033",
  "linkReferences": {},
  "deployedLinkReferences": {}
}