{
  "_format": "hh-sol-artifact-1",
  "contractName": "ComposableBasedOFT",
  "sourceName": "contracts/token/oft/composable/ComposableBasedOFT.sol",
  "abi": [
    {
      "inputs": [
        {
          "internalType": "string",
          "name": "_name",
          "type": "string"
        },
        {
          "internalType": "string",
          "name": "_symbol",
          "type": "string"
        },
        {
          "internalType": "address",
          "name": "_lzEndpoint",
          "type": "address"
        }
      ],
      "stateMutability": "nonpayable",
      "type": "constructor"
    },
    {
      "anonymous": false,
      "inputs": [
        {
          "indexed": true,
          "internalType": "address",
          "name": "owner",
          "type": "address"
        },
        {
          "indexed": true,
          "internalType": "address",
          "name": "spender",
          "type": "address"
        },
        {
          "indexed": false,
          "internalType": "uint256",
          "name": "value",
          "type": "uint256"
        }
      ],
      "name": "Approval",
      "type": "event"
    },
    {
      "anonymous": false,
      "inputs": [
        {
          "indexed": true,
          "internalType": "uint16",
          "name": "_srcChainId",
          "type": "uint16"
        },
        {
          "indexed": false,
          "internalType": "bytes",
          "name": "_srcAddress",
          "type": "bytes"
        },
        {
          "indexed": false,
          "internalType": "uint64",
          "name": "_nonce",
          "type": "uint64"
        },
        {
          "indexed": false,
          "internalType": "bytes",
          "name": "_from",
          "type": "bytes"
        },
        {
          "indexed": true,
          "internalType": "address",
          "name": "_to",
          "type": "address"
        },
        {
          "indexed": false,
          "internalType": "uint256",
          "name": "_amount",
          "type": "uint256"
        },
        {
          "indexed": false,
          "internalType": "bytes",
          "name": "_payload",
          "type": "bytes"
        },
        {
          "indexed": false,
          "internalType": "bytes",
          "name": "_reason",
          "type": "bytes"
        }
      ],
      "name": "CallOFTReceivedFailure",
      "type": "event"
    },
    {
      "anonymous": false,
      "inputs": [
        {
          "indexed": true,
          "internalType": "uint16",
          "name": "_srcChainId",
          "type": "uint16"
        },
        {
          "indexed": false,
          "internalType": "bytes",
          "name": "_srcAddress",
          "type": "bytes"
        },
        {
          "indexed": false,
          "internalType": "uint64",
          "name": "_nonce",
          "type": "uint64"
        },
        {
          "indexed": false,
          "internalType": "bytes32",
          "name": "_hash",
          "type": "bytes32"
        }
      ],
      "name": "CallOFTReceivedSuccess",
      "type": "event"
    },
    {
      "anonymous": false,
      "inputs": [
        {
          "indexed": false,
          "internalType": "uint16",
          "name": "_srcChainId",
          "type": "uint16"
        },
        {
          "indexed": false,
          "internalType": "bytes",
          "name": "_srcAddress",
          "type": "bytes"
        },
        {
          "indexed": false,
          "internalType": "uint64",
          "name": "_nonce",
          "type": "uint64"
        },
        {
          "indexed": false,
          "internalType": "bytes",
          "name": "_payload",
          "type": "bytes"
        },
        {
          "indexed": false,
          "internalType": "bytes",
          "name": "_reason",
          "type": "bytes"
        }
      ],
      "name": "MessageFailed",
      "type": "event"
    },
    {
      "anonymous": false,
      "inputs": [
        {
          "indexed": false,
          "internalType": "address",
          "name": "_address",
          "type": "address"
        }
      ],
      "name": "NonContractAddress",
      "type": "event"
    },
    {
      "anonymous": false,
      "inputs": [
        {
          "indexed": true,
          "internalType": "address",
          "name": "previousOwner",
          "type": "address"
        },
        {
          "indexed": true,
          "internalType": "address",
          "name": "newOwner",
          "type": "address"
        }
      ],
      "name": "OwnershipTransferred",
      "type": "event"
    },
    {
      "anonymous": false,
      "inputs": [
        {
          "indexed": true,
          "internalType": "uint16",
          "name": "_srcChainId",
          "type": "uint16"
        },
        {
          "indexed": true,
          "internalType": "address",
          "name": "_to",
          "type": "address"
        },
        {
          "indexed": false,
          "internalType": "uint256",
          "name": "_amount",
          "type": "uint256"
        }
      ],
      "name": "ReceiveFromChain",
      "type": "event"
    },
    {
      "anonymous": false,
      "inputs": [
        {
          "indexed": false,
          "internalType": "uint16",
          "name": "_srcChainId",
          "type": "uint16"
        },
        {
          "indexed": false,
          "internalType": "bytes",
          "name": "_srcAddress",
          "type": "bytes"
        },
        {
          "indexed": false,
          "internalType": "uint64",
          "name": "_nonce",
          "type": "uint64"
        },
        {
          "indexed": false,
          "internalType": "bytes32",
          "name": "_payloadHash",
          "type": "bytes32"
        }
      ],
      "name": "RetryMessageSuccess",
      "type": "event"
    },
    {
      "anonymous": false,
      "inputs": [
        {
          "indexed": false,
          "internalType": "bytes32",
          "name": "_messageHash",
          "type": "bytes32"
        }
      ],
      "name": "RetryOFTReceivedSuccess",
      "type": "event"
    },
    {
      "anonymous": false,
      "inputs": [
        {
          "indexed": true,
          "internalType": "uint16",
          "name": "_dstChainId",
          "type": "uint16"
        },
        {
          "indexed": true,
          "internalType": "address",
          "name": "_from",
          "type": "address"
        },
        {
          "indexed": false,
          "internalType": "bytes",
          "name": "_toAddress",
          "type": "bytes"
        },
        {
          "indexed": false,
          "internalType": "uint256",
          "name": "_amount",
          "type": "uint256"
        }
      ],
      "name": "SendToChain",
      "type": "event"
    },
    {
      "anonymous": false,
      "inputs": [
        {
          "indexed": false,
          "internalType": "uint16",
          "name": "_dstChainId",
          "type": "uint16"
        },
        {
          "indexed": false,
          "internalType": "uint16",
          "name": "_type",
          "type": "uint16"
        },
        {
          "indexed": false,
          "internalType": "uint256",
          "name": "_minDstGas",
          "type": "uint256"
        }
      ],
      "name": "SetMinDstGas",
      "type": "event"
    },
    {
      "anonymous": false,
      "inputs": [
        {
          "indexed": false,
          "internalType": "address",
          "name": "precrime",
          "type": "address"
        }
      ],
      "name": "SetPrecrime",
      "type": "event"
    },
    {
      "anonymous": false,
      "inputs": [
        {
          "indexed": false,
          "internalType": "uint16",
          "name": "_remoteChainId",
          "type": "uint16"
        },
        {
          "indexed": false,
          "internalType": "bytes",
          "name": "_path",
          "type": "bytes"
        }
      ],
      "name": "SetTrustedRemote",
      "type": "event"
    },
    {
      "anonymous": false,
      "inputs": [
        {
          "indexed": false,
          "internalType": "uint16",
          "name": "_remoteChainId",
          "type": "uint16"
        },
        {
          "indexed": false,
          "internalType": "bytes",
          "name": "_remoteAddress",
          "type": "bytes"
        }
      ],
      "name": "SetTrustedRemoteAddress",
      "type": "event"
    },
    {
      "anonymous": false,
      "inputs": [
        {
          "indexed": false,
          "internalType": "bool",
          "name": "_useCustomAdapterParams",
          "type": "bool"
        }
      ],
      "name": "SetUseCustomAdapterParams",
      "type": "event"
    },
    {
      "anonymous": false,
      "inputs": [
        {
          "indexed": true,
          "internalType": "address",
          "name": "from",
          "type": "address"
        },
        {
          "indexed": true,
          "internalType": "address",
          "name": "to",
          "type": "address"
        },
        {
          "indexed": false,
          "internalType": "uint256",
          "name": "value",
          "type": "uint256"
        }
      ],
      "name": "Transfer",
      "type": "event"
    },
    {
      "inputs": [],
      "name": "DEFAULT_PAYLOAD_SIZE_LIMIT",
      "outputs": [
        {
          "internalType": "uint256",
          "name": "",
          "type": "uint256"
        }
      ],
      "stateMutability": "view",
      "type": "function"
    },
    {
      "inputs": [],
      "name": "NO_EXTRA_GAS",
      "outputs": [
        {
          "internalType": "uint256",
          "name": "",
          "type": "uint256"
        }
      ],
      "stateMutability": "view",
      "type": "function"
    },
    {
      "inputs": [],
      "name": "PT_SEND",
      "outputs": [
        {
          "internalType": "uint16",
          "name": "",
          "type": "uint16"
        }
      ],
      "stateMutability": "view",
      "type": "function"
    },
    {
      "inputs": [],
      "name": "PT_SEND_AND_CALL",
      "outputs": [
        {
          "internalType": "uint16",
          "name": "",
          "type": "uint16"
        }
      ],
      "stateMutability": "view",
      "type": "function"
    },
    {
      "inputs": [
        {
          "internalType": "address",
          "name": "owner",
          "type": "address"
        },
        {
          "internalType": "address",
          "name": "spender",
          "type": "address"
        }
      ],
      "name": "allowance",
      "outputs": [
        {
          "internalType": "uint256",
          "name": "",
          "type": "uint256"
        }
      ],
      "stateMutability": "view",
      "type": "function"
    },
    {
      "inputs": [
        {
          "internalType": "address",
          "name": "spender",
          "type": "address"
        },
        {
          "internalType": "uint256",
          "name": "amount",
          "type": "uint256"
        }
      ],
      "name": "approve",
      "outputs": [
        {
          "internalType": "bool",
          "name": "",
          "type": "bool"
        }
      ],
      "stateMutability": "nonpayable",
      "type": "function"
    },
    {
      "inputs": [
        {
          "internalType": "address",
          "name": "account",
          "type": "address"
        }
      ],
      "name": "balanceOf",
      "outputs": [
        {
          "internalType": "uint256",
          "name": "",
          "type": "uint256"
        }
      ],
      "stateMutability": "view",
      "type": "function"
    },
    {
      "inputs": [],
      "name": "circulatingSupply",
      "outputs": [
        {
          "internalType": "uint256",
          "name": "",
          "type": "uint256"
        }
      ],
      "stateMutability": "view",
      "type": "function"
    },
    {
      "inputs": [],
      "name": "decimals",
      "outputs": [
        {
          "internalType": "uint8",
          "name": "",
          "type": "uint8"
        }
      ],
      "stateMutability": "view",
      "type": "function"
    },
    {
      "inputs": [
        {
          "internalType": "address",
          "name": "spender",
          "type": "address"
        },
        {
          "internalType": "uint256",
          "name": "subtractedValue",
          "type": "uint256"
        }
      ],
      "name": "decreaseAllowance",
      "outputs": [
        {
          "internalType": "bool",
          "name": "",
          "type": "bool"
        }
      ],
      "stateMutability": "nonpayable",
      "type": "function"
    },
    {
      "inputs": [
        {
          "internalType": "uint16",
          "name": "_dstChainId",
          "type": "uint16"
        },
        {
          "internalType": "bytes",
          "name": "_toAddress",
          "type": "bytes"
        },
        {
          "internalType": "uint256",
          "name": "_amount",
          "type": "uint256"
        },
        {
          "internalType": "bytes",
          "name": "_payload",
          "type": "bytes"
        },
        {
          "internalType": "uint64",
          "name": "_dstGasForCall",
          "type": "uint64"
        },
        {
          "internalType": "bool",
          "name": "_useZro",
          "type": "bool"
        },
        {
          "internalType": "bytes",
          "name": "_adapterParams",
          "type": "bytes"
        }
      ],
      "name": "estimateSendAndCallFee",
      "outputs": [
        {
          "internalType": "uint256",
          "name": "nativeFee",
          "type": "uint256"
        },
        {
          "internalType": "uint256",
          "name": "zroFee",
          "type": "uint256"
        }
      ],
      "stateMutability": "view",
      "type": "function"
    },
    {
      "inputs": [
        {
          "internalType": "uint16",
          "name": "_dstChainId",
          "type": "uint16"
        },
        {
          "internalType": "bytes",
          "name": "_toAddress",
          "type": "bytes"
        },
        {
          "internalType": "uint256",
          "name": "_amount",
          "type": "uint256"
        },
        {
          "internalType": "bool",
          "name": "_useZro",
          "type": "bool"
        },
        {
          "internalType": "bytes",
          "name": "_adapterParams",
          "type": "bytes"
        }
      ],
      "name": "estimateSendFee",
      "outputs": [
        {
          "internalType": "uint256",
          "name": "nativeFee",
          "type": "uint256"
        },
        {
          "internalType": "uint256",
          "name": "zroFee",
          "type": "uint256"
        }
      ],
      "stateMutability": "view",
      "type": "function"
    },
    {
      "inputs": [
        {
          "internalType": "uint16",
          "name": "",
          "type": "uint16"
        },
        {
          "internalType": "bytes",
          "name": "",
          "type": "bytes"
        },
        {
          "internalType": "uint64",
          "name": "",
          "type": "uint64"
        }
      ],
      "name": "failedMessages",
      "outputs": [
        {
          "internalType": "bytes32",
          "name": "",
          "type": "bytes32"
        }
      ],
      "stateMutability": "view",
      "type": "function"
    },
    {
      "inputs": [
        {
          "internalType": "uint16",
          "name": "",
          "type": "uint16"
        },
        {
          "internalType": "bytes",
          "name": "",
          "type": "bytes"
        },
        {
          "internalType": "uint64",
          "name": "",
          "type": "uint64"
        }
      ],
      "name": "failedOFTReceivedMessages",
      "outputs": [
        {
          "internalType": "bytes32",
          "name": "",
          "type": "bytes32"
        }
      ],
      "stateMutability": "view",
      "type": "function"
    },
    {
      "inputs": [
        {
          "internalType": "uint16",
          "name": "_srcChainId",
          "type": "uint16"
        },
        {
          "internalType": "bytes",
          "name": "_srcAddress",
          "type": "bytes"
        }
      ],
      "name": "forceResumeReceive",
      "outputs": [],
      "stateMutability": "nonpayable",
      "type": "function"
    },
    {
      "inputs": [
        {
          "internalType": "uint16",
          "name": "_version",
          "type": "uint16"
        },
        {
          "internalType": "uint16",
          "name": "_chainId",
          "type": "uint16"
        },
        {
          "internalType": "address",
          "name": "",
          "type": "address"
        },
        {
          "internalType": "uint256",
          "name": "_configType",
          "type": "uint256"
        }
      ],
      "name": "getConfig",
      "outputs": [
        {
          "internalType": "bytes",
          "name": "",
          "type": "bytes"
        }
      ],
      "stateMutability": "view",
      "type": "function"
    },
    {
      "inputs": [
        {
          "internalType": "uint16",
          "name": "_remoteChainId",
          "type": "uint16"
        }
      ],
      "name": "getTrustedRemoteAddress",
      "outputs": [
        {
          "internalType": "bytes",
          "name": "",
          "type": "bytes"
        }
      ],
      "stateMutability": "view",
      "type": "function"
    },
    {
      "inputs": [
        {
          "internalType": "address",
          "name": "spender",
          "type": "address"
        },
        {
          "internalType": "uint256",
          "name": "addedValue",
          "type": "uint256"
        }
      ],
      "name": "increaseAllowance",
      "outputs": [
        {
          "internalType": "bool",
          "name": "",
          "type": "bool"
        }
      ],
      "stateMutability": "nonpayable",
      "type": "function"
    },
    {
      "inputs": [
        {
          "internalType": "uint16",
          "name": "_srcChainId",
          "type": "uint16"
        },
        {
          "internalType": "bytes",
          "name": "_srcAddress",
          "type": "bytes"
        }
      ],
      "name": "isTrustedRemote",
      "outputs": [
        {
          "internalType": "bool",
          "name": "",
          "type": "bool"
        }
      ],
      "stateMutability": "view",
      "type": "function"
    },
    {
      "inputs": [],
      "name": "lzEndpoint",
      "outputs": [
        {
          "internalType": "contract ILayerZeroEndpoint",
          "name": "",
          "type": "address"
        }
      ],
      "stateMutability": "view",
      "type": "function"
    },
    {
      "inputs": [
        {
          "internalType": "uint16",
          "name": "_srcChainId",
          "type": "uint16"
        },
        {
          "internalType": "bytes",
          "name": "_srcAddress",
          "type": "bytes"
        },
        {
          "internalType": "uint64",
          "name": "_nonce",
          "type": "uint64"
        },
        {
          "internalType": "bytes",
          "name": "_payload",
          "type": "bytes"
        }
      ],
      "name": "lzReceive",
      "outputs": [],
      "stateMutability": "nonpayable",
      "type": "function"
    },
    {
      "inputs": [
        {
          "internalType": "uint16",
          "name": "",
          "type": "uint16"
        },
        {
          "internalType": "uint16",
          "name": "",
          "type": "uint16"
        }
      ],
      "name": "minDstGasLookup",
      "outputs": [
        {
          "internalType": "uint256",
          "name": "",
          "type": "uint256"
        }
      ],
      "stateMutability": "view",
      "type": "function"
    },
    {
      "inputs": [],
      "name": "name",
      "outputs": [
        {
          "internalType": "string",
          "name": "",
          "type": "string"
        }
      ],
      "stateMutability": "view",
      "type": "function"
    },
    {
      "inputs": [
        {
          "internalType": "uint16",
          "name": "_srcChainId",
          "type": "uint16"
        },
        {
          "internalType": "bytes",
          "name": "_srcAddress",
          "type": "bytes"
        },
        {
          "internalType": "uint64",
          "name": "_nonce",
          "type": "uint64"
        },
        {
          "internalType": "bytes",
          "name": "_payload",
          "type": "bytes"
        }
      ],
      "name": "nonblockingLzReceive",
      "outputs": [],
      "stateMutability": "nonpayable",
      "type": "function"
    },
    {
      "inputs": [],
      "name": "owner",
      "outputs": [
        {
          "internalType": "address",
          "name": "",
          "type": "address"
        }
      ],
      "stateMutability": "view",
      "type": "function"
    },
    {
      "inputs": [
        {
          "internalType": "uint16",
          "name": "",
          "type": "uint16"
        }
      ],
      "name": "payloadSizeLimitLookup",
      "outputs": [
        {
          "internalType": "uint256",
          "name": "",
          "type": "uint256"
        }
      ],
      "stateMutability": "view",
      "type": "function"
    },
    {
      "inputs": [],
      "name": "precrime",
      "outputs": [
        {
          "internalType": "address",
          "name": "",
          "type": "address"
        }
      ],
      "stateMutability": "view",
      "type": "function"
    },
    {
      "inputs": [],
      "name": "renounceOwnership",
      "outputs": [],
      "stateMutability": "nonpayable",
      "type": "function"
    },
    {
      "inputs": [
        {
          "internalType": "uint16",
          "name": "_srcChainId",
          "type": "uint16"
        },
        {
          "internalType": "bytes",
          "name": "_srcAddress",
          "type": "bytes"
        },
        {
          "internalType": "uint64",
          "name": "_nonce",
          "type": "uint64"
        },
        {
          "internalType": "bytes",
          "name": "_payload",
          "type": "bytes"
        }
      ],
      "name": "retryMessage",
      "outputs": [],
      "stateMutability": "payable",
      "type": "function"
    },
    {
      "inputs": [
        {
          "internalType": "uint16",
          "name": "_srcChainId",
          "type": "uint16"
        },
        {
          "internalType": "bytes",
          "name": "_srcAddress",
          "type": "bytes"
        },
        {
          "internalType": "uint64",
          "name": "_nonce",
          "type": "uint64"
        },
        {
          "internalType": "bytes",
          "name": "_from",
          "type": "bytes"
        },
        {
          "internalType": "address",
          "name": "_to",
          "type": "address"
        },
        {
          "internalType": "uint256",
          "name": "_amount",
          "type": "uint256"
        },
        {
          "internalType": "bytes",
          "name": "_payload",
          "type": "bytes"
        }
      ],
      "name": "retryOFTReceived",
      "outputs": [],
      "stateMutability": "nonpayable",
      "type": "function"
    },
    {
      "inputs": [
        {
          "internalType": "address",
          "name": "_from",
          "type": "address"
        },
        {
          "internalType": "uint16",
          "name": "_dstChainId",
          "type": "uint16"
        },
        {
          "internalType": "bytes",
          "name": "_toAddress",
          "type": "bytes"
        },
        {
          "internalType": "uint256",
          "name": "_amount",
          "type": "uint256"
        },
        {
          "internalType": "bytes",
          "name": "_payload",
          "type": "bytes"
        },
        {
          "internalType": "uint64",
          "name": "_dstGasForCall",
          "type": "uint64"
        },
        {
          "internalType": "address payable",
          "name": "_refundAddress",
          "type": "address"
        },
        {
          "internalType": "address",
          "name": "_zroPaymentAddress",
          "type": "address"
        },
        {
          "internalType": "bytes",
          "name": "_adapterParams",
          "type": "bytes"
        }
      ],
      "name": "sendAndCall",
      "outputs": [],
      "stateMutability": "payable",
      "type": "function"
    },
    {
      "inputs": [
        {
          "internalType": "address",
          "name": "_from",
          "type": "address"
        },
        {
          "internalType": "uint16",
          "name": "_dstChainId",
          "type": "uint16"
        },
        {
          "internalType": "bytes",
          "name": "_toAddress",
          "type": "bytes"
        },
        {
          "internalType": "uint256",
          "name": "_amount",
          "type": "uint256"
        },
        {
          "internalType": "address payable",
          "name": "_refundAddress",
          "type": "address"
        },
        {
          "internalType": "address",
          "name": "_zroPaymentAddress",
          "type": "address"
        },
        {
          "internalType": "bytes",
          "name": "_adapterParams",
          "type": "bytes"
        }
      ],
      "name": "sendFrom",
      "outputs": [],
      "stateMutability": "payable",
      "type": "function"
    },
    {
      "inputs": [
        {
          "internalType": "uint16",
          "name": "_version",
          "type": "uint16"
        },
        {
          "internalType": "uint16",
          "name": "_chainId",
          "type": "uint16"
        },
        {
          "internalType": "uint256",
          "name": "_configType",
          "type": "uint256"
        },
        {
          "internalType": "bytes",
          "name": "_config",
          "type": "bytes"
        }
      ],
      "name": "setConfig",
      "outputs": [],
      "stateMutability": "nonpayable",
      "type": "function"
    },
    {
      "inputs": [
        {
          "internalType": "uint16",
          "name": "_dstChainId",
          "type": "uint16"
        },
        {
          "internalType": "uint16",
          "name": "_packetType",
          "type": "uint16"
        },
        {
          "internalType": "uint256",
          "name": "_minGas",
          "type": "uint256"
        }
      ],
      "name": "setMinDstGas",
      "outputs": [],
      "stateMutability": "nonpayable",
      "type": "function"
    },
    {
      "inputs": [
        {
          "internalType": "uint16",
          "name": "_dstChainId",
          "type": "uint16"
        },
        {
          "internalType": "uint256",
          "name": "_size",
          "type": "uint256"
        }
      ],
      "name": "setPayloadSizeLimit",
      "outputs": [],
      "stateMutability": "nonpayable",
      "type": "function"
    },
    {
      "inputs": [
        {
          "internalType": "address",
          "name": "_precrime",
          "type": "address"
        }
      ],
      "name": "setPrecrime",
      "outputs": [],
      "stateMutability": "nonpayable",
      "type": "function"
    },
    {
      "inputs": [
        {
          "internalType": "uint16",
          "name": "_version",
          "type": "uint16"
        }
      ],
      "name": "setReceiveVersion",
      "outputs": [],
      "stateMutability": "nonpayable",
      "type": "function"
    },
    {
      "inputs": [
        {
          "internalType": "uint16",
          "name": "_version",
          "type": "uint16"
        }
      ],
      "name": "setSendVersion",
      "outputs": [],
      "stateMutability": "nonpayable",
      "type": "function"
    },
    {
      "inputs": [
        {
          "internalType": "uint16",
          "name": "_remoteChainId",
          "type": "uint16"
        },
        {
          "internalType": "bytes",
          "name": "_path",
          "type": "bytes"
        }
      ],
      "name": "setTrustedRemote",
      "outputs": [],
      "stateMutability": "nonpayable",
      "type": "function"
    },
    {
      "inputs": [
        {
          "internalType": "uint16",
          "name": "_remoteChainId",
          "type": "uint16"
        },
        {
          "internalType": "bytes",
          "name": "_remoteAddress",
          "type": "bytes"
        }
      ],
      "name": "setTrustedRemoteAddress",
      "outputs": [],
      "stateMutability": "nonpayable",
      "type": "function"
    },
    {
      "inputs": [
        {
          "internalType": "bool",
          "name": "_useCustomAdapterParams",
          "type": "bool"
        }
      ],
      "name": "setUseCustomAdapterParams",
      "outputs": [],
      "stateMutability": "nonpayable",
      "type": "function"
    },
    {
      "inputs": [
        {
          "internalType": "bytes4",
          "name": "interfaceId",
          "type": "bytes4"
        }
      ],
      "name": "supportsInterface",
      "outputs": [
        {
          "internalType": "bool",
          "name": "",
          "type": "bool"
        }
      ],
      "stateMutability": "view",
      "type": "function"
    },
    {
      "inputs": [],
      "name": "symbol",
      "outputs": [
        {
          "internalType": "string",
          "name": "",
          "type": "string"
        }
      ],
      "stateMutability": "view",
      "type": "function"
    },
    {
      "inputs": [],
      "name": "token",
      "outputs": [
        {
          "internalType": "address",
          "name": "",
          "type": "address"
        }
      ],
      "stateMutability": "view",
      "type": "function"
    },
    {
      "inputs": [],
      "name": "totalSupply",
      "outputs": [
        {
          "internalType": "uint256",
          "name": "",
          "type": "uint256"
        }
      ],
      "stateMutability": "view",
      "type": "function"
    },
    {
      "inputs": [
        {
          "internalType": "address",
          "name": "to",
          "type": "address"
        },
        {
          "internalType": "uint256",
          "name": "amount",
          "type": "uint256"
        }
      ],
      "name": "transfer",
      "outputs": [
        {
          "internalType": "bool",
          "name": "",
          "type": "bool"
        }
      ],
      "stateMutability": "nonpayable",
      "type": "function"
    },
    {
      "inputs": [
        {
          "internalType": "address",
          "name": "from",
          "type": "address"
        },
        {
          "internalType": "address",
          "name": "to",
          "type": "address"
        },
        {
          "internalType": "uint256",
          "name": "amount",
          "type": "uint256"
        }
      ],
      "name": "transferFrom",
      "outputs": [
        {
          "internalType": "bool",
          "name": "",
          "type": "bool"
        }
      ],
      "stateMutability": "nonpayable",
      "type": "function"
    },
    {
      "inputs": [
        {
          "internalType": "address",
          "name": "newOwner",
          "type": "address"
        }
      ],
      "name": "transferOwnership",
      "outputs": [],
      "stateMutability": "nonpayable",
      "type": "function"
    },
    {
      "inputs": [
        {
          "internalType": "uint16",
          "name": "",
          "type": "uint16"
        }
      ],
      "name": "trustedRemoteLookup",
      "outputs": [
        {
          "internalType": "bytes",
          "name": "",
          "type": "bytes"
        }
      ],
      "stateMutability": "view",
      "type": "function"
    },
    {
      "inputs": [],
      "name": "useCustomAdapterParams",
      "outputs": [
        {
          "internalType": "bool",
          "name": "",
          "type": "bool"
        }
      ],
      "stateMutability": "view",
      "type": "function"
    }
  ],
  "bytecode": "0x60a06040523480156200001157600080fd5b50604051620044c4380380620044c4833981016040819052620000349162000254565b828282828282808080620000483362000091565b6001600160a01b0316608052505082516200006c9150600b906020850190620000e1565b5080516200008290600c906020840190620000e1565b5050505050505050506200031e565b600080546001600160a01b038381166001600160a01b0319831681178455604051919092169283917f8be0079c531659141344cd1fd0a4f28419497f9722a3daafe3b4186f6b6457e09190a35050565b828054620000ef90620002e1565b90600052602060002090601f0160209004810192826200011357600085556200015e565b82601f106200012e57805160ff19168380011785556200015e565b828001600101855582156200015e579182015b828111156200015e57825182559160200191906001019062000141565b506200016c92915062000170565b5090565b5b808211156200016c576000815560010162000171565b634e487b7160e01b600052604160045260246000fd5b600082601f830112620001af57600080fd5b81516001600160401b0380821115620001cc57620001cc62000187565b604051601f8301601f19908116603f01168101908282118183101715620001f757620001f762000187565b816040528381526020925086838588010111156200021457600080fd5b600091505b8382101562000238578582018301518183018401529082019062000219565b838211156200024a5760008385830101525b9695505050505050565b6000806000606084860312156200026a57600080fd5b83516001600160401b03808211156200028257600080fd5b62000290878388016200019d565b94506020860151915080821115620002a757600080fd5b50620002b6868287016200019d565b604086015190935090506001600160a01b0381168114620002d657600080fd5b809150509250925092565b600181811c90821680620002f657607f821691505b602082108114156200031857634e487b7160e01b600052602260045260246000fd5b50919050565b60805161414b62000379600039600081816107b30152818161099601528181610cc801528181610d8801528181610e2601528181610fc301528181611538015281816115ff01528181611d7f01526128eb015261414b6000f3fe6080604052600436106102c85760003560e01c80638da5cb5b11610175578063cbed8b9c116100dc578063e7f0c59f11610095578063ed629c5c1161006f578063ed629c5c14610926578063f2fde38b14610940578063f5ecbdbc14610960578063fc0c546a1461098057600080fd5b8063e7f0c59f146108d3578063eab45d9c146108e6578063eb8d72b71461090657600080fd5b8063cbed8b9c1461082b578063cfd6528e1461084b578063d1deba1f1461086b578063dd62ed3e1461087e578063df2a5b3b1461089e578063e6a20ae6146108be57600080fd5b8063a6c3d1651161012e578063a6c3d16514610761578063a9059cbb14610781578063b353aaa7146107a1578063baf3292d146107d5578063c4461834146107f5578063c8598dca1461080b57600080fd5b80638da5cb5b146106945780639358928b146106c6578063950c8a74146106ec57806395d89b411461070c5780639f38369a14610721578063a457c2d71461074157600080fd5b80633d8b38f6116102345780635b8c41e6116101ed57806370a08231116101c757806370a08231146105f1578063715018a6146106275780637533d7881461063c5780638cfd8f5c1461065c57600080fd5b80635b8c41e6146105335780636096cc581461058257806366ad5c8a146105d157600080fd5b80633d8b38f6146104765780633f1f4fa41461049657806342d65a8d146104c357806344770515146104e35780634c42899a146104f8578063519056361461052057600080fd5b806310ddb1371161028657806310ddb137146103a657806318160ddd146103c657806323b872dd146103e55780632a205e3d14610405578063313ce5671461043a578063395093511461045657600080fd5b80621d3567146102cd57806301ffc9a7146102ef57806306fdde031461032457806307e0db1714610346578063095ea7b3146103665780630df3748314610386575b600080fd5b3480156102d957600080fd5b506102ed6102e836600461306b565b610993565b005b3480156102fb57600080fd5b5061030f61030a366004613101565b610bc4565b60405190151581526020015b60405180910390f35b34801561033057600080fd5b50610339610c15565b60405161031b9190613183565b34801561035257600080fd5b506102ed610361366004613196565b610ca7565b34801561037257600080fd5b5061030f6103813660046131d3565b610d30565b34801561039257600080fd5b506102ed6103a13660046131ff565b610d48565b3480156103b257600080fd5b506102ed6103c1366004613196565b610d67565b3480156103d257600080fd5b50600a545b60405190815260200161031b565b3480156103f157600080fd5b5061030f61040036600461321d565b610dbf565b34801561041157600080fd5b5061042561042036600461326e565b610de3565b6040805192835260208301919091520161031b565b34801561044657600080fd5b506040516012815260200161031b565b34801561046257600080fd5b5061030f6104713660046131d3565b610eb6565b34801561048257600080fd5b5061030f61049136600461330d565b610ed8565b3480156104a257600080fd5b506103d76104b1366004613196565b60036020526000908152604090205481565b3480156104cf57600080fd5b506102ed6104de36600461330d565b610fa4565b3480156104ef57600080fd5b506103d7600081565b34801561050457600080fd5b5061050d600081565b60405161ffff909116815260200161031b565b6102ed61052e366004613361565b61102a565b34801561053f57600080fd5b506103d761054e366004613497565b6005602090815260009384526040808520845180860184018051928152908401958401959095209452929052825290205481565b34801561058e57600080fd5b506103d761059d366004613497565b6007602090815260009384526040808520845180860184018051928152908401958401959095209452929052825290205481565b3480156105dd57600080fd5b506102ed6105ec36600461306b565b6110af565b3480156105fd57600080fd5b506103d761060c36600461353d565b6001600160a01b031660009081526008602052604090205490565b34801561063357600080fd5b506102ed61118b565b34801561064857600080fd5b50610339610657366004613196565b61119f565b34801561066857600080fd5b506103d761067736600461355a565b600260209081526000928352604080842090915290825290205481565b3480156106a057600080fd5b506000546001600160a01b03165b6040516001600160a01b03909116815260200161031b565b3480156106d257600080fd5b5030600090815260086020526040902054600a54036103d7565b3480156106f857600080fd5b506004546106ae906001600160a01b031681565b34801561071857600080fd5b50610339611239565b34801561072d57600080fd5b5061033961073c366004613196565b611248565b34801561074d57600080fd5b5061030f61075c3660046131d3565b61135f565b34801561076d57600080fd5b506102ed61077c36600461330d565b6113da565b34801561078d57600080fd5b5061030f61079c3660046131d3565b61146d565b3480156107ad57600080fd5b506106ae7f000000000000000000000000000000000000000000000000000000000000000081565b3480156107e157600080fd5b506102ed6107f036600461353d565b61147b565b34801561080157600080fd5b506103d761271081565b34801561081757600080fd5b50610425610826366004613593565b6114d8565b34801561083757600080fd5b506102ed610846366004613671565b6115e0565b34801561085757600080fd5b506102ed6108663660046136e3565b61166a565b6102ed61087936600461306b565b6118b0565b34801561088a57600080fd5b506103d761089936600461379d565b611ac6565b3480156108aa57600080fd5b506102ed6108b93660046137cb565b611af1565b3480156108ca57600080fd5b5061050d600181565b6102ed6108e13660046137fb565b611ba3565b3480156108f257600080fd5b506102ed610901366004613904565b611c32565b34801561091257600080fd5b506102ed61092136600461330d565b611c7b565b34801561093257600080fd5b5060065461030f9060ff1681565b34801561094c57600080fd5b506102ed61095b36600461353d565b611cd5565b34801561096c57600080fd5b5061033961097b36600461391f565b611d4e565b34801561098c57600080fd5b50306106ae565b337f00000000000000000000000000000000000000000000000000000000000000006001600160a01b031614610a105760405162461bcd60e51b815260206004820152601e60248201527f4c7a4170703a20696e76616c696420656e64706f696e742063616c6c6572000060448201526064015b60405180910390fd5b61ffff861660009081526001602052604081208054610a2e90613970565b80601f0160208091040260200160405190810160405280929190818152602001828054610a5a90613970565b8015610aa75780601f10610a7c57610100808354040283529160200191610aa7565b820191906000526020600020905b815481529060010190602001808311610a8a57829003601f168201915b50505050509050805186869050148015610ac2575060008151115b8015610aea575080516020820120604051610ae090889088906139ab565b6040518091039020145b610b455760405162461bcd60e51b815260206004820152602660248201527f4c7a4170703a20696e76616c696420736f757263652073656e64696e6720636f6044820152651b9d1c9858dd60d21b6064820152608401610a07565b610bbb8787878080601f01602080910402602001604051908101604052809392919081815260200183838082843760009201919091525050604080516020601f8a018190048102820181019092528881528a935091508890889081908401838280828437600092019190915250611dff92505050565b50505050505050565b60006001600160e01b031982161580610be557506001600160e01b03198216155b80610c0057506001600160e01b031982166336372b0760e01b145b80610c0f5750610c0f82611e78565b92915050565b6060600b8054610c2490613970565b80601f0160208091040260200160405190810160405280929190818152602001828054610c5090613970565b8015610c9d5780601f10610c7257610100808354040283529160200191610c9d565b820191906000526020600020905b815481529060010190602001808311610c8057829003601f168201915b5050505050905090565b610caf611e9d565b6040516307e0db1760e01b815261ffff821660048201527f00000000000000000000000000000000000000000000000000000000000000006001600160a01b0316906307e0db17906024015b600060405180830381600087803b158015610d1557600080fd5b505af1158015610d29573d6000803e3d6000fd5b5050505050565b600033610d3e818585611ef7565b5060019392505050565b610d50611e9d565b61ffff909116600090815260036020526040902055565b610d6f611e9d565b6040516310ddb13760e01b815261ffff821660048201527f00000000000000000000000000000000000000000000000000000000000000006001600160a01b0316906310ddb13790602401610cfb565b600033610dcd85828561201b565b610dd8858585612095565b506001949350505050565b600080600080898989604051602001610dff94939291906139e4565b60408051601f198184030181529082905263040a7bb160e41b825291506001600160a01b037f000000000000000000000000000000000000000000000000000000000000000016906340a7bb1090610e65908d90309086908c908c908c90600401613a13565b6040805180830381865afa158015610e81573d6000803e3d6000fd5b505050506040513d601f19601f82011682018060405250810190610ea59190613a69565b925092505097509795505050505050565b600033610d3e818585610ec98383611ac6565b610ed39190613aa3565b611ef7565b61ffff831660009081526001602052604081208054829190610ef990613970565b80601f0160208091040260200160405190810160405280929190818152602001828054610f2590613970565b8015610f725780601f10610f4757610100808354040283529160200191610f72565b820191906000526020600020905b815481529060010190602001808311610f5557829003601f168201915b505050505090508383604051610f899291906139ab565b60405180910390208180519060200120149150509392505050565b610fac611e9d565b6040516342d65a8d60e01b81526001600160a01b037f000000000000000000000000000000000000000000000000000000000000000016906342d65a8d90610ffc90869086908690600401613abb565b600060405180830381600087803b15801561101657600080fd5b505af1158015610bbb573d6000803e3d6000fd5b6110a4898989898080601f01602080910402602001604051908101604052809392919081815260200183838082843760009201919091525050604080516020601f8a018190048102820181019092528881528c93508b92508a918a908a908190840183828082843760009201919091525061224092505050565b505050505050505050565b33301461110d5760405162461bcd60e51b815260206004820152602660248201527f4e6f6e626c6f636b696e674c7a4170703a2063616c6c6572206d7573742062656044820152650204c7a4170760d41b6064820152608401610a07565b6111838686868080601f01602080910402602001604051908101604052809392919081815260200183838082843760009201919091525050604080516020601f8901819004810282018101909252878152899350915087908790819084018382808284376000920191909152506122e792505050565b505050505050565b611193611e9d565b61119d6000612376565b565b600160205260009081526040902080546111b890613970565b80601f01602080910402602001604051908101604052809291908181526020018280546111e490613970565b80156112315780601f1061120657610100808354040283529160200191611231565b820191906000526020600020905b81548152906001019060200180831161121457829003601f168201915b505050505081565b6060600c8054610c2490613970565b61ffff811660009081526001602052604081208054606092919061126b90613970565b80601f016020809104026020016040519081016040528092919081815260200182805461129790613970565b80156112e45780601f106112b9576101008083540402835291602001916112e4565b820191906000526020600020905b8154815290600101906020018083116112c757829003601f168201915b5050505050905080516000141561133d5760405162461bcd60e51b815260206004820152601d60248201527f4c7a4170703a206e6f20747275737465642070617468207265636f72640000006044820152606401610a07565b6113586000601483516113509190613ad9565b8391906123c6565b9392505050565b6000338161136d8286611ac6565b9050838110156113cd5760405162461bcd60e51b815260206004820152602560248201527f45524332303a2064656372656173656420616c6c6f77616e63652062656c6f77604482015264207a65726f60d81b6064820152608401610a07565b610dd88286868403611ef7565b6113e2611e9d565b8181306040516020016113f793929190613af0565b60408051601f1981840301815291815261ffff8516600090815260016020908152919020825161142c93919290910190612ed6565b507f8c0400cfe2d1199b1a725c78960bcc2a344d869b80590d0f2bd005db15a572ce83838360405161146093929190613abb565b60405180910390a1505050565b600033610d3e818585612095565b611483611e9d565b600480546001600160a01b0319166001600160a01b0383169081179091556040519081527f5db758e995a17ec1ad84bdef7e8c3293a0bd6179bcce400dff5d4c3d87db726b906020015b60405180910390a150565b6040516001600160601b03193360601b1660208201526000908190819060019060340160408051601f198184030181529082905261152592918f908f908f908f908f908f90602001613b11565b60405160208183030381529060405290507f00000000000000000000000000000000000000000000000000000000000000006001600160a01b03166340a7bb108e30848a8a8a6040518763ffffffff1660e01b815260040161158c96959493929190613a13565b6040805180830381865afa1580156115a8573d6000803e3d6000fd5b505050506040513d601f19601f820116820180604052508101906115cc9190613a69565b92509250509a509a98505050505050505050565b6115e8611e9d565b6040516332fb62e760e21b81526001600160a01b037f0000000000000000000000000000000000000000000000000000000000000000169063cbed8b9c9061163c9088908890889088908890600401613b7b565b600060405180830381600087803b15801561165657600080fd5b505af11580156110a4573d6000803e3d6000fd5b61ffff8a16600090815260076020526040808220905161168d908c908c906139ab565b90815260408051602092819003830190206001600160401b038b16600090815292529020549050806117175760405162461bcd60e51b815260206004820152602d60248201527f436f6d706f7361626c654f4654436f72653a206e6f206661696c6564206d657360448201526c7361676520746f20726574727960981b6064820152608401610a07565b600087878787878760405160200161173496959493929190613bb4565b6040516020818303038152906040528051906020012090508181146117b35760405162461bcd60e51b815260206004820152602f60248201527f436f6d706f7361626c654f4654436f72653a206661696c6564206d657373616760448201526e0ca40d0c2e6d040dad2e6dac2e8c6d608b1b6064820152608401610a07565b61ffff8c166000908152600760205260409081902090516117d7908d908d906139ab565b9081526040805191829003602090810183206001600160401b038d16600090815291529081205563147a7d7160e01b81526001600160a01b0387169063147a7d7190611837908f908f908f908f908f908f908e908e908e90600401613bf1565b600060405180830381600087803b15801561185157600080fd5b505af1158015611865573d6000803e3d6000fd5b505050507f41ea88d75e53240e2c5ace3a3d7263efe6c8f4fe42c0e3ef269f71daef1001c88160405161189a91815260200190565b60405180910390a1505050505050505050505050565b61ffff861660009081526005602052604080822090516118d390889088906139ab565b90815260408051602092819003830190206001600160401b038716600090815292529020549050806119535760405162461bcd60e51b815260206004820152602360248201527f4e6f6e626c6f636b696e674c7a4170703a206e6f2073746f726564206d65737360448201526261676560e81b6064820152608401610a07565b8083836040516119649291906139ab565b6040518091039020146119c35760405162461bcd60e51b815260206004820152602160248201527f4e6f6e626c6f636b696e674c7a4170703a20696e76616c6964207061796c6f616044820152601960fa1b6064820152608401610a07565b61ffff871660009081526005602052604080822090516119e690899089906139ab565b90815260408051602092819003830181206001600160401b038916600090815290845282902093909355601f88018290048202830182019052868252611a7e918991899089908190840183828082843760009201919091525050604080516020601f8a018190048102820181019092528881528a9350915088908890819084018382808284376000920191909152506122e792505050565b7fc264d91f3adc5588250e1551f547752ca0cfa8f6b530d243b9f9f4cab10ea8e58787878785604051611ab5959493929190613c5c565b60405180910390a150505050505050565b6001600160a01b03918216600090815260096020908152604080832093909416825291909152205490565b611af9611e9d565b60008111611b415760405162461bcd60e51b81526020600482015260156024820152744c7a4170703a20696e76616c6964206d696e47617360581b6044820152606401610a07565b61ffff83811660008181526002602090815260408083209487168084529482529182902085905581519283528201929092529081018290527f9d5c7c0b934da8fefa9c7760c98383778a12dfbfc0c3b3106518f43fb9508ac090606001611460565b611c248c8c8c8c8080601f01602080910402602001604051908101604052809392919081815260200183838082843760009201919091525050604080516020601f8a018190048102820181019092528881528f93508e92508d918d918d918d91908d908d90819084018382808284376000920191909152506124d392505050565b505050505050505050505050565b611c3a611e9d565b6006805460ff19168215159081179091556040519081527f1584ad594a70cbe1e6515592e1272a987d922b097ead875069cebe8b40c004a4906020016114cd565b611c83611e9d565b61ffff83166000908152600160205260409020611ca1908383612f5a565b507ffa41487ad5d6728f0b19276fa1eddc16558578f5109fc39d2dc33c3230470dab83838360405161146093929190613abb565b611cdd611e9d565b6001600160a01b038116611d425760405162461bcd60e51b815260206004820152602660248201527f4f776e61626c653a206e6577206f776e657220697320746865207a65726f206160448201526564647265737360d01b6064820152608401610a07565b611d4b81612376565b50565b604051633d7b2f6f60e21b815261ffff808616600483015284166024820152306044820152606481018290526060907f00000000000000000000000000000000000000000000000000000000000000006001600160a01b03169063f5ecbdbc90608401600060405180830381865afa158015611dce573d6000803e3d6000fd5b505050506040513d6000823e601f3d908101601f19168201604052611df69190810190613ce4565b95945050505050565b600080611e625a60966366ad5c8a60e01b89898989604051602401611e279493929190613d18565b60408051601f198184030181529190526020810180516001600160e01b03166001600160e01b031990931692909217909152309291906125b3565b915091508161118357611183868686868561263d565b60006001600160e01b0319821663e07f1adb60e01b1480610c0f5750610c0f826126da565b6000546001600160a01b0316331461119d5760405162461bcd60e51b815260206004820181905260248201527f4f776e61626c653a2063616c6c6572206973206e6f7420746865206f776e65726044820152606401610a07565b6001600160a01b038316611f595760405162461bcd60e51b8152602060048201526024808201527f45524332303a20617070726f76652066726f6d20746865207a65726f206164646044820152637265737360e01b6064820152608401610a07565b6001600160a01b038216611fba5760405162461bcd60e51b815260206004820152602260248201527f45524332303a20617070726f766520746f20746865207a65726f206164647265604482015261737360f01b6064820152608401610a07565b6001600160a01b0383811660008181526009602090815260408083209487168084529482529182902085905590518481527f8c5be1e5ebec7d5bd14f71427d1e84f3dd0314c0f7b2291e5b200ac8c7c3b925910160405180910390a3505050565b60006120278484611ac6565b9050600019811461208f57818110156120825760405162461bcd60e51b815260206004820152601d60248201527f45524332303a20696e73756666696369656e7420616c6c6f77616e63650000006044820152606401610a07565b61208f8484848403611ef7565b50505050565b6001600160a01b0383166120f95760405162461bcd60e51b815260206004820152602560248201527f45524332303a207472616e736665722066726f6d20746865207a65726f206164604482015264647265737360d81b6064820152608401610a07565b6001600160a01b03821661215b5760405162461bcd60e51b815260206004820152602360248201527f45524332303a207472616e7366657220746f20746865207a65726f206164647260448201526265737360e81b6064820152608401610a07565b6001600160a01b038316600090815260086020526040902054818110156121d35760405162461bcd60e51b815260206004820152602660248201527f45524332303a207472616e7366657220616d6f756e7420657863656564732062604482015265616c616e636560d01b6064820152608401610a07565b6001600160a01b0380851660008181526008602052604080822086860390559286168082529083902080548601905591517fddf252ad1be2c89b69c2b068fc378daa952ba7f163c4a11628f55a4df523b3ef906122339086815260200190565b60405180910390a361208f565b61224e866000836000612714565b600061225c8888888861278e565b9050600080878360405160200161227593929190613d56565b60405160208183030381529060405290506122948882878787346127c1565b886001600160a01b03168861ffff167f39a4c66499bcf4b56d79f0dde8ed7a9d4925a0df55825206b2b8531e202be0d089856040516122d4929190613d83565b60405180910390a3505050505050505050565b602081015161ffff81166123065761230185858585612959565b610d29565b61ffff81166001141561231f57612301858585856129e3565b60405162461bcd60e51b815260206004820152602660248201527f436f6d706f7361626c654f4654436f72653a20756e6b6e6f776e207061636b6560448201526574207479706560d01b6064820152608401610a07565b600080546001600160a01b038381166001600160a01b0319831681178455604051919092169283917f8be0079c531659141344cd1fd0a4f28419497f9722a3daafe3b4186f6b6457e09190a35050565b6060816123d481601f613aa3565b10156124135760405162461bcd60e51b815260206004820152600e60248201526d736c6963655f6f766572666c6f7760901b6044820152606401610a07565b61241d8284613aa3565b845110156124615760405162461bcd60e51b8152602060048201526011602482015270736c6963655f6f75744f66426f756e647360781b6044820152606401610a07565b60608215801561248057604051915060008252602082016040526124ca565b6040519150601f8416801560200281840101858101878315602002848b0101015b818310156124b95780518352602092830192016124a1565b5050858452601f01601f1916604052505b50949350505050565b6124e989600183876001600160401b0316612714565b60006124f78b8b8b8b61278e565b604080513360601b6001600160601b0319166020820152815160148183030181526034820190925291925060009161253e916001918d9086908d908d908d90605401613da5565b604051602081830303815290604052905061255d8b82878787346127c1565b8b6001600160a01b03168b61ffff167f39a4c66499bcf4b56d79f0dde8ed7a9d4925a0df55825206b2b8531e202be0d08c8560405161259d929190613d83565b60405180910390a3505050505050505050505050565b6000606060008060008661ffff166001600160401b038111156125d8576125d861342a565b6040519080825280601f01601f191660200182016040528015612602576020820181803683370190505b50905060008087516020890160008d8df191503d925086831115612624578692505b828152826000602083013e909890975095505050505050565b8180519060200120600560008761ffff1661ffff1681526020019081526020016000208560405161266e9190613e0d565b9081526040805191829003602090810183206001600160401b0388166000908152915220919091557fe183f33de2837795525b4792ca4cd60535bd77c53b7e7030060bfcf5734d6b0c906126cb9087908790879087908790613e29565b60405180910390a15050505050565b60006001600160e01b03198216630a72677560e11b1480610c0f57506301ffc9a760e01b6001600160e01b0319831614610c0f565b505050565b60065460ff16156127305761272b84848484612af2565b61208f565b81511561208f5760405162461bcd60e51b815260206004820152602660248201527f4f4654436f72653a205f61646170746572506172616d73206d7573742062652060448201526532b6b83a3c9760d11b6064820152608401610a07565b6000336001600160a01b03861681146127ac576127ac86828561201b565b6127b7863085612095565b5090949350505050565b61ffff8616600090815260016020526040812080546127df90613970565b80601f016020809104026020016040519081016040528092919081815260200182805461280b90613970565b80156128585780601f1061282d57610100808354040283529160200191612858565b820191906000526020600020905b81548152906001019060200180831161283b57829003601f168201915b505050505090508051600014156128ca5760405162461bcd60e51b815260206004820152603060248201527f4c7a4170703a2064657374696e6174696f6e20636861696e206973206e6f742060448201526f61207472757374656420736f7572636560801b6064820152608401610a07565b6128d5878751612bd1565b60405162c5803160e81b81526001600160a01b037f0000000000000000000000000000000000000000000000000000000000000000169063c580310090849061292c908b9086908c908c908c908c90600401613e87565b6000604051808303818588803b15801561294557600080fd5b505af1158015611c24573d6000803e3d6000fd5b600080828060200190518101906129709190613ee1565b9093509150600090506129838382612c3f565b9050612990878284612ca4565b9150806001600160a01b03168761ffff167fbf551ec93859b170f9b2141bd9298bf3f64322c6f7beb2543a0cb669834118bf846040516129d291815260200190565b60405180910390a350505050505050565b6000806000806000858060200190518101906129ff9190613f3a565b95509550955095509550506000612a20600086612c3f90919063ffffffff16565b9050612a2d8a8286612ca4565b9350806001600160a01b03168a61ffff167fbf551ec93859b170f9b2141bd9298bf3f64322c6f7beb2543a0cb669834118bf86604051612a6f91815260200190565b60405180910390a36001600160a01b0381163b612acd576040516001600160a01b03821681527f9aedf5fdba8716db3b6705ca00150643309995d4f818a249ed6dde6677e7792d9060200160405180910390a150505050505061208f565b612ae68a8a8a89858989896001600160401b0316612cb8565b50505050505050505050565b6000612afd83612e7a565b61ffff808716600090815260026020908152604080832093891683529290529081205491925090612b2f908490613aa3565b905060008111612b815760405162461bcd60e51b815260206004820152601a60248201527f4c7a4170703a206d696e4761734c696d6974206e6f74207365740000000000006044820152606401610a07565b808210156111835760405162461bcd60e51b815260206004820152601b60248201527f4c7a4170703a20676173206c696d697420697320746f6f206c6f7700000000006044820152606401610a07565b61ffff821660009081526003602052604090205480612bef57506127105b8082111561270f5760405162461bcd60e51b815260206004820181905260248201527f4c7a4170703a207061796c6f61642073697a6520697320746f6f206c617267656044820152606401610a07565b6000612c4c826014613aa3565b83511015612c945760405162461bcd60e51b8152602060048201526015602482015274746f416464726573735f6f75744f66426f756e647360581b6044820152606401610a07565b500160200151600160601b900490565b6000612cb1308484612095565b5092915050565b600080612d2883609663147a7d7160e01b8d8d8d8d8c8c604051602401612ce496959493929190613ff2565b60408051601f198184030181529190526020810180516001600160e01b03166001600160e01b0319909316929092179091526001600160a01b038a169291906125b3565b9150915081612dfc5786868686604051602001612d48949392919061404a565b60408051601f19818403018152828252805160209182012061ffff8e16600090815260079092529190209091612d7f908c90613e0d565b9081526040805191829003602090810183206001600160401b038d166000908152915220919091556001600160a01b0387169061ffff8c16907f95c1ad3ef50dd05e668d7b80e9a723079395ac4867a4050552d5d9219e683d7490612def908d908d908d908c908c908a90614085565b60405180910390a3612ae6565b600087878787604051602001612e15949392919061404a565b6040516020818303038152906040528051906020012090508a61ffff167fb8890edbfc1c74692f527444645f95489c3703cc2df42e4a366f5d06fa6cd8848b8b84604051612e65939291906140e7565b60405180910390a25050505050505050505050565b6000602282511015612ece5760405162461bcd60e51b815260206004820152601c60248201527f4c7a4170703a20696e76616c69642061646170746572506172616d73000000006044820152606401610a07565b506022015190565b828054612ee290613970565b90600052602060002090601f016020900481019282612f045760008555612f4a565b82601f10612f1d57805160ff1916838001178555612f4a565b82800160010185558215612f4a579182015b82811115612f4a578251825591602001919060010190612f2f565b50612f56929150612fce565b5090565b828054612f6690613970565b90600052602060002090601f016020900481019282612f885760008555612f4a565b82601f10612fa15782800160ff19823516178555612f4a565b82800160010185558215612f4a579182015b82811115612f4a578235825591602001919060010190612fb3565b5b80821115612f565760008155600101612fcf565b61ffff81168114611d4b57600080fd5b8035612ffe81612fe3565b919050565b60008083601f84011261301557600080fd5b5081356001600160401b0381111561302c57600080fd5b60208301915083602082850101111561304457600080fd5b9250929050565b6001600160401b0381168114611d4b57600080fd5b8035612ffe8161304b565b6000806000806000806080878903121561308457600080fd5b863561308f81612fe3565b955060208701356001600160401b03808211156130ab57600080fd5b6130b78a838b01613003565b9097509550604089013591506130cc8261304b565b909350606088013590808211156130e257600080fd5b506130ef89828a01613003565b979a9699509497509295939492505050565b60006020828403121561311357600080fd5b81356001600160e01b03198116811461135857600080fd5b60005b8381101561314657818101518382015260200161312e565b8381111561208f5750506000910152565b6000815180845261316f81602086016020860161312b565b601f01601f19169290920160200192915050565b6020815260006113586020830184613157565b6000602082840312156131a857600080fd5b813561135881612fe3565b6001600160a01b0381168114611d4b57600080fd5b8035612ffe816131b3565b600080604083850312156131e657600080fd5b82356131f1816131b3565b946020939093013593505050565b6000806040838503121561321257600080fd5b82356131f181612fe3565b60008060006060848603121561323257600080fd5b833561323d816131b3565b9250602084013561324d816131b3565b929592945050506040919091013590565b80358015158114612ffe57600080fd5b600080600080600080600060a0888a03121561328957600080fd5b873561329481612fe3565b965060208801356001600160401b03808211156132b057600080fd5b6132bc8b838c01613003565b909850965060408a013595508691506132d760608b0161325e565b945060808a01359150808211156132ed57600080fd5b506132fa8a828b01613003565b989b979a50959850939692959293505050565b60008060006040848603121561332257600080fd5b833561332d81612fe3565b925060208401356001600160401b0381111561334857600080fd5b61335486828701613003565b9497909650939450505050565b600080600080600080600080600060e08a8c03121561337f57600080fd5b893561338a816131b3565b985060208a013561339a81612fe3565b975060408a01356001600160401b03808211156133b657600080fd5b6133c28d838e01613003565b909950975060608c0135965060808c013591506133de826131b3565b90945060a08b0135906133f0826131b3565b90935060c08b0135908082111561340657600080fd5b506134138c828d01613003565b915080935050809150509295985092959850929598565b634e487b7160e01b600052604160045260246000fd5b604051601f8201601f191681016001600160401b03811182821017156134685761346861342a565b604052919050565b60006001600160401b038211156134895761348961342a565b50601f01601f191660200190565b6000806000606084860312156134ac57600080fd5b83356134b781612fe3565b925060208401356001600160401b038111156134d257600080fd5b8401601f810186136134e357600080fd5b80356134f66134f182613470565b613440565b81815287602083850101111561350b57600080fd5b8160208401602083013760006020838301015280945050505060408401356135328161304b565b809150509250925092565b60006020828403121561354f57600080fd5b8135611358816131b3565b6000806040838503121561356d57600080fd5b823561357881612fe3565b9150602083013561358881612fe3565b809150509250929050565b60008060008060008060008060008060e08b8d0312156135b257600080fd5b8a356135bd81612fe3565b995060208b01356001600160401b03808211156135d957600080fd5b6135e58e838f01613003565b909b50995060408d0135985060608d013591508082111561360557600080fd5b6136118e838f01613003565b909850965060808d013591506136268261304b565b81955061363560a08e0161325e565b945060c08d013591508082111561364b57600080fd5b506136588d828e01613003565b915080935050809150509295989b9194979a5092959850565b60008060008060006080868803121561368957600080fd5b853561369481612fe3565b945060208601356136a481612fe3565b93506040860135925060608601356001600160401b038111156136c657600080fd5b6136d288828901613003565b969995985093965092949392505050565b60008060008060008060008060008060e08b8d03121561370257600080fd5b8a3561370d81612fe3565b995060208b01356001600160401b038082111561372957600080fd5b6137358e838f01613003565b909b50995060408d0135915061374a8261304b565b90975060608c0135908082111561376057600080fd5b61376c8e838f01613003565b909850965086915061378060808e016131c8565b955060a08d0135945060c08d013591508082111561364b57600080fd5b600080604083850312156137b057600080fd5b82356137bb816131b3565b91506020830135613588816131b3565b6000806000606084860312156137e057600080fd5b83356137eb81612fe3565b9250602084013561324d81612fe3565b6000806000806000806000806000806000806101208d8f03121561381e57600080fd5b6138278d6131c8565b9b5061383560208e01612ff3565b9a506001600160401b0360408e0135111561384f57600080fd5b61385f8e60408f01358f01613003565b909a50985060608d013597506001600160401b0360808e0135111561388357600080fd5b6138938e60808f01358f01613003565b90975095506138a460a08e01613060565b94506138b260c08e016131c8565b93506138c060e08e016131c8565b92506001600160401b036101008e013511156138db57600080fd5b6138ec8e6101008f01358f01613003565b81935080925050509295989b509295989b509295989b565b60006020828403121561391657600080fd5b6113588261325e565b6000806000806080858703121561393557600080fd5b843561394081612fe3565b9350602085013561395081612fe3565b92506040850135613960816131b3565b9396929550929360600135925050565b600181811c9082168061398457607f821691505b602082108114156139a557634e487b7160e01b600052602260045260246000fd5b50919050565b8183823760009101908152919050565b81835281816020850137506000828201602090810191909152601f909101601f19169091010190565b61ffff85168152606060208201526000613a026060830185876139bb565b905082604083015295945050505050565b61ffff871681526001600160a01b038616602082015260a060408201819052600090613a4190830187613157565b85151560608401528281036080840152613a5c8185876139bb565b9998505050505050505050565b60008060408385031215613a7c57600080fd5b505080516020909101519092909150565b634e487b7160e01b600052601160045260246000fd5b60008219821115613ab657613ab6613a8d565b500190565b61ffff84168152604060208201526000611df66040830184866139bb565b600082821015613aeb57613aeb613a8d565b500390565b8284823760609190911b6001600160601b0319169101908152601401919050565b61ffff8916815260c060208201526000613b2e60c083018a613157565b8281036040840152613b4181898b6139bb565b90508660608401528281036080840152613b5c8186886139bb565b9150506001600160401b03831660a08301529998505050505050505050565b600061ffff808816835280871660208401525084604083015260806060830152613ba96080830184866139bb565b979650505050505050565b608081526000613bc860808301888a6139bb565b6001600160a01b0387166020840152604083018690528281036060840152613a5c8185876139bb565b61ffff8a16815260c060208201526000613c0f60c083018a8c6139bb565b6001600160401b03891660408401528281036060840152613c3181888a6139bb565b905085608084015282810360a0840152613c4c8185876139bb565b9c9b505050505050505050505050565b61ffff86168152608060208201526000613c7a6080830186886139bb565b6001600160401b0394909416604083015250606001529392505050565b600082601f830112613ca857600080fd5b8151613cb66134f182613470565b818152846020838601011115613ccb57600080fd5b613cdc82602083016020870161312b565b949350505050565b600060208284031215613cf657600080fd5b81516001600160401b03811115613d0c57600080fd5b613cdc84828501613c97565b61ffff85168152608060208201526000613d356080830186613157565b6001600160401b03851660408401528281036060840152613ba98185613157565b61ffff84168152606060208201526000613d736060830185613157565b9050826040830152949350505050565b604081526000613d966040830185613157565b90508260208301529392505050565b61ffff8816815260c060208201526000613dc260c0830189613157565b8281036040840152613dd48189613157565b90508660608401528281036080840152613def8186886139bb565b9150506001600160401b03831660a083015298975050505050505050565b60008251613e1f81846020870161312b565b9190910192915050565b61ffff8616815260a060208201526000613e4660a0830187613157565b6001600160401b03861660408401528281036060840152613e678186613157565b90508281036080840152613e7b8185613157565b98975050505050505050565b61ffff8716815260c060208201526000613ea460c0830188613157565b8281036040840152613eb68188613157565b6001600160a01b0387811660608601528616608085015283810360a08501529050613a5c8185613157565b600080600060608486031215613ef657600080fd5b8351613f0181612fe3565b60208501519093506001600160401b03811115613f1d57600080fd5b613f2986828701613c97565b925050604084015190509250925092565b60008060008060008060c08789031215613f5357600080fd5b8651613f5e81612fe3565b60208801519096506001600160401b0380821115613f7b57600080fd5b613f878a838b01613c97565b96506040890151915080821115613f9d57600080fd5b613fa98a838b01613c97565b9550606089015194506080890151915080821115613fc657600080fd5b50613fd389828a01613c97565b92505060a0870151613fe48161304b565b809150509295509295509295565b61ffff8716815260c06020820152600061400f60c0830188613157565b6001600160401b038716604084015282810360608401526140308187613157565b905084608084015282810360a0840152613a5c8185613157565b60808152600061405d6080830187613157565b6001600160a01b0386166020840152604083018590528281036060840152613ba98185613157565b60c08152600061409860c0830189613157565b6001600160401b038816602084015282810360408401526140b98188613157565b905085606084015282810360808401526140d38186613157565b905082810360a0840152613a5c8185613157565b6060815260006140fa6060830186613157565b6001600160401b03949094166020830152506040015291905056fea2646970667358221220fa319b57d2237ed470ed9041713c59cb260fbefccb21860e444aa074d803d3c064736f6c634300080c0033",
  "linkReferences": {},
  "deployedLinkReferences": {}
}