{
  "_format": "hh-sol-artifact-1",
  "contractName": "StargateFeeLibraryV04",
  "sourceName": "contracts/libraries/StargateFeeLibraryV04.sol",
  "abi": [
    {
      "inputs": [
        {
          "internalType": "address",
          "name": "_factory",
          "type": "address"
        },
        {
          "internalType": "address",
          "name": "_lpStakingContract",
          "type": "address"
        },
        {
          "internalType": "int256",
          "name": "_depegThreshold",
          "type": "int256"
        }
      ],
      "stateMutability": "nonpayable",
      "type": "constructor"
    },
    {
      "anonymous": false,
      "inputs": [
        {
          "indexed": true,
          "internalType": "address",
          "name": "previousOwner",
          "type": "address"
        },
        {
          "indexed": true,
          "internalType": "address",
          "name": "newOwner",
          "type": "address"
        }
      ],
      "name": "OwnershipTransferred",
      "type": "event"
    },
    {
      "inputs": [],
      "name": "DELTA_1",
      "outputs": [
        {
          "internalType": "uint256",
          "name": "",
          "type": "uint256"
        }
      ],
      "stateMutability": "view",
      "type": "function"
    },
    {
      "inputs": [],
      "name": "DELTA_2",
      "outputs": [
        {
          "internalType": "uint256",
          "name": "",
          "type": "uint256"
        }
      ],
      "stateMutability": "view",
      "type": "function"
    },
    {
      "inputs": [],
      "name": "DENOMINATOR",
      "outputs": [
        {
          "internalType": "uint256",
          "name": "",
          "type": "uint256"
        }
      ],
      "stateMutability": "view",
      "type": "function"
    },
    {
      "inputs": [],
      "name": "FIFTY_PERCENT",
      "outputs": [
        {
          "internalType": "uint256",
          "name": "",
          "type": "uint256"
        }
      ],
      "stateMutability": "view",
      "type": "function"
    },
    {
      "inputs": [],
      "name": "LAMBDA_1",
      "outputs": [
        {
          "internalType": "uint256",
          "name": "",
          "type": "uint256"
        }
      ],
      "stateMutability": "view",
      "type": "function"
    },
    {
      "inputs": [],
      "name": "LAMBDA_2",
      "outputs": [
        {
          "internalType": "uint256",
          "name": "",
          "type": "uint256"
        }
      ],
      "stateMutability": "view",
      "type": "function"
    },
    {
      "inputs": [],
      "name": "LP_FEE",
      "outputs": [
        {
          "internalType": "uint256",
          "name": "",
          "type": "uint256"
        }
      ],
      "stateMutability": "view",
      "type": "function"
    },
    {
      "inputs": [],
      "name": "PROTOCOL_FEE",
      "outputs": [
        {
          "internalType": "uint256",
          "name": "",
          "type": "uint256"
        }
      ],
      "stateMutability": "view",
      "type": "function"
    },
    {
      "inputs": [],
      "name": "PROTOCOL_SUBSIDY",
      "outputs": [
        {
          "internalType": "uint256",
          "name": "",
          "type": "uint256"
        }
      ],
      "stateMutability": "view",
      "type": "function"
    },
    {
      "inputs": [],
      "name": "SIXTY_PERCENT",
      "outputs": [
        {
          "internalType": "uint256",
          "name": "",
          "type": "uint256"
        }
      ],
      "stateMutability": "view",
      "type": "function"
    },
    {
      "inputs": [],
      "name": "depegThreshold",
      "outputs": [
        {
          "internalType": "int256",
          "name": "",
          "type": "int256"
        }
      ],
      "stateMutability": "view",
      "type": "function"
    },
    {
      "inputs": [],
      "name": "factory",
      "outputs": [
        {
          "internalType": "contract Factory",
          "name": "",
          "type": "address"
        }
      ],
      "stateMutability": "view",
      "type": "function"
    },
    {
      "inputs": [
        {
          "internalType": "uint256",
          "name": "_amountSD",
          "type": "uint256"
        },
        {
          "internalType": "uint256",
          "name": "_currentAssetSD",
          "type": "uint256"
        },
        {
          "internalType": "uint256",
          "name": "_lpAsset",
          "type": "uint256"
        },
        {
          "internalType": "uint256",
          "name": "_rewardPoolSize",
          "type": "uint256"
        }
      ],
      "name": "getEqReward",
      "outputs": [
        {
          "internalType": "uint256",
          "name": "eqReward",
          "type": "uint256"
        }
      ],
      "stateMutability": "pure",
      "type": "function"
    },
    {
      "inputs": [
        {
          "internalType": "uint256",
          "name": "idealBalance",
          "type": "uint256"
        },
        {
          "internalType": "uint256",
          "name": "beforeBalance",
          "type": "uint256"
        },
        {
          "internalType": "uint256",
          "name": "amountSD",
          "type": "uint256"
        }
      ],
      "name": "getEquilibriumFee",
      "outputs": [
        {
          "internalType": "uint256",
          "name": "",
          "type": "uint256"
        },
        {
          "internalType": "uint256",
          "name": "",
          "type": "uint256"
        }
      ],
      "stateMutability": "pure",
      "type": "function"
    },
    {
      "inputs": [
        {
          "internalType": "uint256",
          "name": "_srcPoolId",
          "type": "uint256"
        },
        {
          "internalType": "uint256",
          "name": "_dstPoolId",
          "type": "uint256"
        },
        {
          "internalType": "uint16",
          "name": "_dstChainId",
          "type": "uint16"
        },
        {
          "internalType": "address",
          "name": "_from",
          "type": "address"
        },
        {
          "internalType": "uint256",
          "name": "_amountSD",
          "type": "uint256"
        }
      ],
      "name": "getFees",
      "outputs": [
        {
          "components": [
            {
              "internalType": "uint256",
              "name": "amount",
              "type": "uint256"
            },
            {
              "internalType": "uint256",
              "name": "eqFee",
              "type": "uint256"
            },
            {
              "internalType": "uint256",
              "name": "eqReward",
              "type": "uint256"
            },
            {
              "internalType": "uint256",
              "name": "lpFee",
              "type": "uint256"
            },
            {
              "internalType": "uint256",
              "name": "protocolFee",
              "type": "uint256"
            },
            {
              "internalType": "uint256",
              "name": "lkbRemove",
              "type": "uint256"
            }
          ],
          "internalType": "struct Pool.SwapObj",
          "name": "s",
          "type": "tuple"
        }
      ],
      "stateMutability": "view",
      "type": "function"
    },
    {
      "inputs": [
        {
          "internalType": "uint256",
          "name": "_amountSD",
          "type": "uint256"
        },
        {
          "internalType": "uint256",
          "name": "_currentAssetSD",
          "type": "uint256"
        },
        {
          "internalType": "uint256",
          "name": "_lpAsset",
          "type": "uint256"
        },
        {
          "internalType": "uint256",
          "name": "_protocolSubsidy",
          "type": "uint256"
        },
        {
          "internalType": "uint256",
          "name": "_srcPoolId",
          "type": "uint256"
        },
        {
          "components": [
            {
              "internalType": "bool",
              "name": "ready",
              "type": "bool"
            },
            {
              "internalType": "uint16",
              "name": "dstChainId",
              "type": "uint16"
            },
            {
              "internalType": "uint256",
              "name": "dstPoolId",
              "type": "uint256"
            },
            {
              "internalType": "uint256",
              "name": "weight",
              "type": "uint256"
            },
            {
              "internalType": "uint256",
              "name": "balance",
              "type": "uint256"
            },
            {
              "internalType": "uint256",
              "name": "lkb",
              "type": "uint256"
            },
            {
              "internalType": "uint256",
              "name": "credits",
              "type": "uint256"
            },
            {
              "internalType": "uint256",
              "name": "idealBalance",
              "type": "uint256"
            }
          ],
          "internalType": "struct Pool.ChainPath",
          "name": "_chainPath",
          "type": "tuple"
        }
      ],
      "name": "getProtocolAndLpFee",
      "outputs": [
        {
          "internalType": "uint256",
          "name": "protocolFee",
          "type": "uint256"
        },
        {
          "internalType": "uint256",
          "name": "lpFee",
          "type": "uint256"
        }
      ],
      "stateMutability": "view",
      "type": "function"
    },
    {
      "inputs": [
        {
          "internalType": "uint256",
          "name": "lambda",
          "type": "uint256"
        },
        {
          "internalType": "uint256",
          "name": "yOffset",
          "type": "uint256"
        },
        {
          "internalType": "uint256",
          "name": "xUpperBound",
          "type": "uint256"
        },
        {
          "internalType": "uint256",
          "name": "xLowerBound",
          "type": "uint256"
        },
        {
          "internalType": "uint256",
          "name": "xStart",
          "type": "uint256"
        },
        {
          "internalType": "uint256",
          "name": "xEnd",
          "type": "uint256"
        }
      ],
      "name": "getTrapezoidArea",
      "outputs": [
        {
          "internalType": "uint256",
          "name": "",
          "type": "uint256"
        }
      ],
      "stateMutability": "pure",
      "type": "function"
    },
    {
      "inputs": [],
      "name": "getVersion",
      "outputs": [
        {
          "internalType": "string",
          "name": "",
          "type": "string"
        }
      ],
      "stateMutability": "pure",
      "type": "function"
    },
    {
      "inputs": [],
      "name": "lpStaking",
      "outputs": [
        {
          "internalType": "contract IStargateLPStaking",
          "name": "",
          "type": "address"
        }
      ],
      "stateMutability": "view",
      "type": "function"
    },
    {
      "inputs": [],
      "name": "owner",
      "outputs": [
        {
          "internalType": "address",
          "name": "",
          "type": "address"
        }
      ],
      "stateMutability": "view",
      "type": "function"
    },
    {
      "inputs": [
        {
          "internalType": "uint256",
          "name": "",
          "type": "uint256"
        }
      ],
      "name": "poolIdToLpId",
      "outputs": [
        {
          "internalType": "uint256",
          "name": "",
          "type": "uint256"
        }
      ],
      "stateMutability": "view",
      "type": "function"
    },
    {
      "inputs": [
        {
          "internalType": "uint256",
          "name": "",
          "type": "uint256"
        }
      ],
      "name": "poolIdToPriceFeed",
      "outputs": [
        {
          "internalType": "address",
          "name": "",
          "type": "address"
        }
      ],
      "stateMutability": "view",
      "type": "function"
    },
    {
      "inputs": [],
      "name": "renounceOwnership",
      "outputs": [],
      "stateMutability": "nonpayable",
      "type": "function"
    },
    {
      "inputs": [
        {
          "internalType": "int256",
          "name": "_depegThreshold",
          "type": "int256"
        }
      ],
      "name": "setDepegThreshold",
      "outputs": [],
      "stateMutability": "nonpayable",
      "type": "function"
    },
    {
      "inputs": [
        {
          "internalType": "uint256",
          "name": "_poolId",
          "type": "uint256"
        },
        {
          "internalType": "address",
          "name": "_priceFeedAddress",
          "type": "address"
        }
      ],
      "name": "setPoolIdToPriceFeedAddress",
      "outputs": [],
      "stateMutability": "nonpayable",
      "type": "function"
    },
    {
      "inputs": [
        {
          "internalType": "uint256",
          "name": "_poolId",
          "type": "uint256"
        },
        {
          "internalType": "uint256",
          "name": "_lpId",
          "type": "uint256"
        }
      ],
      "name": "setPoolToLpId",
      "outputs": [],
      "stateMutability": "nonpayable",
      "type": "function"
    },
    {
      "inputs": [
        {
          "internalType": "address",
          "name": "newOwner",
          "type": "address"
        }
      ],
      "name": "transferOwnership",
      "outputs": [],
      "stateMutability": "nonpayable",
      "type": "function"
    },
    {
      "inputs": [
        {
          "internalType": "address",
          "name": "_from",
          "type": "address"
        },
        {
          "internalType": "bool",
          "name": "_whiteListed",
          "type": "bool"
        }
      ],
      "name": "whiteList",
      "outputs": [],
      "stateMutability": "nonpayable",
      "type": "function"
    },
    {
      "inputs": [
        {
          "internalType": "address",
          "name": "",
          "type": "address"
        }
      ],
      "name": "whitelist",
      "outputs": [
        {
          "internalType": "bool",
          "name": "",
          "type": "bool"
        }
      ],
      "stateMutability": "view",
      "type": "function"
    }
  ],
  "bytecode": "0x60c06040523480156200001157600080fd5b506040516200220d3803806200220d833981016040819052620000349162000151565b60006200004062000130565b600080546001600160a01b0319166001600160a01b0383169081178255604051929350917f8be0079c531659141344cd1fd0a4f28419497f9722a3daafe3b4186f6b6457e0908290a350600180556001600160a01b038316620000c05760405162461bcd60e51b8152600401620000b79062000191565b60405180910390fd5b6001600160a01b038216620000e95760405162461bcd60e51b8152600401620000b790620001d2565b600081136200010c5760405162461bcd60e51b8152600401620000b79062000215565b6001600160601b0319606093841b81166080529190921b1660a0526002556200025c565b3390565b80516001600160a01b03811681146200014c57600080fd5b919050565b60008060006060848603121562000166578283fd5b620001718462000134565b9250620001816020850162000134565b9150604084015190509250925092565b60208082526021908201527f4665654c6962726172793a20466163746f72792063616e6e6f742062652030786040820152600360fc1b606082015260800190565b60208082526023908201527f4665654c6962726172793a204c505374616b696e672063616e6e6f742062652060408201526203078360ec1b606082015260800190565b60208082526027908201527f4665654c6962726172793a205f64657065675468726573686f6c64206d7573746040820152660206265203e20360cc1b606082015260800190565b60805160601c60a05160601c611f7d6200029060003980610d25528061143f52508061058f5280610e4f5250611f7d6000f3fe608060405234801561001057600080fd5b50600436106101cf5760003560e01c806360d86e7711610104578063918f8674116100a2578063af8884f011610071578063af8884f01461035c578063c45a01551461036f578063d16baeb914610377578063f2fde38b1461038a576101cf565b8063918f8674146103245780639b19251a1461032c5780639bf1401c1461034c578063a810de6c14610354576101cf565b80637ba5c12f116100de5780637ba5c12f146103015780637dc9633f14610309578063886a9c50146102a65780638da5cb5b1461031c576101cf565b806360d86e77146102d35780636548c4ac146102e6578063715018a6146102f9576101cf565b80632d4310ad116101715780633dad0dd51161014b5780633dad0dd5146102a6578063518a9f9f146102ae5780635994e07e146102b65780635e3f2727146102cb576101cf565b80632d4310ad1461026a57806334b6a6021461027d5780633d4912c31461029e576101cf565b80630d8e6e2c116101ad5780630d8e6e2c1461021a57806313c6e3801461022f5780631ab62430146102425780631e04cbf314610262576101cf565b8063012a1c2d146101d4578063084285da146101f25780630b4501fd14610212575b600080fd5b6101dc61039d565b6040516101e99190611cb5565b60405180910390f35b610205610200366004611946565b6103a9565b6040516101e99190611c89565b6101dc6103d1565b6102226103dc565b6040516101e99190611cbe565b6101dc61023d366004611946565b610413565b610255610250366004611a52565b610425565b6040516101e99190611e57565b6101dc6109ef565b6101dc610278366004611ace565b6109fb565b61029061028b366004611aa3565b610a14565b6040516101e9929190611eaf565b6101dc610a2e565b6101dc610a34565b6101dc610a40565b6102c96102c4366004611946565b610a4b565b005b6101dc610b32565b6101dc6102e1366004611bf8565b610b3c565b6102c96102f4366004611a31565b610b57565b6102c9610c11565b6101dc610cbb565b610290610317366004611aff565b610cc5565b610205610ce6565b6101dc610d02565b61033f61033a366004611898565b610d0e565b6040516101e99190611caa565b610205610d23565b6101dc610d47565b6102c961036a366004611a0d565b610d52565b610205610e4d565b6102c96103853660046118d0565b610e71565b6102c9610398366004611898565b610f6f565b670dd280b9144a000081565b60056020526000908152604090205473ffffffffffffffffffffffffffffffffffffffff1681565b6601c6bf5263400081565b60408051808201909152600581527f342e302e30000000000000000000000000000000000000000000000000000000602082015290565b60046020526000908152604090205481565b61042d611817565b6000868152600560205260409020548690869073ffffffffffffffffffffffffffffffffffffffff1681831480159061047b575073ffffffffffffffffffffffffffffffffffffffff811615155b1561054d5760008173ffffffffffffffffffffffffffffffffffffffff1663feaf968c6040518163ffffffff1660e01b815260040160a06040518083038186803b1580156104c857600080fd5b505afa1580156104dc573d6000803e3d6000fd5b505050506040513d601f19601f820116820180604052508101906105009190611c3a565b50505091505060025481121561054b576040517f08c379a000000000000000000000000000000000000000000000000000000000815260040161054290611d9d565b60405180910390fd5b505b6040517f068bcd8d000000000000000000000000000000000000000000000000000000008152899060009073ffffffffffffffffffffffffffffffffffffffff7f0000000000000000000000000000000000000000000000000000000000000000169063068bcd8d906105c4908590600401611cb5565b60206040518083038186803b1580156105dc57600080fd5b505afa1580156105f0573d6000803e3d6000fd5b505050506040513d601f19601f8201168201806040525081019061061491906118b4565b905060008173ffffffffffffffffffffffffffffffffffffffff1663159f6add8b8d6040518363ffffffff1660e01b8152600401610653929190611e9b565b6101006040518083038186803b15801561066c57600080fd5b505afa158015610680573d6000803e3d6000fd5b505050506040513d601f19601f820116820180604052508101906106a4919061195e565b905060008273ffffffffffffffffffffffffffffffffffffffff1663fc0c546a6040518163ffffffff1660e01b815260040160206040518083038186803b1580156106ee57600080fd5b505afa158015610702573d6000803e3d6000fd5b505050506040513d601f19601f8201168201806040525081019061072691906118b4565b905060006108538473ffffffffffffffffffffffffffffffffffffffff1663feb56b156040518163ffffffff1660e01b815260040160206040518083038186803b15801561077357600080fd5b505afa158015610787573d6000803e3d6000fd5b505050506040513d601f19601f820116820180604052508101906107ab91906119f5565b6040517f70a0823100000000000000000000000000000000000000000000000000000000815273ffffffffffffffffffffffffffffffffffffffff8516906370a08231906107fd908990600401611c89565b60206040518083038186803b15801561081557600080fd5b505afa158015610829573d6000803e3d6000fd5b505050506040513d601f19601f8201168201806040525081019061084d91906119f5565b90611110565b905060008473ffffffffffffffffffffffffffffffffffffffff166315770f926040518163ffffffff1660e01b815260040160206040518083038186803b15801561089d57600080fd5b505afa1580156108b1573d6000803e3d6000fd5b505050506040513d601f19601f820116820180604052508101906108d591906119f5565b90506109608b83838873ffffffffffffffffffffffffffffffffffffffff16639bb811196040518163ffffffff1660e01b815260040160206040518083038186803b15801561092357600080fd5b505afa158015610937573d6000803e3d6000fd5b505050506040513d601f19601f8201168201806040525081019061095b91906119f5565b611193565b60408b015260e0840151608085015160009161097c918e611217565b6020808e019290925273ffffffffffffffffffffffffffffffffffffffff8f166000908152600390925260409091205490915060ff16156109c357505050505050506109e3565b6109d18c8484848b8a6113a4565b60608d015260808c0152505050505050505b50505095945050505050565b6706f05b59d3b2000081565b6000610a0985858585611193565b90505b949350505050565b600080610a22858585611217565b91509150935093915050565b60025481565b670853a0d2313c000081565b66b1a2bc2ec5000081565b610a536115e4565b73ffffffffffffffffffffffffffffffffffffffff16610a71610ce6565b73ffffffffffffffffffffffffffffffffffffffff1614610af357604080517f08c379a000000000000000000000000000000000000000000000000000000000815260206004820181905260248201527f4f776e61626c653a2063616c6c6572206973206e6f7420746865206f776e6572604482015290519081900360640190fd5b60008113610b2d576040517f08c379a000000000000000000000000000000000000000000000000000000000815260040161054290611dfa565b600255565b655af3107a400081565b6000610b4c8787878787876115e8565b979650505050505050565b610b5f6115e4565b73ffffffffffffffffffffffffffffffffffffffff16610b7d610ce6565b73ffffffffffffffffffffffffffffffffffffffff1614610bff57604080517f08c379a000000000000000000000000000000000000000000000000000000000815260206004820181905260248201527f4f776e61626c653a2063616c6c6572206973206e6f7420746865206f776e6572604482015290519081900360640190fd5b60009182526004602052604090912055565b610c196115e4565b73ffffffffffffffffffffffffffffffffffffffff16610c37610ce6565b73ffffffffffffffffffffffffffffffffffffffff1614610cb957604080517f08c379a000000000000000000000000000000000000000000000000000000000815260206004820181905260248201527f4f776e61626c653a2063616c6c6572206973206e6f7420746865206f776e6572604482015290519081900360640190fd5b565b651b48eb57e00081565b600080610cd68888888888886113a4565b915091505b965096945050505050565b60005473ffffffffffffffffffffffffffffffffffffffff1690565b670de0b6b3a764000081565b60036020526000908152604090205460ff1681565b7f000000000000000000000000000000000000000000000000000000000000000081565b660e35fa931a000081565b610d5a6115e4565b73ffffffffffffffffffffffffffffffffffffffff16610d78610ce6565b73ffffffffffffffffffffffffffffffffffffffff1614610dfa57604080517f08c379a000000000000000000000000000000000000000000000000000000000815260206004820181905260248201527f4f776e61626c653a2063616c6c6572206973206e6f7420746865206f776e6572604482015290519081900360640190fd5b60009182526005602052604090912080547fffffffffffffffffffffffff00000000000000000000000000000000000000001673ffffffffffffffffffffffffffffffffffffffff909216919091179055565b7f000000000000000000000000000000000000000000000000000000000000000081565b610e796115e4565b73ffffffffffffffffffffffffffffffffffffffff16610e97610ce6565b73ffffffffffffffffffffffffffffffffffffffff1614610f1957604080517f08c379a000000000000000000000000000000000000000000000000000000000815260206004820181905260248201527f4f776e61626c653a2063616c6c6572206973206e6f7420746865206f776e6572604482015290519081900360640190fd5b73ffffffffffffffffffffffffffffffffffffffff91909116600090815260036020526040902080547fffffffffffffffffffffffffffffffffffffffffffffffffffffffffffffff0016911515919091179055565b610f776115e4565b73ffffffffffffffffffffffffffffffffffffffff16610f95610ce6565b73ffffffffffffffffffffffffffffffffffffffff161461101757604080517f08c379a000000000000000000000000000000000000000000000000000000000815260206004820181905260248201527f4f776e61626c653a2063616c6c6572206973206e6f7420746865206f776e6572604482015290519081900360640190fd5b73ffffffffffffffffffffffffffffffffffffffff8116611083576040517f08c379a0000000000000000000000000000000000000000000000000000000008152600401808060200182810382526026815260200180611f016026913960400191505060405180910390fd5b6000805460405173ffffffffffffffffffffffffffffffffffffffff808516939216917f8be0079c531659141344cd1fd0a4f28419497f9722a3daafe3b4186f6b6457e091a3600080547fffffffffffffffffffffffff00000000000000000000000000000000000000001673ffffffffffffffffffffffffffffffffffffffff92909216919091179055565b600080821161118057604080517f08c379a000000000000000000000000000000000000000000000000000000000815260206004820152601a60248201527f536166654d6174683a206469766973696f6e206279207a65726f000000000000604482015290519081900360640190fd5b81838161118957fe5b0490505b92915050565b60008383116111a457506000610a0c565b60006111b084866116b2565b9050604b6111c38561084d886064611729565b1080156111e357506111d6816002611729565b6111e1876064611729565b115b15611209576111f68161084d8589611729565b915082821115611204578291505b61120e565b600091505b50949350505050565b60008082841015611254576040517f08c379a000000000000000000000000000000000000000000000000000000000815260040161054290611d66565b600061126085856116b2565b90506000611282670de0b6b3a764000061084d89670853a0d2313c0000611729565b905060006112a3670de0b6b3a764000061084d8a66b1a2bc2ec50000611729565b90506000808385106112d5576112cb670de0b6b3a764000061084d8a651b48eb57e000611729565b9150819050611395565b82851061130d576000848a106112eb57846112ed565b895b9050611305660e35fa931a000060008787858b6115e8565b925050611395565b82891061136a576000848a106113235784611325565b895b9050611347611340660e35fa931a000060008888868a6115e8565b84906117a3565b9250611305611340670dd280b9144a0000660e35fa931a0000876000898c6115e8565b61139261138b670dd280b9144a0000660e35fa931a00008660008e8b6115e8565b83906117a3565b91505b90999098509650505050505050565b6000806113ce856113c8670de0b6b3a764000061084d8c6601c6bf52634000611729565b906116b2565b91506113ec670de0b6b3a764000061084d8a655af3107a4000611729565b60008581526004602081905260408083205490517f1526fe27000000000000000000000000000000000000000000000000000000008152939450919273ffffffffffffffffffffffffffffffffffffffff7f00000000000000000000000000000000000000000000000000000000000000001692631526fe27926114709201611cb5565b60806040518083038186803b15801561148857600080fd5b505afa15801561149c573d6000803e3d6000fd5b505050506040513d601f19601f820116820180604052508101906114c09190611908565b505091505060008111156114df576114d883836117a3565b9250600091505b866114ea5750610cdb565b6000611517670de0b6b3a764000061084d670853a0d2313c00008860e0015161172990919063ffffffff16565b6080860151611526908c6116b2565b11905060006115418961084d8c670de0b6b3a7640000611729565b90506706f05b59d3b2000081111580156115585750815b1561156a5760009450600093506115d6565b670853a0d2313c00008110801561157e5750815b156115d65760006115a2600a61159c846706f05b59d3b200006116b2565b90611729565b90506115ba670de0b6b3a764000061084d8884611729565b95506115d2670de0b6b3a764000061084d8784611729565b9450505b505050965096945050505050565b3390565b60008382101580156115fa5750848311155b611630576040517f08c379a000000000000000000000000000000000000000000000000000000000815260040161054290611d2f565b600061163c86866116b2565b9050600061165c886116568461084d8d61159c8d8c6116b2565b906117a3565b90506000611676896116568561084d8e61159c8e8c6116b2565b9050600061168487876116b2565b90506116a3670de0b6b3a764000061084d6002818561159c89896117a3565b9b9a5050505050505050505050565b60008282111561172357604080517f08c379a000000000000000000000000000000000000000000000000000000000815260206004820152601e60248201527f536166654d6174683a207375627472616374696f6e206f766572666c6f770000604482015290519081900360640190fd5b50900390565b6000826117385750600061118d565b8282028284828161174557fe5b041461179c576040517f08c379a0000000000000000000000000000000000000000000000000000000008152600401808060200182810382526021815260200180611f276021913960400191505060405180910390fd5b9392505050565b60008282018381101561179c57604080517f08c379a000000000000000000000000000000000000000000000000000000000815260206004820152601b60248201527f536166654d6174683a206164646974696f6e206f766572666c6f770000000000604482015290519081900360640190fd5b6040518060c001604052806000815260200160008152602001600081526020016000815260200160008152602001600081525090565b803561185881611ee2565b919050565b805161185881611ee2565b803561185881611ef0565b805161185881611ef0565b805169ffffffffffffffffffff8116811461185857600080fd5b6000602082840312156118a9578081fd5b813561179c81611ebd565b6000602082840312156118c5578081fd5b815161179c81611ebd565b600080604083850312156118e2578081fd5b82356118ed81611ebd565b915060208301356118fd81611ee2565b809150509250929050565b6000806000806080858703121561191d578182fd5b845161192881611ebd565b60208601516040870151606090970151919890975090945092505050565b600060208284031215611957578081fd5b5035919050565b6000610100808385031215611971578182fd5b6040519081019067ffffffffffffffff8211818310171561198e57fe5b8160405261199b8461185d565b81526119a960208501611873565b602082015260408401516040820152606084015160608201526080840151608082015260a084015160a082015260c084015160c082015260e084015160e0820152809250505092915050565b600060208284031215611a06578081fd5b5051919050565b60008060408385031215611a1f578182fd5b8235915060208301356118fd81611ebd565b60008060408385031215611a43578182fd5b50508035926020909101359150565b600080600080600060a08688031215611a69578283fd5b85359450602086013593506040860135611a8281611ef0565b92506060860135611a9281611ebd565b949793965091946080013592915050565b600080600060608486031215611ab7578081fd5b505081359360208301359350604090920135919050565b60008060008060808587031215611ae3578182fd5b5050823594602084013594506040840135936060013592509050565b6000806000806000808688036101a0811215611b19578485fd5b8735965060208801359550604088013594506060880135935060808801359250610100807fffffffffffffffffffffffffffffffffffffffffffffffffffffffffffffff6083011215611b6a578283fd5b604051915080820182811067ffffffffffffffff82111715611b8857fe5b604052611b9760a08a0161184d565b8252611ba560c08a01611868565b602083015260e0890135604083015280890135606083015250610120880135608082015261014088013560a082015261016088013560c082015261018088013560e0820152809150509295509295509295565b60008060008060008060c08789031215611c10578384fd5b505084359660208601359650604086013595606081013595506080810135945060a0013592509050565b600080600080600060a08688031215611c51578283fd5b611c5a8661187e565b9450602086015193506040860151925060608601519150611c7d6080870161187e565b90509295509295909350565b73ffffffffffffffffffffffffffffffffffffffff91909116815260200190565b901515815260200190565b90815260200190565b6000602080835283518082850152825b81811015611cea57858101830151858201604001528201611cce565b81811115611cfb5783604083870101525b50601f017fffffffffffffffffffffffffffffffffffffffffffffffffffffffffffffffe016929092016040019392505050565b6020808252601e908201527f53746172676174653a2062616c616e6365206f7574206f6620626f756e640000604082015260600190565b6020808252601c908201527f53746172676174653a206e6f7420656e6f7567682062616c616e636500000000604082015260600190565b60208082526022908201527f4665654c6962726172793a205f737263506f6f6c49642069732064657065676760408201527f6564000000000000000000000000000000000000000000000000000000000000606082015260800190565b60208082526027908201527f4665654c6962726172793a205f64657065675468726573686f6c64206d75737460408201527f206265203e203000000000000000000000000000000000000000000000000000606082015260800190565b600060c082019050825182526020830151602083015260408301516040830152606083015160608301526080830151608083015260a083015160a083015292915050565b61ffff929092168252602082015260400190565b918252602082015260400190565b73ffffffffffffffffffffffffffffffffffffffff81168114611edf57600080fd5b50565b8015158114611edf57600080fd5b61ffff81168114611edf57600080fdfe4f776e61626c653a206e6577206f776e657220697320746865207a65726f2061646472657373536166654d6174683a206d756c7469706c69636174696f6e206f766572666c6f77a264697066735822122092372d3810b3c17c9927e34ffd488ac0821b5b17e84e56c887ce15c667e1c27164736f6c63430007060033",
  "linkReferences": {},
  "deployedLinkReferences": {}
}