{
  "address": "0x3aCAAf60502791D199a5a5F0B173D78229eBFe32",
  "abi": [
    {
      "inputs": [],
      "name": "defaultMultiplier",
      "outputs": [
        {
          "internalType": "uint128",
          "name": "",
          "type": "uint128"
        }
      ],
      "stateMutability": "view",
      "type": "function"
    },
    {
      "inputs": [
        {
          "internalType": "contract ILayerZeroPriceFeed",
          "name": "_priceFeed",
          "type": "address"
        },
        {
          "internalType": "uint16",
          "name": "_dstChainId",
          "type": "uint16"
        },
        {
          "internalType": "uint64",
          "name": "_baseGas",
          "type": "uint64"
        },
        {
          "internalType": "uint64",
          "name": "_quorum",
          "type": "uint64"
        },
        {
          "internalType": "uint128",
          "name": "_defaultMultiplier",
          "type": "uint128"
        },
        {
          "internalType": "uint128",
          "name": "_multiplier",
          "type": "uint128"
        },
        {
          "internalType": "uint128",
          "name": "_floorMarginUSD",
          "type": "uint128"
        }
      ],
      "name": "getFee",
      "outputs": [
        {
          "internalType": "uint256",
          "name": "",
          "type": "uint256"
        }
      ],
      "stateMutability": "view",
      "type": "function"
    }
  ],
  "transactionHash": "0x828726146654b0c7f1c873cf3149f4a0662a7e59c57fb764063ed7b3cb97dc03",
  "args": [],
  "numDeployments": 1,
  "solcInputHash": "696c619fb92566880cc4018e27cbe1d4",
  "bytecode": "0x6080604052600080546001600160801b031916612ee017905534801561002457600080fd5b506105c7806100346000396000f3fe608060405234801561001057600080fd5b50600436106100365760003560e01c8063dc6002801461003b578063e489182514610061575b600080fd5b61004e61004936600461035f565b61009e565b6040519081526020015b60405180910390f35b60005461007d906fffffffffffffffffffffffffffffffff1681565b6040516fffffffffffffffffffffffffffffffff9091168152602001610058565b6000806100b6604167ffffffffffffffff8816610440565b9050806100c460208261048c565b156100ec576100d460208361048c565b6100de90836104a0565b6100e99060206104b3565b90505b6000816100fb60e060446104b3565b61010591906104b3565b6101109060406104b3565b6040517f7bc3c9ab00000000000000000000000000000000000000000000000000000000815261ffff8c1660048201526024810182905267ffffffffffffffff8b16604482015290915060009073ffffffffffffffffffffffffffffffffffffffff8d1690637bc3c9ab906064016040805180830381865afa15801561019a573d6000803e3d6000fd5b505050506040513d601f19601f820116820180604052508101906101be91906104c6565b509050866fffffffffffffffffffffffffffffffff166000036101df578796505b60006127106102006fffffffffffffffffffffffffffffffff8a1684610440565b61020a91906104f6565b905060008d73ffffffffffffffffffffffffffffffffffffffff166392807f586040518163ffffffff1660e01b8152600401602060405180830381865afa158015610259573d6000803e3d6000fd5b505050506040513d601f19601f8201168201806040525081019061027d919061050a565b90506fffffffffffffffffffffffffffffffff811615806102ae57506fffffffffffffffffffffffffffffffff8816155b156102c0575094506103169350505050565b6000816102d58a670de0b6b3a764000061052e565b6102df9190610562565b6102fb906fffffffffffffffffffffffffffffffff16856104b3565b905082811161030a578261030c565b805b9750505050505050505b979650505050505050565b803567ffffffffffffffff8116811461033957600080fd5b919050565b6fffffffffffffffffffffffffffffffff8116811461035c57600080fd5b50565b600080600080600080600060e0888a03121561037a57600080fd5b873573ffffffffffffffffffffffffffffffffffffffff8116811461039e57600080fd5b9650602088013561ffff811681146103b557600080fd5b95506103c360408901610321565b94506103d160608901610321565b935060808801356103e18161033e565b925060a08801356103f18161033e565b915060c08801356104018161033e565b8091505092959891949750929550565b7f4e487b7100000000000000000000000000000000000000000000000000000000600052601160045260246000fd5b808202811582820484141761045757610457610411565b92915050565b7f4e487b7100000000000000000000000000000000000000000000000000000000600052601260045260246000fd5b60008261049b5761049b61045d565b500690565b8181038181111561045757610457610411565b8082018082111561045757610457610411565b600080604083850312156104d957600080fd5b8251915060208301516104eb8161033e565b809150509250929050565b6000826105055761050561045d565b500490565b60006020828403121561051c57600080fd5b81516105278161033e565b9392505050565b6fffffffffffffffffffffffffffffffff81811683821602808216919082811461055a5761055a610411565b505092915050565b60006fffffffffffffffffffffffffffffffff808416806105855761058561045d565b9216919091049291505056fea26469706673582212202b3a942b83adb3611877f81fc1d748c90ce692ab8d46a0ff8835c2d98f2f845064736f6c63430008110033",
  "devdoc": {
    "kind": "dev",
    "methods": {},
    "version": 1
  },
  "userdoc": {
    "kind": "user",
    "methods": {},
    "version": 1
  },
  "storageLayout": {
    "storage": [
      {
        "astId": 1480,
        "contract": "contracts/OracleFeeLib.sol:OracleFeeLib",
        "label": "defaultMultiplier",
        "offset": 0,
        "slot": "0",
        "type": "t_uint128"
      }
    ],
    "types": {
      "t_uint128": {
        "encoding": "inplace",
        "label": "uint128",
        "numberOfBytes": "16"
      }
    }
  }
}