{
  "_format": "hh-sol-artifact-1",
  "contractName": "OFTStakingMockV2",
  "sourceName": "contracts/mocks/OFTStakingMockV2.sol",
  "abi": [
    {
      "inputs": [
        {
          "internalType": "address",
          "name": "_oft",
          "type": "address"
        }
      ],
      "stateMutability": "nonpayable",
      "type": "constructor"
    },
    {
      "anonymous": false,
      "inputs": [
        {
          "indexed": false,
          "internalType": "address",
          "name": "from",
          "type": "address"
        },
        {
          "indexed": false,
          "internalType": "uint256",
          "name": "amount",
          "type": "uint256"
        }
      ],
      "name": "Deposit",
      "type": "event"
    },
    {
      "anonymous": false,
      "inputs": [
        {
          "indexed": false,
          "internalType": "address",
          "name": "from",
          "type": "address"
        },
        {
          "indexed": false,
          "internalType": "uint16",
          "name": "dstChainId",
          "type": "uint16"
        },
        {
          "indexed": false,
          "internalType": "bytes",
          "name": "to",
          "type": "bytes"
        },
        {
          "indexed": false,
          "internalType": "uint256",
          "name": "amountOut",
          "type": "uint256"
        }
      ],
      "name": "DepositToDstChain",
      "type": "event"
    },
    {
      "anonymous": false,
      "inputs": [
        {
          "indexed": false,
          "internalType": "address",
          "name": "to",
          "type": "address"
        },
        {
          "indexed": false,
          "internalType": "uint256",
          "name": "amount",
          "type": "uint256"
        }
      ],
      "name": "Withdrawal",
      "type": "event"
    },
    {
      "inputs": [],
      "name": "DST_GAS_FOR_CALL",
      "outputs": [
        {
          "internalType": "uint64",
          "name": "",
          "type": "uint64"
        }
      ],
      "stateMutability": "view",
      "type": "function"
    },
    {
      "inputs": [],
      "name": "PT_DEPOSIT_TO_REMOTE_CHAIN",
      "outputs": [
        {
          "internalType": "uint8",
          "name": "",
          "type": "uint8"
        }
      ],
      "stateMutability": "view",
      "type": "function"
    },
    {
      "inputs": [
        {
          "internalType": "address",
          "name": "",
          "type": "address"
        }
      ],
      "name": "balances",
      "outputs": [
        {
          "internalType": "uint256",
          "name": "",
          "type": "uint256"
        }
      ],
      "stateMutability": "view",
      "type": "function"
    },
    {
      "inputs": [
        {
          "internalType": "uint256",
          "name": "_amount",
          "type": "uint256"
        }
      ],
      "name": "deposit",
      "outputs": [],
      "stateMutability": "payable",
      "type": "function"
    },
    {
      "inputs": [
        {
          "internalType": "uint16",
          "name": "_dstChainId",
          "type": "uint16"
        },
        {
          "internalType": "bytes",
          "name": "_to",
          "type": "bytes"
        },
        {
          "internalType": "uint256",
          "name": "_amount",
          "type": "uint256"
        },
        {
          "internalType": "bytes",
          "name": "_adapterParams",
          "type": "bytes"
        }
      ],
      "name": "depositToDstChain",
      "outputs": [],
      "stateMutability": "payable",
      "type": "function"
    },
    {
      "inputs": [],
      "name": "oft",
      "outputs": [
        {
          "internalType": "contract IOFTV2",
          "name": "",
          "type": "address"
        }
      ],
      "stateMutability": "view",
      "type": "function"
    },
    {
      "inputs": [
        {
          "internalType": "uint16",
          "name": "_srcChainId",
          "type": "uint16"
        },
        {
          "internalType": "bytes",
          "name": "",
          "type": "bytes"
        },
        {
          "internalType": "uint64",
          "name": "",
          "type": "uint64"
        },
        {
          "internalType": "bytes32",
          "name": "_from",
          "type": "bytes32"
        },
        {
          "internalType": "uint256",
          "name": "_amount",
          "type": "uint256"
        },
        {
          "internalType": "bytes",
          "name": "_payload",
          "type": "bytes"
        }
      ],
      "name": "onOFTReceived",
      "outputs": [],
      "stateMutability": "nonpayable",
      "type": "function"
    },
    {
      "inputs": [],
      "name": "paused",
      "outputs": [
        {
          "internalType": "bool",
          "name": "",
          "type": "bool"
        }
      ],
      "stateMutability": "view",
      "type": "function"
    },
    {
      "inputs": [
        {
          "internalType": "uint16",
          "name": "_dstChainId",
          "type": "uint16"
        },
        {
          "internalType": "bytes",
          "name": "_to",
          "type": "bytes"
        },
        {
          "internalType": "uint256",
          "name": "_amount",
          "type": "uint256"
        },
        {
          "internalType": "bytes",
          "name": "_adapterParams",
          "type": "bytes"
        }
      ],
      "name": "quoteForDeposit",
      "outputs": [
        {
          "internalType": "uint256",
          "name": "nativeFee",
          "type": "uint256"
        },
        {
          "internalType": "uint256",
          "name": "zroFee",
          "type": "uint256"
        }
      ],
      "stateMutability": "view",
      "type": "function"
    },
    {
      "inputs": [
        {
          "internalType": "uint16",
          "name": "",
          "type": "uint16"
        }
      ],
      "name": "remoteStakingContracts",
      "outputs": [
        {
          "internalType": "bytes32",
          "name": "",
          "type": "bytes32"
        }
      ],
      "stateMutability": "view",
      "type": "function"
    },
    {
      "inputs": [
        {
          "internalType": "bool",
          "name": "_paused",
          "type": "bool"
        }
      ],
      "name": "setPaused",
      "outputs": [],
      "stateMutability": "nonpayable",
      "type": "function"
    },
    {
      "inputs": [
        {
          "internalType": "uint16",
          "name": "_chainId",
          "type": "uint16"
        },
        {
          "internalType": "bytes32",
          "name": "_stakingContract",
          "type": "bytes32"
        }
      ],
      "name": "setRemoteStakingContract",
      "outputs": [],
      "stateMutability": "nonpayable",
      "type": "function"
    },
    {
      "inputs": [
        {
          "internalType": "uint256",
          "name": "_amount",
          "type": "uint256"
        }
      ],
      "name": "withdraw",
      "outputs": [],
      "stateMutability": "nonpayable",
      "type": "function"
    },
    {
      "inputs": [
        {
          "internalType": "uint256",
          "name": "_amount",
          "type": "uint256"
        },
        {
          "internalType": "address",
          "name": "_to",
          "type": "address"
        }
      ],
      "name": "withdrawTo",
      "outputs": [],
      "stateMutability": "nonpayable",
      "type": "function"
    }
  ],
  "bytecode": "0x60806040523480156200001157600080fd5b5060405162001aba38038062001aba8339810160408190526200003491620004b9565b600080546001600160a01b0319166001600160a01b03831690811790915560408051637e062a3560e11b81529051620000dd9284926000199263fc0c546a916004808201926020929091908290030181865afa15801562000099573d6000803e3d6000fd5b505050506040513d601f19601f82011682018060405250810190620000bf9190620004b9565b6001600160a01b0316620000e460201b620009c8179092919060201c565b50620005af565b801580620001625750604051636eb1769f60e11b81523060048201526001600160a01b03838116602483015284169063dd62ed3e90604401602060405180830381865afa1580156200013a573d6000803e3d6000fd5b505050506040513d601f19601f82011682018060405250810190620001609190620004eb565b155b620001da5760405162461bcd60e51b815260206004820152603660248201527f5361666545524332303a20617070726f76652066726f6d206e6f6e2d7a65726f60448201527f20746f206e6f6e2d7a65726f20616c6c6f77616e63650000000000000000000060648201526084015b60405180910390fd5b604080516001600160a01b038416602482015260448082018490528251808303909101815260649091019091526020810180516001600160e01b0390811663095ea7b360e01b17909152620002329185916200023716565b505050565b600062000293826040518060400160405280602081526020017f5361666545524332303a206c6f772d6c6576656c2063616c6c206661696c6564815250856001600160a01b03166200031860201b62000b15179092919060201c565b9050805160001480620002b7575080806020019051810190620002b7919062000505565b620002325760405162461bcd60e51b815260206004820152602a60248201527f5361666545524332303a204552433230206f7065726174696f6e20646964206e6044820152691bdd081cdd58d8d9595960b21b6064820152608401620001d1565b606062000329848460008562000331565b949350505050565b606082471015620003945760405162461bcd60e51b815260206004820152602660248201527f416464726573733a20696e73756666696369656e742062616c616e636520666f6044820152651c8818d85b1b60d21b6064820152608401620001d1565b600080866001600160a01b03168587604051620003b291906200055c565b60006040518083038185875af1925050503d8060008114620003f1576040519150601f19603f3d011682016040523d82523d6000602084013e620003f6565b606091505b5090925090506200040a8783838762000415565b979650505050505050565b60608315620004865782516200047e576001600160a01b0385163b6200047e5760405162461bcd60e51b815260206004820152601d60248201527f416464726573733a2063616c6c20746f206e6f6e2d636f6e74726163740000006044820152606401620001d1565b508162000329565b6200032983838151156200049d5781518083602001fd5b8060405162461bcd60e51b8152600401620001d191906200057a565b600060208284031215620004cc57600080fd5b81516001600160a01b0381168114620004e457600080fd5b9392505050565b600060208284031215620004fe57600080fd5b5051919050565b6000602082840312156200051857600080fd5b81518015158114620004e457600080fd5b60005b83811015620005465781810151838201526020016200052c565b8381111562000556576000848401525b50505050565b600082516200057081846020870162000529565b9190910192915050565b60208152600082518060208401526200059b81604085016020870162000529565b601f01601f19169190910160400192915050565b6114fb80620005bf6000396000f3fe6080604052600436106100dd5760003560e01c80639ae065f11161007f578063acd4b82711610059578063acd4b82714610295578063b6b55f25146102c5578063c86283c8146102d8578063f2ab0e04146102f857600080fd5b80639ae065f1146102045780639b5215f614610236578063aadda7f61461026e57600080fd5b80635485ab3c116100bb5780635485ab3c146101725780635c975abb146101a75780637242abf6146101d15780637fcf35da146101e457600080fd5b806316c38b3c146100e257806327e235e3146101125780632e1a7d4d14610152575b600080fd5b3480156100ee57600080fd5b506101106100fd366004610e58565b6003805460ff1916911515919091179055565b005b34801561011e57600080fd5b5061013f61012d366004610e91565b60026020526000908152604090205481565b6040519081526020015b60405180910390f35b34801561015e57600080fd5b5061011061016d366004610eae565b610325565b34801561017e57600080fd5b5061019261018d366004610f27565b610332565b60408051928352602083019190915201610149565b3480156101b357600080fd5b506003546101c19060ff1681565b6040519015158152602001610149565b6101106101df366004610f27565b61044b565b3480156101f057600080fd5b506101106101ff366004611020565b61065d565b34801561021057600080fd5b5061011061021f36600461110a565b61ffff909116600090815260016020526040902055565b34801561024257600080fd5b50600054610256906001600160a01b031681565b6040516001600160a01b039091168152602001610149565b34801561027a57600080fd5b50610283600181565b60405160ff9091168152602001610149565b3480156102a157600080fd5b506102ac620493e081565b60405167ffffffffffffffff9091168152602001610149565b6101106102d3366004610eae565b610808565b3480156102e457600080fd5b506101106102f3366004611134565b6108bf565b34801561030457600080fd5b5061013f610313366004611164565b60016020526000908152604090205481565b61032f81336108bf565b50565b61ffff86166000908152600160205260408120548190806103905760405162461bcd60e51b81526020600482015260136024820152721a5b9d985b1a590817d91cdd10da185a5b9259606a1b60448201526064015b60405180910390fd5b6000600189896040516020016103a8939291906111a8565b60408051601f19818403018152908290526000805463a4c51df560e01b84529193506001600160a01b039091169163a4c51df5916103fa918e9187918d918891620493e091908f908f90600401611226565b6040805180830381865afa158015610416573d6000803e3d6000fd5b505050506040513d601f19601f8201168201806040525081019061043a9190611289565b935093505050965096945050505050565b61ffff8616600090815260016020526040902054806104a25760405162461bcd60e51b81526020600482015260136024820152721a5b9d985b1a590817d91cdd10da185a5b9259606a1b6044820152606401610387565b61052e33308660008054906101000a90046001600160a01b03166001600160a01b031663fc0c546a6040518163ffffffff1660e01b8152600401602060405180830381865afa1580156104f9573d6000803e3d6000fd5b505050506040513d601f19601f8201168201806040525081019061051d91906112ad565b6001600160a01b0316929190610b2c565b600060018787604051602001610546939291906111a8565b60408051601f19818403018152606083018252338352600060208481018290528351601f89018290048202810182018552888152929550909392830191908890889081908401838280828437600092018290525093909452505054604051630ec4076960e31b81529293506001600160a01b0316916376203b48915034906105e19030908e9089908d908a90620493e0908b906004016112ca565b6000604051808303818588803b1580156105fa57600080fd5b505af115801561060e573d6000803e3d6000fd5b50505050507ff19a8f0b78556c2027690fa47020dd2adb2b807bdf2b287ae4685a7c0adde38a338a8a8a8a60405161064a959493929190611347565b60405180910390a1505050505050505050565b60035460ff16156106995760405162461bcd60e51b81526020600482015260066024820152651c185d5cd95960d21b6044820152606401610387565b6000546001600160a01b031633146106fd5760405162461bcd60e51b815260206004820152602160248201527f6f6e6c79206f66742063616e2063616c6c206f6e4f46545265636569766564286044820152602960f81b6064820152608401610387565b61ffff8716600090815260016020526040902054831461074e5760405162461bcd60e51b815260206004820152600c60248201526b696e76616c69642066726f6d60a01b6044820152606401610387565b602081015160ff8116600114156107bf576000828060200190518101906107759190611388565b9150600090506107858282610b6a565b6001600160a01b0381166000908152600260205260408120805492935087929091906107b2908490611431565b909155506107fe92505050565b60405162461bcd60e51b8152602060048201526014602482015273696e76616c6964206465706f736974207479706560601b6044820152606401610387565b5050505050505050565b61085f33308360008054906101000a90046001600160a01b03166001600160a01b031663fc0c546a6040518163ffffffff1660e01b8152600401602060405180830381865afa1580156104f9573d6000803e3d6000fd5b336000908152600260205260408120805483929061087e908490611431565b909155505060408051338152602081018390527fe1fffcc4923d04b559f4d29a8bfc6cda04eb5b0d3c460751c2402c5c5cc9109c910160405180910390a150565b336000908152600260205260409020548211156108db57600080fd5b33600090815260026020526040812080548492906108fa908490611449565b9250508190555061098b818360008054906101000a90046001600160a01b03166001600160a01b031663fc0c546a6040518163ffffffff1660e01b8152600401602060405180830381865afa158015610957573d6000803e3d6000fd5b505050506040513d601f19601f8201168201806040525081019061097b91906112ad565b6001600160a01b03169190610bcf565b60408051338152602081018490527f7fcf532c15f0a6db0bd6d0e038bea71d30d808c7d98cb3bf7268a95bf5081b65910160405180910390a15050565b801580610a425750604051636eb1769f60e11b81523060048201526001600160a01b03838116602483015284169063dd62ed3e90604401602060405180830381865afa158015610a1c573d6000803e3d6000fd5b505050506040513d601f19601f82011682018060405250810190610a409190611460565b155b610aad5760405162461bcd60e51b815260206004820152603660248201527f5361666545524332303a20617070726f76652066726f6d206e6f6e2d7a65726f60448201527520746f206e6f6e2d7a65726f20616c6c6f77616e636560501b6064820152608401610387565b6040516001600160a01b038316602482015260448101829052610b1090849063095ea7b360e01b906064015b60408051601f198184030181529190526020810180516001600160e01b03166001600160e01b031990931692909217909152610bff565b505050565b6060610b248484600085610cd4565b949350505050565b6040516001600160a01b0380851660248301528316604482015260648101829052610b649085906323b872dd60e01b90608401610ad9565b50505050565b6000610b77826014611431565b83511015610bbf5760405162461bcd60e51b8152602060048201526015602482015274746f416464726573735f6f75744f66426f756e647360581b6044820152606401610387565b500160200151600160601b900490565b6040516001600160a01b038316602482015260448101829052610b1090849063a9059cbb60e01b90606401610ad9565b6000610c54826040518060400160405280602081526020017f5361666545524332303a206c6f772d6c6576656c2063616c6c206661696c6564815250856001600160a01b0316610b159092919063ffffffff16565b9050805160001480610c75575080806020019051810190610c759190611479565b610b105760405162461bcd60e51b815260206004820152602a60248201527f5361666545524332303a204552433230206f7065726174696f6e20646964206e6044820152691bdd081cdd58d8d9595960b21b6064820152608401610387565b606082471015610d355760405162461bcd60e51b815260206004820152602660248201527f416464726573733a20696e73756666696369656e742062616c616e636520666f6044820152651c8818d85b1b60d21b6064820152608401610387565b600080866001600160a01b03168587604051610d519190611496565b60006040518083038185875af1925050503d8060008114610d8e576040519150601f19603f3d011682016040523d82523d6000602084013e610d93565b606091505b5091509150610da487838387610daf565b979650505050505050565b60608315610e1b578251610e14576001600160a01b0385163b610e145760405162461bcd60e51b815260206004820152601d60248201527f416464726573733a2063616c6c20746f206e6f6e2d636f6e74726163740000006044820152606401610387565b5081610b24565b610b248383815115610e305781518083602001fd5b8060405162461bcd60e51b815260040161038791906114b2565b801515811461032f57600080fd5b600060208284031215610e6a57600080fd5b8135610e7581610e4a565b9392505050565b6001600160a01b038116811461032f57600080fd5b600060208284031215610ea357600080fd5b8135610e7581610e7c565b600060208284031215610ec057600080fd5b5035919050565b803561ffff81168114610ed957600080fd5b919050565b60008083601f840112610ef057600080fd5b50813567ffffffffffffffff811115610f0857600080fd5b602083019150836020828501011115610f2057600080fd5b9250929050565b60008060008060008060808789031215610f4057600080fd5b610f4987610ec7565b9550602087013567ffffffffffffffff80821115610f6657600080fd5b610f728a838b01610ede565b9097509550604089013594506060890135915080821115610f9257600080fd5b50610f9f89828a01610ede565b979a9699509497509295939492505050565b634e487b7160e01b600052604160045260246000fd5b604051601f8201601f1916810167ffffffffffffffff81118282101715610ff057610ff0610fb1565b604052919050565b600067ffffffffffffffff82111561101257611012610fb1565b50601f01601f191660200190565b600080600080600080600060c0888a03121561103b57600080fd5b61104488610ec7565b9650602088013567ffffffffffffffff8082111561106157600080fd5b61106d8b838c01610ede565b909850965060408a01359150808216821461108757600080fd5b909450606089013593506080890135925060a089013590808211156110ab57600080fd5b508801601f81018a136110bd57600080fd5b80356110d06110cb82610ff8565b610fc7565b8181528b60208385010111156110e557600080fd5b8160208401602083013760006020838301015280935050505092959891949750929550565b6000806040838503121561111d57600080fd5b61112683610ec7565b946020939093013593505050565b6000806040838503121561114757600080fd5b82359150602083013561115981610e7c565b809150509250929050565b60006020828403121561117657600080fd5b610e7582610ec7565b81835281816020850137506000828201602090810191909152601f909101601f19169091010190565b60ff841681526040602082015260006111c560408301848661117f565b95945050505050565b60005b838110156111e95781810151838201526020016111d1565b83811115610b645750506000910152565b600081518084526112128160208601602086016111ce565b601f01601f19169290920160200192915050565b61ffff8916815287602082015286604082015260e06060820152600061124f60e08301886111fa565b67ffffffffffffffff8716608084015285151560a084015282810360c084015261127a81858761117f565b9b9a5050505050505050505050565b6000806040838503121561129c57600080fd5b505080516020909101519092909150565b6000602082840312156112bf57600080fd5b8151610e7581610e7c565b600060018060a01b03808a16835261ffff8916602084015287604084015286606084015260e0608084015261130260e08401876111fa565b67ffffffffffffffff861660a085015283810360c0850152818551168152816020860151166020820152604085015191506060604082015261127a60608201836111fa565b6001600160a01b038616815261ffff85166020820152608060408201819052600090611376908301858761117f565b90508260608301529695505050505050565b6000806040838503121561139b57600080fd5b825160ff811681146113ac57600080fd5b602084015190925067ffffffffffffffff8111156113c957600080fd5b8301601f810185136113da57600080fd5b80516113e86110cb82610ff8565b8181528660208385010111156113fd57600080fd5b61140e8260208301602086016111ce565b8093505050509250929050565b634e487b7160e01b600052601160045260246000fd5b600082198211156114445761144461141b565b500190565b60008282101561145b5761145b61141b565b500390565b60006020828403121561147257600080fd5b5051919050565b60006020828403121561148b57600080fd5b8151610e7581610e4a565b600082516114a88184602087016111ce565b9190910192915050565b602081526000610e7560208301846111fa56fea264697066735822122047a6d65a1ad7100256bfecc47dc4f9cad053b08a411adebd61da49cea18268a264736f6c634300080c0033",
  "linkReferences": {},
  "deployedLinkReferences": {}
}