{
  "_format": "hh-sol-artifact-1",
  "contractName": "StargateFeeLibraryV05",
  "sourceName": "contracts/libraries/StargateFeeLibraryV05.sol",
  "abi": [
    {
      "inputs": [
        {
          "internalType": "address",
          "name": "_factory",
          "type": "address"
        },
        {
          "internalType": "address",
          "name": "_endpoint",
          "type": "address"
        }
      ],
      "stateMutability": "nonpayable",
      "type": "constructor"
    },
    {
      "anonymous": false,
      "inputs": [
        {
          "indexed": true,
          "internalType": "address",
          "name": "previousOwner",
          "type": "address"
        },
        {
          "indexed": true,
          "internalType": "address",
          "name": "newOwner",
          "type": "address"
        }
      ],
      "name": "OwnershipTransferred",
      "type": "event"
    },
    {
      "anonymous": false,
      "inputs": [
        {
          "indexed": true,
          "internalType": "uint256",
          "name": "poolId",
          "type": "uint256"
        },
        {
          "indexed": false,
          "internalType": "uint256",
          "name": "priceSD",
          "type": "uint256"
        },
        {
          "indexed": false,
          "internalType": "enum StargateFeeLibraryV05.PriceDeviationState",
          "name": "state",
          "type": "uint8"
        }
      ],
      "name": "PriceUpdated",
      "type": "event"
    },
    {
      "anonymous": false,
      "inputs": [
        {
          "indexed": false,
          "internalType": "uint16",
          "name": "_dstChainId",
          "type": "uint16"
        },
        {
          "indexed": false,
          "internalType": "uint16",
          "name": "_type",
          "type": "uint16"
        },
        {
          "indexed": false,
          "internalType": "uint256",
          "name": "_minDstGas",
          "type": "uint256"
        }
      ],
      "name": "SetMinDstGas",
      "type": "event"
    },
    {
      "anonymous": false,
      "inputs": [
        {
          "indexed": false,
          "internalType": "address",
          "name": "precrime",
          "type": "address"
        }
      ],
      "name": "SetPrecrime",
      "type": "event"
    },
    {
      "anonymous": false,
      "inputs": [
        {
          "indexed": false,
          "internalType": "uint16",
          "name": "_remoteChainId",
          "type": "uint16"
        },
        {
          "indexed": false,
          "internalType": "bytes",
          "name": "_path",
          "type": "bytes"
        }
      ],
      "name": "SetTrustedRemote",
      "type": "event"
    },
    {
      "anonymous": false,
      "inputs": [
        {
          "indexed": false,
          "internalType": "uint16",
          "name": "_remoteChainId",
          "type": "uint16"
        },
        {
          "indexed": false,
          "internalType": "bytes",
          "name": "_remoteAddress",
          "type": "bytes"
        }
      ],
      "name": "SetTrustedRemoteAddress",
      "type": "event"
    },
    {
      "inputs": [],
      "name": "DELTA_1",
      "outputs": [
        {
          "internalType": "uint256",
          "name": "",
          "type": "uint256"
        }
      ],
      "stateMutability": "view",
      "type": "function"
    },
    {
      "inputs": [],
      "name": "DELTA_2",
      "outputs": [
        {
          "internalType": "uint256",
          "name": "",
          "type": "uint256"
        }
      ],
      "stateMutability": "view",
      "type": "function"
    },
    {
      "inputs": [],
      "name": "DENOMINATOR",
      "outputs": [
        {
          "internalType": "uint256",
          "name": "",
          "type": "uint256"
        }
      ],
      "stateMutability": "view",
      "type": "function"
    },
    {
      "inputs": [],
      "name": "EQ_REWARD_CAP",
      "outputs": [
        {
          "internalType": "uint256",
          "name": "",
          "type": "uint256"
        }
      ],
      "stateMutability": "view",
      "type": "function"
    },
    {
      "inputs": [],
      "name": "EQ_REWARD_THRESHOLD",
      "outputs": [
        {
          "internalType": "uint256",
          "name": "",
          "type": "uint256"
        }
      ],
      "stateMutability": "view",
      "type": "function"
    },
    {
      "inputs": [],
      "name": "FIFTY_PERCENT",
      "outputs": [
        {
          "internalType": "uint256",
          "name": "",
          "type": "uint256"
        }
      ],
      "stateMutability": "view",
      "type": "function"
    },
    {
      "inputs": [],
      "name": "LAMBDA_1",
      "outputs": [
        {
          "internalType": "uint256",
          "name": "",
          "type": "uint256"
        }
      ],
      "stateMutability": "view",
      "type": "function"
    },
    {
      "inputs": [],
      "name": "LAMBDA_2",
      "outputs": [
        {
          "internalType": "uint256",
          "name": "",
          "type": "uint256"
        }
      ],
      "stateMutability": "view",
      "type": "function"
    },
    {
      "inputs": [],
      "name": "LP_FEE",
      "outputs": [
        {
          "internalType": "uint256",
          "name": "",
          "type": "uint256"
        }
      ],
      "stateMutability": "view",
      "type": "function"
    },
    {
      "inputs": [],
      "name": "LP_FEE_WITH_EQ_REWARD",
      "outputs": [
        {
          "internalType": "uint256",
          "name": "",
          "type": "uint256"
        }
      ],
      "stateMutability": "view",
      "type": "function"
    },
    {
      "inputs": [],
      "name": "ONE_BPS_PRICE_CHANGE_THRESHOLD",
      "outputs": [
        {
          "internalType": "uint256",
          "name": "",
          "type": "uint256"
        }
      ],
      "stateMutability": "view",
      "type": "function"
    },
    {
      "inputs": [],
      "name": "PRICE_DEPEG_THRESHOLD",
      "outputs": [
        {
          "internalType": "uint256",
          "name": "",
          "type": "uint256"
        }
      ],
      "stateMutability": "view",
      "type": "function"
    },
    {
      "inputs": [],
      "name": "PRICE_DRIFT_THRESHOLD",
      "outputs": [
        {
          "internalType": "uint256",
          "name": "",
          "type": "uint256"
        }
      ],
      "stateMutability": "view",
      "type": "function"
    },
    {
      "inputs": [],
      "name": "PRICE_SHARED_DECIMALS",
      "outputs": [
        {
          "internalType": "uint8",
          "name": "",
          "type": "uint8"
        }
      ],
      "stateMutability": "view",
      "type": "function"
    },
    {
      "inputs": [],
      "name": "PROTOCOL_FEE",
      "outputs": [
        {
          "internalType": "uint256",
          "name": "",
          "type": "uint256"
        }
      ],
      "stateMutability": "view",
      "type": "function"
    },
    {
      "inputs": [],
      "name": "PROTOCOL_FEE_FOR_SAME_TOKEN",
      "outputs": [
        {
          "internalType": "uint256",
          "name": "",
          "type": "uint256"
        }
      ],
      "stateMutability": "view",
      "type": "function"
    },
    {
      "inputs": [],
      "name": "PROTOCOL_FEE_WITH_EQ_REWARD",
      "outputs": [
        {
          "internalType": "uint256",
          "name": "",
          "type": "uint256"
        }
      ],
      "stateMutability": "view",
      "type": "function"
    },
    {
      "inputs": [],
      "name": "PROTOCOL_SUBSIDY",
      "outputs": [
        {
          "internalType": "uint256",
          "name": "",
          "type": "uint256"
        }
      ],
      "stateMutability": "view",
      "type": "function"
    },
    {
      "inputs": [],
      "name": "SIXTY_PERCENT",
      "outputs": [
        {
          "internalType": "uint256",
          "name": "",
          "type": "uint256"
        }
      ],
      "stateMutability": "view",
      "type": "function"
    },
    {
      "inputs": [],
      "name": "TEN_BPS_PRICE_CHANGE_THRESHOLD",
      "outputs": [
        {
          "internalType": "uint256",
          "name": "",
          "type": "uint256"
        }
      ],
      "stateMutability": "view",
      "type": "function"
    },
    {
      "inputs": [
        {
          "internalType": "uint16",
          "name": "",
          "type": "uint16"
        }
      ],
      "name": "defaultAdapterParams",
      "outputs": [
        {
          "internalType": "bytes",
          "name": "",
          "type": "bytes"
        }
      ],
      "stateMutability": "view",
      "type": "function"
    },
    {
      "inputs": [],
      "name": "factory",
      "outputs": [
        {
          "internalType": "contract Factory",
          "name": "",
          "type": "address"
        }
      ],
      "stateMutability": "view",
      "type": "function"
    },
    {
      "inputs": [
        {
          "internalType": "uint16",
          "name": "_srcChainId",
          "type": "uint16"
        },
        {
          "internalType": "bytes",
          "name": "_srcAddress",
          "type": "bytes"
        }
      ],
      "name": "forceResumeReceive",
      "outputs": [],
      "stateMutability": "nonpayable",
      "type": "function"
    },
    {
      "inputs": [
        {
          "internalType": "uint16",
          "name": "_version",
          "type": "uint16"
        },
        {
          "internalType": "uint16",
          "name": "_chainId",
          "type": "uint16"
        },
        {
          "internalType": "address",
          "name": "",
          "type": "address"
        },
        {
          "internalType": "uint256",
          "name": "_configType",
          "type": "uint256"
        }
      ],
      "name": "getConfig",
      "outputs": [
        {
          "internalType": "bytes",
          "name": "",
          "type": "bytes"
        }
      ],
      "stateMutability": "view",
      "type": "function"
    },
    {
      "inputs": [
        {
          "internalType": "uint256",
          "name": "_srcPoolId",
          "type": "uint256"
        },
        {
          "internalType": "uint256",
          "name": "_dstPoolId",
          "type": "uint256"
        },
        {
          "internalType": "uint256",
          "name": "_amountSD",
          "type": "uint256"
        },
        {
          "internalType": "bool",
          "name": "_whitelisted",
          "type": "bool"
        }
      ],
      "name": "getDriftFee",
      "outputs": [
        {
          "internalType": "uint256",
          "name": "",
          "type": "uint256"
        }
      ],
      "stateMutability": "view",
      "type": "function"
    },
    {
      "inputs": [
        {
          "internalType": "uint256",
          "name": "_srcPoolId",
          "type": "uint256"
        },
        {
          "internalType": "uint256",
          "name": "_amountSD",
          "type": "uint256"
        },
        {
          "internalType": "bool",
          "name": "_whitelisted",
          "type": "bool"
        }
      ],
      "name": "getEqReward",
      "outputs": [
        {
          "internalType": "uint256",
          "name": "eqReward",
          "type": "uint256"
        },
        {
          "internalType": "uint256",
          "name": "protocolFee",
          "type": "uint256"
        }
      ],
      "stateMutability": "view",
      "type": "function"
    },
    {
      "inputs": [
        {
          "internalType": "uint256",
          "name": "srcPoolId",
          "type": "uint256"
        },
        {
          "internalType": "uint256",
          "name": "dstPoolId",
          "type": "uint256"
        },
        {
          "internalType": "uint16",
          "name": "dstChainId",
          "type": "uint16"
        },
        {
          "internalType": "uint256",
          "name": "amountSD",
          "type": "uint256"
        },
        {
          "internalType": "bool",
          "name": "whitelisted",
          "type": "bool"
        },
        {
          "internalType": "bool",
          "name": "hasEqReward",
          "type": "bool"
        }
      ],
      "name": "getEquilibriumFee",
      "outputs": [
        {
          "internalType": "uint256",
          "name": "",
          "type": "uint256"
        },
        {
          "internalType": "uint256",
          "name": "",
          "type": "uint256"
        }
      ],
      "stateMutability": "view",
      "type": "function"
    },
    {
      "inputs": [
        {
          "internalType": "uint256",
          "name": "_srcPoolId",
          "type": "uint256"
        },
        {
          "internalType": "uint256",
          "name": "_dstPoolId",
          "type": "uint256"
        },
        {
          "internalType": "uint16",
          "name": "_dstChainId",
          "type": "uint16"
        },
        {
          "internalType": "address",
          "name": "_from",
          "type": "address"
        },
        {
          "internalType": "uint256",
          "name": "_amountSD",
          "type": "uint256"
        }
      ],
      "name": "getFees",
      "outputs": [
        {
          "components": [
            {
              "internalType": "uint256",
              "name": "amount",
              "type": "uint256"
            },
            {
              "internalType": "uint256",
              "name": "eqFee",
              "type": "uint256"
            },
            {
              "internalType": "uint256",
              "name": "eqReward",
              "type": "uint256"
            },
            {
              "internalType": "uint256",
              "name": "lpFee",
              "type": "uint256"
            },
            {
              "internalType": "uint256",
              "name": "protocolFee",
              "type": "uint256"
            },
            {
              "internalType": "uint256",
              "name": "lkbRemove",
              "type": "uint256"
            }
          ],
          "internalType": "struct Pool.SwapObj",
          "name": "s",
          "type": "tuple"
        }
      ],
      "stateMutability": "view",
      "type": "function"
    },
    {
      "inputs": [
        {
          "internalType": "uint256",
          "name": "_srcPoolId",
          "type": "uint256"
        },
        {
          "internalType": "uint256",
          "name": "_dstPoolId",
          "type": "uint256"
        },
        {
          "internalType": "uint16",
          "name": "",
          "type": "uint16"
        },
        {
          "internalType": "uint256",
          "name": "_amountSD",
          "type": "uint256"
        },
        {
          "internalType": "uint256",
          "name": "_protocolSubsidy",
          "type": "uint256"
        },
        {
          "internalType": "bool",
          "name": "_whitelisted",
          "type": "bool"
        },
        {
          "internalType": "bool",
          "name": "_hasEqReward",
          "type": "bool"
        }
      ],
      "name": "getProtocolAndLpFee",
      "outputs": [
        {
          "internalType": "uint256",
          "name": "",
          "type": "uint256"
        },
        {
          "internalType": "uint256",
          "name": "",
          "type": "uint256"
        }
      ],
      "stateMutability": "view",
      "type": "function"
    },
    {
      "inputs": [
        {
          "internalType": "uint256",
          "name": "_poolId",
          "type": "uint256"
        }
      ],
      "name": "getRemoteChainIds",
      "outputs": [
        {
          "internalType": "uint16[]",
          "name": "",
          "type": "uint16[]"
        }
      ],
      "stateMutability": "view",
      "type": "function"
    },
    {
      "inputs": [],
      "name": "getVersion",
      "outputs": [
        {
          "internalType": "string",
          "name": "",
          "type": "string"
        }
      ],
      "stateMutability": "pure",
      "type": "function"
    },
    {
      "inputs": [
        {
          "internalType": "uint256",
          "name": "_poolId1",
          "type": "uint256"
        },
        {
          "internalType": "uint256",
          "name": "_poolId2",
          "type": "uint256"
        }
      ],
      "name": "isSameToken",
      "outputs": [
        {
          "internalType": "bool",
          "name": "",
          "type": "bool"
        }
      ],
      "stateMutability": "view",
      "type": "function"
    },
    {
      "inputs": [
        {
          "internalType": "uint256",
          "name": "_poolId",
          "type": "uint256"
        }
      ],
      "name": "isTokenPriceChanged",
      "outputs": [
        {
          "internalType": "bool",
          "name": "",
          "type": "bool"
        },
        {
          "internalType": "uint256",
          "name": "",
          "type": "uint256"
        },
        {
          "internalType": "enum StargateFeeLibraryV05.PriceDeviationState",
          "name": "",
          "type": "uint8"
        }
      ],
      "stateMutability": "view",
      "type": "function"
    },
    {
      "inputs": [
        {
          "internalType": "uint16",
          "name": "_srcChainId",
          "type": "uint16"
        },
        {
          "internalType": "bytes",
          "name": "_srcAddress",
          "type": "bytes"
        }
      ],
      "name": "isTrustedRemote",
      "outputs": [
        {
          "internalType": "bool",
          "name": "",
          "type": "bool"
        }
      ],
      "stateMutability": "view",
      "type": "function"
    },
    {
      "inputs": [],
      "name": "lzEndpoint",
      "outputs": [
        {
          "internalType": "contract ILayerZeroEndpoint",
          "name": "",
          "type": "address"
        }
      ],
      "stateMutability": "view",
      "type": "function"
    },
    {
      "inputs": [
        {
          "internalType": "uint16",
          "name": "_srcChainId",
          "type": "uint16"
        },
        {
          "internalType": "bytes",
          "name": "_srcAddress",
          "type": "bytes"
        },
        {
          "internalType": "uint64",
          "name": "_nonce",
          "type": "uint64"
        },
        {
          "internalType": "bytes",
          "name": "_payload",
          "type": "bytes"
        }
      ],
      "name": "lzReceive",
      "outputs": [],
      "stateMutability": "nonpayable",
      "type": "function"
    },
    {
      "inputs": [
        {
          "internalType": "uint16",
          "name": "",
          "type": "uint16"
        },
        {
          "internalType": "uint16",
          "name": "",
          "type": "uint16"
        }
      ],
      "name": "minDstGasLookup",
      "outputs": [
        {
          "internalType": "uint256",
          "name": "",
          "type": "uint256"
        }
      ],
      "stateMutability": "view",
      "type": "function"
    },
    {
      "inputs": [],
      "name": "owner",
      "outputs": [
        {
          "internalType": "address",
          "name": "",
          "type": "address"
        }
      ],
      "stateMutability": "view",
      "type": "function"
    },
    {
      "inputs": [
        {
          "internalType": "uint256",
          "name": "",
          "type": "uint256"
        }
      ],
      "name": "poolIdToLpId",
      "outputs": [
        {
          "internalType": "uint256",
          "name": "",
          "type": "uint256"
        }
      ],
      "stateMutability": "view",
      "type": "function"
    },
    {
      "inputs": [
        {
          "internalType": "uint256",
          "name": "",
          "type": "uint256"
        }
      ],
      "name": "poolIdToPrice",
      "outputs": [
        {
          "internalType": "address",
          "name": "priceFeedAddress",
          "type": "address"
        },
        {
          "internalType": "uint256",
          "name": "basePriceSD",
          "type": "uint256"
        },
        {
          "internalType": "uint256",
          "name": "currentPriceSD",
          "type": "uint256"
        },
        {
          "internalType": "enum StargateFeeLibraryV05.PriceDeviationState",
          "name": "state",
          "type": "uint8"
        }
      ],
      "stateMutability": "view",
      "type": "function"
    },
    {
      "inputs": [],
      "name": "precrime",
      "outputs": [
        {
          "internalType": "address",
          "name": "",
          "type": "address"
        }
      ],
      "stateMutability": "view",
      "type": "function"
    },
    {
      "inputs": [
        {
          "internalType": "uint256",
          "name": "_poolId",
          "type": "uint256"
        }
      ],
      "name": "quoteFeeForPriceUpdate",
      "outputs": [
        {
          "internalType": "uint256",
          "name": "",
          "type": "uint256"
        }
      ],
      "stateMutability": "view",
      "type": "function"
    },
    {
      "inputs": [],
      "name": "renounceOwnership",
      "outputs": [],
      "stateMutability": "nonpayable",
      "type": "function"
    },
    {
      "inputs": [
        {
          "internalType": "uint256",
          "name": "",
          "type": "uint256"
        },
        {
          "internalType": "uint256",
          "name": "",
          "type": "uint256"
        }
      ],
      "name": "sameToken",
      "outputs": [
        {
          "internalType": "bool",
          "name": "",
          "type": "bool"
        }
      ],
      "stateMutability": "view",
      "type": "function"
    },
    {
      "inputs": [
        {
          "internalType": "uint16",
          "name": "_version",
          "type": "uint16"
        },
        {
          "internalType": "uint16",
          "name": "_chainId",
          "type": "uint16"
        },
        {
          "internalType": "uint256",
          "name": "_configType",
          "type": "uint256"
        },
        {
          "internalType": "bytes",
          "name": "_config",
          "type": "bytes"
        }
      ],
      "name": "setConfig",
      "outputs": [],
      "stateMutability": "nonpayable",
      "type": "function"
    },
    {
      "inputs": [
        {
          "internalType": "uint16",
          "name": "_remoteChainId",
          "type": "uint16"
        },
        {
          "internalType": "bytes",
          "name": "_adapterParams",
          "type": "bytes"
        }
      ],
      "name": "setDefaultAdapterParams",
      "outputs": [],
      "stateMutability": "nonpayable",
      "type": "function"
    },
    {
      "inputs": [
        {
          "internalType": "uint16",
          "name": "_dstChainId",
          "type": "uint16"
        },
        {
          "internalType": "uint16",
          "name": "_packetType",
          "type": "uint16"
        },
        {
          "internalType": "uint256",
          "name": "_minGas",
          "type": "uint256"
        }
      ],
      "name": "setMinDstGas",
      "outputs": [],
      "stateMutability": "nonpayable",
      "type": "function"
    },
    {
      "inputs": [
        {
          "internalType": "uint256",
          "name": "_poolId",
          "type": "uint256"
        },
        {
          "internalType": "uint256",
          "name": "_lpId",
          "type": "uint256"
        }
      ],
      "name": "setPoolToLpId",
      "outputs": [],
      "stateMutability": "nonpayable",
      "type": "function"
    },
    {
      "inputs": [
        {
          "internalType": "address",
          "name": "_precrime",
          "type": "address"
        }
      ],
      "name": "setPrecrime",
      "outputs": [],
      "stateMutability": "nonpayable",
      "type": "function"
    },
    {
      "inputs": [
        {
          "internalType": "uint16",
          "name": "_version",
          "type": "uint16"
        }
      ],
      "name": "setReceiveVersion",
      "outputs": [],
      "stateMutability": "nonpayable",
      "type": "function"
    },
    {
      "inputs": [
        {
          "internalType": "uint256",
          "name": "_poolId1",
          "type": "uint256"
        },
        {
          "internalType": "uint256",
          "name": "_poolId2",
          "type": "uint256"
        },
        {
          "internalType": "bool",
          "name": "_isSame",
          "type": "bool"
        }
      ],
      "name": "setSameToken",
      "outputs": [],
      "stateMutability": "nonpayable",
      "type": "function"
    },
    {
      "inputs": [
        {
          "internalType": "uint16",
          "name": "_version",
          "type": "uint16"
        }
      ],
      "name": "setSendVersion",
      "outputs": [],
      "stateMutability": "nonpayable",
      "type": "function"
    },
    {
      "inputs": [
        {
          "internalType": "uint256",
          "name": "_poolId",
          "type": "uint256"
        },
        {
          "internalType": "address",
          "name": "_lpStaking",
          "type": "address"
        }
      ],
      "name": "setStargatePoolIdToLPStakingAddress",
      "outputs": [],
      "stateMutability": "nonpayable",
      "type": "function"
    },
    {
      "inputs": [
        {
          "internalType": "uint256",
          "name": "_poolId",
          "type": "uint256"
        },
        {
          "internalType": "uint256",
          "name": "_basePriceSD",
          "type": "uint256"
        }
      ],
      "name": "setTokenBasePrice",
      "outputs": [],
      "stateMutability": "nonpayable",
      "type": "function"
    },
    {
      "inputs": [
        {
          "internalType": "uint256",
          "name": "_poolId",
          "type": "uint256"
        },
        {
          "internalType": "address",
          "name": "_priceFeedAddress",
          "type": "address"
        },
        {
          "internalType": "uint16[]",
          "name": "_remoteChainIds",
          "type": "uint16[]"
        }
      ],
      "name": "setTokenPriceFeed",
      "outputs": [],
      "stateMutability": "nonpayable",
      "type": "function"
    },
    {
      "inputs": [
        {
          "internalType": "uint16",
          "name": "_srcChainId",
          "type": "uint16"
        },
        {
          "internalType": "bytes",
          "name": "_path",
          "type": "bytes"
        }
      ],
      "name": "setTrustedRemote",
      "outputs": [],
      "stateMutability": "nonpayable",
      "type": "function"
    },
    {
      "inputs": [
        {
          "internalType": "uint256",
          "name": "",
          "type": "uint256"
        }
      ],
      "name": "stargatePoolIdToLPStaking",
      "outputs": [
        {
          "internalType": "address",
          "name": "",
          "type": "address"
        }
      ],
      "stateMutability": "view",
      "type": "function"
    },
    {
      "inputs": [
        {
          "internalType": "address",
          "name": "newOwner",
          "type": "address"
        }
      ],
      "name": "transferOwnership",
      "outputs": [],
      "stateMutability": "nonpayable",
      "type": "function"
    },
    {
      "inputs": [
        {
          "internalType": "uint16",
          "name": "",
          "type": "uint16"
        }
      ],
      "name": "trustedRemoteLookup",
      "outputs": [
        {
          "internalType": "bytes",
          "name": "",
          "type": "bytes"
        }
      ],
      "stateMutability": "view",
      "type": "function"
    },
    {
      "inputs": [
        {
          "internalType": "uint256",
          "name": "_poolId",
          "type": "uint256"
        }
      ],
      "name": "updateTokenPrice",
      "outputs": [],
      "stateMutability": "payable",
      "type": "function"
    },
    {
      "inputs": [
        {
          "internalType": "address",
          "name": "_from",
          "type": "address"
        },
        {
          "internalType": "bool",
          "name": "_whiteListed",
          "type": "bool"
        }
      ],
      "name": "whiteList",
      "outputs": [],
      "stateMutability": "nonpayable",
      "type": "function"
    },
    {
      "inputs": [
        {
          "internalType": "address",
          "name": "",
          "type": "address"
        }
      ],
      "name": "whitelist",
      "outputs": [
        {
          "internalType": "bool",
          "name": "",
          "type": "bool"
        }
      ],
      "stateMutability": "view",
      "type": "function"
    },
    {
      "stateMutability": "payable",
      "type": "receive"
    }
  ],
  "bytecode": "0x60c06040523480156200001157600080fd5b5060405162004f4238038062004f4283398101604081905262000034916200012e565b806000620000416200010d565b600080546001600160a01b0319166001600160a01b0383169081178255604051929350917f8be0079c531659141344cd1fd0a4f28419497f9722a3daafe3b4186f6b6457e0908290a35060601b6001600160601b0319166080526001600160a01b038216620000cd5760405162461bcd60e51b8152600401620000c49062000165565b60405180910390fd5b6001600160a01b038116620000f65760405162461bcd60e51b8152600401620000c490620001a6565b5060601b6001600160601b03191660a052620001e8565b3390565b80516001600160a01b03811681146200012957600080fd5b919050565b6000806040838503121562000141578182fd5b6200014c8362000111565b91506200015c6020840162000111565b90509250929050565b60208082526021908201527f4665654c6962726172793a20466163746f72792063616e6e6f742062652030786040820152600360fc1b606082015260800190565b60208082526022908201527f4665654c6962726172793a20456e64706f696e742063616e6e6f742062652030604082015261078360f41b606082015260800190565b60805160601c60a05160601c614cfe6200024460003980611c82528061210a52806127d3525080610aa75280610da45280610f065280611484528061163c52806123a552806128855280613045528061369b5250614cfe6000f3fe6080604052600436106103b05760003560e01c80637ba5c12f116101e7578063baf3292d1161010d578063e18bce50116100a0578063f100e6771161006f578063f100e67714610a18578063f2fde38b14610a45578063f5ecbdbc14610a65578063fc6834a114610a85576103b7565b8063e18bce50146109a3578063e91e9b6f146109c3578063ea8e7530146109d8578063eb8d72b7146109f8576103b7565b8063d16baeb9116100dc578063d16baeb91461094e578063d616f0dd1461096e578063d7f6bde314610566578063df2a5b3b14610983576103b7565b8063baf3292d146108d9578063bb05078d146108f9578063c45a015514610919578063cbed8b9c1461092e576103b7565b8063950c8a7411610185578063a810de6c11610154578063a810de6c1461086f578063ad7bbfc914610884578063b353aaa7146108a4578063ba6afedf146108b9576103b7565b8063950c8a7414610805578063972883c41461081a5780639b19251a1461083a578063a14986351461085a576103b7565b806389ca9256116101c157806389ca92561461078c5780638cfd8f5c146107bb5780638da5cb5b146107db578063918f8674146107f0576103b7565b80637ba5c12f1461077757806380651ee2146106ac578063886a9c50146105c8576103b7565b80633d8b38f6116102d757806358cbb8ed1161026a5780636ddc4561116102395780636ddc4561146106f4578063715018a6146107145780637533d788146107295780637b35c26014610749576103b7565b806358cbb8ed1461068c5780635e3f2727146106ac5780636548c4ac146106c1578063676c0d77146106e1576103b7565b80634f6412d8116102a65780634f6412d814610612578063518a9f9f1461063257806352863703146106475780635436ac171461065c576103b7565b80633d8b38f6146105a85780633dad0dd5146105c857806342d65a8d146105dd5780634e8f4fa8146105fd576103b7565b806313c6e3801161034f57806323a443251161031e57806323a443251461051957806327274e85146105395780632b3ec8c9146105665780633c2c30651461057b576103b7565b806313c6e380146104a25780631738fe38146104c25780631ab62430146104d75780631e04cbf314610504576103b7565b806307e0db171161038b57806307e0db171461042b5780630b4501fd1461044b5780630d8e6e2c1461046057806310ddb13714610482576103b7565b80621d3567146103bc578063012a1c2d146103de578063040d583514610409576103b7565b366103b757005b600080fd5b3480156103c857600080fd5b506103dc6103d736600461415e565b610aa5565b005b3480156103ea57600080fd5b506103f3610d03565b6040516104009190614b88565b60405180910390f35b34801561041557600080fd5b5061041e610d0f565b6040516104009190614bce565b34801561043757600080fd5b506103dc6104463660046140ef565b610d14565b34801561045757600080fd5b506103f3610e34565b34801561046c57600080fd5b50610475610e3f565b60405161040091906147d5565b34801561048e57600080fd5b506103dc61049d3660046140ef565b610e76565b3480156104ae57600080fd5b506103f36104bd366004614369565b610f7b565b3480156104ce57600080fd5b506103f3610f8d565b3480156104e357600080fd5b506104f76104f23660046144b4565b610f98565b6040516104009190614a47565b34801561051057600080fd5b506103f3611109565b34801561052557600080fd5b506103dc610534366004614443565b611115565b34801561054557600080fd5b50610559610554366004614443565b61120c565b60405161040091906147ad565b34801561057257600080fd5b506103f361126e565b34801561058757600080fd5b5061059b610596366004614369565b611279565b6040516104009190614703565b3480156105b457600080fd5b506105596105c336600461410b565b6112a1565b3480156105d457600080fd5b506103f3611392565b3480156105e957600080fd5b506103dc6105f836600461410b565b61139e565b34801561060957600080fd5b506103f3611505565b34801561061e57600080fd5b506103f361062d366004614369565b611510565b34801561063e57600080fd5b506103f36116eb565b34801561065357600080fd5b506103f36116f6565b34801561066857600080fd5b5061067c610677366004614369565b611701565b6040516104009493929190614724565b34801561069857600080fd5b506104756106a73660046140ef565b611742565b3480156106b857600080fd5b506103f36117fb565b3480156106cd57600080fd5b506103dc6106dc366004614443565b611805565b6103dc6106ef366004614369565b6118a5565b34801561070057600080fd5b506103dc61070f366004614399565b611a85565b34801561072057600080fd5b506103dc611b66565b34801561073557600080fd5b506104756107443660046140ef565b611bf6565b34801561075557600080fd5b50610769610764366004614487565b611c7b565b604051610400929190614ba5565b34801561078357600080fd5b506103f3611f5d565b34801561079857600080fd5b506107ac6107a7366004614369565b611f67565b604051610400939291906147b8565b3480156107c757600080fd5b506103f36107d63660046141f6565b611fba565b3480156107e757600080fd5b5061059b611fd7565b3480156107fc57600080fd5b506103f3611ff3565b34801561081157600080fd5b5061059b611fff565b34801561082657600080fd5b506103f36108353660046145dc565b61201b565b34801561084657600080fd5b50610559610855366004613faa565b61208b565b34801561086657600080fd5b506103f36120a0565b34801561087b57600080fd5b506103f36120ab565b34801561089057600080fd5b5061076961089f366004614505565b6120b6565b3480156108b057600080fd5b5061059b6123a3565b3480156108c557600080fd5b506103dc6108d4366004614487565b6123c7565b3480156108e557600080fd5b506103dc6108f4366004613faa565b61250e565b34801561090557600080fd5b5061076961091436600461456b565b612615565b34801561092557600080fd5b5061059b6127d1565b34801561093a57600080fd5b506103dc6109493660046142b3565b6127f5565b34801561095a57600080fd5b506103dc610969366004613fe2565b612961565b34801561097a57600080fd5b506103f3612a45565b34801561098f57600080fd5b506103dc61099e366004614273565b612a4f565b3480156109af57600080fd5b506105596109be366004614443565b612b9b565b3480156109cf57600080fd5b506103f3612bbb565b3480156109e457600080fd5b506103dc6109f33660046143bd565b612bc5565b348015610a0457600080fd5b506103dc610a1336600461410b565b612cad565b348015610a2457600080fd5b50610a38610a33366004614369565b612de9565b6040516104009190614765565b348015610a5157600080fd5b506103dc610a60366004613faa565b612e76565b348015610a7157600080fd5b50610475610a80366004614223565b612fe3565b348015610a9157600080fd5b506103dc610aa036600461410b565b6131a1565b7f000000000000000000000000000000000000000000000000000000000000000073ffffffffffffffffffffffffffffffffffffffff16610ae4613253565b73ffffffffffffffffffffffffffffffffffffffff1614610b4c576040805162461bcd60e51b815260206004820152601e60248201527f4c7a4170703a20696e76616c696420656e64706f696e742063616c6c65720000604482015290519081900360640190fd5b61ffff8616600090815260016020818152604080842080548251600295821615610100027fffffffffffffffffffffffffffffffffffffffffffffffffffffffffffffffff0190911694909404601f810184900484028501840190925281845291830182828015610bfe5780601f10610bd357610100808354040283529160200191610bfe565b820191906000526020600020905b815481529060010190602001808311610be157829003601f168201915b50505050509050805186869050148015610c19575060008151115b8015610c495750808051906020012086866040518083838082843780830192505050925050506040518091039020145b610c845760405162461bcd60e51b8152600401808060200182810382526026815260200180614ca36026913960400191505060405180910390fd5b610cfa8787878080601f01602080910402602001604051908101604052809392919081815260200183838082843760009201919091525050604080516020601f8a018190048102820181019092528881528a93509150889088908190840183828082843760009201919091525061325792505050565b50505050505050565b670dd280b9144a000081565b600881565b610d1c613253565b73ffffffffffffffffffffffffffffffffffffffff16610d3a611fd7565b73ffffffffffffffffffffffffffffffffffffffff1614610da2576040805162461bcd60e51b815260206004820181905260248201527f4f776e61626c653a2063616c6c6572206973206e6f7420746865206f776e6572604482015290519081900360640190fd5b7f000000000000000000000000000000000000000000000000000000000000000073ffffffffffffffffffffffffffffffffffffffff166307e0db17826040518263ffffffff1660e01b8152600401808261ffff168152602001915050600060405180830381600087803b158015610e1957600080fd5b505af1158015610e2d573d6000803e3d6000fd5b5050505050565b6603328b944c400081565b60408051808201909152600581527f352e302e30000000000000000000000000000000000000000000000000000000602082015290565b610e7e613253565b73ffffffffffffffffffffffffffffffffffffffff16610e9c611fd7565b73ffffffffffffffffffffffffffffffffffffffff1614610f04576040805162461bcd60e51b815260206004820181905260248201527f4f776e61626c653a2063616c6c6572206973206e6f7420746865206f776e6572604482015290519081900360640190fd5b7f000000000000000000000000000000000000000000000000000000000000000073ffffffffffffffffffffffffffffffffffffffff166310ddb137826040518263ffffffff1660e01b8152600401808261ffff168152602001915050600060405180830381600087803b158015610e1957600080fd5b60056020526000908152604090205481565b66354a6ba7a1800081565b610fa0613da1565b8585808214610ff257600260008381526006602052604090206003015460ff166002811115610fcb57fe5b1415610ff25760405162461bcd60e51b8152600401610fe9906149d9565b60405180910390fd5b73ffffffffffffffffffffffffffffffffffffffff851660009081526004602052604090205460ff16611026898683611c7b565b608086015260408501819052151560006110448b8b8b8a87876120b6565b602088019190915290506000806110608d8d8d8c878a8a612615565b60808a015191935091506110749083613285565b608089015260608801819052600061108e8e8e8c8961201b565b60808a01519091506110a09082613285565b60808a0181905260208a015160608b01516110c692916110c09190613285565b90613285565b8a10156110f8576110f289602001516110ec8b606001518d6132df90919063ffffffff16565b906132df565b60808a01525b505050505050505095945050505050565b6706f05b59d3b2000081565b61111d613253565b73ffffffffffffffffffffffffffffffffffffffff1661113b611fd7565b73ffffffffffffffffffffffffffffffffffffffff16146111a3576040805162461bcd60e51b815260206004820181905260248201527f4f776e61626c653a2063616c6c6572206973206e6f7420746865206f776e6572604482015290519081900360640190fd5b600081116111c35760405162461bcd60e51b8152600401610fe990614945565b60009182526006602052604090912060018101829055600281019190915560030180547fffffffffffffffffffffffffffffffffffffffffffffffffffffffffffffff00169055565b60008183141561121e57506001611268565b81831061124757600082815260076020908152604080832086845290915290205460ff16611265565b600083815260076020908152604080832085845290915290205460ff165b90505b92915050565b66038d7ea4c6800081565b60096020526000908152604090205473ffffffffffffffffffffffffffffffffffffffff1681565b61ffff8316600090815260016020818152604080842080548251600295821615610100027fffffffffffffffffffffffffffffffffffffffffffffffffffffffffffffffff0190911694909404601f81018490048402850184019092528184528493929091908301828280156113585780601f1061132d57610100808354040283529160200191611358565b820191906000526020600020905b81548152906001019060200180831161133b57829003601f168201915b50505050509050838360405180838380828437808301925050509250505060405180910390208180519060200120149150505b9392505050565b670853a0d2313c000081565b6113a6613253565b73ffffffffffffffffffffffffffffffffffffffff166113c4611fd7565b73ffffffffffffffffffffffffffffffffffffffff161461142c576040805162461bcd60e51b815260206004820181905260248201527f4f776e61626c653a2063616c6c6572206973206e6f7420746865206f776e6572604482015290519081900360640190fd5b604080517f42d65a8d00000000000000000000000000000000000000000000000000000000815261ffff851660048201908152602482019283526044820184905273ffffffffffffffffffffffffffffffffffffffff7f000000000000000000000000000000000000000000000000000000000000000016926342d65a8d92879287928792606401848480828437600081840152601f19601f820116905080830192505050945050505050600060405180830381600087803b1580156114f157600080fd5b505af1158015610cfa573d6000803e3d6000fd5b6608e1bc9bf0400081565b600081815260066020908152604080832060040180548251818502810185019093528083528493849392919083018282801561159357602002820191906000526020600020906000905b82829054906101000a900461ffff1661ffff168152602001906002019060208260010104928301926001038202915080841161155a5790505b505050505090506000846000806040516020016115b293929190614bb3565b604051602081830303815290604052905060005b82518110156116df5760008382815181106115dd57fe5b60209081029190910181015161ffff811660009081526008909252604080832090517f40a7bb1000000000000000000000000000000000000000000000000000000000815291935073ffffffffffffffffffffffffffffffffffffffff7f000000000000000000000000000000000000000000000000000000000000000016916340a7bb109161167791869130918a918891600401614a8b565b604080518083038186803b15801561168e57600080fd5b505afa1580156116a2573d6000803e3d6000fd5b505050506040513d601f19601f820116820180604052508101906116c69190614464565b5090506116d38682613285565b955050506001016115c6565b5091925050505b919050565b66b1a2bc2ec5000081565b6601c6bf5263400081565b600660205260009081526040902080546001820154600283015460039093015473ffffffffffffffffffffffffffffffffffffffff90921692909160ff1684565b60086020908152600091825260409182902080548351601f60027fffffffffffffffffffffffffffffffffffffffffffffffffffffffffffffffff610100600186161502019093169290920491820184900484028101840190945280845290918301828280156117f35780601f106117c8576101008083540402835291602001916117f3565b820191906000526020600020905b8154815290600101906020018083116117d657829003601f168201915b505050505081565b655af3107a400081565b61180d613253565b73ffffffffffffffffffffffffffffffffffffffff1661182b611fd7565b73ffffffffffffffffffffffffffffffffffffffff1614611893576040805162461bcd60e51b815260206004820181905260248201527f4f776e61626c653a2063616c6c6572206973206e6f7420746865206f776e6572604482015290519081900360640190fd5b60009182526005602052604090912055565b600081815260066020526040812090806118be8361333c565b915091506118cd8483836134e7565b60008360040180548060200260200160405190810160405280929190818152602001828054801561194557602002820191906000526020600020906000905b82829054906101000a900461ffff1661ffff168152602001906002019060208260010104928301926001038202915080841161190c5790505b50505050509050600085848460405160200161196393929190614bb3565b604051602081830303815290604052905060005b8251811015610cfa57600083828151811061198e57fe5b602002602001015190506000600185510383146119ab57306119ad565b335b61ffff831660009081526008602090815260408083208054825160026001831615610100027fffffffffffffffffffffffffffffffffffffffffffffffffffffffffffffffff0190921691909104601f8101859004850282018501909352828152949550611a7b9487948a94889491939190830182828015611a705780601f10611a4557610100808354040283529160200191611a70565b820191906000526020600020905b815481529060010190602001808311611a5357829003601f168201915b50505050504761359f565b5050600101611977565b611a8d613253565b73ffffffffffffffffffffffffffffffffffffffff16611aab611fd7565b73ffffffffffffffffffffffffffffffffffffffff1614611b13576040805162461bcd60e51b815260206004820181905260248201527f4f776e61626c653a2063616c6c6572206973206e6f7420746865206f776e6572604482015290519081900360640190fd5b60009182526009602052604090912080547fffffffffffffffffffffffff00000000000000000000000000000000000000001673ffffffffffffffffffffffffffffffffffffffff909216919091179055565b611b6e613253565b73ffffffffffffffffffffffffffffffffffffffff16611b8c611fd7565b73ffffffffffffffffffffffffffffffffffffffff1614611bf4576040805162461bcd60e51b815260206004820181905260248201527f4f776e61626c653a2063616c6c6572206973206e6f7420746865206f776e6572604482015290519081900360640190fd5b565b60016020818152600092835260409283902080548451600294821615610100027fffffffffffffffffffffffffffffffffffffffffffffffffffffffffffffffff0190911693909304601f81018390048302840183019094528383529192908301828280156117f35780601f106117c8576101008083540402835291602001916117f3565b60008060007f000000000000000000000000000000000000000000000000000000000000000073ffffffffffffffffffffffffffffffffffffffff1663068bcd8d876040518263ffffffff1660e01b8152600401611cd99190614b88565b60206040518083038186803b158015611cf157600080fd5b505afa158015611d05573d6000803e3d6000fd5b505050506040513d601f19601f82011682018060405250810190611d299190613fc6565b90506000611d36826138a6565b905060008273ffffffffffffffffffffffffffffffffffffffff166315770f926040518163ffffffff1660e01b815260040160206040518083038186803b158015611d8057600080fd5b505afa158015611d94573d6000803e3d6000fd5b505050506040513d601f19601f82011682018060405250810190611db89190614381565b905060008373ffffffffffffffffffffffffffffffffffffffff16639bb811196040518163ffffffff1660e01b815260040160206040518083038186803b158015611e0257600080fd5b505afa158015611e16573d6000803e3d6000fd5b505050506040513d601f19601f82011682018060405250810190611e3a9190614381565b9050828211611e53576000809550955050505050611f55565b6000611e5f83856132df565b90506000611e7f82611e7985670de0b6b3a7640000613a2f565b90613a88565b9050660221b262dd80008111158015611e96575088155b15611ead5760008097509750505050505050611f55565b611ec3670de0b6b3a7640000611e798c84613a2f565b9750828811611ed25787611ed4565b825b97508815611eec575060009550611f55945050505050565b6000611f048b611e798b670de0b6b3a7640000613a2f565b90506608e1bc9bf04000811115611f48576000611f34670de0b6b3a7640000611e798e6608e1bc9bf04000613a2f565b9050611f408a826132df565b985050611f4d565b600097505b505050505050505b935093915050565b651b48eb57e00081565b6000818152600660205260408120819081908180611f848361333c565b915091506000611f95848484613aef565b9050600081611fa8578460020154611faa565b835b9199919850919650945050505050565b600260209081526000928352604080842090915290825290205481565b60005473ffffffffffffffffffffffffffffffffffffffff1690565b670de0b6b3a764000081565b60035473ffffffffffffffffffffffffffffffffffffffff1681565b6000838514806120285750815b1561203557506000612083565b600061204086613ba8565b9050600061204d86613ba8565b905080821061206157600092505050612083565b600061207182611e798886613a2f565b905061207d86826132df565b93505050505b949350505050565b60046020526000908152604090205460ff1681565b660221b262dd800081565b660e35fa931a000081565b60008083156120ca57506000905080612398565b6040517f068bcd8d00000000000000000000000000000000000000000000000000000000815260009073ffffffffffffffffffffffffffffffffffffffff7f0000000000000000000000000000000000000000000000000000000000000000169063068bcd8d9061213f908c90600401614b88565b60206040518083038186803b15801561215757600080fd5b505afa15801561216b573d6000803e3d6000fd5b505050506040513d601f19601f8201168201806040525081019061218f9190613fc6565b73ffffffffffffffffffffffffffffffffffffffff1663159f6add888a6040518363ffffffff1660e01b81526004016121c9929190614b74565b6101006040518083038186803b1580156121e257600080fd5b505afa1580156121f6573d6000803e3d6000fd5b505050506040513d601f19601f8201168201806040525081019061221a9190614058565b60e0810151608082015191925090878110156122485760405162461bcd60e51b8152600401610fe9906149a2565b6000612254828a6132df565b90506000612276670de0b6b3a7640000611e7986670853a0d2313c0000613a2f565b90506000612297670de0b6b3a7640000611e798766b1a2bc2ec50000613a2f565b90506000808c8486106122d0576122c0670de0b6b3a7640000611e7983651b48eb57e000613a2f565b92508b6122cb578291505b61238b565b8386106123085760008588106122e657856122e8565b875b9050612300660e35fa931a000060008888858c613be2565b93505061238b565b83871061236557600085881061231e5785612320565b875b905061234261233b660e35fa931a000060008989868b613be2565b8590613285565b935061230061233b670dd280b9144a0000660e35fa931a00008860008a8d613be2565b8661238761233b670dd280b9144a0000660e35fa931a0000886000868d613be2565b9350505b5090985096505050505050505b965096945050505050565b7f000000000000000000000000000000000000000000000000000000000000000081565b6123cf613253565b73ffffffffffffffffffffffffffffffffffffffff166123ed611fd7565b73ffffffffffffffffffffffffffffffffffffffff1614612455576040805162461bcd60e51b815260206004820181905260248201527f4f776e61626c653a2063616c6c6572206973206e6f7420746865206f776e6572604482015290519081900360640190fd5b818314156124755760405162461bcd60e51b8152600401610fe9906147e8565b818310156124c5576000838152600760209081526040808320858452909152902080547fffffffffffffffffffffffffffffffffffffffffffffffffffffffffffffff0016821515179055612509565b6000828152600760209081526040808320868452909152902080547fffffffffffffffffffffffffffffffffffffffffffffffffffffffffffffff00168215151790555b505050565b612516613253565b73ffffffffffffffffffffffffffffffffffffffff16612534611fd7565b73ffffffffffffffffffffffffffffffffffffffff161461259c576040805162461bcd60e51b815260206004820181905260248201527f4f776e61626c653a2063616c6c6572206973206e6f7420746865206f776e6572604482015290519081900360640190fd5b6003805473ffffffffffffffffffffffffffffffffffffffff83167fffffffffffffffffffffffff0000000000000000000000000000000000000000909116811790915560408051918252517f5db758e995a17ec1ad84bdef7e8c3293a0bd6179bcce400dff5d4c3d87db726b9181900360200190a150565b6000808315612629575060009050806127c5565b6000836126595761263a8a8a61120c565b61264b576603328b944c4000612654565b6601c6bf526340005b612661565b6596f9e30860005b905060008461267657655af3107a400061267e565b651eec3dec20005b9050878b600061269e8a6110ec670de0b6b3a7640000611e79878a613a2f565b905060006126b8670de0b6b3a7640000611e798688613a2f565b60008481526009602052604090205490915073ffffffffffffffffffffffffffffffffffffffff1680156127ba576000848152600560205260408082205490517f1526fe2700000000000000000000000000000000000000000000000000000000815283929173ffffffffffffffffffffffffffffffffffffffff841691631526fe279161274891600401614b88565b60806040518083038186803b15801561276057600080fd5b505afa158015612774573d6000803e3d6000fd5b505050506040513d601f19601f82011682018060405250810190612798919061401a565b505091505060008111156127b7576127b08585613285565b9450600093505b50505b509096509450505050505b97509795505050505050565b7f000000000000000000000000000000000000000000000000000000000000000081565b6127fd613253565b73ffffffffffffffffffffffffffffffffffffffff1661281b611fd7565b73ffffffffffffffffffffffffffffffffffffffff1614612883576040805162461bcd60e51b815260206004820181905260248201527f4f776e61626c653a2063616c6c6572206973206e6f7420746865206f776e6572604482015290519081900360640190fd5b7f000000000000000000000000000000000000000000000000000000000000000073ffffffffffffffffffffffffffffffffffffffff1663cbed8b9c86868686866040518663ffffffff1660e01b8152600401808661ffff1681526020018561ffff168152602001848152602001806020018281038252848482818152602001925080828437600081840152601f19601f8201169050808301925050509650505050505050600060405180830381600087803b15801561294257600080fd5b505af1158015612956573d6000803e3d6000fd5b505050505050505050565b612969613253565b73ffffffffffffffffffffffffffffffffffffffff16612987611fd7565b73ffffffffffffffffffffffffffffffffffffffff16146129ef576040805162461bcd60e51b815260206004820181905260248201527f4f776e61626c653a2063616c6c6572206973206e6f7420746865206f776e6572604482015290519081900360640190fd5b73ffffffffffffffffffffffffffffffffffffffff91909116600090815260046020526040902080547fffffffffffffffffffffffffffffffffffffffffffffffffffffffffffffff0016911515919091179055565b6596f9e308600081565b612a57613253565b73ffffffffffffffffffffffffffffffffffffffff16612a75611fd7565b73ffffffffffffffffffffffffffffffffffffffff1614612add576040805162461bcd60e51b815260206004820181905260248201527f4f776e61626c653a2063616c6c6572206973206e6f7420746865206f776e6572604482015290519081900360640190fd5b60008111612b32576040805162461bcd60e51b815260206004820152601560248201527f4c7a4170703a20696e76616c6964206d696e4761730000000000000000000000604482015290519081900360640190fd5b61ffff808416600081815260026020908152604080832094871680845294825291829020859055815192835282019290925280820183905290517f9d5c7c0b934da8fefa9c7760c98383778a12dfbfc0c3b3106518f43fb9508ac09181900360600190a1505050565b600760209081526000928352604080842090915290825290205460ff1681565b651eec3dec200081565b612bcd613253565b73ffffffffffffffffffffffffffffffffffffffff16612beb611fd7565b73ffffffffffffffffffffffffffffffffffffffff1614612c53576040805162461bcd60e51b815260206004820181905260248201527f4f776e61626c653a2063616c6c6572206973206e6f7420746865206f776e6572604482015290519081900360640190fd5b600084815260066020526040902080547fffffffffffffffffffffffff00000000000000000000000000000000000000001673ffffffffffffffffffffffffffffffffffffffff8516178155610e2d906004018383613dd7565b612cb5613253565b73ffffffffffffffffffffffffffffffffffffffff16612cd3611fd7565b73ffffffffffffffffffffffffffffffffffffffff1614612d3b576040805162461bcd60e51b815260206004820181905260248201527f4f776e61626c653a2063616c6c6572206973206e6f7420746865206f776e6572604482015290519081900360640190fd5b61ffff83166000908152600160205260409020612d59908383613e84565b507ffa41487ad5d6728f0b19276fa1eddc16558578f5109fc39d2dc33c3230470dab838383604051808461ffff168152602001806020018281038252848482818152602001925080828437600083820152604051601f9091017fffffffffffffffffffffffffffffffffffffffffffffffffffffffffffffffe016909201829003965090945050505050a1505050565b600081815260066020908152604091829020600401805483518184028101840190945280845260609392830182828015612e6a57602002820191906000526020600020906000905b82829054906101000a900461ffff1661ffff1681526020019060020190602082600101049283019260010382029150808411612e315790505b50505050509050919050565b612e7e613253565b73ffffffffffffffffffffffffffffffffffffffff16612e9c611fd7565b73ffffffffffffffffffffffffffffffffffffffff1614612f04576040805162461bcd60e51b815260206004820181905260248201527f4f776e61626c653a2063616c6c6572206973206e6f7420746865206f776e6572604482015290519081900360640190fd5b73ffffffffffffffffffffffffffffffffffffffff8116612f565760405162461bcd60e51b8152600401808060200182810382526026815260200180614c2c6026913960400191505060405180910390fd5b6000805460405173ffffffffffffffffffffffffffffffffffffffff808516939216917f8be0079c531659141344cd1fd0a4f28419497f9722a3daafe3b4186f6b6457e091a3600080547fffffffffffffffffffffffff00000000000000000000000000000000000000001673ffffffffffffffffffffffffffffffffffffffff92909216919091179055565b604080517ff5ecbdbc00000000000000000000000000000000000000000000000000000000815261ffff80871660048301528516602482015230604482015260648101839052905160609173ffffffffffffffffffffffffffffffffffffffff7f0000000000000000000000000000000000000000000000000000000000000000169163f5ecbdbc91608480820192600092909190829003018186803b15801561308c57600080fd5b505afa1580156130a0573d6000803e3d6000fd5b505050506040513d6000823e601f3d9081017fffffffffffffffffffffffffffffffffffffffffffffffffffffffffffffffe016820160405260208110156130e757600080fd5b810190808051604051939291908464010000000082111561310757600080fd5b90830190602082018581111561311c57600080fd5b825164010000000081118282018810171561313657600080fd5b82525081516020918201929091019080838360005b8381101561316357818101518382015260200161314b565b50505050905090810190601f1680156131905780820380516001836020036101000a031916815260200191505b506040525050509050949350505050565b6131a9613253565b73ffffffffffffffffffffffffffffffffffffffff166131c7611fd7565b73ffffffffffffffffffffffffffffffffffffffff161461322f576040805162461bcd60e51b815260206004820181905260248201527f4f776e61626c653a2063616c6c6572206973206e6f7420746865206f776e6572604482015290519081900360640190fd5b61ffff8316600090815260086020526040902061324d908383613e84565b50505050565b3390565b6000806000838060200190518101906132709190614324565b9250925061ffff169250610cfa8383836134e7565b600082820183811015611265576040805162461bcd60e51b815260206004820152601b60248201527f536166654d6174683a206164646974696f6e206f766572666c6f770000000000604482015290519081900360640190fd5b600082821115613336576040805162461bcd60e51b815260206004820152601e60248201527f536166654d6174683a207375627472616374696f6e206f766572666c6f770000604482015290519081900360640190fd5b50900390565b8054600090819073ffffffffffffffffffffffffffffffffffffffff16806133765760405162461bcd60e51b8152600401610fe99061490e565b60008173ffffffffffffffffffffffffffffffffffffffff1663313ce5676040518163ffffffff1660e01b815260040160206040518083038186803b1580156133be57600080fd5b505afa1580156133d2573d6000803e3d6000fd5b505050506040513d601f19601f820116820180604052508101906133f6919061466b565b905060008273ffffffffffffffffffffffffffffffffffffffff1663feaf968c6040518163ffffffff1660e01b815260040160a06040518083038186803b15801561344057600080fd5b505afa158015613454573d6000803e3d6000fd5b505050506040513d601f19601f82011682018060405250810190613478919061461c565b505050915050600081121561349f5760405162461bcd60e51b8152600401610fe9906148d7565b60006134ab8284613c92565b905060006134b888613cda565b90508082116134c757816134c9565b805b915060006134d78383613cfc565b9297509195505050505050915091565b60008381526006602052604090206002808201849055600382015460ff169081111561350f57fe5b82600281111561351b57fe5b1461355f576003810180548391907fffffffffffffffffffffffffffffffffffffffffffffffffffffffffffffff0016600183600281111561355957fe5b02179055505b837f5f4a9a1b73bee700ca1fb203bb004bcc0a7eca48af3f147b24dcf5bf4bf3c00b8484604051613591929190614b91565b60405180910390a250505050565b61ffff8616600090815260016020818152604080842080548251600295821615610100027fffffffffffffffffffffffffffffffffffffffffffffffffffffffffffffffff0190911694909404601f8101849004840285018401909252818452918301828280156136515780601f1061362657610100808354040283529160200191613651565b820191906000526020600020905b81548152906001019060200180831161363457829003601f168201915b505050505090508051600014156136995760405162461bcd60e51b8152600401808060200182810382526030815260200180614c526030913960400191505060405180910390fd5b7f000000000000000000000000000000000000000000000000000000000000000073ffffffffffffffffffffffffffffffffffffffff1663c58031008389848a8a8a8a6040518863ffffffff1660e01b8152600401808761ffff16815260200180602001806020018673ffffffffffffffffffffffffffffffffffffffff1681526020018573ffffffffffffffffffffffffffffffffffffffff16815260200180602001848103845289818151815260200191508051906020019080838360005b8381101561377257818101518382015260200161375a565b50505050905090810190601f16801561379f5780820380516001836020036101000a031916815260200191505b5084810383528851815288516020918201918a019080838360005b838110156137d25781810151838201526020016137ba565b50505050905090810190601f1680156137ff5780820380516001836020036101000a031916815260200191505b50848103825285518152855160209182019187019080838360005b8381101561383257818101518382015260200161381a565b50505050905090810190601f16801561385f5780820380516001836020036101000a031916815260200191505b5099505050505050505050506000604051808303818588803b15801561388457600080fd5b505af1158015613898573d6000803e3d6000fd5b505050505050505050505050565b60006112688273ffffffffffffffffffffffffffffffffffffffff1663feb56b156040518163ffffffff1660e01b815260040160206040518083038186803b1580156138f157600080fd5b505afa158015613905573d6000803e3d6000fd5b505050506040513d601f19601f820116820180604052508101906139299190614381565b8373ffffffffffffffffffffffffffffffffffffffff1663fc0c546a6040518163ffffffff1660e01b815260040160206040518083038186803b15801561396f57600080fd5b505afa158015613983573d6000803e3d6000fd5b505050506040513d601f19601f820116820180604052508101906139a79190613fc6565b73ffffffffffffffffffffffffffffffffffffffff166370a08231856040518263ffffffff1660e01b81526004016139df9190614703565b60206040518083038186803b1580156139f757600080fd5b505afa158015613a0b573d6000803e3d6000fd5b505050506040513d601f19601f82011682018060405250810190611e799190614381565b600082613a3e57506000611268565b82820282848281613a4b57fe5b04146112655760405162461bcd60e51b8152600401808060200182810382526021815260200180614c826021913960400191505060405180910390fd5b6000808211613ade576040805162461bcd60e51b815260206004820152601a60248201527f536166654d6174683a206469766973696f6e206279207a65726f000000000000604482015290519081900360640190fd5b818381613ae757fe5b049392505050565b600383015460009060ff166002811115613b0557fe5b826002811115613b1157fe5b14613b1e5750600161138b565b60006001836002811115613b2e57fe5b14613b405766038d7ea4c68000613b48565b655af3107a40005b60028601549091506000818611613b6857613b6382876132df565b613b72565b613b7286836132df565b90508115613b985782613b9183611e7984670de0b6b3a7640000613a2f565b1015613b9d565b600081115b979650505050505050565b600081815260066020526040812081600382015460ff166002811115613bca57fe5b14613bd957806002015461138b565b61138b81613cda565b6000838210158015613bf45750848311155b613c105760405162461bcd60e51b8152600401610fe990614845565b6000613c1c86866132df565b90506000613c3c886110c084611e798d613c368d8c6132df565b90613a2f565b90506000613c56896110c085611e798e613c368e8c6132df565b90506000613c6487876132df565b9050613c83670de0b6b3a7640000611e7960028185613c368989613285565b9b9a5050505050505050505050565b600060ff821660081415613ca7575081611268565b6000613cb4836008613d55565b9050600860ff841610613cd057613ccb8482613a88565b612083565b6120838482613a2f565b6001810154806116e65760405162461bcd60e51b8152600401610fe990614a10565b600080613d1983611e79670de0b6b3a7640000613c3683896132df565b905066038d7ea4c680008111613d33576000915050611268565b66354a6ba7a180008110613d4b576002915050611268565b6001915050611268565b6000808260ff168460ff1611613d6d57838303613d71565b8284035b60ff1690506014811115613d975760405162461bcd60e51b8152600401610fe99061487a565b600a0a9392505050565b6040518060c001604052806000815260200160008152602001600081526020016000815260200160008152602001600081525090565b82805482825590600052602060002090600f01601090048101928215613e745791602002820160005b83821115613e4457833561ffff1683826101000a81548161ffff021916908361ffff1602179055509260200192600201602081600101049283019260010302613e00565b8015613e725782816101000a81549061ffff0219169055600201602081600101049283019260010302613e44565b505b50613e80929150613f1e565b5090565b828054600181600116156101000203166002900490600052602060002090601f016020900481019282613eba5760008555613e74565b82601f10613ef1578280017fffffffffffffffffffffffffffffffffffffffffffffffffffffffffffffff00823516178555613e74565b82800160010185558215613e74579182015b82811115613e74578235825591602001919060010190613f03565b5b80821115613e805760008155600101613f1f565b80516116e681614c0d565b60008083601f840112613f4f578182fd5b50813567ffffffffffffffff811115613f66578182fd5b602083019150836020828501011115613f7e57600080fd5b9250929050565b80516116e681614c1b565b805169ffffffffffffffffffff811681146116e657600080fd5b600060208284031215613fbb578081fd5b813561126581614be8565b600060208284031215613fd7578081fd5b815161126581614be8565b60008060408385031215613ff4578081fd5b8235613fff81614be8565b9150602083013561400f81614c0d565b809150509250929050565b6000806000806080858703121561402f578182fd5b845161403a81614be8565b60208601516040870151606090970151919890975090945092505050565b600061010080838503121561406b578182fd5b6040519081019067ffffffffffffffff8211818310171561408857fe5b8160405261409584613f33565b81526140a360208501613f85565b602082015260408401516040820152606084015160608201526080840151608082015260a084015160a082015260c084015160c082015260e084015160e0820152809250505092915050565b600060208284031215614100578081fd5b813561126581614c1b565b60008060006040848603121561411f578283fd5b833561412a81614c1b565b9250602084013567ffffffffffffffff811115614145578283fd5b61415186828701613f3e565b9497909650939450505050565b60008060008060008060808789031215614176578182fd5b863561418181614c1b565b9550602087013567ffffffffffffffff8082111561419d578384fd5b6141a98a838b01613f3e565b90975095506040890135915080821682146141c2578384fd5b909350606088013590808211156141d7578384fd5b506141e489828a01613f3e565b979a9699509497509295939492505050565b60008060408385031215614208578182fd5b823561421381614c1b565b9150602083013561400f81614c1b565b60008060008060808587031215614238578182fd5b843561424381614c1b565b9350602085013561425381614c1b565b9250604085013561426381614be8565b9396929550929360600135925050565b600080600060608486031215614287578081fd5b833561429281614c1b565b925060208401356142a281614c1b565b929592945050506040919091013590565b6000806000806000608086880312156142ca578283fd5b85356142d581614c1b565b945060208601356142e581614c1b565b935060408601359250606086013567ffffffffffffffff811115614307578182fd5b61431388828901613f3e565b969995985093965092949392505050565b600080600060608486031215614338578081fd5b835161434381614c1b565b6020850151604086015191945092506003811061435e578182fd5b809150509250925092565b60006020828403121561437a578081fd5b5035919050565b600060208284031215614392578081fd5b5051919050565b600080604083850312156143ab578182fd5b82359150602083013561400f81614be8565b600080600080606085870312156143d2578182fd5b8435935060208501356143e481614be8565b9250604085013567ffffffffffffffff80821115614400578384fd5b818701915087601f830112614413578384fd5b813581811115614421578485fd5b8860208083028501011115614434578485fd5b95989497505060200194505050565b60008060408385031215614455578182fd5b50508035926020909101359150565b60008060408385031215614476578182fd5b505080516020909101519092909150565b60008060006060848603121561449b578081fd5b8335925060208401359150604084013561435e81614c0d565b600080600080600060a086880312156144cb578283fd5b853594506020860135935060408601356144e481614c1b565b925060608601356144f481614be8565b949793965091946080013592915050565b60008060008060008060c0878903121561451d578384fd5b8635955060208701359450604087013561453681614c1b565b935060608701359250608087013561454d81614c0d565b915060a087013561455d81614c0d565b809150509295509295509295565b600080600080600080600060e0888a031215614585578485fd5b8735965060208801359550604088013561459e81614c1b565b9450606088013593506080880135925060a08801356145bc81614c0d565b915060c08801356145cc81614c0d565b8091505092959891949750929550565b600080600080608085870312156145f1578182fd5b843593506020850135925060408501359150606085013561461181614c0d565b939692955090935050565b600080600080600060a08688031215614633578283fd5b61463c86613f90565b945060208601519350604086015192506060860151915061465f60808701613f90565b90509295509295909350565b60006020828403121561467c578081fd5b815160ff81168114611265578182fd5b60008151808452815b818110156146b157602081850181015186830182015201614695565b818111156146c25782602083870101525b50601f017fffffffffffffffffffffffffffffffffffffffffffffffffffffffffffffffe0169290920160200192915050565b600381106146ff57fe5b9052565b73ffffffffffffffffffffffffffffffffffffffff91909116815260200190565b73ffffffffffffffffffffffffffffffffffffffff8516815260208101849052604081018390526080810161475c60608301846146f5565b95945050505050565b6020808252825182820181905260009190848201906040850190845b818110156147a157835161ffff1683529284019291840191600101614781565b50909695505050505050565b901515815260200190565b8315158152602081018390526060810161208360408301846146f5565b600060208252611265602083018461468c565b60208082526033908201527f4665654c6962726172793a205f706f6f6c4964312063616e6e6f74206265207460408201527f68652073616d65206173205f706f6f6c49643200000000000000000000000000606082015260800190565b6020808252818101527f4665654c6962726172793a2062616c616e6365206f7574206f6620626f756e64604082015260600190565b60208082526029908201527f4665654c6962726172793a2064696666206f6620646563696d616c732069732060408201527f746f6f206c617267650000000000000000000000000000000000000000000000606082015260800190565b6020808252601d908201527f4665654c6962726172793a207072696365206973206e65676174697665000000604082015260600190565b6020808252601e908201527f4665654c6962726172793a2070726963652066656564206e6f74207365740000604082015260600190565b60208082526024908201527f4665654c6962726172793a205f62617365507269636553442063616e6e6f742060408201527f6265203000000000000000000000000000000000000000000000000000000000606082015260800190565b6020808252601e908201527f4665654c6962726172793a206e6f7420656e6f7567682062616c616e63650000604082015260600190565b6020808252601c908201527f4665654c6962726172793a205f737263506f6f6c496420646570656700000000604082015260600190565b6020808252601e908201527f4665654c6962726172793a2062617365207072696365206e6f74207365740000604082015260600190565b600060c082019050825182526020830151602083015260408301516040830152606083015160608301526080830151608083015260a083015160a083015292915050565b600061ffff87168252602073ffffffffffffffffffffffffffffffffffffffff87168184015260a06040840152614ac560a084018761468c565b85151560608501528381036080850152828554600180821660008114614af25760018114614b2d57614b63565b607f600284041685527fffffffffffffffffffffffffffffffffffffffffffffffffffffffffffffff00831686860152604085019350614b63565b60028304808652614b3d8a614bdc565b885b82811015614b5a5781548882018a0152908401908801614b3f565b87018801955050505b50919b9a5050505050505050505050565b61ffff929092168252602082015260400190565b90815260200190565b8281526040810161138b60208301846146f5565b918252602082015260400190565b838152602081018390526060810161208360408301846146f5565b60ff91909116815260200190565b60009081526020902090565b73ffffffffffffffffffffffffffffffffffffffff81168114614c0a57600080fd5b50565b8015158114614c0a57600080fd5b61ffff81168114614c0a57600080fdfe4f776e61626c653a206e6577206f776e657220697320746865207a65726f20616464726573734c7a4170703a2064657374696e6174696f6e20636861696e206973206e6f742061207472757374656420736f75726365536166654d6174683a206d756c7469706c69636174696f6e206f766572666c6f774c7a4170703a20696e76616c696420736f757263652073656e64696e6720636f6e7472616374a26469706673582212207ddbfb948e26ff9aadcae1980da9809c151adbabc4a0de29fca53039727c2f4364736f6c63430007060033",
  "linkReferences": {},
  "deployedLinkReferences": {}
}