{
  "address": "0x2F6F07CDcf3588944Bf4C42aC74ff24bF56e7590",
  "abi": [
    {
      "inputs": [
        {
          "internalType": "string",
          "name": "_name",
          "type": "string"
        },
        {
          "internalType": "string",
          "name": "_symbol",
          "type": "string"
        },
        {
          "internalType": "address",
          "name": "_endpoint",
          "type": "address"
        },
        {
          "internalType": "uint16",
          "name": "_mainEndpointId",
          "type": "uint16"
        },
        {
          "internalType": "uint256",
          "name": "_initialSupplyOnMainEndpoint",
          "type": "uint256"
        }
      ],
      "stateMutability": "nonpayable",
      "type": "constructor"
    },
    {
      "anonymous": false,
      "inputs": [
        {
          "indexed": true,
          "internalType": "address",
          "name": "owner",
          "type": "address"
        },
        {
          "indexed": true,
          "internalType": "address",
          "name": "spender",
          "type": "address"
        },
        {
          "indexed": false,
          "internalType": "uint256",
          "name": "value",
          "type": "uint256"
        }
      ],
      "name": "Approval",
      "type": "event"
    },
    {
      "anonymous": false,
      "inputs": [
        {
          "indexed": true,
          "internalType": "address",
          "name": "previousOwner",
          "type": "address"
        },
        {
          "indexed": true,
          "internalType": "address",
          "name": "newOwner",
          "type": "address"
        }
      ],
      "name": "OwnershipTransferred",
      "type": "event"
    },
    {
      "anonymous": false,
      "inputs": [
        {
          "indexed": false,
          "internalType": "bool",
          "name": "isPaused",
          "type": "bool"
        }
      ],
      "name": "Paused",
      "type": "event"
    },
    {
      "anonymous": false,
      "inputs": [
        {
          "indexed": false,
          "internalType": "uint16",
          "name": "srcChainId",
          "type": "uint16"
        },
        {
          "indexed": false,
          "internalType": "uint64",
          "name": "nonce",
          "type": "uint64"
        },
        {
          "indexed": false,
          "internalType": "uint256",
          "name": "qty",
          "type": "uint256"
        }
      ],
      "name": "ReceiveFromChain",
      "type": "event"
    },
    {
      "anonymous": false,
      "inputs": [
        {
          "indexed": false,
          "internalType": "uint16",
          "name": "dstChainId",
          "type": "uint16"
        },
        {
          "indexed": false,
          "internalType": "bytes",
          "name": "to",
          "type": "bytes"
        },
        {
          "indexed": false,
          "internalType": "uint256",
          "name": "qty",
          "type": "uint256"
        }
      ],
      "name": "SendToChain",
      "type": "event"
    },
    {
      "anonymous": false,
      "inputs": [
        {
          "indexed": true,
          "internalType": "address",
          "name": "from",
          "type": "address"
        },
        {
          "indexed": true,
          "internalType": "address",
          "name": "to",
          "type": "address"
        },
        {
          "indexed": false,
          "internalType": "uint256",
          "name": "value",
          "type": "uint256"
        }
      ],
      "name": "Transfer",
      "type": "event"
    },
    {
      "inputs": [
        {
          "internalType": "address",
          "name": "owner",
          "type": "address"
        },
        {
          "internalType": "address",
          "name": "spender",
          "type": "address"
        }
      ],
      "name": "allowance",
      "outputs": [
        {
          "internalType": "uint256",
          "name": "",
          "type": "uint256"
        }
      ],
      "stateMutability": "view",
      "type": "function"
    },
    {
      "inputs": [
        {
          "internalType": "address",
          "name": "spender",
          "type": "address"
        },
        {
          "internalType": "uint256",
          "name": "amount",
          "type": "uint256"
        }
      ],
      "name": "approve",
      "outputs": [
        {
          "internalType": "bool",
          "name": "",
          "type": "bool"
        }
      ],
      "stateMutability": "nonpayable",
      "type": "function"
    },
    {
      "inputs": [
        {
          "internalType": "address",
          "name": "account",
          "type": "address"
        }
      ],
      "name": "balanceOf",
      "outputs": [
        {
          "internalType": "uint256",
          "name": "",
          "type": "uint256"
        }
      ],
      "stateMutability": "view",
      "type": "function"
    },
    {
      "inputs": [],
      "name": "chainId",
      "outputs": [
        {
          "internalType": "uint16",
          "name": "",
          "type": "uint16"
        }
      ],
      "stateMutability": "view",
      "type": "function"
    },
    {
      "inputs": [],
      "name": "decimals",
      "outputs": [
        {
          "internalType": "uint8",
          "name": "",
          "type": "uint8"
        }
      ],
      "stateMutability": "view",
      "type": "function"
    },
    {
      "inputs": [
        {
          "internalType": "address",
          "name": "spender",
          "type": "address"
        },
        {
          "internalType": "uint256",
          "name": "subtractedValue",
          "type": "uint256"
        }
      ],
      "name": "decreaseAllowance",
      "outputs": [
        {
          "internalType": "bool",
          "name": "",
          "type": "bool"
        }
      ],
      "stateMutability": "nonpayable",
      "type": "function"
    },
    {
      "inputs": [
        {
          "internalType": "uint16",
          "name": "",
          "type": "uint16"
        }
      ],
      "name": "dstContractLookup",
      "outputs": [
        {
          "internalType": "bytes",
          "name": "",
          "type": "bytes"
        }
      ],
      "stateMutability": "view",
      "type": "function"
    },
    {
      "inputs": [],
      "name": "endpoint",
      "outputs": [
        {
          "internalType": "contract ILayerZeroEndpoint",
          "name": "",
          "type": "address"
        }
      ],
      "stateMutability": "view",
      "type": "function"
    },
    {
      "inputs": [
        {
          "internalType": "uint16",
          "name": "_dstChainId",
          "type": "uint16"
        },
        {
          "internalType": "bool",
          "name": "_useZro",
          "type": "bool"
        },
        {
          "internalType": "bytes",
          "name": "txParameters",
          "type": "bytes"
        }
      ],
      "name": "estimateSendTokensFee",
      "outputs": [
        {
          "internalType": "uint256",
          "name": "nativeFee",
          "type": "uint256"
        },
        {
          "internalType": "uint256",
          "name": "zroFee",
          "type": "uint256"
        }
      ],
      "stateMutability": "view",
      "type": "function"
    },
    {
      "inputs": [
        {
          "internalType": "uint16",
          "name": "_srcChainId",
          "type": "uint16"
        },
        {
          "internalType": "bytes",
          "name": "_srcAddress",
          "type": "bytes"
        }
      ],
      "name": "forceResumeReceive",
      "outputs": [],
      "stateMutability": "nonpayable",
      "type": "function"
    },
    {
      "inputs": [
        {
          "internalType": "address",
          "name": "spender",
          "type": "address"
        },
        {
          "internalType": "uint256",
          "name": "addedValue",
          "type": "uint256"
        }
      ],
      "name": "increaseAllowance",
      "outputs": [
        {
          "internalType": "bool",
          "name": "",
          "type": "bool"
        }
      ],
      "stateMutability": "nonpayable",
      "type": "function"
    },
    {
      "inputs": [],
      "name": "isMain",
      "outputs": [
        {
          "internalType": "bool",
          "name": "",
          "type": "bool"
        }
      ],
      "stateMutability": "view",
      "type": "function"
    },
    {
      "inputs": [
        {
          "internalType": "uint16",
          "name": "_srcChainId",
          "type": "uint16"
        },
        {
          "internalType": "bytes",
          "name": "_fromAddress",
          "type": "bytes"
        },
        {
          "internalType": "uint64",
          "name": "nonce",
          "type": "uint64"
        },
        {
          "internalType": "bytes",
          "name": "_payload",
          "type": "bytes"
        }
      ],
      "name": "lzReceive",
      "outputs": [],
      "stateMutability": "nonpayable",
      "type": "function"
    },
    {
      "inputs": [],
      "name": "name",
      "outputs": [
        {
          "internalType": "string",
          "name": "",
          "type": "string"
        }
      ],
      "stateMutability": "view",
      "type": "function"
    },
    {
      "inputs": [],
      "name": "owner",
      "outputs": [
        {
          "internalType": "address",
          "name": "",
          "type": "address"
        }
      ],
      "stateMutability": "view",
      "type": "function"
    },
    {
      "inputs": [
        {
          "internalType": "bool",
          "name": "_pause",
          "type": "bool"
        }
      ],
      "name": "pauseSendTokens",
      "outputs": [],
      "stateMutability": "nonpayable",
      "type": "function"
    },
    {
      "inputs": [],
      "name": "paused",
      "outputs": [
        {
          "internalType": "bool",
          "name": "",
          "type": "bool"
        }
      ],
      "stateMutability": "view",
      "type": "function"
    },
    {
      "inputs": [],
      "name": "renounceOwnership",
      "outputs": [],
      "stateMutability": "nonpayable",
      "type": "function"
    },
    {
      "inputs": [
        {
          "internalType": "uint16",
          "name": "_dstChainId",
          "type": "uint16"
        },
        {
          "internalType": "bytes",
          "name": "_to",
          "type": "bytes"
        },
        {
          "internalType": "uint256",
          "name": "_qty",
          "type": "uint256"
        },
        {
          "internalType": "address",
          "name": "zroPaymentAddress",
          "type": "address"
        },
        {
          "internalType": "bytes",
          "name": "adapterParam",
          "type": "bytes"
        }
      ],
      "name": "sendTokens",
      "outputs": [],
      "stateMutability": "payable",
      "type": "function"
    },
    {
      "inputs": [
        {
          "internalType": "uint16",
          "name": "_version",
          "type": "uint16"
        },
        {
          "internalType": "uint16",
          "name": "_chainId",
          "type": "uint16"
        },
        {
          "internalType": "uint256",
          "name": "_configType",
          "type": "uint256"
        },
        {
          "internalType": "bytes",
          "name": "_config",
          "type": "bytes"
        }
      ],
      "name": "setConfig",
      "outputs": [],
      "stateMutability": "nonpayable",
      "type": "function"
    },
    {
      "inputs": [
        {
          "internalType": "uint16",
          "name": "_dstChainId",
          "type": "uint16"
        },
        {
          "internalType": "bytes",
          "name": "_destinationContractAddress",
          "type": "bytes"
        }
      ],
      "name": "setDestination",
      "outputs": [],
      "stateMutability": "nonpayable",
      "type": "function"
    },
    {
      "inputs": [
        {
          "internalType": "uint16",
          "name": "version",
          "type": "uint16"
        }
      ],
      "name": "setReceiveVersion",
      "outputs": [],
      "stateMutability": "nonpayable",
      "type": "function"
    },
    {
      "inputs": [
        {
          "internalType": "uint16",
          "name": "version",
          "type": "uint16"
        }
      ],
      "name": "setSendVersion",
      "outputs": [],
      "stateMutability": "nonpayable",
      "type": "function"
    },
    {
      "inputs": [],
      "name": "symbol",
      "outputs": [
        {
          "internalType": "string",
          "name": "",
          "type": "string"
        }
      ],
      "stateMutability": "view",
      "type": "function"
    },
    {
      "inputs": [],
      "name": "totalSupply",
      "outputs": [
        {
          "internalType": "uint256",
          "name": "",
          "type": "uint256"
        }
      ],
      "stateMutability": "view",
      "type": "function"
    },
    {
      "inputs": [
        {
          "internalType": "address",
          "name": "recipient",
          "type": "address"
        },
        {
          "internalType": "uint256",
          "name": "amount",
          "type": "uint256"
        }
      ],
      "name": "transfer",
      "outputs": [
        {
          "internalType": "bool",
          "name": "",
          "type": "bool"
        }
      ],
      "stateMutability": "nonpayable",
      "type": "function"
    },
    {
      "inputs": [
        {
          "internalType": "address",
          "name": "sender",
          "type": "address"
        },
        {
          "internalType": "address",
          "name": "recipient",
          "type": "address"
        },
        {
          "internalType": "uint256",
          "name": "amount",
          "type": "uint256"
        }
      ],
      "name": "transferFrom",
      "outputs": [
        {
          "internalType": "bool",
          "name": "",
          "type": "bool"
        }
      ],
      "stateMutability": "nonpayable",
      "type": "function"
    },
    {
      "inputs": [
        {
          "internalType": "address",
          "name": "newOwner",
          "type": "address"
        }
      ],
      "name": "transferOwnership",
      "outputs": [],
      "stateMutability": "nonpayable",
      "type": "function"
    }
  ],
  "transactionHash": "0xae08fd9b3db12ab39dabba9a993a574b573026f8175f4feb1904de83a995c602",
  "args": [
    "StargateToken",
    "STG",
    "0xb6319cC6c8c27A8F5dAF0dD3DF91EA35C4720dd7",
    "1",
    "1000000000000000000000000000"
  ],
  "numDeployments": 1,
  "solcInputHash": "52cab37e3ef0ffbba6808e43eaca2a3f",
  "bytecode": "0x60a06040523480156200001157600080fd5b5060405162002a1238038062002a12833981810160405260a08110156200003757600080fd5b81019080805160405193929190846401000000008211156200005857600080fd5b9083019060208201858111156200006e57600080fd5b82516401000000008111828201881017156200008957600080fd5b82525081516020918201929091019080838360005b83811015620000b85781810151838201526020016200009e565b50505050905090810190601f168015620000e65780820380516001836020036101000a031916815260200191505b50604052602001805160405193929190846401000000008211156200010a57600080fd5b9083019060208201858111156200012057600080fd5b82516401000000008111828201881017156200013b57600080fd5b82525081516020918201929091019080838360005b838110156200016a57818101518382015260200162000150565b50505050905090810190601f168015620001985780820380516001836020036101000a031916815260200191505b5060409081526020828101519183015160609093015187519295509293508691869186918691869186918691620001d691600391908501906200048c565b508051620001ec9060049060208401906200048c565b50506005805460ff191660121790555060006200020862000312565b60058054610100600160a81b0319166101006001600160a01b03841690810291909117909155604051919250906000907f8be0079c531659141344cd1fd0a4f28419497f9722a3daafe3b4186f6b6457e0908290a3508161ffff16836001600160a01b0316633408e4706040518163ffffffff1660e01b815260040160206040518083038186803b1580156200029d57600080fd5b505afa158015620002b2573d6000803e3d6000fd5b505050506040513d6020811015620002c957600080fd5b505161ffff161415620002f257620002e2338262000316565b6007805461ff0019166101001790555b505060601b6001600160601b031916608052506200053895505050505050565b3390565b6001600160a01b03821662000372576040805162461bcd60e51b815260206004820152601f60248201527f45524332303a206d696e7420746f20746865207a65726f206164647265737300604482015290519081900360640190fd5b620003806000838362000425565b6200039c816002546200042a60201b62001c591790919060201c565b6002556001600160a01b03821660009081526020818152604090912054620003cf91839062001c596200042a821b17901c565b6001600160a01b0383166000818152602081815260408083209490945583518581529351929391927fddf252ad1be2c89b69c2b068fc378daa952ba7f163c4a11628f55a4df523b3ef9281900390910190a35050565b505050565b60008282018381101562000485576040805162461bcd60e51b815260206004820152601b60248201527f536166654d6174683a206164646974696f6e206f766572666c6f770000000000604482015290519081900360640190fd5b9392505050565b828054600181600116156101000203166002900490600052602060002090601f016020900481019282620004c457600085556200050f565b82601f10620004df57805160ff19168380011785556200050f565b828001600101855582156200050f579182015b828111156200050f578251825591602001919060010190620004f2565b506200051d92915062000521565b5090565b5b808211156200051d576000815560010162000522565b60805160601c6124946200057e60003980610a755280610dec5280610ef052806110ab52806113f35280611488528061165d528061184052806119a852506124946000f3fe6080604052600436106101b65760003560e01c806360f05c7a116100ec5780639a8a05921161008a578063cbed8b9c11610064578063cbed8b9c1461093a578063dd62ed3e146109d0578063f187892214610a0b578063f2fde38b14610a37576101b6565b80639a8a05921461089c578063a457c2d7146108c8578063a9059cbb14610901576101b6565b8063715018a6116100c6578063715018a6146107b757806373874336146107cc5780638da5cb5b1461087257806395d89b4114610887576101b6565b806360f05c7a146106d0578063706d8fff146106fe57806370a0823114610784576101b6565b80632e15238c1161015957806342d65a8d1161013357806342d65a8d146105ef5780635c975abb146106755780635e280f111461068a578063604269d1146106bb576101b6565b80632e15238c146104ad578063313ce5671461058b57806339509351146105b6576101b6565b8063095ea7b311610195578063095ea7b3146103c857806310ddb1371461041557806318160ddd1461044357806323b872dd1461046a576101b6565b80621d3567146101bb57806306fdde031461031057806307e0db171461039a575b600080fd5b3480156101c757600080fd5b5061030e600480360360808110156101de57600080fd5b61ffff8235169190810190604081016020820135600160201b81111561020357600080fd5b82018360208201111561021557600080fd5b803590602001918460018302840111600160201b8311171561023657600080fd5b91908080601f016020809104026020016040519081016040528093929190818152602001838380828437600092019190915250929567ffffffffffffffff853516959094909350604081019250602001359050600160201b81111561029a57600080fd5b8201836020820111156102ac57600080fd5b803590602001918460018302840111600160201b831117156102cd57600080fd5b91908080601f016020809104026020016040519081016040528093929190818152602001838380828437600092019190915250929550610a6a945050505050565b005b34801561031c57600080fd5b50610325610cf2565b6040805160208082528351818301528351919283929083019185019080838360005b8381101561035f578181015183820152602001610347565b50505050905090810190601f16801561038c5780820380516001836020036101000a031916815260200191505b509250505060405180910390f35b3480156103a657600080fd5b5061030e600480360360208110156103bd57600080fd5b503561ffff16610d88565b3480156103d457600080fd5b50610401600480360360408110156103eb57600080fd5b506001600160a01b038135169060200135610e6f565b604080519115158252519081900360200190f35b34801561042157600080fd5b5061030e6004803603602081101561043857600080fd5b503561ffff16610e8c565b34801561044f57600080fd5b50610458610f58565b60408051918252519081900360200190f35b34801561047657600080fd5b506104016004803603606081101561048d57600080fd5b506001600160a01b03813581169160208101359091169060400135610f5e565b61030e600480360360a08110156104c357600080fd5b61ffff8235169190810190604081016020820135600160201b8111156104e857600080fd5b8201836020820111156104fa57600080fd5b803590602001918460018302840111600160201b8311171561051b57600080fd5b919390928235926001600160a01b03602082013516929190606081019060400135600160201b81111561054d57600080fd5b82018360208201111561055f57600080fd5b803590602001918460018302840111600160201b8311171561058057600080fd5b509092509050610fe5565b34801561059757600080fd5b506105a0611308565b6040805160ff9092168252519081900360200190f35b3480156105c257600080fd5b50610401600480360360408110156105d957600080fd5b506001600160a01b038135169060200135611311565b3480156105fb57600080fd5b5061030e6004803603604081101561061257600080fd5b61ffff8235169190810190604081016020820135600160201b81111561063757600080fd5b82018360208201111561064957600080fd5b803590602001918460018302840111600160201b8311171561066a57600080fd5b50909250905061135f565b34801561068157600080fd5b5061040161147d565b34801561069657600080fd5b5061069f611486565b604080516001600160a01b039092168252519081900360200190f35b3480156106c757600080fd5b506104016114aa565b3480156106dc57600080fd5b50610325600480360360208110156106f357600080fd5b503561ffff166114b8565b34801561070a57600080fd5b5061030e6004803603604081101561072157600080fd5b61ffff8235169190810190604081016020820135600160201b81111561074657600080fd5b82018360208201111561075857600080fd5b803590602001918460018302840111600160201b8311171561077957600080fd5b509092509050611553565b34801561079057600080fd5b50610458600480360360208110156107a757600080fd5b50356001600160a01b03166115d9565b3480156107c357600080fd5b5061030e6115f4565b3480156107d857600080fd5b50610859600480360360608110156107ef57600080fd5b61ffff823516916020810135151591810190606081016040820135600160201b81111561081b57600080fd5b82018360208201111561082d57600080fd5b803590602001918460018302840111600160201b8311171561084e57600080fd5b509092509050611658565b6040805192835260208301919091528051918290030190f35b34801561087e57600080fd5b5061069f6117c7565b34801561089357600080fd5b506103256117db565b3480156108a857600080fd5b506108b161183c565b6040805161ffff9092168252519081900360200190f35b3480156108d457600080fd5b50610401600480360360408110156108eb57600080fd5b506001600160a01b0381351690602001356118c8565b34801561090d57600080fd5b506104016004803603604081101561092457600080fd5b506001600160a01b038135169060200135611930565b34801561094657600080fd5b5061030e6004803603608081101561095d57600080fd5b61ffff823581169260208101359091169160408201359190810190608081016060820135600160201b81111561099257600080fd5b8201836020820111156109a457600080fd5b803590602001918460018302840111600160201b831117156109c557600080fd5b509092509050611944565b3480156109dc57600080fd5b50610458600480360360408110156109f357600080fd5b506001600160a01b0381358116916020013516611a77565b348015610a1757600080fd5b5061030e60048036036020811015610a2e57600080fd5b50351515611aa2565b348015610a4357600080fd5b5061030e60048036036020811015610a5a57600080fd5b50356001600160a01b0316611b4b565b336001600160a01b037f00000000000000000000000000000000000000000000000000000000000000001614610a9f57600080fd5b61ffff8416600090815260066020526040902054835160026000196101006001851615020190921691909104148015610b605750600660008561ffff1661ffff1681526020019081526020016000206040518082805460018160011615610100020316600290048015610b495780601f10610b27576101008083540402835291820191610b49565b820191906000526020600020905b815481529060010190602001808311610b35575b505091505060405180910390208380519060200120145b610b9b5760405162461bcd60e51b81526004018080602001828103825260248152602001806122af6024913960400191505060405180910390fd5b600080828060200190516040811015610bb357600080fd5b8101908080516040519392919084600160201b821115610bd257600080fd5b908301906020820185811115610be757600080fd5b8251600160201b811182820188101715610c0057600080fd5b82525081516020918201929091019080838360005b83811015610c2d578181015183820152602001610c15565b50505050905090810190601f168015610c5a5780820380516001836020036101000a031916815260200191505b5060405260200151601484015160075494965090945092610100900460ff16159150610c92905057610c8d308284611cba565b610c9c565b610c9c8183611e15565b6040805161ffff8916815267ffffffffffffffff8716602082015280820184905290517f831bc68226f8d1f734ffcca73602efc4eca13711402ba1d2cc05ee17bb54f6319181900360600190a150505050505050565b60038054604080516020601f6002600019610100600188161502019095169490940493840181900481028201810190925282815260609390929091830182828015610d7e5780601f10610d5357610100808354040283529160200191610d7e565b820191906000526020600020905b815481529060010190602001808311610d6157829003601f168201915b5050505050905090565b610d90611f05565b6001600160a01b0316610da16117c7565b6001600160a01b031614610dea576040805162461bcd60e51b8152602060048201819052602482015260008051602061238b833981519152604482015290519081900360640190fd5b7f00000000000000000000000000000000000000000000000000000000000000006001600160a01b03166307e0db17826040518263ffffffff1660e01b8152600401808261ffff168152602001915050600060405180830381600087803b158015610e5457600080fd5b505af1158015610e68573d6000803e3d6000fd5b5050505050565b6000610e83610e7c611f05565b8484611f09565b50600192915050565b610e94611f05565b6001600160a01b0316610ea56117c7565b6001600160a01b031614610eee576040805162461bcd60e51b8152602060048201819052602482015260008051602061238b833981519152604482015290519081900360640190fd5b7f00000000000000000000000000000000000000000000000000000000000000006001600160a01b03166310ddb137826040518263ffffffff1660e01b8152600401808261ffff168152602001915050600060405180830381600087803b158015610e5457600080fd5b60025490565b6000610f6b848484611cba565b610fdb84610f77611f05565b610fd685604051806060016040528060288152602001612363602891396001600160a01b038a16600090815260016020526040812090610fb5611f05565b6001600160a01b031681526020810191909152604001600020549190611ff5565b611f09565b5060019392505050565b60075460ff16156110275760405162461bcd60e51b81526004018080602001828103825260258152602001806123cc6025913960400191505060405180910390fd5b600754610100900460ff161561104757611042333086611cba565b611051565b611051338561208c565b600086868660405160200180806020018381526020018281038252858582818152602001925080828437600081840152601f19601f82011690508083019250505094505050505060405160208183030381529060405290507f00000000000000000000000000000000000000000000000000000000000000006001600160a01b031663c5803100348a600660008d61ffff1661ffff16815260200190815260200160002085338a8a8a6040518963ffffffff1660e01b8152600401808861ffff1681526020018060200180602001876001600160a01b03168152602001866001600160a01b031681526020018060200184810384528a8181546001816001161561010002031660029004815260200191508054600181600116156101000203166002900480156111c25780601f10611197576101008083540402835291602001916111c2565b820191906000526020600020905b8154815290600101906020018083116111a557829003601f168201915b505084810383528951815289516020918201918b019080838360005b838110156111f65781810151838201526020016111de565b50505050905090810190601f1680156112235780820380516001836020036101000a031916815260200191505b508481038252858152602001868680828437600081840152601f19601f8201169050808301925050509a50505050505050505050506000604051808303818588803b15801561127157600080fd5b505af1158015611285573d6000803e3d6000fd5b50505050507f664e26797cde1146ddfcb9a5d3f4de61179f9c11b2698599bb09e686f442172b88888888604051808561ffff168152602001806020018381526020018281038252858582818152602001925080828437600083820152604051601f909101601f191690920182900397509095505050505050a15050505050505050565b60055460ff1690565b6000610e8361131e611f05565b84610fd6856001600061132f611f05565b6001600160a01b03908116825260208083019390935260409182016000908120918c168152925290205490611c59565b611367611f05565b6001600160a01b03166113786117c7565b6001600160a01b0316146113c1576040805162461bcd60e51b8152602060048201819052602482015260008051602061238b833981519152604482015290519081900360640190fd5b604080516342d65a8d60e01b815261ffff85166004820190815260248201928352604482018490526001600160a01b037f000000000000000000000000000000000000000000000000000000000000000016926342d65a8d92879287928792606401848480828437600081840152601f19601f820116905080830192505050945050505050600060405180830381600087803b15801561146057600080fd5b505af1158015611474573d6000803e3d6000fd5b50505050505050565b60075460ff1681565b7f000000000000000000000000000000000000000000000000000000000000000081565b600754610100900460ff1681565b60066020908152600091825260409182902080548351601f60026000196101006001861615020190931692909204918201849004840281018401909452808452909183018282801561154b5780601f106115205761010080835404028352916020019161154b565b820191906000526020600020905b81548152906001019060200180831161152e57829003601f168201915b505050505081565b61155b611f05565b6001600160a01b031661156c6117c7565b6001600160a01b0316146115b5576040805162461bcd60e51b8152602060048201819052602482015260008051602061238b833981519152604482015290519081900360640190fd5b61ffff831660009081526006602052604090206115d39083836121ea565b50505050565b6001600160a01b031660009081526020819052604090205490565b6115fc611f05565b6001600160a01b031661160d6117c7565b6001600160a01b031614611656576040805162461bcd60e51b8152602060048201819052602482015260008051602061238b833981519152604482015290519081900360640190fd5b565b6000807f00000000000000000000000000000000000000000000000000000000000000006001600160a01b03166340a7bb108730604051806020016040528060008152508989896040518763ffffffff1660e01b8152600401808761ffff168152602001866001600160a01b0316815260200180602001851515815260200180602001838103835287818151815260200191508051906020019080838360005b838110156117105781810151838201526020016116f8565b50505050905090810190601f16801561173d5780820380516001836020036101000a031916815260200191505b508381038252848152602001858580828437600081840152601f19601f82011690508083019250505098505050505050505050604080518083038186803b15801561178757600080fd5b505afa15801561179b573d6000803e3d6000fd5b505050506040513d60408110156117b157600080fd5b5080516020909101519097909650945050505050565b60055461010090046001600160a01b031690565b60048054604080516020601f6002600019610100600188161502019095169490940493840181900481028201810190925282815260609390929091830182828015610d7e5780601f10610d5357610100808354040283529160200191610d7e565b60007f00000000000000000000000000000000000000000000000000000000000000006001600160a01b0316633408e4706040518163ffffffff1660e01b815260040160206040518083038186803b15801561189757600080fd5b505afa1580156118ab573d6000803e3d6000fd5b505050506040513d60208110156118c157600080fd5b5051905090565b6000610e836118d5611f05565b84610fd68560405180606001604052806025815260200161243a60259139600160006118ff611f05565b6001600160a01b03908116825260208083019390935260409182016000908120918d16815292529020549190611ff5565b6000610e8361193d611f05565b8484611cba565b61194c611f05565b6001600160a01b031661195d6117c7565b6001600160a01b0316146119a6576040805162461bcd60e51b8152602060048201819052602482015260008051602061238b833981519152604482015290519081900360640190fd5b7f00000000000000000000000000000000000000000000000000000000000000006001600160a01b031663cbed8b9c86868686866040518663ffffffff1660e01b8152600401808661ffff1681526020018561ffff168152602001848152602001806020018281038252848482818152602001925080828437600081840152601f19601f8201169050808301925050509650505050505050600060405180830381600087803b158015611a5857600080fd5b505af1158015611a6c573d6000803e3d6000fd5b505050505050505050565b6001600160a01b03918216600090815260016020908152604080832093909416825291909152205490565b611aaa611f05565b6001600160a01b0316611abb6117c7565b6001600160a01b031614611b04576040805162461bcd60e51b8152602060048201819052602482015260008051602061238b833981519152604482015290519081900360640190fd5b6007805482151560ff19909116811790915560408051918252517f0e2fb031ee032dc02d8011dc50b816eb450cf856abd8261680dac74f72165bd29181900360200190a150565b611b53611f05565b6001600160a01b0316611b646117c7565b6001600160a01b031614611bad576040805162461bcd60e51b8152602060048201819052602482015260008051602061238b833981519152604482015290519081900360640190fd5b6001600160a01b038116611bf25760405162461bcd60e51b81526004018080602001828103825260268152602001806122f56026913960400191505060405180910390fd5b6005546040516001600160a01b0380841692610100900416907f8be0079c531659141344cd1fd0a4f28419497f9722a3daafe3b4186f6b6457e090600090a3600580546001600160a01b0390921661010002610100600160a81b0319909216919091179055565b600082820183811015611cb3576040805162461bcd60e51b815260206004820152601b60248201527f536166654d6174683a206164646974696f6e206f766572666c6f770000000000604482015290519081900360640190fd5b9392505050565b6001600160a01b038316611cff5760405162461bcd60e51b81526004018080602001828103825260258152602001806123f16025913960400191505060405180910390fd5b6001600160a01b038216611d445760405162461bcd60e51b815260040180806020018281038252602381526020018061228c6023913960400191505060405180910390fd5b611d4f838383612188565b611d8c8160405180606001604052806026815260200161233d602691396001600160a01b0386166000908152602081905260409020549190611ff5565b6001600160a01b038085166000908152602081905260408082209390935590841681522054611dbb9082611c59565b6001600160a01b038084166000818152602081815260409182902094909455805185815290519193928716927fddf252ad1be2c89b69c2b068fc378daa952ba7f163c4a11628f55a4df523b3ef92918290030190a3505050565b6001600160a01b038216611e70576040805162461bcd60e51b815260206004820152601f60248201527f45524332303a206d696e7420746f20746865207a65726f206164647265737300604482015290519081900360640190fd5b611e7c60008383612188565b600254611e899082611c59565b6002556001600160a01b038216600090815260208190526040902054611eaf9082611c59565b6001600160a01b0383166000818152602081815260408083209490945583518581529351929391927fddf252ad1be2c89b69c2b068fc378daa952ba7f163c4a11628f55a4df523b3ef9281900390910190a35050565b3390565b6001600160a01b038316611f4e5760405162461bcd60e51b81526004018080602001828103825260248152602001806124166024913960400191505060405180910390fd5b6001600160a01b038216611f935760405162461bcd60e51b815260040180806020018281038252602281526020018061231b6022913960400191505060405180910390fd5b6001600160a01b03808416600081815260016020908152604080832094871680845294825291829020859055815185815291517f8c5be1e5ebec7d5bd14f71427d1e84f3dd0314c0f7b2291e5b200ac8c7c3b9259281900390910190a3505050565b600081848411156120845760405162461bcd60e51b81526004018080602001828103825283818151815260200191508051906020019080838360005b83811015612049578181015183820152602001612031565b50505050905090810190601f1680156120765780820380516001836020036101000a031916815260200191505b509250505060405180910390fd5b505050900390565b6001600160a01b0382166120d15760405162461bcd60e51b81526004018080602001828103825260218152602001806123ab6021913960400191505060405180910390fd5b6120dd82600083612188565b61211a816040518060600160405280602281526020016122d3602291396001600160a01b0385166000908152602081905260409020549190611ff5565b6001600160a01b038316600090815260208190526040902055600254612140908261218d565b6002556040805182815290516000916001600160a01b038516917fddf252ad1be2c89b69c2b068fc378daa952ba7f163c4a11628f55a4df523b3ef9181900360200190a35050565b505050565b6000828211156121e4576040805162461bcd60e51b815260206004820152601e60248201527f536166654d6174683a207375627472616374696f6e206f766572666c6f770000604482015290519081900360640190fd5b50900390565b828054600181600116156101000203166002900490600052602060002090601f0160209004810192826122205760008555612266565b82601f106122395782800160ff19823516178555612266565b82800160010185558215612266579182015b8281111561226657823582559160200191906001019061224b565b50612272929150612276565b5090565b5b80821115612272576000815560010161227756fe45524332303a207472616e7366657220746f20746865207a65726f20616464726573734f46543a20696e76616c696420736f757263652073656e64696e6720636f6e747261637445524332303a206275726e20616d6f756e7420657863656564732062616c616e63654f776e61626c653a206e6577206f776e657220697320746865207a65726f206164647265737345524332303a20617070726f766520746f20746865207a65726f206164647265737345524332303a207472616e7366657220616d6f756e7420657863656564732062616c616e636545524332303a207472616e7366657220616d6f756e74206578636565647320616c6c6f77616e63654f776e61626c653a2063616c6c6572206973206e6f7420746865206f776e657245524332303a206275726e2066726f6d20746865207a65726f20616464726573734f46543a2073656e64546f6b656e7328292069732063757272656e746c792070617573656445524332303a207472616e736665722066726f6d20746865207a65726f206164647265737345524332303a20617070726f76652066726f6d20746865207a65726f206164647265737345524332303a2064656372656173656420616c6c6f77616e63652062656c6f77207a65726fa2646970667358221220509d27a33b1ccd8dd921bcc7a92729316f3003f949c729e2ab4e10e8351279f364736f6c63430007060033",
  "devdoc": {
    "kind": "dev",
    "methods": {
      "allowance(address,address)": {
        "details": "See {IERC20-allowance}."
      },
      "approve(address,uint256)": {
        "details": "See {IERC20-approve}. Requirements: - `spender` cannot be the zero address."
      },
      "balanceOf(address)": {
        "details": "See {IERC20-balanceOf}."
      },
      "decimals()": {
        "details": "Returns the number of decimals used to get its user representation. For example, if `decimals` equals `2`, a balance of `505` tokens should be displayed to a user as `5,05` (`505 / 10 ** 2`). Tokens usually opt for a value of 18, imitating the relationship between Ether and Wei. This is the value {ERC20} uses, unless {_setupDecimals} is called. NOTE: This information is only used for _display_ purposes: it in no way affects any of the arithmetic of the contract, including {IERC20-balanceOf} and {IERC20-transfer}."
      },
      "decreaseAllowance(address,uint256)": {
        "details": "Atomically decreases the allowance granted to `spender` by the caller. This is an alternative to {approve} that can be used as a mitigation for problems described in {IERC20-approve}. Emits an {Approval} event indicating the updated allowance. Requirements: - `spender` cannot be the zero address. - `spender` must have allowance for the caller of at least `subtractedValue`."
      },
      "increaseAllowance(address,uint256)": {
        "details": "Atomically increases the allowance granted to `spender` by the caller. This is an alternative to {approve} that can be used as a mitigation for problems described in {IERC20-approve}. Emits an {Approval} event indicating the updated allowance. Requirements: - `spender` cannot be the zero address."
      },
      "name()": {
        "details": "Returns the name of the token."
      },
      "owner()": {
        "details": "Returns the address of the current owner."
      },
      "renounceOwnership()": {
        "details": "Leaves the contract without owner. It will not be possible to call `onlyOwner` functions anymore. Can only be called by the current owner. NOTE: Renouncing ownership will leave the contract without an owner, thereby removing any functionality that is only available to the owner."
      },
      "symbol()": {
        "details": "Returns the symbol of the token, usually a shorter version of the name."
      },
      "totalSupply()": {
        "details": "See {IERC20-totalSupply}."
      },
      "transfer(address,uint256)": {
        "details": "See {IERC20-transfer}. Requirements: - `recipient` cannot be the zero address. - the caller must have a balance of at least `amount`."
      },
      "transferFrom(address,address,uint256)": {
        "details": "See {IERC20-transferFrom}. Emits an {Approval} event indicating the updated allowance. This is not required by the EIP. See the note at the beginning of {ERC20}. Requirements: - `sender` and `recipient` cannot be the zero address. - `sender` must have a balance of at least `amount`. - the caller must have allowance for ``sender``'s tokens of at least `amount`."
      },
      "transferOwnership(address)": {
        "details": "Transfers ownership of the contract to a new account (`newOwner`). Can only be called by the current owner."
      }
    },
    "version": 1
  },
  "userdoc": {
    "kind": "user",
    "methods": {},
    "version": 1
  },
  "storageLayout": {
    "storage": [
      {
        "astId": 671,
        "contract": "contracts/StargateToken.sol:StargateToken",
        "label": "_balances",
        "offset": 0,
        "slot": "0",
        "type": "t_mapping(t_address,t_uint256)"
      },
      {
        "astId": 677,
        "contract": "contracts/StargateToken.sol:StargateToken",
        "label": "_allowances",
        "offset": 0,
        "slot": "1",
        "type": "t_mapping(t_address,t_mapping(t_address,t_uint256))"
      },
      {
        "astId": 679,
        "contract": "contracts/StargateToken.sol:StargateToken",
        "label": "_totalSupply",
        "offset": 0,
        "slot": "2",
        "type": "t_uint256"
      },
      {
        "astId": 681,
        "contract": "contracts/StargateToken.sol:StargateToken",
        "label": "_name",
        "offset": 0,
        "slot": "3",
        "type": "t_string_storage"
      },
      {
        "astId": 683,
        "contract": "contracts/StargateToken.sol:StargateToken",
        "label": "_symbol",
        "offset": 0,
        "slot": "4",
        "type": "t_string_storage"
      },
      {
        "astId": 685,
        "contract": "contracts/StargateToken.sol:StargateToken",
        "label": "_decimals",
        "offset": 0,
        "slot": "5",
        "type": "t_uint8"
      },
      {
        "astId": 197,
        "contract": "contracts/StargateToken.sol:StargateToken",
        "label": "_owner",
        "offset": 1,
        "slot": "5",
        "type": "t_address"
      },
      {
        "astId": 5803,
        "contract": "contracts/StargateToken.sol:StargateToken",
        "label": "dstContractLookup",
        "offset": 0,
        "slot": "6",
        "type": "t_mapping(t_uint16,t_bytes_storage)"
      },
      {
        "astId": 5805,
        "contract": "contracts/StargateToken.sol:StargateToken",
        "label": "paused",
        "offset": 0,
        "slot": "7",
        "type": "t_bool"
      },
      {
        "astId": 5807,
        "contract": "contracts/StargateToken.sol:StargateToken",
        "label": "isMain",
        "offset": 1,
        "slot": "7",
        "type": "t_bool"
      }
    ],
    "types": {
      "t_address": {
        "encoding": "inplace",
        "label": "address",
        "numberOfBytes": "20"
      },
      "t_bool": {
        "encoding": "inplace",
        "label": "bool",
        "numberOfBytes": "1"
      },
      "t_bytes_storage": {
        "encoding": "bytes",
        "label": "bytes",
        "numberOfBytes": "32"
      },
      "t_mapping(t_address,t_mapping(t_address,t_uint256))": {
        "encoding": "mapping",
        "key": "t_address",
        "label": "mapping(address => mapping(address => uint256))",
        "numberOfBytes": "32",
        "value": "t_mapping(t_address,t_uint256)"
      },
      "t_mapping(t_address,t_uint256)": {
        "encoding": "mapping",
        "key": "t_address",
        "label": "mapping(address => uint256)",
        "numberOfBytes": "32",
        "value": "t_uint256"
      },
      "t_mapping(t_uint16,t_bytes_storage)": {
        "encoding": "mapping",
        "key": "t_uint16",
        "label": "mapping(uint16 => bytes)",
        "numberOfBytes": "32",
        "value": "t_bytes_storage"
      },
      "t_string_storage": {
        "encoding": "bytes",
        "label": "string",
        "numberOfBytes": "32"
      },
      "t_uint16": {
        "encoding": "inplace",
        "label": "uint16",
        "numberOfBytes": "2"
      },
      "t_uint256": {
        "encoding": "inplace",
        "label": "uint256",
        "numberOfBytes": "32"
      },
      "t_uint8": {
        "encoding": "inplace",
        "label": "uint8",
        "numberOfBytes": "1"
      }
    }
  }
}