{
  "address": "0x22E38a0ce5e776bBc3D8D563a79CAb0266593B28",
  "abi": [
    {
      "anonymous": false,
      "inputs": [
        {
          "indexed": false,
          "internalType": "uint8",
          "name": "version",
          "type": "uint8"
        }
      ],
      "name": "Initialized",
      "type": "event"
    },
    {
      "anonymous": false,
      "inputs": [
        {
          "indexed": true,
          "internalType": "address",
          "name": "previousOwner",
          "type": "address"
        },
        {
          "indexed": true,
          "internalType": "address",
          "name": "newOwner",
          "type": "address"
        }
      ],
      "name": "OwnershipTransferred",
      "type": "event"
    },
    {
      "inputs": [],
      "name": "ARBITRUM_COMPRESSION_PERCENT",
      "outputs": [
        {
          "internalType": "uint128",
          "name": "",
          "type": "uint128"
        }
      ],
      "stateMutability": "view",
      "type": "function"
    },
    {
      "inputs": [],
      "name": "arbitrumPriceExt",
      "outputs": [
        {
          "internalType": "uint64",
          "name": "gasPerL2Tx",
          "type": "uint64"
        },
        {
          "internalType": "uint32",
          "name": "gasPerL1CallDataByte",
          "type": "uint32"
        }
      ],
      "stateMutability": "view",
      "type": "function"
    },
    {
      "inputs": [
        {
          "internalType": "uint32",
          "name": "dstEid",
          "type": "uint32"
        }
      ],
      "name": "defaultModelPrice",
      "outputs": [
        {
          "internalType": "uint128",
          "name": "priceRatio",
          "type": "uint128"
        },
        {
          "internalType": "uint64",
          "name": "gasPriceInUnit",
          "type": "uint64"
        },
        {
          "internalType": "uint32",
          "name": "gasPerByte",
          "type": "uint32"
        }
      ],
      "stateMutability": "view",
      "type": "function"
    },
    {
      "inputs": [
        {
          "internalType": "uint16",
          "name": "_dstEid",
          "type": "uint16"
        },
        {
          "internalType": "uint256",
          "name": "_callDataSize",
          "type": "uint256"
        },
        {
          "internalType": "uint256",
          "name": "_gas",
          "type": "uint256"
        }
      ],
      "name": "estimateFeeByChain",
      "outputs": [
        {
          "internalType": "uint256",
          "name": "fee",
          "type": "uint256"
        },
        {
          "internalType": "uint128",
          "name": "priceRatio",
          "type": "uint128"
        }
      ],
      "stateMutability": "view",
      "type": "function"
    },
    {
      "inputs": [
        {
          "internalType": "uint32",
          "name": "_dstEid",
          "type": "uint32"
        },
        {
          "internalType": "uint256",
          "name": "_callDataSize",
          "type": "uint256"
        },
        {
          "internalType": "uint256",
          "name": "_gas",
          "type": "uint256"
        }
      ],
      "name": "estimateFeeByEid",
      "outputs": [
        {
          "internalType": "uint256",
          "name": "fee",
          "type": "uint256"
        },
        {
          "internalType": "uint128",
          "name": "priceRatio",
          "type": "uint128"
        },
        {
          "internalType": "uint128",
          "name": "priceRatioDenominator",
          "type": "uint128"
        },
        {
          "internalType": "uint128",
          "name": "nativePriceUSD",
          "type": "uint128"
        }
      ],
      "stateMutability": "view",
      "type": "function"
    },
    {
      "inputs": [
        {
          "internalType": "uint32",
          "name": "_dstEid",
          "type": "uint32"
        },
        {
          "internalType": "uint256",
          "name": "_callDataSize",
          "type": "uint256"
        },
        {
          "internalType": "uint256",
          "name": "_gas",
          "type": "uint256"
        }
      ],
      "name": "estimateFeeOnSend",
      "outputs": [
        {
          "internalType": "uint256",
          "name": "",
          "type": "uint256"
        },
        {
          "internalType": "uint128",
          "name": "",
          "type": "uint128"
        },
        {
          "internalType": "uint128",
          "name": "",
          "type": "uint128"
        },
        {
          "internalType": "uint128",
          "name": "",
          "type": "uint128"
        }
      ],
      "stateMutability": "payable",
      "type": "function"
    },
    {
      "inputs": [
        {
          "internalType": "uint32",
          "name": "",
          "type": "uint32"
        },
        {
          "internalType": "uint256",
          "name": "",
          "type": "uint256"
        },
        {
          "internalType": "uint256",
          "name": "",
          "type": "uint256"
        }
      ],
      "name": "getFee",
      "outputs": [
        {
          "internalType": "uint256",
          "name": "",
          "type": "uint256"
        }
      ],
      "stateMutability": "pure",
      "type": "function"
    },
    {
      "inputs": [
        {
          "internalType": "uint32",
          "name": "_dstEid",
          "type": "uint32"
        }
      ],
      "name": "getPrice",
      "outputs": [
        {
          "components": [
            {
              "internalType": "uint128",
              "name": "priceRatio",
              "type": "uint128"
            },
            {
              "internalType": "uint64",
              "name": "gasPriceInUnit",
              "type": "uint64"
            },
            {
              "internalType": "uint32",
              "name": "gasPerByte",
              "type": "uint32"
            }
          ],
          "internalType": "struct ILayerZeroPriceFeed.Price",
          "name": "price",
          "type": "tuple"
        }
      ],
      "stateMutability": "view",
      "type": "function"
    },
    {
      "inputs": [
        {
          "internalType": "uint16",
          "name": "_dstEid",
          "type": "uint16"
        }
      ],
      "name": "getPrice",
      "outputs": [
        {
          "components": [
            {
              "internalType": "uint128",
              "name": "priceRatio",
              "type": "uint128"
            },
            {
              "internalType": "uint64",
              "name": "gasPriceInUnit",
              "type": "uint64"
            },
            {
              "internalType": "uint32",
              "name": "gasPerByte",
              "type": "uint32"
            }
          ],
          "internalType": "struct ILayerZeroPriceFeed.Price",
          "name": "price",
          "type": "tuple"
        }
      ],
      "stateMutability": "view",
      "type": "function"
    },
    {
      "inputs": [],
      "name": "getPriceRatioDenominator",
      "outputs": [
        {
          "internalType": "uint128",
          "name": "",
          "type": "uint128"
        }
      ],
      "stateMutability": "view",
      "type": "function"
    },
    {
      "inputs": [
        {
          "internalType": "address",
          "name": "_priceUpdater",
          "type": "address"
        }
      ],
      "name": "initialize",
      "outputs": [],
      "stateMutability": "nonpayable",
      "type": "function"
    },
    {
      "inputs": [],
      "name": "nativeTokenPriceUSD",
      "outputs": [
        {
          "internalType": "uint128",
          "name": "",
          "type": "uint128"
        }
      ],
      "stateMutability": "view",
      "type": "function"
    },
    {
      "inputs": [],
      "name": "owner",
      "outputs": [
        {
          "internalType": "address",
          "name": "",
          "type": "address"
        }
      ],
      "stateMutability": "view",
      "type": "function"
    },
    {
      "inputs": [
        {
          "internalType": "address",
          "name": "updater",
          "type": "address"
        }
      ],
      "name": "priceUpdater",
      "outputs": [
        {
          "internalType": "bool",
          "name": "active",
          "type": "bool"
        }
      ],
      "stateMutability": "view",
      "type": "function"
    },
    {
      "inputs": [],
      "name": "renounceOwnership",
      "outputs": [],
      "stateMutability": "nonpayable",
      "type": "function"
    },
    {
      "inputs": [
        {
          "internalType": "uint128",
          "name": "_compressionPercent",
          "type": "uint128"
        }
      ],
      "name": "setArbitrumCompressionPercent",
      "outputs": [],
      "stateMutability": "nonpayable",
      "type": "function"
    },
    {
      "inputs": [
        {
          "internalType": "uint128",
          "name": "_nativeTokenPriceUSD",
          "type": "uint128"
        }
      ],
      "name": "setNativeTokenPriceUSD",
      "outputs": [],
      "stateMutability": "nonpayable",
      "type": "function"
    },
    {
      "inputs": [
        {
          "components": [
            {
              "internalType": "uint32",
              "name": "eid",
              "type": "uint32"
            },
            {
              "components": [
                {
                  "internalType": "uint128",
                  "name": "priceRatio",
                  "type": "uint128"
                },
                {
                  "internalType": "uint64",
                  "name": "gasPriceInUnit",
                  "type": "uint64"
                },
                {
                  "internalType": "uint32",
                  "name": "gasPerByte",
                  "type": "uint32"
                }
              ],
              "internalType": "struct ILayerZeroPriceFeed.Price",
              "name": "price",
              "type": "tuple"
            }
          ],
          "internalType": "struct ILayerZeroPriceFeed.UpdatePrice[]",
          "name": "_price",
          "type": "tuple[]"
        }
      ],
      "name": "setPrice",
      "outputs": [],
      "stateMutability": "nonpayable",
      "type": "function"
    },
    {
      "inputs": [
        {
          "components": [
            {
              "internalType": "uint32",
              "name": "eid",
              "type": "uint32"
            },
            {
              "components": [
                {
                  "internalType": "uint128",
                  "name": "priceRatio",
                  "type": "uint128"
                },
                {
                  "internalType": "uint64",
                  "name": "gasPriceInUnit",
                  "type": "uint64"
                },
                {
                  "internalType": "uint32",
                  "name": "gasPerByte",
                  "type": "uint32"
                }
              ],
              "internalType": "struct ILayerZeroPriceFeed.Price",
              "name": "price",
              "type": "tuple"
            },
            {
              "components": [
                {
                  "internalType": "uint64",
                  "name": "gasPerL2Tx",
                  "type": "uint64"
                },
                {
                  "internalType": "uint32",
                  "name": "gasPerL1CallDataByte",
                  "type": "uint32"
                }
              ],
              "internalType": "struct ILayerZeroPriceFeed.ArbitrumPriceExt",
              "name": "extend",
              "type": "tuple"
            }
          ],
          "internalType": "struct ILayerZeroPriceFeed.UpdatePriceExt",
          "name": "_update",
          "type": "tuple"
        }
      ],
      "name": "setPriceForArbitrum",
      "outputs": [],
      "stateMutability": "nonpayable",
      "type": "function"
    },
    {
      "inputs": [
        {
          "internalType": "uint128",
          "name": "_denominator",
          "type": "uint128"
        }
      ],
      "name": "setPriceRatioDenominator",
      "outputs": [],
      "stateMutability": "nonpayable",
      "type": "function"
    },
    {
      "inputs": [
        {
          "internalType": "address",
          "name": "_addr",
          "type": "address"
        },
        {
          "internalType": "bool",
          "name": "_active",
          "type": "bool"
        }
      ],
      "name": "setPriceUpdater",
      "outputs": [],
      "stateMutability": "nonpayable",
      "type": "function"
    },
    {
      "inputs": [
        {
          "internalType": "address",
          "name": "newOwner",
          "type": "address"
        }
      ],
      "name": "transferOwnership",
      "outputs": [],
      "stateMutability": "nonpayable",
      "type": "function"
    },
    {
      "inputs": [
        {
          "internalType": "address payable",
          "name": "_to",
          "type": "address"
        },
        {
          "internalType": "uint256",
          "name": "_amount",
          "type": "uint256"
        }
      ],
      "name": "withdrawFee",
      "outputs": [],
      "stateMutability": "nonpayable",
      "type": "function"
    }
  ],
  "transactionHash": "0x69833bd39fea773571a47b1652aadf26e579b8cc47290b31136e8f8669614dac",
  "args": [],
  "numDeployments": 2,
  "solcInputHash": "c2bc4c5d4ccb5c0ff42080d0bece220c",
  "bytecode": "0x608060405234801561001057600080fd5b50611e18806100206000396000f3fe6080604052600436106101805760003560e01c80638da5cb5b116100d6578063d350ad251161007f578063ee396ac111610059578063ee396ac11461068d578063f2fde38b1461074c578063fd9be5221461076c57600080fd5b8063d350ad25146104c1578063da26663a146104e1578063e0ad121a146105d857600080fd5b8063c1840327116100b0578063c18403271461043d578063c4d66de814610464578063cd68b79b1461048457600080fd5b80638da5cb5b146103ab57806392807f58146103e0578063c1723a1d1461042a57600080fd5b80635d6d7ccb116101385780637dc438a4116101125780637dc438a4146102f357806388a4124c146103135780638ca2fb081461036b57600080fd5b80635d6d7ccb14610278578063715018a6146102985780637bc3c9ab146102ad57600080fd5b80633161b7f6116101695780633161b7f6146101de57806336a5beba146101fe57806352a725101461025857600080fd5b806311f2c343146101855780632f7cb0b4146101bc575b600080fd5b34801561019157600080fd5b506101a96101a03660046119df565b60009392505050565b6040519081526020015b60405180910390f35b3480156101c857600080fd5b506101dc6101d7366004611a32565b61078c565b005b3480156101ea57600080fd5b506101dc6101f9366004611a54565b6107c9565b34801561020a57600080fd5b506068546102339067ffffffffffffffff81169068010000000000000000900463ffffffff1682565b6040805167ffffffffffffffff909316835263ffffffff9091166020830152016101b3565b34801561026457600080fd5b506101dc610273366004611aeb565b6109d8565b34801561028457600080fd5b506101dc610293366004611a32565b610a36565b3480156102a457600080fd5b506101dc610b2d565b3480156102b957600080fd5b506102cd6102c8366004611b3b565b610b41565b604080519283526fffffffffffffffffffffffffffffffff9091166020830152016101b3565b3480156102ff57600080fd5b506101dc61030e366004611b59565b610bdc565b34801561031f57600080fd5b5061033361032e3660046119df565b610d19565b604080519485526fffffffffffffffffffffffffffffffff9384166020860152918316918401919091521660608201526080016101b3565b34801561037757600080fd5b5061039b610386366004611b71565b60666020526000908152604090205460ff1681565b60405190151581526020016101b3565b3480156103b757600080fd5b5060335460405173ffffffffffffffffffffffffffffffffffffffff90911681526020016101b3565b3480156103ec57600080fd5b50606954610409906fffffffffffffffffffffffffffffffff1681565b6040516fffffffffffffffffffffffffffffffff90911681526020016101b3565b6103336104383660046119df565b610d3b565b34801561044957600080fd5b506065546fffffffffffffffffffffffffffffffff16610409565b34801561047057600080fd5b506101dc61047f366004611b71565b610d5e565b34801561049057600080fd5b506069546104099070010000000000000000000000000000000090046fffffffffffffffffffffffffffffffff1681565b3480156104cd57600080fd5b506101dc6104dc366004611a32565b611045565b3480156104ed57600080fd5b506105946104fc366004611b8e565b60408051606080820183526000808352602080840182905292840181905263ffffffff94851681526067835283902083519182018452546fffffffffffffffffffffffffffffffff81168252700100000000000000000000000000000000810467ffffffffffffffff169282019290925278010000000000000000000000000000000000000000000000009091049092169082015290565b6040805182516fffffffffffffffffffffffffffffffff16815260208084015167ffffffffffffffff16908201529181015163ffffffff16908201526060016101b3565b3480156105e457600080fd5b506105946105f3366004611ba9565b60408051606080820183526000808352602080840182905292840181905261ffff949094168452606782529282902082519384018352546fffffffffffffffffffffffffffffffff8116845267ffffffffffffffff700100000000000000000000000000000000820416918401919091527801000000000000000000000000000000000000000000000000900463ffffffff169082015290565b34801561069957600080fd5b5061070f6106a8366004611b8e565b6067602052600090815260409020546fffffffffffffffffffffffffffffffff811690700100000000000000000000000000000000810467ffffffffffffffff16907801000000000000000000000000000000000000000000000000900463ffffffff1683565b604080516fffffffffffffffffffffffffffffffff909416845267ffffffffffffffff909216602084015263ffffffff16908201526060016101b3565b34801561075857600080fd5b506101dc610767366004611b71565b611090565b34801561077857600080fd5b506101dc610787366004611bc4565b611147565b610794611219565b606980546fffffffffffffffffffffffffffffffff928316700100000000000000000000000000000000029216919091179055565b336107e960335473ffffffffffffffffffffffffffffffffffffffff1690565b73ffffffffffffffffffffffffffffffffffffffff1614610882573360009081526066602052604090205460ff16610882576040517f08c379a000000000000000000000000000000000000000000000000000000000815260206004820152601c60248201527f5072696365466565643a206e6f7420707269636520757064617465720000000060448201526064015b60405180910390fd5b60005b818110156109d357368383838181106108a0576108a0611bf0565b6080029190910191506109c090506108bb6020830183611b8e565b6108cd36849003840160208501611c37565b805160208083015160409384015184516060810186526fffffffffffffffffffffffffffffffff948516815267ffffffffffffffff92831681850190815263ffffffff9283168288019081529783166000908152606790955295909320925183549551965194167fffffffffffffffff000000000000000000000000000000000000000000000000909516949094177001000000000000000000000000000000009590911694909402939093177fffffffff00000000ffffffffffffffffffffffffffffffffffffffffffffffff1678010000000000000000000000000000000000000000000000009190921602179055565b50806109cb81611cf9565b915050610885565b505050565b6109e0611219565b73ffffffffffffffffffffffffffffffffffffffff91909116600090815260666020526040902080547fffffffffffffffffffffffffffffffffffffffffffffffffffffffffffffff0016911515919091179055565b33610a5660335473ffffffffffffffffffffffffffffffffffffffff1690565b73ffffffffffffffffffffffffffffffffffffffff1614610aea573360009081526066602052604090205460ff16610aea576040517f08c379a000000000000000000000000000000000000000000000000000000000815260206004820152601c60248201527f5072696365466565643a206e6f742070726963652075706461746572000000006044820152606401610879565b606980547fffffffffffffffffffffffffffffffff00000000000000000000000000000000166fffffffffffffffffffffffffffffffff92909216919091179055565b610b35611219565b610b3f600061129a565b565b6000808461ffff16606e1480610b5c57508461ffff1661279f145b80610b6c57508461ffff16614eaf145b15610b8957610b808561ffff168585611311565b91509150610bd4565b8461ffff16606f1480610ba157508461ffff16612794145b80610bb157508461ffff16614ea4145b15610bc557610b808561ffff16858561146e565b610b808561ffff16858561161f565b935093915050565b33610bfc60335473ffffffffffffffffffffffffffffffffffffffff1690565b73ffffffffffffffffffffffffffffffffffffffff1614610c90573360009081526066602052604090205460ff16610c90576040517f08c379a000000000000000000000000000000000000000000000000000000000815260206004820152601c60248201527f5072696365466565643a206e6f742070726963652075706461746572000000006044820152606401610879565b610ca06108bb6020830183611b8e565b6000610cb260a0830160808401611d31565b90506000610cc660c0840160a08501611b8e565b6068805463ffffffff90921668010000000000000000027fffffffffffffffffffffffffffffffffffffffff00000000000000000000000090921667ffffffffffffffff90941693909317179091555050565b600080600080610d2a8787876116f4565b935093509350935093509350935093565b600080808080610d4c8888886116f4565b94509450945094505093509350935093565b6000610d887fb53127684a568b3173ae13b9f8a6016e243e63b6e8ee1178d6a717850b5d61035490565b905073ffffffffffffffffffffffffffffffffffffffff8116610de15773ffffffffffffffffffffffffffffffffffffffff7fb53127684a568b3173ae13b9f8a6016e243e63b6e8ee1178d6a717850b5d610355610e03565b3373ffffffffffffffffffffffffffffffffffffffff821614610e0357600080fd5b600054610100900460ff1615808015610e235750600054600160ff909116105b80610e3d5750303b158015610e3d575060005460ff166001145b610ec9576040517f08c379a000000000000000000000000000000000000000000000000000000000815260206004820152602e60248201527f496e697469616c697a61626c653a20636f6e747261637420697320616c72656160448201527f647920696e697469616c697a65640000000000000000000000000000000000006064820152608401610879565b600080547fffffffffffffffffffffffffffffffffffffffffffffffffffffffffffffff001660011790558015610f2757600080547fffffffffffffffffffffffffffffffffffffffffffffffffffffffffffff00ff166101001790555b610f2f6117cb565b73ffffffffffffffffffffffffffffffffffffffff8316600090815260666020526040902080547fffffffffffffffffffffffffffffffffffffffffffffffffffffffffffffff00166001179055606580547fffffffffffffffffffffffffffffffff000000000000000000000000000000001668056bc75e2d6310000017905560698054702f000000000000000000000000000000006fffffffffffffffffffffffffffffffff9190911617905580156109d357600080547fffffffffffffffffffffffffffffffffffffffffffffffffffffffffffff00ff169055604051600181527f7f26b83ff96e1f2b6a682f133852f6798a09c465da95921460cefb38474024989060200160405180910390a1505050565b61104d611219565b606580547fffffffffffffffffffffffffffffffff00000000000000000000000000000000166fffffffffffffffffffffffffffffffff92909216919091179055565b611098611219565b73ffffffffffffffffffffffffffffffffffffffff811661113b576040517f08c379a000000000000000000000000000000000000000000000000000000000815260206004820152602660248201527f4f776e61626c653a206e6577206f776e657220697320746865207a65726f206160448201527f64647265737300000000000000000000000000000000000000000000000000006064820152608401610879565b6111448161129a565b50565b61114f611219565b60008273ffffffffffffffffffffffffffffffffffffffff168260405160006040518083038185875af1925050503d80600081146111a9576040519150601f19603f3d011682016040523d82523d6000602084013e6111ae565b606091505b50509050806109d3576040517f08c379a000000000000000000000000000000000000000000000000000000000815260206004820152601a60248201527f5072696365466565643a207769746864726177206661696c65640000000000006044820152606401610879565b60335473ffffffffffffffffffffffffffffffffffffffff163314610b3f576040517f08c379a000000000000000000000000000000000000000000000000000000000815260206004820181905260248201527f4f776e61626c653a2063616c6c6572206973206e6f7420746865206f776e65726044820152606401610879565b6033805473ffffffffffffffffffffffffffffffffffffffff8381167fffffffffffffffffffffffff0000000000000000000000000000000000000000831681179093556040519116919082907f8be0079c531659141344cd1fd0a4f28419497f9722a3daafe3b4186f6b6457e090600090a35050565b63ffffffff8381166000908152606760205260408120606854606954929384938492680100000000000000009004909116906064906113769070010000000000000000000000000000000090046fffffffffffffffffffffffffffffffff1689611d4c565b6113809190611d98565b61138a9190611d4c565b82549091506000906113be907801000000000000000000000000000000000000000000000000900463ffffffff1688611d4c565b835460685491925060009167ffffffffffffffff700100000000000000000000000000000000909204821691849186916113f991168b611dac565b6114039190611dac565b61140d9190611dac565b6114179190611d4c565b60655485549192506fffffffffffffffffffffffffffffffff9081169161143f911683611d4c565b6114499190611d98565b935493996fffffffffffffffffffffffffffffffff9094169850929650505050505050565b600080600061147c8661186a565b63ffffffff808216600090815260676020526040812080549394509290916114c191780100000000000000000000000000000000000000000000000090041688611d4c565b6114cd90610c74611dac565b82549091506000906114fd90700100000000000000000000000000000000900467ffffffffffffffff1683611d4c565b63ffffffff808b16600090815260676020526040812080549394509290916115429178010000000000000000000000000000000000000000000000009004168b611d4c565b8254909150600090700100000000000000000000000000000000900467ffffffffffffffff166115728b84611dac565b61157c9190611d4c565b60655487549192506000916fffffffffffffffffffffffffffffffff918216916115a7911687611d4c565b6115b19190611d98565b60655485549192506000916fffffffffffffffffffffffffffffffff918216916115dc911685611d4c565b6115e69190611d98565b905060006115f48284611dac565b9554959f6fffffffffffffffffffffffffffffffff9096169e50949c50505050505050505050505050565b63ffffffff8084166000908152606760205260408120805491928392839161166491780100000000000000000000000000000000000000000000000090041687611d4c565b8254909150600090700100000000000000000000000000000000900467ffffffffffffffff166116948784611dac565b61169e9190611d4c565b60655484549192506fffffffffffffffffffffffffffffffff908116916116c6911683611d4c565b6116d09190611d98565b925492986fffffffffffffffffffffffffffffffff90931697509195505050505050565b60008080808061170661753089611dbf565b90508063ffffffff16606e148061172457508063ffffffff1661279f145b8061173657508063ffffffff16614eaf145b1561175057611746818888611311565b909550935061179f565b8063ffffffff16606f148061176c57508063ffffffff16612794145b8061177e57508063ffffffff16614ea4145b1561178e5761174681888861146e565b61179981888861161f565b90955093505b505060655460695493979296506fffffffffffffffffffffffffffffffff908116955090921692509050565b600054610100900460ff16611862576040517f08c379a000000000000000000000000000000000000000000000000000000000815260206004820152602b60248201527f496e697469616c697a61626c653a20636f6e7472616374206973206e6f74206960448201527f6e697469616c697a696e670000000000000000000000000000000000000000006064820152608401610879565b610b3f611926565b60008061187961753084611dbf565b90508063ffffffff16606f036118925750606592915050565b8063ffffffff16612794036118ab575061278992915050565b8063ffffffff16614ea4036118c45750614e9992915050565b6040517f08c379a000000000000000000000000000000000000000000000000000000000815260206004820152601e60248201527f5072696365466565643a20756e6b6e6f776e206c3220636861696e20696400006044820152606401610879565b600054610100900460ff166119bd576040517f08c379a000000000000000000000000000000000000000000000000000000000815260206004820152602b60248201527f496e697469616c697a61626c653a20636f6e7472616374206973206e6f74206960448201527f6e697469616c697a696e670000000000000000000000000000000000000000006064820152608401610879565b610b3f3361129a565b803563ffffffff811681146119da57600080fd5b919050565b6000806000606084860312156119f457600080fd5b6119fd846119c6565b95602085013595506040909401359392505050565b80356fffffffffffffffffffffffffffffffff811681146119da57600080fd5b600060208284031215611a4457600080fd5b611a4d82611a12565b9392505050565b60008060208385031215611a6757600080fd5b823567ffffffffffffffff80821115611a7f57600080fd5b818501915085601f830112611a9357600080fd5b813581811115611aa257600080fd5b8660208260071b8501011115611ab757600080fd5b60209290920196919550909350505050565b73ffffffffffffffffffffffffffffffffffffffff8116811461114457600080fd5b60008060408385031215611afe57600080fd5b8235611b0981611ac9565b915060208301358015158114611b1e57600080fd5b809150509250929050565b803561ffff811681146119da57600080fd5b600080600060608486031215611b5057600080fd5b6119fd84611b29565b600060c08284031215611b6b57600080fd5b50919050565b600060208284031215611b8357600080fd5b8135611a4d81611ac9565b600060208284031215611ba057600080fd5b611a4d826119c6565b600060208284031215611bbb57600080fd5b611a4d82611b29565b60008060408385031215611bd757600080fd5b8235611be281611ac9565b946020939093013593505050565b7f4e487b7100000000000000000000000000000000000000000000000000000000600052603260045260246000fd5b803567ffffffffffffffff811681146119da57600080fd5b600060608284031215611c4957600080fd5b6040516060810181811067ffffffffffffffff82111715611c93577f4e487b7100000000000000000000000000000000000000000000000000000000600052604160045260246000fd5b604052611c9f83611a12565b8152611cad60208401611c1f565b6020820152611cbe604084016119c6565b60408201529392505050565b7f4e487b7100000000000000000000000000000000000000000000000000000000600052601160045260246000fd5b60007fffffffffffffffffffffffffffffffffffffffffffffffffffffffffffffffff8203611d2a57611d2a611cca565b5060010190565b600060208284031215611d4357600080fd5b611a4d82611c1f565b8082028115828204841417611d6357611d63611cca565b92915050565b7f4e487b7100000000000000000000000000000000000000000000000000000000600052601260045260246000fd5b600082611da757611da7611d69565b500490565b80820180821115611d6357611d63611cca565b600063ffffffff80841680611dd657611dd6611d69565b9216919091069291505056fea264697066735822122010a466e38d3843b9c8c5b8c9c6cbbc6ecfc679ccc77112c1ed69e2c456c4fae464736f6c63430008120033",
  "devdoc": {
    "events": {
      "Initialized(uint8)": {
        "details": "Triggered when the contract has been initialized or reinitialized."
      }
    },
    "kind": "dev",
    "methods": {
      "owner()": {
        "details": "Returns the address of the current owner."
      },
      "renounceOwnership()": {
        "details": "Leaves the contract without owner. It will not be possible to call `onlyOwner` functions. Can only be called by the current owner. NOTE: Renouncing ownership will leave the contract without an owner, thereby disabling any functionality that is only available to the owner."
      },
      "transferOwnership(address)": {
        "details": "Transfers ownership of the contract to a new account (`newOwner`). Can only be called by the current owner."
      }
    },
    "version": 1
  },
  "userdoc": {
    "kind": "user",
    "methods": {},
    "version": 1
  },
  "storageLayout": {
    "storage": [
      {
        "astId": 138,
        "contract": "contracts/PriceFeed.sol:PriceFeed",
        "label": "_initialized",
        "offset": 0,
        "slot": "0",
        "type": "t_uint8"
      },
      {
        "astId": 141,
        "contract": "contracts/PriceFeed.sol:PriceFeed",
        "label": "_initializing",
        "offset": 1,
        "slot": "0",
        "type": "t_bool"
      },
      {
        "astId": 671,
        "contract": "contracts/PriceFeed.sol:PriceFeed",
        "label": "__gap",
        "offset": 0,
        "slot": "1",
        "type": "t_array(t_uint256)50_storage"
      },
      {
        "astId": 10,
        "contract": "contracts/PriceFeed.sol:PriceFeed",
        "label": "_owner",
        "offset": 0,
        "slot": "51",
        "type": "t_address"
      },
      {
        "astId": 130,
        "contract": "contracts/PriceFeed.sol:PriceFeed",
        "label": "__gap",
        "offset": 0,
        "slot": "52",
        "type": "t_array(t_uint256)49_storage"
      },
      {
        "astId": 685,
        "contract": "contracts/PriceFeed.sol:PriceFeed",
        "label": "PRICE_RATIO_DENOMINATOR",
        "offset": 0,
        "slot": "101",
        "type": "t_uint128"
      },
      {
        "astId": 689,
        "contract": "contracts/PriceFeed.sol:PriceFeed",
        "label": "priceUpdater",
        "offset": 0,
        "slot": "102",
        "type": "t_mapping(t_address,t_bool)"
      },
      {
        "astId": 694,
        "contract": "contracts/PriceFeed.sol:PriceFeed",
        "label": "defaultModelPrice",
        "offset": 0,
        "slot": "103",
        "type": "t_mapping(t_uint32,t_struct(Price)1468_storage)"
      },
      {
        "astId": 697,
        "contract": "contracts/PriceFeed.sol:PriceFeed",
        "label": "arbitrumPriceExt",
        "offset": 0,
        "slot": "104",
        "type": "t_struct(ArbitrumPriceExt)1479_storage"
      },
      {
        "astId": 699,
        "contract": "contracts/PriceFeed.sol:PriceFeed",
        "label": "nativeTokenPriceUSD",
        "offset": 0,
        "slot": "105",
        "type": "t_uint128"
      },
      {
        "astId": 701,
        "contract": "contracts/PriceFeed.sol:PriceFeed",
        "label": "ARBITRUM_COMPRESSION_PERCENT",
        "offset": 16,
        "slot": "105",
        "type": "t_uint128"
      }
    ],
    "types": {
      "t_address": {
        "encoding": "inplace",
        "label": "address",
        "numberOfBytes": "20"
      },
      "t_array(t_uint256)49_storage": {
        "base": "t_uint256",
        "encoding": "inplace",
        "label": "uint256[49]",
        "numberOfBytes": "1568"
      },
      "t_array(t_uint256)50_storage": {
        "base": "t_uint256",
        "encoding": "inplace",
        "label": "uint256[50]",
        "numberOfBytes": "1600"
      },
      "t_bool": {
        "encoding": "inplace",
        "label": "bool",
        "numberOfBytes": "1"
      },
      "t_mapping(t_address,t_bool)": {
        "encoding": "mapping",
        "key": "t_address",
        "label": "mapping(address => bool)",
        "numberOfBytes": "32",
        "value": "t_bool"
      },
      "t_mapping(t_uint32,t_struct(Price)1468_storage)": {
        "encoding": "mapping",
        "key": "t_uint32",
        "label": "mapping(uint32 => struct ILayerZeroPriceFeed.Price)",
        "numberOfBytes": "32",
        "value": "t_struct(Price)1468_storage"
      },
      "t_struct(ArbitrumPriceExt)1479_storage": {
        "encoding": "inplace",
        "label": "struct ILayerZeroPriceFeed.ArbitrumPriceExt",
        "members": [
          {
            "astId": 1476,
            "contract": "contracts/PriceFeed.sol:PriceFeed",
            "label": "gasPerL2Tx",
            "offset": 0,
            "slot": "0",
            "type": "t_uint64"
          },
          {
            "astId": 1478,
            "contract": "contracts/PriceFeed.sol:PriceFeed",
            "label": "gasPerL1CallDataByte",
            "offset": 8,
            "slot": "0",
            "type": "t_uint32"
          }
        ],
        "numberOfBytes": "32"
      },
      "t_struct(Price)1468_storage": {
        "encoding": "inplace",
        "label": "struct ILayerZeroPriceFeed.Price",
        "members": [
          {
            "astId": 1463,
            "contract": "contracts/PriceFeed.sol:PriceFeed",
            "label": "priceRatio",
            "offset": 0,
            "slot": "0",
            "type": "t_uint128"
          },
          {
            "astId": 1465,
            "contract": "contracts/PriceFeed.sol:PriceFeed",
            "label": "gasPriceInUnit",
            "offset": 16,
            "slot": "0",
            "type": "t_uint64"
          },
          {
            "astId": 1467,
            "contract": "contracts/PriceFeed.sol:PriceFeed",
            "label": "gasPerByte",
            "offset": 24,
            "slot": "0",
            "type": "t_uint32"
          }
        ],
        "numberOfBytes": "32"
      },
      "t_uint128": {
        "encoding": "inplace",
        "label": "uint128",
        "numberOfBytes": "16"
      },
      "t_uint256": {
        "encoding": "inplace",
        "label": "uint256",
        "numberOfBytes": "32"
      },
      "t_uint32": {
        "encoding": "inplace",
        "label": "uint32",
        "numberOfBytes": "4"
      },
      "t_uint64": {
        "encoding": "inplace",
        "label": "uint64",
        "numberOfBytes": "8"
      },
      "t_uint8": {
        "encoding": "inplace",
        "label": "uint8",
        "numberOfBytes": "1"
      }
    }
  }
}