{
  "address": "0x8108db914784f01caC8D4594970FC7374ee868F6",
  "abi": [
    {
      "inputs": [
        {
          "internalType": "address",
          "name": "_factory",
          "type": "address"
        },
        {
          "internalType": "uint16",
          "name": "_localChainId",
          "type": "uint16"
        }
      ],
      "stateMutability": "nonpayable",
      "type": "constructor"
    },
    {
      "anonymous": false,
      "inputs": [
        {
          "indexed": true,
          "internalType": "address",
          "name": "previousOwner",
          "type": "address"
        },
        {
          "indexed": true,
          "internalType": "address",
          "name": "newOwner",
          "type": "address"
        }
      ],
      "name": "OwnershipTransferred",
      "type": "event"
    },
    {
      "inputs": [],
      "name": "DELTA_1",
      "outputs": [
        {
          "internalType": "uint256",
          "name": "",
          "type": "uint256"
        }
      ],
      "stateMutability": "view",
      "type": "function"
    },
    {
      "inputs": [],
      "name": "DELTA_2",
      "outputs": [
        {
          "internalType": "uint256",
          "name": "",
          "type": "uint256"
        }
      ],
      "stateMutability": "view",
      "type": "function"
    },
    {
      "inputs": [],
      "name": "DENOMINATOR",
      "outputs": [
        {
          "internalType": "uint256",
          "name": "",
          "type": "uint256"
        }
      ],
      "stateMutability": "view",
      "type": "function"
    },
    {
      "inputs": [],
      "name": "LAMBDA_1",
      "outputs": [
        {
          "internalType": "uint256",
          "name": "",
          "type": "uint256"
        }
      ],
      "stateMutability": "view",
      "type": "function"
    },
    {
      "inputs": [],
      "name": "LAMBDA_2",
      "outputs": [
        {
          "internalType": "uint256",
          "name": "",
          "type": "uint256"
        }
      ],
      "stateMutability": "view",
      "type": "function"
    },
    {
      "inputs": [],
      "name": "LP_FEE",
      "outputs": [
        {
          "internalType": "uint256",
          "name": "",
          "type": "uint256"
        }
      ],
      "stateMutability": "view",
      "type": "function"
    },
    {
      "inputs": [],
      "name": "PROTOCOL_FEE",
      "outputs": [
        {
          "internalType": "uint256",
          "name": "",
          "type": "uint256"
        }
      ],
      "stateMutability": "view",
      "type": "function"
    },
    {
      "inputs": [],
      "name": "PROTOCOL_SUBSIDY",
      "outputs": [
        {
          "internalType": "uint256",
          "name": "",
          "type": "uint256"
        }
      ],
      "stateMutability": "view",
      "type": "function"
    },
    {
      "inputs": [],
      "name": "factory",
      "outputs": [
        {
          "internalType": "contract Factory",
          "name": "",
          "type": "address"
        }
      ],
      "stateMutability": "view",
      "type": "function"
    },
    {
      "inputs": [
        {
          "internalType": "uint256",
          "name": "idealBalance",
          "type": "uint256"
        },
        {
          "internalType": "uint256",
          "name": "beforeBalance",
          "type": "uint256"
        },
        {
          "internalType": "uint256",
          "name": "amountSD",
          "type": "uint256"
        }
      ],
      "name": "getEquilibriumFee",
      "outputs": [
        {
          "internalType": "uint256",
          "name": "",
          "type": "uint256"
        },
        {
          "internalType": "uint256",
          "name": "",
          "type": "uint256"
        }
      ],
      "stateMutability": "pure",
      "type": "function"
    },
    {
      "inputs": [
        {
          "internalType": "uint256",
          "name": "_srcPoolId",
          "type": "uint256"
        },
        {
          "internalType": "uint256",
          "name": "_dstPoolId",
          "type": "uint256"
        },
        {
          "internalType": "uint16",
          "name": "_dstChainId",
          "type": "uint16"
        },
        {
          "internalType": "address",
          "name": "",
          "type": "address"
        },
        {
          "internalType": "uint256",
          "name": "_amountSD",
          "type": "uint256"
        }
      ],
      "name": "getFees",
      "outputs": [
        {
          "components": [
            {
              "internalType": "uint256",
              "name": "amount",
              "type": "uint256"
            },
            {
              "internalType": "uint256",
              "name": "eqFee",
              "type": "uint256"
            },
            {
              "internalType": "uint256",
              "name": "eqReward",
              "type": "uint256"
            },
            {
              "internalType": "uint256",
              "name": "lpFee",
              "type": "uint256"
            },
            {
              "internalType": "uint256",
              "name": "protocolFee",
              "type": "uint256"
            },
            {
              "internalType": "uint256",
              "name": "lkbRemove",
              "type": "uint256"
            }
          ],
          "internalType": "struct Pool.SwapObj",
          "name": "s",
          "type": "tuple"
        }
      ],
      "stateMutability": "view",
      "type": "function"
    },
    {
      "inputs": [
        {
          "internalType": "uint256",
          "name": "lambda",
          "type": "uint256"
        },
        {
          "internalType": "uint256",
          "name": "yOffset",
          "type": "uint256"
        },
        {
          "internalType": "uint256",
          "name": "xUpperBound",
          "type": "uint256"
        },
        {
          "internalType": "uint256",
          "name": "xLowerBound",
          "type": "uint256"
        },
        {
          "internalType": "uint256",
          "name": "xStart",
          "type": "uint256"
        },
        {
          "internalType": "uint256",
          "name": "xEnd",
          "type": "uint256"
        }
      ],
      "name": "getTrapezoidArea",
      "outputs": [
        {
          "internalType": "uint256",
          "name": "",
          "type": "uint256"
        }
      ],
      "stateMutability": "pure",
      "type": "function"
    },
    {
      "inputs": [],
      "name": "getVersion",
      "outputs": [
        {
          "internalType": "string",
          "name": "",
          "type": "string"
        }
      ],
      "stateMutability": "pure",
      "type": "function"
    },
    {
      "inputs": [],
      "name": "localChainId",
      "outputs": [
        {
          "internalType": "uint16",
          "name": "",
          "type": "uint16"
        }
      ],
      "stateMutability": "view",
      "type": "function"
    },
    {
      "inputs": [],
      "name": "owner",
      "outputs": [
        {
          "internalType": "address",
          "name": "",
          "type": "address"
        }
      ],
      "stateMutability": "view",
      "type": "function"
    },
    {
      "inputs": [],
      "name": "renounceOwnership",
      "outputs": [],
      "stateMutability": "nonpayable",
      "type": "function"
    },
    {
      "inputs": [
        {
          "internalType": "address",
          "name": "newOwner",
          "type": "address"
        }
      ],
      "name": "transferOwnership",
      "outputs": [],
      "stateMutability": "nonpayable",
      "type": "function"
    }
  ],
  "transactionHash": "0xa79449fc6722f1e235cd2bb6b4529ad1940ed319ed8d795db39647e263b614b6",
  "args": [
    "0xA7f2B710198a66D06349F2f0e5AD5fd15452a42e",
    20002
  ],
  "numDeployments": 1,
  "solcInputHash": "47fc7421fb81baaea4b7164dafc8e490",
  "bytecode": "0x60c060405234801561001057600080fd5b5060405161134e38038061134e83398101604081905261002f916100e2565b60006100396100de565b600080546001600160a01b0319166001600160a01b0383169081178255604051929350917f8be0079c531659141344cd1fd0a4f28419497f9722a3daafe3b4186f6b6457e0908290a350600180556001600160a01b0382166100b65760405162461bcd60e51b81526004016100ad9061012c565b60405180910390fd5b60609190911b6001600160601b03191660805260f01b6001600160f01b03191660a05261016d565b3390565b600080604083850312156100f4578182fd5b82516001600160a01b038116811461010a578283fd5b602084015190925061ffff81168114610121578182fd5b809150509250929050565b60208082526021908201527f4665654c6962726172793a20466163746f72792063616e6e6f742062652030786040820152600360fc1b606082015260800190565b60805160601c60a05160f01c6111a46101aa6000398061025e52806103e752806106f1528061078e5250806102db52806108c552506111a46000f3fe608060405234801561001057600080fd5b506004361061010b5760003560e01c80635e3f2727116100a25780638da5cb5b116100715780638da5cb5b146101de578063918f8674146101f3578063a810de6c146101fb578063c45a015514610203578063f2fde38b1461020b5761010b565b80635e3f2727146101b157806360d86e77146101b9578063715018a6146101cc5780637ba5c12f146101d65761010b565b806334b6a602116100de57806334b6a6021461016b5780633dad0dd51461018c578063518a9f9f146101945780635b056da51461019c5761010b565b8063012a1c2d146101105780630b4501fd1461012e5780630d8e6e2c146101365780631ab624301461014b575b600080fd5b61011861021e565b60405161012591906110e8565b60405180910390f35b61011861022a565b61013e610235565b6040516101259190610fc0565b61015e610159366004610eee565b610254565b6040516101259190611081565b61017e610179366004610f3f565b61075b565b6040516101259291906110f1565b610118610775565b610118610781565b6101a461078c565b60405161012591906110c5565b6101186107b0565b6101186101c7366004610f6a565b6107ba565b6101d46107d5565b005b610118610893565b6101e661089d565b6040516101259190610fac565b6101186108ac565b6101186108b8565b6101e66108c3565b6101d4610219366004610e07565b6108e7565b670dd280b9144a000081565b6601c6bf5263400081565b6040805180820190915260058152640332e302e360dc1b602082015290565b61025c610db1565b7f000000000000000000000000000000000000000000000000000000000000000061ffff168461ffff16141561029857600060808201526102c1565b6102bb670de0b6b3a76400006102b5846601c6bf526340006109fb565b90610a5d565b60808201525b60405163068bcd8d60e01b81526000906001600160a01b037f0000000000000000000000000000000000000000000000000000000000000000169063068bcd8d90610310908a906004016110e8565b60206040518083038186803b15801561032857600080fd5b505afa15801561033c573d6000803e3d6000fd5b505050506040513d601f19601f820116820180604052508101906103609190610e23565b90506000816001600160a01b031663159f6add87896040518363ffffffff1660e01b81526004016103929291906110d4565b6101006040518083038186803b1580156103ab57600080fd5b505afa1580156103bf573d6000803e3d6000fd5b505050506040513d601f19601f820116820180604052508101906103e39190610e3f565b90507f000000000000000000000000000000000000000000000000000000000000000061ffff168661ffff161415610428576000602084018190526080840152610461565b60008061043e8360e00151846080015188610ac4565b60208701829052608087015191935091506104599082610c40565b608086015250505b6000826001600160a01b031663fc0c546a6040518163ffffffff1660e01b815260040160206040518083038186803b15801561049c57600080fd5b505afa1580156104b0573d6000803e3d6000fd5b505050506040513d601f19601f820116820180604052508101906104d49190610e23565b905060006105c8846001600160a01b031663feb56b156040518163ffffffff1660e01b815260040160206040518083038186803b15801561051457600080fd5b505afa158015610528573d6000803e3d6000fd5b505050506040513d601f19601f8201168201806040525081019061054c9190610ed6565b6040516370a0823160e01b81526001600160a01b038516906370a0823190610578908990600401610fac565b60206040518083038186803b15801561059057600080fd5b505afa1580156105a4573d6000803e3d6000fd5b505050506040513d601f19601f820116820180604052508101906102b59190610ed6565b90506000846001600160a01b03166315770f926040518163ffffffff1660e01b815260040160206040518083038186803b15801561060557600080fd5b505afa158015610619573d6000803e3d6000fd5b505050506040513d601f19601f8201168201806040525081019061063d9190610ed6565b9050818111156106ef5760006106538284610c40565b90506000866001600160a01b0316639bb811196040518163ffffffff1660e01b815260040160206040518083038186803b15801561069057600080fd5b505afa1580156106a4573d6000803e3d6000fd5b505050506040513d601f19601f820116820180604052508101906106c89190610ed6565b905060006106da836102b5848d6109fb565b9050818111156106e75750805b604089015250505b7f000000000000000000000000000000000000000000000000000000000000000061ffff168961ffff16141561072b576000606087015261074d565b610747670de0b6b3a76400006102b589655af3107a40006109fb565b60608701525b505050505095945050505050565b600080610769858585610ac4565b91509150935093915050565b670853a0d2313c000081565b66b1a2bc2ec5000081565b7f000000000000000000000000000000000000000000000000000000000000000081565b655af3107a400081565b60006107ca878787878787610c9d565b979650505050505050565b6107dd610d53565b6001600160a01b03166107ee61089d565b6001600160a01b031614610849576040805162461bcd60e51b815260206004820181905260248201527f4f776e61626c653a2063616c6c6572206973206e6f7420746865206f776e6572604482015290519081900360640190fd5b600080546040516001600160a01b03909116907f8be0079c531659141344cd1fd0a4f28419497f9722a3daafe3b4186f6b6457e0908390a3600080546001600160a01b0319169055565b651b48eb57e00081565b6000546001600160a01b031690565b670de0b6b3a764000081565b660e35fa931a000081565b7f000000000000000000000000000000000000000000000000000000000000000081565b6108ef610d53565b6001600160a01b031661090061089d565b6001600160a01b03161461095b576040805162461bcd60e51b815260206004820181905260248201527f4f776e61626c653a2063616c6c6572206973206e6f7420746865206f776e6572604482015290519081900360640190fd5b6001600160a01b0381166109a05760405162461bcd60e51b81526004018080602001828103825260268152602001806111286026913960400191505060405180910390fd5b600080546040516001600160a01b03808516939216917f8be0079c531659141344cd1fd0a4f28419497f9722a3daafe3b4186f6b6457e091a3600080546001600160a01b0319166001600160a01b0392909216919091179055565b600082610a0a57506000610a57565b82820282848281610a1757fe5b0414610a545760405162461bcd60e51b815260040180806020018281038252602181526020018061114e6021913960400191505060405180910390fd5b90505b92915050565b6000808211610ab3576040805162461bcd60e51b815260206004820152601a60248201527f536166654d6174683a206469766973696f6e206279207a65726f000000000000604482015290519081900360640190fd5b818381610abc57fe5b049392505050565b60008082841015610af05760405162461bcd60e51b8152600401610ae79061104a565b60405180910390fd5b6000610afc8585610c40565b90506000610b1e670de0b6b3a76400006102b589670853a0d2313c00006109fb565b90506000610b3f670de0b6b3a76400006102b58a66b1a2bc2ec500006109fb565b9050600080838510610b7157610b67670de0b6b3a76400006102b58a651b48eb57e0006109fb565b9150819050610c31565b828510610ba9576000848a10610b875784610b89565b895b9050610ba1660e35fa931a000060008787858b610c9d565b925050610c31565b828910610c06576000848a10610bbf5784610bc1565b895b9050610be3610bdc660e35fa931a000060008888868a610c9d565b8490610d57565b9250610ba1610bdc670dd280b9144a0000660e35fa931a0000876000898c610c9d565b610c2e610c27670dd280b9144a0000660e35fa931a00008660008e8b610c9d565b8390610d57565b91505b90999098509650505050505050565b600082821115610c97576040805162461bcd60e51b815260206004820152601e60248201527f536166654d6174683a207375627472616374696f6e206f766572666c6f770000604482015290519081900360640190fd5b50900390565b6000838210158015610caf5750848311155b610ccb5760405162461bcd60e51b8152600401610ae790611013565b6000610cd78686610c40565b90506000610cfd88610cf7846102b58d610cf18d8c610c40565b906109fb565b90610d57565b90506000610d1789610cf7856102b58e610cf18e8c610c40565b90506000610d258787610c40565b9050610d44670de0b6b3a76400006102b560028185610cf18989610d57565b9b9a5050505050505050505050565b3390565b600082820183811015610a54576040805162461bcd60e51b815260206004820152601b60248201527f536166654d6174683a206164646974696f6e206f766572666c6f770000000000604482015290519081900360640190fd5b6040518060c001604052806000815260200160008152602001600081526020016000815260200160008152602001600081525090565b80518015158114610df757600080fd5b919050565b8051610df781611117565b600060208284031215610e18578081fd5b8135610a54816110ff565b600060208284031215610e34578081fd5b8151610a54816110ff565b6000610100808385031215610e52578182fd5b6040519081019067ffffffffffffffff82118183101715610e6f57fe5b81604052610e7c84610de7565b8152610e8a60208501610dfc565b602082015260408401516040820152606084015160608201526080840151608082015260a084015160a082015260c084015160c082015260e084015160e0820152809250505092915050565b600060208284031215610ee7578081fd5b5051919050565b600080600080600060a08688031215610f05578081fd5b85359450602086013593506040860135610f1e81611117565b92506060860135610f2e816110ff565b949793965091946080013592915050565b600080600060608486031215610f53578283fd5b505081359360208301359350604090920135919050565b60008060008060008060c08789031215610f82578081fd5b505084359660208601359650604086013595606081013595506080810135945060a0013592509050565b6001600160a01b0391909116815260200190565b6000602080835283518082850152825b81811015610fec57858101830151858201604001528201610fd0565b81811115610ffd5783604083870101525b50601f01601f1916929092016040019392505050565b6020808252601e908201527f53746172676174653a2062616c616e6365206f7574206f6620626f756e640000604082015260600190565b6020808252601c908201527f53746172676174653a206e6f7420656e6f7567682062616c616e636500000000604082015260600190565b600060c082019050825182526020830151602083015260408301516040830152606083015160608301526080830151608083015260a083015160a083015292915050565b61ffff91909116815260200190565b61ffff929092168252602082015260400190565b90815260200190565b918252602082015260400190565b6001600160a01b038116811461111457600080fd5b50565b61ffff8116811461111457600080fdfe4f776e61626c653a206e6577206f776e657220697320746865207a65726f2061646472657373536166654d6174683a206d756c7469706c69636174696f6e206f766572666c6f77a2646970667358221220dccbde5d3176c195e92ebb914edb3b7a9bffb6f33c2207773bfb8b42a9f8740764736f6c63430007060033",
  "devdoc": {
    "kind": "dev",
    "methods": {
      "owner()": {
        "details": "Returns the address of the current owner."
      },
      "renounceOwnership()": {
        "details": "Leaves the contract without owner. It will not be possible to call `onlyOwner` functions anymore. Can only be called by the current owner. NOTE: Renouncing ownership will leave the contract without an owner, thereby removing any functionality that is only available to the owner."
      },
      "transferOwnership(address)": {
        "details": "Transfers ownership of the contract to a new account (`newOwner`). Can only be called by the current owner."
      }
    },
    "version": 1
  },
  "userdoc": {
    "kind": "user",
    "methods": {},
    "version": 1
  },
  "storageLayout": {
    "storage": [
      {
        "astId": 197,
        "contract": "contracts/libraries/StargateFeeLibraryV03L.sol:StargateFeeLibraryV03L",
        "label": "_owner",
        "offset": 0,
        "slot": "0",
        "type": "t_address"
      },
      {
        "astId": 2270,
        "contract": "contracts/libraries/StargateFeeLibraryV03L.sol:StargateFeeLibraryV03L",
        "label": "_status",
        "offset": 0,
        "slot": "1",
        "type": "t_uint256"
      }
    ],
    "types": {
      "t_address": {
        "encoding": "inplace",
        "label": "address",
        "numberOfBytes": "20"
      },
      "t_uint256": {
        "encoding": "inplace",
        "label": "uint256",
        "numberOfBytes": "32"
      }
    }
  }
}