{
  "_format": "hh-sol-artifact-1",
  "contractName": "UniversalONFT721",
  "sourceName": "contracts/token/onft/extension/UniversalONFT721.sol",
  "abi": [
    {
      "inputs": [
        {
          "internalType": "string",
          "name": "_name",
          "type": "string"
        },
        {
          "internalType": "string",
          "name": "_symbol",
          "type": "string"
        },
        {
          "internalType": "uint256",
          "name": "_minGasToTransfer",
          "type": "uint256"
        },
        {
          "internalType": "address",
          "name": "_layerZeroEndpoint",
          "type": "address"
        },
        {
          "internalType": "uint256",
          "name": "_startMintId",
          "type": "uint256"
        },
        {
          "internalType": "uint256",
          "name": "_endMintId",
          "type": "uint256"
        }
      ],
      "stateMutability": "nonpayable",
      "type": "constructor"
    },
    {
      "anonymous": false,
      "inputs": [
        {
          "indexed": true,
          "internalType": "address",
          "name": "owner",
          "type": "address"
        },
        {
          "indexed": true,
          "internalType": "address",
          "name": "approved",
          "type": "address"
        },
        {
          "indexed": true,
          "internalType": "uint256",
          "name": "tokenId",
          "type": "uint256"
        }
      ],
      "name": "Approval",
      "type": "event"
    },
    {
      "anonymous": false,
      "inputs": [
        {
          "indexed": true,
          "internalType": "address",
          "name": "owner",
          "type": "address"
        },
        {
          "indexed": true,
          "internalType": "address",
          "name": "operator",
          "type": "address"
        },
        {
          "indexed": false,
          "internalType": "bool",
          "name": "approved",
          "type": "bool"
        }
      ],
      "name": "ApprovalForAll",
      "type": "event"
    },
    {
      "anonymous": false,
      "inputs": [
        {
          "indexed": false,
          "internalType": "bytes32",
          "name": "_hashedPayload",
          "type": "bytes32"
        }
      ],
      "name": "CreditCleared",
      "type": "event"
    },
    {
      "anonymous": false,
      "inputs": [
        {
          "indexed": false,
          "internalType": "bytes32",
          "name": "_hashedPayload",
          "type": "bytes32"
        },
        {
          "indexed": false,
          "internalType": "bytes",
          "name": "_payload",
          "type": "bytes"
        }
      ],
      "name": "CreditStored",
      "type": "event"
    },
    {
      "anonymous": false,
      "inputs": [
        {
          "indexed": false,
          "internalType": "uint16",
          "name": "_srcChainId",
          "type": "uint16"
        },
        {
          "indexed": false,
          "internalType": "bytes",
          "name": "_srcAddress",
          "type": "bytes"
        },
        {
          "indexed": false,
          "internalType": "uint64",
          "name": "_nonce",
          "type": "uint64"
        },
        {
          "indexed": false,
          "internalType": "bytes",
          "name": "_payload",
          "type": "bytes"
        },
        {
          "indexed": false,
          "internalType": "bytes",
          "name": "_reason",
          "type": "bytes"
        }
      ],
      "name": "MessageFailed",
      "type": "event"
    },
    {
      "anonymous": false,
      "inputs": [
        {
          "indexed": true,
          "internalType": "address",
          "name": "previousOwner",
          "type": "address"
        },
        {
          "indexed": true,
          "internalType": "address",
          "name": "newOwner",
          "type": "address"
        }
      ],
      "name": "OwnershipTransferred",
      "type": "event"
    },
    {
      "anonymous": false,
      "inputs": [
        {
          "indexed": true,
          "internalType": "uint16",
          "name": "_srcChainId",
          "type": "uint16"
        },
        {
          "indexed": true,
          "internalType": "bytes",
          "name": "_srcAddress",
          "type": "bytes"
        },
        {
          "indexed": true,
          "internalType": "address",
          "name": "_toAddress",
          "type": "address"
        },
        {
          "indexed": false,
          "internalType": "uint256[]",
          "name": "_tokenIds",
          "type": "uint256[]"
        }
      ],
      "name": "ReceiveFromChain",
      "type": "event"
    },
    {
      "anonymous": false,
      "inputs": [
        {
          "indexed": false,
          "internalType": "uint16",
          "name": "_srcChainId",
          "type": "uint16"
        },
        {
          "indexed": false,
          "internalType": "bytes",
          "name": "_srcAddress",
          "type": "bytes"
        },
        {
          "indexed": false,
          "internalType": "uint64",
          "name": "_nonce",
          "type": "uint64"
        },
        {
          "indexed": false,
          "internalType": "bytes32",
          "name": "_payloadHash",
          "type": "bytes32"
        }
      ],
      "name": "RetryMessageSuccess",
      "type": "event"
    },
    {
      "anonymous": false,
      "inputs": [
        {
          "indexed": true,
          "internalType": "uint16",
          "name": "_dstChainId",
          "type": "uint16"
        },
        {
          "indexed": true,
          "internalType": "address",
          "name": "_from",
          "type": "address"
        },
        {
          "indexed": true,
          "internalType": "bytes",
          "name": "_toAddress",
          "type": "bytes"
        },
        {
          "indexed": false,
          "internalType": "uint256[]",
          "name": "_tokenIds",
          "type": "uint256[]"
        }
      ],
      "name": "SendToChain",
      "type": "event"
    },
    {
      "anonymous": false,
      "inputs": [
        {
          "indexed": false,
          "internalType": "uint16",
          "name": "_dstChainId",
          "type": "uint16"
        },
        {
          "indexed": false,
          "internalType": "uint256",
          "name": "_dstChainIdToBatchLimit",
          "type": "uint256"
        }
      ],
      "name": "SetDstChainIdToBatchLimit",
      "type": "event"
    },
    {
      "anonymous": false,
      "inputs": [
        {
          "indexed": false,
          "internalType": "uint16",
          "name": "_dstChainId",
          "type": "uint16"
        },
        {
          "indexed": false,
          "internalType": "uint256",
          "name": "_dstChainIdToTransferGas",
          "type": "uint256"
        }
      ],
      "name": "SetDstChainIdToTransferGas",
      "type": "event"
    },
    {
      "anonymous": false,
      "inputs": [
        {
          "indexed": false,
          "internalType": "uint16",
          "name": "_dstChainId",
          "type": "uint16"
        },
        {
          "indexed": false,
          "internalType": "uint16",
          "name": "_type",
          "type": "uint16"
        },
        {
          "indexed": false,
          "internalType": "uint256",
          "name": "_minDstGas",
          "type": "uint256"
        }
      ],
      "name": "SetMinDstGas",
      "type": "event"
    },
    {
      "anonymous": false,
      "inputs": [
        {
          "indexed": false,
          "internalType": "uint256",
          "name": "_minGasToTransferAndStore",
          "type": "uint256"
        }
      ],
      "name": "SetMinGasToTransferAndStore",
      "type": "event"
    },
    {
      "anonymous": false,
      "inputs": [
        {
          "indexed": false,
          "internalType": "address",
          "name": "precrime",
          "type": "address"
        }
      ],
      "name": "SetPrecrime",
      "type": "event"
    },
    {
      "anonymous": false,
      "inputs": [
        {
          "indexed": false,
          "internalType": "uint16",
          "name": "_remoteChainId",
          "type": "uint16"
        },
        {
          "indexed": false,
          "internalType": "bytes",
          "name": "_path",
          "type": "bytes"
        }
      ],
      "name": "SetTrustedRemote",
      "type": "event"
    },
    {
      "anonymous": false,
      "inputs": [
        {
          "indexed": false,
          "internalType": "uint16",
          "name": "_remoteChainId",
          "type": "uint16"
        },
        {
          "indexed": false,
          "internalType": "bytes",
          "name": "_remoteAddress",
          "type": "bytes"
        }
      ],
      "name": "SetTrustedRemoteAddress",
      "type": "event"
    },
    {
      "anonymous": false,
      "inputs": [
        {
          "indexed": true,
          "internalType": "address",
          "name": "from",
          "type": "address"
        },
        {
          "indexed": true,
          "internalType": "address",
          "name": "to",
          "type": "address"
        },
        {
          "indexed": true,
          "internalType": "uint256",
          "name": "tokenId",
          "type": "uint256"
        }
      ],
      "name": "Transfer",
      "type": "event"
    },
    {
      "inputs": [],
      "name": "DEFAULT_PAYLOAD_SIZE_LIMIT",
      "outputs": [
        {
          "internalType": "uint256",
          "name": "",
          "type": "uint256"
        }
      ],
      "stateMutability": "view",
      "type": "function"
    },
    {
      "inputs": [],
      "name": "FUNCTION_TYPE_SEND",
      "outputs": [
        {
          "internalType": "uint16",
          "name": "",
          "type": "uint16"
        }
      ],
      "stateMutability": "view",
      "type": "function"
    },
    {
      "inputs": [
        {
          "internalType": "address",
          "name": "to",
          "type": "address"
        },
        {
          "internalType": "uint256",
          "name": "tokenId",
          "type": "uint256"
        }
      ],
      "name": "approve",
      "outputs": [],
      "stateMutability": "nonpayable",
      "type": "function"
    },
    {
      "inputs": [
        {
          "internalType": "address",
          "name": "owner",
          "type": "address"
        }
      ],
      "name": "balanceOf",
      "outputs": [
        {
          "internalType": "uint256",
          "name": "",
          "type": "uint256"
        }
      ],
      "stateMutability": "view",
      "type": "function"
    },
    {
      "inputs": [
        {
          "internalType": "bytes",
          "name": "_payload",
          "type": "bytes"
        }
      ],
      "name": "clearCredits",
      "outputs": [],
      "stateMutability": "nonpayable",
      "type": "function"
    },
    {
      "inputs": [
        {
          "internalType": "uint16",
          "name": "",
          "type": "uint16"
        }
      ],
      "name": "dstChainIdToBatchLimit",
      "outputs": [
        {
          "internalType": "uint256",
          "name": "",
          "type": "uint256"
        }
      ],
      "stateMutability": "view",
      "type": "function"
    },
    {
      "inputs": [
        {
          "internalType": "uint16",
          "name": "",
          "type": "uint16"
        }
      ],
      "name": "dstChainIdToTransferGas",
      "outputs": [
        {
          "internalType": "uint256",
          "name": "",
          "type": "uint256"
        }
      ],
      "stateMutability": "view",
      "type": "function"
    },
    {
      "inputs": [
        {
          "internalType": "uint16",
          "name": "_dstChainId",
          "type": "uint16"
        },
        {
          "internalType": "bytes",
          "name": "_toAddress",
          "type": "bytes"
        },
        {
          "internalType": "uint256[]",
          "name": "_tokenIds",
          "type": "uint256[]"
        },
        {
          "internalType": "bool",
          "name": "_useZro",
          "type": "bool"
        },
        {
          "internalType": "bytes",
          "name": "_adapterParams",
          "type": "bytes"
        }
      ],
      "name": "estimateSendBatchFee",
      "outputs": [
        {
          "internalType": "uint256",
          "name": "nativeFee",
          "type": "uint256"
        },
        {
          "internalType": "uint256",
          "name": "zroFee",
          "type": "uint256"
        }
      ],
      "stateMutability": "view",
      "type": "function"
    },
    {
      "inputs": [
        {
          "internalType": "uint16",
          "name": "_dstChainId",
          "type": "uint16"
        },
        {
          "internalType": "bytes",
          "name": "_toAddress",
          "type": "bytes"
        },
        {
          "internalType": "uint256",
          "name": "_tokenId",
          "type": "uint256"
        },
        {
          "internalType": "bool",
          "name": "_useZro",
          "type": "bool"
        },
        {
          "internalType": "bytes",
          "name": "_adapterParams",
          "type": "bytes"
        }
      ],
      "name": "estimateSendFee",
      "outputs": [
        {
          "internalType": "uint256",
          "name": "nativeFee",
          "type": "uint256"
        },
        {
          "internalType": "uint256",
          "name": "zroFee",
          "type": "uint256"
        }
      ],
      "stateMutability": "view",
      "type": "function"
    },
    {
      "inputs": [
        {
          "internalType": "uint16",
          "name": "",
          "type": "uint16"
        },
        {
          "internalType": "bytes",
          "name": "",
          "type": "bytes"
        },
        {
          "internalType": "uint64",
          "name": "",
          "type": "uint64"
        }
      ],
      "name": "failedMessages",
      "outputs": [
        {
          "internalType": "bytes32",
          "name": "",
          "type": "bytes32"
        }
      ],
      "stateMutability": "view",
      "type": "function"
    },
    {
      "inputs": [
        {
          "internalType": "uint16",
          "name": "_srcChainId",
          "type": "uint16"
        },
        {
          "internalType": "bytes",
          "name": "_srcAddress",
          "type": "bytes"
        }
      ],
      "name": "forceResumeReceive",
      "outputs": [],
      "stateMutability": "nonpayable",
      "type": "function"
    },
    {
      "inputs": [
        {
          "internalType": "uint256",
          "name": "tokenId",
          "type": "uint256"
        }
      ],
      "name": "getApproved",
      "outputs": [
        {
          "internalType": "address",
          "name": "",
          "type": "address"
        }
      ],
      "stateMutability": "view",
      "type": "function"
    },
    {
      "inputs": [
        {
          "internalType": "uint16",
          "name": "_version",
          "type": "uint16"
        },
        {
          "internalType": "uint16",
          "name": "_chainId",
          "type": "uint16"
        },
        {
          "internalType": "address",
          "name": "",
          "type": "address"
        },
        {
          "internalType": "uint256",
          "name": "_configType",
          "type": "uint256"
        }
      ],
      "name": "getConfig",
      "outputs": [
        {
          "internalType": "bytes",
          "name": "",
          "type": "bytes"
        }
      ],
      "stateMutability": "view",
      "type": "function"
    },
    {
      "inputs": [
        {
          "internalType": "uint16",
          "name": "_remoteChainId",
          "type": "uint16"
        }
      ],
      "name": "getTrustedRemoteAddress",
      "outputs": [
        {
          "internalType": "bytes",
          "name": "",
          "type": "bytes"
        }
      ],
      "stateMutability": "view",
      "type": "function"
    },
    {
      "inputs": [
        {
          "internalType": "address",
          "name": "owner",
          "type": "address"
        },
        {
          "internalType": "address",
          "name": "operator",
          "type": "address"
        }
      ],
      "name": "isApprovedForAll",
      "outputs": [
        {
          "internalType": "bool",
          "name": "",
          "type": "bool"
        }
      ],
      "stateMutability": "view",
      "type": "function"
    },
    {
      "inputs": [
        {
          "internalType": "uint16",
          "name": "_srcChainId",
          "type": "uint16"
        },
        {
          "internalType": "bytes",
          "name": "_srcAddress",
          "type": "bytes"
        }
      ],
      "name": "isTrustedRemote",
      "outputs": [
        {
          "internalType": "bool",
          "name": "",
          "type": "bool"
        }
      ],
      "stateMutability": "view",
      "type": "function"
    },
    {
      "inputs": [],
      "name": "lzEndpoint",
      "outputs": [
        {
          "internalType": "contract ILayerZeroEndpoint",
          "name": "",
          "type": "address"
        }
      ],
      "stateMutability": "view",
      "type": "function"
    },
    {
      "inputs": [
        {
          "internalType": "uint16",
          "name": "_srcChainId",
          "type": "uint16"
        },
        {
          "internalType": "bytes",
          "name": "_srcAddress",
          "type": "bytes"
        },
        {
          "internalType": "uint64",
          "name": "_nonce",
          "type": "uint64"
        },
        {
          "internalType": "bytes",
          "name": "_payload",
          "type": "bytes"
        }
      ],
      "name": "lzReceive",
      "outputs": [],
      "stateMutability": "nonpayable",
      "type": "function"
    },
    {
      "inputs": [],
      "name": "maxMintId",
      "outputs": [
        {
          "internalType": "uint256",
          "name": "",
          "type": "uint256"
        }
      ],
      "stateMutability": "view",
      "type": "function"
    },
    {
      "inputs": [
        {
          "internalType": "uint16",
          "name": "",
          "type": "uint16"
        },
        {
          "internalType": "uint16",
          "name": "",
          "type": "uint16"
        }
      ],
      "name": "minDstGasLookup",
      "outputs": [
        {
          "internalType": "uint256",
          "name": "",
          "type": "uint256"
        }
      ],
      "stateMutability": "view",
      "type": "function"
    },
    {
      "inputs": [],
      "name": "minGasToTransferAndStore",
      "outputs": [
        {
          "internalType": "uint256",
          "name": "",
          "type": "uint256"
        }
      ],
      "stateMutability": "view",
      "type": "function"
    },
    {
      "inputs": [],
      "name": "mint",
      "outputs": [],
      "stateMutability": "payable",
      "type": "function"
    },
    {
      "inputs": [],
      "name": "name",
      "outputs": [
        {
          "internalType": "string",
          "name": "",
          "type": "string"
        }
      ],
      "stateMutability": "view",
      "type": "function"
    },
    {
      "inputs": [],
      "name": "nextMintId",
      "outputs": [
        {
          "internalType": "uint256",
          "name": "",
          "type": "uint256"
        }
      ],
      "stateMutability": "view",
      "type": "function"
    },
    {
      "inputs": [
        {
          "internalType": "uint16",
          "name": "_srcChainId",
          "type": "uint16"
        },
        {
          "internalType": "bytes",
          "name": "_srcAddress",
          "type": "bytes"
        },
        {
          "internalType": "uint64",
          "name": "_nonce",
          "type": "uint64"
        },
        {
          "internalType": "bytes",
          "name": "_payload",
          "type": "bytes"
        }
      ],
      "name": "nonblockingLzReceive",
      "outputs": [],
      "stateMutability": "nonpayable",
      "type": "function"
    },
    {
      "inputs": [],
      "name": "owner",
      "outputs": [
        {
          "internalType": "address",
          "name": "",
          "type": "address"
        }
      ],
      "stateMutability": "view",
      "type": "function"
    },
    {
      "inputs": [
        {
          "internalType": "uint256",
          "name": "tokenId",
          "type": "uint256"
        }
      ],
      "name": "ownerOf",
      "outputs": [
        {
          "internalType": "address",
          "name": "",
          "type": "address"
        }
      ],
      "stateMutability": "view",
      "type": "function"
    },
    {
      "inputs": [
        {
          "internalType": "uint16",
          "name": "",
          "type": "uint16"
        }
      ],
      "name": "payloadSizeLimitLookup",
      "outputs": [
        {
          "internalType": "uint256",
          "name": "",
          "type": "uint256"
        }
      ],
      "stateMutability": "view",
      "type": "function"
    },
    {
      "inputs": [],
      "name": "precrime",
      "outputs": [
        {
          "internalType": "address",
          "name": "",
          "type": "address"
        }
      ],
      "stateMutability": "view",
      "type": "function"
    },
    {
      "inputs": [],
      "name": "renounceOwnership",
      "outputs": [],
      "stateMutability": "nonpayable",
      "type": "function"
    },
    {
      "inputs": [
        {
          "internalType": "uint16",
          "name": "_srcChainId",
          "type": "uint16"
        },
        {
          "internalType": "bytes",
          "name": "_srcAddress",
          "type": "bytes"
        },
        {
          "internalType": "uint64",
          "name": "_nonce",
          "type": "uint64"
        },
        {
          "internalType": "bytes",
          "name": "_payload",
          "type": "bytes"
        }
      ],
      "name": "retryMessage",
      "outputs": [],
      "stateMutability": "payable",
      "type": "function"
    },
    {
      "inputs": [
        {
          "internalType": "address",
          "name": "from",
          "type": "address"
        },
        {
          "internalType": "address",
          "name": "to",
          "type": "address"
        },
        {
          "internalType": "uint256",
          "name": "tokenId",
          "type": "uint256"
        }
      ],
      "name": "safeTransferFrom",
      "outputs": [],
      "stateMutability": "nonpayable",
      "type": "function"
    },
    {
      "inputs": [
        {
          "internalType": "address",
          "name": "from",
          "type": "address"
        },
        {
          "internalType": "address",
          "name": "to",
          "type": "address"
        },
        {
          "internalType": "uint256",
          "name": "tokenId",
          "type": "uint256"
        },
        {
          "internalType": "bytes",
          "name": "data",
          "type": "bytes"
        }
      ],
      "name": "safeTransferFrom",
      "outputs": [],
      "stateMutability": "nonpayable",
      "type": "function"
    },
    {
      "inputs": [
        {
          "internalType": "address",
          "name": "_from",
          "type": "address"
        },
        {
          "internalType": "uint16",
          "name": "_dstChainId",
          "type": "uint16"
        },
        {
          "internalType": "bytes",
          "name": "_toAddress",
          "type": "bytes"
        },
        {
          "internalType": "uint256[]",
          "name": "_tokenIds",
          "type": "uint256[]"
        },
        {
          "internalType": "address payable",
          "name": "_refundAddress",
          "type": "address"
        },
        {
          "internalType": "address",
          "name": "_zroPaymentAddress",
          "type": "address"
        },
        {
          "internalType": "bytes",
          "name": "_adapterParams",
          "type": "bytes"
        }
      ],
      "name": "sendBatchFrom",
      "outputs": [],
      "stateMutability": "payable",
      "type": "function"
    },
    {
      "inputs": [
        {
          "internalType": "address",
          "name": "_from",
          "type": "address"
        },
        {
          "internalType": "uint16",
          "name": "_dstChainId",
          "type": "uint16"
        },
        {
          "internalType": "bytes",
          "name": "_toAddress",
          "type": "bytes"
        },
        {
          "internalType": "uint256",
          "name": "_tokenId",
          "type": "uint256"
        },
        {
          "internalType": "address payable",
          "name": "_refundAddress",
          "type": "address"
        },
        {
          "internalType": "address",
          "name": "_zroPaymentAddress",
          "type": "address"
        },
        {
          "internalType": "bytes",
          "name": "_adapterParams",
          "type": "bytes"
        }
      ],
      "name": "sendFrom",
      "outputs": [],
      "stateMutability": "payable",
      "type": "function"
    },
    {
      "inputs": [
        {
          "internalType": "address",
          "name": "operator",
          "type": "address"
        },
        {
          "internalType": "bool",
          "name": "approved",
          "type": "bool"
        }
      ],
      "name": "setApprovalForAll",
      "outputs": [],
      "stateMutability": "nonpayable",
      "type": "function"
    },
    {
      "inputs": [
        {
          "internalType": "uint16",
          "name": "_version",
          "type": "uint16"
        },
        {
          "internalType": "uint16",
          "name": "_chainId",
          "type": "uint16"
        },
        {
          "internalType": "uint256",
          "name": "_configType",
          "type": "uint256"
        },
        {
          "internalType": "bytes",
          "name": "_config",
          "type": "bytes"
        }
      ],
      "name": "setConfig",
      "outputs": [],
      "stateMutability": "nonpayable",
      "type": "function"
    },
    {
      "inputs": [
        {
          "internalType": "uint16",
          "name": "_dstChainId",
          "type": "uint16"
        },
        {
          "internalType": "uint256",
          "name": "_dstChainIdToBatchLimit",
          "type": "uint256"
        }
      ],
      "name": "setDstChainIdToBatchLimit",
      "outputs": [],
      "stateMutability": "nonpayable",
      "type": "function"
    },
    {
      "inputs": [
        {
          "internalType": "uint16",
          "name": "_dstChainId",
          "type": "uint16"
        },
        {
          "internalType": "uint256",
          "name": "_dstChainIdToTransferGas",
          "type": "uint256"
        }
      ],
      "name": "setDstChainIdToTransferGas",
      "outputs": [],
      "stateMutability": "nonpayable",
      "type": "function"
    },
    {
      "inputs": [
        {
          "internalType": "uint16",
          "name": "_dstChainId",
          "type": "uint16"
        },
        {
          "internalType": "uint16",
          "name": "_packetType",
          "type": "uint16"
        },
        {
          "internalType": "uint256",
          "name": "_minGas",
          "type": "uint256"
        }
      ],
      "name": "setMinDstGas",
      "outputs": [],
      "stateMutability": "nonpayable",
      "type": "function"
    },
    {
      "inputs": [
        {
          "internalType": "uint256",
          "name": "_minGasToTransferAndStore",
          "type": "uint256"
        }
      ],
      "name": "setMinGasToTransferAndStore",
      "outputs": [],
      "stateMutability": "nonpayable",
      "type": "function"
    },
    {
      "inputs": [
        {
          "internalType": "uint16",
          "name": "_dstChainId",
          "type": "uint16"
        },
        {
          "internalType": "uint256",
          "name": "_size",
          "type": "uint256"
        }
      ],
      "name": "setPayloadSizeLimit",
      "outputs": [],
      "stateMutability": "nonpayable",
      "type": "function"
    },
    {
      "inputs": [
        {
          "internalType": "address",
          "name": "_precrime",
          "type": "address"
        }
      ],
      "name": "setPrecrime",
      "outputs": [],
      "stateMutability": "nonpayable",
      "type": "function"
    },
    {
      "inputs": [
        {
          "internalType": "uint16",
          "name": "_version",
          "type": "uint16"
        }
      ],
      "name": "setReceiveVersion",
      "outputs": [],
      "stateMutability": "nonpayable",
      "type": "function"
    },
    {
      "inputs": [
        {
          "internalType": "uint16",
          "name": "_version",
          "type": "uint16"
        }
      ],
      "name": "setSendVersion",
      "outputs": [],
      "stateMutability": "nonpayable",
      "type": "function"
    },
    {
      "inputs": [
        {
          "internalType": "uint16",
          "name": "_remoteChainId",
          "type": "uint16"
        },
        {
          "internalType": "bytes",
          "name": "_path",
          "type": "bytes"
        }
      ],
      "name": "setTrustedRemote",
      "outputs": [],
      "stateMutability": "nonpayable",
      "type": "function"
    },
    {
      "inputs": [
        {
          "internalType": "uint16",
          "name": "_remoteChainId",
          "type": "uint16"
        },
        {
          "internalType": "bytes",
          "name": "_remoteAddress",
          "type": "bytes"
        }
      ],
      "name": "setTrustedRemoteAddress",
      "outputs": [],
      "stateMutability": "nonpayable",
      "type": "function"
    },
    {
      "inputs": [
        {
          "internalType": "bytes32",
          "name": "",
          "type": "bytes32"
        }
      ],
      "name": "storedCredits",
      "outputs": [
        {
          "internalType": "uint16",
          "name": "srcChainId",
          "type": "uint16"
        },
        {
          "internalType": "address",
          "name": "toAddress",
          "type": "address"
        },
        {
          "internalType": "uint256",
          "name": "index",
          "type": "uint256"
        },
        {
          "internalType": "bool",
          "name": "creditsRemain",
          "type": "bool"
        }
      ],
      "stateMutability": "view",
      "type": "function"
    },
    {
      "inputs": [
        {
          "internalType": "bytes4",
          "name": "interfaceId",
          "type": "bytes4"
        }
      ],
      "name": "supportsInterface",
      "outputs": [
        {
          "internalType": "bool",
          "name": "",
          "type": "bool"
        }
      ],
      "stateMutability": "view",
      "type": "function"
    },
    {
      "inputs": [],
      "name": "symbol",
      "outputs": [
        {
          "internalType": "string",
          "name": "",
          "type": "string"
        }
      ],
      "stateMutability": "view",
      "type": "function"
    },
    {
      "inputs": [
        {
          "internalType": "uint256",
          "name": "tokenId",
          "type": "uint256"
        }
      ],
      "name": "tokenURI",
      "outputs": [
        {
          "internalType": "string",
          "name": "",
          "type": "string"
        }
      ],
      "stateMutability": "view",
      "type": "function"
    },
    {
      "inputs": [
        {
          "internalType": "address",
          "name": "from",
          "type": "address"
        },
        {
          "internalType": "address",
          "name": "to",
          "type": "address"
        },
        {
          "internalType": "uint256",
          "name": "tokenId",
          "type": "uint256"
        }
      ],
      "name": "transferFrom",
      "outputs": [],
      "stateMutability": "nonpayable",
      "type": "function"
    },
    {
      "inputs": [
        {
          "internalType": "address",
          "name": "newOwner",
          "type": "address"
        }
      ],
      "name": "transferOwnership",
      "outputs": [],
      "stateMutability": "nonpayable",
      "type": "function"
    },
    {
      "inputs": [
        {
          "internalType": "uint16",
          "name": "",
          "type": "uint16"
        }
      ],
      "name": "trustedRemoteLookup",
      "outputs": [
        {
          "internalType": "bytes",
          "name": "",
          "type": "bytes"
        }
      ],
      "stateMutability": "view",
      "type": "function"
    }
  ],
  "bytecode": "0x60a06040523480156200001157600080fd5b5060405162004b3238038062004b328339810160408190526200003491620002c6565b85858585838383838080620000493362000103565b6001600160a01b031660805250600160065581620000b95760405162461bcd60e51b8152602060048201526024808201527f6d696e476173546f5472616e73666572416e6453746f7265206d7573742062656044820152630203e20360e41b606482015260840160405180910390fd5b506007558151620000d290600b90602085019062000153565b508051620000e890600c90602084019062000153565b50505060119590955550505060125550620003ac9350505050565b600080546001600160a01b038381166001600160a01b0319831681178455604051919092169283917f8be0079c531659141344cd1fd0a4f28419497f9722a3daafe3b4186f6b6457e09190a35050565b82805462000161906200036f565b90600052602060002090601f016020900481019282620001855760008555620001d0565b82601f10620001a057805160ff1916838001178555620001d0565b82800160010185558215620001d0579182015b82811115620001d0578251825591602001919060010190620001b3565b50620001de929150620001e2565b5090565b5b80821115620001de5760008155600101620001e3565b634e487b7160e01b600052604160045260246000fd5b600082601f8301126200022157600080fd5b81516001600160401b03808211156200023e576200023e620001f9565b604051601f8301601f19908116603f01168101908282118183101715620002695762000269620001f9565b816040528381526020925086838588010111156200028657600080fd5b600091505b83821015620002aa57858201830151818301840152908201906200028b565b83821115620002bc5760008385830101525b9695505050505050565b60008060008060008060c08789031215620002e057600080fd5b86516001600160401b0380821115620002f857600080fd5b620003068a838b016200020f565b975060208901519150808211156200031d57600080fd5b506200032c89828a016200020f565b604089015160608a0151919750955090506001600160a01b03811681146200035357600080fd5b809350506080870151915060a087015190509295509295509295565b600181811c908216806200038457607f821691505b60208210811415620003a657634e487b7160e01b600052602260045260246000fd5b50919050565b60805161473262000400600039600081816108cd01528181610ae701528181610deb015281816110700152818161128e01528181611b7301528181611ffa0152818161212d015261313901526147326000f3fe6080604052600436106103345760003560e01c80638cfd8f5c116101ab578063baf3292d116100f7578063e1d4c87011610095578063f23536411161006f578063f235364114610a57578063f2fde38b14610a77578063f5ecbdbc14610a97578063fa25f9b614610ab757600080fd5b8063e1d4c870146109d8578063e985e9c5146109ee578063eb8d72b714610a3757600080fd5b8063cbed8b9c116100d1578063cbed8b9c14610965578063d12473a514610985578063d1deba1f146109a5578063df2a5b3b146109b857600080fd5b8063baf3292d1461090f578063c44618341461092f578063c87b56dd1461094557600080fd5b80639f38369a11610164578063ab3ffb931161013e578063ab3ffb9314610880578063af3fb21c14610893578063b353aaa7146108bb578063b88d4fde146108ef57600080fd5b80639f38369a14610820578063a22cb46514610840578063a6c3d1651461086057600080fd5b80638cfd8f5c146107555780638da5cb5b1461078d5780638ffa1f2a146107ab578063950c8a74146107cb57806395d89b41146107eb5780639ea5d6b11461080057600080fd5b80633d8b38f6116102855780635b8c41e6116102235780636aa99da3116101fd5780636aa99da3146106ea57806370a0823114610700578063715018a6146107205780637533d7881461073557600080fd5b80635b8c41e61461065b5780636352211e146106aa57806366ad5c8a146106ca57600080fd5b806342d65a8d1161025f57806342d65a8d146105e557806348288190146106055780634ac3f4ff1461061b578063519056361461064857600080fd5b80633d8b38f61461056a5780633f1f4fa41461058a57806342842e0e146105c557600080fd5b80630b4cad4c116102f25780631249c58b116102cc5780631249c58b1461048a57806322a3ecf91461049257806323b872dd146105155780632a205e3d1461053557600080fd5b80630b4cad4c1461042a5780630df374831461044a57806310ddb1371461046a57600080fd5b80621d35671461033957806301ffc9a71461035b57806306fdde031461039057806307e0db17146103b2578063081812fc146103d2578063095ea7b31461040a575b600080fd5b34801561034557600080fd5b506103596103543660046137a2565b610ae4565b005b34801561036757600080fd5b5061037b61037636600461384b565b610d15565b60405190151581526020015b60405180910390f35b34801561039c57600080fd5b506103a5610d38565b60405161038791906138c0565b3480156103be57600080fd5b506103596103cd3660046138d3565b610dca565b3480156103de57600080fd5b506103f26103ed3660046138ee565b610e53565b6040516001600160a01b039091168152602001610387565b34801561041657600080fd5b50610359610425366004613927565b610e7a565b34801561043657600080fd5b506103596104453660046138ee565b610f90565b34801561045657600080fd5b50610359610465366004613953565b611030565b34801561047657600080fd5b506103596104853660046138d3565b61104f565b6103596110a7565b34801561049e57600080fd5b506104e66104ad3660046138ee565b600a6020526000908152604090208054600182015460029092015461ffff821692620100009092046001600160a01b0316919060ff1684565b6040805161ffff90951685526001600160a01b0390931660208501529183015215156060820152608001610387565b34801561052157600080fd5b5061035961053036600461396f565b611130565b34801561054157600080fd5b50610555610550366004613a83565b611162565b60408051928352602083019190915201610387565b34801561057657600080fd5b5061037b610585366004613b11565b611188565b34801561059657600080fd5b506105b76105a53660046138d3565b60036020526000908152604090205481565b604051908152602001610387565b3480156105d157600080fd5b506103596105e036600461396f565b611254565b3480156105f157600080fd5b50610359610600366004613b11565b61126f565b34801561061157600080fd5b506105b760075481565b34801561062757600080fd5b506105b76106363660046138d3565b60086020526000908152604090205481565b610359610656366004613b63565b6112f5565b34801561066757600080fd5b506105b7610676366004613c1c565b6005602090815260009384526040808520845180860184018051928152908401958401959095209452929052825290205481565b3480156106b657600080fd5b506103f26106c53660046138ee565b61130c565b3480156106d657600080fd5b506103596106e53660046137a2565b61136c565b3480156106f657600080fd5b506105b760115481565b34801561070c57600080fd5b506105b761071b366004613c79565b611448565b34801561072c57600080fd5b506103596114ce565b34801561074157600080fd5b506103a56107503660046138d3565b6114e2565b34801561076157600080fd5b506105b7610770366004613c96565b600260209081526000928352604080842090915290825290205481565b34801561079957600080fd5b506000546001600160a01b03166103f2565b3480156107b757600080fd5b506103596107c6366004613cc9565b61157c565b3480156107d757600080fd5b506004546103f2906001600160a01b031681565b3480156107f757600080fd5b506103a56117c5565b34801561080c57600080fd5b5061035961081b366004613953565b6117d4565b34801561082c57600080fd5b506103a561083b3660046138d3565b61188b565b34801561084c57600080fd5b5061035961085b366004613cfd565b6119a2565b34801561086c57600080fd5b5061035961087b366004613b11565b6119b1565b61035961088e366004613db2565b611a44565b34801561089f57600080fd5b506108a8600181565b60405161ffff9091168152602001610387565b3480156108c757600080fd5b506103f27f000000000000000000000000000000000000000000000000000000000000000081565b3480156108fb57600080fd5b5061035961090a366004613e67565b611a53565b34801561091b57600080fd5b5061035961092a366004613c79565b611a8b565b34801561093b57600080fd5b506105b761271081565b34801561095157600080fd5b506103a56109603660046138ee565b611ae1565b34801561097157600080fd5b50610359610980366004613ed2565b611b54565b34801561099157600080fd5b506103596109a0366004613953565b611be9565b6103596109b33660046137a2565b611c99565b3480156109c457600080fd5b506103596109d3366004613f40565b611eaf565b3480156109e457600080fd5b506105b760125481565b3480156109fa57600080fd5b5061037b610a09366004613f7c565b6001600160a01b03918216600090815260106020908152604080832093909416825291909152205460ff1690565b348015610a4357600080fd5b50610359610a52366004613b11565b611f61565b348015610a6357600080fd5b50610555610a72366004613fb5565b611fbb565b348015610a8357600080fd5b50610359610a92366004613c79565b612086565b348015610aa357600080fd5b506103a5610ab236600461402e565b6120fc565b348015610ac357600080fd5b506105b7610ad23660046138d3565b60096020526000908152604090205481565b337f00000000000000000000000000000000000000000000000000000000000000006001600160a01b031614610b615760405162461bcd60e51b815260206004820152601e60248201527f4c7a4170703a20696e76616c696420656e64706f696e742063616c6c6572000060448201526064015b60405180910390fd5b61ffff861660009081526001602052604081208054610b7f9061407b565b80601f0160208091040260200160405190810160405280929190818152602001828054610bab9061407b565b8015610bf85780601f10610bcd57610100808354040283529160200191610bf8565b820191906000526020600020905b815481529060010190602001808311610bdb57829003601f168201915b50505050509050805186869050148015610c13575060008151115b8015610c3b575080516020820120604051610c3190889088906140b6565b6040518091039020145b610c965760405162461bcd60e51b815260206004820152602660248201527f4c7a4170703a20696e76616c696420736f757263652073656e64696e6720636f6044820152651b9d1c9858dd60d21b6064820152608401610b58565b610d0c8787878080601f01602080910402602001604051908101604052809392919081815260200183838082843760009201919091525050604080516020601f8a018190048102820181019092528881528a9350915088908890819084018382808284376000920191909152506121af92505050565b50505050505050565b60006001600160e01b031982161580610d325750610d3282612228565b92915050565b6060600b8054610d479061407b565b80601f0160208091040260200160405190810160405280929190818152602001828054610d739061407b565b8015610dc05780601f10610d9557610100808354040283529160200191610dc0565b820191906000526020600020905b815481529060010190602001808311610da357829003601f168201915b5050505050905090565b610dd2612268565b6040516307e0db1760e01b815261ffff821660048201527f00000000000000000000000000000000000000000000000000000000000000006001600160a01b0316906307e0db17906024015b600060405180830381600087803b158015610e3857600080fd5b505af1158015610e4c573d6000803e3d6000fd5b5050505050565b6000610e5e826122c2565b506000908152600f60205260409020546001600160a01b031690565b6000610e858261130c565b9050806001600160a01b0316836001600160a01b03161415610ef35760405162461bcd60e51b815260206004820152602160248201527f4552433732313a20617070726f76616c20746f2063757272656e74206f776e656044820152603960f91b6064820152608401610b58565b336001600160a01b0382161480610f0f5750610f0f8133610a09565b610f815760405162461bcd60e51b815260206004820152603d60248201527f4552433732313a20617070726f76652063616c6c6572206973206e6f7420746f60448201527f6b656e206f776e6572206f7220617070726f76656420666f7220616c6c0000006064820152608401610b58565b610f8b8383612312565b505050565b610f98612268565b60008111610ff45760405162461bcd60e51b8152602060048201526024808201527f6d696e476173546f5472616e73666572416e6453746f7265206d7573742062656044820152630203e20360e41b6064820152608401610b58565b60078190556040518181527ffebbc4f8bb9ec2313950c718d43123124b15778efda4c1f1d529de2995b4f34d906020015b60405180910390a150565b611038612268565b61ffff909116600090815260036020526040902055565b611057612268565b6040516310ddb13760e01b815261ffff821660048201527f00000000000000000000000000000000000000000000000000000000000000006001600160a01b0316906310ddb13790602401610e1e565b601254601154111561110c5760405162461bcd60e51b815260206004820152602860248201527f556e6976657273616c4f4e46543732313a206d6178206d696e74206c696d6974604482015267081c995858da195960c21b6064820152608401610b58565b60118054908190600061111e836140dc565b919050555061112d3382612380565b50565b61113b335b8261239a565b6111575760405162461bcd60e51b8152600401610b58906140f7565b610f8b838383612418565b60008061117a87876111738861257c565b8787611fbb565b915091509550959350505050565b61ffff8316600090815260016020526040812080548291906111a99061407b565b80601f01602080910402602001604051908101604052809291908181526020018280546111d59061407b565b80156112225780601f106111f757610100808354040283529160200191611222565b820191906000526020600020905b81548152906001019060200180831161120557829003601f168201915b5050505050905083836040516112399291906140b6565b60405180910390208180519060200120149150509392505050565b610f8b83838360405180602001604052806000815250611a53565b611277612268565b6040516342d65a8d60e01b81526001600160a01b037f000000000000000000000000000000000000000000000000000000000000000016906342d65a8d906112c79086908690869060040161416d565b600060405180830381600087803b1580156112e157600080fd5b505af1158015610d0c573d6000803e3d6000fd5b610d0c8787876113048861257c565b8787876125c7565b6000818152600d60205260408120546001600160a01b031680610d325760405162461bcd60e51b8152602060048201526018602482015277115490cdcc8c4e881a5b9d985b1a59081d1bdad95b88125160421b6044820152606401610b58565b3330146113ca5760405162461bcd60e51b815260206004820152602660248201527f4e6f6e626c6f636b696e674c7a4170703a2063616c6c6572206d7573742062656044820152650204c7a4170760d41b6064820152608401610b58565b6114408686868080601f01602080910402602001604051908101604052809392919081815260200183838082843760009201919091525050604080516020601f89018190048102820181019092528781528993509150879087908190840183828082843760009201919091525061279b92505050565b505050505050565b60006001600160a01b0382166114b25760405162461bcd60e51b815260206004820152602960248201527f4552433732313a2061646472657373207a65726f206973206e6f7420612076616044820152683634b21037bbb732b960b91b6064820152608401610b58565b506001600160a01b03166000908152600e602052604090205490565b6114d6612268565b6114e060006128f2565b565b600160205260009081526040902080546114fb9061407b565b80601f01602080910402602001604051908101604052809291908181526020018280546115279061407b565b80156115745780601f1061154957610100808354040283529160200191611574565b820191906000526020600020905b81548152906001019060200180831161155757829003601f168201915b505050505081565b611584612942565b80516020808301919091206000818152600a90925260409091206002015460ff166115e55760405162461bcd60e51b81526020600482015260116024820152701b9bc818dc99591a5d1cc81cdd1bdc9959607a1b6044820152606401610b58565b6000828060200190518101906115fb91906141d0565b6000848152600a6020526040812080546001909101549294509092506116379161ffff8216916201000090046001600160a01b0316908561299c565b6000848152600a602052604090206001015490915081116116ac5760405162461bcd60e51b815260206004820152602960248201527f6e6f7420656e6f7567682067617320746f2070726f6365737320637265646974604482015268103a3930b739b332b960b91b6064820152608401610b58565b8151811415611724576000838152600a602052604080822080546001600160b01b031916815560018101929092556002909101805460ff19169055517fd7be02b8dd0d27bd0517a9cb4d7469ce27df4313821ae5ec1ff69acc594ba233906117179085815260200190565b60405180910390a16117b8565b604080516080810182526000858152600a6020818152848320805461ffff80821687526001600160a01b03620100008084048216868a019081529989018b8152600160608b01818152998f90529790965297519851169096026001600160b01b03199091169690951695909517939093178455915191830191909155516002909101805491151560ff199092169190911790555b50505061112d6001600655565b6060600c8054610d479061407b565b6117dc612268565b600081116118375760405162461bcd60e51b815260206004820152602260248201527f647374436861696e4964546f42617463684c696d6974206d757374206265203e604482015261020360f41b6064820152608401610b58565b61ffff8216600081815260086020908152604091829020849055815192835282018390527f7315f7654d594ead24a30160ed9ba2d23247f543016b918343591e93d7afdb6d91015b60405180910390a15050565b61ffff81166000908152600160205260408120805460609291906118ae9061407b565b80601f01602080910402602001604051908101604052809291908181526020018280546118da9061407b565b80156119275780601f106118fc57610100808354040283529160200191611927565b820191906000526020600020905b81548152906001019060200180831161190a57829003601f168201915b505050505090508051600014156119805760405162461bcd60e51b815260206004820152601d60248201527f4c7a4170703a206e6f20747275737465642070617468207265636f72640000006044820152606401610b58565b61199b600060148351611993919061428a565b8391906129ee565b9392505050565b6119ad338383612afb565b5050565b6119b9612268565b8181306040516020016119ce939291906142a1565b60408051601f1981840301815291815261ffff85166000908152600160209081529190208251611a039391929091019061361f565b507f8c0400cfe2d1199b1a725c78960bcc2a344d869b80590d0f2bd005db15a572ce838383604051611a379392919061416d565b60405180910390a1505050565b610d0c878787878787876125c7565b611a5d338361239a565b611a795760405162461bcd60e51b8152600401610b58906140f7565b611a8584848484612bca565b50505050565b611a93612268565b600480546001600160a01b0319166001600160a01b0383169081179091556040519081527f5db758e995a17ec1ad84bdef7e8c3293a0bd6179bcce400dff5d4c3d87db726b90602001611025565b6060611aec826122c2565b6000611b0360408051602081019091526000815290565b90506000815111611b23576040518060200160405280600081525061199b565b80611b2d84612bfd565b604051602001611b3e9291906142c7565b6040516020818303038152906040529392505050565b611b5c612268565b6040516332fb62e760e21b81526001600160a01b037f0000000000000000000000000000000000000000000000000000000000000000169063cbed8b9c90611bb090889088908890889088906004016142f6565b600060405180830381600087803b158015611bca57600080fd5b505af1158015611bde573d6000803e3d6000fd5b505050505050505050565b611bf1612268565b60008111611c4d5760405162461bcd60e51b815260206004820152602360248201527f647374436861696e4964546f5472616e73666572476173206d7573742062652060448201526203e20360ec1b6064820152608401610b58565b61ffff8216600081815260096020908152604091829020849055815192835282018390527fc46df2983228ac2d9754e94a0d565e6671665dc8ad38602bc8e544f0685a29fb910161187f565b61ffff86166000908152600560205260408082209051611cbc90889088906140b6565b90815260408051602092819003830190206001600160401b03871660009081529252902054905080611d3c5760405162461bcd60e51b815260206004820152602360248201527f4e6f6e626c6f636b696e674c7a4170703a206e6f2073746f726564206d65737360448201526261676560e81b6064820152608401610b58565b808383604051611d4d9291906140b6565b604051809103902014611dac5760405162461bcd60e51b815260206004820152602160248201527f4e6f6e626c6f636b696e674c7a4170703a20696e76616c6964207061796c6f616044820152601960fa1b6064820152608401610b58565b61ffff87166000908152600560205260408082209051611dcf90899089906140b6565b90815260408051602092819003830181206001600160401b038916600090815290845282902093909355601f88018290048202830182019052868252611e67918991899089908190840183828082843760009201919091525050604080516020601f8a018190048102820181019092528881528a93509150889088908190840183828082843760009201919091525061279b92505050565b7fc264d91f3adc5588250e1551f547752ca0cfa8f6b530d243b9f9f4cab10ea8e58787878785604051611e9e95949392919061432f565b60405180910390a150505050505050565b611eb7612268565b60008111611eff5760405162461bcd60e51b81526020600482015260156024820152744c7a4170703a20696e76616c6964206d696e47617360581b6044820152606401610b58565b61ffff83811660008181526002602090815260408083209487168084529482529182902085905581519283528201929092529081018290527f9d5c7c0b934da8fefa9c7760c98383778a12dfbfc0c3b3106518f43fb9508ac090606001611a37565b611f69612268565b61ffff83166000908152600160205260409020611f879083836136a3565b507ffa41487ad5d6728f0b19276fa1eddc16558578f5109fc39d2dc33c3230470dab838383604051611a379392919061416d565b60008060008686604051602001611fd39291906143a5565b60408051601f198184030181529082905263040a7bb160e41b825291506001600160a01b037f000000000000000000000000000000000000000000000000000000000000000016906340a7bb1090612037908b90309086908b908b906004016143d3565b6040805180830381865afa158015612053573d6000803e3d6000fd5b505050506040513d601f19601f820116820180604052508101906120779190614427565b92509250509550959350505050565b61208e612268565b6001600160a01b0381166120f35760405162461bcd60e51b815260206004820152602660248201527f4f776e61626c653a206e6577206f776e657220697320746865207a65726f206160448201526564647265737360d01b6064820152608401610b58565b61112d816128f2565b604051633d7b2f6f60e21b815261ffff808616600483015284166024820152306044820152606481018290526060907f00000000000000000000000000000000000000000000000000000000000000006001600160a01b03169063f5ecbdbc90608401600060405180830381865afa15801561217c573d6000803e3d6000fd5b505050506040513d6000823e601f3d908101601f191682016040526121a4919081019061444b565b90505b949350505050565b6000806122125a60966366ad5c8a60e01b898989896040516024016121d7949392919061447f565b60408051601f198184030181529190526020810180516001600160e01b03166001600160e01b03199093169290921790915230929190612c99565b9150915081611440576114408686868685612d23565b60006001600160e01b031982166380ac58cd60e01b148061225957506001600160e01b03198216635b5e139f60e01b145b80610d325750610d3282612dc0565b6000546001600160a01b031633146114e05760405162461bcd60e51b815260206004820181905260248201527f4f776e61626c653a2063616c6c6572206973206e6f7420746865206f776e65726044820152606401610b58565b6122cb81612df5565b61112d5760405162461bcd60e51b8152602060048201526018602482015277115490cdcc8c4e881a5b9d985b1a59081d1bdad95b88125160421b6044820152606401610b58565b6000818152600f6020526040902080546001600160a01b0319166001600160a01b03841690811790915581906123478261130c565b6001600160a01b03167f8c5be1e5ebec7d5bd14f71427d1e84f3dd0314c0f7b2291e5b200ac8c7c3b92560405160405180910390a45050565b6119ad828260405180602001604052806000815250612e12565b6000806123a68361130c565b9050806001600160a01b0316846001600160a01b031614806123ed57506001600160a01b0380821660009081526010602090815260408083209388168352929052205460ff165b806121a75750836001600160a01b031661240684610e53565b6001600160a01b031614949350505050565b826001600160a01b031661242b8261130c565b6001600160a01b0316146124515760405162461bcd60e51b8152600401610b58906144bd565b6001600160a01b0382166124b35760405162461bcd60e51b8152602060048201526024808201527f4552433732313a207472616e7366657220746f20746865207a65726f206164646044820152637265737360e01b6064820152608401610b58565b826001600160a01b03166124c68261130c565b6001600160a01b0316146124ec5760405162461bcd60e51b8152600401610b58906144bd565b6000818152600f6020908152604080832080546001600160a01b03199081169091556001600160a01b03878116808652600e8552838620805460001901905590871680865283862080546001019055868652600d90945282852080549092168417909155905184937fddf252ad1be2c89b69c2b068fc378daa952ba7f163c4a11628f55a4df523b3ef91a4505050565b604080516001808252818301909252606091600091906020808301908036833701905050905082816000815181106125b6576125b6614502565b602090810291909101015292915050565b600084511161260e5760405162461bcd60e51b8152602060048201526013602482015272746f6b656e4964735b5d20697320656d70747960681b6044820152606401610b58565b835160011480612632575061ffff8616600090815260086020526040902054845111155b6126895760405162461bcd60e51b815260206004820152602260248201527f62617463682073697a65206578636565647320647374206261746368206c696d6044820152611a5d60f21b6064820152608401610b58565b60005b84518110156126cc576126ba8888888885815181106126ad576126ad614502565b6020026020010151612e45565b806126c4816140dc565b91505061268c565b50600085856040516020016126e29291906143a5565b6040516020818303038152906040529050612727876001848851600960008d61ffff1661ffff168152602001908152602001600020546127229190614518565b612f30565b61273587828686863461300f565b856040516127439190614537565b6040518091039020886001600160a01b03168861ffff167fe1b87c47fdeb4f9cbadbca9df3af7aba453bb6e501075d0440d88125b711522a886040516127899190614553565b60405180910390a45050505050505050565b600080828060200190518101906127b291906141d0565b6014820151919350915060006127ca8883838661299c565b9050825181101561289e5784516020808701919091206040805160808101825261ffff808d1682526001600160a01b038088168387019081528385018881526001606086018181526000898152600a909a529887902095518654935190941662010000026001600160b01b03199093169390941692909217178355519082015592516002909301805493151560ff199094169390931790925590517f10e0b70d256bccc84b7027506978bd8b68984a870788b93b479def144c839ad7906128949083908990614566565b60405180910390a1505b816001600160a01b0316876040516128b69190614537565b60405180910390208961ffff167f5b821db8a46f8ecbe1941ba2f51cfeea9643268b56631f70d45e2a745d990265866040516127899190614553565b600080546001600160a01b038381166001600160a01b0319831681178455604051919092169283917f8be0079c531659141344cd1fd0a4f28419497f9722a3daafe3b4186f6b6457e09190a35050565b600260065414156129955760405162461bcd60e51b815260206004820152601f60248201527f5265656e7472616e637947756172643a207265656e7472616e742063616c6c006044820152606401610b58565b6002600655565b6000825b82518110156121a4576007545a10156129b8576121a4565b6129dc86868584815181106129cf576129cf614502565b60200260200101516131b5565b806129e6816140dc565b9150506129a0565b6060816129fc81601f61457f565b1015612a3b5760405162461bcd60e51b815260206004820152600e60248201526d736c6963655f6f766572666c6f7760901b6044820152606401610b58565b612a45828461457f565b84511015612a895760405162461bcd60e51b8152602060048201526011602482015270736c6963655f6f75744f66426f756e647360781b6044820152606401610b58565b606082158015612aa85760405191506000825260208201604052612af2565b6040519150601f8416801560200281840101858101878315602002848b0101015b81831015612ae1578051835260209283019201612ac9565b5050858452601f01601f1916604052505b50949350505050565b816001600160a01b0316836001600160a01b03161415612b5d5760405162461bcd60e51b815260206004820152601960248201527f4552433732313a20617070726f766520746f2063616c6c6572000000000000006044820152606401610b58565b6001600160a01b03838116600081815260106020908152604080832094871680845294825291829020805460ff191686151590811790915591519182527f17307eab39ab6107e8899845ad3d59bd9653f200f220920489ca2b5937696c31910160405180910390a3505050565b612bd5848484612418565b612be184848484613215565b611a855760405162461bcd60e51b8152600401610b5890614597565b60606000612c0a83613310565b60010190506000816001600160401b03811115612c2957612c296139b0565b6040519080825280601f01601f191660200182016040528015612c53576020820181803683370190505b5090508181016020015b600019016f181899199a1a9b1b9c1cb0b131b232b360811b600a86061a8153600a8504945084612c8c57612c91565b612c5d565b509392505050565b6000606060008060008661ffff166001600160401b03811115612cbe57612cbe6139b0565b6040519080825280601f01601f191660200182016040528015612ce8576020820181803683370190505b50905060008087516020890160008d8df191503d925086831115612d0a578692505b828152826000602083013e909890975095505050505050565b8180519060200120600560008761ffff1661ffff16815260200190815260200160002085604051612d549190614537565b9081526040805191829003602090810183206001600160401b0388166000908152915220919091557fe183f33de2837795525b4792ca4cd60535bd77c53b7e7030060bfcf5734d6b0c90612db190879087908790879087906145e9565b60405180910390a15050505050565b60006001600160e01b031982166322bac5d960e01b1480610d3257506301ffc9a760e01b6001600160e01b0319831614610d32565b6000908152600d60205260409020546001600160a01b0316151590565b612e1c83836133e8565b612e296000848484613215565b610f8b5760405162461bcd60e51b8152600401610b5890614597565b612e4e33611135565b612eb15760405162461bcd60e51b815260206004820152602e60248201527f4f4e46543732313a2073656e642063616c6c6572206973206e6f74206f776e6560448201526d1c881b9bdc88185c1c1c9bdd995960921b6064820152608401610b58565b836001600160a01b0316612ec48261130c565b6001600160a01b031614612f255760405162461bcd60e51b815260206004820152602260248201527f4f4e46543732313a2073656e642066726f6d20696e636f7272656374206f776e60448201526132b960f11b6064820152608401610b58565b611a85843083612418565b6000612f3b83613555565b61ffff808716600090815260026020908152604080832093891683529290529081205491925090612f6d90849061457f565b905060008111612fbf5760405162461bcd60e51b815260206004820152601a60248201527f4c7a4170703a206d696e4761734c696d6974206e6f74207365740000000000006044820152606401610b58565b808210156114405760405162461bcd60e51b815260206004820152601b60248201527f4c7a4170703a20676173206c696d697420697320746f6f206c6f7700000000006044820152606401610b58565b61ffff86166000908152600160205260408120805461302d9061407b565b80601f01602080910402602001604051908101604052809291908181526020018280546130599061407b565b80156130a65780601f1061307b576101008083540402835291602001916130a6565b820191906000526020600020905b81548152906001019060200180831161308957829003601f168201915b505050505090508051600014156131185760405162461bcd60e51b815260206004820152603060248201527f4c7a4170703a2064657374696e6174696f6e20636861696e206973206e6f742060448201526f61207472757374656420736f7572636560801b6064820152608401610b58565b6131238787516135b1565b60405162c5803160e81b81526001600160a01b037f0000000000000000000000000000000000000000000000000000000000000000169063c580310090849061317a908b9086908c908c908c908c9060040161463b565b6000604051808303818588803b15801561319357600080fd5b505af11580156131a7573d6000803e3d6000fd5b505050505050505050505050565b6131be81612df5565b15806131ea57506131ce81612df5565b80156131ea5750306131df8261130c565b6001600160a01b0316145b6131f357600080fd5b6131fc81612df5565b61320a57610f8b8282612380565b610f8b308383612418565b60006001600160a01b0384163b1561330857604051630a85bd0160e11b81526001600160a01b0385169063150b7a02906132599033908990889088906004016146a2565b6020604051808303816000875af1925050508015613294575060408051601f3d908101601f19168201909252613291918101906146df565b60015b6132ee573d8080156132c2576040519150601f19603f3d011682016040523d82523d6000602084013e6132c7565b606091505b5080516132e65760405162461bcd60e51b8152600401610b5890614597565b805181602001fd5b6001600160e01b031916630a85bd0160e11b1490506121a7565b5060016121a7565b60008072184f03e93ff9f4daa797ed6e38ed64bf6a1f0160401b831061334f5772184f03e93ff9f4daa797ed6e38ed64bf6a1f0160401b830492506040015b6d04ee2d6d415b85acef8100000000831061337b576d04ee2d6d415b85acef8100000000830492506020015b662386f26fc10000831061339957662386f26fc10000830492506010015b6305f5e10083106133b1576305f5e100830492506008015b61271083106133c557612710830492506004015b606483106133d7576064830492506002015b600a8310610d325760010192915050565b6001600160a01b03821661343e5760405162461bcd60e51b815260206004820181905260248201527f4552433732313a206d696e7420746f20746865207a65726f20616464726573736044820152606401610b58565b61344781612df5565b156134945760405162461bcd60e51b815260206004820152601c60248201527f4552433732313a20746f6b656e20616c7265616479206d696e746564000000006044820152606401610b58565b61349d81612df5565b156134ea5760405162461bcd60e51b815260206004820152601c60248201527f4552433732313a20746f6b656e20616c7265616479206d696e746564000000006044820152606401610b58565b6001600160a01b0382166000818152600e6020908152604080832080546001019055848352600d90915280822080546001600160a01b0319168417905551839291907fddf252ad1be2c89b69c2b068fc378daa952ba7f163c4a11628f55a4df523b3ef908290a45050565b60006022825110156135a95760405162461bcd60e51b815260206004820152601c60248201527f4c7a4170703a20696e76616c69642061646170746572506172616d73000000006044820152606401610b58565b506022015190565b61ffff8216600090815260036020526040902054806135cf57506127105b80821115610f8b5760405162461bcd60e51b815260206004820181905260248201527f4c7a4170703a207061796c6f61642073697a6520697320746f6f206c617267656044820152606401610b58565b82805461362b9061407b565b90600052602060002090601f01602090048101928261364d5760008555613693565b82601f1061366657805160ff1916838001178555613693565b82800160010185558215613693579182015b82811115613693578251825591602001919060010190613678565b5061369f929150613717565b5090565b8280546136af9061407b565b90600052602060002090601f0160209004810192826136d15760008555613693565b82601f106136ea5782800160ff19823516178555613693565b82800160010185558215613693579182015b828111156136935782358255916020019190600101906136fc565b5b8082111561369f5760008155600101613718565b803561ffff8116811461373e57600080fd5b919050565b60008083601f84011261375557600080fd5b5081356001600160401b0381111561376c57600080fd5b60208301915083602082850101111561378457600080fd5b9250929050565b80356001600160401b038116811461373e57600080fd5b600080600080600080608087890312156137bb57600080fd5b6137c48761372c565b955060208701356001600160401b03808211156137e057600080fd5b6137ec8a838b01613743565b909750955085915061380060408a0161378b565b9450606089013591508082111561381657600080fd5b5061382389828a01613743565b979a9699509497509295939492505050565b6001600160e01b03198116811461112d57600080fd5b60006020828403121561385d57600080fd5b813561199b81613835565b60005b8381101561388357818101518382015260200161386b565b83811115611a855750506000910152565b600081518084526138ac816020860160208601613868565b601f01601f19169290920160200192915050565b60208152600061199b6020830184613894565b6000602082840312156138e557600080fd5b61199b8261372c565b60006020828403121561390057600080fd5b5035919050565b6001600160a01b038116811461112d57600080fd5b803561373e81613907565b6000806040838503121561393a57600080fd5b823561394581613907565b946020939093013593505050565b6000806040838503121561396657600080fd5b6139458361372c565b60008060006060848603121561398457600080fd5b833561398f81613907565b9250602084013561399f81613907565b929592945050506040919091013590565b634e487b7160e01b600052604160045260246000fd5b604051601f8201601f191681016001600160401b03811182821017156139ee576139ee6139b0565b604052919050565b60006001600160401b03821115613a0f57613a0f6139b0565b50601f01601f191660200190565b600082601f830112613a2e57600080fd5b8135613a41613a3c826139f6565b6139c6565b818152846020838601011115613a5657600080fd5b816020850160208301376000918101602001919091529392505050565b8035801515811461373e57600080fd5b600080600080600060a08688031215613a9b57600080fd5b613aa48661372c565b945060208601356001600160401b0380821115613ac057600080fd5b613acc89838a01613a1d565b955060408801359450613ae160608901613a73565b93506080880135915080821115613af757600080fd5b50613b0488828901613a1d565b9150509295509295909350565b600080600060408486031215613b2657600080fd5b613b2f8461372c565b925060208401356001600160401b03811115613b4a57600080fd5b613b5686828701613743565b9497909650939450505050565b600080600080600080600060e0888a031215613b7e57600080fd5b8735613b8981613907565b9650613b976020890161372c565b955060408801356001600160401b0380821115613bb357600080fd5b613bbf8b838c01613a1d565b965060608a0135955060808a01359150613bd882613907565b90935060a089013590613bea82613907565b90925060c08901359080821115613c0057600080fd5b50613c0d8a828b01613a1d565b91505092959891949750929550565b600080600060608486031215613c3157600080fd5b613c3a8461372c565b925060208401356001600160401b03811115613c5557600080fd5b613c6186828701613a1d565b925050613c706040850161378b565b90509250925092565b600060208284031215613c8b57600080fd5b813561199b81613907565b60008060408385031215613ca957600080fd5b613cb28361372c565b9150613cc06020840161372c565b90509250929050565b600060208284031215613cdb57600080fd5b81356001600160401b03811115613cf157600080fd5b6121a784828501613a1d565b60008060408385031215613d1057600080fd5b8235613d1b81613907565b9150613cc060208401613a73565b60006001600160401b03821115613d4257613d426139b0565b5060051b60200190565b600082601f830112613d5d57600080fd5b81356020613d6d613a3c83613d29565b82815260059290921b84018101918181019086841115613d8c57600080fd5b8286015b84811015613da75780358352918301918301613d90565b509695505050505050565b600080600080600080600060e0888a031215613dcd57600080fd5b8735613dd881613907565b9650613de66020890161372c565b955060408801356001600160401b0380821115613e0257600080fd5b613e0e8b838c01613a1d565b965060608a0135915080821115613e2457600080fd5b613e308b838c01613d4c565b955060808a01359150613e4282613907565b819450613e5160a08b0161391c565b935060c08a0135915080821115613c0057600080fd5b60008060008060808587031215613e7d57600080fd5b8435613e8881613907565b93506020850135613e9881613907565b92506040850135915060608501356001600160401b03811115613eba57600080fd5b613ec687828801613a1d565b91505092959194509250565b600080600080600060808688031215613eea57600080fd5b613ef38661372c565b9450613f016020870161372c565b93506040860135925060608601356001600160401b03811115613f2357600080fd5b613f2f88828901613743565b969995985093965092949392505050565b600080600060608486031215613f5557600080fd5b613f5e8461372c565b9250613f6c6020850161372c565b9150604084013590509250925092565b60008060408385031215613f8f57600080fd5b8235613f9a81613907565b91506020830135613faa81613907565b809150509250929050565b600080600080600060a08688031215613fcd57600080fd5b613fd68661372c565b945060208601356001600160401b0380821115613ff257600080fd5b613ffe89838a01613a1d565b9550604088013591508082111561401457600080fd5b61402089838a01613d4c565b9450613ae160608901613a73565b6000806000806080858703121561404457600080fd5b61404d8561372c565b935061405b6020860161372c565b9250604085013561406b81613907565b9396929550929360600135925050565b600181811c9082168061408f57607f821691505b602082108114156140b057634e487b7160e01b600052602260045260246000fd5b50919050565b8183823760009101908152919050565b634e487b7160e01b600052601160045260246000fd5b60006000198214156140f0576140f06140c6565b5060010190565b6020808252602d908201527f4552433732313a2063616c6c6572206973206e6f7420746f6b656e206f776e6560408201526c1c881bdc88185c1c1c9bdd9959609a1b606082015260800190565b81835281816020850137506000828201602090810191909152601f909101601f19169091010190565b61ffff841681526040602082015260006121a4604083018486614144565b600082601f83011261419c57600080fd5b81516141aa613a3c826139f6565b8181528460208386010111156141bf57600080fd5b6121a7826020830160208701613868565b600080604083850312156141e357600080fd5b82516001600160401b03808211156141fa57600080fd5b6142068683870161418b565b935060209150818501518181111561421d57600080fd5b85019050601f8101861361423057600080fd5b805161423e613a3c82613d29565b81815260059190911b8201830190838101908883111561425d57600080fd5b928401925b8284101561427b57835182529284019290840190614262565b80955050505050509250929050565b60008282101561429c5761429c6140c6565b500390565b8284823760609190911b6bffffffffffffffffffffffff19169101908152601401919050565b600083516142d9818460208801613868565b8351908301906142ed818360208801613868565b01949350505050565b600061ffff808816835280871660208401525084604083015260806060830152614324608083018486614144565b979650505050505050565b61ffff8616815260806020820152600061434d608083018688614144565b6001600160401b0394909416604083015250606001529392505050565b600081518084526020808501945080840160005b8381101561439a5781518752958201959082019060010161437e565b509495945050505050565b6040815260006143b86040830185613894565b82810360208401526143ca818561436a565b95945050505050565b61ffff861681526001600160a01b038516602082015260a06040820181905260009061440190830186613894565b8415156060840152828103608084015261441b8185613894565b98975050505050505050565b6000806040838503121561443a57600080fd5b505080516020909101519092909150565b60006020828403121561445d57600080fd5b81516001600160401b0381111561447357600080fd5b6121a78482850161418b565b61ffff8516815260806020820152600061449c6080830186613894565b6001600160401b038516604084015282810360608401526143248185613894565b60208082526025908201527f4552433732313a207472616e736665722066726f6d20696e636f72726563742060408201526437bbb732b960d91b606082015260800190565b634e487b7160e01b600052603260045260246000fd5b6000816000190483118215151615614532576145326140c6565b500290565b60008251614549818460208701613868565b9190910192915050565b60208152600061199b602083018461436a565b8281526040602082015260006121a76040830184613894565b60008219821115614592576145926140c6565b500190565b60208082526032908201527f4552433732313a207472616e7366657220746f206e6f6e20455243373231526560408201527131b2b4bb32b91034b6b83632b6b2b73a32b960711b606082015260800190565b61ffff8616815260a06020820152600061460660a0830187613894565b6001600160401b038616604084015282810360608401526146278186613894565b9050828103608084015261441b8185613894565b61ffff8716815260c06020820152600061465860c0830188613894565b828103604084015261466a8188613894565b6001600160a01b0387811660608601528616608085015283810360a085015290506146958185613894565b9998505050505050505050565b6001600160a01b03858116825284166020820152604081018390526080606082018190526000906146d590830184613894565b9695505050505050565b6000602082840312156146f157600080fd5b815161199b8161383556fea26469706673582212202986ef37f4f846fa3c8fb73329b1e7ed8c1d5e96dadd127e3692ac06b9d0f43964736f6c634300080c0033",
  "linkReferences": {},
  "deployedLinkReferences": {}
}