{
  "_format": "hh-sol-artifact-1",
  "contractName": "ONFT1155Upgradeable",
  "sourceName": "contracts/contracts-upgradable/token/onft/ERC1155/ONFT1155Upgradable.sol",
  "abi": [
    {
      "anonymous": false,
      "inputs": [
        {
          "indexed": true,
          "internalType": "address",
          "name": "account",
          "type": "address"
        },
        {
          "indexed": true,
          "internalType": "address",
          "name": "operator",
          "type": "address"
        },
        {
          "indexed": false,
          "internalType": "bool",
          "name": "approved",
          "type": "bool"
        }
      ],
      "name": "ApprovalForAll",
      "type": "event"
    },
    {
      "anonymous": false,
      "inputs": [
        {
          "indexed": false,
          "internalType": "uint8",
          "name": "version",
          "type": "uint8"
        }
      ],
      "name": "Initialized",
      "type": "event"
    },
    {
      "anonymous": false,
      "inputs": [
        {
          "indexed": false,
          "internalType": "uint16",
          "name": "_srcChainId",
          "type": "uint16"
        },
        {
          "indexed": false,
          "internalType": "bytes",
          "name": "_srcAddress",
          "type": "bytes"
        },
        {
          "indexed": false,
          "internalType": "uint64",
          "name": "_nonce",
          "type": "uint64"
        },
        {
          "indexed": false,
          "internalType": "bytes",
          "name": "_payload",
          "type": "bytes"
        },
        {
          "indexed": false,
          "internalType": "bytes",
          "name": "_reason",
          "type": "bytes"
        }
      ],
      "name": "MessageFailed",
      "type": "event"
    },
    {
      "anonymous": false,
      "inputs": [
        {
          "indexed": true,
          "internalType": "address",
          "name": "previousOwner",
          "type": "address"
        },
        {
          "indexed": true,
          "internalType": "address",
          "name": "newOwner",
          "type": "address"
        }
      ],
      "name": "OwnershipTransferred",
      "type": "event"
    },
    {
      "anonymous": false,
      "inputs": [
        {
          "indexed": true,
          "internalType": "uint16",
          "name": "_srcChainId",
          "type": "uint16"
        },
        {
          "indexed": true,
          "internalType": "bytes",
          "name": "_srcAddress",
          "type": "bytes"
        },
        {
          "indexed": true,
          "internalType": "address",
          "name": "_toAddress",
          "type": "address"
        },
        {
          "indexed": false,
          "internalType": "uint256[]",
          "name": "_tokenIds",
          "type": "uint256[]"
        },
        {
          "indexed": false,
          "internalType": "uint256[]",
          "name": "_amounts",
          "type": "uint256[]"
        }
      ],
      "name": "ReceiveBatchFromChain",
      "type": "event"
    },
    {
      "anonymous": false,
      "inputs": [
        {
          "indexed": true,
          "internalType": "uint16",
          "name": "_srcChainId",
          "type": "uint16"
        },
        {
          "indexed": true,
          "internalType": "bytes",
          "name": "_srcAddress",
          "type": "bytes"
        },
        {
          "indexed": true,
          "internalType": "address",
          "name": "_toAddress",
          "type": "address"
        },
        {
          "indexed": false,
          "internalType": "uint256",
          "name": "_tokenId",
          "type": "uint256"
        },
        {
          "indexed": false,
          "internalType": "uint256",
          "name": "_amount",
          "type": "uint256"
        }
      ],
      "name": "ReceiveFromChain",
      "type": "event"
    },
    {
      "anonymous": false,
      "inputs": [
        {
          "indexed": false,
          "internalType": "uint16",
          "name": "_srcChainId",
          "type": "uint16"
        },
        {
          "indexed": false,
          "internalType": "bytes",
          "name": "_srcAddress",
          "type": "bytes"
        },
        {
          "indexed": false,
          "internalType": "uint64",
          "name": "_nonce",
          "type": "uint64"
        },
        {
          "indexed": false,
          "internalType": "bytes32",
          "name": "_payloadHash",
          "type": "bytes32"
        }
      ],
      "name": "RetryMessageSuccess",
      "type": "event"
    },
    {
      "anonymous": false,
      "inputs": [
        {
          "indexed": true,
          "internalType": "uint16",
          "name": "_dstChainId",
          "type": "uint16"
        },
        {
          "indexed": true,
          "internalType": "address",
          "name": "_from",
          "type": "address"
        },
        {
          "indexed": true,
          "internalType": "bytes",
          "name": "_toAddress",
          "type": "bytes"
        },
        {
          "indexed": false,
          "internalType": "uint256[]",
          "name": "_tokenIds",
          "type": "uint256[]"
        },
        {
          "indexed": false,
          "internalType": "uint256[]",
          "name": "_amounts",
          "type": "uint256[]"
        }
      ],
      "name": "SendBatchToChain",
      "type": "event"
    },
    {
      "anonymous": false,
      "inputs": [
        {
          "indexed": true,
          "internalType": "uint16",
          "name": "_dstChainId",
          "type": "uint16"
        },
        {
          "indexed": true,
          "internalType": "address",
          "name": "_from",
          "type": "address"
        },
        {
          "indexed": true,
          "internalType": "bytes",
          "name": "_toAddress",
          "type": "bytes"
        },
        {
          "indexed": false,
          "internalType": "uint256",
          "name": "_tokenId",
          "type": "uint256"
        },
        {
          "indexed": false,
          "internalType": "uint256",
          "name": "_amount",
          "type": "uint256"
        }
      ],
      "name": "SendToChain",
      "type": "event"
    },
    {
      "anonymous": false,
      "inputs": [
        {
          "indexed": false,
          "internalType": "uint16",
          "name": "_dstChainId",
          "type": "uint16"
        },
        {
          "indexed": false,
          "internalType": "uint16",
          "name": "_type",
          "type": "uint16"
        },
        {
          "indexed": false,
          "internalType": "uint256",
          "name": "_minDstGas",
          "type": "uint256"
        }
      ],
      "name": "SetMinDstGas",
      "type": "event"
    },
    {
      "anonymous": false,
      "inputs": [
        {
          "indexed": false,
          "internalType": "address",
          "name": "precrime",
          "type": "address"
        }
      ],
      "name": "SetPrecrime",
      "type": "event"
    },
    {
      "anonymous": false,
      "inputs": [
        {
          "indexed": false,
          "internalType": "uint16",
          "name": "_remoteChainId",
          "type": "uint16"
        },
        {
          "indexed": false,
          "internalType": "bytes",
          "name": "_path",
          "type": "bytes"
        }
      ],
      "name": "SetTrustedRemote",
      "type": "event"
    },
    {
      "anonymous": false,
      "inputs": [
        {
          "indexed": false,
          "internalType": "uint16",
          "name": "_remoteChainId",
          "type": "uint16"
        },
        {
          "indexed": false,
          "internalType": "bytes",
          "name": "_remoteAddress",
          "type": "bytes"
        }
      ],
      "name": "SetTrustedRemoteAddress",
      "type": "event"
    },
    {
      "anonymous": false,
      "inputs": [
        {
          "indexed": false,
          "internalType": "bool",
          "name": "_useCustomAdapterParams",
          "type": "bool"
        }
      ],
      "name": "SetUseCustomAdapterParams",
      "type": "event"
    },
    {
      "anonymous": false,
      "inputs": [
        {
          "indexed": true,
          "internalType": "address",
          "name": "operator",
          "type": "address"
        },
        {
          "indexed": true,
          "internalType": "address",
          "name": "from",
          "type": "address"
        },
        {
          "indexed": true,
          "internalType": "address",
          "name": "to",
          "type": "address"
        },
        {
          "indexed": false,
          "internalType": "uint256[]",
          "name": "ids",
          "type": "uint256[]"
        },
        {
          "indexed": false,
          "internalType": "uint256[]",
          "name": "values",
          "type": "uint256[]"
        }
      ],
      "name": "TransferBatch",
      "type": "event"
    },
    {
      "anonymous": false,
      "inputs": [
        {
          "indexed": true,
          "internalType": "address",
          "name": "operator",
          "type": "address"
        },
        {
          "indexed": true,
          "internalType": "address",
          "name": "from",
          "type": "address"
        },
        {
          "indexed": true,
          "internalType": "address",
          "name": "to",
          "type": "address"
        },
        {
          "indexed": false,
          "internalType": "uint256",
          "name": "id",
          "type": "uint256"
        },
        {
          "indexed": false,
          "internalType": "uint256",
          "name": "value",
          "type": "uint256"
        }
      ],
      "name": "TransferSingle",
      "type": "event"
    },
    {
      "anonymous": false,
      "inputs": [
        {
          "indexed": false,
          "internalType": "string",
          "name": "value",
          "type": "string"
        },
        {
          "indexed": true,
          "internalType": "uint256",
          "name": "id",
          "type": "uint256"
        }
      ],
      "name": "URI",
      "type": "event"
    },
    {
      "inputs": [],
      "name": "DEFAULT_PAYLOAD_SIZE_LIMIT",
      "outputs": [
        {
          "internalType": "uint256",
          "name": "",
          "type": "uint256"
        }
      ],
      "stateMutability": "view",
      "type": "function"
    },
    {
      "inputs": [],
      "name": "FUNCTION_TYPE_SEND",
      "outputs": [
        {
          "internalType": "uint16",
          "name": "",
          "type": "uint16"
        }
      ],
      "stateMutability": "view",
      "type": "function"
    },
    {
      "inputs": [],
      "name": "FUNCTION_TYPE_SEND_BATCH",
      "outputs": [
        {
          "internalType": "uint16",
          "name": "",
          "type": "uint16"
        }
      ],
      "stateMutability": "view",
      "type": "function"
    },
    {
      "inputs": [],
      "name": "NO_EXTRA_GAS",
      "outputs": [
        {
          "internalType": "uint256",
          "name": "",
          "type": "uint256"
        }
      ],
      "stateMutability": "view",
      "type": "function"
    },
    {
      "inputs": [
        {
          "internalType": "address",
          "name": "account",
          "type": "address"
        },
        {
          "internalType": "uint256",
          "name": "id",
          "type": "uint256"
        }
      ],
      "name": "balanceOf",
      "outputs": [
        {
          "internalType": "uint256",
          "name": "",
          "type": "uint256"
        }
      ],
      "stateMutability": "view",
      "type": "function"
    },
    {
      "inputs": [
        {
          "internalType": "address[]",
          "name": "accounts",
          "type": "address[]"
        },
        {
          "internalType": "uint256[]",
          "name": "ids",
          "type": "uint256[]"
        }
      ],
      "name": "balanceOfBatch",
      "outputs": [
        {
          "internalType": "uint256[]",
          "name": "",
          "type": "uint256[]"
        }
      ],
      "stateMutability": "view",
      "type": "function"
    },
    {
      "inputs": [
        {
          "internalType": "uint16",
          "name": "_dstChainId",
          "type": "uint16"
        },
        {
          "internalType": "bytes",
          "name": "_toAddress",
          "type": "bytes"
        },
        {
          "internalType": "uint256[]",
          "name": "_tokenIds",
          "type": "uint256[]"
        },
        {
          "internalType": "uint256[]",
          "name": "_amounts",
          "type": "uint256[]"
        },
        {
          "internalType": "bool",
          "name": "_useZro",
          "type": "bool"
        },
        {
          "internalType": "bytes",
          "name": "_adapterParams",
          "type": "bytes"
        }
      ],
      "name": "estimateSendBatchFee",
      "outputs": [
        {
          "internalType": "uint256",
          "name": "nativeFee",
          "type": "uint256"
        },
        {
          "internalType": "uint256",
          "name": "zroFee",
          "type": "uint256"
        }
      ],
      "stateMutability": "view",
      "type": "function"
    },
    {
      "inputs": [
        {
          "internalType": "uint16",
          "name": "_dstChainId",
          "type": "uint16"
        },
        {
          "internalType": "bytes",
          "name": "_toAddress",
          "type": "bytes"
        },
        {
          "internalType": "uint256",
          "name": "_tokenId",
          "type": "uint256"
        },
        {
          "internalType": "uint256",
          "name": "_amount",
          "type": "uint256"
        },
        {
          "internalType": "bool",
          "name": "_useZro",
          "type": "bool"
        },
        {
          "internalType": "bytes",
          "name": "_adapterParams",
          "type": "bytes"
        }
      ],
      "name": "estimateSendFee",
      "outputs": [
        {
          "internalType": "uint256",
          "name": "nativeFee",
          "type": "uint256"
        },
        {
          "internalType": "uint256",
          "name": "zroFee",
          "type": "uint256"
        }
      ],
      "stateMutability": "view",
      "type": "function"
    },
    {
      "inputs": [
        {
          "internalType": "uint16",
          "name": "",
          "type": "uint16"
        },
        {
          "internalType": "bytes",
          "name": "",
          "type": "bytes"
        },
        {
          "internalType": "uint64",
          "name": "",
          "type": "uint64"
        }
      ],
      "name": "failedMessages",
      "outputs": [
        {
          "internalType": "bytes32",
          "name": "",
          "type": "bytes32"
        }
      ],
      "stateMutability": "view",
      "type": "function"
    },
    {
      "inputs": [
        {
          "internalType": "uint16",
          "name": "_srcChainId",
          "type": "uint16"
        },
        {
          "internalType": "bytes",
          "name": "_srcAddress",
          "type": "bytes"
        }
      ],
      "name": "forceResumeReceive",
      "outputs": [],
      "stateMutability": "nonpayable",
      "type": "function"
    },
    {
      "inputs": [
        {
          "internalType": "uint16",
          "name": "_version",
          "type": "uint16"
        },
        {
          "internalType": "uint16",
          "name": "_chainId",
          "type": "uint16"
        },
        {
          "internalType": "address",
          "name": "",
          "type": "address"
        },
        {
          "internalType": "uint256",
          "name": "_configType",
          "type": "uint256"
        }
      ],
      "name": "getConfig",
      "outputs": [
        {
          "internalType": "bytes",
          "name": "",
          "type": "bytes"
        }
      ],
      "stateMutability": "view",
      "type": "function"
    },
    {
      "inputs": [
        {
          "internalType": "uint16",
          "name": "_remoteChainId",
          "type": "uint16"
        }
      ],
      "name": "getTrustedRemoteAddress",
      "outputs": [
        {
          "internalType": "bytes",
          "name": "",
          "type": "bytes"
        }
      ],
      "stateMutability": "view",
      "type": "function"
    },
    {
      "inputs": [
        {
          "internalType": "address",
          "name": "account",
          "type": "address"
        },
        {
          "internalType": "address",
          "name": "operator",
          "type": "address"
        }
      ],
      "name": "isApprovedForAll",
      "outputs": [
        {
          "internalType": "bool",
          "name": "",
          "type": "bool"
        }
      ],
      "stateMutability": "view",
      "type": "function"
    },
    {
      "inputs": [
        {
          "internalType": "uint16",
          "name": "_srcChainId",
          "type": "uint16"
        },
        {
          "internalType": "bytes",
          "name": "_srcAddress",
          "type": "bytes"
        }
      ],
      "name": "isTrustedRemote",
      "outputs": [
        {
          "internalType": "bool",
          "name": "",
          "type": "bool"
        }
      ],
      "stateMutability": "view",
      "type": "function"
    },
    {
      "inputs": [],
      "name": "lzEndpoint",
      "outputs": [
        {
          "internalType": "contract ILayerZeroEndpointUpgradeable",
          "name": "",
          "type": "address"
        }
      ],
      "stateMutability": "view",
      "type": "function"
    },
    {
      "inputs": [
        {
          "internalType": "uint16",
          "name": "_srcChainId",
          "type": "uint16"
        },
        {
          "internalType": "bytes",
          "name": "_srcAddress",
          "type": "bytes"
        },
        {
          "internalType": "uint64",
          "name": "_nonce",
          "type": "uint64"
        },
        {
          "internalType": "bytes",
          "name": "_payload",
          "type": "bytes"
        }
      ],
      "name": "lzReceive",
      "outputs": [],
      "stateMutability": "nonpayable",
      "type": "function"
    },
    {
      "inputs": [
        {
          "internalType": "uint16",
          "name": "",
          "type": "uint16"
        },
        {
          "internalType": "uint16",
          "name": "",
          "type": "uint16"
        }
      ],
      "name": "minDstGasLookup",
      "outputs": [
        {
          "internalType": "uint256",
          "name": "",
          "type": "uint256"
        }
      ],
      "stateMutability": "view",
      "type": "function"
    },
    {
      "inputs": [
        {
          "internalType": "uint16",
          "name": "_srcChainId",
          "type": "uint16"
        },
        {
          "internalType": "bytes",
          "name": "_srcAddress",
          "type": "bytes"
        },
        {
          "internalType": "uint64",
          "name": "_nonce",
          "type": "uint64"
        },
        {
          "internalType": "bytes",
          "name": "_payload",
          "type": "bytes"
        }
      ],
      "name": "nonblockingLzReceive",
      "outputs": [],
      "stateMutability": "nonpayable",
      "type": "function"
    },
    {
      "inputs": [],
      "name": "owner",
      "outputs": [
        {
          "internalType": "address",
          "name": "",
          "type": "address"
        }
      ],
      "stateMutability": "view",
      "type": "function"
    },
    {
      "inputs": [
        {
          "internalType": "uint16",
          "name": "",
          "type": "uint16"
        }
      ],
      "name": "payloadSizeLimitLookup",
      "outputs": [
        {
          "internalType": "uint256",
          "name": "",
          "type": "uint256"
        }
      ],
      "stateMutability": "view",
      "type": "function"
    },
    {
      "inputs": [],
      "name": "precrime",
      "outputs": [
        {
          "internalType": "address",
          "name": "",
          "type": "address"
        }
      ],
      "stateMutability": "view",
      "type": "function"
    },
    {
      "inputs": [],
      "name": "renounceOwnership",
      "outputs": [],
      "stateMutability": "nonpayable",
      "type": "function"
    },
    {
      "inputs": [
        {
          "internalType": "uint16",
          "name": "_srcChainId",
          "type": "uint16"
        },
        {
          "internalType": "bytes",
          "name": "_srcAddress",
          "type": "bytes"
        },
        {
          "internalType": "uint64",
          "name": "_nonce",
          "type": "uint64"
        },
        {
          "internalType": "bytes",
          "name": "_payload",
          "type": "bytes"
        }
      ],
      "name": "retryMessage",
      "outputs": [],
      "stateMutability": "payable",
      "type": "function"
    },
    {
      "inputs": [
        {
          "internalType": "address",
          "name": "from",
          "type": "address"
        },
        {
          "internalType": "address",
          "name": "to",
          "type": "address"
        },
        {
          "internalType": "uint256[]",
          "name": "ids",
          "type": "uint256[]"
        },
        {
          "internalType": "uint256[]",
          "name": "amounts",
          "type": "uint256[]"
        },
        {
          "internalType": "bytes",
          "name": "data",
          "type": "bytes"
        }
      ],
      "name": "safeBatchTransferFrom",
      "outputs": [],
      "stateMutability": "nonpayable",
      "type": "function"
    },
    {
      "inputs": [
        {
          "internalType": "address",
          "name": "from",
          "type": "address"
        },
        {
          "internalType": "address",
          "name": "to",
          "type": "address"
        },
        {
          "internalType": "uint256",
          "name": "id",
          "type": "uint256"
        },
        {
          "internalType": "uint256",
          "name": "amount",
          "type": "uint256"
        },
        {
          "internalType": "bytes",
          "name": "data",
          "type": "bytes"
        }
      ],
      "name": "safeTransferFrom",
      "outputs": [],
      "stateMutability": "nonpayable",
      "type": "function"
    },
    {
      "inputs": [
        {
          "internalType": "address",
          "name": "_from",
          "type": "address"
        },
        {
          "internalType": "uint16",
          "name": "_dstChainId",
          "type": "uint16"
        },
        {
          "internalType": "bytes",
          "name": "_toAddress",
          "type": "bytes"
        },
        {
          "internalType": "uint256[]",
          "name": "_tokenIds",
          "type": "uint256[]"
        },
        {
          "internalType": "uint256[]",
          "name": "_amounts",
          "type": "uint256[]"
        },
        {
          "internalType": "address payable",
          "name": "_refundAddress",
          "type": "address"
        },
        {
          "internalType": "address",
          "name": "_zroPaymentAddress",
          "type": "address"
        },
        {
          "internalType": "bytes",
          "name": "_adapterParams",
          "type": "bytes"
        }
      ],
      "name": "sendBatchFrom",
      "outputs": [],
      "stateMutability": "payable",
      "type": "function"
    },
    {
      "inputs": [
        {
          "internalType": "address",
          "name": "_from",
          "type": "address"
        },
        {
          "internalType": "uint16",
          "name": "_dstChainId",
          "type": "uint16"
        },
        {
          "internalType": "bytes",
          "name": "_toAddress",
          "type": "bytes"
        },
        {
          "internalType": "uint256",
          "name": "_tokenId",
          "type": "uint256"
        },
        {
          "internalType": "uint256",
          "name": "_amount",
          "type": "uint256"
        },
        {
          "internalType": "address payable",
          "name": "_refundAddress",
          "type": "address"
        },
        {
          "internalType": "address",
          "name": "_zroPaymentAddress",
          "type": "address"
        },
        {
          "internalType": "bytes",
          "name": "_adapterParams",
          "type": "bytes"
        }
      ],
      "name": "sendFrom",
      "outputs": [],
      "stateMutability": "payable",
      "type": "function"
    },
    {
      "inputs": [
        {
          "internalType": "address",
          "name": "operator",
          "type": "address"
        },
        {
          "internalType": "bool",
          "name": "approved",
          "type": "bool"
        }
      ],
      "name": "setApprovalForAll",
      "outputs": [],
      "stateMutability": "nonpayable",
      "type": "function"
    },
    {
      "inputs": [
        {
          "internalType": "uint16",
          "name": "_version",
          "type": "uint16"
        },
        {
          "internalType": "uint16",
          "name": "_chainId",
          "type": "uint16"
        },
        {
          "internalType": "uint256",
          "name": "_configType",
          "type": "uint256"
        },
        {
          "internalType": "bytes",
          "name": "_config",
          "type": "bytes"
        }
      ],
      "name": "setConfig",
      "outputs": [],
      "stateMutability": "nonpayable",
      "type": "function"
    },
    {
      "inputs": [
        {
          "internalType": "uint16",
          "name": "_dstChainId",
          "type": "uint16"
        },
        {
          "internalType": "uint16",
          "name": "_packetType",
          "type": "uint16"
        },
        {
          "internalType": "uint256",
          "name": "_minGas",
          "type": "uint256"
        }
      ],
      "name": "setMinDstGas",
      "outputs": [],
      "stateMutability": "nonpayable",
      "type": "function"
    },
    {
      "inputs": [
        {
          "internalType": "uint16",
          "name": "_dstChainId",
          "type": "uint16"
        },
        {
          "internalType": "uint256",
          "name": "_size",
          "type": "uint256"
        }
      ],
      "name": "setPayloadSizeLimit",
      "outputs": [],
      "stateMutability": "nonpayable",
      "type": "function"
    },
    {
      "inputs": [
        {
          "internalType": "address",
          "name": "_precrime",
          "type": "address"
        }
      ],
      "name": "setPrecrime",
      "outputs": [],
      "stateMutability": "nonpayable",
      "type": "function"
    },
    {
      "inputs": [
        {
          "internalType": "uint16",
          "name": "_version",
          "type": "uint16"
        }
      ],
      "name": "setReceiveVersion",
      "outputs": [],
      "stateMutability": "nonpayable",
      "type": "function"
    },
    {
      "inputs": [
        {
          "internalType": "uint16",
          "name": "_version",
          "type": "uint16"
        }
      ],
      "name": "setSendVersion",
      "outputs": [],
      "stateMutability": "nonpayable",
      "type": "function"
    },
    {
      "inputs": [
        {
          "internalType": "uint16",
          "name": "_srcChainId",
          "type": "uint16"
        },
        {
          "internalType": "bytes",
          "name": "_path",
          "type": "bytes"
        }
      ],
      "name": "setTrustedRemote",
      "outputs": [],
      "stateMutability": "nonpayable",
      "type": "function"
    },
    {
      "inputs": [
        {
          "internalType": "uint16",
          "name": "_remoteChainId",
          "type": "uint16"
        },
        {
          "internalType": "bytes",
          "name": "_remoteAddress",
          "type": "bytes"
        }
      ],
      "name": "setTrustedRemoteAddress",
      "outputs": [],
      "stateMutability": "nonpayable",
      "type": "function"
    },
    {
      "inputs": [
        {
          "internalType": "bool",
          "name": "_useCustomAdapterParams",
          "type": "bool"
        }
      ],
      "name": "setUseCustomAdapterParams",
      "outputs": [],
      "stateMutability": "nonpayable",
      "type": "function"
    },
    {
      "inputs": [
        {
          "internalType": "bytes4",
          "name": "interfaceId",
          "type": "bytes4"
        }
      ],
      "name": "supportsInterface",
      "outputs": [
        {
          "internalType": "bool",
          "name": "",
          "type": "bool"
        }
      ],
      "stateMutability": "view",
      "type": "function"
    },
    {
      "inputs": [
        {
          "internalType": "address",
          "name": "newOwner",
          "type": "address"
        }
      ],
      "name": "transferOwnership",
      "outputs": [],
      "stateMutability": "nonpayable",
      "type": "function"
    },
    {
      "inputs": [
        {
          "internalType": "uint16",
          "name": "",
          "type": "uint16"
        }
      ],
      "name": "trustedRemoteLookup",
      "outputs": [
        {
          "internalType": "bytes",
          "name": "",
          "type": "bytes"
        }
      ],
      "stateMutability": "view",
      "type": "function"
    },
    {
      "inputs": [
        {
          "internalType": "uint256",
          "name": "",
          "type": "uint256"
        }
      ],
      "name": "uri",
      "outputs": [
        {
          "internalType": "string",
          "name": "",
          "type": "string"
        }
      ],
      "stateMutability": "view",
      "type": "function"
    },
    {
      "inputs": [],
      "name": "useCustomAdapterParams",
      "outputs": [
        {
          "internalType": "bool",
          "name": "",
          "type": "bool"
        }
      ],
      "stateMutability": "view",
      "type": "function"
    }
  ],
  "bytecode": "0x608060405234801561001057600080fd5b506141b9806100206000396000f3fe60806040526004361061024f5760003560e01c80638cfd8f5c11610139578063c4461834116100b6578063eab45d9c1161007a578063eab45d9c1461076e578063eb8d72b71461078e578063ed629c5c146107ae578063f242432a146107c8578063f2fde38b146107e8578063f5ecbdbc1461080857600080fd5b8063c4461834146106bb578063cbed8b9c146106d1578063d1deba1f146106f1578063df2a5b3b14610704578063e985e9c51461072457600080fd5b8063a6c3d165116100fd578063a6c3d16514610626578063af3fb21c14610646578063b25356631461065b578063b353aaa71461067b578063baf3292d1461069b57600080fd5b80638cfd8f5c1461055c5780638da5cb5b14610594578063950c8a74146105c65780639f38369a146105e6578063a22cb4651461060657600080fd5b80633f1f4fa4116101d25780634e1273f4116101965780634e1273f4146104565780635b8c41e61461048357806366ad5c8a146104d2578063715018a6146104f25780637533d788146105075780638608e5f81461052757600080fd5b80633f1f4fa4146103ce57806342d65a8d146103fb578063447705151461041b5780634ab4e687146104305780634db8226a1461044357600080fd5b80630e89341c116102195780630e89341c1461031957806310ddb13714610346578063149e3e1f146103665780632eb2c2d61461038e5780633d8b38f6146103ae57600080fd5b80621d356714610254578062fdd58e1461027657806301ffc9a7146102a957806307e0db17146102d95780630df37483146102f9575b600080fd5b34801561026057600080fd5b5061027461026f366004612ee8565b610828565b005b34801561028257600080fd5b50610296610291366004612f9b565b610a44565b6040519081526020015b60405180910390f35b3480156102b557600080fd5b506102c96102c4366004612fdd565b610ad8565b60405190151581526020016102a0565b3480156102e557600080fd5b506102746102f4366004612ffa565b610afb565b34801561030557600080fd5b50610274610314366004613015565b610b68565b34801561032557600080fd5b50610339610334366004613031565b610b87565b6040516102a091906130a2565b34801561035257600080fd5b50610274610361366004612ffa565b610c1c565b34801561037257600080fd5b5061037b600281565b60405161ffff90911681526020016102a0565b34801561039a57600080fd5b506102746103a936600461320e565b610c58565b3480156103ba57600080fd5b506102c96103c93660046132bb565b610c9d565b3480156103da57600080fd5b506102966103e9366004612ffa565b60686020526000908152604090205481565b34801561040757600080fd5b506102746104163660046132bb565b610d69565b34801561042757600080fd5b50610296600081565b61027461043e36600461330d565b610dd3565b6102746104513660046133fc565b610ded565b34801561046257600080fd5b506104766104713660046134a2565b610e0d565b6040516102a091906135a9565b34801561048f57600080fd5b5061029661049e3660046135bc565b6097602090815260009384526040808520845180860184018051928152908401958401959095209452929052825290205481565b3480156104de57600080fd5b506102746104ed366004612ee8565b610f36565b3480156104fe57600080fd5b50610274611012565b34801561051357600080fd5b50610339610522366004612ffa565b611026565b34801561053357600080fd5b50610547610542366004613629565b6110c0565b604080519283526020830191909152016102a0565b34801561056857600080fd5b506102966105773660046136bf565b606760209081526000928352604080842090915290825290205481565b3480156105a057600080fd5b506033546001600160a01b03165b6040516001600160a01b0390911681526020016102a0565b3480156105d257600080fd5b506069546105ae906001600160a01b031681565b3480156105f257600080fd5b50610339610601366004612ffa565b6110f0565b34801561061257600080fd5b506102746106213660046136f2565b611207565b34801561063257600080fd5b506102746106413660046132bb565b611216565b34801561065257600080fd5b5061037b600181565b34801561066757600080fd5b5061054761067636600461371e565b6112a9565b34801561068757600080fd5b506065546105ae906001600160a01b031681565b3480156106a757600080fd5b506102746106b63660046137ba565b61135a565b3480156106c757600080fd5b5061029661271081565b3480156106dd57600080fd5b506102746106ec3660046137d7565b6113b7565b6102746106ff366004612ee8565b611430565b34801561071057600080fd5b5061027461071f366004613845565b611646565b34801561073057600080fd5b506102c961073f366004613881565b6001600160a01b03918216600090815261012e6020908152604080832093909416825291909152205460ff1690565b34801561077a57600080fd5b506102746107893660046138ba565b6116f8565b34801561079a57600080fd5b506102746107a93660046132bb565b611741565b3480156107ba57600080fd5b5060fb546102c99060ff1681565b3480156107d457600080fd5b506102746107e33660046138d5565b61179b565b3480156107f457600080fd5b506102746108033660046137ba565b6117e0565b34801561081457600080fd5b5061033961082336600461393d565b611859565b6065546001600160a01b0316336001600160a01b0316146108905760405162461bcd60e51b815260206004820152601e60248201527f4c7a4170703a20696e76616c696420656e64706f696e742063616c6c6572000060448201526064015b60405180910390fd5b61ffff8616600090815260666020526040812080546108ae9061398a565b80601f01602080910402602001604051908101604052809291908181526020018280546108da9061398a565b80156109275780601f106108fc57610100808354040283529160200191610927565b820191906000526020600020905b81548152906001019060200180831161090a57829003601f168201915b50505050509050805186869050148015610942575060008151115b801561096a57508051602082012060405161096090889088906139c5565b6040518091039020145b6109c55760405162461bcd60e51b815260206004820152602660248201527f4c7a4170703a20696e76616c696420736f757263652073656e64696e6720636f6044820152651b9d1c9858dd60d21b6064820152608401610887565b610a3b8787878080601f01602080910402602001604051908101604052809392919081815260200183838082843760009201919091525050604080516020601f8a018190048102820181019092528881528a9350915088908890819084018382808284376000920191909152506118ec92505050565b50505050505050565b60006001600160a01b038316610aaf5760405162461bcd60e51b815260206004820152602a60248201527f455243313135353a2061646472657373207a65726f206973206e6f742061207660448201526930b634b21037bbb732b960b11b6064820152608401610887565b50600090815261012d602090815260408083206001600160a01b03949094168352929052205490565b60006001600160e01b031982161580610af55750610af582611965565b92915050565b610b036119a5565b6065546040516307e0db1760e01b815261ffff831660048201526001600160a01b03909116906307e0db17906024015b600060405180830381600087803b158015610b4d57600080fd5b505af1158015610b61573d6000803e3d6000fd5b5050505050565b610b706119a5565b61ffff909116600090815260686020526040902055565b606061012f8054610b979061398a565b80601f0160208091040260200160405190810160405280929190818152602001828054610bc39061398a565b8015610c105780601f10610be557610100808354040283529160200191610c10565b820191906000526020600020905b815481529060010190602001808311610bf357829003601f168201915b50505050509050919050565b610c246119a5565b6065546040516310ddb13760e01b815261ffff831660048201526001600160a01b03909116906310ddb13790602401610b33565b6001600160a01b038516331480610c745750610c74853361073f565b610c905760405162461bcd60e51b8152600401610887906139d5565b610b6185858585856119ff565b61ffff831660009081526066602052604081208054829190610cbe9061398a565b80601f0160208091040260200160405190810160405280929190818152602001828054610cea9061398a565b8015610d375780601f10610d0c57610100808354040283529160200191610d37565b820191906000526020600020905b815481529060010190602001808311610d1a57829003601f168201915b505050505090508383604051610d4e9291906139c5565b60405180910390208180519060200120149150509392505050565b610d716119a5565b6065546040516342d65a8d60e01b81526001600160a01b03909116906342d65a8d90610da590869086908690600401613a4d565b600060405180830381600087803b158015610dbf57600080fd5b505af1158015610a3b573d6000803e3d6000fd5b610de38888888888888888611b98565b5050505050505050565b610de3888888610dfc89611d80565b610e0589611d80565b888888611b98565b60608151835114610e725760405162461bcd60e51b815260206004820152602960248201527f455243313135353a206163636f756e747320616e6420696473206c656e677468604482015268040dad2e6dac2e8c6d60bb1b6064820152608401610887565b600083516001600160401b03811115610e8d57610e8d6130b5565b604051908082528060200260200182016040528015610eb6578160200160208202803683370190505b50905060005b8451811015610f2e57610f01858281518110610eda57610eda613a6b565b6020026020010151858381518110610ef457610ef4613a6b565b6020026020010151610a44565b828281518110610f1357610f13613a6b565b6020908102919091010152610f2781613a97565b9050610ebc565b509392505050565b333014610f945760405162461bcd60e51b815260206004820152602660248201527f4e6f6e626c6f636b696e674c7a4170703a2063616c6c6572206d7573742062656044820152650204c7a4170760d41b6064820152608401610887565b61100a8686868080601f01602080910402602001604051908101604052809392919081815260200183838082843760009201919091525050604080516020601f890181900481028201810190925287815289935091508790879081908401838280828437600092019190915250611dcb92505050565b505050505050565b61101a6119a5565b6110246000611f19565b565b6066602052600090815260409020805461103f9061398a565b80601f016020809104026020016040519081016040528092919081815260200182805461106b9061398a565b80156110b85780601f1061108d576101008083540402835291602001916110b8565b820191906000526020600020905b81548152906001019060200180831161109b57829003601f168201915b505050505081565b6000806110e188886110d189611d80565b6110da89611d80565b88886112a9565b91509150965096945050505050565b61ffff81166000908152606660205260408120805460609291906111139061398a565b80601f016020809104026020016040519081016040528092919081815260200182805461113f9061398a565b801561118c5780601f106111615761010080835404028352916020019161118c565b820191906000526020600020905b81548152906001019060200180831161116f57829003601f168201915b505050505090508051600014156111e55760405162461bcd60e51b815260206004820152601d60248201527f4c7a4170703a206e6f20747275737465642070617468207265636f72640000006044820152606401610887565b6112006000601483516111f89190613ab2565b839190611f6b565b9392505050565b611212338383612078565b5050565b61121e6119a5565b81813060405160200161123393929190613ac9565b60408051601f1981840301815291815261ffff8516600090815260666020908152919020825161126893919290910190612d65565b507f8c0400cfe2d1199b1a725c78960bcc2a344d869b80590d0f2bd005db15a572ce83838360405161129c93929190613a4d565b60405180910390a1505050565b60008060008787876040516020016112c393929190613aef565b60408051601f198184030181529082905260655463040a7bb160e41b83529092506001600160a01b0316906340a7bb109061130a908c90309086908b908b90600401613b32565b6040805180830381865afa158015611326573d6000803e3d6000fd5b505050506040513d601f19601f8201168201806040525081019061134a9190613b86565b9250925050965096945050505050565b6113626119a5565b606980546001600160a01b0319166001600160a01b0383169081179091556040519081527f5db758e995a17ec1ad84bdef7e8c3293a0bd6179bcce400dff5d4c3d87db726b906020015b60405180910390a150565b6113bf6119a5565b6065546040516332fb62e760e21b81526001600160a01b039091169063cbed8b9c906113f79088908890889088908890600401613baa565b600060405180830381600087803b15801561141157600080fd5b505af1158015611425573d6000803e3d6000fd5b505050505050505050565b61ffff8616600090815260976020526040808220905161145390889088906139c5565b90815260408051602092819003830190206001600160401b038716600090815292529020549050806114d35760405162461bcd60e51b815260206004820152602360248201527f4e6f6e626c6f636b696e674c7a4170703a206e6f2073746f726564206d65737360448201526261676560e81b6064820152608401610887565b8083836040516114e49291906139c5565b6040518091039020146115435760405162461bcd60e51b815260206004820152602160248201527f4e6f6e626c6f636b696e674c7a4170703a20696e76616c6964207061796c6f616044820152601960fa1b6064820152608401610887565b61ffff8716600090815260976020526040808220905161156690899089906139c5565b90815260408051602092819003830181206001600160401b038916600090815290845282902093909355601f880182900482028301820190528682526115fe918991899089908190840183828082843760009201919091525050604080516020601f8a018190048102820181019092528881528a935091508890889081908401838280828437600092019190915250611dcb92505050565b7fc264d91f3adc5588250e1551f547752ca0cfa8f6b530d243b9f9f4cab10ea8e58787878785604051611635959493929190613be3565b60405180910390a150505050505050565b61164e6119a5565b600081116116965760405162461bcd60e51b81526020600482015260156024820152744c7a4170703a20696e76616c6964206d696e47617360581b6044820152606401610887565b61ffff83811660008181526067602090815260408083209487168084529482529182902085905581519283528201929092529081018290527f9d5c7c0b934da8fefa9c7760c98383778a12dfbfc0c3b3106518f43fb9508ac09060600161129c565b6117006119a5565b60fb805460ff19168215159081179091556040519081527f1584ad594a70cbe1e6515592e1272a987d922b097ead875069cebe8b40c004a4906020016113ac565b6117496119a5565b61ffff83166000908152606660205260409020611767908383612de9565b507ffa41487ad5d6728f0b19276fa1eddc16558578f5109fc39d2dc33c3230470dab83838360405161129c93929190613a4d565b6001600160a01b0385163314806117b757506117b7853361073f565b6117d35760405162461bcd60e51b8152600401610887906139d5565b610b61858585858561215a565b6117e86119a5565b6001600160a01b03811661184d5760405162461bcd60e51b815260206004820152602660248201527f4f776e61626c653a206e6577206f776e657220697320746865207a65726f206160448201526564647265737360d01b6064820152608401610887565b61185681611f19565b50565b606554604051633d7b2f6f60e21b815261ffff808716600483015285166024820152306044820152606481018390526060916001600160a01b03169063f5ecbdbc90608401600060405180830381865afa1580156118bb573d6000803e3d6000fd5b505050506040513d6000823e601f3d908101601f191682016040526118e39190810190613c6d565b95945050505050565b60008061194f5a60966366ad5c8a60e01b898989896040516024016119149493929190613ca9565b60408051601f198184030181529190526020810180516001600160e01b03166001600160e01b0319909316929092179091523092919061227f565b915091508161100a5761100a8686868685612309565b60006001600160e01b03198216636cdb3d1360e11b148061199657506001600160e01b031982166303a24d0760e21b145b80610af55750610af5826123a6565b6033546001600160a01b031633146110245760405162461bcd60e51b815260206004820181905260248201527f4f776e61626c653a2063616c6c6572206973206e6f7420746865206f776e65726044820152606401610887565b8151835114611a205760405162461bcd60e51b815260040161088790613ce7565b6001600160a01b038416611a465760405162461bcd60e51b815260040161088790613d2f565b3360005b8451811015611b32576000858281518110611a6757611a67613a6b565b602002602001015190506000858381518110611a8557611a85613a6b565b602090810291909101810151600084815261012d835260408082206001600160a01b038e168352909352919091205490915081811015611ad75760405162461bcd60e51b815260040161088790613d74565b600083815261012d602090815260408083206001600160a01b038e8116855292528083208585039055908b16825281208054849290611b17908490613dbe565b9250508190555050505080611b2b90613a97565b9050611a4a565b50846001600160a01b0316866001600160a01b0316826001600160a01b03167f4a39dc06d4c0dbc64b70af90fd698a233a518aa5d07e595d983b8c0526c8f7fb8787604051611b82929190613dd6565b60405180910390a461100a8187878787876123db565b611ba58888888888612537565b6000868686604051602001611bbc93929190613aef565b6040516020818303038152906040529050855160011415611cc25760fb5460ff1615611bf557611bf08860018460006125c3565b611c14565b815115611c145760405162461bcd60e51b815260040161088790613dfb565b611c228882868686346126a2565b86604051611c309190613e3f565b6040518091039020896001600160a01b03168961ffff167f968b0d61ebcf43e5d76ed87bd2c4ee2f22b4969b9f4ca49e3373c025eddd5eeb89600081518110611c7b57611c7b613a6b565b602002602001015189600081518110611c9657611c96613a6b565b6020026020010151604051611cb5929190918252602082015260400190565b60405180910390a4611425565b6001865111156114255760fb5460ff1615611cea57611ce58860028460006125c3565b611d09565b815115611d095760405162461bcd60e51b815260040161088790613dfb565b611d178882868686346126a2565b86604051611d259190613e3f565b6040518091039020896001600160a01b03168961ffff167fddd15f7cfbd674ac2096d598f1650367f8a8bd72b4e3abd85591099ea3b57e338989604051611d6d929190613dd6565b60405180910390a4505050505050505050565b60408051600180825281830190925260609160009190602080830190803683370190505090508281600081518110611dba57611dba613a6b565b602090810291909101015292915050565b600080600083806020019051810190611de49190613ec1565b60148301519295509093509150611dfd8882858561282c565b825160011415611ea757806001600160a01b031687604051611e1f9190613e3f565b60405180910390208961ffff167f1bf64e58d19fc43de4c44b3d1bb1fae313979af831a7a39f3297564294329f0f86600081518110611e6057611e60613a6b565b602002602001015186600081518110611e7b57611e7b613a6b565b6020026020010151604051611e9a929190918252602082015260400190565b60405180910390a4610de3565b600183511115610de357806001600160a01b031687604051611ec99190613e3f565b60405180910390208961ffff167f1ae08edbbcd7baa8d064835de8593ce16b313414525ac89534e349f4da7926e48686604051611f07929190613dd6565b60405180910390a45050505050505050565b603380546001600160a01b038381166001600160a01b0319831681179093556040519116919082907f8be0079c531659141344cd1fd0a4f28419497f9722a3daafe3b4186f6b6457e090600090a35050565b606081611f7981601f613dbe565b1015611fb85760405162461bcd60e51b815260206004820152600e60248201526d736c6963655f6f766572666c6f7760901b6044820152606401610887565b611fc28284613dbe565b845110156120065760405162461bcd60e51b8152602060048201526011602482015270736c6963655f6f75744f66426f756e647360781b6044820152606401610887565b606082158015612025576040519150600082526020820160405261206f565b6040519150601f8416801560200281840101858101878315602002848b0101015b8183101561205e578051835260209283019201612046565b5050858452601f01601f1916604052505b50949350505050565b816001600160a01b0316836001600160a01b031614156120ec5760405162461bcd60e51b815260206004820152602960248201527f455243313135353a2073657474696e6720617070726f76616c20737461747573604482015268103337b91039b2b63360b91b6064820152608401610887565b6001600160a01b03838116600081815261012e6020908152604080832094871680845294825291829020805460ff191686151590811790915591519182527f17307eab39ab6107e8899845ad3d59bd9653f200f220920489ca2b5937696c31910160405180910390a3505050565b6001600160a01b0384166121805760405162461bcd60e51b815260040161088790613d2f565b33600061218c85611d80565b9050600061219985611d80565b9050600086815261012d602090815260408083206001600160a01b038c168452909152902054858110156121df5760405162461bcd60e51b815260040161088790613d74565b600087815261012d602090815260408083206001600160a01b038d8116855292528083208985039055908a1682528120805488929061221f908490613dbe565b909155505060408051888152602081018890526001600160a01b03808b16928c821692918816917fc3d58168c5ae7397731d063d5bbf3d657854427343f4c083240f7aacaa2d0f62910160405180910390a4611425848a8a8a8a8a61284d565b6000606060008060008661ffff166001600160401b038111156122a4576122a46130b5565b6040519080825280601f01601f1916602001820160405280156122ce576020820181803683370190505b50905060008087516020890160008d8df191503d9250868311156122f0578692505b828152826000602083013e909890975095505050505050565b8180519060200120609760008761ffff1661ffff1681526020019081526020016000208560405161233a9190613e3f565b9081526040805191829003602090810183206001600160401b0388166000908152915220919091557fe183f33de2837795525b4792ca4cd60535bd77c53b7e7030060bfcf5734d6b0c906123979087908790879087908790613f48565b60405180910390a15050505050565b60006001600160e01b031982166319abbbbb60e11b1480610af557506301ffc9a760e01b6001600160e01b0319831614610af5565b6001600160a01b0384163b1561100a5760405163bc197c8160e01b81526001600160a01b0385169063bc197c819061241f9089908990889088908890600401613f9a565b6020604051808303816000875af192505050801561245a575060408051601f3d908101601f1916820190925261245791810190613fd8565b60015b61250757612466613ff5565b806308c379a014156124a0575061247b614011565b8061248657506124a2565b8060405162461bcd60e51b815260040161088791906130a2565b505b60405162461bcd60e51b815260206004820152603460248201527f455243313135353a207472616e7366657220746f206e6f6e20455243313135356044820152732932b1b2b4bb32b91034b6b83632b6b2b73a32b960611b6064820152608401610887565b6001600160e01b0319811663bc197c8160e01b14610a3b5760405162461bcd60e51b81526004016108879061409a565b336001600160a01b0386168114806125545750612554868261073f565b6125b85760405162461bcd60e51b815260206004820152602f60248201527f4f4e4654313135353a2073656e642063616c6c6572206973206e6f74206f776e60448201526e195c881b9bdc88185c1c1c9bdd9959608a1b6064820152608401610887565b61100a868484612908565b60006125ce83612b0f565b61ffff808716600090815260676020908152604080832093891683529290529081205491925090612600908490613dbe565b9050600081116126525760405162461bcd60e51b815260206004820152601a60248201527f4c7a4170703a206d696e4761734c696d6974206e6f74207365740000000000006044820152606401610887565b8082101561100a5760405162461bcd60e51b815260206004820152601b60248201527f4c7a4170703a20676173206c696d697420697320746f6f206c6f7700000000006044820152606401610887565b61ffff8616600090815260666020526040812080546126c09061398a565b80601f01602080910402602001604051908101604052809291908181526020018280546126ec9061398a565b80156127395780601f1061270e57610100808354040283529160200191612739565b820191906000526020600020905b81548152906001019060200180831161271c57829003601f168201915b505050505090508051600014156127ab5760405162461bcd60e51b815260206004820152603060248201527f4c7a4170703a2064657374696e6174696f6e20636861696e206973206e6f742060448201526f61207472757374656420736f7572636560801b6064820152608401610887565b6127b6878751612b6b565b60655460405162c5803160e81b81526001600160a01b039091169063c58031009084906127f1908b9086908c908c908c908c906004016140e2565b6000604051808303818588803b15801561280a57600080fd5b505af115801561281e573d6000803e3d6000fd5b505050505050505050505050565b61284783838360405180602001604052806000815250612bde565b50505050565b6001600160a01b0384163b1561100a5760405163f23a6e6160e01b81526001600160a01b0385169063f23a6e61906128919089908990889088908890600401614149565b6020604051808303816000875af19250505080156128cc575060408051601f3d908101601f191682019092526128c991810190613fd8565b60015b6128d857612466613ff5565b6001600160e01b0319811663f23a6e6160e01b14610a3b5760405162461bcd60e51b81526004016108879061409a565b6001600160a01b03831661296a5760405162461bcd60e51b815260206004820152602360248201527f455243313135353a206275726e2066726f6d20746865207a65726f206164647260448201526265737360e81b6064820152608401610887565b805182511461298b5760405162461bcd60e51b815260040161088790613ce7565b604080516020810190915260009081905233905b8351811015612aa25760008482815181106129bc576129bc613a6b565b6020026020010151905060008483815181106129da576129da613a6b565b602090810291909101810151600084815261012d835260408082206001600160a01b038c168352909352919091205490915081811015612a685760405162461bcd60e51b8152602060048201526024808201527f455243313135353a206275726e20616d6f756e7420657863656564732062616c604482015263616e636560e01b6064820152608401610887565b600092835261012d602090815260408085206001600160a01b038b1686529091529092209103905580612a9a81613a97565b91505061299f565b5060006001600160a01b0316846001600160a01b0316826001600160a01b03167f4a39dc06d4c0dbc64b70af90fd698a233a518aa5d07e595d983b8c0526c8f7fb8686604051612af3929190613dd6565b60405180910390a4604080516020810190915260009052612847565b6000602282511015612b635760405162461bcd60e51b815260206004820152601c60248201527f4c7a4170703a20696e76616c69642061646170746572506172616d73000000006044820152606401610887565b506022015190565b61ffff821660009081526068602052604090205480612b8957506127105b80821115612bd95760405162461bcd60e51b815260206004820181905260248201527f4c7a4170703a207061796c6f61642073697a6520697320746f6f206c617267656044820152606401610887565b505050565b6001600160a01b038416612c3e5760405162461bcd60e51b815260206004820152602160248201527f455243313135353a206d696e7420746f20746865207a65726f206164647265736044820152607360f81b6064820152608401610887565b8151835114612c5f5760405162461bcd60e51b815260040161088790613ce7565b3360005b8451811015612cfd57838181518110612c7e57612c7e613a6b565b602002602001015161012d6000878481518110612c9d57612c9d613a6b565b602002602001015181526020019081526020016000206000886001600160a01b03166001600160a01b031681526020019081526020016000206000828254612ce59190613dbe565b90915550819050612cf581613a97565b915050612c63565b50846001600160a01b031660006001600160a01b0316826001600160a01b03167f4a39dc06d4c0dbc64b70af90fd698a233a518aa5d07e595d983b8c0526c8f7fb8787604051612d4e929190613dd6565b60405180910390a4610b61816000878787876123db565b828054612d719061398a565b90600052602060002090601f016020900481019282612d935760008555612dd9565b82601f10612dac57805160ff1916838001178555612dd9565b82800160010185558215612dd9579182015b82811115612dd9578251825591602001919060010190612dbe565b50612de5929150612e5d565b5090565b828054612df59061398a565b90600052602060002090601f016020900481019282612e175760008555612dd9565b82601f10612e305782800160ff19823516178555612dd9565b82800160010185558215612dd9579182015b82811115612dd9578235825591602001919060010190612e42565b5b80821115612de55760008155600101612e5e565b803561ffff81168114612e8457600080fd5b919050565b60008083601f840112612e9b57600080fd5b5081356001600160401b03811115612eb257600080fd5b602083019150836020828501011115612eca57600080fd5b9250929050565b80356001600160401b0381168114612e8457600080fd5b60008060008060008060808789031215612f0157600080fd5b612f0a87612e72565b955060208701356001600160401b0380821115612f2657600080fd5b612f328a838b01612e89565b9097509550859150612f4660408a01612ed1565b94506060890135915080821115612f5c57600080fd5b50612f6989828a01612e89565b979a9699509497509295939492505050565b6001600160a01b038116811461185657600080fd5b8035612e8481612f7b565b60008060408385031215612fae57600080fd5b8235612fb981612f7b565b946020939093013593505050565b6001600160e01b03198116811461185657600080fd5b600060208284031215612fef57600080fd5b813561120081612fc7565b60006020828403121561300c57600080fd5b61120082612e72565b6000806040838503121561302857600080fd5b612fb983612e72565b60006020828403121561304357600080fd5b5035919050565b60005b8381101561306557818101518382015260200161304d565b838111156128475750506000910152565b6000815180845261308e81602086016020860161304a565b601f01601f19169290920160200192915050565b6020815260006112006020830184613076565b634e487b7160e01b600052604160045260246000fd5b601f8201601f191681016001600160401b03811182821017156130f0576130f06130b5565b6040525050565b60006001600160401b03821115613110576131106130b5565b5060051b60200190565b600082601f83011261312b57600080fd5b81356020613138826130f7565b60405161314582826130cb565b83815260059390931b850182019282810191508684111561316557600080fd5b8286015b848110156131805780358352918301918301613169565b509695505050505050565b60006001600160401b038211156131a4576131a46130b5565b50601f01601f191660200190565b600082601f8301126131c357600080fd5b81356131ce8161318b565b6040516131db82826130cb565b8281528560208487010111156131f057600080fd5b82602086016020830137600092810160200192909252509392505050565b600080600080600060a0868803121561322657600080fd5b853561323181612f7b565b9450602086013561324181612f7b565b935060408601356001600160401b038082111561325d57600080fd5b61326989838a0161311a565b9450606088013591508082111561327f57600080fd5b61328b89838a0161311a565b935060808801359150808211156132a157600080fd5b506132ae888289016131b2565b9150509295509295909350565b6000806000604084860312156132d057600080fd5b6132d984612e72565b925060208401356001600160401b038111156132f457600080fd5b61330086828701612e89565b9497909650939450505050565b600080600080600080600080610100898b03121561332a57600080fd5b61333389612f90565b975061334160208a01612e72565b965060408901356001600160401b038082111561335d57600080fd5b6133698c838d016131b2565b975060608b013591508082111561337f57600080fd5b61338b8c838d0161311a565b965060808b01359150808211156133a157600080fd5b6133ad8c838d0161311a565b95506133bb60a08c01612f90565b94506133c960c08c01612f90565b935060e08b01359150808211156133df57600080fd5b506133ec8b828c016131b2565b9150509295985092959890939650565b600080600080600080600080610100898b03121561341957600080fd5b883561342481612f7b565b975061343260208a01612e72565b965060408901356001600160401b038082111561344e57600080fd5b61345a8c838d016131b2565b975060608b0135965060808b0135955060a08b0135915061347a82612f7b565b90935060c08a01359061348c82612f7b565b90925060e08a013590808211156133df57600080fd5b600080604083850312156134b557600080fd5b82356001600160401b03808211156134cc57600080fd5b818501915085601f8301126134e057600080fd5b813560206134ed826130f7565b6040516134fa82826130cb565b83815260059390931b850182019282810191508984111561351a57600080fd5b948201945b8386101561354157853561353281612f7b565b8252948201949082019061351f565b9650508601359250508082111561355757600080fd5b506135648582860161311a565b9150509250929050565b600081518084526020808501945080840160005b8381101561359e57815187529582019590820190600101613582565b509495945050505050565b602081526000611200602083018461356e565b6000806000606084860312156135d157600080fd5b6135da84612e72565b925060208401356001600160401b038111156135f557600080fd5b613601868287016131b2565b92505061361060408501612ed1565b90509250925092565b80358015158114612e8457600080fd5b60008060008060008060c0878903121561364257600080fd5b61364b87612e72565b955060208701356001600160401b038082111561366757600080fd5b6136738a838b016131b2565b9650604089013595506060890135945061368f60808a01613619565b935060a08901359150808211156136a557600080fd5b506136b289828a016131b2565b9150509295509295509295565b600080604083850312156136d257600080fd5b6136db83612e72565b91506136e960208401612e72565b90509250929050565b6000806040838503121561370557600080fd5b823561371081612f7b565b91506136e960208401613619565b60008060008060008060c0878903121561373757600080fd5b61374087612e72565b955060208701356001600160401b038082111561375c57600080fd5b6137688a838b016131b2565b9650604089013591508082111561377e57600080fd5b61378a8a838b0161311a565b955060608901359150808211156137a057600080fd5b6137ac8a838b0161311a565b945061368f60808a01613619565b6000602082840312156137cc57600080fd5b813561120081612f7b565b6000806000806000608086880312156137ef57600080fd5b6137f886612e72565b945061380660208701612e72565b93506040860135925060608601356001600160401b0381111561382857600080fd5b61383488828901612e89565b969995985093965092949392505050565b60008060006060848603121561385a57600080fd5b61386384612e72565b925061387160208501612e72565b9150604084013590509250925092565b6000806040838503121561389457600080fd5b823561389f81612f7b565b915060208301356138af81612f7b565b809150509250929050565b6000602082840312156138cc57600080fd5b61120082613619565b600080600080600060a086880312156138ed57600080fd5b85356138f881612f7b565b9450602086013561390881612f7b565b9350604086013592506060860135915060808601356001600160401b0381111561393157600080fd5b6132ae888289016131b2565b6000806000806080858703121561395357600080fd5b61395c85612e72565b935061396a60208601612e72565b9250604085013561397a81612f7b565b9396929550929360600135925050565b600181811c9082168061399e57607f821691505b602082108114156139bf57634e487b7160e01b600052602260045260246000fd5b50919050565b8183823760009101908152919050565b6020808252602f908201527f455243313135353a2063616c6c6572206973206e6f7420746f6b656e206f776e60408201526e195c881b9bdc88185c1c1c9bdd9959608a1b606082015260800190565b81835281816020850137506000828201602090810191909152601f909101601f19169091010190565b61ffff841681526040602082015260006118e3604083018486613a24565b634e487b7160e01b600052603260045260246000fd5b634e487b7160e01b600052601160045260246000fd5b6000600019821415613aab57613aab613a81565b5060010190565b600082821015613ac457613ac4613a81565b500390565b8284823760609190911b6bffffffffffffffffffffffff19169101908152601401919050565b606081526000613b026060830186613076565b8281036020840152613b14818661356e565b90508281036040840152613b28818561356e565b9695505050505050565b61ffff861681526001600160a01b038516602082015260a060408201819052600090613b6090830186613076565b84151560608401528281036080840152613b7a8185613076565b98975050505050505050565b60008060408385031215613b9957600080fd5b505080516020909101519092909150565b600061ffff808816835280871660208401525084604083015260806060830152613bd8608083018486613a24565b979650505050505050565b61ffff86168152608060208201526000613c01608083018688613a24565b6001600160401b0394909416604083015250606001529392505050565b600082601f830112613c2f57600080fd5b8151613c3a8161318b565b604051613c4782826130cb565b828152856020848701011115613c5c57600080fd5b6118e383602083016020880161304a565b600060208284031215613c7f57600080fd5b81516001600160401b03811115613c9557600080fd5b613ca184828501613c1e565b949350505050565b61ffff85168152608060208201526000613cc66080830186613076565b6001600160401b03851660408401528281036060840152613bd88185613076565b60208082526028908201527f455243313135353a2069647320616e6420616d6f756e7473206c656e677468206040820152670dad2e6dac2e8c6d60c31b606082015260800190565b60208082526025908201527f455243313135353a207472616e7366657220746f20746865207a65726f206164604082015264647265737360d81b606082015260800190565b6020808252602a908201527f455243313135353a20696e73756666696369656e742062616c616e636520666f60408201526939103a3930b739b332b960b11b606082015260800190565b60008219821115613dd157613dd1613a81565b500190565b604081526000613de9604083018561356e565b82810360208401526118e3818561356e565b60208082526024908201527f4c7a4170703a205f61646170746572506172616d73206d75737420626520656d604082015263383a3c9760e11b606082015260800190565b60008251613e5181846020870161304a565b9190910192915050565b600082601f830112613e6c57600080fd5b81516020613e79826130f7565b604051613e8682826130cb565b83815260059390931b8501820192828101915086841115613ea657600080fd5b8286015b848110156131805780518352918301918301613eaa565b600080600060608486031215613ed657600080fd5b83516001600160401b0380821115613eed57600080fd5b613ef987838801613c1e565b94506020860151915080821115613f0f57600080fd5b613f1b87838801613e5b565b93506040860151915080821115613f3157600080fd5b50613f3e86828701613e5b565b9150509250925092565b61ffff8616815260a060208201526000613f6560a0830187613076565b6001600160401b03861660408401528281036060840152613f868186613076565b90508281036080840152613b7a8185613076565b6001600160a01b0386811682528516602082015260a060408201819052600090613fc69083018661356e565b8281036060840152613f86818661356e565b600060208284031215613fea57600080fd5b815161120081612fc7565b600060033d111561400e5760046000803e5060005160e01c5b90565b600060443d101561401f5790565b6040516003193d81016004833e81513d6001600160401b03816024840111818411171561404e57505050505090565b82850191508151818111156140665750505050505090565b843d87010160208285010111156140805750505050505090565b61408f602082860101876130cb565b509095945050505050565b60208082526028908201527f455243313135353a204552433131353552656365697665722072656a656374656040820152676420746f6b656e7360c01b606082015260800190565b61ffff8716815260c0602082015260006140ff60c0830188613076565b82810360408401526141118188613076565b6001600160a01b0387811660608601528616608085015283810360a0850152905061413c8185613076565b9998505050505050505050565b6001600160a01b03868116825285166020820152604081018490526060810183905260a060808201819052600090613bd89083018461307656fea26469706673582212207d2134d5d26aac0e0fc5edfd56b8b85b9e5eb81f5da7b101f678988058cc81aa64736f6c634300080c0033",
  "linkReferences": {},
  "deployedLinkReferences": {}
}