{
  "_format": "hh-sol-artifact-1",
  "contractName": "OFTAdapter",
  "sourceName": "contracts/standards/oft/OFTAdapter.sol",
  "abi": [
    {
      "inputs": [
        {
          "internalType": "address",
          "name": "_token",
          "type": "address"
        },
        {
          "internalType": "uint8",
          "name": "_localDecimals",
          "type": "uint8"
        },
        {
          "internalType": "address",
          "name": "_endpoint",
          "type": "address"
        }
      ],
      "stateMutability": "nonpayable",
      "type": "constructor"
    },
    {
      "inputs": [
        {
          "internalType": "uint256",
          "name": "_amountLDSend",
          "type": "uint256"
        },
        {
          "internalType": "uint256",
          "name": "_minAmountLD",
          "type": "uint256"
        }
      ],
      "name": "AmountSlippage",
      "type": "error"
    },
    {
      "inputs": [
        {
          "internalType": "address",
          "name": "addr",
          "type": "address"
        }
      ],
      "name": "EndpointOnly",
      "type": "error"
    },
    {
      "inputs": [
        {
          "internalType": "bytes32",
          "name": "addr",
          "type": "bytes32"
        }
      ],
      "name": "InvalidPeer",
      "type": "error"
    },
    {
      "inputs": [],
      "name": "InvalidPeerState",
      "type": "error"
    },
    {
      "inputs": [],
      "name": "LDMinusSD",
      "type": "error"
    },
    {
      "inputs": [
        {
          "internalType": "uint16",
          "name": "code",
          "type": "uint16"
        },
        {
          "internalType": "bytes",
          "name": "result",
          "type": "bytes"
        }
      ],
      "name": "LzReceiveRevert",
      "type": "error"
    },
    {
      "inputs": [
        {
          "internalType": "uint32",
          "name": "eid",
          "type": "uint32"
        }
      ],
      "name": "NoPeerSet",
      "type": "error"
    },
    {
      "inputs": [
        {
          "internalType": "address",
          "name": "addr",
          "type": "address"
        }
      ],
      "name": "PreCrimeOnly",
      "type": "error"
    },
    {
      "anonymous": false,
      "inputs": [
        {
          "indexed": true,
          "internalType": "address",
          "name": "previousOwner",
          "type": "address"
        },
        {
          "indexed": true,
          "internalType": "address",
          "name": "newOwner",
          "type": "address"
        }
      ],
      "name": "OwnershipTransferred",
      "type": "event"
    },
    {
      "anonymous": false,
      "inputs": [
        {
          "indexed": true,
          "internalType": "bytes32",
          "name": "_guid",
          "type": "bytes32"
        },
        {
          "indexed": true,
          "internalType": "address",
          "name": "_toAddress",
          "type": "address"
        },
        {
          "indexed": false,
          "internalType": "uint256",
          "name": "_amountLD",
          "type": "uint256"
        }
      ],
      "name": "ReceiveOFT",
      "type": "event"
    },
    {
      "anonymous": false,
      "inputs": [
        {
          "indexed": true,
          "internalType": "bytes32",
          "name": "_guid",
          "type": "bytes32"
        },
        {
          "indexed": true,
          "internalType": "address",
          "name": "_fromAddress",
          "type": "address"
        },
        {
          "indexed": false,
          "internalType": "uint256",
          "name": "_amountLD",
          "type": "uint256"
        }
      ],
      "name": "SendOFT",
      "type": "event"
    },
    {
      "anonymous": false,
      "inputs": [
        {
          "components": [
            {
              "internalType": "uint16",
              "name": "msgType",
              "type": "uint16"
            },
            {
              "internalType": "uint32",
              "name": "eid",
              "type": "uint32"
            },
            {
              "internalType": "bytes",
              "name": "options",
              "type": "bytes"
            }
          ],
          "indexed": false,
          "internalType": "struct IOApp.EnforcedOptionParam[]",
          "name": "_enforcedOptions",
          "type": "tuple[]"
        }
      ],
      "name": "SetEnforcedOption",
      "type": "event"
    },
    {
      "anonymous": false,
      "inputs": [
        {
          "indexed": false,
          "internalType": "address",
          "name": "_inspector",
          "type": "address"
        }
      ],
      "name": "SetInspector",
      "type": "event"
    },
    {
      "anonymous": false,
      "inputs": [
        {
          "indexed": false,
          "internalType": "uint32",
          "name": "remoteEid",
          "type": "uint32"
        },
        {
          "indexed": false,
          "internalType": "bytes32",
          "name": "peer",
          "type": "bytes32"
        }
      ],
      "name": "SetPeer",
      "type": "event"
    },
    {
      "anonymous": false,
      "inputs": [
        {
          "indexed": false,
          "internalType": "address",
          "name": "precrime",
          "type": "address"
        }
      ],
      "name": "SetPrecrime",
      "type": "event"
    },
    {
      "inputs": [
        {
          "internalType": "bytes",
          "name": "_callData",
          "type": "bytes"
        }
      ],
      "name": "callEndpoint",
      "outputs": [],
      "stateMutability": "nonpayable",
      "type": "function"
    },
    {
      "inputs": [],
      "name": "endpoint",
      "outputs": [
        {
          "internalType": "contract ILayerZeroEndpointV2",
          "name": "",
          "type": "address"
        }
      ],
      "stateMutability": "view",
      "type": "function"
    },
    {
      "inputs": [],
      "name": "inspector",
      "outputs": [
        {
          "internalType": "contract IInspector",
          "name": "",
          "type": "address"
        }
      ],
      "stateMutability": "view",
      "type": "function"
    },
    {
      "inputs": [
        {
          "components": [
            {
              "internalType": "uint32",
              "name": "srcEid",
              "type": "uint32"
            },
            {
              "internalType": "bytes32",
              "name": "sender",
              "type": "bytes32"
            },
            {
              "internalType": "uint64",
              "name": "nonce",
              "type": "uint64"
            }
          ],
          "internalType": "struct Origin",
          "name": "_origin",
          "type": "tuple"
        },
        {
          "internalType": "bytes32",
          "name": "_guid",
          "type": "bytes32"
        },
        {
          "internalType": "bytes",
          "name": "_message",
          "type": "bytes"
        },
        {
          "internalType": "address",
          "name": "_executor",
          "type": "address"
        },
        {
          "internalType": "bytes",
          "name": "_extraData",
          "type": "bytes"
        }
      ],
      "name": "lzReceive",
      "outputs": [],
      "stateMutability": "payable",
      "type": "function"
    },
    {
      "inputs": [
        {
          "components": [
            {
              "components": [
                {
                  "internalType": "uint32",
                  "name": "srcEid",
                  "type": "uint32"
                },
                {
                  "internalType": "bytes32",
                  "name": "sender",
                  "type": "bytes32"
                },
                {
                  "internalType": "uint64",
                  "name": "nonce",
                  "type": "uint64"
                }
              ],
              "internalType": "struct Origin",
              "name": "origin",
              "type": "tuple"
            },
            {
              "internalType": "bytes32",
              "name": "guid",
              "type": "bytes32"
            },
            {
              "internalType": "bytes",
              "name": "message",
              "type": "bytes"
            },
            {
              "internalType": "bytes",
              "name": "callParams",
              "type": "bytes"
            }
          ],
          "internalType": "struct IPreCrime.Packet[]",
          "name": "_packets",
          "type": "tuple[]"
        }
      ],
      "name": "lzReceiveAndRevert",
      "outputs": [],
      "stateMutability": "payable",
      "type": "function"
    },
    {
      "inputs": [
        {
          "internalType": "uint32",
          "name": "",
          "type": "uint32"
        },
        {
          "internalType": "bytes32",
          "name": "",
          "type": "bytes32"
        }
      ],
      "name": "nextNonce",
      "outputs": [
        {
          "internalType": "uint64",
          "name": "",
          "type": "uint64"
        }
      ],
      "stateMutability": "view",
      "type": "function"
    },
    {
      "inputs": [],
      "name": "owner",
      "outputs": [
        {
          "internalType": "address",
          "name": "",
          "type": "address"
        }
      ],
      "stateMutability": "view",
      "type": "function"
    },
    {
      "inputs": [
        {
          "internalType": "uint32",
          "name": "",
          "type": "uint32"
        }
      ],
      "name": "peers",
      "outputs": [
        {
          "internalType": "bytes32",
          "name": "",
          "type": "bytes32"
        }
      ],
      "stateMutability": "view",
      "type": "function"
    },
    {
      "inputs": [],
      "name": "precrime",
      "outputs": [
        {
          "internalType": "contract IPreCrime",
          "name": "",
          "type": "address"
        }
      ],
      "stateMutability": "view",
      "type": "function"
    },
    {
      "inputs": [
        {
          "components": [
            {
              "internalType": "bytes32",
              "name": "to",
              "type": "bytes32"
            },
            {
              "internalType": "uint256",
              "name": "amountLD",
              "type": "uint256"
            },
            {
              "internalType": "uint256",
              "name": "minAmountLD",
              "type": "uint256"
            },
            {
              "internalType": "uint32",
              "name": "dstEid",
              "type": "uint32"
            }
          ],
          "internalType": "struct IOFT.SendParam",
          "name": "_send",
          "type": "tuple"
        },
        {
          "internalType": "bytes",
          "name": "_extraOptions",
          "type": "bytes"
        },
        {
          "internalType": "bool",
          "name": "_useLZToken",
          "type": "bool"
        },
        {
          "internalType": "bytes",
          "name": "_composeMsg",
          "type": "bytes"
        }
      ],
      "name": "quoteSendAndCallFee",
      "outputs": [
        {
          "internalType": "uint256",
          "name": "nativeFee",
          "type": "uint256"
        },
        {
          "internalType": "uint256",
          "name": "lzTokenFee",
          "type": "uint256"
        }
      ],
      "stateMutability": "view",
      "type": "function"
    },
    {
      "inputs": [
        {
          "components": [
            {
              "internalType": "bytes32",
              "name": "to",
              "type": "bytes32"
            },
            {
              "internalType": "uint256",
              "name": "amountLD",
              "type": "uint256"
            },
            {
              "internalType": "uint256",
              "name": "minAmountLD",
              "type": "uint256"
            },
            {
              "internalType": "uint32",
              "name": "dstEid",
              "type": "uint32"
            }
          ],
          "internalType": "struct IOFT.SendParam",
          "name": "_send",
          "type": "tuple"
        },
        {
          "internalType": "bytes",
          "name": "_extraOptions",
          "type": "bytes"
        },
        {
          "internalType": "bool",
          "name": "_useLZToken",
          "type": "bool"
        }
      ],
      "name": "quoteSendFee",
      "outputs": [
        {
          "internalType": "uint256",
          "name": "nativeFee",
          "type": "uint256"
        },
        {
          "internalType": "uint256",
          "name": "lzTokenFee",
          "type": "uint256"
        }
      ],
      "stateMutability": "view",
      "type": "function"
    },
    {
      "inputs": [],
      "name": "renounceOwnership",
      "outputs": [],
      "stateMutability": "nonpayable",
      "type": "function"
    },
    {
      "inputs": [
        {
          "internalType": "uint32",
          "name": "_eid",
          "type": "uint32"
        }
      ],
      "name": "safeGetPeer",
      "outputs": [
        {
          "internalType": "bytes32",
          "name": "peer",
          "type": "bytes32"
        }
      ],
      "stateMutability": "view",
      "type": "function"
    },
    {
      "inputs": [
        {
          "components": [
            {
              "internalType": "bytes32",
              "name": "to",
              "type": "bytes32"
            },
            {
              "internalType": "uint256",
              "name": "amountLD",
              "type": "uint256"
            },
            {
              "internalType": "uint256",
              "name": "minAmountLD",
              "type": "uint256"
            },
            {
              "internalType": "uint32",
              "name": "dstEid",
              "type": "uint32"
            }
          ],
          "internalType": "struct IOFT.SendParam",
          "name": "_send",
          "type": "tuple"
        },
        {
          "internalType": "bytes",
          "name": "_extraOptions",
          "type": "bytes"
        },
        {
          "components": [
            {
              "internalType": "uint256",
              "name": "nativeFee",
              "type": "uint256"
            },
            {
              "internalType": "uint256",
              "name": "lzTokenFee",
              "type": "uint256"
            }
          ],
          "internalType": "struct MessagingFee",
          "name": "_msgFee",
          "type": "tuple"
        },
        {
          "internalType": "address payable",
          "name": "_refundAddress",
          "type": "address"
        }
      ],
      "name": "send",
      "outputs": [
        {
          "components": [
            {
              "internalType": "bytes32",
              "name": "guid",
              "type": "bytes32"
            },
            {
              "internalType": "uint64",
              "name": "nonce",
              "type": "uint64"
            },
            {
              "components": [
                {
                  "internalType": "uint256",
                  "name": "nativeFee",
                  "type": "uint256"
                },
                {
                  "internalType": "uint256",
                  "name": "lzTokenFee",
                  "type": "uint256"
                }
              ],
              "internalType": "struct MessagingFee",
              "name": "fee",
              "type": "tuple"
            }
          ],
          "internalType": "struct MessagingReceipt",
          "name": "msgReceipt",
          "type": "tuple"
        }
      ],
      "stateMutability": "payable",
      "type": "function"
    },
    {
      "inputs": [
        {
          "components": [
            {
              "internalType": "bytes32",
              "name": "to",
              "type": "bytes32"
            },
            {
              "internalType": "uint256",
              "name": "amountLD",
              "type": "uint256"
            },
            {
              "internalType": "uint256",
              "name": "minAmountLD",
              "type": "uint256"
            },
            {
              "internalType": "uint32",
              "name": "dstEid",
              "type": "uint32"
            }
          ],
          "internalType": "struct IOFT.SendParam",
          "name": "_send",
          "type": "tuple"
        },
        {
          "internalType": "bytes",
          "name": "_extraOptions",
          "type": "bytes"
        },
        {
          "components": [
            {
              "internalType": "uint256",
              "name": "nativeFee",
              "type": "uint256"
            },
            {
              "internalType": "uint256",
              "name": "lzTokenFee",
              "type": "uint256"
            }
          ],
          "internalType": "struct MessagingFee",
          "name": "_msgFee",
          "type": "tuple"
        },
        {
          "internalType": "address payable",
          "name": "_refundAddress",
          "type": "address"
        },
        {
          "internalType": "bytes",
          "name": "_composeMsg",
          "type": "bytes"
        }
      ],
      "name": "sendAndCall",
      "outputs": [
        {
          "components": [
            {
              "internalType": "bytes32",
              "name": "guid",
              "type": "bytes32"
            },
            {
              "internalType": "uint64",
              "name": "nonce",
              "type": "uint64"
            },
            {
              "components": [
                {
                  "internalType": "uint256",
                  "name": "nativeFee",
                  "type": "uint256"
                },
                {
                  "internalType": "uint256",
                  "name": "lzTokenFee",
                  "type": "uint256"
                }
              ],
              "internalType": "struct MessagingFee",
              "name": "fee",
              "type": "tuple"
            }
          ],
          "internalType": "struct MessagingReceipt",
          "name": "msgReceipt",
          "type": "tuple"
        }
      ],
      "stateMutability": "payable",
      "type": "function"
    },
    {
      "inputs": [
        {
          "components": [
            {
              "internalType": "uint16",
              "name": "msgType",
              "type": "uint16"
            },
            {
              "internalType": "uint32",
              "name": "eid",
              "type": "uint32"
            },
            {
              "internalType": "bytes",
              "name": "options",
              "type": "bytes"
            }
          ],
          "internalType": "struct IOApp.EnforcedOptionParam[]",
          "name": "_enforcedOptions",
          "type": "tuple[]"
        }
      ],
      "name": "setEnforcedOptions",
      "outputs": [],
      "stateMutability": "nonpayable",
      "type": "function"
    },
    {
      "inputs": [
        {
          "internalType": "address",
          "name": "_inspector",
          "type": "address"
        }
      ],
      "name": "setInspector",
      "outputs": [],
      "stateMutability": "nonpayable",
      "type": "function"
    },
    {
      "inputs": [
        {
          "internalType": "uint32",
          "name": "_eid",
          "type": "uint32"
        },
        {
          "internalType": "bytes32",
          "name": "_peer",
          "type": "bytes32"
        }
      ],
      "name": "setPeer",
      "outputs": [],
      "stateMutability": "nonpayable",
      "type": "function"
    },
    {
      "inputs": [
        {
          "internalType": "address",
          "name": "_precrime",
          "type": "address"
        }
      ],
      "name": "setPrecrime",
      "outputs": [],
      "stateMutability": "nonpayable",
      "type": "function"
    },
    {
      "inputs": [],
      "name": "sharedDecimals",
      "outputs": [
        {
          "internalType": "uint8",
          "name": "",
          "type": "uint8"
        }
      ],
      "stateMutability": "view",
      "type": "function"
    },
    {
      "inputs": [],
      "name": "token",
      "outputs": [
        {
          "internalType": "address",
          "name": "",
          "type": "address"
        }
      ],
      "stateMutability": "view",
      "type": "function"
    },
    {
      "inputs": [
        {
          "internalType": "address",
          "name": "newOwner",
          "type": "address"
        }
      ],
      "name": "transferOwnership",
      "outputs": [],
      "stateMutability": "nonpayable",
      "type": "function"
    },
    {
      "inputs": [],
      "name": "version",
      "outputs": [
        {
          "internalType": "uint256",
          "name": "",
          "type": "uint256"
        }
      ],
      "stateMutability": "view",
      "type": "function"
    },
    {
      "stateMutability": "payable",
      "type": "receive"
    }
  ],
  "bytecode": "0x60e06040523480156200001157600080fd5b506040516200345c3803806200345c8339810160408190526200003491620001e9565b81818062000042336200016a565b6001600160a01b0316608052600660ff8316101562000074576040516384564cb760e01b815260040160405180910390fd5b6200008160068362000249565b6200008e90600a62000368565b60a05250506001600160a01b03831660c081905260408051600481526024810182526020810180516001600160e01b031663313ce56760e01b179052905160009283929091620000df919062000380565b600060405180830381855afa9150503d80600081146200011c576040519150601f19603f3d011682016040523d82523d6000602084013e62000121565b606091505b5091509150816200013157600080fd5b600081806020019051810190620001499190620003b1565b90508060ff168560ff16146200015e57600080fd5b505050505050620003cf565b600080546001600160a01b038381166001600160a01b0319831681178455604051919092169283917f8be0079c531659141344cd1fd0a4f28419497f9722a3daafe3b4186f6b6457e09190a35050565b80516001600160a01b0381168114620001d257600080fd5b919050565b805160ff81168114620001d257600080fd5b600080600060608486031215620001ff57600080fd5b6200020a84620001ba565b92506200021a60208501620001d7565b91506200022a60408501620001ba565b90509250925092565b634e487b7160e01b600052601160045260246000fd5b60ff828116828216039081111562000265576200026562000233565b92915050565b600181815b80851115620002ac57816000190482111562000290576200029062000233565b808516156200029e57918102915b93841c939080029062000270565b509250929050565b600082620002c55750600162000265565b81620002d45750600062000265565b8160018114620002ed5760028114620002f85762000318565b600191505062000265565b60ff8411156200030c576200030c62000233565b50506001821b62000265565b5060208310610133831016604e8410600b84101617156200033d575081810a62000265565b6200034983836200026b565b806000190482111562000360576200036062000233565b029392505050565b60006200037960ff841683620002b4565b9392505050565b6000825160005b81811015620003a3576020818601810151858301520162000387565b506000920191825250919050565b600060208284031215620003c457600080fd5b6200037982620001d7565b60805160a05160c05161301e6200043e600039600081816104f8015281816118c201526119940152600081816116dc015281816118770152611b660152600081816102ab0152818161065b01528181610eab015281816113220152818161171f0152611a0b015261301e6000f3fe6080604052600436106101845760003560e01c80638da5cb5b116100d6578063d0a227531161007f578063f2fde38b11610059578063f2fde38b146104b6578063f5c6ba5a146104d6578063fc0c546a146104e957600080fd5b8063d0a2275314610456578063dbcd3b9114610469578063ed2cee9e1461048957600080fd5b8063b0690b3e116100b0578063b0690b3e146103e9578063baf3292d14610409578063bb0b6a531461042957600080fd5b80638da5cb5b1461035c578063950c8a7414610387578063a41d8a25146103b457600080fd5b80634e5cbf6111610138578063715018a611610112578063715018a6146102f25780637d25a05e14610307578063857749b01461034057600080fd5b80634e5cbf611461026457806354fd4d50146102845780635e280f111461029957600080fd5b806323d509ba1161016957806323d509ba146101c557806326b27f84146102165780633400288b1461024457600080fd5b8063107a93d61461019057806313137d65146101b257600080fd5b3661018b57005b600080fd5b34801561019c57600080fd5b506101b06101ab366004611faf565b61051c565b005b6101b06101c0366004612055565b610659565b6101d86101d3366004612120565b610763565b604080518251815260208084015167ffffffffffffffff16818301529282015180519282019290925291015160608201526080015b60405180910390f35b34801561022257600080fd5b506102366102313660046121b1565b6107e1565b60405190815260200161020d565b34801561025057600080fd5b506101b061025f3660046121cc565b61083b565b34801561027057600080fd5b506101b061027f3660046121f6565b6108e0565b34801561029057600080fd5b50610236600181565b3480156102a557600080fd5b506102cd7f000000000000000000000000000000000000000000000000000000000000000081565b60405173ffffffffffffffffffffffffffffffffffffffff909116815260200161020d565b3480156102fe57600080fd5b506101b0610962565b34801561031357600080fd5b506103276103223660046121cc565b610976565b60405167ffffffffffffffff909116815260200161020d565b34801561034c57600080fd5b506040516006815260200161020d565b34801561036857600080fd5b5060005473ffffffffffffffffffffffffffffffffffffffff166102cd565b34801561039357600080fd5b506003546102cd9073ffffffffffffffffffffffffffffffffffffffff1681565b3480156103c057600080fd5b506103d46103cf366004612221565b61097f565b6040805192835260208301919091520161020d565b3480156103f557600080fd5b506103d46104043660046122b7565b610a36565b34801561041557600080fd5b506101b06104243660046121f6565b610ac2565b34801561043557600080fd5b506102366104443660046121b1565b60016020526000908152604090205481565b6101d861046436600461231e565b610b3d565b34801561047557600080fd5b506101b06104843660046123ab565b610bd1565b34801561049557600080fd5b506004546102cd9073ffffffffffffffffffffffffffffffffffffffff1681565b3480156104c257600080fd5b506101b06104d13660046121f6565b610f4b565b6101b06104e4366004611faf565b611002565b3480156104f557600080fd5b507f00000000000000000000000000000000000000000000000000000000000000006102cd565b6105246111d6565b60005b8181101561061b57828282818110610541576105416123e1565b90506020028101906105539190612410565b61056190604081019061244e565b60026000868686818110610577576105776123e1565b90506020028101906105899190612410565b61059a9060408101906020016121b1565b63ffffffff1663ffffffff16815260200190815260200160002060008686868181106105c8576105c86123e1565b90506020028101906105da9190612410565b6105e89060208101906124c5565b61ffff1681526020810191909152604001600020916106089190836125aa565b5080610613816126f3565b915050610527565b507f0548419a320c116408d237dae51da66dc63603dfd20bd99ba0c8be4c5ff7a200828260405161064d929190612774565b60405180910390a15050565b7f000000000000000000000000000000000000000000000000000000000000000073ffffffffffffffffffffffffffffffffffffffff1633146106cf576040517fab08c09e0000000000000000000000000000000000000000000000000000000081523360048201526024015b60405180910390fd5b602087018035906106e490610231908a6121b1565b14610721576040517fc59a4f64000000000000000000000000000000000000000000000000000000008152602088013560048201526024016106c6565b61074b61073160208901896121b1565b602089013561074660608b0160408c016128c8565b505050565b61075a87878787878787611257565b50505050505050565b61076b611f1b565b6107d7866107c061078260808301606084016121b1565b600189898080601f0160208091040260200160405190810160405280939291908181526020018383808284376000920191909152506113f892505050565b858560405180602001604052806000815250611448565b9695505050505050565b63ffffffff811660009081526001602052604090205480610836576040517f196fb6c000000000000000000000000000000000000000000000000000000000815263ffffffff831660048201526024016106c6565b919050565b6108436111d6565b63ffffffff8216600090815260016020526040902054819003610892576040517f9556766100000000000000000000000000000000000000000000000000000000815260040160405180910390fd5b63ffffffff8216600081815260016020908152604091829020849055815192835282018390527fd81b9101f39c530fa8f18e6c9c5a64e4a3d7cb699e959f5d7abb5951c65e318f910161064d565b6108e86111d6565b600480547fffffffffffffffffffffffff00000000000000000000000000000000000000001673ffffffffffffffffffffffffffffffffffffffff83169081179091556040519081527ff8b6b91dd680bf19d37570578ae915537e6e8cd2106736ad3ca05b30447a72b0906020015b60405180910390a150565b61096a6111d6565b6109746000611660565b565b60005b92915050565b600080610a2761099560808a0160608b016121b1565b6109d08a356109a760208d01356116d5565b3389896040516020016109bc939291906128e5565b604051602081830303815290604052611701565b87610a226109e460808e0160608f016121b1565b60028d8d8080601f0160208091040260200160405190810160405280939291908181526020018383808284376000920191909152506113f892505050565b611718565b90999098509650505050505050565b600080610ab5610a4c60808801606089016121b1565b610a638835610a5e60208b01356116d5565b6117d4565b85610a22610a7760808c0160608d016121b1565b60018b8b8080601f0160208091040260200160405190810160405280939291908181526020018383808284376000920191909152506113f892505050565b9097909650945050505050565b610aca6111d6565b600380547fffffffffffffffffffffffff00000000000000000000000000000000000000001673ffffffffffffffffffffffffffffffffffffffff83169081179091556040519081527f5db758e995a17ec1ad84bdef7e8c3293a0bd6179bcce400dff5d4c3d87db726b90602001610957565b610b45611f1b565b610bc588610b9a610b5c60808301606084016121b1565b60028b8b8080601f0160208091040260200160405190810160405280939291908181526020018383808284376000920191909152506113f892505050565b8787338888604051602001610bb1939291906128e5565b604051602081830303815290604052611448565b98975050505050505050565b610bd96111d6565b6000610be582846128ff565b90507fffffffff0000000000000000000000000000000000000000000000000000000081167fb8007ff6000000000000000000000000000000000000000000000000000000001480610c7857507fffffffff0000000000000000000000000000000000000000000000000000000081167f9e7fffcc00000000000000000000000000000000000000000000000000000000145b80610cc457507fffffffff0000000000000000000000000000000000000000000000000000000081167f0678327f00000000000000000000000000000000000000000000000000000000145b80610d1057507fffffffff0000000000000000000000000000000000000000000000000000000081167fb8849ac900000000000000000000000000000000000000000000000000000000145b80610d5c57507fffffffff0000000000000000000000000000000000000000000000000000000081167fe16f964d00000000000000000000000000000000000000000000000000000000145b80610da857507fffffffff0000000000000000000000000000000000000000000000000000000081167f66bf43d600000000000000000000000000000000000000000000000000000000145b80610df457507fffffffff0000000000000000000000000000000000000000000000000000000081167f965183d400000000000000000000000000000000000000000000000000000000145b80610e4057507fffffffff0000000000000000000000000000000000000000000000000000000081167feaeacd6300000000000000000000000000000000000000000000000000000000145b610ea6576040517f08c379a000000000000000000000000000000000000000000000000000000000815260206004820152601a60248201527f4f4170703a2066756e6374696f6e206e6f7420616c6c6f77656400000000000060448201526064016106c6565b6000807f000000000000000000000000000000000000000000000000000000000000000073ffffffffffffffffffffffffffffffffffffffff168585604051610ef0929190612947565b6000604051808303816000865af19150503d8060008114610f2d576040519150601f19603f3d011682016040523d82523d6000602084013e610f32565b606091505b509150915081610f4457805160208201fd5b5050505050565b610f536111d6565b73ffffffffffffffffffffffffffffffffffffffff8116610ff6576040517f08c379a000000000000000000000000000000000000000000000000000000000815260206004820152602660248201527f4f776e61626c653a206e6577206f776e657220697320746865207a65726f206160448201527f646472657373000000000000000000000000000000000000000000000000000060648201526084016106c6565b610fff81611660565b50565b60035473ffffffffffffffffffffffffffffffffffffffff163314611055576040517fc023811c0000000000000000000000000000000000000000000000000000000081523360048201526024016106c6565b60005b818110156110eb5736838383818110611073576110736123e1565b90506020028101906110859190612957565b9050600061109961023160208401846121b1565b9050602082013581146110ad5750506110d9565b6110d68260608101356110c3608083018361244e565b336110d160a089018961244e565b611257565b50505b806110e3816126f3565b915050611058565b50600354604080517fd2968d57000000000000000000000000000000000000000000000000000000008152905160019273ffffffffffffffffffffffffffffffffffffffff169163d2968d579160048083019260009291908290030181865afa15801561115c573d6000803e3d6000fd5b505050506040513d6000823e601f3d9081017fffffffffffffffffffffffffffffffffffffffffffffffffffffffffffffffe01682016040526111a291908101906129d8565b6040517f0a78da8f0000000000000000000000000000000000000000000000000000000081526004016106c6929190612ae2565b60005473ffffffffffffffffffffffffffffffffffffffff163314610974576040517f08c379a000000000000000000000000000000000000000000000000000000000815260206004820181905260248201527f4f776e61626c653a2063616c6c6572206973206e6f7420746865206f776e657260448201526064016106c6565b6000611269611266878761182e565b90565b9050600061129761128261127d898961184d565b611870565b8361129060208d018d6121b1565b5090919050565b905060006112a583836118a6565b9050602887111561138f5760006112e26112c560608d0160408e016128c8565b6112d260208e018e6121b1565b846112dd8d8d6118ef565b61193a565b6040517f754d3b9c00000000000000000000000000000000000000000000000000000000815290915073ffffffffffffffffffffffffffffffffffffffff7f0000000000000000000000000000000000000000000000000000000000000000169063754d3b9c9061135b9087908e908690600401612aff565b600060405180830381600087803b15801561137557600080fd5b505af1158015611389573d6000803e3d6000fd5b50505050505b61139c611266898961182e565b73ffffffffffffffffffffffffffffffffffffffff16897ffc1b5feb636aa495ed28914895ca443adffbd4e2da951d5694baa392b4ebd158836040516113e491815260200190565b60405180910390a350505050505050505050565b63ffffffff8316600090815260026020908152604080832061ffff861684528252918290209151606092611430929091859101612b34565b60405160208183030381529060405290509392505050565b611450611f1b565b600061146e602088013561146a60808a0160608b016121b1565b5090565b9050600061147b8261196c565b905087604001358110156114c857604080517fac7247ca000000000000000000000000000000000000000000000000000000008152600481018390529089013560248201526044016106c6565b606084516000036114e8576114e18935610a5e846116d5565b90506114ff565b6114fc89356114f6846116d5565b87611701565b90505b60045473ffffffffffffffffffffffffffffffffffffffff16156115b757600480546040517f043a78eb00000000000000000000000000000000000000000000000000000000815273ffffffffffffffffffffffffffffffffffffffff9091169163043a78eb916115749185918d9101612bd9565b602060405180830381865afa158015611591573d6000803e3d6000fd5b505050506040513d601f19601f820116820180604052508101906115b59190612bfe565b505b61161a60405180608001604052808b60600160208101906115d891906121b1565b63ffffffff1681526020016115f661023160808e0160608f016121b1565b8152602081018490526040018a9052611614368a90038a018a612c1b565b886119bc565b805160405184815291955033917f3131f8d7ad296b074b480a9f6b3a760579632740b870b78725975df31c5da7789060200160405180910390a350505095945050505050565b6000805473ffffffffffffffffffffffffffffffffffffffff8381167fffffffffffffffffffffffff0000000000000000000000000000000000000000831681178455604051919092169283917f8be0079c531659141344cd1fd0a4f28419497f9722a3daafe3b4186f6b6457e09190a35050565b60006109797f000000000000000000000000000000000000000000000000000000000000000083612c4d565b606083838360405160200161143093929190612c88565b60008060007f000000000000000000000000000000000000000000000000000000000000000073ffffffffffffffffffffffffffffffffffffffff166383c4755930898989896040518663ffffffff1660e01b815260040161177e959493929190612cda565b6040805180830381865afa15801561179a573d6000803e3d6000fd5b505050506040513d601f19601f820116820180604052508101906117be9190612d5f565b8051602090910151909890975095505050505050565b6060828260405160200161181792919091825260c01b7fffffffffffffffff00000000000000000000000000000000000000000000000016602082015260280190565b604051602081830303815290604052905092915050565b600061183d6020828486612d7b565b61184691612da5565b9392505050565b600061185d602860208486612d7b565b61186691612de1565b60c01c9392505050565b60006109797f000000000000000000000000000000000000000000000000000000000000000067ffffffffffffffff8416612e27565b60006118e973ffffffffffffffffffffffffffffffffffffffff7f0000000000000000000000000000000000000000000000000000000000000000168484611a8e565b50919050565b60606118fe8260288186612d7b565b8080601f016020809104026020016040519081016040528093929190818152602001838380828437600092019190915250929695505050505050565b6060848484846040516020016119539493929190612e3e565b6040516020818303038152906040529050949350505050565b60008061197883611b62565b905061097973ffffffffffffffffffffffffffffffffffffffff7f000000000000000000000000000000000000000000000000000000000000000016333084611b99565b6119c4611f1b565b825160208401516040517faca1b45a00000000000000000000000000000000000000000000000000000000815260009273ffffffffffffffffffffffffffffffffffffffff7f0000000000000000000000000000000000000000000000000000000000000000169263aca1b45a92611a42918a918990600401612ebc565b60806040518083038185885af1158015611a60573d6000803e3d6000fd5b50505050506040513d601f19601f82011682018060405250810190611a859190612f5b565b95945050505050565b60405173ffffffffffffffffffffffffffffffffffffffff83166024820152604481018290526107469084907fa9059cbb00000000000000000000000000000000000000000000000000000000906064015b604080517fffffffffffffffffffffffffffffffffffffffffffffffffffffffffffffffe08184030181529190526020810180517bffffffffffffffffffffffffffffffffffffffffffffffffffffffff167fffffffff0000000000000000000000000000000000000000000000000000000090931692909217909152611bfd565b60007f0000000000000000000000000000000000000000000000000000000000000000611b8f8184612c4d565b6109799190612e27565b60405173ffffffffffffffffffffffffffffffffffffffff80851660248301528316604482015260648101829052611bf79085907f23b872dd0000000000000000000000000000000000000000000000000000000090608401611ae0565b50505050565b6000611c5f826040518060400160405280602081526020017f5361666545524332303a206c6f772d6c6576656c2063616c6c206661696c65648152508573ffffffffffffffffffffffffffffffffffffffff16611d0c9092919063ffffffff16565b9050805160001480611c80575080806020019051810190611c809190612bfe565b610746576040517f08c379a000000000000000000000000000000000000000000000000000000000815260206004820152602a60248201527f5361666545524332303a204552433230206f7065726174696f6e20646964206e60448201527f6f7420737563636565640000000000000000000000000000000000000000000060648201526084016106c6565b6060611d1b8484600085611d23565b949350505050565b606082471015611db5576040517f08c379a000000000000000000000000000000000000000000000000000000000815260206004820152602660248201527f416464726573733a20696e73756666696369656e742062616c616e636520666f60448201527f722063616c6c000000000000000000000000000000000000000000000000000060648201526084016106c6565b6000808673ffffffffffffffffffffffffffffffffffffffff168587604051611dde9190612fc3565b60006040518083038185875af1925050503d8060008114611e1b576040519150601f19603f3d011682016040523d82523d6000602084013e611e20565b606091505b5091509150611e3187838387611e3c565b979650505050505050565b60608315611ed2578251600003611ecb5773ffffffffffffffffffffffffffffffffffffffff85163b611ecb576040517f08c379a000000000000000000000000000000000000000000000000000000000815260206004820152601d60248201527f416464726573733a2063616c6c20746f206e6f6e2d636f6e747261637400000060448201526064016106c6565b5081611d1b565b611d1b8383815115611ee75781518083602001fd5b806040517f08c379a00000000000000000000000000000000000000000000000000000000081526004016106c69190612fd5565b604051806060016040528060008019168152602001600067ffffffffffffffff168152602001611f5e604051806040016040528060008152602001600081525090565b905290565b60008083601f840112611f7557600080fd5b50813567ffffffffffffffff811115611f8d57600080fd5b6020830191508360208260051b8501011115611fa857600080fd5b9250929050565b60008060208385031215611fc257600080fd5b823567ffffffffffffffff811115611fd957600080fd5b611fe585828601611f63565b90969095509350505050565b60008083601f84011261200357600080fd5b50813567ffffffffffffffff81111561201b57600080fd5b602083019150836020828501011115611fa857600080fd5b73ffffffffffffffffffffffffffffffffffffffff81168114610fff57600080fd5b600080600080600080600087890360e081121561207157600080fd5b606081121561207f57600080fd5b5087965060608801359550608088013567ffffffffffffffff808211156120a557600080fd5b6120b18b838c01611ff1565b909750955060a08a013591506120c682612033565b90935060c089013590808211156120dc57600080fd5b506120e98a828b01611ff1565b989b979a50959850939692959293505050565b6000608082840312156118e957600080fd5b6000604082840312156118e957600080fd5b6000806000806000610100868803121561213957600080fd5b61214387876120fc565b9450608086013567ffffffffffffffff81111561215f57600080fd5b61216b88828901611ff1565b909550935061217f90508760a0880161210e565b915060e086013561218f81612033565b809150509295509295909350565b803563ffffffff8116811461083657600080fd5b6000602082840312156121c357600080fd5b6118468261219d565b600080604083850312156121df57600080fd5b6121e88361219d565b946020939093013593505050565b60006020828403121561220857600080fd5b813561184681612033565b8015158114610fff57600080fd5b60008060008060008060e0878903121561223a57600080fd5b61224488886120fc565b9550608087013567ffffffffffffffff8082111561226157600080fd5b61226d8a838b01611ff1565b909750955060a0890135915061228282612213565b90935060c0880135908082111561229857600080fd5b506122a589828a01611ff1565b979a9699509497509295939492505050565b60008060008060c085870312156122cd57600080fd5b6122d786866120fc565b9350608085013567ffffffffffffffff8111156122f357600080fd5b6122ff87828801611ff1565b90945092505060a085013561231381612213565b939692955090935050565b6000806000806000806000610120888a03121561233a57600080fd5b61234489896120fc565b9650608088013567ffffffffffffffff8082111561236157600080fd5b61236d8b838c01611ff1565b90985096508691506123828b60a08c0161210e565b955060e08a0135915061239482612033565b90935061010089013590808211156120dc57600080fd5b600080602083850312156123be57600080fd5b823567ffffffffffffffff8111156123d557600080fd5b611fe585828601611ff1565b7f4e487b7100000000000000000000000000000000000000000000000000000000600052603260045260246000fd5b600082357fffffffffffffffffffffffffffffffffffffffffffffffffffffffffffffffa183360301811261244457600080fd5b9190910192915050565b60008083357fffffffffffffffffffffffffffffffffffffffffffffffffffffffffffffffe184360301811261248357600080fd5b83018035915067ffffffffffffffff82111561249e57600080fd5b602001915036819003821315611fa857600080fd5b803561ffff8116811461083657600080fd5b6000602082840312156124d757600080fd5b611846826124b3565b7f4e487b7100000000000000000000000000000000000000000000000000000000600052604160045260246000fd5b600181811c9082168061252357607f821691505b6020821081036118e9577f4e487b7100000000000000000000000000000000000000000000000000000000600052602260045260246000fd5b601f82111561074657600081815260208120601f850160051c810160208610156125835750805b601f850160051c820191505b818110156125a25782815560010161258f565b505050505050565b67ffffffffffffffff8311156125c2576125c26124e0565b6125d6836125d0835461250f565b8361255c565b6000601f84116001811461262857600085156125f25750838201355b7fffffffffffffffffffffffffffffffffffffffffffffffffffffffffffffffff600387901b1c1916600186901b178355610f44565b6000838152602090207fffffffffffffffffffffffffffffffffffffffffffffffffffffffffffffffe0861690835b828110156126775786850135825560209485019460019092019101612657565b50868210156126b2577fffffffffffffffffffffffffffffffffffffffffffffffffffffffffffffffff60f88860031b161c19848701351681555b505060018560011b0183555050505050565b7f4e487b7100000000000000000000000000000000000000000000000000000000600052601160045260246000fd5b60007fffffffffffffffffffffffffffffffffffffffffffffffffffffffffffffffff8203612724576127246126c4565b5060010190565b8183528181602085013750600060208284010152600060207fffffffffffffffffffffffffffffffffffffffffffffffffffffffffffffffe0601f840116840101905092915050565b60208082528181018390526000906040808401600586901b8501820187855b888110156128a4577fffffffffffffffffffffffffffffffffffffffffffffffffffffffffffffffc088840301845281357fffffffffffffffffffffffffffffffffffffffffffffffffffffffffffffffa18b36030181126127f457600080fd5b8a01606061ffff612804836124b3565b16855263ffffffff61281789840161219d565b1688860152868201357fffffffffffffffffffffffffffffffffffffffffffffffffffffffffffffffe183360301811261285057600080fd5b90910187810191903567ffffffffffffffff81111561286e57600080fd5b80360383131561287d57600080fd5b818887015261288f828701828561272b565b96890196955050509186019150600101612793565b509098975050505050505050565b67ffffffffffffffff81168114610fff57600080fd5b6000602082840312156128da57600080fd5b8135611846816128b2565b838152818360208301376000910160200190815292915050565b7fffffffff00000000000000000000000000000000000000000000000000000000813581811691600485101561293f5780818660040360031b1b83161692505b505092915050565b8183823760009101908152919050565b600082357fffffffffffffffffffffffffffffffffffffffffffffffffffffffffffffff4183360301811261244457600080fd5b6040805190810167ffffffffffffffff811182821017156129ae576129ae6124e0565b60405290565b60005b838110156129cf5781810151838201526020016129b7565b50506000910152565b6000602082840312156129ea57600080fd5b815167ffffffffffffffff80821115612a0257600080fd5b818401915084601f830112612a1657600080fd5b815181811115612a2857612a286124e0565b604051601f82017fffffffffffffffffffffffffffffffffffffffffffffffffffffffffffffffe0908116603f01168101908382118183101715612a6e57612a6e6124e0565b81604052828152876020848701011115612a8757600080fd5b611e318360208301602088016129b4565b60008151808452612ab08160208601602086016129b4565b601f017fffffffffffffffffffffffffffffffffffffffffffffffffffffffffffffffe0169290920160200192915050565b61ffff83168152604060208201526000611d1b6040830184612a98565b73ffffffffffffffffffffffffffffffffffffffff84168152826020820152606060408201526000611a856060830184612a98565b6000808454612b428161250f565b60018281168015612b5a5760018114612b8d57612bbc565b7fffffffffffffffffffffffffffffffffffffffffffffffffffffffffffffff0084168752821515830287019450612bbc565b8860005260208060002060005b85811015612bb35781548a820152908401908201612b9a565b50505082870194505b505050508351612bd08183602088016129b4565b01949350505050565b604081526000612bec6040830185612a98565b8281036020840152611a858185612a98565b600060208284031215612c1057600080fd5b815161184681612213565b600060408284031215612c2d57600080fd5b612c3561298b565b82358152602083013560208201528091505092915050565b600082612c83577f4e487b7100000000000000000000000000000000000000000000000000000000600052601260045260246000fd5b500490565b8381527fffffffffffffffff0000000000000000000000000000000000000000000000008360c01b16602082015260008251612ccb8160288501602087016129b4565b91909101602801949350505050565b73ffffffffffffffffffffffffffffffffffffffff8616815263ffffffff8516602082015260a060408201526000612d1560a0830186612a98565b84151560608401528281036080840152610bc58185612a98565b600060408284031215612d4157600080fd5b612d4961298b565b9050815181526020820151602082015292915050565b600060408284031215612d7157600080fd5b6118468383612d2f565b60008085851115612d8b57600080fd5b83861115612d9857600080fd5b5050820193919092039150565b80356020831015610979577fffffffffffffffffffffffffffffffffffffffffffffffffffffffffffffffff602084900360031b1b1692915050565b7fffffffffffffffff000000000000000000000000000000000000000000000000813581811691600885101561293f5760089490940360031b84901b1690921692915050565b8082028115828204841417610979576109796126c4565b7fffffffffffffffff0000000000000000000000000000000000000000000000008560c01b1681527fffffffff000000000000000000000000000000000000000000000000000000008460e01b16600882015282600c82015260008251612eac81602c8501602087016129b4565b91909101602c0195945050505050565b6060815263ffffffff84511660608201526020840151608082015260006040850151608060a0840152612ef260e0840182612a98565b905060608601517fffffffffffffffffffffffffffffffffffffffffffffffffffffffffffffffa08483030160c0850152612f2d8282612a98565b9250505083602083015273ffffffffffffffffffffffffffffffffffffffff83166040830152949350505050565b600060808284031215612f6d57600080fd5b6040516060810181811067ffffffffffffffff82111715612f9057612f906124e0565b604052825181526020830151612fa5816128b2565b6020820152612fb78460408501612d2f565b60408201529392505050565b600082516124448184602087016129b4565b6020815260006118466020830184612a9856fea26469706673582212202fdf8fc3ceca71957cf9c0bab5681ae06daa58e16a6baf8026a64363f412c02064736f6c63430008130033",
  "linkReferences": {},
  "deployedLinkReferences": {}
}