{
  "_format": "hh-sol-artifact-1",
  "contractName": "OFTAdapter",
  "sourceName": "contracts/standards/oft/OFTAdapter.sol",
  "abi": [
    {
      "inputs": [
        {
          "internalType": "address",
          "name": "_token",
          "type": "address"
        },
        {
          "internalType": "uint8",
          "name": "_localDecimals",
          "type": "uint8"
        },
        {
          "internalType": "address",
          "name": "_endpoint",
          "type": "address"
        }
      ],
      "stateMutability": "nonpayable",
      "type": "constructor"
    },
    {
      "inputs": [
        {
          "internalType": "uint256",
          "name": "_amountLDSend",
          "type": "uint256"
        },
        {
          "internalType": "uint256",
          "name": "_minAmountLD",
          "type": "uint256"
        }
      ],
      "name": "AmountSlippage",
      "type": "error"
    },
    {
      "inputs": [
        {
          "internalType": "address",
          "name": "addr",
          "type": "address"
        }
      ],
      "name": "EndpointOnly",
      "type": "error"
    },
    {
      "inputs": [
        {
          "internalType": "bytes32",
          "name": "addr",
          "type": "bytes32"
        }
      ],
      "name": "InvalidPeer",
      "type": "error"
    },
    {
      "inputs": [],
      "name": "InvalidPeerState",
      "type": "error"
    },
    {
      "inputs": [],
      "name": "LDMinusSD",
      "type": "error"
    },
    {
      "inputs": [
        {
          "internalType": "uint16",
          "name": "code",
          "type": "uint16"
        },
        {
          "internalType": "bytes",
          "name": "result",
          "type": "bytes"
        }
      ],
      "name": "LzReceiveRevert",
      "type": "error"
    },
    {
      "inputs": [
        {
          "internalType": "uint32",
          "name": "eid",
          "type": "uint32"
        }
      ],
      "name": "NoPeerSet",
      "type": "error"
    },
    {
      "inputs": [
        {
          "internalType": "address",
          "name": "addr",
          "type": "address"
        }
      ],
      "name": "PreCrimeOnly",
      "type": "error"
    },
    {
      "anonymous": false,
      "inputs": [
        {
          "indexed": true,
          "internalType": "address",
          "name": "previousOwner",
          "type": "address"
        },
        {
          "indexed": true,
          "internalType": "address",
          "name": "newOwner",
          "type": "address"
        }
      ],
      "name": "OwnershipTransferred",
      "type": "event"
    },
    {
      "anonymous": false,
      "inputs": [
        {
          "indexed": true,
          "internalType": "bytes32",
          "name": "_guid",
          "type": "bytes32"
        },
        {
          "indexed": true,
          "internalType": "address",
          "name": "_toAddress",
          "type": "address"
        },
        {
          "indexed": false,
          "internalType": "uint256",
          "name": "_amountLD",
          "type": "uint256"
        }
      ],
      "name": "ReceiveOFT",
      "type": "event"
    },
    {
      "anonymous": false,
      "inputs": [
        {
          "indexed": true,
          "internalType": "bytes32",
          "name": "_guid",
          "type": "bytes32"
        },
        {
          "indexed": true,
          "internalType": "address",
          "name": "_fromAddress",
          "type": "address"
        },
        {
          "indexed": false,
          "internalType": "uint256",
          "name": "_amountLD",
          "type": "uint256"
        }
      ],
      "name": "SendOFT",
      "type": "event"
    },
    {
      "anonymous": false,
      "inputs": [
        {
          "components": [
            {
              "internalType": "uint256",
              "name": "executionType",
              "type": "uint256"
            },
            {
              "internalType": "uint32",
              "name": "eid",
              "type": "uint32"
            },
            {
              "internalType": "bytes",
              "name": "options",
              "type": "bytes"
            }
          ],
          "indexed": false,
          "internalType": "struct IOFT.EnforcedOptionParam[]",
          "name": "_enforcedOptions",
          "type": "tuple[]"
        }
      ],
      "name": "SetEnforcedOption",
      "type": "event"
    },
    {
      "anonymous": false,
      "inputs": [
        {
          "indexed": false,
          "internalType": "address",
          "name": "_inspector",
          "type": "address"
        }
      ],
      "name": "SetInspector",
      "type": "event"
    },
    {
      "anonymous": false,
      "inputs": [
        {
          "indexed": false,
          "internalType": "uint32",
          "name": "remoteEid",
          "type": "uint32"
        },
        {
          "indexed": false,
          "internalType": "bytes32",
          "name": "peer",
          "type": "bytes32"
        },
        {
          "indexed": false,
          "internalType": "bool",
          "name": "active",
          "type": "bool"
        }
      ],
      "name": "SetPeer",
      "type": "event"
    },
    {
      "anonymous": false,
      "inputs": [
        {
          "indexed": false,
          "internalType": "address",
          "name": "precrime",
          "type": "address"
        }
      ],
      "name": "SetPrecrime",
      "type": "event"
    },
    {
      "inputs": [],
      "name": "endpoint",
      "outputs": [
        {
          "internalType": "contract ILayerZeroEndpointV2",
          "name": "",
          "type": "address"
        }
      ],
      "stateMutability": "view",
      "type": "function"
    },
    {
      "inputs": [],
      "name": "inspector",
      "outputs": [
        {
          "internalType": "contract IInspector",
          "name": "",
          "type": "address"
        }
      ],
      "stateMutability": "view",
      "type": "function"
    },
    {
      "inputs": [
        {
          "components": [
            {
              "internalType": "uint32",
              "name": "srcEid",
              "type": "uint32"
            },
            {
              "internalType": "bytes32",
              "name": "sender",
              "type": "bytes32"
            },
            {
              "internalType": "uint64",
              "name": "nonce",
              "type": "uint64"
            }
          ],
          "internalType": "struct IMessageOrigin.MessageOrigin",
          "name": "_origin",
          "type": "tuple"
        },
        {
          "internalType": "bytes32",
          "name": "_guid",
          "type": "bytes32"
        },
        {
          "internalType": "bytes",
          "name": "_message",
          "type": "bytes"
        },
        {
          "internalType": "address",
          "name": "_executor",
          "type": "address"
        },
        {
          "internalType": "bytes",
          "name": "_extraData",
          "type": "bytes"
        }
      ],
      "name": "lzReceive",
      "outputs": [],
      "stateMutability": "payable",
      "type": "function"
    },
    {
      "inputs": [
        {
          "components": [
            {
              "components": [
                {
                  "internalType": "uint32",
                  "name": "srcEid",
                  "type": "uint32"
                },
                {
                  "internalType": "bytes32",
                  "name": "sender",
                  "type": "bytes32"
                },
                {
                  "internalType": "uint64",
                  "name": "nonce",
                  "type": "uint64"
                }
              ],
              "internalType": "struct IMessageOrigin.MessageOrigin",
              "name": "origin",
              "type": "tuple"
            },
            {
              "internalType": "bytes32",
              "name": "guid",
              "type": "bytes32"
            },
            {
              "internalType": "bytes",
              "name": "message",
              "type": "bytes"
            },
            {
              "internalType": "bytes",
              "name": "callParams",
              "type": "bytes"
            }
          ],
          "internalType": "struct IPreCrime.Packet[]",
          "name": "_packets",
          "type": "tuple[]"
        }
      ],
      "name": "lzReceiveAndRevert",
      "outputs": [],
      "stateMutability": "payable",
      "type": "function"
    },
    {
      "inputs": [
        {
          "internalType": "uint32",
          "name": "",
          "type": "uint32"
        },
        {
          "internalType": "bytes32",
          "name": "",
          "type": "bytes32"
        }
      ],
      "name": "nextNonce",
      "outputs": [
        {
          "internalType": "uint64",
          "name": "",
          "type": "uint64"
        }
      ],
      "stateMutability": "view",
      "type": "function"
    },
    {
      "inputs": [],
      "name": "owner",
      "outputs": [
        {
          "internalType": "address",
          "name": "",
          "type": "address"
        }
      ],
      "stateMutability": "view",
      "type": "function"
    },
    {
      "inputs": [
        {
          "internalType": "uint32",
          "name": "",
          "type": "uint32"
        }
      ],
      "name": "peers",
      "outputs": [
        {
          "internalType": "bytes32",
          "name": "",
          "type": "bytes32"
        }
      ],
      "stateMutability": "view",
      "type": "function"
    },
    {
      "inputs": [],
      "name": "precrime",
      "outputs": [
        {
          "internalType": "contract IPreCrime",
          "name": "",
          "type": "address"
        }
      ],
      "stateMutability": "view",
      "type": "function"
    },
    {
      "inputs": [
        {
          "components": [
            {
              "internalType": "bytes32",
              "name": "to",
              "type": "bytes32"
            },
            {
              "internalType": "uint256",
              "name": "amountLD",
              "type": "uint256"
            },
            {
              "internalType": "uint256",
              "name": "minAmountLD",
              "type": "uint256"
            },
            {
              "internalType": "uint32",
              "name": "dstEid",
              "type": "uint32"
            }
          ],
          "internalType": "struct IOFT.SendParam",
          "name": "_send",
          "type": "tuple"
        },
        {
          "internalType": "bytes",
          "name": "_extraOptions",
          "type": "bytes"
        },
        {
          "internalType": "bool",
          "name": "_useLZToken",
          "type": "bool"
        },
        {
          "internalType": "bytes",
          "name": "_composeMsg",
          "type": "bytes"
        }
      ],
      "name": "quoteSendAndCallFee",
      "outputs": [
        {
          "internalType": "uint256",
          "name": "nativeFee",
          "type": "uint256"
        },
        {
          "internalType": "uint256",
          "name": "lzTokenFee",
          "type": "uint256"
        }
      ],
      "stateMutability": "view",
      "type": "function"
    },
    {
      "inputs": [
        {
          "components": [
            {
              "internalType": "bytes32",
              "name": "to",
              "type": "bytes32"
            },
            {
              "internalType": "uint256",
              "name": "amountLD",
              "type": "uint256"
            },
            {
              "internalType": "uint256",
              "name": "minAmountLD",
              "type": "uint256"
            },
            {
              "internalType": "uint32",
              "name": "dstEid",
              "type": "uint32"
            }
          ],
          "internalType": "struct IOFT.SendParam",
          "name": "_send",
          "type": "tuple"
        },
        {
          "internalType": "bytes",
          "name": "_extraOptions",
          "type": "bytes"
        },
        {
          "internalType": "bool",
          "name": "_useLZToken",
          "type": "bool"
        }
      ],
      "name": "quoteSendFee",
      "outputs": [
        {
          "internalType": "uint256",
          "name": "nativeFee",
          "type": "uint256"
        },
        {
          "internalType": "uint256",
          "name": "lzTokenFee",
          "type": "uint256"
        }
      ],
      "stateMutability": "view",
      "type": "function"
    },
    {
      "inputs": [],
      "name": "renounceOwnership",
      "outputs": [],
      "stateMutability": "nonpayable",
      "type": "function"
    },
    {
      "inputs": [
        {
          "internalType": "uint32",
          "name": "_eid",
          "type": "uint32"
        }
      ],
      "name": "safeGetPeer",
      "outputs": [
        {
          "internalType": "bytes32",
          "name": "peer",
          "type": "bytes32"
        }
      ],
      "stateMutability": "view",
      "type": "function"
    },
    {
      "inputs": [
        {
          "components": [
            {
              "internalType": "bytes32",
              "name": "to",
              "type": "bytes32"
            },
            {
              "internalType": "uint256",
              "name": "amountLD",
              "type": "uint256"
            },
            {
              "internalType": "uint256",
              "name": "minAmountLD",
              "type": "uint256"
            },
            {
              "internalType": "uint32",
              "name": "dstEid",
              "type": "uint32"
            }
          ],
          "internalType": "struct IOFT.SendParam",
          "name": "_send",
          "type": "tuple"
        },
        {
          "internalType": "bytes",
          "name": "_extraOptions",
          "type": "bytes"
        },
        {
          "components": [
            {
              "internalType": "uint256",
              "name": "nativeFee",
              "type": "uint256"
            },
            {
              "internalType": "uint256",
              "name": "lzTokenFee",
              "type": "uint256"
            }
          ],
          "internalType": "struct ILayerZeroEndpointV2.MessagingFee",
          "name": "_msgFee",
          "type": "tuple"
        },
        {
          "internalType": "address payable",
          "name": "_refundAddress",
          "type": "address"
        }
      ],
      "name": "send",
      "outputs": [
        {
          "components": [
            {
              "internalType": "bytes32",
              "name": "guid",
              "type": "bytes32"
            },
            {
              "internalType": "uint64",
              "name": "nonce",
              "type": "uint64"
            },
            {
              "components": [
                {
                  "internalType": "uint256",
                  "name": "nativeFee",
                  "type": "uint256"
                },
                {
                  "internalType": "uint256",
                  "name": "lzTokenFee",
                  "type": "uint256"
                }
              ],
              "internalType": "struct ILayerZeroEndpointV2.MessagingFee",
              "name": "fee",
              "type": "tuple"
            }
          ],
          "internalType": "struct ILayerZeroEndpointV2.MessagingReceipt",
          "name": "msgReceipt",
          "type": "tuple"
        }
      ],
      "stateMutability": "payable",
      "type": "function"
    },
    {
      "inputs": [
        {
          "components": [
            {
              "internalType": "bytes32",
              "name": "to",
              "type": "bytes32"
            },
            {
              "internalType": "uint256",
              "name": "amountLD",
              "type": "uint256"
            },
            {
              "internalType": "uint256",
              "name": "minAmountLD",
              "type": "uint256"
            },
            {
              "internalType": "uint32",
              "name": "dstEid",
              "type": "uint32"
            }
          ],
          "internalType": "struct IOFT.SendParam",
          "name": "_send",
          "type": "tuple"
        },
        {
          "internalType": "bytes",
          "name": "_extraOptions",
          "type": "bytes"
        },
        {
          "components": [
            {
              "internalType": "uint256",
              "name": "nativeFee",
              "type": "uint256"
            },
            {
              "internalType": "uint256",
              "name": "lzTokenFee",
              "type": "uint256"
            }
          ],
          "internalType": "struct ILayerZeroEndpointV2.MessagingFee",
          "name": "_msgFee",
          "type": "tuple"
        },
        {
          "internalType": "address payable",
          "name": "_refundAddress",
          "type": "address"
        },
        {
          "internalType": "bytes",
          "name": "_composeMsg",
          "type": "bytes"
        }
      ],
      "name": "sendAndCall",
      "outputs": [
        {
          "components": [
            {
              "internalType": "bytes32",
              "name": "guid",
              "type": "bytes32"
            },
            {
              "internalType": "uint64",
              "name": "nonce",
              "type": "uint64"
            },
            {
              "components": [
                {
                  "internalType": "uint256",
                  "name": "nativeFee",
                  "type": "uint256"
                },
                {
                  "internalType": "uint256",
                  "name": "lzTokenFee",
                  "type": "uint256"
                }
              ],
              "internalType": "struct ILayerZeroEndpointV2.MessagingFee",
              "name": "fee",
              "type": "tuple"
            }
          ],
          "internalType": "struct ILayerZeroEndpointV2.MessagingReceipt",
          "name": "msgReceipt",
          "type": "tuple"
        }
      ],
      "stateMutability": "payable",
      "type": "function"
    },
    {
      "inputs": [
        {
          "internalType": "bytes",
          "name": "_config",
          "type": "bytes"
        }
      ],
      "name": "setEndpointConfig",
      "outputs": [],
      "stateMutability": "nonpayable",
      "type": "function"
    },
    {
      "inputs": [
        {
          "components": [
            {
              "internalType": "uint256",
              "name": "executionType",
              "type": "uint256"
            },
            {
              "internalType": "uint32",
              "name": "eid",
              "type": "uint32"
            },
            {
              "internalType": "bytes",
              "name": "options",
              "type": "bytes"
            }
          ],
          "internalType": "struct IOFT.EnforcedOptionParam[]",
          "name": "_enforcedOptions",
          "type": "tuple[]"
        }
      ],
      "name": "setEnforcedOptions",
      "outputs": [],
      "stateMutability": "nonpayable",
      "type": "function"
    },
    {
      "inputs": [
        {
          "internalType": "address",
          "name": "_inspector",
          "type": "address"
        }
      ],
      "name": "setInspector",
      "outputs": [],
      "stateMutability": "nonpayable",
      "type": "function"
    },
    {
      "inputs": [
        {
          "internalType": "uint32",
          "name": "_eid",
          "type": "uint32"
        },
        {
          "internalType": "bytes32",
          "name": "_peer",
          "type": "bytes32"
        },
        {
          "internalType": "bool",
          "name": "_active",
          "type": "bool"
        }
      ],
      "name": "setPeer",
      "outputs": [],
      "stateMutability": "nonpayable",
      "type": "function"
    },
    {
      "inputs": [
        {
          "internalType": "address",
          "name": "_precrime",
          "type": "address"
        }
      ],
      "name": "setPrecrime",
      "outputs": [],
      "stateMutability": "nonpayable",
      "type": "function"
    },
    {
      "inputs": [],
      "name": "sharedDecimals",
      "outputs": [
        {
          "internalType": "uint8",
          "name": "",
          "type": "uint8"
        }
      ],
      "stateMutability": "view",
      "type": "function"
    },
    {
      "inputs": [],
      "name": "token",
      "outputs": [
        {
          "internalType": "address",
          "name": "",
          "type": "address"
        }
      ],
      "stateMutability": "view",
      "type": "function"
    },
    {
      "inputs": [
        {
          "internalType": "address",
          "name": "newOwner",
          "type": "address"
        }
      ],
      "name": "transferOwnership",
      "outputs": [],
      "stateMutability": "nonpayable",
      "type": "function"
    },
    {
      "inputs": [],
      "name": "version",
      "outputs": [
        {
          "internalType": "uint256",
          "name": "",
          "type": "uint256"
        }
      ],
      "stateMutability": "view",
      "type": "function"
    },
    {
      "stateMutability": "payable",
      "type": "receive"
    }
  ],
  "bytecode": "0x60e06040523480156200001157600080fd5b50604051620033b4380380620033b48339810160408190526200003491620001e9565b81818062000042336200016a565b6001600160a01b0316608052600660ff8316101562000074576040516384564cb760e01b815260040160405180910390fd5b6200008160068362000249565b6200008e90600a62000368565b60a05250506001600160a01b03831660c081905260408051600481526024810182526020810180516001600160e01b031663313ce56760e01b179052905160009283929091620000df919062000380565b600060405180830381855afa9150503d80600081146200011c576040519150601f19603f3d011682016040523d82523d6000602084013e62000121565b606091505b5091509150816200013157600080fd5b600081806020019051810190620001499190620003b1565b90508060ff168560ff16146200015e57600080fd5b505050505050620003cf565b600080546001600160a01b038381166001600160a01b0319831681178455604051919092169283917f8be0079c531659141344cd1fd0a4f28419497f9722a3daafe3b4186f6b6457e09190a35050565b80516001600160a01b0381168114620001d257600080fd5b919050565b805160ff81168114620001d257600080fd5b600080600060608486031215620001ff57600080fd5b6200020a84620001ba565b92506200021a60208501620001d7565b91506200022a60408501620001ba565b90509250925092565b634e487b7160e01b600052601160045260246000fd5b60ff828116828216039081111562000265576200026562000233565b92915050565b600181815b80851115620002ac57816000190482111562000290576200029062000233565b808516156200029e57918102915b93841c939080029062000270565b509250929050565b600082620002c55750600162000265565b81620002d45750600062000265565b8160018114620002ed5760028114620002f85762000318565b600191505062000265565b60ff8411156200030c576200030c62000233565b50506001821b62000265565b5060208310610133831016604e8410600b84101617156200033d575081810a62000265565b6200034983836200026b565b806000190482111562000360576200036062000233565b029392505050565b60006200037960ff841683620002b4565b9392505050565b6000825160005b81811015620003a3576020818601810151858301520162000387565b506000920191825250919050565b600060208284031215620003c457600080fd5b6200037982620001d7565b60805160a05160c051612f766200043e600039600081816104f80152818161182901526118fb015260008181611643015281816117de0152611acd01526000818161026b0152818161051e015281816109c20152818161120c0152818161168601526119720152612f766000f3fe6080604052600436106101845760003560e01c80638da5cb5b116100d6578063d0a227531161007f578063f2fde38b11610059578063f2fde38b146104b6578063f5c6ba5a146104d6578063fc0c546a146104e957600080fd5b8063d0a2275314610456578063e748470214610469578063ed2cee9e1461048957600080fd5b8063b0690b3e116100b0578063b0690b3e146103e9578063baf3292d14610409578063bb0b6a531461042957600080fd5b80638da5cb5b1461035c578063950c8a7414610387578063a41d8a25146103b457600080fd5b80635e280f11116101385780637624f505116101125780637624f505146102e75780637d25a05e14610307578063857749b01461034057600080fd5b80635e280f1114610259578063655f0638146102b2578063715018a6146102d257600080fd5b806326b27f841161016957806326b27f84146101f65780634e5cbf611461022457806354fd4d501461024457600080fd5b806313137d651461019057806323d509ba146101a557600080fd5b3661018b57005b600080fd5b6101a361019e366004611f35565b61051c565b005b6101b86101b3366004612000565b610626565b604080518251815260208084015167ffffffffffffffff16818301529282015180519282019290925291015160608201526080015b60405180910390f35b34801561020257600080fd5b50610216610211366004612091565b6106a4565b6040519081526020016101ed565b34801561023057600080fd5b506101a361023f3660046120ac565b6106fe565b34801561025057600080fd5b50610216600181565b34801561026557600080fd5b5061028d7f000000000000000000000000000000000000000000000000000000000000000081565b60405173ffffffffffffffffffffffffffffffffffffffff90911681526020016101ed565b3480156102be57600080fd5b506101a36102cd3660046120c9565b610780565b3480156102de57600080fd5b506101a3610a62565b3480156102f357600080fd5b506101a3610302366004612119565b610a76565b34801561031357600080fd5b50610327610322366004612159565b610b2f565b60405167ffffffffffffffff90911681526020016101ed565b34801561034c57600080fd5b50604051600681526020016101ed565b34801561036857600080fd5b5060005473ffffffffffffffffffffffffffffffffffffffff1661028d565b34801561039357600080fd5b5060025461028d9073ffffffffffffffffffffffffffffffffffffffff1681565b3480156103c057600080fd5b506103d46103cf366004612183565b610b38565b604080519283526020830191909152016101ed565b3480156103f557600080fd5b506103d4610404366004612219565b610bef565b34801561041557600080fd5b506101a36104243660046120ac565b610c7b565b34801561043557600080fd5b50610216610444366004612091565b60016020526000908152604090205481565b6101b8610464366004612280565b610cf6565b34801561047557600080fd5b506101a3610484366004612352565b610d8a565b34801561049557600080fd5b5060045461028d9073ffffffffffffffffffffffffffffffffffffffff1681565b3480156104c257600080fd5b506101a36104d13660046120ac565b610eb6565b6101a36104e4366004612352565b610f6d565b3480156104f557600080fd5b507f000000000000000000000000000000000000000000000000000000000000000061028d565b7f000000000000000000000000000000000000000000000000000000000000000073ffffffffffffffffffffffffffffffffffffffff163314610592576040517fab08c09e0000000000000000000000000000000000000000000000000000000081523360048201526024015b60405180910390fd5b602087018035906105a790610211908a612091565b146105e4576040517fc59a4f6400000000000000000000000000000000000000000000000000000000815260208801356004820152602401610589565b61060e6105f46020890189612091565b602089013561060960608b0160408c0161239e565b505050565b61061d87878787878787611141565b50505050505050565b61062e611e82565b61069a866106836106456080830160608401612091565b600189898080601f0160208091040260200160405190810160405280939291908181526020018383808284376000920191909152506112e292505050565b85856040518060200160405280600081525061132e565b9695505050505050565b63ffffffff8116600090815260016020526040902054806106f9576040517f196fb6c000000000000000000000000000000000000000000000000000000000815263ffffffff83166004820152602401610589565b919050565b610706611546565b600480547fffffffffffffffffffffffff00000000000000000000000000000000000000001673ffffffffffffffffffffffffffffffffffffffff83169081179091556040519081527ff8b6b91dd680bf19d37570578ae915537e6e8cd2106736ad3ca05b30447a72b0906020015b60405180910390a150565b610788611546565b600061079482846123bb565b90507fffffffff0000000000000000000000000000000000000000000000000000000081167fb8007ff600000000000000000000000000000000000000000000000000000000148061082757507fffffffff0000000000000000000000000000000000000000000000000000000081167f9e7fffcc00000000000000000000000000000000000000000000000000000000145b8061087357507fffffffff0000000000000000000000000000000000000000000000000000000081167f0678327f00000000000000000000000000000000000000000000000000000000145b806108bf57507fffffffff0000000000000000000000000000000000000000000000000000000081167fb8849ac900000000000000000000000000000000000000000000000000000000145b8061090b57507fffffffff0000000000000000000000000000000000000000000000000000000081167fe16f964d00000000000000000000000000000000000000000000000000000000145b8061095757507fffffffff0000000000000000000000000000000000000000000000000000000081167f66bf43d600000000000000000000000000000000000000000000000000000000145b6109bd576040517f08c379a000000000000000000000000000000000000000000000000000000000815260206004820152601a60248201527f4f4170703a2066756e6374696f6e206e6f7420616c6c6f7765640000000000006044820152606401610589565b6000807f000000000000000000000000000000000000000000000000000000000000000073ffffffffffffffffffffffffffffffffffffffff168585604051610a07929190612403565b6000604051808303816000865af19150503d8060008114610a44576040519150601f19603f3d011682016040523d82523d6000602084013e610a49565b606091505b509150915081610a5b57805160208201fd5b5050505050565b610a6a611546565b610a7460006115c7565b565b610a7e611546565b63ffffffff831660009081526001602052604090205415158115158103610ad1576040517f9556766100000000000000000000000000000000000000000000000000000000815260040160405180910390fd5b63ffffffff84166000818152600160209081526040918290208690558151928352820185905283151582820152517fc55181d68816686be8ec55890d24aefed84c9a6a875145822aad2b2c950f027f9181900360600190a150505050565b60005b92915050565b600080610be0610b4e60808a0160608b01612091565b610b898a35610b6060208d013561163c565b338989604051602001610b7593929190612413565b604051602081830303815290604052611668565b87610bdb610b9d60808e0160608f01612091565b60028d8d8080601f0160208091040260200160405190810160405280939291908181526020018383808284376000920191909152506112e292505050565b61167f565b90999098509650505050505050565b600080610c6e610c056080880160608901612091565b610c1c8835610c1760208b013561163c565b61173b565b85610bdb610c3060808c0160608d01612091565b60018b8b8080601f0160208091040260200160405190810160405280939291908181526020018383808284376000920191909152506112e292505050565b9097909650945050505050565b610c83611546565b600280547fffffffffffffffffffffffff00000000000000000000000000000000000000001673ffffffffffffffffffffffffffffffffffffffff83169081179091556040519081527f5db758e995a17ec1ad84bdef7e8c3293a0bd6179bcce400dff5d4c3d87db726b90602001610775565b610cfe611e82565b610d7e88610d53610d156080830160608401612091565b60028b8b8080601f0160208091040260200160405190810160405280939291908181526020018383808284376000920191909152506112e292505050565b8787338888604051602001610d6a93929190612413565b60405160208183030381529060405261132e565b98975050505050505050565b610d92611546565b60005b81811015610e7857828282818110610daf57610daf61242d565b9050602002810190610dc1919061245c565b610dcf90604081019061249a565b60036000868686818110610de557610de561242d565b9050602002810190610df7919061245c565b610e08906040810190602001612091565b63ffffffff1663ffffffff1681526020019081526020016000206000868686818110610e3657610e3661242d565b9050602002810190610e48919061245c565b358152602081019190915260400160002091610e659190836125c9565b5080610e7081612712565b915050610d95565b507f116010e386f0b6b56cf03fa3e25a9e8015859c71fa3794d81cf655341ec1ef3b8282604051610eaa92919061274a565b60405180910390a15050565b610ebe611546565b73ffffffffffffffffffffffffffffffffffffffff8116610f61576040517f08c379a000000000000000000000000000000000000000000000000000000000815260206004820152602660248201527f4f776e61626c653a206e6577206f776e657220697320746865207a65726f206160448201527f64647265737300000000000000000000000000000000000000000000000000006064820152608401610589565b610f6a816115c7565b50565b60025473ffffffffffffffffffffffffffffffffffffffff163314610fc0576040517fc023811c000000000000000000000000000000000000000000000000000000008152336004820152602401610589565b60005b818110156110565736838383818110610fde57610fde61242d565b9050602002810190610ff091906128af565b905060006110046102116020840184612091565b905060208201358114611018575050611044565b61104182606081013561102e608083018361249a565b3361103c60a089018961249a565b611141565b50505b8061104e81612712565b915050610fc3565b50600254604080517fd2968d57000000000000000000000000000000000000000000000000000000008152905160019273ffffffffffffffffffffffffffffffffffffffff169163d2968d579160048083019260009291908290030181865afa1580156110c7573d6000803e3d6000fd5b505050506040513d6000823e601f3d9081017fffffffffffffffffffffffffffffffffffffffffffffffffffffffffffffffe016820160405261110d9190810190612930565b6040517f0a78da8f000000000000000000000000000000000000000000000000000000008152600401610589929190612a3a565b60006111536111508787611795565b90565b9050600061118161116c61116789896117b4565b6117d7565b8361117a60208d018d612091565b5090919050565b9050600061118f838361180d565b905060288711156112795760006111cc6111af60608d0160408e0161239e565b6111bc60208e018e612091565b846111c78d8d611856565b6118a1565b6040517f754d3b9c00000000000000000000000000000000000000000000000000000000815290915073ffffffffffffffffffffffffffffffffffffffff7f0000000000000000000000000000000000000000000000000000000000000000169063754d3b9c906112459087908e908690600401612a57565b600060405180830381600087803b15801561125f57600080fd5b505af1158015611273573d6000803e3d6000fd5b50505050505b6112866111508989611795565b73ffffffffffffffffffffffffffffffffffffffff16897ffc1b5feb636aa495ed28914895ca443adffbd4e2da951d5694baa392b4ebd158836040516112ce91815260200190565b60405180910390a350505050505050505050565b63ffffffff831660009081526003602090815260408083208584528252918290209151606092611316929091859101612a8c565b60405160208183030381529060405290509392505050565b611336611e82565b6000611354602088013561135060808a0160608b01612091565b5090565b90506000611361826118d3565b905087604001358110156113ae57604080517fac7247ca00000000000000000000000000000000000000000000000000000000815260048101839052908901356024820152604401610589565b606084516000036113ce576113c78935610c178461163c565b90506113e5565b6113e289356113dc8461163c565b87611668565b90505b60045473ffffffffffffffffffffffffffffffffffffffff161561149d57600480546040517f043a78eb00000000000000000000000000000000000000000000000000000000815273ffffffffffffffffffffffffffffffffffffffff9091169163043a78eb9161145a9185918d9101612b31565b602060405180830381865afa158015611477573d6000803e3d6000fd5b505050506040513d601f19601f8201168201806040525081019061149b9190612b56565b505b61150060405180608001604052808b60600160208101906114be9190612091565b63ffffffff1681526020016114dc61021160808e0160608f01612091565b8152602081018490526040018a90526114fa368a90038a018a612b73565b88611923565b805160405184815291955033917f3131f8d7ad296b074b480a9f6b3a760579632740b870b78725975df31c5da7789060200160405180910390a350505095945050505050565b60005473ffffffffffffffffffffffffffffffffffffffff163314610a74576040517f08c379a000000000000000000000000000000000000000000000000000000000815260206004820181905260248201527f4f776e61626c653a2063616c6c6572206973206e6f7420746865206f776e65726044820152606401610589565b6000805473ffffffffffffffffffffffffffffffffffffffff8381167fffffffffffffffffffffffff0000000000000000000000000000000000000000831681178455604051919092169283917f8be0079c531659141344cd1fd0a4f28419497f9722a3daafe3b4186f6b6457e09190a35050565b6000610b327f000000000000000000000000000000000000000000000000000000000000000083612ba5565b606083838360405160200161131693929190612be0565b60008060007f000000000000000000000000000000000000000000000000000000000000000073ffffffffffffffffffffffffffffffffffffffff166383c4755930898989896040518663ffffffff1660e01b81526004016116e5959493929190612c32565b6040805180830381865afa158015611701573d6000803e3d6000fd5b505050506040513d601f19601f820116820180604052508101906117259190612cb7565b8051602090910151909890975095505050505050565b6060828260405160200161177e92919091825260c01b7fffffffffffffffff00000000000000000000000000000000000000000000000016602082015260280190565b604051602081830303815290604052905092915050565b60006117a46020828486612cd3565b6117ad91612cfd565b9392505050565b60006117c4602860208486612cd3565b6117cd91612d39565b60c01c9392505050565b6000610b327f000000000000000000000000000000000000000000000000000000000000000067ffffffffffffffff8416612d7f565b600061185073ffffffffffffffffffffffffffffffffffffffff7f00000000000000000000000000000000000000000000000000000000000000001684846119f5565b50919050565b60606118658260288186612cd3565b8080601f016020809104026020016040519081016040528093929190818152602001838380828437600092019190915250929695505050505050565b6060848484846040516020016118ba9493929190612d96565b6040516020818303038152906040529050949350505050565b6000806118df83611ac9565b9050610b3273ffffffffffffffffffffffffffffffffffffffff7f000000000000000000000000000000000000000000000000000000000000000016333084611b00565b61192b611e82565b825160208401516040517faca1b45a00000000000000000000000000000000000000000000000000000000815260009273ffffffffffffffffffffffffffffffffffffffff7f0000000000000000000000000000000000000000000000000000000000000000169263aca1b45a926119a9918a918990600401612e14565b60806040518083038185885af11580156119c7573d6000803e3d6000fd5b50505050506040513d601f19601f820116820180604052508101906119ec9190612eb3565b95945050505050565b60405173ffffffffffffffffffffffffffffffffffffffff83166024820152604481018290526106099084907fa9059cbb00000000000000000000000000000000000000000000000000000000906064015b604080517fffffffffffffffffffffffffffffffffffffffffffffffffffffffffffffffe08184030181529190526020810180517bffffffffffffffffffffffffffffffffffffffffffffffffffffffff167fffffffff0000000000000000000000000000000000000000000000000000000090931692909217909152611b64565b60007f0000000000000000000000000000000000000000000000000000000000000000611af68184612ba5565b610b329190612d7f565b60405173ffffffffffffffffffffffffffffffffffffffff80851660248301528316604482015260648101829052611b5e9085907f23b872dd0000000000000000000000000000000000000000000000000000000090608401611a47565b50505050565b6000611bc6826040518060400160405280602081526020017f5361666545524332303a206c6f772d6c6576656c2063616c6c206661696c65648152508573ffffffffffffffffffffffffffffffffffffffff16611c739092919063ffffffff16565b9050805160001480611be7575080806020019051810190611be79190612b56565b610609576040517f08c379a000000000000000000000000000000000000000000000000000000000815260206004820152602a60248201527f5361666545524332303a204552433230206f7065726174696f6e20646964206e60448201527f6f742073756363656564000000000000000000000000000000000000000000006064820152608401610589565b6060611c828484600085611c8a565b949350505050565b606082471015611d1c576040517f08c379a000000000000000000000000000000000000000000000000000000000815260206004820152602660248201527f416464726573733a20696e73756666696369656e742062616c616e636520666f60448201527f722063616c6c00000000000000000000000000000000000000000000000000006064820152608401610589565b6000808673ffffffffffffffffffffffffffffffffffffffff168587604051611d459190612f1b565b60006040518083038185875af1925050503d8060008114611d82576040519150601f19603f3d011682016040523d82523d6000602084013e611d87565b606091505b5091509150611d9887838387611da3565b979650505050505050565b60608315611e39578251600003611e325773ffffffffffffffffffffffffffffffffffffffff85163b611e32576040517f08c379a000000000000000000000000000000000000000000000000000000000815260206004820152601d60248201527f416464726573733a2063616c6c20746f206e6f6e2d636f6e74726163740000006044820152606401610589565b5081611c82565b611c828383815115611e4e5781518083602001fd5b806040517f08c379a00000000000000000000000000000000000000000000000000000000081526004016105899190612f2d565b604051806060016040528060008019168152602001600067ffffffffffffffff168152602001611ec5604051806040016040528060008152602001600081525090565b905290565b60008083601f840112611edc57600080fd5b50813567ffffffffffffffff811115611ef457600080fd5b602083019150836020828501011115611f0c57600080fd5b9250929050565b73ffffffffffffffffffffffffffffffffffffffff81168114610f6a57600080fd5b600080600080600080600087890360e0811215611f5157600080fd5b6060811215611f5f57600080fd5b5087965060608801359550608088013567ffffffffffffffff80821115611f8557600080fd5b611f918b838c01611eca565b909750955060a08a01359150611fa682611f13565b90935060c08901359080821115611fbc57600080fd5b50611fc98a828b01611eca565b989b979a50959850939692959293505050565b60006080828403121561185057600080fd5b60006040828403121561185057600080fd5b6000806000806000610100868803121561201957600080fd5b6120238787611fdc565b9450608086013567ffffffffffffffff81111561203f57600080fd5b61204b88828901611eca565b909550935061205f90508760a08801611fee565b915060e086013561206f81611f13565b809150509295509295909350565b803563ffffffff811681146106f957600080fd5b6000602082840312156120a357600080fd5b6117ad8261207d565b6000602082840312156120be57600080fd5b81356117ad81611f13565b600080602083850312156120dc57600080fd5b823567ffffffffffffffff8111156120f357600080fd5b6120ff85828601611eca565b90969095509350505050565b8015158114610f6a57600080fd5b60008060006060848603121561212e57600080fd5b6121378461207d565b925060208401359150604084013561214e8161210b565b809150509250925092565b6000806040838503121561216c57600080fd5b6121758361207d565b946020939093013593505050565b60008060008060008060e0878903121561219c57600080fd5b6121a68888611fdc565b9550608087013567ffffffffffffffff808211156121c357600080fd5b6121cf8a838b01611eca565b909750955060a089013591506121e48261210b565b90935060c088013590808211156121fa57600080fd5b5061220789828a01611eca565b979a9699509497509295939492505050565b60008060008060c0858703121561222f57600080fd5b6122398686611fdc565b9350608085013567ffffffffffffffff81111561225557600080fd5b61226187828801611eca565b90945092505060a08501356122758161210b565b939692955090935050565b6000806000806000806000610120888a03121561229c57600080fd5b6122a68989611fdc565b9650608088013567ffffffffffffffff808211156122c357600080fd5b6122cf8b838c01611eca565b90985096508691506122e48b60a08c01611fee565b955060e08a013591506122f682611f13565b9093506101008901359080821115611fbc57600080fd5b60008083601f84011261231f57600080fd5b50813567ffffffffffffffff81111561233757600080fd5b6020830191508360208260051b8501011115611f0c57600080fd5b6000806020838503121561236557600080fd5b823567ffffffffffffffff81111561237c57600080fd5b6120ff8582860161230d565b67ffffffffffffffff81168114610f6a57600080fd5b6000602082840312156123b057600080fd5b81356117ad81612388565b7fffffffff0000000000000000000000000000000000000000000000000000000081358181169160048510156123fb5780818660040360031b1b83161692505b505092915050565b8183823760009101908152919050565b838152818360208301376000910160200190815292915050565b7f4e487b7100000000000000000000000000000000000000000000000000000000600052603260045260246000fd5b600082357fffffffffffffffffffffffffffffffffffffffffffffffffffffffffffffffa183360301811261249057600080fd5b9190910192915050565b60008083357fffffffffffffffffffffffffffffffffffffffffffffffffffffffffffffffe18436030181126124cf57600080fd5b83018035915067ffffffffffffffff8211156124ea57600080fd5b602001915036819003821315611f0c57600080fd5b7f4e487b7100000000000000000000000000000000000000000000000000000000600052604160045260246000fd5b600181811c9082168061254257607f821691505b602082108103611850577f4e487b7100000000000000000000000000000000000000000000000000000000600052602260045260246000fd5b601f82111561060957600081815260208120601f850160051c810160208610156125a25750805b601f850160051c820191505b818110156125c1578281556001016125ae565b505050505050565b67ffffffffffffffff8311156125e1576125e16124ff565b6125f5836125ef835461252e565b8361257b565b6000601f84116001811461264757600085156126115750838201355b7fffffffffffffffffffffffffffffffffffffffffffffffffffffffffffffffff600387901b1c1916600186901b178355610a5b565b6000838152602090207fffffffffffffffffffffffffffffffffffffffffffffffffffffffffffffffe0861690835b828110156126965786850135825560209485019460019092019101612676565b50868210156126d1577fffffffffffffffffffffffffffffffffffffffffffffffffffffffffffffffff60f88860031b161c19848701351681555b505060018560011b0183555050505050565b7f4e487b7100000000000000000000000000000000000000000000000000000000600052601160045260246000fd5b60007fffffffffffffffffffffffffffffffffffffffffffffffffffffffffffffffff8203612743576127436126e3565b5060010190565b60208082528181018390526000906040808401600586901b8501820187855b888110156128a1577fffffffffffffffffffffffffffffffffffffffffffffffffffffffffffffffc088840301845281357fffffffffffffffffffffffffffffffffffffffffffffffffffffffffffffffa18b36030181126127ca57600080fd5b8a0180358452606063ffffffff6127e289840161207d565b1688860152868201357fffffffffffffffffffffffffffffffffffffffffffffffffffffffffffffffe183360301811261281b57600080fd5b90910187810191903567ffffffffffffffff81111561283957600080fd5b80360383131561284857600080fd5b8188870152808287015260809150808383880137600086820183015295880195601f017fffffffffffffffffffffffffffffffffffffffffffffffffffffffffffffffe016909401909301925090850190600101612769565b509098975050505050505050565b600082357fffffffffffffffffffffffffffffffffffffffffffffffffffffffffffffff4183360301811261249057600080fd5b6040805190810167ffffffffffffffff81118282101715612906576129066124ff565b60405290565b60005b8381101561292757818101518382015260200161290f565b50506000910152565b60006020828403121561294257600080fd5b815167ffffffffffffffff8082111561295a57600080fd5b818401915084601f83011261296e57600080fd5b815181811115612980576129806124ff565b604051601f82017fffffffffffffffffffffffffffffffffffffffffffffffffffffffffffffffe0908116603f011681019083821181831017156129c6576129c66124ff565b816040528281528760208487010111156129df57600080fd5b611d9883602083016020880161290c565b60008151808452612a0881602086016020860161290c565b601f017fffffffffffffffffffffffffffffffffffffffffffffffffffffffffffffffe0169290920160200192915050565b61ffff83168152604060208201526000611c8260408301846129f0565b73ffffffffffffffffffffffffffffffffffffffff841681528260208201526060604082015260006119ec60608301846129f0565b6000808454612a9a8161252e565b60018281168015612ab25760018114612ae557612b14565b7fffffffffffffffffffffffffffffffffffffffffffffffffffffffffffffff0084168752821515830287019450612b14565b8860005260208060002060005b85811015612b0b5781548a820152908401908201612af2565b50505082870194505b505050508351612b2881836020880161290c565b01949350505050565b604081526000612b4460408301856129f0565b82810360208401526119ec81856129f0565b600060208284031215612b6857600080fd5b81516117ad8161210b565b600060408284031215612b8557600080fd5b612b8d6128e3565b82358152602083013560208201528091505092915050565b600082612bdb577f4e487b7100000000000000000000000000000000000000000000000000000000600052601260045260246000fd5b500490565b8381527fffffffffffffffff0000000000000000000000000000000000000000000000008360c01b16602082015260008251612c2381602885016020870161290c565b91909101602801949350505050565b73ffffffffffffffffffffffffffffffffffffffff8616815263ffffffff8516602082015260a060408201526000612c6d60a08301866129f0565b84151560608401528281036080840152610d7e81856129f0565b600060408284031215612c9957600080fd5b612ca16128e3565b9050815181526020820151602082015292915050565b600060408284031215612cc957600080fd5b6117ad8383612c87565b60008085851115612ce357600080fd5b83861115612cf057600080fd5b5050820193919092039150565b80356020831015610b32577fffffffffffffffffffffffffffffffffffffffffffffffffffffffffffffffff602084900360031b1b1692915050565b7fffffffffffffffff00000000000000000000000000000000000000000000000081358181169160088510156123fb5760089490940360031b84901b1690921692915050565b8082028115828204841417610b3257610b326126e3565b7fffffffffffffffff0000000000000000000000000000000000000000000000008560c01b1681527fffffffff000000000000000000000000000000000000000000000000000000008460e01b16600882015282600c82015260008251612e0481602c85016020870161290c565b91909101602c0195945050505050565b6060815263ffffffff84511660608201526020840151608082015260006040850151608060a0840152612e4a60e08401826129f0565b905060608601517fffffffffffffffffffffffffffffffffffffffffffffffffffffffffffffffa08483030160c0850152612e8582826129f0565b9250505083602083015273ffffffffffffffffffffffffffffffffffffffff83166040830152949350505050565b600060808284031215612ec557600080fd5b6040516060810181811067ffffffffffffffff82111715612ee857612ee86124ff565b604052825181526020830151612efd81612388565b6020820152612f0f8460408501612c87565b60408201529392505050565b6000825161249081846020870161290c565b6020815260006117ad60208301846129f056fea2646970667358221220dda9ebee3eeb29b68990bae15749fef444d2c7a5ee8deb1c85b426a7805e3c6a64736f6c63430008130033",
  "linkReferences": {},
  "deployedLinkReferences": {}
}