{
  "_format": "hh-sol-artifact-1",
  "contractName": "ExampleONFT1155Upgradeable",
  "sourceName": "contracts/contracts-upgradable/example/ExampleONFT1155Upgradeable.sol",
  "abi": [
    {
      "anonymous": false,
      "inputs": [
        {
          "indexed": true,
          "internalType": "address",
          "name": "account",
          "type": "address"
        },
        {
          "indexed": true,
          "internalType": "address",
          "name": "operator",
          "type": "address"
        },
        {
          "indexed": false,
          "internalType": "bool",
          "name": "approved",
          "type": "bool"
        }
      ],
      "name": "ApprovalForAll",
      "type": "event"
    },
    {
      "anonymous": false,
      "inputs": [
        {
          "indexed": false,
          "internalType": "uint8",
          "name": "version",
          "type": "uint8"
        }
      ],
      "name": "Initialized",
      "type": "event"
    },
    {
      "anonymous": false,
      "inputs": [
        {
          "indexed": false,
          "internalType": "uint16",
          "name": "_srcChainId",
          "type": "uint16"
        },
        {
          "indexed": false,
          "internalType": "bytes",
          "name": "_srcAddress",
          "type": "bytes"
        },
        {
          "indexed": false,
          "internalType": "uint64",
          "name": "_nonce",
          "type": "uint64"
        },
        {
          "indexed": false,
          "internalType": "bytes",
          "name": "_payload",
          "type": "bytes"
        },
        {
          "indexed": false,
          "internalType": "bytes",
          "name": "_reason",
          "type": "bytes"
        }
      ],
      "name": "MessageFailed",
      "type": "event"
    },
    {
      "anonymous": false,
      "inputs": [
        {
          "indexed": true,
          "internalType": "address",
          "name": "previousOwner",
          "type": "address"
        },
        {
          "indexed": true,
          "internalType": "address",
          "name": "newOwner",
          "type": "address"
        }
      ],
      "name": "OwnershipTransferred",
      "type": "event"
    },
    {
      "anonymous": false,
      "inputs": [
        {
          "indexed": true,
          "internalType": "uint16",
          "name": "_srcChainId",
          "type": "uint16"
        },
        {
          "indexed": true,
          "internalType": "bytes",
          "name": "_srcAddress",
          "type": "bytes"
        },
        {
          "indexed": true,
          "internalType": "address",
          "name": "_toAddress",
          "type": "address"
        },
        {
          "indexed": false,
          "internalType": "uint256[]",
          "name": "_tokenIds",
          "type": "uint256[]"
        },
        {
          "indexed": false,
          "internalType": "uint256[]",
          "name": "_amounts",
          "type": "uint256[]"
        }
      ],
      "name": "ReceiveBatchFromChain",
      "type": "event"
    },
    {
      "anonymous": false,
      "inputs": [
        {
          "indexed": true,
          "internalType": "uint16",
          "name": "_srcChainId",
          "type": "uint16"
        },
        {
          "indexed": true,
          "internalType": "bytes",
          "name": "_srcAddress",
          "type": "bytes"
        },
        {
          "indexed": true,
          "internalType": "address",
          "name": "_toAddress",
          "type": "address"
        },
        {
          "indexed": false,
          "internalType": "uint256",
          "name": "_tokenId",
          "type": "uint256"
        },
        {
          "indexed": false,
          "internalType": "uint256",
          "name": "_amount",
          "type": "uint256"
        }
      ],
      "name": "ReceiveFromChain",
      "type": "event"
    },
    {
      "anonymous": false,
      "inputs": [
        {
          "indexed": false,
          "internalType": "uint16",
          "name": "_srcChainId",
          "type": "uint16"
        },
        {
          "indexed": false,
          "internalType": "bytes",
          "name": "_srcAddress",
          "type": "bytes"
        },
        {
          "indexed": false,
          "internalType": "uint64",
          "name": "_nonce",
          "type": "uint64"
        },
        {
          "indexed": false,
          "internalType": "bytes32",
          "name": "_payloadHash",
          "type": "bytes32"
        }
      ],
      "name": "RetryMessageSuccess",
      "type": "event"
    },
    {
      "anonymous": false,
      "inputs": [
        {
          "indexed": true,
          "internalType": "uint16",
          "name": "_dstChainId",
          "type": "uint16"
        },
        {
          "indexed": true,
          "internalType": "address",
          "name": "_from",
          "type": "address"
        },
        {
          "indexed": true,
          "internalType": "bytes",
          "name": "_toAddress",
          "type": "bytes"
        },
        {
          "indexed": false,
          "internalType": "uint256[]",
          "name": "_tokenIds",
          "type": "uint256[]"
        },
        {
          "indexed": false,
          "internalType": "uint256[]",
          "name": "_amounts",
          "type": "uint256[]"
        }
      ],
      "name": "SendBatchToChain",
      "type": "event"
    },
    {
      "anonymous": false,
      "inputs": [
        {
          "indexed": true,
          "internalType": "uint16",
          "name": "_dstChainId",
          "type": "uint16"
        },
        {
          "indexed": true,
          "internalType": "address",
          "name": "_from",
          "type": "address"
        },
        {
          "indexed": true,
          "internalType": "bytes",
          "name": "_toAddress",
          "type": "bytes"
        },
        {
          "indexed": false,
          "internalType": "uint256",
          "name": "_tokenId",
          "type": "uint256"
        },
        {
          "indexed": false,
          "internalType": "uint256",
          "name": "_amount",
          "type": "uint256"
        }
      ],
      "name": "SendToChain",
      "type": "event"
    },
    {
      "anonymous": false,
      "inputs": [
        {
          "indexed": false,
          "internalType": "uint16",
          "name": "_dstChainId",
          "type": "uint16"
        },
        {
          "indexed": false,
          "internalType": "uint16",
          "name": "_type",
          "type": "uint16"
        },
        {
          "indexed": false,
          "internalType": "uint256",
          "name": "_minDstGas",
          "type": "uint256"
        }
      ],
      "name": "SetMinDstGas",
      "type": "event"
    },
    {
      "anonymous": false,
      "inputs": [
        {
          "indexed": false,
          "internalType": "address",
          "name": "precrime",
          "type": "address"
        }
      ],
      "name": "SetPrecrime",
      "type": "event"
    },
    {
      "anonymous": false,
      "inputs": [
        {
          "indexed": false,
          "internalType": "uint16",
          "name": "_remoteChainId",
          "type": "uint16"
        },
        {
          "indexed": false,
          "internalType": "bytes",
          "name": "_path",
          "type": "bytes"
        }
      ],
      "name": "SetTrustedRemote",
      "type": "event"
    },
    {
      "anonymous": false,
      "inputs": [
        {
          "indexed": false,
          "internalType": "uint16",
          "name": "_remoteChainId",
          "type": "uint16"
        },
        {
          "indexed": false,
          "internalType": "bytes",
          "name": "_remoteAddress",
          "type": "bytes"
        }
      ],
      "name": "SetTrustedRemoteAddress",
      "type": "event"
    },
    {
      "anonymous": false,
      "inputs": [
        {
          "indexed": false,
          "internalType": "bool",
          "name": "_useCustomAdapterParams",
          "type": "bool"
        }
      ],
      "name": "SetUseCustomAdapterParams",
      "type": "event"
    },
    {
      "anonymous": false,
      "inputs": [
        {
          "indexed": true,
          "internalType": "address",
          "name": "operator",
          "type": "address"
        },
        {
          "indexed": true,
          "internalType": "address",
          "name": "from",
          "type": "address"
        },
        {
          "indexed": true,
          "internalType": "address",
          "name": "to",
          "type": "address"
        },
        {
          "indexed": false,
          "internalType": "uint256[]",
          "name": "ids",
          "type": "uint256[]"
        },
        {
          "indexed": false,
          "internalType": "uint256[]",
          "name": "values",
          "type": "uint256[]"
        }
      ],
      "name": "TransferBatch",
      "type": "event"
    },
    {
      "anonymous": false,
      "inputs": [
        {
          "indexed": true,
          "internalType": "address",
          "name": "operator",
          "type": "address"
        },
        {
          "indexed": true,
          "internalType": "address",
          "name": "from",
          "type": "address"
        },
        {
          "indexed": true,
          "internalType": "address",
          "name": "to",
          "type": "address"
        },
        {
          "indexed": false,
          "internalType": "uint256",
          "name": "id",
          "type": "uint256"
        },
        {
          "indexed": false,
          "internalType": "uint256",
          "name": "value",
          "type": "uint256"
        }
      ],
      "name": "TransferSingle",
      "type": "event"
    },
    {
      "anonymous": false,
      "inputs": [
        {
          "indexed": false,
          "internalType": "string",
          "name": "value",
          "type": "string"
        },
        {
          "indexed": true,
          "internalType": "uint256",
          "name": "id",
          "type": "uint256"
        }
      ],
      "name": "URI",
      "type": "event"
    },
    {
      "inputs": [],
      "name": "DEFAULT_PAYLOAD_SIZE_LIMIT",
      "outputs": [
        {
          "internalType": "uint256",
          "name": "",
          "type": "uint256"
        }
      ],
      "stateMutability": "view",
      "type": "function"
    },
    {
      "inputs": [],
      "name": "FUNCTION_TYPE_SEND",
      "outputs": [
        {
          "internalType": "uint16",
          "name": "",
          "type": "uint16"
        }
      ],
      "stateMutability": "view",
      "type": "function"
    },
    {
      "inputs": [],
      "name": "FUNCTION_TYPE_SEND_BATCH",
      "outputs": [
        {
          "internalType": "uint16",
          "name": "",
          "type": "uint16"
        }
      ],
      "stateMutability": "view",
      "type": "function"
    },
    {
      "inputs": [],
      "name": "NO_EXTRA_GAS",
      "outputs": [
        {
          "internalType": "uint256",
          "name": "",
          "type": "uint256"
        }
      ],
      "stateMutability": "view",
      "type": "function"
    },
    {
      "inputs": [
        {
          "internalType": "address",
          "name": "account",
          "type": "address"
        },
        {
          "internalType": "uint256",
          "name": "id",
          "type": "uint256"
        }
      ],
      "name": "balanceOf",
      "outputs": [
        {
          "internalType": "uint256",
          "name": "",
          "type": "uint256"
        }
      ],
      "stateMutability": "view",
      "type": "function"
    },
    {
      "inputs": [
        {
          "internalType": "address[]",
          "name": "accounts",
          "type": "address[]"
        },
        {
          "internalType": "uint256[]",
          "name": "ids",
          "type": "uint256[]"
        }
      ],
      "name": "balanceOfBatch",
      "outputs": [
        {
          "internalType": "uint256[]",
          "name": "",
          "type": "uint256[]"
        }
      ],
      "stateMutability": "view",
      "type": "function"
    },
    {
      "inputs": [
        {
          "internalType": "uint16",
          "name": "_dstChainId",
          "type": "uint16"
        },
        {
          "internalType": "bytes",
          "name": "_toAddress",
          "type": "bytes"
        },
        {
          "internalType": "uint256[]",
          "name": "_tokenIds",
          "type": "uint256[]"
        },
        {
          "internalType": "uint256[]",
          "name": "_amounts",
          "type": "uint256[]"
        },
        {
          "internalType": "bool",
          "name": "_useZro",
          "type": "bool"
        },
        {
          "internalType": "bytes",
          "name": "_adapterParams",
          "type": "bytes"
        }
      ],
      "name": "estimateSendBatchFee",
      "outputs": [
        {
          "internalType": "uint256",
          "name": "nativeFee",
          "type": "uint256"
        },
        {
          "internalType": "uint256",
          "name": "zroFee",
          "type": "uint256"
        }
      ],
      "stateMutability": "view",
      "type": "function"
    },
    {
      "inputs": [
        {
          "internalType": "uint16",
          "name": "_dstChainId",
          "type": "uint16"
        },
        {
          "internalType": "bytes",
          "name": "_toAddress",
          "type": "bytes"
        },
        {
          "internalType": "uint256",
          "name": "_tokenId",
          "type": "uint256"
        },
        {
          "internalType": "uint256",
          "name": "_amount",
          "type": "uint256"
        },
        {
          "internalType": "bool",
          "name": "_useZro",
          "type": "bool"
        },
        {
          "internalType": "bytes",
          "name": "_adapterParams",
          "type": "bytes"
        }
      ],
      "name": "estimateSendFee",
      "outputs": [
        {
          "internalType": "uint256",
          "name": "nativeFee",
          "type": "uint256"
        },
        {
          "internalType": "uint256",
          "name": "zroFee",
          "type": "uint256"
        }
      ],
      "stateMutability": "view",
      "type": "function"
    },
    {
      "inputs": [
        {
          "internalType": "uint16",
          "name": "",
          "type": "uint16"
        },
        {
          "internalType": "bytes",
          "name": "",
          "type": "bytes"
        },
        {
          "internalType": "uint64",
          "name": "",
          "type": "uint64"
        }
      ],
      "name": "failedMessages",
      "outputs": [
        {
          "internalType": "bytes32",
          "name": "",
          "type": "bytes32"
        }
      ],
      "stateMutability": "view",
      "type": "function"
    },
    {
      "inputs": [
        {
          "internalType": "uint16",
          "name": "_srcChainId",
          "type": "uint16"
        },
        {
          "internalType": "bytes",
          "name": "_srcAddress",
          "type": "bytes"
        }
      ],
      "name": "forceResumeReceive",
      "outputs": [],
      "stateMutability": "nonpayable",
      "type": "function"
    },
    {
      "inputs": [
        {
          "internalType": "uint16",
          "name": "_version",
          "type": "uint16"
        },
        {
          "internalType": "uint16",
          "name": "_chainId",
          "type": "uint16"
        },
        {
          "internalType": "address",
          "name": "",
          "type": "address"
        },
        {
          "internalType": "uint256",
          "name": "_configType",
          "type": "uint256"
        }
      ],
      "name": "getConfig",
      "outputs": [
        {
          "internalType": "bytes",
          "name": "",
          "type": "bytes"
        }
      ],
      "stateMutability": "view",
      "type": "function"
    },
    {
      "inputs": [
        {
          "internalType": "uint16",
          "name": "_remoteChainId",
          "type": "uint16"
        }
      ],
      "name": "getTrustedRemoteAddress",
      "outputs": [
        {
          "internalType": "bytes",
          "name": "",
          "type": "bytes"
        }
      ],
      "stateMutability": "view",
      "type": "function"
    },
    {
      "inputs": [
        {
          "internalType": "string",
          "name": "_uri",
          "type": "string"
        },
        {
          "internalType": "address",
          "name": "_lzEndpoint",
          "type": "address"
        },
        {
          "internalType": "uint256",
          "name": "_amount",
          "type": "uint256"
        }
      ],
      "name": "initialize",
      "outputs": [],
      "stateMutability": "nonpayable",
      "type": "function"
    },
    {
      "inputs": [
        {
          "internalType": "address",
          "name": "account",
          "type": "address"
        },
        {
          "internalType": "address",
          "name": "operator",
          "type": "address"
        }
      ],
      "name": "isApprovedForAll",
      "outputs": [
        {
          "internalType": "bool",
          "name": "",
          "type": "bool"
        }
      ],
      "stateMutability": "view",
      "type": "function"
    },
    {
      "inputs": [
        {
          "internalType": "uint16",
          "name": "_srcChainId",
          "type": "uint16"
        },
        {
          "internalType": "bytes",
          "name": "_srcAddress",
          "type": "bytes"
        }
      ],
      "name": "isTrustedRemote",
      "outputs": [
        {
          "internalType": "bool",
          "name": "",
          "type": "bool"
        }
      ],
      "stateMutability": "view",
      "type": "function"
    },
    {
      "inputs": [],
      "name": "lzEndpoint",
      "outputs": [
        {
          "internalType": "contract ILayerZeroEndpointUpgradeable",
          "name": "",
          "type": "address"
        }
      ],
      "stateMutability": "view",
      "type": "function"
    },
    {
      "inputs": [
        {
          "internalType": "uint16",
          "name": "_srcChainId",
          "type": "uint16"
        },
        {
          "internalType": "bytes",
          "name": "_srcAddress",
          "type": "bytes"
        },
        {
          "internalType": "uint64",
          "name": "_nonce",
          "type": "uint64"
        },
        {
          "internalType": "bytes",
          "name": "_payload",
          "type": "bytes"
        }
      ],
      "name": "lzReceive",
      "outputs": [],
      "stateMutability": "nonpayable",
      "type": "function"
    },
    {
      "inputs": [
        {
          "internalType": "uint16",
          "name": "",
          "type": "uint16"
        },
        {
          "internalType": "uint16",
          "name": "",
          "type": "uint16"
        }
      ],
      "name": "minDstGasLookup",
      "outputs": [
        {
          "internalType": "uint256",
          "name": "",
          "type": "uint256"
        }
      ],
      "stateMutability": "view",
      "type": "function"
    },
    {
      "inputs": [
        {
          "internalType": "address",
          "name": "_to",
          "type": "address"
        },
        {
          "internalType": "uint256",
          "name": "_id",
          "type": "uint256"
        },
        {
          "internalType": "uint256",
          "name": "_amount",
          "type": "uint256"
        }
      ],
      "name": "mint",
      "outputs": [],
      "stateMutability": "nonpayable",
      "type": "function"
    },
    {
      "inputs": [
        {
          "internalType": "address",
          "name": "_to",
          "type": "address"
        },
        {
          "internalType": "uint256[]",
          "name": "_ids",
          "type": "uint256[]"
        },
        {
          "internalType": "uint256[]",
          "name": "_amounts",
          "type": "uint256[]"
        }
      ],
      "name": "mintBatch",
      "outputs": [],
      "stateMutability": "nonpayable",
      "type": "function"
    },
    {
      "inputs": [
        {
          "internalType": "uint16",
          "name": "_srcChainId",
          "type": "uint16"
        },
        {
          "internalType": "bytes",
          "name": "_srcAddress",
          "type": "bytes"
        },
        {
          "internalType": "uint64",
          "name": "_nonce",
          "type": "uint64"
        },
        {
          "internalType": "bytes",
          "name": "_payload",
          "type": "bytes"
        }
      ],
      "name": "nonblockingLzReceive",
      "outputs": [],
      "stateMutability": "nonpayable",
      "type": "function"
    },
    {
      "inputs": [],
      "name": "owner",
      "outputs": [
        {
          "internalType": "address",
          "name": "",
          "type": "address"
        }
      ],
      "stateMutability": "view",
      "type": "function"
    },
    {
      "inputs": [
        {
          "internalType": "uint16",
          "name": "",
          "type": "uint16"
        }
      ],
      "name": "payloadSizeLimitLookup",
      "outputs": [
        {
          "internalType": "uint256",
          "name": "",
          "type": "uint256"
        }
      ],
      "stateMutability": "view",
      "type": "function"
    },
    {
      "inputs": [],
      "name": "precrime",
      "outputs": [
        {
          "internalType": "address",
          "name": "",
          "type": "address"
        }
      ],
      "stateMutability": "view",
      "type": "function"
    },
    {
      "inputs": [],
      "name": "renounceOwnership",
      "outputs": [],
      "stateMutability": "nonpayable",
      "type": "function"
    },
    {
      "inputs": [
        {
          "internalType": "uint16",
          "name": "_srcChainId",
          "type": "uint16"
        },
        {
          "internalType": "bytes",
          "name": "_srcAddress",
          "type": "bytes"
        },
        {
          "internalType": "uint64",
          "name": "_nonce",
          "type": "uint64"
        },
        {
          "internalType": "bytes",
          "name": "_payload",
          "type": "bytes"
        }
      ],
      "name": "retryMessage",
      "outputs": [],
      "stateMutability": "payable",
      "type": "function"
    },
    {
      "inputs": [
        {
          "internalType": "address",
          "name": "from",
          "type": "address"
        },
        {
          "internalType": "address",
          "name": "to",
          "type": "address"
        },
        {
          "internalType": "uint256[]",
          "name": "ids",
          "type": "uint256[]"
        },
        {
          "internalType": "uint256[]",
          "name": "amounts",
          "type": "uint256[]"
        },
        {
          "internalType": "bytes",
          "name": "data",
          "type": "bytes"
        }
      ],
      "name": "safeBatchTransferFrom",
      "outputs": [],
      "stateMutability": "nonpayable",
      "type": "function"
    },
    {
      "inputs": [
        {
          "internalType": "address",
          "name": "from",
          "type": "address"
        },
        {
          "internalType": "address",
          "name": "to",
          "type": "address"
        },
        {
          "internalType": "uint256",
          "name": "id",
          "type": "uint256"
        },
        {
          "internalType": "uint256",
          "name": "amount",
          "type": "uint256"
        },
        {
          "internalType": "bytes",
          "name": "data",
          "type": "bytes"
        }
      ],
      "name": "safeTransferFrom",
      "outputs": [],
      "stateMutability": "nonpayable",
      "type": "function"
    },
    {
      "inputs": [
        {
          "internalType": "address",
          "name": "_from",
          "type": "address"
        },
        {
          "internalType": "uint16",
          "name": "_dstChainId",
          "type": "uint16"
        },
        {
          "internalType": "bytes",
          "name": "_toAddress",
          "type": "bytes"
        },
        {
          "internalType": "uint256[]",
          "name": "_tokenIds",
          "type": "uint256[]"
        },
        {
          "internalType": "uint256[]",
          "name": "_amounts",
          "type": "uint256[]"
        },
        {
          "internalType": "address payable",
          "name": "_refundAddress",
          "type": "address"
        },
        {
          "internalType": "address",
          "name": "_zroPaymentAddress",
          "type": "address"
        },
        {
          "internalType": "bytes",
          "name": "_adapterParams",
          "type": "bytes"
        }
      ],
      "name": "sendBatchFrom",
      "outputs": [],
      "stateMutability": "payable",
      "type": "function"
    },
    {
      "inputs": [
        {
          "internalType": "address",
          "name": "_from",
          "type": "address"
        },
        {
          "internalType": "uint16",
          "name": "_dstChainId",
          "type": "uint16"
        },
        {
          "internalType": "bytes",
          "name": "_toAddress",
          "type": "bytes"
        },
        {
          "internalType": "uint256",
          "name": "_tokenId",
          "type": "uint256"
        },
        {
          "internalType": "uint256",
          "name": "_amount",
          "type": "uint256"
        },
        {
          "internalType": "address payable",
          "name": "_refundAddress",
          "type": "address"
        },
        {
          "internalType": "address",
          "name": "_zroPaymentAddress",
          "type": "address"
        },
        {
          "internalType": "bytes",
          "name": "_adapterParams",
          "type": "bytes"
        }
      ],
      "name": "sendFrom",
      "outputs": [],
      "stateMutability": "payable",
      "type": "function"
    },
    {
      "inputs": [
        {
          "internalType": "address",
          "name": "operator",
          "type": "address"
        },
        {
          "internalType": "bool",
          "name": "approved",
          "type": "bool"
        }
      ],
      "name": "setApprovalForAll",
      "outputs": [],
      "stateMutability": "nonpayable",
      "type": "function"
    },
    {
      "inputs": [
        {
          "internalType": "uint16",
          "name": "_version",
          "type": "uint16"
        },
        {
          "internalType": "uint16",
          "name": "_chainId",
          "type": "uint16"
        },
        {
          "internalType": "uint256",
          "name": "_configType",
          "type": "uint256"
        },
        {
          "internalType": "bytes",
          "name": "_config",
          "type": "bytes"
        }
      ],
      "name": "setConfig",
      "outputs": [],
      "stateMutability": "nonpayable",
      "type": "function"
    },
    {
      "inputs": [
        {
          "internalType": "uint16",
          "name": "_dstChainId",
          "type": "uint16"
        },
        {
          "internalType": "uint16",
          "name": "_packetType",
          "type": "uint16"
        },
        {
          "internalType": "uint256",
          "name": "_minGas",
          "type": "uint256"
        }
      ],
      "name": "setMinDstGas",
      "outputs": [],
      "stateMutability": "nonpayable",
      "type": "function"
    },
    {
      "inputs": [
        {
          "internalType": "uint16",
          "name": "_dstChainId",
          "type": "uint16"
        },
        {
          "internalType": "uint256",
          "name": "_size",
          "type": "uint256"
        }
      ],
      "name": "setPayloadSizeLimit",
      "outputs": [],
      "stateMutability": "nonpayable",
      "type": "function"
    },
    {
      "inputs": [
        {
          "internalType": "address",
          "name": "_precrime",
          "type": "address"
        }
      ],
      "name": "setPrecrime",
      "outputs": [],
      "stateMutability": "nonpayable",
      "type": "function"
    },
    {
      "inputs": [
        {
          "internalType": "uint16",
          "name": "_version",
          "type": "uint16"
        }
      ],
      "name": "setReceiveVersion",
      "outputs": [],
      "stateMutability": "nonpayable",
      "type": "function"
    },
    {
      "inputs": [
        {
          "internalType": "uint16",
          "name": "_version",
          "type": "uint16"
        }
      ],
      "name": "setSendVersion",
      "outputs": [],
      "stateMutability": "nonpayable",
      "type": "function"
    },
    {
      "inputs": [
        {
          "internalType": "uint16",
          "name": "_srcChainId",
          "type": "uint16"
        },
        {
          "internalType": "bytes",
          "name": "_path",
          "type": "bytes"
        }
      ],
      "name": "setTrustedRemote",
      "outputs": [],
      "stateMutability": "nonpayable",
      "type": "function"
    },
    {
      "inputs": [
        {
          "internalType": "uint16",
          "name": "_remoteChainId",
          "type": "uint16"
        },
        {
          "internalType": "bytes",
          "name": "_remoteAddress",
          "type": "bytes"
        }
      ],
      "name": "setTrustedRemoteAddress",
      "outputs": [],
      "stateMutability": "nonpayable",
      "type": "function"
    },
    {
      "inputs": [
        {
          "internalType": "bool",
          "name": "_useCustomAdapterParams",
          "type": "bool"
        }
      ],
      "name": "setUseCustomAdapterParams",
      "outputs": [],
      "stateMutability": "nonpayable",
      "type": "function"
    },
    {
      "inputs": [
        {
          "internalType": "bytes4",
          "name": "interfaceId",
          "type": "bytes4"
        }
      ],
      "name": "supportsInterface",
      "outputs": [
        {
          "internalType": "bool",
          "name": "",
          "type": "bool"
        }
      ],
      "stateMutability": "view",
      "type": "function"
    },
    {
      "inputs": [
        {
          "internalType": "address",
          "name": "newOwner",
          "type": "address"
        }
      ],
      "name": "transferOwnership",
      "outputs": [],
      "stateMutability": "nonpayable",
      "type": "function"
    },
    {
      "inputs": [
        {
          "internalType": "uint16",
          "name": "",
          "type": "uint16"
        }
      ],
      "name": "trustedRemoteLookup",
      "outputs": [
        {
          "internalType": "bytes",
          "name": "",
          "type": "bytes"
        }
      ],
      "stateMutability": "view",
      "type": "function"
    },
    {
      "inputs": [
        {
          "internalType": "uint256",
          "name": "",
          "type": "uint256"
        }
      ],
      "name": "uri",
      "outputs": [
        {
          "internalType": "string",
          "name": "",
          "type": "string"
        }
      ],
      "stateMutability": "view",
      "type": "function"
    },
    {
      "inputs": [],
      "name": "useCustomAdapterParams",
      "outputs": [
        {
          "internalType": "bool",
          "name": "",
          "type": "bool"
        }
      ],
      "stateMutability": "view",
      "type": "function"
    }
  ],
  "bytecode": "0x608060405234801561001057600080fd5b506146d9806100206000396000f3fe6080604052600436106102705760003560e01c80638cfd8f5c1161014f578063cbed8b9c116100c1578063eab45d9c1161007a578063eab45d9c146107ef578063eb8d72b71461080f578063ed629c5c1461082f578063f242432a14610849578063f2fde38b14610869578063f5ecbdbc1461088957600080fd5b8063cbed8b9c14610712578063d1deba1f14610732578063d81d0a1514610745578063df2a5b3b14610765578063e0921f8514610785578063e985e9c5146107a557600080fd5b8063a6c3d16511610113578063a6c3d16514610667578063af3fb21c14610687578063b25356631461069c578063b353aaa7146106bc578063baf3292d146106dc578063c4461834146106fc57600080fd5b80638cfd8f5c1461059d5780638da5cb5b146105d5578063950c8a74146106075780639f38369a14610627578063a22cb4651461064757600080fd5b80633f1f4fa4116101e85780634e1273f4116101ac5780634e1273f4146104975780635b8c41e6146104c457806366ad5c8a14610513578063715018a6146105335780637533d788146105485780638608e5f81461056857600080fd5b80633f1f4fa41461040f57806342d65a8d1461043c578063447705151461045c5780634ab4e687146104715780634db8226a1461048457600080fd5b80630e89341c1161023a5780630e89341c1461033a57806310ddb13714610367578063149e3e1f14610387578063156e29f6146103af5780632eb2c2d6146103cf5780633d8b38f6146103ef57600080fd5b80621d356714610275578062fdd58e1461029757806301ffc9a7146102ca57806307e0db17146102fa5780630df374831461031a575b600080fd5b34801561028157600080fd5b50610295610290366004613265565b6108a9565b005b3480156102a357600080fd5b506102b76102b2366004613318565b610ac5565b6040519081526020015b60405180910390f35b3480156102d657600080fd5b506102ea6102e536600461335a565b610b59565b60405190151581526020016102c1565b34801561030657600080fd5b50610295610315366004613377565b610b7c565b34801561032657600080fd5b50610295610335366004613392565b610be9565b34801561034657600080fd5b5061035a6103553660046133ae565b610c08565b6040516102c1919061341f565b34801561037357600080fd5b50610295610382366004613377565b610c9d565b34801561039357600080fd5b5061039c600281565b60405161ffff90911681526020016102c1565b3480156103bb57600080fd5b506102956103ca366004613432565b610cd9565b3480156103db57600080fd5b506102956103ea3660046135ca565b610cf9565b3480156103fb57600080fd5b506102ea61040a366004613677565b610d3e565b34801561041b57600080fd5b506102b761042a366004613377565b60686020526000908152604090205481565b34801561044857600080fd5b50610295610457366004613677565b610e0a565b34801561046857600080fd5b506102b7600081565b61029561047f3660046136c9565b610e74565b6102956104923660046137b8565b610e8e565b3480156104a357600080fd5b506104b76104b236600461385e565b610eae565b6040516102c19190613965565b3480156104d057600080fd5b506102b76104df366004613978565b6097602090815260009384526040808520845180860184018051928152908401958401959095209452929052825290205481565b34801561051f57600080fd5b5061029561052e366004613265565b610fd7565b34801561053f57600080fd5b506102956110b3565b34801561055457600080fd5b5061035a610563366004613377565b6110c7565b34801561057457600080fd5b506105886105833660046139e5565b611161565b604080519283526020830191909152016102c1565b3480156105a957600080fd5b506102b76105b8366004613a7b565b606760209081526000928352604080842090915290825290205481565b3480156105e157600080fd5b506033546001600160a01b03165b6040516001600160a01b0390911681526020016102c1565b34801561061357600080fd5b506069546105ef906001600160a01b031681565b34801561063357600080fd5b5061035a610642366004613377565b611191565b34801561065357600080fd5b50610295610662366004613aae565b6112a8565b34801561067357600080fd5b50610295610682366004613677565b6112b7565b34801561069357600080fd5b5061039c600181565b3480156106a857600080fd5b506105886106b7366004613ada565b61134a565b3480156106c857600080fd5b506065546105ef906001600160a01b031681565b3480156106e857600080fd5b506102956106f7366004613b76565b6113fb565b34801561070857600080fd5b506102b761271081565b34801561071e57600080fd5b5061029561072d366004613b93565b611458565b610295610740366004613265565b6114d1565b34801561075157600080fd5b50610295610760366004613c01565b6116e7565b34801561077157600080fd5b50610295610780366004613c76565b611702565b34801561079157600080fd5b506102956107a0366004613cb2565b6117b4565b3480156107b157600080fd5b506102ea6107c0366004613d1f565b6001600160a01b03918216600090815261012e6020908152604080832093909416825291909152205460ff1690565b3480156107fb57600080fd5b5061029561080a366004613d58565b6118ec565b34801561081b57600080fd5b5061029561082a366004613677565b611935565b34801561083b57600080fd5b5060fb546102ea9060ff1681565b34801561085557600080fd5b50610295610864366004613d73565b61198f565b34801561087557600080fd5b50610295610884366004613b76565b6119d4565b34801561089557600080fd5b5061035a6108a4366004613ddb565b611a4d565b6065546001600160a01b0316336001600160a01b0316146109115760405162461bcd60e51b815260206004820152601e60248201527f4c7a4170703a20696e76616c696420656e64706f696e742063616c6c6572000060448201526064015b60405180910390fd5b61ffff86166000908152606660205260408120805461092f90613e28565b80601f016020809104026020016040519081016040528092919081815260200182805461095b90613e28565b80156109a85780601f1061097d576101008083540402835291602001916109a8565b820191906000526020600020905b81548152906001019060200180831161098b57829003601f168201915b505050505090508051868690501480156109c3575060008151115b80156109eb5750805160208201206040516109e19088908890613e63565b6040518091039020145b610a465760405162461bcd60e51b815260206004820152602660248201527f4c7a4170703a20696e76616c696420736f757263652073656e64696e6720636f6044820152651b9d1c9858dd60d21b6064820152608401610908565b610abc8787878080601f01602080910402602001604051908101604052809392919081815260200183838082843760009201919091525050604080516020601f8a018190048102820181019092528881528a935091508890889081908401838280828437600092019190915250611ae092505050565b50505050505050565b60006001600160a01b038316610b305760405162461bcd60e51b815260206004820152602a60248201527f455243313135353a2061646472657373207a65726f206973206e6f742061207660448201526930b634b21037bbb732b960b11b6064820152608401610908565b50600090815261012d602090815260408083206001600160a01b03949094168352929052205490565b60006001600160e01b031982161580610b765750610b7682611b59565b92915050565b610b84611b99565b6065546040516307e0db1760e01b815261ffff831660048201526001600160a01b03909116906307e0db17906024015b600060405180830381600087803b158015610bce57600080fd5b505af1158015610be2573d6000803e3d6000fd5b5050505050565b610bf1611b99565b61ffff909116600090815260686020526040902055565b606061012f8054610c1890613e28565b80601f0160208091040260200160405190810160405280929190818152602001828054610c4490613e28565b8015610c915780601f10610c6657610100808354040283529160200191610c91565b820191906000526020600020905b815481529060010190602001808311610c7457829003601f168201915b50505050509050919050565b610ca5611b99565b6065546040516310ddb13760e01b815261ffff831660048201526001600160a01b03909116906310ddb13790602401610bb4565b610cf483838360405180602001604052806000815250611bf3565b505050565b6001600160a01b038516331480610d155750610d1585336107c0565b610d315760405162461bcd60e51b815260040161090890613e73565b610be28585858585611cc7565b61ffff831660009081526066602052604081208054829190610d5f90613e28565b80601f0160208091040260200160405190810160405280929190818152602001828054610d8b90613e28565b8015610dd85780601f10610dad57610100808354040283529160200191610dd8565b820191906000526020600020905b815481529060010190602001808311610dbb57829003601f168201915b505050505090508383604051610def929190613e63565b60405180910390208180519060200120149150509392505050565b610e12611b99565b6065546040516342d65a8d60e01b81526001600160a01b03909116906342d65a8d90610e4690869086908690600401613eeb565b600060405180830381600087803b158015610e6057600080fd5b505af1158015610abc573d6000803e3d6000fd5b610e848888888888888888611e60565b5050505050505050565b610e84888888610e9d89612048565b610ea689612048565b888888611e60565b60608151835114610f135760405162461bcd60e51b815260206004820152602960248201527f455243313135353a206163636f756e747320616e6420696473206c656e677468604482015268040dad2e6dac2e8c6d60bb1b6064820152608401610908565b600083516001600160401b03811115610f2e57610f2e613467565b604051908082528060200260200182016040528015610f57578160200160208202803683370190505b50905060005b8451811015610fcf57610fa2858281518110610f7b57610f7b613f09565b6020026020010151858381518110610f9557610f95613f09565b6020026020010151610ac5565b828281518110610fb457610fb4613f09565b6020908102919091010152610fc881613f35565b9050610f5d565b509392505050565b3330146110355760405162461bcd60e51b815260206004820152602660248201527f4e6f6e626c6f636b696e674c7a4170703a2063616c6c6572206d7573742062656044820152650204c7a4170760d41b6064820152608401610908565b6110ab8686868080601f01602080910402602001604051908101604052809392919081815260200183838082843760009201919091525050604080516020601f89018190048102820181019092528781528993509150879087908190840183828082843760009201919091525061209392505050565b505050505050565b6110bb611b99565b6110c560006121e1565b565b606660205260009081526040902080546110e090613e28565b80601f016020809104026020016040519081016040528092919081815260200182805461110c90613e28565b80156111595780601f1061112e57610100808354040283529160200191611159565b820191906000526020600020905b81548152906001019060200180831161113c57829003601f168201915b505050505081565b600080611182888861117289612048565b61117b89612048565b888861134a565b91509150965096945050505050565b61ffff81166000908152606660205260408120805460609291906111b490613e28565b80601f01602080910402602001604051908101604052809291908181526020018280546111e090613e28565b801561122d5780601f106112025761010080835404028352916020019161122d565b820191906000526020600020905b81548152906001019060200180831161121057829003601f168201915b505050505090508051600014156112865760405162461bcd60e51b815260206004820152601d60248201527f4c7a4170703a206e6f20747275737465642070617468207265636f72640000006044820152606401610908565b6112a16000601483516112999190613f50565b839190612233565b9392505050565b6112b3338383612340565b5050565b6112bf611b99565b8181306040516020016112d493929190613f67565b60408051601f1981840301815291815261ffff85166000908152606660209081529190208251611309939192909101906130e2565b507f8c0400cfe2d1199b1a725c78960bcc2a344d869b80590d0f2bd005db15a572ce83838360405161133d93929190613eeb565b60405180910390a1505050565b600080600087878760405160200161136493929190613f8d565b60408051601f198184030181529082905260655463040a7bb160e41b83529092506001600160a01b0316906340a7bb10906113ab908c90309086908b908b90600401613fd0565b6040805180830381865afa1580156113c7573d6000803e3d6000fd5b505050506040513d601f19601f820116820180604052508101906113eb9190614024565b9250925050965096945050505050565b611403611b99565b606980546001600160a01b0319166001600160a01b0383169081179091556040519081527f5db758e995a17ec1ad84bdef7e8c3293a0bd6179bcce400dff5d4c3d87db726b906020015b60405180910390a150565b611460611b99565b6065546040516332fb62e760e21b81526001600160a01b039091169063cbed8b9c906114989088908890889088908890600401614048565b600060405180830381600087803b1580156114b257600080fd5b505af11580156114c6573d6000803e3d6000fd5b505050505050505050565b61ffff861660009081526097602052604080822090516114f49088908890613e63565b90815260408051602092819003830190206001600160401b038716600090815292529020549050806115745760405162461bcd60e51b815260206004820152602360248201527f4e6f6e626c6f636b696e674c7a4170703a206e6f2073746f726564206d65737360448201526261676560e81b6064820152608401610908565b808383604051611585929190613e63565b6040518091039020146115e45760405162461bcd60e51b815260206004820152602160248201527f4e6f6e626c6f636b696e674c7a4170703a20696e76616c6964207061796c6f616044820152601960fa1b6064820152608401610908565b61ffff871660009081526097602052604080822090516116079089908990613e63565b90815260408051602092819003830181206001600160401b038916600090815290845282902093909355601f8801829004820283018201905286825261169f918991899089908190840183828082843760009201919091525050604080516020601f8a018190048102820181019092528881528a93509150889088908190840183828082843760009201919091525061209392505050565b7fc264d91f3adc5588250e1551f547752ca0cfa8f6b530d243b9f9f4cab10ea8e587878787856040516116d6959493929190614081565b60405180910390a150505050505050565b610cf483838360405180602001604052806000815250612422565b61170a611b99565b600081116117525760405162461bcd60e51b81526020600482015260156024820152744c7a4170703a20696e76616c6964206d696e47617360581b6044820152606401610908565b61ffff83811660008181526067602090815260408083209487168084529482529182902085905581519283528201929092529081018290527f9d5c7c0b934da8fefa9c7760c98383778a12dfbfc0c3b3106518f43fb9508ac09060600161133d565b600054610100900460ff16158080156117d45750600054600160ff909116105b806117ee5750303b1580156117ee575060005460ff166001145b6118515760405162461bcd60e51b815260206004820152602e60248201527f496e697469616c697a61626c653a20636f6e747261637420697320616c72656160448201526d191e481a5b9a5d1a585b1a5e995960921b6064820152608401610908565b6000805460ff191660011790558015611874576000805461ff0019166101001790555b61187e848461256f565b81156118a0576118a03360018460405180602001604052806000815250611bf3565b80156118e6576000805461ff0019169055604051600181527f7f26b83ff96e1f2b6a682f133852f6798a09c465da95921460cefb38474024989060200160405180910390a15b50505050565b6118f4611b99565b60fb805460ff19168215159081179091556040519081527f1584ad594a70cbe1e6515592e1272a987d922b097ead875069cebe8b40c004a49060200161144d565b61193d611b99565b61ffff8316600090815260666020526040902061195b908383613166565b507ffa41487ad5d6728f0b19276fa1eddc16558578f5109fc39d2dc33c3230470dab83838360405161133d93929190613eeb565b6001600160a01b0385163314806119ab57506119ab85336107c0565b6119c75760405162461bcd60e51b815260040161090890613e73565b610be285858585856125b0565b6119dc611b99565b6001600160a01b038116611a415760405162461bcd60e51b815260206004820152602660248201527f4f776e61626c653a206e6577206f776e657220697320746865207a65726f206160448201526564647265737360d01b6064820152608401610908565b611a4a816121e1565b50565b606554604051633d7b2f6f60e21b815261ffff808716600483015285166024820152306044820152606481018390526060916001600160a01b03169063f5ecbdbc90608401600060405180830381865afa158015611aaf573d6000803e3d6000fd5b505050506040513d6000823e601f3d908101601f19168201604052611ad7919081019061410b565b95945050505050565b600080611b435a60966366ad5c8a60e01b89898989604051602401611b089493929190614147565b60408051601f198184030181529190526020810180516001600160e01b03166001600160e01b031990931692909217909152309291906126d5565b91509150816110ab576110ab868686868561275f565b60006001600160e01b03198216636cdb3d1360e11b1480611b8a57506001600160e01b031982166303a24d0760e21b145b80610b765750610b76826127fc565b6033546001600160a01b031633146110c55760405162461bcd60e51b815260206004820181905260248201527f4f776e61626c653a2063616c6c6572206973206e6f7420746865206f776e65726044820152606401610908565b6001600160a01b038416611c195760405162461bcd60e51b815260040161090890614185565b336000611c2585612048565b90506000611c3285612048565b9050600086815261012d602090815260408083206001600160a01b038b16845290915281208054879290611c679084906141c6565b909155505060408051878152602081018790526001600160a01b03808a1692600092918716917fc3d58168c5ae7397731d063d5bbf3d657854427343f4c083240f7aacaa2d0f62910160405180910390a4610abc83600089898989612831565b8151835114611ce85760405162461bcd60e51b8152600401610908906141de565b6001600160a01b038416611d0e5760405162461bcd60e51b815260040161090890614226565b3360005b8451811015611dfa576000858281518110611d2f57611d2f613f09565b602002602001015190506000858381518110611d4d57611d4d613f09565b602090810291909101810151600084815261012d835260408082206001600160a01b038e168352909352919091205490915081811015611d9f5760405162461bcd60e51b81526004016109089061426b565b600083815261012d602090815260408083206001600160a01b038e8116855292528083208585039055908b16825281208054849290611ddf9084906141c6565b9250508190555050505080611df390613f35565b9050611d12565b50846001600160a01b0316866001600160a01b0316826001600160a01b03167f4a39dc06d4c0dbc64b70af90fd698a233a518aa5d07e595d983b8c0526c8f7fb8787604051611e4a9291906142b5565b60405180910390a46110ab81878787878761298d565b611e6d8888888888612a48565b6000868686604051602001611e8493929190613f8d565b6040516020818303038152906040529050855160011415611f8a5760fb5460ff1615611ebd57611eb8886001846000612ad4565b611edc565b815115611edc5760405162461bcd60e51b8152600401610908906142da565b611eea888286868634612bb3565b86604051611ef8919061431e565b6040518091039020896001600160a01b03168961ffff167f968b0d61ebcf43e5d76ed87bd2c4ee2f22b4969b9f4ca49e3373c025eddd5eeb89600081518110611f4357611f43613f09565b602002602001015189600081518110611f5e57611f5e613f09565b6020026020010151604051611f7d929190918252602082015260400190565b60405180910390a46114c6565b6001865111156114c65760fb5460ff1615611fb257611fad886002846000612ad4565b611fd1565b815115611fd15760405162461bcd60e51b8152600401610908906142da565b611fdf888286868634612bb3565b86604051611fed919061431e565b6040518091039020896001600160a01b03168961ffff167fddd15f7cfbd674ac2096d598f1650367f8a8bd72b4e3abd85591099ea3b57e3389896040516120359291906142b5565b60405180910390a4505050505050505050565b6040805160018082528183019092526060916000919060208083019080368337019050509050828160008151811061208257612082613f09565b602090810291909101015292915050565b6000806000838060200190518101906120ac91906143a0565b601483015192955090935091506120c588828585612d3d565b82516001141561216f57806001600160a01b0316876040516120e7919061431e565b60405180910390208961ffff167f1bf64e58d19fc43de4c44b3d1bb1fae313979af831a7a39f3297564294329f0f8660008151811061212857612128613f09565b60200260200101518660008151811061214357612143613f09565b6020026020010151604051612162929190918252602082015260400190565b60405180910390a4610e84565b600183511115610e8457806001600160a01b031687604051612191919061431e565b60405180910390208961ffff167f1ae08edbbcd7baa8d064835de8593ce16b313414525ac89534e349f4da7926e486866040516121cf9291906142b5565b60405180910390a45050505050505050565b603380546001600160a01b038381166001600160a01b0319831681179093556040519116919082907f8be0079c531659141344cd1fd0a4f28419497f9722a3daafe3b4186f6b6457e090600090a35050565b60608161224181601f6141c6565b10156122805760405162461bcd60e51b815260206004820152600e60248201526d736c6963655f6f766572666c6f7760901b6044820152606401610908565b61228a82846141c6565b845110156122ce5760405162461bcd60e51b8152602060048201526011602482015270736c6963655f6f75744f66426f756e647360781b6044820152606401610908565b6060821580156122ed5760405191506000825260208201604052612337565b6040519150601f8416801560200281840101858101878315602002848b0101015b8183101561232657805183526020928301920161230e565b5050858452601f01601f1916604052505b50949350505050565b816001600160a01b0316836001600160a01b031614156123b45760405162461bcd60e51b815260206004820152602960248201527f455243313135353a2073657474696e6720617070726f76616c20737461747573604482015268103337b91039b2b63360b91b6064820152608401610908565b6001600160a01b03838116600081815261012e6020908152604080832094871680845294825291829020805460ff191686151590811790915591519182527f17307eab39ab6107e8899845ad3d59bd9653f200f220920489ca2b5937696c31910160405180910390a3505050565b6001600160a01b0384166124485760405162461bcd60e51b815260040161090890614185565b81518351146124695760405162461bcd60e51b8152600401610908906141de565b3360005b84518110156125075783818151811061248857612488613f09565b602002602001015161012d60008784815181106124a7576124a7613f09565b602002602001015181526020019081526020016000206000886001600160a01b03166001600160a01b0316815260200190815260200160002060008282546124ef91906141c6565b909155508190506124ff81613f35565b91505061246d565b50846001600160a01b031660006001600160a01b0316826001600160a01b03167f4a39dc06d4c0dbc64b70af90fd698a233a518aa5d07e595d983b8c0526c8f7fb87876040516125589291906142b5565b60405180910390a4610be28160008787878761298d565b600054610100900460ff166125965760405162461bcd60e51b81526004016109089061441d565b61259f82612d58565b6125a7612d88565b6112b381612db8565b6001600160a01b0384166125d65760405162461bcd60e51b815260040161090890614226565b3360006125e285612048565b905060006125ef85612048565b9050600086815261012d602090815260408083206001600160a01b038c168452909152902054858110156126355760405162461bcd60e51b81526004016109089061426b565b600087815261012d602090815260408083206001600160a01b038d8116855292528083208985039055908a168252812080548892906126759084906141c6565b909155505060408051888152602081018890526001600160a01b03808b16928c821692918816917fc3d58168c5ae7397731d063d5bbf3d657854427343f4c083240f7aacaa2d0f62910160405180910390a46114c6848a8a8a8a8a612831565b6000606060008060008661ffff166001600160401b038111156126fa576126fa613467565b6040519080825280601f01601f191660200182016040528015612724576020820181803683370190505b50905060008087516020890160008d8df191503d925086831115612746578692505b828152826000602083013e909890975095505050505050565b8180519060200120609760008761ffff1661ffff16815260200190815260200160002085604051612790919061431e565b9081526040805191829003602090810183206001600160401b0388166000908152915220919091557fe183f33de2837795525b4792ca4cd60535bd77c53b7e7030060bfcf5734d6b0c906127ed9087908790879087908790614468565b60405180910390a15050505050565b60006001600160e01b031982166319abbbbb60e11b1480610b7657506301ffc9a760e01b6001600160e01b0319831614610b76565b6001600160a01b0384163b156110ab5760405163f23a6e6160e01b81526001600160a01b0385169063f23a6e619061287590899089908890889088906004016144ba565b6020604051808303816000875af19250505080156128b0575060408051601f3d908101601f191682019092526128ad918101906144f4565b60015b61295d576128bc614511565b806308c379a014156128f657506128d161452d565b806128dc57506128f8565b8060405162461bcd60e51b8152600401610908919061341f565b505b60405162461bcd60e51b815260206004820152603460248201527f455243313135353a207472616e7366657220746f206e6f6e20455243313135356044820152732932b1b2b4bb32b91034b6b83632b6b2b73a32b960611b6064820152608401610908565b6001600160e01b0319811663f23a6e6160e01b14610abc5760405162461bcd60e51b8152600401610908906145b6565b6001600160a01b0384163b156110ab5760405163bc197c8160e01b81526001600160a01b0385169063bc197c81906129d190899089908890889088906004016145fe565b6020604051808303816000875af1925050508015612a0c575060408051601f3d908101601f19168201909252612a09918101906144f4565b60015b612a18576128bc614511565b6001600160e01b0319811663bc197c8160e01b14610abc5760405162461bcd60e51b8152600401610908906145b6565b336001600160a01b038616811480612a655750612a6586826107c0565b612ac95760405162461bcd60e51b815260206004820152602f60248201527f4f4e4654313135353a2073656e642063616c6c6572206973206e6f74206f776e60448201526e195c881b9bdc88185c1c1c9bdd9959608a1b6064820152608401610908565b6110ab868484612e01565b6000612adf83613008565b61ffff808716600090815260676020908152604080832093891683529290529081205491925090612b119084906141c6565b905060008111612b635760405162461bcd60e51b815260206004820152601a60248201527f4c7a4170703a206d696e4761734c696d6974206e6f74207365740000000000006044820152606401610908565b808210156110ab5760405162461bcd60e51b815260206004820152601b60248201527f4c7a4170703a20676173206c696d697420697320746f6f206c6f7700000000006044820152606401610908565b61ffff861660009081526066602052604081208054612bd190613e28565b80601f0160208091040260200160405190810160405280929190818152602001828054612bfd90613e28565b8015612c4a5780601f10612c1f57610100808354040283529160200191612c4a565b820191906000526020600020905b815481529060010190602001808311612c2d57829003601f168201915b50505050509050805160001415612cbc5760405162461bcd60e51b815260206004820152603060248201527f4c7a4170703a2064657374696e6174696f6e20636861696e206973206e6f742060448201526f61207472757374656420736f7572636560801b6064820152608401610908565b612cc7878751613064565b60655460405162c5803160e81b81526001600160a01b039091169063c5803100908490612d02908b9086908c908c908c908c9060040161463c565b6000604051808303818588803b158015612d1b57600080fd5b505af1158015612d2f573d6000803e3d6000fd5b505050505050505050505050565b6118e683838360405180602001604052806000815250612422565b600054610100900460ff16612d7f5760405162461bcd60e51b81526004016109089061441d565b611a4a816130d2565b600054610100900460ff16612daf5760405162461bcd60e51b81526004016109089061441d565b6110c5336121e1565b600054610100900460ff16612ddf5760405162461bcd60e51b81526004016109089061441d565b606580546001600160a01b0319166001600160a01b0392909216919091179055565b6001600160a01b038316612e635760405162461bcd60e51b815260206004820152602360248201527f455243313135353a206275726e2066726f6d20746865207a65726f206164647260448201526265737360e81b6064820152608401610908565b8051825114612e845760405162461bcd60e51b8152600401610908906141de565b604080516020810190915260009081905233905b8351811015612f9b576000848281518110612eb557612eb5613f09565b602002602001015190506000848381518110612ed357612ed3613f09565b602090810291909101810151600084815261012d835260408082206001600160a01b038c168352909352919091205490915081811015612f615760405162461bcd60e51b8152602060048201526024808201527f455243313135353a206275726e20616d6f756e7420657863656564732062616c604482015263616e636560e01b6064820152608401610908565b600092835261012d602090815260408085206001600160a01b038b1686529091529092209103905580612f9381613f35565b915050612e98565b5060006001600160a01b0316846001600160a01b0316826001600160a01b03167f4a39dc06d4c0dbc64b70af90fd698a233a518aa5d07e595d983b8c0526c8f7fb8686604051612fec9291906142b5565b60405180910390a46040805160208101909152600090526118e6565b600060228251101561305c5760405162461bcd60e51b815260206004820152601c60248201527f4c7a4170703a20696e76616c69642061646170746572506172616d73000000006044820152606401610908565b506022015190565b61ffff82166000908152606860205260409020548061308257506127105b80821115610cf45760405162461bcd60e51b815260206004820181905260248201527f4c7a4170703a207061796c6f61642073697a6520697320746f6f206c617267656044820152606401610908565b80516112b39061012f9060208401905b8280546130ee90613e28565b90600052602060002090601f0160209004810192826131105760008555613156565b82601f1061312957805160ff1916838001178555613156565b82800160010185558215613156579182015b8281111561315657825182559160200191906001019061313b565b506131629291506131da565b5090565b82805461317290613e28565b90600052602060002090601f0160209004810192826131945760008555613156565b82601f106131ad5782800160ff19823516178555613156565b82800160010185558215613156579182015b828111156131565782358255916020019190600101906131bf565b5b8082111561316257600081556001016131db565b803561ffff8116811461320157600080fd5b919050565b60008083601f84011261321857600080fd5b5081356001600160401b0381111561322f57600080fd5b60208301915083602082850101111561324757600080fd5b9250929050565b80356001600160401b038116811461320157600080fd5b6000806000806000806080878903121561327e57600080fd5b613287876131ef565b955060208701356001600160401b03808211156132a357600080fd5b6132af8a838b01613206565b90975095508591506132c360408a0161324e565b945060608901359150808211156132d957600080fd5b506132e689828a01613206565b979a9699509497509295939492505050565b6001600160a01b0381168114611a4a57600080fd5b8035613201816132f8565b6000806040838503121561332b57600080fd5b8235613336816132f8565b946020939093013593505050565b6001600160e01b031981168114611a4a57600080fd5b60006020828403121561336c57600080fd5b81356112a181613344565b60006020828403121561338957600080fd5b6112a1826131ef565b600080604083850312156133a557600080fd5b613336836131ef565b6000602082840312156133c057600080fd5b5035919050565b60005b838110156133e25781810151838201526020016133ca565b838111156118e65750506000910152565b6000815180845261340b8160208601602086016133c7565b601f01601f19169290920160200192915050565b6020815260006112a160208301846133f3565b60008060006060848603121561344757600080fd5b8335613452816132f8565b95602085013595506040909401359392505050565b634e487b7160e01b600052604160045260246000fd5b601f8201601f191681016001600160401b03811182821017156134a2576134a2613467565b6040525050565b60006001600160401b038211156134c2576134c2613467565b5060051b60200190565b600082601f8301126134dd57600080fd5b813560206134ea826134a9565b6040516134f7828261347d565b83815260059390931b850182019282810191508684111561351757600080fd5b8286015b84811015613532578035835291830191830161351b565b509695505050505050565b60006001600160401b0382111561355657613556613467565b50601f01601f191660200190565b600061356f8361353d565b60405161357c828261347d565b80925084815285858501111561359157600080fd5b8484602083013760006020868301015250509392505050565b600082601f8301126135bb57600080fd5b6112a183833560208501613564565b600080600080600060a086880312156135e257600080fd5b85356135ed816132f8565b945060208601356135fd816132f8565b935060408601356001600160401b038082111561361957600080fd5b61362589838a016134cc565b9450606088013591508082111561363b57600080fd5b61364789838a016134cc565b9350608088013591508082111561365d57600080fd5b5061366a888289016135aa565b9150509295509295909350565b60008060006040848603121561368c57600080fd5b613695846131ef565b925060208401356001600160401b038111156136b057600080fd5b6136bc86828701613206565b9497909650939450505050565b600080600080600080600080610100898b0312156136e657600080fd5b6136ef8961330d565b97506136fd60208a016131ef565b965060408901356001600160401b038082111561371957600080fd5b6137258c838d016135aa565b975060608b013591508082111561373b57600080fd5b6137478c838d016134cc565b965060808b013591508082111561375d57600080fd5b6137698c838d016134cc565b955061377760a08c0161330d565b945061378560c08c0161330d565b935060e08b013591508082111561379b57600080fd5b506137a88b828c016135aa565b9150509295985092959890939650565b600080600080600080600080610100898b0312156137d557600080fd5b88356137e0816132f8565b97506137ee60208a016131ef565b965060408901356001600160401b038082111561380a57600080fd5b6138168c838d016135aa565b975060608b0135965060808b0135955060a08b01359150613836826132f8565b90935060c08a013590613848826132f8565b90925060e08a0135908082111561379b57600080fd5b6000806040838503121561387157600080fd5b82356001600160401b038082111561388857600080fd5b818501915085601f83011261389c57600080fd5b813560206138a9826134a9565b6040516138b6828261347d565b83815260059390931b85018201928281019150898411156138d657600080fd5b948201945b838610156138fd5785356138ee816132f8565b825294820194908201906138db565b9650508601359250508082111561391357600080fd5b50613920858286016134cc565b9150509250929050565b600081518084526020808501945080840160005b8381101561395a5781518752958201959082019060010161393e565b509495945050505050565b6020815260006112a1602083018461392a565b60008060006060848603121561398d57600080fd5b613996846131ef565b925060208401356001600160401b038111156139b157600080fd5b6139bd868287016135aa565b9250506139cc6040850161324e565b90509250925092565b8035801515811461320157600080fd5b60008060008060008060c087890312156139fe57600080fd5b613a07876131ef565b955060208701356001600160401b0380821115613a2357600080fd5b613a2f8a838b016135aa565b96506040890135955060608901359450613a4b60808a016139d5565b935060a0890135915080821115613a6157600080fd5b50613a6e89828a016135aa565b9150509295509295509295565b60008060408385031215613a8e57600080fd5b613a97836131ef565b9150613aa5602084016131ef565b90509250929050565b60008060408385031215613ac157600080fd5b8235613acc816132f8565b9150613aa5602084016139d5565b60008060008060008060c08789031215613af357600080fd5b613afc876131ef565b955060208701356001600160401b0380821115613b1857600080fd5b613b248a838b016135aa565b96506040890135915080821115613b3a57600080fd5b613b468a838b016134cc565b95506060890135915080821115613b5c57600080fd5b613b688a838b016134cc565b9450613a4b60808a016139d5565b600060208284031215613b8857600080fd5b81356112a1816132f8565b600080600080600060808688031215613bab57600080fd5b613bb4866131ef565b9450613bc2602087016131ef565b93506040860135925060608601356001600160401b03811115613be457600080fd5b613bf088828901613206565b969995985093965092949392505050565b600080600060608486031215613c1657600080fd5b8335613c21816132f8565b925060208401356001600160401b0380821115613c3d57600080fd5b613c49878388016134cc565b93506040860135915080821115613c5f57600080fd5b50613c6c868287016134cc565b9150509250925092565b600080600060608486031215613c8b57600080fd5b613c94846131ef565b9250613ca2602085016131ef565b9150604084013590509250925092565b600080600060608486031215613cc757600080fd5b83356001600160401b03811115613cdd57600080fd5b8401601f81018613613cee57600080fd5b613cfd86823560208401613564565b9350506020840135613d0e816132f8565b929592945050506040919091013590565b60008060408385031215613d3257600080fd5b8235613d3d816132f8565b91506020830135613d4d816132f8565b809150509250929050565b600060208284031215613d6a57600080fd5b6112a1826139d5565b600080600080600060a08688031215613d8b57600080fd5b8535613d96816132f8565b94506020860135613da6816132f8565b9350604086013592506060860135915060808601356001600160401b03811115613dcf57600080fd5b61366a888289016135aa565b60008060008060808587031215613df157600080fd5b613dfa856131ef565b9350613e08602086016131ef565b92506040850135613e18816132f8565b9396929550929360600135925050565b600181811c90821680613e3c57607f821691505b60208210811415613e5d57634e487b7160e01b600052602260045260246000fd5b50919050565b8183823760009101908152919050565b6020808252602f908201527f455243313135353a2063616c6c6572206973206e6f7420746f6b656e206f776e60408201526e195c881b9bdc88185c1c1c9bdd9959608a1b606082015260800190565b81835281816020850137506000828201602090810191909152601f909101601f19169091010190565b61ffff84168152604060208201526000611ad7604083018486613ec2565b634e487b7160e01b600052603260045260246000fd5b634e487b7160e01b600052601160045260246000fd5b6000600019821415613f4957613f49613f1f565b5060010190565b600082821015613f6257613f62613f1f565b500390565b8284823760609190911b6bffffffffffffffffffffffff19169101908152601401919050565b606081526000613fa060608301866133f3565b8281036020840152613fb2818661392a565b90508281036040840152613fc6818561392a565b9695505050505050565b61ffff861681526001600160a01b038516602082015260a060408201819052600090613ffe908301866133f3565b8415156060840152828103608084015261401881856133f3565b98975050505050505050565b6000806040838503121561403757600080fd5b505080516020909101519092909150565b600061ffff808816835280871660208401525084604083015260806060830152614076608083018486613ec2565b979650505050505050565b61ffff8616815260806020820152600061409f608083018688613ec2565b6001600160401b0394909416604083015250606001529392505050565b600082601f8301126140cd57600080fd5b81516140d88161353d565b6040516140e5828261347d565b8281528560208487010111156140fa57600080fd5b611ad78360208301602088016133c7565b60006020828403121561411d57600080fd5b81516001600160401b0381111561413357600080fd5b61413f848285016140bc565b949350505050565b61ffff8516815260806020820152600061416460808301866133f3565b6001600160401b0385166040840152828103606084015261407681856133f3565b60208082526021908201527f455243313135353a206d696e7420746f20746865207a65726f206164647265736040820152607360f81b606082015260800190565b600082198211156141d9576141d9613f1f565b500190565b60208082526028908201527f455243313135353a2069647320616e6420616d6f756e7473206c656e677468206040820152670dad2e6dac2e8c6d60c31b606082015260800190565b60208082526025908201527f455243313135353a207472616e7366657220746f20746865207a65726f206164604082015264647265737360d81b606082015260800190565b6020808252602a908201527f455243313135353a20696e73756666696369656e742062616c616e636520666f60408201526939103a3930b739b332b960b11b606082015260800190565b6040815260006142c8604083018561392a565b8281036020840152611ad7818561392a565b60208082526024908201527f4c7a4170703a205f61646170746572506172616d73206d75737420626520656d604082015263383a3c9760e11b606082015260800190565b600082516143308184602087016133c7565b9190910192915050565b600082601f83011261434b57600080fd5b81516020614358826134a9565b604051614365828261347d565b83815260059390931b850182019282810191508684111561438557600080fd5b8286015b848110156135325780518352918301918301614389565b6000806000606084860312156143b557600080fd5b83516001600160401b03808211156143cc57600080fd5b6143d8878388016140bc565b945060208601519150808211156143ee57600080fd5b6143fa8783880161433a565b9350604086015191508082111561441057600080fd5b50613c6c8682870161433a565b6020808252602b908201527f496e697469616c697a61626c653a20636f6e7472616374206973206e6f74206960408201526a6e697469616c697a696e6760a81b606082015260800190565b61ffff8616815260a06020820152600061448560a08301876133f3565b6001600160401b038616604084015282810360608401526144a681866133f3565b9050828103608084015261401881856133f3565b6001600160a01b03868116825285166020820152604081018490526060810183905260a060808201819052600090614076908301846133f3565b60006020828403121561450657600080fd5b81516112a181613344565b600060033d111561452a5760046000803e5060005160e01c5b90565b600060443d101561453b5790565b6040516003193d81016004833e81513d6001600160401b03816024840111818411171561456a57505050505090565b82850191508151818111156145825750505050505090565b843d870101602082850101111561459c5750505050505090565b6145ab6020828601018761347d565b509095945050505050565b60208082526028908201527f455243313135353a204552433131353552656365697665722072656a656374656040820152676420746f6b656e7360c01b606082015260800190565b6001600160a01b0386811682528516602082015260a06040820181905260009061462a9083018661392a565b82810360608401526144a6818661392a565b61ffff8716815260c06020820152600061465960c08301886133f3565b828103604084015261466b81886133f3565b6001600160a01b0387811660608601528616608085015283810360a0850152905061469681856133f3565b999850505050505050505056fea2646970667358221220dd44f72e99f39c54e6b877c4e2e0cddfa2e0627eca0415d028c8965a204dc8af64736f6c634300080c0033",
  "linkReferences": {},
  "deployedLinkReferences": {}
}