{
  "_format": "hh-sol-artifact-1",
  "contractName": "ExampleOFTUpgradeable",
  "sourceName": "contracts/contracts-upgradable/example/ExampleOFTUpgradeable.sol",
  "abi": [
    {
      "anonymous": false,
      "inputs": [
        {
          "indexed": true,
          "internalType": "address",
          "name": "owner",
          "type": "address"
        },
        {
          "indexed": true,
          "internalType": "address",
          "name": "spender",
          "type": "address"
        },
        {
          "indexed": false,
          "internalType": "uint256",
          "name": "value",
          "type": "uint256"
        }
      ],
      "name": "Approval",
      "type": "event"
    },
    {
      "anonymous": false,
      "inputs": [
        {
          "indexed": false,
          "internalType": "uint8",
          "name": "version",
          "type": "uint8"
        }
      ],
      "name": "Initialized",
      "type": "event"
    },
    {
      "anonymous": false,
      "inputs": [
        {
          "indexed": false,
          "internalType": "uint16",
          "name": "_srcChainId",
          "type": "uint16"
        },
        {
          "indexed": false,
          "internalType": "bytes",
          "name": "_srcAddress",
          "type": "bytes"
        },
        {
          "indexed": false,
          "internalType": "uint64",
          "name": "_nonce",
          "type": "uint64"
        },
        {
          "indexed": false,
          "internalType": "bytes",
          "name": "_payload",
          "type": "bytes"
        },
        {
          "indexed": false,
          "internalType": "bytes",
          "name": "_reason",
          "type": "bytes"
        }
      ],
      "name": "MessageFailed",
      "type": "event"
    },
    {
      "anonymous": false,
      "inputs": [
        {
          "indexed": true,
          "internalType": "address",
          "name": "previousOwner",
          "type": "address"
        },
        {
          "indexed": true,
          "internalType": "address",
          "name": "newOwner",
          "type": "address"
        }
      ],
      "name": "OwnershipTransferred",
      "type": "event"
    },
    {
      "anonymous": false,
      "inputs": [
        {
          "indexed": true,
          "internalType": "uint16",
          "name": "_srcChainId",
          "type": "uint16"
        },
        {
          "indexed": true,
          "internalType": "address",
          "name": "_to",
          "type": "address"
        },
        {
          "indexed": false,
          "internalType": "uint256",
          "name": "_amount",
          "type": "uint256"
        }
      ],
      "name": "ReceiveFromChain",
      "type": "event"
    },
    {
      "anonymous": false,
      "inputs": [
        {
          "indexed": false,
          "internalType": "uint16",
          "name": "_srcChainId",
          "type": "uint16"
        },
        {
          "indexed": false,
          "internalType": "bytes",
          "name": "_srcAddress",
          "type": "bytes"
        },
        {
          "indexed": false,
          "internalType": "uint64",
          "name": "_nonce",
          "type": "uint64"
        },
        {
          "indexed": false,
          "internalType": "bytes32",
          "name": "_payloadHash",
          "type": "bytes32"
        }
      ],
      "name": "RetryMessageSuccess",
      "type": "event"
    },
    {
      "anonymous": false,
      "inputs": [
        {
          "indexed": true,
          "internalType": "uint16",
          "name": "_dstChainId",
          "type": "uint16"
        },
        {
          "indexed": true,
          "internalType": "address",
          "name": "_from",
          "type": "address"
        },
        {
          "indexed": false,
          "internalType": "bytes",
          "name": "_toAddress",
          "type": "bytes"
        },
        {
          "indexed": false,
          "internalType": "uint256",
          "name": "_amount",
          "type": "uint256"
        }
      ],
      "name": "SendToChain",
      "type": "event"
    },
    {
      "anonymous": false,
      "inputs": [
        {
          "indexed": false,
          "internalType": "uint16",
          "name": "_dstChainId",
          "type": "uint16"
        },
        {
          "indexed": false,
          "internalType": "uint16",
          "name": "_type",
          "type": "uint16"
        },
        {
          "indexed": false,
          "internalType": "uint256",
          "name": "_minDstGas",
          "type": "uint256"
        }
      ],
      "name": "SetMinDstGas",
      "type": "event"
    },
    {
      "anonymous": false,
      "inputs": [
        {
          "indexed": false,
          "internalType": "address",
          "name": "precrime",
          "type": "address"
        }
      ],
      "name": "SetPrecrime",
      "type": "event"
    },
    {
      "anonymous": false,
      "inputs": [
        {
          "indexed": false,
          "internalType": "uint16",
          "name": "_remoteChainId",
          "type": "uint16"
        },
        {
          "indexed": false,
          "internalType": "bytes",
          "name": "_path",
          "type": "bytes"
        }
      ],
      "name": "SetTrustedRemote",
      "type": "event"
    },
    {
      "anonymous": false,
      "inputs": [
        {
          "indexed": false,
          "internalType": "uint16",
          "name": "_remoteChainId",
          "type": "uint16"
        },
        {
          "indexed": false,
          "internalType": "bytes",
          "name": "_remoteAddress",
          "type": "bytes"
        }
      ],
      "name": "SetTrustedRemoteAddress",
      "type": "event"
    },
    {
      "anonymous": false,
      "inputs": [
        {
          "indexed": false,
          "internalType": "bool",
          "name": "_useCustomAdapterParams",
          "type": "bool"
        }
      ],
      "name": "SetUseCustomAdapterParams",
      "type": "event"
    },
    {
      "anonymous": false,
      "inputs": [
        {
          "indexed": true,
          "internalType": "address",
          "name": "from",
          "type": "address"
        },
        {
          "indexed": true,
          "internalType": "address",
          "name": "to",
          "type": "address"
        },
        {
          "indexed": false,
          "internalType": "uint256",
          "name": "value",
          "type": "uint256"
        }
      ],
      "name": "Transfer",
      "type": "event"
    },
    {
      "inputs": [],
      "name": "DEFAULT_PAYLOAD_SIZE_LIMIT",
      "outputs": [
        {
          "internalType": "uint256",
          "name": "",
          "type": "uint256"
        }
      ],
      "stateMutability": "view",
      "type": "function"
    },
    {
      "inputs": [],
      "name": "NO_EXTRA_GAS",
      "outputs": [
        {
          "internalType": "uint256",
          "name": "",
          "type": "uint256"
        }
      ],
      "stateMutability": "view",
      "type": "function"
    },
    {
      "inputs": [],
      "name": "PT_SEND",
      "outputs": [
        {
          "internalType": "uint16",
          "name": "",
          "type": "uint16"
        }
      ],
      "stateMutability": "view",
      "type": "function"
    },
    {
      "inputs": [
        {
          "internalType": "address",
          "name": "owner",
          "type": "address"
        },
        {
          "internalType": "address",
          "name": "spender",
          "type": "address"
        }
      ],
      "name": "allowance",
      "outputs": [
        {
          "internalType": "uint256",
          "name": "",
          "type": "uint256"
        }
      ],
      "stateMutability": "view",
      "type": "function"
    },
    {
      "inputs": [
        {
          "internalType": "address",
          "name": "spender",
          "type": "address"
        },
        {
          "internalType": "uint256",
          "name": "amount",
          "type": "uint256"
        }
      ],
      "name": "approve",
      "outputs": [
        {
          "internalType": "bool",
          "name": "",
          "type": "bool"
        }
      ],
      "stateMutability": "nonpayable",
      "type": "function"
    },
    {
      "inputs": [
        {
          "internalType": "address",
          "name": "account",
          "type": "address"
        }
      ],
      "name": "balanceOf",
      "outputs": [
        {
          "internalType": "uint256",
          "name": "",
          "type": "uint256"
        }
      ],
      "stateMutability": "view",
      "type": "function"
    },
    {
      "inputs": [],
      "name": "circulatingSupply",
      "outputs": [
        {
          "internalType": "uint256",
          "name": "",
          "type": "uint256"
        }
      ],
      "stateMutability": "view",
      "type": "function"
    },
    {
      "inputs": [],
      "name": "decimals",
      "outputs": [
        {
          "internalType": "uint8",
          "name": "",
          "type": "uint8"
        }
      ],
      "stateMutability": "view",
      "type": "function"
    },
    {
      "inputs": [
        {
          "internalType": "address",
          "name": "spender",
          "type": "address"
        },
        {
          "internalType": "uint256",
          "name": "subtractedValue",
          "type": "uint256"
        }
      ],
      "name": "decreaseAllowance",
      "outputs": [
        {
          "internalType": "bool",
          "name": "",
          "type": "bool"
        }
      ],
      "stateMutability": "nonpayable",
      "type": "function"
    },
    {
      "inputs": [
        {
          "internalType": "uint16",
          "name": "_dstChainId",
          "type": "uint16"
        },
        {
          "internalType": "bytes",
          "name": "_toAddress",
          "type": "bytes"
        },
        {
          "internalType": "uint256",
          "name": "_amount",
          "type": "uint256"
        },
        {
          "internalType": "bool",
          "name": "_useZro",
          "type": "bool"
        },
        {
          "internalType": "bytes",
          "name": "_adapterParams",
          "type": "bytes"
        }
      ],
      "name": "estimateSendFee",
      "outputs": [
        {
          "internalType": "uint256",
          "name": "nativeFee",
          "type": "uint256"
        },
        {
          "internalType": "uint256",
          "name": "zroFee",
          "type": "uint256"
        }
      ],
      "stateMutability": "view",
      "type": "function"
    },
    {
      "inputs": [
        {
          "internalType": "uint16",
          "name": "",
          "type": "uint16"
        },
        {
          "internalType": "bytes",
          "name": "",
          "type": "bytes"
        },
        {
          "internalType": "uint64",
          "name": "",
          "type": "uint64"
        }
      ],
      "name": "failedMessages",
      "outputs": [
        {
          "internalType": "bytes32",
          "name": "",
          "type": "bytes32"
        }
      ],
      "stateMutability": "view",
      "type": "function"
    },
    {
      "inputs": [
        {
          "internalType": "uint16",
          "name": "_srcChainId",
          "type": "uint16"
        },
        {
          "internalType": "bytes",
          "name": "_srcAddress",
          "type": "bytes"
        }
      ],
      "name": "forceResumeReceive",
      "outputs": [],
      "stateMutability": "nonpayable",
      "type": "function"
    },
    {
      "inputs": [
        {
          "internalType": "uint16",
          "name": "_version",
          "type": "uint16"
        },
        {
          "internalType": "uint16",
          "name": "_chainId",
          "type": "uint16"
        },
        {
          "internalType": "address",
          "name": "",
          "type": "address"
        },
        {
          "internalType": "uint256",
          "name": "_configType",
          "type": "uint256"
        }
      ],
      "name": "getConfig",
      "outputs": [
        {
          "internalType": "bytes",
          "name": "",
          "type": "bytes"
        }
      ],
      "stateMutability": "view",
      "type": "function"
    },
    {
      "inputs": [
        {
          "internalType": "uint16",
          "name": "_remoteChainId",
          "type": "uint16"
        }
      ],
      "name": "getTrustedRemoteAddress",
      "outputs": [
        {
          "internalType": "bytes",
          "name": "",
          "type": "bytes"
        }
      ],
      "stateMutability": "view",
      "type": "function"
    },
    {
      "inputs": [
        {
          "internalType": "address",
          "name": "spender",
          "type": "address"
        },
        {
          "internalType": "uint256",
          "name": "addedValue",
          "type": "uint256"
        }
      ],
      "name": "increaseAllowance",
      "outputs": [
        {
          "internalType": "bool",
          "name": "",
          "type": "bool"
        }
      ],
      "stateMutability": "nonpayable",
      "type": "function"
    },
    {
      "inputs": [
        {
          "internalType": "string",
          "name": "_name",
          "type": "string"
        },
        {
          "internalType": "string",
          "name": "_symbol",
          "type": "string"
        },
        {
          "internalType": "uint256",
          "name": "_initialSupply",
          "type": "uint256"
        },
        {
          "internalType": "address",
          "name": "_lzEndpoint",
          "type": "address"
        }
      ],
      "name": "initialize",
      "outputs": [],
      "stateMutability": "nonpayable",
      "type": "function"
    },
    {
      "inputs": [
        {
          "internalType": "uint16",
          "name": "_srcChainId",
          "type": "uint16"
        },
        {
          "internalType": "bytes",
          "name": "_srcAddress",
          "type": "bytes"
        }
      ],
      "name": "isTrustedRemote",
      "outputs": [
        {
          "internalType": "bool",
          "name": "",
          "type": "bool"
        }
      ],
      "stateMutability": "view",
      "type": "function"
    },
    {
      "inputs": [],
      "name": "lzEndpoint",
      "outputs": [
        {
          "internalType": "contract ILayerZeroEndpointUpgradeable",
          "name": "",
          "type": "address"
        }
      ],
      "stateMutability": "view",
      "type": "function"
    },
    {
      "inputs": [
        {
          "internalType": "uint16",
          "name": "_srcChainId",
          "type": "uint16"
        },
        {
          "internalType": "bytes",
          "name": "_srcAddress",
          "type": "bytes"
        },
        {
          "internalType": "uint64",
          "name": "_nonce",
          "type": "uint64"
        },
        {
          "internalType": "bytes",
          "name": "_payload",
          "type": "bytes"
        }
      ],
      "name": "lzReceive",
      "outputs": [],
      "stateMutability": "nonpayable",
      "type": "function"
    },
    {
      "inputs": [
        {
          "internalType": "uint16",
          "name": "",
          "type": "uint16"
        },
        {
          "internalType": "uint16",
          "name": "",
          "type": "uint16"
        }
      ],
      "name": "minDstGasLookup",
      "outputs": [
        {
          "internalType": "uint256",
          "name": "",
          "type": "uint256"
        }
      ],
      "stateMutability": "view",
      "type": "function"
    },
    {
      "inputs": [],
      "name": "name",
      "outputs": [
        {
          "internalType": "string",
          "name": "",
          "type": "string"
        }
      ],
      "stateMutability": "view",
      "type": "function"
    },
    {
      "inputs": [
        {
          "internalType": "uint16",
          "name": "_srcChainId",
          "type": "uint16"
        },
        {
          "internalType": "bytes",
          "name": "_srcAddress",
          "type": "bytes"
        },
        {
          "internalType": "uint64",
          "name": "_nonce",
          "type": "uint64"
        },
        {
          "internalType": "bytes",
          "name": "_payload",
          "type": "bytes"
        }
      ],
      "name": "nonblockingLzReceive",
      "outputs": [],
      "stateMutability": "nonpayable",
      "type": "function"
    },
    {
      "inputs": [],
      "name": "owner",
      "outputs": [
        {
          "internalType": "address",
          "name": "",
          "type": "address"
        }
      ],
      "stateMutability": "view",
      "type": "function"
    },
    {
      "inputs": [
        {
          "internalType": "uint16",
          "name": "",
          "type": "uint16"
        }
      ],
      "name": "payloadSizeLimitLookup",
      "outputs": [
        {
          "internalType": "uint256",
          "name": "",
          "type": "uint256"
        }
      ],
      "stateMutability": "view",
      "type": "function"
    },
    {
      "inputs": [],
      "name": "precrime",
      "outputs": [
        {
          "internalType": "address",
          "name": "",
          "type": "address"
        }
      ],
      "stateMutability": "view",
      "type": "function"
    },
    {
      "inputs": [],
      "name": "renounceOwnership",
      "outputs": [],
      "stateMutability": "nonpayable",
      "type": "function"
    },
    {
      "inputs": [
        {
          "internalType": "uint16",
          "name": "_srcChainId",
          "type": "uint16"
        },
        {
          "internalType": "bytes",
          "name": "_srcAddress",
          "type": "bytes"
        },
        {
          "internalType": "uint64",
          "name": "_nonce",
          "type": "uint64"
        },
        {
          "internalType": "bytes",
          "name": "_payload",
          "type": "bytes"
        }
      ],
      "name": "retryMessage",
      "outputs": [],
      "stateMutability": "payable",
      "type": "function"
    },
    {
      "inputs": [
        {
          "internalType": "address",
          "name": "_from",
          "type": "address"
        },
        {
          "internalType": "uint16",
          "name": "_dstChainId",
          "type": "uint16"
        },
        {
          "internalType": "bytes",
          "name": "_toAddress",
          "type": "bytes"
        },
        {
          "internalType": "uint256",
          "name": "_amount",
          "type": "uint256"
        },
        {
          "internalType": "address payable",
          "name": "_refundAddress",
          "type": "address"
        },
        {
          "internalType": "address",
          "name": "_zroPaymentAddress",
          "type": "address"
        },
        {
          "internalType": "bytes",
          "name": "_adapterParams",
          "type": "bytes"
        }
      ],
      "name": "sendFrom",
      "outputs": [],
      "stateMutability": "payable",
      "type": "function"
    },
    {
      "inputs": [
        {
          "internalType": "uint16",
          "name": "_version",
          "type": "uint16"
        },
        {
          "internalType": "uint16",
          "name": "_chainId",
          "type": "uint16"
        },
        {
          "internalType": "uint256",
          "name": "_configType",
          "type": "uint256"
        },
        {
          "internalType": "bytes",
          "name": "_config",
          "type": "bytes"
        }
      ],
      "name": "setConfig",
      "outputs": [],
      "stateMutability": "nonpayable",
      "type": "function"
    },
    {
      "inputs": [
        {
          "internalType": "uint16",
          "name": "_dstChainId",
          "type": "uint16"
        },
        {
          "internalType": "uint16",
          "name": "_packetType",
          "type": "uint16"
        },
        {
          "internalType": "uint256",
          "name": "_minGas",
          "type": "uint256"
        }
      ],
      "name": "setMinDstGas",
      "outputs": [],
      "stateMutability": "nonpayable",
      "type": "function"
    },
    {
      "inputs": [
        {
          "internalType": "uint16",
          "name": "_dstChainId",
          "type": "uint16"
        },
        {
          "internalType": "uint256",
          "name": "_size",
          "type": "uint256"
        }
      ],
      "name": "setPayloadSizeLimit",
      "outputs": [],
      "stateMutability": "nonpayable",
      "type": "function"
    },
    {
      "inputs": [
        {
          "internalType": "address",
          "name": "_precrime",
          "type": "address"
        }
      ],
      "name": "setPrecrime",
      "outputs": [],
      "stateMutability": "nonpayable",
      "type": "function"
    },
    {
      "inputs": [
        {
          "internalType": "uint16",
          "name": "_version",
          "type": "uint16"
        }
      ],
      "name": "setReceiveVersion",
      "outputs": [],
      "stateMutability": "nonpayable",
      "type": "function"
    },
    {
      "inputs": [
        {
          "internalType": "uint16",
          "name": "_version",
          "type": "uint16"
        }
      ],
      "name": "setSendVersion",
      "outputs": [],
      "stateMutability": "nonpayable",
      "type": "function"
    },
    {
      "inputs": [
        {
          "internalType": "uint16",
          "name": "_srcChainId",
          "type": "uint16"
        },
        {
          "internalType": "bytes",
          "name": "_path",
          "type": "bytes"
        }
      ],
      "name": "setTrustedRemote",
      "outputs": [],
      "stateMutability": "nonpayable",
      "type": "function"
    },
    {
      "inputs": [
        {
          "internalType": "uint16",
          "name": "_remoteChainId",
          "type": "uint16"
        },
        {
          "internalType": "bytes",
          "name": "_remoteAddress",
          "type": "bytes"
        }
      ],
      "name": "setTrustedRemoteAddress",
      "outputs": [],
      "stateMutability": "nonpayable",
      "type": "function"
    },
    {
      "inputs": [
        {
          "internalType": "bool",
          "name": "_useCustomAdapterParams",
          "type": "bool"
        }
      ],
      "name": "setUseCustomAdapterParams",
      "outputs": [],
      "stateMutability": "nonpayable",
      "type": "function"
    },
    {
      "inputs": [
        {
          "internalType": "bytes4",
          "name": "interfaceId",
          "type": "bytes4"
        }
      ],
      "name": "supportsInterface",
      "outputs": [
        {
          "internalType": "bool",
          "name": "",
          "type": "bool"
        }
      ],
      "stateMutability": "view",
      "type": "function"
    },
    {
      "inputs": [],
      "name": "symbol",
      "outputs": [
        {
          "internalType": "string",
          "name": "",
          "type": "string"
        }
      ],
      "stateMutability": "view",
      "type": "function"
    },
    {
      "inputs": [],
      "name": "token",
      "outputs": [
        {
          "internalType": "address",
          "name": "",
          "type": "address"
        }
      ],
      "stateMutability": "view",
      "type": "function"
    },
    {
      "inputs": [],
      "name": "totalSupply",
      "outputs": [
        {
          "internalType": "uint256",
          "name": "",
          "type": "uint256"
        }
      ],
      "stateMutability": "view",
      "type": "function"
    },
    {
      "inputs": [
        {
          "internalType": "address",
          "name": "to",
          "type": "address"
        },
        {
          "internalType": "uint256",
          "name": "amount",
          "type": "uint256"
        }
      ],
      "name": "transfer",
      "outputs": [
        {
          "internalType": "bool",
          "name": "",
          "type": "bool"
        }
      ],
      "stateMutability": "nonpayable",
      "type": "function"
    },
    {
      "inputs": [
        {
          "internalType": "address",
          "name": "from",
          "type": "address"
        },
        {
          "internalType": "address",
          "name": "to",
          "type": "address"
        },
        {
          "internalType": "uint256",
          "name": "amount",
          "type": "uint256"
        }
      ],
      "name": "transferFrom",
      "outputs": [
        {
          "internalType": "bool",
          "name": "",
          "type": "bool"
        }
      ],
      "stateMutability": "nonpayable",
      "type": "function"
    },
    {
      "inputs": [
        {
          "internalType": "address",
          "name": "newOwner",
          "type": "address"
        }
      ],
      "name": "transferOwnership",
      "outputs": [],
      "stateMutability": "nonpayable",
      "type": "function"
    },
    {
      "inputs": [
        {
          "internalType": "uint16",
          "name": "",
          "type": "uint16"
        }
      ],
      "name": "trustedRemoteLookup",
      "outputs": [
        {
          "internalType": "bytes",
          "name": "",
          "type": "bytes"
        }
      ],
      "stateMutability": "view",
      "type": "function"
    },
    {
      "inputs": [],
      "name": "useCustomAdapterParams",
      "outputs": [
        {
          "internalType": "bool",
          "name": "",
          "type": "bool"
        }
      ],
      "stateMutability": "view",
      "type": "function"
    }
  ],
  "bytecode": "0x608060405234801561001057600080fd5b506136f7806100206000396000f3fe60806040526004361061027c5760003560e01c80638cfd8f5c1161014f578063bd3a13f6116100c1578063eab45d9c1161007a578063eab45d9c146107e0578063eb8d72b714610800578063ed629c5c14610820578063f2fde38b1461083a578063f5ecbdbc1461085a578063fc0c546a1461087a57600080fd5b8063bd3a13f614610737578063c446183414610757578063cbed8b9c1461076d578063d1deba1f1461078d578063dd62ed3e146107a0578063df2a5b3b146107c057600080fd5b80639f38369a116101135780639f38369a14610677578063a457c2d714610697578063a6c3d165146106b7578063a9059cbb146106d7578063b353aaa7146106f7578063baf3292d1461071757600080fd5b80638cfd8f5c146105c35780638da5cb5b146105fb5780639358928b1461062d578063950c8a741461064257806395d89b411461066257600080fd5b806339509351116101f357806351905636116101ac57806351905636146104d55780635b8c41e6146104e857806366ad5c8a1461053757806370a0823114610557578063715018a61461058e5780637533d788146105a357600080fd5b8063395093511461040b5780633d8b38f61461042b5780633f1f4fa41461044b57806342d65a8d1461047857806344770515146104985780634c42899a146104ad57600080fd5b80630df37483116102455780630df374831461033a57806310ddb1371461035a57806318160ddd1461037a57806323b872dd1461039a5780632a205e3d146103ba578063313ce567146103ef57600080fd5b80621d35671461028157806301ffc9a7146102a357806306fdde03146102d857806307e0db17146102fa578063095ea7b31461031a575b600080fd5b34801561028d57600080fd5b506102a161029c366004612b1f565b61088d565b005b3480156102af57600080fd5b506102c36102be366004612bb4565b610aa9565b60405190151581526020015b60405180910390f35b3480156102e457600080fd5b506102ed610ae7565b6040516102cf9190612c36565b34801561030657600080fd5b506102a1610315366004612c49565b610b7a565b34801561032657600080fd5b506102c3610335366004612c7b565b610be7565b34801561034657600080fd5b506102a1610355366004612ca7565b610bff565b34801561036657600080fd5b506102a1610375366004612c49565b610c1e565b34801561038657600080fd5b5061012f545b6040519081526020016102cf565b3480156103a657600080fd5b506102c36103b5366004612cc5565b610c5a565b3480156103c657600080fd5b506103da6103d5366004612d16565b610c7e565b604080519283526020830191909152016102cf565b3480156103fb57600080fd5b50604051601281526020016102cf565b34801561041757600080fd5b506102c3610426366004612c7b565b610d34565b34801561043757600080fd5b506102c3610446366004612db5565b610d56565b34801561045757600080fd5b5061038c610466366004612c49565b60686020526000908152604090205481565b34801561048457600080fd5b506102a1610493366004612db5565b610e22565b3480156104a457600080fd5b5061038c600081565b3480156104b957600080fd5b506104c2600081565b60405161ffff90911681526020016102cf565b6102a16104e3366004612e09565b610e8c565b3480156104f457600080fd5b5061038c610503366004612f7d565b6097602090815260009384526040808520845180860184018051928152908401958401959095209452929052825290205481565b34801561054357600080fd5b506102a1610552366004612b1f565b610f11565b34801561056357600080fd5b5061038c610572366004612ff0565b6001600160a01b0316600090815261012d602052604090205490565b34801561059a57600080fd5b506102a1610fed565b3480156105af57600080fd5b506102ed6105be366004612c49565b611001565b3480156105cf57600080fd5b5061038c6105de36600461300d565b606760209081526000928352604080842090915290825290205481565b34801561060757600080fd5b506033546001600160a01b03165b6040516001600160a01b0390911681526020016102cf565b34801561063957600080fd5b5061038c61109b565b34801561064e57600080fd5b50606954610615906001600160a01b031681565b34801561066e57600080fd5b506102ed6110ac565b34801561068357600080fd5b506102ed610692366004612c49565b6110bc565b3480156106a357600080fd5b506102c36106b2366004612c7b565b6111d3565b3480156106c357600080fd5b506102a16106d2366004612db5565b61124e565b3480156106e357600080fd5b506102c36106f2366004612c7b565b6112e1565b34801561070357600080fd5b50606554610615906001600160a01b031681565b34801561072357600080fd5b506102a1610732366004612ff0565b6112ef565b34801561074357600080fd5b506102a1610752366004613066565b61134c565b34801561076357600080fd5b5061038c61271081565b34801561077957600080fd5b506102a16107883660046130e5565b61146e565b6102a161079b366004612b1f565b6114dc565b3480156107ac57600080fd5b5061038c6107bb366004613157565b6116f2565b3480156107cc57600080fd5b506102a16107db366004613185565b61171e565b3480156107ec57600080fd5b506102a16107fb3660046131b5565b6117d0565b34801561080c57600080fd5b506102a161081b366004612db5565b611819565b34801561082c57600080fd5b5060fb546102c39060ff1681565b34801561084657600080fd5b506102a1610855366004612ff0565b611873565b34801561086657600080fd5b506102ed6108753660046131d0565b6118ec565b34801561088657600080fd5b5030610615565b6065546001600160a01b0316336001600160a01b0316146108f55760405162461bcd60e51b815260206004820152601e60248201527f4c7a4170703a20696e76616c696420656e64706f696e742063616c6c6572000060448201526064015b60405180910390fd5b61ffff86166000908152606660205260408120805461091390613221565b80601f016020809104026020016040519081016040528092919081815260200182805461093f90613221565b801561098c5780601f106109615761010080835404028352916020019161098c565b820191906000526020600020905b81548152906001019060200180831161096f57829003601f168201915b505050505090508051868690501480156109a7575060008151115b80156109cf5750805160208201206040516109c5908890889061325c565b6040518091039020145b610a2a5760405162461bcd60e51b815260206004820152602660248201527f4c7a4170703a20696e76616c696420736f757263652073656e64696e6720636f6044820152651b9d1c9858dd60d21b60648201526084016108ec565b610aa08787878080601f01602080910402602001604051908101604052809392919081815260200183838082843760009201919091525050604080516020601f8a018190048102820181019092528881528a93509150889088908190840183828082843760009201919091525061197f92505050565b50505050505050565b60006001600160e01b031982161580610ad257506001600160e01b031982166336372b0760e01b145b80610ae15750610ae1826119f8565b92915050565b60606101308054610af790613221565b80601f0160208091040260200160405190810160405280929190818152602001828054610b2390613221565b8015610b705780601f10610b4557610100808354040283529160200191610b70565b820191906000526020600020905b815481529060010190602001808311610b5357829003601f168201915b5050505050905090565b610b82611a2d565b6065546040516307e0db1760e01b815261ffff831660048201526001600160a01b03909116906307e0db17906024015b600060405180830381600087803b158015610bcc57600080fd5b505af1158015610be0573d6000803e3d6000fd5b5050505050565b600033610bf5818585611a87565b5060019392505050565b610c07611a2d565b61ffff909116600090815260686020526040902055565b610c26611a2d565b6065546040516310ddb13760e01b815261ffff831660048201526001600160a01b03909116906310ddb13790602401610bb2565b600033610c68858285611bac565b610c73858585611c26565b506001949350505050565b600080600080898989604051602001610c9a9493929190613295565b60408051601f198184030181529082905260655463040a7bb160e41b83529092506001600160a01b0316906340a7bb1090610ce3908d90309086908c908c908c906004016132c4565b6040805180830381865afa158015610cff573d6000803e3d6000fd5b505050506040513d601f19601f82011682018060405250810190610d23919061331a565b925092505097509795505050505050565b600033610bf5818585610d4783836116f2565b610d519190613354565b611a87565b61ffff831660009081526066602052604081208054829190610d7790613221565b80601f0160208091040260200160405190810160405280929190818152602001828054610da390613221565b8015610df05780601f10610dc557610100808354040283529160200191610df0565b820191906000526020600020905b815481529060010190602001808311610dd357829003601f168201915b505050505090508383604051610e0792919061325c565b60405180910390208180519060200120149150509392505050565b610e2a611a2d565b6065546040516342d65a8d60e01b81526001600160a01b03909116906342d65a8d90610e5e9086908690869060040161336c565b600060405180830381600087803b158015610e7857600080fd5b505af1158015610aa0573d6000803e3d6000fd5b610f06898989898080601f01602080910402602001604051908101604052809392919081815260200183838082843760009201919091525050604080516020601f8a018190048102820181019092528881528c93508b92508a918a908a9081908401838280828437600092019190915250611df692505050565b505050505050505050565b333014610f6f5760405162461bcd60e51b815260206004820152602660248201527f4e6f6e626c6f636b696e674c7a4170703a2063616c6c6572206d7573742062656044820152650204c7a4170760d41b60648201526084016108ec565b610fe58686868080601f01602080910402602001604051908101604052809392919081815260200183838082843760009201919091525050604080516020601f890181900481028201810190925287815289935091508790879081908401838280828437600092019190915250611e9d92505050565b505050505050565b610ff5611a2d565b610fff6000611f04565b565b6066602052600090815260409020805461101a90613221565b80601f016020809104026020016040519081016040528092919081815260200182805461104690613221565b80156110935780601f1061106857610100808354040283529160200191611093565b820191906000526020600020905b81548152906001019060200180831161107657829003601f168201915b505050505081565b60006110a761012f5490565b905090565b60606101318054610af790613221565b61ffff81166000908152606660205260408120805460609291906110df90613221565b80601f016020809104026020016040519081016040528092919081815260200182805461110b90613221565b80156111585780601f1061112d57610100808354040283529160200191611158565b820191906000526020600020905b81548152906001019060200180831161113b57829003601f168201915b505050505090508051600014156111b15760405162461bcd60e51b815260206004820152601d60248201527f4c7a4170703a206e6f20747275737465642070617468207265636f726400000060448201526064016108ec565b6111cc6000601483516111c4919061338a565b839190611f56565b9392505050565b600033816111e182866116f2565b9050838110156112415760405162461bcd60e51b815260206004820152602560248201527f45524332303a2064656372656173656420616c6c6f77616e63652062656c6f77604482015264207a65726f60d81b60648201526084016108ec565b610c738286868403611a87565b611256611a2d565b81813060405160200161126b939291906133a1565b60408051601f1981840301815291815261ffff851660009081526066602090815291902082516112a09391929091019061299e565b507f8c0400cfe2d1199b1a725c78960bcc2a344d869b80590d0f2bd005db15a572ce8383836040516112d49392919061336c565b60405180910390a1505050565b600033610bf5818585611c26565b6112f7611a2d565b606980546001600160a01b0319166001600160a01b0383169081179091556040519081527f5db758e995a17ec1ad84bdef7e8c3293a0bd6179bcce400dff5d4c3d87db726b906020015b60405180910390a150565b600054610100900460ff161580801561136c5750600054600160ff909116105b806113865750303b158015611386575060005460ff166001145b6113e95760405162461bcd60e51b815260206004820152602e60248201527f496e697469616c697a61626c653a20636f6e747261637420697320616c72656160448201526d191e481a5b9a5d1a585b1a5e995960921b60648201526084016108ec565b6000805460ff19166001179055801561140c576000805461ff0019166101001790555b611417858584612063565b61142133846120aa565b8015610be0576000805461ff0019169055604051600181527f7f26b83ff96e1f2b6a682f133852f6798a09c465da95921460cefb3847402498906020015b60405180910390a15050505050565b611476611a2d565b6065546040516332fb62e760e21b81526001600160a01b039091169063cbed8b9c906114ae90889088908890889088906004016133c7565b600060405180830381600087803b1580156114c857600080fd5b505af1158015610f06573d6000803e3d6000fd5b61ffff861660009081526097602052604080822090516114ff908890889061325c565b90815260408051602092819003830190206001600160401b0387166000908152925290205490508061157f5760405162461bcd60e51b815260206004820152602360248201527f4e6f6e626c6f636b696e674c7a4170703a206e6f2073746f726564206d65737360448201526261676560e81b60648201526084016108ec565b80838360405161159092919061325c565b6040518091039020146115ef5760405162461bcd60e51b815260206004820152602160248201527f4e6f6e626c6f636b696e674c7a4170703a20696e76616c6964207061796c6f616044820152601960fa1b60648201526084016108ec565b61ffff87166000908152609760205260408082209051611612908990899061325c565b90815260408051602092819003830181206001600160401b038916600090815290845282902093909355601f880182900482028301820190528682526116aa918991899089908190840183828082843760009201919091525050604080516020601f8a018190048102820181019092528881528a935091508890889081908401838280828437600092019190915250611e9d92505050565b7fc264d91f3adc5588250e1551f547752ca0cfa8f6b530d243b9f9f4cab10ea8e587878787856040516116e1959493929190613400565b60405180910390a150505050505050565b6001600160a01b03918216600090815261012e6020908152604080832093909416825291909152205490565b611726611a2d565b6000811161176e5760405162461bcd60e51b81526020600482015260156024820152744c7a4170703a20696e76616c6964206d696e47617360581b60448201526064016108ec565b61ffff83811660008181526067602090815260408083209487168084529482529182902085905581519283528201929092529081018290527f9d5c7c0b934da8fefa9c7760c98383778a12dfbfc0c3b3106518f43fb9508ac0906060016112d4565b6117d8611a2d565b60fb805460ff19168215159081179091556040519081527f1584ad594a70cbe1e6515592e1272a987d922b097ead875069cebe8b40c004a490602001611341565b611821611a2d565b61ffff8316600090815260666020526040902061183f908383612a22565b507ffa41487ad5d6728f0b19276fa1eddc16558578f5109fc39d2dc33c3230470dab8383836040516112d49392919061336c565b61187b611a2d565b6001600160a01b0381166118e05760405162461bcd60e51b815260206004820152602660248201527f4f776e61626c653a206e6577206f776e657220697320746865207a65726f206160448201526564647265737360d01b60648201526084016108ec565b6118e981611f04565b50565b606554604051633d7b2f6f60e21b815261ffff808716600483015285166024820152306044820152606481018390526060916001600160a01b03169063f5ecbdbc90608401600060405180830381865afa15801561194e573d6000803e3d6000fd5b505050506040513d6000823e601f3d908101601f191682016040526119769190810190613488565b95945050505050565b6000806119e25a60966366ad5c8a60e01b898989896040516024016119a794939291906134bc565b60408051601f198184030181529190526020810180516001600160e01b03166001600160e01b0319909316929092179091523092919061218b565b9150915081610fe557610fe58686868685612215565b60006001600160e01b03198216630a72677560e11b1480610ae157506301ffc9a760e01b6001600160e01b0319831614610ae1565b6033546001600160a01b03163314610fff5760405162461bcd60e51b815260206004820181905260248201527f4f776e61626c653a2063616c6c6572206973206e6f7420746865206f776e657260448201526064016108ec565b6001600160a01b038316611ae95760405162461bcd60e51b8152602060048201526024808201527f45524332303a20617070726f76652066726f6d20746865207a65726f206164646044820152637265737360e01b60648201526084016108ec565b6001600160a01b038216611b4a5760405162461bcd60e51b815260206004820152602260248201527f45524332303a20617070726f766520746f20746865207a65726f206164647265604482015261737360f01b60648201526084016108ec565b6001600160a01b03838116600081815261012e602090815260408083209487168084529482529182902085905590518481527f8c5be1e5ebec7d5bd14f71427d1e84f3dd0314c0f7b2291e5b200ac8c7c3b925910160405180910390a3505050565b6000611bb884846116f2565b90506000198114611c205781811015611c135760405162461bcd60e51b815260206004820152601d60248201527f45524332303a20696e73756666696369656e7420616c6c6f77616e636500000060448201526064016108ec565b611c208484848403611a87565b50505050565b6001600160a01b038316611c8a5760405162461bcd60e51b815260206004820152602560248201527f45524332303a207472616e736665722066726f6d20746865207a65726f206164604482015264647265737360d81b60648201526084016108ec565b6001600160a01b038216611cec5760405162461bcd60e51b815260206004820152602360248201527f45524332303a207472616e7366657220746f20746865207a65726f206164647260448201526265737360e81b60648201526084016108ec565b6001600160a01b038316600090815261012d602052604090205481811015611d655760405162461bcd60e51b815260206004820152602660248201527f45524332303a207472616e7366657220616d6f756e7420657863656564732062604482015265616c616e636560d01b60648201526084016108ec565b6001600160a01b03808516600090815261012d6020526040808220858503905591851681529081208054849290611d9d908490613354565b92505081905550826001600160a01b0316846001600160a01b03167fddf252ad1be2c89b69c2b068fc378daa952ba7f163c4a11628f55a4df523b3ef84604051611de991815260200190565b60405180910390a3611c20565b611e048660008360006122a3565b6000611e128888888861231d565b90506000808783604051602001611e2b939291906134fa565b6040516020818303038152906040529050611e4a88828787873461234f565b886001600160a01b03168861ffff167f39a4c66499bcf4b56d79f0dde8ed7a9d4925a0df55825206b2b8531e202be0d08985604051611e8a929190613527565b60405180910390a3505050505050505050565b602081015161ffff8116611ebc57611eb7858585856124d9565b610be0565b60405162461bcd60e51b815260206004820152601c60248201527f4f4654436f72653a20756e6b6e6f776e207061636b657420747970650000000060448201526064016108ec565b603380546001600160a01b038381166001600160a01b0319831681179093556040519116919082907f8be0079c531659141344cd1fd0a4f28419497f9722a3daafe3b4186f6b6457e090600090a35050565b606081611f6481601f613354565b1015611fa35760405162461bcd60e51b815260206004820152600e60248201526d736c6963655f6f766572666c6f7760901b60448201526064016108ec565b611fad8284613354565b84511015611ff15760405162461bcd60e51b8152602060048201526011602482015270736c6963655f6f75744f66426f756e647360781b60448201526064016108ec565b606082158015612010576040519150600082526020820160405261205a565b6040519150601f8416801560200281840101858101878315602002848b0101015b81831015612049578051835260209283019201612031565b5050858452601f01601f1916604052505b50949350505050565b600054610100900460ff1661208a5760405162461bcd60e51b81526004016108ec90613549565b6120948383612563565b61209c6125b3565b6120a5816125e3565b505050565b6001600160a01b0382166121005760405162461bcd60e51b815260206004820152601f60248201527f45524332303a206d696e7420746f20746865207a65726f20616464726573730060448201526064016108ec565b8061012f60008282546121139190613354565b90915550506001600160a01b038216600090815261012d602052604081208054839290612141908490613354565b90915550506040518181526001600160a01b038316906000907fddf252ad1be2c89b69c2b068fc378daa952ba7f163c4a11628f55a4df523b3ef9060200160405180910390a35050565b6000606060008060008661ffff166001600160401b038111156121b0576121b0612ed2565b6040519080825280601f01601f1916602001820160405280156121da576020820181803683370190505b50905060008087516020890160008d8df191503d9250868311156121fc578692505b828152826000602083013e909890975095505050505050565b8180519060200120609760008761ffff1661ffff168152602001908152602001600020856040516122469190613594565b9081526040805191829003602090810183206001600160401b0388166000908152915220919091557fe183f33de2837795525b4792ca4cd60535bd77c53b7e7030060bfcf5734d6b0c9061145f90879087908790879087906135b0565b60fb5460ff16156122bf576122ba8484848461262c565b611c20565b815115611c205760405162461bcd60e51b815260206004820152602660248201527f4f4654436f72653a205f61646170746572506172616d73206d7573742062652060448201526532b6b83a3c9760d11b60648201526084016108ec565b6000336001600160a01b038616811461233b5761233b868285611bac565b612345868461270b565b5090949350505050565b61ffff86166000908152606660205260408120805461236d90613221565b80601f016020809104026020016040519081016040528092919081815260200182805461239990613221565b80156123e65780601f106123bb576101008083540402835291602001916123e6565b820191906000526020600020905b8154815290600101906020018083116123c957829003601f168201915b505050505090508051600014156124585760405162461bcd60e51b815260206004820152603060248201527f4c7a4170703a2064657374696e6174696f6e20636861696e206973206e6f742060448201526f61207472757374656420736f7572636560801b60648201526084016108ec565b61246387875161285c565b60655460405162c5803160e81b81526001600160a01b039091169063c580310090849061249e908b9086908c908c908c908c9060040161360e565b6000604051808303818588803b1580156124b757600080fd5b505af11580156124cb573d6000803e3d6000fd5b505050505050505050505050565b600080828060200190518101906124f09190613668565b90935091506000905061250383826128ca565b905061251087828461292f565b9150806001600160a01b03168761ffff167fbf551ec93859b170f9b2141bd9298bf3f64322c6f7beb2543a0cb669834118bf8460405161255291815260200190565b60405180910390a350505050505050565b600054610100900460ff1661258a5760405162461bcd60e51b81526004016108ec90613549565b815161259e9061013090602085019061299e565b5080516120a59061013190602084019061299e565b600054610100900460ff166125da5760405162461bcd60e51b81526004016108ec90613549565b610fff33611f04565b600054610100900460ff1661260a5760405162461bcd60e51b81526004016108ec90613549565b606580546001600160a01b0319166001600160a01b0392909216919091179055565b600061263783612942565b61ffff808716600090815260676020908152604080832093891683529290529081205491925090612669908490613354565b9050600081116126bb5760405162461bcd60e51b815260206004820152601a60248201527f4c7a4170703a206d696e4761734c696d6974206e6f742073657400000000000060448201526064016108ec565b80821015610fe55760405162461bcd60e51b815260206004820152601b60248201527f4c7a4170703a20676173206c696d697420697320746f6f206c6f77000000000060448201526064016108ec565b6001600160a01b03821661276b5760405162461bcd60e51b815260206004820152602160248201527f45524332303a206275726e2066726f6d20746865207a65726f206164647265736044820152607360f81b60648201526084016108ec565b6001600160a01b038216600090815261012d6020526040902054818110156127e05760405162461bcd60e51b815260206004820152602260248201527f45524332303a206275726e20616d6f756e7420657863656564732062616c616e604482015261636560f01b60648201526084016108ec565b6001600160a01b038316600090815261012d60205260408120838303905561012f805484929061281190849061338a565b90915550506040518281526000906001600160a01b038516907fddf252ad1be2c89b69c2b068fc378daa952ba7f163c4a11628f55a4df523b3ef9060200160405180910390a3505050565b61ffff82166000908152606860205260409020548061287a57506127105b808211156120a55760405162461bcd60e51b815260206004820181905260248201527f4c7a4170703a207061796c6f61642073697a6520697320746f6f206c6172676560448201526064016108ec565b60006128d7826014613354565b8351101561291f5760405162461bcd60e51b8152602060048201526015602482015274746f416464726573735f6f75744f66426f756e647360581b60448201526064016108ec565b500160200151600160601b900490565b600061293b83836120aa565b5092915050565b60006022825110156129965760405162461bcd60e51b815260206004820152601c60248201527f4c7a4170703a20696e76616c69642061646170746572506172616d730000000060448201526064016108ec565b506022015190565b8280546129aa90613221565b90600052602060002090601f0160209004810192826129cc5760008555612a12565b82601f106129e557805160ff1916838001178555612a12565b82800160010185558215612a12579182015b82811115612a125782518255916020019190600101906129f7565b50612a1e929150612a96565b5090565b828054612a2e90613221565b90600052602060002090601f016020900481019282612a505760008555612a12565b82601f10612a695782800160ff19823516178555612a12565b82800160010185558215612a12579182015b82811115612a12578235825591602001919060010190612a7b565b5b80821115612a1e5760008155600101612a97565b61ffff811681146118e957600080fd5b60008083601f840112612acd57600080fd5b5081356001600160401b03811115612ae457600080fd5b602083019150836020828501011115612afc57600080fd5b9250929050565b80356001600160401b0381168114612b1a57600080fd5b919050565b60008060008060008060808789031215612b3857600080fd5b8635612b4381612aab565b955060208701356001600160401b0380821115612b5f57600080fd5b612b6b8a838b01612abb565b9097509550859150612b7f60408a01612b03565b94506060890135915080821115612b9557600080fd5b50612ba289828a01612abb565b979a9699509497509295939492505050565b600060208284031215612bc657600080fd5b81356001600160e01b0319811681146111cc57600080fd5b60005b83811015612bf9578181015183820152602001612be1565b83811115611c205750506000910152565b60008151808452612c22816020860160208601612bde565b601f01601f19169290920160200192915050565b6020815260006111cc6020830184612c0a565b600060208284031215612c5b57600080fd5b81356111cc81612aab565b6001600160a01b03811681146118e957600080fd5b60008060408385031215612c8e57600080fd5b8235612c9981612c66565b946020939093013593505050565b60008060408385031215612cba57600080fd5b8235612c9981612aab565b600080600060608486031215612cda57600080fd5b8335612ce581612c66565b92506020840135612cf581612c66565b929592945050506040919091013590565b80358015158114612b1a57600080fd5b600080600080600080600060a0888a031215612d3157600080fd5b8735612d3c81612aab565b965060208801356001600160401b0380821115612d5857600080fd5b612d648b838c01612abb565b909850965060408a01359550869150612d7f60608b01612d06565b945060808a0135915080821115612d9557600080fd5b50612da28a828b01612abb565b989b979a50959850939692959293505050565b600080600060408486031215612dca57600080fd5b8335612dd581612aab565b925060208401356001600160401b03811115612df057600080fd5b612dfc86828701612abb565b9497909650939450505050565b600080600080600080600080600060e08a8c031215612e2757600080fd5b8935612e3281612c66565b985060208a0135612e4281612aab565b975060408a01356001600160401b0380821115612e5e57600080fd5b612e6a8d838e01612abb565b909950975060608c0135965060808c01359150612e8682612c66565b90945060a08b013590612e9882612c66565b90935060c08b01359080821115612eae57600080fd5b50612ebb8c828d01612abb565b915080935050809150509295985092959850929598565b634e487b7160e01b600052604160045260246000fd5b604051601f8201601f191681016001600160401b0381118282101715612f1057612f10612ed2565b604052919050565b60006001600160401b03821115612f3157612f31612ed2565b50601f01601f191660200190565b6000612f52612f4d84612f18565b612ee8565b9050828152838383011115612f6657600080fd5b828260208301376000602084830101529392505050565b600080600060608486031215612f9257600080fd5b8335612f9d81612aab565b925060208401356001600160401b03811115612fb857600080fd5b8401601f81018613612fc957600080fd5b612fd886823560208401612f3f565b925050612fe760408501612b03565b90509250925092565b60006020828403121561300257600080fd5b81356111cc81612c66565b6000806040838503121561302057600080fd5b823561302b81612aab565b9150602083013561303b81612aab565b809150509250929050565b600082601f83011261305757600080fd5b6111cc83833560208501612f3f565b6000806000806080858703121561307c57600080fd5b84356001600160401b038082111561309357600080fd5b61309f88838901613046565b955060208701359150808211156130b557600080fd5b506130c287828801613046565b9350506040850135915060608501356130da81612c66565b939692955090935050565b6000806000806000608086880312156130fd57600080fd5b853561310881612aab565b9450602086013561311881612aab565b93506040860135925060608601356001600160401b0381111561313a57600080fd5b61314688828901612abb565b969995985093965092949392505050565b6000806040838503121561316a57600080fd5b823561317581612c66565b9150602083013561303b81612c66565b60008060006060848603121561319a57600080fd5b83356131a581612aab565b92506020840135612cf581612aab565b6000602082840312156131c757600080fd5b6111cc82612d06565b600080600080608085870312156131e657600080fd5b84356131f181612aab565b9350602085013561320181612aab565b9250604085013561321181612c66565b9396929550929360600135925050565b600181811c9082168061323557607f821691505b6020821081141561325657634e487b7160e01b600052602260045260246000fd5b50919050565b8183823760009101908152919050565b81835281816020850137506000828201602090810191909152601f909101601f19169091010190565b61ffff851681526060602082015260006132b360608301858761326c565b905082604083015295945050505050565b61ffff871681526001600160a01b038616602082015260a0604082018190526000906132f290830187612c0a565b8515156060840152828103608084015261330d81858761326c565b9998505050505050505050565b6000806040838503121561332d57600080fd5b505080516020909101519092909150565b634e487b7160e01b600052601160045260246000fd5b600082198211156133675761336761333e565b500190565b61ffff8416815260406020820152600061197660408301848661326c565b60008282101561339c5761339c61333e565b500390565b8284823760609190911b6bffffffffffffffffffffffff19169101908152601401919050565b600061ffff8088168352808716602084015250846040830152608060608301526133f560808301848661326c565b979650505050505050565b61ffff8616815260806020820152600061341e60808301868861326c565b6001600160401b0394909416604083015250606001529392505050565b600082601f83011261344c57600080fd5b815161345a612f4d82612f18565b81815284602083860101111561346f57600080fd5b613480826020830160208701612bde565b949350505050565b60006020828403121561349a57600080fd5b81516001600160401b038111156134b057600080fd5b6134808482850161343b565b61ffff851681526080602082015260006134d96080830186612c0a565b6001600160401b038516604084015282810360608401526133f58185612c0a565b61ffff841681526060602082015260006135176060830185612c0a565b9050826040830152949350505050565b60408152600061353a6040830185612c0a565b90508260208301529392505050565b6020808252602b908201527f496e697469616c697a61626c653a20636f6e7472616374206973206e6f74206960408201526a6e697469616c697a696e6760a81b606082015260800190565b600082516135a6818460208701612bde565b9190910192915050565b61ffff8616815260a0602082015260006135cd60a0830187612c0a565b6001600160401b038616604084015282810360608401526135ee8186612c0a565b905082810360808401526136028185612c0a565b98975050505050505050565b61ffff8716815260c06020820152600061362b60c0830188612c0a565b828103604084015261363d8188612c0a565b6001600160a01b0387811660608601528616608085015283810360a0850152905061330d8185612c0a565b60008060006060848603121561367d57600080fd5b835161368881612aab565b60208501519093506001600160401b038111156136a457600080fd5b6136b08682870161343b565b92505060408401519050925092509256fea2646970667358221220581bfb1924655243ca84a0c88c3272d215566ebd708c03056ef4bfdaf0b0fdd464736f6c634300080c0033",
  "linkReferences": {},
  "deployedLinkReferences": {}
}