{
  "address": "0x45A01E4e04F14f7A4a6702c74187c5F6222033cd",
  "abi": [
    {
      "inputs": [
        {
          "internalType": "address payable",
          "name": "_stargateTreasury",
          "type": "address"
        },
        {
          "internalType": "contract IERC20Metadata",
          "name": "_stargate",
          "type": "address"
        },
        {
          "internalType": "contract IERC20Metadata",
          "name": "_stableCoin",
          "type": "address"
        },
        {
          "internalType": "uint256",
          "name": "_auctionStartTime",
          "type": "uint256"
        }
      ],
      "stateMutability": "nonpayable",
      "type": "constructor"
    },
    {
      "anonymous": false,
      "inputs": [
        {
          "indexed": true,
          "internalType": "address",
          "name": "owner",
          "type": "address"
        },
        {
          "indexed": true,
          "internalType": "address",
          "name": "spender",
          "type": "address"
        },
        {
          "indexed": false,
          "internalType": "uint256",
          "name": "value",
          "type": "uint256"
        }
      ],
      "name": "Approval",
      "type": "event"
    },
    {
      "anonymous": false,
      "inputs": [
        {
          "indexed": false,
          "internalType": "address",
          "name": "_sender",
          "type": "address"
        },
        {
          "indexed": false,
          "internalType": "uint256",
          "name": "_astgAmount",
          "type": "uint256"
        }
      ],
      "name": "Auctioned",
      "type": "event"
    },
    {
      "anonymous": false,
      "inputs": [
        {
          "indexed": false,
          "internalType": "address",
          "name": "_sender",
          "type": "address"
        },
        {
          "indexed": false,
          "internalType": "uint256",
          "name": "_astgAmount",
          "type": "uint256"
        },
        {
          "indexed": false,
          "internalType": "uint256",
          "name": "_stgAmount",
          "type": "uint256"
        }
      ],
      "name": "Redeemed",
      "type": "event"
    },
    {
      "anonymous": false,
      "inputs": [
        {
          "indexed": true,
          "internalType": "address",
          "name": "from",
          "type": "address"
        },
        {
          "indexed": true,
          "internalType": "address",
          "name": "to",
          "type": "address"
        },
        {
          "indexed": false,
          "internalType": "uint256",
          "name": "value",
          "type": "uint256"
        }
      ],
      "name": "Transfer",
      "type": "event"
    },
    {
      "inputs": [],
      "name": "AUCTION_CAP",
      "outputs": [
        {
          "internalType": "uint256",
          "name": "",
          "type": "uint256"
        }
      ],
      "stateMutability": "view",
      "type": "function"
    },
    {
      "inputs": [],
      "name": "AUCTION_DURATION",
      "outputs": [
        {
          "internalType": "uint256",
          "name": "",
          "type": "uint256"
        }
      ],
      "stateMutability": "view",
      "type": "function"
    },
    {
      "inputs": [],
      "name": "LOCK_DURATION",
      "outputs": [
        {
          "internalType": "uint256",
          "name": "",
          "type": "uint256"
        }
      ],
      "stateMutability": "view",
      "type": "function"
    },
    {
      "inputs": [],
      "name": "STARGATE_FOR_AUCTION",
      "outputs": [
        {
          "internalType": "uint256",
          "name": "",
          "type": "uint256"
        }
      ],
      "stateMutability": "view",
      "type": "function"
    },
    {
      "inputs": [],
      "name": "STARGATE_FOR_LP",
      "outputs": [
        {
          "internalType": "uint256",
          "name": "",
          "type": "uint256"
        }
      ],
      "stateMutability": "view",
      "type": "function"
    },
    {
      "inputs": [],
      "name": "VEST_DURATION",
      "outputs": [
        {
          "internalType": "uint256",
          "name": "",
          "type": "uint256"
        }
      ],
      "stateMutability": "view",
      "type": "function"
    },
    {
      "inputs": [
        {
          "internalType": "address",
          "name": "owner",
          "type": "address"
        },
        {
          "internalType": "address",
          "name": "spender",
          "type": "address"
        }
      ],
      "name": "allowance",
      "outputs": [
        {
          "internalType": "uint256",
          "name": "",
          "type": "uint256"
        }
      ],
      "stateMutability": "view",
      "type": "function"
    },
    {
      "inputs": [
        {
          "internalType": "address",
          "name": "spender",
          "type": "address"
        },
        {
          "internalType": "uint256",
          "name": "amount",
          "type": "uint256"
        }
      ],
      "name": "approve",
      "outputs": [
        {
          "internalType": "bool",
          "name": "",
          "type": "bool"
        }
      ],
      "stateMutability": "nonpayable",
      "type": "function"
    },
    {
      "inputs": [],
      "name": "astgDecimals",
      "outputs": [
        {
          "internalType": "uint8",
          "name": "",
          "type": "uint8"
        }
      ],
      "stateMutability": "view",
      "type": "function"
    },
    {
      "inputs": [],
      "name": "auctionCap",
      "outputs": [
        {
          "internalType": "uint256",
          "name": "",
          "type": "uint256"
        }
      ],
      "stateMutability": "view",
      "type": "function"
    },
    {
      "inputs": [],
      "name": "auctionEndTime",
      "outputs": [
        {
          "internalType": "uint256",
          "name": "",
          "type": "uint256"
        }
      ],
      "stateMutability": "view",
      "type": "function"
    },
    {
      "inputs": [],
      "name": "auctionStartTime",
      "outputs": [
        {
          "internalType": "uint256",
          "name": "",
          "type": "uint256"
        }
      ],
      "stateMutability": "view",
      "type": "function"
    },
    {
      "inputs": [],
      "name": "auctionedAmount",
      "outputs": [
        {
          "internalType": "uint256",
          "name": "",
          "type": "uint256"
        }
      ],
      "stateMutability": "view",
      "type": "function"
    },
    {
      "inputs": [
        {
          "internalType": "address",
          "name": "account",
          "type": "address"
        }
      ],
      "name": "balanceOf",
      "outputs": [
        {
          "internalType": "uint256",
          "name": "",
          "type": "uint256"
        }
      ],
      "stateMutability": "view",
      "type": "function"
    },
    {
      "inputs": [],
      "name": "decimals",
      "outputs": [
        {
          "internalType": "uint8",
          "name": "",
          "type": "uint8"
        }
      ],
      "stateMutability": "view",
      "type": "function"
    },
    {
      "inputs": [
        {
          "internalType": "address",
          "name": "spender",
          "type": "address"
        },
        {
          "internalType": "uint256",
          "name": "subtractedValue",
          "type": "uint256"
        }
      ],
      "name": "decreaseAllowance",
      "outputs": [
        {
          "internalType": "bool",
          "name": "",
          "type": "bool"
        }
      ],
      "stateMutability": "nonpayable",
      "type": "function"
    },
    {
      "inputs": [
        {
          "internalType": "uint256",
          "name": "_amount",
          "type": "uint256"
        }
      ],
      "name": "enter",
      "outputs": [],
      "stateMutability": "nonpayable",
      "type": "function"
    },
    {
      "inputs": [
        {
          "internalType": "address",
          "name": "spender",
          "type": "address"
        },
        {
          "internalType": "uint256",
          "name": "addedValue",
          "type": "uint256"
        }
      ],
      "name": "increaseAllowance",
      "outputs": [
        {
          "internalType": "bool",
          "name": "",
          "type": "bool"
        }
      ],
      "stateMutability": "nonpayable",
      "type": "function"
    },
    {
      "inputs": [],
      "name": "name",
      "outputs": [
        {
          "internalType": "string",
          "name": "",
          "type": "string"
        }
      ],
      "stateMutability": "view",
      "type": "function"
    },
    {
      "inputs": [],
      "name": "redeem",
      "outputs": [],
      "stateMutability": "nonpayable",
      "type": "function"
    },
    {
      "inputs": [
        {
          "internalType": "address",
          "name": "",
          "type": "address"
        }
      ],
      "name": "redeemedShares",
      "outputs": [
        {
          "internalType": "uint256",
          "name": "",
          "type": "uint256"
        }
      ],
      "stateMutability": "view",
      "type": "function"
    },
    {
      "inputs": [],
      "name": "stableCoin",
      "outputs": [
        {
          "internalType": "contract IERC20Metadata",
          "name": "",
          "type": "address"
        }
      ],
      "stateMutability": "view",
      "type": "function"
    },
    {
      "inputs": [],
      "name": "stargate",
      "outputs": [
        {
          "internalType": "contract IERC20Metadata",
          "name": "",
          "type": "address"
        }
      ],
      "stateMutability": "view",
      "type": "function"
    },
    {
      "inputs": [],
      "name": "stargateTreasury",
      "outputs": [
        {
          "internalType": "address",
          "name": "",
          "type": "address"
        }
      ],
      "stateMutability": "view",
      "type": "function"
    },
    {
      "inputs": [],
      "name": "stgAuctionAmount",
      "outputs": [
        {
          "internalType": "uint256",
          "name": "",
          "type": "uint256"
        }
      ],
      "stateMutability": "view",
      "type": "function"
    },
    {
      "inputs": [],
      "name": "symbol",
      "outputs": [
        {
          "internalType": "string",
          "name": "",
          "type": "string"
        }
      ],
      "stateMutability": "view",
      "type": "function"
    },
    {
      "inputs": [],
      "name": "totalSupply",
      "outputs": [
        {
          "internalType": "uint256",
          "name": "",
          "type": "uint256"
        }
      ],
      "stateMutability": "view",
      "type": "function"
    },
    {
      "inputs": [
        {
          "internalType": "address",
          "name": "recipient",
          "type": "address"
        },
        {
          "internalType": "uint256",
          "name": "amount",
          "type": "uint256"
        }
      ],
      "name": "transfer",
      "outputs": [
        {
          "internalType": "bool",
          "name": "",
          "type": "bool"
        }
      ],
      "stateMutability": "nonpayable",
      "type": "function"
    },
    {
      "inputs": [
        {
          "internalType": "address",
          "name": "sender",
          "type": "address"
        },
        {
          "internalType": "address",
          "name": "recipient",
          "type": "address"
        },
        {
          "internalType": "uint256",
          "name": "amount",
          "type": "uint256"
        }
      ],
      "name": "transferFrom",
      "outputs": [
        {
          "internalType": "bool",
          "name": "",
          "type": "bool"
        }
      ],
      "stateMutability": "nonpayable",
      "type": "function"
    },
    {
      "inputs": [],
      "name": "vestStartTime",
      "outputs": [
        {
          "internalType": "uint256",
          "name": "",
          "type": "uint256"
        }
      ],
      "stateMutability": "view",
      "type": "function"
    }
  ],
  "transactionHash": "0x728d521820a8b38d95fba907508b65c0e1d2a3feec9bc816624a2b8b81e67fc2",
  "args": [
    "0x67FC8c432448f9a8d541C17579EF7a142378d5aD",
    "0xAf5191B0De278C7286d6C7CC6ab6BB8A73bA2Cd6",
    "0xa0b86991c6218b36c1d19d4a2e9eb0ce3606eb48",
    1647532800
  ],
  "numDeployments": 1,
  "solcInputHash": "52cab37e3ef0ffbba6808e43eaca2a3f",
  "bytecode": "0x6101606040523480156200001257600080fd5b50604051620019ce380380620019ce833981810160405260808110156200003857600080fd5b508051602080830151604080850151606090950151815180830183526004808252636153544760e01b8287018181528551808701909652918552958401959095528051959693959394919390929162000095916003919062000294565b508051620000ab90600490602084019062000294565b50506005805460ff19166012179055506001600160601b0319606085811b821660805284811b821660e05283901b1660c0526040805163313ce56760e01b815290516001600160a01b0384169163313ce567916004808301926020929190829003018186803b1580156200011e57600080fd5b505afa15801562000133573d6000803e3d6000fd5b505050506040513d60208110156200014a57600080fd5b505160f81b7fff000000000000000000000000000000000000000000000000000000000000001660a0526040805163313ce56760e01b815290516001600160a01b0384169163313ce567916004808301926020929190829003018186803b158015620001b557600080fd5b505afa158015620001ca573d6000803e3d6000fd5b505050506040513d6020811015620001e157600080fd5b505160ff16600a0a63017d784002610100526040805163313ce56760e01b815290516001600160a01b0385169163313ce567916004808301926020929190829003018186803b1580156200023457600080fd5b505afa15801562000249573d6000803e3d6000fd5b505050506040513d60208110156200026057600080fd5b505160ff16600a0a6305f5e100026101405260068190556202a30081016007556301e2850001610120525062000340915050565b828054600181600116156101000203166002900490600052602060002090601f016020900481019282620002cc576000855562000317565b82601f10620002e757805160ff191683800117855562000317565b8280016001018555821562000317579182015b8281111562000317578251825591602001919060010190620002fa565b506200032592915062000329565b5090565b5b808211156200032557600081556001016200032a565b60805160601c60a05160f81c60c05160601c60e05160601c610100516101205161014051611601620003cd600039806106ba5280610bb7525080610a815280610aec5280610c5e52508061074852806108c952806109805250806106de5280610bee5250806107cd52806109b9525080610616528061063a52508061072452806109dc52506116016000f3fe608060405234801561001057600080fd5b50600436106101da5760003560e01c806395d89b4111610104578063a9059cbb116100a2578063cf329ace11610071578063cf329ace1461048d578063dd62ed3e14610495578063eb54f9ec146104c3578063f3712862146104cb576101da565b8063a9059cbb1461042b578063af22bd7014610457578063bc5bd3431461047d578063be040fb014610485576101da565b80639f920a12116100de5780639f920a12146103d0578063a271e525146103d8578063a457c2d7146103e0578063a59f3e0c1461040c576101da565b806395d89b41146103b8578063992642e5146103c057806399509c6e146103c8576101da565b8063485d38341161017c5780636e6941c51161014b5780636e6941c51461037a57806370a0823114610382578063807d1378146103a8578063941af29c146103b0576101da565b8063485d38341461033e5780634b449cba14610346578063592b3d221461034e5780636c099dee14610356576101da565b806323b872dd116101b857806323b872dd146102b657806328554c1b146102ec578063313ce5671461030a5780633950935114610312576101da565b806306fdde03146101df578063095ea7b31461025c57806318160ddd1461029c575b600080fd5b6101e76104d3565b6040805160208082528351818301528351919283929083019185019080838360005b83811015610221578181015183820152602001610209565b50505050905090810190601f16801561024e5780820380516001836020036101000a031916815260200191505b509250505060405180910390f35b6102886004803603604081101561027257600080fd5b506001600160a01b038135169060200135610569565b604080519115158252519081900360200190f35b6102a4610586565b60408051918252519081900360200190f35b610288600480360360608110156102cc57600080fd5b506001600160a01b0381358116916020810135909116906040013561058c565b6102f4610614565b6040805160ff9092168252519081900360200190f35b6102f4610638565b6102886004803603604081101561032857600080fd5b506001600160a01b03813516906020013561065c565b6102a46106aa565b6102a46106b2565b6102a46106b8565b61035e6106dc565b604080516001600160a01b039092168252519081900360200190f35b6102a4610700565b6102a46004803603602081101561039857600080fd5b50356001600160a01b0316610707565b61035e610722565b6102a4610746565b6101e761076a565b61035e6107cb565b6102a46107ef565b6102a46107f7565b6102a46107ff565b610288600480360360408110156103f657600080fd5b506001600160a01b038135169060200135610806565b6104296004803603602081101561042257600080fd5b503561086e565b005b6102886004803603604081101561044157600080fd5b506001600160a01b038135169060200135610a53565b6102a46004803603602081101561046d57600080fd5b50356001600160a01b0316610a67565b6102a4610a79565b610429610a7f565b6102a4610c5c565b6102a4600480360360408110156104ab57600080fd5b506001600160a01b0381358116916020013516610c80565b6102a4610cab565b6102a4610cb1565b60038054604080516020601f600260001961010060018816150201909516949094049384018190048102820181019092528281526060939092909183018282801561055f5780601f106105345761010080835404028352916020019161055f565b820191906000526020600020905b81548152906001019060200180831161054257829003601f168201915b5050505050905090565b600061057d610576610cb9565b8484610cbd565b50600192915050565b60025490565b6000610599848484610da9565b610609846105a5610cb9565b6106048560405180606001604052806028815260200161150c602891396001600160a01b038a166000908152600160205260408120906105e3610cb9565b6001600160a01b031681526020810191909152604001600020549190610f04565b610cbd565b5060015b9392505050565b7f000000000000000000000000000000000000000000000000000000000000000081565b7f000000000000000000000000000000000000000000000000000000000000000090565b600061057d610669610cb9565b84610604856001600061067a610cb9565b6001600160a01b03908116825260208083019390935260409182016000908120918c168152925290205490610f9b565b6301dfe20081565b60075481565b7f000000000000000000000000000000000000000000000000000000000000000081565b7f000000000000000000000000000000000000000000000000000000000000000081565b62eff10081565b6001600160a01b031660009081526020819052604090205490565b7f000000000000000000000000000000000000000000000000000000000000000081565b7f000000000000000000000000000000000000000000000000000000000000000081565b60048054604080516020601f600260001961010060018816150201909516949094049384018190048102820181019092528281526060939092909183018282801561055f5780601f106105345761010080835404028352916020019161055f565b7f000000000000000000000000000000000000000000000000000000000000000081565b63017d784081565b6305f5e10081565b6202a30081565b600061057d610813610cb9565b84610604856040518060600160405280602581526020016115a7602591396001600061083d610cb9565b6001600160a01b03908116825260208083019390935260409182016000908120918d16815292529020549190610f04565b6006544210156108bb576040805162461bcd60e51b8152602060048201526013602482015272185d58dd1a5bdb881b9bdd081cdd185c9d1959606a1b604482015290519081900360640190fd5b600754421080156108ed57507f0000000000000000000000000000000000000000000000000000000000000000600854105b610931576040805162461bcd60e51b815260206004820152601060248201526f185d58dd1a5bdb88199a5b9a5cda195960821b604482015290519081900360640190fd5b60008111610979576040805162461bcd60e51b815260206004820152601060248201526f185b5bdd5b9d081d1bdbc81cdb585b1b60821b604482015290519081900360640190fd5b60085481907f000000000000000000000000000000000000000000000000000000000000000003808211156109ac578091505b610a016001600160a01b037f000000000000000000000000000000000000000000000000000000000000000016337f000000000000000000000000000000000000000000000000000000000000000085610ff5565b6008805483019055610a133383611055565b604080513381526020810184905281517fdc4898700580a0ffe47231a7b5a7dfbe3f9bdbbf02de4952e9a3e57b617f82c2929181900390910190a1505050565b600061057d610a60610cb9565b8484610da9565b60096020526000908152604090205481565b60085481565b7f0000000000000000000000000000000000000000000000000000000000000000421015610aea576040805162461bcd60e51b81526020600482015260136024820152721d995cdd1a5b99c81b9bdd081cdd185c9d1959606a1b604482015290519081900360640190fd5b7f0000000000000000000000000000000000000000000000000000000000000000420362eff100811115610b1e575062eff1005b600062eff10082610b2e33610707565b0281610b3657fe5b336000908152600960205260409020549190049150808211610b93576040805162461bcd60e51b81526020600482015260116024820152706e6f7468696e6720746f2072656465656d60781b604482015290519081900360640190fd5b33600090815260096020526040812082840380840190915590610bb4610586565b827f00000000000000000000000000000000000000000000000000000000000000000281610bde57fe5b049050610c156001600160a01b037f0000000000000000000000000000000000000000000000000000000000000000163383611145565b604080513381526020810184905280820183905290517ff3a670cd3af7d64b488926880889d08a8585a138ff455227af6737339a1ec2629181900360600190a15050505050565b7f000000000000000000000000000000000000000000000000000000000000000081565b6001600160a01b03918216600090815260016020908152604080832093909416825291909152205490565b60065481565b6302faf08081565b3390565b6001600160a01b038316610d025760405162461bcd60e51b81526004018080602001828103825260248152602001806115596024913960400191505060405180910390fd5b6001600160a01b038216610d475760405162461bcd60e51b815260040180806020018281038252602281526020018061149e6022913960400191505060405180910390fd5b6001600160a01b03808416600081815260016020908152604080832094871680845294825291829020859055815185815291517f8c5be1e5ebec7d5bd14f71427d1e84f3dd0314c0f7b2291e5b200ac8c7c3b9259281900390910190a3505050565b6001600160a01b038316610dee5760405162461bcd60e51b81526004018080602001828103825260258152602001806115346025913960400191505060405180910390fd5b6001600160a01b038216610e335760405162461bcd60e51b815260040180806020018281038252602381526020018061147b6023913960400191505060405180910390fd5b610e3e83838361119c565b610e7b816040518060600160405280602681526020016114c0602691396001600160a01b0386166000908152602081905260409020549190610f04565b6001600160a01b038085166000908152602081905260408082209390935590841681522054610eaa9082610f9b565b6001600160a01b038084166000818152602081815260409182902094909455805185815290519193928716927fddf252ad1be2c89b69c2b068fc378daa952ba7f163c4a11628f55a4df523b3ef92918290030190a3505050565b60008184841115610f935760405162461bcd60e51b81526004018080602001828103825283818151815260200191508051906020019080838360005b83811015610f58578181015183820152602001610f40565b50505050905090810190601f168015610f855780820380516001836020036101000a031916815260200191505b509250505060405180910390fd5b505050900390565b60008282018381101561060d576040805162461bcd60e51b815260206004820152601b60248201527f536166654d6174683a206164646974696f6e206f766572666c6f770000000000604482015290519081900360640190fd5b604080516001600160a01b0380861660248301528416604482015260648082018490528251808303909101815260849091019091526020810180516001600160e01b03166323b872dd60e01b17905261104f9085906111eb565b50505050565b6001600160a01b0382166110b0576040805162461bcd60e51b815260206004820152601f60248201527f45524332303a206d696e7420746f20746865207a65726f206164647265737300604482015290519081900360640190fd5b6110bc6000838361119c565b6002546110c99082610f9b565b6002556001600160a01b0382166000908152602081905260409020546110ef9082610f9b565b6001600160a01b0383166000818152602081815260408083209490945583518581529351929391927fddf252ad1be2c89b69c2b068fc378daa952ba7f163c4a11628f55a4df523b3ef9281900390910190a35050565b604080516001600160a01b038416602482015260448082018490528251808303909101815260649091019091526020810180516001600160e01b031663a9059cbb60e01b1790526111979084906111eb565b505050565b6001600160a01b03831615611197576040805162461bcd60e51b815260206004820152601060248201526f6e6f6e2d7472616e7366657261626c6560801b604482015290519081900360640190fd5b6000611240826040518060400160405280602081526020017f5361666545524332303a206c6f772d6c6576656c2063616c6c206661696c6564815250856001600160a01b031661129c9092919063ffffffff16565b8051909150156111975780806020019051602081101561125f57600080fd5b50516111975760405162461bcd60e51b815260040180806020018281038252602a81526020018061157d602a913960400191505060405180910390fd5b60606112ab84846000856112b3565b949350505050565b6060824710156112f45760405162461bcd60e51b81526004018080602001828103825260268152602001806114e66026913960400191505060405180910390fd5b6112fd8561140e565b61134e576040805162461bcd60e51b815260206004820152601d60248201527f416464726573733a2063616c6c20746f206e6f6e2d636f6e7472616374000000604482015290519081900360640190fd5b600080866001600160a01b031685876040518082805190602001908083835b6020831061138c5780518252601f19909201916020918201910161136d565b6001836020036101000a03801982511681845116808217855250505050505090500191505060006040518083038185875af1925050503d80600081146113ee576040519150601f19603f3d011682016040523d82523d6000602084013e6113f3565b606091505b5091509150611403828286611414565b979650505050505050565b3b151590565b6060831561142357508161060d565b8251156114335782518084602001fd5b60405162461bcd60e51b8152602060048201818152845160248401528451859391928392604401919085019080838360008315610f58578181015183820152602001610f4056fe45524332303a207472616e7366657220746f20746865207a65726f206164647265737345524332303a20617070726f766520746f20746865207a65726f206164647265737345524332303a207472616e7366657220616d6f756e7420657863656564732062616c616e6365416464726573733a20696e73756666696369656e742062616c616e636520666f722063616c6c45524332303a207472616e7366657220616d6f756e74206578636565647320616c6c6f77616e636545524332303a207472616e736665722066726f6d20746865207a65726f206164647265737345524332303a20617070726f76652066726f6d20746865207a65726f20616464726573735361666545524332303a204552433230206f7065726174696f6e20646964206e6f74207375636365656445524332303a2064656372656173656420616c6c6f77616e63652062656c6f77207a65726fa26469706673582212204a5fdfa19c8e0109b19328ec0a445305d3c850de0a700174faba657f2c987ff464736f6c63430007060033",
  "devdoc": {
    "kind": "dev",
    "methods": {
      "allowance(address,address)": {
        "details": "See {IERC20-allowance}."
      },
      "approve(address,uint256)": {
        "details": "See {IERC20-approve}. Requirements: - `spender` cannot be the zero address."
      },
      "balanceOf(address)": {
        "details": "See {IERC20-balanceOf}."
      },
      "decimals()": {
        "details": "Returns the number of decimals used to get its user representation. For example, if `decimals` equals `2`, a balance of `505` tokens should be displayed to a user as `5,05` (`505 / 10 ** 2`). Tokens usually opt for a value of 18, imitating the relationship between Ether and Wei. This is the value {ERC20} uses, unless {_setupDecimals} is called. NOTE: This information is only used for _display_ purposes: it in no way affects any of the arithmetic of the contract, including {IERC20-balanceOf} and {IERC20-transfer}."
      },
      "decreaseAllowance(address,uint256)": {
        "details": "Atomically decreases the allowance granted to `spender` by the caller. This is an alternative to {approve} that can be used as a mitigation for problems described in {IERC20-approve}. Emits an {Approval} event indicating the updated allowance. Requirements: - `spender` cannot be the zero address. - `spender` must have allowance for the caller of at least `subtractedValue`."
      },
      "increaseAllowance(address,uint256)": {
        "details": "Atomically increases the allowance granted to `spender` by the caller. This is an alternative to {approve} that can be used as a mitigation for problems described in {IERC20-approve}. Emits an {Approval} event indicating the updated allowance. Requirements: - `spender` cannot be the zero address."
      },
      "name()": {
        "details": "Returns the name of the token."
      },
      "symbol()": {
        "details": "Returns the symbol of the token, usually a shorter version of the name."
      },
      "totalSupply()": {
        "details": "See {IERC20-totalSupply}."
      },
      "transfer(address,uint256)": {
        "details": "See {IERC20-transfer}. Requirements: - `recipient` cannot be the zero address. - the caller must have a balance of at least `amount`."
      },
      "transferFrom(address,address,uint256)": {
        "details": "See {IERC20-transferFrom}. Emits an {Approval} event indicating the updated allowance. This is not required by the EIP. See the note at the beginning of {ERC20}. Requirements: - `sender` and `recipient` cannot be the zero address. - `sender` must have a balance of at least `amount`. - the caller must have allowance for ``sender``'s tokens of at least `amount`."
      }
    },
    "version": 1
  },
  "userdoc": {
    "kind": "user",
    "methods": {},
    "version": 1
  },
  "storageLayout": {
    "storage": [
      {
        "astId": 671,
        "contract": "contracts/Auction.sol:Auction",
        "label": "_balances",
        "offset": 0,
        "slot": "0",
        "type": "t_mapping(t_address,t_uint256)"
      },
      {
        "astId": 677,
        "contract": "contracts/Auction.sol:Auction",
        "label": "_allowances",
        "offset": 0,
        "slot": "1",
        "type": "t_mapping(t_address,t_mapping(t_address,t_uint256))"
      },
      {
        "astId": 679,
        "contract": "contracts/Auction.sol:Auction",
        "label": "_totalSupply",
        "offset": 0,
        "slot": "2",
        "type": "t_uint256"
      },
      {
        "astId": 681,
        "contract": "contracts/Auction.sol:Auction",
        "label": "_name",
        "offset": 0,
        "slot": "3",
        "type": "t_string_storage"
      },
      {
        "astId": 683,
        "contract": "contracts/Auction.sol:Auction",
        "label": "_symbol",
        "offset": 0,
        "slot": "4",
        "type": "t_string_storage"
      },
      {
        "astId": 685,
        "contract": "contracts/Auction.sol:Auction",
        "label": "_decimals",
        "offset": 0,
        "slot": "5",
        "type": "t_uint8"
      },
      {
        "astId": 2337,
        "contract": "contracts/Auction.sol:Auction",
        "label": "auctionStartTime",
        "offset": 0,
        "slot": "6",
        "type": "t_uint256"
      },
      {
        "astId": 2339,
        "contract": "contracts/Auction.sol:Auction",
        "label": "auctionEndTime",
        "offset": 0,
        "slot": "7",
        "type": "t_uint256"
      },
      {
        "astId": 2343,
        "contract": "contracts/Auction.sol:Auction",
        "label": "auctionedAmount",
        "offset": 0,
        "slot": "8",
        "type": "t_uint256"
      },
      {
        "astId": 2349,
        "contract": "contracts/Auction.sol:Auction",
        "label": "redeemedShares",
        "offset": 0,
        "slot": "9",
        "type": "t_mapping(t_address,t_uint256)"
      }
    ],
    "types": {
      "t_address": {
        "encoding": "inplace",
        "label": "address",
        "numberOfBytes": "20"
      },
      "t_mapping(t_address,t_mapping(t_address,t_uint256))": {
        "encoding": "mapping",
        "key": "t_address",
        "label": "mapping(address => mapping(address => uint256))",
        "numberOfBytes": "32",
        "value": "t_mapping(t_address,t_uint256)"
      },
      "t_mapping(t_address,t_uint256)": {
        "encoding": "mapping",
        "key": "t_address",
        "label": "mapping(address => uint256)",
        "numberOfBytes": "32",
        "value": "t_uint256"
      },
      "t_string_storage": {
        "encoding": "bytes",
        "label": "string",
        "numberOfBytes": "32"
      },
      "t_uint256": {
        "encoding": "inplace",
        "label": "uint256",
        "numberOfBytes": "32"
      },
      "t_uint8": {
        "encoding": "inplace",
        "label": "uint8",
        "numberOfBytes": "1"
      }
    }
  }
}