{
  "address": "0x9d1B1669c73b033DFe47ae5a0164Ab96df25B944",
  "abi": [
    {
      "inputs": [],
      "name": "getBlockNumber",
      "outputs": [
        {
          "internalType": "uint256",
          "name": "",
          "type": "uint256"
        }
      ],
      "stateMutability": "view",
      "type": "function"
    }
  ],
  "transactionHash": "0x8e32de098bdf6e3cd8958df17575ae21ca50de353220a312f930c19d41e8e01e",
  "args": [],
  "numDeployments": 1,
  "solcInputHash": "9fe1546c272220fc6c394a3b8e14b07a",
  "bytecode": "0x6080604052348015600f57600080fd5b50607f8061001e6000396000f3fe6080604052348015600f57600080fd5b506004361060285760003560e01c806342cbb15c14602d575b600080fd5b60336045565b60408051918252519081900360200190f35b439056fea2646970667358221220be67b4cb826f9a14107afab6d0bef8401a06cceda424b02453bfbb5a24e69d2864736f6c63430007060033",
  "devdoc": {
    "kind": "dev",
    "methods": {},
    "version": 1
  },
  "userdoc": {
    "kind": "user",
    "methods": {},
    "version": 1
  },
  "storageLayout": {
    "storage": [],
    "types": null
  }
}