{
  "address": "0x224D8Fd7aB6AD4c6eb4611Ce56EF35Dec2277F03",
  "abi": [
    {
      "inputs": [
        {
          "internalType": "address payable",
          "name": "_stargateTreasury",
          "type": "address"
        },
        {
          "internalType": "contract IERC20Metadata",
          "name": "_stargate",
          "type": "address"
        },
        {
          "internalType": "contract IERC20Metadata",
          "name": "_stableCoin",
          "type": "address"
        },
        {
          "internalType": "uint256",
          "name": "_totalStargateForBonding",
          "type": "uint256"
        }
      ],
      "stateMutability": "nonpayable",
      "type": "constructor"
    },
    {
      "anonymous": false,
      "inputs": [
        {
          "indexed": false,
          "internalType": "address",
          "name": "user",
          "type": "address"
        },
        {
          "indexed": false,
          "internalType": "uint256",
          "name": "bondQuantity",
          "type": "uint256"
        },
        {
          "indexed": false,
          "internalType": "uint256",
          "name": "stableQty",
          "type": "uint256"
        }
      ],
      "name": "Bonded",
      "type": "event"
    },
    {
      "anonymous": false,
      "inputs": [
        {
          "indexed": true,
          "internalType": "address",
          "name": "previousOwner",
          "type": "address"
        },
        {
          "indexed": true,
          "internalType": "address",
          "name": "newOwner",
          "type": "address"
        }
      ],
      "name": "OwnershipTransferred",
      "type": "event"
    },
    {
      "anonymous": false,
      "inputs": [
        {
          "indexed": false,
          "internalType": "uint256",
          "name": "endTime",
          "type": "uint256"
        }
      ],
      "name": "Started",
      "type": "event"
    },
    {
      "anonymous": false,
      "inputs": [
        {
          "indexed": false,
          "internalType": "address",
          "name": "coin",
          "type": "address"
        },
        {
          "indexed": false,
          "internalType": "address",
          "name": "to",
          "type": "address"
        },
        {
          "indexed": false,
          "internalType": "uint256",
          "name": "tokenQty",
          "type": "uint256"
        }
      ],
      "name": "Withdrawn",
      "type": "event"
    },
    {
      "inputs": [],
      "name": "DURATION",
      "outputs": [
        {
          "internalType": "uint256",
          "name": "",
          "type": "uint256"
        }
      ],
      "stateMutability": "view",
      "type": "function"
    },
    {
      "inputs": [
        {
          "internalType": "uint256",
          "name": "_targetBondQuantity",
          "type": "uint256"
        },
        {
          "internalType": "uint256",
          "name": "_maxAmountToPay",
          "type": "uint256"
        }
      ],
      "name": "bond",
      "outputs": [],
      "stateMutability": "nonpayable",
      "type": "function"
    },
    {
      "inputs": [
        {
          "internalType": "uint256",
          "name": "_totalBondCost",
          "type": "uint256"
        },
        {
          "internalType": "uint256",
          "name": "_minAmountToBuy",
          "type": "uint256"
        }
      ],
      "name": "bondWithCost",
      "outputs": [],
      "stateMutability": "nonpayable",
      "type": "function"
    },
    {
      "inputs": [],
      "name": "convertRate",
      "outputs": [
        {
          "internalType": "uint256",
          "name": "",
          "type": "uint256"
        }
      ],
      "stateMutability": "view",
      "type": "function"
    },
    {
      "inputs": [],
      "name": "endTime",
      "outputs": [
        {
          "internalType": "uint256",
          "name": "",
          "type": "uint256"
        }
      ],
      "stateMutability": "view",
      "type": "function"
    },
    {
      "inputs": [],
      "name": "initialPrice",
      "outputs": [
        {
          "internalType": "uint256",
          "name": "",
          "type": "uint256"
        }
      ],
      "stateMutability": "view",
      "type": "function"
    },
    {
      "inputs": [],
      "name": "owner",
      "outputs": [
        {
          "internalType": "address",
          "name": "",
          "type": "address"
        }
      ],
      "stateMutability": "view",
      "type": "function"
    },
    {
      "inputs": [],
      "name": "renounceOwnership",
      "outputs": [],
      "stateMutability": "nonpayable",
      "type": "function"
    },
    {
      "inputs": [],
      "name": "slopeDenominator",
      "outputs": [
        {
          "internalType": "uint256",
          "name": "",
          "type": "uint256"
        }
      ],
      "stateMutability": "view",
      "type": "function"
    },
    {
      "inputs": [],
      "name": "slopeNumerator",
      "outputs": [
        {
          "internalType": "uint256",
          "name": "",
          "type": "uint256"
        }
      ],
      "stateMutability": "view",
      "type": "function"
    },
    {
      "inputs": [],
      "name": "stableCoin",
      "outputs": [
        {
          "internalType": "contract IERC20Metadata",
          "name": "",
          "type": "address"
        }
      ],
      "stateMutability": "view",
      "type": "function"
    },
    {
      "inputs": [],
      "name": "stargate",
      "outputs": [
        {
          "internalType": "contract IERC20Metadata",
          "name": "",
          "type": "address"
        }
      ],
      "stateMutability": "view",
      "type": "function"
    },
    {
      "inputs": [],
      "name": "stargateTreasury",
      "outputs": [
        {
          "internalType": "address",
          "name": "",
          "type": "address"
        }
      ],
      "stateMutability": "view",
      "type": "function"
    },
    {
      "inputs": [
        {
          "internalType": "uint256",
          "name": "_initialPrice",
          "type": "uint256"
        },
        {
          "internalType": "uint256",
          "name": "_slopeNumerator",
          "type": "uint256"
        },
        {
          "internalType": "uint256",
          "name": "_slopeDenominator",
          "type": "uint256"
        }
      ],
      "name": "start",
      "outputs": [],
      "stateMutability": "nonpayable",
      "type": "function"
    },
    {
      "inputs": [],
      "name": "totalStargateBonded",
      "outputs": [
        {
          "internalType": "uint256",
          "name": "",
          "type": "uint256"
        }
      ],
      "stateMutability": "view",
      "type": "function"
    },
    {
      "inputs": [],
      "name": "totalStargateForBonding",
      "outputs": [
        {
          "internalType": "uint256",
          "name": "",
          "type": "uint256"
        }
      ],
      "stateMutability": "view",
      "type": "function"
    },
    {
      "inputs": [
        {
          "internalType": "address",
          "name": "newOwner",
          "type": "address"
        }
      ],
      "name": "transferOwnership",
      "outputs": [],
      "stateMutability": "nonpayable",
      "type": "function"
    },
    {
      "inputs": [
        {
          "internalType": "address",
          "name": "_to",
          "type": "address"
        },
        {
          "internalType": "uint256",
          "name": "_amount",
          "type": "uint256"
        }
      ],
      "name": "withdrawStargate",
      "outputs": [],
      "stateMutability": "nonpayable",
      "type": "function"
    }
  ],
  "transactionHash": "0x48a3becce78789b33ab73e83a057b990f684ed6d458aabc3bcaadd49a6890c69",
  "args": [
    "0x67FC8c432448f9a8d541C17579EF7a142378d5aD",
    "0xAf5191B0De278C7286d6C7CC6ab6BB8A73bA2Cd6",
    "0xdAC17F958D2ee523a2206206994597C13D831ec7",
    "15000000000000000000000000"
  ],
  "numDeployments": 1,
  "solcInputHash": "52cab37e3ef0ffbba6808e43eaca2a3f",
  "bytecode": "0x6101006040523480156200001257600080fd5b50604051620016ab380380620016ab833981810160405260808110156200003857600080fd5b508051602082015160408301516060909301519192909160006200005b620002fd565b600080546001600160a01b0319166001600160a01b0383169081178255604051929350917f8be0079c531659141344cd1fd0a4f28419497f9722a3daafe3b4186f6b6457e0908290a350826001600160a01b031663313ce5676040518163ffffffff1660e01b815260040160206040518083038186803b158015620000df57600080fd5b505afa158015620000f4573d6000803e3d6000fd5b505050506040513d60208110156200010b57600080fd5b50516040805163313ce56760e01b8152905160ff909216916001600160a01b0385169163313ce567916004808301926020929190829003018186803b1580156200015457600080fd5b505afa15801562000169573d6000803e3d6000fd5b505050506040513d60208110156200018057600080fd5b505160ff161115620001d9576040805162461bcd60e51b815260206004820152601960248201527f737461626c6520636f696e206e6f7420737570706f7274656400000000000000604482015290519081900360640190fd5b836001600160a01b031660e0816001600160a01b031660601b81525050816001600160a01b031663313ce5676040518163ffffffff1660e01b815260040160206040518083038186803b1580156200023057600080fd5b505afa15801562000245573d6000803e3d6000fd5b505050506040513d60208110156200025c57600080fd5b50516040805163313ce56760e01b815290516001600160a01b0386169163313ce567916004808301926020929190829003018186803b1580156200029f57600080fd5b505afa158015620002b4573d6000803e3d6000fd5b505050506040513d6020811015620002cb57600080fd5b50510360ff16600a0a600455606092831b6001600160601b03199081166080529190921b1660a05260c0525062000301565b3390565b60805160601c60a05160601c60c05160e05160601c61133462000377600039806106745280610c0e52508061044b52806107b85280610a895280610dcc5250806107945280610beb52508061046c528061059e52806108e052806109155280610b355280610c405280610cf252506113346000f3fe608060405234801561001057600080fd5b50600436106101165760003560e01c80637b518b3b116100a2578063992642e511610071578063992642e51461020a578063b5d709d114610212578063f01c81811461021a578063f2fde38b14610246578063feb56b151461026c57610116565b80637b518b3b146101cf578063807d1378146101d75780638676ed22146101df5780638da5cb5b1461020257610116565b80633197cbb6116100e95780633197cbb61461016a578063641ccd831461017257806365a3ea5f1461019b5780636c099dee146101a3578063715018a6146101c757610116565b80630ba74b2f1461011b5780631be05289146101405780631d0806ae1461015a57806321800fc314610162575b600080fd5b61013e6004803603604081101561013157600080fd5b5080359060200135610274565b005b610148610379565b60408051918252519081900360200190f35b610148610380565b610148610386565b61014861038c565b61013e6004803603606081101561018857600080fd5b5080359060208101359060400135610392565b610148610596565b6101ab61059c565b604080516001600160a01b039092168252519081900360200190f35b61013e6105c0565b61014861066c565b6101ab610672565b61013e600480360360408110156101f557600080fd5b5080359060200135610696565b6101ab610783565b6101ab610792565b6101486107b6565b61013e6004803603604081101561023057600080fd5b506001600160a01b0381351690602001356107da565b61013e6004803603602081101561025c57600080fd5b50356001600160a01b0316610975565b610148610a77565b6003546102be576040805162461bcd60e51b8152602060048201526013602482015272189bdb991a5b99c81b9bdd081cdd185c9d1959606a1b604482015290519081900360640190fd5b6003544210610304576040805162461bcd60e51b815260206004820152600d60248201526c189bdb991a5b99c8195b991959609a1b604482015290519081900360640190fd5b60008061031084610a7d565b9150915082821115610369576040805162461bcd60e51b815260206004820152601760248201527f657863656564732075736572206d617820616d6f756e74000000000000000000604482015290519081900360640190fd5b6103738282610bde565b50505050565b6203f48081565b60055481565b60015481565b60035481565b61039a610cb3565b6001600160a01b03166103ab610783565b6001600160a01b0316146103f4576040805162461bcd60e51b8152602060048201819052602482015260008051602061128f833981519152604482015290519081900360640190fd5b60035415610449576040805162461bcd60e51b815260206004820152601760248201527f426f6e64696e6720616c72656164792073746172746564000000000000000000604482015290519081900360640190fd5b7f00000000000000000000000000000000000000000000000000000000000000007f00000000000000000000000000000000000000000000000000000000000000006001600160a01b03166370a08231306040518263ffffffff1660e01b815260040180826001600160a01b0316815260200191505060206040518083038186803b1580156104d757600080fd5b505afa1580156104eb573d6000803e3d6000fd5b505050506040513d602081101561050157600080fd5b50511461053f5760405162461bcd60e51b81526004018080602001828103825260268152602001806112af6026913960400191505060405180910390fd5b61054883610cb7565b60055560018290556002819055426203f48001600381905560408051918252517e6e0c97de781a7389d44ba8fd35d1467cabb17ed04d038d166d34ab819213f39181900360200190a1505050565b60025481565b7f000000000000000000000000000000000000000000000000000000000000000081565b6105c8610cb3565b6001600160a01b03166105d9610783565b6001600160a01b031614610622576040805162461bcd60e51b8152602060048201819052602482015260008051602061128f833981519152604482015290519081900360640190fd5b600080546040516001600160a01b03909116907f8be0079c531659141344cd1fd0a4f28419497f9722a3daafe3b4186f6b6457e0908390a3600080546001600160a01b0319169055565b60065481565b7f000000000000000000000000000000000000000000000000000000000000000081565b6003546106e0576040805162461bcd60e51b8152602060048201526013602482015272189bdb991a5b99c81b9bdd081cdd185c9d1959606a1b604482015290519081900360640190fd5b6003544210610726576040805162461bcd60e51b815260206004820152600d60248201526c189bdb991a5b99c8195b991959609a1b604482015290519081900360640190fd5b60008061073284610cbe565b9150915082811015610369576040805162461bcd60e51b81526020600482015260156024820152741d5b99195c881d5cd95c881b5a5b88185b5bdd5b9d605a1b604482015290519081900360640190fd5b6000546001600160a01b031690565b7f000000000000000000000000000000000000000000000000000000000000000081565b7f000000000000000000000000000000000000000000000000000000000000000081565b6107e2610cb3565b6001600160a01b03166107f3610783565b6001600160a01b03161461083c576040805162461bcd60e51b8152602060048201819052602482015260008051602061128f833981519152604482015290519081900360640190fd5b600354610886576040805162461bcd60e51b8152602060048201526013602482015272189bdb991a5b99c81b9bdd081cdd185c9d1959606a1b604482015290519081900360640190fd5b6003544210156108d3576040805162461bcd60e51b8152602060048201526013602482015272626f6e64696e6720696e2070726f677265737360681b604482015290519081900360640190fd5b6109076001600160a01b037f0000000000000000000000000000000000000000000000000000000000000000168383610e16565b604080516001600160a01b037f0000000000000000000000000000000000000000000000000000000000000000811682528416602082015280820183905290517fd1c19fbcd4551a5edfb66d43d2e337c04837afda3482b42bdf569a8fccdae5fb9181900360600190a15050565b61097d610cb3565b6001600160a01b031661098e610783565b6001600160a01b0316146109d7576040805162461bcd60e51b8152602060048201819052602482015260008051602061128f833981519152604482015290519081900360640190fd5b6001600160a01b038116610a1c5760405162461bcd60e51b81526004018080602001828103825260268152602001806112106026913960400191505060405180910390fd5b600080546040516001600160a01b03808516939216917f8be0079c531659141344cd1fd0a4f28419497f9722a3daafe3b4186f6b6457e091a3600080546001600160a01b0319166001600160a01b0392909216919091179055565b60045481565b600654600090819083907f00000000000000000000000000000000000000000000000000000000000000000380821115610ab5578091505b60008211610af45760405162461bcd60e51b81526004018080602001828103825260338152602001806112366033913960400191505060405180910390fd5b60006002546001546006540281610b0757fe5b046005540190506000600254600154850281610b1f57fe5b0482019050600060028284010490506000610bce7f00000000000000000000000000000000000000000000000000000000000000006001600160a01b031663313ce5676040518163ffffffff1660e01b815260040160206040518083038186803b158015610b8c57600080fd5b505afa158015610ba0573d6000803e3d6000fd5b505050506040513d6020811015610bb657600080fd5b505160ff16600a0a83880281610bc857fe5b04610e6d565b975094955050505050505b915091565b610c336001600160a01b037f000000000000000000000000000000000000000000000000000000000000000016337f000000000000000000000000000000000000000000000000000000000000000085610e81565b610c676001600160a01b037f0000000000000000000000000000000000000000000000000000000000000000163383610e16565b6006805482019055604080513381526020810183905280820184905290517f524384adee0b2f52827eebf00ddd616aa286978612393216724d61cdb43dc8359181900360600190a15050565b3390565b6004540290565b6000806000610ccc84610cb7565b905060006002546001546006540281610ce157fe5b0460055401905060006002546001547f00000000000000000000000000000000000000000000000000000000000000006001600160a01b031663313ce5676040518163ffffffff1660e01b815260040160206040518083038186803b158015610d4957600080fd5b505afa158015610d5d573d6000803e3d6000fd5b505050506040513d6020811015610d7357600080fd5b505160ff16600a0a85020260020281610d8857fe5b046002830a019050600060015460025484633b9aca00610db186670de0b6b3a764000002610edb565b81610db857fe5b04030281610dc257fe5b60065491900491507f00000000000000000000000000000000000000000000000000000000000000000380821115610e0b57610dfd81610a7d565b965096505050505050610bd9565b509596945050505050565b604080516001600160a01b038416602482015260448082018490528251808303909101815260649091019091526020810180516001600160e01b031663a9059cbb60e01b179052610e68908490610f40565b505050565b60006004548281610e7a57fe5b0492915050565b604080516001600160a01b0380861660248301528416604482015260648082018490528251808303909101815260849091019091526020810180516001600160e01b03166323b872dd60e01b179052610373908590610f40565b670de0b6b3a7640000026000806003831115610f29575081600160028204015b81811015610f2357809150600281828681610f1257fe5b040181610f1b57fe5b049050610efb565b50610f33565b8215610f33575060015b633b9aca00900492915050565b6000610f95826040518060400160405280602081526020017f5361666545524332303a206c6f772d6c6576656c2063616c6c206661696c6564815250856001600160a01b0316610ff19092919063ffffffff16565b805190915015610e6857808060200190516020811015610fb457600080fd5b5051610e685760405162461bcd60e51b815260040180806020018281038252602a8152602001806112d5602a913960400191505060405180910390fd5b6060611000848460008561100a565b90505b9392505050565b60608247101561104b5760405162461bcd60e51b81526004018080602001828103825260268152602001806112696026913960400191505060405180910390fd5b61105485611165565b6110a5576040805162461bcd60e51b815260206004820152601d60248201527f416464726573733a2063616c6c20746f206e6f6e2d636f6e7472616374000000604482015290519081900360640190fd5b600080866001600160a01b031685876040518082805190602001908083835b602083106110e35780518252601f1990920191602091820191016110c4565b6001836020036101000a03801982511681845116808217855250505050505090500191505060006040518083038185875af1925050503d8060008114611145576040519150601f19603f3d011682016040523d82523d6000602084013e61114a565b606091505b509150915061115a82828661116b565b979650505050505050565b3b151590565b6060831561117a575081611003565b82511561118a5782518084602001fd5b8160405162461bcd60e51b81526004018080602001828103825283818151815260200191508051906020019080838360005b838110156111d45781810151838201526020016111bc565b50505050905090810190601f1680156112015780820380516001836020036101000a031916815260200191505b509250505060405180910390fdfe4f776e61626c653a206e6577206f776e657220697320746865207a65726f2061646472657373426f6e64696e6743757276653a20546865726520617265206e6f2072656d61696e696e6720746f6b656e7320746f20626f6e64416464726573733a20696e73756666696369656e742062616c616e636520666f722063616c6c4f776e61626c653a2063616c6c6572206973206e6f7420746865206f776e6572706c656173652070726f766973696f6e207374617267617465206265666f72652073746172745361666545524332303a204552433230206f7065726174696f6e20646964206e6f742073756363656564a264697066735822122026150ef630214cc836775d2415edbb07216c15acbffbc4b8fdfe1376b4f7dd2e64736f6c63430007060033",
  "devdoc": {
    "kind": "dev",
    "methods": {
      "owner()": {
        "details": "Returns the address of the current owner."
      },
      "renounceOwnership()": {
        "details": "Leaves the contract without owner. It will not be possible to call `onlyOwner` functions anymore. Can only be called by the current owner. NOTE: Renouncing ownership will leave the contract without an owner, thereby removing any functionality that is only available to the owner."
      },
      "transferOwnership(address)": {
        "details": "Transfers ownership of the contract to a new account (`newOwner`). Can only be called by the current owner."
      }
    },
    "version": 1
  },
  "userdoc": {
    "kind": "user",
    "methods": {},
    "version": 1
  },
  "storageLayout": {
    "storage": [
      {
        "astId": 197,
        "contract": "contracts/BondingCurve.sol:BondingCurve",
        "label": "_owner",
        "offset": 0,
        "slot": "0",
        "type": "t_address"
      },
      {
        "astId": 2657,
        "contract": "contracts/BondingCurve.sol:BondingCurve",
        "label": "slopeNumerator",
        "offset": 0,
        "slot": "1",
        "type": "t_uint256"
      },
      {
        "astId": 2659,
        "contract": "contracts/BondingCurve.sol:BondingCurve",
        "label": "slopeDenominator",
        "offset": 0,
        "slot": "2",
        "type": "t_uint256"
      },
      {
        "astId": 2661,
        "contract": "contracts/BondingCurve.sol:BondingCurve",
        "label": "endTime",
        "offset": 0,
        "slot": "3",
        "type": "t_uint256"
      },
      {
        "astId": 2663,
        "contract": "contracts/BondingCurve.sol:BondingCurve",
        "label": "convertRate",
        "offset": 0,
        "slot": "4",
        "type": "t_uint256"
      },
      {
        "astId": 2665,
        "contract": "contracts/BondingCurve.sol:BondingCurve",
        "label": "initialPrice",
        "offset": 0,
        "slot": "5",
        "type": "t_uint256"
      },
      {
        "astId": 2669,
        "contract": "contracts/BondingCurve.sol:BondingCurve",
        "label": "totalStargateBonded",
        "offset": 0,
        "slot": "6",
        "type": "t_uint256"
      }
    ],
    "types": {
      "t_address": {
        "encoding": "inplace",
        "label": "address",
        "numberOfBytes": "20"
      },
      "t_uint256": {
        "encoding": "inplace",
        "label": "uint256",
        "numberOfBytes": "32"
      }
    }
  }
}