{
  "address": "0xD23b1907ACfFe37C6B6B4d78e9445679b9d5b133",
  "abi": [
    {
      "inputs": [
        {
          "internalType": "bytes32",
          "name": "_merkleroot",
          "type": "bytes32"
        },
        {
          "internalType": "address",
          "name": "_token",
          "type": "address"
        }
      ],
      "stateMutability": "nonpayable",
      "type": "constructor"
    },
    {
      "anonymous": false,
      "inputs": [
        {
          "indexed": false,
          "internalType": "address",
          "name": "account",
          "type": "address"
        },
        {
          "indexed": false,
          "internalType": "uint256",
          "name": "amount",
          "type": "uint256"
        }
      ],
      "name": "FeesClaimed",
      "type": "event"
    },
    {
      "anonymous": false,
      "inputs": [
        {
          "indexed": true,
          "internalType": "address",
          "name": "previousOwner",
          "type": "address"
        },
        {
          "indexed": true,
          "internalType": "address",
          "name": "newOwner",
          "type": "address"
        }
      ],
      "name": "OwnershipTransferred",
      "type": "event"
    },
    {
      "inputs": [
        {
          "internalType": "bytes32",
          "name": "",
          "type": "bytes32"
        }
      ],
      "name": "claimed",
      "outputs": [
        {
          "internalType": "bool",
          "name": "",
          "type": "bool"
        }
      ],
      "stateMutability": "view",
      "type": "function"
    },
    {
      "inputs": [],
      "name": "owner",
      "outputs": [
        {
          "internalType": "address",
          "name": "",
          "type": "address"
        }
      ],
      "stateMutability": "view",
      "type": "function"
    },
    {
      "inputs": [
        {
          "internalType": "address",
          "name": "_account",
          "type": "address"
        },
        {
          "internalType": "uint256",
          "name": "_amount",
          "type": "uint256"
        },
        {
          "internalType": "bytes32[]",
          "name": "_proof",
          "type": "bytes32[]"
        }
      ],
      "name": "redeemFees",
      "outputs": [],
      "stateMutability": "nonpayable",
      "type": "function"
    },
    {
      "inputs": [],
      "name": "renounceOwnership",
      "outputs": [],
      "stateMutability": "nonpayable",
      "type": "function"
    },
    {
      "inputs": [],
      "name": "root",
      "outputs": [
        {
          "internalType": "bytes32",
          "name": "",
          "type": "bytes32"
        }
      ],
      "stateMutability": "view",
      "type": "function"
    },
    {
      "inputs": [],
      "name": "token",
      "outputs": [
        {
          "internalType": "address",
          "name": "",
          "type": "address"
        }
      ],
      "stateMutability": "view",
      "type": "function"
    },
    {
      "inputs": [
        {
          "internalType": "address",
          "name": "newOwner",
          "type": "address"
        }
      ],
      "name": "transferOwnership",
      "outputs": [],
      "stateMutability": "nonpayable",
      "type": "function"
    },
    {
      "inputs": [
        {
          "internalType": "address",
          "name": "_account",
          "type": "address"
        },
        {
          "internalType": "uint256",
          "name": "_amount",
          "type": "uint256"
        }
      ],
      "name": "withdrawFees",
      "outputs": [],
      "stateMutability": "nonpayable",
      "type": "function"
    }
  ],
  "transactionHash": "0x038b62621a1911a9bb8e03702711d80938cf85488ef6fe3dec59131f79b3a7d9",
  "args": [
    "0x76242629a14c157a95ee519d33209647abad21994b426197646ed1a54746fa30",
    "0xA0b86991c6218b36c1d19D4a2e9Eb0cE3606eB48"
  ],
  "numDeployments": 3,
  "solcInputHash": "5d19bd08720f10bf17a5c8fdc397addd",
  "bytecode": "0x60c060405234801561001057600080fd5b50604051610ca6380380610ca68339818101604052604081101561003357600080fd5b50805160209091015160006100466100af565b600080546001600160a01b0319166001600160a01b0383169081178255604051929350917f8be0079c531659141344cd1fd0a4f28419497f9722a3daafe3b4186f6b6457e0908290a3506001805560809190915260601b6001600160601b03191660a0526100b3565b3390565b60805160a05160601c610bbe6100e860003980610368528061052c52806106a652508061056e52806107155250610bbe6000f3fe608060405234801561001057600080fd5b50600436106100885760003560e01c8063cc3c0f061161005b578063cc3c0f061461016c578063ebf0c7171461019d578063f2fde38b146101b7578063fc0c546a146101dd57610088565b8063640ee4b51461008d578063715018a6146101145780638da5cb5b1461011c578063ad3b1b4714610140575b600080fd5b610112600480360360608110156100a357600080fd5b6001600160a01b03823516916020810135918101906060810160408201356401000000008111156100d357600080fd5b8201836020820111156100e557600080fd5b8035906020019184602083028401116401000000008311171561010757600080fd5b5090925090506101e5565b005b6101126103de565b61012461049c565b604080516001600160a01b039092168252519081900360200190f35b6101126004803603604081101561015657600080fd5b506001600160a01b0381351690602001356104ab565b6101896004803603602081101561018257600080fd5b5035610557565b604080519115158252519081900360200190f35b6101a561056c565b60408051918252519081900360200190f35b610112600480360360208110156101cd57600080fd5b50356001600160a01b0316610590565b6101246106a4565b6002600154141561023d576040805162461bcd60e51b815260206004820152601f60248201527f5265656e7472616e637947756172643a207265656e7472616e742063616c6c00604482015290519081900360640190fd5b6002600155600061024e85856106c8565b905061028d8184848080602002602001604051908101604052809392919081815260200183836020028082843760009201919091525061070d92505050565b6102de576040805162461bcd60e51b815260206004820181905260248201527f4d65726b6c6544726f703a20496e76616c6964206d65726b6c652070726f6f66604482015290519081900360640190fd5b60008181526002602052604090205460ff1615610342576040805162461bcd60e51b815260206004820152601b60248201527f4d65726b6c6544726f703a20416c726561647920436c61696d65640000000000604482015290519081900360640190fd5b6000818152600260205260409020805460ff1916600117905561038f6001600160a01b037f0000000000000000000000000000000000000000000000000000000000000000168686610741565b604080516001600160a01b03871681526020810186905281517f9493e5bbe4e8e0ac67284469a2d677403d0378a85a59e341d3abc433d0d9a209929181900390910190a1505060018055505050565b6103e6610798565b6001600160a01b03166103f761049c565b6001600160a01b031614610452576040805162461bcd60e51b815260206004820181905260248201527f4f776e61626c653a2063616c6c6572206973206e6f7420746865206f776e6572604482015290519081900360640190fd5b600080546040516001600160a01b03909116907f8be0079c531659141344cd1fd0a4f28419497f9722a3daafe3b4186f6b6457e0908390a3600080546001600160a01b0319169055565b6000546001600160a01b031690565b6104b3610798565b6001600160a01b03166104c461049c565b6001600160a01b03161461051f576040805162461bcd60e51b815260206004820181905260248201527f4f776e61626c653a2063616c6c6572206973206e6f7420746865206f776e6572604482015290519081900360640190fd5b6105536001600160a01b037f0000000000000000000000000000000000000000000000000000000000000000168383610741565b5050565b60026020526000908152604090205460ff1681565b7f000000000000000000000000000000000000000000000000000000000000000081565b610598610798565b6001600160a01b03166105a961049c565b6001600160a01b031614610604576040805162461bcd60e51b815260206004820181905260248201527f4f776e61626c653a2063616c6c6572206973206e6f7420746865206f776e6572604482015290519081900360640190fd5b6001600160a01b0381166106495760405162461bcd60e51b8152600401808060200182810382526026815260200180610b136026913960400191505060405180910390fd5b600080546040516001600160a01b03808516939216917f8be0079c531659141344cd1fd0a4f28419497f9722a3daafe3b4186f6b6457e091a3600080546001600160a01b0319166001600160a01b0392909216919091179055565b7f000000000000000000000000000000000000000000000000000000000000000081565b6000828260405160200180836001600160a01b031660601b81526014018281526020019250505060405160208183030381529060405280519060200120905092915050565b600061073a827f00000000000000000000000000000000000000000000000000000000000000008561079c565b9392505050565b604080516001600160a01b038416602482015260448082018490528251808303909101815260649091019091526020810180516001600160e01b031663a9059cbb60e01b179052610793908490610845565b505050565b3390565b600081815b855181101561083a5760008682815181106107b857fe5b602002602001015190508083116107ff5782816040516020018083815260200182815260200192505050604051602081830303815290604052805190602001209250610831565b808360405160200180838152602001828152602001925050506040516020818303038152906040528051906020012092505b506001016107a1565b509092149392505050565b600061089a826040518060400160405280602081526020017f5361666545524332303a206c6f772d6c6576656c2063616c6c206661696c6564815250856001600160a01b03166108f69092919063ffffffff16565b805190915015610793578080602001905160208110156108b957600080fd5b50516107935760405162461bcd60e51b815260040180806020018281038252602a815260200180610b5f602a913960400191505060405180910390fd5b6060610905848460008561090d565b949350505050565b60608247101561094e5760405162461bcd60e51b8152600401808060200182810382526026815260200180610b396026913960400191505060405180910390fd5b61095785610a68565b6109a8576040805162461bcd60e51b815260206004820152601d60248201527f416464726573733a2063616c6c20746f206e6f6e2d636f6e7472616374000000604482015290519081900360640190fd5b600080866001600160a01b031685876040518082805190602001908083835b602083106109e65780518252601f1990920191602091820191016109c7565b6001836020036101000a03801982511681845116808217855250505050505090500191505060006040518083038185875af1925050503d8060008114610a48576040519150601f19603f3d011682016040523d82523d6000602084013e610a4d565b606091505b5091509150610a5d828286610a6e565b979650505050505050565b3b151590565b60608315610a7d57508161073a565b825115610a8d5782518084602001fd5b8160405162461bcd60e51b81526004018080602001828103825283818151815260200191508051906020019080838360005b83811015610ad7578181015183820152602001610abf565b50505050905090810190601f168015610b045780820380516001836020036101000a031916815260200191505b509250505060405180910390fdfe4f776e61626c653a206e6577206f776e657220697320746865207a65726f2061646472657373416464726573733a20696e73756666696369656e742062616c616e636520666f722063616c6c5361666545524332303a204552433230206f7065726174696f6e20646964206e6f742073756363656564a26469706673582212204bc85c939ba98ad5202a9bb1910cbbd87ee6bcd79a9b729636ac64cbeff05ad664736f6c63430007060033",
  "devdoc": {
    "kind": "dev",
    "methods": {
      "owner()": {
        "details": "Returns the address of the current owner."
      },
      "renounceOwnership()": {
        "details": "Leaves the contract without owner. It will not be possible to call `onlyOwner` functions anymore. Can only be called by the current owner. NOTE: Renouncing ownership will leave the contract without an owner, thereby removing any functionality that is only available to the owner."
      },
      "transferOwnership(address)": {
        "details": "Transfers ownership of the contract to a new account (`newOwner`). Can only be called by the current owner."
      }
    },
    "version": 1
  },
  "userdoc": {
    "kind": "user",
    "methods": {},
    "version": 1
  },
  "storageLayout": {
    "storage": [
      {
        "astId": 197,
        "contract": "contracts/MerkleDrop.sol:MerkleDrop",
        "label": "_owner",
        "offset": 0,
        "slot": "0",
        "type": "t_address"
      },
      {
        "astId": 2341,
        "contract": "contracts/MerkleDrop.sol:MerkleDrop",
        "label": "_status",
        "offset": 0,
        "slot": "1",
        "type": "t_uint256"
      },
      {
        "astId": 6798,
        "contract": "contracts/MerkleDrop.sol:MerkleDrop",
        "label": "claimed",
        "offset": 0,
        "slot": "2",
        "type": "t_mapping(t_bytes32,t_bool)"
      }
    ],
    "types": {
      "t_address": {
        "encoding": "inplace",
        "label": "address",
        "numberOfBytes": "20"
      },
      "t_bool": {
        "encoding": "inplace",
        "label": "bool",
        "numberOfBytes": "1"
      },
      "t_bytes32": {
        "encoding": "inplace",
        "label": "bytes32",
        "numberOfBytes": "32"
      },
      "t_mapping(t_bytes32,t_bool)": {
        "encoding": "mapping",
        "key": "t_bytes32",
        "label": "mapping(bytes32 => bool)",
        "numberOfBytes": "32",
        "value": "t_bool"
      },
      "t_uint256": {
        "encoding": "inplace",
        "label": "uint256",
        "numberOfBytes": "32"
      }
    }
  }
}