{
  "address": "0xe409af258A87545b754B7f1BE423f0f65f3355D6",
  "abi": [
    {
      "inputs": [
        {
          "components": [
            {
              "internalType": "uint16",
              "name": "dstChainId",
              "type": "uint16"
            },
            {
              "internalType": "uint256",
              "name": "dstPoolId",
              "type": "uint256"
            },
            {
              "internalType": "uint256",
              "name": "balance",
              "type": "uint256"
            },
            {
              "internalType": "uint256",
              "name": "lkb",
              "type": "uint256"
            },
            {
              "internalType": "uint256",
              "name": "credits",
              "type": "uint256"
            },
            {
              "internalType": "uint256",
              "name": "idealBalance",
              "type": "uint256"
            },
            {
              "internalType": "bool",
              "name": "needPrecrime",
              "type": "bool"
            }
          ],
          "internalType": "struct PoolView.ChainPathState",
          "name": "_cp",
          "type": "tuple"
        },
        {
          "components": [
            {
              "internalType": "uint256",
              "name": "credits",
              "type": "uint256"
            },
            {
              "internalType": "uint256",
              "name": "idealBalance",
              "type": "uint256"
            }
          ],
          "internalType": "struct Pool.CreditObj",
          "name": "_c",
          "type": "tuple"
        }
      ],
      "name": "creditChainPath",
      "outputs": [
        {
          "components": [
            {
              "internalType": "uint16",
              "name": "dstChainId",
              "type": "uint16"
            },
            {
              "internalType": "uint256",
              "name": "dstPoolId",
              "type": "uint256"
            },
            {
              "internalType": "uint256",
              "name": "balance",
              "type": "uint256"
            },
            {
              "internalType": "uint256",
              "name": "lkb",
              "type": "uint256"
            },
            {
              "internalType": "uint256",
              "name": "credits",
              "type": "uint256"
            },
            {
              "internalType": "uint256",
              "name": "idealBalance",
              "type": "uint256"
            },
            {
              "internalType": "bool",
              "name": "needPrecrime",
              "type": "bool"
            }
          ],
          "internalType": "struct PoolView.ChainPathState",
          "name": "",
          "type": "tuple"
        }
      ],
      "stateMutability": "pure",
      "type": "function"
    },
    {
      "inputs": [
        {
          "internalType": "contract Pool",
          "name": "_pool",
          "type": "address"
        }
      ],
      "name": "getPoolState",
      "outputs": [
        {
          "components": [
            {
              "internalType": "uint256",
              "name": "poolId",
              "type": "uint256"
            },
            {
              "components": [
                {
                  "internalType": "uint16",
                  "name": "dstChainId",
                  "type": "uint16"
                },
                {
                  "internalType": "uint256",
                  "name": "dstPoolId",
                  "type": "uint256"
                },
                {
                  "internalType": "uint256",
                  "name": "balance",
                  "type": "uint256"
                },
                {
                  "internalType": "uint256",
                  "name": "lkb",
                  "type": "uint256"
                },
                {
                  "internalType": "uint256",
                  "name": "credits",
                  "type": "uint256"
                },
                {
                  "internalType": "uint256",
                  "name": "idealBalance",
                  "type": "uint256"
                },
                {
                  "internalType": "bool",
                  "name": "needPrecrime",
                  "type": "bool"
                }
              ],
              "internalType": "struct PoolView.ChainPathState[]",
              "name": "chainPaths",
              "type": "tuple[]"
            },
            {
              "components": [
                {
                  "internalType": "uint256",
                  "name": "totalLiquidity",
                  "type": "uint256"
                },
                {
                  "internalType": "uint256",
                  "name": "protocolFeeBalance",
                  "type": "uint256"
                },
                {
                  "internalType": "uint256",
                  "name": "mintFeeBalance",
                  "type": "uint256"
                },
                {
                  "internalType": "uint256",
                  "name": "eqFeePool",
                  "type": "uint256"
                },
                {
                  "internalType": "uint256",
                  "name": "deltaCredit",
                  "type": "uint256"
                },
                {
                  "internalType": "uint256",
                  "name": "tokenBalance",
                  "type": "uint256"
                }
              ],
              "internalType": "struct PoolView.PoolBalance",
              "name": "balance",
              "type": "tuple"
            }
          ],
          "internalType": "struct PoolView.PoolState",
          "name": "",
          "type": "tuple"
        }
      ],
      "stateMutability": "view",
      "type": "function"
    },
    {
      "inputs": [
        {
          "components": [
            {
              "internalType": "uint256",
              "name": "totalLiquidity",
              "type": "uint256"
            },
            {
              "internalType": "uint256",
              "name": "protocolFeeBalance",
              "type": "uint256"
            },
            {
              "internalType": "uint256",
              "name": "mintFeeBalance",
              "type": "uint256"
            },
            {
              "internalType": "uint256",
              "name": "eqFeePool",
              "type": "uint256"
            },
            {
              "internalType": "uint256",
              "name": "deltaCredit",
              "type": "uint256"
            },
            {
              "internalType": "uint256",
              "name": "tokenBalance",
              "type": "uint256"
            }
          ],
          "internalType": "struct PoolView.PoolBalance",
          "name": "_pb",
          "type": "tuple"
        },
        {
          "components": [
            {
              "internalType": "uint16",
              "name": "dstChainId",
              "type": "uint16"
            },
            {
              "internalType": "uint256",
              "name": "dstPoolId",
              "type": "uint256"
            },
            {
              "internalType": "uint256",
              "name": "balance",
              "type": "uint256"
            },
            {
              "internalType": "uint256",
              "name": "lkb",
              "type": "uint256"
            },
            {
              "internalType": "uint256",
              "name": "credits",
              "type": "uint256"
            },
            {
              "internalType": "uint256",
              "name": "idealBalance",
              "type": "uint256"
            },
            {
              "internalType": "bool",
              "name": "needPrecrime",
              "type": "bool"
            }
          ],
          "internalType": "struct PoolView.ChainPathState",
          "name": "_cp",
          "type": "tuple"
        },
        {
          "internalType": "uint256",
          "name": "_amountSD",
          "type": "uint256"
        },
        {
          "internalType": "uint256",
          "name": "_amountToMintSD",
          "type": "uint256"
        }
      ],
      "name": "redeemLocalCallback",
      "outputs": [
        {
          "components": [
            {
              "internalType": "uint256",
              "name": "totalLiquidity",
              "type": "uint256"
            },
            {
              "internalType": "uint256",
              "name": "protocolFeeBalance",
              "type": "uint256"
            },
            {
              "internalType": "uint256",
              "name": "mintFeeBalance",
              "type": "uint256"
            },
            {
              "internalType": "uint256",
              "name": "eqFeePool",
              "type": "uint256"
            },
            {
              "internalType": "uint256",
              "name": "deltaCredit",
              "type": "uint256"
            },
            {
              "internalType": "uint256",
              "name": "tokenBalance",
              "type": "uint256"
            }
          ],
          "internalType": "struct PoolView.PoolBalance",
          "name": "",
          "type": "tuple"
        },
        {
          "components": [
            {
              "internalType": "uint16",
              "name": "dstChainId",
              "type": "uint16"
            },
            {
              "internalType": "uint256",
              "name": "dstPoolId",
              "type": "uint256"
            },
            {
              "internalType": "uint256",
              "name": "balance",
              "type": "uint256"
            },
            {
              "internalType": "uint256",
              "name": "lkb",
              "type": "uint256"
            },
            {
              "internalType": "uint256",
              "name": "credits",
              "type": "uint256"
            },
            {
              "internalType": "uint256",
              "name": "idealBalance",
              "type": "uint256"
            },
            {
              "internalType": "bool",
              "name": "needPrecrime",
              "type": "bool"
            }
          ],
          "internalType": "struct PoolView.ChainPathState",
          "name": "",
          "type": "tuple"
        }
      ],
      "stateMutability": "pure",
      "type": "function"
    },
    {
      "inputs": [
        {
          "components": [
            {
              "internalType": "uint16",
              "name": "dstChainId",
              "type": "uint16"
            },
            {
              "internalType": "uint256",
              "name": "dstPoolId",
              "type": "uint256"
            },
            {
              "internalType": "uint256",
              "name": "balance",
              "type": "uint256"
            },
            {
              "internalType": "uint256",
              "name": "lkb",
              "type": "uint256"
            },
            {
              "internalType": "uint256",
              "name": "credits",
              "type": "uint256"
            },
            {
              "internalType": "uint256",
              "name": "idealBalance",
              "type": "uint256"
            },
            {
              "internalType": "bool",
              "name": "needPrecrime",
              "type": "bool"
            }
          ],
          "internalType": "struct PoolView.ChainPathState",
          "name": "_cp",
          "type": "tuple"
        },
        {
          "internalType": "uint256",
          "name": "_amountSD",
          "type": "uint256"
        }
      ],
      "name": "redeemLocalCheckOnRemote",
      "outputs": [
        {
          "components": [
            {
              "internalType": "uint16",
              "name": "dstChainId",
              "type": "uint16"
            },
            {
              "internalType": "uint256",
              "name": "dstPoolId",
              "type": "uint256"
            },
            {
              "internalType": "uint256",
              "name": "balance",
              "type": "uint256"
            },
            {
              "internalType": "uint256",
              "name": "lkb",
              "type": "uint256"
            },
            {
              "internalType": "uint256",
              "name": "credits",
              "type": "uint256"
            },
            {
              "internalType": "uint256",
              "name": "idealBalance",
              "type": "uint256"
            },
            {
              "internalType": "bool",
              "name": "needPrecrime",
              "type": "bool"
            }
          ],
          "internalType": "struct PoolView.ChainPathState",
          "name": "",
          "type": "tuple"
        }
      ],
      "stateMutability": "pure",
      "type": "function"
    },
    {
      "inputs": [
        {
          "components": [
            {
              "internalType": "uint256",
              "name": "totalLiquidity",
              "type": "uint256"
            },
            {
              "internalType": "uint256",
              "name": "protocolFeeBalance",
              "type": "uint256"
            },
            {
              "internalType": "uint256",
              "name": "mintFeeBalance",
              "type": "uint256"
            },
            {
              "internalType": "uint256",
              "name": "eqFeePool",
              "type": "uint256"
            },
            {
              "internalType": "uint256",
              "name": "deltaCredit",
              "type": "uint256"
            },
            {
              "internalType": "uint256",
              "name": "tokenBalance",
              "type": "uint256"
            }
          ],
          "internalType": "struct PoolView.PoolBalance",
          "name": "_pb",
          "type": "tuple"
        },
        {
          "components": [
            {
              "internalType": "uint16",
              "name": "dstChainId",
              "type": "uint16"
            },
            {
              "internalType": "uint256",
              "name": "dstPoolId",
              "type": "uint256"
            },
            {
              "internalType": "uint256",
              "name": "balance",
              "type": "uint256"
            },
            {
              "internalType": "uint256",
              "name": "lkb",
              "type": "uint256"
            },
            {
              "internalType": "uint256",
              "name": "credits",
              "type": "uint256"
            },
            {
              "internalType": "uint256",
              "name": "idealBalance",
              "type": "uint256"
            },
            {
              "internalType": "bool",
              "name": "needPrecrime",
              "type": "bool"
            }
          ],
          "internalType": "struct PoolView.ChainPathState",
          "name": "_cp",
          "type": "tuple"
        },
        {
          "components": [
            {
              "internalType": "uint256",
              "name": "amount",
              "type": "uint256"
            },
            {
              "internalType": "uint256",
              "name": "eqFee",
              "type": "uint256"
            },
            {
              "internalType": "uint256",
              "name": "eqReward",
              "type": "uint256"
            },
            {
              "internalType": "uint256",
              "name": "lpFee",
              "type": "uint256"
            },
            {
              "internalType": "uint256",
              "name": "protocolFee",
              "type": "uint256"
            },
            {
              "internalType": "uint256",
              "name": "lkbRemove",
              "type": "uint256"
            }
          ],
          "internalType": "struct Pool.SwapObj",
          "name": "_s",
          "type": "tuple"
        }
      ],
      "name": "swapRemote",
      "outputs": [
        {
          "components": [
            {
              "internalType": "uint256",
              "name": "totalLiquidity",
              "type": "uint256"
            },
            {
              "internalType": "uint256",
              "name": "protocolFeeBalance",
              "type": "uint256"
            },
            {
              "internalType": "uint256",
              "name": "mintFeeBalance",
              "type": "uint256"
            },
            {
              "internalType": "uint256",
              "name": "eqFeePool",
              "type": "uint256"
            },
            {
              "internalType": "uint256",
              "name": "deltaCredit",
              "type": "uint256"
            },
            {
              "internalType": "uint256",
              "name": "tokenBalance",
              "type": "uint256"
            }
          ],
          "internalType": "struct PoolView.PoolBalance",
          "name": "",
          "type": "tuple"
        },
        {
          "components": [
            {
              "internalType": "uint16",
              "name": "dstChainId",
              "type": "uint16"
            },
            {
              "internalType": "uint256",
              "name": "dstPoolId",
              "type": "uint256"
            },
            {
              "internalType": "uint256",
              "name": "balance",
              "type": "uint256"
            },
            {
              "internalType": "uint256",
              "name": "lkb",
              "type": "uint256"
            },
            {
              "internalType": "uint256",
              "name": "credits",
              "type": "uint256"
            },
            {
              "internalType": "uint256",
              "name": "idealBalance",
              "type": "uint256"
            },
            {
              "internalType": "bool",
              "name": "needPrecrime",
              "type": "bool"
            }
          ],
          "internalType": "struct PoolView.ChainPathState",
          "name": "",
          "type": "tuple"
        }
      ],
      "stateMutability": "pure",
      "type": "function"
    }
  ],
  "transactionHash": "0xf405e3a3e82c8dd4cc9ca294ad834305c69342c98ad7c8cefd65c38e6ef882bf",
  "args": [],
  "numDeployments": 1,
  "solcInputHash": "5a0d1bfc35dfc3636e995d542f7cc3f9",
  "bytecode": "0x608060405234801561001057600080fd5b50610f15806100206000396000f3fe608060405234801561001057600080fd5b50600436106100575760003560e01c806317b597d91461005c5780636ab202d31461008557806372666b1014610098578063ea8683cd146100b9578063ec04205b146100cc575b600080fd5b61006f61006a366004610c95565b6100ec565b60405161007c9190610dfd565b60405180910390f35b61006f610093366004610c29565b610131565b6100ab6100a6366004610d07565b610176565b60405161007c929190610e0b565b6100ab6100c7366004610cc0565b6101d4565b6100df6100da366004610c0d565b610273565b60405161007c9190610e27565b6100f46109d0565b826040015182111561010c5760006040840152610121565b604083015161011b9083610833565b60408401525b50600160c0830152815b92915050565b6101396109d0565b8151604084015161014991610890565b6040840152600160c0840152602082015160a08401511461016f57602082015160a08401525b5090919050565b61017e610a13565b6101866109d0565b821561019b5785516101989084610890565b86525b60608501516101aa9085610833565b6060860152600160c086015260a08601516101c59085610833565b60a08701525093949293505050565b6101dc610a13565b6101e46109d0565b606083015185516101f491610890565b85526020830151606086015161020991610890565b60608601526080830151602086015161022191610890565b602086015260a0830151606085015161023991610833565b6060850152600160c0850152604083015183516102659161025a9190610890565b60a087015190610833565b60a086015250929391925050565b61027b610a49565b6000826001600160a01b031663163ef4906040518163ffffffff1660e01b815260040160206040518083038186803b1580156102b657600080fd5b505afa1580156102ca573d6000803e3d6000fd5b505050506040513d601f19601f820116820180604052508101906102ee9190610d4d565b905060008167ffffffffffffffff8111801561030957600080fd5b5060405190808252806020026020018201604052801561034357816020015b6103306109d0565b8152602001906001900390816103285790505b50905060005b82811015610449576000806000806000808a6001600160a01b031663a138ed6b886040518263ffffffff1660e01b81526004016103869190610ea0565b6101006040518083038186803b15801561039f57600080fd5b505afa1580156103b3573d6000803e3d6000fd5b505050506040513d601f19601f820116820180604052508101906103d79190610b9d565b97509750975097505096509650506040518060e001604052808761ffff1681526020018681526020018581526020018481526020018381526020018281526020016000151581525088888151811061042b57fe5b60200260200101819052505050505050508080600101915050610349565b506000846001600160a01b031663fc0c546a6040518163ffffffff1660e01b815260040160206040518083038186803b15801561048557600080fd5b505afa158015610499573d6000803e3d6000fd5b505050506040513d601f19601f820116820180604052508101906104bd9190610b81565b6001600160a01b03166370a08231866040518263ffffffff1660e01b81526004016104e89190610de9565b60206040518083038186803b15801561050057600080fd5b505afa158015610514573d6000803e3d6000fd5b505050506040513d601f19601f820116820180604052508101906105389190610d4d565b90506040518060600160405280866001600160a01b0316633e0dc34e6040518163ffffffff1660e01b815260040160206040518083038186803b15801561057e57600080fd5b505afa158015610592573d6000803e3d6000fd5b505050506040513d601f19601f820116820180604052508101906105b69190610d4d565b81526020018381526020016040518060c00160405280886001600160a01b03166315770f926040518163ffffffff1660e01b815260040160206040518083038186803b15801561060557600080fd5b505afa158015610619573d6000803e3d6000fd5b505050506040513d601f19601f8201168201806040525081019061063d9190610d4d565b8152602001886001600160a01b0316630a22d68c6040518163ffffffff1660e01b815260040160206040518083038186803b15801561067b57600080fd5b505afa15801561068f573d6000803e3d6000fd5b505050506040513d601f19601f820116820180604052508101906106b39190610d4d565b8152602001886001600160a01b03166365152f2b6040518163ffffffff1660e01b815260040160206040518083038186803b1580156106f157600080fd5b505afa158015610705573d6000803e3d6000fd5b505050506040513d601f19601f820116820180604052508101906107299190610d4d565b8152602001886001600160a01b0316639bb811196040518163ffffffff1660e01b815260040160206040518083038186803b15801561076757600080fd5b505afa15801561077b573d6000803e3d6000fd5b505050506040513d601f19601f8201168201806040525081019061079f9190610d4d565b8152602001886001600160a01b0316631e8e51da6040518163ffffffff1660e01b815260040160206040518083038186803b1580156107dd57600080fd5b505afa1580156107f1573d6000803e3d6000fd5b505050506040513d601f19601f820116820180604052508101906108159190610d4d565b815260200161082489866108f1565b9052905293505050505b919050565b60008282111561088a576040805162461bcd60e51b815260206004820152601e60248201527f536166654d6174683a207375627472616374696f6e206f766572666c6f770000604482015290519081900360640190fd5b50900390565b6000828201838110156108ea576040805162461bcd60e51b815260206004820152601b60248201527f536166654d6174683a206164646974696f6e206f766572666c6f770000000000604482015290519081900360640190fd5b9392505050565b60006108ea836001600160a01b031663feb56b156040518163ffffffff1660e01b815260040160206040518083038186803b15801561092f57600080fd5b505afa158015610943573d6000803e3d6000fd5b505050506040513d601f19601f820116820180604052508101906109679190610d4d565b839060008082116109bf576040805162461bcd60e51b815260206004820152601a60248201527f536166654d6174683a206469766973696f6e206279207a65726f000000000000604482015290519081900360640190fd5b8183816109c857fe5b049392505050565b6040518060e00160405280600061ffff16815260200160008152602001600081526020016000815260200160008152602001600081526020016000151581525090565b6040518060c001604052806000815260200160008152602001600081526020016000815260200160008152602001600081525090565b60405180606001604052806000815260200160608152602001610a6a610a13565b905290565b803561082e81610ec1565b600060e08284031215610a8b578081fd5b60405160e0810181811067ffffffffffffffff82111715610aa857fe5b604052905080610ab783610b76565b81526020830135602082015260408301356040820152606083013560608201526080830135608082015260a083013560a0820152610af760c08401610a6f565b60c08201525092915050565b600060c08284031215610b14578081fd5b60405160c0810181811067ffffffffffffffff82111715610b3157fe5b8060405250809150823581526020830135602082015260408301356040820152606083013560608201526080830135608082015260a083013560a08201525092915050565b803561082e81610ecf565b600060208284031215610b92578081fd5b81516108ea81610ea9565b600080600080600080600080610100898b031215610bb9578384fd5b8851610bc481610ec1565b60208a0151909850610bd581610ecf565b60408a015160608b015160808c015160a08d015160c08e015160e0909e01519c9f949e50929c919b909a509198509650945092505050565b600060208284031215610c1e578081fd5b81356108ea81610ea9565b600080828403610120811215610c3d578283fd5b610c478585610a7a565b9250604060df1982011215610c5a578182fd5b506040516040810181811067ffffffffffffffff82111715610c7857fe5b60405260e084013581526101009093013560208401525092909150565b6000806101008385031215610ca8578182fd5b610cb28484610a7a565b9460e0939093013593505050565b60008060006102608486031215610cd5578283fd5b610cdf8585610b03565b9250610cee8560c08601610a7a565b9150610cfe856101a08601610b03565b90509250925092565b6000806000806101e08587031215610d1d578384fd5b610d278686610b03565b9350610d368660c08701610a7a565b93969395505050506101a0820135916101c0013590565b600060208284031215610d5e578081fd5b5051919050565b61ffff81511682526020810151602083015260408101516040830152606081015160608301526080810151608083015260a081015160a083015260c0810151151560c08301525050565b805182526020810151602083015260408101516040830152606081015160608301526080810151608083015260a081015160a08301525050565b6001600160a01b0391909116815260200190565b60e0810161012b8284610d65565b6101a08101610e1a8285610daf565b6108ea60c0830184610d65565b6020808252825182820152828101516101006040840152805161012084018190526000929182019083906101408601905b80831015610e8157610e6b828551610d65565b60e0820191508484019350600183019250610e58565b5060408701519350610e966060870185610daf565b9695505050505050565b90815260200190565b6001600160a01b0381168114610ebe57600080fd5b50565b8015158114610ebe57600080fd5b61ffff81168114610ebe57600080fdfea26469706673582212206c640d5cff2ad540eebfc00c5d64a15a3e99d12f12d1ed07fb1b70bd717d0a8d64736f6c63430007060033",
  "devdoc": {
    "kind": "dev",
    "methods": {},
    "version": 1
  },
  "userdoc": {
    "kind": "user",
    "methods": {},
    "version": 1
  },
  "storageLayout": {
    "storage": [],
    "types": null
  }
}