{
  "_format": "hh-sol-artifact-1",
  "contractName": "OFTPrecrime",
  "sourceName": "contracts/standards/oft/OFTPrecrime.sol",
  "abi": [
    {
      "inputs": [
        {
          "internalType": "address",
          "name": "_endpoint",
          "type": "address"
        },
        {
          "internalType": "address",
          "name": "_oft",
          "type": "address"
        }
      ],
      "stateMutability": "nonpayable",
      "type": "constructor"
    },
    {
      "inputs": [
        {
          "internalType": "uint16",
          "name": "code",
          "type": "uint16"
        },
        {
          "internalType": "bytes",
          "name": "result",
          "type": "bytes"
        }
      ],
      "name": "LzReceiveRevert",
      "type": "error"
    },
    {
      "inputs": [
        {
          "internalType": "uint16",
          "name": "code",
          "type": "uint16"
        },
        {
          "internalType": "bytes",
          "name": "message",
          "type": "bytes"
        }
      ],
      "name": "SimulateRevert",
      "type": "error"
    },
    {
      "inputs": [],
      "name": "EXPECTED_GLOBAL_SUPPLY",
      "outputs": [
        {
          "internalType": "uint256",
          "name": "",
          "type": "uint256"
        }
      ],
      "stateMutability": "view",
      "type": "function"
    },
    {
      "inputs": [
        {
          "components": [
            {
              "components": [
                {
                  "internalType": "uint32",
                  "name": "srcEid",
                  "type": "uint32"
                },
                {
                  "internalType": "bytes32",
                  "name": "sender",
                  "type": "bytes32"
                },
                {
                  "internalType": "uint64",
                  "name": "nonce",
                  "type": "uint64"
                }
              ],
              "internalType": "struct IMessageOrigin.MessageOrigin",
              "name": "origin",
              "type": "tuple"
            },
            {
              "internalType": "bytes32",
              "name": "guid",
              "type": "bytes32"
            },
            {
              "internalType": "bytes",
              "name": "message",
              "type": "bytes"
            },
            {
              "internalType": "bytes",
              "name": "callParams",
              "type": "bytes"
            }
          ],
          "internalType": "struct IPreCrime.Packet[]",
          "name": "_packets",
          "type": "tuple[]"
        }
      ],
      "name": "_simulateAndRevert",
      "outputs": [],
      "stateMutability": "payable",
      "type": "function"
    },
    {
      "inputs": [
        {
          "components": [
            {
              "components": [
                {
                  "internalType": "uint32",
                  "name": "srcEid",
                  "type": "uint32"
                },
                {
                  "internalType": "bytes32",
                  "name": "sender",
                  "type": "bytes32"
                },
                {
                  "internalType": "uint64",
                  "name": "nonce",
                  "type": "uint64"
                }
              ],
              "internalType": "struct IMessageOrigin.MessageOrigin",
              "name": "origin",
              "type": "tuple"
            },
            {
              "internalType": "bytes32",
              "name": "guid",
              "type": "bytes32"
            },
            {
              "internalType": "bytes",
              "name": "message",
              "type": "bytes"
            },
            {
              "internalType": "bytes",
              "name": "callParams",
              "type": "bytes"
            }
          ],
          "internalType": "struct IPreCrime.Packet[]",
          "name": "_packets",
          "type": "tuple[]"
        }
      ],
      "name": "getPrecrimeConfig",
      "outputs": [
        {
          "internalType": "bytes",
          "name": "",
          "type": "bytes"
        }
      ],
      "stateMutability": "view",
      "type": "function"
    },
    {
      "inputs": [],
      "name": "oft",
      "outputs": [
        {
          "internalType": "address",
          "name": "",
          "type": "address"
        }
      ],
      "stateMutability": "view",
      "type": "function"
    },
    {
      "inputs": [],
      "name": "pAdmin",
      "outputs": [
        {
          "internalType": "address",
          "name": "",
          "type": "address"
        }
      ],
      "stateMutability": "view",
      "type": "function"
    },
    {
      "inputs": [],
      "name": "pMaxBatchSize",
      "outputs": [
        {
          "internalType": "uint64",
          "name": "",
          "type": "uint64"
        }
      ],
      "stateMutability": "view",
      "type": "function"
    },
    {
      "inputs": [
        {
          "components": [
            {
              "components": [
                {
                  "internalType": "uint32",
                  "name": "srcEid",
                  "type": "uint32"
                },
                {
                  "internalType": "bytes32",
                  "name": "sender",
                  "type": "bytes32"
                },
                {
                  "internalType": "uint64",
                  "name": "nonce",
                  "type": "uint64"
                }
              ],
              "internalType": "struct IMessageOrigin.MessageOrigin",
              "name": "origin",
              "type": "tuple"
            },
            {
              "internalType": "bytes32",
              "name": "guid",
              "type": "bytes32"
            },
            {
              "internalType": "bytes",
              "name": "message",
              "type": "bytes"
            },
            {
              "internalType": "bytes",
              "name": "callParams",
              "type": "bytes"
            }
          ],
          "internalType": "struct IPreCrime.Packet[]",
          "name": "_packets",
          "type": "tuple[]"
        },
        {
          "internalType": "bytes[]",
          "name": "_simulation",
          "type": "bytes[]"
        }
      ],
      "name": "precrime",
      "outputs": [
        {
          "internalType": "uint16",
          "name": "code",
          "type": "uint16"
        },
        {
          "internalType": "bytes",
          "name": "reason",
          "type": "bytes"
        }
      ],
      "stateMutability": "view",
      "type": "function"
    },
    {
      "inputs": [
        {
          "internalType": "uint32",
          "name": "eid",
          "type": "uint32"
        }
      ],
      "name": "precrimeEidToPeer",
      "outputs": [
        {
          "internalType": "bytes32",
          "name": "peer",
          "type": "bytes32"
        }
      ],
      "stateMutability": "view",
      "type": "function"
    },
    {
      "inputs": [
        {
          "internalType": "uint256",
          "name": "",
          "type": "uint256"
        }
      ],
      "name": "precrimeEids",
      "outputs": [
        {
          "internalType": "uint32",
          "name": "",
          "type": "uint32"
        }
      ],
      "stateMutability": "view",
      "type": "function"
    },
    {
      "inputs": [
        {
          "internalType": "uint256",
          "name": "",
          "type": "uint256"
        }
      ],
      "name": "precrimePeers",
      "outputs": [
        {
          "internalType": "bytes32",
          "name": "",
          "type": "bytes32"
        }
      ],
      "stateMutability": "view",
      "type": "function"
    },
    {
      "inputs": [],
      "name": "precrimeVersion",
      "outputs": [
        {
          "internalType": "uint16",
          "name": "",
          "type": "uint16"
        }
      ],
      "stateMutability": "pure",
      "type": "function"
    },
    {
      "inputs": [
        {
          "internalType": "uint256",
          "name": "_globalSupply",
          "type": "uint256"
        }
      ],
      "name": "setGlobalSupply",
      "outputs": [],
      "stateMutability": "nonpayable",
      "type": "function"
    },
    {
      "inputs": [
        {
          "internalType": "address",
          "name": "_admin",
          "type": "address"
        }
      ],
      "name": "setPrecrimeAdmin",
      "outputs": [],
      "stateMutability": "nonpayable",
      "type": "function"
    },
    {
      "inputs": [
        {
          "internalType": "uint64",
          "name": "_maxBatchSize",
          "type": "uint64"
        }
      ],
      "name": "setPrecrimeMaxBatchSize",
      "outputs": [],
      "stateMutability": "nonpayable",
      "type": "function"
    },
    {
      "inputs": [
        {
          "internalType": "uint32[]",
          "name": "_eids",
          "type": "uint32[]"
        },
        {
          "internalType": "bytes32[]",
          "name": "_peers",
          "type": "bytes32[]"
        }
      ],
      "name": "setPrecrimePeers",
      "outputs": [],
      "stateMutability": "nonpayable",
      "type": "function"
    },
    {
      "inputs": [
        {
          "components": [
            {
              "components": [
                {
                  "internalType": "uint32",
                  "name": "srcEid",
                  "type": "uint32"
                },
                {
                  "internalType": "bytes32",
                  "name": "sender",
                  "type": "bytes32"
                },
                {
                  "internalType": "uint64",
                  "name": "nonce",
                  "type": "uint64"
                }
              ],
              "internalType": "struct IMessageOrigin.MessageOrigin",
              "name": "origin",
              "type": "tuple"
            },
            {
              "internalType": "bytes32",
              "name": "guid",
              "type": "bytes32"
            },
            {
              "internalType": "bytes",
              "name": "message",
              "type": "bytes"
            },
            {
              "internalType": "bytes",
              "name": "callParams",
              "type": "bytes"
            }
          ],
          "internalType": "struct IPreCrime.Packet[]",
          "name": "_packets",
          "type": "tuple[]"
        }
      ],
      "name": "simulate",
      "outputs": [
        {
          "internalType": "uint16",
          "name": "code",
          "type": "uint16"
        },
        {
          "internalType": "bytes",
          "name": "data",
          "type": "bytes"
        }
      ],
      "stateMutability": "payable",
      "type": "function"
    },
    {
      "inputs": [
        {
          "components": [
            {
              "components": [
                {
                  "internalType": "uint32",
                  "name": "srcEid",
                  "type": "uint32"
                },
                {
                  "internalType": "bytes32",
                  "name": "sender",
                  "type": "bytes32"
                },
                {
                  "internalType": "uint64",
                  "name": "nonce",
                  "type": "uint64"
                }
              ],
              "internalType": "struct IMessageOrigin.MessageOrigin",
              "name": "origin",
              "type": "tuple"
            },
            {
              "internalType": "bytes32",
              "name": "guid",
              "type": "bytes32"
            },
            {
              "internalType": "bytes",
              "name": "message",
              "type": "bytes"
            },
            {
              "internalType": "bytes",
              "name": "callParams",
              "type": "bytes"
            }
          ],
          "internalType": "struct IPreCrime.Packet[]",
          "name": "",
          "type": "tuple[]"
        }
      ],
      "name": "simulateView",
      "outputs": [
        {
          "internalType": "uint16",
          "name": "",
          "type": "uint16"
        },
        {
          "internalType": "bytes",
          "name": "",
          "type": "bytes"
        }
      ],
      "stateMutability": "pure",
      "type": "function"
    },
    {
      "inputs": [],
      "name": "simulationCallback",
      "outputs": [
        {
          "internalType": "bytes",
          "name": "result",
          "type": "bytes"
        }
      ],
      "stateMutability": "view",
      "type": "function"
    }
  ],
  "bytecode": "0x60c06040523480156200001157600080fd5b5060405162002a9738038062002a97833981016040819052620000349162000114565b8180806001600160a01b03166080816001600160a01b0316815250506080516001600160a01b031663416ecebf6040518163ffffffff1660e01b8152600401602060405180830381865afa15801562000091573d6000803e3d6000fd5b505050506040513d601f19601f82011682018060405250810190620000b791906200014c565b63ffffffff1660a052505060008054336001600160a01b031991821617909155600480549091166001600160a01b0392909216919091179055506200017b565b80516001600160a01b03811681146200010f57600080fd5b919050565b600080604083850312156200012857600080fd5b6200013383620000f7565b91506200014360208401620000f7565b90509250929050565b6000602082840312156200015f57600080fd5b815163ffffffff811681146200017457600080fd5b9392505050565b60805160a0516128ef620001a860003960008181610ba301526110280152600061134901526128ef6000f3fe6080604052600436106101295760003560e01c80637a4359d5116100a5578063d2968d5711610074578063e64246d911610059578063e64246d9146103b5578063e780f254146103cb578063fd4c212e146103eb57600080fd5b8063d2968d5714610366578063e51ac4b01461038857600080fd5b80637a4359d5146102c157806392d99a7f146102e157806399877564146103015780639b5215f61461031457600080fd5b80632c79305d116100fc57806354b3ab69116100e157806354b3ab69146102545780635bf88a00146102815780636ece7d36146102a157600080fd5b80632c79305d146101e657806330515e561461020257600080fd5b806312fb9ea51461012e57806328318b621461016157806328a0b4e11461018f57806329c24628146101b1575b600080fd5b34801561013a57600080fd5b5061014e610149366004611b27565b6103fe565b6040519081526020015b60405180910390f35b34801561016d57600080fd5b5061018161017c366004611b85565b61041f565b604051610158929190611c5f565b34801561019b57600080fd5b506101af6101aa366004611b27565b610599565b005b3480156101bd57600080fd5b506101d16101cc366004611b27565b610624565b60405163ffffffff9091168152602001610158565b3480156101f257600080fd5b5060405160018152602001610158565b34801561020e57600080fd5b5060005461023b9074010000000000000000000000000000000000000000900467ffffffffffffffff1681565b60405167ffffffffffffffff9091168152602001610158565b34801561026057600080fd5b5061014e61026f366004611c9d565b60036020526000908152604090205481565b34801561028d57600080fd5b506101af61029c366004611e18565b61065e565b3480156102ad57600080fd5b506101af6102bc366004611ef1565b610781565b3480156102cd57600080fd5b506101816102dc366004611f0e565b610855565b3480156102ed57600080fd5b506101af6102fc366004611f72565b6108bd565b61018161030f366004611f0e565b610985565b34801561032057600080fd5b506004546103419073ffffffffffffffffffffffffffffffffffffffff1681565b60405173ffffffffffffffffffffffffffffffffffffffff9091168152602001610158565b34801561037257600080fd5b5061037b610bf0565b6040516101589190611f8f565b34801561039457600080fd5b506000546103419073ffffffffffffffffffffffffffffffffffffffff1681565b3480156103c157600080fd5b5061014e60055481565b3480156103d757600080fd5b5061037b6103e6366004611f0e565b610e18565b6101af6103f9366004611f0e565b610e76565b6002818154811061040e57600080fd5b600091825260209091200154905081565b60006060818367ffffffffffffffff81111561043d5761043d611cbf565b60405190808252806020026020018201604052801561047057816020015b606081526020019060019003908161045b5790505b50905060008467ffffffffffffffff81111561048e5761048e611cbf565b6040519080825280602002602001820160405280156104b7578160200160208202803683370190505b50905060005b8581101561055d576000808888848181106104da576104da611fa2565b90506020028101906104ec9190611fd1565b8101906104f991906120cd565b915091508184848151811061051057610510611fa2565b602002602001019063ffffffff16908163ffffffff16815250508085848151811061053d5761053d611fa2565b60200260200101819052505050808061055590612140565b9150506104bd565b50610569888883610f26565b909450925061ffff84161561057f575050610590565b610588826110f0565b909450925050505b94509492505050565b60005473ffffffffffffffffffffffffffffffffffffffff16331461061f576040517f08c379a000000000000000000000000000000000000000000000000000000000815260206004820152600a60248201527f6f6e6c792061646d696e0000000000000000000000000000000000000000000060448201526064015b60405180910390fd5b600555565b6001818154811061063457600080fd5b9060005260206000209060089182820401919006600402915054906101000a900463ffffffff1681565b60005473ffffffffffffffffffffffffffffffffffffffff1633146106df576040517f08c379a000000000000000000000000000000000000000000000000000000000815260206004820152600a60248201527f6f6e6c792061646d696e000000000000000000000000000000000000000000006044820152606401610616565b81516106f2906001906020850190611a28565b508051610706906002906020840190611ad7565b5060005b825181101561077c5781818151811061072557610725611fa2565b60200260200101516003600085848151811061074357610743611fa2565b602002602001015163ffffffff1663ffffffff16815260200190815260200160002081905550808061077490612140565b91505061070a565b505050565b60005473ffffffffffffffffffffffffffffffffffffffff163314610802576040517f08c379a000000000000000000000000000000000000000000000000000000000815260206004820152600a60248201527f6f6e6c792061646d696e000000000000000000000000000000000000000000006044820152606401610616565b6000805467ffffffffffffffff90921674010000000000000000000000000000000000000000027fffffffff0000000000000000ffffffffffffffffffffffffffffffffffffffff909216919091179055565b6040517f08c379a000000000000000000000000000000000000000000000000000000000815260206004820152600f60248201527f6e6f7420696d706c656d656e74656400000000000000000000000000000000006044820152600090606090606401610616565b60005473ffffffffffffffffffffffffffffffffffffffff16331461093e576040517f08c379a000000000000000000000000000000000000000000000000000000000815260206004820152600a60248201527f6f6e6c792061646d696e000000000000000000000000000000000000000000006044820152606401610616565b600080547fffffffffffffffffffffffff00000000000000000000000000000000000000001673ffffffffffffffffffffffffffffffffffffffff92909216919091179055565b600060606109938484611225565b909250905061ffff8216610be9576000803073ffffffffffffffffffffffffffffffffffffffff163463fd4c212e60e01b88886040516024016109d7929190612225565b604080517fffffffffffffffffffffffffffffffffffffffffffffffffffffffffffffffe08184030181529181526020820180517bffffffffffffffffffffffffffffffffffffffffffffffffffffffff167fffffffff00000000000000000000000000000000000000000000000000000000909416939093179092529051610a609190612353565b60006040518083038185875af1925050503d8060008114610a9d576040519150601f19603f3d011682016040523d82523d6000602084013e610aa2565b606091505b5090925090503415610adc5760405133903480156108fc02916000818181858888f19350505050158015610ada573d6000803e3d6000fd5b505b8115610b69576040517f08c379a0000000000000000000000000000000000000000000000000000000008152602060048201526024808201527f73696d756c6174652073686f756c64206e657665722072657475726e2073756360448201527f63657373000000000000000000000000000000000000000000000000000000006064820152608401610616565b610b93817f3ef053020000000000000000000000000000000000000000000000000000000061152e565b909450925061ffff8416610be6577f000000000000000000000000000000000000000000000000000000000000000083604051602001610bd492919061236f565b60405160208183030381529060405292505b50505b9250929050565b60048054604080517ffc0c546a000000000000000000000000000000000000000000000000000000008152905160609360009373ffffffffffffffffffffffffffffffffffffffff169263fc0c546a92818301926020928290030181865afa158015610c60573d6000803e3d6000fd5b505050506040513d601f19601f82011682018060405250810190610c84919061238e565b60045490915073ffffffffffffffffffffffffffffffffffffffff80831691161415600081610d435760048054604080517f18160ddd000000000000000000000000000000000000000000000000000000008152905173ffffffffffffffffffffffffffffffffffffffff909216926318160ddd9282820192602092908290030181865afa158015610d1a573d6000803e3d6000fd5b505050506040513d601f19601f82011682018060405250810190610d3e91906123ab565b610dd9565b600480546040517f70a0823100000000000000000000000000000000000000000000000000000000815273ffffffffffffffffffffffffffffffffffffffff918216928101929092528416906370a0823190602401602060405180830381865afa158015610db5573d6000803e3d6000fd5b505050506040513d601f19601f82011682018060405250810190610dd991906123ab565b60408051808201825282815293151560209485019081528151948501929092529051151583820152805180840382018152606090930190525092915050565b6060600080610e2785856115b2565b915091506001600060149054906101000a900467ffffffffffffffff1683518484604051602001610e5c9594939291906123c4565b604051602081830303815290604052925050505b92915050565b333014610edf576040517f08c379a000000000000000000000000000000000000000000000000000000000815260206004820152601360248201527f5072656372696d653a206f6e6c792073656c66000000000000000000000000006044820152606401610616565b600080610eec8484611694565b9150915081816040517f3ef05302000000000000000000000000000000000000000000000000000000008152600401610616929190611c5f565b600060608315611019576000610f3c86866115b2565b50905060005b8151811015611016576000805b8651811015610fb857838381518110610f6a57610f6a611fa2565b602002602001015163ffffffff16878281518110610f8a57610f8a611fa2565b602002602001015163ffffffff1603610fa65760019150610fb8565b80610fb081612140565b915050610f4f565b5080611003576101926040518060400160405280601e81526020017f6d697373696e6720706565722073696d756c6174696f6e20726573756c740000815250945094505050506110e8565b508061100e81612140565b915050610f42565b50505b6000805b845181101561108d577f000000000000000000000000000000000000000000000000000000000000000063ffffffff1685828151811061105f5761105f611fa2565b602002602001015163ffffffff160361107b576001915061108d565b8061108581612140565b91505061101d565b50806110d357505060408051808201909152601f81527f6d697373696e67206c6f63616c2073696d756c6174696f6e20726573756c7400602082015261019291506110e8565b50506040805160208101909152600080825291505b935093915050565b600554600090606090829081805b86518110156111a057600087828151811061111b5761111b611fa2565b60200260200101518060200190518101906111369190612488565b905080602001511561117e57821561117157600160405180606001604052806027815260200161283260279139965096505050505050915091565b805193506001925061118d565b805161118a90866124e3565b94505b508061119881612140565b9150506110fe565b508080156111ad57508183115b156111d95760016040518060600160405280603081526020016128596030913994509450505050915091565b8183146112075760016040518060600160405280603181526020016128896031913994509450505050915091565b60006040518060200160405280600081525094509450505050915091565b6000805460609074010000000000000000000000000000000000000000900467ffffffffffffffff168311156112af57600054610190906112879074010000000000000000000000000000000000000000900467ffffffffffffffff16611888565b60405160200161129791906124f6565b60405160208183030381529060405291509150610be9565b82156115145760008080805b8681101561150f5760008888838181106112d7576112d7611fa2565b90506020028101906112e9919061253b565b6112f29061256f565b80515190915063ffffffff868116911614158061131457508051602001518414155b15611495578051805160208201516040909201519096509094509250600073ffffffffffffffffffffffffffffffffffffffff7f00000000000000000000000000000000000000000000000000000000000000001663a0dd43fc61138d60045473ffffffffffffffffffffffffffffffffffffffff1690565b6040517fffffffff0000000000000000000000000000000000000000000000000000000060e084901b16815273ffffffffffffffffffffffffffffffffffffffff909116600482015263ffffffff8916602482015260448101889052606401602060405180830381865afa158015611409573d6000803e3d6000fd5b505050506040513d601f19601f8201168201806040525081019061142d9190612631565b61143890600161264e565b90508067ffffffffffffffff168467ffffffffffffffff161461148f5761019161146184611888565b6040516020016114719190612676565b60405160208183030381529060405297509750505050505050610be9565b506114fc565b61149e836126e1565b92508267ffffffffffffffff1681600001516040015167ffffffffffffffff16146114fc576101916114cf83611888565b6040516020016114df9190612708565b604051602081830303815290604052965096505050505050610be9565b508061150781612140565b9150506112bb565b505050505b505060408051602081019091526000808252909250929050565b600060607fffffffff00000000000000000000000000000000000000000000000000000000831661155e8561274d565b7fffffffff00000000000000000000000000000000000000000000000000000000161461158d57835160208501fd5b600484019350838060200190518101906115a7919061279d565b915091509250929050565b606080600160028180548060200260200160405190810160405280929190818152602001828054801561163057602002820191906000526020600020906000905b82829054906101000a900463ffffffff1663ffffffff16815260200190600401906020826003010492830192600103820291508084116115f35790505b505050505091508080548060200260200160405190810160405280929190818152602001828054801561168257602002820191906000526020600020905b81548152602001906001019080831161166e575b50505050509050915091509250929050565b6004546040516000916060918391829173ffffffffffffffffffffffffffffffffffffffff9091169034907ff5c6ba5a00000000000000000000000000000000000000000000000000000000906116f1908a908a90602401612225565b604080517fffffffffffffffffffffffffffffffffffffffffffffffffffffffffffffffe08184030181529181526020820180517bffffffffffffffffffffffffffffffffffffffffffffffffffffffff167fffffffff0000000000000000000000000000000000000000000000000000000090941693909317909252905161177a9190612353565b60006040518083038185875af1925050503d80600081146117b7576040519150601f19603f3d011682016040523d82523d6000602084013e6117bc565b606091505b5091509150811561184f576040517f08c379a000000000000000000000000000000000000000000000000000000000815260206004820152603b60248201527f4f46545072656372696d653a2073696d756c6174696f6e43616c6c6261636b2060448201527f73686f756c642062652063616c6c6564207669612072657665727400000000006064820152608401610616565b611879817f0a78da8f0000000000000000000000000000000000000000000000000000000061152e565b60009890975095505050505050565b6060600061189583611946565b600101905060008167ffffffffffffffff8111156118b5576118b5611cbf565b6040519080825280601f01601f1916602001820160405280156118df576020820181803683370190505b5090508181016020015b7fffffffffffffffffffffffffffffffffffffffffffffffffffffffffffffffff017f3031323334353637383961626364656600000000000000000000000000000000600a86061a8153600a85049450846118e957509392505050565b6000807a184f03e93ff9f4daa797ed6e38ed64bf6a1f010000000000000000831061198f577a184f03e93ff9f4daa797ed6e38ed64bf6a1f010000000000000000830492506040015b6d04ee2d6d415b85acef810000000083106119bb576d04ee2d6d415b85acef8100000000830492506020015b662386f26fc1000083106119d957662386f26fc10000830492506010015b6305f5e10083106119f1576305f5e100830492506008015b6127108310611a0557612710830492506004015b60648310611a17576064830492506002015b600a8310610e705760010192915050565b82805482825590600052602060002090600701600890048101928215611ac75791602002820160005b83821115611a9557835183826101000a81548163ffffffff021916908363ffffffff1602179055509260200192600401602081600301049283019260010302611a51565b8015611ac55782816101000a81549063ffffffff0219169055600401602081600301049283019260010302611a95565b505b50611ad3929150611b12565b5090565b828054828255906000526020600020908101928215611ac7579160200282015b82811115611ac7578251825591602001919060010190611af7565b5b80821115611ad35760008155600101611b13565b600060208284031215611b3957600080fd5b5035919050565b60008083601f840112611b5257600080fd5b50813567ffffffffffffffff811115611b6a57600080fd5b6020830191508360208260051b8501011115610be957600080fd5b60008060008060408587031215611b9b57600080fd5b843567ffffffffffffffff80821115611bb357600080fd5b611bbf88838901611b40565b90965094506020870135915080821115611bd857600080fd5b50611be587828801611b40565b95989497509550505050565b60005b83811015611c0c578181015183820152602001611bf4565b50506000910152565b60008151808452611c2d816020860160208601611bf1565b601f017fffffffffffffffffffffffffffffffffffffffffffffffffffffffffffffffe0169290920160200192915050565b61ffff83168152604060208201526000611c7c6040830184611c15565b949350505050565b803563ffffffff81168114611c9857600080fd5b919050565b600060208284031215611caf57600080fd5b611cb882611c84565b9392505050565b7f4e487b7100000000000000000000000000000000000000000000000000000000600052604160045260246000fd5b6040516080810167ffffffffffffffff81118282101715611d1157611d11611cbf565b60405290565b6040516060810167ffffffffffffffff81118282101715611d1157611d11611cbf565b604051601f82017fffffffffffffffffffffffffffffffffffffffffffffffffffffffffffffffe016810167ffffffffffffffff81118282101715611d8157611d81611cbf565b604052919050565b600067ffffffffffffffff821115611da357611da3611cbf565b5060051b60200190565b600082601f830112611dbe57600080fd5b81356020611dd3611dce83611d89565b611d3a565b82815260059290921b84018101918181019086841115611df257600080fd5b8286015b84811015611e0d5780358352918301918301611df6565b509695505050505050565b60008060408385031215611e2b57600080fd5b823567ffffffffffffffff80821115611e4357600080fd5b818501915085601f830112611e5757600080fd5b81356020611e67611dce83611d89565b82815260059290921b84018101918181019089841115611e8657600080fd5b948201945b83861015611eab57611e9c86611c84565b82529482019490820190611e8b565b96505086013592505080821115611ec157600080fd5b50611ece85828601611dad565b9150509250929050565b67ffffffffffffffff81168114611eee57600080fd5b50565b600060208284031215611f0357600080fd5b8135611cb881611ed8565b60008060208385031215611f2157600080fd5b823567ffffffffffffffff811115611f3857600080fd5b611f4485828601611b40565b90969095509350505050565b73ffffffffffffffffffffffffffffffffffffffff81168114611eee57600080fd5b600060208284031215611f8457600080fd5b8135611cb881611f50565b602081526000611cb86020830184611c15565b7f4e487b7100000000000000000000000000000000000000000000000000000000600052603260045260246000fd5b60008083357fffffffffffffffffffffffffffffffffffffffffffffffffffffffffffffffe184360301811261200657600080fd5b83018035915067ffffffffffffffff82111561202157600080fd5b602001915036819003821315610be957600080fd5b600067ffffffffffffffff82111561205057612050611cbf565b50601f017fffffffffffffffffffffffffffffffffffffffffffffffffffffffffffffffe01660200190565b600082601f83011261208d57600080fd5b813561209b611dce82612036565b8181528460208386010111156120b057600080fd5b816020850160208301376000918101602001919091529392505050565b600080604083850312156120e057600080fd5b6120e983611c84565b9150602083013567ffffffffffffffff81111561210557600080fd5b611ece8582860161207c565b7f4e487b7100000000000000000000000000000000000000000000000000000000600052601160045260246000fd5b60007fffffffffffffffffffffffffffffffffffffffffffffffffffffffffffffffff820361217157612171612111565b5060010190565b60008083357fffffffffffffffffffffffffffffffffffffffffffffffffffffffffffffffe18436030181126121ad57600080fd5b830160208101925035905067ffffffffffffffff8111156121cd57600080fd5b803603821315610be957600080fd5b8183528181602085013750600060208284010152600060207fffffffffffffffffffffffffffffffffffffffffffffffffffffffffffffffe0601f840116840101905092915050565b60208082528181018390526000906040808401600586901b850182018785805b89811015612344577fffffffffffffffffffffffffffffffffffffffffffffffffffffffffffffffc089850301855282357fffffffffffffffffffffffffffffffffffffffffffffffffffffffffffffff418c36030181126122a5578283fd5b8b0160c063ffffffff6122b783611c84565b1686528882013589870152878201356122cf81611ed8565b67ffffffffffffffff16868901526060828101359087015260806122f581840184612178565b83838a0152612307848a0182846121dc565b935050505060a061231a81840184612178565b93508783038289015261232e8385836121dc565b988b019897505050938801935050600101612245565b50919998505050505050505050565b60008251612365818460208701611bf1565b9190910192915050565b63ffffffff83168152604060208201526000611c7c6040830184611c15565b6000602082840312156123a057600080fd5b8151611cb881611f50565b6000602082840312156123bd57600080fd5b5051919050565b7fffff0000000000000000000000000000000000000000000000000000000000008660f01b1681527fffffffffffffffff0000000000000000000000000000000000000000000000008560c01b16600282015283600a8201526000602a82018451602080870160005b8381101561244f57815163ffffffff168552938201939082019060010161242d565b5050855181870193925060005b818110156124785784518452938201939282019260010161245c565b50919a9950505050505050505050565b60006040828403121561249a57600080fd5b6040516040810181811067ffffffffffffffff821117156124bd576124bd611cbf565b60405282518152602083015180151581146124d757600080fd5b60208201529392505050565b80820180821115610e7057610e70612111565b7f7061636b6574732073697a6520657863656564206c696d69746564200000000081526000825161252e81601c850160208701611bf1565b91909101601c0192915050565b600082357fffffffffffffffffffffffffffffffffffffffffffffffffffffffffffffff4183360301811261236557600080fd5b600081360360c081121561258257600080fd5b61258a611cee565b606082121561259857600080fd5b6125a0611d17565b91506125ab84611c84565b82526020840135602083015260408401356125c581611ed8565b60408301529081526060830135602082015260808301359067ffffffffffffffff808311156125f357600080fd5b6125ff3684870161207c565b604083015260a085013592508083111561261857600080fd5b506126253683860161207c565b60608201529392505050565b60006020828403121561264357600080fd5b8151611cb881611ed8565b67ffffffffffffffff81811683821601908082111561266f5761266f612111565b5092915050565b7f736b697070656420696e626f756e644e6f6e63652c207061636b657420696e6481527f65783a20000000000000000000000000000000000000000000000000000000006020820152600082516126d4816024850160208701611bf1565b9190910160240192915050565b600067ffffffffffffffff8083168181036126fe576126fe612111565b6001019392505050565b7f756e736f72746564207061636b6574732c207061636b657420696e6465783a20815260008251612740816020850160208701611bf1565b9190910160200192915050565b6000815160208301517fffffffff00000000000000000000000000000000000000000000000000000000808216935060048310156127955780818460040360031b1b83161693505b505050919050565b600080604083850312156127b057600080fd5b825161ffff811681146127c257600080fd5b602084015190925067ffffffffffffffff8111156127df57600080fd5b8301601f810185136127f057600080fd5b80516127fe611dce82612036565b81815286602083850101111561281357600080fd5b612824826020830160208601611bf1565b809350505050925092905056fe4f46545072656372696d653a206d756c7469706c65204f4654416461707465727320666f756e644f46545072656372696d653a20676c6f62616c537570706c79203e206578706563746564476c6f62616c537570706c794f46545072656372696d653a20676c6f62616c537570706c7920213d206578706563746564476c6f62616c537570706c79a2646970667358221220abee2129dcdf447dea6f6a9974f4496be60136962b7c4c0a8c14898c44cb8c3264736f6c63430008130033",
  "linkReferences": {},
  "deployedLinkReferences": {}
}