{
  "_format": "hh-sol-artifact-1",
  "contractName": "ERC1155Mock",
  "sourceName": "contracts/mocks/ERC1155Mock.sol",
  "abi": [
    {
      "inputs": [
        {
          "internalType": "string",
          "name": "uri_",
          "type": "string"
        }
      ],
      "stateMutability": "nonpayable",
      "type": "constructor"
    },
    {
      "anonymous": false,
      "inputs": [
        {
          "indexed": true,
          "internalType": "address",
          "name": "account",
          "type": "address"
        },
        {
          "indexed": true,
          "internalType": "address",
          "name": "operator",
          "type": "address"
        },
        {
          "indexed": false,
          "internalType": "bool",
          "name": "approved",
          "type": "bool"
        }
      ],
      "name": "ApprovalForAll",
      "type": "event"
    },
    {
      "anonymous": false,
      "inputs": [
        {
          "indexed": true,
          "internalType": "address",
          "name": "operator",
          "type": "address"
        },
        {
          "indexed": true,
          "internalType": "address",
          "name": "from",
          "type": "address"
        },
        {
          "indexed": true,
          "internalType": "address",
          "name": "to",
          "type": "address"
        },
        {
          "indexed": false,
          "internalType": "uint256[]",
          "name": "ids",
          "type": "uint256[]"
        },
        {
          "indexed": false,
          "internalType": "uint256[]",
          "name": "values",
          "type": "uint256[]"
        }
      ],
      "name": "TransferBatch",
      "type": "event"
    },
    {
      "anonymous": false,
      "inputs": [
        {
          "indexed": true,
          "internalType": "address",
          "name": "operator",
          "type": "address"
        },
        {
          "indexed": true,
          "internalType": "address",
          "name": "from",
          "type": "address"
        },
        {
          "indexed": true,
          "internalType": "address",
          "name": "to",
          "type": "address"
        },
        {
          "indexed": false,
          "internalType": "uint256",
          "name": "id",
          "type": "uint256"
        },
        {
          "indexed": false,
          "internalType": "uint256",
          "name": "value",
          "type": "uint256"
        }
      ],
      "name": "TransferSingle",
      "type": "event"
    },
    {
      "anonymous": false,
      "inputs": [
        {
          "indexed": false,
          "internalType": "string",
          "name": "value",
          "type": "string"
        },
        {
          "indexed": true,
          "internalType": "uint256",
          "name": "id",
          "type": "uint256"
        }
      ],
      "name": "URI",
      "type": "event"
    },
    {
      "inputs": [
        {
          "internalType": "address",
          "name": "account",
          "type": "address"
        },
        {
          "internalType": "uint256",
          "name": "id",
          "type": "uint256"
        }
      ],
      "name": "balanceOf",
      "outputs": [
        {
          "internalType": "uint256",
          "name": "",
          "type": "uint256"
        }
      ],
      "stateMutability": "view",
      "type": "function"
    },
    {
      "inputs": [
        {
          "internalType": "address[]",
          "name": "accounts",
          "type": "address[]"
        },
        {
          "internalType": "uint256[]",
          "name": "ids",
          "type": "uint256[]"
        }
      ],
      "name": "balanceOfBatch",
      "outputs": [
        {
          "internalType": "uint256[]",
          "name": "",
          "type": "uint256[]"
        }
      ],
      "stateMutability": "view",
      "type": "function"
    },
    {
      "inputs": [
        {
          "internalType": "address",
          "name": "account",
          "type": "address"
        },
        {
          "internalType": "address",
          "name": "operator",
          "type": "address"
        }
      ],
      "name": "isApprovedForAll",
      "outputs": [
        {
          "internalType": "bool",
          "name": "",
          "type": "bool"
        }
      ],
      "stateMutability": "view",
      "type": "function"
    },
    {
      "inputs": [
        {
          "internalType": "address",
          "name": "_to",
          "type": "address"
        },
        {
          "internalType": "uint256",
          "name": "_tokenId",
          "type": "uint256"
        },
        {
          "internalType": "uint256",
          "name": "_amount",
          "type": "uint256"
        }
      ],
      "name": "mint",
      "outputs": [],
      "stateMutability": "nonpayable",
      "type": "function"
    },
    {
      "inputs": [
        {
          "internalType": "address",
          "name": "_to",
          "type": "address"
        },
        {
          "internalType": "uint256[]",
          "name": "_tokenIds",
          "type": "uint256[]"
        },
        {
          "internalType": "uint256[]",
          "name": "_amounts",
          "type": "uint256[]"
        }
      ],
      "name": "mintBatch",
      "outputs": [],
      "stateMutability": "nonpayable",
      "type": "function"
    },
    {
      "inputs": [
        {
          "internalType": "address",
          "name": "from",
          "type": "address"
        },
        {
          "internalType": "address",
          "name": "to",
          "type": "address"
        },
        {
          "internalType": "uint256[]",
          "name": "ids",
          "type": "uint256[]"
        },
        {
          "internalType": "uint256[]",
          "name": "amounts",
          "type": "uint256[]"
        },
        {
          "internalType": "bytes",
          "name": "data",
          "type": "bytes"
        }
      ],
      "name": "safeBatchTransferFrom",
      "outputs": [],
      "stateMutability": "nonpayable",
      "type": "function"
    },
    {
      "inputs": [
        {
          "internalType": "address",
          "name": "from",
          "type": "address"
        },
        {
          "internalType": "address",
          "name": "to",
          "type": "address"
        },
        {
          "internalType": "uint256",
          "name": "id",
          "type": "uint256"
        },
        {
          "internalType": "uint256",
          "name": "amount",
          "type": "uint256"
        },
        {
          "internalType": "bytes",
          "name": "data",
          "type": "bytes"
        }
      ],
      "name": "safeTransferFrom",
      "outputs": [],
      "stateMutability": "nonpayable",
      "type": "function"
    },
    {
      "inputs": [
        {
          "internalType": "address",
          "name": "operator",
          "type": "address"
        },
        {
          "internalType": "bool",
          "name": "approved",
          "type": "bool"
        }
      ],
      "name": "setApprovalForAll",
      "outputs": [],
      "stateMutability": "nonpayable",
      "type": "function"
    },
    {
      "inputs": [
        {
          "internalType": "bytes4",
          "name": "interfaceId",
          "type": "bytes4"
        }
      ],
      "name": "supportsInterface",
      "outputs": [
        {
          "internalType": "bool",
          "name": "",
          "type": "bool"
        }
      ],
      "stateMutability": "view",
      "type": "function"
    },
    {
      "inputs": [
        {
          "internalType": "address",
          "name": "_to",
          "type": "address"
        },
        {
          "internalType": "uint256",
          "name": "_tokenId",
          "type": "uint256"
        },
        {
          "internalType": "uint256",
          "name": "_amount",
          "type": "uint256"
        }
      ],
      "name": "transfer",
      "outputs": [],
      "stateMutability": "nonpayable",
      "type": "function"
    },
    {
      "inputs": [
        {
          "internalType": "uint256",
          "name": "",
          "type": "uint256"
        }
      ],
      "name": "uri",
      "outputs": [
        {
          "internalType": "string",
          "name": "",
          "type": "string"
        }
      ],
      "stateMutability": "view",
      "type": "function"
    }
  ],
  "bytecode": "0x60806040523480156200001157600080fd5b506040516200198b3803806200198b83398101604081905262000034916200011d565b80620000408162000048565b505062000236565b80516200005d90600290602084019062000061565b5050565b8280546200006f90620001f9565b90600052602060002090601f016020900481019282620000935760008555620000de565b82601f10620000ae57805160ff1916838001178555620000de565b82800160010185558215620000de579182015b82811115620000de578251825591602001919060010190620000c1565b50620000ec929150620000f0565b5090565b5b80821115620000ec5760008155600101620000f1565b634e487b7160e01b600052604160045260246000fd5b600060208083850312156200013157600080fd5b82516001600160401b03808211156200014957600080fd5b818501915085601f8301126200015e57600080fd5b81518181111562000173576200017362000107565b604051601f8201601f19908116603f011681019083821181831017156200019e576200019e62000107565b816040528281528886848701011115620001b757600080fd5b600093505b82841015620001db5784840186015181850187015292850192620001bc565b82841115620001ed5760008684830101525b98975050505050505050565b600181811c908216806200020e57607f821691505b602082108114156200023057634e487b7160e01b600052602260045260246000fd5b50919050565b61174580620002466000396000f3fe608060405234801561001057600080fd5b50600436106100a85760003560e01c80632eb2c2d6116100715780632eb2c2d61461013e5780634e1273f414610151578063a22cb46514610171578063d81d0a1514610184578063e985e9c514610197578063f242432a146101d357600080fd5b8062fdd58e146100ad57806301ffc9a7146100d3578063095bcdb6146100f65780630e89341c1461010b578063156e29f61461012b575b600080fd5b6100c06100bb366004610dc9565b6101e6565b6040519081526020015b60405180910390f35b6100e66100e1366004610e0c565b61027c565b60405190151581526020016100ca565b610109610104366004610e30565b6102ce565b005b61011e610119366004610e63565b6102ef565b6040516100ca9190610ec9565b610109610139366004610e30565b610383565b61010961014c366004611028565b61039e565b61016461015f3660046110d2565b6103ea565b6040516100ca91906111d8565b61010961017f3660046111eb565b610514565b610109610192366004611227565b610523565b6100e66101a536600461129b565b6001600160a01b03918216600090815260016020908152604080832093909416825291909152205460ff1690565b6101096101e13660046112ce565b61053e565b60006001600160a01b0383166102565760405162461bcd60e51b815260206004820152602a60248201527f455243313135353a2061646472657373207a65726f206973206e6f742061207660448201526930b634b21037bbb732b960b11b60648201526084015b60405180910390fd5b506000908152602081815260408083206001600160a01b03949094168352929052205490565b60006001600160e01b03198216636cdb3d1360e11b14806102ad57506001600160e01b031982166303a24d0760e21b145b806102c857506301ffc9a760e01b6001600160e01b03198316145b92915050565b6102ea338484846040518060200160405280600081525061057f565b505050565b6060600280546102fe90611333565b80601f016020809104026020016040519081016040528092919081815260200182805461032a90611333565b80156103775780601f1061034c57610100808354040283529160200191610377565b820191906000526020600020905b81548152906001019060200180831161035a57829003601f168201915b50505050509050919050565b6102ea838383604051806020016040528060008152506106a9565b6001600160a01b0385163314806103ba57506103ba85336101a5565b6103d65760405162461bcd60e51b815260040161024d9061136e565b6103e38585858585610783565b5050505050565b6060815183511461044f5760405162461bcd60e51b815260206004820152602960248201527f455243313135353a206163636f756e747320616e6420696473206c656e677468604482015268040dad2e6dac2e8c6d60bb1b606482015260840161024d565b6000835167ffffffffffffffff81111561046b5761046b610edc565b604051908082528060200260200182016040528015610494578160200160208202803683370190505b50905060005b845181101561050c576104df8582815181106104b8576104b86113bc565b60200260200101518583815181106104d2576104d26113bc565b60200260200101516101e6565b8282815181106104f1576104f16113bc565b6020908102919091010152610505816113e8565b905061049a565b509392505050565b61051f33838361091f565b5050565b6102ea83838360405180602001604052806000815250610a00565b6001600160a01b03851633148061055a575061055a85336101a5565b6105765760405162461bcd60e51b815260040161024d9061136e565b6103e385858585855b6001600160a01b0384166105a55760405162461bcd60e51b815260040161024d90611403565b3360006105b185610b4b565b905060006105be85610b4b565b90506000868152602081815260408083206001600160a01b038c168452909152902054858110156106015760405162461bcd60e51b815260040161024d90611448565b6000878152602081815260408083206001600160a01b038d8116855292528083208985039055908a1682528120805488929061063e908490611492565b909155505060408051888152602081018890526001600160a01b03808b16928c821692918816917fc3d58168c5ae7397731d063d5bbf3d657854427343f4c083240f7aacaa2d0f62910160405180910390a461069e848a8a8a8a8a610b96565b505050505050505050565b6001600160a01b0384166106cf5760405162461bcd60e51b815260040161024d906114aa565b3360006106db85610b4b565b905060006106e885610b4b565b90506000868152602081815260408083206001600160a01b038b1684529091528120805487929061071a908490611492565b909155505060408051878152602081018790526001600160a01b03808a1692600092918716917fc3d58168c5ae7397731d063d5bbf3d657854427343f4c083240f7aacaa2d0f62910160405180910390a461077a83600089898989610b96565b50505050505050565b81518351146107a45760405162461bcd60e51b815260040161024d906114eb565b6001600160a01b0384166107ca5760405162461bcd60e51b815260040161024d90611403565b3360005b84518110156108b15760008582815181106107eb576107eb6113bc565b602002602001015190506000858381518110610809576108096113bc565b602090810291909101810151600084815280835260408082206001600160a01b038e1683529093529190912054909150818110156108595760405162461bcd60e51b815260040161024d90611448565b6000838152602081815260408083206001600160a01b038e8116855292528083208585039055908b16825281208054849290610896908490611492565b92505081905550505050806108aa906113e8565b90506107ce565b50846001600160a01b0316866001600160a01b0316826001600160a01b03167f4a39dc06d4c0dbc64b70af90fd698a233a518aa5d07e595d983b8c0526c8f7fb8787604051610901929190611533565b60405180910390a4610917818787878787610cf2565b505050505050565b816001600160a01b0316836001600160a01b031614156109935760405162461bcd60e51b815260206004820152602960248201527f455243313135353a2073657474696e6720617070726f76616c20737461747573604482015268103337b91039b2b63360b91b606482015260840161024d565b6001600160a01b03838116600081815260016020908152604080832094871680845294825291829020805460ff191686151590811790915591519182527f17307eab39ab6107e8899845ad3d59bd9653f200f220920489ca2b5937696c31910160405180910390a3505050565b6001600160a01b038416610a265760405162461bcd60e51b815260040161024d906114aa565b8151835114610a475760405162461bcd60e51b815260040161024d906114eb565b3360005b8451811015610ae357838181518110610a6657610a666113bc565b6020026020010151600080878481518110610a8357610a836113bc565b602002602001015181526020019081526020016000206000886001600160a01b03166001600160a01b031681526020019081526020016000206000828254610acb9190611492565b90915550819050610adb816113e8565b915050610a4b565b50846001600160a01b031660006001600160a01b0316826001600160a01b03167f4a39dc06d4c0dbc64b70af90fd698a233a518aa5d07e595d983b8c0526c8f7fb8787604051610b34929190611533565b60405180910390a46103e381600087878787610cf2565b60408051600180825281830190925260609160009190602080830190803683370190505090508281600081518110610b8557610b856113bc565b602090810291909101015292915050565b6001600160a01b0384163b156109175760405163f23a6e6160e01b81526001600160a01b0385169063f23a6e6190610bda9089908990889088908890600401611561565b6020604051808303816000875af1925050508015610c15575060408051601f3d908101601f19168201909252610c12918101906115a6565b60015b610cc257610c216115c3565b806308c379a01415610c5b5750610c366115df565b80610c415750610c5d565b8060405162461bcd60e51b815260040161024d9190610ec9565b505b60405162461bcd60e51b815260206004820152603460248201527f455243313135353a207472616e7366657220746f206e6f6e2d455243313135356044820152732932b1b2b4bb32b91034b6b83632b6b2b73a32b960611b606482015260840161024d565b6001600160e01b0319811663f23a6e6160e01b1461077a5760405162461bcd60e51b815260040161024d90611669565b6001600160a01b0384163b156109175760405163bc197c8160e01b81526001600160a01b0385169063bc197c8190610d3690899089908890889088906004016116b1565b6020604051808303816000875af1925050508015610d71575060408051601f3d908101601f19168201909252610d6e918101906115a6565b60015b610d7d57610c216115c3565b6001600160e01b0319811663bc197c8160e01b1461077a5760405162461bcd60e51b815260040161024d90611669565b80356001600160a01b0381168114610dc457600080fd5b919050565b60008060408385031215610ddc57600080fd5b610de583610dad565b946020939093013593505050565b6001600160e01b031981168114610e0957600080fd5b50565b600060208284031215610e1e57600080fd5b8135610e2981610df3565b9392505050565b600080600060608486031215610e4557600080fd5b610e4e84610dad565b95602085013595506040909401359392505050565b600060208284031215610e7557600080fd5b5035919050565b6000815180845260005b81811015610ea257602081850181015186830182015201610e86565b81811115610eb4576000602083870101525b50601f01601f19169290920160200192915050565b602081526000610e296020830184610e7c565b634e487b7160e01b600052604160045260246000fd5b601f8201601f1916810167ffffffffffffffff81118282101715610f1857610f18610edc565b6040525050565b600067ffffffffffffffff821115610f3957610f39610edc565b5060051b60200190565b600082601f830112610f5457600080fd5b81356020610f6182610f1f565b604051610f6e8282610ef2565b83815260059390931b8501820192828101915086841115610f8e57600080fd5b8286015b84811015610fa95780358352918301918301610f92565b509695505050505050565b600082601f830112610fc557600080fd5b813567ffffffffffffffff811115610fdf57610fdf610edc565b604051610ff6601f8301601f191660200182610ef2565b81815284602083860101111561100b57600080fd5b816020850160208301376000918101602001919091529392505050565b600080600080600060a0868803121561104057600080fd5b61104986610dad565b945061105760208701610dad565b9350604086013567ffffffffffffffff8082111561107457600080fd5b61108089838a01610f43565b9450606088013591508082111561109657600080fd5b6110a289838a01610f43565b935060808801359150808211156110b857600080fd5b506110c588828901610fb4565b9150509295509295909350565b600080604083850312156110e557600080fd5b823567ffffffffffffffff808211156110fd57600080fd5b818501915085601f83011261111157600080fd5b8135602061111e82610f1f565b60405161112b8282610ef2565b83815260059390931b850182019282810191508984111561114b57600080fd5b948201945b838610156111705761116186610dad565b82529482019490820190611150565b9650508601359250508082111561118657600080fd5b5061119385828601610f43565b9150509250929050565b600081518084526020808501945080840160005b838110156111cd578151875295820195908201906001016111b1565b509495945050505050565b602081526000610e29602083018461119d565b600080604083850312156111fe57600080fd5b61120783610dad565b91506020830135801515811461121c57600080fd5b809150509250929050565b60008060006060848603121561123c57600080fd5b61124584610dad565b9250602084013567ffffffffffffffff8082111561126257600080fd5b61126e87838801610f43565b9350604086013591508082111561128457600080fd5b5061129186828701610f43565b9150509250925092565b600080604083850312156112ae57600080fd5b6112b783610dad565b91506112c560208401610dad565b90509250929050565b600080600080600060a086880312156112e657600080fd5b6112ef86610dad565b94506112fd60208701610dad565b93506040860135925060608601359150608086013567ffffffffffffffff81111561132757600080fd5b6110c588828901610fb4565b600181811c9082168061134757607f821691505b6020821081141561136857634e487b7160e01b600052602260045260246000fd5b50919050565b6020808252602e908201527f455243313135353a2063616c6c6572206973206e6f7420746f6b656e206f776e60408201526d195c881bdc88185c1c1c9bdd995960921b606082015260800190565b634e487b7160e01b600052603260045260246000fd5b634e487b7160e01b600052601160045260246000fd5b60006000198214156113fc576113fc6113d2565b5060010190565b60208082526025908201527f455243313135353a207472616e7366657220746f20746865207a65726f206164604082015264647265737360d81b606082015260800190565b6020808252602a908201527f455243313135353a20696e73756666696369656e742062616c616e636520666f60408201526939103a3930b739b332b960b11b606082015260800190565b600082198211156114a5576114a56113d2565b500190565b60208082526021908201527f455243313135353a206d696e7420746f20746865207a65726f206164647265736040820152607360f81b606082015260800190565b60208082526028908201527f455243313135353a2069647320616e6420616d6f756e7473206c656e677468206040820152670dad2e6dac2e8c6d60c31b606082015260800190565b604081526000611546604083018561119d565b8281036020840152611558818561119d565b95945050505050565b6001600160a01b03868116825285166020820152604081018490526060810183905260a06080820181905260009061159b90830184610e7c565b979650505050505050565b6000602082840312156115b857600080fd5b8151610e2981610df3565b600060033d11156115dc5760046000803e5060005160e01c5b90565b600060443d10156115ed5790565b6040516003193d81016004833e81513d67ffffffffffffffff816024840111818411171561161d57505050505090565b82850191508151818111156116355750505050505090565b843d870101602082850101111561164f5750505050505090565b61165e60208286010187610ef2565b509095945050505050565b60208082526028908201527f455243313135353a204552433131353552656365697665722072656a656374656040820152676420746f6b656e7360c01b606082015260800190565b6001600160a01b0386811682528516602082015260a0604082018190526000906116dd9083018661119d565b82810360608401526116ef818661119d565b905082810360808401526117038185610e7c565b9897505050505050505056fea2646970667358221220ce540cb2e82481d91cc049b682a161a7acc1cc35336a1a4726de47d43a6efb3764736f6c634300080c0033",
  "linkReferences": {},
  "deployedLinkReferences": {}
}