{
  "_format": "hh-sol-artifact-1",
  "contractName": "ERC721Mock",
  "sourceName": "contracts/mocks/ERC721Mock.sol",
  "abi": [
    {
      "inputs": [
        {
          "internalType": "string",
          "name": "_name",
          "type": "string"
        },
        {
          "internalType": "string",
          "name": "_symbol",
          "type": "string"
        }
      ],
      "stateMutability": "nonpayable",
      "type": "constructor"
    },
    {
      "anonymous": false,
      "inputs": [
        {
          "indexed": true,
          "internalType": "address",
          "name": "owner",
          "type": "address"
        },
        {
          "indexed": true,
          "internalType": "address",
          "name": "approved",
          "type": "address"
        },
        {
          "indexed": true,
          "internalType": "uint256",
          "name": "tokenId",
          "type": "uint256"
        }
      ],
      "name": "Approval",
      "type": "event"
    },
    {
      "anonymous": false,
      "inputs": [
        {
          "indexed": true,
          "internalType": "address",
          "name": "owner",
          "type": "address"
        },
        {
          "indexed": true,
          "internalType": "address",
          "name": "operator",
          "type": "address"
        },
        {
          "indexed": false,
          "internalType": "bool",
          "name": "approved",
          "type": "bool"
        }
      ],
      "name": "ApprovalForAll",
      "type": "event"
    },
    {
      "anonymous": false,
      "inputs": [
        {
          "indexed": true,
          "internalType": "address",
          "name": "from",
          "type": "address"
        },
        {
          "indexed": true,
          "internalType": "address",
          "name": "to",
          "type": "address"
        },
        {
          "indexed": true,
          "internalType": "uint256",
          "name": "tokenId",
          "type": "uint256"
        }
      ],
      "name": "Transfer",
      "type": "event"
    },
    {
      "inputs": [
        {
          "internalType": "address",
          "name": "to",
          "type": "address"
        },
        {
          "internalType": "uint256",
          "name": "tokenId",
          "type": "uint256"
        }
      ],
      "name": "approve",
      "outputs": [],
      "stateMutability": "nonpayable",
      "type": "function"
    },
    {
      "inputs": [
        {
          "internalType": "address",
          "name": "owner",
          "type": "address"
        }
      ],
      "name": "balanceOf",
      "outputs": [
        {
          "internalType": "uint256",
          "name": "",
          "type": "uint256"
        }
      ],
      "stateMutability": "view",
      "type": "function"
    },
    {
      "inputs": [],
      "name": "baseTokenURI",
      "outputs": [
        {
          "internalType": "string",
          "name": "",
          "type": "string"
        }
      ],
      "stateMutability": "view",
      "type": "function"
    },
    {
      "inputs": [
        {
          "internalType": "uint256",
          "name": "tokenId",
          "type": "uint256"
        }
      ],
      "name": "getApproved",
      "outputs": [
        {
          "internalType": "address",
          "name": "",
          "type": "address"
        }
      ],
      "stateMutability": "view",
      "type": "function"
    },
    {
      "inputs": [
        {
          "internalType": "address",
          "name": "owner",
          "type": "address"
        },
        {
          "internalType": "address",
          "name": "operator",
          "type": "address"
        }
      ],
      "name": "isApprovedForAll",
      "outputs": [
        {
          "internalType": "bool",
          "name": "",
          "type": "bool"
        }
      ],
      "stateMutability": "view",
      "type": "function"
    },
    {
      "inputs": [
        {
          "internalType": "address",
          "name": "spender",
          "type": "address"
        },
        {
          "internalType": "uint256",
          "name": "tokenId",
          "type": "uint256"
        }
      ],
      "name": "isApprovedOrOwner",
      "outputs": [
        {
          "internalType": "bool",
          "name": "",
          "type": "bool"
        }
      ],
      "stateMutability": "view",
      "type": "function"
    },
    {
      "inputs": [
        {
          "internalType": "address",
          "name": "to",
          "type": "address"
        },
        {
          "internalType": "uint256",
          "name": "tokenId",
          "type": "uint256"
        }
      ],
      "name": "mint",
      "outputs": [],
      "stateMutability": "nonpayable",
      "type": "function"
    },
    {
      "inputs": [],
      "name": "name",
      "outputs": [
        {
          "internalType": "string",
          "name": "",
          "type": "string"
        }
      ],
      "stateMutability": "view",
      "type": "function"
    },
    {
      "inputs": [
        {
          "internalType": "uint256",
          "name": "tokenId",
          "type": "uint256"
        }
      ],
      "name": "ownerOf",
      "outputs": [
        {
          "internalType": "address",
          "name": "",
          "type": "address"
        }
      ],
      "stateMutability": "view",
      "type": "function"
    },
    {
      "inputs": [
        {
          "internalType": "address",
          "name": "from",
          "type": "address"
        },
        {
          "internalType": "address",
          "name": "to",
          "type": "address"
        },
        {
          "internalType": "uint256",
          "name": "tokenId",
          "type": "uint256"
        }
      ],
      "name": "safeTransferFrom",
      "outputs": [],
      "stateMutability": "nonpayable",
      "type": "function"
    },
    {
      "inputs": [
        {
          "internalType": "address",
          "name": "from",
          "type": "address"
        },
        {
          "internalType": "address",
          "name": "to",
          "type": "address"
        },
        {
          "internalType": "uint256",
          "name": "tokenId",
          "type": "uint256"
        },
        {
          "internalType": "bytes",
          "name": "data",
          "type": "bytes"
        }
      ],
      "name": "safeTransferFrom",
      "outputs": [],
      "stateMutability": "nonpayable",
      "type": "function"
    },
    {
      "inputs": [
        {
          "internalType": "address",
          "name": "operator",
          "type": "address"
        },
        {
          "internalType": "bool",
          "name": "approved",
          "type": "bool"
        }
      ],
      "name": "setApprovalForAll",
      "outputs": [],
      "stateMutability": "nonpayable",
      "type": "function"
    },
    {
      "inputs": [
        {
          "internalType": "bytes4",
          "name": "interfaceId",
          "type": "bytes4"
        }
      ],
      "name": "supportsInterface",
      "outputs": [
        {
          "internalType": "bool",
          "name": "",
          "type": "bool"
        }
      ],
      "stateMutability": "view",
      "type": "function"
    },
    {
      "inputs": [],
      "name": "symbol",
      "outputs": [
        {
          "internalType": "string",
          "name": "",
          "type": "string"
        }
      ],
      "stateMutability": "view",
      "type": "function"
    },
    {
      "inputs": [
        {
          "internalType": "uint256",
          "name": "tokenId",
          "type": "uint256"
        }
      ],
      "name": "tokenURI",
      "outputs": [
        {
          "internalType": "string",
          "name": "",
          "type": "string"
        }
      ],
      "stateMutability": "view",
      "type": "function"
    },
    {
      "inputs": [
        {
          "internalType": "address",
          "name": "to",
          "type": "address"
        },
        {
          "internalType": "uint256",
          "name": "tokenId",
          "type": "uint256"
        }
      ],
      "name": "transfer",
      "outputs": [],
      "stateMutability": "nonpayable",
      "type": "function"
    },
    {
      "inputs": [
        {
          "internalType": "address",
          "name": "from",
          "type": "address"
        },
        {
          "internalType": "address",
          "name": "to",
          "type": "address"
        },
        {
          "internalType": "uint256",
          "name": "tokenId",
          "type": "uint256"
        }
      ],
      "name": "transferFrom",
      "outputs": [],
      "stateMutability": "nonpayable",
      "type": "function"
    }
  ],
  "bytecode": "0x60806040523480156200001157600080fd5b50604051620016ad380380620016ad8339810160408190526200003491620001e1565b8151829082906200004d9060009060208501906200006e565b508051620000639060019060208401906200006e565b505050505062000288565b8280546200007c906200024b565b90600052602060002090601f016020900481019282620000a05760008555620000eb565b82601f10620000bb57805160ff1916838001178555620000eb565b82800160010185558215620000eb579182015b82811115620000eb578251825591602001919060010190620000ce565b50620000f9929150620000fd565b5090565b5b80821115620000f95760008155600101620000fe565b634e487b7160e01b600052604160045260246000fd5b600082601f8301126200013c57600080fd5b81516001600160401b038082111562000159576200015962000114565b604051601f8301601f19908116603f0116810190828211818310171562000184576200018462000114565b81604052838152602092508683858801011115620001a157600080fd5b600091505b83821015620001c55785820183015181830184015290820190620001a6565b83821115620001d75760008385830101525b9695505050505050565b60008060408385031215620001f557600080fd5b82516001600160401b03808211156200020d57600080fd5b6200021b868387016200012a565b935060208501519150808211156200023257600080fd5b5062000241858286016200012a565b9150509250929050565b600181811c908216806200026057607f821691505b602082108114156200028257634e487b7160e01b600052602260045260246000fd5b50919050565b61141580620002986000396000f3fe608060405234801561001057600080fd5b506004361061010b5760003560e01c80636352211e116100a2578063a9059cbb11610071578063a9059cbb14610228578063b88d4fde1461023b578063c87b56dd1461024e578063d547cfb714610261578063e985e9c51461026957600080fd5b80636352211e146101d957806370a08231146101ec57806395d89b411461020d578063a22cb4651461021557600080fd5b806323b872dd116100de57806323b872dd1461018d57806340c10f19146101a057806342842e0e146101b3578063430c2081146101c657600080fd5b806301ffc9a71461011057806306fdde0314610138578063081812fc1461014d578063095ea7b314610178575b600080fd5b61012361011e366004610f98565b6102a5565b60405190151581526020015b60405180910390f35b6101406102f7565b60405161012f919061100d565b61016061015b366004611020565b610389565b6040516001600160a01b03909116815260200161012f565b61018b610186366004611055565b6103b0565b005b61018b61019b36600461107f565b6104cb565b61018b6101ae366004611055565b6104fc565b61018b6101c136600461107f565b61051a565b6101236101d4366004611055565b610535565b6101606101e7366004611020565b610548565b6101ff6101fa3660046110bb565b6105a8565b60405190815260200161012f565b61014061062e565b61018b6102233660046110d6565b61063d565b61018b610236366004611055565b610648565b61018b610249366004611128565b610663565b61014061025c366004611020565b61069b565b61014061070e565b610123610277366004611204565b6001600160a01b03918216600090815260056020908152604080832093909416825291909152205460ff1690565b60006001600160e01b031982166380ac58cd60e01b14806102d657506001600160e01b03198216635b5e139f60e01b145b806102f157506301ffc9a760e01b6001600160e01b03198316145b92915050565b60606000805461030690611237565b80601f016020809104026020016040519081016040528092919081815260200182805461033290611237565b801561037f5780601f106103545761010080835404028352916020019161037f565b820191906000526020600020905b81548152906001019060200180831161036257829003601f168201915b5050505050905090565b60006103948261079c565b506000908152600460205260409020546001600160a01b031690565b60006103bb82610548565b9050806001600160a01b0316836001600160a01b0316141561042e5760405162461bcd60e51b815260206004820152602160248201527f4552433732313a20617070726f76616c20746f2063757272656e74206f776e656044820152603960f91b60648201526084015b60405180910390fd5b336001600160a01b038216148061044a575061044a8133610277565b6104bc5760405162461bcd60e51b815260206004820152603d60248201527f4552433732313a20617070726f76652063616c6c6572206973206e6f7420746f60448201527f6b656e206f776e6572206f7220617070726f76656420666f7220616c6c0000006064820152608401610425565b6104c683836107fe565b505050565b6104d5338261086c565b6104f15760405162461bcd60e51b815260040161042590611272565b6104c68383836108eb565b610516828260405180602001604052806000815250610a4f565b5050565b6104c683838360405180602001604052806000815250610663565b6000610541838361086c565b9392505050565b6000818152600260205260408120546001600160a01b0316806102f15760405162461bcd60e51b8152602060048201526018602482015277115490cdcc8c4e881a5b9d985b1a59081d1bdad95b88125160421b6044820152606401610425565b60006001600160a01b0382166106125760405162461bcd60e51b815260206004820152602960248201527f4552433732313a2061646472657373207a65726f206973206e6f7420612076616044820152683634b21037bbb732b960b91b6064820152608401610425565b506001600160a01b031660009081526003602052604090205490565b60606001805461030690611237565b610516338383610a82565b61051633838360405180602001604052806000815250610b51565b61066d338361086c565b6106895760405162461bcd60e51b815260040161042590611272565b61069584848484610b51565b50505050565b60606106a68261079c565b60006106bd60408051602081019091526000815290565b905060008151116106dd5760405180602001604052806000815250610541565b806106e784610b84565b6040516020016106f89291906112bf565b6040516020818303038152906040529392505050565b6006805461071b90611237565b80601f016020809104026020016040519081016040528092919081815260200182805461074790611237565b80156107945780601f1061076957610100808354040283529160200191610794565b820191906000526020600020905b81548152906001019060200180831161077757829003601f168201915b505050505081565b6000818152600260205260409020546001600160a01b03166107fb5760405162461bcd60e51b8152602060048201526018602482015277115490cdcc8c4e881a5b9d985b1a59081d1bdad95b88125160421b6044820152606401610425565b50565b600081815260046020526040902080546001600160a01b0319166001600160a01b038416908117909155819061083382610548565b6001600160a01b03167f8c5be1e5ebec7d5bd14f71427d1e84f3dd0314c0f7b2291e5b200ac8c7c3b92560405160405180910390a45050565b60008061087883610548565b9050806001600160a01b0316846001600160a01b031614806108bf57506001600160a01b0380821660009081526005602090815260408083209388168352929052205460ff165b806108e35750836001600160a01b03166108d884610389565b6001600160a01b0316145b949350505050565b826001600160a01b03166108fe82610548565b6001600160a01b0316146109245760405162461bcd60e51b8152600401610425906112ee565b6001600160a01b0382166109865760405162461bcd60e51b8152602060048201526024808201527f4552433732313a207472616e7366657220746f20746865207a65726f206164646044820152637265737360e01b6064820152608401610425565b826001600160a01b031661099982610548565b6001600160a01b0316146109bf5760405162461bcd60e51b8152600401610425906112ee565b600081815260046020908152604080832080546001600160a01b03199081169091556001600160a01b0387811680865260038552838620805460001901905590871680865283862080546001019055868652600290945282852080549092168417909155905184937fddf252ad1be2c89b69c2b068fc378daa952ba7f163c4a11628f55a4df523b3ef91a4505050565b610a598383610c21565b610a666000848484610dac565b6104c65760405162461bcd60e51b815260040161042590611333565b816001600160a01b0316836001600160a01b03161415610ae45760405162461bcd60e51b815260206004820152601960248201527f4552433732313a20617070726f766520746f2063616c6c6572000000000000006044820152606401610425565b6001600160a01b03838116600081815260056020908152604080832094871680845294825291829020805460ff191686151590811790915591519182527f17307eab39ab6107e8899845ad3d59bd9653f200f220920489ca2b5937696c31910160405180910390a3505050565b610b5c8484846108eb565b610b6884848484610dac565b6106955760405162461bcd60e51b815260040161042590611333565b60606000610b9183610eaa565b600101905060008167ffffffffffffffff811115610bb157610bb1611112565b6040519080825280601f01601f191660200182016040528015610bdb576020820181803683370190505b5090508181016020015b600019016f181899199a1a9b1b9c1cb0b131b232b360811b600a86061a8153600a8504945084610c1457610c19565b610be5565b509392505050565b6001600160a01b038216610c775760405162461bcd60e51b815260206004820181905260248201527f4552433732313a206d696e7420746f20746865207a65726f20616464726573736044820152606401610425565b6000818152600260205260409020546001600160a01b031615610cdc5760405162461bcd60e51b815260206004820152601c60248201527f4552433732313a20746f6b656e20616c7265616479206d696e746564000000006044820152606401610425565b6000818152600260205260409020546001600160a01b031615610d415760405162461bcd60e51b815260206004820152601c60248201527f4552433732313a20746f6b656e20616c7265616479206d696e746564000000006044820152606401610425565b6001600160a01b038216600081815260036020908152604080832080546001019055848352600290915280822080546001600160a01b0319168417905551839291907fddf252ad1be2c89b69c2b068fc378daa952ba7f163c4a11628f55a4df523b3ef908290a45050565b60006001600160a01b0384163b15610e9f57604051630a85bd0160e11b81526001600160a01b0385169063150b7a0290610df0903390899088908890600401611385565b6020604051808303816000875af1925050508015610e2b575060408051601f3d908101601f19168201909252610e28918101906113c2565b60015b610e85573d808015610e59576040519150601f19603f3d011682016040523d82523d6000602084013e610e5e565b606091505b508051610e7d5760405162461bcd60e51b815260040161042590611333565b805181602001fd5b6001600160e01b031916630a85bd0160e11b1490506108e3565b506001949350505050565b60008072184f03e93ff9f4daa797ed6e38ed64bf6a1f0160401b8310610ee95772184f03e93ff9f4daa797ed6e38ed64bf6a1f0160401b830492506040015b6d04ee2d6d415b85acef81000000008310610f15576d04ee2d6d415b85acef8100000000830492506020015b662386f26fc100008310610f3357662386f26fc10000830492506010015b6305f5e1008310610f4b576305f5e100830492506008015b6127108310610f5f57612710830492506004015b60648310610f71576064830492506002015b600a83106102f15760010192915050565b6001600160e01b0319811681146107fb57600080fd5b600060208284031215610faa57600080fd5b813561054181610f82565b60005b83811015610fd0578181015183820152602001610fb8565b838111156106955750506000910152565b60008151808452610ff9816020860160208601610fb5565b601f01601f19169290920160200192915050565b6020815260006105416020830184610fe1565b60006020828403121561103257600080fd5b5035919050565b80356001600160a01b038116811461105057600080fd5b919050565b6000806040838503121561106857600080fd5b61107183611039565b946020939093013593505050565b60008060006060848603121561109457600080fd5b61109d84611039565b92506110ab60208501611039565b9150604084013590509250925092565b6000602082840312156110cd57600080fd5b61054182611039565b600080604083850312156110e957600080fd5b6110f283611039565b91506020830135801515811461110757600080fd5b809150509250929050565b634e487b7160e01b600052604160045260246000fd5b6000806000806080858703121561113e57600080fd5b61114785611039565b935061115560208601611039565b925060408501359150606085013567ffffffffffffffff8082111561117957600080fd5b818701915087601f83011261118d57600080fd5b81358181111561119f5761119f611112565b604051601f8201601f19908116603f011681019083821181831017156111c7576111c7611112565b816040528281528a60208487010111156111e057600080fd5b82602086016020830137600060208483010152809550505050505092959194509250565b6000806040838503121561121757600080fd5b61122083611039565b915061122e60208401611039565b90509250929050565b600181811c9082168061124b57607f821691505b6020821081141561126c57634e487b7160e01b600052602260045260246000fd5b50919050565b6020808252602d908201527f4552433732313a2063616c6c6572206973206e6f7420746f6b656e206f776e6560408201526c1c881bdc88185c1c1c9bdd9959609a1b606082015260800190565b600083516112d1818460208801610fb5565b8351908301906112e5818360208801610fb5565b01949350505050565b60208082526025908201527f4552433732313a207472616e736665722066726f6d20696e636f72726563742060408201526437bbb732b960d91b606082015260800190565b60208082526032908201527f4552433732313a207472616e7366657220746f206e6f6e20455243373231526560408201527131b2b4bb32b91034b6b83632b6b2b73a32b960711b606082015260800190565b6001600160a01b03858116825284166020820152604081018390526080606082018190526000906113b890830184610fe1565b9695505050505050565b6000602082840312156113d457600080fd5b815161054181610f8256fea2646970667358221220179e68f21e4a140082d073b23159fe840d9135e6dd82a2b817760a5adac8d6ca64736f6c634300080c0033",
  "linkReferences": {},
  "deployedLinkReferences": {}
}