{
  "_format": "hh-sol-artifact-1",
  "contractName": "VerifierFeeLib",
  "sourceName": "contracts/uln/VerifierFeeLib.sol",
  "abi": [
    {
      "inputs": [
        {
          "components": [
            {
              "internalType": "address",
              "name": "priceFeed",
              "type": "address"
            },
            {
              "internalType": "uint32",
              "name": "dstEid",
              "type": "uint32"
            },
            {
              "internalType": "uint64",
              "name": "confirmations",
              "type": "uint64"
            },
            {
              "internalType": "address",
              "name": "sender",
              "type": "address"
            },
            {
              "internalType": "uint64",
              "name": "quorum",
              "type": "uint64"
            },
            {
              "internalType": "uint16",
              "name": "defaultMultiplierBps",
              "type": "uint16"
            }
          ],
          "internalType": "struct IVerifierFeeLib.FeeParams",
          "name": "_params",
          "type": "tuple"
        },
        {
          "components": [
            {
              "internalType": "uint64",
              "name": "gas",
              "type": "uint64"
            },
            {
              "internalType": "uint16",
              "name": "multiplierBps",
              "type": "uint16"
            },
            {
              "internalType": "uint128",
              "name": "floorMarginUSD",
              "type": "uint128"
            }
          ],
          "internalType": "struct IVerifier.DstConfig",
          "name": "_dstConfig",
          "type": "tuple"
        },
        {
          "internalType": "bytes",
          "name": "",
          "type": "bytes"
        }
      ],
      "name": "getFee",
      "outputs": [
        {
          "internalType": "uint256",
          "name": "",
          "type": "uint256"
        }
      ],
      "stateMutability": "view",
      "type": "function"
    },
    {
      "inputs": [
        {
          "components": [
            {
              "internalType": "address",
              "name": "priceFeed",
              "type": "address"
            },
            {
              "internalType": "uint32",
              "name": "dstEid",
              "type": "uint32"
            },
            {
              "internalType": "uint64",
              "name": "confirmations",
              "type": "uint64"
            },
            {
              "internalType": "address",
              "name": "sender",
              "type": "address"
            },
            {
              "internalType": "uint64",
              "name": "quorum",
              "type": "uint64"
            },
            {
              "internalType": "uint16",
              "name": "defaultMultiplierBps",
              "type": "uint16"
            }
          ],
          "internalType": "struct IVerifierFeeLib.FeeParams",
          "name": "_params",
          "type": "tuple"
        },
        {
          "components": [
            {
              "internalType": "uint64",
              "name": "gas",
              "type": "uint64"
            },
            {
              "internalType": "uint16",
              "name": "multiplierBps",
              "type": "uint16"
            },
            {
              "internalType": "uint128",
              "name": "floorMarginUSD",
              "type": "uint128"
            }
          ],
          "internalType": "struct IVerifier.DstConfig",
          "name": "_dstConfig",
          "type": "tuple"
        },
        {
          "internalType": "bytes",
          "name": "",
          "type": "bytes"
        }
      ],
      "name": "getFeeOnSend",
      "outputs": [
        {
          "internalType": "uint256",
          "name": "",
          "type": "uint256"
        }
      ],
      "stateMutability": "nonpayable",
      "type": "function"
    }
  ],
  "bytecode": "0x608060405234801561001057600080fd5b50610a4d806100206000396000f3fe608060405234801561001057600080fd5b50600436106100365760003560e01c80637bfa20a91461003b578063df2b057e14610060575b600080fd5b61004e6100493660046104ca565b610073565b60405190815260200160405180910390f35b61004e61006e366004610787565b6101c7565b60008061009861008960a0880160808901610857565b67ffffffffffffffff1661037c565b90506000806100aa6020890189610872565b73ffffffffffffffffffffffffffffffffffffffff166388a4124c6100d560408b0160208c0161088d565b856100e360208c018c610857565b6040517fffffffff0000000000000000000000000000000000000000000000000000000060e086901b16815263ffffffff939093166004840152602483019190915267ffffffffffffffff166044820152606401608060405180830381865afa158015610154573d6000803e3d6000fd5b505050506040513d601f19601f8201168201806040525081019061017891906108a8565b9350505091506101bb8288602001602081019061019591906108fd565b6101a560c08c0160a08d016108fd565b6101b560608c0160408d01610918565b856103e8565b98975050505050505050565b6000806101e1856080015167ffffffffffffffff1661037c565b8551602087015186516040517f11f2c34300000000000000000000000000000000000000000000000000000000815263ffffffff90921660048301526024820184905267ffffffffffffffff16604482015291925060009173ffffffffffffffffffffffffffffffffffffffff909116906311f2c343906064016020604051808303816000875af115801561027a573d6000803e3d6000fd5b505050506040513d601f19601f8201168201806040525081019061029e9190610935565b8651602088015187516040517fc1723a1d00000000000000000000000000000000000000000000000000000000815263ffffffff90921660048301526024820186905267ffffffffffffffff166044820152919250600091829173ffffffffffffffffffffffffffffffffffffffff169063c1723a1d90859060640160806040518083038185885af1158015610338573d6000803e3d6000fd5b50505050506040513d601f19601f8201168201806040525081019061035d91906108a8565b9350505091506101bb8288602001518a60a001518a60400151856103e8565b60008061038a60418461097d565b90506103976020826109c9565b156103bf576103a76020826109c9565b6103b190826109dd565b6103bc9060206109f0565b90505b806103cc60e060446109f0565b6103d691906109f0565b6103e19060406109f0565b9392505050565b60008061ffff8616156103fb57856103fd565b845b9050600061271061041261ffff84168a61097d565b61041c9190610a03565b90506fffffffffffffffffffffffffffffffff8416158061044d57506fffffffffffffffffffffffffffffffff8516155b1561045b5791506104c19050565b6000846fffffffffffffffffffffffffffffffff16670de0b6b3a7640000876fffffffffffffffffffffffffffffffff16610496919061097d565b6104a09190610a03565b6104aa908a6109f0565b90508181116104b957816104bb565b805b93505050505b95945050505050565b6000806000808486036101408112156104e257600080fd5b60c08112156104f057600080fd5b85945060607fffffffffffffffffffffffffffffffffffffffffffffffffffffffffffffff408201121561052357600080fd5b5060c08501925061012085013567ffffffffffffffff8082111561054657600080fd5b818701915087601f83011261055a57600080fd5b81358181111561056957600080fd5b88602082850101111561057b57600080fd5b95989497505060200194505050565b7f4e487b7100000000000000000000000000000000000000000000000000000000600052604160045260246000fd5b60405160c0810167ffffffffffffffff811182821017156105dc576105dc61058a565b60405290565b803573ffffffffffffffffffffffffffffffffffffffff8116811461060657600080fd5b919050565b803563ffffffff8116811461060657600080fd5b803567ffffffffffffffff8116811461060657600080fd5b803561ffff8116811461060657600080fd5b6fffffffffffffffffffffffffffffffff8116811461066757600080fd5b50565b60006060828403121561067c57600080fd5b6040516060810181811067ffffffffffffffff8211171561069f5761069f61058a565b6040529050806106ae8361061f565b81526106bc60208401610637565b602082015260408301356106cf81610649565b6040919091015292915050565b600082601f8301126106ed57600080fd5b813567ffffffffffffffff808211156107085761070861058a565b604051601f83017fffffffffffffffffffffffffffffffffffffffffffffffffffffffffffffffe0908116603f0116810190828211818310171561074e5761074e61058a565b8160405283815286602085880101111561076757600080fd5b836020870160208301376000602085830101528094505050505092915050565b600080600083850361014081121561079e57600080fd5b60c08112156107ac57600080fd5b506107b56105b9565b6107be856105e2565b81526107cc6020860161060b565b60208201526107dd6040860161061f565b60408201526107ee606086016105e2565b60608201526107ff6080860161061f565b608082015261081060a08601610637565b60a082015292506108248560c0860161066a565b915061012084013567ffffffffffffffff81111561084157600080fd5b61084d868287016106dc565b9150509250925092565b60006020828403121561086957600080fd5b6103e18261061f565b60006020828403121561088457600080fd5b6103e1826105e2565b60006020828403121561089f57600080fd5b6103e18261060b565b600080600080608085870312156108be57600080fd5b8451935060208501516108d081610649565b60408601519093506108e181610649565b60608601519092506108f281610649565b939692955090935050565b60006020828403121561090f57600080fd5b6103e182610637565b60006020828403121561092a57600080fd5b81356103e181610649565b60006020828403121561094757600080fd5b5051919050565b7f4e487b7100000000000000000000000000000000000000000000000000000000600052601160045260246000fd5b80820281158282048414176109945761099461094e565b92915050565b7f4e487b7100000000000000000000000000000000000000000000000000000000600052601260045260246000fd5b6000826109d8576109d861099a565b500690565b818103818111156109945761099461094e565b808201808211156109945761099461094e565b600082610a1257610a1261099a565b50049056fea2646970667358221220aacf4aeb7f3b10efb8d3086cb34d2fd939ae3b69c13a8317b5989e3e3497a6bb64736f6c63430008130033",
  "linkReferences": {},
  "deployedLinkReferences": {}
}