{
  "_format": "hh-sol-artifact-1",
  "contractName": "TestOFT",
  "sourceName": "contracts/standards/oft/mocks/TestOFT.sol",
  "abi": [
    {
      "inputs": [
        {
          "internalType": "string",
          "name": "_name",
          "type": "string"
        },
        {
          "internalType": "string",
          "name": "_symbol",
          "type": "string"
        },
        {
          "internalType": "uint8",
          "name": "_localDecimals",
          "type": "uint8"
        },
        {
          "internalType": "address",
          "name": "_endpoint",
          "type": "address"
        }
      ],
      "stateMutability": "nonpayable",
      "type": "constructor"
    },
    {
      "inputs": [
        {
          "internalType": "uint256",
          "name": "_amountLDSend",
          "type": "uint256"
        },
        {
          "internalType": "uint256",
          "name": "_minAmountLD",
          "type": "uint256"
        }
      ],
      "name": "AmountSlippage",
      "type": "error"
    },
    {
      "inputs": [
        {
          "internalType": "address",
          "name": "addr",
          "type": "address"
        }
      ],
      "name": "EndpointOnly",
      "type": "error"
    },
    {
      "inputs": [
        {
          "internalType": "bytes32",
          "name": "addr",
          "type": "bytes32"
        }
      ],
      "name": "InvalidPeer",
      "type": "error"
    },
    {
      "inputs": [],
      "name": "InvalidPeerState",
      "type": "error"
    },
    {
      "inputs": [],
      "name": "LDMinusSD",
      "type": "error"
    },
    {
      "inputs": [
        {
          "internalType": "uint16",
          "name": "code",
          "type": "uint16"
        },
        {
          "internalType": "bytes",
          "name": "result",
          "type": "bytes"
        }
      ],
      "name": "LzReceiveRevert",
      "type": "error"
    },
    {
      "inputs": [
        {
          "internalType": "uint32",
          "name": "eid",
          "type": "uint32"
        }
      ],
      "name": "NoPeerSet",
      "type": "error"
    },
    {
      "inputs": [
        {
          "internalType": "address",
          "name": "addr",
          "type": "address"
        }
      ],
      "name": "PreCrimeOnly",
      "type": "error"
    },
    {
      "anonymous": false,
      "inputs": [
        {
          "indexed": true,
          "internalType": "address",
          "name": "owner",
          "type": "address"
        },
        {
          "indexed": true,
          "internalType": "address",
          "name": "spender",
          "type": "address"
        },
        {
          "indexed": false,
          "internalType": "uint256",
          "name": "value",
          "type": "uint256"
        }
      ],
      "name": "Approval",
      "type": "event"
    },
    {
      "anonymous": false,
      "inputs": [
        {
          "indexed": true,
          "internalType": "address",
          "name": "previousOwner",
          "type": "address"
        },
        {
          "indexed": true,
          "internalType": "address",
          "name": "newOwner",
          "type": "address"
        }
      ],
      "name": "OwnershipTransferred",
      "type": "event"
    },
    {
      "anonymous": false,
      "inputs": [
        {
          "indexed": true,
          "internalType": "bytes32",
          "name": "_guid",
          "type": "bytes32"
        },
        {
          "indexed": true,
          "internalType": "address",
          "name": "_toAddress",
          "type": "address"
        },
        {
          "indexed": false,
          "internalType": "uint256",
          "name": "_amountLD",
          "type": "uint256"
        }
      ],
      "name": "ReceiveOFT",
      "type": "event"
    },
    {
      "anonymous": false,
      "inputs": [
        {
          "indexed": true,
          "internalType": "bytes32",
          "name": "_guid",
          "type": "bytes32"
        },
        {
          "indexed": true,
          "internalType": "address",
          "name": "_fromAddress",
          "type": "address"
        },
        {
          "indexed": false,
          "internalType": "uint256",
          "name": "_amountLD",
          "type": "uint256"
        }
      ],
      "name": "SendOFT",
      "type": "event"
    },
    {
      "anonymous": false,
      "inputs": [
        {
          "components": [
            {
              "internalType": "uint16",
              "name": "msgType",
              "type": "uint16"
            },
            {
              "internalType": "uint32",
              "name": "eid",
              "type": "uint32"
            },
            {
              "internalType": "bytes",
              "name": "options",
              "type": "bytes"
            }
          ],
          "indexed": false,
          "internalType": "struct IOApp.EnforcedOptionParam[]",
          "name": "_enforcedOptions",
          "type": "tuple[]"
        }
      ],
      "name": "SetEnforcedOption",
      "type": "event"
    },
    {
      "anonymous": false,
      "inputs": [
        {
          "indexed": false,
          "internalType": "address",
          "name": "_inspector",
          "type": "address"
        }
      ],
      "name": "SetInspector",
      "type": "event"
    },
    {
      "anonymous": false,
      "inputs": [
        {
          "indexed": false,
          "internalType": "uint32",
          "name": "remoteEid",
          "type": "uint32"
        },
        {
          "indexed": false,
          "internalType": "bytes32",
          "name": "peer",
          "type": "bytes32"
        }
      ],
      "name": "SetPeer",
      "type": "event"
    },
    {
      "anonymous": false,
      "inputs": [
        {
          "indexed": false,
          "internalType": "address",
          "name": "precrime",
          "type": "address"
        }
      ],
      "name": "SetPrecrime",
      "type": "event"
    },
    {
      "anonymous": false,
      "inputs": [
        {
          "indexed": true,
          "internalType": "address",
          "name": "from",
          "type": "address"
        },
        {
          "indexed": true,
          "internalType": "address",
          "name": "to",
          "type": "address"
        },
        {
          "indexed": false,
          "internalType": "uint256",
          "name": "value",
          "type": "uint256"
        }
      ],
      "name": "Transfer",
      "type": "event"
    },
    {
      "inputs": [
        {
          "internalType": "address",
          "name": "owner",
          "type": "address"
        },
        {
          "internalType": "address",
          "name": "spender",
          "type": "address"
        }
      ],
      "name": "allowance",
      "outputs": [
        {
          "internalType": "uint256",
          "name": "",
          "type": "uint256"
        }
      ],
      "stateMutability": "view",
      "type": "function"
    },
    {
      "inputs": [
        {
          "internalType": "address",
          "name": "spender",
          "type": "address"
        },
        {
          "internalType": "uint256",
          "name": "amount",
          "type": "uint256"
        }
      ],
      "name": "approve",
      "outputs": [
        {
          "internalType": "bool",
          "name": "",
          "type": "bool"
        }
      ],
      "stateMutability": "nonpayable",
      "type": "function"
    },
    {
      "inputs": [
        {
          "internalType": "address",
          "name": "account",
          "type": "address"
        }
      ],
      "name": "balanceOf",
      "outputs": [
        {
          "internalType": "uint256",
          "name": "",
          "type": "uint256"
        }
      ],
      "stateMutability": "view",
      "type": "function"
    },
    {
      "inputs": [
        {
          "internalType": "bytes",
          "name": "_callData",
          "type": "bytes"
        }
      ],
      "name": "callEndpoint",
      "outputs": [],
      "stateMutability": "nonpayable",
      "type": "function"
    },
    {
      "inputs": [],
      "name": "decimals",
      "outputs": [
        {
          "internalType": "uint8",
          "name": "",
          "type": "uint8"
        }
      ],
      "stateMutability": "view",
      "type": "function"
    },
    {
      "inputs": [
        {
          "internalType": "address",
          "name": "spender",
          "type": "address"
        },
        {
          "internalType": "uint256",
          "name": "subtractedValue",
          "type": "uint256"
        }
      ],
      "name": "decreaseAllowance",
      "outputs": [
        {
          "internalType": "bool",
          "name": "",
          "type": "bool"
        }
      ],
      "stateMutability": "nonpayable",
      "type": "function"
    },
    {
      "inputs": [],
      "name": "endpoint",
      "outputs": [
        {
          "internalType": "contract ILayerZeroEndpointV2",
          "name": "",
          "type": "address"
        }
      ],
      "stateMutability": "view",
      "type": "function"
    },
    {
      "inputs": [
        {
          "internalType": "address",
          "name": "spender",
          "type": "address"
        },
        {
          "internalType": "uint256",
          "name": "addedValue",
          "type": "uint256"
        }
      ],
      "name": "increaseAllowance",
      "outputs": [
        {
          "internalType": "bool",
          "name": "",
          "type": "bool"
        }
      ],
      "stateMutability": "nonpayable",
      "type": "function"
    },
    {
      "inputs": [],
      "name": "inspector",
      "outputs": [
        {
          "internalType": "contract IInspector",
          "name": "",
          "type": "address"
        }
      ],
      "stateMutability": "view",
      "type": "function"
    },
    {
      "inputs": [
        {
          "components": [
            {
              "internalType": "uint32",
              "name": "srcEid",
              "type": "uint32"
            },
            {
              "internalType": "bytes32",
              "name": "sender",
              "type": "bytes32"
            },
            {
              "internalType": "uint64",
              "name": "nonce",
              "type": "uint64"
            }
          ],
          "internalType": "struct Origin",
          "name": "_origin",
          "type": "tuple"
        },
        {
          "internalType": "bytes32",
          "name": "_guid",
          "type": "bytes32"
        },
        {
          "internalType": "bytes",
          "name": "_message",
          "type": "bytes"
        },
        {
          "internalType": "address",
          "name": "_executor",
          "type": "address"
        },
        {
          "internalType": "bytes",
          "name": "_extraData",
          "type": "bytes"
        }
      ],
      "name": "lzReceive",
      "outputs": [],
      "stateMutability": "payable",
      "type": "function"
    },
    {
      "inputs": [
        {
          "components": [
            {
              "components": [
                {
                  "internalType": "uint32",
                  "name": "srcEid",
                  "type": "uint32"
                },
                {
                  "internalType": "bytes32",
                  "name": "sender",
                  "type": "bytes32"
                },
                {
                  "internalType": "uint64",
                  "name": "nonce",
                  "type": "uint64"
                }
              ],
              "internalType": "struct Origin",
              "name": "origin",
              "type": "tuple"
            },
            {
              "internalType": "bytes32",
              "name": "guid",
              "type": "bytes32"
            },
            {
              "internalType": "bytes",
              "name": "message",
              "type": "bytes"
            },
            {
              "internalType": "bytes",
              "name": "callParams",
              "type": "bytes"
            }
          ],
          "internalType": "struct IPreCrime.Packet[]",
          "name": "_packets",
          "type": "tuple[]"
        }
      ],
      "name": "lzReceiveAndRevert",
      "outputs": [],
      "stateMutability": "payable",
      "type": "function"
    },
    {
      "inputs": [
        {
          "internalType": "address",
          "name": "_to",
          "type": "address"
        },
        {
          "internalType": "uint256",
          "name": "_amount",
          "type": "uint256"
        }
      ],
      "name": "mint",
      "outputs": [],
      "stateMutability": "nonpayable",
      "type": "function"
    },
    {
      "inputs": [],
      "name": "name",
      "outputs": [
        {
          "internalType": "string",
          "name": "",
          "type": "string"
        }
      ],
      "stateMutability": "view",
      "type": "function"
    },
    {
      "inputs": [
        {
          "internalType": "uint32",
          "name": "",
          "type": "uint32"
        },
        {
          "internalType": "bytes32",
          "name": "",
          "type": "bytes32"
        }
      ],
      "name": "nextNonce",
      "outputs": [
        {
          "internalType": "uint64",
          "name": "",
          "type": "uint64"
        }
      ],
      "stateMutability": "view",
      "type": "function"
    },
    {
      "inputs": [],
      "name": "owner",
      "outputs": [
        {
          "internalType": "address",
          "name": "",
          "type": "address"
        }
      ],
      "stateMutability": "view",
      "type": "function"
    },
    {
      "inputs": [
        {
          "internalType": "uint32",
          "name": "",
          "type": "uint32"
        }
      ],
      "name": "peers",
      "outputs": [
        {
          "internalType": "bytes32",
          "name": "",
          "type": "bytes32"
        }
      ],
      "stateMutability": "view",
      "type": "function"
    },
    {
      "inputs": [],
      "name": "precrime",
      "outputs": [
        {
          "internalType": "contract IPreCrime",
          "name": "",
          "type": "address"
        }
      ],
      "stateMutability": "view",
      "type": "function"
    },
    {
      "inputs": [
        {
          "components": [
            {
              "internalType": "bytes32",
              "name": "to",
              "type": "bytes32"
            },
            {
              "internalType": "uint256",
              "name": "amountLD",
              "type": "uint256"
            },
            {
              "internalType": "uint256",
              "name": "minAmountLD",
              "type": "uint256"
            },
            {
              "internalType": "uint32",
              "name": "dstEid",
              "type": "uint32"
            }
          ],
          "internalType": "struct IOFT.SendParam",
          "name": "_send",
          "type": "tuple"
        },
        {
          "internalType": "bytes",
          "name": "_extraOptions",
          "type": "bytes"
        },
        {
          "internalType": "bool",
          "name": "_useLZToken",
          "type": "bool"
        },
        {
          "internalType": "bytes",
          "name": "_composeMsg",
          "type": "bytes"
        }
      ],
      "name": "quoteSendAndCallFee",
      "outputs": [
        {
          "internalType": "uint256",
          "name": "nativeFee",
          "type": "uint256"
        },
        {
          "internalType": "uint256",
          "name": "lzTokenFee",
          "type": "uint256"
        }
      ],
      "stateMutability": "view",
      "type": "function"
    },
    {
      "inputs": [
        {
          "components": [
            {
              "internalType": "bytes32",
              "name": "to",
              "type": "bytes32"
            },
            {
              "internalType": "uint256",
              "name": "amountLD",
              "type": "uint256"
            },
            {
              "internalType": "uint256",
              "name": "minAmountLD",
              "type": "uint256"
            },
            {
              "internalType": "uint32",
              "name": "dstEid",
              "type": "uint32"
            }
          ],
          "internalType": "struct IOFT.SendParam",
          "name": "_send",
          "type": "tuple"
        },
        {
          "internalType": "bytes",
          "name": "_extraOptions",
          "type": "bytes"
        },
        {
          "internalType": "bool",
          "name": "_useLZToken",
          "type": "bool"
        }
      ],
      "name": "quoteSendFee",
      "outputs": [
        {
          "internalType": "uint256",
          "name": "nativeFee",
          "type": "uint256"
        },
        {
          "internalType": "uint256",
          "name": "lzTokenFee",
          "type": "uint256"
        }
      ],
      "stateMutability": "view",
      "type": "function"
    },
    {
      "inputs": [],
      "name": "renounceOwnership",
      "outputs": [],
      "stateMutability": "nonpayable",
      "type": "function"
    },
    {
      "inputs": [
        {
          "internalType": "uint32",
          "name": "_eid",
          "type": "uint32"
        }
      ],
      "name": "safeGetPeer",
      "outputs": [
        {
          "internalType": "bytes32",
          "name": "peer",
          "type": "bytes32"
        }
      ],
      "stateMutability": "view",
      "type": "function"
    },
    {
      "inputs": [
        {
          "components": [
            {
              "internalType": "bytes32",
              "name": "to",
              "type": "bytes32"
            },
            {
              "internalType": "uint256",
              "name": "amountLD",
              "type": "uint256"
            },
            {
              "internalType": "uint256",
              "name": "minAmountLD",
              "type": "uint256"
            },
            {
              "internalType": "uint32",
              "name": "dstEid",
              "type": "uint32"
            }
          ],
          "internalType": "struct IOFT.SendParam",
          "name": "_send",
          "type": "tuple"
        },
        {
          "internalType": "bytes",
          "name": "_extraOptions",
          "type": "bytes"
        },
        {
          "components": [
            {
              "internalType": "uint256",
              "name": "nativeFee",
              "type": "uint256"
            },
            {
              "internalType": "uint256",
              "name": "lzTokenFee",
              "type": "uint256"
            }
          ],
          "internalType": "struct MessagingFee",
          "name": "_msgFee",
          "type": "tuple"
        },
        {
          "internalType": "address payable",
          "name": "_refundAddress",
          "type": "address"
        }
      ],
      "name": "send",
      "outputs": [
        {
          "components": [
            {
              "internalType": "bytes32",
              "name": "guid",
              "type": "bytes32"
            },
            {
              "internalType": "uint64",
              "name": "nonce",
              "type": "uint64"
            },
            {
              "components": [
                {
                  "internalType": "uint256",
                  "name": "nativeFee",
                  "type": "uint256"
                },
                {
                  "internalType": "uint256",
                  "name": "lzTokenFee",
                  "type": "uint256"
                }
              ],
              "internalType": "struct MessagingFee",
              "name": "fee",
              "type": "tuple"
            }
          ],
          "internalType": "struct MessagingReceipt",
          "name": "msgReceipt",
          "type": "tuple"
        }
      ],
      "stateMutability": "payable",
      "type": "function"
    },
    {
      "inputs": [
        {
          "components": [
            {
              "internalType": "bytes32",
              "name": "to",
              "type": "bytes32"
            },
            {
              "internalType": "uint256",
              "name": "amountLD",
              "type": "uint256"
            },
            {
              "internalType": "uint256",
              "name": "minAmountLD",
              "type": "uint256"
            },
            {
              "internalType": "uint32",
              "name": "dstEid",
              "type": "uint32"
            }
          ],
          "internalType": "struct IOFT.SendParam",
          "name": "_send",
          "type": "tuple"
        },
        {
          "internalType": "bytes",
          "name": "_extraOptions",
          "type": "bytes"
        },
        {
          "components": [
            {
              "internalType": "uint256",
              "name": "nativeFee",
              "type": "uint256"
            },
            {
              "internalType": "uint256",
              "name": "lzTokenFee",
              "type": "uint256"
            }
          ],
          "internalType": "struct MessagingFee",
          "name": "_msgFee",
          "type": "tuple"
        },
        {
          "internalType": "address payable",
          "name": "_refundAddress",
          "type": "address"
        },
        {
          "internalType": "bytes",
          "name": "_composeMsg",
          "type": "bytes"
        }
      ],
      "name": "sendAndCall",
      "outputs": [
        {
          "components": [
            {
              "internalType": "bytes32",
              "name": "guid",
              "type": "bytes32"
            },
            {
              "internalType": "uint64",
              "name": "nonce",
              "type": "uint64"
            },
            {
              "components": [
                {
                  "internalType": "uint256",
                  "name": "nativeFee",
                  "type": "uint256"
                },
                {
                  "internalType": "uint256",
                  "name": "lzTokenFee",
                  "type": "uint256"
                }
              ],
              "internalType": "struct MessagingFee",
              "name": "fee",
              "type": "tuple"
            }
          ],
          "internalType": "struct MessagingReceipt",
          "name": "msgReceipt",
          "type": "tuple"
        }
      ],
      "stateMutability": "payable",
      "type": "function"
    },
    {
      "inputs": [
        {
          "components": [
            {
              "internalType": "uint16",
              "name": "msgType",
              "type": "uint16"
            },
            {
              "internalType": "uint32",
              "name": "eid",
              "type": "uint32"
            },
            {
              "internalType": "bytes",
              "name": "options",
              "type": "bytes"
            }
          ],
          "internalType": "struct IOApp.EnforcedOptionParam[]",
          "name": "_enforcedOptions",
          "type": "tuple[]"
        }
      ],
      "name": "setEnforcedOptions",
      "outputs": [],
      "stateMutability": "nonpayable",
      "type": "function"
    },
    {
      "inputs": [
        {
          "internalType": "address",
          "name": "_inspector",
          "type": "address"
        }
      ],
      "name": "setInspector",
      "outputs": [],
      "stateMutability": "nonpayable",
      "type": "function"
    },
    {
      "inputs": [
        {
          "internalType": "uint32",
          "name": "_eid",
          "type": "uint32"
        },
        {
          "internalType": "bytes32",
          "name": "_peer",
          "type": "bytes32"
        }
      ],
      "name": "setPeer",
      "outputs": [],
      "stateMutability": "nonpayable",
      "type": "function"
    },
    {
      "inputs": [
        {
          "internalType": "address",
          "name": "_precrime",
          "type": "address"
        }
      ],
      "name": "setPrecrime",
      "outputs": [],
      "stateMutability": "nonpayable",
      "type": "function"
    },
    {
      "inputs": [],
      "name": "sharedDecimals",
      "outputs": [
        {
          "internalType": "uint8",
          "name": "",
          "type": "uint8"
        }
      ],
      "stateMutability": "view",
      "type": "function"
    },
    {
      "inputs": [],
      "name": "symbol",
      "outputs": [
        {
          "internalType": "string",
          "name": "",
          "type": "string"
        }
      ],
      "stateMutability": "view",
      "type": "function"
    },
    {
      "inputs": [],
      "name": "token",
      "outputs": [
        {
          "internalType": "address",
          "name": "",
          "type": "address"
        }
      ],
      "stateMutability": "view",
      "type": "function"
    },
    {
      "inputs": [],
      "name": "totalSupply",
      "outputs": [
        {
          "internalType": "uint256",
          "name": "",
          "type": "uint256"
        }
      ],
      "stateMutability": "view",
      "type": "function"
    },
    {
      "inputs": [
        {
          "internalType": "address",
          "name": "to",
          "type": "address"
        },
        {
          "internalType": "uint256",
          "name": "amount",
          "type": "uint256"
        }
      ],
      "name": "transfer",
      "outputs": [
        {
          "internalType": "bool",
          "name": "",
          "type": "bool"
        }
      ],
      "stateMutability": "nonpayable",
      "type": "function"
    },
    {
      "inputs": [
        {
          "internalType": "address",
          "name": "from",
          "type": "address"
        },
        {
          "internalType": "address",
          "name": "to",
          "type": "address"
        },
        {
          "internalType": "uint256",
          "name": "amount",
          "type": "uint256"
        }
      ],
      "name": "transferFrom",
      "outputs": [
        {
          "internalType": "bool",
          "name": "",
          "type": "bool"
        }
      ],
      "stateMutability": "nonpayable",
      "type": "function"
    },
    {
      "inputs": [
        {
          "internalType": "address",
          "name": "newOwner",
          "type": "address"
        }
      ],
      "name": "transferOwnership",
      "outputs": [],
      "stateMutability": "nonpayable",
      "type": "function"
    },
    {
      "inputs": [],
      "name": "version",
      "outputs": [
        {
          "internalType": "uint256",
          "name": "",
          "type": "uint256"
        }
      ],
      "stateMutability": "view",
      "type": "function"
    },
    {
      "stateMutability": "payable",
      "type": "receive"
    }
  ],
  "bytecode": "0x60c06040523480156200001157600080fd5b5060405162003dce38038062003dce8339810160408190526200003491620001f9565b8383838383838383806200004833620000e4565b6001600160a01b0316608052600660ff831610156200007a576040516384564cb760e01b815260040160405180910390fd5b62000087600683620002b3565b6200009490600a620003d2565b60a0525060089050620000a8838262000479565b506009620000b7828262000479565b50620000c4915050601290565b60ff168260ff1614620000d657600080fd5b505050505050505062000545565b600080546001600160a01b038381166001600160a01b0319831681178455604051919092169283917f8be0079c531659141344cd1fd0a4f28419497f9722a3daafe3b4186f6b6457e09190a35050565b634e487b7160e01b600052604160045260246000fd5b600082601f8301126200015c57600080fd5b81516001600160401b038082111562000179576200017962000134565b604051601f8301601f19908116603f01168101908282118183101715620001a457620001a462000134565b81604052838152602092508683858801011115620001c157600080fd5b600091505b83821015620001e55785820183015181830184015290820190620001c6565b600093810190920192909252949350505050565b600080600080608085870312156200021057600080fd5b84516001600160401b03808211156200022857600080fd5b62000236888389016200014a565b955060208701519150808211156200024d57600080fd5b506200025c878288016200014a565b935050604085015160ff811681146200027457600080fd5b60608601519092506001600160a01b03811681146200029257600080fd5b939692955090935050565b634e487b7160e01b600052601160045260246000fd5b60ff8281168282160390811115620002cf57620002cf6200029d565b92915050565b600181815b8085111562000316578160001904821115620002fa57620002fa6200029d565b808516156200030857918102915b93841c9390800290620002da565b509250929050565b6000826200032f57506001620002cf565b816200033e57506000620002cf565b8160018114620003575760028114620003625762000382565b6001915050620002cf565b60ff8411156200037657620003766200029d565b50506001821b620002cf565b5060208310610133831016604e8410600b8410161715620003a7575081810a620002cf565b620003b38383620002d5565b8060001904821115620003ca57620003ca6200029d565b029392505050565b6000620003e360ff8416836200031e565b9392505050565b600181811c90821680620003ff57607f821691505b6020821081036200042057634e487b7160e01b600052602260045260246000fd5b50919050565b601f8211156200047457600081815260208120601f850160051c810160208610156200044f5750805b601f850160051c820191505b8181101562000470578281556001016200045b565b5050505b505050565b81516001600160401b0381111562000495576200049562000134565b620004ad81620004a68454620003ea565b8462000426565b602080601f831160018114620004e55760008415620004cc5750858301515b600019600386901b1c1916600185901b17855562000470565b600085815260208120601f198616915b828110156200051657888601518255948401946001909101908401620004f5565b5085821015620005355787850151600019600388901b60f8161c191681555b5050505050600190811b01905550565b60805160a0516138326200059c60003960008181612143015281816122de015261248a0152600081816104480152818161096a0152818161131d0152818161194701528181612186015261240301526138326000f3fe6080604052600436106102385760003560e01c80637d25a05e11610138578063baf3292d116100b0578063dd62ed3e1161007f578063f2fde38b11610064578063f2fde38b14610739578063f5c6ba5a14610759578063fc0c546a1461076c57600080fd5b8063dd62ed3e146106b9578063ed2cee9e1461070c57600080fd5b8063baf3292d14610639578063bb0b6a5314610659578063d0a2275314610686578063dbcd3b911461069957600080fd5b806395d89b4111610107578063a457c2d7116100ec578063a457c2d7146105d9578063a9059cbb146105f9578063b0690b3e1461061957600080fd5b806395d89b411461058f578063a41d8a25146105a457600080fd5b80637d25a05e146104e7578063857749b0146105235780638da5cb5b14610537578063950c8a741461056257600080fd5b8063313ce567116101cb5780634e5cbf611161019a5780635e280f111161017f5780635e280f111461043657806370a082311461048f578063715018a6146104d257600080fd5b80634e5cbf611461040157806354fd4d501461042157600080fd5b8063313ce5671461037f5780633400288b146103a157806339509351146103c157806340c10f19146103e157600080fd5b806318160ddd1161020757806318160ddd146102d457806323b872dd146102f357806323d509ba1461031357806326b27f841461035f57600080fd5b806306fdde0314610244578063095ea7b31461026f578063107a93d61461029f57806313137d65146102c157600080fd5b3661023f57005b600080fd5b34801561025057600080fd5b5061025961077f565b6040516102669190612739565b60405180910390f35b34801561027b57600080fd5b5061028f61028a36600461276e565b610811565b6040519015158152602001610266565b3480156102ab57600080fd5b506102bf6102ba3660046127e6565b61082b565b005b6102bf6102cf36600461286a565b610968565b3480156102e057600080fd5b506007545b604051908152602001610266565b3480156102ff57600080fd5b5061028f61030e366004612911565b610a72565b610326610321366004612976565b610a96565b604080518251815260208084015167ffffffffffffffff1681830152928201518051928201929092529101516060820152608001610266565b34801561036b57600080fd5b506102e561037a366004612a07565b610b14565b34801561038b57600080fd5b5060125b60405160ff9091168152602001610266565b3480156103ad57600080fd5b506102bf6103bc366004612a22565b610b6e565b3480156103cd57600080fd5b5061028f6103dc36600461276e565b610c13565b3480156103ed57600080fd5b506102bf6103fc36600461276e565b610c5f565b34801561040d57600080fd5b506102bf61041c366004612a3e565b610c6d565b34801561042d57600080fd5b506102e5600181565b34801561044257600080fd5b5061046a7f000000000000000000000000000000000000000000000000000000000000000081565b60405173ffffffffffffffffffffffffffffffffffffffff9091168152602001610266565b34801561049b57600080fd5b506102e56104aa366004612a3e565b73ffffffffffffffffffffffffffffffffffffffff1660009081526005602052604090205490565b3480156104de57600080fd5b506102bf610cef565b3480156104f357600080fd5b5061050a610502366004612a22565b600092915050565b60405167ffffffffffffffff9091168152602001610266565b34801561052f57600080fd5b50600661038f565b34801561054357600080fd5b5060005473ffffffffffffffffffffffffffffffffffffffff1661046a565b34801561056e57600080fd5b5060035461046a9073ffffffffffffffffffffffffffffffffffffffff1681565b34801561059b57600080fd5b50610259610d03565b3480156105b057600080fd5b506105c46105bf366004612a69565b610d12565b60408051928352602083019190915201610266565b3480156105e557600080fd5b5061028f6105f436600461276e565b610dc9565b34801561060557600080fd5b5061028f61061436600461276e565b610e9a565b34801561062557600080fd5b506105c4610634366004612aff565b610ea8565b34801561064557600080fd5b506102bf610654366004612a3e565b610f34565b34801561066557600080fd5b506102e5610674366004612a07565b60016020526000908152604090205481565b610326610694366004612b66565b610faf565b3480156106a557600080fd5b506102bf6106b4366004612bf3565b611043565b3480156106c557600080fd5b506102e56106d4366004612c29565b73ffffffffffffffffffffffffffffffffffffffff918216600090815260066020908152604080832093909416825291909152205490565b34801561071857600080fd5b5060045461046a9073ffffffffffffffffffffffffffffffffffffffff1681565b34801561074557600080fd5b506102bf610754366004612a3e565b6113bd565b6102bf6107673660046127e6565b611474565b34801561077857600080fd5b503061046a565b60606008805461078e90612c62565b80601f01602080910402602001604051908101604052809291908181526020018280546107ba90612c62565b80156108075780601f106107dc57610100808354040283529160200191610807565b820191906000526020600020905b8154815290600101906020018083116107ea57829003601f168201915b5050505050905090565b60003361081f818585611648565b60019150505b92915050565b6108336117fb565b60005b8181101561092a5782828281811061085057610850612caf565b90506020028101906108629190612cde565b610870906040810190612d1c565b6002600086868681811061088657610886612caf565b90506020028101906108989190612cde565b6108a9906040810190602001612a07565b63ffffffff1663ffffffff16815260200190815260200160002060008686868181106108d7576108d7612caf565b90506020028101906108e99190612cde565b6108f7906020810190612d93565b61ffff168152602081019190915260400160002091610917919083612e2b565b508061092281612f74565b915050610836565b507f0548419a320c116408d237dae51da66dc63603dfd20bd99ba0c8be4c5ff7a200828260405161095c929190612ff5565b60405180910390a15050565b7f000000000000000000000000000000000000000000000000000000000000000073ffffffffffffffffffffffffffffffffffffffff1633146109de576040517fab08c09e0000000000000000000000000000000000000000000000000000000081523360048201526024015b60405180910390fd5b602087018035906109f39061037a908a612a07565b14610a30576040517fc59a4f64000000000000000000000000000000000000000000000000000000008152602088013560048201526024016109d5565b610a5a610a406020890189612a07565b6020890135610a5560608b0160408c01613149565b505050565b610a698787878787878761187c565b50505050505050565b600033610a80858285611a1d565b610a8b858585611af4565b506001949350505050565b610a9e612683565b610b0a86610af3610ab56080830160608401612a07565b600189898080601f016020809104026020016040519081016040528093929190818152602001838380828437600092019190915250611d6a92505050565b858560405180602001604052806000815250611dba565b9695505050505050565b63ffffffff811660009081526001602052604090205480610b69576040517f196fb6c000000000000000000000000000000000000000000000000000000000815263ffffffff831660048201526024016109d5565b919050565b610b766117fb565b63ffffffff8216600090815260016020526040902054819003610bc5576040517f9556766100000000000000000000000000000000000000000000000000000000815260040160405180910390fd5b63ffffffff8216600081815260016020908152604091829020849055815192835282018390527fd81b9101f39c530fa8f18e6c9c5a64e4a3d7cb699e959f5d7abb5951c65e318f910161095c565b33600081815260066020908152604080832073ffffffffffffffffffffffffffffffffffffffff8716845290915281205490919061081f9082908690610c5a908790613166565b611648565b610c698282611fd2565b5050565b610c756117fb565b600480547fffffffffffffffffffffffff00000000000000000000000000000000000000001673ffffffffffffffffffffffffffffffffffffffff83169081179091556040519081527ff8b6b91dd680bf19d37570578ae915537e6e8cd2106736ad3ca05b30447a72b0906020015b60405180910390a150565b610cf76117fb565b610d0160006120c7565b565b60606009805461078e90612c62565b600080610dba610d2860808a0160608b01612a07565b610d638a35610d3a60208d013561213c565b338989604051602001610d4f93929190613179565b604051602081830303815290604052612168565b87610db5610d7760808e0160608f01612a07565b60028d8d8080601f016020809104026020016040519081016040528093929190818152602001838380828437600092019190915250611d6a92505050565b61217f565b90999098509650505050505050565b33600081815260066020908152604080832073ffffffffffffffffffffffffffffffffffffffff8716845290915281205490919083811015610e8d576040517f08c379a000000000000000000000000000000000000000000000000000000000815260206004820152602560248201527f45524332303a2064656372656173656420616c6c6f77616e63652062656c6f7760448201527f207a65726f00000000000000000000000000000000000000000000000000000060648201526084016109d5565b610a8b8286868403611648565b60003361081f818585611af4565b600080610f27610ebe6080880160608901612a07565b610ed58835610ed060208b013561213c565b61223b565b85610db5610ee960808c0160608d01612a07565b60018b8b8080601f016020809104026020016040519081016040528093929190818152602001838380828437600092019190915250611d6a92505050565b9097909650945050505050565b610f3c6117fb565b600380547fffffffffffffffffffffffff00000000000000000000000000000000000000001673ffffffffffffffffffffffffffffffffffffffff83169081179091556040519081527f5db758e995a17ec1ad84bdef7e8c3293a0bd6179bcce400dff5d4c3d87db726b90602001610ce4565b610fb7612683565b6110378861100c610fce6080830160608401612a07565b60028b8b8080601f016020809104026020016040519081016040528093929190818152602001838380828437600092019190915250611d6a92505050565b878733888860405160200161102393929190613179565b604051602081830303815290604052611dba565b98975050505050505050565b61104b6117fb565b60006110578284613193565b90507fffffffff0000000000000000000000000000000000000000000000000000000081167fb8007ff60000000000000000000000000000000000000000000000000000000014806110ea57507fffffffff0000000000000000000000000000000000000000000000000000000081167f9e7fffcc00000000000000000000000000000000000000000000000000000000145b8061113657507fffffffff0000000000000000000000000000000000000000000000000000000081167f0678327f00000000000000000000000000000000000000000000000000000000145b8061118257507fffffffff0000000000000000000000000000000000000000000000000000000081167fb8849ac900000000000000000000000000000000000000000000000000000000145b806111ce57507fffffffff0000000000000000000000000000000000000000000000000000000081167fe16f964d00000000000000000000000000000000000000000000000000000000145b8061121a57507fffffffff0000000000000000000000000000000000000000000000000000000081167f66bf43d600000000000000000000000000000000000000000000000000000000145b8061126657507fffffffff0000000000000000000000000000000000000000000000000000000081167f965183d400000000000000000000000000000000000000000000000000000000145b806112b257507fffffffff0000000000000000000000000000000000000000000000000000000081167feaeacd6300000000000000000000000000000000000000000000000000000000145b611318576040517f08c379a000000000000000000000000000000000000000000000000000000000815260206004820152601a60248201527f4f4170703a2066756e6374696f6e206e6f7420616c6c6f77656400000000000060448201526064016109d5565b6000807f000000000000000000000000000000000000000000000000000000000000000073ffffffffffffffffffffffffffffffffffffffff1685856040516113629291906131db565b6000604051808303816000865af19150503d806000811461139f576040519150601f19603f3d011682016040523d82523d6000602084013e6113a4565b606091505b5091509150816113b657805160208201fd5b5050505050565b6113c56117fb565b73ffffffffffffffffffffffffffffffffffffffff8116611468576040517f08c379a000000000000000000000000000000000000000000000000000000000815260206004820152602660248201527f4f776e61626c653a206e6577206f776e657220697320746865207a65726f206160448201527f646472657373000000000000000000000000000000000000000000000000000060648201526084016109d5565b611471816120c7565b50565b60035473ffffffffffffffffffffffffffffffffffffffff1633146114c7576040517fc023811c0000000000000000000000000000000000000000000000000000000081523360048201526024016109d5565b60005b8181101561155d57368383838181106114e5576114e5612caf565b90506020028101906114f791906131eb565b9050600061150b61037a6020840184612a07565b90506020820135811461151f57505061154b565b6115488260608101356115356080830183612d1c565b3361154360a0890189612d1c565b61187c565b50505b8061155581612f74565b9150506114ca565b50600354604080517fd2968d57000000000000000000000000000000000000000000000000000000008152905160019273ffffffffffffffffffffffffffffffffffffffff169163d2968d579160048083019260009291908290030181865afa1580156115ce573d6000803e3d6000fd5b505050506040513d6000823e601f3d9081017fffffffffffffffffffffffffffffffffffffffffffffffffffffffffffffffe01682016040526116149190810190613248565b6040517f0a78da8f0000000000000000000000000000000000000000000000000000000081526004016109d5929190613313565b73ffffffffffffffffffffffffffffffffffffffff83166116ea576040517f08c379a0000000000000000000000000000000000000000000000000000000008152602060048201526024808201527f45524332303a20617070726f76652066726f6d20746865207a65726f2061646460448201527f726573730000000000000000000000000000000000000000000000000000000060648201526084016109d5565b73ffffffffffffffffffffffffffffffffffffffff821661178d576040517f08c379a000000000000000000000000000000000000000000000000000000000815260206004820152602260248201527f45524332303a20617070726f766520746f20746865207a65726f20616464726560448201527f737300000000000000000000000000000000000000000000000000000000000060648201526084016109d5565b73ffffffffffffffffffffffffffffffffffffffff83811660008181526006602090815260408083209487168084529482529182902085905590518481527f8c5be1e5ebec7d5bd14f71427d1e84f3dd0314c0f7b2291e5b200ac8c7c3b925910160405180910390a3505050565b60005473ffffffffffffffffffffffffffffffffffffffff163314610d01576040517f08c379a000000000000000000000000000000000000000000000000000000000815260206004820181905260248201527f4f776e61626c653a2063616c6c6572206973206e6f7420746865206f776e657260448201526064016109d5565b600061188e61188b8787612295565b90565b905060006118bc6118a76118a289896122b4565b6122d7565b836118b560208d018d612a07565b5090919050565b905060006118ca838361230d565b905060288711156119b45760006119076118ea60608d0160408e01613149565b6118f760208e018e612a07565b846119028d8d61231f565b61236a565b6040517f754d3b9c00000000000000000000000000000000000000000000000000000000815290915073ffffffffffffffffffffffffffffffffffffffff7f0000000000000000000000000000000000000000000000000000000000000000169063754d3b9c906119809087908e908690600401613338565b600060405180830381600087803b15801561199a57600080fd5b505af11580156119ae573d6000803e3d6000fd5b50505050505b6119c161188b8989612295565b73ffffffffffffffffffffffffffffffffffffffff16897ffc1b5feb636aa495ed28914895ca443adffbd4e2da951d5694baa392b4ebd15883604051611a0991815260200190565b60405180910390a350505050505050505050565b73ffffffffffffffffffffffffffffffffffffffff8381166000908152600660209081526040808320938616835292905220547fffffffffffffffffffffffffffffffffffffffffffffffffffffffffffffffff8114611aee5781811015611ae1576040517f08c379a000000000000000000000000000000000000000000000000000000000815260206004820152601d60248201527f45524332303a20696e73756666696369656e7420616c6c6f77616e636500000060448201526064016109d5565b611aee8484848403611648565b50505050565b73ffffffffffffffffffffffffffffffffffffffff8316611b97576040517f08c379a000000000000000000000000000000000000000000000000000000000815260206004820152602560248201527f45524332303a207472616e736665722066726f6d20746865207a65726f20616460448201527f647265737300000000000000000000000000000000000000000000000000000060648201526084016109d5565b73ffffffffffffffffffffffffffffffffffffffff8216611c3a576040517f08c379a000000000000000000000000000000000000000000000000000000000815260206004820152602360248201527f45524332303a207472616e7366657220746f20746865207a65726f206164647260448201527f657373000000000000000000000000000000000000000000000000000000000060648201526084016109d5565b73ffffffffffffffffffffffffffffffffffffffff831660009081526005602052604090205481811015611cf0576040517f08c379a000000000000000000000000000000000000000000000000000000000815260206004820152602660248201527f45524332303a207472616e7366657220616d6f756e742065786365656473206260448201527f616c616e6365000000000000000000000000000000000000000000000000000060648201526084016109d5565b73ffffffffffffffffffffffffffffffffffffffff80851660008181526005602052604080822086860390559286168082529083902080548601905591517fddf252ad1be2c89b69c2b068fc378daa952ba7f163c4a11628f55a4df523b3ef90611d5d9086815260200190565b60405180910390a3611aee565b63ffffffff8316600090815260026020908152604080832061ffff861684528252918290209151606092611da292909185910161336d565b60405160208183030381529060405290509392505050565b611dc2612683565b6000611de06020880135611ddc60808a0160608b01612a07565b5090565b90506000611ded8261239c565b90508760400135811015611e3a57604080517fac7247ca000000000000000000000000000000000000000000000000000000008152600481018390529089013560248201526044016109d5565b60608451600003611e5a57611e538935610ed08461213c565b9050611e71565b611e6e8935611e688461213c565b87612168565b90505b60045473ffffffffffffffffffffffffffffffffffffffff1615611f2957600480546040517f043a78eb00000000000000000000000000000000000000000000000000000000815273ffffffffffffffffffffffffffffffffffffffff9091169163043a78eb91611ee69185918d9101613412565b602060405180830381865afa158015611f03573d6000803e3d6000fd5b505050506040513d601f19601f82011682018060405250810190611f279190613437565b505b611f8c60405180608001604052808b6060016020810190611f4a9190612a07565b63ffffffff168152602001611f6861037a60808e0160608f01612a07565b8152602081018490526040018a9052611f86368a90038a018a613454565b886123b4565b805160405184815291955033917f3131f8d7ad296b074b480a9f6b3a760579632740b870b78725975df31c5da7789060200160405180910390a350505095945050505050565b73ffffffffffffffffffffffffffffffffffffffff821661204f576040517f08c379a000000000000000000000000000000000000000000000000000000000815260206004820152601f60248201527f45524332303a206d696e7420746f20746865207a65726f20616464726573730060448201526064016109d5565b80600760008282546120619190613166565b909155505073ffffffffffffffffffffffffffffffffffffffff82166000818152600560209081526040808320805486019055518481527fddf252ad1be2c89b69c2b068fc378daa952ba7f163c4a11628f55a4df523b3ef910160405180910390a35050565b6000805473ffffffffffffffffffffffffffffffffffffffff8381167fffffffffffffffffffffffff0000000000000000000000000000000000000000831681178455604051919092169283917f8be0079c531659141344cd1fd0a4f28419497f9722a3daafe3b4186f6b6457e09190a35050565b60006108257f000000000000000000000000000000000000000000000000000000000000000083613486565b6060838383604051602001611da2939291906134c1565b60008060007f000000000000000000000000000000000000000000000000000000000000000073ffffffffffffffffffffffffffffffffffffffff166383c4755930898989896040518663ffffffff1660e01b81526004016121e5959493929190613513565b6040805180830381865afa158015612201573d6000803e3d6000fd5b505050506040513d601f19601f820116820180604052508101906122259190613598565b8051602090910151909890975095505050505050565b6060828260405160200161227e92919091825260c01b7fffffffffffffffff00000000000000000000000000000000000000000000000016602082015260280190565b604051602081830303815290604052905092915050565b60006122a460208284866135b4565b6122ad916135de565b9392505050565b60006122c46028602084866135b4565b6122cd9161361a565b60c01c9392505050565b60006108257f000000000000000000000000000000000000000000000000000000000000000067ffffffffffffffff8416613660565b60006123198383611fd2565b50919050565b606061232e82602881866135b4565b8080601f016020809104026020016040519081016040528093929190818152602001838380828437600092019190915250929695505050505050565b6060848484846040516020016123839493929190613677565b6040516020818303038152906040529050949350505050565b6000806123a883612486565b905061082533826124bd565b6123bc612683565b825160208401516040517faca1b45a00000000000000000000000000000000000000000000000000000000815260009273ffffffffffffffffffffffffffffffffffffffff7f0000000000000000000000000000000000000000000000000000000000000000169263aca1b45a9261243a918a9189906004016136f5565b60806040518083038185885af1158015612458573d6000803e3d6000fd5b50505050506040513d601f19601f8201168201806040525081019061247d9190613794565b95945050505050565b60007f00000000000000000000000000000000000000000000000000000000000000006124b38184613486565b6108259190613660565b73ffffffffffffffffffffffffffffffffffffffff8216612560576040517f08c379a000000000000000000000000000000000000000000000000000000000815260206004820152602160248201527f45524332303a206275726e2066726f6d20746865207a65726f2061646472657360448201527f730000000000000000000000000000000000000000000000000000000000000060648201526084016109d5565b73ffffffffffffffffffffffffffffffffffffffff821660009081526005602052604090205481811015612616576040517f08c379a000000000000000000000000000000000000000000000000000000000815260206004820152602260248201527f45524332303a206275726e20616d6f756e7420657863656564732062616c616e60448201527f636500000000000000000000000000000000000000000000000000000000000060648201526084016109d5565b73ffffffffffffffffffffffffffffffffffffffff831660008181526005602090815260408083208686039055600780548790039055518581529192917fddf252ad1be2c89b69c2b068fc378daa952ba7f163c4a11628f55a4df523b3ef910160405180910390a3505050565b604051806060016040528060008019168152602001600067ffffffffffffffff1681526020016126c6604051806040016040528060008152602001600081525090565b905290565b60005b838110156126e65781810151838201526020016126ce565b50506000910152565b600081518084526127078160208601602086016126cb565b601f017fffffffffffffffffffffffffffffffffffffffffffffffffffffffffffffffe0169290920160200192915050565b6020815260006122ad60208301846126ef565b73ffffffffffffffffffffffffffffffffffffffff8116811461147157600080fd5b6000806040838503121561278157600080fd5b823561278c8161274c565b946020939093013593505050565b60008083601f8401126127ac57600080fd5b50813567ffffffffffffffff8111156127c457600080fd5b6020830191508360208260051b85010111156127df57600080fd5b9250929050565b600080602083850312156127f957600080fd5b823567ffffffffffffffff81111561281057600080fd5b61281c8582860161279a565b90969095509350505050565b60008083601f84011261283a57600080fd5b50813567ffffffffffffffff81111561285257600080fd5b6020830191508360208285010111156127df57600080fd5b600080600080600080600087890360e081121561288657600080fd5b606081121561289457600080fd5b5087965060608801359550608088013567ffffffffffffffff808211156128ba57600080fd5b6128c68b838c01612828565b909750955060a08a013591506128db8261274c565b90935060c089013590808211156128f157600080fd5b506128fe8a828b01612828565b989b979a50959850939692959293505050565b60008060006060848603121561292657600080fd5b83356129318161274c565b925060208401356129418161274c565b929592945050506040919091013590565b60006080828403121561231957600080fd5b60006040828403121561231957600080fd5b6000806000806000610100868803121561298f57600080fd5b6129998787612952565b9450608086013567ffffffffffffffff8111156129b557600080fd5b6129c188828901612828565b90955093506129d590508760a08801612964565b915060e08601356129e58161274c565b809150509295509295909350565b803563ffffffff81168114610b6957600080fd5b600060208284031215612a1957600080fd5b6122ad826129f3565b60008060408385031215612a3557600080fd5b61278c836129f3565b600060208284031215612a5057600080fd5b81356122ad8161274c565b801515811461147157600080fd5b60008060008060008060e08789031215612a8257600080fd5b612a8c8888612952565b9550608087013567ffffffffffffffff80821115612aa957600080fd5b612ab58a838b01612828565b909750955060a08901359150612aca82612a5b565b90935060c08801359080821115612ae057600080fd5b50612aed89828a01612828565b979a9699509497509295939492505050565b60008060008060c08587031215612b1557600080fd5b612b1f8686612952565b9350608085013567ffffffffffffffff811115612b3b57600080fd5b612b4787828801612828565b90945092505060a0850135612b5b81612a5b565b939692955090935050565b6000806000806000806000610120888a031215612b8257600080fd5b612b8c8989612952565b9650608088013567ffffffffffffffff80821115612ba957600080fd5b612bb58b838c01612828565b9098509650869150612bca8b60a08c01612964565b955060e08a01359150612bdc8261274c565b90935061010089013590808211156128f157600080fd5b60008060208385031215612c0657600080fd5b823567ffffffffffffffff811115612c1d57600080fd5b61281c85828601612828565b60008060408385031215612c3c57600080fd5b8235612c478161274c565b91506020830135612c578161274c565b809150509250929050565b600181811c90821680612c7657607f821691505b602082108103612319577f4e487b7100000000000000000000000000000000000000000000000000000000600052602260045260246000fd5b7f4e487b7100000000000000000000000000000000000000000000000000000000600052603260045260246000fd5b600082357fffffffffffffffffffffffffffffffffffffffffffffffffffffffffffffffa1833603018112612d1257600080fd5b9190910192915050565b60008083357fffffffffffffffffffffffffffffffffffffffffffffffffffffffffffffffe1843603018112612d5157600080fd5b83018035915067ffffffffffffffff821115612d6c57600080fd5b6020019150368190038213156127df57600080fd5b803561ffff81168114610b6957600080fd5b600060208284031215612da557600080fd5b6122ad82612d81565b7f4e487b7100000000000000000000000000000000000000000000000000000000600052604160045260246000fd5b601f821115610a5557600081815260208120601f850160051c81016020861015612e045750805b601f850160051c820191505b81811015612e2357828155600101612e10565b505050505050565b67ffffffffffffffff831115612e4357612e43612dae565b612e5783612e518354612c62565b83612ddd565b6000601f841160018114612ea95760008515612e735750838201355b7fffffffffffffffffffffffffffffffffffffffffffffffffffffffffffffffff600387901b1c1916600186901b1783556113b6565b6000838152602090207fffffffffffffffffffffffffffffffffffffffffffffffffffffffffffffffe0861690835b82811015612ef85786850135825560209485019460019092019101612ed8565b5086821015612f33577fffffffffffffffffffffffffffffffffffffffffffffffffffffffffffffffff60f88860031b161c19848701351681555b505060018560011b0183555050505050565b7f4e487b7100000000000000000000000000000000000000000000000000000000600052601160045260246000fd5b60007fffffffffffffffffffffffffffffffffffffffffffffffffffffffffffffffff8203612fa557612fa5612f45565b5060010190565b8183528181602085013750600060208284010152600060207fffffffffffffffffffffffffffffffffffffffffffffffffffffffffffffffe0601f840116840101905092915050565b60208082528181018390526000906040808401600586901b8501820187855b88811015613125577fffffffffffffffffffffffffffffffffffffffffffffffffffffffffffffffc088840301845281357fffffffffffffffffffffffffffffffffffffffffffffffffffffffffffffffa18b360301811261307557600080fd5b8a01606061ffff61308583612d81565b16855263ffffffff6130988984016129f3565b1688860152868201357fffffffffffffffffffffffffffffffffffffffffffffffffffffffffffffffe18336030181126130d157600080fd5b90910187810191903567ffffffffffffffff8111156130ef57600080fd5b8036038313156130fe57600080fd5b81888701526131108287018285612fac565b96890196955050509186019150600101613014565b509098975050505050505050565b67ffffffffffffffff8116811461147157600080fd5b60006020828403121561315b57600080fd5b81356122ad81613133565b8082018082111561082557610825612f45565b838152818360208301376000910160200190815292915050565b7fffffffff0000000000000000000000000000000000000000000000000000000081358181169160048510156131d35780818660040360031b1b83161692505b505092915050565b8183823760009101908152919050565b600082357fffffffffffffffffffffffffffffffffffffffffffffffffffffffffffffff41833603018112612d1257600080fd5b6040805190810167ffffffffffffffff8111828210171561324257613242612dae565b60405290565b60006020828403121561325a57600080fd5b815167ffffffffffffffff8082111561327257600080fd5b818401915084601f83011261328657600080fd5b81518181111561329857613298612dae565b604051601f82017fffffffffffffffffffffffffffffffffffffffffffffffffffffffffffffffe0908116603f011681019083821181831017156132de576132de612dae565b816040528281528760208487010111156132f757600080fd5b6133088360208301602088016126cb565b979650505050505050565b61ffff8316815260406020820152600061333060408301846126ef565b949350505050565b73ffffffffffffffffffffffffffffffffffffffff8416815282602082015260606040820152600061247d60608301846126ef565b600080845461337b81612c62565b6001828116801561339357600181146133c6576133f5565b7fffffffffffffffffffffffffffffffffffffffffffffffffffffffffffffff00841687528215158302870194506133f5565b8860005260208060002060005b858110156133ec5781548a8201529084019082016133d3565b50505082870194505b5050505083516134098183602088016126cb565b01949350505050565b60408152600061342560408301856126ef565b828103602084015261247d81856126ef565b60006020828403121561344957600080fd5b81516122ad81612a5b565b60006040828403121561346657600080fd5b61346e61321f565b82358152602083013560208201528091505092915050565b6000826134bc577f4e487b7100000000000000000000000000000000000000000000000000000000600052601260045260246000fd5b500490565b8381527fffffffffffffffff0000000000000000000000000000000000000000000000008360c01b166020820152600082516135048160288501602087016126cb565b91909101602801949350505050565b73ffffffffffffffffffffffffffffffffffffffff8616815263ffffffff8516602082015260a06040820152600061354e60a08301866126ef565b8415156060840152828103608084015261103781856126ef565b60006040828403121561357a57600080fd5b61358261321f565b9050815181526020820151602082015292915050565b6000604082840312156135aa57600080fd5b6122ad8383613568565b600080858511156135c457600080fd5b838611156135d157600080fd5b5050820193919092039150565b80356020831015610825577fffffffffffffffffffffffffffffffffffffffffffffffffffffffffffffffff602084900360031b1b1692915050565b7fffffffffffffffff00000000000000000000000000000000000000000000000081358181169160088510156131d35760089490940360031b84901b1690921692915050565b808202811582820484141761082557610825612f45565b7fffffffffffffffff0000000000000000000000000000000000000000000000008560c01b1681527fffffffff000000000000000000000000000000000000000000000000000000008460e01b16600882015282600c820152600082516136e581602c8501602087016126cb565b91909101602c0195945050505050565b6060815263ffffffff84511660608201526020840151608082015260006040850151608060a084015261372b60e08401826126ef565b905060608601517fffffffffffffffffffffffffffffffffffffffffffffffffffffffffffffffa08483030160c085015261376682826126ef565b9250505083602083015273ffffffffffffffffffffffffffffffffffffffff83166040830152949350505050565b6000608082840312156137a657600080fd5b6040516060810181811067ffffffffffffffff821117156137c9576137c9612dae565b6040528251815260208301516137de81613133565b60208201526137f08460408501613568565b6040820152939250505056fea26469706673582212207ac44f5978da431718c514d0c865996692bf6c40e6f42cf479c8fc7e9ca3b11b64736f6c63430008130033",
  "linkReferences": {},
  "deployedLinkReferences": {}
}