{
  "_format": "hh-sol-artifact-1",
  "contractName": "TestOFT",
  "sourceName": "contracts/standards/oft/mocks/TestOFT.sol",
  "abi": [
    {
      "inputs": [
        {
          "internalType": "string",
          "name": "_name",
          "type": "string"
        },
        {
          "internalType": "string",
          "name": "_symbol",
          "type": "string"
        },
        {
          "internalType": "uint8",
          "name": "_localDecimals",
          "type": "uint8"
        },
        {
          "internalType": "address",
          "name": "_endpoint",
          "type": "address"
        }
      ],
      "stateMutability": "nonpayable",
      "type": "constructor"
    },
    {
      "inputs": [
        {
          "internalType": "uint256",
          "name": "_amountLDSend",
          "type": "uint256"
        },
        {
          "internalType": "uint256",
          "name": "_minAmountLD",
          "type": "uint256"
        }
      ],
      "name": "AmountSlippage",
      "type": "error"
    },
    {
      "inputs": [
        {
          "internalType": "address",
          "name": "addr",
          "type": "address"
        }
      ],
      "name": "EndpointOnly",
      "type": "error"
    },
    {
      "inputs": [
        {
          "internalType": "bytes32",
          "name": "addr",
          "type": "bytes32"
        }
      ],
      "name": "InvalidPeer",
      "type": "error"
    },
    {
      "inputs": [],
      "name": "InvalidPeerState",
      "type": "error"
    },
    {
      "inputs": [],
      "name": "LDMinusSD",
      "type": "error"
    },
    {
      "inputs": [
        {
          "internalType": "uint16",
          "name": "code",
          "type": "uint16"
        },
        {
          "internalType": "bytes",
          "name": "result",
          "type": "bytes"
        }
      ],
      "name": "LzReceiveRevert",
      "type": "error"
    },
    {
      "inputs": [
        {
          "internalType": "uint32",
          "name": "eid",
          "type": "uint32"
        }
      ],
      "name": "NoPeerSet",
      "type": "error"
    },
    {
      "inputs": [
        {
          "internalType": "address",
          "name": "addr",
          "type": "address"
        }
      ],
      "name": "PreCrimeOnly",
      "type": "error"
    },
    {
      "anonymous": false,
      "inputs": [
        {
          "indexed": true,
          "internalType": "address",
          "name": "owner",
          "type": "address"
        },
        {
          "indexed": true,
          "internalType": "address",
          "name": "spender",
          "type": "address"
        },
        {
          "indexed": false,
          "internalType": "uint256",
          "name": "value",
          "type": "uint256"
        }
      ],
      "name": "Approval",
      "type": "event"
    },
    {
      "anonymous": false,
      "inputs": [
        {
          "indexed": true,
          "internalType": "address",
          "name": "previousOwner",
          "type": "address"
        },
        {
          "indexed": true,
          "internalType": "address",
          "name": "newOwner",
          "type": "address"
        }
      ],
      "name": "OwnershipTransferred",
      "type": "event"
    },
    {
      "anonymous": false,
      "inputs": [
        {
          "indexed": true,
          "internalType": "bytes32",
          "name": "_guid",
          "type": "bytes32"
        },
        {
          "indexed": true,
          "internalType": "address",
          "name": "_toAddress",
          "type": "address"
        },
        {
          "indexed": false,
          "internalType": "uint256",
          "name": "_amountLD",
          "type": "uint256"
        }
      ],
      "name": "ReceiveOFT",
      "type": "event"
    },
    {
      "anonymous": false,
      "inputs": [
        {
          "indexed": true,
          "internalType": "bytes32",
          "name": "_guid",
          "type": "bytes32"
        },
        {
          "indexed": true,
          "internalType": "address",
          "name": "_fromAddress",
          "type": "address"
        },
        {
          "indexed": false,
          "internalType": "uint256",
          "name": "_amountLD",
          "type": "uint256"
        }
      ],
      "name": "SendOFT",
      "type": "event"
    },
    {
      "anonymous": false,
      "inputs": [
        {
          "components": [
            {
              "internalType": "uint256",
              "name": "executionType",
              "type": "uint256"
            },
            {
              "internalType": "uint32",
              "name": "eid",
              "type": "uint32"
            },
            {
              "internalType": "bytes",
              "name": "options",
              "type": "bytes"
            }
          ],
          "indexed": false,
          "internalType": "struct IOFT.EnforcedOptionParam[]",
          "name": "_enforcedOptions",
          "type": "tuple[]"
        }
      ],
      "name": "SetEnforcedOption",
      "type": "event"
    },
    {
      "anonymous": false,
      "inputs": [
        {
          "indexed": false,
          "internalType": "address",
          "name": "_inspector",
          "type": "address"
        }
      ],
      "name": "SetInspector",
      "type": "event"
    },
    {
      "anonymous": false,
      "inputs": [
        {
          "indexed": false,
          "internalType": "uint32",
          "name": "remoteEid",
          "type": "uint32"
        },
        {
          "indexed": false,
          "internalType": "bytes32",
          "name": "peer",
          "type": "bytes32"
        },
        {
          "indexed": false,
          "internalType": "bool",
          "name": "active",
          "type": "bool"
        }
      ],
      "name": "SetPeer",
      "type": "event"
    },
    {
      "anonymous": false,
      "inputs": [
        {
          "indexed": false,
          "internalType": "address",
          "name": "precrime",
          "type": "address"
        }
      ],
      "name": "SetPrecrime",
      "type": "event"
    },
    {
      "anonymous": false,
      "inputs": [
        {
          "indexed": true,
          "internalType": "address",
          "name": "from",
          "type": "address"
        },
        {
          "indexed": true,
          "internalType": "address",
          "name": "to",
          "type": "address"
        },
        {
          "indexed": false,
          "internalType": "uint256",
          "name": "value",
          "type": "uint256"
        }
      ],
      "name": "Transfer",
      "type": "event"
    },
    {
      "inputs": [
        {
          "internalType": "address",
          "name": "owner",
          "type": "address"
        },
        {
          "internalType": "address",
          "name": "spender",
          "type": "address"
        }
      ],
      "name": "allowance",
      "outputs": [
        {
          "internalType": "uint256",
          "name": "",
          "type": "uint256"
        }
      ],
      "stateMutability": "view",
      "type": "function"
    },
    {
      "inputs": [
        {
          "internalType": "address",
          "name": "spender",
          "type": "address"
        },
        {
          "internalType": "uint256",
          "name": "amount",
          "type": "uint256"
        }
      ],
      "name": "approve",
      "outputs": [
        {
          "internalType": "bool",
          "name": "",
          "type": "bool"
        }
      ],
      "stateMutability": "nonpayable",
      "type": "function"
    },
    {
      "inputs": [
        {
          "internalType": "address",
          "name": "account",
          "type": "address"
        }
      ],
      "name": "balanceOf",
      "outputs": [
        {
          "internalType": "uint256",
          "name": "",
          "type": "uint256"
        }
      ],
      "stateMutability": "view",
      "type": "function"
    },
    {
      "inputs": [],
      "name": "decimals",
      "outputs": [
        {
          "internalType": "uint8",
          "name": "",
          "type": "uint8"
        }
      ],
      "stateMutability": "view",
      "type": "function"
    },
    {
      "inputs": [
        {
          "internalType": "address",
          "name": "spender",
          "type": "address"
        },
        {
          "internalType": "uint256",
          "name": "subtractedValue",
          "type": "uint256"
        }
      ],
      "name": "decreaseAllowance",
      "outputs": [
        {
          "internalType": "bool",
          "name": "",
          "type": "bool"
        }
      ],
      "stateMutability": "nonpayable",
      "type": "function"
    },
    {
      "inputs": [],
      "name": "endpoint",
      "outputs": [
        {
          "internalType": "contract ILayerZeroEndpointV2",
          "name": "",
          "type": "address"
        }
      ],
      "stateMutability": "view",
      "type": "function"
    },
    {
      "inputs": [
        {
          "internalType": "address",
          "name": "spender",
          "type": "address"
        },
        {
          "internalType": "uint256",
          "name": "addedValue",
          "type": "uint256"
        }
      ],
      "name": "increaseAllowance",
      "outputs": [
        {
          "internalType": "bool",
          "name": "",
          "type": "bool"
        }
      ],
      "stateMutability": "nonpayable",
      "type": "function"
    },
    {
      "inputs": [],
      "name": "inspector",
      "outputs": [
        {
          "internalType": "contract IInspector",
          "name": "",
          "type": "address"
        }
      ],
      "stateMutability": "view",
      "type": "function"
    },
    {
      "inputs": [
        {
          "components": [
            {
              "internalType": "uint32",
              "name": "srcEid",
              "type": "uint32"
            },
            {
              "internalType": "bytes32",
              "name": "sender",
              "type": "bytes32"
            },
            {
              "internalType": "uint64",
              "name": "nonce",
              "type": "uint64"
            }
          ],
          "internalType": "struct IMessageOrigin.MessageOrigin",
          "name": "_origin",
          "type": "tuple"
        },
        {
          "internalType": "bytes32",
          "name": "_guid",
          "type": "bytes32"
        },
        {
          "internalType": "bytes",
          "name": "_message",
          "type": "bytes"
        },
        {
          "internalType": "address",
          "name": "_executor",
          "type": "address"
        },
        {
          "internalType": "bytes",
          "name": "_extraData",
          "type": "bytes"
        }
      ],
      "name": "lzReceive",
      "outputs": [],
      "stateMutability": "payable",
      "type": "function"
    },
    {
      "inputs": [
        {
          "components": [
            {
              "components": [
                {
                  "internalType": "uint32",
                  "name": "srcEid",
                  "type": "uint32"
                },
                {
                  "internalType": "bytes32",
                  "name": "sender",
                  "type": "bytes32"
                },
                {
                  "internalType": "uint64",
                  "name": "nonce",
                  "type": "uint64"
                }
              ],
              "internalType": "struct IMessageOrigin.MessageOrigin",
              "name": "origin",
              "type": "tuple"
            },
            {
              "internalType": "bytes32",
              "name": "guid",
              "type": "bytes32"
            },
            {
              "internalType": "bytes",
              "name": "message",
              "type": "bytes"
            },
            {
              "internalType": "bytes",
              "name": "callParams",
              "type": "bytes"
            }
          ],
          "internalType": "struct IPreCrime.Packet[]",
          "name": "_packets",
          "type": "tuple[]"
        }
      ],
      "name": "lzReceiveAndRevert",
      "outputs": [],
      "stateMutability": "payable",
      "type": "function"
    },
    {
      "inputs": [
        {
          "internalType": "address",
          "name": "_to",
          "type": "address"
        },
        {
          "internalType": "uint256",
          "name": "_amount",
          "type": "uint256"
        }
      ],
      "name": "mint",
      "outputs": [],
      "stateMutability": "nonpayable",
      "type": "function"
    },
    {
      "inputs": [],
      "name": "name",
      "outputs": [
        {
          "internalType": "string",
          "name": "",
          "type": "string"
        }
      ],
      "stateMutability": "view",
      "type": "function"
    },
    {
      "inputs": [
        {
          "internalType": "uint32",
          "name": "",
          "type": "uint32"
        },
        {
          "internalType": "bytes32",
          "name": "",
          "type": "bytes32"
        }
      ],
      "name": "nextNonce",
      "outputs": [
        {
          "internalType": "uint64",
          "name": "",
          "type": "uint64"
        }
      ],
      "stateMutability": "view",
      "type": "function"
    },
    {
      "inputs": [],
      "name": "owner",
      "outputs": [
        {
          "internalType": "address",
          "name": "",
          "type": "address"
        }
      ],
      "stateMutability": "view",
      "type": "function"
    },
    {
      "inputs": [
        {
          "internalType": "uint32",
          "name": "",
          "type": "uint32"
        }
      ],
      "name": "peers",
      "outputs": [
        {
          "internalType": "bytes32",
          "name": "",
          "type": "bytes32"
        }
      ],
      "stateMutability": "view",
      "type": "function"
    },
    {
      "inputs": [],
      "name": "precrime",
      "outputs": [
        {
          "internalType": "contract IPreCrime",
          "name": "",
          "type": "address"
        }
      ],
      "stateMutability": "view",
      "type": "function"
    },
    {
      "inputs": [
        {
          "components": [
            {
              "internalType": "bytes32",
              "name": "to",
              "type": "bytes32"
            },
            {
              "internalType": "uint256",
              "name": "amountLD",
              "type": "uint256"
            },
            {
              "internalType": "uint256",
              "name": "minAmountLD",
              "type": "uint256"
            },
            {
              "internalType": "uint32",
              "name": "dstEid",
              "type": "uint32"
            }
          ],
          "internalType": "struct IOFT.SendParam",
          "name": "_send",
          "type": "tuple"
        },
        {
          "internalType": "bytes",
          "name": "_extraOptions",
          "type": "bytes"
        },
        {
          "internalType": "bool",
          "name": "_useLZToken",
          "type": "bool"
        },
        {
          "internalType": "bytes",
          "name": "_composeMsg",
          "type": "bytes"
        }
      ],
      "name": "quoteSendAndCallFee",
      "outputs": [
        {
          "internalType": "uint256",
          "name": "nativeFee",
          "type": "uint256"
        },
        {
          "internalType": "uint256",
          "name": "lzTokenFee",
          "type": "uint256"
        }
      ],
      "stateMutability": "view",
      "type": "function"
    },
    {
      "inputs": [
        {
          "components": [
            {
              "internalType": "bytes32",
              "name": "to",
              "type": "bytes32"
            },
            {
              "internalType": "uint256",
              "name": "amountLD",
              "type": "uint256"
            },
            {
              "internalType": "uint256",
              "name": "minAmountLD",
              "type": "uint256"
            },
            {
              "internalType": "uint32",
              "name": "dstEid",
              "type": "uint32"
            }
          ],
          "internalType": "struct IOFT.SendParam",
          "name": "_send",
          "type": "tuple"
        },
        {
          "internalType": "bytes",
          "name": "_extraOptions",
          "type": "bytes"
        },
        {
          "internalType": "bool",
          "name": "_useLZToken",
          "type": "bool"
        }
      ],
      "name": "quoteSendFee",
      "outputs": [
        {
          "internalType": "uint256",
          "name": "nativeFee",
          "type": "uint256"
        },
        {
          "internalType": "uint256",
          "name": "lzTokenFee",
          "type": "uint256"
        }
      ],
      "stateMutability": "view",
      "type": "function"
    },
    {
      "inputs": [],
      "name": "renounceOwnership",
      "outputs": [],
      "stateMutability": "nonpayable",
      "type": "function"
    },
    {
      "inputs": [
        {
          "internalType": "uint32",
          "name": "_eid",
          "type": "uint32"
        }
      ],
      "name": "safeGetPeer",
      "outputs": [
        {
          "internalType": "bytes32",
          "name": "peer",
          "type": "bytes32"
        }
      ],
      "stateMutability": "view",
      "type": "function"
    },
    {
      "inputs": [
        {
          "components": [
            {
              "internalType": "bytes32",
              "name": "to",
              "type": "bytes32"
            },
            {
              "internalType": "uint256",
              "name": "amountLD",
              "type": "uint256"
            },
            {
              "internalType": "uint256",
              "name": "minAmountLD",
              "type": "uint256"
            },
            {
              "internalType": "uint32",
              "name": "dstEid",
              "type": "uint32"
            }
          ],
          "internalType": "struct IOFT.SendParam",
          "name": "_send",
          "type": "tuple"
        },
        {
          "internalType": "bytes",
          "name": "_extraOptions",
          "type": "bytes"
        },
        {
          "components": [
            {
              "internalType": "uint256",
              "name": "nativeFee",
              "type": "uint256"
            },
            {
              "internalType": "uint256",
              "name": "lzTokenFee",
              "type": "uint256"
            }
          ],
          "internalType": "struct ILayerZeroEndpointV2.MessagingFee",
          "name": "_msgFee",
          "type": "tuple"
        },
        {
          "internalType": "address payable",
          "name": "_refundAddress",
          "type": "address"
        }
      ],
      "name": "send",
      "outputs": [
        {
          "components": [
            {
              "internalType": "bytes32",
              "name": "guid",
              "type": "bytes32"
            },
            {
              "internalType": "uint64",
              "name": "nonce",
              "type": "uint64"
            },
            {
              "components": [
                {
                  "internalType": "uint256",
                  "name": "nativeFee",
                  "type": "uint256"
                },
                {
                  "internalType": "uint256",
                  "name": "lzTokenFee",
                  "type": "uint256"
                }
              ],
              "internalType": "struct ILayerZeroEndpointV2.MessagingFee",
              "name": "fee",
              "type": "tuple"
            }
          ],
          "internalType": "struct ILayerZeroEndpointV2.MessagingReceipt",
          "name": "msgReceipt",
          "type": "tuple"
        }
      ],
      "stateMutability": "payable",
      "type": "function"
    },
    {
      "inputs": [
        {
          "components": [
            {
              "internalType": "bytes32",
              "name": "to",
              "type": "bytes32"
            },
            {
              "internalType": "uint256",
              "name": "amountLD",
              "type": "uint256"
            },
            {
              "internalType": "uint256",
              "name": "minAmountLD",
              "type": "uint256"
            },
            {
              "internalType": "uint32",
              "name": "dstEid",
              "type": "uint32"
            }
          ],
          "internalType": "struct IOFT.SendParam",
          "name": "_send",
          "type": "tuple"
        },
        {
          "internalType": "bytes",
          "name": "_extraOptions",
          "type": "bytes"
        },
        {
          "components": [
            {
              "internalType": "uint256",
              "name": "nativeFee",
              "type": "uint256"
            },
            {
              "internalType": "uint256",
              "name": "lzTokenFee",
              "type": "uint256"
            }
          ],
          "internalType": "struct ILayerZeroEndpointV2.MessagingFee",
          "name": "_msgFee",
          "type": "tuple"
        },
        {
          "internalType": "address payable",
          "name": "_refundAddress",
          "type": "address"
        },
        {
          "internalType": "bytes",
          "name": "_composeMsg",
          "type": "bytes"
        }
      ],
      "name": "sendAndCall",
      "outputs": [
        {
          "components": [
            {
              "internalType": "bytes32",
              "name": "guid",
              "type": "bytes32"
            },
            {
              "internalType": "uint64",
              "name": "nonce",
              "type": "uint64"
            },
            {
              "components": [
                {
                  "internalType": "uint256",
                  "name": "nativeFee",
                  "type": "uint256"
                },
                {
                  "internalType": "uint256",
                  "name": "lzTokenFee",
                  "type": "uint256"
                }
              ],
              "internalType": "struct ILayerZeroEndpointV2.MessagingFee",
              "name": "fee",
              "type": "tuple"
            }
          ],
          "internalType": "struct ILayerZeroEndpointV2.MessagingReceipt",
          "name": "msgReceipt",
          "type": "tuple"
        }
      ],
      "stateMutability": "payable",
      "type": "function"
    },
    {
      "inputs": [
        {
          "internalType": "bytes",
          "name": "_config",
          "type": "bytes"
        }
      ],
      "name": "setEndpointConfig",
      "outputs": [],
      "stateMutability": "nonpayable",
      "type": "function"
    },
    {
      "inputs": [
        {
          "components": [
            {
              "internalType": "uint256",
              "name": "executionType",
              "type": "uint256"
            },
            {
              "internalType": "uint32",
              "name": "eid",
              "type": "uint32"
            },
            {
              "internalType": "bytes",
              "name": "options",
              "type": "bytes"
            }
          ],
          "internalType": "struct IOFT.EnforcedOptionParam[]",
          "name": "_enforcedOptions",
          "type": "tuple[]"
        }
      ],
      "name": "setEnforcedOptions",
      "outputs": [],
      "stateMutability": "nonpayable",
      "type": "function"
    },
    {
      "inputs": [
        {
          "internalType": "address",
          "name": "_inspector",
          "type": "address"
        }
      ],
      "name": "setInspector",
      "outputs": [],
      "stateMutability": "nonpayable",
      "type": "function"
    },
    {
      "inputs": [
        {
          "internalType": "uint32",
          "name": "_eid",
          "type": "uint32"
        },
        {
          "internalType": "bytes32",
          "name": "_peer",
          "type": "bytes32"
        },
        {
          "internalType": "bool",
          "name": "_active",
          "type": "bool"
        }
      ],
      "name": "setPeer",
      "outputs": [],
      "stateMutability": "nonpayable",
      "type": "function"
    },
    {
      "inputs": [
        {
          "internalType": "address",
          "name": "_precrime",
          "type": "address"
        }
      ],
      "name": "setPrecrime",
      "outputs": [],
      "stateMutability": "nonpayable",
      "type": "function"
    },
    {
      "inputs": [],
      "name": "sharedDecimals",
      "outputs": [
        {
          "internalType": "uint8",
          "name": "",
          "type": "uint8"
        }
      ],
      "stateMutability": "view",
      "type": "function"
    },
    {
      "inputs": [],
      "name": "symbol",
      "outputs": [
        {
          "internalType": "string",
          "name": "",
          "type": "string"
        }
      ],
      "stateMutability": "view",
      "type": "function"
    },
    {
      "inputs": [],
      "name": "token",
      "outputs": [
        {
          "internalType": "address",
          "name": "",
          "type": "address"
        }
      ],
      "stateMutability": "view",
      "type": "function"
    },
    {
      "inputs": [],
      "name": "totalSupply",
      "outputs": [
        {
          "internalType": "uint256",
          "name": "",
          "type": "uint256"
        }
      ],
      "stateMutability": "view",
      "type": "function"
    },
    {
      "inputs": [
        {
          "internalType": "address",
          "name": "to",
          "type": "address"
        },
        {
          "internalType": "uint256",
          "name": "amount",
          "type": "uint256"
        }
      ],
      "name": "transfer",
      "outputs": [
        {
          "internalType": "bool",
          "name": "",
          "type": "bool"
        }
      ],
      "stateMutability": "nonpayable",
      "type": "function"
    },
    {
      "inputs": [
        {
          "internalType": "address",
          "name": "from",
          "type": "address"
        },
        {
          "internalType": "address",
          "name": "to",
          "type": "address"
        },
        {
          "internalType": "uint256",
          "name": "amount",
          "type": "uint256"
        }
      ],
      "name": "transferFrom",
      "outputs": [
        {
          "internalType": "bool",
          "name": "",
          "type": "bool"
        }
      ],
      "stateMutability": "nonpayable",
      "type": "function"
    },
    {
      "inputs": [
        {
          "internalType": "address",
          "name": "newOwner",
          "type": "address"
        }
      ],
      "name": "transferOwnership",
      "outputs": [],
      "stateMutability": "nonpayable",
      "type": "function"
    },
    {
      "inputs": [],
      "name": "version",
      "outputs": [
        {
          "internalType": "uint256",
          "name": "",
          "type": "uint256"
        }
      ],
      "stateMutability": "view",
      "type": "function"
    },
    {
      "stateMutability": "payable",
      "type": "receive"
    }
  ],
  "bytecode": "0x60c06040523480156200001157600080fd5b5060405162003d2638038062003d268339810160408190526200003491620001f9565b8383838383838383806200004833620000e4565b6001600160a01b0316608052600660ff831610156200007a576040516384564cb760e01b815260040160405180910390fd5b62000087600683620002b3565b6200009490600a620003d2565b60a0525060089050620000a8838262000479565b506009620000b7828262000479565b50620000c4915050601290565b60ff168260ff1614620000d657600080fd5b505050505050505062000545565b600080546001600160a01b038381166001600160a01b0319831681178455604051919092169283917f8be0079c531659141344cd1fd0a4f28419497f9722a3daafe3b4186f6b6457e09190a35050565b634e487b7160e01b600052604160045260246000fd5b600082601f8301126200015c57600080fd5b81516001600160401b038082111562000179576200017962000134565b604051601f8301601f19908116603f01168101908282118183101715620001a457620001a462000134565b81604052838152602092508683858801011115620001c157600080fd5b600091505b83821015620001e55785820183015181830184015290820190620001c6565b600093810190920192909252949350505050565b600080600080608085870312156200021057600080fd5b84516001600160401b03808211156200022857600080fd5b62000236888389016200014a565b955060208701519150808211156200024d57600080fd5b506200025c878288016200014a565b935050604085015160ff811681146200027457600080fd5b60608601519092506001600160a01b03811681146200029257600080fd5b939692955090935050565b634e487b7160e01b600052601160045260246000fd5b60ff8281168282160390811115620002cf57620002cf6200029d565b92915050565b600181815b8085111562000316578160001904821115620002fa57620002fa6200029d565b808516156200030857918102915b93841c9390800290620002da565b509250929050565b6000826200032f57506001620002cf565b816200033e57506000620002cf565b8160018114620003575760028114620003625762000382565b6001915050620002cf565b60ff8411156200037657620003766200029d565b50506001821b620002cf565b5060208310610133831016604e8410600b8410161715620003a7575081810a620002cf565b620003b38383620002d5565b8060001904821115620003ca57620003ca6200029d565b029392505050565b6000620003e360ff8416836200031e565b9392505050565b600181811c90821680620003ff57607f821691505b6020821081036200042057634e487b7160e01b600052602260045260246000fd5b50919050565b601f8211156200047457600081815260208120601f850160051c810160208610156200044f5750805b601f850160051c820191505b8181101562000470578281556001016200045b565b5050505b505050565b81516001600160401b0381111562000495576200049562000134565b620004ad81620004a68454620003ea565b8462000426565b602080601f831160018114620004e55760008415620004cc5750858301515b600019600386901b1c1916600185901b17855562000470565b600085815260208120601f198616915b828110156200051657888601518255948401946001909101908401620004f5565b5085821015620005355787850151600019600388901b60f8161c191681555b5050505050600190811b01905550565b60805160a05161378a6200059c600039600081816120aa0152818161224501526123f10152600081816104080152818161082d01528181610d4f01528181611831015281816120ed015261236a015261378a6000f3fe6080604052600436106102385760003560e01c80637d25a05e11610138578063baf3292d116100b0578063e74847021161007f578063f2fde38b11610064578063f2fde38b14610739578063f5c6ba5a14610759578063fc0c546a1461076c57600080fd5b8063e7484702146106ec578063ed2cee9e1461070c57600080fd5b8063baf3292d14610639578063bb0b6a5314610659578063d0a2275314610686578063dd62ed3e1461069957600080fd5b806395d89b4111610107578063a457c2d7116100ec578063a457c2d7146105d9578063a9059cbb146105f9578063b0690b3e1461061957600080fd5b806395d89b411461058f578063a41d8a25146105a457600080fd5b80637d25a05e146104e7578063857749b0146105235780638da5cb5b14610537578063950c8a741461056257600080fd5b806339509351116101cb5780635e280f111161019a57806370a082311161017f57806370a082311461046f578063715018a6146104b25780637624f505146104c757600080fd5b80635e280f11146103f6578063655f06381461044f57600080fd5b8063395093511461038157806340c10f19146103a15780634e5cbf61146103c157806354fd4d50146103e157600080fd5b806323b872dd1161020757806323b872dd146102d357806323d509ba146102f357806326b27f841461033f578063313ce5671461035f57600080fd5b806306fdde0314610244578063095ea7b31461026f57806313137d651461029f57806318160ddd146102b457600080fd5b3661023f57005b600080fd5b34801561025057600080fd5b5061025961077f565b60405161026691906126a0565b60405180910390f35b34801561027b57600080fd5b5061028f61028a3660046126d5565b610811565b6040519015158152602001610266565b6102b26102ad36600461274a565b61082b565b005b3480156102c057600080fd5b506007545b604051908152602001610266565b3480156102df57600080fd5b5061028f6102ee3660046127f1565b610935565b610306610301366004612856565b610959565b604080518251815260208084015167ffffffffffffffff1681830152928201518051928201929092529101516060820152608001610266565b34801561034b57600080fd5b506102c561035a3660046128e7565b6109d7565b34801561036b57600080fd5b5060125b60405160ff9091168152602001610266565b34801561038d57600080fd5b5061028f61039c3660046126d5565b610a31565b3480156103ad57600080fd5b506102b26103bc3660046126d5565b610a7d565b3480156103cd57600080fd5b506102b26103dc366004612902565b610a8b565b3480156103ed57600080fd5b506102c5600181565b34801561040257600080fd5b5061042a7f000000000000000000000000000000000000000000000000000000000000000081565b60405173ffffffffffffffffffffffffffffffffffffffff9091168152602001610266565b34801561045b57600080fd5b506102b261046a36600461291f565b610b0d565b34801561047b57600080fd5b506102c561048a366004612902565b73ffffffffffffffffffffffffffffffffffffffff1660009081526005602052604090205490565b3480156104be57600080fd5b506102b2610def565b3480156104d357600080fd5b506102b26104e236600461296f565b610e03565b3480156104f357600080fd5b5061050a6105023660046129af565b600092915050565b60405167ffffffffffffffff9091168152602001610266565b34801561052f57600080fd5b50600661036f565b34801561054357600080fd5b5060005473ffffffffffffffffffffffffffffffffffffffff1661042a565b34801561056e57600080fd5b5060025461042a9073ffffffffffffffffffffffffffffffffffffffff1681565b34801561059b57600080fd5b50610259610ebc565b3480156105b057600080fd5b506105c46105bf3660046129cb565b610ecb565b60408051928352602083019190915201610266565b3480156105e557600080fd5b5061028f6105f43660046126d5565b610f82565b34801561060557600080fd5b5061028f6106143660046126d5565b611053565b34801561062557600080fd5b506105c4610634366004612a61565b611061565b34801561064557600080fd5b506102b2610654366004612902565b6110ed565b34801561066557600080fd5b506102c56106743660046128e7565b60016020526000908152604090205481565b610306610694366004612ac8565b611168565b3480156106a557600080fd5b506102c56106b4366004612b55565b73ffffffffffffffffffffffffffffffffffffffff918216600090815260066020908152604080832093909416825291909152205490565b3480156106f857600080fd5b506102b2610707366004612bd3565b6111fc565b34801561071857600080fd5b5060045461042a9073ffffffffffffffffffffffffffffffffffffffff1681565b34801561074557600080fd5b506102b2610754366004612902565b611328565b6102b2610767366004612bd3565b6113df565b34801561077857600080fd5b503061042a565b60606008805461078e90612c09565b80601f01602080910402602001604051908101604052809291908181526020018280546107ba90612c09565b80156108075780601f106107dc57610100808354040283529160200191610807565b820191906000526020600020905b8154815290600101906020018083116107ea57829003601f168201915b5050505050905090565b60003361081f8185856115b3565b60019150505b92915050565b7f000000000000000000000000000000000000000000000000000000000000000073ffffffffffffffffffffffffffffffffffffffff1633146108a1576040517fab08c09e0000000000000000000000000000000000000000000000000000000081523360048201526024015b60405180910390fd5b602087018035906108b69061035a908a6128e7565b146108f3576040517fc59a4f6400000000000000000000000000000000000000000000000000000000815260208801356004820152602401610898565b61091d61090360208901896128e7565b602089013561091860608b0160408c01612c6c565b505050565b61092c87878787878787611766565b50505050505050565b600033610943858285611907565b61094e8585856119de565b506001949350505050565b6109616125ea565b6109cd866109b661097860808301606084016128e7565b600189898080601f016020809104026020016040519081016040528093929190818152602001838380828437600092019190915250611c5492505050565b858560405180602001604052806000815250611ca0565b9695505050505050565b63ffffffff811660009081526001602052604090205480610a2c576040517f196fb6c000000000000000000000000000000000000000000000000000000000815263ffffffff83166004820152602401610898565b919050565b33600081815260066020908152604080832073ffffffffffffffffffffffffffffffffffffffff8716845290915281205490919061081f9082908690610a78908790612cb8565b6115b3565b610a878282611eb8565b5050565b610a93611fad565b600480547fffffffffffffffffffffffff00000000000000000000000000000000000000001673ffffffffffffffffffffffffffffffffffffffff83169081179091556040519081527ff8b6b91dd680bf19d37570578ae915537e6e8cd2106736ad3ca05b30447a72b0906020015b60405180910390a150565b610b15611fad565b6000610b218284612ccb565b90507fffffffff0000000000000000000000000000000000000000000000000000000081167fb8007ff6000000000000000000000000000000000000000000000000000000001480610bb457507fffffffff0000000000000000000000000000000000000000000000000000000081167f9e7fffcc00000000000000000000000000000000000000000000000000000000145b80610c0057507fffffffff0000000000000000000000000000000000000000000000000000000081167f0678327f00000000000000000000000000000000000000000000000000000000145b80610c4c57507fffffffff0000000000000000000000000000000000000000000000000000000081167fb8849ac900000000000000000000000000000000000000000000000000000000145b80610c9857507fffffffff0000000000000000000000000000000000000000000000000000000081167fe16f964d00000000000000000000000000000000000000000000000000000000145b80610ce457507fffffffff0000000000000000000000000000000000000000000000000000000081167f66bf43d600000000000000000000000000000000000000000000000000000000145b610d4a576040517f08c379a000000000000000000000000000000000000000000000000000000000815260206004820152601a60248201527f4f4170703a2066756e6374696f6e206e6f7420616c6c6f7765640000000000006044820152606401610898565b6000807f000000000000000000000000000000000000000000000000000000000000000073ffffffffffffffffffffffffffffffffffffffff168585604051610d94929190612d13565b6000604051808303816000865af19150503d8060008114610dd1576040519150601f19603f3d011682016040523d82523d6000602084013e610dd6565b606091505b509150915081610de857805160208201fd5b5050505050565b610df7611fad565b610e01600061202e565b565b610e0b611fad565b63ffffffff831660009081526001602052604090205415158115158103610e5e576040517f9556766100000000000000000000000000000000000000000000000000000000815260040160405180910390fd5b63ffffffff84166000818152600160209081526040918290208690558151928352820185905283151582820152517fc55181d68816686be8ec55890d24aefed84c9a6a875145822aad2b2c950f027f9181900360600190a150505050565b60606009805461078e90612c09565b600080610f73610ee160808a0160608b016128e7565b610f1c8a35610ef360208d01356120a3565b338989604051602001610f0893929190612d23565b6040516020818303038152906040526120cf565b87610f6e610f3060808e0160608f016128e7565b60028d8d8080601f016020809104026020016040519081016040528093929190818152602001838380828437600092019190915250611c5492505050565b6120e6565b90999098509650505050505050565b33600081815260066020908152604080832073ffffffffffffffffffffffffffffffffffffffff8716845290915281205490919083811015611046576040517f08c379a000000000000000000000000000000000000000000000000000000000815260206004820152602560248201527f45524332303a2064656372656173656420616c6c6f77616e63652062656c6f7760448201527f207a65726f0000000000000000000000000000000000000000000000000000006064820152608401610898565b61094e82868684036115b3565b60003361081f8185856119de565b6000806110e061107760808801606089016128e7565b61108e883561108960208b01356120a3565b6121a2565b85610f6e6110a260808c0160608d016128e7565b60018b8b8080601f016020809104026020016040519081016040528093929190818152602001838380828437600092019190915250611c5492505050565b9097909650945050505050565b6110f5611fad565b600280547fffffffffffffffffffffffff00000000000000000000000000000000000000001673ffffffffffffffffffffffffffffffffffffffff83169081179091556040519081527f5db758e995a17ec1ad84bdef7e8c3293a0bd6179bcce400dff5d4c3d87db726b90602001610b02565b6111706125ea565b6111f0886111c561118760808301606084016128e7565b60028b8b8080601f016020809104026020016040519081016040528093929190818152602001838380828437600092019190915250611c5492505050565b87873388886040516020016111dc93929190612d23565b604051602081830303815290604052611ca0565b98975050505050505050565b611204611fad565b60005b818110156112ea5782828281811061122157611221612d3d565b90506020028101906112339190612d6c565b611241906040810190612daa565b6003600086868681811061125757611257612d3d565b90506020028101906112699190612d6c565b61127a9060408101906020016128e7565b63ffffffff1663ffffffff16815260200190815260200160002060008686868181106112a8576112a8612d3d565b90506020028101906112ba9190612d6c565b3581526020810191909152604001600020916112d7919083612e8c565b50806112e281612fa6565b915050611207565b507f116010e386f0b6b56cf03fa3e25a9e8015859c71fa3794d81cf655341ec1ef3b828260405161131c929190612fde565b60405180910390a15050565b611330611fad565b73ffffffffffffffffffffffffffffffffffffffff81166113d3576040517f08c379a000000000000000000000000000000000000000000000000000000000815260206004820152602660248201527f4f776e61626c653a206e6577206f776e657220697320746865207a65726f206160448201527f64647265737300000000000000000000000000000000000000000000000000006064820152608401610898565b6113dc8161202e565b50565b60025473ffffffffffffffffffffffffffffffffffffffff163314611432576040517fc023811c000000000000000000000000000000000000000000000000000000008152336004820152602401610898565b60005b818110156114c8573683838381811061145057611450612d3d565b90506020028101906114629190613143565b9050600061147661035a60208401846128e7565b90506020820135811461148a5750506114b6565b6114b38260608101356114a06080830183612daa565b336114ae60a0890189612daa565b611766565b50505b806114c081612fa6565b915050611435565b50600254604080517fd2968d57000000000000000000000000000000000000000000000000000000008152905160019273ffffffffffffffffffffffffffffffffffffffff169163d2968d579160048083019260009291908290030181865afa158015611539573d6000803e3d6000fd5b505050506040513d6000823e601f3d9081017fffffffffffffffffffffffffffffffffffffffffffffffffffffffffffffffe016820160405261157f91908101906131a0565b6040517f0a78da8f00000000000000000000000000000000000000000000000000000000815260040161089892919061326b565b73ffffffffffffffffffffffffffffffffffffffff8316611655576040517f08c379a0000000000000000000000000000000000000000000000000000000008152602060048201526024808201527f45524332303a20617070726f76652066726f6d20746865207a65726f2061646460448201527f72657373000000000000000000000000000000000000000000000000000000006064820152608401610898565b73ffffffffffffffffffffffffffffffffffffffff82166116f8576040517f08c379a000000000000000000000000000000000000000000000000000000000815260206004820152602260248201527f45524332303a20617070726f766520746f20746865207a65726f20616464726560448201527f73730000000000000000000000000000000000000000000000000000000000006064820152608401610898565b73ffffffffffffffffffffffffffffffffffffffff83811660008181526006602090815260408083209487168084529482529182902085905590518481527f8c5be1e5ebec7d5bd14f71427d1e84f3dd0314c0f7b2291e5b200ac8c7c3b925910160405180910390a3505050565b600061177861177587876121fc565b90565b905060006117a661179161178c898961221b565b61223e565b8361179f60208d018d6128e7565b5090919050565b905060006117b48383612274565b9050602887111561189e5760006117f16117d460608d0160408e01612c6c565b6117e160208e018e6128e7565b846117ec8d8d612286565b6122d1565b6040517f754d3b9c00000000000000000000000000000000000000000000000000000000815290915073ffffffffffffffffffffffffffffffffffffffff7f0000000000000000000000000000000000000000000000000000000000000000169063754d3b9c9061186a9087908e908690600401613290565b600060405180830381600087803b15801561188457600080fd5b505af1158015611898573d6000803e3d6000fd5b50505050505b6118ab61177589896121fc565b73ffffffffffffffffffffffffffffffffffffffff16897ffc1b5feb636aa495ed28914895ca443adffbd4e2da951d5694baa392b4ebd158836040516118f391815260200190565b60405180910390a350505050505050505050565b73ffffffffffffffffffffffffffffffffffffffff8381166000908152600660209081526040808320938616835292905220547fffffffffffffffffffffffffffffffffffffffffffffffffffffffffffffffff81146119d857818110156119cb576040517f08c379a000000000000000000000000000000000000000000000000000000000815260206004820152601d60248201527f45524332303a20696e73756666696369656e7420616c6c6f77616e63650000006044820152606401610898565b6119d884848484036115b3565b50505050565b73ffffffffffffffffffffffffffffffffffffffff8316611a81576040517f08c379a000000000000000000000000000000000000000000000000000000000815260206004820152602560248201527f45524332303a207472616e736665722066726f6d20746865207a65726f20616460448201527f64726573730000000000000000000000000000000000000000000000000000006064820152608401610898565b73ffffffffffffffffffffffffffffffffffffffff8216611b24576040517f08c379a000000000000000000000000000000000000000000000000000000000815260206004820152602360248201527f45524332303a207472616e7366657220746f20746865207a65726f206164647260448201527f65737300000000000000000000000000000000000000000000000000000000006064820152608401610898565b73ffffffffffffffffffffffffffffffffffffffff831660009081526005602052604090205481811015611bda576040517f08c379a000000000000000000000000000000000000000000000000000000000815260206004820152602660248201527f45524332303a207472616e7366657220616d6f756e742065786365656473206260448201527f616c616e636500000000000000000000000000000000000000000000000000006064820152608401610898565b73ffffffffffffffffffffffffffffffffffffffff80851660008181526005602052604080822086860390559286168082529083902080548601905591517fddf252ad1be2c89b69c2b068fc378daa952ba7f163c4a11628f55a4df523b3ef90611c479086815260200190565b60405180910390a36119d8565b63ffffffff831660009081526003602090815260408083208584528252918290209151606092611c889290918591016132c5565b60405160208183030381529060405290509392505050565b611ca86125ea565b6000611cc66020880135611cc260808a0160608b016128e7565b5090565b90506000611cd382612303565b90508760400135811015611d2057604080517fac7247ca00000000000000000000000000000000000000000000000000000000815260048101839052908901356024820152604401610898565b60608451600003611d4057611d398935611089846120a3565b9050611d57565b611d548935611d4e846120a3565b876120cf565b90505b60045473ffffffffffffffffffffffffffffffffffffffff1615611e0f57600480546040517f043a78eb00000000000000000000000000000000000000000000000000000000815273ffffffffffffffffffffffffffffffffffffffff9091169163043a78eb91611dcc9185918d910161336a565b602060405180830381865afa158015611de9573d6000803e3d6000fd5b505050506040513d601f19601f82011682018060405250810190611e0d919061338f565b505b611e7260405180608001604052808b6060016020810190611e3091906128e7565b63ffffffff168152602001611e4e61035a60808e0160608f016128e7565b8152602081018490526040018a9052611e6c368a90038a018a6133ac565b8861231b565b805160405184815291955033917f3131f8d7ad296b074b480a9f6b3a760579632740b870b78725975df31c5da7789060200160405180910390a350505095945050505050565b73ffffffffffffffffffffffffffffffffffffffff8216611f35576040517f08c379a000000000000000000000000000000000000000000000000000000000815260206004820152601f60248201527f45524332303a206d696e7420746f20746865207a65726f2061646472657373006044820152606401610898565b8060076000828254611f479190612cb8565b909155505073ffffffffffffffffffffffffffffffffffffffff82166000818152600560209081526040808320805486019055518481527fddf252ad1be2c89b69c2b068fc378daa952ba7f163c4a11628f55a4df523b3ef910160405180910390a35050565b60005473ffffffffffffffffffffffffffffffffffffffff163314610e01576040517f08c379a000000000000000000000000000000000000000000000000000000000815260206004820181905260248201527f4f776e61626c653a2063616c6c6572206973206e6f7420746865206f776e65726044820152606401610898565b6000805473ffffffffffffffffffffffffffffffffffffffff8381167fffffffffffffffffffffffff0000000000000000000000000000000000000000831681178455604051919092169283917f8be0079c531659141344cd1fd0a4f28419497f9722a3daafe3b4186f6b6457e09190a35050565b60006108257f0000000000000000000000000000000000000000000000000000000000000000836133de565b6060838383604051602001611c8893929190613419565b60008060007f000000000000000000000000000000000000000000000000000000000000000073ffffffffffffffffffffffffffffffffffffffff166383c4755930898989896040518663ffffffff1660e01b815260040161214c95949392919061346b565b6040805180830381865afa158015612168573d6000803e3d6000fd5b505050506040513d601f19601f8201168201806040525081019061218c91906134f0565b8051602090910151909890975095505050505050565b606082826040516020016121e592919091825260c01b7fffffffffffffffff00000000000000000000000000000000000000000000000016602082015260280190565b604051602081830303815290604052905092915050565b600061220b602082848661350c565b61221491613536565b9392505050565b600061222b60286020848661350c565b61223491613572565b60c01c9392505050565b60006108257f000000000000000000000000000000000000000000000000000000000000000067ffffffffffffffff84166135b8565b60006122808383611eb8565b50919050565b6060612295826028818661350c565b8080601f016020809104026020016040519081016040528093929190818152602001838380828437600092019190915250929695505050505050565b6060848484846040516020016122ea94939291906135cf565b6040516020818303038152906040529050949350505050565b60008061230f836123ed565b90506108253382612424565b6123236125ea565b825160208401516040517faca1b45a00000000000000000000000000000000000000000000000000000000815260009273ffffffffffffffffffffffffffffffffffffffff7f0000000000000000000000000000000000000000000000000000000000000000169263aca1b45a926123a1918a91899060040161364d565b60806040518083038185885af11580156123bf573d6000803e3d6000fd5b50505050506040513d601f19601f820116820180604052508101906123e491906136ec565b95945050505050565b60007f000000000000000000000000000000000000000000000000000000000000000061241a81846133de565b61082591906135b8565b73ffffffffffffffffffffffffffffffffffffffff82166124c7576040517f08c379a000000000000000000000000000000000000000000000000000000000815260206004820152602160248201527f45524332303a206275726e2066726f6d20746865207a65726f2061646472657360448201527f73000000000000000000000000000000000000000000000000000000000000006064820152608401610898565b73ffffffffffffffffffffffffffffffffffffffff82166000908152600560205260409020548181101561257d576040517f08c379a000000000000000000000000000000000000000000000000000000000815260206004820152602260248201527f45524332303a206275726e20616d6f756e7420657863656564732062616c616e60448201527f63650000000000000000000000000000000000000000000000000000000000006064820152608401610898565b73ffffffffffffffffffffffffffffffffffffffff831660008181526005602090815260408083208686039055600780548790039055518581529192917fddf252ad1be2c89b69c2b068fc378daa952ba7f163c4a11628f55a4df523b3ef910160405180910390a3505050565b604051806060016040528060008019168152602001600067ffffffffffffffff16815260200161262d604051806040016040528060008152602001600081525090565b905290565b60005b8381101561264d578181015183820152602001612635565b50506000910152565b6000815180845261266e816020860160208601612632565b601f017fffffffffffffffffffffffffffffffffffffffffffffffffffffffffffffffe0169290920160200192915050565b6020815260006122146020830184612656565b73ffffffffffffffffffffffffffffffffffffffff811681146113dc57600080fd5b600080604083850312156126e857600080fd5b82356126f3816126b3565b946020939093013593505050565b60008083601f84011261271357600080fd5b50813567ffffffffffffffff81111561272b57600080fd5b60208301915083602082850101111561274357600080fd5b9250929050565b600080600080600080600087890360e081121561276657600080fd5b606081121561277457600080fd5b5087965060608801359550608088013567ffffffffffffffff8082111561279a57600080fd5b6127a68b838c01612701565b909750955060a08a013591506127bb826126b3565b90935060c089013590808211156127d157600080fd5b506127de8a828b01612701565b989b979a50959850939692959293505050565b60008060006060848603121561280657600080fd5b8335612811816126b3565b92506020840135612821816126b3565b929592945050506040919091013590565b60006080828403121561228057600080fd5b60006040828403121561228057600080fd5b6000806000806000610100868803121561286f57600080fd5b6128798787612832565b9450608086013567ffffffffffffffff81111561289557600080fd5b6128a188828901612701565b90955093506128b590508760a08801612844565b915060e08601356128c5816126b3565b809150509295509295909350565b803563ffffffff81168114610a2c57600080fd5b6000602082840312156128f957600080fd5b612214826128d3565b60006020828403121561291457600080fd5b8135612214816126b3565b6000806020838503121561293257600080fd5b823567ffffffffffffffff81111561294957600080fd5b61295585828601612701565b90969095509350505050565b80151581146113dc57600080fd5b60008060006060848603121561298457600080fd5b61298d846128d3565b92506020840135915060408401356129a481612961565b809150509250925092565b600080604083850312156129c257600080fd5b6126f3836128d3565b60008060008060008060e087890312156129e457600080fd5b6129ee8888612832565b9550608087013567ffffffffffffffff80821115612a0b57600080fd5b612a178a838b01612701565b909750955060a08901359150612a2c82612961565b90935060c08801359080821115612a4257600080fd5b50612a4f89828a01612701565b979a9699509497509295939492505050565b60008060008060c08587031215612a7757600080fd5b612a818686612832565b9350608085013567ffffffffffffffff811115612a9d57600080fd5b612aa987828801612701565b90945092505060a0850135612abd81612961565b939692955090935050565b6000806000806000806000610120888a031215612ae457600080fd5b612aee8989612832565b9650608088013567ffffffffffffffff80821115612b0b57600080fd5b612b178b838c01612701565b9098509650869150612b2c8b60a08c01612844565b955060e08a01359150612b3e826126b3565b90935061010089013590808211156127d157600080fd5b60008060408385031215612b6857600080fd5b8235612b73816126b3565b91506020830135612b83816126b3565b809150509250929050565b60008083601f840112612ba057600080fd5b50813567ffffffffffffffff811115612bb857600080fd5b6020830191508360208260051b850101111561274357600080fd5b60008060208385031215612be657600080fd5b823567ffffffffffffffff811115612bfd57600080fd5b61295585828601612b8e565b600181811c90821680612c1d57607f821691505b602082108103612280577f4e487b7100000000000000000000000000000000000000000000000000000000600052602260045260246000fd5b67ffffffffffffffff811681146113dc57600080fd5b600060208284031215612c7e57600080fd5b813561221481612c56565b7f4e487b7100000000000000000000000000000000000000000000000000000000600052601160045260246000fd5b8082018082111561082557610825612c89565b7fffffffff000000000000000000000000000000000000000000000000000000008135818116916004851015612d0b5780818660040360031b1b83161692505b505092915050565b8183823760009101908152919050565b838152818360208301376000910160200190815292915050565b7f4e487b7100000000000000000000000000000000000000000000000000000000600052603260045260246000fd5b600082357fffffffffffffffffffffffffffffffffffffffffffffffffffffffffffffffa1833603018112612da057600080fd5b9190910192915050565b60008083357fffffffffffffffffffffffffffffffffffffffffffffffffffffffffffffffe1843603018112612ddf57600080fd5b83018035915067ffffffffffffffff821115612dfa57600080fd5b60200191503681900382131561274357600080fd5b7f4e487b7100000000000000000000000000000000000000000000000000000000600052604160045260246000fd5b601f82111561091857600081815260208120601f850160051c81016020861015612e655750805b601f850160051c820191505b81811015612e8457828155600101612e71565b505050505050565b67ffffffffffffffff831115612ea457612ea4612e0f565b612eb883612eb28354612c09565b83612e3e565b6000601f841160018114612f0a5760008515612ed45750838201355b7fffffffffffffffffffffffffffffffffffffffffffffffffffffffffffffffff600387901b1c1916600186901b178355610de8565b6000838152602090207fffffffffffffffffffffffffffffffffffffffffffffffffffffffffffffffe0861690835b82811015612f595786850135825560209485019460019092019101612f39565b5086821015612f94577fffffffffffffffffffffffffffffffffffffffffffffffffffffffffffffffff60f88860031b161c19848701351681555b505060018560011b0183555050505050565b60007fffffffffffffffffffffffffffffffffffffffffffffffffffffffffffffffff8203612fd757612fd7612c89565b5060010190565b60208082528181018390526000906040808401600586901b8501820187855b88811015613135577fffffffffffffffffffffffffffffffffffffffffffffffffffffffffffffffc088840301845281357fffffffffffffffffffffffffffffffffffffffffffffffffffffffffffffffa18b360301811261305e57600080fd5b8a0180358452606063ffffffff6130768984016128d3565b1688860152868201357fffffffffffffffffffffffffffffffffffffffffffffffffffffffffffffffe18336030181126130af57600080fd5b90910187810191903567ffffffffffffffff8111156130cd57600080fd5b8036038313156130dc57600080fd5b8188870152808287015260809150808383880137600086820183015295880195601f017fffffffffffffffffffffffffffffffffffffffffffffffffffffffffffffffe016909401909301925090850190600101612ffd565b509098975050505050505050565b600082357fffffffffffffffffffffffffffffffffffffffffffffffffffffffffffffff41833603018112612da057600080fd5b6040805190810167ffffffffffffffff8111828210171561319a5761319a612e0f565b60405290565b6000602082840312156131b257600080fd5b815167ffffffffffffffff808211156131ca57600080fd5b818401915084601f8301126131de57600080fd5b8151818111156131f0576131f0612e0f565b604051601f82017fffffffffffffffffffffffffffffffffffffffffffffffffffffffffffffffe0908116603f0116810190838211818310171561323657613236612e0f565b8160405282815287602084870101111561324f57600080fd5b613260836020830160208801612632565b979650505050505050565b61ffff831681526040602082015260006132886040830184612656565b949350505050565b73ffffffffffffffffffffffffffffffffffffffff841681528260208201526060604082015260006123e46060830184612656565b60008084546132d381612c09565b600182811680156132eb576001811461331e5761334d565b7fffffffffffffffffffffffffffffffffffffffffffffffffffffffffffffff008416875282151583028701945061334d565b8860005260208060002060005b858110156133445781548a82015290840190820161332b565b50505082870194505b505050508351613361818360208801612632565b01949350505050565b60408152600061337d6040830185612656565b82810360208401526123e48185612656565b6000602082840312156133a157600080fd5b815161221481612961565b6000604082840312156133be57600080fd5b6133c6613177565b82358152602083013560208201528091505092915050565b600082613414577f4e487b7100000000000000000000000000000000000000000000000000000000600052601260045260246000fd5b500490565b8381527fffffffffffffffff0000000000000000000000000000000000000000000000008360c01b1660208201526000825161345c816028850160208701612632565b91909101602801949350505050565b73ffffffffffffffffffffffffffffffffffffffff8616815263ffffffff8516602082015260a0604082015260006134a660a0830186612656565b841515606084015282810360808401526111f08185612656565b6000604082840312156134d257600080fd5b6134da613177565b9050815181526020820151602082015292915050565b60006040828403121561350257600080fd5b61221483836134c0565b6000808585111561351c57600080fd5b8386111561352957600080fd5b5050820193919092039150565b80356020831015610825577fffffffffffffffffffffffffffffffffffffffffffffffffffffffffffffffff602084900360031b1b1692915050565b7fffffffffffffffff0000000000000000000000000000000000000000000000008135818116916008851015612d0b5760089490940360031b84901b1690921692915050565b808202811582820484141761082557610825612c89565b7fffffffffffffffff0000000000000000000000000000000000000000000000008560c01b1681527fffffffff000000000000000000000000000000000000000000000000000000008460e01b16600882015282600c8201526000825161363d81602c850160208701612632565b91909101602c0195945050505050565b6060815263ffffffff84511660608201526020840151608082015260006040850151608060a084015261368360e0840182612656565b905060608601517fffffffffffffffffffffffffffffffffffffffffffffffffffffffffffffffa08483030160c08501526136be8282612656565b9250505083602083015273ffffffffffffffffffffffffffffffffffffffff83166040830152949350505050565b6000608082840312156136fe57600080fd5b6040516060810181811067ffffffffffffffff8211171561372157613721612e0f565b60405282518152602083015161373681612c56565b602082015261374884604085016134c0565b6040820152939250505056fea2646970667358221220a1e210cbb291c07eb392eb117d24cb6e3e27629500556f22624a18daf5b51d8a64736f6c63430008130033",
  "linkReferences": {},
  "deployedLinkReferences": {}
}