{
  "_format": "hh-sol-artifact-1",
  "contractName": "ONFT721",
  "sourceName": "contracts/token/onft/ONFT721.sol",
  "abi": [
    {
      "inputs": [
        {
          "internalType": "string",
          "name": "_name",
          "type": "string"
        },
        {
          "internalType": "string",
          "name": "_symbol",
          "type": "string"
        },
        {
          "internalType": "uint256",
          "name": "_minGasToTransfer",
          "type": "uint256"
        },
        {
          "internalType": "address",
          "name": "_lzEndpoint",
          "type": "address"
        }
      ],
      "stateMutability": "nonpayable",
      "type": "constructor"
    },
    {
      "anonymous": false,
      "inputs": [
        {
          "indexed": true,
          "internalType": "address",
          "name": "owner",
          "type": "address"
        },
        {
          "indexed": true,
          "internalType": "address",
          "name": "approved",
          "type": "address"
        },
        {
          "indexed": true,
          "internalType": "uint256",
          "name": "tokenId",
          "type": "uint256"
        }
      ],
      "name": "Approval",
      "type": "event"
    },
    {
      "anonymous": false,
      "inputs": [
        {
          "indexed": true,
          "internalType": "address",
          "name": "owner",
          "type": "address"
        },
        {
          "indexed": true,
          "internalType": "address",
          "name": "operator",
          "type": "address"
        },
        {
          "indexed": false,
          "internalType": "bool",
          "name": "approved",
          "type": "bool"
        }
      ],
      "name": "ApprovalForAll",
      "type": "event"
    },
    {
      "anonymous": false,
      "inputs": [
        {
          "indexed": false,
          "internalType": "bytes32",
          "name": "_hashedPayload",
          "type": "bytes32"
        }
      ],
      "name": "CreditCleared",
      "type": "event"
    },
    {
      "anonymous": false,
      "inputs": [
        {
          "indexed": false,
          "internalType": "bytes32",
          "name": "_hashedPayload",
          "type": "bytes32"
        },
        {
          "indexed": false,
          "internalType": "bytes",
          "name": "_payload",
          "type": "bytes"
        }
      ],
      "name": "CreditStored",
      "type": "event"
    },
    {
      "anonymous": false,
      "inputs": [
        {
          "indexed": false,
          "internalType": "uint16",
          "name": "_srcChainId",
          "type": "uint16"
        },
        {
          "indexed": false,
          "internalType": "bytes",
          "name": "_srcAddress",
          "type": "bytes"
        },
        {
          "indexed": false,
          "internalType": "uint64",
          "name": "_nonce",
          "type": "uint64"
        },
        {
          "indexed": false,
          "internalType": "bytes",
          "name": "_payload",
          "type": "bytes"
        },
        {
          "indexed": false,
          "internalType": "bytes",
          "name": "_reason",
          "type": "bytes"
        }
      ],
      "name": "MessageFailed",
      "type": "event"
    },
    {
      "anonymous": false,
      "inputs": [
        {
          "indexed": true,
          "internalType": "address",
          "name": "previousOwner",
          "type": "address"
        },
        {
          "indexed": true,
          "internalType": "address",
          "name": "newOwner",
          "type": "address"
        }
      ],
      "name": "OwnershipTransferred",
      "type": "event"
    },
    {
      "anonymous": false,
      "inputs": [
        {
          "indexed": true,
          "internalType": "uint16",
          "name": "_srcChainId",
          "type": "uint16"
        },
        {
          "indexed": true,
          "internalType": "bytes",
          "name": "_srcAddress",
          "type": "bytes"
        },
        {
          "indexed": true,
          "internalType": "address",
          "name": "_toAddress",
          "type": "address"
        },
        {
          "indexed": false,
          "internalType": "uint256[]",
          "name": "_tokenIds",
          "type": "uint256[]"
        }
      ],
      "name": "ReceiveFromChain",
      "type": "event"
    },
    {
      "anonymous": false,
      "inputs": [
        {
          "indexed": false,
          "internalType": "uint16",
          "name": "_srcChainId",
          "type": "uint16"
        },
        {
          "indexed": false,
          "internalType": "bytes",
          "name": "_srcAddress",
          "type": "bytes"
        },
        {
          "indexed": false,
          "internalType": "uint64",
          "name": "_nonce",
          "type": "uint64"
        },
        {
          "indexed": false,
          "internalType": "bytes32",
          "name": "_payloadHash",
          "type": "bytes32"
        }
      ],
      "name": "RetryMessageSuccess",
      "type": "event"
    },
    {
      "anonymous": false,
      "inputs": [
        {
          "indexed": true,
          "internalType": "uint16",
          "name": "_dstChainId",
          "type": "uint16"
        },
        {
          "indexed": true,
          "internalType": "address",
          "name": "_from",
          "type": "address"
        },
        {
          "indexed": true,
          "internalType": "bytes",
          "name": "_toAddress",
          "type": "bytes"
        },
        {
          "indexed": false,
          "internalType": "uint256[]",
          "name": "_tokenIds",
          "type": "uint256[]"
        }
      ],
      "name": "SendToChain",
      "type": "event"
    },
    {
      "anonymous": false,
      "inputs": [
        {
          "indexed": false,
          "internalType": "uint16",
          "name": "_dstChainId",
          "type": "uint16"
        },
        {
          "indexed": false,
          "internalType": "uint256",
          "name": "_dstChainIdToBatchLimit",
          "type": "uint256"
        }
      ],
      "name": "SetDstChainIdToBatchLimit",
      "type": "event"
    },
    {
      "anonymous": false,
      "inputs": [
        {
          "indexed": false,
          "internalType": "uint16",
          "name": "_dstChainId",
          "type": "uint16"
        },
        {
          "indexed": false,
          "internalType": "uint256",
          "name": "_dstChainIdToTransferGas",
          "type": "uint256"
        }
      ],
      "name": "SetDstChainIdToTransferGas",
      "type": "event"
    },
    {
      "anonymous": false,
      "inputs": [
        {
          "indexed": false,
          "internalType": "uint16",
          "name": "_dstChainId",
          "type": "uint16"
        },
        {
          "indexed": false,
          "internalType": "uint16",
          "name": "_type",
          "type": "uint16"
        },
        {
          "indexed": false,
          "internalType": "uint256",
          "name": "_minDstGas",
          "type": "uint256"
        }
      ],
      "name": "SetMinDstGas",
      "type": "event"
    },
    {
      "anonymous": false,
      "inputs": [
        {
          "indexed": false,
          "internalType": "uint256",
          "name": "_minGasToTransferAndStore",
          "type": "uint256"
        }
      ],
      "name": "SetMinGasToTransferAndStore",
      "type": "event"
    },
    {
      "anonymous": false,
      "inputs": [
        {
          "indexed": false,
          "internalType": "address",
          "name": "precrime",
          "type": "address"
        }
      ],
      "name": "SetPrecrime",
      "type": "event"
    },
    {
      "anonymous": false,
      "inputs": [
        {
          "indexed": false,
          "internalType": "uint16",
          "name": "_remoteChainId",
          "type": "uint16"
        },
        {
          "indexed": false,
          "internalType": "bytes",
          "name": "_path",
          "type": "bytes"
        }
      ],
      "name": "SetTrustedRemote",
      "type": "event"
    },
    {
      "anonymous": false,
      "inputs": [
        {
          "indexed": false,
          "internalType": "uint16",
          "name": "_remoteChainId",
          "type": "uint16"
        },
        {
          "indexed": false,
          "internalType": "bytes",
          "name": "_remoteAddress",
          "type": "bytes"
        }
      ],
      "name": "SetTrustedRemoteAddress",
      "type": "event"
    },
    {
      "anonymous": false,
      "inputs": [
        {
          "indexed": true,
          "internalType": "address",
          "name": "from",
          "type": "address"
        },
        {
          "indexed": true,
          "internalType": "address",
          "name": "to",
          "type": "address"
        },
        {
          "indexed": true,
          "internalType": "uint256",
          "name": "tokenId",
          "type": "uint256"
        }
      ],
      "name": "Transfer",
      "type": "event"
    },
    {
      "inputs": [],
      "name": "DEFAULT_PAYLOAD_SIZE_LIMIT",
      "outputs": [
        {
          "internalType": "uint256",
          "name": "",
          "type": "uint256"
        }
      ],
      "stateMutability": "view",
      "type": "function"
    },
    {
      "inputs": [],
      "name": "FUNCTION_TYPE_SEND",
      "outputs": [
        {
          "internalType": "uint16",
          "name": "",
          "type": "uint16"
        }
      ],
      "stateMutability": "view",
      "type": "function"
    },
    {
      "inputs": [
        {
          "internalType": "address",
          "name": "to",
          "type": "address"
        },
        {
          "internalType": "uint256",
          "name": "tokenId",
          "type": "uint256"
        }
      ],
      "name": "approve",
      "outputs": [],
      "stateMutability": "nonpayable",
      "type": "function"
    },
    {
      "inputs": [
        {
          "internalType": "address",
          "name": "owner",
          "type": "address"
        }
      ],
      "name": "balanceOf",
      "outputs": [
        {
          "internalType": "uint256",
          "name": "",
          "type": "uint256"
        }
      ],
      "stateMutability": "view",
      "type": "function"
    },
    {
      "inputs": [
        {
          "internalType": "bytes",
          "name": "_payload",
          "type": "bytes"
        }
      ],
      "name": "clearCredits",
      "outputs": [],
      "stateMutability": "nonpayable",
      "type": "function"
    },
    {
      "inputs": [
        {
          "internalType": "uint16",
          "name": "",
          "type": "uint16"
        }
      ],
      "name": "dstChainIdToBatchLimit",
      "outputs": [
        {
          "internalType": "uint256",
          "name": "",
          "type": "uint256"
        }
      ],
      "stateMutability": "view",
      "type": "function"
    },
    {
      "inputs": [
        {
          "internalType": "uint16",
          "name": "",
          "type": "uint16"
        }
      ],
      "name": "dstChainIdToTransferGas",
      "outputs": [
        {
          "internalType": "uint256",
          "name": "",
          "type": "uint256"
        }
      ],
      "stateMutability": "view",
      "type": "function"
    },
    {
      "inputs": [
        {
          "internalType": "uint16",
          "name": "_dstChainId",
          "type": "uint16"
        },
        {
          "internalType": "bytes",
          "name": "_toAddress",
          "type": "bytes"
        },
        {
          "internalType": "uint256[]",
          "name": "_tokenIds",
          "type": "uint256[]"
        },
        {
          "internalType": "bool",
          "name": "_useZro",
          "type": "bool"
        },
        {
          "internalType": "bytes",
          "name": "_adapterParams",
          "type": "bytes"
        }
      ],
      "name": "estimateSendBatchFee",
      "outputs": [
        {
          "internalType": "uint256",
          "name": "nativeFee",
          "type": "uint256"
        },
        {
          "internalType": "uint256",
          "name": "zroFee",
          "type": "uint256"
        }
      ],
      "stateMutability": "view",
      "type": "function"
    },
    {
      "inputs": [
        {
          "internalType": "uint16",
          "name": "_dstChainId",
          "type": "uint16"
        },
        {
          "internalType": "bytes",
          "name": "_toAddress",
          "type": "bytes"
        },
        {
          "internalType": "uint256",
          "name": "_tokenId",
          "type": "uint256"
        },
        {
          "internalType": "bool",
          "name": "_useZro",
          "type": "bool"
        },
        {
          "internalType": "bytes",
          "name": "_adapterParams",
          "type": "bytes"
        }
      ],
      "name": "estimateSendFee",
      "outputs": [
        {
          "internalType": "uint256",
          "name": "nativeFee",
          "type": "uint256"
        },
        {
          "internalType": "uint256",
          "name": "zroFee",
          "type": "uint256"
        }
      ],
      "stateMutability": "view",
      "type": "function"
    },
    {
      "inputs": [
        {
          "internalType": "uint16",
          "name": "",
          "type": "uint16"
        },
        {
          "internalType": "bytes",
          "name": "",
          "type": "bytes"
        },
        {
          "internalType": "uint64",
          "name": "",
          "type": "uint64"
        }
      ],
      "name": "failedMessages",
      "outputs": [
        {
          "internalType": "bytes32",
          "name": "",
          "type": "bytes32"
        }
      ],
      "stateMutability": "view",
      "type": "function"
    },
    {
      "inputs": [
        {
          "internalType": "uint16",
          "name": "_srcChainId",
          "type": "uint16"
        },
        {
          "internalType": "bytes",
          "name": "_srcAddress",
          "type": "bytes"
        }
      ],
      "name": "forceResumeReceive",
      "outputs": [],
      "stateMutability": "nonpayable",
      "type": "function"
    },
    {
      "inputs": [
        {
          "internalType": "uint256",
          "name": "tokenId",
          "type": "uint256"
        }
      ],
      "name": "getApproved",
      "outputs": [
        {
          "internalType": "address",
          "name": "",
          "type": "address"
        }
      ],
      "stateMutability": "view",
      "type": "function"
    },
    {
      "inputs": [
        {
          "internalType": "uint16",
          "name": "_version",
          "type": "uint16"
        },
        {
          "internalType": "uint16",
          "name": "_chainId",
          "type": "uint16"
        },
        {
          "internalType": "address",
          "name": "",
          "type": "address"
        },
        {
          "internalType": "uint256",
          "name": "_configType",
          "type": "uint256"
        }
      ],
      "name": "getConfig",
      "outputs": [
        {
          "internalType": "bytes",
          "name": "",
          "type": "bytes"
        }
      ],
      "stateMutability": "view",
      "type": "function"
    },
    {
      "inputs": [
        {
          "internalType": "uint16",
          "name": "_remoteChainId",
          "type": "uint16"
        }
      ],
      "name": "getTrustedRemoteAddress",
      "outputs": [
        {
          "internalType": "bytes",
          "name": "",
          "type": "bytes"
        }
      ],
      "stateMutability": "view",
      "type": "function"
    },
    {
      "inputs": [
        {
          "internalType": "address",
          "name": "owner",
          "type": "address"
        },
        {
          "internalType": "address",
          "name": "operator",
          "type": "address"
        }
      ],
      "name": "isApprovedForAll",
      "outputs": [
        {
          "internalType": "bool",
          "name": "",
          "type": "bool"
        }
      ],
      "stateMutability": "view",
      "type": "function"
    },
    {
      "inputs": [
        {
          "internalType": "uint16",
          "name": "_srcChainId",
          "type": "uint16"
        },
        {
          "internalType": "bytes",
          "name": "_srcAddress",
          "type": "bytes"
        }
      ],
      "name": "isTrustedRemote",
      "outputs": [
        {
          "internalType": "bool",
          "name": "",
          "type": "bool"
        }
      ],
      "stateMutability": "view",
      "type": "function"
    },
    {
      "inputs": [],
      "name": "lzEndpoint",
      "outputs": [
        {
          "internalType": "contract ILayerZeroEndpoint",
          "name": "",
          "type": "address"
        }
      ],
      "stateMutability": "view",
      "type": "function"
    },
    {
      "inputs": [
        {
          "internalType": "uint16",
          "name": "_srcChainId",
          "type": "uint16"
        },
        {
          "internalType": "bytes",
          "name": "_srcAddress",
          "type": "bytes"
        },
        {
          "internalType": "uint64",
          "name": "_nonce",
          "type": "uint64"
        },
        {
          "internalType": "bytes",
          "name": "_payload",
          "type": "bytes"
        }
      ],
      "name": "lzReceive",
      "outputs": [],
      "stateMutability": "nonpayable",
      "type": "function"
    },
    {
      "inputs": [
        {
          "internalType": "uint16",
          "name": "",
          "type": "uint16"
        },
        {
          "internalType": "uint16",
          "name": "",
          "type": "uint16"
        }
      ],
      "name": "minDstGasLookup",
      "outputs": [
        {
          "internalType": "uint256",
          "name": "",
          "type": "uint256"
        }
      ],
      "stateMutability": "view",
      "type": "function"
    },
    {
      "inputs": [],
      "name": "minGasToTransferAndStore",
      "outputs": [
        {
          "internalType": "uint256",
          "name": "",
          "type": "uint256"
        }
      ],
      "stateMutability": "view",
      "type": "function"
    },
    {
      "inputs": [],
      "name": "name",
      "outputs": [
        {
          "internalType": "string",
          "name": "",
          "type": "string"
        }
      ],
      "stateMutability": "view",
      "type": "function"
    },
    {
      "inputs": [
        {
          "internalType": "uint16",
          "name": "_srcChainId",
          "type": "uint16"
        },
        {
          "internalType": "bytes",
          "name": "_srcAddress",
          "type": "bytes"
        },
        {
          "internalType": "uint64",
          "name": "_nonce",
          "type": "uint64"
        },
        {
          "internalType": "bytes",
          "name": "_payload",
          "type": "bytes"
        }
      ],
      "name": "nonblockingLzReceive",
      "outputs": [],
      "stateMutability": "nonpayable",
      "type": "function"
    },
    {
      "inputs": [],
      "name": "owner",
      "outputs": [
        {
          "internalType": "address",
          "name": "",
          "type": "address"
        }
      ],
      "stateMutability": "view",
      "type": "function"
    },
    {
      "inputs": [
        {
          "internalType": "uint256",
          "name": "tokenId",
          "type": "uint256"
        }
      ],
      "name": "ownerOf",
      "outputs": [
        {
          "internalType": "address",
          "name": "",
          "type": "address"
        }
      ],
      "stateMutability": "view",
      "type": "function"
    },
    {
      "inputs": [
        {
          "internalType": "uint16",
          "name": "",
          "type": "uint16"
        }
      ],
      "name": "payloadSizeLimitLookup",
      "outputs": [
        {
          "internalType": "uint256",
          "name": "",
          "type": "uint256"
        }
      ],
      "stateMutability": "view",
      "type": "function"
    },
    {
      "inputs": [],
      "name": "precrime",
      "outputs": [
        {
          "internalType": "address",
          "name": "",
          "type": "address"
        }
      ],
      "stateMutability": "view",
      "type": "function"
    },
    {
      "inputs": [],
      "name": "renounceOwnership",
      "outputs": [],
      "stateMutability": "nonpayable",
      "type": "function"
    },
    {
      "inputs": [
        {
          "internalType": "uint16",
          "name": "_srcChainId",
          "type": "uint16"
        },
        {
          "internalType": "bytes",
          "name": "_srcAddress",
          "type": "bytes"
        },
        {
          "internalType": "uint64",
          "name": "_nonce",
          "type": "uint64"
        },
        {
          "internalType": "bytes",
          "name": "_payload",
          "type": "bytes"
        }
      ],
      "name": "retryMessage",
      "outputs": [],
      "stateMutability": "payable",
      "type": "function"
    },
    {
      "inputs": [
        {
          "internalType": "address",
          "name": "from",
          "type": "address"
        },
        {
          "internalType": "address",
          "name": "to",
          "type": "address"
        },
        {
          "internalType": "uint256",
          "name": "tokenId",
          "type": "uint256"
        }
      ],
      "name": "safeTransferFrom",
      "outputs": [],
      "stateMutability": "nonpayable",
      "type": "function"
    },
    {
      "inputs": [
        {
          "internalType": "address",
          "name": "from",
          "type": "address"
        },
        {
          "internalType": "address",
          "name": "to",
          "type": "address"
        },
        {
          "internalType": "uint256",
          "name": "tokenId",
          "type": "uint256"
        },
        {
          "internalType": "bytes",
          "name": "data",
          "type": "bytes"
        }
      ],
      "name": "safeTransferFrom",
      "outputs": [],
      "stateMutability": "nonpayable",
      "type": "function"
    },
    {
      "inputs": [
        {
          "internalType": "address",
          "name": "_from",
          "type": "address"
        },
        {
          "internalType": "uint16",
          "name": "_dstChainId",
          "type": "uint16"
        },
        {
          "internalType": "bytes",
          "name": "_toAddress",
          "type": "bytes"
        },
        {
          "internalType": "uint256[]",
          "name": "_tokenIds",
          "type": "uint256[]"
        },
        {
          "internalType": "address payable",
          "name": "_refundAddress",
          "type": "address"
        },
        {
          "internalType": "address",
          "name": "_zroPaymentAddress",
          "type": "address"
        },
        {
          "internalType": "bytes",
          "name": "_adapterParams",
          "type": "bytes"
        }
      ],
      "name": "sendBatchFrom",
      "outputs": [],
      "stateMutability": "payable",
      "type": "function"
    },
    {
      "inputs": [
        {
          "internalType": "address",
          "name": "_from",
          "type": "address"
        },
        {
          "internalType": "uint16",
          "name": "_dstChainId",
          "type": "uint16"
        },
        {
          "internalType": "bytes",
          "name": "_toAddress",
          "type": "bytes"
        },
        {
          "internalType": "uint256",
          "name": "_tokenId",
          "type": "uint256"
        },
        {
          "internalType": "address payable",
          "name": "_refundAddress",
          "type": "address"
        },
        {
          "internalType": "address",
          "name": "_zroPaymentAddress",
          "type": "address"
        },
        {
          "internalType": "bytes",
          "name": "_adapterParams",
          "type": "bytes"
        }
      ],
      "name": "sendFrom",
      "outputs": [],
      "stateMutability": "payable",
      "type": "function"
    },
    {
      "inputs": [
        {
          "internalType": "address",
          "name": "operator",
          "type": "address"
        },
        {
          "internalType": "bool",
          "name": "approved",
          "type": "bool"
        }
      ],
      "name": "setApprovalForAll",
      "outputs": [],
      "stateMutability": "nonpayable",
      "type": "function"
    },
    {
      "inputs": [
        {
          "internalType": "uint16",
          "name": "_version",
          "type": "uint16"
        },
        {
          "internalType": "uint16",
          "name": "_chainId",
          "type": "uint16"
        },
        {
          "internalType": "uint256",
          "name": "_configType",
          "type": "uint256"
        },
        {
          "internalType": "bytes",
          "name": "_config",
          "type": "bytes"
        }
      ],
      "name": "setConfig",
      "outputs": [],
      "stateMutability": "nonpayable",
      "type": "function"
    },
    {
      "inputs": [
        {
          "internalType": "uint16",
          "name": "_dstChainId",
          "type": "uint16"
        },
        {
          "internalType": "uint256",
          "name": "_dstChainIdToBatchLimit",
          "type": "uint256"
        }
      ],
      "name": "setDstChainIdToBatchLimit",
      "outputs": [],
      "stateMutability": "nonpayable",
      "type": "function"
    },
    {
      "inputs": [
        {
          "internalType": "uint16",
          "name": "_dstChainId",
          "type": "uint16"
        },
        {
          "internalType": "uint256",
          "name": "_dstChainIdToTransferGas",
          "type": "uint256"
        }
      ],
      "name": "setDstChainIdToTransferGas",
      "outputs": [],
      "stateMutability": "nonpayable",
      "type": "function"
    },
    {
      "inputs": [
        {
          "internalType": "uint16",
          "name": "_dstChainId",
          "type": "uint16"
        },
        {
          "internalType": "uint16",
          "name": "_packetType",
          "type": "uint16"
        },
        {
          "internalType": "uint256",
          "name": "_minGas",
          "type": "uint256"
        }
      ],
      "name": "setMinDstGas",
      "outputs": [],
      "stateMutability": "nonpayable",
      "type": "function"
    },
    {
      "inputs": [
        {
          "internalType": "uint256",
          "name": "_minGasToTransferAndStore",
          "type": "uint256"
        }
      ],
      "name": "setMinGasToTransferAndStore",
      "outputs": [],
      "stateMutability": "nonpayable",
      "type": "function"
    },
    {
      "inputs": [
        {
          "internalType": "uint16",
          "name": "_dstChainId",
          "type": "uint16"
        },
        {
          "internalType": "uint256",
          "name": "_size",
          "type": "uint256"
        }
      ],
      "name": "setPayloadSizeLimit",
      "outputs": [],
      "stateMutability": "nonpayable",
      "type": "function"
    },
    {
      "inputs": [
        {
          "internalType": "address",
          "name": "_precrime",
          "type": "address"
        }
      ],
      "name": "setPrecrime",
      "outputs": [],
      "stateMutability": "nonpayable",
      "type": "function"
    },
    {
      "inputs": [
        {
          "internalType": "uint16",
          "name": "_version",
          "type": "uint16"
        }
      ],
      "name": "setReceiveVersion",
      "outputs": [],
      "stateMutability": "nonpayable",
      "type": "function"
    },
    {
      "inputs": [
        {
          "internalType": "uint16",
          "name": "_version",
          "type": "uint16"
        }
      ],
      "name": "setSendVersion",
      "outputs": [],
      "stateMutability": "nonpayable",
      "type": "function"
    },
    {
      "inputs": [
        {
          "internalType": "uint16",
          "name": "_remoteChainId",
          "type": "uint16"
        },
        {
          "internalType": "bytes",
          "name": "_path",
          "type": "bytes"
        }
      ],
      "name": "setTrustedRemote",
      "outputs": [],
      "stateMutability": "nonpayable",
      "type": "function"
    },
    {
      "inputs": [
        {
          "internalType": "uint16",
          "name": "_remoteChainId",
          "type": "uint16"
        },
        {
          "internalType": "bytes",
          "name": "_remoteAddress",
          "type": "bytes"
        }
      ],
      "name": "setTrustedRemoteAddress",
      "outputs": [],
      "stateMutability": "nonpayable",
      "type": "function"
    },
    {
      "inputs": [
        {
          "internalType": "bytes32",
          "name": "",
          "type": "bytes32"
        }
      ],
      "name": "storedCredits",
      "outputs": [
        {
          "internalType": "uint16",
          "name": "srcChainId",
          "type": "uint16"
        },
        {
          "internalType": "address",
          "name": "toAddress",
          "type": "address"
        },
        {
          "internalType": "uint256",
          "name": "index",
          "type": "uint256"
        },
        {
          "internalType": "bool",
          "name": "creditsRemain",
          "type": "bool"
        }
      ],
      "stateMutability": "view",
      "type": "function"
    },
    {
      "inputs": [
        {
          "internalType": "bytes4",
          "name": "interfaceId",
          "type": "bytes4"
        }
      ],
      "name": "supportsInterface",
      "outputs": [
        {
          "internalType": "bool",
          "name": "",
          "type": "bool"
        }
      ],
      "stateMutability": "view",
      "type": "function"
    },
    {
      "inputs": [],
      "name": "symbol",
      "outputs": [
        {
          "internalType": "string",
          "name": "",
          "type": "string"
        }
      ],
      "stateMutability": "view",
      "type": "function"
    },
    {
      "inputs": [
        {
          "internalType": "uint256",
          "name": "tokenId",
          "type": "uint256"
        }
      ],
      "name": "tokenURI",
      "outputs": [
        {
          "internalType": "string",
          "name": "",
          "type": "string"
        }
      ],
      "stateMutability": "view",
      "type": "function"
    },
    {
      "inputs": [
        {
          "internalType": "address",
          "name": "from",
          "type": "address"
        },
        {
          "internalType": "address",
          "name": "to",
          "type": "address"
        },
        {
          "internalType": "uint256",
          "name": "tokenId",
          "type": "uint256"
        }
      ],
      "name": "transferFrom",
      "outputs": [],
      "stateMutability": "nonpayable",
      "type": "function"
    },
    {
      "inputs": [
        {
          "internalType": "address",
          "name": "newOwner",
          "type": "address"
        }
      ],
      "name": "transferOwnership",
      "outputs": [],
      "stateMutability": "nonpayable",
      "type": "function"
    },
    {
      "inputs": [
        {
          "internalType": "uint16",
          "name": "",
          "type": "uint16"
        }
      ],
      "name": "trustedRemoteLookup",
      "outputs": [
        {
          "internalType": "bytes",
          "name": "",
          "type": "bytes"
        }
      ],
      "stateMutability": "view",
      "type": "function"
    }
  ],
  "bytecode": "0x60a06040523480156200001157600080fd5b50604051620049fc380380620049fc8339810160408190526200003491620002b4565b8383838380806200004533620000f1565b6001600160a01b031660805250600160065581620000b55760405162461bcd60e51b8152602060048201526024808201527f6d696e476173546f5472616e73666572416e6453746f7265206d7573742062656044820152630203e20360e41b606482015260840160405180910390fd5b506007558151620000ce90600b90602085019062000141565b508051620000e490600c90602084019062000141565b5050505050505062000386565b600080546001600160a01b038381166001600160a01b0319831681178455604051919092169283917f8be0079c531659141344cd1fd0a4f28419497f9722a3daafe3b4186f6b6457e09190a35050565b8280546200014f9062000349565b90600052602060002090601f016020900481019282620001735760008555620001be565b82601f106200018e57805160ff1916838001178555620001be565b82800160010185558215620001be579182015b82811115620001be578251825591602001919060010190620001a1565b50620001cc929150620001d0565b5090565b5b80821115620001cc5760008155600101620001d1565b634e487b7160e01b600052604160045260246000fd5b600082601f8301126200020f57600080fd5b81516001600160401b03808211156200022c576200022c620001e7565b604051601f8301601f19908116603f01168101908282118183101715620002575762000257620001e7565b816040528381526020925086838588010111156200027457600080fd5b600091505b8382101562000298578582018301518183018401529082019062000279565b83821115620002aa5760008385830101525b9695505050505050565b60008060008060808587031215620002cb57600080fd5b84516001600160401b0380821115620002e357600080fd5b620002f188838901620001fd565b955060208701519150808211156200030857600080fd5b506200031787828801620001fd565b60408701516060880151919550935090506001600160a01b03811681146200033e57600080fd5b939692955090935050565b600181811c908216806200035e57607f821691505b602082108114156200038057634e487b7160e01b600052602260045260246000fd5b50919050565b608051614622620003da6000396000818161085e01528181610a6201528181610d6601528181610feb0152818161118001528181611a6801528181611eef015281816120220152612fe101526146226000f3fe6080604052600436106102e35760003560e01c80638cfd8f5c11610190578063baf3292d116100dc578063df2a5b3b11610095578063f23536411161006f578063f2353641146109d2578063f2fde38b146109f2578063f5ecbdbc14610a12578063fa25f9b614610a3257600080fd5b8063df2a5b3b14610949578063e985e9c514610969578063eb8d72b7146109b257600080fd5b8063baf3292d146108a0578063c4461834146108c0578063c87b56dd146108d6578063cbed8b9c146108f6578063d12473a514610916578063d1deba1f1461093657600080fd5b80639f38369a11610149578063ab3ffb9311610123578063ab3ffb9314610811578063af3fb21c14610824578063b353aaa71461084c578063b88d4fde1461088057600080fd5b80639f38369a146107b1578063a22cb465146107d1578063a6c3d165146107f157600080fd5b80638cfd8f5c146106e65780638da5cb5b1461071e5780638ffa1f2a1461073c578063950c8a741461075c57806395d89b411461077c5780639ea5d6b11461079157600080fd5b80633d8b38f61161024f578063519056361161020857806366ad5c8a116101e257806366ad5c8a1461067157806370a0823114610691578063715018a6146106b15780637533d788146106c657600080fd5b806351905636146105ef5780635b8c41e6146106025780636352211e1461065157600080fd5b80633d8b38f6146105115780633f1f4fa41461053157806342842e0e1461056c57806342d65a8d1461058c57806348288190146105ac5780634ac3f4ff146105c257600080fd5b80630b4cad4c116102a15780630b4cad4c146103d95780630df37483146103f957806310ddb1371461041957806322a3ecf91461043957806323b872dd146104bc5780632a205e3d146104dc57600080fd5b80621d3567146102e857806301ffc9a71461030a57806306fdde031461033f57806307e0db1714610361578063081812fc14610381578063095ea7b3146103b9575b600080fd5b3480156102f457600080fd5b50610308610303366004613692565b610a5f565b005b34801561031657600080fd5b5061032a61032536600461373b565b610c90565b60405190151581526020015b60405180910390f35b34801561034b57600080fd5b50610354610cb3565b60405161033691906137b0565b34801561036d57600080fd5b5061030861037c3660046137c3565b610d45565b34801561038d57600080fd5b506103a161039c3660046137de565b610dce565b6040516001600160a01b039091168152602001610336565b3480156103c557600080fd5b506103086103d4366004613817565b610df5565b3480156103e557600080fd5b506103086103f43660046137de565b610f0b565b34801561040557600080fd5b50610308610414366004613843565b610fab565b34801561042557600080fd5b506103086104343660046137c3565b610fca565b34801561044557600080fd5b5061048d6104543660046137de565b600a6020526000908152604090208054600182015460029092015461ffff821692620100009092046001600160a01b0316919060ff1684565b6040805161ffff90951685526001600160a01b0390931660208501529183015215156060820152608001610336565b3480156104c857600080fd5b506103086104d736600461385f565b611022565b3480156104e857600080fd5b506104fc6104f7366004613973565b611054565b60408051928352602083019190915201610336565b34801561051d57600080fd5b5061032a61052c366004613a01565b61107a565b34801561053d57600080fd5b5061055e61054c3660046137c3565b60036020526000908152604090205481565b604051908152602001610336565b34801561057857600080fd5b5061030861058736600461385f565b611146565b34801561059857600080fd5b506103086105a7366004613a01565b611161565b3480156105b857600080fd5b5061055e60075481565b3480156105ce57600080fd5b5061055e6105dd3660046137c3565b60086020526000908152604090205481565b6103086105fd366004613a53565b6111e7565b34801561060e57600080fd5b5061055e61061d366004613b0c565b6005602090815260009384526040808520845180860184018051928152908401958401959095209452929052825290205481565b34801561065d57600080fd5b506103a161066c3660046137de565b6111fe565b34801561067d57600080fd5b5061030861068c366004613692565b61125e565b34801561069d57600080fd5b5061055e6106ac366004613b69565b61133a565b3480156106bd57600080fd5b506103086113c0565b3480156106d257600080fd5b506103546106e13660046137c3565b6113d4565b3480156106f257600080fd5b5061055e610701366004613b86565b600260209081526000928352604080842090915290825290205481565b34801561072a57600080fd5b506000546001600160a01b03166103a1565b34801561074857600080fd5b50610308610757366004613bb9565b61146e565b34801561076857600080fd5b506004546103a1906001600160a01b031681565b34801561078857600080fd5b506103546116ba565b34801561079d57600080fd5b506103086107ac366004613843565b6116c9565b3480156107bd57600080fd5b506103546107cc3660046137c3565b611780565b3480156107dd57600080fd5b506103086107ec366004613bed565b611897565b3480156107fd57600080fd5b5061030861080c366004613a01565b6118a6565b61030861081f366004613ca2565b611939565b34801561083057600080fd5b50610839600181565b60405161ffff9091168152602001610336565b34801561085857600080fd5b506103a17f000000000000000000000000000000000000000000000000000000000000000081565b34801561088c57600080fd5b5061030861089b366004613d57565b611948565b3480156108ac57600080fd5b506103086108bb366004613b69565b611980565b3480156108cc57600080fd5b5061055e61271081565b3480156108e257600080fd5b506103546108f13660046137de565b6119d6565b34801561090257600080fd5b50610308610911366004613dc2565b611a49565b34801561092257600080fd5b50610308610931366004613843565b611ade565b610308610944366004613692565b611b8e565b34801561095557600080fd5b50610308610964366004613e30565b611da4565b34801561097557600080fd5b5061032a610984366004613e6c565b6001600160a01b03918216600090815260106020908152604080832093909416825291909152205460ff1690565b3480156109be57600080fd5b506103086109cd366004613a01565b611e56565b3480156109de57600080fd5b506104fc6109ed366004613ea5565b611eb0565b3480156109fe57600080fd5b50610308610a0d366004613b69565b611f7b565b348015610a1e57600080fd5b50610354610a2d366004613f1e565b611ff1565b348015610a3e57600080fd5b5061055e610a4d3660046137c3565b60096020526000908152604090205481565b337f00000000000000000000000000000000000000000000000000000000000000006001600160a01b031614610adc5760405162461bcd60e51b815260206004820152601e60248201527f4c7a4170703a20696e76616c696420656e64706f696e742063616c6c6572000060448201526064015b60405180910390fd5b61ffff861660009081526001602052604081208054610afa90613f6b565b80601f0160208091040260200160405190810160405280929190818152602001828054610b2690613f6b565b8015610b735780601f10610b4857610100808354040283529160200191610b73565b820191906000526020600020905b815481529060010190602001808311610b5657829003601f168201915b50505050509050805186869050148015610b8e575060008151115b8015610bb6575080516020820120604051610bac9088908890613fa6565b6040518091039020145b610c115760405162461bcd60e51b815260206004820152602660248201527f4c7a4170703a20696e76616c696420736f757263652073656e64696e6720636f6044820152651b9d1c9858dd60d21b6064820152608401610ad3565b610c878787878080601f01602080910402602001604051908101604052809392919081815260200183838082843760009201919091525050604080516020601f8a018190048102820181019092528881528a9350915088908890819084018382808284376000920191909152506120a492505050565b50505050505050565b60006001600160e01b031982161580610cad5750610cad8261211d565b92915050565b6060600b8054610cc290613f6b565b80601f0160208091040260200160405190810160405280929190818152602001828054610cee90613f6b565b8015610d3b5780601f10610d1057610100808354040283529160200191610d3b565b820191906000526020600020905b815481529060010190602001808311610d1e57829003601f168201915b5050505050905090565b610d4d61215d565b6040516307e0db1760e01b815261ffff821660048201527f00000000000000000000000000000000000000000000000000000000000000006001600160a01b0316906307e0db17906024015b600060405180830381600087803b158015610db357600080fd5b505af1158015610dc7573d6000803e3d6000fd5b5050505050565b6000610dd9826121b7565b506000908152600f60205260409020546001600160a01b031690565b6000610e00826111fe565b9050806001600160a01b0316836001600160a01b03161415610e6e5760405162461bcd60e51b815260206004820152602160248201527f4552433732313a20617070726f76616c20746f2063757272656e74206f776e656044820152603960f91b6064820152608401610ad3565b336001600160a01b0382161480610e8a5750610e8a8133610984565b610efc5760405162461bcd60e51b815260206004820152603d60248201527f4552433732313a20617070726f76652063616c6c6572206973206e6f7420746f60448201527f6b656e206f776e6572206f7220617070726f76656420666f7220616c6c0000006064820152608401610ad3565b610f068383612207565b505050565b610f1361215d565b60008111610f6f5760405162461bcd60e51b8152602060048201526024808201527f6d696e476173546f5472616e73666572416e6453746f7265206d7573742062656044820152630203e20360e41b6064820152608401610ad3565b60078190556040518181527ffebbc4f8bb9ec2313950c718d43123124b15778efda4c1f1d529de2995b4f34d906020015b60405180910390a150565b610fb361215d565b61ffff909116600090815260036020526040902055565b610fd261215d565b6040516310ddb13760e01b815261ffff821660048201527f00000000000000000000000000000000000000000000000000000000000000006001600160a01b0316906310ddb13790602401610d99565b61102d335b82612275565b6110495760405162461bcd60e51b8152600401610ad390613fb6565b610f068383836122f3565b60008061106c878761106588612457565b8787611eb0565b915091509550959350505050565b61ffff83166000908152600160205260408120805482919061109b90613f6b565b80601f01602080910402602001604051908101604052809291908181526020018280546110c790613f6b565b80156111145780601f106110e957610100808354040283529160200191611114565b820191906000526020600020905b8154815290600101906020018083116110f757829003601f168201915b50505050509050838360405161112b929190613fa6565b60405180910390208180519060200120149150509392505050565b610f0683838360405180602001604052806000815250611948565b61116961215d565b6040516342d65a8d60e01b81526001600160a01b037f000000000000000000000000000000000000000000000000000000000000000016906342d65a8d906111b99086908690869060040161402c565b600060405180830381600087803b1580156111d357600080fd5b505af1158015610c87573d6000803e3d6000fd5b610c878787876111f688612457565b8787876124a2565b6000818152600d60205260408120546001600160a01b031680610cad5760405162461bcd60e51b8152602060048201526018602482015277115490cdcc8c4e881a5b9d985b1a59081d1bdad95b88125160421b6044820152606401610ad3565b3330146112bc5760405162461bcd60e51b815260206004820152602660248201527f4e6f6e626c6f636b696e674c7a4170703a2063616c6c6572206d7573742062656044820152650204c7a4170760d41b6064820152608401610ad3565b6113328686868080601f01602080910402602001604051908101604052809392919081815260200183838082843760009201919091525050604080516020601f89018190048102820181019092528781528993509150879087908190840183828082843760009201919091525061267692505050565b505050505050565b60006001600160a01b0382166113a45760405162461bcd60e51b815260206004820152602960248201527f4552433732313a2061646472657373207a65726f206973206e6f7420612076616044820152683634b21037bbb732b960b91b6064820152608401610ad3565b506001600160a01b03166000908152600e602052604090205490565b6113c861215d565b6113d260006127cd565b565b600160205260009081526040902080546113ed90613f6b565b80601f016020809104026020016040519081016040528092919081815260200182805461141990613f6b565b80156114665780601f1061143b57610100808354040283529160200191611466565b820191906000526020600020905b81548152906001019060200180831161144957829003601f168201915b505050505081565b61147661281d565b80516020808301919091206000818152600a90925260409091206002015460ff166114d75760405162461bcd60e51b81526020600482015260116024820152701b9bc818dc99591a5d1cc81cdd1bdc9959607a1b6044820152606401610ad3565b6000828060200190518101906114ed919061408f565b6000848152600a6020526040812080546001909101549294509092506115299161ffff8216916201000090046001600160a01b03169085612877565b6000848152600a6020526040902060010154909150811161159e5760405162461bcd60e51b815260206004820152602960248201527f6e6f7420656e6f7567682067617320746f2070726f6365737320637265646974604482015268103a3930b739b332b960b91b6064820152608401610ad3565b8151811415611616576000838152600a602052604080822080546001600160b01b031916815560018101929092556002909101805460ff19169055517fd7be02b8dd0d27bd0517a9cb4d7469ce27df4313821ae5ec1ff69acc594ba233906116099085815260200190565b60405180910390a16116aa565b604080516080810182526000858152600a6020818152848320805461ffff80821687526001600160a01b03620100008084048216868a019081529989018b8152600160608b01818152998f90529790965297519851169096026001600160b01b03199091169690951695909517939093178455915191830191909155516002909101805491151560ff199092169190911790555b5050506116b76001600655565b50565b6060600c8054610cc290613f6b565b6116d161215d565b6000811161172c5760405162461bcd60e51b815260206004820152602260248201527f647374436861696e4964546f42617463684c696d6974206d757374206265203e604482015261020360f41b6064820152608401610ad3565b61ffff8216600081815260086020908152604091829020849055815192835282018390527f7315f7654d594ead24a30160ed9ba2d23247f543016b918343591e93d7afdb6d91015b60405180910390a15050565b61ffff81166000908152600160205260408120805460609291906117a390613f6b565b80601f01602080910402602001604051908101604052809291908181526020018280546117cf90613f6b565b801561181c5780601f106117f15761010080835404028352916020019161181c565b820191906000526020600020905b8154815290600101906020018083116117ff57829003601f168201915b505050505090508051600014156118755760405162461bcd60e51b815260206004820152601d60248201527f4c7a4170703a206e6f20747275737465642070617468207265636f72640000006044820152606401610ad3565b611890600060148351611888919061415f565b8391906128c9565b9392505050565b6118a23383836129d6565b5050565b6118ae61215d565b8181306040516020016118c393929190614176565b60408051601f1981840301815291815261ffff851660009081526001602090815291902082516118f89391929091019061350f565b507f8c0400cfe2d1199b1a725c78960bcc2a344d869b80590d0f2bd005db15a572ce83838360405161192c9392919061402c565b60405180910390a1505050565b610c87878787878787876124a2565b6119523383612275565b61196e5760405162461bcd60e51b8152600401610ad390613fb6565b61197a84848484612aa5565b50505050565b61198861215d565b600480546001600160a01b0319166001600160a01b0383169081179091556040519081527f5db758e995a17ec1ad84bdef7e8c3293a0bd6179bcce400dff5d4c3d87db726b90602001610fa0565b60606119e1826121b7565b60006119f860408051602081019091526000815290565b90506000815111611a185760405180602001604052806000815250611890565b80611a2284612ad8565b604051602001611a3392919061419c565b6040516020818303038152906040529392505050565b611a5161215d565b6040516332fb62e760e21b81526001600160a01b037f0000000000000000000000000000000000000000000000000000000000000000169063cbed8b9c90611aa590889088908890889088906004016141cb565b600060405180830381600087803b158015611abf57600080fd5b505af1158015611ad3573d6000803e3d6000fd5b505050505050505050565b611ae661215d565b60008111611b425760405162461bcd60e51b815260206004820152602360248201527f647374436861696e4964546f5472616e73666572476173206d7573742062652060448201526203e20360ec1b6064820152608401610ad3565b61ffff8216600081815260096020908152604091829020849055815192835282018390527fc46df2983228ac2d9754e94a0d565e6671665dc8ad38602bc8e544f0685a29fb9101611774565b61ffff86166000908152600560205260408082209051611bb19088908890613fa6565b90815260408051602092819003830190206001600160401b03871660009081529252902054905080611c315760405162461bcd60e51b815260206004820152602360248201527f4e6f6e626c6f636b696e674c7a4170703a206e6f2073746f726564206d65737360448201526261676560e81b6064820152608401610ad3565b808383604051611c42929190613fa6565b604051809103902014611ca15760405162461bcd60e51b815260206004820152602160248201527f4e6f6e626c6f636b696e674c7a4170703a20696e76616c6964207061796c6f616044820152601960fa1b6064820152608401610ad3565b61ffff87166000908152600560205260408082209051611cc49089908990613fa6565b90815260408051602092819003830181206001600160401b038916600090815290845282902093909355601f88018290048202830182019052868252611d5c918991899089908190840183828082843760009201919091525050604080516020601f8a018190048102820181019092528881528a93509150889088908190840183828082843760009201919091525061267692505050565b7fc264d91f3adc5588250e1551f547752ca0cfa8f6b530d243b9f9f4cab10ea8e58787878785604051611d93959493929190614204565b60405180910390a150505050505050565b611dac61215d565b60008111611df45760405162461bcd60e51b81526020600482015260156024820152744c7a4170703a20696e76616c6964206d696e47617360581b6044820152606401610ad3565b61ffff83811660008181526002602090815260408083209487168084529482529182902085905581519283528201929092529081018290527f9d5c7c0b934da8fefa9c7760c98383778a12dfbfc0c3b3106518f43fb9508ac09060600161192c565b611e5e61215d565b61ffff83166000908152600160205260409020611e7c908383613593565b507ffa41487ad5d6728f0b19276fa1eddc16558578f5109fc39d2dc33c3230470dab83838360405161192c9392919061402c565b60008060008686604051602001611ec892919061427a565b60408051601f198184030181529082905263040a7bb160e41b825291506001600160a01b037f000000000000000000000000000000000000000000000000000000000000000016906340a7bb1090611f2c908b90309086908b908b906004016142a8565b6040805180830381865afa158015611f48573d6000803e3d6000fd5b505050506040513d601f19601f82011682018060405250810190611f6c91906142fc565b92509250509550959350505050565b611f8361215d565b6001600160a01b038116611fe85760405162461bcd60e51b815260206004820152602660248201527f4f776e61626c653a206e6577206f776e657220697320746865207a65726f206160448201526564647265737360d01b6064820152608401610ad3565b6116b7816127cd565b604051633d7b2f6f60e21b815261ffff808616600483015284166024820152306044820152606481018290526060907f00000000000000000000000000000000000000000000000000000000000000006001600160a01b03169063f5ecbdbc90608401600060405180830381865afa158015612071573d6000803e3d6000fd5b505050506040513d6000823e601f3d908101601f191682016040526120999190810190614320565b90505b949350505050565b6000806121075a60966366ad5c8a60e01b898989896040516024016120cc9493929190614354565b60408051601f198184030181529190526020810180516001600160e01b03166001600160e01b03199093169290921790915230929190612b74565b9150915081611332576113328686868685612bfe565b60006001600160e01b031982166380ac58cd60e01b148061214e57506001600160e01b03198216635b5e139f60e01b145b80610cad5750610cad82612c9b565b6000546001600160a01b031633146113d25760405162461bcd60e51b815260206004820181905260248201527f4f776e61626c653a2063616c6c6572206973206e6f7420746865206f776e65726044820152606401610ad3565b6121c081612cd0565b6116b75760405162461bcd60e51b8152602060048201526018602482015277115490cdcc8c4e881a5b9d985b1a59081d1bdad95b88125160421b6044820152606401610ad3565b6000818152600f6020526040902080546001600160a01b0319166001600160a01b038416908117909155819061223c826111fe565b6001600160a01b03167f8c5be1e5ebec7d5bd14f71427d1e84f3dd0314c0f7b2291e5b200ac8c7c3b92560405160405180910390a45050565b600080612281836111fe565b9050806001600160a01b0316846001600160a01b031614806122c857506001600160a01b0380821660009081526010602090815260408083209388168352929052205460ff165b8061209c5750836001600160a01b03166122e184610dce565b6001600160a01b031614949350505050565b826001600160a01b0316612306826111fe565b6001600160a01b03161461232c5760405162461bcd60e51b8152600401610ad390614392565b6001600160a01b03821661238e5760405162461bcd60e51b8152602060048201526024808201527f4552433732313a207472616e7366657220746f20746865207a65726f206164646044820152637265737360e01b6064820152608401610ad3565b826001600160a01b03166123a1826111fe565b6001600160a01b0316146123c75760405162461bcd60e51b8152600401610ad390614392565b6000818152600f6020908152604080832080546001600160a01b03199081169091556001600160a01b03878116808652600e8552838620805460001901905590871680865283862080546001019055868652600d90945282852080549092168417909155905184937fddf252ad1be2c89b69c2b068fc378daa952ba7f163c4a11628f55a4df523b3ef91a4505050565b60408051600180825281830190925260609160009190602080830190803683370190505090508281600081518110612491576124916143d7565b602090810291909101015292915050565b60008451116124e95760405162461bcd60e51b8152602060048201526013602482015272746f6b656e4964735b5d20697320656d70747960681b6044820152606401610ad3565b83516001148061250d575061ffff8616600090815260086020526040902054845111155b6125645760405162461bcd60e51b815260206004820152602260248201527f62617463682073697a65206578636565647320647374206261746368206c696d6044820152611a5d60f21b6064820152608401610ad3565b60005b84518110156125a757612595888888888581518110612588576125886143d7565b6020026020010151612ced565b8061259f816143ed565b915050612567565b50600085856040516020016125bd92919061427a565b6040516020818303038152906040529050612602876001848851600960008d61ffff1661ffff168152602001908152602001600020546125fd9190614408565b612dd8565b612610878286868634612eb7565b8560405161261e9190614427565b6040518091039020886001600160a01b03168861ffff167fe1b87c47fdeb4f9cbadbca9df3af7aba453bb6e501075d0440d88125b711522a886040516126649190614443565b60405180910390a45050505050505050565b6000808280602001905181019061268d919061408f565b6014820151919350915060006126a588838386612877565b905082518110156127795784516020808701919091206040805160808101825261ffff808d1682526001600160a01b038088168387019081528385018881526001606086018181526000898152600a909a529887902095518654935190941662010000026001600160b01b03199093169390941692909217178355519082015592516002909301805493151560ff199094169390931790925590517f10e0b70d256bccc84b7027506978bd8b68984a870788b93b479def144c839ad79061276f9083908990614456565b60405180910390a1505b816001600160a01b0316876040516127919190614427565b60405180910390208961ffff167f5b821db8a46f8ecbe1941ba2f51cfeea9643268b56631f70d45e2a745d990265866040516126649190614443565b600080546001600160a01b038381166001600160a01b0319831681178455604051919092169283917f8be0079c531659141344cd1fd0a4f28419497f9722a3daafe3b4186f6b6457e09190a35050565b600260065414156128705760405162461bcd60e51b815260206004820152601f60248201527f5265656e7472616e637947756172643a207265656e7472616e742063616c6c006044820152606401610ad3565b6002600655565b6000825b8251811015612099576007545a101561289357612099565b6128b786868584815181106128aa576128aa6143d7565b602002602001015161305d565b806128c1816143ed565b91505061287b565b6060816128d781601f61446f565b10156129165760405162461bcd60e51b815260206004820152600e60248201526d736c6963655f6f766572666c6f7760901b6044820152606401610ad3565b612920828461446f565b845110156129645760405162461bcd60e51b8152602060048201526011602482015270736c6963655f6f75744f66426f756e647360781b6044820152606401610ad3565b60608215801561298357604051915060008252602082016040526129cd565b6040519150601f8416801560200281840101858101878315602002848b0101015b818310156129bc5780518352602092830192016129a4565b5050858452601f01601f1916604052505b50949350505050565b816001600160a01b0316836001600160a01b03161415612a385760405162461bcd60e51b815260206004820152601960248201527f4552433732313a20617070726f766520746f2063616c6c6572000000000000006044820152606401610ad3565b6001600160a01b03838116600081815260106020908152604080832094871680845294825291829020805460ff191686151590811790915591519182527f17307eab39ab6107e8899845ad3d59bd9653f200f220920489ca2b5937696c31910160405180910390a3505050565b612ab08484846122f3565b612abc848484846130bd565b61197a5760405162461bcd60e51b8152600401610ad390614487565b60606000612ae5836131b8565b60010190506000816001600160401b03811115612b0457612b046138a0565b6040519080825280601f01601f191660200182016040528015612b2e576020820181803683370190505b5090508181016020015b600019016f181899199a1a9b1b9c1cb0b131b232b360811b600a86061a8153600a8504945084612b6757612b6c565b612b38565b509392505050565b6000606060008060008661ffff166001600160401b03811115612b9957612b996138a0565b6040519080825280601f01601f191660200182016040528015612bc3576020820181803683370190505b50905060008087516020890160008d8df191503d925086831115612be5578692505b828152826000602083013e909890975095505050505050565b8180519060200120600560008761ffff1661ffff16815260200190815260200160002085604051612c2f9190614427565b9081526040805191829003602090810183206001600160401b0388166000908152915220919091557fe183f33de2837795525b4792ca4cd60535bd77c53b7e7030060bfcf5734d6b0c90612c8c90879087908790879087906144d9565b60405180910390a15050505050565b60006001600160e01b031982166322bac5d960e01b1480610cad57506301ffc9a760e01b6001600160e01b0319831614610cad565b6000908152600d60205260409020546001600160a01b0316151590565b612cf633611027565b612d595760405162461bcd60e51b815260206004820152602e60248201527f4f4e46543732313a2073656e642063616c6c6572206973206e6f74206f776e6560448201526d1c881b9bdc88185c1c1c9bdd995960921b6064820152608401610ad3565b836001600160a01b0316612d6c826111fe565b6001600160a01b031614612dcd5760405162461bcd60e51b815260206004820152602260248201527f4f4e46543732313a2073656e642066726f6d20696e636f7272656374206f776e60448201526132b960f11b6064820152608401610ad3565b61197a8430836122f3565b6000612de383613290565b61ffff808716600090815260026020908152604080832093891683529290529081205491925090612e1590849061446f565b905060008111612e675760405162461bcd60e51b815260206004820152601a60248201527f4c7a4170703a206d696e4761734c696d6974206e6f74207365740000000000006044820152606401610ad3565b808210156113325760405162461bcd60e51b815260206004820152601b60248201527f4c7a4170703a20676173206c696d697420697320746f6f206c6f7700000000006044820152606401610ad3565b61ffff861660009081526001602052604081208054612ed590613f6b565b80601f0160208091040260200160405190810160405280929190818152602001828054612f0190613f6b565b8015612f4e5780601f10612f2357610100808354040283529160200191612f4e565b820191906000526020600020905b815481529060010190602001808311612f3157829003601f168201915b50505050509050805160001415612fc05760405162461bcd60e51b815260206004820152603060248201527f4c7a4170703a2064657374696e6174696f6e20636861696e206973206e6f742060448201526f61207472757374656420736f7572636560801b6064820152608401610ad3565b612fcb8787516132ec565b60405162c5803160e81b81526001600160a01b037f0000000000000000000000000000000000000000000000000000000000000000169063c5803100908490613022908b9086908c908c908c908c9060040161452b565b6000604051808303818588803b15801561303b57600080fd5b505af115801561304f573d6000803e3d6000fd5b505050505050505050505050565b61306681612cd0565b1580613092575061307681612cd0565b8015613092575030613087826111fe565b6001600160a01b0316145b61309b57600080fd5b6130a481612cd0565b6130b257610f06828261335a565b610f063083836122f3565b60006001600160a01b0384163b156131b057604051630a85bd0160e11b81526001600160a01b0385169063150b7a0290613101903390899088908890600401614592565b6020604051808303816000875af192505050801561313c575060408051601f3d908101601f19168201909252613139918101906145cf565b60015b613196573d80801561316a576040519150601f19603f3d011682016040523d82523d6000602084013e61316f565b606091505b50805161318e5760405162461bcd60e51b8152600401610ad390614487565b805181602001fd5b6001600160e01b031916630a85bd0160e11b14905061209c565b50600161209c565b60008072184f03e93ff9f4daa797ed6e38ed64bf6a1f0160401b83106131f75772184f03e93ff9f4daa797ed6e38ed64bf6a1f0160401b830492506040015b6d04ee2d6d415b85acef81000000008310613223576d04ee2d6d415b85acef8100000000830492506020015b662386f26fc10000831061324157662386f26fc10000830492506010015b6305f5e1008310613259576305f5e100830492506008015b612710831061326d57612710830492506004015b6064831061327f576064830492506002015b600a8310610cad5760010192915050565b60006022825110156132e45760405162461bcd60e51b815260206004820152601c60248201527f4c7a4170703a20696e76616c69642061646170746572506172616d73000000006044820152606401610ad3565b506022015190565b61ffff82166000908152600360205260409020548061330a57506127105b80821115610f065760405162461bcd60e51b815260206004820181905260248201527f4c7a4170703a207061796c6f61642073697a6520697320746f6f206c617267656044820152606401610ad3565b6118a282826040518060200160405280600081525061337983836133a2565b61338660008484846130bd565b610f065760405162461bcd60e51b8152600401610ad390614487565b6001600160a01b0382166133f85760405162461bcd60e51b815260206004820181905260248201527f4552433732313a206d696e7420746f20746865207a65726f20616464726573736044820152606401610ad3565b61340181612cd0565b1561344e5760405162461bcd60e51b815260206004820152601c60248201527f4552433732313a20746f6b656e20616c7265616479206d696e746564000000006044820152606401610ad3565b61345781612cd0565b156134a45760405162461bcd60e51b815260206004820152601c60248201527f4552433732313a20746f6b656e20616c7265616479206d696e746564000000006044820152606401610ad3565b6001600160a01b0382166000818152600e6020908152604080832080546001019055848352600d90915280822080546001600160a01b0319168417905551839291907fddf252ad1be2c89b69c2b068fc378daa952ba7f163c4a11628f55a4df523b3ef908290a45050565b82805461351b90613f6b565b90600052602060002090601f01602090048101928261353d5760008555613583565b82601f1061355657805160ff1916838001178555613583565b82800160010185558215613583579182015b82811115613583578251825591602001919060010190613568565b5061358f929150613607565b5090565b82805461359f90613f6b565b90600052602060002090601f0160209004810192826135c15760008555613583565b82601f106135da5782800160ff19823516178555613583565b82800160010185558215613583579182015b828111156135835782358255916020019190600101906135ec565b5b8082111561358f5760008155600101613608565b803561ffff8116811461362e57600080fd5b919050565b60008083601f84011261364557600080fd5b5081356001600160401b0381111561365c57600080fd5b60208301915083602082850101111561367457600080fd5b9250929050565b80356001600160401b038116811461362e57600080fd5b600080600080600080608087890312156136ab57600080fd5b6136b48761361c565b955060208701356001600160401b03808211156136d057600080fd5b6136dc8a838b01613633565b90975095508591506136f060408a0161367b565b9450606089013591508082111561370657600080fd5b5061371389828a01613633565b979a9699509497509295939492505050565b6001600160e01b0319811681146116b757600080fd5b60006020828403121561374d57600080fd5b813561189081613725565b60005b8381101561377357818101518382015260200161375b565b8381111561197a5750506000910152565b6000815180845261379c816020860160208601613758565b601f01601f19169290920160200192915050565b6020815260006118906020830184613784565b6000602082840312156137d557600080fd5b6118908261361c565b6000602082840312156137f057600080fd5b5035919050565b6001600160a01b03811681146116b757600080fd5b803561362e816137f7565b6000806040838503121561382a57600080fd5b8235613835816137f7565b946020939093013593505050565b6000806040838503121561385657600080fd5b6138358361361c565b60008060006060848603121561387457600080fd5b833561387f816137f7565b9250602084013561388f816137f7565b929592945050506040919091013590565b634e487b7160e01b600052604160045260246000fd5b604051601f8201601f191681016001600160401b03811182821017156138de576138de6138a0565b604052919050565b60006001600160401b038211156138ff576138ff6138a0565b50601f01601f191660200190565b600082601f83011261391e57600080fd5b813561393161392c826138e6565b6138b6565b81815284602083860101111561394657600080fd5b816020850160208301376000918101602001919091529392505050565b8035801515811461362e57600080fd5b600080600080600060a0868803121561398b57600080fd5b6139948661361c565b945060208601356001600160401b03808211156139b057600080fd5b6139bc89838a0161390d565b9550604088013594506139d160608901613963565b935060808801359150808211156139e757600080fd5b506139f48882890161390d565b9150509295509295909350565b600080600060408486031215613a1657600080fd5b613a1f8461361c565b925060208401356001600160401b03811115613a3a57600080fd5b613a4686828701613633565b9497909650939450505050565b600080600080600080600060e0888a031215613a6e57600080fd5b8735613a79816137f7565b9650613a876020890161361c565b955060408801356001600160401b0380821115613aa357600080fd5b613aaf8b838c0161390d565b965060608a0135955060808a01359150613ac8826137f7565b90935060a089013590613ada826137f7565b90925060c08901359080821115613af057600080fd5b50613afd8a828b0161390d565b91505092959891949750929550565b600080600060608486031215613b2157600080fd5b613b2a8461361c565b925060208401356001600160401b03811115613b4557600080fd5b613b518682870161390d565b925050613b606040850161367b565b90509250925092565b600060208284031215613b7b57600080fd5b8135611890816137f7565b60008060408385031215613b9957600080fd5b613ba28361361c565b9150613bb06020840161361c565b90509250929050565b600060208284031215613bcb57600080fd5b81356001600160401b03811115613be157600080fd5b61209c8482850161390d565b60008060408385031215613c0057600080fd5b8235613c0b816137f7565b9150613bb060208401613963565b60006001600160401b03821115613c3257613c326138a0565b5060051b60200190565b600082601f830112613c4d57600080fd5b81356020613c5d61392c83613c19565b82815260059290921b84018101918181019086841115613c7c57600080fd5b8286015b84811015613c975780358352918301918301613c80565b509695505050505050565b600080600080600080600060e0888a031215613cbd57600080fd5b8735613cc8816137f7565b9650613cd66020890161361c565b955060408801356001600160401b0380821115613cf257600080fd5b613cfe8b838c0161390d565b965060608a0135915080821115613d1457600080fd5b613d208b838c01613c3c565b955060808a01359150613d32826137f7565b819450613d4160a08b0161380c565b935060c08a0135915080821115613af057600080fd5b60008060008060808587031215613d6d57600080fd5b8435613d78816137f7565b93506020850135613d88816137f7565b92506040850135915060608501356001600160401b03811115613daa57600080fd5b613db68782880161390d565b91505092959194509250565b600080600080600060808688031215613dda57600080fd5b613de38661361c565b9450613df16020870161361c565b93506040860135925060608601356001600160401b03811115613e1357600080fd5b613e1f88828901613633565b969995985093965092949392505050565b600080600060608486031215613e4557600080fd5b613e4e8461361c565b9250613e5c6020850161361c565b9150604084013590509250925092565b60008060408385031215613e7f57600080fd5b8235613e8a816137f7565b91506020830135613e9a816137f7565b809150509250929050565b600080600080600060a08688031215613ebd57600080fd5b613ec68661361c565b945060208601356001600160401b0380821115613ee257600080fd5b613eee89838a0161390d565b95506040880135915080821115613f0457600080fd5b613f1089838a01613c3c565b94506139d160608901613963565b60008060008060808587031215613f3457600080fd5b613f3d8561361c565b9350613f4b6020860161361c565b92506040850135613f5b816137f7565b9396929550929360600135925050565b600181811c90821680613f7f57607f821691505b60208210811415613fa057634e487b7160e01b600052602260045260246000fd5b50919050565b8183823760009101908152919050565b6020808252602d908201527f4552433732313a2063616c6c6572206973206e6f7420746f6b656e206f776e6560408201526c1c881bdc88185c1c1c9bdd9959609a1b606082015260800190565b81835281816020850137506000828201602090810191909152601f909101601f19169091010190565b61ffff84168152604060208201526000612099604083018486614003565b600082601f83011261405b57600080fd5b815161406961392c826138e6565b81815284602083860101111561407e57600080fd5b61209c826020830160208701613758565b600080604083850312156140a257600080fd5b82516001600160401b03808211156140b957600080fd5b6140c58683870161404a565b93506020915081850151818111156140dc57600080fd5b85019050601f810186136140ef57600080fd5b80516140fd61392c82613c19565b81815260059190911b8201830190838101908883111561411c57600080fd5b928401925b8284101561413a57835182529284019290840190614121565b80955050505050509250929050565b634e487b7160e01b600052601160045260246000fd5b60008282101561417157614171614149565b500390565b8284823760609190911b6bffffffffffffffffffffffff19169101908152601401919050565b600083516141ae818460208801613758565b8351908301906141c2818360208801613758565b01949350505050565b600061ffff8088168352808716602084015250846040830152608060608301526141f9608083018486614003565b979650505050505050565b61ffff86168152608060208201526000614222608083018688614003565b6001600160401b0394909416604083015250606001529392505050565b600081518084526020808501945080840160005b8381101561426f57815187529582019590820190600101614253565b509495945050505050565b60408152600061428d6040830185613784565b828103602084015261429f818561423f565b95945050505050565b61ffff861681526001600160a01b038516602082015260a0604082018190526000906142d690830186613784565b841515606084015282810360808401526142f08185613784565b98975050505050505050565b6000806040838503121561430f57600080fd5b505080516020909101519092909150565b60006020828403121561433257600080fd5b81516001600160401b0381111561434857600080fd5b61209c8482850161404a565b61ffff851681526080602082015260006143716080830186613784565b6001600160401b038516604084015282810360608401526141f98185613784565b60208082526025908201527f4552433732313a207472616e736665722066726f6d20696e636f72726563742060408201526437bbb732b960d91b606082015260800190565b634e487b7160e01b600052603260045260246000fd5b600060001982141561440157614401614149565b5060010190565b600081600019048311821515161561442257614422614149565b500290565b60008251614439818460208701613758565b9190910192915050565b602081526000611890602083018461423f565b82815260406020820152600061209c6040830184613784565b6000821982111561448257614482614149565b500190565b60208082526032908201527f4552433732313a207472616e7366657220746f206e6f6e20455243373231526560408201527131b2b4bb32b91034b6b83632b6b2b73a32b960711b606082015260800190565b61ffff8616815260a0602082015260006144f660a0830187613784565b6001600160401b038616604084015282810360608401526145178186613784565b905082810360808401526142f08185613784565b61ffff8716815260c06020820152600061454860c0830188613784565b828103604084015261455a8188613784565b6001600160a01b0387811660608601528616608085015283810360a085015290506145858185613784565b9998505050505050505050565b6001600160a01b03858116825284166020820152604081018390526080606082018190526000906145c590830184613784565b9695505050505050565b6000602082840312156145e157600080fd5b81516118908161372556fea26469706673582212208063ccfecc11eabd712c9c098fac29f66b9549f9cf04085501f4832c0ea06f8264736f6c634300080c0033",
  "linkReferences": {},
  "deployedLinkReferences": {}
}