{
  "_format": "hh-sol-artifact-1",
  "contractName": "OutboundConfig",
  "sourceName": "contracts/OutboundConfig.sol",
  "abi": [
    {
      "inputs": [
        {
          "internalType": "uint32",
          "name": "dstEid",
          "type": "uint32"
        }
      ],
      "name": "defaultOutboundConfig",
      "outputs": [
        {
          "internalType": "uint32",
          "name": "maxMessageSize",
          "type": "uint32"
        },
        {
          "internalType": "uint64",
          "name": "outboundConfirmations",
          "type": "uint64"
        },
        {
          "internalType": "address",
          "name": "executor",
          "type": "address"
        }
      ],
      "stateMutability": "view",
      "type": "function"
    },
    {
      "inputs": [
        {
          "internalType": "uint32",
          "name": "_eid",
          "type": "uint32"
        },
        {
          "internalType": "uint32",
          "name": "_configType",
          "type": "uint32"
        }
      ],
      "name": "getDefaultOutboundConfigByType",
      "outputs": [
        {
          "internalType": "bytes",
          "name": "",
          "type": "bytes"
        }
      ],
      "stateMutability": "view",
      "type": "function"
    },
    {
      "inputs": [
        {
          "internalType": "address",
          "name": "_oapp",
          "type": "address"
        },
        {
          "internalType": "uint32",
          "name": "_dstEid",
          "type": "uint32"
        }
      ],
      "name": "getOutboundConfig",
      "outputs": [
        {
          "components": [
            {
              "internalType": "uint32",
              "name": "maxMessageSize",
              "type": "uint32"
            },
            {
              "internalType": "uint64",
              "name": "outboundConfirmations",
              "type": "uint64"
            },
            {
              "internalType": "address",
              "name": "executor",
              "type": "address"
            }
          ],
          "internalType": "struct OutboundConfigStruct",
          "name": "",
          "type": "tuple"
        }
      ],
      "stateMutability": "view",
      "type": "function"
    },
    {
      "inputs": [
        {
          "internalType": "uint32",
          "name": "_eid",
          "type": "uint32"
        },
        {
          "internalType": "address",
          "name": "_oapp",
          "type": "address"
        },
        {
          "internalType": "uint256",
          "name": "_configType",
          "type": "uint256"
        }
      ],
      "name": "getOutboundConfigByType",
      "outputs": [
        {
          "internalType": "bytes",
          "name": "",
          "type": "bytes"
        },
        {
          "internalType": "bool",
          "name": "",
          "type": "bool"
        }
      ],
      "stateMutability": "view",
      "type": "function"
    },
    {
      "inputs": [
        {
          "internalType": "address",
          "name": "oapp",
          "type": "address"
        },
        {
          "internalType": "uint32",
          "name": "dstEid",
          "type": "uint32"
        }
      ],
      "name": "outboundConfig",
      "outputs": [
        {
          "internalType": "uint32",
          "name": "maxMessageSize",
          "type": "uint32"
        },
        {
          "internalType": "uint64",
          "name": "outboundConfirmations",
          "type": "uint64"
        },
        {
          "internalType": "address",
          "name": "executor",
          "type": "address"
        }
      ],
      "stateMutability": "view",
      "type": "function"
    }
  ],
  "bytecode": "0x608060405234801561001057600080fd5b50610a14806100206000396000f3fe608060405234801561001057600080fd5b50600436106100675760003560e01c806381fa12a11161005057806381fa12a11461017f578063c4c37246146101a0578063ef7027f2146101fb57600080fd5b8063545d1efa1461006c57806375b5152a1461011e575b600080fd5b6100d861007a366004610896565b600160209081526000928352604080842090915290825290205463ffffffff811690640100000000810467ffffffffffffffff16906c01000000000000000000000000900473ffffffffffffffffffffffffffffffffffffffff1683565b6040805163ffffffff909416845267ffffffffffffffff909216602084015273ffffffffffffffffffffffffffffffffffffffff16908201526060015b60405180910390f35b6100d861012c3660046108c9565b60006020819052908152604090205463ffffffff811690640100000000810467ffffffffffffffff16906c01000000000000000000000000900473ffffffffffffffffffffffffffffffffffffffff1683565b61019261018d3660046108eb565b61021b565b60405161011592919061098b565b6101b36101ae366004610896565b61054c565b60408051825163ffffffff16815260208084015167ffffffffffffffff16908201529181015173ffffffffffffffffffffffffffffffffffffffff1690820152606001610115565b61020e6102093660046109af565b610705565b60405161011591906109cb565b606060007fffffffffffffffffffffffffffffffffffffffffffffffffffffffffffffffff83016102fc5773ffffffffffffffffffffffffffffffffffffffff8416600090815260016020908152604080832063ffffffff808a1685529252822080549092911690036102cc5763ffffffff868116600090815260208181526040918290208054835194169184019190915291015b6040516020818303038152906040526001935093505050610544565b80546040805163ffffffff9092166020830152015b60405160208183030381529060405260009250925050610544565b7ffffffffffffffffffffffffffffffffffffffffffffffffffffffffffffffffe83016103d65773ffffffffffffffffffffffffffffffffffffffff8416600090815260016020908152604080832063ffffffff8916845290915281208054909164010000000090910467ffffffffffffffff1690036103b25763ffffffff8616600090815260208181526040918290208054835164010000000090910467ffffffffffffffff169281019290925291016102b0565b80546040805164010000000090920467ffffffffffffffff166020830152016102e1565b7ffffffffffffffffffffffffffffffffffffffffffffffffffffffffffffffffd83016104d65773ffffffffffffffffffffffffffffffffffffffff808516600090815260016020908152604080832063ffffffff8a1684529091529020805490916c010000000000000000000000009091041661049e5763ffffffff861660009081526020818152604091829020805483516c0100000000000000000000000090910473ffffffffffffffffffffffffffffffffffffffff169281019290925291016102b0565b8054604080516c0100000000000000000000000090920473ffffffffffffffffffffffffffffffffffffffff166020830152016102e1565b604080518082018252600781527f4c5a433030303000000000000000000000000000000000000000000000000000602082015290517f08c379a000000000000000000000000000000000000000000000000000000000815261053b91906004016109cb565b60405180910390fd5b935093915050565b60408051606080820183526000808352602080840182905283850182905273ffffffffffffffffffffffffffffffffffffffff87811683526001825285832063ffffffff88811680865291845287852088518088018a529054808316825264010000000080820467ffffffffffffffff908116848901526c01000000000000000000000000928390048716848d0152948852878752968a90208a519889018b525492831680895296830490931687860152919004909116848701528551808701909652600786527f4c5a31303030380000000000000000000000000000000000000000000000000091860191909152929390610675576040517f08c379a000000000000000000000000000000000000000000000000000000000815260040161053b91906109cb565b50815163ffffffff1660000361069057805163ffffffff1682525b816020015167ffffffffffffffff166000036106bb5760208082015167ffffffffffffffff16908301525b604082015173ffffffffffffffffffffffffffffffffffffffff166106fb5760408082015173ffffffffffffffffffffffffffffffffffffffff16908301525b5090505b92915050565b60607fffffffffffffffffffffffffffffffffffffffffffffffffffffffffffffffff63ffffffff8316016107735763ffffffff838116600090815260208181526040918290208054835194169184019190915291015b6040516020818303038152906040529150506106ff565b7ffffffffffffffffffffffffffffffffffffffffffffffffffffffffffffffffe63ffffffff8316016107dc5763ffffffff8316600090815260208181526040918290208054835164010000000090910467ffffffffffffffff1692810192909252910161075c565b7ffffffffffffffffffffffffffffffffffffffffffffffffffffffffffffffffd63ffffffff8316016104d65763ffffffff831660009081526020818152604091829020805483516c0100000000000000000000000090910473ffffffffffffffffffffffffffffffffffffffff1692810192909252910161075c565b803573ffffffffffffffffffffffffffffffffffffffff8116811461087d57600080fd5b919050565b803563ffffffff8116811461087d57600080fd5b600080604083850312156108a957600080fd5b6108b283610859565b91506108c060208401610882565b90509250929050565b6000602082840312156108db57600080fd5b6108e482610882565b9392505050565b60008060006060848603121561090057600080fd5b61090984610882565b925061091760208501610859565b9150604084013590509250925092565b6000815180845260005b8181101561094d57602081850181015186830182015201610931565b5060006020828601015260207fffffffffffffffffffffffffffffffffffffffffffffffffffffffffffffffe0601f83011685010191505092915050565b60408152600061099e6040830185610927565b905082151560208301529392505050565b600080604083850312156109c257600080fd5b6108b283610882565b6020815260006108e4602083018461092756fea26469706673582212201006ebba185939a175145e67113ca90a56c65ee506d3c44d1317f608fa62253964736f6c63430008130033",
  "linkReferences": {},
  "deployedLinkReferences": {}
}