{
  "_format": "hh-sol-artifact-1",
  "contractName": "OmniCounter",
  "sourceName": "contracts/examples/OmniCounter.sol",
  "abi": [
    {
      "inputs": [
        {
          "internalType": "address",
          "name": "_endpoint",
          "type": "address"
        }
      ],
      "stateMutability": "nonpayable",
      "type": "constructor"
    },
    {
      "inputs": [
        {
          "internalType": "address",
          "name": "addr",
          "type": "address"
        }
      ],
      "name": "EndpointOnly",
      "type": "error"
    },
    {
      "inputs": [
        {
          "internalType": "bytes32",
          "name": "addr",
          "type": "bytes32"
        }
      ],
      "name": "InvalidPeer",
      "type": "error"
    },
    {
      "inputs": [],
      "name": "InvalidPeerState",
      "type": "error"
    },
    {
      "inputs": [
        {
          "internalType": "uint16",
          "name": "code",
          "type": "uint16"
        },
        {
          "internalType": "bytes",
          "name": "result",
          "type": "bytes"
        }
      ],
      "name": "LzReceiveRevert",
      "type": "error"
    },
    {
      "inputs": [
        {
          "internalType": "uint32",
          "name": "eid",
          "type": "uint32"
        }
      ],
      "name": "NoPeerSet",
      "type": "error"
    },
    {
      "inputs": [
        {
          "internalType": "address",
          "name": "addr",
          "type": "address"
        }
      ],
      "name": "PreCrimeOnly",
      "type": "error"
    },
    {
      "anonymous": false,
      "inputs": [
        {
          "indexed": true,
          "internalType": "address",
          "name": "previousOwner",
          "type": "address"
        },
        {
          "indexed": true,
          "internalType": "address",
          "name": "newOwner",
          "type": "address"
        }
      ],
      "name": "OwnershipTransferred",
      "type": "event"
    },
    {
      "anonymous": false,
      "inputs": [
        {
          "indexed": false,
          "internalType": "uint32",
          "name": "remoteEid",
          "type": "uint32"
        },
        {
          "indexed": false,
          "internalType": "bytes32",
          "name": "peer",
          "type": "bytes32"
        },
        {
          "indexed": false,
          "internalType": "bool",
          "name": "active",
          "type": "bool"
        }
      ],
      "name": "SetPeer",
      "type": "event"
    },
    {
      "anonymous": false,
      "inputs": [
        {
          "indexed": false,
          "internalType": "address",
          "name": "precrime",
          "type": "address"
        }
      ],
      "name": "SetPrecrime",
      "type": "event"
    },
    {
      "stateMutability": "payable",
      "type": "fallback"
    },
    {
      "inputs": [],
      "name": "admin",
      "outputs": [
        {
          "internalType": "address",
          "name": "",
          "type": "address"
        }
      ],
      "stateMutability": "view",
      "type": "function"
    },
    {
      "inputs": [
        {
          "internalType": "uint32[]",
          "name": "_eids",
          "type": "uint32[]"
        },
        {
          "internalType": "uint8[]",
          "name": "_types",
          "type": "uint8[]"
        },
        {
          "internalType": "bytes[]",
          "name": "_options",
          "type": "bytes[]"
        }
      ],
      "name": "batchIncrement",
      "outputs": [],
      "stateMutability": "payable",
      "type": "function"
    },
    {
      "inputs": [
        {
          "internalType": "uint32",
          "name": "_eid",
          "type": "uint32"
        },
        {
          "internalType": "uint8",
          "name": "_type",
          "type": "uint8"
        },
        {
          "internalType": "bytes",
          "name": "_options",
          "type": "bytes"
        }
      ],
      "name": "brokenIncrement",
      "outputs": [],
      "stateMutability": "payable",
      "type": "function"
    },
    {
      "inputs": [],
      "name": "composedCount",
      "outputs": [
        {
          "internalType": "uint256",
          "name": "",
          "type": "uint256"
        }
      ],
      "stateMutability": "view",
      "type": "function"
    },
    {
      "inputs": [],
      "name": "count",
      "outputs": [
        {
          "internalType": "uint256",
          "name": "",
          "type": "uint256"
        }
      ],
      "stateMutability": "view",
      "type": "function"
    },
    {
      "inputs": [],
      "name": "eid",
      "outputs": [
        {
          "internalType": "uint32",
          "name": "",
          "type": "uint32"
        }
      ],
      "stateMutability": "view",
      "type": "function"
    },
    {
      "inputs": [],
      "name": "endpoint",
      "outputs": [
        {
          "internalType": "contract ILayerZeroEndpointV2",
          "name": "",
          "type": "address"
        }
      ],
      "stateMutability": "view",
      "type": "function"
    },
    {
      "inputs": [
        {
          "internalType": "uint32",
          "name": "srcEid",
          "type": "uint32"
        }
      ],
      "name": "inboundCount",
      "outputs": [
        {
          "internalType": "uint256",
          "name": "count",
          "type": "uint256"
        }
      ],
      "stateMutability": "view",
      "type": "function"
    },
    {
      "inputs": [
        {
          "internalType": "uint32",
          "name": "_eid",
          "type": "uint32"
        },
        {
          "internalType": "uint8",
          "name": "_type",
          "type": "uint8"
        },
        {
          "internalType": "bytes",
          "name": "_options",
          "type": "bytes"
        }
      ],
      "name": "increment",
      "outputs": [],
      "stateMutability": "payable",
      "type": "function"
    },
    {
      "inputs": [
        {
          "internalType": "address",
          "name": "",
          "type": "address"
        },
        {
          "internalType": "bytes32",
          "name": "",
          "type": "bytes32"
        },
        {
          "internalType": "bytes",
          "name": "_message",
          "type": "bytes"
        },
        {
          "internalType": "address",
          "name": "",
          "type": "address"
        },
        {
          "internalType": "bytes",
          "name": "",
          "type": "bytes"
        }
      ],
      "name": "lzCompose",
      "outputs": [],
      "stateMutability": "payable",
      "type": "function"
    },
    {
      "inputs": [
        {
          "components": [
            {
              "internalType": "uint32",
              "name": "srcEid",
              "type": "uint32"
            },
            {
              "internalType": "bytes32",
              "name": "sender",
              "type": "bytes32"
            },
            {
              "internalType": "uint64",
              "name": "nonce",
              "type": "uint64"
            }
          ],
          "internalType": "struct IMessageOrigin.MessageOrigin",
          "name": "_origin",
          "type": "tuple"
        },
        {
          "internalType": "bytes32",
          "name": "_guid",
          "type": "bytes32"
        },
        {
          "internalType": "bytes",
          "name": "_message",
          "type": "bytes"
        },
        {
          "internalType": "address",
          "name": "_executor",
          "type": "address"
        },
        {
          "internalType": "bytes",
          "name": "_extraData",
          "type": "bytes"
        }
      ],
      "name": "lzReceive",
      "outputs": [],
      "stateMutability": "payable",
      "type": "function"
    },
    {
      "inputs": [
        {
          "components": [
            {
              "components": [
                {
                  "internalType": "uint32",
                  "name": "srcEid",
                  "type": "uint32"
                },
                {
                  "internalType": "bytes32",
                  "name": "sender",
                  "type": "bytes32"
                },
                {
                  "internalType": "uint64",
                  "name": "nonce",
                  "type": "uint64"
                }
              ],
              "internalType": "struct IMessageOrigin.MessageOrigin",
              "name": "origin",
              "type": "tuple"
            },
            {
              "internalType": "bytes32",
              "name": "guid",
              "type": "bytes32"
            },
            {
              "internalType": "bytes",
              "name": "message",
              "type": "bytes"
            },
            {
              "internalType": "bytes",
              "name": "callParams",
              "type": "bytes"
            }
          ],
          "internalType": "struct IPreCrime.Packet[]",
          "name": "_packets",
          "type": "tuple[]"
        }
      ],
      "name": "lzReceiveAndRevert",
      "outputs": [],
      "stateMutability": "payable",
      "type": "function"
    },
    {
      "inputs": [
        {
          "internalType": "uint32",
          "name": "_srcEid",
          "type": "uint32"
        },
        {
          "internalType": "bytes32",
          "name": "_sender",
          "type": "bytes32"
        }
      ],
      "name": "nextNonce",
      "outputs": [
        {
          "internalType": "uint64",
          "name": "",
          "type": "uint64"
        }
      ],
      "stateMutability": "view",
      "type": "function"
    },
    {
      "inputs": [
        {
          "internalType": "uint32",
          "name": "dstEid",
          "type": "uint32"
        }
      ],
      "name": "outboundCount",
      "outputs": [
        {
          "internalType": "uint256",
          "name": "count",
          "type": "uint256"
        }
      ],
      "stateMutability": "view",
      "type": "function"
    },
    {
      "inputs": [],
      "name": "owner",
      "outputs": [
        {
          "internalType": "address",
          "name": "",
          "type": "address"
        }
      ],
      "stateMutability": "view",
      "type": "function"
    },
    {
      "inputs": [
        {
          "internalType": "uint32",
          "name": "",
          "type": "uint32"
        }
      ],
      "name": "peers",
      "outputs": [
        {
          "internalType": "bytes32",
          "name": "",
          "type": "bytes32"
        }
      ],
      "stateMutability": "view",
      "type": "function"
    },
    {
      "inputs": [],
      "name": "precrime",
      "outputs": [
        {
          "internalType": "contract IPreCrime",
          "name": "",
          "type": "address"
        }
      ],
      "stateMutability": "view",
      "type": "function"
    },
    {
      "inputs": [
        {
          "internalType": "uint32",
          "name": "_eid",
          "type": "uint32"
        },
        {
          "internalType": "uint8",
          "name": "_type",
          "type": "uint8"
        },
        {
          "internalType": "bytes",
          "name": "_options",
          "type": "bytes"
        }
      ],
      "name": "quote",
      "outputs": [
        {
          "internalType": "uint256",
          "name": "nativeFee",
          "type": "uint256"
        },
        {
          "internalType": "uint256",
          "name": "zroFee",
          "type": "uint256"
        }
      ],
      "stateMutability": "view",
      "type": "function"
    },
    {
      "inputs": [],
      "name": "renounceOwnership",
      "outputs": [],
      "stateMutability": "nonpayable",
      "type": "function"
    },
    {
      "inputs": [
        {
          "internalType": "uint32",
          "name": "_eid",
          "type": "uint32"
        }
      ],
      "name": "safeGetPeer",
      "outputs": [
        {
          "internalType": "bytes32",
          "name": "peer",
          "type": "bytes32"
        }
      ],
      "stateMutability": "view",
      "type": "function"
    },
    {
      "inputs": [
        {
          "internalType": "address",
          "name": "_admin",
          "type": "address"
        }
      ],
      "name": "setAdmin",
      "outputs": [],
      "stateMutability": "nonpayable",
      "type": "function"
    },
    {
      "inputs": [
        {
          "internalType": "bytes",
          "name": "_config",
          "type": "bytes"
        }
      ],
      "name": "setEndpointConfig",
      "outputs": [],
      "stateMutability": "nonpayable",
      "type": "function"
    },
    {
      "inputs": [
        {
          "internalType": "bool",
          "name": "_orderedNonce",
          "type": "bool"
        }
      ],
      "name": "setOrderedNonce",
      "outputs": [],
      "stateMutability": "nonpayable",
      "type": "function"
    },
    {
      "inputs": [
        {
          "internalType": "uint32",
          "name": "_eid",
          "type": "uint32"
        },
        {
          "internalType": "bytes32",
          "name": "_peer",
          "type": "bytes32"
        },
        {
          "internalType": "bool",
          "name": "_active",
          "type": "bool"
        }
      ],
      "name": "setPeer",
      "outputs": [],
      "stateMutability": "nonpayable",
      "type": "function"
    },
    {
      "inputs": [
        {
          "internalType": "address",
          "name": "_precrime",
          "type": "address"
        }
      ],
      "name": "setPrecrime",
      "outputs": [],
      "stateMutability": "nonpayable",
      "type": "function"
    },
    {
      "inputs": [
        {
          "internalType": "uint32",
          "name": "_srcEid",
          "type": "uint32"
        },
        {
          "internalType": "bytes32",
          "name": "_sender",
          "type": "bytes32"
        },
        {
          "internalType": "uint64",
          "name": "_nonce",
          "type": "uint64"
        }
      ],
      "name": "skipInboundNonce",
      "outputs": [],
      "stateMutability": "nonpayable",
      "type": "function"
    },
    {
      "inputs": [
        {
          "internalType": "address",
          "name": "newOwner",
          "type": "address"
        }
      ],
      "name": "transferOwnership",
      "outputs": [],
      "stateMutability": "nonpayable",
      "type": "function"
    },
    {
      "inputs": [],
      "name": "version",
      "outputs": [
        {
          "internalType": "uint256",
          "name": "",
          "type": "uint256"
        }
      ],
      "stateMutability": "view",
      "type": "function"
    },
    {
      "inputs": [
        {
          "internalType": "address payable",
          "name": "_to",
          "type": "address"
        },
        {
          "internalType": "uint256",
          "name": "_amount",
          "type": "uint256"
        }
      ],
      "name": "withdraw",
      "outputs": [],
      "stateMutability": "nonpayable",
      "type": "function"
    },
    {
      "stateMutability": "payable",
      "type": "receive"
    }
  ],
  "bytecode": "0x60a06040523480156200001157600080fd5b506040516200307138038062003071833981016040819052620000349162000139565b806200004033620000e9565b6001600160a01b03166080819052600580546001600160a01b031916331790556040805163416ecebf60e01b8152905163416ecebf916004808201926020929091908290030181865afa1580156200009c573d6000803e3d6000fd5b505050506040513d601f19601f82011682018060405250810190620000c291906200016b565b600560146101000a81548163ffffffff021916908363ffffffff1602179055505062000193565b600080546001600160a01b038381166001600160a01b0319831681178455604051919092169283917f8be0079c531659141344cd1fd0a4f28419497f9722a3daafe3b4186f6b6457e09190a35050565b6000602082840312156200014c57600080fd5b81516001600160a01b03811681146200016457600080fd5b9392505050565b6000602082840312156200017e57600080fd5b815163ffffffff811681146200016457600080fd5b608051612e91620001e0600039600081816102fa015281816105d101528181610bf001528181610dab01528181611199015281816119db01528181611c060152611eb70152612e916000f3fe6080604052600436106101ae5760003560e01c8063715018a6116100eb578063bb0b6a531161008f578063f2fde38b11610061578063f2fde38b1461054f578063f3fef3a31461056f578063f5c6ba5a1461058f578063f851a440146105a257005b8063bb0b6a53146104c7578063c95c55be146104f4578063d0a1026014610507578063d22446ce1461051a57005b80638da5cb5b116100c85780638da5cb5b1461043c578063950c8a7414610467578063b7abbb5d14610494578063baf3292d146104a757005b8063715018a6146103ce5780637624f505146103e35780637d25a05e1461040357005b806356a4728911610152578063622f17f61161012f578063622f17f614610341578063655f06381461036e578063704b6c021461038e5780637112f86f146103ae57005b806356a472891461029b5780635b849af6146102c85780635e280f11146102e857005b806326b27f841161018b57806326b27f8414610209578063416ecebf14610229578063542e7b561461027357806354fd4d501461028657005b806306661abd146101b757806313137d65146101e0578063257f4e05146101f357005b366101b557005b005b3480156101c357600080fd5b506101cd60035481565b6040519081526020015b60405180910390f35b6101b56101ee3660046122e6565b6105cf565b3480156101ff57600080fd5b506101cd60045481565b34801561021557600080fd5b506101cd6102243660046123a1565b6106d9565b34801561023557600080fd5b5060055461025e9074010000000000000000000000000000000000000000900463ffffffff1681565b60405163ffffffff90911681526020016101d7565b6101b5610281366004612401565b610733565b34801561029257600080fd5b506101cd600181565b3480156102a757600080fd5b506101cd6102b63660046123a1565b60086020526000908152604090205481565b3480156102d457600080fd5b506101b56102e33660046124ab565b610975565b3480156102f457600080fd5b5061031c7f000000000000000000000000000000000000000000000000000000000000000081565b60405173ffffffffffffffffffffffffffffffffffffffff90911681526020016101d7565b34801561034d57600080fd5b506101cd61035c3660046123a1565b60096020526000908152604090205481565b34801561037a57600080fd5b506101b56103893660046124c6565b6109ae565b34801561039a57600080fd5b506101b56103a9366004612508565b610c90565b3480156103ba57600080fd5b506101b56103c936600461253b565b610d58565b3480156103da57600080fd5b506101b5610e8c565b3480156103ef57600080fd5b506101b56103fe36600461257b565b610ea0565b34801561040f57600080fd5b5061042361041e3660046125b7565b610f59565b60405167ffffffffffffffff90911681526020016101d7565b34801561044857600080fd5b5060005473ffffffffffffffffffffffffffffffffffffffff1661031c565b34801561047357600080fd5b5060025461031c9073ffffffffffffffffffffffffffffffffffffffff1681565b6101b56104a23660046125f2565b610fae565b3480156104b357600080fd5b506101b56104c2366004612508565b61105c565b3480156104d357600080fd5b506101cd6104e23660046123a1565b60016020526000908152604090205481565b6101b56105023660046125f2565b6110dd565b6101b5610515366004612653565b611181565b34801561052657600080fd5b5061053a6105353660046125f2565b611403565b604080519283526020830191909152016101d7565b34801561055b57600080fd5b506101b561056a366004612508565b611471565b34801561057b57600080fd5b506101b561058a3660046126d4565b611528565b6101b561059d3660046126f2565b6115ec565b3480156105ae57600080fd5b5060055461031c9073ffffffffffffffffffffffffffffffffffffffff1681565b7f000000000000000000000000000000000000000000000000000000000000000073ffffffffffffffffffffffffffffffffffffffff163314610645576040517fab08c09e0000000000000000000000000000000000000000000000000000000081523360048201526024015b60405180910390fd5b6020870180359061065a90610224908a6123a1565b14610697576040517fc59a4f640000000000000000000000000000000000000000000000000000000081526020880135600482015260240161063c565b6106c16106a760208901896123a1565b60208901356106bc60608b0160408c01612728565b6117c0565b6106d0878787878787876118f6565b50505050505050565b63ffffffff81166000908152600160205260409020548061072e576040517f196fb6c000000000000000000000000000000000000000000000000000000000815263ffffffff8316600482015260240161063c565b919050565b848114801561074157508483145b6107a7576040517f08c379a000000000000000000000000000000000000000000000000000000000815260206004820152601c60248201527f4f6d6e69436f756e7465723a206c656e677468206d69736d6174636800000000604482015260640161063c565b6107af612233565b3460005b8781101561096a5760006107c860018a612774565b82146107d457306107d6565b335b905061091360405180608001604052808c8c868181106107f8576107f8612787565b905060200201602081019061080d91906123a1565b63ffffffff1681526020016108428d8d8781811061082d5761082d612787565b905060200201602081019061022491906123a1565b81526020016108978b8b8781811061085c5761085c612787565b905060200201602081019061087191906127b6565b60055474010000000000000000000000000000000000000000900463ffffffff16611b3e565b81526020018888868181106108ae576108ae612787565b90506020028101906108c091906127d1565b8080601f0160208091040260200160405190810160405280939291908181526020018383808284376000920182905250939094525050604080518082019091528781526020810191909152905083611bb7565b93506109448a8a8481811061092a5761092a612787565b905060200201602081019061093f91906123a1565b611c89565b6040840151516109549084612774565b925050808061096290612836565b9150506107b3565b505050505050505050565b61097d611cb2565b600780547fffffffffffffffffffffffffffffffffffffffffffffffffffffffffffffff0016911515919091179055565b6109b6611cb2565b60006109c2828461286e565b90507fffffffff0000000000000000000000000000000000000000000000000000000081167fb8007ff6000000000000000000000000000000000000000000000000000000001480610a5557507fffffffff0000000000000000000000000000000000000000000000000000000081167f9e7fffcc00000000000000000000000000000000000000000000000000000000145b80610aa157507fffffffff0000000000000000000000000000000000000000000000000000000081167f0678327f00000000000000000000000000000000000000000000000000000000145b80610aed57507fffffffff0000000000000000000000000000000000000000000000000000000081167fb8849ac900000000000000000000000000000000000000000000000000000000145b80610b3957507fffffffff0000000000000000000000000000000000000000000000000000000081167fe16f964d00000000000000000000000000000000000000000000000000000000145b80610b8557507fffffffff0000000000000000000000000000000000000000000000000000000081167f66bf43d600000000000000000000000000000000000000000000000000000000145b610beb576040517f08c379a000000000000000000000000000000000000000000000000000000000815260206004820152601a60248201527f4f4170703a2066756e6374696f6e206e6f7420616c6c6f776564000000000000604482015260640161063c565b6000807f000000000000000000000000000000000000000000000000000000000000000073ffffffffffffffffffffffffffffffffffffffff168585604051610c359291906128b6565b6000604051808303816000865af19150503d8060008114610c72576040519150601f19603f3d011682016040523d82523d6000602084013e610c77565b606091505b509150915081610c8957805160208201fd5b5050505050565b60055473ffffffffffffffffffffffffffffffffffffffff163314610d11576040517f08c379a000000000000000000000000000000000000000000000000000000000815260206004820152600a60248201527f6f6e6c792061646d696e00000000000000000000000000000000000000000000604482015260640161063c565b600580547fffffffffffffffffffffffff00000000000000000000000000000000000000001673ffffffffffffffffffffffffffffffffffffffff92909216919091179055565b610d60611cb2565b6040517feaeacd6300000000000000000000000000000000000000000000000000000000815263ffffffff841660048201526024810183905267ffffffffffffffff821660448201527f000000000000000000000000000000000000000000000000000000000000000073ffffffffffffffffffffffffffffffffffffffff169063eaeacd6390606401600060405180830381600087803b158015610e0457600080fd5b505af1158015610e18573d6000803e3d6000fd5b505060075460ff16159150610e8790505763ffffffff831660009081526006602090815260408083208584529091528120805467ffffffffffffffff1691610e5f836128c6565b91906101000a81548167ffffffffffffffff021916908367ffffffffffffffff160217905550505b505050565b610e94611cb2565b610e9e6000611d33565b565b610ea8611cb2565b63ffffffff831660009081526001602052604090205415158115158103610efb576040517f9556766100000000000000000000000000000000000000000000000000000000815260040160405180910390fd5b63ffffffff84166000818152600160209081526040918290208690558151928352820185905283151582820152517fc55181d68816686be8ec55890d24aefed84c9a6a875145822aad2b2c950f027f9181900360600190a150505050565b60075460009060ff1615610fa45763ffffffff83166000908152600660209081526040808320858452909152902054610f9d9067ffffffffffffffff1660016128ed565b9050610fa8565b5060005b92915050565b61104c60405180608001604052808663ffffffff168152602001610fd1876106d9565b8152602001610ff286600560149054906101000a900463ffffffff16611b3e565b815260200184848080601f0160208091040260200160405190810160405280939291908181526020018383808284376000920182905250939094525050604080518082019091523481526020810191909152905033611bb7565b5061105684611c89565b50505050565b611064611cb2565b600280547fffffffffffffffffffffffff00000000000000000000000000000000000000001673ffffffffffffffffffffffffffffffffffffffff83169081179091556040519081527f5db758e995a17ec1ad84bdef7e8c3293a0bd6179bcce400dff5d4c3d87db726b9060200160405180910390a150565b60055473ffffffffffffffffffffffffffffffffffffffff16331461115e576040517f08c379a000000000000000000000000000000000000000000000000000000000815260206004820152600a60248201527f6f6e6c792061646d696e00000000000000000000000000000000000000000000604482015260640161063c565b610c8960405180608001604052808663ffffffff168152602001610fd1876106d9565b3373ffffffffffffffffffffffffffffffffffffffff7f00000000000000000000000000000000000000000000000000000000000000001614611220576040517f08c379a000000000000000000000000000000000000000000000000000000000815260206004820152600960248201527f21656e64706f696e740000000000000000000000000000000000000000000000604482015260640161063c565b600061122c8686611da8565b90507ffffffffffffffffffffffffffffffffffffffffffffffffffffffffffffffffe60ff8216016112765760016004600082825461126b9190612915565b909155506113f99050565b7ffffffffffffffffffffffffffffffffffffffffffffffffffffffffffffffffc60ff821601611397576001600460008282546112b39190612915565b90915550600090506112c58787611dca565b90506112d081611c89565b600061132362030d40600061131c604080517e03000000000000000000000000000000000000000000000000000000000000602082015281516002818303018152602290910190915290565b9190611dec565b905061138f60405180608001604052808463ffffffff168152602001611348856106d9565b815260200161136a6001600560149054906101000a900463ffffffff16611b3e565b8152602001838152506040518060400160405280348152602001600081525030611bb7565b5050506113f9565b6040517f08c379a000000000000000000000000000000000000000000000000000000000815260206004820152601460248201527f696e76616c6964206d6573736167652074797065000000000000000000000000604482015260640161063c565b5050505050505050565b6000806114648661142687600560149054906101000a900463ffffffff16611b3e565b600087878080601f016020809104026020016040519081016040528093929190818152602001838380828437600092019190915250611eb092505050565b9150915094509492505050565b611479611cb2565b73ffffffffffffffffffffffffffffffffffffffff811661151c576040517f08c379a000000000000000000000000000000000000000000000000000000000815260206004820152602660248201527f4f776e61626c653a206e6577206f776e657220697320746865207a65726f206160448201527f6464726573730000000000000000000000000000000000000000000000000000606482015260840161063c565b61152581611d33565b50565b60055473ffffffffffffffffffffffffffffffffffffffff1633146115a9576040517f08c379a000000000000000000000000000000000000000000000000000000000815260206004820152600a60248201527f6f6e6c792061646d696e00000000000000000000000000000000000000000000604482015260640161063c565b60405173ffffffffffffffffffffffffffffffffffffffff83169082156108fc029083906000818181858888f19350505050158015610e87573d6000803e3d6000fd5b60025473ffffffffffffffffffffffffffffffffffffffff16331461163f576040517fc023811c00000000000000000000000000000000000000000000000000000000815233600482015260240161063c565b60005b818110156116d5573683838381811061165d5761165d612787565b905060200281019061166f9190612928565b9050600061168361022460208401846123a1565b9050602082013581146116975750506116c3565b6116c08260608101356116ad60808301836127d1565b336116bb60a08901896127d1565b6118f6565b50505b806116cd81612836565b915050611642565b50600254604080517fd2968d57000000000000000000000000000000000000000000000000000000008152905160019273ffffffffffffffffffffffffffffffffffffffff169163d2968d579160048083019260009291908290030181865afa158015611746573d6000803e3d6000fd5b505050506040513d6000823e601f3d9081017fffffffffffffffffffffffffffffffffffffffffffffffffffffffffffffffe016820160405261178c91908101906129b9565b6040517f0a78da8f00000000000000000000000000000000000000000000000000000000815260040161063c929190612ace565b63ffffffff8316600090815260066020908152604080832085845290915290205460075467ffffffffffffffff9091169060ff1615611880576118048160016128ed565b67ffffffffffffffff168267ffffffffffffffff1614611880576040517f08c379a000000000000000000000000000000000000000000000000000000000815260206004820152601360248201527f4f4170703a20696e76616c6964206e6f6e636500000000000000000000000000604482015260640161063c565b8067ffffffffffffffff168267ffffffffffffffff1611156110565763ffffffff841660009081526006602090815260408083208684529091529020805467ffffffffffffffff84167fffffffffffffffffffffffffffffffffffffffffffffffff000000000000000090911617905550505050565b60006119028686611da8565b90507fffffffffffffffffffffffffffffffffffffffffffffffffffffffffffffffff60ff82160161195e576003805490600061193e83612836565b90915550611959905061195460208a018a6123a1565b611f6c565b6113f9565b60ff811660021480611973575060ff81166004145b15611a4d576003805490600061198883612836565b9091555061199e905061195460208a018a6123a1565b6040517f754d3b9c00000000000000000000000000000000000000000000000000000000815273ffffffffffffffffffffffffffffffffffffffff7f0000000000000000000000000000000000000000000000000000000000000000169063754d3b9c90611a169030908b908b908b90600401612af3565b600060405180830381600087803b158015611a3057600080fd5b505af1158015611a44573d6000803e3d6000fd5b505050506113f9565b7ffffffffffffffffffffffffffffffffffffffffffffffffffffffffffffffffd60ff8216016113975760038054906000611a8783612836565b90915550611a9d905061195460208a018a6123a1565b611aad61093f60208a018a6123a1565b6000611af962030d40600061131c604080517e03000000000000000000000000000000000000000000000000000000000000602082015281516002818303018152602290910190915290565b6040805160808101909152909150611b379080611b1960208d018d6123a1565b63ffffffff16815260209081019061134890610224908e018e6123a1565b50506113f9565b6040517fff0000000000000000000000000000000000000000000000000000000000000060f884901b1660208201527fffffffff0000000000000000000000000000000000000000000000000000000060e083901b1660218201526060906025015b604051602081830303815290604052905092915050565b611bbf612233565b825160208401516040517faca1b45a00000000000000000000000000000000000000000000000000000000815260009273ffffffffffffffffffffffffffffffffffffffff7f0000000000000000000000000000000000000000000000000000000000000000169263aca1b45a92611c3d918a918990600401612b64565b60806040518083038185885af1158015611c5b573d6000803e3d6000fd5b50505050506040513d601f19601f82011682018060405250810190611c809190612c52565b95945050505050565b63ffffffff81166000908152600960205260408120805491611caa83612836565b919050555050565b60005473ffffffffffffffffffffffffffffffffffffffff163314610e9e576040517f08c379a000000000000000000000000000000000000000000000000000000000815260206004820181905260248201527f4f776e61626c653a2063616c6c6572206973206e6f7420746865206f776e6572604482015260640161063c565b6000805473ffffffffffffffffffffffffffffffffffffffff8381167fffffffffffffffffffffffff0000000000000000000000000000000000000000831681178455604051919092169283917f8be0079c531659141344cd1fd0a4f28419497f9722a3daafe3b4186f6b6457e09190a35050565b6000611db76001828486612cba565b611dc091612ce4565b60f81c9392505050565b6000611dd98260018186612cba565b611de29161286e565b60e01c9392505050565b6060836003611dfc826000611f8d565b61ffff1614611e8c576040517f08c379a0000000000000000000000000000000000000000000000000000000008152602060048201526024808201527f4f7074696f6e734275696c6465723a20696e76616c6964206f7074696f6e732060448201527f7479706500000000000000000000000000000000000000000000000000000000606482015260840161063c565b6000611e98858561200d565b9050611ea6866001836120b4565b9695505050505050565b60008060007f000000000000000000000000000000000000000000000000000000000000000073ffffffffffffffffffffffffffffffffffffffff166383c4755930898989896040518663ffffffff1660e01b8152600401611f16959493929190612d2a565b6040805180830381865afa158015611f32573d6000803e3d6000fd5b505050506040513d601f19601f82011682018060405250810190611f569190612d8b565b8051602090910151909890975095505050505050565b63ffffffff81166000908152600860205260408120805491611caa83612836565b6000611f9a826002612915565b83511015612004576040517f08c379a000000000000000000000000000000000000000000000000000000000815260206004820152601460248201527f746f55696e7431365f6f75744f66426f756e6473000000000000000000000000604482015260640161063c565b50016002015190565b60606fffffffffffffffffffffffffffffffff82161561207657604080517fffffffffffffffffffffffffffffffff00000000000000000000000000000000608086811b8216602084015285901b166030820152016040516020818303038152906040526120ad565b6040517fffffffffffffffffffffffffffffffff00000000000000000000000000000000608085901b166020820152603001611ba0565b9392505050565b60608360036120c4826000611f8d565b61ffff1614612154576040517f08c379a0000000000000000000000000000000000000000000000000000000008152602060048201526024808201527f4f7074696f6e734275696c6465723a20696e76616c6964206f7074696f6e732060448201527f7479706500000000000000000000000000000000000000000000000000000000606482015260840161063c565b846001612161855161219b565b61216c906001612da7565b8686604051602001612182959493929190612dc2565b6040516020818303038152906040529150509392505050565b600061ffff82111561222f576040517f08c379a000000000000000000000000000000000000000000000000000000000815260206004820152602660248201527f53616665436173743a2076616c756520646f65736e27742066697420696e203160448201527f3620626974730000000000000000000000000000000000000000000000000000606482015260840161063c565b5090565b604051806060016040528060008019168152602001600067ffffffffffffffff168152602001612276604051806040016040528060008152602001600081525090565b905290565b60008083601f84011261228d57600080fd5b50813567ffffffffffffffff8111156122a557600080fd5b6020830191508360208285010111156122bd57600080fd5b9250929050565b73ffffffffffffffffffffffffffffffffffffffff8116811461152557600080fd5b600080600080600080600087890360e081121561230257600080fd5b606081121561231057600080fd5b5087965060608801359550608088013567ffffffffffffffff8082111561233657600080fd5b6123428b838c0161227b565b909750955060a08a01359150612357826122c4565b90935060c0890135908082111561236d57600080fd5b5061237a8a828b0161227b565b989b979a50959850939692959293505050565b803563ffffffff8116811461072e57600080fd5b6000602082840312156123b357600080fd5b6120ad8261238d565b60008083601f8401126123ce57600080fd5b50813567ffffffffffffffff8111156123e657600080fd5b6020830191508360208260051b85010111156122bd57600080fd5b6000806000806000806060878903121561241a57600080fd5b863567ffffffffffffffff8082111561243257600080fd5b61243e8a838b016123bc565b9098509650602089013591508082111561245757600080fd5b6124638a838b016123bc565b9096509450604089013591508082111561247c57600080fd5b5061248989828a016123bc565b979a9699509497509295939492505050565b8035801515811461072e57600080fd5b6000602082840312156124bd57600080fd5b6120ad8261249b565b600080602083850312156124d957600080fd5b823567ffffffffffffffff8111156124f057600080fd5b6124fc8582860161227b565b90969095509350505050565b60006020828403121561251a57600080fd5b81356120ad816122c4565b67ffffffffffffffff8116811461152557600080fd5b60008060006060848603121561255057600080fd5b6125598461238d565b925060208401359150604084013561257081612525565b809150509250925092565b60008060006060848603121561259057600080fd5b6125998461238d565b9250602084013591506125ae6040850161249b565b90509250925092565b600080604083850312156125ca57600080fd5b6125d38361238d565b946020939093013593505050565b803560ff8116811461072e57600080fd5b6000806000806060858703121561260857600080fd5b6126118561238d565b935061261f602086016125e1565b9250604085013567ffffffffffffffff81111561263b57600080fd5b6126478782880161227b565b95989497509550505050565b600080600080600080600060a0888a03121561266e57600080fd5b8735612679816122c4565b965060208801359550604088013567ffffffffffffffff8082111561269d57600080fd5b6126a98b838c0161227b565b909750955060608a013591506126be826122c4565b9093506080890135908082111561236d57600080fd5b600080604083850312156126e757600080fd5b82356125d3816122c4565b6000806020838503121561270557600080fd5b823567ffffffffffffffff81111561271c57600080fd5b6124fc858286016123bc565b60006020828403121561273a57600080fd5b81356120ad81612525565b7f4e487b7100000000000000000000000000000000000000000000000000000000600052601160045260246000fd5b81810381811115610fa857610fa8612745565b7f4e487b7100000000000000000000000000000000000000000000000000000000600052603260045260246000fd5b6000602082840312156127c857600080fd5b6120ad826125e1565b60008083357fffffffffffffffffffffffffffffffffffffffffffffffffffffffffffffffe184360301811261280657600080fd5b83018035915067ffffffffffffffff82111561282157600080fd5b6020019150368190038213156122bd57600080fd5b60007fffffffffffffffffffffffffffffffffffffffffffffffffffffffffffffffff820361286757612867612745565b5060010190565b7fffffffff0000000000000000000000000000000000000000000000000000000081358181169160048510156128ae5780818660040360031b1b83161692505b505092915050565b8183823760009101908152919050565b600067ffffffffffffffff8083168181036128e3576128e3612745565b6001019392505050565b67ffffffffffffffff81811683821601908082111561290e5761290e612745565b5092915050565b80820180821115610fa857610fa8612745565b600082357fffffffffffffffffffffffffffffffffffffffffffffffffffffffffffffff4183360301811261295c57600080fd5b9190910192915050565b7f4e487b7100000000000000000000000000000000000000000000000000000000600052604160045260246000fd5b60005b838110156129b0578181015183820152602001612998565b50506000910152565b6000602082840312156129cb57600080fd5b815167ffffffffffffffff808211156129e357600080fd5b818401915084601f8301126129f757600080fd5b815181811115612a0957612a09612966565b604051601f82017fffffffffffffffffffffffffffffffffffffffffffffffffffffffffffffffe0908116603f01168101908382118183101715612a4f57612a4f612966565b81604052828152876020848701011115612a6857600080fd5b612a79836020830160208801612995565b979650505050505050565b60008151808452612a9c816020860160208601612995565b601f017fffffffffffffffffffffffffffffffffffffffffffffffffffffffffffffffe0169290920160200192915050565b61ffff83168152604060208201526000612aeb6040830184612a84565b949350505050565b73ffffffffffffffffffffffffffffffffffffffff8516815283602082015260606040820152816060820152818360808301376000818301608090810191909152601f9092017fffffffffffffffffffffffffffffffffffffffffffffffffffffffffffffffe01601019392505050565b6060815263ffffffff84511660608201526020840151608082015260006040850151608060a0840152612b9a60e0840182612a84565b905060608601517fffffffffffffffffffffffffffffffffffffffffffffffffffffffffffffffa08483030160c0850152612bd58282612a84565b9250505083602083015273ffffffffffffffffffffffffffffffffffffffff83166040830152949350505050565b600060408284031215612c1557600080fd5b6040516040810181811067ffffffffffffffff82111715612c3857612c38612966565b604052825181526020928301519281019290925250919050565b600060808284031215612c6457600080fd5b6040516060810181811067ffffffffffffffff82111715612c8757612c87612966565b604052825181526020830151612c9c81612525565b6020820152612cae8460408501612c03565b60408201529392505050565b60008085851115612cca57600080fd5b83861115612cd757600080fd5b5050820193919092039150565b7fff0000000000000000000000000000000000000000000000000000000000000081358181169160018510156128ae5760019490940360031b84901b1690921692915050565b73ffffffffffffffffffffffffffffffffffffffff8616815263ffffffff8516602082015260a060408201526000612d6560a0830186612a84565b84151560608401528281036080840152612d7f8185612a84565b98975050505050505050565b600060408284031215612d9d57600080fd5b6120ad8383612c03565b61ffff81811683821601908082111561290e5761290e612745565b60008651612dd4818460208b01612995565b80830190507fff00000000000000000000000000000000000000000000000000000000000000808860f81b1682527fffff0000000000000000000000000000000000000000000000000000000000008760f01b166001830152808660f81b166003830152508351612e4c816004840160208801612995565b0160040197965050505050505056fea264697066735822122059865556085428d89bf9ffe92d585666c056dc992b6c31f04fc27710a2cfbf6e64736f6c63430008130033",
  "linkReferences": {},
  "deployedLinkReferences": {}
}