{
  "_format": "hh-sol-artifact-1",
  "contractName": "OmniCounter",
  "sourceName": "contracts/examples/OmniCounter.sol",
  "abi": [
    {
      "inputs": [
        {
          "internalType": "address",
          "name": "_endpoint",
          "type": "address"
        }
      ],
      "stateMutability": "nonpayable",
      "type": "constructor"
    },
    {
      "inputs": [
        {
          "internalType": "address",
          "name": "addr",
          "type": "address"
        }
      ],
      "name": "EndpointOnly",
      "type": "error"
    },
    {
      "inputs": [
        {
          "internalType": "bytes32",
          "name": "addr",
          "type": "bytes32"
        }
      ],
      "name": "InvalidPeer",
      "type": "error"
    },
    {
      "inputs": [],
      "name": "InvalidPeerState",
      "type": "error"
    },
    {
      "inputs": [
        {
          "internalType": "uint16",
          "name": "code",
          "type": "uint16"
        },
        {
          "internalType": "bytes",
          "name": "result",
          "type": "bytes"
        }
      ],
      "name": "LzReceiveRevert",
      "type": "error"
    },
    {
      "inputs": [
        {
          "internalType": "uint32",
          "name": "eid",
          "type": "uint32"
        }
      ],
      "name": "NoPeerSet",
      "type": "error"
    },
    {
      "inputs": [
        {
          "internalType": "address",
          "name": "addr",
          "type": "address"
        }
      ],
      "name": "PreCrimeOnly",
      "type": "error"
    },
    {
      "anonymous": false,
      "inputs": [
        {
          "indexed": true,
          "internalType": "address",
          "name": "previousOwner",
          "type": "address"
        },
        {
          "indexed": true,
          "internalType": "address",
          "name": "newOwner",
          "type": "address"
        }
      ],
      "name": "OwnershipTransferred",
      "type": "event"
    },
    {
      "anonymous": false,
      "inputs": [
        {
          "components": [
            {
              "internalType": "uint16",
              "name": "msgType",
              "type": "uint16"
            },
            {
              "internalType": "uint32",
              "name": "eid",
              "type": "uint32"
            },
            {
              "internalType": "bytes",
              "name": "options",
              "type": "bytes"
            }
          ],
          "indexed": false,
          "internalType": "struct IOApp.EnforcedOptionParam[]",
          "name": "_enforcedOptions",
          "type": "tuple[]"
        }
      ],
      "name": "SetEnforcedOption",
      "type": "event"
    },
    {
      "anonymous": false,
      "inputs": [
        {
          "indexed": false,
          "internalType": "uint32",
          "name": "remoteEid",
          "type": "uint32"
        },
        {
          "indexed": false,
          "internalType": "bytes32",
          "name": "peer",
          "type": "bytes32"
        }
      ],
      "name": "SetPeer",
      "type": "event"
    },
    {
      "anonymous": false,
      "inputs": [
        {
          "indexed": false,
          "internalType": "address",
          "name": "precrime",
          "type": "address"
        }
      ],
      "name": "SetPrecrime",
      "type": "event"
    },
    {
      "stateMutability": "payable",
      "type": "fallback"
    },
    {
      "inputs": [],
      "name": "admin",
      "outputs": [
        {
          "internalType": "address",
          "name": "",
          "type": "address"
        }
      ],
      "stateMutability": "view",
      "type": "function"
    },
    {
      "inputs": [
        {
          "internalType": "uint32[]",
          "name": "_eids",
          "type": "uint32[]"
        },
        {
          "internalType": "uint8[]",
          "name": "_types",
          "type": "uint8[]"
        },
        {
          "internalType": "bytes[]",
          "name": "_options",
          "type": "bytes[]"
        }
      ],
      "name": "batchIncrement",
      "outputs": [],
      "stateMutability": "payable",
      "type": "function"
    },
    {
      "inputs": [
        {
          "internalType": "uint32",
          "name": "_eid",
          "type": "uint32"
        },
        {
          "internalType": "uint8",
          "name": "_type",
          "type": "uint8"
        },
        {
          "internalType": "bytes",
          "name": "_options",
          "type": "bytes"
        }
      ],
      "name": "brokenIncrement",
      "outputs": [],
      "stateMutability": "payable",
      "type": "function"
    },
    {
      "inputs": [
        {
          "internalType": "bytes",
          "name": "_callData",
          "type": "bytes"
        }
      ],
      "name": "callEndpoint",
      "outputs": [],
      "stateMutability": "nonpayable",
      "type": "function"
    },
    {
      "inputs": [],
      "name": "composedCount",
      "outputs": [
        {
          "internalType": "uint256",
          "name": "",
          "type": "uint256"
        }
      ],
      "stateMutability": "view",
      "type": "function"
    },
    {
      "inputs": [],
      "name": "count",
      "outputs": [
        {
          "internalType": "uint256",
          "name": "",
          "type": "uint256"
        }
      ],
      "stateMutability": "view",
      "type": "function"
    },
    {
      "inputs": [],
      "name": "eid",
      "outputs": [
        {
          "internalType": "uint32",
          "name": "",
          "type": "uint32"
        }
      ],
      "stateMutability": "view",
      "type": "function"
    },
    {
      "inputs": [],
      "name": "endpoint",
      "outputs": [
        {
          "internalType": "contract ILayerZeroEndpointV2",
          "name": "",
          "type": "address"
        }
      ],
      "stateMutability": "view",
      "type": "function"
    },
    {
      "inputs": [
        {
          "internalType": "uint32",
          "name": "srcEid",
          "type": "uint32"
        }
      ],
      "name": "inboundCount",
      "outputs": [
        {
          "internalType": "uint256",
          "name": "count",
          "type": "uint256"
        }
      ],
      "stateMutability": "view",
      "type": "function"
    },
    {
      "inputs": [
        {
          "internalType": "uint32",
          "name": "_eid",
          "type": "uint32"
        },
        {
          "internalType": "uint8",
          "name": "_type",
          "type": "uint8"
        },
        {
          "internalType": "bytes",
          "name": "_options",
          "type": "bytes"
        }
      ],
      "name": "increment",
      "outputs": [],
      "stateMutability": "payable",
      "type": "function"
    },
    {
      "inputs": [
        {
          "internalType": "address",
          "name": "",
          "type": "address"
        },
        {
          "internalType": "bytes32",
          "name": "",
          "type": "bytes32"
        },
        {
          "internalType": "bytes",
          "name": "_message",
          "type": "bytes"
        },
        {
          "internalType": "address",
          "name": "",
          "type": "address"
        },
        {
          "internalType": "bytes",
          "name": "",
          "type": "bytes"
        }
      ],
      "name": "lzCompose",
      "outputs": [],
      "stateMutability": "payable",
      "type": "function"
    },
    {
      "inputs": [
        {
          "components": [
            {
              "internalType": "uint32",
              "name": "srcEid",
              "type": "uint32"
            },
            {
              "internalType": "bytes32",
              "name": "sender",
              "type": "bytes32"
            },
            {
              "internalType": "uint64",
              "name": "nonce",
              "type": "uint64"
            }
          ],
          "internalType": "struct Origin",
          "name": "_origin",
          "type": "tuple"
        },
        {
          "internalType": "bytes32",
          "name": "_guid",
          "type": "bytes32"
        },
        {
          "internalType": "bytes",
          "name": "_message",
          "type": "bytes"
        },
        {
          "internalType": "address",
          "name": "_executor",
          "type": "address"
        },
        {
          "internalType": "bytes",
          "name": "_extraData",
          "type": "bytes"
        }
      ],
      "name": "lzReceive",
      "outputs": [],
      "stateMutability": "payable",
      "type": "function"
    },
    {
      "inputs": [
        {
          "components": [
            {
              "components": [
                {
                  "internalType": "uint32",
                  "name": "srcEid",
                  "type": "uint32"
                },
                {
                  "internalType": "bytes32",
                  "name": "sender",
                  "type": "bytes32"
                },
                {
                  "internalType": "uint64",
                  "name": "nonce",
                  "type": "uint64"
                }
              ],
              "internalType": "struct Origin",
              "name": "origin",
              "type": "tuple"
            },
            {
              "internalType": "bytes32",
              "name": "guid",
              "type": "bytes32"
            },
            {
              "internalType": "bytes",
              "name": "message",
              "type": "bytes"
            },
            {
              "internalType": "bytes",
              "name": "callParams",
              "type": "bytes"
            }
          ],
          "internalType": "struct IPreCrime.Packet[]",
          "name": "_packets",
          "type": "tuple[]"
        }
      ],
      "name": "lzReceiveAndRevert",
      "outputs": [],
      "stateMutability": "payable",
      "type": "function"
    },
    {
      "inputs": [
        {
          "internalType": "uint32",
          "name": "_srcEid",
          "type": "uint32"
        },
        {
          "internalType": "bytes32",
          "name": "_sender",
          "type": "bytes32"
        }
      ],
      "name": "nextNonce",
      "outputs": [
        {
          "internalType": "uint64",
          "name": "",
          "type": "uint64"
        }
      ],
      "stateMutability": "view",
      "type": "function"
    },
    {
      "inputs": [
        {
          "internalType": "uint32",
          "name": "dstEid",
          "type": "uint32"
        }
      ],
      "name": "outboundCount",
      "outputs": [
        {
          "internalType": "uint256",
          "name": "count",
          "type": "uint256"
        }
      ],
      "stateMutability": "view",
      "type": "function"
    },
    {
      "inputs": [],
      "name": "owner",
      "outputs": [
        {
          "internalType": "address",
          "name": "",
          "type": "address"
        }
      ],
      "stateMutability": "view",
      "type": "function"
    },
    {
      "inputs": [
        {
          "internalType": "uint32",
          "name": "",
          "type": "uint32"
        }
      ],
      "name": "peers",
      "outputs": [
        {
          "internalType": "bytes32",
          "name": "",
          "type": "bytes32"
        }
      ],
      "stateMutability": "view",
      "type": "function"
    },
    {
      "inputs": [],
      "name": "precrime",
      "outputs": [
        {
          "internalType": "contract IPreCrime",
          "name": "",
          "type": "address"
        }
      ],
      "stateMutability": "view",
      "type": "function"
    },
    {
      "inputs": [
        {
          "internalType": "uint32",
          "name": "_eid",
          "type": "uint32"
        },
        {
          "internalType": "uint8",
          "name": "_type",
          "type": "uint8"
        },
        {
          "internalType": "bytes",
          "name": "_options",
          "type": "bytes"
        }
      ],
      "name": "quote",
      "outputs": [
        {
          "internalType": "uint256",
          "name": "nativeFee",
          "type": "uint256"
        },
        {
          "internalType": "uint256",
          "name": "zroFee",
          "type": "uint256"
        }
      ],
      "stateMutability": "view",
      "type": "function"
    },
    {
      "inputs": [],
      "name": "renounceOwnership",
      "outputs": [],
      "stateMutability": "nonpayable",
      "type": "function"
    },
    {
      "inputs": [
        {
          "internalType": "uint32",
          "name": "_eid",
          "type": "uint32"
        }
      ],
      "name": "safeGetPeer",
      "outputs": [
        {
          "internalType": "bytes32",
          "name": "peer",
          "type": "bytes32"
        }
      ],
      "stateMutability": "view",
      "type": "function"
    },
    {
      "inputs": [
        {
          "internalType": "address",
          "name": "_admin",
          "type": "address"
        }
      ],
      "name": "setAdmin",
      "outputs": [],
      "stateMutability": "nonpayable",
      "type": "function"
    },
    {
      "inputs": [
        {
          "components": [
            {
              "internalType": "uint16",
              "name": "msgType",
              "type": "uint16"
            },
            {
              "internalType": "uint32",
              "name": "eid",
              "type": "uint32"
            },
            {
              "internalType": "bytes",
              "name": "options",
              "type": "bytes"
            }
          ],
          "internalType": "struct IOApp.EnforcedOptionParam[]",
          "name": "_enforcedOptions",
          "type": "tuple[]"
        }
      ],
      "name": "setEnforcedOptions",
      "outputs": [],
      "stateMutability": "nonpayable",
      "type": "function"
    },
    {
      "inputs": [
        {
          "internalType": "bool",
          "name": "_orderedNonce",
          "type": "bool"
        }
      ],
      "name": "setOrderedNonce",
      "outputs": [],
      "stateMutability": "nonpayable",
      "type": "function"
    },
    {
      "inputs": [
        {
          "internalType": "uint32",
          "name": "_eid",
          "type": "uint32"
        },
        {
          "internalType": "bytes32",
          "name": "_peer",
          "type": "bytes32"
        }
      ],
      "name": "setPeer",
      "outputs": [],
      "stateMutability": "nonpayable",
      "type": "function"
    },
    {
      "inputs": [
        {
          "internalType": "address",
          "name": "_precrime",
          "type": "address"
        }
      ],
      "name": "setPrecrime",
      "outputs": [],
      "stateMutability": "nonpayable",
      "type": "function"
    },
    {
      "inputs": [
        {
          "internalType": "uint32",
          "name": "_srcEid",
          "type": "uint32"
        },
        {
          "internalType": "bytes32",
          "name": "_sender",
          "type": "bytes32"
        },
        {
          "internalType": "uint64",
          "name": "_nonce",
          "type": "uint64"
        }
      ],
      "name": "skipInboundNonce",
      "outputs": [],
      "stateMutability": "nonpayable",
      "type": "function"
    },
    {
      "inputs": [
        {
          "internalType": "address",
          "name": "newOwner",
          "type": "address"
        }
      ],
      "name": "transferOwnership",
      "outputs": [],
      "stateMutability": "nonpayable",
      "type": "function"
    },
    {
      "inputs": [],
      "name": "version",
      "outputs": [
        {
          "internalType": "uint256",
          "name": "",
          "type": "uint256"
        }
      ],
      "stateMutability": "view",
      "type": "function"
    },
    {
      "inputs": [
        {
          "internalType": "address payable",
          "name": "_to",
          "type": "address"
        },
        {
          "internalType": "uint256",
          "name": "_amount",
          "type": "uint256"
        }
      ],
      "name": "withdraw",
      "outputs": [],
      "stateMutability": "nonpayable",
      "type": "function"
    },
    {
      "stateMutability": "payable",
      "type": "receive"
    }
  ],
  "bytecode": "0x60a06040523480156200001157600080fd5b506040516200358038038062003580833981016040819052620000349162000139565b806200004033620000e9565b6001600160a01b03166080819052600680546001600160a01b031916331790556040805163416ecebf60e01b8152905163416ecebf916004808201926020929091908290030181865afa1580156200009c573d6000803e3d6000fd5b505050506040513d601f19601f82011682018060405250810190620000c291906200016b565b600660146101000a81548163ffffffff021916908363ffffffff1602179055505062000193565b600080546001600160a01b038381166001600160a01b0319831681178455604051919092169283917f8be0079c531659141344cd1fd0a4f28419497f9722a3daafe3b4186f6b6457e09190a35050565b6000602082840312156200014c57600080fd5b81516001600160a01b03811681146200016457600080fd5b9392505050565b6000602082840312156200017e57600080fd5b815163ffffffff811681146200016457600080fd5b6080516133a0620001e0600039600081816103450152818161073901528181610cd601528181611012015281816115c401528181611c4801528181611e7301526120a301526133a06000f3fe6080604052600436106101b95760003560e01c8063715018a6116100eb578063c95c55be1161008f578063f2fde38b11610061578063f2fde38b1461057a578063f3fef3a31461059a578063f5c6ba5a146105ba578063f851a440146105cd57005b8063c95c55be146104ff578063d0a1026014610512578063d22446ce14610525578063dbcd3b911461055a57005b8063950c8a74116100c8578063950c8a7414610472578063b7abbb5d1461049f578063baf3292d146104b2578063bb0b6a53146104d257005b8063715018a6146103f95780637d25a05e1461040e5780638da5cb5b1461044757005b8063542e7b561161015d5780635e280f111161012f5780635e280f1114610333578063622f17f61461038c578063704b6c02146103b95780637112f86f146103d957005b8063542e7b56146102be57806354fd4d50146102d157806356a47289146102e65780635b849af61461031357005b8063257f4e0511610196578063257f4e051461021e57806326b27f84146102345780633400288b14610254578063416ecebf1461027457005b806306661abd146101c2578063107a93d6146101eb57806313137d651461020b57005b366101c057005b005b3480156101ce57600080fd5b506101d860045481565b6040519081526020015b60405180910390f35b3480156101f757600080fd5b506101c06102063660046124b3565b6105fa565b6101c0610219366004612559565b610737565b34801561022a57600080fd5b506101d860055481565b34801561024057600080fd5b506101d861024f366004612614565b610841565b34801561026057600080fd5b506101c061026f36600461262f565b61089b565b34801561028057600080fd5b506006546102a99074010000000000000000000000000000000000000000900463ffffffff1681565b60405163ffffffff90911681526020016101e2565b6101c06102cc366004612659565b610940565b3480156102dd57600080fd5b506101d8600181565b3480156102f257600080fd5b506101d8610301366004612614565b60096020526000908152604090205481565b34801561031f57600080fd5b506101c061032e3660046126f3565b610b82565b34801561033f57600080fd5b506103677f000000000000000000000000000000000000000000000000000000000000000081565b60405173ffffffffffffffffffffffffffffffffffffffff90911681526020016101e2565b34801561039857600080fd5b506101d86103a7366004612614565b600a6020526000908152604090205481565b3480156103c557600080fd5b506101c06103d4366004612715565b610bbb565b3480156103e557600080fd5b506101c06103f4366004612748565b610c83565b34801561040557600080fd5b506101c0610db7565b34801561041a57600080fd5b5061042e61042936600461262f565b610dcb565b60405167ffffffffffffffff90911681526020016101e2565b34801561045357600080fd5b5060005473ffffffffffffffffffffffffffffffffffffffff16610367565b34801561047e57600080fd5b506003546103679073ffffffffffffffffffffffffffffffffffffffff1681565b6101c06104ad366004612799565b610e20565b3480156104be57600080fd5b506101c06104cd366004612715565b610ece565b3480156104de57600080fd5b506101d86104ed366004612614565b60016020526000908152604090205481565b6101c061050d366004612799565b610f4f565b6101c06105203660046127fa565b610ffa565b34801561053157600080fd5b50610545610540366004612799565b61127c565b604080519283526020830191909152016101e2565b34801561056657600080fd5b506101c061057536600461287b565b6112ea565b34801561058657600080fd5b506101c0610595366004612715565b61165d565b3480156105a657600080fd5b506101c06105b53660046128b1565b611714565b6101c06105c83660046124b3565b6117d8565b3480156105d957600080fd5b506006546103679073ffffffffffffffffffffffffffffffffffffffff1681565b6106026119ac565b60005b818110156106f95782828281811061061f5761061f6128cf565b905060200281019061063191906128fe565b61063f90604081019061293c565b60026000868686818110610655576106556128cf565b905060200281019061066791906128fe565b610678906040810190602001612614565b63ffffffff1663ffffffff16815260200190815260200160002060008686868181106106a6576106a66128cf565b90506020028101906106b891906128fe565b6106c69060208101906129b3565b61ffff1681526020810191909152604001600020916106e6919083612a9e565b50806106f181612be7565b915050610605565b507f0548419a320c116408d237dae51da66dc63603dfd20bd99ba0c8be4c5ff7a200828260405161072b929190612c68565b60405180910390a15050565b7f000000000000000000000000000000000000000000000000000000000000000073ffffffffffffffffffffffffffffffffffffffff1633146107ad576040517fab08c09e0000000000000000000000000000000000000000000000000000000081523360048201526024015b60405180910390fd5b602087018035906107c29061024f908a612614565b146107ff576040517fc59a4f64000000000000000000000000000000000000000000000000000000008152602088013560048201526024016107a4565b61082961080f6020890189612614565b602089013561082460608b0160408c01612da6565b611a2d565b61083887878787878787611b63565b50505050505050565b63ffffffff811660009081526001602052604090205480610896576040517f196fb6c000000000000000000000000000000000000000000000000000000000815263ffffffff831660048201526024016107a4565b919050565b6108a36119ac565b63ffffffff82166000908152600160205260409020548190036108f2576040517f9556766100000000000000000000000000000000000000000000000000000000815260040160405180910390fd5b63ffffffff8216600081815260016020908152604091829020849055815192835282018390527fd81b9101f39c530fa8f18e6c9c5a64e4a3d7cb699e959f5d7abb5951c65e318f910161072b565b848114801561094e57508483145b6109b4576040517f08c379a000000000000000000000000000000000000000000000000000000000815260206004820152601c60248201527f4f6d6e69436f756e7465723a206c656e677468206d69736d617463680000000060448201526064016107a4565b6109bc61241f565b3460005b87811015610b775760006109d560018a612dc3565b82146109e157306109e3565b335b9050610b2060405180608001604052808c8c86818110610a0557610a056128cf565b9050602002016020810190610a1a9190612614565b63ffffffff168152602001610a4f8d8d87818110610a3a57610a3a6128cf565b905060200201602081019061024f9190612614565b8152602001610aa48b8b87818110610a6957610a696128cf565b9050602002016020810190610a7e9190612dd6565b60065474010000000000000000000000000000000000000000900463ffffffff16611dab565b8152602001888886818110610abb57610abb6128cf565b9050602002810190610acd919061293c565b8080601f0160208091040260200160405190810160405280939291908181526020018383808284376000920182905250939094525050604080518082019091528781526020810191909152905083611e24565b9350610b518a8a84818110610b3757610b376128cf565b9050602002016020810190610b4c9190612614565b611ef6565b604084015151610b619084612dc3565b9250508080610b6f90612be7565b9150506109c0565b505050505050505050565b610b8a6119ac565b600880547fffffffffffffffffffffffffffffffffffffffffffffffffffffffffffffff0016911515919091179055565b60065473ffffffffffffffffffffffffffffffffffffffff163314610c3c576040517f08c379a000000000000000000000000000000000000000000000000000000000815260206004820152600a60248201527f6f6e6c792061646d696e0000000000000000000000000000000000000000000060448201526064016107a4565b600680547fffffffffffffffffffffffff00000000000000000000000000000000000000001673ffffffffffffffffffffffffffffffffffffffff92909216919091179055565b610c8b6119ac565b6040517feaeacd6300000000000000000000000000000000000000000000000000000000815263ffffffff841660048201526024810183905267ffffffffffffffff821660448201527f000000000000000000000000000000000000000000000000000000000000000073ffffffffffffffffffffffffffffffffffffffff169063eaeacd6390606401600060405180830381600087803b158015610d2f57600080fd5b505af1158015610d43573d6000803e3d6000fd5b505060085460ff16159150610db290505763ffffffff831660009081526007602090815260408083208584529091528120805467ffffffffffffffff1691610d8a83612df1565b91906101000a81548167ffffffffffffffff021916908367ffffffffffffffff160217905550505b505050565b610dbf6119ac565b610dc96000611f1f565b565b60085460009060ff1615610e165763ffffffff83166000908152600760209081526040808320858452909152902054610e0f9067ffffffffffffffff166001612e18565b9050610e1a565b5060005b92915050565b610ebe60405180608001604052808663ffffffff168152602001610e4387610841565b8152602001610e6486600660149054906101000a900463ffffffff16611dab565b815260200184848080601f0160208091040260200160405190810160405280939291908181526020018383808284376000920182905250939094525050604080518082019091523481526020810191909152905033611e24565b50610ec884611ef6565b50505050565b610ed66119ac565b600380547fffffffffffffffffffffffff00000000000000000000000000000000000000001673ffffffffffffffffffffffffffffffffffffffff83169081179091556040519081527f5db758e995a17ec1ad84bdef7e8c3293a0bd6179bcce400dff5d4c3d87db726b9060200160405180910390a150565b60065473ffffffffffffffffffffffffffffffffffffffff163314610fd0576040517f08c379a000000000000000000000000000000000000000000000000000000000815260206004820152600a60248201527f6f6e6c792061646d696e0000000000000000000000000000000000000000000060448201526064016107a4565b610ff360405180608001604052808663ffffffff168152602001610e4387610841565b5050505050565b3373ffffffffffffffffffffffffffffffffffffffff7f00000000000000000000000000000000000000000000000000000000000000001614611099576040517f08c379a000000000000000000000000000000000000000000000000000000000815260206004820152600960248201527f21656e64706f696e74000000000000000000000000000000000000000000000060448201526064016107a4565b60006110a58686611f94565b90507ffffffffffffffffffffffffffffffffffffffffffffffffffffffffffffffffe60ff8216016110ef576001600560008282546110e49190612e40565b909155506112729050565b7ffffffffffffffffffffffffffffffffffffffffffffffffffffffffffffffffc60ff8216016112105760016005600082825461112c9190612e40565b909155506000905061113e8787611fb6565b905061114981611ef6565b600061119c62030d406000611195604080517e03000000000000000000000000000000000000000000000000000000000000602082015281516002818303018152602290910190915290565b9190611fd8565b905061120860405180608001604052808463ffffffff1681526020016111c185610841565b81526020016111e36001600660149054906101000a900463ffffffff16611dab565b8152602001838152506040518060400160405280348152602001600081525030611e24565b505050611272565b6040517f08c379a000000000000000000000000000000000000000000000000000000000815260206004820152601460248201527f696e76616c6964206d657373616765207479706500000000000000000000000060448201526064016107a4565b5050505050505050565b6000806112dd8661129f87600660149054906101000a900463ffffffff16611dab565b600087878080601f01602080910402602001604051908101604052809392919081815260200183838082843760009201919091525061209c92505050565b9150915094509492505050565b6112f26119ac565b60006112fe8284612e53565b90507fffffffff0000000000000000000000000000000000000000000000000000000081167fb8007ff600000000000000000000000000000000000000000000000000000000148061139157507fffffffff0000000000000000000000000000000000000000000000000000000081167f9e7fffcc00000000000000000000000000000000000000000000000000000000145b806113dd57507fffffffff0000000000000000000000000000000000000000000000000000000081167f0678327f00000000000000000000000000000000000000000000000000000000145b8061142957507fffffffff0000000000000000000000000000000000000000000000000000000081167fb8849ac900000000000000000000000000000000000000000000000000000000145b8061147557507fffffffff0000000000000000000000000000000000000000000000000000000081167fe16f964d00000000000000000000000000000000000000000000000000000000145b806114c157507fffffffff0000000000000000000000000000000000000000000000000000000081167f66bf43d600000000000000000000000000000000000000000000000000000000145b8061150d57507fffffffff0000000000000000000000000000000000000000000000000000000081167f965183d400000000000000000000000000000000000000000000000000000000145b8061155957507fffffffff0000000000000000000000000000000000000000000000000000000081167feaeacd6300000000000000000000000000000000000000000000000000000000145b6115bf576040517f08c379a000000000000000000000000000000000000000000000000000000000815260206004820152601a60248201527f4f4170703a2066756e6374696f6e206e6f7420616c6c6f77656400000000000060448201526064016107a4565b6000807f000000000000000000000000000000000000000000000000000000000000000073ffffffffffffffffffffffffffffffffffffffff168585604051611609929190612e9b565b6000604051808303816000865af19150503d8060008114611646576040519150601f19603f3d011682016040523d82523d6000602084013e61164b565b606091505b509150915081610ff357805160208201fd5b6116656119ac565b73ffffffffffffffffffffffffffffffffffffffff8116611708576040517f08c379a000000000000000000000000000000000000000000000000000000000815260206004820152602660248201527f4f776e61626c653a206e6577206f776e657220697320746865207a65726f206160448201527f646472657373000000000000000000000000000000000000000000000000000060648201526084016107a4565b61171181611f1f565b50565b60065473ffffffffffffffffffffffffffffffffffffffff163314611795576040517f08c379a000000000000000000000000000000000000000000000000000000000815260206004820152600a60248201527f6f6e6c792061646d696e0000000000000000000000000000000000000000000060448201526064016107a4565b60405173ffffffffffffffffffffffffffffffffffffffff83169082156108fc029083906000818181858888f19350505050158015610db2573d6000803e3d6000fd5b60035473ffffffffffffffffffffffffffffffffffffffff16331461182b576040517fc023811c0000000000000000000000000000000000000000000000000000000081523360048201526024016107a4565b60005b818110156118c15736838383818110611849576118496128cf565b905060200281019061185b9190612eab565b9050600061186f61024f6020840184612614565b9050602082013581146118835750506118af565b6118ac826060810135611899608083018361293c565b336118a760a089018961293c565b611b63565b50505b806118b981612be7565b91505061182e565b50600354604080517fd2968d57000000000000000000000000000000000000000000000000000000008152905160019273ffffffffffffffffffffffffffffffffffffffff169163d2968d579160048083019260009291908290030181865afa158015611932573d6000803e3d6000fd5b505050506040513d6000823e601f3d9081017fffffffffffffffffffffffffffffffffffffffffffffffffffffffffffffffe01682016040526119789190810190612f03565b6040517f0a78da8f0000000000000000000000000000000000000000000000000000000081526004016107a4929190613018565b60005473ffffffffffffffffffffffffffffffffffffffff163314610dc9576040517f08c379a000000000000000000000000000000000000000000000000000000000815260206004820181905260248201527f4f776e61626c653a2063616c6c6572206973206e6f7420746865206f776e657260448201526064016107a4565b63ffffffff8316600090815260076020908152604080832085845290915290205460085467ffffffffffffffff9091169060ff1615611aed57611a71816001612e18565b67ffffffffffffffff168267ffffffffffffffff1614611aed576040517f08c379a000000000000000000000000000000000000000000000000000000000815260206004820152601360248201527f4f4170703a20696e76616c6964206e6f6e63650000000000000000000000000060448201526064016107a4565b8067ffffffffffffffff168267ffffffffffffffff161115610ec85763ffffffff841660009081526007602090815260408083208684529091529020805467ffffffffffffffff84167fffffffffffffffffffffffffffffffffffffffffffffffff000000000000000090911617905550505050565b6000611b6f8686611f94565b90507fffffffffffffffffffffffffffffffffffffffffffffffffffffffffffffffff60ff821601611bcb5760048054906000611bab83612be7565b90915550611bc69050611bc160208a018a612614565b612158565b611272565b60ff811660021480611be0575060ff81166004145b15611cba5760048054906000611bf583612be7565b90915550611c0b9050611bc160208a018a612614565b6040517f754d3b9c00000000000000000000000000000000000000000000000000000000815273ffffffffffffffffffffffffffffffffffffffff7f0000000000000000000000000000000000000000000000000000000000000000169063754d3b9c90611c839030908b908b908b9060040161303d565b600060405180830381600087803b158015611c9d57600080fd5b505af1158015611cb1573d6000803e3d6000fd5b50505050611272565b7ffffffffffffffffffffffffffffffffffffffffffffffffffffffffffffffffd60ff8216016112105760048054906000611cf483612be7565b90915550611d0a9050611bc160208a018a612614565b611d1a610b4c60208a018a612614565b6000611d6662030d406000611195604080517e03000000000000000000000000000000000000000000000000000000000000602082015281516002818303018152602290910190915290565b6040805160808101909152909150611da49080611d8660208d018d612614565b63ffffffff1681526020908101906111c19061024f908e018e612614565b5050611272565b6040517fff0000000000000000000000000000000000000000000000000000000000000060f884901b1660208201527fffffffff0000000000000000000000000000000000000000000000000000000060e083901b1660218201526060906025015b604051602081830303815290604052905092915050565b611e2c61241f565b825160208401516040517faca1b45a00000000000000000000000000000000000000000000000000000000815260009273ffffffffffffffffffffffffffffffffffffffff7f0000000000000000000000000000000000000000000000000000000000000000169263aca1b45a92611eaa918a918990600401613073565b60806040518083038185885af1158015611ec8573d6000803e3d6000fd5b50505050506040513d601f19601f82011682018060405250810190611eed9190613161565b95945050505050565b63ffffffff81166000908152600a60205260408120805491611f1783612be7565b919050555050565b6000805473ffffffffffffffffffffffffffffffffffffffff8381167fffffffffffffffffffffffff0000000000000000000000000000000000000000831681178455604051919092169283917f8be0079c531659141344cd1fd0a4f28419497f9722a3daafe3b4186f6b6457e09190a35050565b6000611fa360018284866131c9565b611fac916131f3565b60f81c9392505050565b6000611fc582600181866131c9565b611fce91612e53565b60e01c9392505050565b6060836003611fe8826000612179565b61ffff1614612078576040517f08c379a0000000000000000000000000000000000000000000000000000000008152602060048201526024808201527f4f7074696f6e734275696c6465723a20696e76616c6964206f7074696f6e732060448201527f747970650000000000000000000000000000000000000000000000000000000060648201526084016107a4565b600061208485856121f9565b9050612092866001836122a0565b9695505050505050565b60008060007f000000000000000000000000000000000000000000000000000000000000000073ffffffffffffffffffffffffffffffffffffffff166383c4755930898989896040518663ffffffff1660e01b8152600401612102959493929190613239565b6040805180830381865afa15801561211e573d6000803e3d6000fd5b505050506040513d601f19601f82011682018060405250810190612142919061329a565b8051602090910151909890975095505050505050565b63ffffffff81166000908152600960205260408120805491611f1783612be7565b6000612186826002612e40565b835110156121f0576040517f08c379a000000000000000000000000000000000000000000000000000000000815260206004820152601460248201527f746f55696e7431365f6f75744f66426f756e647300000000000000000000000060448201526064016107a4565b50016002015190565b60606fffffffffffffffffffffffffffffffff82161561226257604080517fffffffffffffffffffffffffffffffff00000000000000000000000000000000608086811b8216602084015285901b16603082015201604051602081830303815290604052612299565b6040517fffffffffffffffffffffffffffffffff00000000000000000000000000000000608085901b166020820152603001611e0d565b9392505050565b60608360036122b0826000612179565b61ffff1614612340576040517f08c379a0000000000000000000000000000000000000000000000000000000008152602060048201526024808201527f4f7074696f6e734275696c6465723a20696e76616c6964206f7074696f6e732060448201527f747970650000000000000000000000000000000000000000000000000000000060648201526084016107a4565b84600161234d8551612387565b6123589060016132b6565b868660405160200161236e9594939291906132d1565b6040516020818303038152906040529150509392505050565b600061ffff82111561241b576040517f08c379a000000000000000000000000000000000000000000000000000000000815260206004820152602660248201527f53616665436173743a2076616c756520646f65736e27742066697420696e203160448201527f362062697473000000000000000000000000000000000000000000000000000060648201526084016107a4565b5090565b604051806060016040528060008019168152602001600067ffffffffffffffff168152602001612462604051806040016040528060008152602001600081525090565b905290565b60008083601f84011261247957600080fd5b50813567ffffffffffffffff81111561249157600080fd5b6020830191508360208260051b85010111156124ac57600080fd5b9250929050565b600080602083850312156124c657600080fd5b823567ffffffffffffffff8111156124dd57600080fd5b6124e985828601612467565b90969095509350505050565b60008083601f84011261250757600080fd5b50813567ffffffffffffffff81111561251f57600080fd5b6020830191508360208285010111156124ac57600080fd5b73ffffffffffffffffffffffffffffffffffffffff8116811461171157600080fd5b600080600080600080600087890360e081121561257557600080fd5b606081121561258357600080fd5b5087965060608801359550608088013567ffffffffffffffff808211156125a957600080fd5b6125b58b838c016124f5565b909750955060a08a013591506125ca82612537565b90935060c089013590808211156125e057600080fd5b506125ed8a828b016124f5565b989b979a50959850939692959293505050565b803563ffffffff8116811461089657600080fd5b60006020828403121561262657600080fd5b61229982612600565b6000806040838503121561264257600080fd5b61264b83612600565b946020939093013593505050565b6000806000806000806060878903121561267257600080fd5b863567ffffffffffffffff8082111561268a57600080fd5b6126968a838b01612467565b909850965060208901359150808211156126af57600080fd5b6126bb8a838b01612467565b909650945060408901359150808211156126d457600080fd5b506126e189828a01612467565b979a9699509497509295939492505050565b60006020828403121561270557600080fd5b8135801515811461229957600080fd5b60006020828403121561272757600080fd5b813561229981612537565b67ffffffffffffffff8116811461171157600080fd5b60008060006060848603121561275d57600080fd5b61276684612600565b925060208401359150604084013561277d81612732565b809150509250925092565b803560ff8116811461089657600080fd5b600080600080606085870312156127af57600080fd5b6127b885612600565b93506127c660208601612788565b9250604085013567ffffffffffffffff8111156127e257600080fd5b6127ee878288016124f5565b95989497509550505050565b600080600080600080600060a0888a03121561281557600080fd5b873561282081612537565b965060208801359550604088013567ffffffffffffffff8082111561284457600080fd5b6128508b838c016124f5565b909750955060608a0135915061286582612537565b909350608089013590808211156125e057600080fd5b6000806020838503121561288e57600080fd5b823567ffffffffffffffff8111156128a557600080fd5b6124e9858286016124f5565b600080604083850312156128c457600080fd5b823561264b81612537565b7f4e487b7100000000000000000000000000000000000000000000000000000000600052603260045260246000fd5b600082357fffffffffffffffffffffffffffffffffffffffffffffffffffffffffffffffa183360301811261293257600080fd5b9190910192915050565b60008083357fffffffffffffffffffffffffffffffffffffffffffffffffffffffffffffffe184360301811261297157600080fd5b83018035915067ffffffffffffffff82111561298c57600080fd5b6020019150368190038213156124ac57600080fd5b803561ffff8116811461089657600080fd5b6000602082840312156129c557600080fd5b612299826129a1565b7f4e487b7100000000000000000000000000000000000000000000000000000000600052604160045260246000fd5b600181811c90821680612a1157607f821691505b602082108103612a4a577f4e487b7100000000000000000000000000000000000000000000000000000000600052602260045260246000fd5b50919050565b601f821115610db257600081815260208120601f850160051c81016020861015612a775750805b601f850160051c820191505b81811015612a9657828155600101612a83565b505050505050565b67ffffffffffffffff831115612ab657612ab66129ce565b612aca83612ac483546129fd565b83612a50565b6000601f841160018114612b1c5760008515612ae65750838201355b7fffffffffffffffffffffffffffffffffffffffffffffffffffffffffffffffff600387901b1c1916600186901b178355610ff3565b6000838152602090207fffffffffffffffffffffffffffffffffffffffffffffffffffffffffffffffe0861690835b82811015612b6b5786850135825560209485019460019092019101612b4b565b5086821015612ba6577fffffffffffffffffffffffffffffffffffffffffffffffffffffffffffffffff60f88860031b161c19848701351681555b505060018560011b0183555050505050565b7f4e487b7100000000000000000000000000000000000000000000000000000000600052601160045260246000fd5b60007fffffffffffffffffffffffffffffffffffffffffffffffffffffffffffffffff8203612c1857612c18612bb8565b5060010190565b8183528181602085013750600060208284010152600060207fffffffffffffffffffffffffffffffffffffffffffffffffffffffffffffffe0601f840116840101905092915050565b60208082528181018390526000906040808401600586901b8501820187855b88811015612d98577fffffffffffffffffffffffffffffffffffffffffffffffffffffffffffffffc088840301845281357fffffffffffffffffffffffffffffffffffffffffffffffffffffffffffffffa18b3603018112612ce857600080fd5b8a01606061ffff612cf8836129a1565b16855263ffffffff612d0b898401612600565b1688860152868201357fffffffffffffffffffffffffffffffffffffffffffffffffffffffffffffffe1833603018112612d4457600080fd5b90910187810191903567ffffffffffffffff811115612d6257600080fd5b803603831315612d7157600080fd5b8188870152612d838287018285612c1f565b96890196955050509186019150600101612c87565b509098975050505050505050565b600060208284031215612db857600080fd5b813561229981612732565b81810381811115610e1a57610e1a612bb8565b600060208284031215612de857600080fd5b61229982612788565b600067ffffffffffffffff808316818103612e0e57612e0e612bb8565b6001019392505050565b67ffffffffffffffff818116838216019080821115612e3957612e39612bb8565b5092915050565b80820180821115610e1a57610e1a612bb8565b7fffffffff000000000000000000000000000000000000000000000000000000008135818116916004851015612e935780818660040360031b1b83161692505b505092915050565b8183823760009101908152919050565b600082357fffffffffffffffffffffffffffffffffffffffffffffffffffffffffffffff4183360301811261293257600080fd5b60005b83811015612efa578181015183820152602001612ee2565b50506000910152565b600060208284031215612f1557600080fd5b815167ffffffffffffffff80821115612f2d57600080fd5b818401915084601f830112612f4157600080fd5b815181811115612f5357612f536129ce565b604051601f82017fffffffffffffffffffffffffffffffffffffffffffffffffffffffffffffffe0908116603f01168101908382118183101715612f9957612f996129ce565b81604052828152876020848701011115612fb257600080fd5b612fc3836020830160208801612edf565b979650505050505050565b60008151808452612fe6816020860160208601612edf565b601f017fffffffffffffffffffffffffffffffffffffffffffffffffffffffffffffffe0169290920160200192915050565b61ffff831681526040602082015260006130356040830184612fce565b949350505050565b73ffffffffffffffffffffffffffffffffffffffff85168152836020820152606060408201526000612092606083018486612c1f565b6060815263ffffffff84511660608201526020840151608082015260006040850151608060a08401526130a960e0840182612fce565b905060608601517fffffffffffffffffffffffffffffffffffffffffffffffffffffffffffffffa08483030160c08501526130e48282612fce565b9250505083602083015273ffffffffffffffffffffffffffffffffffffffff83166040830152949350505050565b60006040828403121561312457600080fd5b6040516040810181811067ffffffffffffffff82111715613147576131476129ce565b604052825181526020928301519281019290925250919050565b60006080828403121561317357600080fd5b6040516060810181811067ffffffffffffffff82111715613196576131966129ce565b6040528251815260208301516131ab81612732565b60208201526131bd8460408501613112565b60408201529392505050565b600080858511156131d957600080fd5b838611156131e657600080fd5b5050820193919092039150565b7fff000000000000000000000000000000000000000000000000000000000000008135818116916001851015612e935760019490940360031b84901b1690921692915050565b73ffffffffffffffffffffffffffffffffffffffff8616815263ffffffff8516602082015260a06040820152600061327460a0830186612fce565b8415156060840152828103608084015261328e8185612fce565b98975050505050505050565b6000604082840312156132ac57600080fd5b6122998383613112565b61ffff818116838216019080821115612e3957612e39612bb8565b600086516132e3818460208b01612edf565b80830190507fff00000000000000000000000000000000000000000000000000000000000000808860f81b1682527fffff0000000000000000000000000000000000000000000000000000000000008760f01b166001830152808660f81b16600383015250835161335b816004840160208801612edf565b0160040197965050505050505056fea2646970667358221220be7b2ce1c2b1d3a5d2e641e93a120d13abbc38a821ee6ab4d36d75e342b53e4364736f6c63430008130033",
  "linkReferences": {},
  "deployedLinkReferences": {}
}