{
  "address": "0x06D538690AF257Da524f25D0CD52fD85b1c2173E",
  "abi": [
    {
      "inputs": [],
      "name": "getBlockNumber",
      "outputs": [
        {
          "internalType": "uint256",
          "name": "",
          "type": "uint256"
        }
      ],
      "stateMutability": "view",
      "type": "function"
    }
  ],
  "transactionHash": "0xd04a37fc6d3bfba781c8afecd90b86ab1266b9efdc791373d007e74753eadfd2",
  "args": [],
  "numDeployments": 1,
  "solcInputHash": "9fe1546c272220fc6c394a3b8e14b07a",
  "bytecode": "0x6080604052348015600f57600080fd5b50607f8061001e6000396000f3fe6080604052348015600f57600080fd5b506004361060285760003560e01c806342cbb15c14602d575b600080fd5b60336045565b60408051918252519081900360200190f35b439056fea2646970667358221220be67b4cb826f9a14107afab6d0bef8401a06cceda424b02453bfbb5a24e69d2864736f6c63430007060033",
  "devdoc": {
    "kind": "dev",
    "methods": {},
    "version": 1
  },
  "userdoc": {
    "kind": "user",
    "methods": {},
    "version": 1
  },
  "storageLayout": {
    "storage": [],
    "types": null
  }
}