{
  "_format": "hh-sol-artifact-1",
  "contractName": "OFTV2View",
  "sourceName": "contracts/token/oft/v2/precrime/OFTV2View.sol",
  "abi": [
    {
      "inputs": [
        {
          "internalType": "address",
          "name": "_oft",
          "type": "address"
        }
      ],
      "stateMutability": "nonpayable",
      "type": "constructor"
    },
    {
      "inputs": [],
      "name": "getCurrentState",
      "outputs": [
        {
          "internalType": "uint256",
          "name": "",
          "type": "uint256"
        }
      ],
      "stateMutability": "view",
      "type": "function"
    },
    {
      "inputs": [
        {
          "internalType": "uint16",
          "name": "_srcChainId",
          "type": "uint16"
        }
      ],
      "name": "getInboundNonce",
      "outputs": [
        {
          "internalType": "uint64",
          "name": "",
          "type": "uint64"
        }
      ],
      "stateMutability": "view",
      "type": "function"
    },
    {
      "inputs": [],
      "name": "isProxy",
      "outputs": [
        {
          "internalType": "bool",
          "name": "",
          "type": "bool"
        }
      ],
      "stateMutability": "view",
      "type": "function"
    },
    {
      "inputs": [
        {
          "internalType": "uint16",
          "name": "_srcChainId",
          "type": "uint16"
        },
        {
          "internalType": "bytes32",
          "name": "_scrAddress",
          "type": "bytes32"
        },
        {
          "internalType": "bytes",
          "name": "_payload",
          "type": "bytes"
        },
        {
          "internalType": "uint256",
          "name": "_totalSupply",
          "type": "uint256"
        }
      ],
      "name": "lzReceive",
      "outputs": [
        {
          "internalType": "uint256",
          "name": "",
          "type": "uint256"
        }
      ],
      "stateMutability": "view",
      "type": "function"
    }
  ],
  "bytecode": "0x60e06040523480156200001157600080fd5b5060405162000e5f38038062000e5f833981016040819052620000349162000271565b6001600160a01b03811660808190526040805163b353aaa760e01b8152905163b353aaa7916004808201926020929091908290030181865afa1580156200007f573d6000803e3d6000fd5b505050506040513d601f19601f82011682018060405250810190620000a5919062000271565b6001600160a01b031660a0816001600160a01b0316815250506000816001600160a01b031663fc0c546a6040518163ffffffff1660e01b8152600401602060405180830381865afa158015620000ff573d6000803e3d6000fd5b505050506040513d601f19601f8201168201806040525081019062000125919062000271565b60408051600481526024810182526020810180516001600160e01b031663313ce56760e01b17905290516001600160a01b03929092169162000168919062000298565b600060405180830381855afa9150503d8060008114620001a5576040519150601f19603f3d011682016040523d82523d6000602084013e620001aa565b606091505b50915050600081806020019051810190620001c69190620002d6565b90506000836001600160a01b031663857749b06040518163ffffffff1660e01b8152600401602060405180830381865afa15801562000209573d6000803e3d6000fd5b505050506040513d601f19601f820116820180604052508101906200022f9190620002d6565b90506200023d818362000311565b6200024a90600a62000436565b60c052506200044792505050565b6001600160a01b03811681146200026e57600080fd5b50565b6000602082840312156200028457600080fd5b8151620002918162000258565b9392505050565b6000825160005b81811015620002bb57602081860181015185830152016200029f565b81811115620002cb576000828501525b509190910192915050565b600060208284031215620002e957600080fd5b815160ff811681146200029157600080fd5b634e487b7160e01b600052601160045260246000fd5b600060ff821660ff8416808210156200032e576200032e620002fb565b90039392505050565b600181815b80851115620003785781600019048211156200035c576200035c620002fb565b808516156200036a57918102915b93841c93908002906200033c565b509250929050565b600082620003915750600162000430565b81620003a05750600062000430565b8160018114620003b95760028114620003c457620003e4565b600191505062000430565b60ff841115620003d857620003d8620002fb565b50506001821b62000430565b5060208310610133831016604e8410600b841016171562000409575081810a62000430565b62000415838362000337565b80600019048211156200042c576200042c620002fb565b0290505b92915050565b60006200029160ff84168362000380565b60805160a05160c0516109db62000484600039600061044d015260006101f201526000818160be01528181610169015261031501526109db6000f3fe608060405234801561001057600080fd5b506004361061004c5760003560e01c8063378aa7011461005157806358b46b311461006c578063624a32661461009857806364da4e6f146100ab575b600080fd5b6100596100ba565b6040519081526020015b60405180910390f35b61007f61007a3660046105fd565b610143565b60405167ffffffffffffffff9091168152602001610063565b6100596100a6366004610687565b610271565b60405160008152602001610063565b60007f00000000000000000000000000000000000000000000000000000000000000006001600160a01b03166318160ddd6040518163ffffffff1660e01b8152600401602060405180830381865afa15801561011a573d6000803e3d6000fd5b505050506040513d601f19601f8201168201806040525081019061013e9190610729565b905090565b604051630ea67af160e31b815261ffff8216600482015260009081906001600160a01b037f00000000000000000000000000000000000000000000000000000000000000001690637533d78890602401600060405180830381865afa1580156101b0573d6000803e3d6000fd5b505050506040513d6000823e601f3d908101601f191682016040526101d89190810190610772565b604051630fdc07c760e41b81529091506001600160a01b037f0000000000000000000000000000000000000000000000000000000000000000169063fdc07c709061022990869085906004016107e9565b602060405180830381865afa158015610246573d6000803e3d6000fd5b505050506040513d601f19601f8201168201806040525081019061026a9190610827565b9392505050565b600061027d85856102ef565b6102ce5760405162461bcd60e51b815260206004820152601d60248201527f4f46545632566965773a206e6f7420747275737465642072656d6f746500000060448201526064015b60405180910390fd5b60006102d984610438565b90506102e58184610867565b9695505050505050565b604051630ea67af160e31b815261ffff8316600482015260009081906001600160a01b037f00000000000000000000000000000000000000000000000000000000000000001690637533d78890602401600060405180830381865afa15801561035c573d6000803e3d6000fd5b505050506040513d6000823e601f3d908101601f191682016040526103849190810190610772565b805190915060288114806103985750806034145b6103e45760405162461bcd60e51b815260206004820152601e60248201527f4f46545632566965773a20696e76616c69642070617468206c656e677468000060448201526064016102c5565b6103fc60006103f460148461087f565b84919061047c565b805190925060006001610410836008610896565b61041b906002610999565b610425919061087f565b9190930151168414925050505b92915050565b600080610446836021610589565b905061026a7f000000000000000000000000000000000000000000000000000000000000000067ffffffffffffffff8316610896565b60608161048a81601f610867565b10156104c95760405162461bcd60e51b815260206004820152600e60248201526d736c6963655f6f766572666c6f7760901b60448201526064016102c5565b6104d38284610867565b845110156105175760405162461bcd60e51b8152602060048201526011602482015270736c6963655f6f75744f66426f756e647360781b60448201526064016102c5565b6060821580156105365760405191506000825260208201604052610580565b6040519150601f8416801560200281840101858101878315602002848b0101015b8183101561056f578051835260209283019201610557565b5050858452601f01601f1916604052505b50949350505050565b6000610596826008610867565b835110156105dd5760405162461bcd60e51b8152602060048201526014602482015273746f55696e7436345f6f75744f66426f756e647360601b60448201526064016102c5565b50016008015190565b803561ffff811681146105f857600080fd5b919050565b60006020828403121561060f57600080fd5b61026a826105e6565b634e487b7160e01b600052604160045260246000fd5b604051601f8201601f1916810167ffffffffffffffff8111828210171561065757610657610618565b604052919050565b600067ffffffffffffffff82111561067957610679610618565b50601f01601f191660200190565b6000806000806080858703121561069d57600080fd5b6106a6856105e6565b935060208501359250604085013567ffffffffffffffff8111156106c957600080fd5b8501601f810187136106da57600080fd5b80356106ed6106e88261065f565b61062e565b81815288602083850101111561070257600080fd5b81602084016020830137600091810160200191909152949793965093946060013593505050565b60006020828403121561073b57600080fd5b5051919050565b60005b8381101561075d578181015183820152602001610745565b8381111561076c576000848401525b50505050565b60006020828403121561078457600080fd5b815167ffffffffffffffff81111561079b57600080fd5b8201601f810184136107ac57600080fd5b80516107ba6106e88261065f565b8181528560208385010111156107cf57600080fd5b6107e0826020830160208601610742565b95945050505050565b61ffff831681526040602082015260008251806040840152610812816060850160208701610742565b601f01601f1916919091016060019392505050565b60006020828403121561083957600080fd5b815167ffffffffffffffff8116811461026a57600080fd5b634e487b7160e01b600052601160045260246000fd5b6000821982111561087a5761087a610851565b500190565b60008282101561089157610891610851565b500390565b60008160001904831182151516156108b0576108b0610851565b500290565b600181815b808511156108f05781600019048211156108d6576108d6610851565b808516156108e357918102915b93841c93908002906108ba565b509250929050565b60008261090757506001610432565b8161091457506000610432565b816001811461092a576002811461093457610950565b6001915050610432565b60ff84111561094557610945610851565b50506001821b610432565b5060208310610133831016604e8410600b8410161715610973575081810a610432565b61097d83836108b5565b806000190482111561099157610991610851565b029392505050565b600061026a83836108f856fea26469706673582212200ba0da2b1a5bd289f6d5e080481248bec86b0fd3c074c5ea4f79579052117e6564736f6c634300080c0033",
  "linkReferences": {},
  "deployedLinkReferences": {}
}