{
  "_format": "hh-sol-artifact-1",
  "contractName": "OmniCounter",
  "sourceName": "contracts/examples/OmniCounter.sol",
  "abi": [
    {
      "inputs": [
        {
          "internalType": "address",
          "name": "_lzEndpoint",
          "type": "address"
        }
      ],
      "stateMutability": "nonpayable",
      "type": "constructor"
    },
    {
      "anonymous": false,
      "inputs": [
        {
          "indexed": false,
          "internalType": "uint16",
          "name": "_srcChainId",
          "type": "uint16"
        },
        {
          "indexed": false,
          "internalType": "bytes",
          "name": "_srcAddress",
          "type": "bytes"
        },
        {
          "indexed": false,
          "internalType": "uint64",
          "name": "_nonce",
          "type": "uint64"
        },
        {
          "indexed": false,
          "internalType": "bytes",
          "name": "_payload",
          "type": "bytes"
        },
        {
          "indexed": false,
          "internalType": "bytes",
          "name": "_reason",
          "type": "bytes"
        }
      ],
      "name": "MessageFailed",
      "type": "event"
    },
    {
      "anonymous": false,
      "inputs": [
        {
          "indexed": true,
          "internalType": "address",
          "name": "previousOwner",
          "type": "address"
        },
        {
          "indexed": true,
          "internalType": "address",
          "name": "newOwner",
          "type": "address"
        }
      ],
      "name": "OwnershipTransferred",
      "type": "event"
    },
    {
      "anonymous": false,
      "inputs": [
        {
          "indexed": false,
          "internalType": "uint16",
          "name": "_srcChainId",
          "type": "uint16"
        },
        {
          "indexed": false,
          "internalType": "bytes",
          "name": "_srcAddress",
          "type": "bytes"
        },
        {
          "indexed": false,
          "internalType": "uint64",
          "name": "_nonce",
          "type": "uint64"
        },
        {
          "indexed": false,
          "internalType": "bytes32",
          "name": "_payloadHash",
          "type": "bytes32"
        }
      ],
      "name": "RetryMessageSuccess",
      "type": "event"
    },
    {
      "anonymous": false,
      "inputs": [
        {
          "indexed": false,
          "internalType": "uint16",
          "name": "_dstChainId",
          "type": "uint16"
        },
        {
          "indexed": false,
          "internalType": "uint16",
          "name": "_type",
          "type": "uint16"
        },
        {
          "indexed": false,
          "internalType": "uint256",
          "name": "_minDstGas",
          "type": "uint256"
        }
      ],
      "name": "SetMinDstGas",
      "type": "event"
    },
    {
      "anonymous": false,
      "inputs": [
        {
          "indexed": false,
          "internalType": "address",
          "name": "precrime",
          "type": "address"
        }
      ],
      "name": "SetPrecrime",
      "type": "event"
    },
    {
      "anonymous": false,
      "inputs": [
        {
          "indexed": false,
          "internalType": "uint16",
          "name": "_remoteChainId",
          "type": "uint16"
        },
        {
          "indexed": false,
          "internalType": "bytes",
          "name": "_path",
          "type": "bytes"
        }
      ],
      "name": "SetTrustedRemote",
      "type": "event"
    },
    {
      "anonymous": false,
      "inputs": [
        {
          "indexed": false,
          "internalType": "uint16",
          "name": "_remoteChainId",
          "type": "uint16"
        },
        {
          "indexed": false,
          "internalType": "bytes",
          "name": "_remoteAddress",
          "type": "bytes"
        }
      ],
      "name": "SetTrustedRemoteAddress",
      "type": "event"
    },
    {
      "inputs": [],
      "name": "DEFAULT_PAYLOAD_SIZE_LIMIT",
      "outputs": [
        {
          "internalType": "uint256",
          "name": "",
          "type": "uint256"
        }
      ],
      "stateMutability": "view",
      "type": "function"
    },
    {
      "inputs": [],
      "name": "PAYLOAD",
      "outputs": [
        {
          "internalType": "bytes",
          "name": "",
          "type": "bytes"
        }
      ],
      "stateMutability": "view",
      "type": "function"
    },
    {
      "inputs": [],
      "name": "counter",
      "outputs": [
        {
          "internalType": "uint256",
          "name": "",
          "type": "uint256"
        }
      ],
      "stateMutability": "view",
      "type": "function"
    },
    {
      "inputs": [
        {
          "internalType": "uint16",
          "name": "_dstChainId",
          "type": "uint16"
        },
        {
          "internalType": "bool",
          "name": "_useZro",
          "type": "bool"
        },
        {
          "internalType": "bytes",
          "name": "_adapterParams",
          "type": "bytes"
        }
      ],
      "name": "estimateFee",
      "outputs": [
        {
          "internalType": "uint256",
          "name": "nativeFee",
          "type": "uint256"
        },
        {
          "internalType": "uint256",
          "name": "zroFee",
          "type": "uint256"
        }
      ],
      "stateMutability": "view",
      "type": "function"
    },
    {
      "inputs": [
        {
          "internalType": "uint16",
          "name": "",
          "type": "uint16"
        },
        {
          "internalType": "bytes",
          "name": "",
          "type": "bytes"
        },
        {
          "internalType": "uint64",
          "name": "",
          "type": "uint64"
        }
      ],
      "name": "failedMessages",
      "outputs": [
        {
          "internalType": "bytes32",
          "name": "",
          "type": "bytes32"
        }
      ],
      "stateMutability": "view",
      "type": "function"
    },
    {
      "inputs": [
        {
          "internalType": "uint16",
          "name": "_srcChainId",
          "type": "uint16"
        },
        {
          "internalType": "bytes",
          "name": "_srcAddress",
          "type": "bytes"
        }
      ],
      "name": "forceResumeReceive",
      "outputs": [],
      "stateMutability": "nonpayable",
      "type": "function"
    },
    {
      "inputs": [
        {
          "internalType": "uint16",
          "name": "_version",
          "type": "uint16"
        },
        {
          "internalType": "uint16",
          "name": "_chainId",
          "type": "uint16"
        },
        {
          "internalType": "address",
          "name": "",
          "type": "address"
        },
        {
          "internalType": "uint256",
          "name": "_configType",
          "type": "uint256"
        }
      ],
      "name": "getConfig",
      "outputs": [
        {
          "internalType": "bytes",
          "name": "",
          "type": "bytes"
        }
      ],
      "stateMutability": "view",
      "type": "function"
    },
    {
      "inputs": [
        {
          "internalType": "uint16",
          "name": "remoteChainId",
          "type": "uint16"
        }
      ],
      "name": "getOracle",
      "outputs": [
        {
          "internalType": "address",
          "name": "_oracle",
          "type": "address"
        }
      ],
      "stateMutability": "view",
      "type": "function"
    },
    {
      "inputs": [
        {
          "internalType": "uint16",
          "name": "_remoteChainId",
          "type": "uint16"
        }
      ],
      "name": "getTrustedRemoteAddress",
      "outputs": [
        {
          "internalType": "bytes",
          "name": "",
          "type": "bytes"
        }
      ],
      "stateMutability": "view",
      "type": "function"
    },
    {
      "inputs": [
        {
          "internalType": "uint16",
          "name": "_dstChainId",
          "type": "uint16"
        }
      ],
      "name": "incrementCounter",
      "outputs": [],
      "stateMutability": "payable",
      "type": "function"
    },
    {
      "inputs": [
        {
          "internalType": "uint16",
          "name": "_srcChainId",
          "type": "uint16"
        },
        {
          "internalType": "bytes",
          "name": "_srcAddress",
          "type": "bytes"
        }
      ],
      "name": "isTrustedRemote",
      "outputs": [
        {
          "internalType": "bool",
          "name": "",
          "type": "bool"
        }
      ],
      "stateMutability": "view",
      "type": "function"
    },
    {
      "inputs": [],
      "name": "lzEndpoint",
      "outputs": [
        {
          "internalType": "contract ILayerZeroEndpoint",
          "name": "",
          "type": "address"
        }
      ],
      "stateMutability": "view",
      "type": "function"
    },
    {
      "inputs": [
        {
          "internalType": "uint16",
          "name": "_srcChainId",
          "type": "uint16"
        },
        {
          "internalType": "bytes",
          "name": "_srcAddress",
          "type": "bytes"
        },
        {
          "internalType": "uint64",
          "name": "_nonce",
          "type": "uint64"
        },
        {
          "internalType": "bytes",
          "name": "_payload",
          "type": "bytes"
        }
      ],
      "name": "lzReceive",
      "outputs": [],
      "stateMutability": "nonpayable",
      "type": "function"
    },
    {
      "inputs": [
        {
          "internalType": "uint16",
          "name": "",
          "type": "uint16"
        },
        {
          "internalType": "uint16",
          "name": "",
          "type": "uint16"
        }
      ],
      "name": "minDstGasLookup",
      "outputs": [
        {
          "internalType": "uint256",
          "name": "",
          "type": "uint256"
        }
      ],
      "stateMutability": "view",
      "type": "function"
    },
    {
      "inputs": [
        {
          "internalType": "uint16",
          "name": "_srcChainId",
          "type": "uint16"
        },
        {
          "internalType": "bytes",
          "name": "_srcAddress",
          "type": "bytes"
        },
        {
          "internalType": "uint64",
          "name": "_nonce",
          "type": "uint64"
        },
        {
          "internalType": "bytes",
          "name": "_payload",
          "type": "bytes"
        }
      ],
      "name": "nonblockingLzReceive",
      "outputs": [],
      "stateMutability": "nonpayable",
      "type": "function"
    },
    {
      "inputs": [],
      "name": "owner",
      "outputs": [
        {
          "internalType": "address",
          "name": "",
          "type": "address"
        }
      ],
      "stateMutability": "view",
      "type": "function"
    },
    {
      "inputs": [
        {
          "internalType": "uint16",
          "name": "",
          "type": "uint16"
        }
      ],
      "name": "payloadSizeLimitLookup",
      "outputs": [
        {
          "internalType": "uint256",
          "name": "",
          "type": "uint256"
        }
      ],
      "stateMutability": "view",
      "type": "function"
    },
    {
      "inputs": [],
      "name": "precrime",
      "outputs": [
        {
          "internalType": "address",
          "name": "",
          "type": "address"
        }
      ],
      "stateMutability": "view",
      "type": "function"
    },
    {
      "inputs": [],
      "name": "renounceOwnership",
      "outputs": [],
      "stateMutability": "nonpayable",
      "type": "function"
    },
    {
      "inputs": [
        {
          "internalType": "uint16",
          "name": "_srcChainId",
          "type": "uint16"
        },
        {
          "internalType": "bytes",
          "name": "_srcAddress",
          "type": "bytes"
        },
        {
          "internalType": "uint64",
          "name": "_nonce",
          "type": "uint64"
        },
        {
          "internalType": "bytes",
          "name": "_payload",
          "type": "bytes"
        }
      ],
      "name": "retryMessage",
      "outputs": [],
      "stateMutability": "payable",
      "type": "function"
    },
    {
      "inputs": [
        {
          "internalType": "uint16",
          "name": "_version",
          "type": "uint16"
        },
        {
          "internalType": "uint16",
          "name": "_chainId",
          "type": "uint16"
        },
        {
          "internalType": "uint256",
          "name": "_configType",
          "type": "uint256"
        },
        {
          "internalType": "bytes",
          "name": "_config",
          "type": "bytes"
        }
      ],
      "name": "setConfig",
      "outputs": [],
      "stateMutability": "nonpayable",
      "type": "function"
    },
    {
      "inputs": [
        {
          "internalType": "uint16",
          "name": "_dstChainId",
          "type": "uint16"
        },
        {
          "internalType": "uint16",
          "name": "_packetType",
          "type": "uint16"
        },
        {
          "internalType": "uint256",
          "name": "_minGas",
          "type": "uint256"
        }
      ],
      "name": "setMinDstGas",
      "outputs": [],
      "stateMutability": "nonpayable",
      "type": "function"
    },
    {
      "inputs": [
        {
          "internalType": "uint16",
          "name": "dstChainId",
          "type": "uint16"
        },
        {
          "internalType": "address",
          "name": "oracle",
          "type": "address"
        }
      ],
      "name": "setOracle",
      "outputs": [],
      "stateMutability": "nonpayable",
      "type": "function"
    },
    {
      "inputs": [
        {
          "internalType": "uint16",
          "name": "_dstChainId",
          "type": "uint16"
        },
        {
          "internalType": "uint256",
          "name": "_size",
          "type": "uint256"
        }
      ],
      "name": "setPayloadSizeLimit",
      "outputs": [],
      "stateMutability": "nonpayable",
      "type": "function"
    },
    {
      "inputs": [
        {
          "internalType": "address",
          "name": "_precrime",
          "type": "address"
        }
      ],
      "name": "setPrecrime",
      "outputs": [],
      "stateMutability": "nonpayable",
      "type": "function"
    },
    {
      "inputs": [
        {
          "internalType": "uint16",
          "name": "_version",
          "type": "uint16"
        }
      ],
      "name": "setReceiveVersion",
      "outputs": [],
      "stateMutability": "nonpayable",
      "type": "function"
    },
    {
      "inputs": [
        {
          "internalType": "uint16",
          "name": "_version",
          "type": "uint16"
        }
      ],
      "name": "setSendVersion",
      "outputs": [],
      "stateMutability": "nonpayable",
      "type": "function"
    },
    {
      "inputs": [
        {
          "internalType": "uint16",
          "name": "_remoteChainId",
          "type": "uint16"
        },
        {
          "internalType": "bytes",
          "name": "_path",
          "type": "bytes"
        }
      ],
      "name": "setTrustedRemote",
      "outputs": [],
      "stateMutability": "nonpayable",
      "type": "function"
    },
    {
      "inputs": [
        {
          "internalType": "uint16",
          "name": "_remoteChainId",
          "type": "uint16"
        },
        {
          "internalType": "bytes",
          "name": "_remoteAddress",
          "type": "bytes"
        }
      ],
      "name": "setTrustedRemoteAddress",
      "outputs": [],
      "stateMutability": "nonpayable",
      "type": "function"
    },
    {
      "inputs": [
        {
          "internalType": "address",
          "name": "newOwner",
          "type": "address"
        }
      ],
      "name": "transferOwnership",
      "outputs": [],
      "stateMutability": "nonpayable",
      "type": "function"
    },
    {
      "inputs": [
        {
          "internalType": "uint16",
          "name": "",
          "type": "uint16"
        }
      ],
      "name": "trustedRemoteLookup",
      "outputs": [
        {
          "internalType": "bytes",
          "name": "",
          "type": "bytes"
        }
      ],
      "stateMutability": "view",
      "type": "function"
    }
  ],
  "bytecode": "0x60a06040523480156200001157600080fd5b5060405162002736380380620027368339810160408190526200003491620000a6565b8080620000413362000056565b6001600160a01b031660805250620000d89050565b600080546001600160a01b038381166001600160a01b0319831681178455604051919092169283917f8be0079c531659141344cd1fd0a4f28419497f9722a3daafe3b4186f6b6457e09190a35050565b600060208284031215620000b957600080fd5b81516001600160a01b0381168114620000d157600080fd5b9392505050565b6080516125fc6200013a600039600081816104f70152818161065a015281816108a90152818161095101528181610a7301528181610afa01528181610fa601528181611267015281816113c3015281816115be01526118a901526125fc6000f3fe6080604052600436106101d75760003560e01c80638da5cb5b11610102578063cbed8b9c11610095578063e2f2882411610064578063e2f28824146105d7578063eb8d72b7146105f7578063f2fde38b14610617578063f5ecbdbc1461063757600080fd5b8063cbed8b9c1461054f578063d1deba1f1461056f578063d46fb18814610582578063df2a5b3b146105b757600080fd5b8063a6c3d165116100d1578063a6c3d165146104c5578063b353aaa7146104e5578063baf3292d14610519578063c44618341461053957600080fd5b80638da5cb5b14610440578063950c8a74146104725780639917565c146104925780639f38369a146104a557600080fd5b806342d65a8d1161017a57806366ad5c8a1161014957806366ad5c8a146103b3578063715018a6146103d35780637533d788146103e85780638cfd8f5c1461040857600080fd5b806342d65a8d1461030e578063492e527e1461032e5780635b8c41e61461034e57806361bc221a1461039d57600080fd5b806310ddb137116101b657806310ddb1371461023e578063268e878d1461025e5780633d8b38f6146102a35780633f1f4fa4146102d357600080fd5b80621d3567146101dc57806307e0db17146101fe5780630df374831461021e575b600080fd5b3480156101e857600080fd5b506101fc6101f7366004611d4d565b610657565b005b34801561020a57600080fd5b506101fc610219366004611de2565b610888565b34801561022a57600080fd5b506101fc610239366004611dff565b610911565b34801561024a57600080fd5b506101fc610259366004611de2565b610930565b34801561026a57600080fd5b5061028d604051806040016040528060048152602001624080c160e21b81525081565b60405161029a9190611e87565b60405180910390f35b3480156102af57600080fd5b506102c36102be366004611e9a565b610988565b604051901515815260200161029a565b3480156102df57600080fd5b506103006102ee366004611de2565b60036020526000908152604090205481565b60405190815260200161029a565b34801561031a57600080fd5b506101fc610329366004611e9a565b610a54565b34801561033a57600080fd5b506101fc610349366004611f05565b610ada565b34801561035a57600080fd5b50610300610369366004611fa7565b6005602090815260009384526040808520845180860184018051928152908401958401959095209452929052825290205481565b3480156103a957600080fd5b5061030060065481565b3480156103bf57600080fd5b506101fc6103ce366004611d4d565b610bbb565b3480156103df57600080fd5b506101fc610c97565b3480156103f457600080fd5b5061028d610403366004611de2565b610cab565b34801561041457600080fd5b50610300610423366004612049565b600260209081526000928352604080842090915290825290205481565b34801561044c57600080fd5b506000546001600160a01b03165b6040516001600160a01b03909116815260200161029a565b34801561047e57600080fd5b5060045461045a906001600160a01b031681565b6101fc6104a0366004611de2565b610d45565b3480156104b157600080fd5b5061028d6104c0366004611de2565b610d81565b3480156104d157600080fd5b506101fc6104e0366004611e9a565b610e98565b3480156104f157600080fd5b5061045a7f000000000000000000000000000000000000000000000000000000000000000081565b34801561052557600080fd5b506101fc610534366004612082565b610f2b565b34801561054557600080fd5b5061030061271081565b34801561055b57600080fd5b506101fc61056a36600461209d565b610f87565b6101fc61057d366004611d4d565b61101c565b34801561058e57600080fd5b506105a261059d36600461210f565b611232565b6040805192835260208301919091520161029a565b3480156105c357600080fd5b506101fc6105d2366004612178565b6112ef565b3480156105e357600080fd5b5061045a6105f2366004611de2565b6113a1565b34801561060357600080fd5b506101fc610612366004611e9a565b6114bd565b34801561062357600080fd5b506101fc610632366004612082565b611517565b34801561064357600080fd5b5061028d6106523660046121b9565b61158d565b337f00000000000000000000000000000000000000000000000000000000000000006001600160a01b0316146106d45760405162461bcd60e51b815260206004820152601e60248201527f4c7a4170703a20696e76616c696420656e64706f696e742063616c6c6572000060448201526064015b60405180910390fd5b61ffff8616600090815260016020526040812080546106f290612208565b80601f016020809104026020016040519081016040528092919081815260200182805461071e90612208565b801561076b5780601f106107405761010080835404028352916020019161076b565b820191906000526020600020905b81548152906001019060200180831161074e57829003601f168201915b50505050509050805186869050148015610786575060008151115b80156107ae5750805160208201206040516107a49088908890612243565b6040518091039020145b6108095760405162461bcd60e51b815260206004820152602660248201527f4c7a4170703a20696e76616c696420736f757263652073656e64696e6720636f6044820152651b9d1c9858dd60d21b60648201526084016106cb565b61087f8787878080601f01602080910402602001604051908101604052809392919081815260200183838082843760009201919091525050604080516020601f8a018190048102820181019092528881528a93509150889088908190840183828082843760009201919091525061163e92505050565b50505050505050565b6108906116b7565b6040516307e0db1760e01b815261ffff821660048201527f00000000000000000000000000000000000000000000000000000000000000006001600160a01b0316906307e0db17906024015b600060405180830381600087803b1580156108f657600080fd5b505af115801561090a573d6000803e3d6000fd5b5050505050565b6109196116b7565b61ffff909116600090815260036020526040902055565b6109386116b7565b6040516310ddb13760e01b815261ffff821660048201527f00000000000000000000000000000000000000000000000000000000000000006001600160a01b0316906310ddb137906024016108dc565b61ffff8316600090815260016020526040812080548291906109a990612208565b80601f01602080910402602001604051908101604052809291908181526020018280546109d590612208565b8015610a225780601f106109f757610100808354040283529160200191610a22565b820191906000526020600020905b815481529060010190602001808311610a0557829003601f168201915b505050505090508383604051610a39929190612243565b60405180910390208180519060200120149150509392505050565b610a5c6116b7565b6040516342d65a8d60e01b81526001600160a01b037f000000000000000000000000000000000000000000000000000000000000000016906342d65a8d90610aac9086908690869060040161227c565b600060405180830381600087803b158015610ac657600080fd5b505af115801561087f573d6000803e3d6000fd5b610ae26116b7565b6040516304b2b47b60e11b81523060048201526006907f00000000000000000000000000000000000000000000000000000000000000006001600160a01b03169063cbed8b9c90829063096568f690602401602060405180830381865afa158015610b51573d6000803e3d6000fd5b505050506040513d601f19601f82011682018060405250810190610b75919061229a565b604080516001600160a01b038716602082015287918691016040516020818303038152906040526040518563ffffffff1660e01b8152600401610aac94939291906122b7565b333014610c195760405162461bcd60e51b815260206004820152602660248201527f4e6f6e626c6f636b696e674c7a4170703a2063616c6c6572206d7573742062656044820152650204c7a4170760d41b60648201526084016106cb565b610c8f8686868080601f01602080910402602001604051908101604052809392919081815260200183838082843760009201919091525050604080516020601f89018190048102820181019092528781528993509150879087908190840183828082843760009201919091525061171192505050565b505050505050565b610c9f6116b7565b610ca9600061172f565b565b60016020526000908152604090208054610cc490612208565b80601f0160208091040260200160405190810160405280929190818152602001828054610cf090612208565b8015610d3d5780601f10610d1257610100808354040283529160200191610d3d565b820191906000526020600020905b815481529060010190602001808311610d2057829003601f168201915b505050505081565b610d7e81604051806040016040528060048152602001624080c160e21b815250336000604051806020016040528060008152503461177f565b50565b61ffff8116600090815260016020526040812080546060929190610da490612208565b80601f0160208091040260200160405190810160405280929190818152602001828054610dd090612208565b8015610e1d5780601f10610df257610100808354040283529160200191610e1d565b820191906000526020600020905b815481529060010190602001808311610e0057829003601f168201915b50505050509050805160001415610e765760405162461bcd60e51b815260206004820152601d60248201527f4c7a4170703a206e6f20747275737465642070617468207265636f726400000060448201526064016106cb565b610e91600060148351610e899190612304565b839190611925565b9392505050565b610ea06116b7565b818130604051602001610eb59392919061231b565b60408051601f1981840301815291815261ffff85166000908152600160209081529190208251610eea93919290910190611bcc565b507f8c0400cfe2d1199b1a725c78960bcc2a344d869b80590d0f2bd005db15a572ce838383604051610f1e9392919061227c565b60405180910390a1505050565b610f336116b7565b600480546001600160a01b0319166001600160a01b0383169081179091556040519081527f5db758e995a17ec1ad84bdef7e8c3293a0bd6179bcce400dff5d4c3d87db726b9060200160405180910390a150565b610f8f6116b7565b6040516332fb62e760e21b81526001600160a01b037f0000000000000000000000000000000000000000000000000000000000000000169063cbed8b9c90610fe39088908890889088908890600401612341565b600060405180830381600087803b158015610ffd57600080fd5b505af1158015611011573d6000803e3d6000fd5b505050505050505050565b61ffff8616600090815260056020526040808220905161103f9088908890612243565b90815260408051602092819003830190206001600160401b038716600090815292529020549050806110bf5760405162461bcd60e51b815260206004820152602360248201527f4e6f6e626c6f636b696e674c7a4170703a206e6f2073746f726564206d65737360448201526261676560e81b60648201526084016106cb565b8083836040516110d0929190612243565b60405180910390201461112f5760405162461bcd60e51b815260206004820152602160248201527f4e6f6e626c6f636b696e674c7a4170703a20696e76616c6964207061796c6f616044820152601960fa1b60648201526084016106cb565b61ffff871660009081526005602052604080822090516111529089908990612243565b90815260408051602092819003830181206001600160401b038916600090815290845282902093909355601f880182900482028301820190528682526111ea918991899089908190840183828082843760009201919091525050604080516020601f8a018190048102820181019092528881528a93509150889088908190840183828082843760009201919091525061171192505050565b7fc264d91f3adc5588250e1551f547752ca0cfa8f6b530d243b9f9f4cab10ea8e5878787878560405161122195949392919061237a565b60405180910390a150505050505050565b6040805180820182526004808252624080c160e21b6020830152915163040a7bb160e41b815260009283926001600160a01b037f000000000000000000000000000000000000000000000000000000000000000016926340a7bb10926112a2928b9230928c918c918c91016123b5565b6040805180830381865afa1580156112be573d6000803e3d6000fd5b505050506040513d601f19601f820116820180604052508101906112e2919061240b565b9150915094509492505050565b6112f76116b7565b6000811161133f5760405162461bcd60e51b81526020600482015260156024820152744c7a4170703a20696e76616c6964206d696e47617360581b60448201526064016106cb565b61ffff83811660008181526002602090815260408083209487168084529482529182902085905581519283528201929092529081018290527f9d5c7c0b934da8fefa9c7760c98383778a12dfbfc0c3b3106518f43fb9508ac090606001610f1e565b6040516304b2b47b60e11b815230600482015260009081906001600160a01b037f0000000000000000000000000000000000000000000000000000000000000000169063f5ecbdbc90829063096568f690602401602060405180830381865afa158015611412573d6000803e3d6000fd5b505050506040513d601f19601f82011682018060405250810190611436919061229a565b6040516001600160e01b031960e084901b16815261ffff9182166004820152908616602482015230604482015260066064820152608401600060405180830381865afa15801561148a573d6000803e3d6000fd5b505050506040513d6000823e601f3d908101601f191682016040526114b2919081019061242f565b602001519392505050565b6114c56116b7565b61ffff831660009081526001602052604090206114e3908383611c50565b507ffa41487ad5d6728f0b19276fa1eddc16558578f5109fc39d2dc33c3230470dab838383604051610f1e9392919061227c565b61151f6116b7565b6001600160a01b0381166115845760405162461bcd60e51b815260206004820152602660248201527f4f776e61626c653a206e6577206f776e657220697320746865207a65726f206160448201526564647265737360d01b60648201526084016106cb565b610d7e8161172f565b604051633d7b2f6f60e21b815261ffff808616600483015284166024820152306044820152606481018290526060907f00000000000000000000000000000000000000000000000000000000000000006001600160a01b03169063f5ecbdbc90608401600060405180830381865afa15801561160d573d6000803e3d6000fd5b505050506040513d6000823e601f3d908101601f19168201604052611635919081019061242f565b95945050505050565b6000806116a15a60966366ad5c8a60e01b89898989604051602401611666949392919061249c565b60408051601f198184030181529190526020810180516001600160e01b03166001600160e01b03199093169290921790915230929190611a32565b9150915081610c8f57610c8f8686868685611abc565b6000546001600160a01b03163314610ca95760405162461bcd60e51b815260206004820181905260248201527f4f776e61626c653a2063616c6c6572206973206e6f7420746865206f776e657260448201526064016106cb565b60016006600082825461172491906124da565b909155505050505050565b600080546001600160a01b038381166001600160a01b0319831681178455604051919092169283917f8be0079c531659141344cd1fd0a4f28419497f9722a3daafe3b4186f6b6457e09190a35050565b61ffff86166000908152600160205260408120805461179d90612208565b80601f01602080910402602001604051908101604052809291908181526020018280546117c990612208565b80156118165780601f106117eb57610100808354040283529160200191611816565b820191906000526020600020905b8154815290600101906020018083116117f957829003601f168201915b505050505090508051600014156118885760405162461bcd60e51b815260206004820152603060248201527f4c7a4170703a2064657374696e6174696f6e20636861696e206973206e6f742060448201526f61207472757374656420736f7572636560801b60648201526084016106cb565b611893878751611b59565b60405162c5803160e81b81526001600160a01b037f0000000000000000000000000000000000000000000000000000000000000000169063c58031009084906118ea908b9086908c908c908c908c906004016124f2565b6000604051808303818588803b15801561190357600080fd5b505af1158015611917573d6000803e3d6000fd5b505050505050505050505050565b60608161193381601f6124da565b10156119725760405162461bcd60e51b815260206004820152600e60248201526d736c6963655f6f766572666c6f7760901b60448201526064016106cb565b61197c82846124da565b845110156119c05760405162461bcd60e51b8152602060048201526011602482015270736c6963655f6f75744f66426f756e647360781b60448201526064016106cb565b6060821580156119df5760405191506000825260208201604052611a29565b6040519150601f8416801560200281840101858101878315602002848b0101015b81831015611a18578051835260209283019201611a00565b5050858452601f01601f1916604052505b50949350505050565b6000606060008060008661ffff166001600160401b03811115611a5757611a57611f3a565b6040519080825280601f01601f191660200182016040528015611a81576020820181803683370190505b50905060008087516020890160008d8df191503d925086831115611aa3578692505b828152826000602083013e909890975095505050505050565b8180519060200120600560008761ffff1661ffff16815260200190815260200160002085604051611aed919061254c565b9081526040805191829003602090810183206001600160401b0388166000908152915220919091557fe183f33de2837795525b4792ca4cd60535bd77c53b7e7030060bfcf5734d6b0c90611b4a9087908790879087908790612568565b60405180910390a15050505050565b61ffff821660009081526003602052604090205480611b7757506127105b80821115611bc75760405162461bcd60e51b815260206004820181905260248201527f4c7a4170703a207061796c6f61642073697a6520697320746f6f206c6172676560448201526064016106cb565b505050565b828054611bd890612208565b90600052602060002090601f016020900481019282611bfa5760008555611c40565b82601f10611c1357805160ff1916838001178555611c40565b82800160010185558215611c40579182015b82811115611c40578251825591602001919060010190611c25565b50611c4c929150611cc4565b5090565b828054611c5c90612208565b90600052602060002090601f016020900481019282611c7e5760008555611c40565b82601f10611c975782800160ff19823516178555611c40565b82800160010185558215611c40579182015b82811115611c40578235825591602001919060010190611ca9565b5b80821115611c4c5760008155600101611cc5565b61ffff81168114610d7e57600080fd5b60008083601f840112611cfb57600080fd5b5081356001600160401b03811115611d1257600080fd5b602083019150836020828501011115611d2a57600080fd5b9250929050565b80356001600160401b0381168114611d4857600080fd5b919050565b60008060008060008060808789031215611d6657600080fd5b8635611d7181611cd9565b955060208701356001600160401b0380821115611d8d57600080fd5b611d998a838b01611ce9565b9097509550859150611dad60408a01611d31565b94506060890135915080821115611dc357600080fd5b50611dd089828a01611ce9565b979a9699509497509295939492505050565b600060208284031215611df457600080fd5b8135610e9181611cd9565b60008060408385031215611e1257600080fd5b8235611e1d81611cd9565b946020939093013593505050565b60005b83811015611e46578181015183820152602001611e2e565b83811115611e55576000848401525b50505050565b60008151808452611e73816020860160208601611e2b565b601f01601f19169290920160200192915050565b602081526000610e916020830184611e5b565b600080600060408486031215611eaf57600080fd5b8335611eba81611cd9565b925060208401356001600160401b03811115611ed557600080fd5b611ee186828701611ce9565b9497909650939450505050565b80356001600160a01b0381168114611d4857600080fd5b60008060408385031215611f1857600080fd5b8235611f2381611cd9565b9150611f3160208401611eee565b90509250929050565b634e487b7160e01b600052604160045260246000fd5b604051601f8201601f191681016001600160401b0381118282101715611f7857611f78611f3a565b604052919050565b60006001600160401b03821115611f9957611f99611f3a565b50601f01601f191660200190565b600080600060608486031215611fbc57600080fd5b8335611fc781611cd9565b925060208401356001600160401b03811115611fe257600080fd5b8401601f81018613611ff357600080fd5b803561200661200182611f80565b611f50565b81815287602083850101111561201b57600080fd5b8160208401602083013760006020838301015280945050505061204060408501611d31565b90509250925092565b6000806040838503121561205c57600080fd5b823561206781611cd9565b9150602083013561207781611cd9565b809150509250929050565b60006020828403121561209457600080fd5b610e9182611eee565b6000806000806000608086880312156120b557600080fd5b85356120c081611cd9565b945060208601356120d081611cd9565b93506040860135925060608601356001600160401b038111156120f257600080fd5b6120fe88828901611ce9565b969995985093965092949392505050565b6000806000806060858703121561212557600080fd5b843561213081611cd9565b93506020850135801515811461214557600080fd5b925060408501356001600160401b0381111561216057600080fd5b61216c87828801611ce9565b95989497509550505050565b60008060006060848603121561218d57600080fd5b833561219881611cd9565b925060208401356121a881611cd9565b929592945050506040919091013590565b600080600080608085870312156121cf57600080fd5b84356121da81611cd9565b935060208501356121ea81611cd9565b92506121f860408601611eee565b9396929550929360600135925050565b600181811c9082168061221c57607f821691505b6020821081141561223d57634e487b7160e01b600052602260045260246000fd5b50919050565b8183823760009101908152919050565b81835281816020850137506000828201602090810191909152601f909101601f19169091010190565b61ffff84168152604060208201526000611635604083018486612253565b6000602082840312156122ac57600080fd5b8151610e9181611cd9565b600061ffff8087168352808616602084015250836040830152608060608301526122e46080830184611e5b565b9695505050505050565b634e487b7160e01b600052601160045260246000fd5b600082821015612316576123166122ee565b500390565b8284823760609190911b6bffffffffffffffffffffffff19169101908152601401919050565b600061ffff80881683528087166020840152508460408301526080606083015261236f608083018486612253565b979650505050505050565b61ffff86168152608060208201526000612398608083018688612253565b6001600160401b0394909416604083015250606001529392505050565b61ffff871681526001600160a01b038616602082015260a0604082018190526000906123e390830187611e5b565b851515606084015282810360808401526123fe818587612253565b9998505050505050505050565b6000806040838503121561241e57600080fd5b505080516020909101519092909150565b60006020828403121561244157600080fd5b81516001600160401b0381111561245757600080fd5b8201601f8101841361246857600080fd5b805161247661200182611f80565b81815285602083850101111561248b57600080fd5b611635826020830160208601611e2b565b61ffff851681526080602082015260006124b96080830186611e5b565b6001600160401b0385166040840152828103606084015261236f8185611e5b565b600082198211156124ed576124ed6122ee565b500190565b61ffff8716815260c06020820152600061250f60c0830188611e5b565b82810360408401526125218188611e5b565b6001600160a01b0387811660608601528616608085015283810360a085015290506123fe8185611e5b565b6000825161255e818460208701611e2b565b9190910192915050565b61ffff8616815260a06020820152600061258560a0830187611e5b565b6001600160401b038616604084015282810360608401526125a68186611e5b565b905082810360808401526125ba8185611e5b565b9897505050505050505056fea26469706673582212202442e5d7e8b19b0538d677925a45c0f42221cf54cc28ec08c3b285f40973214f64736f6c634300080c0033",
  "linkReferences": {},
  "deployedLinkReferences": {}
}