{
  "_format": "hh-sol-artifact-1",
  "contractName": "RouterETH",
  "sourceName": "contracts/RouterETH.sol",
  "abi": [
    {
      "inputs": [
        {
          "internalType": "address",
          "name": "_stargateEthVault",
          "type": "address"
        },
        {
          "internalType": "address",
          "name": "_stargateRouter",
          "type": "address"
        },
        {
          "internalType": "uint16",
          "name": "_poolId",
          "type": "uint16"
        }
      ],
      "stateMutability": "nonpayable",
      "type": "constructor"
    },
    {
      "inputs": [],
      "name": "addLiquidityETH",
      "outputs": [],
      "stateMutability": "payable",
      "type": "function"
    },
    {
      "inputs": [],
      "name": "poolId",
      "outputs": [
        {
          "internalType": "uint16",
          "name": "",
          "type": "uint16"
        }
      ],
      "stateMutability": "view",
      "type": "function"
    },
    {
      "inputs": [],
      "name": "stargateEthVault",
      "outputs": [
        {
          "internalType": "address",
          "name": "",
          "type": "address"
        }
      ],
      "stateMutability": "view",
      "type": "function"
    },
    {
      "inputs": [],
      "name": "stargateRouter",
      "outputs": [
        {
          "internalType": "contract IStargateRouter",
          "name": "",
          "type": "address"
        }
      ],
      "stateMutability": "view",
      "type": "function"
    },
    {
      "inputs": [
        {
          "internalType": "uint16",
          "name": "_dstChainId",
          "type": "uint16"
        },
        {
          "internalType": "address payable",
          "name": "_refundAddress",
          "type": "address"
        },
        {
          "internalType": "bytes",
          "name": "_toAddress",
          "type": "bytes"
        },
        {
          "internalType": "uint256",
          "name": "_amountLD",
          "type": "uint256"
        },
        {
          "internalType": "uint256",
          "name": "_minAmountLD",
          "type": "uint256"
        }
      ],
      "name": "swapETH",
      "outputs": [],
      "stateMutability": "payable",
      "type": "function"
    },
    {
      "stateMutability": "payable",
      "type": "receive"
    }
  ],
  "bytecode": "0x60e060405234801561001057600080fd5b50604051610c71380380610c7183398101604081905261002f916100d1565b6001600160a01b03831661005e5760405162461bcd60e51b81526004016100559061011d565b60405180910390fd5b6001600160a01b0382166100845760405162461bcd60e51b815260040161005590610165565b606092831b6001600160601b03199081166080529190921b1660a05260f01b6001600160f01b03191660c0526101ab565b80516001600160a01b03811681146100cc57600080fd5b919050565b6000806000606084860312156100e5578283fd5b6100ee846100b5565b92506100fc602085016100b5565b9150604084015161ffff81168114610112578182fd5b809150509250925092565b60208082526028908201527f526f757465724554483a205f73746172676174654574685661756c742063616e604082015267074206265203078360c41b606082015260800190565b60208082526026908201527f526f757465724554483a205f7374617267617465526f757465722063616e742060408201526506265203078360d41b606082015260800190565b60805160601c60a05160601c60c05160f01c610a5a610217600039806102da52806102fb5280610407528061065e525080610216528061029c528061042b5280610577528061063152508061012d52806101e652806103e3528061048e52806105475250610a5a6000f3fe60806040526004361061005e5760003560e01c80633e0dc34e116100435780633e0dc34e146100aa578063a9e56f3c146100cc578063ed995307146100e157610065565b80631114cd2a1461006a57806338e31d391461007f57610065565b3661006557005b600080fd5b61007d6100783660046106e6565b6100e9565b005b34801561008b57600080fd5b506100946103e1565b6040516100a19190610854565b60405180910390f35b3480156100b657600080fd5b506100bf610405565b6040516100a1919061092f565b3480156100d857600080fd5b50610094610429565b61007d61044d565b81341161012b576040517f08c379a0000000000000000000000000000000000000000000000000000000008152600401610122906108d2565b60405180910390fd5b7f000000000000000000000000000000000000000000000000000000000000000073ffffffffffffffffffffffffffffffffffffffff1663d0e30db0836040518263ffffffff1660e01b81526004016000604051808303818588803b15801561019357600080fd5b505af11580156101a7573d6000803e3d6000fd5b50506040517f095ea7b300000000000000000000000000000000000000000000000000000000815273ffffffffffffffffffffffffffffffffffffffff7f000000000000000000000000000000000000000000000000000000000000000016935063095ea7b3925061024091507f0000000000000000000000000000000000000000000000000000000000000000908690600401610875565b602060405180830381600087803b15801561025a57600080fd5b505af115801561026e573d6000803e3d6000fd5b505050506040513d601f19601f8201168201806040525081019061029291906106bf565b50600082340390507f000000000000000000000000000000000000000000000000000000000000000073ffffffffffffffffffffffffffffffffffffffff16639fbf10fc82897f00000000000000000000000000000000000000000000000000000000000000007f00000000000000000000000000000000000000000000000000000000000000008b8989604051806060016040528060008152602001600081526020016040518060400160405280600281526020017f30780000000000000000000000000000000000000000000000000000000000008152508152508e8e604051806020016040528060008152506040518c63ffffffff1660e01b81526004016103a69a9998979695949392919061093e565b6000604051808303818588803b1580156103bf57600080fd5b505af11580156103d3573d6000803e3d6000fd5b505050505050505050505050565b7f000000000000000000000000000000000000000000000000000000000000000081565b7f000000000000000000000000000000000000000000000000000000000000000081565b7f000000000000000000000000000000000000000000000000000000000000000081565b60003411610487576040517f08c379a00000000000000000000000000000000000000000000000000000000081526004016101229061089b565b60003490507f000000000000000000000000000000000000000000000000000000000000000073ffffffffffffffffffffffffffffffffffffffff1663d0e30db0826040518263ffffffff1660e01b81526004016000604051808303818588803b1580156104f457600080fd5b505af1158015610508573d6000803e3d6000fd5b50506040517f095ea7b300000000000000000000000000000000000000000000000000000000815273ffffffffffffffffffffffffffffffffffffffff7f000000000000000000000000000000000000000000000000000000000000000016935063095ea7b392506105a191507f0000000000000000000000000000000000000000000000000000000000000000908590600401610875565b602060405180830381600087803b1580156105bb57600080fd5b505af11580156105cf573d6000803e3d6000fd5b505050506040513d601f19601f820116820180604052508101906105f391906106bf565b506040517f87b21efc00000000000000000000000000000000000000000000000000000000815273ffffffffffffffffffffffffffffffffffffffff7f000000000000000000000000000000000000000000000000000000000000000016906387b21efc9061068a907f000000000000000000000000000000000000000000000000000000000000000090859033906004016109f2565b600060405180830381600087803b1580156106a457600080fd5b505af11580156106b8573d6000803e3d6000fd5b5050505050565b6000602082840312156106d0578081fd5b815180151581146106df578182fd5b9392505050565b60008060008060008060a087890312156106fe578182fd5b863561ffff8116811461070f578283fd5b9550602087013573ffffffffffffffffffffffffffffffffffffffff81168114610737578283fd5b9450604087013567ffffffffffffffff80821115610753578384fd5b818901915089601f830112610766578384fd5b813581811115610774578485fd5b8a6020828501011115610785578485fd5b979a9699505060200196606081013595608090910135945092505050565b600082845282826020860137806020848601015260207fffffffffffffffffffffffffffffffffffffffffffffffffffffffffffffffe0601f85011685010190509392505050565b60008151808452815b81811015610810576020818501810151868301820152016107f4565b818111156108215782602083870101525b50601f017fffffffffffffffffffffffffffffffffffffffffffffffffffffffffffffffe0169290920160200192915050565b73ffffffffffffffffffffffffffffffffffffffff91909116815260200190565b73ffffffffffffffffffffffffffffffffffffffff929092168252602082015260400190565b60208082526018908201527f53746172676174653a206d73672e76616c756520697320300000000000000000604082015260600190565b60208082526027908201527f53746172676174653a206d73672e76616c7565206d757374206265203e205f6160408201527f6d6f756e744c4400000000000000000000000000000000000000000000000000606082015260800190565b61ffff91909116815260200190565b600061012061ffff808e168452808d166020850152808c1660408501525073ffffffffffffffffffffffffffffffffffffffff8a1660608401528860808401528760a08401528060c0840152865181840152506020860151610140830152604086015160606101608401526109b76101808401826107eb565b905082810360e08401526109cc8186886107a3565b90508281036101008401526109e181856107eb565b9d9c50505050505050505050505050565b61ffff939093168352602083019190915273ffffffffffffffffffffffffffffffffffffffff1660408201526060019056fea26469706673582212202a0f157fa4ca51cf7e52a482eda2b02b7ac2a0d4239cdf3bdba402673fa9febc64736f6c63430007060033",
  "linkReferences": {},
  "deployedLinkReferences": {}
}