{
  "_format": "hh-sol-artifact-1",
  "contractName": "PoolView",
  "sourceName": "contracts/precrime/stargate/PoolView.sol",
  "abi": [
    {
      "inputs": [
        {
          "components": [
            {
              "internalType": "uint16",
              "name": "dstChainId",
              "type": "uint16"
            },
            {
              "internalType": "uint256",
              "name": "dstPoolId",
              "type": "uint256"
            },
            {
              "internalType": "uint256",
              "name": "balance",
              "type": "uint256"
            },
            {
              "internalType": "uint256",
              "name": "lkb",
              "type": "uint256"
            },
            {
              "internalType": "uint256",
              "name": "credits",
              "type": "uint256"
            },
            {
              "internalType": "uint256",
              "name": "idealBalance",
              "type": "uint256"
            },
            {
              "internalType": "bool",
              "name": "needPrecrime",
              "type": "bool"
            }
          ],
          "internalType": "struct PoolView.ChainPathState",
          "name": "_cp",
          "type": "tuple"
        },
        {
          "components": [
            {
              "internalType": "uint256",
              "name": "credits",
              "type": "uint256"
            },
            {
              "internalType": "uint256",
              "name": "idealBalance",
              "type": "uint256"
            }
          ],
          "internalType": "struct Pool.CreditObj",
          "name": "_c",
          "type": "tuple"
        }
      ],
      "name": "creditChainPath",
      "outputs": [
        {
          "components": [
            {
              "internalType": "uint16",
              "name": "dstChainId",
              "type": "uint16"
            },
            {
              "internalType": "uint256",
              "name": "dstPoolId",
              "type": "uint256"
            },
            {
              "internalType": "uint256",
              "name": "balance",
              "type": "uint256"
            },
            {
              "internalType": "uint256",
              "name": "lkb",
              "type": "uint256"
            },
            {
              "internalType": "uint256",
              "name": "credits",
              "type": "uint256"
            },
            {
              "internalType": "uint256",
              "name": "idealBalance",
              "type": "uint256"
            },
            {
              "internalType": "bool",
              "name": "needPrecrime",
              "type": "bool"
            }
          ],
          "internalType": "struct PoolView.ChainPathState",
          "name": "",
          "type": "tuple"
        }
      ],
      "stateMutability": "pure",
      "type": "function"
    },
    {
      "inputs": [
        {
          "internalType": "contract Pool",
          "name": "_pool",
          "type": "address"
        }
      ],
      "name": "getPoolState",
      "outputs": [
        {
          "components": [
            {
              "internalType": "uint256",
              "name": "poolId",
              "type": "uint256"
            },
            {
              "components": [
                {
                  "internalType": "uint16",
                  "name": "dstChainId",
                  "type": "uint16"
                },
                {
                  "internalType": "uint256",
                  "name": "dstPoolId",
                  "type": "uint256"
                },
                {
                  "internalType": "uint256",
                  "name": "balance",
                  "type": "uint256"
                },
                {
                  "internalType": "uint256",
                  "name": "lkb",
                  "type": "uint256"
                },
                {
                  "internalType": "uint256",
                  "name": "credits",
                  "type": "uint256"
                },
                {
                  "internalType": "uint256",
                  "name": "idealBalance",
                  "type": "uint256"
                },
                {
                  "internalType": "bool",
                  "name": "needPrecrime",
                  "type": "bool"
                }
              ],
              "internalType": "struct PoolView.ChainPathState[]",
              "name": "chainPaths",
              "type": "tuple[]"
            },
            {
              "components": [
                {
                  "internalType": "uint256",
                  "name": "totalLiquidity",
                  "type": "uint256"
                },
                {
                  "internalType": "uint256",
                  "name": "protocolFeeBalance",
                  "type": "uint256"
                },
                {
                  "internalType": "uint256",
                  "name": "mintFeeBalance",
                  "type": "uint256"
                },
                {
                  "internalType": "uint256",
                  "name": "eqFeePool",
                  "type": "uint256"
                },
                {
                  "internalType": "uint256",
                  "name": "deltaCredit",
                  "type": "uint256"
                },
                {
                  "internalType": "uint256",
                  "name": "tokenBalance",
                  "type": "uint256"
                }
              ],
              "internalType": "struct PoolView.PoolBalance",
              "name": "balance",
              "type": "tuple"
            }
          ],
          "internalType": "struct PoolView.PoolState",
          "name": "",
          "type": "tuple"
        }
      ],
      "stateMutability": "view",
      "type": "function"
    },
    {
      "inputs": [
        {
          "components": [
            {
              "internalType": "uint256",
              "name": "totalLiquidity",
              "type": "uint256"
            },
            {
              "internalType": "uint256",
              "name": "protocolFeeBalance",
              "type": "uint256"
            },
            {
              "internalType": "uint256",
              "name": "mintFeeBalance",
              "type": "uint256"
            },
            {
              "internalType": "uint256",
              "name": "eqFeePool",
              "type": "uint256"
            },
            {
              "internalType": "uint256",
              "name": "deltaCredit",
              "type": "uint256"
            },
            {
              "internalType": "uint256",
              "name": "tokenBalance",
              "type": "uint256"
            }
          ],
          "internalType": "struct PoolView.PoolBalance",
          "name": "_pb",
          "type": "tuple"
        },
        {
          "components": [
            {
              "internalType": "uint16",
              "name": "dstChainId",
              "type": "uint16"
            },
            {
              "internalType": "uint256",
              "name": "dstPoolId",
              "type": "uint256"
            },
            {
              "internalType": "uint256",
              "name": "balance",
              "type": "uint256"
            },
            {
              "internalType": "uint256",
              "name": "lkb",
              "type": "uint256"
            },
            {
              "internalType": "uint256",
              "name": "credits",
              "type": "uint256"
            },
            {
              "internalType": "uint256",
              "name": "idealBalance",
              "type": "uint256"
            },
            {
              "internalType": "bool",
              "name": "needPrecrime",
              "type": "bool"
            }
          ],
          "internalType": "struct PoolView.ChainPathState",
          "name": "_cp",
          "type": "tuple"
        },
        {
          "internalType": "uint256",
          "name": "_amountSD",
          "type": "uint256"
        },
        {
          "internalType": "uint256",
          "name": "_amountToMintSD",
          "type": "uint256"
        }
      ],
      "name": "redeemLocalCallback",
      "outputs": [
        {
          "components": [
            {
              "internalType": "uint256",
              "name": "totalLiquidity",
              "type": "uint256"
            },
            {
              "internalType": "uint256",
              "name": "protocolFeeBalance",
              "type": "uint256"
            },
            {
              "internalType": "uint256",
              "name": "mintFeeBalance",
              "type": "uint256"
            },
            {
              "internalType": "uint256",
              "name": "eqFeePool",
              "type": "uint256"
            },
            {
              "internalType": "uint256",
              "name": "deltaCredit",
              "type": "uint256"
            },
            {
              "internalType": "uint256",
              "name": "tokenBalance",
              "type": "uint256"
            }
          ],
          "internalType": "struct PoolView.PoolBalance",
          "name": "",
          "type": "tuple"
        },
        {
          "components": [
            {
              "internalType": "uint16",
              "name": "dstChainId",
              "type": "uint16"
            },
            {
              "internalType": "uint256",
              "name": "dstPoolId",
              "type": "uint256"
            },
            {
              "internalType": "uint256",
              "name": "balance",
              "type": "uint256"
            },
            {
              "internalType": "uint256",
              "name": "lkb",
              "type": "uint256"
            },
            {
              "internalType": "uint256",
              "name": "credits",
              "type": "uint256"
            },
            {
              "internalType": "uint256",
              "name": "idealBalance",
              "type": "uint256"
            },
            {
              "internalType": "bool",
              "name": "needPrecrime",
              "type": "bool"
            }
          ],
          "internalType": "struct PoolView.ChainPathState",
          "name": "",
          "type": "tuple"
        }
      ],
      "stateMutability": "pure",
      "type": "function"
    },
    {
      "inputs": [
        {
          "components": [
            {
              "internalType": "uint16",
              "name": "dstChainId",
              "type": "uint16"
            },
            {
              "internalType": "uint256",
              "name": "dstPoolId",
              "type": "uint256"
            },
            {
              "internalType": "uint256",
              "name": "balance",
              "type": "uint256"
            },
            {
              "internalType": "uint256",
              "name": "lkb",
              "type": "uint256"
            },
            {
              "internalType": "uint256",
              "name": "credits",
              "type": "uint256"
            },
            {
              "internalType": "uint256",
              "name": "idealBalance",
              "type": "uint256"
            },
            {
              "internalType": "bool",
              "name": "needPrecrime",
              "type": "bool"
            }
          ],
          "internalType": "struct PoolView.ChainPathState",
          "name": "_cp",
          "type": "tuple"
        },
        {
          "internalType": "uint256",
          "name": "_amountSD",
          "type": "uint256"
        }
      ],
      "name": "redeemLocalCheckOnRemote",
      "outputs": [
        {
          "components": [
            {
              "internalType": "uint16",
              "name": "dstChainId",
              "type": "uint16"
            },
            {
              "internalType": "uint256",
              "name": "dstPoolId",
              "type": "uint256"
            },
            {
              "internalType": "uint256",
              "name": "balance",
              "type": "uint256"
            },
            {
              "internalType": "uint256",
              "name": "lkb",
              "type": "uint256"
            },
            {
              "internalType": "uint256",
              "name": "credits",
              "type": "uint256"
            },
            {
              "internalType": "uint256",
              "name": "idealBalance",
              "type": "uint256"
            },
            {
              "internalType": "bool",
              "name": "needPrecrime",
              "type": "bool"
            }
          ],
          "internalType": "struct PoolView.ChainPathState",
          "name": "",
          "type": "tuple"
        }
      ],
      "stateMutability": "pure",
      "type": "function"
    },
    {
      "inputs": [
        {
          "components": [
            {
              "internalType": "uint256",
              "name": "totalLiquidity",
              "type": "uint256"
            },
            {
              "internalType": "uint256",
              "name": "protocolFeeBalance",
              "type": "uint256"
            },
            {
              "internalType": "uint256",
              "name": "mintFeeBalance",
              "type": "uint256"
            },
            {
              "internalType": "uint256",
              "name": "eqFeePool",
              "type": "uint256"
            },
            {
              "internalType": "uint256",
              "name": "deltaCredit",
              "type": "uint256"
            },
            {
              "internalType": "uint256",
              "name": "tokenBalance",
              "type": "uint256"
            }
          ],
          "internalType": "struct PoolView.PoolBalance",
          "name": "_pb",
          "type": "tuple"
        },
        {
          "components": [
            {
              "internalType": "uint16",
              "name": "dstChainId",
              "type": "uint16"
            },
            {
              "internalType": "uint256",
              "name": "dstPoolId",
              "type": "uint256"
            },
            {
              "internalType": "uint256",
              "name": "balance",
              "type": "uint256"
            },
            {
              "internalType": "uint256",
              "name": "lkb",
              "type": "uint256"
            },
            {
              "internalType": "uint256",
              "name": "credits",
              "type": "uint256"
            },
            {
              "internalType": "uint256",
              "name": "idealBalance",
              "type": "uint256"
            },
            {
              "internalType": "bool",
              "name": "needPrecrime",
              "type": "bool"
            }
          ],
          "internalType": "struct PoolView.ChainPathState",
          "name": "_cp",
          "type": "tuple"
        },
        {
          "components": [
            {
              "internalType": "uint256",
              "name": "amount",
              "type": "uint256"
            },
            {
              "internalType": "uint256",
              "name": "eqFee",
              "type": "uint256"
            },
            {
              "internalType": "uint256",
              "name": "eqReward",
              "type": "uint256"
            },
            {
              "internalType": "uint256",
              "name": "lpFee",
              "type": "uint256"
            },
            {
              "internalType": "uint256",
              "name": "protocolFee",
              "type": "uint256"
            },
            {
              "internalType": "uint256",
              "name": "lkbRemove",
              "type": "uint256"
            }
          ],
          "internalType": "struct Pool.SwapObj",
          "name": "_s",
          "type": "tuple"
        }
      ],
      "name": "swapRemote",
      "outputs": [
        {
          "components": [
            {
              "internalType": "uint256",
              "name": "totalLiquidity",
              "type": "uint256"
            },
            {
              "internalType": "uint256",
              "name": "protocolFeeBalance",
              "type": "uint256"
            },
            {
              "internalType": "uint256",
              "name": "mintFeeBalance",
              "type": "uint256"
            },
            {
              "internalType": "uint256",
              "name": "eqFeePool",
              "type": "uint256"
            },
            {
              "internalType": "uint256",
              "name": "deltaCredit",
              "type": "uint256"
            },
            {
              "internalType": "uint256",
              "name": "tokenBalance",
              "type": "uint256"
            }
          ],
          "internalType": "struct PoolView.PoolBalance",
          "name": "",
          "type": "tuple"
        },
        {
          "components": [
            {
              "internalType": "uint16",
              "name": "dstChainId",
              "type": "uint16"
            },
            {
              "internalType": "uint256",
              "name": "dstPoolId",
              "type": "uint256"
            },
            {
              "internalType": "uint256",
              "name": "balance",
              "type": "uint256"
            },
            {
              "internalType": "uint256",
              "name": "lkb",
              "type": "uint256"
            },
            {
              "internalType": "uint256",
              "name": "credits",
              "type": "uint256"
            },
            {
              "internalType": "uint256",
              "name": "idealBalance",
              "type": "uint256"
            },
            {
              "internalType": "bool",
              "name": "needPrecrime",
              "type": "bool"
            }
          ],
          "internalType": "struct PoolView.ChainPathState",
          "name": "",
          "type": "tuple"
        }
      ],
      "stateMutability": "pure",
      "type": "function"
    }
  ],
  "bytecode": "0x608060405234801561001057600080fd5b5061103a806100206000396000f3fe608060405234801561001057600080fd5b50600436106100675760003560e01c806372666b101161005057806372666b10146100a8578063ea8683cd146100c9578063ec04205b146100dc57610067565b806317b597d91461006c5780636ab202d314610095575b600080fd5b61007f61007a366004610da0565b6100fc565b60405161008c9190610f15565b60405180910390f35b61007f6100a3366004610d16565b610141565b6100bb6100b6366004610e12565b610186565b60405161008c929190610f23565b6100bb6100d7366004610dcb565b6101e4565b6100ef6100ea366004610cfa565b610283565b60405161008c9190610f3f565b610104610abd565b826040015182111561011c5760006040840152610131565b604083015161012b90836108c5565b60408401525b50600160c0830152815b92915050565b610149610abd565b815160408401516101599161093c565b6040840152600160c0840152602082015160a08401511461017f57602082015160a08401525b5090919050565b61018e610b00565b610196610abd565b82156101ab5785516101a8908461093c565b86525b60608501516101ba90856108c5565b6060860152600160c086015260a08601516101d590856108c5565b60a08701525093949293505050565b6101ec610b00565b6101f4610abd565b606083015185516102049161093c565b8552602083015160608601516102199161093c565b6060860152608083015160208601516102319161093c565b602086015260a08301516060850151610249916108c5565b6060850152600160c0850152604083015183516102759161026a919061093c565b60a0870151906108c5565b60a086015250929391925050565b61028b610b36565b60008273ffffffffffffffffffffffffffffffffffffffff1663163ef4906040518163ffffffff1660e01b815260040160206040518083038186803b1580156102d357600080fd5b505afa1580156102e7573d6000803e3d6000fd5b505050506040513d601f19601f8201168201806040525081019061030b9190610e58565b905060008167ffffffffffffffff8111801561032657600080fd5b5060405190808252806020026020018201604052801561036057816020015b61034d610abd565b8152602001906001900390816103455790505b50905060005b82811015610473576000806000806000808a73ffffffffffffffffffffffffffffffffffffffff1663a138ed6b886040518263ffffffff1660e01b81526004016103b09190610fb8565b6101006040518083038186803b1580156103c957600080fd5b505afa1580156103dd573d6000803e3d6000fd5b505050506040513d601f19601f820116820180604052508101906104019190610c8a565b97509750975097505096509650506040518060e001604052808761ffff1681526020018681526020018581526020018481526020018381526020018281526020016000151581525088888151811061045557fe5b60200260200101819052505050505050508080600101915050610366565b5060008473ffffffffffffffffffffffffffffffffffffffff1663fc0c546a6040518163ffffffff1660e01b815260040160206040518083038186803b1580156104bc57600080fd5b505afa1580156104d0573d6000803e3d6000fd5b505050506040513d601f19601f820116820180604052508101906104f49190610c6e565b73ffffffffffffffffffffffffffffffffffffffff166370a08231866040518263ffffffff1660e01b815260040161052c9190610ef4565b60206040518083038186803b15801561054457600080fd5b505afa158015610558573d6000803e3d6000fd5b505050506040513d601f19601f8201168201806040525081019061057c9190610e58565b905060405180606001604052808673ffffffffffffffffffffffffffffffffffffffff16633e0dc34e6040518163ffffffff1660e01b815260040160206040518083038186803b1580156105cf57600080fd5b505afa1580156105e3573d6000803e3d6000fd5b505050506040513d601f19601f820116820180604052508101906106079190610e58565b81526020018381526020016040518060c001604052808873ffffffffffffffffffffffffffffffffffffffff166315770f926040518163ffffffff1660e01b815260040160206040518083038186803b15801561066357600080fd5b505afa158015610677573d6000803e3d6000fd5b505050506040513d601f19601f8201168201806040525081019061069b9190610e58565b81526020018873ffffffffffffffffffffffffffffffffffffffff16630a22d68c6040518163ffffffff1660e01b815260040160206040518083038186803b1580156106e657600080fd5b505afa1580156106fa573d6000803e3d6000fd5b505050506040513d601f19601f8201168201806040525081019061071e9190610e58565b81526020018873ffffffffffffffffffffffffffffffffffffffff166365152f2b6040518163ffffffff1660e01b815260040160206040518083038186803b15801561076957600080fd5b505afa15801561077d573d6000803e3d6000fd5b505050506040513d601f19601f820116820180604052508101906107a19190610e58565b81526020018873ffffffffffffffffffffffffffffffffffffffff16639bb811196040518163ffffffff1660e01b815260040160206040518083038186803b1580156107ec57600080fd5b505afa158015610800573d6000803e3d6000fd5b505050506040513d601f19601f820116820180604052508101906108249190610e58565b81526020018873ffffffffffffffffffffffffffffffffffffffff16631e8e51da6040518163ffffffff1660e01b815260040160206040518083038186803b15801561086f57600080fd5b505afa158015610883573d6000803e3d6000fd5b505050506040513d601f19601f820116820180604052508101906108a79190610e58565b81526020016108b689866109b7565b9052905293505050505b919050565b60008282111561093657604080517f08c379a000000000000000000000000000000000000000000000000000000000815260206004820152601e60248201527f536166654d6174683a207375627472616374696f6e206f766572666c6f770000604482015290519081900360640190fd5b50900390565b6000828201838110156109b057604080517f08c379a000000000000000000000000000000000000000000000000000000000815260206004820152601b60248201527f536166654d6174683a206164646974696f6e206f766572666c6f770000000000604482015290519081900360640190fd5b9392505050565b60006109b08373ffffffffffffffffffffffffffffffffffffffff1663feb56b156040518163ffffffff1660e01b815260040160206040518083038186803b158015610a0257600080fd5b505afa158015610a16573d6000803e3d6000fd5b505050506040513d601f19601f82011682018060405250810190610a3a9190610e58565b83906000808211610aac57604080517f08c379a000000000000000000000000000000000000000000000000000000000815260206004820152601a60248201527f536166654d6174683a206469766973696f6e206279207a65726f000000000000604482015290519081900360640190fd5b818381610ab557fe5b049392505050565b6040518060e00160405280600061ffff16815260200160008152602001600081526020016000815260200160008152602001600081526020016000151581525090565b6040518060c001604052806000815260200160008152602001600081526020016000815260200160008152602001600081525090565b60405180606001604052806000815260200160608152602001610b57610b00565b905290565b80356108c081610fe6565b600060e08284031215610b78578081fd5b60405160e0810181811067ffffffffffffffff82111715610b9557fe5b604052905080610ba483610c63565b81526020830135602082015260408301356040820152606083013560608201526080830135608082015260a083013560a0820152610be460c08401610b5c565b60c08201525092915050565b600060c08284031215610c01578081fd5b60405160c0810181811067ffffffffffffffff82111715610c1e57fe5b8060405250809150823581526020830135602082015260408301356040820152606083013560608201526080830135608082015260a083013560a08201525092915050565b80356108c081610ff4565b600060208284031215610c7f578081fd5b81516109b081610fc1565b600080600080600080600080610100898b031215610ca6578384fd5b8851610cb181610fe6565b60208a0151909850610cc281610ff4565b60408a015160608b015160808c015160a08d015160c08e015160e0909e01519c9f949e50929c919b909a509198509650945092505050565b600060208284031215610d0b578081fd5b81356109b081610fc1565b600080828403610120811215610d2a578283fd5b610d348585610b67565b925060407fffffffffffffffffffffffffffffffffffffffffffffffffffffffffffffff2082011215610d65578182fd5b506040516040810181811067ffffffffffffffff82111715610d8357fe5b60405260e084013581526101009093013560208401525092909150565b6000806101008385031215610db3578182fd5b610dbd8484610b67565b9460e0939093013593505050565b60008060006102608486031215610de0578283fd5b610dea8585610bf0565b9250610df98560c08601610b67565b9150610e09856101a08601610bf0565b90509250925092565b6000806000806101e08587031215610e28578384fd5b610e328686610bf0565b9350610e418660c08701610b67565b93969395505050506101a0820135916101c0013590565b600060208284031215610e69578081fd5b5051919050565b61ffff81511682526020810151602083015260408101516040830152606081015160608301526080810151608083015260a081015160a083015260c0810151151560c08301525050565b805182526020810151602083015260408101516040830152606081015160608301526080810151608083015260a081015160a08301525050565b73ffffffffffffffffffffffffffffffffffffffff91909116815260200190565b60e0810161013b8284610e70565b6101a08101610f328285610eba565b6109b060c0830184610e70565b6020808252825182820152828101516101006040840152805161012084018190526000929182019083906101408601905b80831015610f9957610f83828551610e70565b60e0820191508484019350600183019250610f70565b5060408701519350610fae6060870185610eba565b9695505050505050565b90815260200190565b73ffffffffffffffffffffffffffffffffffffffff81168114610fe357600080fd5b50565b8015158114610fe357600080fd5b61ffff81168114610fe357600080fdfea264697066735822122005d8081eaa94ef1ea933a74d091ee8bdb272266009dc174358e5cbd194a1f13b64736f6c63430007060033",
  "linkReferences": {},
  "deployedLinkReferences": {}
}