{
  "_format": "hh-sol-artifact-1",
  "contractName": "ProxyOFTV2View",
  "sourceName": "contracts/token/oft/v2/precrime/ProxyOFTV2View.sol",
  "abi": [
    {
      "inputs": [
        {
          "internalType": "address",
          "name": "_oft",
          "type": "address"
        }
      ],
      "stateMutability": "nonpayable",
      "type": "constructor"
    },
    {
      "inputs": [],
      "name": "getCurrentState",
      "outputs": [
        {
          "internalType": "uint256",
          "name": "",
          "type": "uint256"
        }
      ],
      "stateMutability": "view",
      "type": "function"
    },
    {
      "inputs": [
        {
          "internalType": "uint16",
          "name": "_srcChainId",
          "type": "uint16"
        }
      ],
      "name": "getInboundNonce",
      "outputs": [
        {
          "internalType": "uint64",
          "name": "",
          "type": "uint64"
        }
      ],
      "stateMutability": "view",
      "type": "function"
    },
    {
      "inputs": [],
      "name": "isProxy",
      "outputs": [
        {
          "internalType": "bool",
          "name": "",
          "type": "bool"
        }
      ],
      "stateMutability": "pure",
      "type": "function"
    },
    {
      "inputs": [
        {
          "internalType": "uint16",
          "name": "_srcChainId",
          "type": "uint16"
        },
        {
          "internalType": "bytes32",
          "name": "_scrAddress",
          "type": "bytes32"
        },
        {
          "internalType": "bytes",
          "name": "_payload",
          "type": "bytes"
        },
        {
          "internalType": "uint256",
          "name": "_outboundAmount",
          "type": "uint256"
        }
      ],
      "name": "lzReceive",
      "outputs": [
        {
          "internalType": "uint256",
          "name": "",
          "type": "uint256"
        }
      ],
      "stateMutability": "view",
      "type": "function"
    }
  ],
  "bytecode": "0x60e06040523480156200001157600080fd5b5060405162000ee838038062000ee8833981016040819052620000349162000281565b80806001600160a01b03166080816001600160a01b031681525050806001600160a01b031663b353aaa76040518163ffffffff1660e01b8152600401602060405180830381865afa1580156200008e573d6000803e3d6000fd5b505050506040513d601f19601f82011682018060405250810190620000b4919062000281565b6001600160a01b031660a0816001600160a01b0316815250506000816001600160a01b031663fc0c546a6040518163ffffffff1660e01b8152600401602060405180830381865afa1580156200010e573d6000803e3d6000fd5b505050506040513d601f19601f8201168201806040525081019062000134919062000281565b60408051600481526024810182526020810180516001600160e01b031663313ce56760e01b17905290516001600160a01b039290921691620001779190620002a8565b600060405180830381855afa9150503d8060008114620001b4576040519150601f19603f3d011682016040523d82523d6000602084013e620001b9565b606091505b50915050600081806020019051810190620001d59190620002e6565b90506000836001600160a01b031663857749b06040518163ffffffff1660e01b8152600401602060405180830381865afa15801562000218573d6000803e3d6000fd5b505050506040513d601f19601f820116820180604052508101906200023e9190620002e6565b90506200024c818362000321565b6200025990600a62000446565b60c05250620004579350505050565b6001600160a01b03811681146200027e57600080fd5b50565b6000602082840312156200029457600080fd5b8151620002a18162000268565b9392505050565b6000825160005b81811015620002cb5760208186018101518583015201620002af565b81811115620002db576000828501525b509190910192915050565b600060208284031215620002f957600080fd5b815160ff81168114620002a157600080fd5b634e487b7160e01b600052601160045260246000fd5b600060ff821660ff8416808210156200033e576200033e6200030b565b90039392505050565b600181815b80851115620003885781600019048211156200036c576200036c6200030b565b808516156200037a57918102915b93841c93908002906200034c565b509250929050565b600082620003a15750600162000440565b81620003b05750600062000440565b8160018114620003c95760028114620003d457620003f4565b600191505062000440565b60ff841115620003e857620003e86200030b565b50506001821b62000440565b5060208310610133831016604e8410600b841016171562000419575081810a62000440565b62000425838362000347565b80600019048211156200043c576200043c6200030b565b0290505b92915050565b6000620002a160ff84168362000390565b60805160a05160c051610a546200049460003960006104c6015260006101f201526000818160be01528181610169015261038e0152610a546000f3fe608060405234801561001057600080fd5b506004361061004c5760003560e01c8063378aa7011461005157806358b46b311461006c578063624a32661461009857806364da4e6f146100ab575b600080fd5b6100596100ba565b6040519081526020015b60405180910390f35b61007f61007a366004610676565b610143565b60405167ffffffffffffffff9091168152602001610063565b6100596100a6366004610700565b610271565b60405160018152602001610063565b60007f00000000000000000000000000000000000000000000000000000000000000006001600160a01b0316639689cb056040518163ffffffff1660e01b8152600401602060405180830381865afa15801561011a573d6000803e3d6000fd5b505050506040513d601f19601f8201168201806040525081019061013e91906107a2565b905090565b604051630ea67af160e31b815261ffff8216600482015260009081906001600160a01b037f00000000000000000000000000000000000000000000000000000000000000001690637533d78890602401600060405180830381865afa1580156101b0573d6000803e3d6000fd5b505050506040513d6000823e601f3d908101601f191682016040526101d891908101906107eb565b604051630fdc07c760e41b81529091506001600160a01b037f0000000000000000000000000000000000000000000000000000000000000000169063fdc07c70906102299086908590600401610862565b602060405180830381865afa158015610246573d6000803e3d6000fd5b505050506040513d601f19601f8201168201806040525081019061026a91906108a0565b9392505050565b600061027d8585610368565b6102d95760405162461bcd60e51b815260206004820152602260248201527f50726f78794f46545632566965773a206e6f7420747275737465642072656d6f604482015261746560f01b60648201526084015b60405180910390fd5b60006102e4846104b1565b9050808310156103545760405162461bcd60e51b815260206004820152603560248201527f50726f78794f46545632566965773a207472616e7366657220616d6f756e7420604482015274195e18d959591cc81b1bd8dad95908185b5bdd5b9d605a1b60648201526084016102d0565b61035e81846108e0565b9695505050505050565b604051630ea67af160e31b815261ffff8316600482015260009081906001600160a01b037f00000000000000000000000000000000000000000000000000000000000000001690637533d78890602401600060405180830381865afa1580156103d5573d6000803e3d6000fd5b505050506040513d6000823e601f3d908101601f191682016040526103fd91908101906107eb565b805190915060288114806104115750806034145b61045d5760405162461bcd60e51b815260206004820152601e60248201527f4f46545632566965773a20696e76616c69642070617468206c656e677468000060448201526064016102d0565b610475600061046d6014846108e0565b8491906104f5565b8051909250600060016104898360086108f7565b6104949060026109fa565b61049e91906108e0565b9190930151168414925050505b92915050565b6000806104bf836021610602565b905061026a7f000000000000000000000000000000000000000000000000000000000000000067ffffffffffffffff83166108f7565b60608161050381601f610a06565b10156105425760405162461bcd60e51b815260206004820152600e60248201526d736c6963655f6f766572666c6f7760901b60448201526064016102d0565b61054c8284610a06565b845110156105905760405162461bcd60e51b8152602060048201526011602482015270736c6963655f6f75744f66426f756e647360781b60448201526064016102d0565b6060821580156105af57604051915060008252602082016040526105f9565b6040519150601f8416801560200281840101858101878315602002848b0101015b818310156105e85780518352602092830192016105d0565b5050858452601f01601f1916604052505b50949350505050565b600061060f826008610a06565b835110156106565760405162461bcd60e51b8152602060048201526014602482015273746f55696e7436345f6f75744f66426f756e647360601b60448201526064016102d0565b50016008015190565b803561ffff8116811461067157600080fd5b919050565b60006020828403121561068857600080fd5b61026a8261065f565b634e487b7160e01b600052604160045260246000fd5b604051601f8201601f1916810167ffffffffffffffff811182821017156106d0576106d0610691565b604052919050565b600067ffffffffffffffff8211156106f2576106f2610691565b50601f01601f191660200190565b6000806000806080858703121561071657600080fd5b61071f8561065f565b935060208501359250604085013567ffffffffffffffff81111561074257600080fd5b8501601f8101871361075357600080fd5b8035610766610761826106d8565b6106a7565b81815288602083850101111561077b57600080fd5b81602084016020830137600091810160200191909152949793965093946060013593505050565b6000602082840312156107b457600080fd5b5051919050565b60005b838110156107d65781810151838201526020016107be565b838111156107e5576000848401525b50505050565b6000602082840312156107fd57600080fd5b815167ffffffffffffffff81111561081457600080fd5b8201601f8101841361082557600080fd5b8051610833610761826106d8565b81815285602083850101111561084857600080fd5b6108598260208301602086016107bb565b95945050505050565b61ffff83168152604060208201526000825180604084015261088b8160608501602087016107bb565b601f01601f1916919091016060019392505050565b6000602082840312156108b257600080fd5b815167ffffffffffffffff8116811461026a57600080fd5b634e487b7160e01b600052601160045260246000fd5b6000828210156108f2576108f26108ca565b500390565b6000816000190483118215151615610911576109116108ca565b500290565b600181815b80851115610951578160001904821115610937576109376108ca565b8085161561094457918102915b93841c939080029061091b565b509250929050565b600082610968575060016104ab565b81610975575060006104ab565b816001811461098b5760028114610995576109b1565b60019150506104ab565b60ff8411156109a6576109a66108ca565b50506001821b6104ab565b5060208310610133831016604e8410600b84101617156109d4575081810a6104ab565b6109de8383610916565b80600019048211156109f2576109f26108ca565b029392505050565b600061026a8383610959565b60008219821115610a1957610a196108ca565b50019056fea26469706673582212201af4b32b2dc2236df7ebe2bc3f43f6a668e99e1bdb69fe2c59de6ebf33fa025e64736f6c634300080c0033",
  "linkReferences": {},
  "deployedLinkReferences": {}
}