{
  "address": "0xaaed103E18acf972b9b68743E3d4bDeBb9Ce5E5b",
  "abi": [
    {
      "anonymous": false,
      "inputs": [
        {
          "indexed": false,
          "internalType": "uint8",
          "name": "version",
          "type": "uint8"
        }
      ],
      "name": "Initialized",
      "type": "event"
    },
    {
      "anonymous": false,
      "inputs": [
        {
          "indexed": true,
          "internalType": "address",
          "name": "previousOwner",
          "type": "address"
        },
        {
          "indexed": true,
          "internalType": "address",
          "name": "newOwner",
          "type": "address"
        }
      ],
      "name": "OwnershipTransferred",
      "type": "event"
    },
    {
      "inputs": [],
      "name": "ARBITRUM_COMPRESSION_PERCENT",
      "outputs": [
        {
          "internalType": "uint128",
          "name": "",
          "type": "uint128"
        }
      ],
      "stateMutability": "view",
      "type": "function"
    },
    {
      "inputs": [],
      "name": "arbitrumPriceExt",
      "outputs": [
        {
          "internalType": "uint64",
          "name": "gasPerL2Tx",
          "type": "uint64"
        },
        {
          "internalType": "uint32",
          "name": "gasPerL1CallDataByte",
          "type": "uint32"
        }
      ],
      "stateMutability": "view",
      "type": "function"
    },
    {
      "inputs": [
        {
          "internalType": "uint32",
          "name": "dstEid",
          "type": "uint32"
        }
      ],
      "name": "defaultModelPrice",
      "outputs": [
        {
          "internalType": "uint128",
          "name": "priceRatio",
          "type": "uint128"
        },
        {
          "internalType": "uint64",
          "name": "gasPriceInUnit",
          "type": "uint64"
        },
        {
          "internalType": "uint32",
          "name": "gasPerByte",
          "type": "uint32"
        }
      ],
      "stateMutability": "view",
      "type": "function"
    },
    {
      "inputs": [
        {
          "internalType": "uint16",
          "name": "_dstEid",
          "type": "uint16"
        },
        {
          "internalType": "uint256",
          "name": "_callDataSize",
          "type": "uint256"
        },
        {
          "internalType": "uint256",
          "name": "_gas",
          "type": "uint256"
        }
      ],
      "name": "estimateFeeByChain",
      "outputs": [
        {
          "internalType": "uint256",
          "name": "fee",
          "type": "uint256"
        },
        {
          "internalType": "uint128",
          "name": "priceRatio",
          "type": "uint128"
        }
      ],
      "stateMutability": "view",
      "type": "function"
    },
    {
      "inputs": [
        {
          "internalType": "uint32",
          "name": "_dstEid",
          "type": "uint32"
        },
        {
          "internalType": "uint256",
          "name": "_callDataSize",
          "type": "uint256"
        },
        {
          "internalType": "uint256",
          "name": "_gas",
          "type": "uint256"
        }
      ],
      "name": "estimateFeeByEid",
      "outputs": [
        {
          "internalType": "uint256",
          "name": "fee",
          "type": "uint256"
        },
        {
          "internalType": "uint128",
          "name": "priceRatio",
          "type": "uint128"
        },
        {
          "internalType": "uint128",
          "name": "priceRatioDenominator",
          "type": "uint128"
        },
        {
          "internalType": "uint128",
          "name": "nativePriceUSD",
          "type": "uint128"
        }
      ],
      "stateMutability": "view",
      "type": "function"
    },
    {
      "inputs": [
        {
          "internalType": "uint32",
          "name": "_dstEid",
          "type": "uint32"
        }
      ],
      "name": "getPrice",
      "outputs": [
        {
          "components": [
            {
              "internalType": "uint128",
              "name": "priceRatio",
              "type": "uint128"
            },
            {
              "internalType": "uint64",
              "name": "gasPriceInUnit",
              "type": "uint64"
            },
            {
              "internalType": "uint32",
              "name": "gasPerByte",
              "type": "uint32"
            }
          ],
          "internalType": "struct ILayerZeroPriceFeed.Price",
          "name": "price",
          "type": "tuple"
        }
      ],
      "stateMutability": "view",
      "type": "function"
    },
    {
      "inputs": [
        {
          "internalType": "uint16",
          "name": "_dstEid",
          "type": "uint16"
        }
      ],
      "name": "getPrice",
      "outputs": [
        {
          "components": [
            {
              "internalType": "uint128",
              "name": "priceRatio",
              "type": "uint128"
            },
            {
              "internalType": "uint64",
              "name": "gasPriceInUnit",
              "type": "uint64"
            },
            {
              "internalType": "uint32",
              "name": "gasPerByte",
              "type": "uint32"
            }
          ],
          "internalType": "struct ILayerZeroPriceFeed.Price",
          "name": "price",
          "type": "tuple"
        }
      ],
      "stateMutability": "view",
      "type": "function"
    },
    {
      "inputs": [],
      "name": "getPriceRatioDenominator",
      "outputs": [
        {
          "internalType": "uint128",
          "name": "",
          "type": "uint128"
        }
      ],
      "stateMutability": "view",
      "type": "function"
    },
    {
      "inputs": [
        {
          "internalType": "address",
          "name": "_priceUpdater",
          "type": "address"
        }
      ],
      "name": "initialize",
      "outputs": [],
      "stateMutability": "nonpayable",
      "type": "function"
    },
    {
      "inputs": [],
      "name": "nativeTokenPriceUSD",
      "outputs": [
        {
          "internalType": "uint128",
          "name": "",
          "type": "uint128"
        }
      ],
      "stateMutability": "view",
      "type": "function"
    },
    {
      "inputs": [],
      "name": "owner",
      "outputs": [
        {
          "internalType": "address",
          "name": "",
          "type": "address"
        }
      ],
      "stateMutability": "view",
      "type": "function"
    },
    {
      "inputs": [
        {
          "internalType": "address",
          "name": "updater",
          "type": "address"
        }
      ],
      "name": "priceUpdater",
      "outputs": [
        {
          "internalType": "bool",
          "name": "active",
          "type": "bool"
        }
      ],
      "stateMutability": "view",
      "type": "function"
    },
    {
      "inputs": [],
      "name": "renounceOwnership",
      "outputs": [],
      "stateMutability": "nonpayable",
      "type": "function"
    },
    {
      "inputs": [
        {
          "internalType": "uint128",
          "name": "_compressionPercent",
          "type": "uint128"
        }
      ],
      "name": "setArbitrumCompressionPercent",
      "outputs": [],
      "stateMutability": "nonpayable",
      "type": "function"
    },
    {
      "inputs": [
        {
          "internalType": "uint128",
          "name": "_nativeTokenPriceUSD",
          "type": "uint128"
        }
      ],
      "name": "setNativeTokenPriceUSD",
      "outputs": [],
      "stateMutability": "nonpayable",
      "type": "function"
    },
    {
      "inputs": [
        {
          "components": [
            {
              "internalType": "uint32",
              "name": "eid",
              "type": "uint32"
            },
            {
              "components": [
                {
                  "internalType": "uint128",
                  "name": "priceRatio",
                  "type": "uint128"
                },
                {
                  "internalType": "uint64",
                  "name": "gasPriceInUnit",
                  "type": "uint64"
                },
                {
                  "internalType": "uint32",
                  "name": "gasPerByte",
                  "type": "uint32"
                }
              ],
              "internalType": "struct ILayerZeroPriceFeed.Price",
              "name": "price",
              "type": "tuple"
            }
          ],
          "internalType": "struct ILayerZeroPriceFeed.UpdatePrice[]",
          "name": "_price",
          "type": "tuple[]"
        }
      ],
      "name": "setPrice",
      "outputs": [],
      "stateMutability": "nonpayable",
      "type": "function"
    },
    {
      "inputs": [
        {
          "components": [
            {
              "internalType": "uint32",
              "name": "eid",
              "type": "uint32"
            },
            {
              "components": [
                {
                  "internalType": "uint128",
                  "name": "priceRatio",
                  "type": "uint128"
                },
                {
                  "internalType": "uint64",
                  "name": "gasPriceInUnit",
                  "type": "uint64"
                },
                {
                  "internalType": "uint32",
                  "name": "gasPerByte",
                  "type": "uint32"
                }
              ],
              "internalType": "struct ILayerZeroPriceFeed.Price",
              "name": "price",
              "type": "tuple"
            },
            {
              "components": [
                {
                  "internalType": "uint64",
                  "name": "gasPerL2Tx",
                  "type": "uint64"
                },
                {
                  "internalType": "uint32",
                  "name": "gasPerL1CallDataByte",
                  "type": "uint32"
                }
              ],
              "internalType": "struct ILayerZeroPriceFeed.ArbitrumPriceExt",
              "name": "extend",
              "type": "tuple"
            }
          ],
          "internalType": "struct ILayerZeroPriceFeed.UpdatePriceExt",
          "name": "_update",
          "type": "tuple"
        }
      ],
      "name": "setPriceForArbitrum",
      "outputs": [],
      "stateMutability": "nonpayable",
      "type": "function"
    },
    {
      "inputs": [
        {
          "internalType": "uint128",
          "name": "_denominator",
          "type": "uint128"
        }
      ],
      "name": "setPriceRatioDenominator",
      "outputs": [],
      "stateMutability": "nonpayable",
      "type": "function"
    },
    {
      "inputs": [
        {
          "internalType": "address",
          "name": "_addr",
          "type": "address"
        },
        {
          "internalType": "bool",
          "name": "_active",
          "type": "bool"
        }
      ],
      "name": "setPriceUpdater",
      "outputs": [],
      "stateMutability": "nonpayable",
      "type": "function"
    },
    {
      "inputs": [
        {
          "internalType": "address",
          "name": "newOwner",
          "type": "address"
        }
      ],
      "name": "transferOwnership",
      "outputs": [],
      "stateMutability": "nonpayable",
      "type": "function"
    }
  ],
  "transactionHash": "0x844a4dad6bad3684dd683c7000ba98c937945e8a7d957b445632c12868b693bb",
  "args": [],
  "numDeployments": 1,
  "solcInputHash": "ab1e5d804712ea77f57127083c0658bb",
  "bytecode": "0x608060405234801561001057600080fd5b50611b56806100206000396000f3fe608060405234801561001057600080fd5b506004361061016c5760003560e01c80638da5cb5b116100cd578063d350ad2511610081578063e0ad121a11610066578063e0ad121a146104a2578063ee396ac11461054a578063f2fde38b146105fc57600080fd5b8063d350ad25146103a5578063da26663a146103b857600080fd5b8063c1840327116100b2578063c184032714610348578063c4d66de814610362578063cd68b79b1461037557600080fd5b80638da5cb5b146102e357806392807f581461030b57600080fd5b8063715018a6116101245780637dc438a4116101095780637dc438a41461025257806388a4124c146102655780638ca2fb08146102b057600080fd5b8063715018a6146102115780637bc3c9ab1461021957600080fd5b806336a5beba1161015557806336a5beba1461019957806352a72510146101eb5780635d6d7ccb146101fe57600080fd5b80632f7cb0b4146101715780633161b7f614610186575b600080fd5b61018461017f366004611757565b61060f565b005b610184610194366004611779565b61064c565b6068546101c19067ffffffffffffffff81169068010000000000000000900463ffffffff1682565b6040805167ffffffffffffffff909316835263ffffffff9091166020830152015b60405180910390f35b6101846101f9366004611812565b61085b565b61018461020c366004611757565b6108b9565b6101846109b0565b61022c610227366004611860565b6109c4565b604080519283526fffffffffffffffffffffffffffffffff9091166020830152016101e2565b610184610260366004611893565b610a5f565b6102786102733660046118bf565b610b9c565b604080519485526fffffffffffffffffffffffffffffffff9384166020860152918316918401919091521660608201526080016101e2565b6102d36102be3660046118dd565b60666020526000908152604090205460ff1681565b60405190151581526020016101e2565b60335460405173ffffffffffffffffffffffffffffffffffffffff90911681526020016101e2565b606954610327906fffffffffffffffffffffffffffffffff1681565b6040516fffffffffffffffffffffffffffffffff90911681526020016101e2565b6065546fffffffffffffffffffffffffffffffff16610327565b6101846103703660046118dd565b610c73565b6069546103279070010000000000000000000000000000000090046fffffffffffffffffffffffffffffffff1681565b6101846103b3366004611757565b610f5a565b61045e6103c63660046118f8565b60408051606080820183526000808352602080840182905292840181905263ffffffff94851681526067835283902083519182018452546fffffffffffffffffffffffffffffffff81168252700100000000000000000000000000000000810467ffffffffffffffff169282019290925278010000000000000000000000000000000000000000000000009091049092169082015290565b6040805182516fffffffffffffffffffffffffffffffff16815260208084015167ffffffffffffffff16908201529181015163ffffffff16908201526060016101e2565b61045e6104b0366004611913565b60408051606080820183526000808352602080840182905292840181905261ffff949094168452606782529282902082519384018352546fffffffffffffffffffffffffffffffff8116845267ffffffffffffffff700100000000000000000000000000000000820416918401919091527801000000000000000000000000000000000000000000000000900463ffffffff169082015290565b6105bf6105583660046118f8565b6067602052600090815260409020546fffffffffffffffffffffffffffffffff811690700100000000000000000000000000000000810467ffffffffffffffff16907801000000000000000000000000000000000000000000000000900463ffffffff1683565b604080516fffffffffffffffffffffffffffffffff909416845267ffffffffffffffff909216602084015263ffffffff16908201526060016101e2565b61018461060a3660046118dd565b610fa5565b61061761105c565b606980546fffffffffffffffffffffffffffffffff928316700100000000000000000000000000000000029216919091179055565b3361066c60335473ffffffffffffffffffffffffffffffffffffffff1690565b73ffffffffffffffffffffffffffffffffffffffff1614610705573360009081526066602052604090205460ff16610705576040517f08c379a000000000000000000000000000000000000000000000000000000000815260206004820152601c60248201527f5072696365466565643a206e6f7420707269636520757064617465720000000060448201526064015b60405180910390fd5b60005b8181101561085657368383838181106107235761072361192e565b608002919091019150610843905061073e60208301836118f8565b61075036849003840160208501611975565b805160208083015160409384015184516060810186526fffffffffffffffffffffffffffffffff948516815267ffffffffffffffff92831681850190815263ffffffff9283168288019081529783166000908152606790955295909320925183549551965194167fffffffffffffffff000000000000000000000000000000000000000000000000909516949094177001000000000000000000000000000000009590911694909402939093177fffffffff00000000ffffffffffffffffffffffffffffffffffffffffffffffff1678010000000000000000000000000000000000000000000000009190921602179055565b508061084e81611a37565b915050610708565b505050565b61086361105c565b73ffffffffffffffffffffffffffffffffffffffff91909116600090815260666020526040902080547fffffffffffffffffffffffffffffffffffffffffffffffffffffffffffffff0016911515919091179055565b336108d960335473ffffffffffffffffffffffffffffffffffffffff1690565b73ffffffffffffffffffffffffffffffffffffffff161461096d573360009081526066602052604090205460ff1661096d576040517f08c379a000000000000000000000000000000000000000000000000000000000815260206004820152601c60248201527f5072696365466565643a206e6f7420707269636520757064617465720000000060448201526064016106fc565b606980547fffffffffffffffffffffffffffffffff00000000000000000000000000000000166fffffffffffffffffffffffffffffffff92909216919091179055565b6109b861105c565b6109c260006110dd565b565b6000808461ffff16606e14806109df57508461ffff1661279f145b806109ef57508461ffff16614eaf145b15610a0c57610a038561ffff168585611154565b91509150610a57565b8461ffff16606f1480610a2457508461ffff16612794145b80610a3457508461ffff16614ea4145b15610a4857610a038561ffff1685856112b1565b610a038561ffff168585611462565b935093915050565b33610a7f60335473ffffffffffffffffffffffffffffffffffffffff1690565b73ffffffffffffffffffffffffffffffffffffffff1614610b13573360009081526066602052604090205460ff16610b13576040517f08c379a000000000000000000000000000000000000000000000000000000000815260206004820152601c60248201527f5072696365466565643a206e6f7420707269636520757064617465720000000060448201526064016106fc565b610b2361073e60208301836118f8565b6000610b3560a0830160808401611a6f565b90506000610b4960c0840160a085016118f8565b6068805463ffffffff90921668010000000000000000027fffffffffffffffffffffffffffffffffffffffff00000000000000000000000090921667ffffffffffffffff90941693909317179091555050565b600080808080610bae61753089611ab9565b90508063ffffffff16606e1480610bcc57508063ffffffff1661279f145b80610bde57508063ffffffff16614eaf145b15610bf857610bee818888611154565b9095509350610c47565b8063ffffffff16606f1480610c1457508063ffffffff16612794145b80610c2657508063ffffffff16614ea4145b15610c3657610bee8188886112b1565b610c41818888611462565b90955093505b505060655460695493979296506fffffffffffffffffffffffffffffffff908116955090921692509050565b6000610c9d7fb53127684a568b3173ae13b9f8a6016e243e63b6e8ee1178d6a717850b5d61035490565b905073ffffffffffffffffffffffffffffffffffffffff8116610cf65773ffffffffffffffffffffffffffffffffffffffff7fb53127684a568b3173ae13b9f8a6016e243e63b6e8ee1178d6a717850b5d610355610d18565b3373ffffffffffffffffffffffffffffffffffffffff821614610d1857600080fd5b600054610100900460ff1615808015610d385750600054600160ff909116105b80610d525750303b158015610d52575060005460ff166001145b610dde576040517f08c379a000000000000000000000000000000000000000000000000000000000815260206004820152602e60248201527f496e697469616c697a61626c653a20636f6e747261637420697320616c72656160448201527f647920696e697469616c697a656400000000000000000000000000000000000060648201526084016106fc565b600080547fffffffffffffffffffffffffffffffffffffffffffffffffffffffffffffff001660011790558015610e3c57600080547fffffffffffffffffffffffffffffffffffffffffffffffffffffffffffff00ff166101001790555b610e44611537565b73ffffffffffffffffffffffffffffffffffffffff8316600090815260666020526040902080547fffffffffffffffffffffffffffffffffffffffffffffffffffffffffffffff00166001179055606580547fffffffffffffffffffffffffffffffff000000000000000000000000000000001668056bc75e2d6310000017905560698054702f000000000000000000000000000000006fffffffffffffffffffffffffffffffff91909116179055801561085657600080547fffffffffffffffffffffffffffffffffffffffffffffffffffffffffffff00ff169055604051600181527f7f26b83ff96e1f2b6a682f133852f6798a09c465da95921460cefb38474024989060200160405180910390a1505050565b610f6261105c565b606580547fffffffffffffffffffffffffffffffff00000000000000000000000000000000166fffffffffffffffffffffffffffffffff92909216919091179055565b610fad61105c565b73ffffffffffffffffffffffffffffffffffffffff8116611050576040517f08c379a000000000000000000000000000000000000000000000000000000000815260206004820152602660248201527f4f776e61626c653a206e6577206f776e657220697320746865207a65726f206160448201527f646472657373000000000000000000000000000000000000000000000000000060648201526084016106fc565b611059816110dd565b50565b60335473ffffffffffffffffffffffffffffffffffffffff1633146109c2576040517f08c379a000000000000000000000000000000000000000000000000000000000815260206004820181905260248201527f4f776e61626c653a2063616c6c6572206973206e6f7420746865206f776e657260448201526064016106fc565b6033805473ffffffffffffffffffffffffffffffffffffffff8381167fffffffffffffffffffffffff0000000000000000000000000000000000000000831681179093556040519116919082907f8be0079c531659141344cd1fd0a4f28419497f9722a3daafe3b4186f6b6457e090600090a35050565b63ffffffff8381166000908152606760205260408120606854606954929384938492680100000000000000009004909116906064906111b99070010000000000000000000000000000000090046fffffffffffffffffffffffffffffffff1689611adc565b6111c39190611af9565b6111cd9190611adc565b8254909150600090611201907801000000000000000000000000000000000000000000000000900463ffffffff1688611adc565b835460685491925060009167ffffffffffffffff7001000000000000000000000000000000009092048216918491869161123c91168b611b0d565b6112469190611b0d565b6112509190611b0d565b61125a9190611adc565b60655485549192506fffffffffffffffffffffffffffffffff90811691611282911683611adc565b61128c9190611af9565b935493996fffffffffffffffffffffffffffffffff9094169850929650505050505050565b60008060006112bf866115d6565b63ffffffff8082166000908152606760205260408120805493945092909161130491780100000000000000000000000000000000000000000000000090041688611adc565b61131090610c74611b0d565b825490915060009061134090700100000000000000000000000000000000900467ffffffffffffffff1683611adc565b63ffffffff808b16600090815260676020526040812080549394509290916113859178010000000000000000000000000000000000000000000000009004168b611adc565b8254909150600090700100000000000000000000000000000000900467ffffffffffffffff166113b58b84611b0d565b6113bf9190611adc565b60655487549192506000916fffffffffffffffffffffffffffffffff918216916113ea911687611adc565b6113f49190611af9565b60655485549192506000916fffffffffffffffffffffffffffffffff9182169161141f911685611adc565b6114299190611af9565b905060006114378284611b0d565b9554959f6fffffffffffffffffffffffffffffffff9096169e50949c50505050505050505050505050565b63ffffffff808416600090815260676020526040812080549192839283916114a791780100000000000000000000000000000000000000000000000090041687611adc565b8254909150600090700100000000000000000000000000000000900467ffffffffffffffff166114d78784611b0d565b6114e19190611adc565b60655484549192506fffffffffffffffffffffffffffffffff90811691611509911683611adc565b6115139190611af9565b925492986fffffffffffffffffffffffffffffffff90931697509195505050505050565b600054610100900460ff166115ce576040517f08c379a000000000000000000000000000000000000000000000000000000000815260206004820152602b60248201527f496e697469616c697a61626c653a20636f6e7472616374206973206e6f74206960448201527f6e697469616c697a696e6700000000000000000000000000000000000000000060648201526084016106fc565b6109c2611692565b6000806115e561753084611ab9565b90508063ffffffff16606f036115fe5750606592915050565b8063ffffffff1661279403611617575061278992915050565b8063ffffffff16614ea4036116305750614e9992915050565b6040517f08c379a000000000000000000000000000000000000000000000000000000000815260206004820152601e60248201527f5072696365466565643a20756e6b6e6f776e206c3220636861696e206964000060448201526064016106fc565b600054610100900460ff16611729576040517f08c379a000000000000000000000000000000000000000000000000000000000815260206004820152602b60248201527f496e697469616c697a61626c653a20636f6e7472616374206973206e6f74206960448201527f6e697469616c697a696e6700000000000000000000000000000000000000000060648201526084016106fc565b6109c2336110dd565b80356fffffffffffffffffffffffffffffffff8116811461175257600080fd5b919050565b60006020828403121561176957600080fd5b61177282611732565b9392505050565b6000806020838503121561178c57600080fd5b823567ffffffffffffffff808211156117a457600080fd5b818501915085601f8301126117b857600080fd5b8135818111156117c757600080fd5b8660208260071b85010111156117dc57600080fd5b60209290920196919550909350505050565b803573ffffffffffffffffffffffffffffffffffffffff8116811461175257600080fd5b6000806040838503121561182557600080fd5b61182e836117ee565b91506020830135801515811461184357600080fd5b809150509250929050565b803561ffff8116811461175257600080fd5b60008060006060848603121561187557600080fd5b61187e8461184e565b95602085013595506040909401359392505050565b600060c082840312156118a557600080fd5b50919050565b803563ffffffff8116811461175257600080fd5b6000806000606084860312156118d457600080fd5b61187e846118ab565b6000602082840312156118ef57600080fd5b611772826117ee565b60006020828403121561190a57600080fd5b611772826118ab565b60006020828403121561192557600080fd5b6117728261184e565b7f4e487b7100000000000000000000000000000000000000000000000000000000600052603260045260246000fd5b803567ffffffffffffffff8116811461175257600080fd5b60006060828403121561198757600080fd5b6040516060810181811067ffffffffffffffff821117156119d1577f4e487b7100000000000000000000000000000000000000000000000000000000600052604160045260246000fd5b6040526119dd83611732565b81526119eb6020840161195d565b60208201526119fc604084016118ab565b60408201529392505050565b7f4e487b7100000000000000000000000000000000000000000000000000000000600052601160045260246000fd5b60007fffffffffffffffffffffffffffffffffffffffffffffffffffffffffffffffff8203611a6857611a68611a08565b5060010190565b600060208284031215611a8157600080fd5b6117728261195d565b7f4e487b7100000000000000000000000000000000000000000000000000000000600052601260045260246000fd5b600063ffffffff80841680611ad057611ad0611a8a565b92169190910692915050565b8082028115828204841417611af357611af3611a08565b92915050565b600082611b0857611b08611a8a565b500490565b80820180821115611af357611af3611a0856fea264697066735822122097a8976a5d5789e2429a4c8aa2b4b8440aeac1045c3bbd8b7910e8d94264aa9464736f6c63430008120033",
  "devdoc": {
    "events": {
      "Initialized(uint8)": {
        "details": "Triggered when the contract has been initialized or reinitialized."
      }
    },
    "kind": "dev",
    "methods": {
      "owner()": {
        "details": "Returns the address of the current owner."
      },
      "renounceOwnership()": {
        "details": "Leaves the contract without owner. It will not be possible to call `onlyOwner` functions. Can only be called by the current owner. NOTE: Renouncing ownership will leave the contract without an owner, thereby disabling any functionality that is only available to the owner."
      },
      "transferOwnership(address)": {
        "details": "Transfers ownership of the contract to a new account (`newOwner`). Can only be called by the current owner."
      }
    },
    "version": 1
  },
  "userdoc": {
    "kind": "user",
    "methods": {},
    "version": 1
  },
  "storageLayout": {
    "storage": [
      {
        "astId": 3356,
        "contract": "contracts/PriceFeed.sol:PriceFeed",
        "label": "_initialized",
        "offset": 0,
        "slot": "0",
        "type": "t_uint8"
      },
      {
        "astId": 3359,
        "contract": "contracts/PriceFeed.sol:PriceFeed",
        "label": "_initializing",
        "offset": 1,
        "slot": "0",
        "type": "t_bool"
      },
      {
        "astId": 3973,
        "contract": "contracts/PriceFeed.sol:PriceFeed",
        "label": "__gap",
        "offset": 0,
        "slot": "1",
        "type": "t_array(t_uint256)50_storage"
      },
      {
        "astId": 3228,
        "contract": "contracts/PriceFeed.sol:PriceFeed",
        "label": "_owner",
        "offset": 0,
        "slot": "51",
        "type": "t_address"
      },
      {
        "astId": 3348,
        "contract": "contracts/PriceFeed.sol:PriceFeed",
        "label": "__gap",
        "offset": 0,
        "slot": "52",
        "type": "t_array(t_uint256)49_storage"
      },
      {
        "astId": 10574,
        "contract": "contracts/PriceFeed.sol:PriceFeed",
        "label": "PRICE_RATIO_DENOMINATOR",
        "offset": 0,
        "slot": "101",
        "type": "t_uint128"
      },
      {
        "astId": 10578,
        "contract": "contracts/PriceFeed.sol:PriceFeed",
        "label": "priceUpdater",
        "offset": 0,
        "slot": "102",
        "type": "t_mapping(t_address,t_bool)"
      },
      {
        "astId": 10583,
        "contract": "contracts/PriceFeed.sol:PriceFeed",
        "label": "defaultModelPrice",
        "offset": 0,
        "slot": "103",
        "type": "t_mapping(t_uint32,t_struct(Price)11930_storage)"
      },
      {
        "astId": 10586,
        "contract": "contracts/PriceFeed.sol:PriceFeed",
        "label": "arbitrumPriceExt",
        "offset": 0,
        "slot": "104",
        "type": "t_struct(ArbitrumPriceExt)11941_storage"
      },
      {
        "astId": 10588,
        "contract": "contracts/PriceFeed.sol:PriceFeed",
        "label": "nativeTokenPriceUSD",
        "offset": 0,
        "slot": "105",
        "type": "t_uint128"
      },
      {
        "astId": 10590,
        "contract": "contracts/PriceFeed.sol:PriceFeed",
        "label": "ARBITRUM_COMPRESSION_PERCENT",
        "offset": 16,
        "slot": "105",
        "type": "t_uint128"
      }
    ],
    "types": {
      "t_address": {
        "encoding": "inplace",
        "label": "address",
        "numberOfBytes": "20"
      },
      "t_array(t_uint256)49_storage": {
        "base": "t_uint256",
        "encoding": "inplace",
        "label": "uint256[49]",
        "numberOfBytes": "1568"
      },
      "t_array(t_uint256)50_storage": {
        "base": "t_uint256",
        "encoding": "inplace",
        "label": "uint256[50]",
        "numberOfBytes": "1600"
      },
      "t_bool": {
        "encoding": "inplace",
        "label": "bool",
        "numberOfBytes": "1"
      },
      "t_mapping(t_address,t_bool)": {
        "encoding": "mapping",
        "key": "t_address",
        "label": "mapping(address => bool)",
        "numberOfBytes": "32",
        "value": "t_bool"
      },
      "t_mapping(t_uint32,t_struct(Price)11930_storage)": {
        "encoding": "mapping",
        "key": "t_uint32",
        "label": "mapping(uint32 => struct ILayerZeroPriceFeed.Price)",
        "numberOfBytes": "32",
        "value": "t_struct(Price)11930_storage"
      },
      "t_struct(ArbitrumPriceExt)11941_storage": {
        "encoding": "inplace",
        "label": "struct ILayerZeroPriceFeed.ArbitrumPriceExt",
        "members": [
          {
            "astId": 11938,
            "contract": "contracts/PriceFeed.sol:PriceFeed",
            "label": "gasPerL2Tx",
            "offset": 0,
            "slot": "0",
            "type": "t_uint64"
          },
          {
            "astId": 11940,
            "contract": "contracts/PriceFeed.sol:PriceFeed",
            "label": "gasPerL1CallDataByte",
            "offset": 8,
            "slot": "0",
            "type": "t_uint32"
          }
        ],
        "numberOfBytes": "32"
      },
      "t_struct(Price)11930_storage": {
        "encoding": "inplace",
        "label": "struct ILayerZeroPriceFeed.Price",
        "members": [
          {
            "astId": 11925,
            "contract": "contracts/PriceFeed.sol:PriceFeed",
            "label": "priceRatio",
            "offset": 0,
            "slot": "0",
            "type": "t_uint128"
          },
          {
            "astId": 11927,
            "contract": "contracts/PriceFeed.sol:PriceFeed",
            "label": "gasPriceInUnit",
            "offset": 16,
            "slot": "0",
            "type": "t_uint64"
          },
          {
            "astId": 11929,
            "contract": "contracts/PriceFeed.sol:PriceFeed",
            "label": "gasPerByte",
            "offset": 24,
            "slot": "0",
            "type": "t_uint32"
          }
        ],
        "numberOfBytes": "32"
      },
      "t_uint128": {
        "encoding": "inplace",
        "label": "uint128",
        "numberOfBytes": "16"
      },
      "t_uint256": {
        "encoding": "inplace",
        "label": "uint256",
        "numberOfBytes": "32"
      },
      "t_uint32": {
        "encoding": "inplace",
        "label": "uint32",
        "numberOfBytes": "4"
      },
      "t_uint64": {
        "encoding": "inplace",
        "label": "uint64",
        "numberOfBytes": "8"
      },
      "t_uint8": {
        "encoding": "inplace",
        "label": "uint8",
        "numberOfBytes": "1"
      }
    }
  }
}