{
  "address": "0x990Fe6106366685Db3E53C45C5D9599A065C806F",
  "abi": [
    {
      "inputs": [
        {
          "internalType": "contract StargateToken",
          "name": "_stargate",
          "type": "address"
        },
        {
          "internalType": "uint256",
          "name": "_stargatePerBlock",
          "type": "uint256"
        },
        {
          "internalType": "uint256",
          "name": "_startBlock",
          "type": "uint256"
        },
        {
          "internalType": "uint256",
          "name": "_bonusEndBlock",
          "type": "uint256"
        }
      ],
      "stateMutability": "nonpayable",
      "type": "constructor"
    },
    {
      "anonymous": false,
      "inputs": [
        {
          "indexed": true,
          "internalType": "address",
          "name": "user",
          "type": "address"
        },
        {
          "indexed": true,
          "internalType": "uint256",
          "name": "pid",
          "type": "uint256"
        },
        {
          "indexed": false,
          "internalType": "uint256",
          "name": "amount",
          "type": "uint256"
        }
      ],
      "name": "Deposit",
      "type": "event"
    },
    {
      "anonymous": false,
      "inputs": [
        {
          "indexed": true,
          "internalType": "address",
          "name": "user",
          "type": "address"
        },
        {
          "indexed": true,
          "internalType": "uint256",
          "name": "pid",
          "type": "uint256"
        },
        {
          "indexed": false,
          "internalType": "uint256",
          "name": "amount",
          "type": "uint256"
        }
      ],
      "name": "EmergencyWithdraw",
      "type": "event"
    },
    {
      "anonymous": false,
      "inputs": [
        {
          "indexed": true,
          "internalType": "address",
          "name": "previousOwner",
          "type": "address"
        },
        {
          "indexed": true,
          "internalType": "address",
          "name": "newOwner",
          "type": "address"
        }
      ],
      "name": "OwnershipTransferred",
      "type": "event"
    },
    {
      "anonymous": false,
      "inputs": [
        {
          "indexed": true,
          "internalType": "address",
          "name": "user",
          "type": "address"
        },
        {
          "indexed": true,
          "internalType": "uint256",
          "name": "pid",
          "type": "uint256"
        },
        {
          "indexed": false,
          "internalType": "uint256",
          "name": "amount",
          "type": "uint256"
        }
      ],
      "name": "Withdraw",
      "type": "event"
    },
    {
      "inputs": [],
      "name": "BONUS_MULTIPLIER",
      "outputs": [
        {
          "internalType": "uint256",
          "name": "",
          "type": "uint256"
        }
      ],
      "stateMutability": "view",
      "type": "function"
    },
    {
      "inputs": [
        {
          "internalType": "uint256",
          "name": "_allocPoint",
          "type": "uint256"
        },
        {
          "internalType": "contract IERC20",
          "name": "_lpToken",
          "type": "address"
        }
      ],
      "name": "add",
      "outputs": [],
      "stateMutability": "nonpayable",
      "type": "function"
    },
    {
      "inputs": [],
      "name": "bonusEndBlock",
      "outputs": [
        {
          "internalType": "uint256",
          "name": "",
          "type": "uint256"
        }
      ],
      "stateMutability": "view",
      "type": "function"
    },
    {
      "inputs": [
        {
          "internalType": "uint256",
          "name": "_pid",
          "type": "uint256"
        },
        {
          "internalType": "uint256",
          "name": "_amount",
          "type": "uint256"
        }
      ],
      "name": "deposit",
      "outputs": [],
      "stateMutability": "nonpayable",
      "type": "function"
    },
    {
      "inputs": [
        {
          "internalType": "uint256",
          "name": "_pid",
          "type": "uint256"
        }
      ],
      "name": "emergencyWithdraw",
      "outputs": [],
      "stateMutability": "nonpayable",
      "type": "function"
    },
    {
      "inputs": [
        {
          "internalType": "uint256",
          "name": "_from",
          "type": "uint256"
        },
        {
          "internalType": "uint256",
          "name": "_to",
          "type": "uint256"
        }
      ],
      "name": "getMultiplier",
      "outputs": [
        {
          "internalType": "uint256",
          "name": "",
          "type": "uint256"
        }
      ],
      "stateMutability": "view",
      "type": "function"
    },
    {
      "inputs": [
        {
          "internalType": "uint256",
          "name": "",
          "type": "uint256"
        }
      ],
      "name": "lpBalances",
      "outputs": [
        {
          "internalType": "uint256",
          "name": "",
          "type": "uint256"
        }
      ],
      "stateMutability": "view",
      "type": "function"
    },
    {
      "inputs": [],
      "name": "massUpdatePools",
      "outputs": [],
      "stateMutability": "nonpayable",
      "type": "function"
    },
    {
      "inputs": [],
      "name": "owner",
      "outputs": [
        {
          "internalType": "address",
          "name": "",
          "type": "address"
        }
      ],
      "stateMutability": "view",
      "type": "function"
    },
    {
      "inputs": [
        {
          "internalType": "uint256",
          "name": "_pid",
          "type": "uint256"
        },
        {
          "internalType": "address",
          "name": "_user",
          "type": "address"
        }
      ],
      "name": "pendingStargate",
      "outputs": [
        {
          "internalType": "uint256",
          "name": "",
          "type": "uint256"
        }
      ],
      "stateMutability": "view",
      "type": "function"
    },
    {
      "inputs": [
        {
          "internalType": "uint256",
          "name": "",
          "type": "uint256"
        }
      ],
      "name": "poolInfo",
      "outputs": [
        {
          "internalType": "contract IERC20",
          "name": "lpToken",
          "type": "address"
        },
        {
          "internalType": "uint256",
          "name": "allocPoint",
          "type": "uint256"
        },
        {
          "internalType": "uint256",
          "name": "lastRewardBlock",
          "type": "uint256"
        },
        {
          "internalType": "uint256",
          "name": "accStargatePerShare",
          "type": "uint256"
        }
      ],
      "stateMutability": "view",
      "type": "function"
    },
    {
      "inputs": [],
      "name": "poolLength",
      "outputs": [
        {
          "internalType": "uint256",
          "name": "",
          "type": "uint256"
        }
      ],
      "stateMutability": "view",
      "type": "function"
    },
    {
      "inputs": [],
      "name": "renounceOwnership",
      "outputs": [],
      "stateMutability": "nonpayable",
      "type": "function"
    },
    {
      "inputs": [
        {
          "internalType": "uint256",
          "name": "_pid",
          "type": "uint256"
        },
        {
          "internalType": "uint256",
          "name": "_allocPoint",
          "type": "uint256"
        }
      ],
      "name": "set",
      "outputs": [],
      "stateMutability": "nonpayable",
      "type": "function"
    },
    {
      "inputs": [
        {
          "internalType": "uint256",
          "name": "_stargatePerBlock",
          "type": "uint256"
        }
      ],
      "name": "setStargatePerBlock",
      "outputs": [],
      "stateMutability": "nonpayable",
      "type": "function"
    },
    {
      "inputs": [],
      "name": "stargate",
      "outputs": [
        {
          "internalType": "contract StargateToken",
          "name": "",
          "type": "address"
        }
      ],
      "stateMutability": "view",
      "type": "function"
    },
    {
      "inputs": [],
      "name": "stargatePerBlock",
      "outputs": [
        {
          "internalType": "uint256",
          "name": "",
          "type": "uint256"
        }
      ],
      "stateMutability": "view",
      "type": "function"
    },
    {
      "inputs": [],
      "name": "startBlock",
      "outputs": [
        {
          "internalType": "uint256",
          "name": "",
          "type": "uint256"
        }
      ],
      "stateMutability": "view",
      "type": "function"
    },
    {
      "inputs": [],
      "name": "totalAllocPoint",
      "outputs": [
        {
          "internalType": "uint256",
          "name": "",
          "type": "uint256"
        }
      ],
      "stateMutability": "view",
      "type": "function"
    },
    {
      "inputs": [
        {
          "internalType": "address",
          "name": "newOwner",
          "type": "address"
        }
      ],
      "name": "transferOwnership",
      "outputs": [],
      "stateMutability": "nonpayable",
      "type": "function"
    },
    {
      "inputs": [
        {
          "internalType": "uint256",
          "name": "_pid",
          "type": "uint256"
        }
      ],
      "name": "updatePool",
      "outputs": [],
      "stateMutability": "nonpayable",
      "type": "function"
    },
    {
      "inputs": [
        {
          "internalType": "uint256",
          "name": "",
          "type": "uint256"
        },
        {
          "internalType": "address",
          "name": "",
          "type": "address"
        }
      ],
      "name": "userInfo",
      "outputs": [
        {
          "internalType": "uint256",
          "name": "amount",
          "type": "uint256"
        },
        {
          "internalType": "uint256",
          "name": "rewardDebt",
          "type": "uint256"
        }
      ],
      "stateMutability": "view",
      "type": "function"
    },
    {
      "inputs": [
        {
          "internalType": "uint256",
          "name": "_pid",
          "type": "uint256"
        },
        {
          "internalType": "uint256",
          "name": "_amount",
          "type": "uint256"
        }
      ],
      "name": "withdraw",
      "outputs": [],
      "stateMutability": "nonpayable",
      "type": "function"
    }
  ],
  "transactionHash": "0x8b0f5945089acff5b500e47572a423daa8c957e385027ca473253a5d95844d66",
  "args": [
    "0x11796C0fEfF58EF5dDed0d07157299326aD67F28",
    "6365880964292240000",
    7839094,
    7839094
  ],
  "numDeployments": 1,
  "solcInputHash": "0e6b9aad51c0b59f143dcbdfbd90a328",
  "bytecode": "0x608060405260006008553480156200001657600080fd5b50604051620019a2380380620019a2833981810160405260808110156200003c57600080fd5b508051602082015160408301516060909301519192909160006200005f620001a5565b600080546001600160a01b0319166001600160a01b0383169081178255604051929350917f8be0079c531659141344cd1fd0a4f28419497f9722a3daafe3b4186f6b6457e0908290a35043821015620000ea5760405162461bcd60e51b815260040180806020018281038252602f81526020018062001973602f913960400191505060405180910390fd5b818110156200012b5760405162461bcd60e51b81526004018080602001828103825260348152602001806200193f6034913960400191505060405180910390fd5b6001600160a01b038416620001725760405162461bcd60e51b81526004018080602001828103825260218152602001806200191e6021913960400191505060405180910390fd5b600180546001600160a01b0319166001600160a01b039590951694909417909355600391909155600955600255620001a9565b3390565b61176580620001b96000396000f3fe608060405234801561001057600080fd5b506004361061014d5760003560e01c806351eb05a6116100c35780638da5cb5b1161007c5780638da5cb5b146103215780638dbb1e3a1461032957806393f1a40b1461034c57806398c03a7214610391578063e2bbb15814610399578063f2fde38b146103bc5761014d565b806351eb05a6146102ab5780635312ea8e146102c8578063630b5ba1146102e55780636c099dee146102ed578063715018a6146103115780638aa28550146103195761014d565b80631aed6553116101155780631aed6553146102035780632b8bbbe81461020b5780632f607fdd146102375780633497070614610263578063441a3e701461028057806348cd4cb1146102a35761014d565b80630328e32f14610152578063081e3eda146101815780631526fe271461018957806317caf6f1146101d65780631ab06ee5146101de575b600080fd5b61016f6004803603602081101561016857600080fd5b50356103e2565b60408051918252519081900360200190f35b61016f6103f4565b6101a66004803603602081101561019f57600080fd5b50356103fa565b604080516001600160a01b0390951685526020850193909352838301919091526060830152519081900360800190f35b61016f61043e565b610201600480360360408110156101f457600080fd5b5080359060200135610444565b005b61016f610518565b6102016004803603604081101561022157600080fd5b50803590602001356001600160a01b031661051e565b61016f6004803603604081101561024d57600080fd5b50803590602001356001600160a01b0316610770565b6102016004803603602081101561027957600080fd5b50356108f4565b6102016004803603604081101561029657600080fd5b5080359060200135610963565b61016f610ae3565b610201600480360360208110156102c157600080fd5b5035610ae9565b610201600480360360208110156102de57600080fd5b5035610c20565b610201610cea565b6102f5610d0d565b604080516001600160a01b039092168252519081900360200190f35b610201610d1c565b61016f610d80565b6102f5610d85565b61016f6004803603604081101561033f57600080fd5b5080359060200135610d94565b6103786004803603604081101561036257600080fd5b50803590602001356001600160a01b0316610dfa565b6040805192835260208301919091528051918290030190f35b61016f610e1e565b610201600480360360408110156103af57600080fd5b5080359060200135610e24565b610201600480360360208110156103d257600080fd5b50356001600160a01b0316610f57565b60056020526000908152604090205481565b60065490565b6006818154811061040a57600080fd5b600091825260209091206004909102018054600182015460028301546003909301546001600160a01b039092169350919084565b60085481565b61044c611059565b6001600160a01b031661045d610d85565b6001600160a01b0316146104a6576040805162461bcd60e51b815260206004820181905260248201526000805160206116e6833981519152604482015290519081900360640190fd5b6104ae610cea565b6104eb816104e5600685815481106104c257fe5b90600052602060002090600402016001015460085461105d90919063ffffffff16565b906110ba565b60088190555080600683815481106104ff57fe5b9060005260206000209060040201600101819055505050565b60025481565b610526611059565b6001600160a01b0316610537610d85565b6001600160a01b031614610580576040805162461bcd60e51b815260206004820181905260248201526000805160206116e6833981519152604482015290519081900360640190fd5b610588610cea565b6001600160a01b0381166105e3576040805162461bcd60e51b815260206004820152601d60248201527f53746172476174653a206c70546f6b656e2063616e7420626520307830000000604482015290519081900360640190fd5b6001600160a01b03811660009081526004602052604090205460ff161561063b5760405162461bcd60e51b81526004018080602001828103825260218152602001806116586021913960400191505060405180910390fd5b6001600160a01b0381166000908152600460205260408120805460ff19166001179055600954431161066f57600954610671565b435b60085490915061068190846110ba565b600855604080516080810182526001600160a01b0393841681526020810194855290810191825260006060820181815260068054600181018255925291517ff652222313e28459528d920b65115c16c04f3efc82aaedc97be59f3f377c0d3f600490920291820180546001600160a01b031916919095161790935592517ff652222313e28459528d920b65115c16c04f3efc82aaedc97be59f3f377c0d40830155517ff652222313e28459528d920b65115c16c04f3efc82aaedc97be59f3f377c0d4182015590517ff652222313e28459528d920b65115c16c04f3efc82aaedc97be59f3f377c0d4290910155565b6000806006848154811061078057fe5b600091825260208083208784526007825260408085206001600160a01b03898116875290845281862060049586029093016003810154815484516370a0823160e01b81523098810198909852935191985093969395939492909116926370a08231926024808301939192829003018186803b1580156107fe57600080fd5b505afa158015610812573d6000803e3d6000fd5b505050506040513d602081101561082857600080fd5b505160028501549091504311801561083f57508015155b801561084d57506000600854115b156108b9576000610862856002015443610d94565b9050600061089560085461088f88600101546108896003548761111b90919063ffffffff16565b9061111b565b90611174565b90506108b46108ad8461088f8464e8d4a5100061111b565b85906110ba565b935050505b6108e783600101546108e164e8d4a5100061088f86886000015461111b90919063ffffffff16565b9061105d565b9450505050505b92915050565b6108fc611059565b6001600160a01b031661090d610d85565b6001600160a01b031614610956576040805162461bcd60e51b815260206004820181905260248201526000805160206116e6833981519152604482015290519081900360640190fd5b61095e610cea565b600355565b60006006838154811061097257fe5b6000918252602080832086845260078252604080852033865290925292208054600490920290920192508311156109f0576040805162461bcd60e51b815260206004820152601e60248201527f77697468647261773a205f616d6f756e7420697320746f6f206c617267650000604482015290519081900360640190fd5b6109f984610ae9565b6000610a2782600101546108e164e8d4a5100061088f8760030154876000015461111b90919063ffffffff16565b9050610a3333826111db565b8154610a3f908561105d565b8083556003840154610a5c9164e8d4a510009161088f919061111b565b60018301558254610a77906001600160a01b031633866112af565b600085815260056020526040902054610a90908561105d565b6000868152600560209081526040918290209290925580518681529051879233927ff279e6a1f5e320cca91135676d9cb6e44ca8a08c0b88342bcdb1144f6511b568929081900390910190a35050505050565b60095481565b600060068281548110610af857fe5b9060005260206000209060040201905080600201544311610b195750610c1d565b8054604080516370a0823160e01b815230600482015290516000926001600160a01b0316916370a08231916024808301926020929190829003018186803b158015610b6357600080fd5b505afa158015610b77573d6000803e3d6000fd5b505050506040513d6020811015610b8d57600080fd5b50519050801580610b9e5750600854155b15610bb0575043600290910155610c1d565b6000610bc0836002015443610d94565b90506000610be760085461088f86600101546108896003548761111b90919063ffffffff16565b9050610c0a610bff8461088f8464e8d4a5100061111b565b6003860154906110ba565b6003850155505043600290920191909155505b50565b600060068281548110610c2f57fe5b600091825260208083208584526007825260408085203380875293528420805485825560018201959095556004909302018054909450919291610c7f916001600160a01b039190911690836112af565b600084815260056020526040902054610c98908261105d565b6000858152600560209081526040918290209290925580518381529051869233927fbb757047c2b5f3974fe26b7c10f732e7bce710b0952a71082702781e62ae0595929081900390910190a350505050565b60065460005b81811015610d0957610d0181610ae9565b600101610cf0565b5050565b6001546001600160a01b031681565b610d24611059565b6001600160a01b0316610d35610d85565b6001600160a01b031614610d7e576040805162461bcd60e51b815260206004820181905260248201526000805160206116e6833981519152604482015290519081900360640190fd5b565b600181565b6000546001600160a01b031690565b60006002548211610db557610dae6001610889848661105d565b90506108ee565b6002548310610dc857610dae828461105d565b610dae610de06002548461105d90919063ffffffff16565b6104e560016108898760025461105d90919063ffffffff16565b60076020908152600092835260408084209091529082529020805460019091015482565b60035481565b600060068381548110610e3357fe5b60009182526020808320868452600782526040808520338652909252922060049091029091019150610e6484610ae9565b805415610ea7576000610e9982600101546108e164e8d4a5100061088f8760030154876000015461111b90919063ffffffff16565b9050610ea533826111db565b505b8154610ebe906001600160a01b0316333086611301565b8054610eca90846110ba565b8082556003830154610ee79164e8d4a510009161088f919061111b565b6001820155600084815260056020526040902054610f0590846110ba565b6000858152600560209081526040918290209290925580518581529051869233927f90890809c654f11d6e72a28fa60149770a0d11ec6c92319d6ceb2bb0a4ea1a15929081900390910190a350505050565b610f5f611059565b6001600160a01b0316610f70610d85565b6001600160a01b031614610fb9576040805162461bcd60e51b815260206004820181905260248201526000805160206116e6833981519152604482015290519081900360640190fd5b6001600160a01b038116610ffe5760405162461bcd60e51b81526004018080602001828103825260268152602001806116796026913960400191505060405180910390fd5b600080546040516001600160a01b03808516939216917f8be0079c531659141344cd1fd0a4f28419497f9722a3daafe3b4186f6b6457e091a3600080546001600160a01b0319166001600160a01b0392909216919091179055565b3390565b6000828211156110b4576040805162461bcd60e51b815260206004820152601e60248201527f536166654d6174683a207375627472616374696f6e206f766572666c6f770000604482015290519081900360640190fd5b50900390565b600082820183811015611114576040805162461bcd60e51b815260206004820152601b60248201527f536166654d6174683a206164646974696f6e206f766572666c6f770000000000604482015290519081900360640190fd5b9392505050565b60008261112a575060006108ee565b8282028284828161113757fe5b04146111145760405162461bcd60e51b81526004018080602001828103825260218152602001806116c56021913960400191505060405180910390fd5b60008082116111ca576040805162461bcd60e51b815260206004820152601a60248201527f536166654d6174683a206469766973696f6e206279207a65726f000000000000604482015290519081900360640190fd5b8183816111d357fe5b049392505050565b600154604080516370a0823160e01b815230600482015290516000926001600160a01b0316916370a08231916024808301926020929190829003018186803b15801561122657600080fd5b505afa15801561123a573d6000803e3d6000fd5b505050506040513d602081101561125057600080fd5b50519050818110156112935760405162461bcd60e51b815260040180806020018281038252602981526020018061162f6029913960400191505060405180910390fd5b6001546112aa906001600160a01b031684846112af565b505050565b604080516001600160a01b038416602482015260448082018490528251808303909101815260649091019091526020810180516001600160e01b031663a9059cbb60e01b1790526112aa908490611361565b604080516001600160a01b0380861660248301528416604482015260648082018490528251808303909101815260849091019091526020810180516001600160e01b03166323b872dd60e01b17905261135b908590611361565b50505050565b60006113b6826040518060400160405280602081526020017f5361666545524332303a206c6f772d6c6576656c2063616c6c206661696c6564815250856001600160a01b03166114129092919063ffffffff16565b8051909150156112aa578080602001905160208110156113d557600080fd5b50516112aa5760405162461bcd60e51b815260040180806020018281038252602a815260200180611706602a913960400191505060405180910390fd5b60606114218484600085611429565b949350505050565b60608247101561146a5760405162461bcd60e51b815260040180806020018281038252602681526020018061169f6026913960400191505060405180910390fd5b61147385611584565b6114c4576040805162461bcd60e51b815260206004820152601d60248201527f416464726573733a2063616c6c20746f206e6f6e2d636f6e7472616374000000604482015290519081900360640190fd5b600080866001600160a01b031685876040518082805190602001908083835b602083106115025780518252601f1990920191602091820191016114e3565b6001836020036101000a03801982511681845116808217855250505050505090500191505060006040518083038185875af1925050503d8060008114611564576040519150601f19603f3d011682016040523d82523d6000602084013e611569565b606091505b509150915061157982828661158a565b979650505050505050565b3b151590565b60608315611599575081611114565b8251156115a95782518084602001fd5b8160405162461bcd60e51b81526004018080602001828103825283818151815260200191508051906020019080838360005b838110156115f35781810151838201526020016115db565b50505050905090810190601f1680156116205780820380516001836020036101000a031916815260200191505b509250505060405180910390fdfe4c505374616b696e673a20737461726761746542616c206d757374206265203e3d205f616d6f756e7453746172476174653a205f6c70546f6b656e20616c7265616479206578697374734f776e61626c653a206e6577206f776e657220697320746865207a65726f2061646472657373416464726573733a20696e73756666696369656e742062616c616e636520666f722063616c6c536166654d6174683a206d756c7469706c69636174696f6e206f766572666c6f774f776e61626c653a2063616c6c6572206973206e6f7420746865206f776e65725361666545524332303a204552433230206f7065726174696f6e20646964206e6f742073756363656564a2646970667358221220f7d0ef35dde8daabba9de7b3d4c39c8dd81533643cd90f51049890120d659ea064736f6c6343000706003353746172676174653a205f73746172676174652063616e6e6f74206265203078304c505374616b696e673a205f626f6e7573456e64426c6f636b206d757374206265203e207468616e205f7374617274426c6f636b4c505374616b696e673a205f7374617274426c6f636b206d757374206265203e3d2063757272656e7420626c6f636b",
  "devdoc": {
    "kind": "dev",
    "methods": {
      "add(uint256,address)": {
        "params": {
          "_allocPoint": "The alloc point is used as the weight of the pool against all other alloc points added.",
          "_lpToken": "The lp token address"
        }
      },
      "emergencyWithdraw(uint256)": {
        "params": {
          "_pid": "The pid specifies the pool"
        }
      },
      "owner()": {
        "details": "Returns the address of the current owner."
      },
      "renounceOwnership()": {
        "details": "Leaves the contract without owner. It will not be possible to call `onlyOwner` functions anymore. Can only be called by the current owner. NOTE: Renouncing ownership will leave the contract without an owner, thereby removing any functionality that is only available to the owner."
      },
      "transferOwnership(address)": {
        "details": "Transfers ownership of the contract to a new account (`newOwner`). Can only be called by the current owner."
      }
    },
    "version": 1
  },
  "userdoc": {
    "kind": "user",
    "methods": {
      "add(uint256,address)": {
        "notice": "handles adding a new LP token (Can only be called by the owner)"
      },
      "emergencyWithdraw(uint256)": {
        "notice": "Withdraw without caring about rewards."
      }
    },
    "version": 1
  },
  "storageLayout": {
    "storage": [
      {
        "astId": 197,
        "contract": "contracts/LPStaking.sol:LPStaking",
        "label": "_owner",
        "offset": 0,
        "slot": "0",
        "type": "t_address"
      },
      {
        "astId": 4486,
        "contract": "contracts/LPStaking.sol:LPStaking",
        "label": "stargate",
        "offset": 0,
        "slot": "1",
        "type": "t_contract(StargateToken)11779"
      },
      {
        "astId": 4488,
        "contract": "contracts/LPStaking.sol:LPStaking",
        "label": "bonusEndBlock",
        "offset": 0,
        "slot": "2",
        "type": "t_uint256"
      },
      {
        "astId": 4490,
        "contract": "contracts/LPStaking.sol:LPStaking",
        "label": "stargatePerBlock",
        "offset": 0,
        "slot": "3",
        "type": "t_uint256"
      },
      {
        "astId": 4497,
        "contract": "contracts/LPStaking.sol:LPStaking",
        "label": "addedLPTokens",
        "offset": 0,
        "slot": "4",
        "type": "t_mapping(t_address,t_bool)"
      },
      {
        "astId": 4501,
        "contract": "contracts/LPStaking.sol:LPStaking",
        "label": "lpBalances",
        "offset": 0,
        "slot": "5",
        "type": "t_mapping(t_uint256,t_uint256)"
      },
      {
        "astId": 4504,
        "contract": "contracts/LPStaking.sol:LPStaking",
        "label": "poolInfo",
        "offset": 0,
        "slot": "6",
        "type": "t_array(t_struct(PoolInfo)4484_storage)dyn_storage"
      },
      {
        "astId": 4510,
        "contract": "contracts/LPStaking.sol:LPStaking",
        "label": "userInfo",
        "offset": 0,
        "slot": "7",
        "type": "t_mapping(t_uint256,t_mapping(t_address,t_struct(UserInfo)4475_storage))"
      },
      {
        "astId": 4513,
        "contract": "contracts/LPStaking.sol:LPStaking",
        "label": "totalAllocPoint",
        "offset": 0,
        "slot": "8",
        "type": "t_uint256"
      },
      {
        "astId": 4515,
        "contract": "contracts/LPStaking.sol:LPStaking",
        "label": "startBlock",
        "offset": 0,
        "slot": "9",
        "type": "t_uint256"
      }
    ],
    "types": {
      "t_address": {
        "encoding": "inplace",
        "label": "address",
        "numberOfBytes": "20"
      },
      "t_array(t_struct(PoolInfo)4484_storage)dyn_storage": {
        "base": "t_struct(PoolInfo)4484_storage",
        "encoding": "dynamic_array",
        "label": "struct LPStaking.PoolInfo[]",
        "numberOfBytes": "32"
      },
      "t_bool": {
        "encoding": "inplace",
        "label": "bool",
        "numberOfBytes": "1"
      },
      "t_contract(IERC20)1235": {
        "encoding": "inplace",
        "label": "contract IERC20",
        "numberOfBytes": "20"
      },
      "t_contract(StargateToken)11779": {
        "encoding": "inplace",
        "label": "contract StargateToken",
        "numberOfBytes": "20"
      },
      "t_mapping(t_address,t_bool)": {
        "encoding": "mapping",
        "key": "t_address",
        "label": "mapping(address => bool)",
        "numberOfBytes": "32",
        "value": "t_bool"
      },
      "t_mapping(t_address,t_struct(UserInfo)4475_storage)": {
        "encoding": "mapping",
        "key": "t_address",
        "label": "mapping(address => struct LPStaking.UserInfo)",
        "numberOfBytes": "32",
        "value": "t_struct(UserInfo)4475_storage"
      },
      "t_mapping(t_uint256,t_mapping(t_address,t_struct(UserInfo)4475_storage))": {
        "encoding": "mapping",
        "key": "t_uint256",
        "label": "mapping(uint256 => mapping(address => struct LPStaking.UserInfo))",
        "numberOfBytes": "32",
        "value": "t_mapping(t_address,t_struct(UserInfo)4475_storage)"
      },
      "t_mapping(t_uint256,t_uint256)": {
        "encoding": "mapping",
        "key": "t_uint256",
        "label": "mapping(uint256 => uint256)",
        "numberOfBytes": "32",
        "value": "t_uint256"
      },
      "t_struct(PoolInfo)4484_storage": {
        "encoding": "inplace",
        "label": "struct LPStaking.PoolInfo",
        "members": [
          {
            "astId": 4477,
            "contract": "contracts/LPStaking.sol:LPStaking",
            "label": "lpToken",
            "offset": 0,
            "slot": "0",
            "type": "t_contract(IERC20)1235"
          },
          {
            "astId": 4479,
            "contract": "contracts/LPStaking.sol:LPStaking",
            "label": "allocPoint",
            "offset": 0,
            "slot": "1",
            "type": "t_uint256"
          },
          {
            "astId": 4481,
            "contract": "contracts/LPStaking.sol:LPStaking",
            "label": "lastRewardBlock",
            "offset": 0,
            "slot": "2",
            "type": "t_uint256"
          },
          {
            "astId": 4483,
            "contract": "contracts/LPStaking.sol:LPStaking",
            "label": "accStargatePerShare",
            "offset": 0,
            "slot": "3",
            "type": "t_uint256"
          }
        ],
        "numberOfBytes": "128"
      },
      "t_struct(UserInfo)4475_storage": {
        "encoding": "inplace",
        "label": "struct LPStaking.UserInfo",
        "members": [
          {
            "astId": 4472,
            "contract": "contracts/LPStaking.sol:LPStaking",
            "label": "amount",
            "offset": 0,
            "slot": "0",
            "type": "t_uint256"
          },
          {
            "astId": 4474,
            "contract": "contracts/LPStaking.sol:LPStaking",
            "label": "rewardDebt",
            "offset": 0,
            "slot": "1",
            "type": "t_uint256"
          }
        ],
        "numberOfBytes": "64"
      },
      "t_uint256": {
        "encoding": "inplace",
        "label": "uint256",
        "numberOfBytes": "32"
      }
    }
  }
}