{
  "address": "0xE6612eB143e4B350d55aA2E229c80b15CA336413",
  "abi": [
    {
      "inputs": [],
      "stateMutability": "nonpayable",
      "type": "constructor"
    },
    {
      "anonymous": false,
      "inputs": [
        {
          "indexed": false,
          "internalType": "uint16",
          "name": "chainId",
          "type": "uint16"
        },
        {
          "indexed": false,
          "internalType": "bytes",
          "name": "srcAddress",
          "type": "bytes"
        },
        {
          "indexed": false,
          "internalType": "uint256",
          "name": "nonce",
          "type": "uint256"
        },
        {
          "indexed": false,
          "internalType": "address",
          "name": "token",
          "type": "address"
        },
        {
          "indexed": false,
          "internalType": "uint256",
          "name": "amountLD",
          "type": "uint256"
        },
        {
          "indexed": false,
          "internalType": "address",
          "name": "to",
          "type": "address"
        },
        {
          "indexed": false,
          "internalType": "bytes",
          "name": "payload",
          "type": "bytes"
        },
        {
          "indexed": false,
          "internalType": "bytes",
          "name": "reason",
          "type": "bytes"
        }
      ],
      "name": "CachedSwapSaved",
      "type": "event"
    },
    {
      "anonymous": false,
      "inputs": [
        {
          "indexed": true,
          "internalType": "address",
          "name": "previousOwner",
          "type": "address"
        },
        {
          "indexed": true,
          "internalType": "address",
          "name": "newOwner",
          "type": "address"
        }
      ],
      "name": "OwnershipTransferred",
      "type": "event"
    },
    {
      "anonymous": false,
      "inputs": [
        {
          "indexed": false,
          "internalType": "uint16",
          "name": "srcChainId",
          "type": "uint16"
        },
        {
          "indexed": true,
          "internalType": "bytes",
          "name": "srcAddress",
          "type": "bytes"
        },
        {
          "indexed": true,
          "internalType": "uint256",
          "name": "nonce",
          "type": "uint256"
        },
        {
          "indexed": false,
          "internalType": "uint256",
          "name": "srcPoolId",
          "type": "uint256"
        },
        {
          "indexed": false,
          "internalType": "uint256",
          "name": "dstPoolId",
          "type": "uint256"
        },
        {
          "indexed": false,
          "internalType": "address",
          "name": "to",
          "type": "address"
        },
        {
          "indexed": false,
          "internalType": "uint256",
          "name": "amountSD",
          "type": "uint256"
        },
        {
          "indexed": false,
          "internalType": "uint256",
          "name": "mintAmountSD",
          "type": "uint256"
        }
      ],
      "name": "RedeemLocalCallback",
      "type": "event"
    },
    {
      "anonymous": false,
      "inputs": [
        {
          "indexed": false,
          "internalType": "uint8",
          "name": "bridgeFunctionType",
          "type": "uint8"
        },
        {
          "indexed": false,
          "internalType": "uint16",
          "name": "chainId",
          "type": "uint16"
        },
        {
          "indexed": false,
          "internalType": "bytes",
          "name": "srcAddress",
          "type": "bytes"
        },
        {
          "indexed": false,
          "internalType": "uint256",
          "name": "nonce",
          "type": "uint256"
        }
      ],
      "name": "Revert",
      "type": "event"
    },
    {
      "anonymous": false,
      "inputs": [
        {
          "indexed": false,
          "internalType": "uint16",
          "name": "srcChainId",
          "type": "uint16"
        },
        {
          "indexed": false,
          "internalType": "uint256",
          "name": "_srcPoolId",
          "type": "uint256"
        },
        {
          "indexed": false,
          "internalType": "uint256",
          "name": "_dstPoolId",
          "type": "uint256"
        },
        {
          "indexed": false,
          "internalType": "bytes",
          "name": "to",
          "type": "bytes"
        },
        {
          "indexed": false,
          "internalType": "uint256",
          "name": "redeemAmountSD",
          "type": "uint256"
        },
        {
          "indexed": false,
          "internalType": "uint256",
          "name": "mintAmountSD",
          "type": "uint256"
        },
        {
          "indexed": true,
          "internalType": "uint256",
          "name": "nonce",
          "type": "uint256"
        },
        {
          "indexed": true,
          "internalType": "bytes",
          "name": "srcAddress",
          "type": "bytes"
        }
      ],
      "name": "RevertRedeemLocal",
      "type": "event"
    },
    {
      "inputs": [
        {
          "internalType": "uint256",
          "name": "_poolId",
          "type": "uint256"
        },
        {
          "internalType": "uint16",
          "name": "_dstChainId",
          "type": "uint16"
        },
        {
          "internalType": "uint256",
          "name": "_dstPoolId",
          "type": "uint256"
        }
      ],
      "name": "activateChainPath",
      "outputs": [],
      "stateMutability": "nonpayable",
      "type": "function"
    },
    {
      "inputs": [
        {
          "internalType": "uint256",
          "name": "_poolId",
          "type": "uint256"
        },
        {
          "internalType": "uint256",
          "name": "_amountLD",
          "type": "uint256"
        },
        {
          "internalType": "address",
          "name": "_to",
          "type": "address"
        }
      ],
      "name": "addLiquidity",
      "outputs": [],
      "stateMutability": "nonpayable",
      "type": "function"
    },
    {
      "inputs": [],
      "name": "bridge",
      "outputs": [
        {
          "internalType": "contract Bridge",
          "name": "",
          "type": "address"
        }
      ],
      "stateMutability": "view",
      "type": "function"
    },
    {
      "inputs": [
        {
          "internalType": "uint16",
          "name": "",
          "type": "uint16"
        },
        {
          "internalType": "bytes",
          "name": "",
          "type": "bytes"
        },
        {
          "internalType": "uint256",
          "name": "",
          "type": "uint256"
        }
      ],
      "name": "cachedSwapLookup",
      "outputs": [
        {
          "internalType": "address",
          "name": "token",
          "type": "address"
        },
        {
          "internalType": "uint256",
          "name": "amountLD",
          "type": "uint256"
        },
        {
          "internalType": "address",
          "name": "to",
          "type": "address"
        },
        {
          "internalType": "bytes",
          "name": "payload",
          "type": "bytes"
        }
      ],
      "stateMutability": "view",
      "type": "function"
    },
    {
      "inputs": [
        {
          "internalType": "uint256",
          "name": "_poolId",
          "type": "uint256"
        },
        {
          "internalType": "bool",
          "name": "_fullMode",
          "type": "bool"
        }
      ],
      "name": "callDelta",
      "outputs": [],
      "stateMutability": "nonpayable",
      "type": "function"
    },
    {
      "inputs": [
        {
          "internalType": "uint16",
          "name": "_srcChainId",
          "type": "uint16"
        },
        {
          "internalType": "bytes",
          "name": "_srcAddress",
          "type": "bytes"
        },
        {
          "internalType": "uint256",
          "name": "_nonce",
          "type": "uint256"
        }
      ],
      "name": "clearCachedSwap",
      "outputs": [],
      "stateMutability": "nonpayable",
      "type": "function"
    },
    {
      "inputs": [
        {
          "internalType": "uint256",
          "name": "_poolId",
          "type": "uint256"
        },
        {
          "internalType": "uint16",
          "name": "_dstChainId",
          "type": "uint16"
        },
        {
          "internalType": "uint256",
          "name": "_dstPoolId",
          "type": "uint256"
        },
        {
          "internalType": "uint256",
          "name": "_weight",
          "type": "uint256"
        }
      ],
      "name": "createChainPath",
      "outputs": [],
      "stateMutability": "nonpayable",
      "type": "function"
    },
    {
      "inputs": [
        {
          "internalType": "uint256",
          "name": "_poolId",
          "type": "uint256"
        },
        {
          "internalType": "address",
          "name": "_token",
          "type": "address"
        },
        {
          "internalType": "uint8",
          "name": "_sharedDecimals",
          "type": "uint8"
        },
        {
          "internalType": "uint8",
          "name": "_localDecimals",
          "type": "uint8"
        },
        {
          "internalType": "string",
          "name": "_name",
          "type": "string"
        },
        {
          "internalType": "string",
          "name": "_symbol",
          "type": "string"
        }
      ],
      "name": "createPool",
      "outputs": [
        {
          "internalType": "address",
          "name": "",
          "type": "address"
        }
      ],
      "stateMutability": "nonpayable",
      "type": "function"
    },
    {
      "inputs": [
        {
          "internalType": "uint16",
          "name": "_dstChainId",
          "type": "uint16"
        },
        {
          "internalType": "uint256",
          "name": "_dstPoolId",
          "type": "uint256"
        },
        {
          "internalType": "uint256",
          "name": "_srcPoolId",
          "type": "uint256"
        },
        {
          "components": [
            {
              "internalType": "uint256",
              "name": "credits",
              "type": "uint256"
            },
            {
              "internalType": "uint256",
              "name": "idealBalance",
              "type": "uint256"
            }
          ],
          "internalType": "struct Pool.CreditObj",
          "name": "_c",
          "type": "tuple"
        }
      ],
      "name": "creditChainPath",
      "outputs": [],
      "stateMutability": "nonpayable",
      "type": "function"
    },
    {
      "inputs": [],
      "name": "factory",
      "outputs": [
        {
          "internalType": "contract Factory",
          "name": "",
          "type": "address"
        }
      ],
      "stateMutability": "view",
      "type": "function"
    },
    {
      "inputs": [
        {
          "internalType": "uint16",
          "name": "_srcPoolId",
          "type": "uint16"
        },
        {
          "internalType": "uint256",
          "name": "_amountLP",
          "type": "uint256"
        },
        {
          "internalType": "address",
          "name": "_to",
          "type": "address"
        }
      ],
      "name": "instantRedeemLocal",
      "outputs": [
        {
          "internalType": "uint256",
          "name": "amountSD",
          "type": "uint256"
        }
      ],
      "stateMutability": "nonpayable",
      "type": "function"
    },
    {
      "inputs": [],
      "name": "mintFeeOwner",
      "outputs": [
        {
          "internalType": "address",
          "name": "",
          "type": "address"
        }
      ],
      "stateMutability": "view",
      "type": "function"
    },
    {
      "inputs": [],
      "name": "owner",
      "outputs": [
        {
          "internalType": "address",
          "name": "",
          "type": "address"
        }
      ],
      "stateMutability": "view",
      "type": "function"
    },
    {
      "inputs": [],
      "name": "protocolFeeOwner",
      "outputs": [
        {
          "internalType": "address",
          "name": "",
          "type": "address"
        }
      ],
      "stateMutability": "view",
      "type": "function"
    },
    {
      "inputs": [
        {
          "internalType": "uint16",
          "name": "_dstChainId",
          "type": "uint16"
        },
        {
          "internalType": "uint8",
          "name": "_functionType",
          "type": "uint8"
        },
        {
          "internalType": "bytes",
          "name": "_toAddress",
          "type": "bytes"
        },
        {
          "internalType": "bytes",
          "name": "_transferAndCallPayload",
          "type": "bytes"
        },
        {
          "components": [
            {
              "internalType": "uint256",
              "name": "dstGasForCall",
              "type": "uint256"
            },
            {
              "internalType": "uint256",
              "name": "dstNativeAmount",
              "type": "uint256"
            },
            {
              "internalType": "bytes",
              "name": "dstNativeAddr",
              "type": "bytes"
            }
          ],
          "internalType": "struct IStargateRouter.lzTxObj",
          "name": "_lzTxParams",
          "type": "tuple"
        }
      ],
      "name": "quoteLayerZeroFee",
      "outputs": [
        {
          "internalType": "uint256",
          "name": "",
          "type": "uint256"
        },
        {
          "internalType": "uint256",
          "name": "",
          "type": "uint256"
        }
      ],
      "stateMutability": "view",
      "type": "function"
    },
    {
      "inputs": [
        {
          "internalType": "uint16",
          "name": "_dstChainId",
          "type": "uint16"
        },
        {
          "internalType": "uint256",
          "name": "_srcPoolId",
          "type": "uint256"
        },
        {
          "internalType": "uint256",
          "name": "_dstPoolId",
          "type": "uint256"
        },
        {
          "internalType": "address payable",
          "name": "_refundAddress",
          "type": "address"
        },
        {
          "internalType": "uint256",
          "name": "_amountLP",
          "type": "uint256"
        },
        {
          "internalType": "bytes",
          "name": "_to",
          "type": "bytes"
        },
        {
          "components": [
            {
              "internalType": "uint256",
              "name": "dstGasForCall",
              "type": "uint256"
            },
            {
              "internalType": "uint256",
              "name": "dstNativeAmount",
              "type": "uint256"
            },
            {
              "internalType": "bytes",
              "name": "dstNativeAddr",
              "type": "bytes"
            }
          ],
          "internalType": "struct IStargateRouter.lzTxObj",
          "name": "_lzTxParams",
          "type": "tuple"
        }
      ],
      "name": "redeemLocal",
      "outputs": [],
      "stateMutability": "payable",
      "type": "function"
    },
    {
      "inputs": [
        {
          "internalType": "uint16",
          "name": "_srcChainId",
          "type": "uint16"
        },
        {
          "internalType": "bytes",
          "name": "_srcAddress",
          "type": "bytes"
        },
        {
          "internalType": "uint256",
          "name": "_nonce",
          "type": "uint256"
        },
        {
          "internalType": "uint256",
          "name": "_srcPoolId",
          "type": "uint256"
        },
        {
          "internalType": "uint256",
          "name": "_dstPoolId",
          "type": "uint256"
        },
        {
          "internalType": "address",
          "name": "_to",
          "type": "address"
        },
        {
          "internalType": "uint256",
          "name": "_amountSD",
          "type": "uint256"
        },
        {
          "internalType": "uint256",
          "name": "_mintAmountSD",
          "type": "uint256"
        }
      ],
      "name": "redeemLocalCallback",
      "outputs": [],
      "stateMutability": "nonpayable",
      "type": "function"
    },
    {
      "inputs": [
        {
          "internalType": "uint16",
          "name": "_srcChainId",
          "type": "uint16"
        },
        {
          "internalType": "bytes",
          "name": "_srcAddress",
          "type": "bytes"
        },
        {
          "internalType": "uint256",
          "name": "_nonce",
          "type": "uint256"
        },
        {
          "internalType": "uint256",
          "name": "_srcPoolId",
          "type": "uint256"
        },
        {
          "internalType": "uint256",
          "name": "_dstPoolId",
          "type": "uint256"
        },
        {
          "internalType": "uint256",
          "name": "_amountSD",
          "type": "uint256"
        },
        {
          "internalType": "bytes",
          "name": "_to",
          "type": "bytes"
        }
      ],
      "name": "redeemLocalCheckOnRemote",
      "outputs": [],
      "stateMutability": "nonpayable",
      "type": "function"
    },
    {
      "inputs": [
        {
          "internalType": "uint16",
          "name": "_dstChainId",
          "type": "uint16"
        },
        {
          "internalType": "uint256",
          "name": "_srcPoolId",
          "type": "uint256"
        },
        {
          "internalType": "uint256",
          "name": "_dstPoolId",
          "type": "uint256"
        },
        {
          "internalType": "address payable",
          "name": "_refundAddress",
          "type": "address"
        },
        {
          "internalType": "uint256",
          "name": "_amountLP",
          "type": "uint256"
        },
        {
          "internalType": "uint256",
          "name": "_minAmountLD",
          "type": "uint256"
        },
        {
          "internalType": "bytes",
          "name": "_to",
          "type": "bytes"
        },
        {
          "components": [
            {
              "internalType": "uint256",
              "name": "dstGasForCall",
              "type": "uint256"
            },
            {
              "internalType": "uint256",
              "name": "dstNativeAmount",
              "type": "uint256"
            },
            {
              "internalType": "bytes",
              "name": "dstNativeAddr",
              "type": "bytes"
            }
          ],
          "internalType": "struct IStargateRouter.lzTxObj",
          "name": "_lzTxParams",
          "type": "tuple"
        }
      ],
      "name": "redeemRemote",
      "outputs": [],
      "stateMutability": "payable",
      "type": "function"
    },
    {
      "inputs": [],
      "name": "renounceOwnership",
      "outputs": [],
      "stateMutability": "nonpayable",
      "type": "function"
    },
    {
      "inputs": [
        {
          "internalType": "uint16",
          "name": "_srcChainId",
          "type": "uint16"
        },
        {
          "internalType": "bytes",
          "name": "_srcAddress",
          "type": "bytes"
        },
        {
          "internalType": "uint256",
          "name": "_nonce",
          "type": "uint256"
        }
      ],
      "name": "retryRevert",
      "outputs": [],
      "stateMutability": "payable",
      "type": "function"
    },
    {
      "inputs": [
        {
          "internalType": "uint16",
          "name": "",
          "type": "uint16"
        },
        {
          "internalType": "bytes",
          "name": "",
          "type": "bytes"
        },
        {
          "internalType": "uint256",
          "name": "",
          "type": "uint256"
        }
      ],
      "name": "revertLookup",
      "outputs": [
        {
          "internalType": "bytes",
          "name": "",
          "type": "bytes"
        }
      ],
      "stateMutability": "view",
      "type": "function"
    },
    {
      "inputs": [
        {
          "internalType": "uint16",
          "name": "_dstChainId",
          "type": "uint16"
        },
        {
          "internalType": "bytes",
          "name": "_srcAddress",
          "type": "bytes"
        },
        {
          "internalType": "uint256",
          "name": "_nonce",
          "type": "uint256"
        },
        {
          "internalType": "address payable",
          "name": "_refundAddress",
          "type": "address"
        },
        {
          "components": [
            {
              "internalType": "uint256",
              "name": "dstGasForCall",
              "type": "uint256"
            },
            {
              "internalType": "uint256",
              "name": "dstNativeAmount",
              "type": "uint256"
            },
            {
              "internalType": "bytes",
              "name": "dstNativeAddr",
              "type": "bytes"
            }
          ],
          "internalType": "struct IStargateRouter.lzTxObj",
          "name": "_lzTxParams",
          "type": "tuple"
        }
      ],
      "name": "revertRedeemLocal",
      "outputs": [],
      "stateMutability": "payable",
      "type": "function"
    },
    {
      "inputs": [
        {
          "internalType": "uint16",
          "name": "_dstChainId",
          "type": "uint16"
        },
        {
          "internalType": "uint256",
          "name": "_srcPoolId",
          "type": "uint256"
        },
        {
          "internalType": "uint256",
          "name": "_dstPoolId",
          "type": "uint256"
        },
        {
          "internalType": "address payable",
          "name": "_refundAddress",
          "type": "address"
        }
      ],
      "name": "sendCredits",
      "outputs": [],
      "stateMutability": "payable",
      "type": "function"
    },
    {
      "inputs": [
        {
          "internalType": "contract Bridge",
          "name": "_bridge",
          "type": "address"
        },
        {
          "internalType": "contract Factory",
          "name": "_factory",
          "type": "address"
        }
      ],
      "name": "setBridgeAndFactory",
      "outputs": [],
      "stateMutability": "nonpayable",
      "type": "function"
    },
    {
      "inputs": [
        {
          "internalType": "uint256",
          "name": "_poolId",
          "type": "uint256"
        },
        {
          "internalType": "bool",
          "name": "_batched",
          "type": "bool"
        },
        {
          "internalType": "uint256",
          "name": "_swapDeltaBP",
          "type": "uint256"
        },
        {
          "internalType": "uint256",
          "name": "_lpDeltaBP",
          "type": "uint256"
        },
        {
          "internalType": "bool",
          "name": "_defaultSwapMode",
          "type": "bool"
        },
        {
          "internalType": "bool",
          "name": "_defaultLPMode",
          "type": "bool"
        }
      ],
      "name": "setDeltaParam",
      "outputs": [],
      "stateMutability": "nonpayable",
      "type": "function"
    },
    {
      "inputs": [
        {
          "internalType": "uint256",
          "name": "_poolId",
          "type": "uint256"
        },
        {
          "internalType": "address",
          "name": "_feeLibraryAddr",
          "type": "address"
        }
      ],
      "name": "setFeeLibrary",
      "outputs": [],
      "stateMutability": "nonpayable",
      "type": "function"
    },
    {
      "inputs": [
        {
          "internalType": "uint256",
          "name": "_poolId",
          "type": "uint256"
        },
        {
          "internalType": "uint256",
          "name": "_mintFeeBP",
          "type": "uint256"
        }
      ],
      "name": "setFees",
      "outputs": [],
      "stateMutability": "nonpayable",
      "type": "function"
    },
    {
      "inputs": [
        {
          "internalType": "address",
          "name": "_owner",
          "type": "address"
        }
      ],
      "name": "setMintFeeOwner",
      "outputs": [],
      "stateMutability": "nonpayable",
      "type": "function"
    },
    {
      "inputs": [
        {
          "internalType": "address",
          "name": "_owner",
          "type": "address"
        }
      ],
      "name": "setProtocolFeeOwner",
      "outputs": [],
      "stateMutability": "nonpayable",
      "type": "function"
    },
    {
      "inputs": [
        {
          "internalType": "uint256",
          "name": "_poolId",
          "type": "uint256"
        },
        {
          "internalType": "bool",
          "name": "_swapStop",
          "type": "bool"
        }
      ],
      "name": "setSwapStop",
      "outputs": [],
      "stateMutability": "nonpayable",
      "type": "function"
    },
    {
      "inputs": [
        {
          "internalType": "uint256",
          "name": "_poolId",
          "type": "uint256"
        },
        {
          "internalType": "uint16",
          "name": "_dstChainId",
          "type": "uint16"
        },
        {
          "internalType": "uint256",
          "name": "_dstPoolId",
          "type": "uint256"
        },
        {
          "internalType": "uint16",
          "name": "_weight",
          "type": "uint16"
        }
      ],
      "name": "setWeightForChainPath",
      "outputs": [],
      "stateMutability": "nonpayable",
      "type": "function"
    },
    {
      "inputs": [
        {
          "internalType": "uint16",
          "name": "_dstChainId",
          "type": "uint16"
        },
        {
          "internalType": "uint256",
          "name": "_srcPoolId",
          "type": "uint256"
        },
        {
          "internalType": "uint256",
          "name": "_dstPoolId",
          "type": "uint256"
        },
        {
          "internalType": "address payable",
          "name": "_refundAddress",
          "type": "address"
        },
        {
          "internalType": "uint256",
          "name": "_amountLD",
          "type": "uint256"
        },
        {
          "internalType": "uint256",
          "name": "_minAmountLD",
          "type": "uint256"
        },
        {
          "components": [
            {
              "internalType": "uint256",
              "name": "dstGasForCall",
              "type": "uint256"
            },
            {
              "internalType": "uint256",
              "name": "dstNativeAmount",
              "type": "uint256"
            },
            {
              "internalType": "bytes",
              "name": "dstNativeAddr",
              "type": "bytes"
            }
          ],
          "internalType": "struct IStargateRouter.lzTxObj",
          "name": "_lzTxParams",
          "type": "tuple"
        },
        {
          "internalType": "bytes",
          "name": "_to",
          "type": "bytes"
        },
        {
          "internalType": "bytes",
          "name": "_payload",
          "type": "bytes"
        }
      ],
      "name": "swap",
      "outputs": [],
      "stateMutability": "payable",
      "type": "function"
    },
    {
      "inputs": [
        {
          "internalType": "uint16",
          "name": "_srcChainId",
          "type": "uint16"
        },
        {
          "internalType": "bytes",
          "name": "_srcAddress",
          "type": "bytes"
        },
        {
          "internalType": "uint256",
          "name": "_nonce",
          "type": "uint256"
        },
        {
          "internalType": "uint256",
          "name": "_srcPoolId",
          "type": "uint256"
        },
        {
          "internalType": "uint256",
          "name": "_dstPoolId",
          "type": "uint256"
        },
        {
          "internalType": "uint256",
          "name": "_dstGasForCall",
          "type": "uint256"
        },
        {
          "internalType": "address",
          "name": "_to",
          "type": "address"
        },
        {
          "components": [
            {
              "internalType": "uint256",
              "name": "amount",
              "type": "uint256"
            },
            {
              "internalType": "uint256",
              "name": "eqFee",
              "type": "uint256"
            },
            {
              "internalType": "uint256",
              "name": "eqReward",
              "type": "uint256"
            },
            {
              "internalType": "uint256",
              "name": "lpFee",
              "type": "uint256"
            },
            {
              "internalType": "uint256",
              "name": "protocolFee",
              "type": "uint256"
            },
            {
              "internalType": "uint256",
              "name": "lkbRemove",
              "type": "uint256"
            }
          ],
          "internalType": "struct Pool.SwapObj",
          "name": "_s",
          "type": "tuple"
        },
        {
          "internalType": "bytes",
          "name": "_payload",
          "type": "bytes"
        }
      ],
      "name": "swapRemote",
      "outputs": [],
      "stateMutability": "nonpayable",
      "type": "function"
    },
    {
      "inputs": [
        {
          "internalType": "address",
          "name": "newOwner",
          "type": "address"
        }
      ],
      "name": "transferOwnership",
      "outputs": [],
      "stateMutability": "nonpayable",
      "type": "function"
    },
    {
      "inputs": [
        {
          "internalType": "uint256",
          "name": "_poolId",
          "type": "uint256"
        },
        {
          "internalType": "address",
          "name": "_to",
          "type": "address"
        }
      ],
      "name": "withdrawMintFee",
      "outputs": [],
      "stateMutability": "nonpayable",
      "type": "function"
    },
    {
      "inputs": [
        {
          "internalType": "uint256",
          "name": "_poolId",
          "type": "uint256"
        },
        {
          "internalType": "address",
          "name": "_to",
          "type": "address"
        }
      ],
      "name": "withdrawProtocolFee",
      "outputs": [],
      "stateMutability": "nonpayable",
      "type": "function"
    }
  ],
  "transactionHash": "0x99ce4904395d939de65a5eb4517ca9ea949cbd1ba6ffb1441749001f16258c2a",
  "args": [],
  "numDeployments": 1,
  "solcInputHash": "77dc0a461aa289ada2299af7d9288435",
  "bytecode": "0x60806040523480156200001157600080fd5b5060006200001e62000072565b600080546001600160a01b0319166001600160a01b0383169081178255604051929350917f8be0079c531659141344cd1fd0a4f28419497f9722a3daafe3b4186f6b6457e0908290a3506001805562000076565b3390565b6151af80620000866000396000f3fe60806040526004361061021a5760003560e01c806387b21efc11610123578063c45a0155116100ab578063cefbdde21161006f578063cefbdde2146105dd578063da133a06146105fd578063e78cea921461062a578063f2fde38b1461063f578063fba6e2801461065f5761021a565b8063c45a01551461053b578063c4de93a514610550578063c6a276241461057d578063c7d968e31461059d578063c8adf12d146105bd5761021a565b80639ba3aa74116100f25780639ba3aa74146104cb5780639fbf10fc146104de578063a18fa804146104f1578063a96fbed414610511578063af640d82146105265761021a565b806387b21efc146104635780638da5cb5b146104835780638f2e1d181461049857806398e391a1146104ab5761021a565b806343a30630116101a6578063715018a611610175578063715018a6146103ce5780637af935a1146103e35780637b84d287146104105780637f7212981461043057806384d0dba3146104505761021a565b806343a30630146103685780635500585c1461038857806360a3b95c146103a85780636a7982da146103bb5761021a565b806323fd4647116101ed57806323fd4647146102b85780632f925555146102e857806334aba41014610308578063403a9f7a14610328578063424c9119146103485761021a565b80630403bce51461021f5780630a512369146102415780630b78f9c01461027857806316fb60f514610298575b600080fd5b34801561022b57600080fd5b5061023f61023a366004613af8565b61067f565b005b34801561024d57600080fd5b5061026161025c366004613ebb565b6108eb565b60405161026f929190614f12565b60405180910390f35b34801561028457600080fd5b5061023f610293366004614179565b61098b565b3480156102a457600080fd5b5061023f6102b336600461413f565b610a5e565b3480156102c457600080fd5b506102d86102d33660046138f5565b610b2c565b60405161026f94939291906144c9565b3480156102f457600080fd5b5061023f6103033660046139d7565b610c0b565b34801561031457600080fd5b5061023f61032336600461371d565b610c46565b34801561033457600080fd5b5061023f61034336600461380b565b610cf0565b34801561035457600080fd5b5061023f610363366004613771565b610f23565b34801561037457600080fd5b5061023f610383366004614060565b61103d565b34801561039457600080fd5b5061023f6103a3366004613f85565b61111c565b61023f6103b636600461380b565b611180565b61023f6103c9366004613862565b6113fd565b3480156103da57600080fd5b5061023f6116ae565b3480156103ef57600080fd5b506104036103fe366004613fa9565b61175a565b60405161026f9190614411565b34801561041c57600080fd5b5061023f61042b3660046140fa565b61187d565b34801561043c57600080fd5b5061023f61044b366004613949565b61191d565b61023f61045e366004613cc0565b611961565b34801561046f57600080fd5b5061023f61047e3660046141bd565b611c96565b34801561048f57600080fd5b50610403611e81565b61023f6104a6366004613c1b565b611e90565b3480156104b757600080fd5b5061023f6104c636600461403c565b6120b1565b61023f6104d9366004613bd4565b61214d565b61023f6104ec366004613d5f565b6122c5565b3480156104fd57600080fd5b5061023f61050c366004613e3f565b61261a565b34801561051d57600080fd5b50610403612682565b34801561053257600080fd5b50610403612691565b34801561054757600080fd5b506104036126a0565b34801561055c57600080fd5b5061057061056b366004613b95565b6126af565b60405161026f9190614ebc565b34801561058957600080fd5b5061023f610598366004613f85565b6127ba565b3480156105a957600080fd5b5061023f6105b83660046140c6565b612856565b3480156105c957600080fd5b5061023f6105d8366004613f85565b612922565b3480156105e957600080fd5b5061023f6105f836600461371d565b612986565b34801561060957600080fd5b5061061d6106183660046138f5565b612a30565b60405161026f9190614530565b34801561063657600080fd5b50610403612aed565b34801561064b57600080fd5b5061023f61065a36600461371d565b612afc565b34801561066b57600080fd5b5061023f61067a36600461403c565b612bfe565b6005546001600160a01b031633146106b25760405162461bcd60e51b81526004016106a990614611565b60405180910390fd5b60006106bd85612c38565b604051637544f15560e11b81529091506001600160a01b0382169063ea89e2aa906106f0908c908a908990600401614c12565b6040805180830381600087803b15801561070957600080fd5b505af1925050508015610739575060408051601f3d908101601f191682019092526107369181019061419a565b60015b6108025760018686600087878760405160200161075c9796959493929190614f8d565b60408051601f1981840301815282825261ffff8c166000908152600660205291909120909161078c908b906143f5565b9081526020016040518091039020600089815260200190815260200160002090805190602001906107be929190613495565b507fa5d2ba6de30cc2f2e91c5a29ba66b148c27826954217e2f67cb8983541da21cf60018a8a8a6040516107f59493929190614f20565b60405180910390a16108e0565b60018888848489896040516020016108209796959493929190615014565b60408051601f1981840301815282825261ffff8e1660009081526006602052919091209091610850908d906143f5565b908152602001604051809103902060008b81526020019081526020016000209080519060200190610882929190613495565b508960405161089191906143f5565b6040518091039020897f6ace246fa15cf1d5decabf654b1e8581a4422e0fcf4c1ed4bf83f41687caec198d8b8b8a8a89896040516108d59796959493929190614e2e565b60405180910390a350505b505050505050505050565b600554604051630a51236960e01b815260009182916001600160a01b0390911690630a5123699061092c908c908c908c908c908c908c908c90600401614e6e565b604080518083038186803b15801561094357600080fd5b505afa158015610957573d6000803e3d6000fd5b505050506040513d601f19601f8201168201806040525081019061097b919061419a565b9150915097509795505050505050565b610993612ce6565b6001600160a01b03166109a4611e81565b6001600160a01b0316146109ed576040805162461bcd60e51b8152602060048201819052602482015260008051602061515a833981519152604482015290519081900360640190fd5b60006109f883612c38565b6040516369fe0e2d60e01b81529091506001600160a01b038216906369fe0e2d90610a27908590600401614ebc565b600060405180830381600087803b158015610a4157600080fd5b505af1158015610a55573d6000803e3d6000fd5b50505050505050565b610a66612ce6565b6001600160a01b0316610a77611e81565b6001600160a01b031614610ac0576040805162461bcd60e51b8152602060048201819052602482015260008051602061515a833981519152604482015290519081900360640190fd5b6000610acb85612c38565b6040516320d6bc7560e01b81529091506001600160a01b038216906320d6bc7590610afe90879087908790600401614c12565b600060405180830381600087803b158015610b1857600080fd5b505af11580156108e0573d6000803e3d6000fd5b600760209081526000938452604080852084518086018401805192815290840195840195909520945292815290835291819020805460018083015460028085015460038601805488516101009682161596909602600019011692909204601f81018990048902850189019097528684526001600160a01b03948516979296941694939091830182828015610c015780601f10610bd657610100808354040283529160200191610c01565b820191906000526020600020905b815481529060010190602001808311610be457829003601f168201915b5050505050905084565b6005546001600160a01b03163314610c355760405162461bcd60e51b81526004016106a990614611565b6108e0898989898989898989612cea565b610c4e612ce6565b6001600160a01b0316610c5f611e81565b6001600160a01b031614610ca8576040805162461bcd60e51b8152602060048201819052602482015260008051602061515a833981519152604482015290519081900360640190fd5b6001600160a01b038116610cce5760405162461bcd60e51b81526004016106a990614822565b600380546001600160a01b0319166001600160a01b0392909216919091179055565b61ffff84166000908152600760205260408082209051610d1390869086906143e5565b9081526040805160209281900383018120600086815290845282902060808201835280546001600160a01b039081168352600180830154868501526002808401549092168486015260038301805486516101009382161593909302600019011692909204601f810187900487028201870190955284815292949193606086019392830182828015610de55780601f10610dba57610100808354040283529160200191610de5565b820191906000526020600020905b815481529060010190602001808311610dc857829003601f168201915b5050509190925250505060408101519091506001600160a01b0316610e1c5760405162461bcd60e51b81526004016106a990614859565b604080516080810182526000808252602080830182905282840182905283518082018552828152606084015261ffff89168252600790528290209151909190610e6890879087906143e5565b90815260408051602092819003830190206000868152908352819020835181546001600160a01b03199081166001600160a01b0392831617835585850151600184015592850151600283018054909416911617909155606083015180519192610ed992600385019290910190613495565b505050604080820151825160208401516060850151935163ab8236f360e01b81526001600160a01b039093169363ab8236f393610afe938b938b938b938b939291906004016149c6565b610f2b612ce6565b6001600160a01b0316610f3c611e81565b6001600160a01b031614610f85576040805162461bcd60e51b8152602060048201819052602482015260008051602061515a833981519152604482015290519081900360640190fd5b6005546001600160a01b0316158015610fa757506002546001600160a01b0316155b610fc35760405162461bcd60e51b81526004016106a990614543565b6001600160a01b038216610fe95760405162461bcd60e51b81526004016106a99061475b565b6001600160a01b03811661100f5760405162461bcd60e51b81526004016106a9906146ed565b600580546001600160a01b039384166001600160a01b03199182161790915560028054929093169116179055565b611045612ce6565b6001600160a01b0316611056611e81565b6001600160a01b03161461109f576040805162461bcd60e51b8152602060048201819052602482015260008051602061515a833981519152604482015290519081900360640190fd5b60006110aa87612c38565b60405163e065608b60e01b81529091506001600160a01b0382169063e065608b906110e19089908990899089908990600401614507565b600060405180830381600087803b1580156110fb57600080fd5b505af115801561110f573d6000803e3d6000fd5b5050505050505050505050565b6004546001600160a01b031633146111465760405162461bcd60e51b81526004016106a990614648565b600061115183612c38565b60405163011dbbf960e61b81529091506001600160a01b0382169063476efe4090610a27908590600401614411565b61ffff841660009081526006602052604080822090516111a390869086906143e5565b90815260408051602092819003830181206000868152908452829020805460026001821615610100026000190190911604601f8101859004850283018501909352828252909290919083018282801561123d5780601f106112125761010080835404028352916020019161123d565b820191906000526020600020905b81548152906001019060200180831161122057829003601f168201915b5050505050905060008151116112655760405162461bcd60e51b81526004016106a99061467f565b6040805160208082018352600080835261ffff891681526006909152829020915190919061129690879087906143e5565b9081526020016040518091039020600084815260200190815260200160002090805190602001906112c8929190613495565b50602081015160ff811660021415611353576000806000806000868060200190518101906112f691906141ea565b95509550955095509550506113498b8b8b8080601f0160208091040260200160405190810160405280939291908181526020018383808284376000920191909152508d92508a9150899050888888613152565b50505050506113f5565b60ff8116600314156113dd576000806000806000808780602001905181019061137c9190614249565b965096509650965096509650506113d28c8c8c8080601f0160208091040260200160405190810160405280939291908181526020018383808284376000920191909152508e92508b91508a905089898989612cea565b5050505050506113f5565b60405162461bcd60e51b81526004016106a9906148c7565b505050505050565b6001600160a01b0382166114235760405162461bcd60e51b81526004016106a990614935565b61ffff8616600090815260066020526040808220905161144690889088906143e5565b90815260408051602092819003830181206000888152908452829020805460026001821615610100026000190190911604601f810185900485028301850190935282825290929091908301828280156114e05780601f106114b5576101008083540402835291602001916114e0565b820191906000526020600020905b8154815290600101906020018083116114c357829003601f168201915b5050505050905060008151116115085760405162461bcd60e51b81526004016106a99061467f565b602081015160ff81166001146115305760405162461bcd60e51b81526004016106a9906148c7565b506040805160208082018352600080835261ffff8b1681526006909152829020915190919061156290899089906143e5565b908152602001604051809103902060008681526020019081526020016000209080519060200190611594929190613495565b50604081015160608201516115a7613521565b60006115b283612c38565b604051630474ec6160e11b81529091506001600160a01b038216906308e9d8c2906115e3908e908890600401614af4565b6040805180830381600087803b1580156115fc57600080fd5b505af1158015611610573d6000803e3d6000fd5b505050506040513d601f19601f8201168201806040525081019061163491906137a9565b6005546040516396aae4af60e01b81529193506001600160a01b031691506396aae4af903490611670908e908b9087908c908c9060040161497b565b6000604051808303818588803b15801561168957600080fd5b505af115801561169d573d6000803e3d6000fd5b505050505050505050505050505050565b6116b6612ce6565b6001600160a01b03166116c7611e81565b6001600160a01b031614611710576040805162461bcd60e51b8152602060048201819052602482015260008051602061515a833981519152604482015290519081900360640190fd5b600080546040516001600160a01b03909116907f8be0079c531659141344cd1fd0a4f28419497f9722a3daafe3b4186f6b6457e0908390a3600080546001600160a01b0319169055565b6000611764612ce6565b6001600160a01b0316611775611e81565b6001600160a01b0316146117be576040805162461bcd60e51b8152602060048201819052602482015260008051602061515a833981519152604482015290519081900360640190fd5b6001600160a01b0386166117e45760405162461bcd60e51b81526004016106a990614593565b600254604051637af935a160e01b81526001600160a01b0390911690637af935a19061181e908a908a908a908a908a908a90600401614ec5565b602060405180830381600087803b15801561183857600080fd5b505af115801561184c573d6000803e3d6000fd5b505050506040513d601f19601f820116820180604052508101906118709190613739565b90505b9695505050505050565b611885612ce6565b6001600160a01b0316611896611e81565b6001600160a01b0316146118df576040805162461bcd60e51b8152602060048201819052602482015260008051602061515a833981519152604482015290519081900360640190fd5b60006118ea85612c38565b60405163a985565f60e01b81529091506001600160a01b0382169063a985565f90610afe90879087908790600401614bf4565b6005546001600160a01b031633146119475760405162461bcd60e51b81526004016106a990614611565b6119578888888888888888613152565b5050505050505050565b600260015414156119a7576040805162461bcd60e51b815260206004820152601f60248201526000805160206150f3833981519152604482015290519081900360640190fd5b60026001556001600160a01b0386166119d25760405162461bcd60e51b81526004016106a990614935565b600085116119f25760405162461bcd60e51b81526004016106a9906145ca565b6119fa61353b565b611a02613521565b6000611a0d8b612c38565b90506000816001600160a01b031663f6cd35ee8a6040518263ffffffff1660e01b8152600401611a3d9190614ebc565b60206040518083038186803b158015611a5557600080fd5b505afa158015611a69573d6000803e3d6000fd5b505050506040513d601f19601f82011682018060405250810190611a8d9190613f6d565b9050816001600160a01b0316631b7319b68e8d33858d60006040518763ffffffff1660e01b8152600401611ac696959493929190614b32565b60c060405180830381600087803b158015611ae057600080fd5b505af1158015611af4573d6000803e3d6000fd5b505050506040513d601f19601f82011682018060405250810190611b1891906137f0565b9350816001600160a01b0316637298a5dc8e8d338d6040518563ffffffff1660e01b8152600401611b4c9493929190614b08565b600060405180830381600087803b158015611b6657600080fd5b505af1158015611b7a573d6000803e3d6000fd5b50505050816001600160a01b03166308e9d8c28e8d6040518363ffffffff1660e01b8152600401611bac929190614af4565b6040805180830381600087803b158015611bc557600080fd5b505af1158015611bd9573d6000803e3d6000fd5b505050506040513d601f19601f82011682018060405250810190611bfd91906137a9565b92505050600560009054906101000a90046001600160a01b03166001600160a01b03166351156e73348d8d8d8d87898b8e8e6040518b63ffffffff1660e01b8152600401611c5399989796959493929190614cf7565b6000604051808303818588803b158015611c6c57600080fd5b505af1158015611c80573d6000803e3d6000fd5b5050600180555050505050505050505050505050565b60026001541415611cdc576040805162461bcd60e51b815260206004820152601f60248201526000805160206150f3833981519152604482015290519081900360640190fd5b60026001556000611cec84612c38565b90506000816001600160a01b031663feb56b156040518163ffffffff1660e01b815260040160206040518083038186803b158015611d2957600080fd5b505afa158015611d3d573d6000803e3d6000fd5b505050506040513d601f19601f82011682018060405250810190611d619190613f6d565b9050611d7781611d7186826132e4565b9061334d565b9350611df5826001600160a01b031663fc0c546a6040518163ffffffff1660e01b815260040160206040518083038186803b158015611db557600080fd5b505afa158015611dc9573d6000803e3d6000fd5b505050506040513d601f19601f82011682018060405250810190611ded9190613739565b3384876133ad565b6040516340c10f1960e01b81526001600160a01b038316906340c10f1990611e2390869088906004016144b0565b602060405180830381600087803b158015611e3d57600080fd5b505af1158015611e51573d6000803e3d6000fd5b505050506040513d601f19601f82011682018060405250810190611e759190613f6d565b50506001805550505050565b6000546001600160a01b031690565b60026001541415611ed6576040805162461bcd60e51b815260206004820152601f60248201526000805160206150f3833981519152604482015290519081900360640190fd5b60026001556001600160a01b038516611f015760405162461bcd60e51b81526004016106a990614935565b6000611f0c88612c38565b905060008511611f2e5760405162461bcd60e51b81526004016106a990614792565b604051632c3eac2f60e21b81526000906001600160a01b0383169063b0fab0bc90611f679033908a908f908e908c908c90600401614448565b602060405180830381600087803b158015611f8157600080fd5b505af1158015611f95573d6000803e3d6000fd5b505050506040513d601f19601f82011682018060405250810190611fb99190613f6d565b905060008111611fdb5760405162461bcd60e51b81526004016106a9906147d3565b604051630474ec6160e11b81526000906001600160a01b038416906308e9d8c29061200c908e908d90600401614af4565b6040805180830381600087803b15801561202557600080fd5b505af1158015612039573d6000803e3d6000fd5b505050506040513d601f19601f8201168201806040525081019061205d91906137a9565b9050600560009054906101000a90046001600160a01b03166001600160a01b0316633cef94b9348d8d8d8d87898e8e8e6040518b63ffffffff1660e01b8152600401611c5399989796959493929190614d83565b6120b9612ce6565b6001600160a01b03166120ca611e81565b6001600160a01b031614612113576040805162461bcd60e51b8152602060048201819052602482015260008051602061515a833981519152604482015290519081900360640190fd5b600061211e83612c38565b60405163ac2cc36b60e01b81529091506001600160a01b0382169063ac2cc36b90610a279085906004016144fc565b60026001541415612193576040805162461bcd60e51b815260206004820152601f60248201526000805160206150f3833981519152604482015290519081900360640190fd5b60026001556001600160a01b0381166121be5760405162461bcd60e51b81526004016106a990614935565b60006121c984612c38565b90506000816001600160a01b03166308e9d8c287866040518363ffffffff1660e01b81526004016121fb929190614af4565b6040805180830381600087803b15801561221457600080fd5b505af1158015612228573d6000803e3d6000fd5b505050506040513d601f19601f8201168201806040525081019061224c91906137a9565b600554604051632fa7502b60e21b81529192506001600160a01b03169063be9d40ac903490612287908a908a908a908a908990600401614c2e565b6000604051808303818588803b1580156122a057600080fd5b505af11580156122b4573d6000803e3d6000fd5b505060018055505050505050505050565b6002600154141561230b576040805162461bcd60e51b815260206004820152601f60248201526000805160206150f3833981519152604482015290519081900360640190fd5b60026001558661232d5760405162461bcd60e51b81526004016106a990614890565b6001600160a01b0388166123535760405162461bcd60e51b81526004016106a990614935565b61235b61353b565b612363613521565b600061236e8d612c38565b90506000816001600160a01b031663feb56b156040518163ffffffff1660e01b815260040160206040518083038186803b1580156123ab57600080fd5b505afa1580156123bf573d6000803e3d6000fd5b505050506040513d601f19601f820116820180604052508101906123e39190613f6d565b90506123f381611d718d826132e4565b9a5050806001600160a01b0316631b7319b68f8e338e8e60016040518763ffffffff1660e01b815260040161242d96959493929190614b32565b60c060405180830381600087803b15801561244757600080fd5b505af115801561245b573d6000803e3d6000fd5b505050506040513d601f19601f8201168201806040525081019061247f91906137f0565b92506124fd816001600160a01b031663fc0c546a6040518163ffffffff1660e01b815260040160206040518083038186803b1580156124bd57600080fd5b505afa1580156124d1573d6000803e3d6000fd5b505050506040513d601f19601f820116820180604052508101906124f59190613739565b33838d6133ad565b806001600160a01b03166308e9d8c28f8e6040518363ffffffff1660e01b815260040161252b929190614af4565b6040805180830381600087803b15801561254457600080fd5b505af1158015612558573d6000803e3d6000fd5b505050506040513d601f19601f8201168201806040525081019061257c91906137a9565b915050600560009054906101000a90046001600160a01b03166001600160a01b03166351156e73348f8f8f8f87898f8f8f8f8f6040518d63ffffffff1660e01b81526004016125d59b9a99989796959493929190614c63565b6000604051808303818588803b1580156125ee57600080fd5b505af1158015612602573d6000803e3d6000fd5b50506001805550505050505050505050505050505050565b6005546001600160a01b031633146126445760405162461bcd60e51b81526004016106a990614611565b600061264f83612c38565b60405163b6addec760e01b81529091506001600160a01b0382169063b6addec790610afe90889088908790600401614bd5565b6003546001600160a01b031681565b6004546001600160a01b031681565b6002546001600160a01b031681565b6000600260015414156126f7576040805162461bcd60e51b815260206004820152601f60248201526000805160206150f3833981519152604482015290519081900360640190fd5b6002600155826127195760405162461bcd60e51b81526004016106a990614792565b60006127288561ffff16612c38565b6040516304c35b0d60e11b81529091506001600160a01b03821690630986b61a9061275b90339088908890600401614425565b602060405180830381600087803b15801561277557600080fd5b505af1158015612789573d6000803e3d6000fd5b505050506040513d601f19601f820116820180604052508101906127ad9190613f6d565b6001805595945050505050565b6127c2612ce6565b6001600160a01b03166127d3611e81565b6001600160a01b03161461281c576040805162461bcd60e51b8152602060048201819052602482015260008051602061515a833981519152604482015290519081900360640190fd5b600061282783612c38565b6040516312d72b2f60e21b81529091506001600160a01b03821690634b5cacbc90610a27908590600401614411565b61285e612ce6565b6001600160a01b031661286f611e81565b6001600160a01b0316146128b8576040805162461bcd60e51b8152602060048201819052602482015260008051602061515a833981519152604482015290519081900360640190fd5b60006128c384612c38565b6040516345ec368560e11b81529091506001600160a01b03821690638bd86d0a906128f49086908690600401614af4565b600060405180830381600087803b15801561290e57600080fd5b505af1158015611957573d6000803e3d6000fd5b6003546001600160a01b0316331461294c5760405162461bcd60e51b81526004016106a990614724565b600061295783612c38565b604051632f8c40a560e21b81529091506001600160a01b0382169063be31029490610a27908590600401614411565b61298e612ce6565b6001600160a01b031661299f611e81565b6001600160a01b0316146129e8576040805162461bcd60e51b8152602060048201819052602482015260008051602061515a833981519152604482015290519081900360640190fd5b6001600160a01b038116612a0e5760405162461bcd60e51b81526004016106a990614822565b600480546001600160a01b0319166001600160a01b0392909216919091179055565b6006602090815260009384526040808520845180860184018051928152908401958401959095209452928152908352918190208054825160026001831615610100026000190190921691909104601f810185900485028201850190935282815292909190830182828015612ae55780601f10612aba57610100808354040283529160200191612ae5565b820191906000526020600020905b815481529060010190602001808311612ac857829003601f168201915b505050505081565b6005546001600160a01b031681565b612b04612ce6565b6001600160a01b0316612b15611e81565b6001600160a01b031614612b5e576040805162461bcd60e51b8152602060048201819052602482015260008051602061515a833981519152604482015290519081900360640190fd5b6001600160a01b038116612ba35760405162461bcd60e51b81526004018080602001828103825260268152602001806151136026913960400191505060405180910390fd5b600080546040516001600160a01b03808516939216917f8be0079c531659141344cd1fd0a4f28419497f9722a3daafe3b4186f6b6457e091a3600080546001600160a01b0319166001600160a01b0392909216919091179055565b6000612c0983612c38565b604051637fb6526560e01b81529091506001600160a01b03821690637fb6526590610a279085906004016144fc565b60025460405163068bcd8d60e01b81526000916001600160a01b03169063068bcd8d90612c69908590600401614ebc565b60206040518083038186803b158015612c8157600080fd5b505afa158015612c95573d6000803e3d6000fd5b505050506040513d601f19601f82011682018060405250810190612cb99190613739565b90506001600160a01b038116612ce15760405162461bcd60e51b81526004016106a9906148fe565b919050565b3390565b6000612cf586612c38565b60405163902b8ab760e01b81529091506001600160a01b0382169063902b8ab790612d2a908d908b9089908990600401614b6b565b602060405180830381600087803b158015612d4457600080fd5b505af1925050508015612d74575060408051601f3d908101601f19168201909252612d7191810190613f6d565b60015b612e3c576003878787878787604051602001612d969796959493929190614fc5565b60408051601f1981840301815282825261ffff8d1660009081526006602052919091209091612dc6908c906143f5565b908152602001604051809103902060008a81526020019081526020016000209080519060200190612df8929190613495565b507fa5d2ba6de30cc2f2e91c5a29ba66b148c27826954217e2f67cb8983541da21cf60038b8b8b604051612e2f9493929190614f20565b60405180910390a1613146565b82511561110f57846001600160a01b031663ab8236f3878d8d8d876001600160a01b031663fc0c546a6040518163ffffffff1660e01b815260040160206040518083038186803b158015612e8f57600080fd5b505afa158015612ea3573d6000803e3d6000fd5b505050506040513d601f19601f82011682018060405250810190612ec79190613739565b878a6040518863ffffffff1660e01b8152600401612eea96959493929190614a9b565b600060405180830381600088803b158015612f0457600080fd5b5087f193505050508015612f16575060015b61110f573d808015612f44576040519150601f19603f3d011682016040523d82523d6000602084013e612f49565b606091505b506040518060800160405280846001600160a01b031663fc0c546a6040518163ffffffff1660e01b815260040160206040518083038186803b158015612f8e57600080fd5b505afa158015612fa2573d6000803e3d6000fd5b505050506040513d601f19601f82011682018060405250810190612fc69190613739565b6001600160a01b03168152602001838152602001876001600160a01b0316815260200185815250600760008e61ffff1661ffff1681526020019081526020016000208c60405161301691906143f5565b908152604080516020928190038301902060008e8152908352819020835181546001600160a01b03199081166001600160a01b039283161783558585015160018401559285015160028301805490941691161790915560608301518051919261308792600385019290910190613495565b509050507f8186389e97ff190cd5e17304ed8188a4a98a6c8add46e6df94462ac7f7e8dd348c8c8c866001600160a01b031663fc0c546a6040518163ffffffff1660e01b815260040160206040518083038186803b1580156130e857600080fd5b505afa1580156130fc573d6000803e3d6000fd5b505050506040513d601f19601f820116820180604052508101906131209190613739565b868b8a88604051613138989796959493929190614a21565b60405180910390a15061110f565b50505050505050505050565b600061315d85612c38565b604051632cc36bab60e21b81529091506001600160a01b0382169063b30daeac90613194908c908a90899089908990600401614ba3565b600060405180830381600087803b1580156131ae57600080fd5b505af19250505080156131bf575060015b61328157600286868686866040516020016131df96959493929190614f57565b60408051601f1981840301815282825261ffff8c166000908152600660205291909120909161320f908b906143f5565b908152602001604051809103902060008981526020019081526020016000209080519060200190613241929190613495565b507fa5d2ba6de30cc2f2e91c5a29ba66b148c27826954217e2f67cb8983541da21cf60028a8a8a6040516132789493929190614f20565b60405180910390a15b868860405161329091906143f5565b60405180910390207fc7379a02e530fbd0a46ea1ce6fd91987e96535798231a796bdc0e1a688a508738b89898989896040516132d196959493929190614df7565b60405180910390a3505050505050505050565b600080821161333a576040805162461bcd60e51b815260206004820152601a60248201527f536166654d6174683a206469766973696f6e206279207a65726f000000000000604482015290519081900360640190fd5b81838161334357fe5b0490505b92915050565b60008261335c57506000613347565b8282028284828161336957fe5b04146133a65760405162461bcd60e51b81526004018080602001828103825260218152602001806151396021913960400191505060405180910390fd5b9392505050565b600080856001600160a01b03166323b872dd8686866040516024016133d49392919061448c565b6040516020818303038152906040529060e01b6020820180516001600160e01b03838183161783525050505060405161340d91906143f5565b6000604051808303816000865af19150503d806000811461344a576040519150601f19603f3d011682016040523d82523d6000602084013e61344f565b606091505b50915091508180156134795750805115806134795750808060200190518101906134799190613755565b6113f55760405162461bcd60e51b81526004016106a9906146b6565b828054600181600116156101000203166002900490600052602060002090601f0160209004810192826134cb5760008555613511565b82601f106134e457805160ff1916838001178555613511565b82800160010185558215613511579182015b828111156135115782518255916020019190600101906134f6565b5061351d929150613571565b5090565b604051806040016040528060008152602001600081525090565b6040518060c001604052806000815260200160008152602001600081526020016000815260200160008152602001600081525090565b5b8082111561351d5760008155600101613572565b8035612ce1816150bd565b60008083601f8401126135a2578182fd5b5081356001600160401b038111156135b8578182fd5b6020830191508360208285010111156135d057600080fd5b9250929050565b600082601f8301126135e7578081fd5b81356135fa6135f58261506c565b615049565b81815284602083860101111561360e578283fd5b816020850160208301379081016020019190915292915050565b600060c08284031215613639578081fd5b60405160c081018181106001600160401b038211171561365557fe5b8060405250809150825181526020830151602082015260408301516040820152606083015160608201526080830151608082015260a083015160a08201525092915050565b6000606082840312156136ab578081fd5b604051606081016001600160401b0382821081831117156136c857fe5b81604052829350843583526020850135602084015260408501359150808211156136f157600080fd5b506136fe858286016135d7565b6040830152505092915050565b803561ffff81168114612ce157600080fd5b60006020828403121561372e578081fd5b81356133a6816150bd565b60006020828403121561374a578081fd5b81516133a6816150bd565b600060208284031215613766578081fd5b81516133a6816150d5565b60008060408385031215613783578081fd5b823561378e816150bd565b9150602083013561379e816150bd565b809150509250929050565b6000604082840312156137ba578081fd5b604051604081018181106001600160401b03821117156137d657fe5b604052825181526020928301519281019290925250919050565b600060c08284031215613801578081fd5b6133a68383613628565b60008060008060608587031215613820578182fd5b6138298561370b565b935060208501356001600160401b03811115613843578283fd5b61384f87828801613591565b9598909750949560400135949350505050565b60008060008060008060a0878903121561387a578384fd5b6138838761370b565b955060208701356001600160401b038082111561389e578586fd5b6138aa8a838b01613591565b909750955060408901359450606089013591506138c6826150bd565b909250608088013590808211156138db578283fd5b506138e889828a0161369a565b9150509295509295509295565b600080600060608486031215613909578081fd5b6139128461370b565b925060208401356001600160401b0381111561392c578182fd5b613938868287016135d7565b925050604084013590509250925092565b600080600080600080600080610100898b031215613965578586fd5b61396e8961370b565b975060208901356001600160401b03811115613988578687fd5b6139948b828c016135d7565b97505060408901359550606089013594506080890135935060a08901356139ba816150bd565b979a969950949793969295929450505060c08201359160e0013590565b6000806000806000806000806000898b036101c08112156139f6578384fd5b6139ff8b61370b565b995060208b01356001600160401b0380821115613a1a578586fd5b613a268e838f016135d7565b9a5060408d0135995060608d0135985060808d0135975060a08d0135965060c08d01359150613a54826150bd565b81955060c060df1984011215613a68578384fd5b604051925060c0830191508282108183111715613a8157fe5b8160405260e08d013583526101008d013560208401526101208d013560408401526101408d013560608401526101608d013560808401526101808d013560a08401528294506101a08d0135925080831115613ada578384fd5b5050613ae88c828d016135d7565b9150509295985092959850929598565b60008060008060008060008060e0898b031215613b13578182fd5b613b1c8961370b565b975060208901356001600160401b0380821115613b37578384fd5b613b438c838d016135d7565b985060408b0135975060608b0135965060808b0135955060a08b0135945060c08b0135915080821115613b74578384fd5b50613b818b828c01613591565b999c989b5096995094979396929594505050565b600080600060608486031215613ba9578081fd5b613bb28461370b565b9250602084013591506040840135613bc9816150bd565b809150509250925092565b60008060008060808587031215613be9578182fd5b613bf28561370b565b935060208501359250604085013591506060850135613c10816150bd565b939692955090935050565b60008060008060008060008060e0898b031215613c36578182fd5b613c3f8961370b565b975060208901359650604089013595506060890135613c5d816150bd565b94506080890135935060a08901356001600160401b0380821115613c7f578384fd5b613c8b8c838d01613591565b909550935060c08b0135915080821115613ca3578283fd5b50613cb08b828c0161369a565b9150509295985092959890939650565b60008060008060008060008060006101008a8c031215613cde578283fd5b613ce78a61370b565b985060208a0135975060408a0135965060608a0135613d05816150bd565b955060808a0135945060a08a0135935060c08a01356001600160401b0380821115613d2e578485fd5b613d3a8d838e01613591565b909550935060e08c0135915080821115613d52578283fd5b50613ae88c828d0161369a565b60008060008060008060008060008060006101208c8e031215613d80578485fd5b613d898c61370b565b9a5060208c0135995060408c01359850613da560608d01613586565b975060808c0135965060a08c013595506001600160401b038060c08e01351115613dcd578586fd5b613ddd8e60c08f01358f0161369a565b95508060e08e01351115613def578283fd5b613dff8e60e08f01358f01613591565b90955093506101008d0135811015613e15578283fd5b50613e278d6101008e01358e01613591565b81935080925050509295989b509295989b9093969950565b60008060008084860360a0811215613e55578283fd5b613e5e8661370b565b9450602086013593506040808701359350605f1982011215613e7e578182fd5b50604051604081018181106001600160401b0382111715613e9b57fe5b604052606086013581526080909501356020860152509194909350909190565b600080600080600080600060a0888a031215613ed5578081fd5b613ede8861370b565b96506020880135613eee816150e3565b955060408801356001600160401b0380821115613f09578283fd5b613f158b838c01613591565b909750955060608a0135915080821115613f2d578283fd5b613f398b838c01613591565b909550935060808a0135915080821115613f51578283fd5b50613f5e8a828b0161369a565b91505092959891949750929550565b600060208284031215613f7e578081fd5b5051919050565b60008060408385031215613f97578182fd5b82359150602083013561379e816150bd565b60008060008060008060c08789031215613fc1578384fd5b863595506020870135613fd3816150bd565b94506040870135613fe3816150e3565b93506060870135613ff3816150e3565b925060808701356001600160401b038082111561400e578384fd5b61401a8a838b016135d7565b935060a089013591508082111561402f578283fd5b506138e889828a016135d7565b6000806040838503121561404e578182fd5b82359150602083013561379e816150d5565b60008060008060008060c08789031215614078578384fd5b86359550602087013561408a816150d5565b9450604087013593506060870135925060808701356140a8816150d5565b915060a08701356140b8816150d5565b809150509295509295509295565b6000806000606084860312156140da578081fd5b833592506140ea6020850161370b565b9150604084013590509250925092565b6000806000806080858703121561410f578182fd5b8435935061411f6020860161370b565b9250604085013591506141346060860161370b565b905092959194509250565b60008060008060808587031215614154578182fd5b843593506141646020860161370b565b93969395505050506040820135916060013590565b6000806040838503121561418b578182fd5b50508035926020909101359150565b600080604083850312156141ac578182fd5b505080516020909101519092909150565b6000806000606084860312156141d1578081fd5b83359250602084013591506040840135613bc9816150bd565b60008060008060008060c08789031215614202578384fd5b865161420d816150e3565b809650506020870151945060408701519350606087015161422d816150bd565b809350506080870151915060a087015190509295509295509295565b6000806000806000806000610180888a031215614264578081fd5b875161426f816150e3565b809750506020880151955060408801519450606088015193506080880151614296816150bd565b92506142a58960a08a01613628565b91506101608801516001600160401b038111156142c0578182fd5b8801601f81018a136142d0578182fd5b80516142de6135f58261506c565b8181528b60208385010111156142f2578384fd5b61430382602083016020860161508d565b80935050505092959891949750929550565b60008284528282602086013780602084860101526020601f19601f85011685010190509392505050565b6000815180845261435781602086016020860161508d565b601f01601f19169290920160200192915050565b80518252602090810151910152565b805182526020810151602083015260408101516040830152606081015160608301526080810151608083015260a081015160a08301525050565b600081518352602082015160208401526040820151606060408501526143dd606085018261433f565b949350505050565b6000828483379101908152919050565b6000825161440781846020870161508d565b9190910192915050565b6001600160a01b0391909116815260200190565b6001600160a01b0393841681526020810192909252909116604082015260600190565b600060018060a01b038816825286602083015261ffff8616604083015284606083015260a0608083015261448060a083018486614315565b98975050505050505050565b6001600160a01b039384168152919092166020820152604081019190915260600190565b6001600160a01b03929092168252602082015260400190565b6001600160a01b03858116825260208201859052831660408201526080606082018190526000906118739083018461433f565b901515815260200190565b941515855260208501939093526040840191909152151560608301521515608082015260a00190565b6000602082526133a6602083018461433f565b60208082526030908201527f53746172676174653a2062726964676520616e6420666163746f727920616c7260408201526f1958591e481a5b9a5d1a585b1a5e995960821b606082015260800190565b6020808252601e908201527f53746172676174653a205f746f6b656e2063616e6e6f74206265203078300000604082015260600190565b60208082526027908201527f53746172676174653a206e6f7420656e6f756768206c7020746f2072656465656040820152666d52656d6f746560c81b606082015260800190565b6020808252601e908201527f4272696467653a2063616c6c6572206d757374206265204272696467652e0000604082015260600190565b6020808252601b908201527f53746172676174653a206f6e6c79206d696e744665654f776e65720000000000604082015260600190565b60208082526019908201527f53746172676174653a206e6f2072657472792072657665727400000000000000604082015260600190565b6020808252601e908201527f53746172676174653a205452414e534645525f46524f4d5f4641494c45440000604082015260600190565b6020808252601d908201527f53746172676174653a20666163746f72792063616e7420626520307830000000604082015260600190565b6020808252601f908201527f53746172676174653a206f6e6c792070726f746f636f6c4665654f776e657200604082015260600190565b6020808252601c908201527f53746172676174653a206272696467652063616e742062652030783000000000604082015260600190565b60208082526021908201527f53746172676174653a206e6f7420656e6f756768206c7020746f2072656465656040820152606d60f81b606082015260800190565b6020808252602f908201527f53746172676174653a206e6f7420656e6f756768206c7020746f20726564656560408201526e1b481dda5d1a08185b5bdd5b9d14d1608a1b606082015260800190565b6020808252601e908201527f53746172676174653a205f6f776e65722063616e6e6f74206265203078300000604082015260600190565b6020808252601f908201527f53746172676174653a20636163686520616c726561647920636c656172656400604082015260600190565b60208082526017908201527f53746172676174653a2063616e6e6f7420737761702030000000000000000000604082015260600190565b6020808252601f908201527f53746172676174653a20696e76616c69642066756e6374696f6e207479706500604082015260600190565b6020808252601d908201527f53746172676174653a20506f6f6c20646f6573206e6f74206578697374000000604082015260600190565b60208082526026908201527f53746172676174653a205f726566756e64416464726573732063616e6e6f742060408201526506265203078360d41b606082015260800190565b61ffff861681526001600160a01b038516602082015260006149a0604083018661436b565b60c060808301526149b460c08301856143b4565b82810360a0840152614480818561433f565b600061ffff8916825260c060208301526149e460c08301888a614315565b604083018790526001600160a01b03861660608401526080830185905282810360a0840152614a13818561433f565b9a9950505050505050505050565b600061010061ffff8b168352806020840152614a3f8184018b61433f565b604084018a90526001600160a01b03898116606086015260808501899052871660a085015283810360c08501529050614a78818661433f565b905082810360e0840152614a8c818561433f565b9b9a5050505050505050505050565b600061ffff8816825260c06020830152614ab860c083018861433f565b604083018790526001600160a01b03861660608401526080830185905282810360a0840152614ae7818561433f565b9998505050505050505050565b61ffff929092168252602082015260400190565b61ffff94909416845260208401929092526001600160a01b03166040830152606082015260800190565b61ffff96909616865260208601949094526001600160a01b0392909216604085015260608401526080830152151560a082015260c00190565b61ffff85168152602081018490526001600160a01b03831660408201526101208101614b9a606083018461437a565b95945050505050565b61ffff95909516855260208501939093526001600160a01b039190911660408401526060830152608082015260a00190565b61ffff8416815260208101839052608081016143dd604083018461436b565b61ffff93841681526020810192909252909116604082015260600190565b61ffff9390931683526020830191909152604082015260600190565b61ffff8616815260208101859052604081018490526001600160a01b038316606082015260c08101611873608083018461436b565b61ffff8c168152602081018b9052604081018a90526001600160a01b038916606082015260006101e0614c99608084018b61436b565b614ca660c084018a61437a565b80610180840152614cb9818401896143b4565b90508281036101a0840152614ccf818789614315565b90508281036101c0840152614ce5818587614315565b9e9d5050505050505050505050505050565b61ffff8a16815260208101899052604081018890526001600160a01b038716606082015260006101e0614d2d608084018961436b565b614d3a60c084018861437a565b80610180840152614d4d818401876143b4565b90508281036101a0840152614d63818587614315565b8381036101c0909401939093525081526020019998505050505050505050565b61ffff8a16815260208101899052604081018890526001600160a01b03871660608201526000610120614db9608084018961436b565b8660c08401528060e0840152614dd28184018688614315565b9050828103610100840152614de781856143b4565b9c9b505050505050505050505050565b61ffff969096168652602086019490945260408501929092526001600160a01b03166060840152608083015260a082015260c00190565b600061ffff8916825287602083015286604083015260c06060830152614e5860c083018688614315565b60808301949094525060a0015295945050505050565b600061ffff8916825260ff8816602083015260a06040830152614e9560a083018789614315565b8281036060840152614ea8818688614315565b90508281036080840152614a1381856143b4565b90815260200190565b8681526001600160a01b038616602082015260ff85811660408301528416606082015260c060808201819052600090614f009083018561433f565b82810360a0840152614ae7818561433f565b918252602082015260400190565b600060ff8616825261ffff8516602083015260806040830152614f46608083018561433f565b905082606083015295945050505050565b60ff969096168652602086019490945260408501929092526001600160a01b03166060840152608083015260a082015260c00190565b600060ff8916825287602083015286604083015260ff8616606083015284608083015260c060a0830152614ae760c083018486614315565b60ff881681526020810187905260408101869052606081018590526001600160a01b0384166080820152600061018061500160a084018661437a565b80610160840152614a138184018561433f565b600060ff8916825287602083015286604083015285606083015284608083015260c060a0830152614ae760c083018486614315565b6040518181016001600160401b038111828210171561506457fe5b604052919050565b60006001600160401b0382111561507f57fe5b50601f01601f191660200190565b60005b838110156150a8578181015183820152602001615090565b838111156150b7576000848401525b50505050565b6001600160a01b03811681146150d257600080fd5b50565b80151581146150d257600080fd5b60ff811681146150d257600080fdfe5265656e7472616e637947756172643a207265656e7472616e742063616c6c004f776e61626c653a206e6577206f776e657220697320746865207a65726f2061646472657373536166654d6174683a206d756c7469706c69636174696f6e206f766572666c6f774f776e61626c653a2063616c6c6572206973206e6f7420746865206f776e6572a26469706673582212201a137b455052f40dda80eb11cf5591af9b6245edcd697bbf205acc394aa8e3a264736f6c63430007060033",
  "devdoc": {
    "kind": "dev",
    "methods": {
      "owner()": {
        "details": "Returns the address of the current owner."
      },
      "renounceOwnership()": {
        "details": "Leaves the contract without owner. It will not be possible to call `onlyOwner` functions anymore. Can only be called by the current owner. NOTE: Renouncing ownership will leave the contract without an owner, thereby removing any functionality that is only available to the owner."
      },
      "transferOwnership(address)": {
        "details": "Transfers ownership of the contract to a new account (`newOwner`). Can only be called by the current owner."
      }
    },
    "version": 1
  },
  "userdoc": {
    "kind": "user",
    "methods": {},
    "version": 1
  },
  "storageLayout": {
    "storage": [
      {
        "astId": 197,
        "contract": "contracts/Router.sol:Router",
        "label": "_owner",
        "offset": 0,
        "slot": "0",
        "type": "t_address"
      },
      {
        "astId": 2270,
        "contract": "contracts/Router.sol:Router",
        "label": "_status",
        "offset": 0,
        "slot": "1",
        "type": "t_uint256"
      },
      {
        "astId": 9450,
        "contract": "contracts/Router.sol:Router",
        "label": "factory",
        "offset": 0,
        "slot": "2",
        "type": "t_contract(Factory)4454"
      },
      {
        "astId": 9452,
        "contract": "contracts/Router.sol:Router",
        "label": "protocolFeeOwner",
        "offset": 0,
        "slot": "3",
        "type": "t_address"
      },
      {
        "astId": 9454,
        "contract": "contracts/Router.sol:Router",
        "label": "mintFeeOwner",
        "offset": 0,
        "slot": "4",
        "type": "t_address"
      },
      {
        "astId": 9456,
        "contract": "contracts/Router.sol:Router",
        "label": "bridge",
        "offset": 0,
        "slot": "5",
        "type": "t_contract(Bridge)4293"
      },
      {
        "astId": 9464,
        "contract": "contracts/Router.sol:Router",
        "label": "revertLookup",
        "offset": 0,
        "slot": "6",
        "type": "t_mapping(t_uint16,t_mapping(t_bytes_memory_ptr,t_mapping(t_uint256,t_bytes_storage)))"
      },
      {
        "astId": 9472,
        "contract": "contracts/Router.sol:Router",
        "label": "cachedSwapLookup",
        "offset": 0,
        "slot": "7",
        "type": "t_mapping(t_uint16,t_mapping(t_bytes_memory_ptr,t_mapping(t_uint256,t_struct(CachedSwap)9448_storage)))"
      }
    ],
    "types": {
      "t_address": {
        "encoding": "inplace",
        "label": "address",
        "numberOfBytes": "20"
      },
      "t_bytes_memory_ptr": {
        "encoding": "bytes",
        "label": "bytes",
        "numberOfBytes": "32"
      },
      "t_bytes_storage": {
        "encoding": "bytes",
        "label": "bytes",
        "numberOfBytes": "32"
      },
      "t_contract(Bridge)4293": {
        "encoding": "inplace",
        "label": "contract Bridge",
        "numberOfBytes": "20"
      },
      "t_contract(Factory)4454": {
        "encoding": "inplace",
        "label": "contract Factory",
        "numberOfBytes": "20"
      },
      "t_mapping(t_bytes_memory_ptr,t_mapping(t_uint256,t_bytes_storage))": {
        "encoding": "mapping",
        "key": "t_bytes_memory_ptr",
        "label": "mapping(bytes => mapping(uint256 => bytes))",
        "numberOfBytes": "32",
        "value": "t_mapping(t_uint256,t_bytes_storage)"
      },
      "t_mapping(t_bytes_memory_ptr,t_mapping(t_uint256,t_struct(CachedSwap)9448_storage))": {
        "encoding": "mapping",
        "key": "t_bytes_memory_ptr",
        "label": "mapping(bytes => mapping(uint256 => struct Router.CachedSwap))",
        "numberOfBytes": "32",
        "value": "t_mapping(t_uint256,t_struct(CachedSwap)9448_storage)"
      },
      "t_mapping(t_uint16,t_mapping(t_bytes_memory_ptr,t_mapping(t_uint256,t_bytes_storage)))": {
        "encoding": "mapping",
        "key": "t_uint16",
        "label": "mapping(uint16 => mapping(bytes => mapping(uint256 => bytes)))",
        "numberOfBytes": "32",
        "value": "t_mapping(t_bytes_memory_ptr,t_mapping(t_uint256,t_bytes_storage))"
      },
      "t_mapping(t_uint16,t_mapping(t_bytes_memory_ptr,t_mapping(t_uint256,t_struct(CachedSwap)9448_storage)))": {
        "encoding": "mapping",
        "key": "t_uint16",
        "label": "mapping(uint16 => mapping(bytes => mapping(uint256 => struct Router.CachedSwap)))",
        "numberOfBytes": "32",
        "value": "t_mapping(t_bytes_memory_ptr,t_mapping(t_uint256,t_struct(CachedSwap)9448_storage))"
      },
      "t_mapping(t_uint256,t_bytes_storage)": {
        "encoding": "mapping",
        "key": "t_uint256",
        "label": "mapping(uint256 => bytes)",
        "numberOfBytes": "32",
        "value": "t_bytes_storage"
      },
      "t_mapping(t_uint256,t_struct(CachedSwap)9448_storage)": {
        "encoding": "mapping",
        "key": "t_uint256",
        "label": "mapping(uint256 => struct Router.CachedSwap)",
        "numberOfBytes": "32",
        "value": "t_struct(CachedSwap)9448_storage"
      },
      "t_struct(CachedSwap)9448_storage": {
        "encoding": "inplace",
        "label": "struct Router.CachedSwap",
        "members": [
          {
            "astId": 9441,
            "contract": "contracts/Router.sol:Router",
            "label": "token",
            "offset": 0,
            "slot": "0",
            "type": "t_address"
          },
          {
            "astId": 9443,
            "contract": "contracts/Router.sol:Router",
            "label": "amountLD",
            "offset": 0,
            "slot": "1",
            "type": "t_uint256"
          },
          {
            "astId": 9445,
            "contract": "contracts/Router.sol:Router",
            "label": "to",
            "offset": 0,
            "slot": "2",
            "type": "t_address"
          },
          {
            "astId": 9447,
            "contract": "contracts/Router.sol:Router",
            "label": "payload",
            "offset": 0,
            "slot": "3",
            "type": "t_bytes_storage"
          }
        ],
        "numberOfBytes": "128"
      },
      "t_uint16": {
        "encoding": "inplace",
        "label": "uint16",
        "numberOfBytes": "2"
      },
      "t_uint256": {
        "encoding": "inplace",
        "label": "uint256",
        "numberOfBytes": "32"
      }
    }
  }
}