{
  "address": "0xC68c1Ea9675F346BB4E5022CAE6897b93c13A6c3",
  "abi": [
    {
      "inputs": [
        {
          "internalType": "address",
          "name": "_factory",
          "type": "address"
        },
        {
          "internalType": "address",
          "name": "_lpStakingContract",
          "type": "address"
        },
        {
          "internalType": "int256",
          "name": "_depegThreshold",
          "type": "int256"
        }
      ],
      "stateMutability": "nonpayable",
      "type": "constructor"
    },
    {
      "anonymous": false,
      "inputs": [
        {
          "indexed": true,
          "internalType": "address",
          "name": "previousOwner",
          "type": "address"
        },
        {
          "indexed": true,
          "internalType": "address",
          "name": "newOwner",
          "type": "address"
        }
      ],
      "name": "OwnershipTransferred",
      "type": "event"
    },
    {
      "inputs": [],
      "name": "DELTA_1",
      "outputs": [
        {
          "internalType": "uint256",
          "name": "",
          "type": "uint256"
        }
      ],
      "stateMutability": "view",
      "type": "function"
    },
    {
      "inputs": [],
      "name": "DELTA_2",
      "outputs": [
        {
          "internalType": "uint256",
          "name": "",
          "type": "uint256"
        }
      ],
      "stateMutability": "view",
      "type": "function"
    },
    {
      "inputs": [],
      "name": "DENOMINATOR",
      "outputs": [
        {
          "internalType": "uint256",
          "name": "",
          "type": "uint256"
        }
      ],
      "stateMutability": "view",
      "type": "function"
    },
    {
      "inputs": [],
      "name": "FIFTY_PERCENT",
      "outputs": [
        {
          "internalType": "uint256",
          "name": "",
          "type": "uint256"
        }
      ],
      "stateMutability": "view",
      "type": "function"
    },
    {
      "inputs": [],
      "name": "LAMBDA_1",
      "outputs": [
        {
          "internalType": "uint256",
          "name": "",
          "type": "uint256"
        }
      ],
      "stateMutability": "view",
      "type": "function"
    },
    {
      "inputs": [],
      "name": "LAMBDA_2",
      "outputs": [
        {
          "internalType": "uint256",
          "name": "",
          "type": "uint256"
        }
      ],
      "stateMutability": "view",
      "type": "function"
    },
    {
      "inputs": [],
      "name": "LP_FEE",
      "outputs": [
        {
          "internalType": "uint256",
          "name": "",
          "type": "uint256"
        }
      ],
      "stateMutability": "view",
      "type": "function"
    },
    {
      "inputs": [],
      "name": "PROTOCOL_FEE",
      "outputs": [
        {
          "internalType": "uint256",
          "name": "",
          "type": "uint256"
        }
      ],
      "stateMutability": "view",
      "type": "function"
    },
    {
      "inputs": [],
      "name": "PROTOCOL_SUBSIDY",
      "outputs": [
        {
          "internalType": "uint256",
          "name": "",
          "type": "uint256"
        }
      ],
      "stateMutability": "view",
      "type": "function"
    },
    {
      "inputs": [],
      "name": "SIXTY_PERCENT",
      "outputs": [
        {
          "internalType": "uint256",
          "name": "",
          "type": "uint256"
        }
      ],
      "stateMutability": "view",
      "type": "function"
    },
    {
      "inputs": [],
      "name": "depegThreshold",
      "outputs": [
        {
          "internalType": "int256",
          "name": "",
          "type": "int256"
        }
      ],
      "stateMutability": "view",
      "type": "function"
    },
    {
      "inputs": [],
      "name": "factory",
      "outputs": [
        {
          "internalType": "contract Factory",
          "name": "",
          "type": "address"
        }
      ],
      "stateMutability": "view",
      "type": "function"
    },
    {
      "inputs": [
        {
          "internalType": "uint256",
          "name": "_amountSD",
          "type": "uint256"
        },
        {
          "internalType": "uint256",
          "name": "_currentAssetSD",
          "type": "uint256"
        },
        {
          "internalType": "uint256",
          "name": "_lpAsset",
          "type": "uint256"
        },
        {
          "internalType": "uint256",
          "name": "_rewardPoolSize",
          "type": "uint256"
        }
      ],
      "name": "getEqReward",
      "outputs": [
        {
          "internalType": "uint256",
          "name": "eqReward",
          "type": "uint256"
        }
      ],
      "stateMutability": "pure",
      "type": "function"
    },
    {
      "inputs": [
        {
          "internalType": "uint256",
          "name": "idealBalance",
          "type": "uint256"
        },
        {
          "internalType": "uint256",
          "name": "beforeBalance",
          "type": "uint256"
        },
        {
          "internalType": "uint256",
          "name": "amountSD",
          "type": "uint256"
        }
      ],
      "name": "getEquilibriumFee",
      "outputs": [
        {
          "internalType": "uint256",
          "name": "",
          "type": "uint256"
        },
        {
          "internalType": "uint256",
          "name": "",
          "type": "uint256"
        }
      ],
      "stateMutability": "pure",
      "type": "function"
    },
    {
      "inputs": [
        {
          "internalType": "uint256",
          "name": "_srcPoolId",
          "type": "uint256"
        },
        {
          "internalType": "uint256",
          "name": "_dstPoolId",
          "type": "uint256"
        },
        {
          "internalType": "uint16",
          "name": "_dstChainId",
          "type": "uint16"
        },
        {
          "internalType": "address",
          "name": "_from",
          "type": "address"
        },
        {
          "internalType": "uint256",
          "name": "_amountSD",
          "type": "uint256"
        }
      ],
      "name": "getFees",
      "outputs": [
        {
          "components": [
            {
              "internalType": "uint256",
              "name": "amount",
              "type": "uint256"
            },
            {
              "internalType": "uint256",
              "name": "eqFee",
              "type": "uint256"
            },
            {
              "internalType": "uint256",
              "name": "eqReward",
              "type": "uint256"
            },
            {
              "internalType": "uint256",
              "name": "lpFee",
              "type": "uint256"
            },
            {
              "internalType": "uint256",
              "name": "protocolFee",
              "type": "uint256"
            },
            {
              "internalType": "uint256",
              "name": "lkbRemove",
              "type": "uint256"
            }
          ],
          "internalType": "struct Pool.SwapObj",
          "name": "s",
          "type": "tuple"
        }
      ],
      "stateMutability": "view",
      "type": "function"
    },
    {
      "inputs": [
        {
          "internalType": "uint256",
          "name": "_amountSD",
          "type": "uint256"
        },
        {
          "internalType": "uint256",
          "name": "_currentAssetSD",
          "type": "uint256"
        },
        {
          "internalType": "uint256",
          "name": "_lpAsset",
          "type": "uint256"
        },
        {
          "internalType": "uint256",
          "name": "_protocolSubsidy",
          "type": "uint256"
        },
        {
          "internalType": "uint256",
          "name": "_srcPoolId",
          "type": "uint256"
        },
        {
          "components": [
            {
              "internalType": "bool",
              "name": "ready",
              "type": "bool"
            },
            {
              "internalType": "uint16",
              "name": "dstChainId",
              "type": "uint16"
            },
            {
              "internalType": "uint256",
              "name": "dstPoolId",
              "type": "uint256"
            },
            {
              "internalType": "uint256",
              "name": "weight",
              "type": "uint256"
            },
            {
              "internalType": "uint256",
              "name": "balance",
              "type": "uint256"
            },
            {
              "internalType": "uint256",
              "name": "lkb",
              "type": "uint256"
            },
            {
              "internalType": "uint256",
              "name": "credits",
              "type": "uint256"
            },
            {
              "internalType": "uint256",
              "name": "idealBalance",
              "type": "uint256"
            }
          ],
          "internalType": "struct Pool.ChainPath",
          "name": "_chainPath",
          "type": "tuple"
        }
      ],
      "name": "getProtocolAndLpFee",
      "outputs": [
        {
          "internalType": "uint256",
          "name": "protocolFee",
          "type": "uint256"
        },
        {
          "internalType": "uint256",
          "name": "lpFee",
          "type": "uint256"
        }
      ],
      "stateMutability": "view",
      "type": "function"
    },
    {
      "inputs": [
        {
          "internalType": "uint256",
          "name": "lambda",
          "type": "uint256"
        },
        {
          "internalType": "uint256",
          "name": "yOffset",
          "type": "uint256"
        },
        {
          "internalType": "uint256",
          "name": "xUpperBound",
          "type": "uint256"
        },
        {
          "internalType": "uint256",
          "name": "xLowerBound",
          "type": "uint256"
        },
        {
          "internalType": "uint256",
          "name": "xStart",
          "type": "uint256"
        },
        {
          "internalType": "uint256",
          "name": "xEnd",
          "type": "uint256"
        }
      ],
      "name": "getTrapezoidArea",
      "outputs": [
        {
          "internalType": "uint256",
          "name": "",
          "type": "uint256"
        }
      ],
      "stateMutability": "pure",
      "type": "function"
    },
    {
      "inputs": [],
      "name": "getVersion",
      "outputs": [
        {
          "internalType": "string",
          "name": "",
          "type": "string"
        }
      ],
      "stateMutability": "pure",
      "type": "function"
    },
    {
      "inputs": [],
      "name": "lpStaking",
      "outputs": [
        {
          "internalType": "contract IStargateLPStaking",
          "name": "",
          "type": "address"
        }
      ],
      "stateMutability": "view",
      "type": "function"
    },
    {
      "inputs": [],
      "name": "owner",
      "outputs": [
        {
          "internalType": "address",
          "name": "",
          "type": "address"
        }
      ],
      "stateMutability": "view",
      "type": "function"
    },
    {
      "inputs": [
        {
          "internalType": "uint256",
          "name": "",
          "type": "uint256"
        }
      ],
      "name": "poolIdToLpId",
      "outputs": [
        {
          "internalType": "uint256",
          "name": "",
          "type": "uint256"
        }
      ],
      "stateMutability": "view",
      "type": "function"
    },
    {
      "inputs": [
        {
          "internalType": "uint256",
          "name": "",
          "type": "uint256"
        }
      ],
      "name": "poolIdToPriceFeed",
      "outputs": [
        {
          "internalType": "address",
          "name": "",
          "type": "address"
        }
      ],
      "stateMutability": "view",
      "type": "function"
    },
    {
      "inputs": [],
      "name": "renounceOwnership",
      "outputs": [],
      "stateMutability": "nonpayable",
      "type": "function"
    },
    {
      "inputs": [
        {
          "internalType": "int256",
          "name": "_depegThreshold",
          "type": "int256"
        }
      ],
      "name": "setDepegThreshold",
      "outputs": [],
      "stateMutability": "nonpayable",
      "type": "function"
    },
    {
      "inputs": [
        {
          "internalType": "uint256",
          "name": "_poolId",
          "type": "uint256"
        },
        {
          "internalType": "address",
          "name": "_priceFeedAddress",
          "type": "address"
        }
      ],
      "name": "setPoolIdToPriceFeedAddress",
      "outputs": [],
      "stateMutability": "nonpayable",
      "type": "function"
    },
    {
      "inputs": [
        {
          "internalType": "uint256",
          "name": "_poolId",
          "type": "uint256"
        },
        {
          "internalType": "uint256",
          "name": "_lpId",
          "type": "uint256"
        }
      ],
      "name": "setPoolToLpId",
      "outputs": [],
      "stateMutability": "nonpayable",
      "type": "function"
    },
    {
      "inputs": [
        {
          "internalType": "address",
          "name": "newOwner",
          "type": "address"
        }
      ],
      "name": "transferOwnership",
      "outputs": [],
      "stateMutability": "nonpayable",
      "type": "function"
    },
    {
      "inputs": [
        {
          "internalType": "address",
          "name": "_from",
          "type": "address"
        },
        {
          "internalType": "bool",
          "name": "_whiteListed",
          "type": "bool"
        }
      ],
      "name": "whiteList",
      "outputs": [],
      "stateMutability": "nonpayable",
      "type": "function"
    },
    {
      "inputs": [
        {
          "internalType": "address",
          "name": "",
          "type": "address"
        }
      ],
      "name": "whitelist",
      "outputs": [
        {
          "internalType": "bool",
          "name": "",
          "type": "bool"
        }
      ],
      "stateMutability": "view",
      "type": "function"
    }
  ],
  "transactionHash": "0x79a08f6b13872308d5fa64b4dc1a0d9fb85170e2544f8d6a566e27237f4bc4cc",
  "args": [
    "0x1dAC955a58f292b8d95c6EBc79d14D3E618971b2",
    "0x990Fe6106366685Db3E53C45C5D9599A065C806F",
    98000000
  ],
  "numDeployments": 1,
  "solcInputHash": "0e6b9aad51c0b59f143dcbdfbd90a328",
  "bytecode": "0x60c06040523480156200001157600080fd5b50604051620020d7380380620020d7833981016040819052620000349162000151565b60006200004062000130565b600080546001600160a01b0319166001600160a01b0383169081178255604051929350917f8be0079c531659141344cd1fd0a4f28419497f9722a3daafe3b4186f6b6457e0908290a350600180556001600160a01b038316620000c05760405162461bcd60e51b8152600401620000b79062000191565b60405180910390fd5b6001600160a01b038216620000e95760405162461bcd60e51b8152600401620000b790620001d2565b600081136200010c5760405162461bcd60e51b8152600401620000b79062000215565b6001600160601b0319606093841b81166080529190921b1660a0526002556200025c565b3390565b80516001600160a01b03811681146200014c57600080fd5b919050565b60008060006060848603121562000166578283fd5b620001718462000134565b9250620001816020850162000134565b9150604084015190509250925092565b60208082526021908201527f4665654c6962726172793a20466163746f72792063616e6e6f742062652030786040820152600360fc1b606082015260800190565b60208082526023908201527f4665654c6962726172793a204c505374616b696e672063616e6e6f742062652060408201526203078360ec1b606082015260800190565b60208082526027908201527f4665654c6962726172793a205f64657065675468726573686f6c64206d7573746040820152660206265203e20360cc1b606082015260800190565b60805160601c60a05160601c611e476200029060003980610cc9528061132a5250806105035280610d885250611e476000f3fe608060405234801561001057600080fd5b50600436106101cf5760003560e01c806360d86e7711610104578063918f8674116100a2578063af8884f011610071578063af8884f01461035c578063c45a01551461036f578063d16baeb914610377578063f2fde38b1461038a576101cf565b8063918f8674146103245780639b19251a1461032c5780639bf1401c1461034c578063a810de6c14610354576101cf565b80637ba5c12f116100de5780637ba5c12f146103015780637dc9633f14610309578063886a9c50146102a65780638da5cb5b1461031c576101cf565b806360d86e77146102d35780636548c4ac146102e6578063715018a6146102f9576101cf565b80632d4310ad116101715780633dad0dd51161014b5780633dad0dd5146102a6578063518a9f9f146102ae5780635994e07e146102b65780635e3f2727146102cb576101cf565b80632d4310ad1461026a57806334b6a6021461027d5780633d4912c31461029e576101cf565b80630d8e6e2c116101ad5780630d8e6e2c1461021a57806313c6e3801461022f5780631ab62430146102425780631e04cbf314610262576101cf565b8063012a1c2d146101d4578063084285da146101f25780630b4501fd14610212575b600080fd5b6101dc61039d565b6040516101e99190611bbe565b60405180910390f35b61020561020036600461187a565b6103a9565b6040516101e99190611b9f565b6101dc6103c4565b6102226103cf565b6040516101e99190611bc7565b6101dc61023d36600461187a565b6103ee565b610255610250366004611986565b610400565b6040516101e99190611d11565b6101dc610a8c565b6101dc610278366004611a02565b610a98565b61029061028b3660046119d7565b610ab1565b6040516101e9929190611d69565b6101dc610acb565b6101dc610ad1565b6101dc610add565b6102c96102c436600461187a565b610ae8565b005b6101dc610b6f565b6101dc6102e1366004611b0e565b610b79565b6102c96102f4366004611965565b610b94565b6102c9610c08565b6101dc610c6c565b610290610317366004611a33565b610c76565b610205610c97565b6101dc610ca6565b61033f61033a3660046117cc565b610cb2565b6040516101e99190611bb3565b610205610cc7565b6101dc610ceb565b6102c961036a366004611941565b610cf6565b610205610d86565b6102c9610385366004611804565b610daa565b6102c96103983660046117cc565b610e37565b670dd280b9144a000081565b6005602052600090815260409020546001600160a01b031681565b6601c6bf5263400081565b6040805180820190915260058152640352e302e360dc1b602082015290565b60046020526000908152604090205481565b61040861174b565b600086815260056020526040902054869086906001600160a01b031681831480159061043c57506001600160a01b03811615155b156104e7576000816001600160a01b031663feaf968c6040518163ffffffff1660e01b815260040160a06040518083038186803b15801561047c57600080fd5b505afa158015610490573d6000803e3d6000fd5b505050506040513d601f19601f820116820180604052508101906104b49190611b50565b5050509150506002548112156104e55760405162461bcd60e51b81526004016104dc90611c88565b60405180910390fd5b505b60405163068bcd8d60e01b815289906000906001600160a01b037f0000000000000000000000000000000000000000000000000000000000000000169063068bcd8d90610538908590600401611bbe565b60206040518083038186803b15801561055057600080fd5b505afa158015610564573d6000803e3d6000fd5b505050506040513d601f19601f8201168201806040525081019061058891906117e8565b905061059381610f39565b60405163159f6add60e01b81526000906001600160a01b0383169063159f6add906105c4908d908f90600401611d55565b6101006040518083038186803b1580156105dd57600080fd5b505afa1580156105f1573d6000803e3d6000fd5b505050506040513d601f19601f820116820180604052508101906106159190611892565b90506000826001600160a01b031663fc0c546a6040518163ffffffff1660e01b815260040160206040518083038186803b15801561065257600080fd5b505afa158015610666573d6000803e3d6000fd5b505050506040513d601f19601f8201168201806040525081019061068a91906117e8565b90506000610784846001600160a01b031663feb56b156040518163ffffffff1660e01b815260040160206040518083038186803b1580156106ca57600080fd5b505afa1580156106de573d6000803e3d6000fd5b505050506040513d601f19601f820116820180604052508101906107029190611929565b6040516370a0823160e01b81526001600160a01b038516906370a082319061072e908990600401611b9f565b60206040518083038186803b15801561074657600080fd5b505afa15801561075a573d6000803e3d6000fd5b505050506040513d601f19601f8201168201806040525081019061077e9190611929565b90610f88565b90506000846001600160a01b03166315770f926040518163ffffffff1660e01b815260040160206040518083038186803b1580156107c157600080fd5b505afa1580156107d5573d6000803e3d6000fd5b505050506040513d601f19601f820116820180604052508101906107f99190611929565b90506108778b8383886001600160a01b0316639bb811196040518163ffffffff1660e01b815260040160206040518083038186803b15801561083a57600080fd5b505afa15801561084e573d6000803e3d6000fd5b505050506040513d601f19601f820116820180604052508101906108729190611929565b610ff1565b60408b015260e08401516080850151600091610893918e611075565b6020808e01929092526001600160a01b038f166000908152600390925260409091205490915060ff16156108cd5750505050505050610a80565b6108f96040518060400160405280600a81526020016902fb0b6b7bab73a29a2160b51b8152508d6111e8565b61092a6040518060400160405280600f81526020016e031bab93932b73a20b9b9b2ba29a21608d1b815250846111e8565b610954604051806040016040528060088152602001670363820b9b9b2ba160c51b815250836111e8565b6109866040518060400160405280601081526020016f0383937ba37b1b7b629bab139b4b23c960851b815250826111e8565b6109b26040518060400160405280600a815260200169039b931a837b7b624b2160b51b815250886111e8565b6109f56040518060400160405280601781526020017f636861696e506174682e696465616c42616c616e6365200000000000000000008152508660e001516111e8565b610a038c8484848b8a61129a565b60608d015260808c0190815260408051808201909152600e81526d03997383937ba37b1b7b62332b2960951b60208201529051610a4091906111e8565b610a6e604051806040016040528060088152602001670399736382332b2960c51b8152508c606001516111e8565b610a78600a61151e565b505050505050505b50505095945050505050565b6706f05b59d3b2000081565b6000610aa685858585610ff1565b90505b949350505050565b600080610abf858585611075565b91509150935093915050565b60025481565b670853a0d2313c000081565b66b1a2bc2ec5000081565b610af061155f565b6001600160a01b0316610b01610c97565b6001600160a01b031614610b4a576040805162461bcd60e51b81526020600482018190526024820152600080516020611df2833981519152604482015290519081900360640190fd5b60008113610b6a5760405162461bcd60e51b81526004016104dc90611cca565b600255565b655af3107a400081565b6000610b89878787878787611563565b979650505050505050565b610b9c61155f565b6001600160a01b0316610bad610c97565b6001600160a01b031614610bf6576040805162461bcd60e51b81526020600482018190526024820152600080516020611df2833981519152604482015290519081900360640190fd5b60009182526004602052604090912055565b610c1061155f565b6001600160a01b0316610c21610c97565b6001600160a01b031614610c6a576040805162461bcd60e51b81526020600482018190526024820152600080516020611df2833981519152604482015290519081900360640190fd5b565b651b48eb57e00081565b600080610c8788888888888861129a565b915091505b965096945050505050565b6000546001600160a01b031690565b670de0b6b3a764000081565b60036020526000908152604090205460ff1681565b7f000000000000000000000000000000000000000000000000000000000000000081565b660e35fa931a000081565b610cfe61155f565b6001600160a01b0316610d0f610c97565b6001600160a01b031614610d58576040805162461bcd60e51b81526020600482018190526024820152600080516020611df2833981519152604482015290519081900360640190fd5b60009182526005602052604090912080546001600160a01b0319166001600160a01b03909216919091179055565b7f000000000000000000000000000000000000000000000000000000000000000081565b610db261155f565b6001600160a01b0316610dc3610c97565b6001600160a01b031614610e0c576040805162461bcd60e51b81526020600482018190526024820152600080516020611df2833981519152604482015290519081900360640190fd5b6001600160a01b03919091166000908152600360205260409020805460ff1916911515919091179055565b610e3f61155f565b6001600160a01b0316610e50610c97565b6001600160a01b031614610e99576040805162461bcd60e51b81526020600482018190526024820152600080516020611df2833981519152604482015290519081900360640190fd5b6001600160a01b038116610ede5760405162461bcd60e51b8152600401808060200182810382526026815260200180611dab6026913960400191505060405180910390fd5b600080546040516001600160a01b03808516939216917f8be0079c531659141344cd1fd0a4f28419497f9722a3daafe3b4186f6b6457e091a3600080546001600160a01b0319166001600160a01b0392909216919091179055565b604080516001600160a01b0383166024808301919091528251808303909101815260449091019091526020810180516001600160e01b031663161765e160e11b179052610f8590611613565b50565b6000808211610fde576040805162461bcd60e51b815260206004820152601a60248201527f536166654d6174683a206469766973696f6e206279207a65726f000000000000604482015290519081900360640190fd5b818381610fe757fe5b0490505b92915050565b600083831161100257506000610aa9565b600061100e8486611634565b9050604b6110218561077e886064611691565b1080156110415750611034816002611691565b61103f876064611691565b115b15611067576110548161077e8589611691565b915082821115611062578291505b61106c565b600091505b50949350505050565b600080828410156110985760405162461bcd60e51b81526004016104dc90611c51565b60006110a48585611634565b905060006110c6670de0b6b3a764000061077e89670853a0d2313c0000611691565b905060006110e7670de0b6b3a764000061077e8a66b1a2bc2ec50000611691565b90506000808385106111195761110f670de0b6b3a764000061077e8a651b48eb57e000611691565b91508190506111d9565b828510611151576000848a1061112f5784611131565b895b9050611149660e35fa931a000060008787858b611563565b9250506111d9565b8289106111ae576000848a106111675784611169565b895b905061118b611184660e35fa931a000060008888868a611563565b84906116f1565b9250611149611184670dd280b9144a0000660e35fa931a0000876000898c611563565b6111d66111cf670dd280b9144a0000660e35fa931a00008660008e8b611563565b83906116f1565b91505b90999098509650505050505050565b61129682826040516024018080602001838152602001828103825284818151815260200191508051906020019080838360005b8381101561123357818101518382015260200161121b565b50505050905090810190601f1680156112605780820380516001836020036101000a031916815260200191505b5060408051601f198184030181529190526020810180516001600160e01b03166309710a9d60e41b179052935061161392505050565b5050565b6000806112a7600061151e565b6112ce856112c8670de0b6b3a764000061077e8c6601c6bf52634000611691565b90611634565b91506112da600161151e565b6112f6670de0b6b3a764000061077e8a655af3107a4000611691565b9050611302600261151e565b6000848152600460208190526040808320549051631526fe2760e01b81526001600160a01b037f00000000000000000000000000000000000000000000000000000000000000001692631526fe279261135d92909101611bbe565b60806040518083038186803b15801561137557600080fd5b505afa158015611389573d6000803e3d6000fd5b505050506040513d601f19601f820116820180604052508101906113ad919061183c565b50509150506113bc600361151e565b80156113d3576113cc83836116f1565b9250600091505b6113dd600461151e565b866113e85750610c8c565b6113f2600561151e565b600061141f670de0b6b3a764000061077e670853a0d2313c00008860e0015161169190919063ffffffff16565b608086015161142e908c611634565b11905061143b600661151e565b60006114538961077e8c670de0b6b3a7640000611691565b905061145f600761151e565b6706f05b59d3b2000081111580156114745750815b1561149057611483600861151e565b6000945060009350611506565b670853a0d2313c0000811080156114a45750815b15611506576114b3600961151e565b60006114d2600a6114cc846706f05b59d3b20000611634565b90611691565b90506114ea670de0b6b3a764000061077e8884611691565b9550611502670de0b6b3a764000061077e8784611691565b9450505b611510600a61151e565b505050965096945050505050565b6040805160248082018490528251808303909101815260449091019091526020810180516001600160e01b031663f5b1bba960e01b179052610f8590611613565b3390565b60008382101580156115755750848311155b6115915760405162461bcd60e51b81526004016104dc90611c1a565b600061159d8686611634565b905060006115bd886115b78461077e8d6114cc8d8c611634565b906116f1565b905060006115d7896115b78561077e8e6114cc8e8c611634565b905060006115e58787611634565b9050611604670de0b6b3a764000061077e600281856114cc89896116f1565b9b9a5050505050505050505050565b80516a636f6e736f6c652e6c6f67602083016000808483855afa5050505050565b60008282111561168b576040805162461bcd60e51b815260206004820152601e60248201527f536166654d6174683a207375627472616374696f6e206f766572666c6f770000604482015290519081900360640190fd5b50900390565b6000826116a057506000610feb565b828202828482816116ad57fe5b04146116ea5760405162461bcd60e51b8152600401808060200182810382526021815260200180611dd16021913960400191505060405180910390fd5b9392505050565b6000828201838110156116ea576040805162461bcd60e51b815260206004820152601b60248201527f536166654d6174683a206164646974696f6e206f766572666c6f770000000000604482015290519081900360640190fd5b6040518060c001604052806000815260200160008152602001600081526020016000815260200160008152602001600081525090565b803561178c81611d8c565b919050565b805161178c81611d8c565b803561178c81611d9a565b805161178c81611d9a565b805169ffffffffffffffffffff8116811461178c57600080fd5b6000602082840312156117dd578081fd5b81356116ea81611d77565b6000602082840312156117f9578081fd5b81516116ea81611d77565b60008060408385031215611816578081fd5b823561182181611d77565b9150602083013561183181611d8c565b809150509250929050565b60008060008060808587031215611851578182fd5b845161185c81611d77565b60208601516040870151606090970151919890975090945092505050565b60006020828403121561188b578081fd5b5035919050565b60006101008083850312156118a5578182fd5b6040519081019067ffffffffffffffff821181831017156118c257fe5b816040526118cf84611791565b81526118dd602085016117a7565b602082015260408401516040820152606084015160608201526080840151608082015260a084015160a082015260c084015160c082015260e084015160e0820152809250505092915050565b60006020828403121561193a578081fd5b5051919050565b60008060408385031215611953578182fd5b82359150602083013561183181611d77565b60008060408385031215611977578182fd5b50508035926020909101359150565b600080600080600060a0868803121561199d578283fd5b853594506020860135935060408601356119b681611d9a565b925060608601356119c681611d77565b949793965091946080013592915050565b6000806000606084860312156119eb578081fd5b505081359360208301359350604090920135919050565b60008060008060808587031215611a17578182fd5b5050823594602084013594506040840135936060013592509050565b6000806000806000808688036101a0811215611a4d578485fd5b873596506020880135955060408801359450606088013593506080880135925061010080609f1983011215611a80578283fd5b604051915080820182811067ffffffffffffffff82111715611a9e57fe5b604052611aad60a08a01611781565b8252611abb60c08a0161179c565b602083015260e0890135604083015280890135606083015250610120880135608082015261014088013560a082015261016088013560c082015261018088013560e0820152809150509295509295509295565b60008060008060008060c08789031215611b26578384fd5b505084359660208601359650604086013595606081013595506080810135945060a0013592509050565b600080600080600060a08688031215611b67578283fd5b611b70866117b2565b9450602086015193506040860151925060608601519150611b93608087016117b2565b90509295509295909350565b6001600160a01b0391909116815260200190565b901515815260200190565b90815260200190565b6000602080835283518082850152825b81811015611bf357858101830151858201604001528201611bd7565b81811115611c045783604083870101525b50601f01601f1916929092016040019392505050565b6020808252601e908201527f53746172676174653a2062616c616e6365206f7574206f6620626f756e640000604082015260600190565b6020808252601c908201527f53746172676174653a206e6f7420656e6f7567682062616c616e636500000000604082015260600190565b60208082526022908201527f4665654c6962726172793a205f737263506f6f6c496420697320646570656767604082015261195960f21b606082015260800190565b60208082526027908201527f4665654c6962726172793a205f64657065675468726573686f6c64206d7573746040820152660206265203e20360cc1b606082015260800190565b600060c082019050825182526020830151602083015260408301516040830152606083015160608301526080830151608083015260a083015160a083015292915050565b61ffff929092168252602082015260400190565b918252602082015260400190565b6001600160a01b0381168114610f8557600080fd5b8015158114610f8557600080fd5b61ffff81168114610f8557600080fdfe4f776e61626c653a206e6577206f776e657220697320746865207a65726f2061646472657373536166654d6174683a206d756c7469706c69636174696f6e206f766572666c6f774f776e61626c653a2063616c6c6572206973206e6f7420746865206f776e6572a26469706673582212200b981bd2680d4476fe3ce0b5f3a5655fa554bf026db22712f8558b0bd796510a64736f6c63430007060033",
  "devdoc": {
    "kind": "dev",
    "methods": {
      "owner()": {
        "details": "Returns the address of the current owner."
      },
      "renounceOwnership()": {
        "details": "Leaves the contract without owner. It will not be possible to call `onlyOwner` functions anymore. Can only be called by the current owner. NOTE: Renouncing ownership will leave the contract without an owner, thereby removing any functionality that is only available to the owner."
      },
      "transferOwnership(address)": {
        "details": "Transfers ownership of the contract to a new account (`newOwner`). Can only be called by the current owner."
      }
    },
    "version": 1
  },
  "userdoc": {
    "kind": "user",
    "methods": {},
    "version": 1
  },
  "storageLayout": {
    "storage": [
      {
        "astId": 197,
        "contract": "contracts/libraries/StargateFeeLibraryV04.sol:StargateFeeLibraryV04",
        "label": "_owner",
        "offset": 0,
        "slot": "0",
        "type": "t_address"
      },
      {
        "astId": 2270,
        "contract": "contracts/libraries/StargateFeeLibraryV04.sol:StargateFeeLibraryV04",
        "label": "_status",
        "offset": 0,
        "slot": "1",
        "type": "t_uint256"
      },
      {
        "astId": 14050,
        "contract": "contracts/libraries/StargateFeeLibraryV04.sol:StargateFeeLibraryV04",
        "label": "depegThreshold",
        "offset": 0,
        "slot": "2",
        "type": "t_int256"
      },
      {
        "astId": 14054,
        "contract": "contracts/libraries/StargateFeeLibraryV04.sol:StargateFeeLibraryV04",
        "label": "whitelist",
        "offset": 0,
        "slot": "3",
        "type": "t_mapping(t_address,t_bool)"
      },
      {
        "astId": 14058,
        "contract": "contracts/libraries/StargateFeeLibraryV04.sol:StargateFeeLibraryV04",
        "label": "poolIdToLpId",
        "offset": 0,
        "slot": "4",
        "type": "t_mapping(t_uint256,t_uint256)"
      },
      {
        "astId": 14062,
        "contract": "contracts/libraries/StargateFeeLibraryV04.sol:StargateFeeLibraryV04",
        "label": "poolIdToPriceFeed",
        "offset": 0,
        "slot": "5",
        "type": "t_mapping(t_uint256,t_address)"
      }
    ],
    "types": {
      "t_address": {
        "encoding": "inplace",
        "label": "address",
        "numberOfBytes": "20"
      },
      "t_bool": {
        "encoding": "inplace",
        "label": "bool",
        "numberOfBytes": "1"
      },
      "t_int256": {
        "encoding": "inplace",
        "label": "int256",
        "numberOfBytes": "32"
      },
      "t_mapping(t_address,t_bool)": {
        "encoding": "mapping",
        "key": "t_address",
        "label": "mapping(address => bool)",
        "numberOfBytes": "32",
        "value": "t_bool"
      },
      "t_mapping(t_uint256,t_address)": {
        "encoding": "mapping",
        "key": "t_uint256",
        "label": "mapping(uint256 => address)",
        "numberOfBytes": "32",
        "value": "t_address"
      },
      "t_mapping(t_uint256,t_uint256)": {
        "encoding": "mapping",
        "key": "t_uint256",
        "label": "mapping(uint256 => uint256)",
        "numberOfBytes": "32",
        "value": "t_uint256"
      },
      "t_uint256": {
        "encoding": "inplace",
        "label": "uint256",
        "numberOfBytes": "32"
      }
    }
  }
}