{
  "_format": "hh-sol-artifact-1",
  "contractName": "ProxyOFT",
  "sourceName": "contracts/token/oft/extension/ProxyOFT.sol",
  "abi": [
    {
      "inputs": [
        {
          "internalType": "address",
          "name": "_lzEndpoint",
          "type": "address"
        },
        {
          "internalType": "address",
          "name": "_token",
          "type": "address"
        }
      ],
      "stateMutability": "nonpayable",
      "type": "constructor"
    },
    {
      "anonymous": false,
      "inputs": [
        {
          "indexed": false,
          "internalType": "uint16",
          "name": "_srcChainId",
          "type": "uint16"
        },
        {
          "indexed": false,
          "internalType": "bytes",
          "name": "_srcAddress",
          "type": "bytes"
        },
        {
          "indexed": false,
          "internalType": "uint64",
          "name": "_nonce",
          "type": "uint64"
        },
        {
          "indexed": false,
          "internalType": "bytes",
          "name": "_payload",
          "type": "bytes"
        },
        {
          "indexed": false,
          "internalType": "bytes",
          "name": "_reason",
          "type": "bytes"
        }
      ],
      "name": "MessageFailed",
      "type": "event"
    },
    {
      "anonymous": false,
      "inputs": [
        {
          "indexed": true,
          "internalType": "address",
          "name": "previousOwner",
          "type": "address"
        },
        {
          "indexed": true,
          "internalType": "address",
          "name": "newOwner",
          "type": "address"
        }
      ],
      "name": "OwnershipTransferred",
      "type": "event"
    },
    {
      "anonymous": false,
      "inputs": [
        {
          "indexed": true,
          "internalType": "uint16",
          "name": "_srcChainId",
          "type": "uint16"
        },
        {
          "indexed": true,
          "internalType": "address",
          "name": "_to",
          "type": "address"
        },
        {
          "indexed": false,
          "internalType": "uint256",
          "name": "_amount",
          "type": "uint256"
        }
      ],
      "name": "ReceiveFromChain",
      "type": "event"
    },
    {
      "anonymous": false,
      "inputs": [
        {
          "indexed": false,
          "internalType": "uint16",
          "name": "_srcChainId",
          "type": "uint16"
        },
        {
          "indexed": false,
          "internalType": "bytes",
          "name": "_srcAddress",
          "type": "bytes"
        },
        {
          "indexed": false,
          "internalType": "uint64",
          "name": "_nonce",
          "type": "uint64"
        },
        {
          "indexed": false,
          "internalType": "bytes32",
          "name": "_payloadHash",
          "type": "bytes32"
        }
      ],
      "name": "RetryMessageSuccess",
      "type": "event"
    },
    {
      "anonymous": false,
      "inputs": [
        {
          "indexed": true,
          "internalType": "uint16",
          "name": "_dstChainId",
          "type": "uint16"
        },
        {
          "indexed": true,
          "internalType": "address",
          "name": "_from",
          "type": "address"
        },
        {
          "indexed": false,
          "internalType": "bytes",
          "name": "_toAddress",
          "type": "bytes"
        },
        {
          "indexed": false,
          "internalType": "uint256",
          "name": "_amount",
          "type": "uint256"
        }
      ],
      "name": "SendToChain",
      "type": "event"
    },
    {
      "anonymous": false,
      "inputs": [
        {
          "indexed": false,
          "internalType": "uint16",
          "name": "_dstChainId",
          "type": "uint16"
        },
        {
          "indexed": false,
          "internalType": "uint16",
          "name": "_type",
          "type": "uint16"
        },
        {
          "indexed": false,
          "internalType": "uint256",
          "name": "_minDstGas",
          "type": "uint256"
        }
      ],
      "name": "SetMinDstGas",
      "type": "event"
    },
    {
      "anonymous": false,
      "inputs": [
        {
          "indexed": false,
          "internalType": "address",
          "name": "precrime",
          "type": "address"
        }
      ],
      "name": "SetPrecrime",
      "type": "event"
    },
    {
      "anonymous": false,
      "inputs": [
        {
          "indexed": false,
          "internalType": "uint16",
          "name": "_remoteChainId",
          "type": "uint16"
        },
        {
          "indexed": false,
          "internalType": "bytes",
          "name": "_path",
          "type": "bytes"
        }
      ],
      "name": "SetTrustedRemote",
      "type": "event"
    },
    {
      "anonymous": false,
      "inputs": [
        {
          "indexed": false,
          "internalType": "uint16",
          "name": "_remoteChainId",
          "type": "uint16"
        },
        {
          "indexed": false,
          "internalType": "bytes",
          "name": "_remoteAddress",
          "type": "bytes"
        }
      ],
      "name": "SetTrustedRemoteAddress",
      "type": "event"
    },
    {
      "anonymous": false,
      "inputs": [
        {
          "indexed": false,
          "internalType": "bool",
          "name": "_useCustomAdapterParams",
          "type": "bool"
        }
      ],
      "name": "SetUseCustomAdapterParams",
      "type": "event"
    },
    {
      "inputs": [],
      "name": "DEFAULT_PAYLOAD_SIZE_LIMIT",
      "outputs": [
        {
          "internalType": "uint256",
          "name": "",
          "type": "uint256"
        }
      ],
      "stateMutability": "view",
      "type": "function"
    },
    {
      "inputs": [],
      "name": "NO_EXTRA_GAS",
      "outputs": [
        {
          "internalType": "uint256",
          "name": "",
          "type": "uint256"
        }
      ],
      "stateMutability": "view",
      "type": "function"
    },
    {
      "inputs": [],
      "name": "PT_SEND",
      "outputs": [
        {
          "internalType": "uint16",
          "name": "",
          "type": "uint16"
        }
      ],
      "stateMutability": "view",
      "type": "function"
    },
    {
      "inputs": [],
      "name": "circulatingSupply",
      "outputs": [
        {
          "internalType": "uint256",
          "name": "",
          "type": "uint256"
        }
      ],
      "stateMutability": "view",
      "type": "function"
    },
    {
      "inputs": [
        {
          "internalType": "uint16",
          "name": "_dstChainId",
          "type": "uint16"
        },
        {
          "internalType": "bytes",
          "name": "_toAddress",
          "type": "bytes"
        },
        {
          "internalType": "uint256",
          "name": "_amount",
          "type": "uint256"
        },
        {
          "internalType": "bool",
          "name": "_useZro",
          "type": "bool"
        },
        {
          "internalType": "bytes",
          "name": "_adapterParams",
          "type": "bytes"
        }
      ],
      "name": "estimateSendFee",
      "outputs": [
        {
          "internalType": "uint256",
          "name": "nativeFee",
          "type": "uint256"
        },
        {
          "internalType": "uint256",
          "name": "zroFee",
          "type": "uint256"
        }
      ],
      "stateMutability": "view",
      "type": "function"
    },
    {
      "inputs": [
        {
          "internalType": "uint16",
          "name": "",
          "type": "uint16"
        },
        {
          "internalType": "bytes",
          "name": "",
          "type": "bytes"
        },
        {
          "internalType": "uint64",
          "name": "",
          "type": "uint64"
        }
      ],
      "name": "failedMessages",
      "outputs": [
        {
          "internalType": "bytes32",
          "name": "",
          "type": "bytes32"
        }
      ],
      "stateMutability": "view",
      "type": "function"
    },
    {
      "inputs": [
        {
          "internalType": "uint16",
          "name": "_srcChainId",
          "type": "uint16"
        },
        {
          "internalType": "bytes",
          "name": "_srcAddress",
          "type": "bytes"
        }
      ],
      "name": "forceResumeReceive",
      "outputs": [],
      "stateMutability": "nonpayable",
      "type": "function"
    },
    {
      "inputs": [
        {
          "internalType": "uint16",
          "name": "_version",
          "type": "uint16"
        },
        {
          "internalType": "uint16",
          "name": "_chainId",
          "type": "uint16"
        },
        {
          "internalType": "address",
          "name": "",
          "type": "address"
        },
        {
          "internalType": "uint256",
          "name": "_configType",
          "type": "uint256"
        }
      ],
      "name": "getConfig",
      "outputs": [
        {
          "internalType": "bytes",
          "name": "",
          "type": "bytes"
        }
      ],
      "stateMutability": "view",
      "type": "function"
    },
    {
      "inputs": [
        {
          "internalType": "uint16",
          "name": "_remoteChainId",
          "type": "uint16"
        }
      ],
      "name": "getTrustedRemoteAddress",
      "outputs": [
        {
          "internalType": "bytes",
          "name": "",
          "type": "bytes"
        }
      ],
      "stateMutability": "view",
      "type": "function"
    },
    {
      "inputs": [
        {
          "internalType": "uint16",
          "name": "_srcChainId",
          "type": "uint16"
        },
        {
          "internalType": "bytes",
          "name": "_srcAddress",
          "type": "bytes"
        }
      ],
      "name": "isTrustedRemote",
      "outputs": [
        {
          "internalType": "bool",
          "name": "",
          "type": "bool"
        }
      ],
      "stateMutability": "view",
      "type": "function"
    },
    {
      "inputs": [],
      "name": "lzEndpoint",
      "outputs": [
        {
          "internalType": "contract ILayerZeroEndpoint",
          "name": "",
          "type": "address"
        }
      ],
      "stateMutability": "view",
      "type": "function"
    },
    {
      "inputs": [
        {
          "internalType": "uint16",
          "name": "_srcChainId",
          "type": "uint16"
        },
        {
          "internalType": "bytes",
          "name": "_srcAddress",
          "type": "bytes"
        },
        {
          "internalType": "uint64",
          "name": "_nonce",
          "type": "uint64"
        },
        {
          "internalType": "bytes",
          "name": "_payload",
          "type": "bytes"
        }
      ],
      "name": "lzReceive",
      "outputs": [],
      "stateMutability": "nonpayable",
      "type": "function"
    },
    {
      "inputs": [
        {
          "internalType": "uint16",
          "name": "",
          "type": "uint16"
        },
        {
          "internalType": "uint16",
          "name": "",
          "type": "uint16"
        }
      ],
      "name": "minDstGasLookup",
      "outputs": [
        {
          "internalType": "uint256",
          "name": "",
          "type": "uint256"
        }
      ],
      "stateMutability": "view",
      "type": "function"
    },
    {
      "inputs": [
        {
          "internalType": "uint16",
          "name": "_srcChainId",
          "type": "uint16"
        },
        {
          "internalType": "bytes",
          "name": "_srcAddress",
          "type": "bytes"
        },
        {
          "internalType": "uint64",
          "name": "_nonce",
          "type": "uint64"
        },
        {
          "internalType": "bytes",
          "name": "_payload",
          "type": "bytes"
        }
      ],
      "name": "nonblockingLzReceive",
      "outputs": [],
      "stateMutability": "nonpayable",
      "type": "function"
    },
    {
      "inputs": [],
      "name": "owner",
      "outputs": [
        {
          "internalType": "address",
          "name": "",
          "type": "address"
        }
      ],
      "stateMutability": "view",
      "type": "function"
    },
    {
      "inputs": [
        {
          "internalType": "uint16",
          "name": "",
          "type": "uint16"
        }
      ],
      "name": "payloadSizeLimitLookup",
      "outputs": [
        {
          "internalType": "uint256",
          "name": "",
          "type": "uint256"
        }
      ],
      "stateMutability": "view",
      "type": "function"
    },
    {
      "inputs": [],
      "name": "precrime",
      "outputs": [
        {
          "internalType": "address",
          "name": "",
          "type": "address"
        }
      ],
      "stateMutability": "view",
      "type": "function"
    },
    {
      "inputs": [],
      "name": "renounceOwnership",
      "outputs": [],
      "stateMutability": "nonpayable",
      "type": "function"
    },
    {
      "inputs": [
        {
          "internalType": "uint16",
          "name": "_srcChainId",
          "type": "uint16"
        },
        {
          "internalType": "bytes",
          "name": "_srcAddress",
          "type": "bytes"
        },
        {
          "internalType": "uint64",
          "name": "_nonce",
          "type": "uint64"
        },
        {
          "internalType": "bytes",
          "name": "_payload",
          "type": "bytes"
        }
      ],
      "name": "retryMessage",
      "outputs": [],
      "stateMutability": "payable",
      "type": "function"
    },
    {
      "inputs": [
        {
          "internalType": "address",
          "name": "_from",
          "type": "address"
        },
        {
          "internalType": "uint16",
          "name": "_dstChainId",
          "type": "uint16"
        },
        {
          "internalType": "bytes",
          "name": "_toAddress",
          "type": "bytes"
        },
        {
          "internalType": "uint256",
          "name": "_amount",
          "type": "uint256"
        },
        {
          "internalType": "address payable",
          "name": "_refundAddress",
          "type": "address"
        },
        {
          "internalType": "address",
          "name": "_zroPaymentAddress",
          "type": "address"
        },
        {
          "internalType": "bytes",
          "name": "_adapterParams",
          "type": "bytes"
        }
      ],
      "name": "sendFrom",
      "outputs": [],
      "stateMutability": "payable",
      "type": "function"
    },
    {
      "inputs": [
        {
          "internalType": "uint16",
          "name": "_version",
          "type": "uint16"
        },
        {
          "internalType": "uint16",
          "name": "_chainId",
          "type": "uint16"
        },
        {
          "internalType": "uint256",
          "name": "_configType",
          "type": "uint256"
        },
        {
          "internalType": "bytes",
          "name": "_config",
          "type": "bytes"
        }
      ],
      "name": "setConfig",
      "outputs": [],
      "stateMutability": "nonpayable",
      "type": "function"
    },
    {
      "inputs": [
        {
          "internalType": "uint16",
          "name": "_dstChainId",
          "type": "uint16"
        },
        {
          "internalType": "uint16",
          "name": "_packetType",
          "type": "uint16"
        },
        {
          "internalType": "uint256",
          "name": "_minGas",
          "type": "uint256"
        }
      ],
      "name": "setMinDstGas",
      "outputs": [],
      "stateMutability": "nonpayable",
      "type": "function"
    },
    {
      "inputs": [
        {
          "internalType": "uint16",
          "name": "_dstChainId",
          "type": "uint16"
        },
        {
          "internalType": "uint256",
          "name": "_size",
          "type": "uint256"
        }
      ],
      "name": "setPayloadSizeLimit",
      "outputs": [],
      "stateMutability": "nonpayable",
      "type": "function"
    },
    {
      "inputs": [
        {
          "internalType": "address",
          "name": "_precrime",
          "type": "address"
        }
      ],
      "name": "setPrecrime",
      "outputs": [],
      "stateMutability": "nonpayable",
      "type": "function"
    },
    {
      "inputs": [
        {
          "internalType": "uint16",
          "name": "_version",
          "type": "uint16"
        }
      ],
      "name": "setReceiveVersion",
      "outputs": [],
      "stateMutability": "nonpayable",
      "type": "function"
    },
    {
      "inputs": [
        {
          "internalType": "uint16",
          "name": "_version",
          "type": "uint16"
        }
      ],
      "name": "setSendVersion",
      "outputs": [],
      "stateMutability": "nonpayable",
      "type": "function"
    },
    {
      "inputs": [
        {
          "internalType": "uint16",
          "name": "_remoteChainId",
          "type": "uint16"
        },
        {
          "internalType": "bytes",
          "name": "_path",
          "type": "bytes"
        }
      ],
      "name": "setTrustedRemote",
      "outputs": [],
      "stateMutability": "nonpayable",
      "type": "function"
    },
    {
      "inputs": [
        {
          "internalType": "uint16",
          "name": "_remoteChainId",
          "type": "uint16"
        },
        {
          "internalType": "bytes",
          "name": "_remoteAddress",
          "type": "bytes"
        }
      ],
      "name": "setTrustedRemoteAddress",
      "outputs": [],
      "stateMutability": "nonpayable",
      "type": "function"
    },
    {
      "inputs": [
        {
          "internalType": "bool",
          "name": "_useCustomAdapterParams",
          "type": "bool"
        }
      ],
      "name": "setUseCustomAdapterParams",
      "outputs": [],
      "stateMutability": "nonpayable",
      "type": "function"
    },
    {
      "inputs": [
        {
          "internalType": "bytes4",
          "name": "interfaceId",
          "type": "bytes4"
        }
      ],
      "name": "supportsInterface",
      "outputs": [
        {
          "internalType": "bool",
          "name": "",
          "type": "bool"
        }
      ],
      "stateMutability": "view",
      "type": "function"
    },
    {
      "inputs": [],
      "name": "token",
      "outputs": [
        {
          "internalType": "address",
          "name": "",
          "type": "address"
        }
      ],
      "stateMutability": "view",
      "type": "function"
    },
    {
      "inputs": [
        {
          "internalType": "address",
          "name": "newOwner",
          "type": "address"
        }
      ],
      "name": "transferOwnership",
      "outputs": [],
      "stateMutability": "nonpayable",
      "type": "function"
    },
    {
      "inputs": [
        {
          "internalType": "uint16",
          "name": "",
          "type": "uint16"
        }
      ],
      "name": "trustedRemoteLookup",
      "outputs": [
        {
          "internalType": "bytes",
          "name": "",
          "type": "bytes"
        }
      ],
      "stateMutability": "view",
      "type": "function"
    },
    {
      "inputs": [],
      "name": "useCustomAdapterParams",
      "outputs": [
        {
          "internalType": "bool",
          "name": "",
          "type": "bool"
        }
      ],
      "stateMutability": "view",
      "type": "function"
    }
  ],
  "bytecode": "0x60c06040523480156200001157600080fd5b506040516200332c3803806200332c8339810160408190526200003491620000ce565b818080620000423362000061565b6001600160a01b039081166080529290921660a0525062000106915050565b600080546001600160a01b038381166001600160a01b0319831681178455604051919092169283917f8be0079c531659141344cd1fd0a4f28419497f9722a3daafe3b4186f6b6457e09190a35050565b80516001600160a01b0381168114620000c957600080fd5b919050565b60008060408385031215620000e257600080fd5b620000ed83620000b1565b9150620000fd60208401620000b1565b90509250929050565b60805160a0516131906200019c600039600081816106aa01528181610e8201528181610ef701528181611c0701528181611c8901528181611cc8015281816121c50152818161223f0152612287015260008181610556015281816106d101528181610957015281816109ff01528181610a7901528181610bf4015281816111a3015281816116230152611e7901526131906000f3fe6080604052600436106101f85760003560e01c80638da5cb5b1161010d578063cbed8b9c116100a0578063eb8d72b71161006f578063eb8d72b714610621578063ed629c5c14610641578063f2fde38b1461065b578063f5ecbdbc1461067b578063fc0c546a1461069b57600080fd5b8063cbed8b9c146105ae578063d1deba1f146105ce578063df2a5b3b146105e1578063eab45d9c1461060157600080fd5b8063a6c3d165116100dc578063a6c3d16514610524578063b353aaa714610544578063baf3292d14610578578063c44618341461059857600080fd5b80638da5cb5b1461049d5780639358928b146104cf578063950c8a74146104e45780639f38369a1461050457600080fd5b806342d65a8d116101905780635b8c41e61161015f5780635b8c41e6146103b457806366ad5c8a14610403578063715018a6146104235780637533d788146104385780638cfd8f5c1461046557600080fd5b806342d65a8d1461034457806344770515146103645780634c42899a1461037957806351905636146103a157600080fd5b806310ddb137116101cc57806310ddb137146102945780632a205e3d146102b45780633d8b38f6146102e95780633f1f4fa41461030957600080fd5b80621d3567146101fd57806301ffc9a71461021f57806307e0db17146102545780630df3748314610274575b600080fd5b34801561020957600080fd5b5061021d610218366004612709565b6106ce565b005b34801561022b57600080fd5b5061023f61023a36600461279e565b6108ff565b60405190151581526020015b60405180910390f35b34801561026057600080fd5b5061021d61026f3660046127c8565b610936565b34801561028057600080fd5b5061021d61028f3660046127e5565b6109bf565b3480156102a057600080fd5b5061021d6102af3660046127c8565b6109de565b3480156102c057600080fd5b506102d46102cf36600461281f565b610a36565b6040805192835260208301919091520161024b565b3480156102f557600080fd5b5061023f6103043660046128bf565b610b09565b34801561031557600080fd5b506103366103243660046127c8565b60036020526000908152604090205481565b60405190815260200161024b565b34801561035057600080fd5b5061021d61035f3660046128bf565b610bd5565b34801561037057600080fd5b50610336600081565b34801561038557600080fd5b5061038e600081565b60405161ffff909116815260200161024b565b61021d6103af366004612928565b610c5b565b3480156103c057600080fd5b506103366103cf366004612a5e565b6005602090815260009384526040808520845180860184018051928152908401958401959095209452929052825290205481565b34801561040f57600080fd5b5061021d61041e366004612709565b610ce0565b34801561042f57600080fd5b5061021d610dbc565b34801561044457600080fd5b506104586104533660046127c8565b610dd0565b60405161024b9190612b58565b34801561047157600080fd5b50610336610480366004612b6b565b600260209081526000928352604080842090915290825290205481565b3480156104a957600080fd5b506000546001600160a01b03165b6040516001600160a01b03909116815260200161024b565b3480156104db57600080fd5b50610336610e6a565b3480156104f057600080fd5b506004546104b7906001600160a01b031681565b34801561051057600080fd5b5061045861051f3660046127c8565b610f7d565b34801561053057600080fd5b5061021d61053f3660046128bf565b611094565b34801561055057600080fd5b506104b77f000000000000000000000000000000000000000000000000000000000000000081565b34801561058457600080fd5b5061021d610593366004612ba4565b611127565b3480156105a457600080fd5b5061033661271081565b3480156105ba57600080fd5b5061021d6105c9366004612bc1565b611184565b61021d6105dc366004612709565b61120e565b3480156105ed57600080fd5b5061021d6105fc366004612c33565b611424565b34801561060d57600080fd5b5061021d61061c366004612c74565b6114d6565b34801561062d57600080fd5b5061021d61063c3660046128bf565b61151f565b34801561064d57600080fd5b5060065461023f9060ff1681565b34801561066757600080fd5b5061021d610676366004612ba4565b611579565b34801561068757600080fd5b50610458610696366004612c91565b6115f2565b3480156106a757600080fd5b507f00000000000000000000000000000000000000000000000000000000000000006104b7565b337f00000000000000000000000000000000000000000000000000000000000000006001600160a01b03161461074b5760405162461bcd60e51b815260206004820152601e60248201527f4c7a4170703a20696e76616c696420656e64706f696e742063616c6c6572000060448201526064015b60405180910390fd5b61ffff86166000908152600160205260408120805461076990612ce2565b80601f016020809104026020016040519081016040528092919081815260200182805461079590612ce2565b80156107e25780601f106107b7576101008083540402835291602001916107e2565b820191906000526020600020905b8154815290600101906020018083116107c557829003601f168201915b505050505090508051868690501480156107fd575060008151115b801561082557508051602082012060405161081b9088908890612d1d565b6040518091039020145b6108805760405162461bcd60e51b815260206004820152602660248201527f4c7a4170703a20696e76616c696420736f757263652073656e64696e6720636f6044820152651b9d1c9858dd60d21b6064820152608401610742565b6108f68787878080601f01602080910402602001604051908101604052809392919081815260200183838082843760009201919091525050604080516020601f8a018190048102820181019092528881528a9350915088908890819084018382808284376000920191909152506116a592505050565b50505050505050565b60006001600160e01b03198216630a72677560e11b148061093057506301ffc9a760e01b6001600160e01b03198316145b92915050565b61093e61171e565b6040516307e0db1760e01b815261ffff821660048201527f00000000000000000000000000000000000000000000000000000000000000006001600160a01b0316906307e0db17906024015b600060405180830381600087803b1580156109a457600080fd5b505af11580156109b8573d6000803e3d6000fd5b5050505050565b6109c761171e565b61ffff909116600090815260036020526040902055565b6109e661171e565b6040516310ddb13760e01b815261ffff821660048201527f00000000000000000000000000000000000000000000000000000000000000006001600160a01b0316906310ddb1379060240161098a565b600080600080898989604051602001610a529493929190612d56565b60408051601f198184030181529082905263040a7bb160e41b825291506001600160a01b037f000000000000000000000000000000000000000000000000000000000000000016906340a7bb1090610ab8908d90309086908c908c908c90600401612d85565b6040805180830381865afa158015610ad4573d6000803e3d6000fd5b505050506040513d601f19601f82011682018060405250810190610af89190612ddb565b925092505097509795505050505050565b61ffff831660009081526001602052604081208054829190610b2a90612ce2565b80601f0160208091040260200160405190810160405280929190818152602001828054610b5690612ce2565b8015610ba35780601f10610b7857610100808354040283529160200191610ba3565b820191906000526020600020905b815481529060010190602001808311610b8657829003601f168201915b505050505090508383604051610bba929190612d1d565b60405180910390208180519060200120149150509392505050565b610bdd61171e565b6040516342d65a8d60e01b81526001600160a01b037f000000000000000000000000000000000000000000000000000000000000000016906342d65a8d90610c2d90869086908690600401612dff565b600060405180830381600087803b158015610c4757600080fd5b505af11580156108f6573d6000803e3d6000fd5b610cd5898989898080601f01602080910402602001604051908101604052809392919081815260200183838082843760009201919091525050604080516020601f8a018190048102820181019092528881528c93508b92508a918a908a908190840183828082843760009201919091525061177892505050565b505050505050505050565b333014610d3e5760405162461bcd60e51b815260206004820152602660248201527f4e6f6e626c6f636b696e674c7a4170703a2063616c6c6572206d7573742062656044820152650204c7a4170760d41b6064820152608401610742565b610db48686868080601f01602080910402602001604051908101604052809392919081815260200183838082843760009201919091525050604080516020601f89018190048102820181019092528781528993509150879087908190840183828082843760009201919091525061181f92505050565b505050505050565b610dc461171e565b610dce6000611886565b565b60016020526000908152604090208054610de990612ce2565b80601f0160208091040260200160405190810160405280929190818152602001828054610e1590612ce2565b8015610e625780601f10610e3757610100808354040283529160200191610e62565b820191906000526020600020905b815481529060010190602001808311610e4557829003601f168201915b505050505081565b6040516370a0823160e01b81523060048201526000907f00000000000000000000000000000000000000000000000000000000000000006001600160a01b0316906370a0823190602401602060405180830381865afa158015610ed1573d6000803e3d6000fd5b505050506040513d601f19601f82011682018060405250810190610ef59190612e1d565b7f00000000000000000000000000000000000000000000000000000000000000006001600160a01b03166318160ddd6040518163ffffffff1660e01b8152600401602060405180830381865afa158015610f53573d6000803e3d6000fd5b505050506040513d601f19601f82011682018060405250810190610f779190612e1d565b03905090565b61ffff8116600090815260016020526040812080546060929190610fa090612ce2565b80601f0160208091040260200160405190810160405280929190818152602001828054610fcc90612ce2565b80156110195780601f10610fee57610100808354040283529160200191611019565b820191906000526020600020905b815481529060010190602001808311610ffc57829003601f168201915b505050505090508051600014156110725760405162461bcd60e51b815260206004820152601d60248201527f4c7a4170703a206e6f20747275737465642070617468207265636f72640000006044820152606401610742565b61108d6000601483516110859190612e4c565b8391906118d6565b9392505050565b61109c61171e565b8181306040516020016110b193929190612e63565b60408051601f1981840301815291815261ffff851660009081526001602090815291902082516110e693919290910190612588565b507f8c0400cfe2d1199b1a725c78960bcc2a344d869b80590d0f2bd005db15a572ce83838360405161111a93929190612dff565b60405180910390a1505050565b61112f61171e565b600480546001600160a01b0319166001600160a01b0383169081179091556040519081527f5db758e995a17ec1ad84bdef7e8c3293a0bd6179bcce400dff5d4c3d87db726b906020015b60405180910390a150565b61118c61171e565b6040516332fb62e760e21b81526001600160a01b037f0000000000000000000000000000000000000000000000000000000000000000169063cbed8b9c906111e09088908890889088908890600401612e89565b600060405180830381600087803b1580156111fa57600080fd5b505af1158015610cd5573d6000803e3d6000fd5b61ffff861660009081526005602052604080822090516112319088908890612d1d565b90815260408051602092819003830190206001600160401b038716600090815292529020549050806112b15760405162461bcd60e51b815260206004820152602360248201527f4e6f6e626c6f636b696e674c7a4170703a206e6f2073746f726564206d65737360448201526261676560e81b6064820152608401610742565b8083836040516112c2929190612d1d565b6040518091039020146113215760405162461bcd60e51b815260206004820152602160248201527f4e6f6e626c6f636b696e674c7a4170703a20696e76616c6964207061796c6f616044820152601960fa1b6064820152608401610742565b61ffff871660009081526005602052604080822090516113449089908990612d1d565b90815260408051602092819003830181206001600160401b038916600090815290845282902093909355601f880182900482028301820190528682526113dc918991899089908190840183828082843760009201919091525050604080516020601f8a018190048102820181019092528881528a93509150889088908190840183828082843760009201919091525061181f92505050565b7fc264d91f3adc5588250e1551f547752ca0cfa8f6b530d243b9f9f4cab10ea8e58787878785604051611413959493929190612eb7565b60405180910390a150505050505050565b61142c61171e565b600081116114745760405162461bcd60e51b81526020600482015260156024820152744c7a4170703a20696e76616c6964206d696e47617360581b6044820152606401610742565b61ffff83811660008181526002602090815260408083209487168084529482529182902085905581519283528201929092529081018290527f9d5c7c0b934da8fefa9c7760c98383778a12dfbfc0c3b3106518f43fb9508ac09060600161111a565b6114de61171e565b6006805460ff19168215159081179091556040519081527f1584ad594a70cbe1e6515592e1272a987d922b097ead875069cebe8b40c004a490602001611179565b61152761171e565b61ffff8316600090815260016020526040902061154590838361260c565b507ffa41487ad5d6728f0b19276fa1eddc16558578f5109fc39d2dc33c3230470dab83838360405161111a93929190612dff565b61158161171e565b6001600160a01b0381166115e65760405162461bcd60e51b815260206004820152602660248201527f4f776e61626c653a206e6577206f776e657220697320746865207a65726f206160448201526564647265737360d01b6064820152608401610742565b6115ef81611886565b50565b604051633d7b2f6f60e21b815261ffff808616600483015284166024820152306044820152606481018290526060907f00000000000000000000000000000000000000000000000000000000000000006001600160a01b03169063f5ecbdbc90608401600060405180830381865afa158015611672573d6000803e3d6000fd5b505050506040513d6000823e601f3d908101601f1916820160405261169a9190810190612f37565b90505b949350505050565b6000806117085a60966366ad5c8a60e01b898989896040516024016116cd9493929190612f6b565b60408051601f198184030181529190526020810180516001600160e01b03166001600160e01b031990931692909217909152309291906119e3565b9150915081610db457610db48686868685611a6d565b6000546001600160a01b03163314610dce5760405162461bcd60e51b815260206004820181905260248201527f4f776e61626c653a2063616c6c6572206973206e6f7420746865206f776e65726044820152606401610742565b611786866000836000611b0a565b600061179488888888611b8a565b905060008087836040516020016117ad93929190612fa9565b60405160208183030381529060405290506117cc888287878734611d4f565b886001600160a01b03168861ffff167f39a4c66499bcf4b56d79f0dde8ed7a9d4925a0df55825206b2b8531e202be0d0898560405161180c929190612fd6565b60405180910390a3505050505050505050565b602081015161ffff811661183e5761183985858585611ef5565b6109b8565b60405162461bcd60e51b815260206004820152601c60248201527f4f4654436f72653a20756e6b6e6f776e207061636b65742074797065000000006044820152606401610742565b600080546001600160a01b038381166001600160a01b0319831681178455604051919092169283917f8be0079c531659141344cd1fd0a4f28419497f9722a3daafe3b4186f6b6457e09190a35050565b6060816118e481601f612ff8565b10156119235760405162461bcd60e51b815260206004820152600e60248201526d736c6963655f6f766572666c6f7760901b6044820152606401610742565b61192d8284612ff8565b845110156119715760405162461bcd60e51b8152602060048201526011602482015270736c6963655f6f75744f66426f756e647360781b6044820152606401610742565b60608215801561199057604051915060008252602082016040526119da565b6040519150601f8416801560200281840101858101878315602002848b0101015b818310156119c95780518352602092830192016119b1565b5050858452601f01601f1916604052505b50949350505050565b6000606060008060008661ffff166001600160401b03811115611a0857611a086129f1565b6040519080825280601f01601f191660200182016040528015611a32576020820181803683370190505b50905060008087516020890160008d8df191503d925086831115611a54578692505b828152826000602083013e909890975095505050505050565b8180519060200120600560008761ffff1661ffff16815260200190815260200160002085604051611a9e9190613010565b9081526040805191829003602090810183206001600160401b0388166000908152915220919091557fe183f33de2837795525b4792ca4cd60535bd77c53b7e7030060bfcf5734d6b0c90611afb908790879087908790879061302c565b60405180910390a15050505050565b60065460ff1615611b2657611b2184848484611f7f565b611b84565b815115611b845760405162461bcd60e51b815260206004820152602660248201527f4f4654436f72653a205f61646170746572506172616d73206d7573742062652060448201526532b6b83a3c9760d11b6064820152608401610742565b50505050565b60006001600160a01b0385163314611bef5760405162461bcd60e51b815260206004820152602260248201527f50726f78794f46543a206f776e6572206973206e6f742073656e642063616c6c60448201526132b960f11b6064820152608401610742565b6040516370a0823160e01b81523060048201526000907f00000000000000000000000000000000000000000000000000000000000000006001600160a01b0316906370a0823190602401602060405180830381865afa158015611c56573d6000803e3d6000fd5b505050506040513d601f19601f82011682018060405250810190611c7a9190612e1d565b9050611cb16001600160a01b037f00000000000000000000000000000000000000000000000000000000000000001687308661205e565b6040516370a0823160e01b815230600482015281907f00000000000000000000000000000000000000000000000000000000000000006001600160a01b0316906370a0823190602401602060405180830381865afa158015611d17573d6000803e3d6000fd5b505050506040513d601f19601f82011682018060405250810190611d3b9190612e1d565b611d459190612e4c565b9695505050505050565b61ffff861660009081526001602052604081208054611d6d90612ce2565b80601f0160208091040260200160405190810160405280929190818152602001828054611d9990612ce2565b8015611de65780601f10611dbb57610100808354040283529160200191611de6565b820191906000526020600020905b815481529060010190602001808311611dc957829003601f168201915b50505050509050805160001415611e585760405162461bcd60e51b815260206004820152603060248201527f4c7a4170703a2064657374696e6174696f6e20636861696e206973206e6f742060448201526f61207472757374656420736f7572636560801b6064820152608401610742565b611e638787516120c9565b60405162c5803160e81b81526001600160a01b037f0000000000000000000000000000000000000000000000000000000000000000169063c5803100908490611eba908b9086908c908c908c908c9060040161308a565b6000604051808303818588803b158015611ed357600080fd5b505af1158015611ee7573d6000803e3d6000fd5b505050505050505050505050565b60008082806020019051810190611f0c91906130e4565b909350915060009050611f1f838261213c565b9050611f2c8782846121a1565b9150806001600160a01b03168761ffff167fbf551ec93859b170f9b2141bd9298bf3f64322c6f7beb2543a0cb669834118bf84604051611f6e91815260200190565b60405180910390a350505050505050565b6000611f8a83612307565b61ffff808716600090815260026020908152604080832093891683529290529081205491925090611fbc908490612ff8565b90506000811161200e5760405162461bcd60e51b815260206004820152601a60248201527f4c7a4170703a206d696e4761734c696d6974206e6f74207365740000000000006044820152606401610742565b80821015610db45760405162461bcd60e51b815260206004820152601b60248201527f4c7a4170703a20676173206c696d697420697320746f6f206c6f7700000000006044820152606401610742565b6040516001600160a01b0380851660248301528316604482015260648101829052611b849085906323b872dd60e01b906084015b60408051601f198184030181529190526020810180516001600160e01b03166001600160e01b031990931692909217909152612363565b61ffff8216600090815260036020526040902054806120e757506127105b808211156121375760405162461bcd60e51b815260206004820181905260248201527f4c7a4170703a207061796c6f61642073697a6520697320746f6f206c617267656044820152606401610742565b505050565b6000612149826014612ff8565b835110156121915760405162461bcd60e51b8152602060048201526015602482015274746f416464726573735f6f75744f66426f756e647360581b6044820152606401610742565b500160200151600160601b900490565b6040516370a0823160e01b81526001600160a01b03838116600483015260009182917f000000000000000000000000000000000000000000000000000000000000000016906370a0823190602401602060405180830381865afa15801561220c573d6000803e3d6000fd5b505050506040513d601f19601f820116820180604052508101906122309190612e1d565b90506122666001600160a01b037f0000000000000000000000000000000000000000000000000000000000000000168585612438565b6040516370a0823160e01b81526001600160a01b03858116600483015282917f0000000000000000000000000000000000000000000000000000000000000000909116906370a0823190602401602060405180830381865afa1580156122d0573d6000803e3d6000fd5b505050506040513d601f19601f820116820180604052508101906122f49190612e1d565b6122fe9190612e4c565b95945050505050565b600060228251101561235b5760405162461bcd60e51b815260206004820152601c60248201527f4c7a4170703a20696e76616c69642061646170746572506172616d73000000006044820152606401610742565b506022015190565b60006123b8826040518060400160405280602081526020017f5361666545524332303a206c6f772d6c6576656c2063616c6c206661696c6564815250856001600160a01b03166124689092919063ffffffff16565b90508051600014806123d95750808060200190518101906123d9919061313d565b6121375760405162461bcd60e51b815260206004820152602a60248201527f5361666545524332303a204552433230206f7065726174696f6e20646964206e6044820152691bdd081cdd58d8d9595960b21b6064820152608401610742565b6040516001600160a01b03831660248201526044810182905261213790849063a9059cbb60e01b90606401612092565b606061169d848460008585600080866001600160a01b0316858760405161248f9190613010565b60006040518083038185875af1925050503d80600081146124cc576040519150601f19603f3d011682016040523d82523d6000602084013e6124d1565b606091505b50915091506124e2878383876124ed565b979650505050505050565b60608315612559578251612552576001600160a01b0385163b6125525760405162461bcd60e51b815260206004820152601d60248201527f416464726573733a2063616c6c20746f206e6f6e2d636f6e74726163740000006044820152606401610742565b508161169d565b61169d838381511561256e5781518083602001fd5b8060405162461bcd60e51b81526004016107429190612b58565b82805461259490612ce2565b90600052602060002090601f0160209004810192826125b657600085556125fc565b82601f106125cf57805160ff19168380011785556125fc565b828001600101855582156125fc579182015b828111156125fc5782518255916020019190600101906125e1565b50612608929150612680565b5090565b82805461261890612ce2565b90600052602060002090601f01602090048101928261263a57600085556125fc565b82601f106126535782800160ff198235161785556125fc565b828001600101855582156125fc579182015b828111156125fc578235825591602001919060010190612665565b5b808211156126085760008155600101612681565b61ffff811681146115ef57600080fd5b60008083601f8401126126b757600080fd5b5081356001600160401b038111156126ce57600080fd5b6020830191508360208285010111156126e657600080fd5b9250929050565b80356001600160401b038116811461270457600080fd5b919050565b6000806000806000806080878903121561272257600080fd5b863561272d81612695565b955060208701356001600160401b038082111561274957600080fd5b6127558a838b016126a5565b909750955085915061276960408a016126ed565b9450606089013591508082111561277f57600080fd5b5061278c89828a016126a5565b979a9699509497509295939492505050565b6000602082840312156127b057600080fd5b81356001600160e01b03198116811461108d57600080fd5b6000602082840312156127da57600080fd5b813561108d81612695565b600080604083850312156127f857600080fd5b823561280381612695565b946020939093013593505050565b80151581146115ef57600080fd5b600080600080600080600060a0888a03121561283a57600080fd5b873561284581612695565b965060208801356001600160401b038082111561286157600080fd5b61286d8b838c016126a5565b909850965060408a0135955060608a0135915061288982612811565b9093506080890135908082111561289f57600080fd5b506128ac8a828b016126a5565b989b979a50959850939692959293505050565b6000806000604084860312156128d457600080fd5b83356128df81612695565b925060208401356001600160401b038111156128fa57600080fd5b612906868287016126a5565b9497909650939450505050565b6001600160a01b03811681146115ef57600080fd5b600080600080600080600080600060e08a8c03121561294657600080fd5b893561295181612913565b985060208a013561296181612695565b975060408a01356001600160401b038082111561297d57600080fd5b6129898d838e016126a5565b909950975060608c0135965060808c013591506129a582612913565b90945060a08b0135906129b782612913565b90935060c08b013590808211156129cd57600080fd5b506129da8c828d016126a5565b915080935050809150509295985092959850929598565b634e487b7160e01b600052604160045260246000fd5b604051601f8201601f191681016001600160401b0381118282101715612a2f57612a2f6129f1565b604052919050565b60006001600160401b03821115612a5057612a506129f1565b50601f01601f191660200190565b600080600060608486031215612a7357600080fd5b8335612a7e81612695565b925060208401356001600160401b03811115612a9957600080fd5b8401601f81018613612aaa57600080fd5b8035612abd612ab882612a37565b612a07565b818152876020838501011115612ad257600080fd5b81602084016020830137600060208383010152809450505050612af7604085016126ed565b90509250925092565b60005b83811015612b1b578181015183820152602001612b03565b83811115611b845750506000910152565b60008151808452612b44816020860160208601612b00565b601f01601f19169290920160200192915050565b60208152600061108d6020830184612b2c565b60008060408385031215612b7e57600080fd5b8235612b8981612695565b91506020830135612b9981612695565b809150509250929050565b600060208284031215612bb657600080fd5b813561108d81612913565b600080600080600060808688031215612bd957600080fd5b8535612be481612695565b94506020860135612bf481612695565b93506040860135925060608601356001600160401b03811115612c1657600080fd5b612c22888289016126a5565b969995985093965092949392505050565b600080600060608486031215612c4857600080fd5b8335612c5381612695565b92506020840135612c6381612695565b929592945050506040919091013590565b600060208284031215612c8657600080fd5b813561108d81612811565b60008060008060808587031215612ca757600080fd5b8435612cb281612695565b93506020850135612cc281612695565b92506040850135612cd281612913565b9396929550929360600135925050565b600181811c90821680612cf657607f821691505b60208210811415612d1757634e487b7160e01b600052602260045260246000fd5b50919050565b8183823760009101908152919050565b81835281816020850137506000828201602090810191909152601f909101601f19169091010190565b61ffff85168152606060208201526000612d74606083018587612d2d565b905082604083015295945050505050565b61ffff871681526001600160a01b038616602082015260a060408201819052600090612db390830187612b2c565b85151560608401528281036080840152612dce818587612d2d565b9998505050505050505050565b60008060408385031215612dee57600080fd5b505080516020909101519092909150565b61ffff8416815260406020820152600061169a604083018486612d2d565b600060208284031215612e2f57600080fd5b5051919050565b634e487b7160e01b600052601160045260246000fd5b600082821015612e5e57612e5e612e36565b500390565b8284823760609190911b6bffffffffffffffffffffffff19169101908152601401919050565b600061ffff8088168352808716602084015250846040830152608060608301526124e2608083018486612d2d565b61ffff86168152608060208201526000612ed5608083018688612d2d565b6001600160401b0394909416604083015250606001529392505050565b600082601f830112612f0357600080fd5b8151612f11612ab882612a37565b818152846020838601011115612f2657600080fd5b61169d826020830160208701612b00565b600060208284031215612f4957600080fd5b81516001600160401b03811115612f5f57600080fd5b61169d84828501612ef2565b61ffff85168152608060208201526000612f886080830186612b2c565b6001600160401b038516604084015282810360608401526124e28185612b2c565b61ffff84168152606060208201526000612fc66060830185612b2c565b9050826040830152949350505050565b604081526000612fe96040830185612b2c565b90508260208301529392505050565b6000821982111561300b5761300b612e36565b500190565b60008251613022818460208701612b00565b9190910192915050565b61ffff8616815260a06020820152600061304960a0830187612b2c565b6001600160401b0386166040840152828103606084015261306a8186612b2c565b9050828103608084015261307e8185612b2c565b98975050505050505050565b61ffff8716815260c0602082015260006130a760c0830188612b2c565b82810360408401526130b98188612b2c565b6001600160a01b0387811660608601528616608085015283810360a08501529050612dce8185612b2c565b6000806000606084860312156130f957600080fd5b835161310481612695565b60208501519093506001600160401b0381111561312057600080fd5b61312c86828701612ef2565b925050604084015190509250925092565b60006020828403121561314f57600080fd5b815161108d8161281156fea2646970667358221220efce7d0a1e013897dd7ba3bcec4fd4b223872f4301abd1ad1167e13ed365e58364736f6c634300080c0033",
  "linkReferences": {},
  "deployedLinkReferences": {}
}