{
  "_format": "hh-sol-artifact-1",
  "contractName": "ProxyOFTV2PreCrimeView",
  "sourceName": "contracts/token/oft/v2/precrime/ProxyOFTV2PreCrimeView.sol",
  "abi": [
    {
      "inputs": [
        {
          "internalType": "uint16",
          "name": "_localChainId",
          "type": "uint16"
        },
        {
          "internalType": "address",
          "name": "_oftView",
          "type": "address"
        },
        {
          "internalType": "uint64",
          "name": "_maxSize",
          "type": "uint64"
        }
      ],
      "stateMutability": "nonpayable",
      "type": "constructor"
    },
    {
      "anonymous": false,
      "inputs": [
        {
          "indexed": true,
          "internalType": "address",
          "name": "previousOwner",
          "type": "address"
        },
        {
          "indexed": true,
          "internalType": "address",
          "name": "newOwner",
          "type": "address"
        }
      ],
      "name": "OwnershipTransferred",
      "type": "event"
    },
    {
      "inputs": [],
      "name": "CODE_MISS_SIMULATE_RESULT",
      "outputs": [
        {
          "internalType": "uint16",
          "name": "",
          "type": "uint16"
        }
      ],
      "stateMutability": "view",
      "type": "function"
    },
    {
      "inputs": [],
      "name": "CODE_PACKETS_OVERSIZE",
      "outputs": [
        {
          "internalType": "uint16",
          "name": "",
          "type": "uint16"
        }
      ],
      "stateMutability": "view",
      "type": "function"
    },
    {
      "inputs": [],
      "name": "CODE_PACKETS_UNSORTED",
      "outputs": [
        {
          "internalType": "uint16",
          "name": "",
          "type": "uint16"
        }
      ],
      "stateMutability": "view",
      "type": "function"
    },
    {
      "inputs": [],
      "name": "CODE_PRECRIME_FAILURE",
      "outputs": [
        {
          "internalType": "uint16",
          "name": "",
          "type": "uint16"
        }
      ],
      "stateMutability": "view",
      "type": "function"
    },
    {
      "inputs": [],
      "name": "CODE_SUCCESS",
      "outputs": [
        {
          "internalType": "uint16",
          "name": "",
          "type": "uint16"
        }
      ],
      "stateMutability": "view",
      "type": "function"
    },
    {
      "inputs": [],
      "name": "CONFIG_VERSION",
      "outputs": [
        {
          "internalType": "uint16",
          "name": "",
          "type": "uint16"
        }
      ],
      "stateMutability": "view",
      "type": "function"
    },
    {
      "inputs": [],
      "name": "PRECRIME_VERSION",
      "outputs": [
        {
          "internalType": "uint16",
          "name": "",
          "type": "uint16"
        }
      ],
      "stateMutability": "view",
      "type": "function"
    },
    {
      "inputs": [
        {
          "components": [
            {
              "internalType": "uint16",
              "name": "srcChainId",
              "type": "uint16"
            },
            {
              "internalType": "bytes32",
              "name": "srcAddress",
              "type": "bytes32"
            },
            {
              "internalType": "uint64",
              "name": "nonce",
              "type": "uint64"
            },
            {
              "internalType": "bytes",
              "name": "payload",
              "type": "bytes"
            }
          ],
          "internalType": "struct IPreCrimeBase.Packet[]",
          "name": "_packets",
          "type": "tuple[]"
        }
      ],
      "name": "getConfig",
      "outputs": [
        {
          "internalType": "bytes",
          "name": "",
          "type": "bytes"
        }
      ],
      "stateMutability": "view",
      "type": "function"
    },
    {
      "inputs": [],
      "name": "localChainId",
      "outputs": [
        {
          "internalType": "uint16",
          "name": "",
          "type": "uint16"
        }
      ],
      "stateMutability": "view",
      "type": "function"
    },
    {
      "inputs": [],
      "name": "maxBatchSize",
      "outputs": [
        {
          "internalType": "uint64",
          "name": "",
          "type": "uint64"
        }
      ],
      "stateMutability": "view",
      "type": "function"
    },
    {
      "inputs": [],
      "name": "oftView",
      "outputs": [
        {
          "internalType": "contract IOFTV2View",
          "name": "",
          "type": "address"
        }
      ],
      "stateMutability": "view",
      "type": "function"
    },
    {
      "inputs": [],
      "name": "owner",
      "outputs": [
        {
          "internalType": "address",
          "name": "",
          "type": "address"
        }
      ],
      "stateMutability": "view",
      "type": "function"
    },
    {
      "inputs": [
        {
          "components": [
            {
              "internalType": "uint16",
              "name": "srcChainId",
              "type": "uint16"
            },
            {
              "internalType": "bytes32",
              "name": "srcAddress",
              "type": "bytes32"
            },
            {
              "internalType": "uint64",
              "name": "nonce",
              "type": "uint64"
            },
            {
              "internalType": "bytes",
              "name": "payload",
              "type": "bytes"
            }
          ],
          "internalType": "struct IPreCrimeBase.Packet[]",
          "name": "_packets",
          "type": "tuple[]"
        },
        {
          "internalType": "bytes[]",
          "name": "_simulation",
          "type": "bytes[]"
        }
      ],
      "name": "precrime",
      "outputs": [
        {
          "internalType": "uint16",
          "name": "code",
          "type": "uint16"
        },
        {
          "internalType": "bytes",
          "name": "reason",
          "type": "bytes"
        }
      ],
      "stateMutability": "view",
      "type": "function"
    },
    {
      "inputs": [
        {
          "internalType": "uint256",
          "name": "",
          "type": "uint256"
        }
      ],
      "name": "remoteChainIds",
      "outputs": [
        {
          "internalType": "uint16",
          "name": "",
          "type": "uint16"
        }
      ],
      "stateMutability": "view",
      "type": "function"
    },
    {
      "inputs": [
        {
          "internalType": "uint256",
          "name": "",
          "type": "uint256"
        }
      ],
      "name": "remotePrecrimeAddresses",
      "outputs": [
        {
          "internalType": "bytes32",
          "name": "",
          "type": "bytes32"
        }
      ],
      "stateMutability": "view",
      "type": "function"
    },
    {
      "inputs": [],
      "name": "renounceOwnership",
      "outputs": [],
      "stateMutability": "nonpayable",
      "type": "function"
    },
    {
      "inputs": [
        {
          "internalType": "uint64",
          "name": "_maxSize",
          "type": "uint64"
        }
      ],
      "name": "setMaxBatchSize",
      "outputs": [],
      "stateMutability": "nonpayable",
      "type": "function"
    },
    {
      "inputs": [
        {
          "internalType": "uint16[]",
          "name": "_remoteChainIds",
          "type": "uint16[]"
        },
        {
          "internalType": "bytes32[]",
          "name": "_remotePrecrimeAddresses",
          "type": "bytes32[]"
        }
      ],
      "name": "setRemotePrecrimeAddresses",
      "outputs": [],
      "stateMutability": "nonpayable",
      "type": "function"
    },
    {
      "inputs": [
        {
          "components": [
            {
              "internalType": "uint16",
              "name": "srcChainId",
              "type": "uint16"
            },
            {
              "internalType": "bytes32",
              "name": "srcAddress",
              "type": "bytes32"
            },
            {
              "internalType": "uint64",
              "name": "nonce",
              "type": "uint64"
            },
            {
              "internalType": "bytes",
              "name": "payload",
              "type": "bytes"
            }
          ],
          "internalType": "struct IPreCrimeBase.Packet[]",
          "name": "_packets",
          "type": "tuple[]"
        }
      ],
      "name": "simulate",
      "outputs": [
        {
          "internalType": "uint16",
          "name": "code",
          "type": "uint16"
        },
        {
          "internalType": "bytes",
          "name": "data",
          "type": "bytes"
        }
      ],
      "stateMutability": "view",
      "type": "function"
    },
    {
      "inputs": [
        {
          "internalType": "address",
          "name": "newOwner",
          "type": "address"
        }
      ],
      "name": "transferOwnership",
      "outputs": [],
      "stateMutability": "nonpayable",
      "type": "function"
    },
    {
      "inputs": [],
      "name": "version",
      "outputs": [
        {
          "internalType": "uint16",
          "name": "",
          "type": "uint16"
        }
      ],
      "stateMutability": "pure",
      "type": "function"
    }
  ],
  "bytecode": "0x60a06040523480156200001157600080fd5b5060405162001b8438038062001b8483398101604081905262000034916200017d565b6000805461ffff191661ffff85161781556200004f620000c9565b6000805462010000600160b01b031916620100006001600160a01b038416908102919091178255604051929350917f8be0079c531659141344cd1fd0a4f28419497f9722a3daafe3b4186f6b6457e0908290a3506001600160601b0319606083901b16608052620000c081620000cd565b505050620001e9565b3390565b620000d7620000c9565b6001600160a01b0316620000ea62000168565b6001600160a01b03161462000146576040805162461bcd60e51b815260206004820181905260248201527f4f776e61626c653a2063616c6c6572206973206e6f7420746865206f776e6572604482015290519081900360640190fd5b600380546001600160401b0319166001600160401b0392909216919091179055565b6000546201000090046001600160a01b031690565b60008060006060848603121562000192578283fd5b835161ffff81168114620001a4578384fd5b60208501519093506001600160a01b0381168114620001c1578283fd5b60408501519092506001600160401b0381168114620001de578182fd5b809150509250925092565b60805160601c6119696200021b600039806102905280610d915280610e7c5280610f26528061100052506119696000f3fe608060405234801561001057600080fd5b50600436106101375760003560e01c8063715018a6116100b8578063bb9683681161007c578063bb96836814610224578063c6be4b9b14610237578063ec67df301461023f578063f0099e2a14610260578063f2fde38b14610273578063f95d14041461028657610137565b8063715018a6146101cc5780638da5cb5b146101d65780639590dc9d146101de5780639eb51f5b146101fe578063afea44ef1461021157610137565b806334e30097116100ff57806334e3009714610194578063472641c1146101945780634e0ab1ab1461019c57806354fd4d50146101bc5780635b056da5146101c457610137565b8063028c382f1461013c5780630638fb641461015a5780630e735a631461016f57806317c9efb0146101775780632913daa01461017f575b600080fd5b61014461028e565b60405161015191906116a0565b60405180910390f35b6101626102b2565b604051610151919061172d565b6101626102b7565b6101626102bc565b6101876102c1565b6040516101519190611795565b6101626102d0565b6101af6101aa3660046114f0565b6102d5565b60405161015191906116b4565b6101626102f6565b6101626102fc565b6101d4610306565b005b6101446103b9565b6101f16101ec3660046112e5565b6103ce565b60405161015191906116bd565b61016261020c3660046114f0565b61041c565b6101d461021f366004611520565b610454565b6101d461023236600461138c565b6104d9565b610162610591565b61025261024d366004611324565b610596565b604051610151929190611770565b61025261026e3660046112e5565b6106eb565b6101d46102813660046112b7565b610757565b610162610867565b7f000000000000000000000000000000000000000000000000000000000000000081565b600281565b600381565b600081565b6003546001600160401b031681565b600181565b600281815481106102e557600080fd5b600091825260209091200154905081565b61271190565b60005461ffff1681565b61030e61086d565b6001600160a01b031661031f6103b9565b6001600160a01b031614610368576040805162461bcd60e51b81526020600482018190526024820152600080516020611914833981519152604482015290519081900360640190fd5b60008054604051620100009091046001600160a01b0316907f8be0079c531659141344cd1fd0a4f28419497f9722a3daafe3b4186f6b6457e0908390a36000805462010000600160b01b0319169055565b6000546201000090046001600160a01b031690565b60606000806103dd8585610871565b9150915060016103eb61094f565b83518484604051602001610403959493929190611611565b6040516020818303038152906040529250505092915050565b6001818154811061042c57600080fd5b9060005260206000209060109182820401919006600202915054906101000a900461ffff1681565b61045c61086d565b6001600160a01b031661046d6103b9565b6001600160a01b0316146104b6576040805162461bcd60e51b81526020600482018190526024820152600080516020611914833981519152604482015290519081900360640190fd5b6003805467ffffffffffffffff19166001600160401b0392909216919091179055565b6104e161086d565b6001600160a01b03166104f26103b9565b6001600160a01b03161461053b576040805162461bcd60e51b81526020600482018190526024820152600080516020611914833981519152604482015290519081900360640190fd5b80518251146105655760405162461bcd60e51b815260040161055c906116d0565b60405180910390fd5b815161057890600190602085019061108b565b50805161058c906002906020840190611134565b505050565b600481565b6000606081836001600160401b03811180156105b157600080fd5b506040519080825280602002602001820160405280156105e557816020015b60608152602001906001900390816105d05790505b5090506000846001600160401b038111801561060057600080fd5b5060405190808252806020026020018201604052801561062a578160200160208202803683370190505b50905060005b858110156106af5760008088888481811061064757fe5b905060200281019061065991906117a9565b81019061066691906114af565b915091508184848151811061067757fe5b602002602001019061ffff16908161ffff16815250508085848151811061069a57fe5b60209081029190910101525050600101610630565b506106bb88888361095e565b909450925061ffff8416156106d15750506106e2565b6106da82610ad7565b909450925050505b94509492505050565b600060606106f98484610bee565b909250905061ffff82161561070d57610750565b6107178484610d89565b909250905061ffff82166107505760005460405161073e9161ffff16908390602001611770565b60405160208183030381529060405290505b9250929050565b61075f61086d565b6001600160a01b03166107706103b9565b6001600160a01b0316146107b9576040805162461bcd60e51b81526020600482018190526024820152600080516020611914833981519152604482015290519081900360640190fd5b6001600160a01b0381166107fe5760405162461bcd60e51b81526004018080602001828103825260268152602001806118ee6026913960400191505060405180910390fd5b600080546040516001600160a01b03808516936201000090930416917f8be0079c531659141344cd1fd0a4f28419497f9722a3daafe3b4186f6b6457e091a3600080546001600160a01b03909216620100000262010000600160b01b0319909216919091179055565b61271181565b3390565b60608060016002818054806020026020016040519081016040528092919081815260200182805480156108eb57602002820191906000526020600020906000905b82829054906101000a900461ffff1661ffff16815260200190600201906020826001010492830192600103820291508084116108b25790505b505050505091508080548060200260200160405190810160405280929190818152602001828054801561093d57602002820191906000526020600020905b815481526020019060010190808311610929575b50505050509050915091509250929050565b6003546001600160401b031690565b600060608315610a2d5760006109748686610871565b50905060005b8151811015610a2a576000805b86518110156109d75783838151811061099c57fe5b602002602001015161ffff168782815181106109b457fe5b602002602001015161ffff1614156109cf57600191506109d7565b600101610987565b5080610a215760046040518060400160405280602081526020017f6d697373696e672072656d6f74652073696d756c6174696f6e20726573756c7481525094509450505050610acf565b5060010161097a565b50505b6000805b8451811015610a7557600054855161ffff90911690869083908110610a5257fe5b602002602001015161ffff161415610a6d5760019150610a75565b600101610a31565b5080610aba57505060408051808201909152601f81527f6d697373696e67206c6f63616c2073696d756c6174696f6e20726573756c7400602082015260049150610acf565b50506040805160208101909152600080825291505b935093915050565b6000606060008060005b8551811015610b84576000868281518110610af857fe5b6020026020010151806020019051810190610b139190611463565b9050806020015115610b73578315610b6a5760016040518060400160405280601e81526020017f6d6f7265207468616e206f6e652070726f78792073696d756c6174696f6e00008152509550955050505050610be9565b80519350610b7b565b805192909201915b50600101610ae1565b5081811115610bd05760016040518060400160405280601b81526020017f746f74616c206d696e746564203e20746f74616c206c6f636b65640000000000815250935093505050610be9565b6000604051806020016040528060008152509350935050505b915091565b600060606000610bfc61094f565b90506001600160401b038116841115610c39576002604051602001610c20906115a3565b6040516020818303038152906040529250925050610750565b8315610d6e5760008080805b87811015610d69576000898983818110610c5b57fe5b9050602002810190610c6d91906117ed565b610c769061184c565b90508461ffff16816000015161ffff16141580610c97575083816020015114155b15610d0e57805160208201516040830151919650945092506000610cba82610fe4565b6001019050806001600160401b0316846001600160401b031614610d08576003604051602001610ce9906115cc565b6040516020818303038152906040529850985050505050505050610750565b50610d60565b826001019250826001600160401b031681604001516001600160401b031614610d60576003604051602001610d42906115f5565b60405160208183030381529060405297509750505050505050610750565b50600101610c45565b505050505b50506040805160208101909152600080825291509250929050565b6000606060007f00000000000000000000000000000000000000000000000000000000000000006001600160a01b031663378aa7016040518163ffffffff1660e01b815260040160206040518083038186803b158015610de857600080fd5b505afa158015610dfc573d6000803e3d6000fd5b505050506040513d601f19601f82011682018060405250810190610e209190611508565b905060005b84811015610f10576000868683818110610e3b57fe5b9050602002810190610e4d91906117ed565b610e569061184c565b805160208201516060830151604051633125193360e11b81529394506001600160a01b037f0000000000000000000000000000000000000000000000000000000000000000169363624a326693610eb59390929091899060040161173c565b60206040518083038186803b158015610ecd57600080fd5b505afa158015610ee1573d6000803e3d6000fd5b505050506040513d601f19601f82011682018060405250810190610f059190611508565b925050600101610e25565b50600060405180604001604052808381526020017f00000000000000000000000000000000000000000000000000000000000000006001600160a01b03166364da4e6f6040518163ffffffff1660e01b815260040160206040518083038186803b158015610f7d57600080fd5b505afa158015610f91573d6000803e3d6000fd5b505050506040513d601f19601f82011682018060405250810190610fb59190611449565b15159052604051610fc99190602001611714565b60405160208183030381529060405292509250509250929050565b80516040516358b46b3160e01b81526000916001600160a01b037f000000000000000000000000000000000000000000000000000000000000000016916358b46b31916110339160040161172d565b60206040518083038186803b15801561104b57600080fd5b505afa15801561105f573d6000803e3d6000fd5b505050506040513d601f19601f82011682018060405250810190611083919061153c565b90505b919050565b82805482825590600052602060002090600f016010900481019282156111245791602002820160005b838211156110f457835183826101000a81548161ffff021916908361ffff16021790555092602001926002016020816001010492830192600103026110b4565b80156111225782816101000a81549061ffff02191690556002016020816001010492830192600103026110f4565b505b5061113092915061116f565b5090565b828054828255906000526020600020908101928215611124579160200282015b82811115611124578251825591602001919060010190611154565b5b808211156111305760008155600101611170565b600082601f830112611194578081fd5b813560206111a96111a48361182f565b61180c565b82815281810190858301838502870184018810156111c5578586fd5b855b858110156111e3578135845292840192908401906001016111c7565b5090979650505050505050565b60008083601f840112611201578182fd5b5081356001600160401b03811115611217578182fd5b602083019150836020808302850101111561075057600080fd5b8051801515811461108657600080fd5b600082601f830112611251578081fd5b81356001600160401b0381111561126457fe5b611277601f8201601f191660200161180c565b81815284602083860101111561128b578283fd5b816020850160208301379081016020019190915292915050565b803561ffff8116811461108657600080fd5b6000602082840312156112c8578081fd5b81356001600160a01b03811681146112de578182fd5b9392505050565b600080602083850312156112f7578081fd5b82356001600160401b0381111561130c578182fd5b611318858286016111f0565b90969095509350505050565b60008060008060408587031215611339578182fd5b84356001600160401b038082111561134f578384fd5b61135b888389016111f0565b90965094506020870135915080821115611373578384fd5b50611380878288016111f0565b95989497509550505050565b6000806040838503121561139e578182fd5b82356001600160401b03808211156113b4578384fd5b818501915085601f8301126113c7578384fd5b813560206113d76111a48361182f565b82815281810190858301838502870184018b10156113f3578889fd5b8896505b8487101561141c57611408816112a5565b8352600196909601959183019183016113f7565b5096505086013592505080821115611432578283fd5b5061143f85828601611184565b9150509250929050565b60006020828403121561145a578081fd5b6112de82611231565b600060408284031215611474578081fd5b604051604081018181106001600160401b038211171561149057fe5b604052825181526114a360208401611231565b60208201529392505050565b600080604083850312156114c1578182fd5b6114ca836112a5565b915060208301356001600160401b038111156114e4578182fd5b61143f85828601611241565b600060208284031215611501578081fd5b5035919050565b600060208284031215611519578081fd5b5051919050565b600060208284031215611531578081fd5b81356112de816118d5565b60006020828403121561154d578081fd5b81516112de816118d5565b60008151808452815b8181101561157d57602081850181015186830182015201611561565b8181111561158e5782602083870101525b50601f01601f19169290920160200192915050565b7f7061636b6574732073697a6520657863656564206c696d6974656400000000008152601b0190565b7f736b697070656420696e626f756e644e6f6e636520666f7262696464656e00008152601e0190565b6f756e736f72746564207061636b65747360801b815260100190565b600061ffff60f01b8760f01b1682526001600160401b0360c01b8660c01b16600283015284600a830152602a820184516020808701845b8381101561166857815161ffff1685529382019390820190600101611648565b50508551818701939250845b8181101561169057845184529382019392820192600101611674565b50919a9950505050505050505050565b6001600160a01b0391909116815260200190565b90815260200190565b6000602082526112de6020830184611558565b60208082526024908201527f50726f78794f465456325072654372696d65566965773a20696e76616c69642060408201526373697a6560e01b606082015260800190565b8151815260209182015115159181019190915260400190565b61ffff91909116815260200190565b600061ffff861682528460208301526080604083015261175f6080830185611558565b905082606083015295945050505050565b600061ffff841682526040602083015261178d6040830184611558565b949350505050565b6001600160401b0391909116815260200190565b6000808335601e198436030181126117bf578283fd5b8301803591506001600160401b038211156117d8578283fd5b60200191503681900382131561075057600080fd5b60008235607e19833603018112611802578182fd5b9190910192915050565b6040518181016001600160401b038111828210171561182757fe5b604052919050565b60006001600160401b0382111561184257fe5b5060209081020190565b60006080823603121561185d578081fd5b604051608081016001600160401b03828210818311171561187a57fe5b81604052611887856112a5565b835260208501356020840152604085013591506118a3826118d5565b81604084015260608501359150808211156118bc578384fd5b506118c936828601611241565b60608301525092915050565b6001600160401b03811681146118ea57600080fd5b5056fe4f776e61626c653a206e6577206f776e657220697320746865207a65726f20616464726573734f776e61626c653a2063616c6c6572206973206e6f7420746865206f776e6572a264697066735822122062125556875dc902bf91be24ea31c280f4a6d89f55fdc5d5cdcd6ff5b20900f064736f6c63430007060033",
  "linkReferences": {},
  "deployedLinkReferences": {}
}