{
  "_format": "hh-sol-artifact-1",
  "contractName": "BasedOFT",
  "sourceName": "contracts/token/oft/extension/BasedOFT.sol",
  "abi": [
    {
      "inputs": [
        {
          "internalType": "string",
          "name": "_name",
          "type": "string"
        },
        {
          "internalType": "string",
          "name": "_symbol",
          "type": "string"
        },
        {
          "internalType": "address",
          "name": "_lzEndpoint",
          "type": "address"
        }
      ],
      "stateMutability": "nonpayable",
      "type": "constructor"
    },
    {
      "anonymous": false,
      "inputs": [
        {
          "indexed": true,
          "internalType": "address",
          "name": "owner",
          "type": "address"
        },
        {
          "indexed": true,
          "internalType": "address",
          "name": "spender",
          "type": "address"
        },
        {
          "indexed": false,
          "internalType": "uint256",
          "name": "value",
          "type": "uint256"
        }
      ],
      "name": "Approval",
      "type": "event"
    },
    {
      "anonymous": false,
      "inputs": [
        {
          "indexed": false,
          "internalType": "uint16",
          "name": "_srcChainId",
          "type": "uint16"
        },
        {
          "indexed": false,
          "internalType": "bytes",
          "name": "_srcAddress",
          "type": "bytes"
        },
        {
          "indexed": false,
          "internalType": "uint64",
          "name": "_nonce",
          "type": "uint64"
        },
        {
          "indexed": false,
          "internalType": "bytes",
          "name": "_payload",
          "type": "bytes"
        },
        {
          "indexed": false,
          "internalType": "bytes",
          "name": "_reason",
          "type": "bytes"
        }
      ],
      "name": "MessageFailed",
      "type": "event"
    },
    {
      "anonymous": false,
      "inputs": [
        {
          "indexed": true,
          "internalType": "address",
          "name": "previousOwner",
          "type": "address"
        },
        {
          "indexed": true,
          "internalType": "address",
          "name": "newOwner",
          "type": "address"
        }
      ],
      "name": "OwnershipTransferred",
      "type": "event"
    },
    {
      "anonymous": false,
      "inputs": [
        {
          "indexed": true,
          "internalType": "uint16",
          "name": "_srcChainId",
          "type": "uint16"
        },
        {
          "indexed": true,
          "internalType": "address",
          "name": "_to",
          "type": "address"
        },
        {
          "indexed": false,
          "internalType": "uint256",
          "name": "_amount",
          "type": "uint256"
        }
      ],
      "name": "ReceiveFromChain",
      "type": "event"
    },
    {
      "anonymous": false,
      "inputs": [
        {
          "indexed": false,
          "internalType": "uint16",
          "name": "_srcChainId",
          "type": "uint16"
        },
        {
          "indexed": false,
          "internalType": "bytes",
          "name": "_srcAddress",
          "type": "bytes"
        },
        {
          "indexed": false,
          "internalType": "uint64",
          "name": "_nonce",
          "type": "uint64"
        },
        {
          "indexed": false,
          "internalType": "bytes32",
          "name": "_payloadHash",
          "type": "bytes32"
        }
      ],
      "name": "RetryMessageSuccess",
      "type": "event"
    },
    {
      "anonymous": false,
      "inputs": [
        {
          "indexed": true,
          "internalType": "uint16",
          "name": "_dstChainId",
          "type": "uint16"
        },
        {
          "indexed": true,
          "internalType": "address",
          "name": "_from",
          "type": "address"
        },
        {
          "indexed": false,
          "internalType": "bytes",
          "name": "_toAddress",
          "type": "bytes"
        },
        {
          "indexed": false,
          "internalType": "uint256",
          "name": "_amount",
          "type": "uint256"
        }
      ],
      "name": "SendToChain",
      "type": "event"
    },
    {
      "anonymous": false,
      "inputs": [
        {
          "indexed": false,
          "internalType": "uint16",
          "name": "_dstChainId",
          "type": "uint16"
        },
        {
          "indexed": false,
          "internalType": "uint16",
          "name": "_type",
          "type": "uint16"
        },
        {
          "indexed": false,
          "internalType": "uint256",
          "name": "_minDstGas",
          "type": "uint256"
        }
      ],
      "name": "SetMinDstGas",
      "type": "event"
    },
    {
      "anonymous": false,
      "inputs": [
        {
          "indexed": false,
          "internalType": "address",
          "name": "precrime",
          "type": "address"
        }
      ],
      "name": "SetPrecrime",
      "type": "event"
    },
    {
      "anonymous": false,
      "inputs": [
        {
          "indexed": false,
          "internalType": "uint16",
          "name": "_remoteChainId",
          "type": "uint16"
        },
        {
          "indexed": false,
          "internalType": "bytes",
          "name": "_path",
          "type": "bytes"
        }
      ],
      "name": "SetTrustedRemote",
      "type": "event"
    },
    {
      "anonymous": false,
      "inputs": [
        {
          "indexed": false,
          "internalType": "uint16",
          "name": "_remoteChainId",
          "type": "uint16"
        },
        {
          "indexed": false,
          "internalType": "bytes",
          "name": "_remoteAddress",
          "type": "bytes"
        }
      ],
      "name": "SetTrustedRemoteAddress",
      "type": "event"
    },
    {
      "anonymous": false,
      "inputs": [
        {
          "indexed": false,
          "internalType": "bool",
          "name": "_useCustomAdapterParams",
          "type": "bool"
        }
      ],
      "name": "SetUseCustomAdapterParams",
      "type": "event"
    },
    {
      "anonymous": false,
      "inputs": [
        {
          "indexed": true,
          "internalType": "address",
          "name": "from",
          "type": "address"
        },
        {
          "indexed": true,
          "internalType": "address",
          "name": "to",
          "type": "address"
        },
        {
          "indexed": false,
          "internalType": "uint256",
          "name": "value",
          "type": "uint256"
        }
      ],
      "name": "Transfer",
      "type": "event"
    },
    {
      "inputs": [],
      "name": "DEFAULT_PAYLOAD_SIZE_LIMIT",
      "outputs": [
        {
          "internalType": "uint256",
          "name": "",
          "type": "uint256"
        }
      ],
      "stateMutability": "view",
      "type": "function"
    },
    {
      "inputs": [],
      "name": "NO_EXTRA_GAS",
      "outputs": [
        {
          "internalType": "uint256",
          "name": "",
          "type": "uint256"
        }
      ],
      "stateMutability": "view",
      "type": "function"
    },
    {
      "inputs": [],
      "name": "PT_SEND",
      "outputs": [
        {
          "internalType": "uint16",
          "name": "",
          "type": "uint16"
        }
      ],
      "stateMutability": "view",
      "type": "function"
    },
    {
      "inputs": [
        {
          "internalType": "address",
          "name": "owner",
          "type": "address"
        },
        {
          "internalType": "address",
          "name": "spender",
          "type": "address"
        }
      ],
      "name": "allowance",
      "outputs": [
        {
          "internalType": "uint256",
          "name": "",
          "type": "uint256"
        }
      ],
      "stateMutability": "view",
      "type": "function"
    },
    {
      "inputs": [
        {
          "internalType": "address",
          "name": "spender",
          "type": "address"
        },
        {
          "internalType": "uint256",
          "name": "amount",
          "type": "uint256"
        }
      ],
      "name": "approve",
      "outputs": [
        {
          "internalType": "bool",
          "name": "",
          "type": "bool"
        }
      ],
      "stateMutability": "nonpayable",
      "type": "function"
    },
    {
      "inputs": [
        {
          "internalType": "address",
          "name": "account",
          "type": "address"
        }
      ],
      "name": "balanceOf",
      "outputs": [
        {
          "internalType": "uint256",
          "name": "",
          "type": "uint256"
        }
      ],
      "stateMutability": "view",
      "type": "function"
    },
    {
      "inputs": [],
      "name": "circulatingSupply",
      "outputs": [
        {
          "internalType": "uint256",
          "name": "",
          "type": "uint256"
        }
      ],
      "stateMutability": "view",
      "type": "function"
    },
    {
      "inputs": [],
      "name": "decimals",
      "outputs": [
        {
          "internalType": "uint8",
          "name": "",
          "type": "uint8"
        }
      ],
      "stateMutability": "view",
      "type": "function"
    },
    {
      "inputs": [
        {
          "internalType": "address",
          "name": "spender",
          "type": "address"
        },
        {
          "internalType": "uint256",
          "name": "subtractedValue",
          "type": "uint256"
        }
      ],
      "name": "decreaseAllowance",
      "outputs": [
        {
          "internalType": "bool",
          "name": "",
          "type": "bool"
        }
      ],
      "stateMutability": "nonpayable",
      "type": "function"
    },
    {
      "inputs": [
        {
          "internalType": "uint16",
          "name": "_dstChainId",
          "type": "uint16"
        },
        {
          "internalType": "bytes",
          "name": "_toAddress",
          "type": "bytes"
        },
        {
          "internalType": "uint256",
          "name": "_amount",
          "type": "uint256"
        },
        {
          "internalType": "bool",
          "name": "_useZro",
          "type": "bool"
        },
        {
          "internalType": "bytes",
          "name": "_adapterParams",
          "type": "bytes"
        }
      ],
      "name": "estimateSendFee",
      "outputs": [
        {
          "internalType": "uint256",
          "name": "nativeFee",
          "type": "uint256"
        },
        {
          "internalType": "uint256",
          "name": "zroFee",
          "type": "uint256"
        }
      ],
      "stateMutability": "view",
      "type": "function"
    },
    {
      "inputs": [
        {
          "internalType": "uint16",
          "name": "",
          "type": "uint16"
        },
        {
          "internalType": "bytes",
          "name": "",
          "type": "bytes"
        },
        {
          "internalType": "uint64",
          "name": "",
          "type": "uint64"
        }
      ],
      "name": "failedMessages",
      "outputs": [
        {
          "internalType": "bytes32",
          "name": "",
          "type": "bytes32"
        }
      ],
      "stateMutability": "view",
      "type": "function"
    },
    {
      "inputs": [
        {
          "internalType": "uint16",
          "name": "_srcChainId",
          "type": "uint16"
        },
        {
          "internalType": "bytes",
          "name": "_srcAddress",
          "type": "bytes"
        }
      ],
      "name": "forceResumeReceive",
      "outputs": [],
      "stateMutability": "nonpayable",
      "type": "function"
    },
    {
      "inputs": [
        {
          "internalType": "uint16",
          "name": "_version",
          "type": "uint16"
        },
        {
          "internalType": "uint16",
          "name": "_chainId",
          "type": "uint16"
        },
        {
          "internalType": "address",
          "name": "",
          "type": "address"
        },
        {
          "internalType": "uint256",
          "name": "_configType",
          "type": "uint256"
        }
      ],
      "name": "getConfig",
      "outputs": [
        {
          "internalType": "bytes",
          "name": "",
          "type": "bytes"
        }
      ],
      "stateMutability": "view",
      "type": "function"
    },
    {
      "inputs": [
        {
          "internalType": "uint16",
          "name": "_remoteChainId",
          "type": "uint16"
        }
      ],
      "name": "getTrustedRemoteAddress",
      "outputs": [
        {
          "internalType": "bytes",
          "name": "",
          "type": "bytes"
        }
      ],
      "stateMutability": "view",
      "type": "function"
    },
    {
      "inputs": [
        {
          "internalType": "address",
          "name": "spender",
          "type": "address"
        },
        {
          "internalType": "uint256",
          "name": "addedValue",
          "type": "uint256"
        }
      ],
      "name": "increaseAllowance",
      "outputs": [
        {
          "internalType": "bool",
          "name": "",
          "type": "bool"
        }
      ],
      "stateMutability": "nonpayable",
      "type": "function"
    },
    {
      "inputs": [
        {
          "internalType": "uint16",
          "name": "_srcChainId",
          "type": "uint16"
        },
        {
          "internalType": "bytes",
          "name": "_srcAddress",
          "type": "bytes"
        }
      ],
      "name": "isTrustedRemote",
      "outputs": [
        {
          "internalType": "bool",
          "name": "",
          "type": "bool"
        }
      ],
      "stateMutability": "view",
      "type": "function"
    },
    {
      "inputs": [],
      "name": "lzEndpoint",
      "outputs": [
        {
          "internalType": "contract ILayerZeroEndpoint",
          "name": "",
          "type": "address"
        }
      ],
      "stateMutability": "view",
      "type": "function"
    },
    {
      "inputs": [
        {
          "internalType": "uint16",
          "name": "_srcChainId",
          "type": "uint16"
        },
        {
          "internalType": "bytes",
          "name": "_srcAddress",
          "type": "bytes"
        },
        {
          "internalType": "uint64",
          "name": "_nonce",
          "type": "uint64"
        },
        {
          "internalType": "bytes",
          "name": "_payload",
          "type": "bytes"
        }
      ],
      "name": "lzReceive",
      "outputs": [],
      "stateMutability": "nonpayable",
      "type": "function"
    },
    {
      "inputs": [
        {
          "internalType": "uint16",
          "name": "",
          "type": "uint16"
        },
        {
          "internalType": "uint16",
          "name": "",
          "type": "uint16"
        }
      ],
      "name": "minDstGasLookup",
      "outputs": [
        {
          "internalType": "uint256",
          "name": "",
          "type": "uint256"
        }
      ],
      "stateMutability": "view",
      "type": "function"
    },
    {
      "inputs": [],
      "name": "name",
      "outputs": [
        {
          "internalType": "string",
          "name": "",
          "type": "string"
        }
      ],
      "stateMutability": "view",
      "type": "function"
    },
    {
      "inputs": [
        {
          "internalType": "uint16",
          "name": "_srcChainId",
          "type": "uint16"
        },
        {
          "internalType": "bytes",
          "name": "_srcAddress",
          "type": "bytes"
        },
        {
          "internalType": "uint64",
          "name": "_nonce",
          "type": "uint64"
        },
        {
          "internalType": "bytes",
          "name": "_payload",
          "type": "bytes"
        }
      ],
      "name": "nonblockingLzReceive",
      "outputs": [],
      "stateMutability": "nonpayable",
      "type": "function"
    },
    {
      "inputs": [],
      "name": "owner",
      "outputs": [
        {
          "internalType": "address",
          "name": "",
          "type": "address"
        }
      ],
      "stateMutability": "view",
      "type": "function"
    },
    {
      "inputs": [
        {
          "internalType": "uint16",
          "name": "",
          "type": "uint16"
        }
      ],
      "name": "payloadSizeLimitLookup",
      "outputs": [
        {
          "internalType": "uint256",
          "name": "",
          "type": "uint256"
        }
      ],
      "stateMutability": "view",
      "type": "function"
    },
    {
      "inputs": [],
      "name": "precrime",
      "outputs": [
        {
          "internalType": "address",
          "name": "",
          "type": "address"
        }
      ],
      "stateMutability": "view",
      "type": "function"
    },
    {
      "inputs": [],
      "name": "renounceOwnership",
      "outputs": [],
      "stateMutability": "nonpayable",
      "type": "function"
    },
    {
      "inputs": [
        {
          "internalType": "uint16",
          "name": "_srcChainId",
          "type": "uint16"
        },
        {
          "internalType": "bytes",
          "name": "_srcAddress",
          "type": "bytes"
        },
        {
          "internalType": "uint64",
          "name": "_nonce",
          "type": "uint64"
        },
        {
          "internalType": "bytes",
          "name": "_payload",
          "type": "bytes"
        }
      ],
      "name": "retryMessage",
      "outputs": [],
      "stateMutability": "payable",
      "type": "function"
    },
    {
      "inputs": [
        {
          "internalType": "address",
          "name": "_from",
          "type": "address"
        },
        {
          "internalType": "uint16",
          "name": "_dstChainId",
          "type": "uint16"
        },
        {
          "internalType": "bytes",
          "name": "_toAddress",
          "type": "bytes"
        },
        {
          "internalType": "uint256",
          "name": "_amount",
          "type": "uint256"
        },
        {
          "internalType": "address payable",
          "name": "_refundAddress",
          "type": "address"
        },
        {
          "internalType": "address",
          "name": "_zroPaymentAddress",
          "type": "address"
        },
        {
          "internalType": "bytes",
          "name": "_adapterParams",
          "type": "bytes"
        }
      ],
      "name": "sendFrom",
      "outputs": [],
      "stateMutability": "payable",
      "type": "function"
    },
    {
      "inputs": [
        {
          "internalType": "uint16",
          "name": "_version",
          "type": "uint16"
        },
        {
          "internalType": "uint16",
          "name": "_chainId",
          "type": "uint16"
        },
        {
          "internalType": "uint256",
          "name": "_configType",
          "type": "uint256"
        },
        {
          "internalType": "bytes",
          "name": "_config",
          "type": "bytes"
        }
      ],
      "name": "setConfig",
      "outputs": [],
      "stateMutability": "nonpayable",
      "type": "function"
    },
    {
      "inputs": [
        {
          "internalType": "uint16",
          "name": "_dstChainId",
          "type": "uint16"
        },
        {
          "internalType": "uint16",
          "name": "_packetType",
          "type": "uint16"
        },
        {
          "internalType": "uint256",
          "name": "_minGas",
          "type": "uint256"
        }
      ],
      "name": "setMinDstGas",
      "outputs": [],
      "stateMutability": "nonpayable",
      "type": "function"
    },
    {
      "inputs": [
        {
          "internalType": "uint16",
          "name": "_dstChainId",
          "type": "uint16"
        },
        {
          "internalType": "uint256",
          "name": "_size",
          "type": "uint256"
        }
      ],
      "name": "setPayloadSizeLimit",
      "outputs": [],
      "stateMutability": "nonpayable",
      "type": "function"
    },
    {
      "inputs": [
        {
          "internalType": "address",
          "name": "_precrime",
          "type": "address"
        }
      ],
      "name": "setPrecrime",
      "outputs": [],
      "stateMutability": "nonpayable",
      "type": "function"
    },
    {
      "inputs": [
        {
          "internalType": "uint16",
          "name": "_version",
          "type": "uint16"
        }
      ],
      "name": "setReceiveVersion",
      "outputs": [],
      "stateMutability": "nonpayable",
      "type": "function"
    },
    {
      "inputs": [
        {
          "internalType": "uint16",
          "name": "_version",
          "type": "uint16"
        }
      ],
      "name": "setSendVersion",
      "outputs": [],
      "stateMutability": "nonpayable",
      "type": "function"
    },
    {
      "inputs": [
        {
          "internalType": "uint16",
          "name": "_remoteChainId",
          "type": "uint16"
        },
        {
          "internalType": "bytes",
          "name": "_path",
          "type": "bytes"
        }
      ],
      "name": "setTrustedRemote",
      "outputs": [],
      "stateMutability": "nonpayable",
      "type": "function"
    },
    {
      "inputs": [
        {
          "internalType": "uint16",
          "name": "_remoteChainId",
          "type": "uint16"
        },
        {
          "internalType": "bytes",
          "name": "_remoteAddress",
          "type": "bytes"
        }
      ],
      "name": "setTrustedRemoteAddress",
      "outputs": [],
      "stateMutability": "nonpayable",
      "type": "function"
    },
    {
      "inputs": [
        {
          "internalType": "bool",
          "name": "_useCustomAdapterParams",
          "type": "bool"
        }
      ],
      "name": "setUseCustomAdapterParams",
      "outputs": [],
      "stateMutability": "nonpayable",
      "type": "function"
    },
    {
      "inputs": [
        {
          "internalType": "bytes4",
          "name": "interfaceId",
          "type": "bytes4"
        }
      ],
      "name": "supportsInterface",
      "outputs": [
        {
          "internalType": "bool",
          "name": "",
          "type": "bool"
        }
      ],
      "stateMutability": "view",
      "type": "function"
    },
    {
      "inputs": [],
      "name": "symbol",
      "outputs": [
        {
          "internalType": "string",
          "name": "",
          "type": "string"
        }
      ],
      "stateMutability": "view",
      "type": "function"
    },
    {
      "inputs": [],
      "name": "token",
      "outputs": [
        {
          "internalType": "address",
          "name": "",
          "type": "address"
        }
      ],
      "stateMutability": "view",
      "type": "function"
    },
    {
      "inputs": [],
      "name": "totalSupply",
      "outputs": [
        {
          "internalType": "uint256",
          "name": "",
          "type": "uint256"
        }
      ],
      "stateMutability": "view",
      "type": "function"
    },
    {
      "inputs": [
        {
          "internalType": "address",
          "name": "to",
          "type": "address"
        },
        {
          "internalType": "uint256",
          "name": "amount",
          "type": "uint256"
        }
      ],
      "name": "transfer",
      "outputs": [
        {
          "internalType": "bool",
          "name": "",
          "type": "bool"
        }
      ],
      "stateMutability": "nonpayable",
      "type": "function"
    },
    {
      "inputs": [
        {
          "internalType": "address",
          "name": "from",
          "type": "address"
        },
        {
          "internalType": "address",
          "name": "to",
          "type": "address"
        },
        {
          "internalType": "uint256",
          "name": "amount",
          "type": "uint256"
        }
      ],
      "name": "transferFrom",
      "outputs": [
        {
          "internalType": "bool",
          "name": "",
          "type": "bool"
        }
      ],
      "stateMutability": "nonpayable",
      "type": "function"
    },
    {
      "inputs": [
        {
          "internalType": "address",
          "name": "newOwner",
          "type": "address"
        }
      ],
      "name": "transferOwnership",
      "outputs": [],
      "stateMutability": "nonpayable",
      "type": "function"
    },
    {
      "inputs": [
        {
          "internalType": "uint16",
          "name": "",
          "type": "uint16"
        }
      ],
      "name": "trustedRemoteLookup",
      "outputs": [
        {
          "internalType": "bytes",
          "name": "",
          "type": "bytes"
        }
      ],
      "stateMutability": "view",
      "type": "function"
    },
    {
      "inputs": [],
      "name": "useCustomAdapterParams",
      "outputs": [
        {
          "internalType": "bool",
          "name": "",
          "type": "bool"
        }
      ],
      "stateMutability": "view",
      "type": "function"
    }
  ],
  "bytecode": "0x60a06040523480156200001157600080fd5b50604051620035b8380380620035b8833981016040819052620000349162000252565b828282828282808062000047336200008f565b6001600160a01b0316608052505081516200006a90600a906020850190620000df565b5080516200008090600b906020840190620000df565b5050505050505050506200031c565b600080546001600160a01b038381166001600160a01b0319831681178455604051919092169283917f8be0079c531659141344cd1fd0a4f28419497f9722a3daafe3b4186f6b6457e09190a35050565b828054620000ed90620002df565b90600052602060002090601f0160209004810192826200011157600085556200015c565b82601f106200012c57805160ff19168380011785556200015c565b828001600101855582156200015c579182015b828111156200015c5782518255916020019190600101906200013f565b506200016a9291506200016e565b5090565b5b808211156200016a57600081556001016200016f565b634e487b7160e01b600052604160045260246000fd5b600082601f830112620001ad57600080fd5b81516001600160401b0380821115620001ca57620001ca62000185565b604051601f8301601f19908116603f01168101908282118183101715620001f557620001f562000185565b816040528381526020925086838588010111156200021257600080fd5b600091505b8382101562000236578582018301518183018401529082019062000217565b83821115620002485760008385830101525b9695505050505050565b6000806000606084860312156200026857600080fd5b83516001600160401b03808211156200028057600080fd5b6200028e878388016200019b565b94506020860151915080821115620002a557600080fd5b50620002b4868287016200019b565b604086015190935090506001600160a01b0381168114620002d457600080fd5b809150509250925092565b600181811c90821680620002f457607f821691505b602082108114156200031657634e487b7160e01b600052602260045260246000fd5b50919050565b608051613248620003706000396000818161070d0152818161088801528181610ba701528181610c6701528181610d0501528181610ea2015281816113d60152818161188101526122c001526132486000f3fe6080604052600436106102715760003560e01c80637533d7881161014f578063baf3292d116100c1578063eab45d9c1161007a578063eab45d9c146107d8578063eb8d72b7146107f8578063ed629c5c14610818578063f2fde38b14610832578063f5ecbdbc14610852578063fc0c546a1461087257600080fd5b8063baf3292d1461072f578063c44618341461074f578063cbed8b9c14610765578063d1deba1f14610785578063dd62ed3e14610798578063df2a5b3b146107b857600080fd5b806395d89b411161011357806395d89b41146106665780639f38369a1461067b578063a457c2d71461069b578063a6c3d165146106bb578063a9059cbb146106db578063b353aaa7146106fb57600080fd5b80637533d788146105965780638cfd8f5c146105b65780638da5cb5b146105ee5780639358928b14610620578063950c8a741461064657600080fd5b806339509351116101e85780634c42899a116101ac5780634c42899a146104a157806351905636146104c95780635b8c41e6146104dc57806366ad5c8a1461052b57806370a082311461054b578063715018a61461058157600080fd5b806339509351146103ff5780633d8b38f61461041f5780633f1f4fa41461043f57806342d65a8d1461046c578063447705151461048c57600080fd5b80630df374831161023a5780630df374831461032f57806310ddb1371461034f57806318160ddd1461036f57806323b872dd1461038e5780632a205e3d146103ae578063313ce567146103e357600080fd5b80621d35671461027657806301ffc9a71461029857806306fdde03146102cd57806307e0db17146102ef578063095ea7b31461030f575b600080fd5b34801561028257600080fd5b50610296610291366004612769565b610885565b005b3480156102a457600080fd5b506102b86102b33660046127fe565b610ab6565b60405190151581526020015b60405180910390f35b3480156102d957600080fd5b506102e2610af4565b6040516102c49190612880565b3480156102fb57600080fd5b5061029661030a366004612893565b610b86565b34801561031b57600080fd5b506102b861032a3660046128c5565b610c0f565b34801561033b57600080fd5b5061029661034a3660046128f1565b610c27565b34801561035b57600080fd5b5061029661036a366004612893565b610c46565b34801561037b57600080fd5b506009545b6040519081526020016102c4565b34801561039a57600080fd5b506102b86103a936600461290f565b610c9e565b3480156103ba57600080fd5b506103ce6103c9366004612960565b610cc2565b604080519283526020830191909152016102c4565b3480156103ef57600080fd5b50604051601281526020016102c4565b34801561040b57600080fd5b506102b861041a3660046128c5565b610d95565b34801561042b57600080fd5b506102b861043a3660046129ff565b610db7565b34801561044b57600080fd5b5061038061045a366004612893565b60036020526000908152604090205481565b34801561047857600080fd5b506102966104873660046129ff565b610e83565b34801561049857600080fd5b50610380600081565b3480156104ad57600080fd5b506104b6600081565b60405161ffff90911681526020016102c4565b6102966104d7366004612a53565b610f09565b3480156104e857600080fd5b506103806104f7366004612b89565b6005602090815260009384526040808520845180860184018051928152908401958401959095209452929052825290205481565b34801561053757600080fd5b50610296610546366004612769565b610f8e565b34801561055757600080fd5b50610380610566366004612c2b565b6001600160a01b031660009081526007602052604090205490565b34801561058d57600080fd5b5061029661106a565b3480156105a257600080fd5b506102e26105b1366004612893565b61107e565b3480156105c257600080fd5b506103806105d1366004612c48565b600260209081526000928352604080842090915290825290205481565b3480156105fa57600080fd5b506000546001600160a01b03165b6040516001600160a01b0390911681526020016102c4565b34801561062c57600080fd5b503060009081526007602052604090205460095403610380565b34801561065257600080fd5b50600454610608906001600160a01b031681565b34801561067257600080fd5b506102e2611118565b34801561068757600080fd5b506102e2610696366004612893565b611127565b3480156106a757600080fd5b506102b86106b63660046128c5565b61123e565b3480156106c757600080fd5b506102966106d63660046129ff565b6112b9565b3480156106e757600080fd5b506102b86106f63660046128c5565b61134c565b34801561070757600080fd5b506106087f000000000000000000000000000000000000000000000000000000000000000081565b34801561073b57600080fd5b5061029661074a366004612c2b565b61135a565b34801561075b57600080fd5b5061038061271081565b34801561077157600080fd5b50610296610780366004612c81565b6113b7565b610296610793366004612769565b611441565b3480156107a457600080fd5b506103806107b3366004612cf3565b611657565b3480156107c457600080fd5b506102966107d3366004612d21565b611682565b3480156107e457600080fd5b506102966107f3366004612d51565b611734565b34801561080457600080fd5b506102966108133660046129ff565b61177d565b34801561082457600080fd5b506006546102b89060ff1681565b34801561083e57600080fd5b5061029661084d366004612c2b565b6117d7565b34801561085e57600080fd5b506102e261086d366004612d6c565b611850565b34801561087e57600080fd5b5030610608565b337f00000000000000000000000000000000000000000000000000000000000000006001600160a01b0316146109025760405162461bcd60e51b815260206004820152601e60248201527f4c7a4170703a20696e76616c696420656e64706f696e742063616c6c6572000060448201526064015b60405180910390fd5b61ffff86166000908152600160205260408120805461092090612dbd565b80601f016020809104026020016040519081016040528092919081815260200182805461094c90612dbd565b80156109995780601f1061096e57610100808354040283529160200191610999565b820191906000526020600020905b81548152906001019060200180831161097c57829003601f168201915b505050505090508051868690501480156109b4575060008151115b80156109dc5750805160208201206040516109d29088908890612df8565b6040518091039020145b610a375760405162461bcd60e51b815260206004820152602660248201527f4c7a4170703a20696e76616c696420736f757263652073656e64696e6720636f6044820152651b9d1c9858dd60d21b60648201526084016108f9565b610aad8787878080601f01602080910402602001604051908101604052809392919081815260200183838082843760009201919091525050604080516020601f8a018190048102820181019092528881528a93509150889088908190840183828082843760009201919091525061190192505050565b50505050505050565b60006001600160e01b031982161580610adf57506001600160e01b031982166336372b0760e01b145b80610aee5750610aee8261197a565b92915050565b6060600a8054610b0390612dbd565b80601f0160208091040260200160405190810160405280929190818152602001828054610b2f90612dbd565b8015610b7c5780601f10610b5157610100808354040283529160200191610b7c565b820191906000526020600020905b815481529060010190602001808311610b5f57829003601f168201915b5050505050905090565b610b8e6119af565b6040516307e0db1760e01b815261ffff821660048201527f00000000000000000000000000000000000000000000000000000000000000006001600160a01b0316906307e0db17906024015b600060405180830381600087803b158015610bf457600080fd5b505af1158015610c08573d6000803e3d6000fd5b5050505050565b600033610c1d818585611a09565b5060019392505050565b610c2f6119af565b61ffff909116600090815260036020526040902055565b610c4e6119af565b6040516310ddb13760e01b815261ffff821660048201527f00000000000000000000000000000000000000000000000000000000000000006001600160a01b0316906310ddb13790602401610bda565b600033610cac858285611b2d565b610cb7858585611ba7565b506001949350505050565b600080600080898989604051602001610cde9493929190612e31565b60408051601f198184030181529082905263040a7bb160e41b825291506001600160a01b037f000000000000000000000000000000000000000000000000000000000000000016906340a7bb1090610d44908d90309086908c908c908c90600401612e60565b6040805180830381865afa158015610d60573d6000803e3d6000fd5b505050506040513d601f19601f82011682018060405250810190610d849190612eb6565b925092505097509795505050505050565b600033610c1d818585610da88383611657565b610db29190612ef0565b611a09565b61ffff831660009081526001602052604081208054829190610dd890612dbd565b80601f0160208091040260200160405190810160405280929190818152602001828054610e0490612dbd565b8015610e515780601f10610e2657610100808354040283529160200191610e51565b820191906000526020600020905b815481529060010190602001808311610e3457829003601f168201915b505050505090508383604051610e68929190612df8565b60405180910390208180519060200120149150509392505050565b610e8b6119af565b6040516342d65a8d60e01b81526001600160a01b037f000000000000000000000000000000000000000000000000000000000000000016906342d65a8d90610edb90869086908690600401612f08565b600060405180830381600087803b158015610ef557600080fd5b505af1158015610aad573d6000803e3d6000fd5b610f83898989898080601f01602080910402602001604051908101604052809392919081815260200183838082843760009201919091525050604080516020601f8a018190048102820181019092528881528c93508b92508a918a908a9081908401838280828437600092019190915250611d5292505050565b505050505050505050565b333014610fec5760405162461bcd60e51b815260206004820152602660248201527f4e6f6e626c6f636b696e674c7a4170703a2063616c6c6572206d7573742062656044820152650204c7a4170760d41b60648201526084016108f9565b6110628686868080601f01602080910402602001604051908101604052809392919081815260200183838082843760009201919091525050604080516020601f890181900481028201810190925287815289935091508790879081908401838280828437600092019190915250611df992505050565b505050505050565b6110726119af565b61107c6000611e60565b565b6001602052600090815260409020805461109790612dbd565b80601f01602080910402602001604051908101604052809291908181526020018280546110c390612dbd565b80156111105780601f106110e557610100808354040283529160200191611110565b820191906000526020600020905b8154815290600101906020018083116110f357829003601f168201915b505050505081565b6060600b8054610b0390612dbd565b61ffff811660009081526001602052604081208054606092919061114a90612dbd565b80601f016020809104026020016040519081016040528092919081815260200182805461117690612dbd565b80156111c35780601f10611198576101008083540402835291602001916111c3565b820191906000526020600020905b8154815290600101906020018083116111a657829003601f168201915b5050505050905080516000141561121c5760405162461bcd60e51b815260206004820152601d60248201527f4c7a4170703a206e6f20747275737465642070617468207265636f726400000060448201526064016108f9565b61123760006014835161122f9190612f26565b839190611eb0565b9392505050565b6000338161124c8286611657565b9050838110156112ac5760405162461bcd60e51b815260206004820152602560248201527f45524332303a2064656372656173656420616c6c6f77616e63652062656c6f77604482015264207a65726f60d81b60648201526084016108f9565b610cb78286868403611a09565b6112c16119af565b8181306040516020016112d693929190612f3d565b60408051601f1981840301815291815261ffff8516600090815260016020908152919020825161130b939192909101906125e8565b507f8c0400cfe2d1199b1a725c78960bcc2a344d869b80590d0f2bd005db15a572ce83838360405161133f93929190612f08565b60405180910390a1505050565b600033610c1d818585611ba7565b6113626119af565b600480546001600160a01b0319166001600160a01b0383169081179091556040519081527f5db758e995a17ec1ad84bdef7e8c3293a0bd6179bcce400dff5d4c3d87db726b906020015b60405180910390a150565b6113bf6119af565b6040516332fb62e760e21b81526001600160a01b037f0000000000000000000000000000000000000000000000000000000000000000169063cbed8b9c906114139088908890889088908890600401612f63565b600060405180830381600087803b15801561142d57600080fd5b505af1158015610f83573d6000803e3d6000fd5b61ffff861660009081526005602052604080822090516114649088908890612df8565b90815260408051602092819003830190206001600160401b038716600090815292529020549050806114e45760405162461bcd60e51b815260206004820152602360248201527f4e6f6e626c6f636b696e674c7a4170703a206e6f2073746f726564206d65737360448201526261676560e81b60648201526084016108f9565b8083836040516114f5929190612df8565b6040518091039020146115545760405162461bcd60e51b815260206004820152602160248201527f4e6f6e626c6f636b696e674c7a4170703a20696e76616c6964207061796c6f616044820152601960fa1b60648201526084016108f9565b61ffff871660009081526005602052604080822090516115779089908990612df8565b90815260408051602092819003830181206001600160401b038916600090815290845282902093909355601f8801829004820283018201905286825261160f918991899089908190840183828082843760009201919091525050604080516020601f8a018190048102820181019092528881528a935091508890889081908401838280828437600092019190915250611df992505050565b7fc264d91f3adc5588250e1551f547752ca0cfa8f6b530d243b9f9f4cab10ea8e58787878785604051611646959493929190612f9c565b60405180910390a150505050505050565b6001600160a01b03918216600090815260086020908152604080832093909416825291909152205490565b61168a6119af565b600081116116d25760405162461bcd60e51b81526020600482015260156024820152744c7a4170703a20696e76616c6964206d696e47617360581b60448201526064016108f9565b61ffff83811660008181526002602090815260408083209487168084529482529182902085905581519283528201929092529081018290527f9d5c7c0b934da8fefa9c7760c98383778a12dfbfc0c3b3106518f43fb9508ac09060600161133f565b61173c6119af565b6006805460ff19168215159081179091556040519081527f1584ad594a70cbe1e6515592e1272a987d922b097ead875069cebe8b40c004a4906020016113ac565b6117856119af565b61ffff831660009081526001602052604090206117a390838361266c565b507ffa41487ad5d6728f0b19276fa1eddc16558578f5109fc39d2dc33c3230470dab83838360405161133f93929190612f08565b6117df6119af565b6001600160a01b0381166118445760405162461bcd60e51b815260206004820152602660248201527f4f776e61626c653a206e6577206f776e657220697320746865207a65726f206160448201526564647265737360d01b60648201526084016108f9565b61184d81611e60565b50565b604051633d7b2f6f60e21b815261ffff808616600483015284166024820152306044820152606481018290526060907f00000000000000000000000000000000000000000000000000000000000000006001600160a01b03169063f5ecbdbc90608401600060405180830381865afa1580156118d0573d6000803e3d6000fd5b505050506040513d6000823e601f3d908101601f191682016040526118f89190810190613024565b95945050505050565b6000806119645a60966366ad5c8a60e01b898989896040516024016119299493929190613058565b60408051601f198184030181529190526020810180516001600160e01b03166001600160e01b03199093169290921790915230929190611fbd565b9150915081611062576110628686868685612047565b60006001600160e01b03198216630a72677560e11b1480610aee57506301ffc9a760e01b6001600160e01b0319831614610aee565b6000546001600160a01b0316331461107c5760405162461bcd60e51b815260206004820181905260248201527f4f776e61626c653a2063616c6c6572206973206e6f7420746865206f776e657260448201526064016108f9565b6001600160a01b038316611a6b5760405162461bcd60e51b8152602060048201526024808201527f45524332303a20617070726f76652066726f6d20746865207a65726f206164646044820152637265737360e01b60648201526084016108f9565b6001600160a01b038216611acc5760405162461bcd60e51b815260206004820152602260248201527f45524332303a20617070726f766520746f20746865207a65726f206164647265604482015261737360f01b60648201526084016108f9565b6001600160a01b0383811660008181526008602090815260408083209487168084529482529182902085905590518481527f8c5be1e5ebec7d5bd14f71427d1e84f3dd0314c0f7b2291e5b200ac8c7c3b925910160405180910390a3505050565b6000611b398484611657565b90506000198114611ba15781811015611b945760405162461bcd60e51b815260206004820152601d60248201527f45524332303a20696e73756666696369656e7420616c6c6f77616e636500000060448201526064016108f9565b611ba18484848403611a09565b50505050565b6001600160a01b038316611c0b5760405162461bcd60e51b815260206004820152602560248201527f45524332303a207472616e736665722066726f6d20746865207a65726f206164604482015264647265737360d81b60648201526084016108f9565b6001600160a01b038216611c6d5760405162461bcd60e51b815260206004820152602360248201527f45524332303a207472616e7366657220746f20746865207a65726f206164647260448201526265737360e81b60648201526084016108f9565b6001600160a01b03831660009081526007602052604090205481811015611ce55760405162461bcd60e51b815260206004820152602660248201527f45524332303a207472616e7366657220616d6f756e7420657863656564732062604482015265616c616e636560d01b60648201526084016108f9565b6001600160a01b0380851660008181526007602052604080822086860390559286168082529083902080548601905591517fddf252ad1be2c89b69c2b068fc378daa952ba7f163c4a11628f55a4df523b3ef90611d459086815260200190565b60405180910390a3611ba1565b611d608660008360006120e9565b6000611d6e88888888612163565b90506000808783604051602001611d8793929190613096565b6040516020818303038152906040529050611da6888287878734612196565b886001600160a01b03168861ffff167f39a4c66499bcf4b56d79f0dde8ed7a9d4925a0df55825206b2b8531e202be0d08985604051611de69291906130c3565b60405180910390a3505050505050505050565b602081015161ffff8116611e1857611e138585858561233c565b610c08565b60405162461bcd60e51b815260206004820152601c60248201527f4f4654436f72653a20756e6b6e6f776e207061636b657420747970650000000060448201526064016108f9565b600080546001600160a01b038381166001600160a01b0319831681178455604051919092169283917f8be0079c531659141344cd1fd0a4f28419497f9722a3daafe3b4186f6b6457e09190a35050565b606081611ebe81601f612ef0565b1015611efd5760405162461bcd60e51b815260206004820152600e60248201526d736c6963655f6f766572666c6f7760901b60448201526064016108f9565b611f078284612ef0565b84511015611f4b5760405162461bcd60e51b8152602060048201526011602482015270736c6963655f6f75744f66426f756e647360781b60448201526064016108f9565b606082158015611f6a5760405191506000825260208201604052611fb4565b6040519150601f8416801560200281840101858101878315602002848b0101015b81831015611fa3578051835260209283019201611f8b565b5050858452601f01601f1916604052505b50949350505050565b6000606060008060008661ffff166001600160401b03811115611fe257611fe2612b1c565b6040519080825280601f01601f19166020018201604052801561200c576020820181803683370190505b50905060008087516020890160008d8df191503d92508683111561202e578692505b828152826000602083013e909890975095505050505050565b8180519060200120600560008761ffff1661ffff1681526020019081526020016000208560405161207891906130e5565b9081526040805191829003602090810183206001600160401b0388166000908152915220919091557fe183f33de2837795525b4792ca4cd60535bd77c53b7e7030060bfcf5734d6b0c906120d59087908790879087908790613101565b60405180910390a15050505050565b505050565b60065460ff161561210557612100848484846123c6565b611ba1565b815115611ba15760405162461bcd60e51b815260206004820152602660248201527f4f4654436f72653a205f61646170746572506172616d73206d7573742062652060448201526532b6b83a3c9760d11b60648201526084016108f9565b6000336001600160a01b038616811461218157612181868285611b2d565b61218c863085611ba7565b5090949350505050565b61ffff8616600090815260016020526040812080546121b490612dbd565b80601f01602080910402602001604051908101604052809291908181526020018280546121e090612dbd565b801561222d5780601f106122025761010080835404028352916020019161222d565b820191906000526020600020905b81548152906001019060200180831161221057829003601f168201915b5050505050905080516000141561229f5760405162461bcd60e51b815260206004820152603060248201527f4c7a4170703a2064657374696e6174696f6e20636861696e206973206e6f742060448201526f61207472757374656420736f7572636560801b60648201526084016108f9565b6122aa8787516124a5565b60405162c5803160e81b81526001600160a01b037f0000000000000000000000000000000000000000000000000000000000000000169063c5803100908490612301908b9086908c908c908c908c9060040161315f565b6000604051808303818588803b15801561231a57600080fd5b505af115801561232e573d6000803e3d6000fd5b505050505050505050505050565b6000808280602001905181019061235391906131b9565b9093509150600090506123668382612513565b9050612373878284612578565b9150806001600160a01b03168761ffff167fbf551ec93859b170f9b2141bd9298bf3f64322c6f7beb2543a0cb669834118bf846040516123b591815260200190565b60405180910390a350505050505050565b60006123d18361258c565b61ffff808716600090815260026020908152604080832093891683529290529081205491925090612403908490612ef0565b9050600081116124555760405162461bcd60e51b815260206004820152601a60248201527f4c7a4170703a206d696e4761734c696d6974206e6f742073657400000000000060448201526064016108f9565b808210156110625760405162461bcd60e51b815260206004820152601b60248201527f4c7a4170703a20676173206c696d697420697320746f6f206c6f77000000000060448201526064016108f9565b61ffff8216600090815260036020526040902054806124c357506127105b808211156120e45760405162461bcd60e51b815260206004820181905260248201527f4c7a4170703a207061796c6f61642073697a6520697320746f6f206c6172676560448201526064016108f9565b6000612520826014612ef0565b835110156125685760405162461bcd60e51b8152602060048201526015602482015274746f416464726573735f6f75744f66426f756e647360581b60448201526064016108f9565b500160200151600160601b900490565b6000612585308484611ba7565b5092915050565b60006022825110156125e05760405162461bcd60e51b815260206004820152601c60248201527f4c7a4170703a20696e76616c69642061646170746572506172616d730000000060448201526064016108f9565b506022015190565b8280546125f490612dbd565b90600052602060002090601f016020900481019282612616576000855561265c565b82601f1061262f57805160ff191683800117855561265c565b8280016001018555821561265c579182015b8281111561265c578251825591602001919060010190612641565b506126689291506126e0565b5090565b82805461267890612dbd565b90600052602060002090601f01602090048101928261269a576000855561265c565b82601f106126b35782800160ff1982351617855561265c565b8280016001018555821561265c579182015b8281111561265c5782358255916020019190600101906126c5565b5b8082111561266857600081556001016126e1565b61ffff8116811461184d57600080fd5b60008083601f84011261271757600080fd5b5081356001600160401b0381111561272e57600080fd5b60208301915083602082850101111561274657600080fd5b9250929050565b80356001600160401b038116811461276457600080fd5b919050565b6000806000806000806080878903121561278257600080fd5b863561278d816126f5565b955060208701356001600160401b03808211156127a957600080fd5b6127b58a838b01612705565b90975095508591506127c960408a0161274d565b945060608901359150808211156127df57600080fd5b506127ec89828a01612705565b979a9699509497509295939492505050565b60006020828403121561281057600080fd5b81356001600160e01b03198116811461123757600080fd5b60005b8381101561284357818101518382015260200161282b565b83811115611ba15750506000910152565b6000815180845261286c816020860160208601612828565b601f01601f19169290920160200192915050565b6020815260006112376020830184612854565b6000602082840312156128a557600080fd5b8135611237816126f5565b6001600160a01b038116811461184d57600080fd5b600080604083850312156128d857600080fd5b82356128e3816128b0565b946020939093013593505050565b6000806040838503121561290457600080fd5b82356128e3816126f5565b60008060006060848603121561292457600080fd5b833561292f816128b0565b9250602084013561293f816128b0565b929592945050506040919091013590565b8035801515811461276457600080fd5b600080600080600080600060a0888a03121561297b57600080fd5b8735612986816126f5565b965060208801356001600160401b03808211156129a257600080fd5b6129ae8b838c01612705565b909850965060408a013595508691506129c960608b01612950565b945060808a01359150808211156129df57600080fd5b506129ec8a828b01612705565b989b979a50959850939692959293505050565b600080600060408486031215612a1457600080fd5b8335612a1f816126f5565b925060208401356001600160401b03811115612a3a57600080fd5b612a4686828701612705565b9497909650939450505050565b600080600080600080600080600060e08a8c031215612a7157600080fd5b8935612a7c816128b0565b985060208a0135612a8c816126f5565b975060408a01356001600160401b0380821115612aa857600080fd5b612ab48d838e01612705565b909950975060608c0135965060808c01359150612ad0826128b0565b90945060a08b013590612ae2826128b0565b90935060c08b01359080821115612af857600080fd5b50612b058c828d01612705565b915080935050809150509295985092959850929598565b634e487b7160e01b600052604160045260246000fd5b604051601f8201601f191681016001600160401b0381118282101715612b5a57612b5a612b1c565b604052919050565b60006001600160401b03821115612b7b57612b7b612b1c565b50601f01601f191660200190565b600080600060608486031215612b9e57600080fd5b8335612ba9816126f5565b925060208401356001600160401b03811115612bc457600080fd5b8401601f81018613612bd557600080fd5b8035612be8612be382612b62565b612b32565b818152876020838501011115612bfd57600080fd5b81602084016020830137600060208383010152809450505050612c226040850161274d565b90509250925092565b600060208284031215612c3d57600080fd5b8135611237816128b0565b60008060408385031215612c5b57600080fd5b8235612c66816126f5565b91506020830135612c76816126f5565b809150509250929050565b600080600080600060808688031215612c9957600080fd5b8535612ca4816126f5565b94506020860135612cb4816126f5565b93506040860135925060608601356001600160401b03811115612cd657600080fd5b612ce288828901612705565b969995985093965092949392505050565b60008060408385031215612d0657600080fd5b8235612d11816128b0565b91506020830135612c76816128b0565b600080600060608486031215612d3657600080fd5b8335612d41816126f5565b9250602084013561293f816126f5565b600060208284031215612d6357600080fd5b61123782612950565b60008060008060808587031215612d8257600080fd5b8435612d8d816126f5565b93506020850135612d9d816126f5565b92506040850135612dad816128b0565b9396929550929360600135925050565b600181811c90821680612dd157607f821691505b60208210811415612df257634e487b7160e01b600052602260045260246000fd5b50919050565b8183823760009101908152919050565b81835281816020850137506000828201602090810191909152601f909101601f19169091010190565b61ffff85168152606060208201526000612e4f606083018587612e08565b905082604083015295945050505050565b61ffff871681526001600160a01b038616602082015260a060408201819052600090612e8e90830187612854565b85151560608401528281036080840152612ea9818587612e08565b9998505050505050505050565b60008060408385031215612ec957600080fd5b505080516020909101519092909150565b634e487b7160e01b600052601160045260246000fd5b60008219821115612f0357612f03612eda565b500190565b61ffff841681526040602082015260006118f8604083018486612e08565b600082821015612f3857612f38612eda565b500390565b8284823760609190911b6bffffffffffffffffffffffff19169101908152601401919050565b600061ffff808816835280871660208401525084604083015260806060830152612f91608083018486612e08565b979650505050505050565b61ffff86168152608060208201526000612fba608083018688612e08565b6001600160401b0394909416604083015250606001529392505050565b600082601f830112612fe857600080fd5b8151612ff6612be382612b62565b81815284602083860101111561300b57600080fd5b61301c826020830160208701612828565b949350505050565b60006020828403121561303657600080fd5b81516001600160401b0381111561304c57600080fd5b61301c84828501612fd7565b61ffff851681526080602082015260006130756080830186612854565b6001600160401b03851660408401528281036060840152612f918185612854565b61ffff841681526060602082015260006130b36060830185612854565b9050826040830152949350505050565b6040815260006130d66040830185612854565b90508260208301529392505050565b600082516130f7818460208701612828565b9190910192915050565b61ffff8616815260a06020820152600061311e60a0830187612854565b6001600160401b0386166040840152828103606084015261313f8186612854565b905082810360808401526131538185612854565b98975050505050505050565b61ffff8716815260c06020820152600061317c60c0830188612854565b828103604084015261318e8188612854565b6001600160a01b0387811660608601528616608085015283810360a08501529050612ea98185612854565b6000806000606084860312156131ce57600080fd5b83516131d9816126f5565b60208501519093506001600160401b038111156131f557600080fd5b61320186828701612fd7565b92505060408401519050925092509256fea2646970667358221220cb329a65bccd089c72e3e36a94a8f32fce407c641d4d0f4db9f1cf043da7560b64736f6c634300080c0033",
  "linkReferences": {},
  "deployedLinkReferences": {}
}