{
  "_format": "hh-sol-artifact-1",
  "contractName": "OFTUpgradeable",
  "sourceName": "contracts/contracts-upgradable/token/oft/OFTUpgradeable.sol",
  "abi": [
    {
      "anonymous": false,
      "inputs": [
        {
          "indexed": true,
          "internalType": "address",
          "name": "owner",
          "type": "address"
        },
        {
          "indexed": true,
          "internalType": "address",
          "name": "spender",
          "type": "address"
        },
        {
          "indexed": false,
          "internalType": "uint256",
          "name": "value",
          "type": "uint256"
        }
      ],
      "name": "Approval",
      "type": "event"
    },
    {
      "anonymous": false,
      "inputs": [
        {
          "indexed": false,
          "internalType": "uint8",
          "name": "version",
          "type": "uint8"
        }
      ],
      "name": "Initialized",
      "type": "event"
    },
    {
      "anonymous": false,
      "inputs": [
        {
          "indexed": false,
          "internalType": "uint16",
          "name": "_srcChainId",
          "type": "uint16"
        },
        {
          "indexed": false,
          "internalType": "bytes",
          "name": "_srcAddress",
          "type": "bytes"
        },
        {
          "indexed": false,
          "internalType": "uint64",
          "name": "_nonce",
          "type": "uint64"
        },
        {
          "indexed": false,
          "internalType": "bytes",
          "name": "_payload",
          "type": "bytes"
        },
        {
          "indexed": false,
          "internalType": "bytes",
          "name": "_reason",
          "type": "bytes"
        }
      ],
      "name": "MessageFailed",
      "type": "event"
    },
    {
      "anonymous": false,
      "inputs": [
        {
          "indexed": true,
          "internalType": "address",
          "name": "previousOwner",
          "type": "address"
        },
        {
          "indexed": true,
          "internalType": "address",
          "name": "newOwner",
          "type": "address"
        }
      ],
      "name": "OwnershipTransferred",
      "type": "event"
    },
    {
      "anonymous": false,
      "inputs": [
        {
          "indexed": true,
          "internalType": "uint16",
          "name": "_srcChainId",
          "type": "uint16"
        },
        {
          "indexed": true,
          "internalType": "address",
          "name": "_to",
          "type": "address"
        },
        {
          "indexed": false,
          "internalType": "uint256",
          "name": "_amount",
          "type": "uint256"
        }
      ],
      "name": "ReceiveFromChain",
      "type": "event"
    },
    {
      "anonymous": false,
      "inputs": [
        {
          "indexed": false,
          "internalType": "uint16",
          "name": "_srcChainId",
          "type": "uint16"
        },
        {
          "indexed": false,
          "internalType": "bytes",
          "name": "_srcAddress",
          "type": "bytes"
        },
        {
          "indexed": false,
          "internalType": "uint64",
          "name": "_nonce",
          "type": "uint64"
        },
        {
          "indexed": false,
          "internalType": "bytes32",
          "name": "_payloadHash",
          "type": "bytes32"
        }
      ],
      "name": "RetryMessageSuccess",
      "type": "event"
    },
    {
      "anonymous": false,
      "inputs": [
        {
          "indexed": true,
          "internalType": "uint16",
          "name": "_dstChainId",
          "type": "uint16"
        },
        {
          "indexed": true,
          "internalType": "address",
          "name": "_from",
          "type": "address"
        },
        {
          "indexed": false,
          "internalType": "bytes",
          "name": "_toAddress",
          "type": "bytes"
        },
        {
          "indexed": false,
          "internalType": "uint256",
          "name": "_amount",
          "type": "uint256"
        }
      ],
      "name": "SendToChain",
      "type": "event"
    },
    {
      "anonymous": false,
      "inputs": [
        {
          "indexed": false,
          "internalType": "uint16",
          "name": "_dstChainId",
          "type": "uint16"
        },
        {
          "indexed": false,
          "internalType": "uint16",
          "name": "_type",
          "type": "uint16"
        },
        {
          "indexed": false,
          "internalType": "uint256",
          "name": "_minDstGas",
          "type": "uint256"
        }
      ],
      "name": "SetMinDstGas",
      "type": "event"
    },
    {
      "anonymous": false,
      "inputs": [
        {
          "indexed": false,
          "internalType": "address",
          "name": "precrime",
          "type": "address"
        }
      ],
      "name": "SetPrecrime",
      "type": "event"
    },
    {
      "anonymous": false,
      "inputs": [
        {
          "indexed": false,
          "internalType": "uint16",
          "name": "_remoteChainId",
          "type": "uint16"
        },
        {
          "indexed": false,
          "internalType": "bytes",
          "name": "_path",
          "type": "bytes"
        }
      ],
      "name": "SetTrustedRemote",
      "type": "event"
    },
    {
      "anonymous": false,
      "inputs": [
        {
          "indexed": false,
          "internalType": "uint16",
          "name": "_remoteChainId",
          "type": "uint16"
        },
        {
          "indexed": false,
          "internalType": "bytes",
          "name": "_remoteAddress",
          "type": "bytes"
        }
      ],
      "name": "SetTrustedRemoteAddress",
      "type": "event"
    },
    {
      "anonymous": false,
      "inputs": [
        {
          "indexed": false,
          "internalType": "bool",
          "name": "_useCustomAdapterParams",
          "type": "bool"
        }
      ],
      "name": "SetUseCustomAdapterParams",
      "type": "event"
    },
    {
      "anonymous": false,
      "inputs": [
        {
          "indexed": true,
          "internalType": "address",
          "name": "from",
          "type": "address"
        },
        {
          "indexed": true,
          "internalType": "address",
          "name": "to",
          "type": "address"
        },
        {
          "indexed": false,
          "internalType": "uint256",
          "name": "value",
          "type": "uint256"
        }
      ],
      "name": "Transfer",
      "type": "event"
    },
    {
      "inputs": [],
      "name": "DEFAULT_PAYLOAD_SIZE_LIMIT",
      "outputs": [
        {
          "internalType": "uint256",
          "name": "",
          "type": "uint256"
        }
      ],
      "stateMutability": "view",
      "type": "function"
    },
    {
      "inputs": [],
      "name": "NO_EXTRA_GAS",
      "outputs": [
        {
          "internalType": "uint256",
          "name": "",
          "type": "uint256"
        }
      ],
      "stateMutability": "view",
      "type": "function"
    },
    {
      "inputs": [],
      "name": "PT_SEND",
      "outputs": [
        {
          "internalType": "uint16",
          "name": "",
          "type": "uint16"
        }
      ],
      "stateMutability": "view",
      "type": "function"
    },
    {
      "inputs": [
        {
          "internalType": "address",
          "name": "owner",
          "type": "address"
        },
        {
          "internalType": "address",
          "name": "spender",
          "type": "address"
        }
      ],
      "name": "allowance",
      "outputs": [
        {
          "internalType": "uint256",
          "name": "",
          "type": "uint256"
        }
      ],
      "stateMutability": "view",
      "type": "function"
    },
    {
      "inputs": [
        {
          "internalType": "address",
          "name": "spender",
          "type": "address"
        },
        {
          "internalType": "uint256",
          "name": "amount",
          "type": "uint256"
        }
      ],
      "name": "approve",
      "outputs": [
        {
          "internalType": "bool",
          "name": "",
          "type": "bool"
        }
      ],
      "stateMutability": "nonpayable",
      "type": "function"
    },
    {
      "inputs": [
        {
          "internalType": "address",
          "name": "account",
          "type": "address"
        }
      ],
      "name": "balanceOf",
      "outputs": [
        {
          "internalType": "uint256",
          "name": "",
          "type": "uint256"
        }
      ],
      "stateMutability": "view",
      "type": "function"
    },
    {
      "inputs": [],
      "name": "circulatingSupply",
      "outputs": [
        {
          "internalType": "uint256",
          "name": "",
          "type": "uint256"
        }
      ],
      "stateMutability": "view",
      "type": "function"
    },
    {
      "inputs": [],
      "name": "decimals",
      "outputs": [
        {
          "internalType": "uint8",
          "name": "",
          "type": "uint8"
        }
      ],
      "stateMutability": "view",
      "type": "function"
    },
    {
      "inputs": [
        {
          "internalType": "address",
          "name": "spender",
          "type": "address"
        },
        {
          "internalType": "uint256",
          "name": "subtractedValue",
          "type": "uint256"
        }
      ],
      "name": "decreaseAllowance",
      "outputs": [
        {
          "internalType": "bool",
          "name": "",
          "type": "bool"
        }
      ],
      "stateMutability": "nonpayable",
      "type": "function"
    },
    {
      "inputs": [
        {
          "internalType": "uint16",
          "name": "_dstChainId",
          "type": "uint16"
        },
        {
          "internalType": "bytes",
          "name": "_toAddress",
          "type": "bytes"
        },
        {
          "internalType": "uint256",
          "name": "_amount",
          "type": "uint256"
        },
        {
          "internalType": "bool",
          "name": "_useZro",
          "type": "bool"
        },
        {
          "internalType": "bytes",
          "name": "_adapterParams",
          "type": "bytes"
        }
      ],
      "name": "estimateSendFee",
      "outputs": [
        {
          "internalType": "uint256",
          "name": "nativeFee",
          "type": "uint256"
        },
        {
          "internalType": "uint256",
          "name": "zroFee",
          "type": "uint256"
        }
      ],
      "stateMutability": "view",
      "type": "function"
    },
    {
      "inputs": [
        {
          "internalType": "uint16",
          "name": "",
          "type": "uint16"
        },
        {
          "internalType": "bytes",
          "name": "",
          "type": "bytes"
        },
        {
          "internalType": "uint64",
          "name": "",
          "type": "uint64"
        }
      ],
      "name": "failedMessages",
      "outputs": [
        {
          "internalType": "bytes32",
          "name": "",
          "type": "bytes32"
        }
      ],
      "stateMutability": "view",
      "type": "function"
    },
    {
      "inputs": [
        {
          "internalType": "uint16",
          "name": "_srcChainId",
          "type": "uint16"
        },
        {
          "internalType": "bytes",
          "name": "_srcAddress",
          "type": "bytes"
        }
      ],
      "name": "forceResumeReceive",
      "outputs": [],
      "stateMutability": "nonpayable",
      "type": "function"
    },
    {
      "inputs": [
        {
          "internalType": "uint16",
          "name": "_version",
          "type": "uint16"
        },
        {
          "internalType": "uint16",
          "name": "_chainId",
          "type": "uint16"
        },
        {
          "internalType": "address",
          "name": "",
          "type": "address"
        },
        {
          "internalType": "uint256",
          "name": "_configType",
          "type": "uint256"
        }
      ],
      "name": "getConfig",
      "outputs": [
        {
          "internalType": "bytes",
          "name": "",
          "type": "bytes"
        }
      ],
      "stateMutability": "view",
      "type": "function"
    },
    {
      "inputs": [
        {
          "internalType": "uint16",
          "name": "_remoteChainId",
          "type": "uint16"
        }
      ],
      "name": "getTrustedRemoteAddress",
      "outputs": [
        {
          "internalType": "bytes",
          "name": "",
          "type": "bytes"
        }
      ],
      "stateMutability": "view",
      "type": "function"
    },
    {
      "inputs": [
        {
          "internalType": "address",
          "name": "spender",
          "type": "address"
        },
        {
          "internalType": "uint256",
          "name": "addedValue",
          "type": "uint256"
        }
      ],
      "name": "increaseAllowance",
      "outputs": [
        {
          "internalType": "bool",
          "name": "",
          "type": "bool"
        }
      ],
      "stateMutability": "nonpayable",
      "type": "function"
    },
    {
      "inputs": [
        {
          "internalType": "uint16",
          "name": "_srcChainId",
          "type": "uint16"
        },
        {
          "internalType": "bytes",
          "name": "_srcAddress",
          "type": "bytes"
        }
      ],
      "name": "isTrustedRemote",
      "outputs": [
        {
          "internalType": "bool",
          "name": "",
          "type": "bool"
        }
      ],
      "stateMutability": "view",
      "type": "function"
    },
    {
      "inputs": [],
      "name": "lzEndpoint",
      "outputs": [
        {
          "internalType": "contract ILayerZeroEndpointUpgradeable",
          "name": "",
          "type": "address"
        }
      ],
      "stateMutability": "view",
      "type": "function"
    },
    {
      "inputs": [
        {
          "internalType": "uint16",
          "name": "_srcChainId",
          "type": "uint16"
        },
        {
          "internalType": "bytes",
          "name": "_srcAddress",
          "type": "bytes"
        },
        {
          "internalType": "uint64",
          "name": "_nonce",
          "type": "uint64"
        },
        {
          "internalType": "bytes",
          "name": "_payload",
          "type": "bytes"
        }
      ],
      "name": "lzReceive",
      "outputs": [],
      "stateMutability": "nonpayable",
      "type": "function"
    },
    {
      "inputs": [
        {
          "internalType": "uint16",
          "name": "",
          "type": "uint16"
        },
        {
          "internalType": "uint16",
          "name": "",
          "type": "uint16"
        }
      ],
      "name": "minDstGasLookup",
      "outputs": [
        {
          "internalType": "uint256",
          "name": "",
          "type": "uint256"
        }
      ],
      "stateMutability": "view",
      "type": "function"
    },
    {
      "inputs": [],
      "name": "name",
      "outputs": [
        {
          "internalType": "string",
          "name": "",
          "type": "string"
        }
      ],
      "stateMutability": "view",
      "type": "function"
    },
    {
      "inputs": [
        {
          "internalType": "uint16",
          "name": "_srcChainId",
          "type": "uint16"
        },
        {
          "internalType": "bytes",
          "name": "_srcAddress",
          "type": "bytes"
        },
        {
          "internalType": "uint64",
          "name": "_nonce",
          "type": "uint64"
        },
        {
          "internalType": "bytes",
          "name": "_payload",
          "type": "bytes"
        }
      ],
      "name": "nonblockingLzReceive",
      "outputs": [],
      "stateMutability": "nonpayable",
      "type": "function"
    },
    {
      "inputs": [],
      "name": "owner",
      "outputs": [
        {
          "internalType": "address",
          "name": "",
          "type": "address"
        }
      ],
      "stateMutability": "view",
      "type": "function"
    },
    {
      "inputs": [
        {
          "internalType": "uint16",
          "name": "",
          "type": "uint16"
        }
      ],
      "name": "payloadSizeLimitLookup",
      "outputs": [
        {
          "internalType": "uint256",
          "name": "",
          "type": "uint256"
        }
      ],
      "stateMutability": "view",
      "type": "function"
    },
    {
      "inputs": [],
      "name": "precrime",
      "outputs": [
        {
          "internalType": "address",
          "name": "",
          "type": "address"
        }
      ],
      "stateMutability": "view",
      "type": "function"
    },
    {
      "inputs": [],
      "name": "renounceOwnership",
      "outputs": [],
      "stateMutability": "nonpayable",
      "type": "function"
    },
    {
      "inputs": [
        {
          "internalType": "uint16",
          "name": "_srcChainId",
          "type": "uint16"
        },
        {
          "internalType": "bytes",
          "name": "_srcAddress",
          "type": "bytes"
        },
        {
          "internalType": "uint64",
          "name": "_nonce",
          "type": "uint64"
        },
        {
          "internalType": "bytes",
          "name": "_payload",
          "type": "bytes"
        }
      ],
      "name": "retryMessage",
      "outputs": [],
      "stateMutability": "payable",
      "type": "function"
    },
    {
      "inputs": [
        {
          "internalType": "address",
          "name": "_from",
          "type": "address"
        },
        {
          "internalType": "uint16",
          "name": "_dstChainId",
          "type": "uint16"
        },
        {
          "internalType": "bytes",
          "name": "_toAddress",
          "type": "bytes"
        },
        {
          "internalType": "uint256",
          "name": "_amount",
          "type": "uint256"
        },
        {
          "internalType": "address payable",
          "name": "_refundAddress",
          "type": "address"
        },
        {
          "internalType": "address",
          "name": "_zroPaymentAddress",
          "type": "address"
        },
        {
          "internalType": "bytes",
          "name": "_adapterParams",
          "type": "bytes"
        }
      ],
      "name": "sendFrom",
      "outputs": [],
      "stateMutability": "payable",
      "type": "function"
    },
    {
      "inputs": [
        {
          "internalType": "uint16",
          "name": "_version",
          "type": "uint16"
        },
        {
          "internalType": "uint16",
          "name": "_chainId",
          "type": "uint16"
        },
        {
          "internalType": "uint256",
          "name": "_configType",
          "type": "uint256"
        },
        {
          "internalType": "bytes",
          "name": "_config",
          "type": "bytes"
        }
      ],
      "name": "setConfig",
      "outputs": [],
      "stateMutability": "nonpayable",
      "type": "function"
    },
    {
      "inputs": [
        {
          "internalType": "uint16",
          "name": "_dstChainId",
          "type": "uint16"
        },
        {
          "internalType": "uint16",
          "name": "_packetType",
          "type": "uint16"
        },
        {
          "internalType": "uint256",
          "name": "_minGas",
          "type": "uint256"
        }
      ],
      "name": "setMinDstGas",
      "outputs": [],
      "stateMutability": "nonpayable",
      "type": "function"
    },
    {
      "inputs": [
        {
          "internalType": "uint16",
          "name": "_dstChainId",
          "type": "uint16"
        },
        {
          "internalType": "uint256",
          "name": "_size",
          "type": "uint256"
        }
      ],
      "name": "setPayloadSizeLimit",
      "outputs": [],
      "stateMutability": "nonpayable",
      "type": "function"
    },
    {
      "inputs": [
        {
          "internalType": "address",
          "name": "_precrime",
          "type": "address"
        }
      ],
      "name": "setPrecrime",
      "outputs": [],
      "stateMutability": "nonpayable",
      "type": "function"
    },
    {
      "inputs": [
        {
          "internalType": "uint16",
          "name": "_version",
          "type": "uint16"
        }
      ],
      "name": "setReceiveVersion",
      "outputs": [],
      "stateMutability": "nonpayable",
      "type": "function"
    },
    {
      "inputs": [
        {
          "internalType": "uint16",
          "name": "_version",
          "type": "uint16"
        }
      ],
      "name": "setSendVersion",
      "outputs": [],
      "stateMutability": "nonpayable",
      "type": "function"
    },
    {
      "inputs": [
        {
          "internalType": "uint16",
          "name": "_srcChainId",
          "type": "uint16"
        },
        {
          "internalType": "bytes",
          "name": "_path",
          "type": "bytes"
        }
      ],
      "name": "setTrustedRemote",
      "outputs": [],
      "stateMutability": "nonpayable",
      "type": "function"
    },
    {
      "inputs": [
        {
          "internalType": "uint16",
          "name": "_remoteChainId",
          "type": "uint16"
        },
        {
          "internalType": "bytes",
          "name": "_remoteAddress",
          "type": "bytes"
        }
      ],
      "name": "setTrustedRemoteAddress",
      "outputs": [],
      "stateMutability": "nonpayable",
      "type": "function"
    },
    {
      "inputs": [
        {
          "internalType": "bool",
          "name": "_useCustomAdapterParams",
          "type": "bool"
        }
      ],
      "name": "setUseCustomAdapterParams",
      "outputs": [],
      "stateMutability": "nonpayable",
      "type": "function"
    },
    {
      "inputs": [
        {
          "internalType": "bytes4",
          "name": "interfaceId",
          "type": "bytes4"
        }
      ],
      "name": "supportsInterface",
      "outputs": [
        {
          "internalType": "bool",
          "name": "",
          "type": "bool"
        }
      ],
      "stateMutability": "view",
      "type": "function"
    },
    {
      "inputs": [],
      "name": "symbol",
      "outputs": [
        {
          "internalType": "string",
          "name": "",
          "type": "string"
        }
      ],
      "stateMutability": "view",
      "type": "function"
    },
    {
      "inputs": [],
      "name": "token",
      "outputs": [
        {
          "internalType": "address",
          "name": "",
          "type": "address"
        }
      ],
      "stateMutability": "view",
      "type": "function"
    },
    {
      "inputs": [],
      "name": "totalSupply",
      "outputs": [
        {
          "internalType": "uint256",
          "name": "",
          "type": "uint256"
        }
      ],
      "stateMutability": "view",
      "type": "function"
    },
    {
      "inputs": [
        {
          "internalType": "address",
          "name": "to",
          "type": "address"
        },
        {
          "internalType": "uint256",
          "name": "amount",
          "type": "uint256"
        }
      ],
      "name": "transfer",
      "outputs": [
        {
          "internalType": "bool",
          "name": "",
          "type": "bool"
        }
      ],
      "stateMutability": "nonpayable",
      "type": "function"
    },
    {
      "inputs": [
        {
          "internalType": "address",
          "name": "from",
          "type": "address"
        },
        {
          "internalType": "address",
          "name": "to",
          "type": "address"
        },
        {
          "internalType": "uint256",
          "name": "amount",
          "type": "uint256"
        }
      ],
      "name": "transferFrom",
      "outputs": [
        {
          "internalType": "bool",
          "name": "",
          "type": "bool"
        }
      ],
      "stateMutability": "nonpayable",
      "type": "function"
    },
    {
      "inputs": [
        {
          "internalType": "address",
          "name": "newOwner",
          "type": "address"
        }
      ],
      "name": "transferOwnership",
      "outputs": [],
      "stateMutability": "nonpayable",
      "type": "function"
    },
    {
      "inputs": [
        {
          "internalType": "uint16",
          "name": "",
          "type": "uint16"
        }
      ],
      "name": "trustedRemoteLookup",
      "outputs": [
        {
          "internalType": "bytes",
          "name": "",
          "type": "bytes"
        }
      ],
      "stateMutability": "view",
      "type": "function"
    },
    {
      "inputs": [],
      "name": "useCustomAdapterParams",
      "outputs": [
        {
          "internalType": "bool",
          "name": "",
          "type": "bool"
        }
      ],
      "stateMutability": "view",
      "type": "function"
    }
  ],
  "bytecode": "0x608060405234801561001057600080fd5b506133b5806100206000396000f3fe6080604052600436106102715760003560e01c80637533d7881161014f578063baf3292d116100c1578063eab45d9c1161007a578063eab45d9c146107b5578063eb8d72b7146107d5578063ed629c5c146107f5578063f2fde38b1461080f578063f5ecbdbc1461082f578063fc0c546a1461084f57600080fd5b8063baf3292d1461070c578063c44618341461072c578063cbed8b9c14610742578063d1deba1f14610762578063dd62ed3e14610775578063df2a5b3b1461079557600080fd5b806395d89b411161011357806395d89b41146106575780639f38369a1461066c578063a457c2d71461068c578063a6c3d165146106ac578063a9059cbb146106cc578063b353aaa7146106ec57600080fd5b80637533d788146105985780638cfd8f5c146105b85780638da5cb5b146105f05780639358928b14610622578063950c8a741461063757600080fd5b806339509351116101e85780634c42899a116101ac5780634c42899a146104a257806351905636146104ca5780635b8c41e6146104dd57806366ad5c8a1461052c57806370a082311461054c578063715018a61461058357600080fd5b806339509351146104005780633d8b38f6146104205780633f1f4fa41461044057806342d65a8d1461046d578063447705151461048d57600080fd5b80630df374831161023a5780630df374831461032f57806310ddb1371461034f57806318160ddd1461036f57806323b872dd1461038f5780632a205e3d146103af578063313ce567146103e457600080fd5b80621d35671461027657806301ffc9a71461029857806306fdde03146102cd57806307e0db17146102ef578063095ea7b31461030f575b600080fd5b34801561028257600080fd5b506102966102913660046128d6565b610862565b005b3480156102a457600080fd5b506102b86102b336600461296b565b610a7e565b60405190151581526020015b60405180910390f35b3480156102d957600080fd5b506102e2610abc565b6040516102c491906129ed565b3480156102fb57600080fd5b5061029661030a366004612a00565b610b4f565b34801561031b57600080fd5b506102b861032a366004612a32565b610bbc565b34801561033b57600080fd5b5061029661034a366004612a5e565b610bd4565b34801561035b57600080fd5b5061029661036a366004612a00565b610bf3565b34801561037b57600080fd5b5061012f545b6040519081526020016102c4565b34801561039b57600080fd5b506102b86103aa366004612a7c565b610c2f565b3480156103bb57600080fd5b506103cf6103ca366004612acd565b610c53565b604080519283526020830191909152016102c4565b3480156103f057600080fd5b50604051601281526020016102c4565b34801561040c57600080fd5b506102b861041b366004612a32565b610d09565b34801561042c57600080fd5b506102b861043b366004612b6c565b610d2b565b34801561044c57600080fd5b5061038161045b366004612a00565b60686020526000908152604090205481565b34801561047957600080fd5b50610296610488366004612b6c565b610df7565b34801561049957600080fd5b50610381600081565b3480156104ae57600080fd5b506104b7600081565b60405161ffff90911681526020016102c4565b6102966104d8366004612bc0565b610e61565b3480156104e957600080fd5b506103816104f8366004612cf6565b6097602090815260009384526040808520845180860184018051928152908401958401959095209452929052825290205481565b34801561053857600080fd5b506102966105473660046128d6565b610ee6565b34801561055857600080fd5b50610381610567366004612d98565b6001600160a01b0316600090815261012d602052604090205490565b34801561058f57600080fd5b50610296610fc2565b3480156105a457600080fd5b506102e26105b3366004612a00565b610fd6565b3480156105c457600080fd5b506103816105d3366004612db5565b606760209081526000928352604080842090915290825290205481565b3480156105fc57600080fd5b506033546001600160a01b03165b6040516001600160a01b0390911681526020016102c4565b34801561062e57600080fd5b50610381611070565b34801561064357600080fd5b5060695461060a906001600160a01b031681565b34801561066357600080fd5b506102e2611081565b34801561067857600080fd5b506102e2610687366004612a00565b611091565b34801561069857600080fd5b506102b86106a7366004612a32565b6111a8565b3480156106b857600080fd5b506102966106c7366004612b6c565b611223565b3480156106d857600080fd5b506102b86106e7366004612a32565b6112b6565b3480156106f857600080fd5b5060655461060a906001600160a01b031681565b34801561071857600080fd5b50610296610727366004612d98565b6112c4565b34801561073857600080fd5b5061038161271081565b34801561074e57600080fd5b5061029661075d366004612dee565b611321565b6102966107703660046128d6565b61138f565b34801561078157600080fd5b50610381610790366004612e60565b6115a5565b3480156107a157600080fd5b506102966107b0366004612e8e565b6115d1565b3480156107c157600080fd5b506102966107d0366004612ebe565b611683565b3480156107e157600080fd5b506102966107f0366004612b6c565b6116cc565b34801561080157600080fd5b5060fb546102b89060ff1681565b34801561081b57600080fd5b5061029661082a366004612d98565b611726565b34801561083b57600080fd5b506102e261084a366004612ed9565b61179f565b34801561085b57600080fd5b503061060a565b6065546001600160a01b0316336001600160a01b0316146108ca5760405162461bcd60e51b815260206004820152601e60248201527f4c7a4170703a20696e76616c696420656e64706f696e742063616c6c6572000060448201526064015b60405180910390fd5b61ffff8616600090815260666020526040812080546108e890612f2a565b80601f016020809104026020016040519081016040528092919081815260200182805461091490612f2a565b80156109615780601f1061093657610100808354040283529160200191610961565b820191906000526020600020905b81548152906001019060200180831161094457829003601f168201915b5050505050905080518686905014801561097c575060008151115b80156109a457508051602082012060405161099a9088908890612f65565b6040518091039020145b6109ff5760405162461bcd60e51b815260206004820152602660248201527f4c7a4170703a20696e76616c696420736f757263652073656e64696e6720636f6044820152651b9d1c9858dd60d21b60648201526084016108c1565b610a758787878080601f01602080910402602001604051908101604052809392919081815260200183838082843760009201919091525050604080516020601f8a018190048102820181019092528881528a93509150889088908190840183828082843760009201919091525061183292505050565b50505050505050565b60006001600160e01b031982161580610aa757506001600160e01b031982166336372b0760e01b145b80610ab65750610ab6826118ab565b92915050565b60606101308054610acc90612f2a565b80601f0160208091040260200160405190810160405280929190818152602001828054610af890612f2a565b8015610b455780601f10610b1a57610100808354040283529160200191610b45565b820191906000526020600020905b815481529060010190602001808311610b2857829003601f168201915b5050505050905090565b610b576118e0565b6065546040516307e0db1760e01b815261ffff831660048201526001600160a01b03909116906307e0db17906024015b600060405180830381600087803b158015610ba157600080fd5b505af1158015610bb5573d6000803e3d6000fd5b5050505050565b600033610bca81858561193a565b5060019392505050565b610bdc6118e0565b61ffff909116600090815260686020526040902055565b610bfb6118e0565b6065546040516310ddb13760e01b815261ffff831660048201526001600160a01b03909116906310ddb13790602401610b87565b600033610c3d858285611a5f565b610c48858585611ad9565b506001949350505050565b600080600080898989604051602001610c6f9493929190612f9e565b60408051601f198184030181529082905260655463040a7bb160e41b83529092506001600160a01b0316906340a7bb1090610cb8908d90309086908c908c908c90600401612fcd565b6040805180830381865afa158015610cd4573d6000803e3d6000fd5b505050506040513d601f19601f82011682018060405250810190610cf89190613023565b925092505097509795505050505050565b600033610bca818585610d1c83836115a5565b610d26919061305d565b61193a565b61ffff831660009081526066602052604081208054829190610d4c90612f2a565b80601f0160208091040260200160405190810160405280929190818152602001828054610d7890612f2a565b8015610dc55780601f10610d9a57610100808354040283529160200191610dc5565b820191906000526020600020905b815481529060010190602001808311610da857829003601f168201915b505050505090508383604051610ddc929190612f65565b60405180910390208180519060200120149150509392505050565b610dff6118e0565b6065546040516342d65a8d60e01b81526001600160a01b03909116906342d65a8d90610e3390869086908690600401613075565b600060405180830381600087803b158015610e4d57600080fd5b505af1158015610a75573d6000803e3d6000fd5b610edb898989898080601f01602080910402602001604051908101604052809392919081815260200183838082843760009201919091525050604080516020601f8a018190048102820181019092528881528c93508b92508a918a908a9081908401838280828437600092019190915250611ca992505050565b505050505050505050565b333014610f445760405162461bcd60e51b815260206004820152602660248201527f4e6f6e626c6f636b696e674c7a4170703a2063616c6c6572206d7573742062656044820152650204c7a4170760d41b60648201526084016108c1565b610fba8686868080601f01602080910402602001604051908101604052809392919081815260200183838082843760009201919091525050604080516020601f890181900481028201810190925287815289935091508790879081908401838280828437600092019190915250611d5092505050565b505050505050565b610fca6118e0565b610fd46000611db7565b565b60666020526000908152604090208054610fef90612f2a565b80601f016020809104026020016040519081016040528092919081815260200182805461101b90612f2a565b80156110685780601f1061103d57610100808354040283529160200191611068565b820191906000526020600020905b81548152906001019060200180831161104b57829003601f168201915b505050505081565b600061107c61012f5490565b905090565b60606101318054610acc90612f2a565b61ffff81166000908152606660205260408120805460609291906110b490612f2a565b80601f01602080910402602001604051908101604052809291908181526020018280546110e090612f2a565b801561112d5780601f106111025761010080835404028352916020019161112d565b820191906000526020600020905b81548152906001019060200180831161111057829003601f168201915b505050505090508051600014156111865760405162461bcd60e51b815260206004820152601d60248201527f4c7a4170703a206e6f20747275737465642070617468207265636f726400000060448201526064016108c1565b6111a16000601483516111999190613093565b839190611e09565b9392505050565b600033816111b682866115a5565b9050838110156112165760405162461bcd60e51b815260206004820152602560248201527f45524332303a2064656372656173656420616c6c6f77616e63652062656c6f77604482015264207a65726f60d81b60648201526084016108c1565b610c48828686840361193a565b61122b6118e0565b818130604051602001611240939291906130aa565b60408051601f1981840301815291815261ffff8516600090815260666020908152919020825161127593919290910190612755565b507f8c0400cfe2d1199b1a725c78960bcc2a344d869b80590d0f2bd005db15a572ce8383836040516112a993929190613075565b60405180910390a1505050565b600033610bca818585611ad9565b6112cc6118e0565b606980546001600160a01b0319166001600160a01b0383169081179091556040519081527f5db758e995a17ec1ad84bdef7e8c3293a0bd6179bcce400dff5d4c3d87db726b906020015b60405180910390a150565b6113296118e0565b6065546040516332fb62e760e21b81526001600160a01b039091169063cbed8b9c9061136190889088908890889088906004016130d0565b600060405180830381600087803b15801561137b57600080fd5b505af1158015610edb573d6000803e3d6000fd5b61ffff861660009081526097602052604080822090516113b29088908890612f65565b90815260408051602092819003830190206001600160401b038716600090815292529020549050806114325760405162461bcd60e51b815260206004820152602360248201527f4e6f6e626c6f636b696e674c7a4170703a206e6f2073746f726564206d65737360448201526261676560e81b60648201526084016108c1565b808383604051611443929190612f65565b6040518091039020146114a25760405162461bcd60e51b815260206004820152602160248201527f4e6f6e626c6f636b696e674c7a4170703a20696e76616c6964207061796c6f616044820152601960fa1b60648201526084016108c1565b61ffff871660009081526097602052604080822090516114c59089908990612f65565b90815260408051602092819003830181206001600160401b038916600090815290845282902093909355601f8801829004820283018201905286825261155d918991899089908190840183828082843760009201919091525050604080516020601f8a018190048102820181019092528881528a935091508890889081908401838280828437600092019190915250611d5092505050565b7fc264d91f3adc5588250e1551f547752ca0cfa8f6b530d243b9f9f4cab10ea8e58787878785604051611594959493929190613109565b60405180910390a150505050505050565b6001600160a01b03918216600090815261012e6020908152604080832093909416825291909152205490565b6115d96118e0565b600081116116215760405162461bcd60e51b81526020600482015260156024820152744c7a4170703a20696e76616c6964206d696e47617360581b60448201526064016108c1565b61ffff83811660008181526067602090815260408083209487168084529482529182902085905581519283528201929092529081018290527f9d5c7c0b934da8fefa9c7760c98383778a12dfbfc0c3b3106518f43fb9508ac0906060016112a9565b61168b6118e0565b60fb805460ff19168215159081179091556040519081527f1584ad594a70cbe1e6515592e1272a987d922b097ead875069cebe8b40c004a490602001611316565b6116d46118e0565b61ffff831660009081526066602052604090206116f29083836127d9565b507ffa41487ad5d6728f0b19276fa1eddc16558578f5109fc39d2dc33c3230470dab8383836040516112a993929190613075565b61172e6118e0565b6001600160a01b0381166117935760405162461bcd60e51b815260206004820152602660248201527f4f776e61626c653a206e6577206f776e657220697320746865207a65726f206160448201526564647265737360d01b60648201526084016108c1565b61179c81611db7565b50565b606554604051633d7b2f6f60e21b815261ffff808716600483015285166024820152306044820152606481018390526060916001600160a01b03169063f5ecbdbc90608401600060405180830381865afa158015611801573d6000803e3d6000fd5b505050506040513d6000823e601f3d908101601f191682016040526118299190810190613191565b95945050505050565b6000806118955a60966366ad5c8a60e01b8989898960405160240161185a94939291906131c5565b60408051601f198184030181529190526020810180516001600160e01b03166001600160e01b03199093169290921790915230929190611f16565b9150915081610fba57610fba8686868685611fa0565b60006001600160e01b03198216630a72677560e11b1480610ab657506301ffc9a760e01b6001600160e01b0319831614610ab6565b6033546001600160a01b03163314610fd45760405162461bcd60e51b815260206004820181905260248201527f4f776e61626c653a2063616c6c6572206973206e6f7420746865206f776e657260448201526064016108c1565b6001600160a01b03831661199c5760405162461bcd60e51b8152602060048201526024808201527f45524332303a20617070726f76652066726f6d20746865207a65726f206164646044820152637265737360e01b60648201526084016108c1565b6001600160a01b0382166119fd5760405162461bcd60e51b815260206004820152602260248201527f45524332303a20617070726f766520746f20746865207a65726f206164647265604482015261737360f01b60648201526084016108c1565b6001600160a01b03838116600081815261012e602090815260408083209487168084529482529182902085905590518481527f8c5be1e5ebec7d5bd14f71427d1e84f3dd0314c0f7b2291e5b200ac8c7c3b925910160405180910390a3505050565b6000611a6b84846115a5565b90506000198114611ad35781811015611ac65760405162461bcd60e51b815260206004820152601d60248201527f45524332303a20696e73756666696369656e7420616c6c6f77616e636500000060448201526064016108c1565b611ad3848484840361193a565b50505050565b6001600160a01b038316611b3d5760405162461bcd60e51b815260206004820152602560248201527f45524332303a207472616e736665722066726f6d20746865207a65726f206164604482015264647265737360d81b60648201526084016108c1565b6001600160a01b038216611b9f5760405162461bcd60e51b815260206004820152602360248201527f45524332303a207472616e7366657220746f20746865207a65726f206164647260448201526265737360e81b60648201526084016108c1565b6001600160a01b038316600090815261012d602052604090205481811015611c185760405162461bcd60e51b815260206004820152602660248201527f45524332303a207472616e7366657220616d6f756e7420657863656564732062604482015265616c616e636560d01b60648201526084016108c1565b6001600160a01b03808516600090815261012d6020526040808220858503905591851681529081208054849290611c5090849061305d565b92505081905550826001600160a01b0316846001600160a01b03167fddf252ad1be2c89b69c2b068fc378daa952ba7f163c4a11628f55a4df523b3ef84604051611c9c91815260200190565b60405180910390a3611ad3565b611cb7866000836000612042565b6000611cc5888888886120bc565b90506000808783604051602001611cde93929190613203565b6040516020818303038152906040529050611cfd8882878787346120ee565b886001600160a01b03168861ffff167f39a4c66499bcf4b56d79f0dde8ed7a9d4925a0df55825206b2b8531e202be0d08985604051611d3d929190613230565b60405180910390a3505050505050505050565b602081015161ffff8116611d6f57611d6a85858585612278565b610bb5565b60405162461bcd60e51b815260206004820152601c60248201527f4f4654436f72653a20756e6b6e6f776e207061636b657420747970650000000060448201526064016108c1565b603380546001600160a01b038381166001600160a01b0319831681179093556040519116919082907f8be0079c531659141344cd1fd0a4f28419497f9722a3daafe3b4186f6b6457e090600090a35050565b606081611e1781601f61305d565b1015611e565760405162461bcd60e51b815260206004820152600e60248201526d736c6963655f6f766572666c6f7760901b60448201526064016108c1565b611e60828461305d565b84511015611ea45760405162461bcd60e51b8152602060048201526011602482015270736c6963655f6f75744f66426f756e647360781b60448201526064016108c1565b606082158015611ec35760405191506000825260208201604052611f0d565b6040519150601f8416801560200281840101858101878315602002848b0101015b81831015611efc578051835260209283019201611ee4565b5050858452601f01601f1916604052505b50949350505050565b6000606060008060008661ffff166001600160401b03811115611f3b57611f3b612c89565b6040519080825280601f01601f191660200182016040528015611f65576020820181803683370190505b50905060008087516020890160008d8df191503d925086831115611f87578692505b828152826000602083013e909890975095505050505050565b8180519060200120609760008761ffff1661ffff16815260200190815260200160002085604051611fd19190613252565b9081526040805191829003602090810183206001600160401b0388166000908152915220919091557fe183f33de2837795525b4792ca4cd60535bd77c53b7e7030060bfcf5734d6b0c9061202e908790879087908790879061326e565b60405180910390a15050505050565b505050565b60fb5460ff161561205e5761205984848484612302565b611ad3565b815115611ad35760405162461bcd60e51b815260206004820152602660248201527f4f4654436f72653a205f61646170746572506172616d73206d7573742062652060448201526532b6b83a3c9760d11b60648201526084016108c1565b6000336001600160a01b03861681146120da576120da868285611a5f565b6120e486846123e1565b5090949350505050565b61ffff86166000908152606660205260408120805461210c90612f2a565b80601f016020809104026020016040519081016040528092919081815260200182805461213890612f2a565b80156121855780601f1061215a57610100808354040283529160200191612185565b820191906000526020600020905b81548152906001019060200180831161216857829003601f168201915b505050505090508051600014156121f75760405162461bcd60e51b815260206004820152603060248201527f4c7a4170703a2064657374696e6174696f6e20636861696e206973206e6f742060448201526f61207472757374656420736f7572636560801b60648201526084016108c1565b612202878751612532565b60655460405162c5803160e81b81526001600160a01b039091169063c580310090849061223d908b9086908c908c908c908c906004016132cc565b6000604051808303818588803b15801561225657600080fd5b505af115801561226a573d6000803e3d6000fd5b505050505050505050505050565b6000808280602001905181019061228f9190613326565b9093509150600090506122a283826125a0565b90506122af878284612605565b9150806001600160a01b03168761ffff167fbf551ec93859b170f9b2141bd9298bf3f64322c6f7beb2543a0cb669834118bf846040516122f191815260200190565b60405180910390a350505050505050565b600061230d83612618565b61ffff80871660009081526067602090815260408083209389168352929052908120549192509061233f90849061305d565b9050600081116123915760405162461bcd60e51b815260206004820152601a60248201527f4c7a4170703a206d696e4761734c696d6974206e6f742073657400000000000060448201526064016108c1565b80821015610fba5760405162461bcd60e51b815260206004820152601b60248201527f4c7a4170703a20676173206c696d697420697320746f6f206c6f77000000000060448201526064016108c1565b6001600160a01b0382166124415760405162461bcd60e51b815260206004820152602160248201527f45524332303a206275726e2066726f6d20746865207a65726f206164647265736044820152607360f81b60648201526084016108c1565b6001600160a01b038216600090815261012d6020526040902054818110156124b65760405162461bcd60e51b815260206004820152602260248201527f45524332303a206275726e20616d6f756e7420657863656564732062616c616e604482015261636560f01b60648201526084016108c1565b6001600160a01b038316600090815261012d60205260408120838303905561012f80548492906124e7908490613093565b90915550506040518281526000906001600160a01b038516907fddf252ad1be2c89b69c2b068fc378daa952ba7f163c4a11628f55a4df523b3ef9060200160405180910390a3505050565b61ffff82166000908152606860205260409020548061255057506127105b8082111561203d5760405162461bcd60e51b815260206004820181905260248201527f4c7a4170703a207061796c6f61642073697a6520697320746f6f206c6172676560448201526064016108c1565b60006125ad82601461305d565b835110156125f55760405162461bcd60e51b8152602060048201526015602482015274746f416464726573735f6f75744f66426f756e647360581b60448201526064016108c1565b500160200151600160601b900490565b60006126118383612674565b5092915050565b600060228251101561266c5760405162461bcd60e51b815260206004820152601c60248201527f4c7a4170703a20696e76616c69642061646170746572506172616d730000000060448201526064016108c1565b506022015190565b6001600160a01b0382166126ca5760405162461bcd60e51b815260206004820152601f60248201527f45524332303a206d696e7420746f20746865207a65726f20616464726573730060448201526064016108c1565b8061012f60008282546126dd919061305d565b90915550506001600160a01b038216600090815261012d60205260408120805483929061270b90849061305d565b90915550506040518181526001600160a01b038316906000907fddf252ad1be2c89b69c2b068fc378daa952ba7f163c4a11628f55a4df523b3ef9060200160405180910390a35050565b82805461276190612f2a565b90600052602060002090601f01602090048101928261278357600085556127c9565b82601f1061279c57805160ff19168380011785556127c9565b828001600101855582156127c9579182015b828111156127c95782518255916020019190600101906127ae565b506127d592915061284d565b5090565b8280546127e590612f2a565b90600052602060002090601f01602090048101928261280757600085556127c9565b82601f106128205782800160ff198235161785556127c9565b828001600101855582156127c9579182015b828111156127c9578235825591602001919060010190612832565b5b808211156127d5576000815560010161284e565b61ffff8116811461179c57600080fd5b60008083601f84011261288457600080fd5b5081356001600160401b0381111561289b57600080fd5b6020830191508360208285010111156128b357600080fd5b9250929050565b80356001600160401b03811681146128d157600080fd5b919050565b600080600080600080608087890312156128ef57600080fd5b86356128fa81612862565b955060208701356001600160401b038082111561291657600080fd5b6129228a838b01612872565b909750955085915061293660408a016128ba565b9450606089013591508082111561294c57600080fd5b5061295989828a01612872565b979a9699509497509295939492505050565b60006020828403121561297d57600080fd5b81356001600160e01b0319811681146111a157600080fd5b60005b838110156129b0578181015183820152602001612998565b83811115611ad35750506000910152565b600081518084526129d9816020860160208601612995565b601f01601f19169290920160200192915050565b6020815260006111a160208301846129c1565b600060208284031215612a1257600080fd5b81356111a181612862565b6001600160a01b038116811461179c57600080fd5b60008060408385031215612a4557600080fd5b8235612a5081612a1d565b946020939093013593505050565b60008060408385031215612a7157600080fd5b8235612a5081612862565b600080600060608486031215612a9157600080fd5b8335612a9c81612a1d565b92506020840135612aac81612a1d565b929592945050506040919091013590565b803580151581146128d157600080fd5b600080600080600080600060a0888a031215612ae857600080fd5b8735612af381612862565b965060208801356001600160401b0380821115612b0f57600080fd5b612b1b8b838c01612872565b909850965060408a01359550869150612b3660608b01612abd565b945060808a0135915080821115612b4c57600080fd5b50612b598a828b01612872565b989b979a50959850939692959293505050565b600080600060408486031215612b8157600080fd5b8335612b8c81612862565b925060208401356001600160401b03811115612ba757600080fd5b612bb386828701612872565b9497909650939450505050565b600080600080600080600080600060e08a8c031215612bde57600080fd5b8935612be981612a1d565b985060208a0135612bf981612862565b975060408a01356001600160401b0380821115612c1557600080fd5b612c218d838e01612872565b909950975060608c0135965060808c01359150612c3d82612a1d565b90945060a08b013590612c4f82612a1d565b90935060c08b01359080821115612c6557600080fd5b50612c728c828d01612872565b915080935050809150509295985092959850929598565b634e487b7160e01b600052604160045260246000fd5b604051601f8201601f191681016001600160401b0381118282101715612cc757612cc7612c89565b604052919050565b60006001600160401b03821115612ce857612ce8612c89565b50601f01601f191660200190565b600080600060608486031215612d0b57600080fd5b8335612d1681612862565b925060208401356001600160401b03811115612d3157600080fd5b8401601f81018613612d4257600080fd5b8035612d55612d5082612ccf565b612c9f565b818152876020838501011115612d6a57600080fd5b81602084016020830137600060208383010152809450505050612d8f604085016128ba565b90509250925092565b600060208284031215612daa57600080fd5b81356111a181612a1d565b60008060408385031215612dc857600080fd5b8235612dd381612862565b91506020830135612de381612862565b809150509250929050565b600080600080600060808688031215612e0657600080fd5b8535612e1181612862565b94506020860135612e2181612862565b93506040860135925060608601356001600160401b03811115612e4357600080fd5b612e4f88828901612872565b969995985093965092949392505050565b60008060408385031215612e7357600080fd5b8235612e7e81612a1d565b91506020830135612de381612a1d565b600080600060608486031215612ea357600080fd5b8335612eae81612862565b92506020840135612aac81612862565b600060208284031215612ed057600080fd5b6111a182612abd565b60008060008060808587031215612eef57600080fd5b8435612efa81612862565b93506020850135612f0a81612862565b92506040850135612f1a81612a1d565b9396929550929360600135925050565b600181811c90821680612f3e57607f821691505b60208210811415612f5f57634e487b7160e01b600052602260045260246000fd5b50919050565b8183823760009101908152919050565b81835281816020850137506000828201602090810191909152601f909101601f19169091010190565b61ffff85168152606060208201526000612fbc606083018587612f75565b905082604083015295945050505050565b61ffff871681526001600160a01b038616602082015260a060408201819052600090612ffb908301876129c1565b85151560608401528281036080840152613016818587612f75565b9998505050505050505050565b6000806040838503121561303657600080fd5b505080516020909101519092909150565b634e487b7160e01b600052601160045260246000fd5b6000821982111561307057613070613047565b500190565b61ffff84168152604060208201526000611829604083018486612f75565b6000828210156130a5576130a5613047565b500390565b8284823760609190911b6bffffffffffffffffffffffff19169101908152601401919050565b600061ffff8088168352808716602084015250846040830152608060608301526130fe608083018486612f75565b979650505050505050565b61ffff86168152608060208201526000613127608083018688612f75565b6001600160401b0394909416604083015250606001529392505050565b600082601f83011261315557600080fd5b8151613163612d5082612ccf565b81815284602083860101111561317857600080fd5b613189826020830160208701612995565b949350505050565b6000602082840312156131a357600080fd5b81516001600160401b038111156131b957600080fd5b61318984828501613144565b61ffff851681526080602082015260006131e260808301866129c1565b6001600160401b038516604084015282810360608401526130fe81856129c1565b61ffff8416815260606020820152600061322060608301856129c1565b9050826040830152949350505050565b60408152600061324360408301856129c1565b90508260208301529392505050565b60008251613264818460208701612995565b9190910192915050565b61ffff8616815260a06020820152600061328b60a08301876129c1565b6001600160401b038616604084015282810360608401526132ac81866129c1565b905082810360808401526132c081856129c1565b98975050505050505050565b61ffff8716815260c0602082015260006132e960c08301886129c1565b82810360408401526132fb81886129c1565b6001600160a01b0387811660608601528616608085015283810360a0850152905061301681856129c1565b60008060006060848603121561333b57600080fd5b835161334681612862565b60208501519093506001600160401b0381111561336257600080fd5b61336e86828701613144565b92505060408401519050925092509256fea2646970667358221220581804c146e7f7ae39b1ac2cf3b3161335f2f394617bf0dd10d56c07ffd3bbfc64736f6c634300080c0033",
  "linkReferences": {},
  "deployedLinkReferences": {}
}