{
  "address": "0xfa259c13EDc280Cfffe5BD5B03B85b40fbd9C99D",
  "abi": [
    {
      "inputs": [
        {
          "internalType": "address",
          "name": "_stargateEthVault",
          "type": "address"
        },
        {
          "internalType": "address",
          "name": "_stargateRouter",
          "type": "address"
        },
        {
          "internalType": "uint16",
          "name": "_poolId",
          "type": "uint16"
        }
      ],
      "stateMutability": "nonpayable",
      "type": "constructor"
    },
    {
      "inputs": [],
      "name": "addLiquidityETH",
      "outputs": [],
      "stateMutability": "payable",
      "type": "function"
    },
    {
      "inputs": [],
      "name": "poolId",
      "outputs": [
        {
          "internalType": "uint16",
          "name": "",
          "type": "uint16"
        }
      ],
      "stateMutability": "view",
      "type": "function"
    },
    {
      "inputs": [],
      "name": "stargateEthVault",
      "outputs": [
        {
          "internalType": "address",
          "name": "",
          "type": "address"
        }
      ],
      "stateMutability": "view",
      "type": "function"
    },
    {
      "inputs": [],
      "name": "stargateRouter",
      "outputs": [
        {
          "internalType": "contract IStargateRouter",
          "name": "",
          "type": "address"
        }
      ],
      "stateMutability": "view",
      "type": "function"
    },
    {
      "inputs": [
        {
          "internalType": "uint16",
          "name": "_dstChainId",
          "type": "uint16"
        },
        {
          "internalType": "address payable",
          "name": "_refundAddress",
          "type": "address"
        },
        {
          "internalType": "bytes",
          "name": "_toAddress",
          "type": "bytes"
        },
        {
          "internalType": "uint256",
          "name": "_amountLD",
          "type": "uint256"
        },
        {
          "internalType": "uint256",
          "name": "_minAmountLD",
          "type": "uint256"
        }
      ],
      "name": "swapETH",
      "outputs": [],
      "stateMutability": "payable",
      "type": "function"
    },
    {
      "stateMutability": "payable",
      "type": "receive"
    }
  ],
  "transactionHash": "0xf0de231985889eeb0f4185d929f7e357368cfcacbb2afd0658bfbe147ebbce9a",
  "args": [
    "0x3a0FCFe6fd122a8dA3cAEaD7219E5d25C05CBe1f",
    "0x83a2c39D7A3Abd4E1906816c5c21b2e77565a67d",
    13
  ],
  "numDeployments": 1,
  "solcInputHash": "47fc7421fb81baaea4b7164dafc8e490",
  "bytecode": "0x60e060405234801561001057600080fd5b50604051610ae5380380610ae583398101604081905261002f916100d1565b6001600160a01b03831661005e5760405162461bcd60e51b81526004016100559061011d565b60405180910390fd5b6001600160a01b0382166100845760405162461bcd60e51b815260040161005590610165565b606092831b6001600160601b03199081166080529190921b1660a05260f01b6001600160f01b03191660c0526101ab565b80516001600160a01b03811681146100cc57600080fd5b919050565b6000806000606084860312156100e5578283fd5b6100ee846100b5565b92506100fc602085016100b5565b9150604084015161ffff81168114610112578182fd5b809150509250925092565b60208082526028908201527f526f757465724554483a205f73746172676174654574685661756c742063616e604082015267074206265203078360c41b606082015260800190565b60208082526026908201527f526f757465724554483a205f7374617267617465526f757465722063616e742060408201526506265203078360d41b606082015260800190565b60805160601c60a05160601c60c05160f01c6108ce610217600039806102705280610291528061038252806105665250806101b9528061023f52806103a652806104a552806105395250806101035280610189528061035e52806103ef528061047552506108ce6000f3fe60806040526004361061004e5760003560e01c80631114cd2a1461005a57806338e31d391461006f5780633e0dc34e1461009a578063a9e56f3c146100bc578063ed995307146100d157610055565b3661005557005b600080fd5b61006d6100683660046105ee565b6100d9565b005b34801561007b57600080fd5b5061008461035c565b6040516100919190610713565b60405180910390f35b3480156100a657600080fd5b506100af610380565b60405161009191906107be565b3480156100c857600080fd5b506100846103a4565b61006d6103c8565b8134116101015760405162461bcd60e51b81526004016100f890610777565b60405180910390fd5b7f00000000000000000000000000000000000000000000000000000000000000006001600160a01b031663d0e30db0836040518263ffffffff1660e01b81526004016000604051808303818588803b15801561015c57600080fd5b505af1158015610170573d6000803e3d6000fd5b505060405163095ea7b360e01b81526001600160a01b037f000000000000000000000000000000000000000000000000000000000000000016935063095ea7b392506101e391507f0000000000000000000000000000000000000000000000000000000000000000908690600401610727565b602060405180830381600087803b1580156101fd57600080fd5b505af1158015610211573d6000803e3d6000fd5b505050506040513d601f19601f8201168201806040525081019061023591906105c7565b50600082340390507f00000000000000000000000000000000000000000000000000000000000000006001600160a01b0316639fbf10fc82897f00000000000000000000000000000000000000000000000000000000000000007f00000000000000000000000000000000000000000000000000000000000000008b89896040518060600160405280600081526020016000815260200160405180604001604052806002815260200161060f60f31b8152508152508e8e604051806020016040528060008152506040518c63ffffffff1660e01b81526004016103219a999897969594939291906107cd565b6000604051808303818588803b15801561033a57600080fd5b505af115801561034e573d6000803e3d6000fd5b505050505050505050505050565b7f000000000000000000000000000000000000000000000000000000000000000081565b7f000000000000000000000000000000000000000000000000000000000000000081565b7f000000000000000000000000000000000000000000000000000000000000000081565b600034116103e85760405162461bcd60e51b81526004016100f890610740565b60003490507f00000000000000000000000000000000000000000000000000000000000000006001600160a01b031663d0e30db0826040518263ffffffff1660e01b81526004016000604051808303818588803b15801561044857600080fd5b505af115801561045c573d6000803e3d6000fd5b505060405163095ea7b360e01b81526001600160a01b037f000000000000000000000000000000000000000000000000000000000000000016935063095ea7b392506104cf91507f0000000000000000000000000000000000000000000000000000000000000000908590600401610727565b602060405180830381600087803b1580156104e957600080fd5b505af11580156104fd573d6000803e3d6000fd5b505050506040513d601f19601f8201168201806040525081019061052191906105c7565b506040516321ec87bf60e21b81526001600160a01b037f000000000000000000000000000000000000000000000000000000000000000016906387b21efc90610592907f00000000000000000000000000000000000000000000000000000000000000009085903390600401610873565b600060405180830381600087803b1580156105ac57600080fd5b505af11580156105c0573d6000803e3d6000fd5b5050505050565b6000602082840312156105d8578081fd5b815180151581146105e7578182fd5b9392505050565b60008060008060008060a08789031215610606578182fd5b863561ffff81168114610617578283fd5b955060208701356001600160a01b0381168114610632578283fd5b9450604087013567ffffffffffffffff8082111561064e578384fd5b818901915089601f830112610661578384fd5b81358181111561066f578485fd5b8a6020828501011115610680578485fd5b979a9699505060200196606081013595608090910135945092505050565b60008284528282602086013780602084860101526020601f19601f85011685010190509392505050565b60008151808452815b818110156106ed576020818501810151868301820152016106d1565b818111156106fe5782602083870101525b50601f01601f19169290920160200192915050565b6001600160a01b0391909116815260200190565b6001600160a01b03929092168252602082015260400190565b60208082526018908201527f53746172676174653a206d73672e76616c756520697320300000000000000000604082015260600190565b60208082526027908201527f53746172676174653a206d73672e76616c7565206d757374206265203e205f616040820152661b5bdd5b9d131160ca1b606082015260800190565b61ffff91909116815260200190565b600061012061ffff808e168452808d166020850152808c1660408501525060018060a01b038a1660608401528860808401528760a08401528060c0840152865181840152506020860151610140830152604086015160606101608401526108386101808401826106c8565b905082810360e084015261084d81868861069e565b905082810361010084015261086281856106c8565b9d9c50505050505050505050505050565b61ffff93909316835260208301919091526001600160a01b031660408201526060019056fea2646970667358221220fb15c7c954bc4ea79389c384298c3477635663e42f415dfcd13ef36b9efd61d864736f6c63430007060033",
  "devdoc": {
    "kind": "dev",
    "methods": {},
    "version": 1
  },
  "userdoc": {
    "kind": "user",
    "methods": {},
    "version": 1
  },
  "storageLayout": {
    "storage": [],
    "types": null
  }
}