{
  "_format": "hh-sol-artifact-1",
  "contractName": "StargatePreCrime",
  "sourceName": "contracts/precrime/stargate/StargatePreCrime.sol",
  "abi": [
    {
      "inputs": [
        {
          "internalType": "uint16",
          "name": "_localChainId",
          "type": "uint16"
        },
        {
          "internalType": "address",
          "name": "_stargateRouter",
          "type": "address"
        },
        {
          "internalType": "address",
          "name": "_poolView",
          "type": "address"
        },
        {
          "internalType": "uint64",
          "name": "_maxBatchSizeForSimulate",
          "type": "uint64"
        },
        {
          "internalType": "uint16[]",
          "name": "_remoteChainIds",
          "type": "uint16[]"
        },
        {
          "internalType": "bytes32[]",
          "name": "_remotePrecrimeAddresses",
          "type": "bytes32[]"
        }
      ],
      "stateMutability": "nonpayable",
      "type": "constructor"
    },
    {
      "anonymous": false,
      "inputs": [
        {
          "indexed": true,
          "internalType": "address",
          "name": "previousOwner",
          "type": "address"
        },
        {
          "indexed": true,
          "internalType": "address",
          "name": "newOwner",
          "type": "address"
        }
      ],
      "name": "OwnershipTransferred",
      "type": "event"
    },
    {
      "inputs": [],
      "name": "CODE_MISS_SIMULATE_RESULT",
      "outputs": [
        {
          "internalType": "uint16",
          "name": "",
          "type": "uint16"
        }
      ],
      "stateMutability": "view",
      "type": "function"
    },
    {
      "inputs": [],
      "name": "CODE_PACKETS_OVERSIZE",
      "outputs": [
        {
          "internalType": "uint16",
          "name": "",
          "type": "uint16"
        }
      ],
      "stateMutability": "view",
      "type": "function"
    },
    {
      "inputs": [],
      "name": "CODE_PACKETS_UNSORTED",
      "outputs": [
        {
          "internalType": "uint16",
          "name": "",
          "type": "uint16"
        }
      ],
      "stateMutability": "view",
      "type": "function"
    },
    {
      "inputs": [],
      "name": "CODE_PRECRIME_FAILURE",
      "outputs": [
        {
          "internalType": "uint16",
          "name": "",
          "type": "uint16"
        }
      ],
      "stateMutability": "view",
      "type": "function"
    },
    {
      "inputs": [],
      "name": "CODE_SUCCESS",
      "outputs": [
        {
          "internalType": "uint16",
          "name": "",
          "type": "uint16"
        }
      ],
      "stateMutability": "view",
      "type": "function"
    },
    {
      "inputs": [],
      "name": "CONFIG_VERSION",
      "outputs": [
        {
          "internalType": "uint16",
          "name": "",
          "type": "uint16"
        }
      ],
      "stateMutability": "view",
      "type": "function"
    },
    {
      "inputs": [],
      "name": "PRECRIME_VERSION",
      "outputs": [
        {
          "internalType": "uint16",
          "name": "",
          "type": "uint16"
        }
      ],
      "stateMutability": "view",
      "type": "function"
    },
    {
      "inputs": [
        {
          "components": [
            {
              "internalType": "uint16",
              "name": "srcChainId",
              "type": "uint16"
            },
            {
              "internalType": "bytes32",
              "name": "srcAddress",
              "type": "bytes32"
            },
            {
              "internalType": "uint64",
              "name": "nonce",
              "type": "uint64"
            },
            {
              "internalType": "bytes",
              "name": "payload",
              "type": "bytes"
            }
          ],
          "internalType": "struct IPreCrime.Packet[]",
          "name": "_packets",
          "type": "tuple[]"
        }
      ],
      "name": "_simulateAndRevert",
      "outputs": [],
      "stateMutability": "nonpayable",
      "type": "function"
    },
    {
      "inputs": [
        {
          "components": [
            {
              "internalType": "uint16",
              "name": "srcChainId",
              "type": "uint16"
            },
            {
              "internalType": "bytes32",
              "name": "srcAddress",
              "type": "bytes32"
            },
            {
              "internalType": "uint64",
              "name": "nonce",
              "type": "uint64"
            },
            {
              "internalType": "bytes",
              "name": "payload",
              "type": "bytes"
            }
          ],
          "internalType": "struct IPreCrime.Packet[]",
          "name": "_packets",
          "type": "tuple[]"
        }
      ],
      "name": "getConfig",
      "outputs": [
        {
          "internalType": "bytes",
          "name": "",
          "type": "bytes"
        }
      ],
      "stateMutability": "view",
      "type": "function"
    },
    {
      "inputs": [],
      "name": "inflightBuffer",
      "outputs": [
        {
          "internalType": "uint256",
          "name": "",
          "type": "uint256"
        }
      ],
      "stateMutability": "view",
      "type": "function"
    },
    {
      "inputs": [],
      "name": "localChainId",
      "outputs": [
        {
          "internalType": "uint16",
          "name": "",
          "type": "uint16"
        }
      ],
      "stateMutability": "view",
      "type": "function"
    },
    {
      "inputs": [],
      "name": "maxBatchSize",
      "outputs": [
        {
          "internalType": "uint64",
          "name": "",
          "type": "uint64"
        }
      ],
      "stateMutability": "view",
      "type": "function"
    },
    {
      "inputs": [],
      "name": "owner",
      "outputs": [
        {
          "internalType": "address",
          "name": "",
          "type": "address"
        }
      ],
      "stateMutability": "view",
      "type": "function"
    },
    {
      "inputs": [],
      "name": "poolView",
      "outputs": [
        {
          "internalType": "contract PoolView",
          "name": "",
          "type": "address"
        }
      ],
      "stateMutability": "view",
      "type": "function"
    },
    {
      "inputs": [
        {
          "components": [
            {
              "internalType": "uint16",
              "name": "srcChainId",
              "type": "uint16"
            },
            {
              "internalType": "bytes32",
              "name": "srcAddress",
              "type": "bytes32"
            },
            {
              "internalType": "uint64",
              "name": "nonce",
              "type": "uint64"
            },
            {
              "internalType": "bytes",
              "name": "payload",
              "type": "bytes"
            }
          ],
          "internalType": "struct IPreCrime.Packet[]",
          "name": "_packets",
          "type": "tuple[]"
        },
        {
          "internalType": "bytes[]",
          "name": "_simulation",
          "type": "bytes[]"
        }
      ],
      "name": "precrime",
      "outputs": [
        {
          "internalType": "uint16",
          "name": "code",
          "type": "uint16"
        },
        {
          "internalType": "bytes",
          "name": "reason",
          "type": "bytes"
        }
      ],
      "stateMutability": "view",
      "type": "function"
    },
    {
      "inputs": [
        {
          "internalType": "uint256",
          "name": "",
          "type": "uint256"
        }
      ],
      "name": "remoteChainIds",
      "outputs": [
        {
          "internalType": "uint16",
          "name": "",
          "type": "uint16"
        }
      ],
      "stateMutability": "view",
      "type": "function"
    },
    {
      "inputs": [
        {
          "internalType": "uint256",
          "name": "",
          "type": "uint256"
        }
      ],
      "name": "remotePrecrimeAddresses",
      "outputs": [
        {
          "internalType": "bytes32",
          "name": "",
          "type": "bytes32"
        }
      ],
      "stateMutability": "view",
      "type": "function"
    },
    {
      "inputs": [],
      "name": "renounceOwnership",
      "outputs": [],
      "stateMutability": "nonpayable",
      "type": "function"
    },
    {
      "inputs": [
        {
          "internalType": "uint256",
          "name": "_inflightBuffer",
          "type": "uint256"
        }
      ],
      "name": "setInflightBuffer",
      "outputs": [],
      "stateMutability": "nonpayable",
      "type": "function"
    },
    {
      "inputs": [
        {
          "internalType": "uint64",
          "name": "_size",
          "type": "uint64"
        }
      ],
      "name": "setMaxBatchSize",
      "outputs": [],
      "stateMutability": "nonpayable",
      "type": "function"
    },
    {
      "inputs": [
        {
          "internalType": "address",
          "name": "_poolView",
          "type": "address"
        }
      ],
      "name": "setPoolView",
      "outputs": [],
      "stateMutability": "nonpayable",
      "type": "function"
    },
    {
      "inputs": [
        {
          "internalType": "uint16[]",
          "name": "_remoteChainIds",
          "type": "uint16[]"
        },
        {
          "internalType": "bytes32[]",
          "name": "_remotePrecrimeAddresses",
          "type": "bytes32[]"
        }
      ],
      "name": "setRemotePrecrimeAddresses",
      "outputs": [],
      "stateMutability": "nonpayable",
      "type": "function"
    },
    {
      "inputs": [
        {
          "internalType": "address",
          "name": "_stargateRouter",
          "type": "address"
        }
      ],
      "name": "setStargateRouter",
      "outputs": [],
      "stateMutability": "nonpayable",
      "type": "function"
    },
    {
      "inputs": [
        {
          "components": [
            {
              "internalType": "uint16",
              "name": "srcChainId",
              "type": "uint16"
            },
            {
              "internalType": "bytes32",
              "name": "srcAddress",
              "type": "bytes32"
            },
            {
              "internalType": "uint64",
              "name": "nonce",
              "type": "uint64"
            },
            {
              "internalType": "bytes",
              "name": "payload",
              "type": "bytes"
            }
          ],
          "internalType": "struct IPreCrime.Packet[]",
          "name": "_packets",
          "type": "tuple[]"
        }
      ],
      "name": "simulate",
      "outputs": [
        {
          "internalType": "uint16",
          "name": "code",
          "type": "uint16"
        },
        {
          "internalType": "bytes",
          "name": "data",
          "type": "bytes"
        }
      ],
      "stateMutability": "view",
      "type": "function"
    },
    {
      "inputs": [],
      "name": "stargateRouter",
      "outputs": [
        {
          "internalType": "contract Router",
          "name": "",
          "type": "address"
        }
      ],
      "stateMutability": "view",
      "type": "function"
    },
    {
      "inputs": [
        {
          "internalType": "address",
          "name": "newOwner",
          "type": "address"
        }
      ],
      "name": "transferOwnership",
      "outputs": [],
      "stateMutability": "nonpayable",
      "type": "function"
    },
    {
      "inputs": [],
      "name": "version",
      "outputs": [
        {
          "internalType": "uint16",
          "name": "",
          "type": "uint16"
        }
      ],
      "stateMutability": "pure",
      "type": "function"
    }
  ],
  "bytecode": "0x60806040523480156200001157600080fd5b50604051620051f2380380620051f2833981016040819052620000349162000503565b85600062000041620000e4565b600080546001600160a01b0319166001600160a01b0383169081178255604051929350917f8be0079c531659141344cd1fd0a4f28419497f9722a3daafe3b4186f6b6457e0908290a3506000805461ffff909216600160a01b0261ffff60a01b19909216919091179055620000b685620000e8565b620000c18462000172565b620000cc83620001fc565b620000d8828262000286565b5050505050506200069a565b3390565b620000f2620000e4565b6001600160a01b0316620001056200034b565b6001600160a01b03161462000150576040805162461bcd60e51b81526020600482018190526024820152600080516020620051d2833981519152604482015290519081900360640190fd5b600180546001600160a01b0319166001600160a01b0392909216919091179055565b6200017c620000e4565b6001600160a01b03166200018f6200034b565b6001600160a01b031614620001da576040805162461bcd60e51b81526020600482018190526024820152600080516020620051d2833981519152604482015290519081900360640190fd5b600280546001600160a01b0319166001600160a01b0392909216919091179055565b62000206620000e4565b6001600160a01b0316620002196200034b565b6001600160a01b03161462000264576040805162461bcd60e51b81526020600482018190526024820152600080516020620051d2833981519152604482015290519081900360640190fd5b600580546001600160401b0319166001600160401b0392909216919091179055565b62000290620000e4565b6001600160a01b0316620002a36200034b565b6001600160a01b031614620002ee576040805162461bcd60e51b81526020600482018190526024820152600080516020620051d2833981519152604482015290519081900360640190fd5b80518251146200031b5760405162461bcd60e51b8152600401620003129062000621565b60405180910390fd5b8151620003309060039060208501906200035a565b508051620003469060049060208401906200040a565b505050565b6000546001600160a01b031690565b82805482825590600052602060002090600f01601090048101928215620003f85791602002820160005b83821115620003c657835183826101000a81548161ffff021916908361ffff160217905550926020019260020160208160010104928301926001030262000384565b8015620003f65782816101000a81549061ffff0219169055600201602081600101049283019260010302620003c6565b505b506200040692915062000448565b5090565b828054828255906000526020600020908101928215620003f8579160200282015b82811115620003f85782518255916020019190600101906200042b565b5b8082111562000406576000815560010162000449565b80516001600160a01b03811681146200047757600080fd5b919050565b600082601f8301126200048d578081fd5b81516020620004a6620004a0836200067c565b62000658565b8281528181019085830183850287018401881015620004c3578586fd5b855b85811015620004e357815184529284019290840190600101620004c5565b5090979650505050505050565b805161ffff811681146200047757600080fd5b60008060008060008060c087890312156200051c578182fd5b6200052787620004f0565b95506020620005388189016200045f565b955062000548604089016200045f565b60608901519095506001600160401b03808216821462000566578485fd5b60808a0151919550808211156200057b578485fd5b818a0191508a601f8301126200058f578485fd5b8151620005a0620004a0826200067c565b81815284810190848601868402860187018f1015620005bd578889fd5b8895505b83861015620005ea57620005d581620004f0565b835260019590950194918601918601620005c1565b5060a08d0151909750945050508083111562000604578384fd5b50506200061489828a016200047c565b9150509295509295509295565b6020808252601e908201527f53746172676174655072656372696d653a20696e76616c69642073697a650000604082015260600190565b6040518181016001600160401b03811182821017156200067457fe5b604052919050565b60006001600160401b038211156200069057fe5b5060209081020190565b614b2880620006aa6000396000f3fe608060405234801561001057600080fd5b50600436106101b95760003560e01c8063715018a6116100f9578063bb96836811610097578063ec67df3011610071578063ec67df301461031d578063f0099e2a1461033e578063f2fde38b14610351578063f95d140414610201576101b9565b8063bb968368146102fa578063c6be4b9b1461030d578063e5bc030314610315576101b9565b80639590dc9d116100d35780639590dc9d146102ac5780639eb51f5b146102cc578063a9e56f3c146102df578063afea44ef146102e7576101b9565b8063715018a61461027c5780638971efff146102845780638da5cb5b14610297576101b9565b8063472641c11161016657806351b78b471161014057806351b78b471461025157806354fd4d50146102645780635b056da51461026c5780636eb3d2a514610274576101b9565b8063472641c1146102015780634979e3711461021e5780634e0ab1ab14610231576101b9565b80632913daa0116101975780632913daa0146101ec57806334e300971461020157806337de4ba114610209576101b9565b80630638fb64146101be5780630e735a63146101dc57806317c9efb0146101e4575b600080fd5b6101c6610364565b6040516101d39190614848565b60405180910390f35b6101c6610369565b6101c661036e565b6101f4610373565b6040516101d39190614874565b6101c6610383565b61021c6102173660046139d1565b610388565b005b61021c61022c366004613999565b610438565b61024461023f366004613d7b565b610527565b6040516101d39190614495565b61021c61025f366004613999565b610548565b6101c6610637565b6101c661063c565b61024461065e565b61021c610664565b61021c610292366004613d7b565b61077b565b61029f610828565b6040516101d3919061432a565b6102bf6102ba3660046139d1565b610844565b6040516101d3919061449e565b6101c66102da366004613d7b565b610893565b61029f6108cb565b61021c6102f5366004613dab565b6108e7565b61021c610308366004613a7a565b6109ca565b6101c6610ad9565b61029f610ade565b61033061032b366004613a11565b610afa565b6040516101d3929190614857565b61033061034c3660046139d1565b610c51565b61021c61035f366004613999565b610f82565b600281565b600381565b600081565b60055467ffffffffffffffff1681565b600181565b33301461039457600080fd5b6000806103a18484611123565b915091506040518060400160405280601381526020017f5e73696d756c6174696f6e20726573756c745e0000000000000000000000000081525082826040516020016103ef93929190614134565b60408051601f19818403018152908290527f08c379a000000000000000000000000000000000000000000000000000000000825261042f9160040161449e565b60405180910390fd5b6104406111ed565b73ffffffffffffffffffffffffffffffffffffffff1661045e610828565b73ffffffffffffffffffffffffffffffffffffffff16146104e057604080517f08c379a000000000000000000000000000000000000000000000000000000000815260206004820181905260248201527f4f776e61626c653a2063616c6c6572206973206e6f7420746865206f776e6572604482015290519081900360640190fd5b600280547fffffffffffffffffffffffff00000000000000000000000000000000000000001673ffffffffffffffffffffffffffffffffffffffff92909216919091179055565b6004818154811061053757600080fd5b600091825260209091200154905081565b6105506111ed565b73ffffffffffffffffffffffffffffffffffffffff1661056e610828565b73ffffffffffffffffffffffffffffffffffffffff16146105f057604080517f08c379a000000000000000000000000000000000000000000000000000000000815260206004820181905260248201527f4f776e61626c653a2063616c6c6572206973206e6f7420746865206f776e6572604482015290519081900360640190fd5b600180547fffffffffffffffffffffffff00000000000000000000000000000000000000001673ffffffffffffffffffffffffffffffffffffffff92909216919091179055565b600190565b60005474010000000000000000000000000000000000000000900461ffff1681565b60065481565b61066c6111ed565b73ffffffffffffffffffffffffffffffffffffffff1661068a610828565b73ffffffffffffffffffffffffffffffffffffffff161461070c57604080517f08c379a000000000000000000000000000000000000000000000000000000000815260206004820181905260248201527f4f776e61626c653a2063616c6c6572206973206e6f7420746865206f776e6572604482015290519081900360640190fd5b6000805460405173ffffffffffffffffffffffffffffffffffffffff909116907f8be0079c531659141344cd1fd0a4f28419497f9722a3daafe3b4186f6b6457e0908390a3600080547fffffffffffffffffffffffff0000000000000000000000000000000000000000169055565b6107836111ed565b73ffffffffffffffffffffffffffffffffffffffff166107a1610828565b73ffffffffffffffffffffffffffffffffffffffff161461082357604080517f08c379a000000000000000000000000000000000000000000000000000000000815260206004820181905260248201527f4f776e61626c653a2063616c6c6572206973206e6f7420746865206f776e6572604482015290519081900360640190fd5b600655565b60005473ffffffffffffffffffffffffffffffffffffffff1690565b606060008061085385856111f1565b915091506001610861611492565b83518484604051602001610879959493929190614288565b604051602081830303815290604052925050505b92915050565b600381815481106108a357600080fd5b9060005260206000209060109182820401919006600202915054906101000a900461ffff1681565b60015473ffffffffffffffffffffffffffffffffffffffff1681565b6108ef6111ed565b73ffffffffffffffffffffffffffffffffffffffff1661090d610828565b73ffffffffffffffffffffffffffffffffffffffff161461098f57604080517f08c379a000000000000000000000000000000000000000000000000000000000815260206004820181905260248201527f4f776e61626c653a2063616c6c6572206973206e6f7420746865206f776e6572604482015290519081900360640190fd5b600580547fffffffffffffffffffffffffffffffffffffffffffffffff00000000000000001667ffffffffffffffff92909216919091179055565b6109d26111ed565b73ffffffffffffffffffffffffffffffffffffffff166109f0610828565b73ffffffffffffffffffffffffffffffffffffffff1614610a7257604080517f08c379a000000000000000000000000000000000000000000000000000000000815260206004820181905260248201527f4f776e61626c653a2063616c6c6572206973206e6f7420746865206f776e6572604482015290519081900360640190fd5b8051825114610aad576040517f08c379a000000000000000000000000000000000000000000000000000000000815260040161042f9061450e565b8151610ac09060039060208501906133a0565b508051610ad4906004906020840190613449565b505050565b600481565b60025473ffffffffffffffffffffffffffffffffffffffff1681565b60006060818367ffffffffffffffff81118015610b1657600080fd5b50604051908082528060200260200182016040528015610b4a57816020015b6060815260200190600190039081610b355790505b50905060008467ffffffffffffffff81118015610b6657600080fd5b50604051908082528060200260200182016040528015610b90578160200160208202803683370190505b50905060005b85811015610c1557600080888884818110610bad57fe5b9050602002810190610bbf9190614889565b810190610bcc9190613d37565b9150915081848481518110610bdd57fe5b602002602001019061ffff16908161ffff168152505080858481518110610c0057fe5b60209081029190910101525050600101610b96565b50610c218888836114a2565b909450925061ffff841615610c37575050610c48565b610c4082611624565b909450925050505b94509492505050565b600060606000610c5f611492565b905067ffffffffffffffff8116841115610cb1576002610c888267ffffffffffffffff16611859565b604051602001610c989190614193565b6040516020818303038152906040529250925050610f7b565b8315610dfe5760008080805b87811015610df9576000898983818110610cd357fe5b9050602002810190610ce591906148ec565b610cee906149d1565b90508461ffff16816000015161ffff16141580610d0f575083816020015114155b15610d9257805160208201516040830151919650945092506000610d3282611988565b60010190508067ffffffffffffffff168467ffffffffffffffff1614610d8c576003610d5d84611859565b604051602001610d6d91906141d8565b6040516020818303038152906040529850985050505050505050610f7b565b50610df0565b8260010192508267ffffffffffffffff16816040015167ffffffffffffffff1614610df0576003610dc283611859565b604051602001610dd29190614243565b60405160208183030381529060405297509750505050505050610f7b565b50600101610cbd565b505050505b6000803073ffffffffffffffffffffffffffffffffffffffff166337de4ba160e01b8888604051602401610e3392919061434b565b60408051601f198184030181529181526020820180517bffffffffffffffffffffffffffffffffffffffffffffffffffffffff167fffffffff00000000000000000000000000000000000000000000000000000000909416939093179092529051610e9e9190614118565b600060405180830381855afa9150503d8060008114610ed9576040519150601f19603f3d011682016040523d82523d6000602084013e610ede565b606091505b50915091508115610f1d57806040517f08c379a000000000000000000000000000000000000000000000000000000000815260040161042f919061449e565b610f2681611c27565b909550935061ffff8516610f7757600054604051610f659174010000000000000000000000000000000000000000900461ffff16908690602001614857565b60405160208183030381529060405293505b5050505b9250929050565b610f8a6111ed565b73ffffffffffffffffffffffffffffffffffffffff16610fa8610828565b73ffffffffffffffffffffffffffffffffffffffff161461102a57604080517f08c379a000000000000000000000000000000000000000000000000000000000815260206004820181905260248201527f4f776e61626c653a2063616c6c6572206973206e6f7420746865206f776e6572604482015290519081900360640190fd5b73ffffffffffffffffffffffffffffffffffffffff8116611096576040517f08c379a0000000000000000000000000000000000000000000000000000000008152600401808060200182810382526026815260200180614a956026913960400191505060405180910390fd5b6000805460405173ffffffffffffffffffffffffffffffffffffffff808516939216917f8be0079c531659141344cd1fd0a4f28419497f9722a3daafe3b4186f6b6457e091a3600080547fffffffffffffffffffffffff00000000000000000000000000000000000000001673ffffffffffffffffffffffffffffffffffffffff92909216919091179055565b60006060600080611132611d5f565b9150915060005b8581101561118e57600087878381811061114f57fe5b905060200281019061116191906148ec565b61116a906149d1565b9050611175816120c5565b15611185576111858484836122e1565b50600101611139565b506040805180820182526000805474010000000000000000000000000000000000000000900461ffff1682526020808301859052925190926111d1929101614757565b6040516020818303038152906040529350935050509250929050565b3390565b606080826112d257600360048180548060200260200160405190810160405280929190818152602001828054801561127057602002820191906000526020600020906000905b82829054906101000a900461ffff1661ffff16815260200190600201906020826001010492830192600103820291508084116112375790505b50505050509150808054806020026020016040519081016040528092919081815260200182805480156112c257602002820191906000526020600020905b8154815260200190600101908083116112ae575b5050505050905091509150610f7b565b60006112e66112e18587614983565b612368565b905061ffff81161561148a578061ffff1667ffffffffffffffff8111801561130d57600080fd5b50604051908082528060200260200182016040528015611337578160200160208202803683370190505b50925060008161ffff1667ffffffffffffffff8111801561135757600080fd5b50604051908082528060200260200182016040528015611381578160200160208202803683370190505b50925060005b60035461ffff82161015610f775760005b61ffff811687111561148157600088888361ffff168181106113b657fe5b90506020028101906113c891906148ec565b6113d6906020810190613d1b565b90508061ffff1660038461ffff16815481106113ee57fe5b60009182526020909120601082040154600f9091166002026101000a900461ffff161415611478578087858151811061142357fe5b602002602001019061ffff16908161ffff168152505060048361ffff168154811061144a57fe5b906000526020600020015486858151811061146157fe5b602090810291909101015250600190920191611481565b50600101611398565b50600101611387565b509250929050565b60055467ffffffffffffffff1690565b6000606083156115715760006114b886866111f1565b50905060005b815181101561156e576000805b865181101561151b578383815181106114e057fe5b602002602001015161ffff168782815181106114f857fe5b602002602001015161ffff161415611513576001915061151b565b6001016114cb565b50806115655760046040518060400160405280602081526020017f6d697373696e672072656d6f74652073696d756c6174696f6e20726573756c748152509450945050505061161c565b506001016114be565b50505b6000805b84518110156115c257600060149054906101000a900461ffff1661ffff1685828151811061159f57fe5b602002602001015161ffff1614156115ba57600191506115c2565b600101611575565b508061160757505060408051808201909152601f81527f6d697373696e67206c6f63616c2073696d756c6174696f6e20726573756c740060208201526004915061161c565b50506040805160208101909152600080825291505b935093915050565b60006060611630613484565b6000845167ffffffffffffffff8111801561164a57600080fd5b5060405190808252806020026020018201604052801561168457816020015b611671613484565b8152602001906001900390816116695790505b50905060005b85518110156117275785818151811061169f57fe5b60200260200101518060200190518101906116ba9190613c3e565b8282815181106116c657fe5b6020026020010181905250600060149054906101000a900461ffff1661ffff168282815181106116f257fe5b60200260200101516000015161ffff16141561171f5781818151811061171457fe5b602002602001015192505b60010161168a565b5060005b82602001515181101561183a5760008360200151828151811061174a57fe5b6020026020010151905061175d81612405565b909650945061ffff8616156117755750505050611854565b60005b8160200151518110156118305760008260200151828151811061179757fe5b602002602001015190508060c00151156118275760006117c086836000015184602001516124f3565b90506117cb81612405565b909950975061ffff8916156117e65750505050505050611854565b60006117fb828960000151876000015161258e565b5090506118088382612656565b909a50985061ffff8a1615611824575050505050505050611854565b50505b50600101611778565b505060010161172b565b506000604051806020016040528060008152509350935050505b915091565b60608161189a575060408051808201909152600181527f30000000000000000000000000000000000000000000000000000000000000006020820152611983565b8160005b81156118b257600101600a8204915061189e565b60008167ffffffffffffffff811180156118cb57600080fd5b506040519080825280601f01601f1916602001820160405280156118f6576020820181803683370190505b5085935090507fffffffffffffffffffffffffffffffffffffffffffffffffffffffffffffffff82015b831561197d57600a840660300160f81b8282806001900393508151811061194357fe5b60200101907effffffffffffffffffffffffffffffffffffffffffffffffffffffffffffff1916908160001a905350600a84049350611920565b50925050505b919050565b602080820151600154604080517fe78cea9200000000000000000000000000000000000000000000000000000000815290516000948593859373ffffffffffffffffffffffffffffffffffffffff9091169263e78cea9292600480840193919291829003018186803b1580156119fd57600080fd5b505afa158015611a11573d6000803e3d6000fd5b505050506040513d601f19601f82011682018060405250810190611a3591906139b5565b604051602001611a469291906140de565b60408051601f198184030181528282526001547fe78cea92000000000000000000000000000000000000000000000000000000008452915190935060009273ffffffffffffffffffffffffffffffffffffffff9092169163e78cea92916004808301926020929190829003018186803b158015611ac257600080fd5b505afa158015611ad6573d6000803e3d6000fd5b505050506040513d601f19601f82011682018060405250810190611afa91906139b5565b73ffffffffffffffffffffffffffffffffffffffff166307968db16040518163ffffffff1660e01b815260040160206040518083038186803b158015611b3f57600080fd5b505afa158015611b53573d6000803e3d6000fd5b505050506040513d601f19601f82011682018060405250810190611b7791906139b5565b85516040517ffdc07c7000000000000000000000000000000000000000000000000000000000815291925073ffffffffffffffffffffffffffffffffffffffff83169163fdc07c7091611bce918690600401614857565b60206040518083038186803b158015611be657600080fd5b505afa158015611bfa573d6000803e3d6000fd5b505050506040513d601f19601f82011682018060405250810190611c1e9190613dc7565b95945050505050565b60006060600483511015611c6957826040517f08c379a000000000000000000000000000000000000000000000000000000000815260040161042f919061449e565b600483019050600081806020019051810190611c859190613b75565b90506000611c92826126c9565b90506000611cd46040518060400160405280601381526020017f5e73696d756c6174696f6e20726573756c745e000000000000000000000000008152506126c9565b9050611ce082826126ee565b611d1857856040517f08c379a000000000000000000000000000000000000000000000000000000000815260040161042f919061449e565b6000611d2c611d278484612732565b6127a5565b9050611d39816000612814565b9550611d54600280835103836128999092919063ffffffff16565b945050505050915091565b6060806000600160009054906101000a900473ffffffffffffffffffffffffffffffffffffffff1673ffffffffffffffffffffffffffffffffffffffff1663c45a01556040518163ffffffff1660e01b815260040160206040518083038186803b158015611dcc57600080fd5b505afa158015611de0573d6000803e3d6000fd5b505050506040513d601f19601f82011682018060405250810190611e0491906139b5565b905060008173ffffffffffffffffffffffffffffffffffffffff1663efde4e646040518163ffffffff1660e01b815260040160206040518083038186803b158015611e4e57600080fd5b505afa158015611e62573d6000803e3d6000fd5b505050506040513d601f19601f82011682018060405250810190611e869190613d93565b905060008167ffffffffffffffff81118015611ea157600080fd5b50604051908082528060200260200182016040528015611edb57816020015b611ec861349c565b815260200190600190039081611ec05790505b50905060008267ffffffffffffffff81118015611ef757600080fd5b50604051908082528060200260200182016040528015611f21578160200160208202803683370190505b50905060005b838110156120ba576040517f41d1de9700000000000000000000000000000000000000000000000000000000815260009073ffffffffffffffffffffffffffffffffffffffff8716906341d1de9790611f84908590600401614495565b60206040518083038186803b158015611f9c57600080fd5b505afa158015611fb0573d6000803e3d6000fd5b505050506040513d601f19601f82011682018060405250810190611fd491906139b5565b905080838381518110611fe357fe5b73ffffffffffffffffffffffffffffffffffffffff92831660209182029290920101526002546040517fec04205b00000000000000000000000000000000000000000000000000000000815291169063ec04205b9061204690849060040161432a565b60006040518083038186803b15801561205e57600080fd5b505afa158015612072573d6000803e3d6000fd5b505050506040513d6000823e601f3d908101601f1916820160405261209a9190810190613c0b565b8483815181106120a657fe5b602090810291909101015250600101611f27565b509450925050509091565b600080600160009054906101000a900473ffffffffffffffffffffffffffffffffffffffff1673ffffffffffffffffffffffffffffffffffffffff1663e78cea926040518163ffffffff1660e01b815260040160206040518083038186803b15801561213057600080fd5b505afa158015612144573d6000803e3d6000fd5b505050506040513d601f19601f8201168201806040525081019061216891906139b5565b83516040517f8e3b5d6a00000000000000000000000000000000000000000000000000000000815273ffffffffffffffffffffffffffffffffffffffff9290921691638e3b5d6a916121bc91600401614848565b60006040518083038186803b1580156121d457600080fd5b505afa1580156121e8573d6000803e3d6000fd5b505050506040513d6000823e601f3d908101601f191682016040526122109190810190613b3a565b905060148151111561225157805161224e9082906000907fffffffffffffffffffffffffffffffffffffffffffffffffffffffffffffffec01612899565b90505b60208151111561228d576040517f08c379a000000000000000000000000000000000000000000000000000000000815260040161042f90614545565b80516000602082146122a85760018260080260020a036122ca565b7fffffffffffffffffffffffffffffffffffffffffffffffffffffffffffffffff5b919092015160209490940151931690921492915050565b606081015160208101519060ff82166001141561230d5761230885858560000151846129ff565b612361565b60ff821660021415612329576123088585856000015184612c00565b60ff821660031415612345576123088585856000015184612d2b565b60ff821660041415612361576123618585856000015184612f31565b5050505050565b6000805b60035461ffff821610156123ff5760005b83518161ffff1610156123f657838161ffff168151811061239a57fe5b60200260200101516000015161ffff1660038361ffff16815481106123bb57fe5b60009182526020909120601082040154600f9091166002026101000a900461ffff1614156123ee576001909201916123f6565b60010161237d565b5060010161236c565b50919050565b604081015160800151600090606090825b84602001515181101561246f5760008560200151828151811061243557fe5b60200260200101519050612464816080015161245e83606001518661310a90919063ffffffff16565b9061310a565b925050600101612416565b50604080850151908101516020820151606083015160a0909301516000936124a693926124a092909183919061317e565b9061317e565b9050808211156124d65760016040518060600160405280603c8152602001614a59603c9139935093505050611854565b600060405180602001604052806000815250935093505050915091565b6124fb61349c565b600061250785856131f5565b905060005b8160200151518110156125545760008260200151828151811061252b57fe5b60200260200101519050848160000151141561254b579250612587915050565b5060010161250c565b506040517f08c379a000000000000000000000000000000000000000000000000000000000815260040161042f9061465c565b9392505050565b6125966134c2565b6000805b856020015151811015612623578461ffff16866020015182815181106125bc57fe5b60200260200101516000015161ffff161480156125f3575083866020015182815181106125e557fe5b602002602001015160200151145b1561261b578560200151818151811061260857fe5b602002602001015181925092505061161c565b60010161259a565b506040517f08c379a000000000000000000000000000000000000000000000000000000000815260040161042f906145ff565b60006060826040015161268560065461245e620f424088606001518161267857fe5b60608a015191900461310a565b10156126af576001604051806060016040528060388152602001614abb6038913991509150610f7b565b505060408051602081019091526000808252909250929050565b6126d1613505565b506040805180820190915281518152602082810190820152919050565b8051825160009111156127035750600061088d565b81602001518360200151141561271b5750600161088d565b508051602092830151929091015181902091201490565b61273a613505565b81518351101561274b57508161088d565b60208083015190840151600191146127725750815160208481015190840151829020919020145b801561279d57825184516127859161317e565b8452825160208501516127979161310a565b60208501525b509192915050565b60606000826000015167ffffffffffffffff811180156127c457600080fd5b506040519080825280601f01601f1916602001820160405280156127ef576020820181803683370190505b509050600060208201905061280d818560200151866000015161327a565b5092915050565b600061282182600261310a565b8351101561289057604080517f08c379a000000000000000000000000000000000000000000000000000000000815260206004820152601460248201527f746f55696e7431365f6f75744f66426f756e6473000000000000000000000000604482015290519081900360640190fd5b50016002015190565b6060816128a781601f61310a565b101561291457604080517f08c379a000000000000000000000000000000000000000000000000000000000815260206004820152600e60248201527f736c6963655f6f766572666c6f77000000000000000000000000000000000000604482015290519081900360640190fd5b61291e838361310a565b8451101561298d57604080517f08c379a000000000000000000000000000000000000000000000000000000000815260206004820152601160248201527f736c6963655f6f75744f66426f756e6473000000000000000000000000000000604482015290519081900360640190fd5b6060821580156129ac57604051915060008252602082016040526129f6565b6040519150601f8416801560200281840101858101878315602002848b0101015b818310156129e55780518352602092830192016129cd565b5050858452601f01601f1916604052505b50949350505050565b60008060008084806020019051810190612a199190613f27565b505095509550509450945050600080612a338a8a876132f1565b9250925050600080612a46848b8a61258e565b6002546040517f6ab202d300000000000000000000000000000000000000000000000000000000815292945090925073ffffffffffffffffffffffffffffffffffffffff1690636ab202d390612aa29085908a906004016146b9565b60e06040518083038186803b158015612aba57600080fd5b505afa158015612ace573d6000803e3d6000fd5b505050506040513d601f19601f82011682018060405250810190612af29190613bbb565b60025460408087015190517fea8683cd00000000000000000000000000000000000000000000000000000000815292945073ffffffffffffffffffffffffffffffffffffffff9091169163ea8683cd91612b529186908a906004016146fd565b6101a06040518083038186803b158015612b6b57600080fd5b505afa925050508015612b9b575060408051601f3d908101601f19168201909252612b9891810190613bd6565b60015b612ba457612bf2565b818d8681518110612bb157fe5b602002602001015160400181905250808d8681518110612bcd57fe5b6020026020010151602001518481518110612be457fe5b602002602001018190525050505b505050505050505050505050565b600080600083806020019051810190612c199190613de3565b93509350935050600080612c2e8989866132f1565b9250925050600080612c41848a8961258e565b6002546040517f6ab202d300000000000000000000000000000000000000000000000000000000815292945090925073ffffffffffffffffffffffffffffffffffffffff1690636ab202d390612c9d90859089906004016146b9565b60e06040518083038186803b158015612cb557600080fd5b505afa158015612cc9573d6000803e3d6000fd5b505050506040513d601f19601f82011682018060405250810190612ced9190613bbb565b9150818a8481518110612cfc57fe5b6020026020010151602001518281518110612d1357fe5b60200260200101819052505050505050505050505050565b600080600080600085806020019051810190612d479190613ea2565b509550955095509550955050600080612d618b8b886132f1565b9250925050600080612d74848c8b61258e565b6002546040517f6ab202d300000000000000000000000000000000000000000000000000000000815292945090925073ffffffffffffffffffffffffffffffffffffffff1690636ab202d390612dd09085908b906004016146b9565b60e06040518083038186803b158015612de857600080fd5b505afa158015612dfc573d6000803e3d6000fd5b505050506040513d601f19601f82011682018060405250810190612e209190613bbb565b60025460408087015190517f72666b1000000000000000000000000000000000000000000000000000000000815292945073ffffffffffffffffffffffffffffffffffffffff909116916372666b1091612e829186908b908b90600401614727565b6101a06040518083038186803b158015612e9b57600080fd5b505afa925050508015612ecb575060408051601f3d908101601f19168201909252612ec891810190613bd6565b60015b612ed457612f22565b818e8681518110612ee157fe5b602002602001015160400181905250808e8681518110612efd57fe5b6020026020010151602001518481518110612f1457fe5b602002602001018190525050505b50505050505050505050505050565b60008060008084806020019051810190612f4b9190613e29565b50945094509450945050600080612f638a8a876132f1565b9250925050600080612f76848b8a61258e565b6002546040517f6ab202d300000000000000000000000000000000000000000000000000000000815292945090925073ffffffffffffffffffffffffffffffffffffffff1690636ab202d390612fd29085908a906004016146b9565b60e06040518083038186803b158015612fea57600080fd5b505afa158015612ffe573d6000803e3d6000fd5b505050506040513d601f19601f820116820180604052508101906130229190613bbb565b6002546040517f17b597d900000000000000000000000000000000000000000000000000000000815291935073ffffffffffffffffffffffffffffffffffffffff16906317b597d99061307b90859089906004016146e1565b60e06040518083038186803b15801561309357600080fd5b505afa9250505080156130c3575060408051601f3d908101601f191682019092526130c091810190613bbb565b60015b6130cc57612bf2565b808c85815181106130d957fe5b60200260200101516020015183815181106130f057fe5b602002602001018190525050505050505050505050505050565b60008282018381101561258757604080517f08c379a000000000000000000000000000000000000000000000000000000000815260206004820152601b60248201527f536166654d6174683a206164646974696f6e206f766572666c6f770000000000604482015290519081900360640190fd5b6000828211156131ef57604080517f08c379a000000000000000000000000000000000000000000000000000000000815260206004820152601e60248201527f536166654d6174683a207375627472616374696f6e206f766572666c6f770000604482015290519081900360640190fd5b50900390565b6131fd613484565b60005b835181101561324757600084828151811061321757fe5b602002602001015190508361ffff16816000015161ffff16141561323e57915061088d9050565b50600101613200565b506040517f08c379a000000000000000000000000000000000000000000000000000000000815260040161042f906144b1565b602081106132a9578151835261329183602061310a565b925061329e82602061310a565b9150601f190161327a565b7fffffffffffffffffffffffffffffffffffffffffffffffffffffffffffffffff81156132de576001826020036101000a0390505b9151835183169219169190911790915250565b60006132fb61349c565b6000805b8551811015613364578486828151811061331557fe5b602002602001015160000151141561335c5786818151811061333357fe5b602002602001015186828151811061334757fe5b60200260200101518293509350935050613397565b6001016132ff565b506040517f08c379a000000000000000000000000000000000000000000000000000000000815260040161042f906145a2565b93509350939050565b82805482825590600052602060002090600f016010900481019282156134395791602002820160005b8382111561340957835183826101000a81548161ffff021916908361ffff16021790555092602001926002016020816001010492830192600103026133c9565b80156134375782816101000a81549061ffff0219169055600201602081600101049283019260010302613409565b505b5061344592915061351f565b5090565b828054828255906000526020600020908101928215613439579160200282015b82811115613439578251825591602001919060010190613469565b60408051808201909152600081526060602082015290565b604051806060016040528060008152602001606081526020016134bd613534565b905290565b6040518060e00160405280600061ffff16815260200160008152602001600081526020016000815260200160008152602001600081526020016000151581525090565b604051806040016040528060008152602001600081525090565b5b808211156134455760008155600101613520565b6040518060c001604052806000815260200160008152602001600081526020016000815260200160008152602001600081525090565b600061357d61357884614961565b61491f565b905082815283838301111561359157600080fd5b6125878360208301846149dd565b600082601f8301126135af578081fd5b813560206135bf61357883614943565b82815281810190858301838502870184018810156135db578586fd5b855b858110156135f9578135845292840192908401906001016135dd565b5090979650505050505050565b60008083601f840112613617578182fd5b50813567ffffffffffffffff81111561362e578182fd5b6020830191508360208083028501011115610f7b57600080fd5b8051801515811461198357600080fd5b600082601f830112613668578081fd5b813561367661357882614961565b81815284602083860101111561368a578283fd5b816020850160208301379081016020019190915292915050565b600082601f8301126136b4578081fd5b6125878383516020850161356a565b600060e082840312156136d4578081fd5b60405160e0810181811067ffffffffffffffff821117156136f157fe5b6040529050806137008361397d565b81526020830151602082015260408301516040820152606083015160608201526080830151608082015260a083015160a082015261374060c08401613648565b60c08201525092915050565b60006040828403121561375d578081fd5b6040516040810181811067ffffffffffffffff8211171561377a57fe5b604052825181526020928301519281019290925250919050565b6000608082840312156137a5578081fd5b6040516080810167ffffffffffffffff82821081831117156137c357fe5b81604052829350843591506137d782614a32565b81835260208501356020840152604085013591506137f482614a42565b816040840152606085013591508082111561380e57600080fd5b5061381b85828601613658565b6060830152505092915050565b600060c08284031215613839578081fd5b60405160c0810181811067ffffffffffffffff8211171561385657fe5b8060405250809150825181526020830151602082015260408301516040820152606083015160608201526080830151608082015260a083015160a08201525092915050565b600061010082840312156138ad578081fd5b6040516060810167ffffffffffffffff82821081831117156138cb57fe5b81604052829350845183526020915081850151818111156138eb57600080fd5b85019050601f810186136138fe57600080fd5b805161390c61357882614943565b8181528381019083850160e0808502860187018b101561392b57600080fd5b600095505b84861015613958576139428b836136c3565b8452600195909501949286019290810190613930565b5050808587015250505050506139718460408501613828565b60408201525092915050565b805161198381614a32565b805160ff8116811461198357600080fd5b6000602082840312156139aa578081fd5b813561258781614a0d565b6000602082840312156139c6578081fd5b815161258781614a0d565b600080602083850312156139e3578081fd5b823567ffffffffffffffff8111156139f9578182fd5b613a0585828601613606565b90969095509350505050565b60008060008060408587031215613a26578182fd5b843567ffffffffffffffff80821115613a3d578384fd5b613a4988838901613606565b90965094506020870135915080821115613a61578384fd5b50613a6e87828801613606565b95989497509550505050565b60008060408385031215613a8c578182fd5b823567ffffffffffffffff80821115613aa3578384fd5b818501915085601f830112613ab6578384fd5b81356020613ac661357883614943565b82815281810190858301838502870184018b1015613ae2578889fd5b8896505b84871015613b0d578035613af981614a32565b835260019690960195918301918301613ae6565b5096505086013592505080821115613b23578283fd5b50613b308582860161359f565b9150509250929050565b600060208284031215613b4b578081fd5b815167ffffffffffffffff811115613b61578182fd5b613b6d848285016136a4565b949350505050565b600060208284031215613b86578081fd5b815167ffffffffffffffff811115613b9c578182fd5b8201601f81018413613bac578182fd5b613b6d8482516020840161356a565b600060e08284031215613bcc578081fd5b61258783836136c3565b6000806101a08385031215613be9578182fd5b613bf38484613828565b9150613c028460c085016136c3565b90509250929050565b600060208284031215613c1c578081fd5b815167ffffffffffffffff811115613c32578182fd5b613b6d8482850161389b565b60006020808385031215613c50578182fd5b825167ffffffffffffffff80821115613c67578384fd5b9084019060408287031215613c7a578384fd5b604051604081018181108382111715613c8f57fe5b6040528251613c9d81614a32565b81528284015182811115613caf578586fd5b80840193505086601f840112613cc3578485fd5b82519150613cd361357883614943565b82815284810190848601875b85811015613d0857613cf68b8984518a010161389b565b84529287019290870190600101613cdf565b5050948201949094529695505050505050565b600060208284031215613d2c578081fd5b813561258781614a32565b60008060408385031215613d49578182fd5b8235613d5481614a32565b9150602083013567ffffffffffffffff811115613d6f578182fd5b613b3085828601613658565b600060208284031215613d8c578081fd5b5035919050565b600060208284031215613da4578081fd5b5051919050565b600060208284031215613dbc578081fd5b813561258781614a42565b600060208284031215613dd8578081fd5b815161258781614a42565b60008060008060a08587031215613df8578182fd5b613e0185613988565b93506020850151925060408501519150613e1e866060870161374c565b905092959194509250565b60008060008060008060e08789031215613e41578384fd5b613e4a87613988565b95506020870151945060408701519350613e67886060890161374c565b925060a0870151915060c087015167ffffffffffffffff811115613e89578182fd5b613e9589828a016136a4565b9150509295509295509295565b6000806000806000806000610100888a031215613ebd578485fd5b613ec688613988565b96506020880151955060408801519450613ee38960608a0161374c565b935060a0880151925060c0880151915060e088015167ffffffffffffffff811115613f0c578182fd5b613f188a828b016136a4565b91505092959891949750929550565b6000806000806000806000806101c0898b031215613f43578182fd5b613f4c89613988565b9750602089015196506040890151955060608901519450613f708a60808b0161374c565b9350613f7f8a60c08b01613828565b925061018089015167ffffffffffffffff80821115613f9c578384fd5b613fa88c838d016136a4565b93506101a08b0151915080821115613fbe578283fd5b50613fcb8b828c016136a4565b9150509295985092959890939650565b60008284528282602086013780602084860101526020601f19601f85011685010190509392505050565b6000815180845261401d8160208601602086016149dd565b601f01601f19169290920160200192915050565b61ffff81511682526020810151602083015260408101516040830152606081015160608301526080810151608083015260a081015160a083015260c0810151151560c08301525050565b805182526020810151602083015260408101516040830152606081015160608301526080810151608083015260a081015160a08301525050565b60f01b7fffff000000000000000000000000000000000000000000000000000000000000169052565b7fffffffffffffffffffffffffffffffffffffffff000000000000000000000000606093841b811682529190921b16601482015260280190565b6000825161412a8184602087016149dd565b9190910192915050565b600084516141468184602089016149dd565b80830190507fffff0000000000000000000000000000000000000000000000000000000000008560f01b16815283516141868160028401602088016149dd565b0160020195945050505050565b60007f7061636b6574732073697a6520657863656564206c696d697465642000000000825282516141cb81601c8501602087016149dd565b91909101601c0192915050565b60007f736b697070656420696e626f756e644e6f6e63652c207061636b657420696e6482527f65783a2000000000000000000000000000000000000000000000000000000000602083015282516142368160248501602087016149dd565b9190910160240192915050565b60007f756e736f72746564207061636b6574732c207061636b657420696e6465783a208252825161427b8160208501602087016149dd565b9190910160200192915050565b600061429482886140b5565b7fffffffffffffffff0000000000000000000000000000000000000000000000008660c01b16600283015284600a830152602a820184516020808701845b838110156142f257815161ffff16855293820193908201906001016142d2565b50508551818701939250845b8181101561431a578451845293820193928201926001016142fe565b50919a9950505050505050505050565b73ffffffffffffffffffffffffffffffffffffffff91909116815260200190565b602080825281810183905260009060408084018583028501820187855b88811015614487577fffffffffffffffffffffffffffffffffffffffffffffffffffffffffffffffc088840301845281357fffffffffffffffffffffffffffffffffffffffffffffffffffffffffffffff818b36030181126143c8578788fd5b8a01608081356143d781614a32565b61ffff1685528188013588860152868201356143f281614a42565b67ffffffffffffffff8082168988015260609150818401357fffffffffffffffffffffffffffffffffffffffffffffffffffffffffffffffe1853603018112614439578b8cfd5b8401803582811115614449578c8dfd5b803603861315614457578c8dfd5b84848a015261446b858a01828e8501613fdb565b998c019998505050948901945050506001919091019050614368565b509098975050505050505050565b90815260200190565b6000602082526125876020830184614005565b6020808252602d908201527f53746172676174655072656372696d653a2073696d756c6174696f6e2072657360408201527f756c74206e6f7420666f756e6400000000000000000000000000000000000000606082015260800190565b6020808252601e908201527f53746172676174655072656372696d653a20696e76616c69642073697a650000604082015260600190565b60208082526022908201527f696e76616c69642072656d6f74652061646472657373206c6f6f70757020706160408201527f7468000000000000000000000000000000000000000000000000000000000000606082015260800190565b60208082526023908201527f53746172676174655072656372696d653a205f706f6f6c4964206e6f7420666f60408201527f756e640000000000000000000000000000000000000000000000000000000000606082015260800190565b60208082526026908201527f53746172676174655072656372696d653a20636861696e2070617468206e6f7460408201527f20666f756e640000000000000000000000000000000000000000000000000000606082015260800190565b60208082526026908201527f53746172676174655072656372696d653a20706f6f6c207374617465206e6f7460408201527f20666f756e640000000000000000000000000000000000000000000000000000606082015260800190565b61012081016146c88285614031565b825160e083015260208301516101008301529392505050565b61010081016146f08285614031565b8260e08301529392505050565b610260810161470c828661407b565b61471960c0830185614031565b613b6d6101a083018461407b565b6101e08101614736828761407b565b61474360c0830186614031565b6101a08201939093526101c0015292915050565b600060208083526060830161ffff855116828501528185015160408081870152828251808552608088019150608086820289010194508584019350865b8181101561483a578886037fffffffffffffffffffffffffffffffffffffffffffffffffffffffffffffff800183528451805187528781015161010089890181905281519089018190526101208901918a01908b905b80821015614813576147fd848451614031565b60e0840193508b830192506001820191506147ea565b50505090850151906148278887018361407b565b9650509386019391860191600101614794565b509398975050505050505050565b61ffff91909116815260200190565b600061ffff8416825260406020830152613b6d6040830184614005565b67ffffffffffffffff91909116815260200190565b60008083357fffffffffffffffffffffffffffffffffffffffffffffffffffffffffffffffe18436030181126148bd578283fd5b83018035915067ffffffffffffffff8211156148d7578283fd5b602001915036819003821315610f7b57600080fd5b600082357fffffffffffffffffffffffffffffffffffffffffffffffffffffffffffffff8183360301811261412a578182fd5b60405181810167ffffffffffffffff8111828210171561493b57fe5b604052919050565b600067ffffffffffffffff82111561495757fe5b5060209081020190565b600067ffffffffffffffff82111561497557fe5b50601f01601f191660200190565b600061499161357884614943565b8381526020808201919084845b878110156149c5576149b33683358901613794565b8552938201939082019060010161499e565b50919695505050505050565b600061088d3683613794565b60005b838110156149f85781810151838201526020016149e0565b83811115614a07576000848401525b50505050565b73ffffffffffffffffffffffffffffffffffffffff81168114614a2f57600080fd5b50565b61ffff81168114614a2f57600080fd5b67ffffffffffffffff81168114614a2f57600080fdfe53746172676174655072656372696d653a20746f74616c50726f6d6973656442616c616e6365203e20746f74616c536f6c76656e7442616c616e63654f776e61626c653a206e6577206f776e657220697320746865207a65726f206164647265737353746172676174655072656372696d653a206c6f63616c506f6f6c43702e6c6b62203c2072656d6f7465506f6f6c43702e62616c616e6365a2646970667358221220d27d53fe919ddc49667710a3476fdcffa927958c04c15f1eae266651c7c0446064736f6c634300070600334f776e61626c653a2063616c6c6572206973206e6f7420746865206f776e6572",
  "linkReferences": {},
  "deployedLinkReferences": {}
}