{
  "_format": "hh-sol-artifact-1",
  "contractName": "ProxyONFT721",
  "sourceName": "contracts/token/onft/extension/ProxyONFT721.sol",
  "abi": [
    {
      "inputs": [
        {
          "internalType": "uint256",
          "name": "_minGasToTransfer",
          "type": "uint256"
        },
        {
          "internalType": "address",
          "name": "_lzEndpoint",
          "type": "address"
        },
        {
          "internalType": "address",
          "name": "_proxyToken",
          "type": "address"
        }
      ],
      "stateMutability": "nonpayable",
      "type": "constructor"
    },
    {
      "anonymous": false,
      "inputs": [
        {
          "indexed": false,
          "internalType": "bytes32",
          "name": "_hashedPayload",
          "type": "bytes32"
        }
      ],
      "name": "CreditCleared",
      "type": "event"
    },
    {
      "anonymous": false,
      "inputs": [
        {
          "indexed": false,
          "internalType": "bytes32",
          "name": "_hashedPayload",
          "type": "bytes32"
        },
        {
          "indexed": false,
          "internalType": "bytes",
          "name": "_payload",
          "type": "bytes"
        }
      ],
      "name": "CreditStored",
      "type": "event"
    },
    {
      "anonymous": false,
      "inputs": [
        {
          "indexed": false,
          "internalType": "uint16",
          "name": "_srcChainId",
          "type": "uint16"
        },
        {
          "indexed": false,
          "internalType": "bytes",
          "name": "_srcAddress",
          "type": "bytes"
        },
        {
          "indexed": false,
          "internalType": "uint64",
          "name": "_nonce",
          "type": "uint64"
        },
        {
          "indexed": false,
          "internalType": "bytes",
          "name": "_payload",
          "type": "bytes"
        },
        {
          "indexed": false,
          "internalType": "bytes",
          "name": "_reason",
          "type": "bytes"
        }
      ],
      "name": "MessageFailed",
      "type": "event"
    },
    {
      "anonymous": false,
      "inputs": [
        {
          "indexed": true,
          "internalType": "address",
          "name": "previousOwner",
          "type": "address"
        },
        {
          "indexed": true,
          "internalType": "address",
          "name": "newOwner",
          "type": "address"
        }
      ],
      "name": "OwnershipTransferred",
      "type": "event"
    },
    {
      "anonymous": false,
      "inputs": [
        {
          "indexed": true,
          "internalType": "uint16",
          "name": "_srcChainId",
          "type": "uint16"
        },
        {
          "indexed": true,
          "internalType": "bytes",
          "name": "_srcAddress",
          "type": "bytes"
        },
        {
          "indexed": true,
          "internalType": "address",
          "name": "_toAddress",
          "type": "address"
        },
        {
          "indexed": false,
          "internalType": "uint256[]",
          "name": "_tokenIds",
          "type": "uint256[]"
        }
      ],
      "name": "ReceiveFromChain",
      "type": "event"
    },
    {
      "anonymous": false,
      "inputs": [
        {
          "indexed": false,
          "internalType": "uint16",
          "name": "_srcChainId",
          "type": "uint16"
        },
        {
          "indexed": false,
          "internalType": "bytes",
          "name": "_srcAddress",
          "type": "bytes"
        },
        {
          "indexed": false,
          "internalType": "uint64",
          "name": "_nonce",
          "type": "uint64"
        },
        {
          "indexed": false,
          "internalType": "bytes32",
          "name": "_payloadHash",
          "type": "bytes32"
        }
      ],
      "name": "RetryMessageSuccess",
      "type": "event"
    },
    {
      "anonymous": false,
      "inputs": [
        {
          "indexed": true,
          "internalType": "uint16",
          "name": "_dstChainId",
          "type": "uint16"
        },
        {
          "indexed": true,
          "internalType": "address",
          "name": "_from",
          "type": "address"
        },
        {
          "indexed": true,
          "internalType": "bytes",
          "name": "_toAddress",
          "type": "bytes"
        },
        {
          "indexed": false,
          "internalType": "uint256[]",
          "name": "_tokenIds",
          "type": "uint256[]"
        }
      ],
      "name": "SendToChain",
      "type": "event"
    },
    {
      "anonymous": false,
      "inputs": [
        {
          "indexed": false,
          "internalType": "uint16",
          "name": "_dstChainId",
          "type": "uint16"
        },
        {
          "indexed": false,
          "internalType": "uint256",
          "name": "_dstChainIdToBatchLimit",
          "type": "uint256"
        }
      ],
      "name": "SetDstChainIdToBatchLimit",
      "type": "event"
    },
    {
      "anonymous": false,
      "inputs": [
        {
          "indexed": false,
          "internalType": "uint16",
          "name": "_dstChainId",
          "type": "uint16"
        },
        {
          "indexed": false,
          "internalType": "uint256",
          "name": "_dstChainIdToTransferGas",
          "type": "uint256"
        }
      ],
      "name": "SetDstChainIdToTransferGas",
      "type": "event"
    },
    {
      "anonymous": false,
      "inputs": [
        {
          "indexed": false,
          "internalType": "uint16",
          "name": "_dstChainId",
          "type": "uint16"
        },
        {
          "indexed": false,
          "internalType": "uint16",
          "name": "_type",
          "type": "uint16"
        },
        {
          "indexed": false,
          "internalType": "uint256",
          "name": "_minDstGas",
          "type": "uint256"
        }
      ],
      "name": "SetMinDstGas",
      "type": "event"
    },
    {
      "anonymous": false,
      "inputs": [
        {
          "indexed": false,
          "internalType": "uint256",
          "name": "_minGasToTransferAndStore",
          "type": "uint256"
        }
      ],
      "name": "SetMinGasToTransferAndStore",
      "type": "event"
    },
    {
      "anonymous": false,
      "inputs": [
        {
          "indexed": false,
          "internalType": "address",
          "name": "precrime",
          "type": "address"
        }
      ],
      "name": "SetPrecrime",
      "type": "event"
    },
    {
      "anonymous": false,
      "inputs": [
        {
          "indexed": false,
          "internalType": "uint16",
          "name": "_remoteChainId",
          "type": "uint16"
        },
        {
          "indexed": false,
          "internalType": "bytes",
          "name": "_path",
          "type": "bytes"
        }
      ],
      "name": "SetTrustedRemote",
      "type": "event"
    },
    {
      "anonymous": false,
      "inputs": [
        {
          "indexed": false,
          "internalType": "uint16",
          "name": "_remoteChainId",
          "type": "uint16"
        },
        {
          "indexed": false,
          "internalType": "bytes",
          "name": "_remoteAddress",
          "type": "bytes"
        }
      ],
      "name": "SetTrustedRemoteAddress",
      "type": "event"
    },
    {
      "inputs": [],
      "name": "DEFAULT_PAYLOAD_SIZE_LIMIT",
      "outputs": [
        {
          "internalType": "uint256",
          "name": "",
          "type": "uint256"
        }
      ],
      "stateMutability": "view",
      "type": "function"
    },
    {
      "inputs": [],
      "name": "FUNCTION_TYPE_SEND",
      "outputs": [
        {
          "internalType": "uint16",
          "name": "",
          "type": "uint16"
        }
      ],
      "stateMutability": "view",
      "type": "function"
    },
    {
      "inputs": [
        {
          "internalType": "bytes",
          "name": "_payload",
          "type": "bytes"
        }
      ],
      "name": "clearCredits",
      "outputs": [],
      "stateMutability": "nonpayable",
      "type": "function"
    },
    {
      "inputs": [
        {
          "internalType": "uint16",
          "name": "",
          "type": "uint16"
        }
      ],
      "name": "dstChainIdToBatchLimit",
      "outputs": [
        {
          "internalType": "uint256",
          "name": "",
          "type": "uint256"
        }
      ],
      "stateMutability": "view",
      "type": "function"
    },
    {
      "inputs": [
        {
          "internalType": "uint16",
          "name": "",
          "type": "uint16"
        }
      ],
      "name": "dstChainIdToTransferGas",
      "outputs": [
        {
          "internalType": "uint256",
          "name": "",
          "type": "uint256"
        }
      ],
      "stateMutability": "view",
      "type": "function"
    },
    {
      "inputs": [
        {
          "internalType": "uint16",
          "name": "_dstChainId",
          "type": "uint16"
        },
        {
          "internalType": "bytes",
          "name": "_toAddress",
          "type": "bytes"
        },
        {
          "internalType": "uint256[]",
          "name": "_tokenIds",
          "type": "uint256[]"
        },
        {
          "internalType": "bool",
          "name": "_useZro",
          "type": "bool"
        },
        {
          "internalType": "bytes",
          "name": "_adapterParams",
          "type": "bytes"
        }
      ],
      "name": "estimateSendBatchFee",
      "outputs": [
        {
          "internalType": "uint256",
          "name": "nativeFee",
          "type": "uint256"
        },
        {
          "internalType": "uint256",
          "name": "zroFee",
          "type": "uint256"
        }
      ],
      "stateMutability": "view",
      "type": "function"
    },
    {
      "inputs": [
        {
          "internalType": "uint16",
          "name": "_dstChainId",
          "type": "uint16"
        },
        {
          "internalType": "bytes",
          "name": "_toAddress",
          "type": "bytes"
        },
        {
          "internalType": "uint256",
          "name": "_tokenId",
          "type": "uint256"
        },
        {
          "internalType": "bool",
          "name": "_useZro",
          "type": "bool"
        },
        {
          "internalType": "bytes",
          "name": "_adapterParams",
          "type": "bytes"
        }
      ],
      "name": "estimateSendFee",
      "outputs": [
        {
          "internalType": "uint256",
          "name": "nativeFee",
          "type": "uint256"
        },
        {
          "internalType": "uint256",
          "name": "zroFee",
          "type": "uint256"
        }
      ],
      "stateMutability": "view",
      "type": "function"
    },
    {
      "inputs": [
        {
          "internalType": "uint16",
          "name": "",
          "type": "uint16"
        },
        {
          "internalType": "bytes",
          "name": "",
          "type": "bytes"
        },
        {
          "internalType": "uint64",
          "name": "",
          "type": "uint64"
        }
      ],
      "name": "failedMessages",
      "outputs": [
        {
          "internalType": "bytes32",
          "name": "",
          "type": "bytes32"
        }
      ],
      "stateMutability": "view",
      "type": "function"
    },
    {
      "inputs": [
        {
          "internalType": "uint16",
          "name": "_srcChainId",
          "type": "uint16"
        },
        {
          "internalType": "bytes",
          "name": "_srcAddress",
          "type": "bytes"
        }
      ],
      "name": "forceResumeReceive",
      "outputs": [],
      "stateMutability": "nonpayable",
      "type": "function"
    },
    {
      "inputs": [
        {
          "internalType": "uint16",
          "name": "_version",
          "type": "uint16"
        },
        {
          "internalType": "uint16",
          "name": "_chainId",
          "type": "uint16"
        },
        {
          "internalType": "address",
          "name": "",
          "type": "address"
        },
        {
          "internalType": "uint256",
          "name": "_configType",
          "type": "uint256"
        }
      ],
      "name": "getConfig",
      "outputs": [
        {
          "internalType": "bytes",
          "name": "",
          "type": "bytes"
        }
      ],
      "stateMutability": "view",
      "type": "function"
    },
    {
      "inputs": [
        {
          "internalType": "uint16",
          "name": "_remoteChainId",
          "type": "uint16"
        }
      ],
      "name": "getTrustedRemoteAddress",
      "outputs": [
        {
          "internalType": "bytes",
          "name": "",
          "type": "bytes"
        }
      ],
      "stateMutability": "view",
      "type": "function"
    },
    {
      "inputs": [
        {
          "internalType": "uint16",
          "name": "_srcChainId",
          "type": "uint16"
        },
        {
          "internalType": "bytes",
          "name": "_srcAddress",
          "type": "bytes"
        }
      ],
      "name": "isTrustedRemote",
      "outputs": [
        {
          "internalType": "bool",
          "name": "",
          "type": "bool"
        }
      ],
      "stateMutability": "view",
      "type": "function"
    },
    {
      "inputs": [],
      "name": "lzEndpoint",
      "outputs": [
        {
          "internalType": "contract ILayerZeroEndpoint",
          "name": "",
          "type": "address"
        }
      ],
      "stateMutability": "view",
      "type": "function"
    },
    {
      "inputs": [
        {
          "internalType": "uint16",
          "name": "_srcChainId",
          "type": "uint16"
        },
        {
          "internalType": "bytes",
          "name": "_srcAddress",
          "type": "bytes"
        },
        {
          "internalType": "uint64",
          "name": "_nonce",
          "type": "uint64"
        },
        {
          "internalType": "bytes",
          "name": "_payload",
          "type": "bytes"
        }
      ],
      "name": "lzReceive",
      "outputs": [],
      "stateMutability": "nonpayable",
      "type": "function"
    },
    {
      "inputs": [
        {
          "internalType": "uint16",
          "name": "",
          "type": "uint16"
        },
        {
          "internalType": "uint16",
          "name": "",
          "type": "uint16"
        }
      ],
      "name": "minDstGasLookup",
      "outputs": [
        {
          "internalType": "uint256",
          "name": "",
          "type": "uint256"
        }
      ],
      "stateMutability": "view",
      "type": "function"
    },
    {
      "inputs": [],
      "name": "minGasToTransferAndStore",
      "outputs": [
        {
          "internalType": "uint256",
          "name": "",
          "type": "uint256"
        }
      ],
      "stateMutability": "view",
      "type": "function"
    },
    {
      "inputs": [
        {
          "internalType": "uint16",
          "name": "_srcChainId",
          "type": "uint16"
        },
        {
          "internalType": "bytes",
          "name": "_srcAddress",
          "type": "bytes"
        },
        {
          "internalType": "uint64",
          "name": "_nonce",
          "type": "uint64"
        },
        {
          "internalType": "bytes",
          "name": "_payload",
          "type": "bytes"
        }
      ],
      "name": "nonblockingLzReceive",
      "outputs": [],
      "stateMutability": "nonpayable",
      "type": "function"
    },
    {
      "inputs": [
        {
          "internalType": "address",
          "name": "_operator",
          "type": "address"
        },
        {
          "internalType": "address",
          "name": "",
          "type": "address"
        },
        {
          "internalType": "uint256",
          "name": "",
          "type": "uint256"
        },
        {
          "internalType": "bytes",
          "name": "",
          "type": "bytes"
        }
      ],
      "name": "onERC721Received",
      "outputs": [
        {
          "internalType": "bytes4",
          "name": "",
          "type": "bytes4"
        }
      ],
      "stateMutability": "nonpayable",
      "type": "function"
    },
    {
      "inputs": [],
      "name": "owner",
      "outputs": [
        {
          "internalType": "address",
          "name": "",
          "type": "address"
        }
      ],
      "stateMutability": "view",
      "type": "function"
    },
    {
      "inputs": [
        {
          "internalType": "uint16",
          "name": "",
          "type": "uint16"
        }
      ],
      "name": "payloadSizeLimitLookup",
      "outputs": [
        {
          "internalType": "uint256",
          "name": "",
          "type": "uint256"
        }
      ],
      "stateMutability": "view",
      "type": "function"
    },
    {
      "inputs": [],
      "name": "precrime",
      "outputs": [
        {
          "internalType": "address",
          "name": "",
          "type": "address"
        }
      ],
      "stateMutability": "view",
      "type": "function"
    },
    {
      "inputs": [],
      "name": "renounceOwnership",
      "outputs": [],
      "stateMutability": "nonpayable",
      "type": "function"
    },
    {
      "inputs": [
        {
          "internalType": "uint16",
          "name": "_srcChainId",
          "type": "uint16"
        },
        {
          "internalType": "bytes",
          "name": "_srcAddress",
          "type": "bytes"
        },
        {
          "internalType": "uint64",
          "name": "_nonce",
          "type": "uint64"
        },
        {
          "internalType": "bytes",
          "name": "_payload",
          "type": "bytes"
        }
      ],
      "name": "retryMessage",
      "outputs": [],
      "stateMutability": "payable",
      "type": "function"
    },
    {
      "inputs": [
        {
          "internalType": "address",
          "name": "_from",
          "type": "address"
        },
        {
          "internalType": "uint16",
          "name": "_dstChainId",
          "type": "uint16"
        },
        {
          "internalType": "bytes",
          "name": "_toAddress",
          "type": "bytes"
        },
        {
          "internalType": "uint256[]",
          "name": "_tokenIds",
          "type": "uint256[]"
        },
        {
          "internalType": "address payable",
          "name": "_refundAddress",
          "type": "address"
        },
        {
          "internalType": "address",
          "name": "_zroPaymentAddress",
          "type": "address"
        },
        {
          "internalType": "bytes",
          "name": "_adapterParams",
          "type": "bytes"
        }
      ],
      "name": "sendBatchFrom",
      "outputs": [],
      "stateMutability": "payable",
      "type": "function"
    },
    {
      "inputs": [
        {
          "internalType": "address",
          "name": "_from",
          "type": "address"
        },
        {
          "internalType": "uint16",
          "name": "_dstChainId",
          "type": "uint16"
        },
        {
          "internalType": "bytes",
          "name": "_toAddress",
          "type": "bytes"
        },
        {
          "internalType": "uint256",
          "name": "_tokenId",
          "type": "uint256"
        },
        {
          "internalType": "address payable",
          "name": "_refundAddress",
          "type": "address"
        },
        {
          "internalType": "address",
          "name": "_zroPaymentAddress",
          "type": "address"
        },
        {
          "internalType": "bytes",
          "name": "_adapterParams",
          "type": "bytes"
        }
      ],
      "name": "sendFrom",
      "outputs": [],
      "stateMutability": "payable",
      "type": "function"
    },
    {
      "inputs": [
        {
          "internalType": "uint16",
          "name": "_version",
          "type": "uint16"
        },
        {
          "internalType": "uint16",
          "name": "_chainId",
          "type": "uint16"
        },
        {
          "internalType": "uint256",
          "name": "_configType",
          "type": "uint256"
        },
        {
          "internalType": "bytes",
          "name": "_config",
          "type": "bytes"
        }
      ],
      "name": "setConfig",
      "outputs": [],
      "stateMutability": "nonpayable",
      "type": "function"
    },
    {
      "inputs": [
        {
          "internalType": "uint16",
          "name": "_dstChainId",
          "type": "uint16"
        },
        {
          "internalType": "uint256",
          "name": "_dstChainIdToBatchLimit",
          "type": "uint256"
        }
      ],
      "name": "setDstChainIdToBatchLimit",
      "outputs": [],
      "stateMutability": "nonpayable",
      "type": "function"
    },
    {
      "inputs": [
        {
          "internalType": "uint16",
          "name": "_dstChainId",
          "type": "uint16"
        },
        {
          "internalType": "uint256",
          "name": "_dstChainIdToTransferGas",
          "type": "uint256"
        }
      ],
      "name": "setDstChainIdToTransferGas",
      "outputs": [],
      "stateMutability": "nonpayable",
      "type": "function"
    },
    {
      "inputs": [
        {
          "internalType": "uint16",
          "name": "_dstChainId",
          "type": "uint16"
        },
        {
          "internalType": "uint16",
          "name": "_packetType",
          "type": "uint16"
        },
        {
          "internalType": "uint256",
          "name": "_minGas",
          "type": "uint256"
        }
      ],
      "name": "setMinDstGas",
      "outputs": [],
      "stateMutability": "nonpayable",
      "type": "function"
    },
    {
      "inputs": [
        {
          "internalType": "uint256",
          "name": "_minGasToTransferAndStore",
          "type": "uint256"
        }
      ],
      "name": "setMinGasToTransferAndStore",
      "outputs": [],
      "stateMutability": "nonpayable",
      "type": "function"
    },
    {
      "inputs": [
        {
          "internalType": "uint16",
          "name": "_dstChainId",
          "type": "uint16"
        },
        {
          "internalType": "uint256",
          "name": "_size",
          "type": "uint256"
        }
      ],
      "name": "setPayloadSizeLimit",
      "outputs": [],
      "stateMutability": "nonpayable",
      "type": "function"
    },
    {
      "inputs": [
        {
          "internalType": "address",
          "name": "_precrime",
          "type": "address"
        }
      ],
      "name": "setPrecrime",
      "outputs": [],
      "stateMutability": "nonpayable",
      "type": "function"
    },
    {
      "inputs": [
        {
          "internalType": "uint16",
          "name": "_version",
          "type": "uint16"
        }
      ],
      "name": "setReceiveVersion",
      "outputs": [],
      "stateMutability": "nonpayable",
      "type": "function"
    },
    {
      "inputs": [
        {
          "internalType": "uint16",
          "name": "_version",
          "type": "uint16"
        }
      ],
      "name": "setSendVersion",
      "outputs": [],
      "stateMutability": "nonpayable",
      "type": "function"
    },
    {
      "inputs": [
        {
          "internalType": "uint16",
          "name": "_remoteChainId",
          "type": "uint16"
        },
        {
          "internalType": "bytes",
          "name": "_path",
          "type": "bytes"
        }
      ],
      "name": "setTrustedRemote",
      "outputs": [],
      "stateMutability": "nonpayable",
      "type": "function"
    },
    {
      "inputs": [
        {
          "internalType": "uint16",
          "name": "_remoteChainId",
          "type": "uint16"
        },
        {
          "internalType": "bytes",
          "name": "_remoteAddress",
          "type": "bytes"
        }
      ],
      "name": "setTrustedRemoteAddress",
      "outputs": [],
      "stateMutability": "nonpayable",
      "type": "function"
    },
    {
      "inputs": [
        {
          "internalType": "bytes32",
          "name": "",
          "type": "bytes32"
        }
      ],
      "name": "storedCredits",
      "outputs": [
        {
          "internalType": "uint16",
          "name": "srcChainId",
          "type": "uint16"
        },
        {
          "internalType": "address",
          "name": "toAddress",
          "type": "address"
        },
        {
          "internalType": "uint256",
          "name": "index",
          "type": "uint256"
        },
        {
          "internalType": "bool",
          "name": "creditsRemain",
          "type": "bool"
        }
      ],
      "stateMutability": "view",
      "type": "function"
    },
    {
      "inputs": [
        {
          "internalType": "bytes4",
          "name": "interfaceId",
          "type": "bytes4"
        }
      ],
      "name": "supportsInterface",
      "outputs": [
        {
          "internalType": "bool",
          "name": "",
          "type": "bool"
        }
      ],
      "stateMutability": "view",
      "type": "function"
    },
    {
      "inputs": [],
      "name": "token",
      "outputs": [
        {
          "internalType": "contract IERC721",
          "name": "",
          "type": "address"
        }
      ],
      "stateMutability": "view",
      "type": "function"
    },
    {
      "inputs": [
        {
          "internalType": "address",
          "name": "newOwner",
          "type": "address"
        }
      ],
      "name": "transferOwnership",
      "outputs": [],
      "stateMutability": "nonpayable",
      "type": "function"
    },
    {
      "inputs": [
        {
          "internalType": "uint16",
          "name": "",
          "type": "uint16"
        }
      ],
      "name": "trustedRemoteLookup",
      "outputs": [
        {
          "internalType": "bytes",
          "name": "",
          "type": "bytes"
        }
      ],
      "stateMutability": "view",
      "type": "function"
    }
  ],
  "bytecode": "0x60c06040523480156200001157600080fd5b5060405162003a8a38038062003a8a8339810160408190526200003491620002a7565b8282808062000043336200014e565b6001600160a01b031660805250600160065581620000b45760405162461bcd60e51b8152602060048201526024808201527f6d696e476173546f5472616e73666572416e6453746f7265206d7573742062656044820152630203e20360e41b60648201526084015b60405180910390fd5b50600755620000e06001600160a01b0382166380ac58cd60e01b6200019e602090811b62001b4317901c565b620001395760405162461bcd60e51b815260206004820152602260248201527f50726f78794f4e46543732313a20696e76616c69642045524337323120746f6b60448201526132b760f11b6064820152608401620000ab565b6001600160a01b031660a05250620002e89050565b600080546001600160a01b038381166001600160a01b0319831681178455604051919092169283917f8be0079c531659141344cd1fd0a4f28419497f9722a3daafe3b4186f6b6457e09190a35050565b6000620001ab83620001c6565b8015620001bf5750620001bf8383620001ff565b9392505050565b6000620001db826301ffc9a760e01b620001ff565b8015620001f95750620001f7826001600160e01b0319620001ff565b155b92915050565b604080516001600160e01b03198316602480830191909152825180830390910181526044909101909152602080820180516001600160e01b03166301ffc9a760e01b178152825160009392849283928392918391908a617530fa92503d9150600051905082801562000272575060208210155b80156200027f5750600081115b979650505050505050565b80516001600160a01b0381168114620002a257600080fd5b919050565b600080600060608486031215620002bd57600080fd5b83519250620002cf602085016200028a565b9150620002df604085016200028a565b90509250925092565b60805160a05161373662000354600039600081816108750152818161245c015261276f0152600081816106eb0152818161089a01528181610b1401528181610c5c01528181610dd0015281816115090152818161199001528181611ac301526126c701526137366000f3fe6080604052600436106102455760003560e01c80638da5cb5b11610139578063c4461834116100b6578063eb8d72b71161007a578063eb8d72b7146107b6578063f2353641146107d6578063f2fde38b146107f6578063f5ecbdbc14610816578063fa25f9b614610836578063fc0c546a1461086357600080fd5b8063c44618341461072d578063cbed8b9c14610743578063d12473a514610763578063d1deba1f14610783578063df2a5b3b1461079657600080fd5b8063a6c3d165116100fd578063a6c3d1651461067e578063ab3ffb931461069e578063af3fb21c146106b1578063b353aaa7146106d9578063baf3292d1461070d57600080fd5b80638da5cb5b146105cc5780638ffa1f2a146105fe578063950c8a741461061e5780639ea5d6b11461063e5780639f38369a1461065e57600080fd5b80633f1f4fa4116101c75780635b8c41e61161018b5780635b8c41e6146104e357806366ad5c8a14610532578063715018a6146105525780637533d788146105675780638cfd8f5c1461059457600080fd5b80633f1f4fa41461043257806342d65a8d1461046d578063482881901461048d5780634ac3f4ff146104a357806351905636146104d057600080fd5b806310ddb1371161020e57806310ddb13714610301578063150b7a021461032157806322a3ecf91461035a5780632a205e3d146103dd5780633d8b38f61461041257600080fd5b80621d35671461024a57806301ffc9a71461026c57806307e0db17146102a15780630b4cad4c146102c15780630df37483146102e1575b600080fd5b34801561025657600080fd5b5061026a6102653660046129f0565b610897565b005b34801561027857600080fd5b5061028c610287366004612a83565b610ac8565b60405190151581526020015b60405180910390f35b3480156102ad57600080fd5b5061026a6102bc366004612aad565b610af3565b3480156102cd57600080fd5b5061026a6102dc366004612ac8565b610b7c565b3480156102ed57600080fd5b5061026a6102fc366004612ae1565b610c1c565b34801561030d57600080fd5b5061026a61031c366004612aad565b610c3b565b34801561032d57600080fd5b5061034161033c366004612bee565b610c93565b6040516001600160e01b03199091168152602001610298565b34801561036657600080fd5b506103ae610375366004612ac8565b600a6020526000908152604090208054600182015460029092015461ffff821692620100009092046001600160a01b0316919060ff1684565b6040805161ffff90951685526001600160a01b0390931660208501529183015215156060820152608001610298565b3480156103e957600080fd5b506103fd6103f8366004612c69565b610cbf565b60408051928352602083019190915201610298565b34801561041e57600080fd5b5061028c61042d366004612cf7565b610ce5565b34801561043e57600080fd5b5061045f61044d366004612aad565b60036020526000908152604090205481565b604051908152602001610298565b34801561047957600080fd5b5061026a610488366004612cf7565b610db1565b34801561049957600080fd5b5061045f60075481565b3480156104af57600080fd5b5061045f6104be366004612aad565b60086020526000908152604090205481565b61026a6104de366004612d49565b610e37565b3480156104ef57600080fd5b5061045f6104fe366004612e02565b6005602090815260009384526040808520845180860184018051928152908401958401959095209452929052825290205481565b34801561053e57600080fd5b5061026a61054d3660046129f0565b610e4e565b34801561055e57600080fd5b5061026a610f2a565b34801561057357600080fd5b50610587610582366004612aad565b610f3e565b6040516102989190612ebb565b3480156105a057600080fd5b5061045f6105af366004612ece565b600260209081526000928352604080842090915290825290205481565b3480156105d857600080fd5b506000546001600160a01b03165b6040516001600160a01b039091168152602001610298565b34801561060a57600080fd5b5061026a610619366004612f01565b610fd8565b34801561062a57600080fd5b506004546105e6906001600160a01b031681565b34801561064a57600080fd5b5061026a610659366004612ae1565b611224565b34801561066a57600080fd5b50610587610679366004612aad565b6112db565b34801561068a57600080fd5b5061026a610699366004612cf7565b6113f2565b61026a6106ac366004612fbe565b611485565b3480156106bd57600080fd5b506106c6600181565b60405161ffff9091168152602001610298565b3480156106e557600080fd5b506105e67f000000000000000000000000000000000000000000000000000000000000000081565b34801561071957600080fd5b5061026a610728366004613073565b611494565b34801561073957600080fd5b5061045f61271081565b34801561074f57600080fd5b5061026a61075e366004613090565b6114ea565b34801561076f57600080fd5b5061026a61077e366004612ae1565b61157f565b61026a6107913660046129f0565b61162f565b3480156107a257600080fd5b5061026a6107b13660046130fe565b611845565b3480156107c257600080fd5b5061026a6107d1366004612cf7565b6118f7565b3480156107e257600080fd5b506103fd6107f136600461313a565b611951565b34801561080257600080fd5b5061026a610811366004613073565b611a1c565b34801561082257600080fd5b506105876108313660046131b3565b611a92565b34801561084257600080fd5b5061045f610851366004612aad565b60096020526000908152604090205481565b34801561086f57600080fd5b506105e67f000000000000000000000000000000000000000000000000000000000000000081565b337f00000000000000000000000000000000000000000000000000000000000000006001600160a01b0316146109145760405162461bcd60e51b815260206004820152601e60248201527f4c7a4170703a20696e76616c696420656e64706f696e742063616c6c6572000060448201526064015b60405180910390fd5b61ffff86166000908152600160205260408120805461093290613200565b80601f016020809104026020016040519081016040528092919081815260200182805461095e90613200565b80156109ab5780601f10610980576101008083540402835291602001916109ab565b820191906000526020600020905b81548152906001019060200180831161098e57829003601f168201915b505050505090508051868690501480156109c6575060008151115b80156109ee5750805160208201206040516109e4908890889061323b565b6040518091039020145b610a495760405162461bcd60e51b815260206004820152602660248201527f4c7a4170703a20696e76616c696420736f757263652073656e64696e6720636f6044820152651b9d1c9858dd60d21b606482015260840161090b565b610abf8787878080601f01602080910402602001604051908101604052809392919081815260200183838082843760009201919091525050604080516020601f8a018190048102820181019092528881528a935091508890889081908401838280828437600092019190915250611b5f92505050565b50505050505050565b60006001600160e01b03198216630a85bd0160e11b1480610aed5750610aed82611bd8565b92915050565b610afb611c0d565b6040516307e0db1760e01b815261ffff821660048201527f00000000000000000000000000000000000000000000000000000000000000006001600160a01b0316906307e0db17906024015b600060405180830381600087803b158015610b6157600080fd5b505af1158015610b75573d6000803e3d6000fd5b5050505050565b610b84611c0d565b60008111610be05760405162461bcd60e51b8152602060048201526024808201527f6d696e476173546f5472616e73666572416e6453746f7265206d7573742062656044820152630203e20360e41b606482015260840161090b565b60078190556040518181527ffebbc4f8bb9ec2313950c718d43123124b15778efda4c1f1d529de2995b4f34d906020015b60405180910390a150565b610c24611c0d565b61ffff909116600090815260036020526040902055565b610c43611c0d565b6040516310ddb13760e01b815261ffff821660048201527f00000000000000000000000000000000000000000000000000000000000000006001600160a01b0316906310ddb13790602401610b47565b60006001600160a01b0385163014610cad57506000610cb7565b50630a85bd0160e11b5b949350505050565b600080610cd78787610cd088611c67565b8787611951565b915091509550959350505050565b61ffff831660009081526001602052604081208054829190610d0690613200565b80601f0160208091040260200160405190810160405280929190818152602001828054610d3290613200565b8015610d7f5780601f10610d5457610100808354040283529160200191610d7f565b820191906000526020600020905b815481529060010190602001808311610d6257829003601f168201915b505050505090508383604051610d9692919061323b565b60405180910390208180519060200120149150509392505050565b610db9611c0d565b6040516342d65a8d60e01b81526001600160a01b037f000000000000000000000000000000000000000000000000000000000000000016906342d65a8d90610e0990869086908690600401613274565b600060405180830381600087803b158015610e2357600080fd5b505af1158015610abf573d6000803e3d6000fd5b610abf878787610e4688611c67565b878787611cb2565b333014610eac5760405162461bcd60e51b815260206004820152602660248201527f4e6f6e626c6f636b696e674c7a4170703a2063616c6c6572206d7573742062656044820152650204c7a4170760d41b606482015260840161090b565b610f228686868080601f01602080910402602001604051908101604052809392919081815260200183838082843760009201919091525050604080516020601f890181900481028201810190925287815289935091508790879081908401838280828437600092019190915250611e8692505050565b505050505050565b610f32611c0d565b610f3c6000611fdd565b565b60016020526000908152604090208054610f5790613200565b80601f0160208091040260200160405190810160405280929190818152602001828054610f8390613200565b8015610fd05780601f10610fa557610100808354040283529160200191610fd0565b820191906000526020600020905b815481529060010190602001808311610fb357829003601f168201915b505050505081565b610fe061202d565b80516020808301919091206000818152600a90925260409091206002015460ff166110415760405162461bcd60e51b81526020600482015260116024820152701b9bc818dc99591a5d1cc81cdd1bdc9959607a1b604482015260640161090b565b60008280602001905181019061105791906132d7565b6000848152600a6020526040812080546001909101549294509092506110939161ffff8216916201000090046001600160a01b03169085612087565b6000848152600a602052604090206001015490915081116111085760405162461bcd60e51b815260206004820152602960248201527f6e6f7420656e6f7567682067617320746f2070726f6365737320637265646974604482015268103a3930b739b332b960b91b606482015260840161090b565b8151811415611180576000838152600a602052604080822080546001600160b01b031916815560018101929092556002909101805460ff19169055517fd7be02b8dd0d27bd0517a9cb4d7469ce27df4313821ae5ec1ff69acc594ba233906111739085815260200190565b60405180910390a1611214565b604080516080810182526000858152600a6020818152848320805461ffff80821687526001600160a01b03620100008084048216868a019081529989018b8152600160608b01818152998f90529790965297519851169096026001600160b01b03199091169690951695909517939093178455915191830191909155516002909101805491151560ff199092169190911790555b5050506112216001600655565b50565b61122c611c0d565b600081116112875760405162461bcd60e51b815260206004820152602260248201527f647374436861696e4964546f42617463684c696d6974206d757374206265203e604482015261020360f41b606482015260840161090b565b61ffff8216600081815260086020908152604091829020849055815192835282018390527f7315f7654d594ead24a30160ed9ba2d23247f543016b918343591e93d7afdb6d91015b60405180910390a15050565b61ffff81166000908152600160205260408120805460609291906112fe90613200565b80601f016020809104026020016040519081016040528092919081815260200182805461132a90613200565b80156113775780601f1061134c57610100808354040283529160200191611377565b820191906000526020600020905b81548152906001019060200180831161135a57829003601f168201915b505050505090508051600014156113d05760405162461bcd60e51b815260206004820152601d60248201527f4c7a4170703a206e6f20747275737465642070617468207265636f7264000000604482015260640161090b565b6113eb6000601483516113e391906133a7565b8391906120d9565b9392505050565b6113fa611c0d565b81813060405160200161140f939291906133be565b60408051601f1981840301815291815261ffff851660009081526001602090815291902082516114449391929091019061286d565b507f8c0400cfe2d1199b1a725c78960bcc2a344d869b80590d0f2bd005db15a572ce83838360405161147893929190613274565b60405180910390a1505050565b610abf87878787878787611cb2565b61149c611c0d565b600480546001600160a01b0319166001600160a01b0383169081179091556040519081527f5db758e995a17ec1ad84bdef7e8c3293a0bd6179bcce400dff5d4c3d87db726b90602001610c11565b6114f2611c0d565b6040516332fb62e760e21b81526001600160a01b037f0000000000000000000000000000000000000000000000000000000000000000169063cbed8b9c9061154690889088908890889088906004016133e4565b600060405180830381600087803b15801561156057600080fd5b505af1158015611574573d6000803e3d6000fd5b505050505050505050565b611587611c0d565b600081116115e35760405162461bcd60e51b815260206004820152602360248201527f647374436861696e4964546f5472616e73666572476173206d7573742062652060448201526203e20360ec1b606482015260840161090b565b61ffff8216600081815260096020908152604091829020849055815192835282018390527fc46df2983228ac2d9754e94a0d565e6671665dc8ad38602bc8e544f0685a29fb91016112cf565b61ffff86166000908152600560205260408082209051611652908890889061323b565b90815260408051602092819003830190206001600160401b038716600090815292529020549050806116d25760405162461bcd60e51b815260206004820152602360248201527f4e6f6e626c6f636b696e674c7a4170703a206e6f2073746f726564206d65737360448201526261676560e81b606482015260840161090b565b8083836040516116e392919061323b565b6040518091039020146117425760405162461bcd60e51b815260206004820152602160248201527f4e6f6e626c6f636b696e674c7a4170703a20696e76616c6964207061796c6f616044820152601960fa1b606482015260840161090b565b61ffff87166000908152600560205260408082209051611765908990899061323b565b90815260408051602092819003830181206001600160401b038916600090815290845282902093909355601f880182900482028301820190528682526117fd918991899089908190840183828082843760009201919091525050604080516020601f8a018190048102820181019092528881528a935091508890889081908401838280828437600092019190915250611e8692505050565b7fc264d91f3adc5588250e1551f547752ca0cfa8f6b530d243b9f9f4cab10ea8e58787878785604051611834959493929190613412565b60405180910390a150505050505050565b61184d611c0d565b600081116118955760405162461bcd60e51b81526020600482015260156024820152744c7a4170703a20696e76616c6964206d696e47617360581b604482015260640161090b565b61ffff83811660008181526002602090815260408083209487168084529482529182902085905581519283528201929092529081018290527f9d5c7c0b934da8fefa9c7760c98383778a12dfbfc0c3b3106518f43fb9508ac090606001611478565b6118ff611c0d565b61ffff8316600090815260016020526040902061191d9083836128f1565b507ffa41487ad5d6728f0b19276fa1eddc16558578f5109fc39d2dc33c3230470dab83838360405161147893929190613274565b60008060008686604051602001611969929190613488565b60408051601f198184030181529082905263040a7bb160e41b825291506001600160a01b037f000000000000000000000000000000000000000000000000000000000000000016906340a7bb10906119cd908b90309086908b908b906004016134ad565b6040805180830381865afa1580156119e9573d6000803e3d6000fd5b505050506040513d601f19601f82011682018060405250810190611a0d9190613501565b92509250509550959350505050565b611a24611c0d565b6001600160a01b038116611a895760405162461bcd60e51b815260206004820152602660248201527f4f776e61626c653a206e6577206f776e657220697320746865207a65726f206160448201526564647265737360d01b606482015260840161090b565b61122181611fdd565b604051633d7b2f6f60e21b815261ffff808616600483015284166024820152306044820152606481018290526060907f00000000000000000000000000000000000000000000000000000000000000006001600160a01b03169063f5ecbdbc90608401600060405180830381865afa158015611b12573d6000803e3d6000fd5b505050506040513d6000823e601f3d908101601f19168201604052611b3a9190810190613525565b95945050505050565b6000611b4e836121e6565b80156113eb57506113eb8383612219565b600080611bc25a60966366ad5c8a60e01b89898989604051602401611b879493929190613559565b60408051601f198184030181529190526020810180516001600160e01b03166001600160e01b031990931692909217909152309291906122a2565b9150915081610f2257610f22868686868561232c565b60006001600160e01b031982166322bac5d960e01b1480610aed57506301ffc9a760e01b6001600160e01b0319831614610aed565b6000546001600160a01b03163314610f3c5760405162461bcd60e51b815260206004820181905260248201527f4f776e61626c653a2063616c6c6572206973206e6f7420746865206f776e6572604482015260640161090b565b60408051600180825281830190925260609160009190602080830190803683370190505090508281600081518110611ca157611ca1613597565b602090810291909101015292915050565b6000845111611cf95760405162461bcd60e51b8152602060048201526013602482015272746f6b656e4964735b5d20697320656d70747960681b604482015260640161090b565b835160011480611d1d575061ffff8616600090815260086020526040902054845111155b611d745760405162461bcd60e51b815260206004820152602260248201527f62617463682073697a65206578636565647320647374206261746368206c696d6044820152611a5d60f21b606482015260840161090b565b60005b8451811015611db757611da5888888888581518110611d9857611d98613597565b60200260200101516123c9565b80611daf816135ad565b915050611d77565b5060008585604051602001611dcd929190613488565b6040516020818303038152906040529050611e12876001848851600960008d61ffff1661ffff16815260200190815260200160002054611e0d91906135c8565b6124be565b611e2087828686863461259d565b85604051611e2e91906135e7565b6040518091039020886001600160a01b03168861ffff167fe1b87c47fdeb4f9cbadbca9df3af7aba453bb6e501075d0440d88125b711522a88604051611e749190613603565b60405180910390a45050505050505050565b60008082806020019051810190611e9d91906132d7565b601482015191935091506000611eb588838386612087565b90508251811015611f895784516020808701919091206040805160808101825261ffff808d1682526001600160a01b038088168387019081528385018881526001606086018181526000898152600a909a529887902095518654935190941662010000026001600160b01b03199093169390941692909217178355519082015592516002909301805493151560ff199094169390931790925590517f10e0b70d256bccc84b7027506978bd8b68984a870788b93b479def144c839ad790611f7f9083908990613616565b60405180910390a1505b816001600160a01b031687604051611fa191906135e7565b60405180910390208961ffff167f5b821db8a46f8ecbe1941ba2f51cfeea9643268b56631f70d45e2a745d99026586604051611e749190613603565b600080546001600160a01b038381166001600160a01b0319831681178455604051919092169283917f8be0079c531659141344cd1fd0a4f28419497f9722a3daafe3b4186f6b6457e09190a35050565b600260065414156120805760405162461bcd60e51b815260206004820152601f60248201527f5265656e7472616e637947756172643a207265656e7472616e742063616c6c00604482015260640161090b565b6002600655565b6000825b8251811015611b3a576007545a10156120a357611b3a565b6120c786868584815181106120ba576120ba613597565b6020026020010151612743565b806120d1816135ad565b91505061208b565b6060816120e781601f61362f565b10156121265760405162461bcd60e51b815260206004820152600e60248201526d736c6963655f6f766572666c6f7760901b604482015260640161090b565b612130828461362f565b845110156121745760405162461bcd60e51b8152602060048201526011602482015270736c6963655f6f75744f66426f756e647360781b604482015260640161090b565b60608215801561219357604051915060008252602082016040526121dd565b6040519150601f8416801560200281840101858101878315602002848b0101015b818310156121cc5780518352602092830192016121b4565b5050858452601f01601f1916604052505b50949350505050565b60006121f9826301ffc9a760e01b612219565b8015610aed5750612212826001600160e01b0319612219565b1592915050565b604080516001600160e01b03198316602480830191909152825180830390910181526044909101909152602080820180516001600160e01b03166301ffc9a760e01b178152825160009392849283928392918391908a617530fa92503d9150600051905082801561228b575060208210155b80156122975750600081115b979650505050505050565b6000606060008060008661ffff166001600160401b038111156122c7576122c7612b2b565b6040519080825280601f01601f1916602001820160405280156122f1576020820181803683370190505b50905060008087516020890160008d8df191503d925086831115612313578692505b828152826000602083013e909890975095505050505050565b8180519060200120600560008761ffff1661ffff1681526020019081526020016000208560405161235d91906135e7565b9081526040805191829003602090810183206001600160401b0388166000908152915220919091557fe183f33de2837795525b4792ca4cd60535bd77c53b7e7030060bfcf5734d6b0c906123ba9087908790879087908790613647565b60405180910390a15050505050565b6001600160a01b03841633146124305760405162461bcd60e51b815260206004820152602660248201527f50726f78794f4e46543732313a206f776e6572206973206e6f742073656e642060448201526531b0b63632b960d11b606482015260840161090b565b604051632142170760e11b81526001600160a01b038581166004830152306024830152604482018390527f000000000000000000000000000000000000000000000000000000000000000016906342842e0e90606401600060405180830381600087803b1580156124a057600080fd5b505af11580156124b4573d6000803e3d6000fd5b5050505050505050565b60006124c98361279e565b61ffff8087166000908152600260209081526040808320938916835292905290812054919250906124fb90849061362f565b90506000811161254d5760405162461bcd60e51b815260206004820152601a60248201527f4c7a4170703a206d696e4761734c696d6974206e6f7420736574000000000000604482015260640161090b565b80821015610f225760405162461bcd60e51b815260206004820152601b60248201527f4c7a4170703a20676173206c696d697420697320746f6f206c6f770000000000604482015260640161090b565b61ffff8616600090815260016020526040812080546125bb90613200565b80601f01602080910402602001604051908101604052809291908181526020018280546125e790613200565b80156126345780601f1061260957610100808354040283529160200191612634565b820191906000526020600020905b81548152906001019060200180831161261757829003601f168201915b505050505090508051600014156126a65760405162461bcd60e51b815260206004820152603060248201527f4c7a4170703a2064657374696e6174696f6e20636861696e206973206e6f742060448201526f61207472757374656420736f7572636560801b606482015260840161090b565b6126b18787516127fa565b60405162c5803160e81b81526001600160a01b037f0000000000000000000000000000000000000000000000000000000000000000169063c5803100908490612708908b9086908c908c908c908c90600401613699565b6000604051808303818588803b15801561272157600080fd5b505af1158015612735573d6000803e3d6000fd5b505050505050505050505050565b604051632142170760e11b81523060048201526001600160a01b038381166024830152604482018390527f000000000000000000000000000000000000000000000000000000000000000016906342842e0e90606401610e09565b60006022825110156127f25760405162461bcd60e51b815260206004820152601c60248201527f4c7a4170703a20696e76616c69642061646170746572506172616d7300000000604482015260640161090b565b506022015190565b61ffff82166000908152600360205260409020548061281857506127105b808211156128685760405162461bcd60e51b815260206004820181905260248201527f4c7a4170703a207061796c6f61642073697a6520697320746f6f206c61726765604482015260640161090b565b505050565b82805461287990613200565b90600052602060002090601f01602090048101928261289b57600085556128e1565b82601f106128b457805160ff19168380011785556128e1565b828001600101855582156128e1579182015b828111156128e15782518255916020019190600101906128c6565b506128ed929150612965565b5090565b8280546128fd90613200565b90600052602060002090601f01602090048101928261291f57600085556128e1565b82601f106129385782800160ff198235161785556128e1565b828001600101855582156128e1579182015b828111156128e157823582559160200191906001019061294a565b5b808211156128ed5760008155600101612966565b803561ffff8116811461298c57600080fd5b919050565b60008083601f8401126129a357600080fd5b5081356001600160401b038111156129ba57600080fd5b6020830191508360208285010111156129d257600080fd5b9250929050565b80356001600160401b038116811461298c57600080fd5b60008060008060008060808789031215612a0957600080fd5b612a128761297a565b955060208701356001600160401b0380821115612a2e57600080fd5b612a3a8a838b01612991565b9097509550859150612a4e60408a016129d9565b94506060890135915080821115612a6457600080fd5b50612a7189828a01612991565b979a9699509497509295939492505050565b600060208284031215612a9557600080fd5b81356001600160e01b0319811681146113eb57600080fd5b600060208284031215612abf57600080fd5b6113eb8261297a565b600060208284031215612ada57600080fd5b5035919050565b60008060408385031215612af457600080fd5b612afd8361297a565b946020939093013593505050565b6001600160a01b038116811461122157600080fd5b803561298c81612b0b565b634e487b7160e01b600052604160045260246000fd5b604051601f8201601f191681016001600160401b0381118282101715612b6957612b69612b2b565b604052919050565b60006001600160401b03821115612b8a57612b8a612b2b565b50601f01601f191660200190565b600082601f830112612ba957600080fd5b8135612bbc612bb782612b71565b612b41565b818152846020838601011115612bd157600080fd5b816020850160208301376000918101602001919091529392505050565b60008060008060808587031215612c0457600080fd5b8435612c0f81612b0b565b93506020850135612c1f81612b0b565b92506040850135915060608501356001600160401b03811115612c4157600080fd5b612c4d87828801612b98565b91505092959194509250565b8035801515811461298c57600080fd5b600080600080600060a08688031215612c8157600080fd5b612c8a8661297a565b945060208601356001600160401b0380821115612ca657600080fd5b612cb289838a01612b98565b955060408801359450612cc760608901612c59565b93506080880135915080821115612cdd57600080fd5b50612cea88828901612b98565b9150509295509295909350565b600080600060408486031215612d0c57600080fd5b612d158461297a565b925060208401356001600160401b03811115612d3057600080fd5b612d3c86828701612991565b9497909650939450505050565b600080600080600080600060e0888a031215612d6457600080fd5b8735612d6f81612b0b565b9650612d7d6020890161297a565b955060408801356001600160401b0380821115612d9957600080fd5b612da58b838c01612b98565b965060608a0135955060808a01359150612dbe82612b0b565b90935060a089013590612dd082612b0b565b90925060c08901359080821115612de657600080fd5b50612df38a828b01612b98565b91505092959891949750929550565b600080600060608486031215612e1757600080fd5b612e208461297a565b925060208401356001600160401b03811115612e3b57600080fd5b612e4786828701612b98565b925050612e56604085016129d9565b90509250925092565b60005b83811015612e7a578181015183820152602001612e62565b83811115612e89576000848401525b50505050565b60008151808452612ea7816020860160208601612e5f565b601f01601f19169290920160200192915050565b6020815260006113eb6020830184612e8f565b60008060408385031215612ee157600080fd5b612eea8361297a565b9150612ef86020840161297a565b90509250929050565b600060208284031215612f1357600080fd5b81356001600160401b03811115612f2957600080fd5b610cb784828501612b98565b60006001600160401b03821115612f4e57612f4e612b2b565b5060051b60200190565b600082601f830112612f6957600080fd5b81356020612f79612bb783612f35565b82815260059290921b84018101918181019086841115612f9857600080fd5b8286015b84811015612fb35780358352918301918301612f9c565b509695505050505050565b600080600080600080600060e0888a031215612fd957600080fd5b8735612fe481612b0b565b9650612ff26020890161297a565b955060408801356001600160401b038082111561300e57600080fd5b61301a8b838c01612b98565b965060608a013591508082111561303057600080fd5b61303c8b838c01612f58565b955060808a0135915061304e82612b0b565b81945061305d60a08b01612b20565b935060c08a0135915080821115612de657600080fd5b60006020828403121561308557600080fd5b81356113eb81612b0b565b6000806000806000608086880312156130a857600080fd5b6130b18661297a565b94506130bf6020870161297a565b93506040860135925060608601356001600160401b038111156130e157600080fd5b6130ed88828901612991565b969995985093965092949392505050565b60008060006060848603121561311357600080fd5b61311c8461297a565b925061312a6020850161297a565b9150604084013590509250925092565b600080600080600060a0868803121561315257600080fd5b61315b8661297a565b945060208601356001600160401b038082111561317757600080fd5b61318389838a01612b98565b9550604088013591508082111561319957600080fd5b6131a589838a01612f58565b9450612cc760608901612c59565b600080600080608085870312156131c957600080fd5b6131d28561297a565b93506131e06020860161297a565b925060408501356131f081612b0b565b9396929550929360600135925050565b600181811c9082168061321457607f821691505b6020821081141561323557634e487b7160e01b600052602260045260246000fd5b50919050565b8183823760009101908152919050565b81835281816020850137506000828201602090810191909152601f909101601f19169091010190565b61ffff84168152604060208201526000611b3a60408301848661324b565b600082601f8301126132a357600080fd5b81516132b1612bb782612b71565b8181528460208386010111156132c657600080fd5b610cb7826020830160208701612e5f565b600080604083850312156132ea57600080fd5b82516001600160401b038082111561330157600080fd5b61330d86838701613292565b935060209150818501518181111561332457600080fd5b85019050601f8101861361333757600080fd5b8051613345612bb782612f35565b81815260059190911b8201830190838101908883111561336457600080fd5b928401925b8284101561338257835182529284019290840190613369565b80955050505050509250929050565b634e487b7160e01b600052601160045260246000fd5b6000828210156133b9576133b9613391565b500390565b8284823760609190911b6bffffffffffffffffffffffff19169101908152601401919050565b600061ffff80881683528087166020840152508460408301526080606083015261229760808301848661324b565b61ffff8616815260806020820152600061343060808301868861324b565b6001600160401b0394909416604083015250606001529392505050565b600081518084526020808501945080840160005b8381101561347d57815187529582019590820190600101613461565b509495945050505050565b60408152600061349b6040830185612e8f565b8281036020840152611b3a818561344d565b61ffff861681526001600160a01b038516602082015260a0604082018190526000906134db90830186612e8f565b841515606084015282810360808401526134f58185612e8f565b98975050505050505050565b6000806040838503121561351457600080fd5b505080516020909101519092909150565b60006020828403121561353757600080fd5b81516001600160401b0381111561354d57600080fd5b610cb784828501613292565b61ffff851681526080602082015260006135766080830186612e8f565b6001600160401b038516604084015282810360608401526122978185612e8f565b634e487b7160e01b600052603260045260246000fd5b60006000198214156135c1576135c1613391565b5060010190565b60008160001904831182151516156135e2576135e2613391565b500290565b600082516135f9818460208701612e5f565b9190910192915050565b6020815260006113eb602083018461344d565b828152604060208201526000610cb76040830184612e8f565b6000821982111561364257613642613391565b500190565b61ffff8616815260a06020820152600061366460a0830187612e8f565b6001600160401b038616604084015282810360608401526136858186612e8f565b905082810360808401526134f58185612e8f565b61ffff8716815260c0602082015260006136b660c0830188612e8f565b82810360408401526136c88188612e8f565b6001600160a01b0387811660608601528616608085015283810360a085015290506136f38185612e8f565b999850505050505050505056fea2646970667358221220b6be465b7359d377caf5d30354ee44051396dd00d49c2b7204848a620febea4864736f6c634300080c0033",
  "linkReferences": {},
  "deployedLinkReferences": {}
}