{
  "_format": "hh-sol-artifact-1",
  "contractName": "ProxyOFTV2",
  "sourceName": "contracts/token/oft/v2/ProxyOFTV2.sol",
  "abi": [
    {
      "inputs": [
        {
          "internalType": "address",
          "name": "_token",
          "type": "address"
        },
        {
          "internalType": "uint8",
          "name": "_sharedDecimals",
          "type": "uint8"
        },
        {
          "internalType": "address",
          "name": "_lzEndpoint",
          "type": "address"
        }
      ],
      "stateMutability": "nonpayable",
      "type": "constructor"
    },
    {
      "anonymous": false,
      "inputs": [
        {
          "indexed": true,
          "internalType": "uint16",
          "name": "_srcChainId",
          "type": "uint16"
        },
        {
          "indexed": false,
          "internalType": "bytes",
          "name": "_srcAddress",
          "type": "bytes"
        },
        {
          "indexed": false,
          "internalType": "uint64",
          "name": "_nonce",
          "type": "uint64"
        },
        {
          "indexed": false,
          "internalType": "bytes32",
          "name": "_hash",
          "type": "bytes32"
        }
      ],
      "name": "CallOFTReceivedSuccess",
      "type": "event"
    },
    {
      "anonymous": false,
      "inputs": [
        {
          "indexed": false,
          "internalType": "uint16",
          "name": "_srcChainId",
          "type": "uint16"
        },
        {
          "indexed": false,
          "internalType": "bytes",
          "name": "_srcAddress",
          "type": "bytes"
        },
        {
          "indexed": false,
          "internalType": "uint64",
          "name": "_nonce",
          "type": "uint64"
        },
        {
          "indexed": false,
          "internalType": "bytes",
          "name": "_payload",
          "type": "bytes"
        },
        {
          "indexed": false,
          "internalType": "bytes",
          "name": "_reason",
          "type": "bytes"
        }
      ],
      "name": "MessageFailed",
      "type": "event"
    },
    {
      "anonymous": false,
      "inputs": [
        {
          "indexed": false,
          "internalType": "address",
          "name": "_address",
          "type": "address"
        }
      ],
      "name": "NonContractAddress",
      "type": "event"
    },
    {
      "anonymous": false,
      "inputs": [
        {
          "indexed": true,
          "internalType": "address",
          "name": "previousOwner",
          "type": "address"
        },
        {
          "indexed": true,
          "internalType": "address",
          "name": "newOwner",
          "type": "address"
        }
      ],
      "name": "OwnershipTransferred",
      "type": "event"
    },
    {
      "anonymous": false,
      "inputs": [
        {
          "indexed": true,
          "internalType": "uint16",
          "name": "_srcChainId",
          "type": "uint16"
        },
        {
          "indexed": true,
          "internalType": "address",
          "name": "_to",
          "type": "address"
        },
        {
          "indexed": false,
          "internalType": "uint256",
          "name": "_amount",
          "type": "uint256"
        }
      ],
      "name": "ReceiveFromChain",
      "type": "event"
    },
    {
      "anonymous": false,
      "inputs": [
        {
          "indexed": false,
          "internalType": "uint16",
          "name": "_srcChainId",
          "type": "uint16"
        },
        {
          "indexed": false,
          "internalType": "bytes",
          "name": "_srcAddress",
          "type": "bytes"
        },
        {
          "indexed": false,
          "internalType": "uint64",
          "name": "_nonce",
          "type": "uint64"
        },
        {
          "indexed": false,
          "internalType": "bytes32",
          "name": "_payloadHash",
          "type": "bytes32"
        }
      ],
      "name": "RetryMessageSuccess",
      "type": "event"
    },
    {
      "anonymous": false,
      "inputs": [
        {
          "indexed": true,
          "internalType": "uint16",
          "name": "_dstChainId",
          "type": "uint16"
        },
        {
          "indexed": true,
          "internalType": "address",
          "name": "_from",
          "type": "address"
        },
        {
          "indexed": true,
          "internalType": "bytes32",
          "name": "_toAddress",
          "type": "bytes32"
        },
        {
          "indexed": false,
          "internalType": "uint256",
          "name": "_amount",
          "type": "uint256"
        }
      ],
      "name": "SendToChain",
      "type": "event"
    },
    {
      "anonymous": false,
      "inputs": [
        {
          "indexed": false,
          "internalType": "uint16",
          "name": "_dstChainId",
          "type": "uint16"
        },
        {
          "indexed": false,
          "internalType": "uint16",
          "name": "_type",
          "type": "uint16"
        },
        {
          "indexed": false,
          "internalType": "uint256",
          "name": "_minDstGas",
          "type": "uint256"
        }
      ],
      "name": "SetMinDstGas",
      "type": "event"
    },
    {
      "anonymous": false,
      "inputs": [
        {
          "indexed": false,
          "internalType": "address",
          "name": "precrime",
          "type": "address"
        }
      ],
      "name": "SetPrecrime",
      "type": "event"
    },
    {
      "anonymous": false,
      "inputs": [
        {
          "indexed": false,
          "internalType": "uint16",
          "name": "_remoteChainId",
          "type": "uint16"
        },
        {
          "indexed": false,
          "internalType": "bytes",
          "name": "_path",
          "type": "bytes"
        }
      ],
      "name": "SetTrustedRemote",
      "type": "event"
    },
    {
      "anonymous": false,
      "inputs": [
        {
          "indexed": false,
          "internalType": "uint16",
          "name": "_remoteChainId",
          "type": "uint16"
        },
        {
          "indexed": false,
          "internalType": "bytes",
          "name": "_remoteAddress",
          "type": "bytes"
        }
      ],
      "name": "SetTrustedRemoteAddress",
      "type": "event"
    },
    {
      "anonymous": false,
      "inputs": [
        {
          "indexed": false,
          "internalType": "bool",
          "name": "_useCustomAdapterParams",
          "type": "bool"
        }
      ],
      "name": "SetUseCustomAdapterParams",
      "type": "event"
    },
    {
      "inputs": [],
      "name": "DEFAULT_PAYLOAD_SIZE_LIMIT",
      "outputs": [
        {
          "internalType": "uint256",
          "name": "",
          "type": "uint256"
        }
      ],
      "stateMutability": "view",
      "type": "function"
    },
    {
      "inputs": [],
      "name": "NO_EXTRA_GAS",
      "outputs": [
        {
          "internalType": "uint256",
          "name": "",
          "type": "uint256"
        }
      ],
      "stateMutability": "view",
      "type": "function"
    },
    {
      "inputs": [],
      "name": "PT_SEND",
      "outputs": [
        {
          "internalType": "uint8",
          "name": "",
          "type": "uint8"
        }
      ],
      "stateMutability": "view",
      "type": "function"
    },
    {
      "inputs": [],
      "name": "PT_SEND_AND_CALL",
      "outputs": [
        {
          "internalType": "uint8",
          "name": "",
          "type": "uint8"
        }
      ],
      "stateMutability": "view",
      "type": "function"
    },
    {
      "inputs": [
        {
          "internalType": "uint16",
          "name": "_srcChainId",
          "type": "uint16"
        },
        {
          "internalType": "bytes",
          "name": "_srcAddress",
          "type": "bytes"
        },
        {
          "internalType": "uint64",
          "name": "_nonce",
          "type": "uint64"
        },
        {
          "internalType": "bytes32",
          "name": "_from",
          "type": "bytes32"
        },
        {
          "internalType": "address",
          "name": "_to",
          "type": "address"
        },
        {
          "internalType": "uint256",
          "name": "_amount",
          "type": "uint256"
        },
        {
          "internalType": "bytes",
          "name": "_payload",
          "type": "bytes"
        },
        {
          "internalType": "uint256",
          "name": "_gasForCall",
          "type": "uint256"
        }
      ],
      "name": "callOnOFTReceived",
      "outputs": [],
      "stateMutability": "nonpayable",
      "type": "function"
    },
    {
      "inputs": [],
      "name": "circulatingSupply",
      "outputs": [
        {
          "internalType": "uint256",
          "name": "",
          "type": "uint256"
        }
      ],
      "stateMutability": "view",
      "type": "function"
    },
    {
      "inputs": [
        {
          "internalType": "uint16",
          "name": "",
          "type": "uint16"
        },
        {
          "internalType": "bytes",
          "name": "",
          "type": "bytes"
        },
        {
          "internalType": "uint64",
          "name": "",
          "type": "uint64"
        }
      ],
      "name": "creditedPackets",
      "outputs": [
        {
          "internalType": "bool",
          "name": "",
          "type": "bool"
        }
      ],
      "stateMutability": "view",
      "type": "function"
    },
    {
      "inputs": [
        {
          "internalType": "uint16",
          "name": "_dstChainId",
          "type": "uint16"
        },
        {
          "internalType": "bytes32",
          "name": "_toAddress",
          "type": "bytes32"
        },
        {
          "internalType": "uint256",
          "name": "_amount",
          "type": "uint256"
        },
        {
          "internalType": "bytes",
          "name": "_payload",
          "type": "bytes"
        },
        {
          "internalType": "uint64",
          "name": "_dstGasForCall",
          "type": "uint64"
        },
        {
          "internalType": "bool",
          "name": "_useZro",
          "type": "bool"
        },
        {
          "internalType": "bytes",
          "name": "_adapterParams",
          "type": "bytes"
        }
      ],
      "name": "estimateSendAndCallFee",
      "outputs": [
        {
          "internalType": "uint256",
          "name": "nativeFee",
          "type": "uint256"
        },
        {
          "internalType": "uint256",
          "name": "zroFee",
          "type": "uint256"
        }
      ],
      "stateMutability": "view",
      "type": "function"
    },
    {
      "inputs": [
        {
          "internalType": "uint16",
          "name": "_dstChainId",
          "type": "uint16"
        },
        {
          "internalType": "bytes32",
          "name": "_toAddress",
          "type": "bytes32"
        },
        {
          "internalType": "uint256",
          "name": "_amount",
          "type": "uint256"
        },
        {
          "internalType": "bool",
          "name": "_useZro",
          "type": "bool"
        },
        {
          "internalType": "bytes",
          "name": "_adapterParams",
          "type": "bytes"
        }
      ],
      "name": "estimateSendFee",
      "outputs": [
        {
          "internalType": "uint256",
          "name": "nativeFee",
          "type": "uint256"
        },
        {
          "internalType": "uint256",
          "name": "zroFee",
          "type": "uint256"
        }
      ],
      "stateMutability": "view",
      "type": "function"
    },
    {
      "inputs": [
        {
          "internalType": "uint16",
          "name": "",
          "type": "uint16"
        },
        {
          "internalType": "bytes",
          "name": "",
          "type": "bytes"
        },
        {
          "internalType": "uint64",
          "name": "",
          "type": "uint64"
        }
      ],
      "name": "failedMessages",
      "outputs": [
        {
          "internalType": "bytes32",
          "name": "",
          "type": "bytes32"
        }
      ],
      "stateMutability": "view",
      "type": "function"
    },
    {
      "inputs": [
        {
          "internalType": "uint16",
          "name": "_srcChainId",
          "type": "uint16"
        },
        {
          "internalType": "bytes",
          "name": "_srcAddress",
          "type": "bytes"
        }
      ],
      "name": "forceResumeReceive",
      "outputs": [],
      "stateMutability": "nonpayable",
      "type": "function"
    },
    {
      "inputs": [
        {
          "internalType": "uint16",
          "name": "_version",
          "type": "uint16"
        },
        {
          "internalType": "uint16",
          "name": "_chainId",
          "type": "uint16"
        },
        {
          "internalType": "address",
          "name": "",
          "type": "address"
        },
        {
          "internalType": "uint256",
          "name": "_configType",
          "type": "uint256"
        }
      ],
      "name": "getConfig",
      "outputs": [
        {
          "internalType": "bytes",
          "name": "",
          "type": "bytes"
        }
      ],
      "stateMutability": "view",
      "type": "function"
    },
    {
      "inputs": [
        {
          "internalType": "uint16",
          "name": "_remoteChainId",
          "type": "uint16"
        }
      ],
      "name": "getTrustedRemoteAddress",
      "outputs": [
        {
          "internalType": "bytes",
          "name": "",
          "type": "bytes"
        }
      ],
      "stateMutability": "view",
      "type": "function"
    },
    {
      "inputs": [
        {
          "internalType": "uint16",
          "name": "_srcChainId",
          "type": "uint16"
        },
        {
          "internalType": "bytes",
          "name": "_srcAddress",
          "type": "bytes"
        }
      ],
      "name": "isTrustedRemote",
      "outputs": [
        {
          "internalType": "bool",
          "name": "",
          "type": "bool"
        }
      ],
      "stateMutability": "view",
      "type": "function"
    },
    {
      "inputs": [],
      "name": "lzEndpoint",
      "outputs": [
        {
          "internalType": "contract ILayerZeroEndpoint",
          "name": "",
          "type": "address"
        }
      ],
      "stateMutability": "view",
      "type": "function"
    },
    {
      "inputs": [
        {
          "internalType": "uint16",
          "name": "_srcChainId",
          "type": "uint16"
        },
        {
          "internalType": "bytes",
          "name": "_srcAddress",
          "type": "bytes"
        },
        {
          "internalType": "uint64",
          "name": "_nonce",
          "type": "uint64"
        },
        {
          "internalType": "bytes",
          "name": "_payload",
          "type": "bytes"
        }
      ],
      "name": "lzReceive",
      "outputs": [],
      "stateMutability": "nonpayable",
      "type": "function"
    },
    {
      "inputs": [
        {
          "internalType": "uint16",
          "name": "",
          "type": "uint16"
        },
        {
          "internalType": "uint16",
          "name": "",
          "type": "uint16"
        }
      ],
      "name": "minDstGasLookup",
      "outputs": [
        {
          "internalType": "uint256",
          "name": "",
          "type": "uint256"
        }
      ],
      "stateMutability": "view",
      "type": "function"
    },
    {
      "inputs": [
        {
          "internalType": "uint16",
          "name": "_srcChainId",
          "type": "uint16"
        },
        {
          "internalType": "bytes",
          "name": "_srcAddress",
          "type": "bytes"
        },
        {
          "internalType": "uint64",
          "name": "_nonce",
          "type": "uint64"
        },
        {
          "internalType": "bytes",
          "name": "_payload",
          "type": "bytes"
        }
      ],
      "name": "nonblockingLzReceive",
      "outputs": [],
      "stateMutability": "nonpayable",
      "type": "function"
    },
    {
      "inputs": [],
      "name": "outboundAmount",
      "outputs": [
        {
          "internalType": "uint256",
          "name": "",
          "type": "uint256"
        }
      ],
      "stateMutability": "view",
      "type": "function"
    },
    {
      "inputs": [],
      "name": "owner",
      "outputs": [
        {
          "internalType": "address",
          "name": "",
          "type": "address"
        }
      ],
      "stateMutability": "view",
      "type": "function"
    },
    {
      "inputs": [
        {
          "internalType": "uint16",
          "name": "",
          "type": "uint16"
        }
      ],
      "name": "payloadSizeLimitLookup",
      "outputs": [
        {
          "internalType": "uint256",
          "name": "",
          "type": "uint256"
        }
      ],
      "stateMutability": "view",
      "type": "function"
    },
    {
      "inputs": [],
      "name": "precrime",
      "outputs": [
        {
          "internalType": "address",
          "name": "",
          "type": "address"
        }
      ],
      "stateMutability": "view",
      "type": "function"
    },
    {
      "inputs": [],
      "name": "renounceOwnership",
      "outputs": [],
      "stateMutability": "nonpayable",
      "type": "function"
    },
    {
      "inputs": [
        {
          "internalType": "uint16",
          "name": "_srcChainId",
          "type": "uint16"
        },
        {
          "internalType": "bytes",
          "name": "_srcAddress",
          "type": "bytes"
        },
        {
          "internalType": "uint64",
          "name": "_nonce",
          "type": "uint64"
        },
        {
          "internalType": "bytes",
          "name": "_payload",
          "type": "bytes"
        }
      ],
      "name": "retryMessage",
      "outputs": [],
      "stateMutability": "payable",
      "type": "function"
    },
    {
      "inputs": [
        {
          "internalType": "address",
          "name": "_from",
          "type": "address"
        },
        {
          "internalType": "uint16",
          "name": "_dstChainId",
          "type": "uint16"
        },
        {
          "internalType": "bytes32",
          "name": "_toAddress",
          "type": "bytes32"
        },
        {
          "internalType": "uint256",
          "name": "_amount",
          "type": "uint256"
        },
        {
          "internalType": "bytes",
          "name": "_payload",
          "type": "bytes"
        },
        {
          "internalType": "uint64",
          "name": "_dstGasForCall",
          "type": "uint64"
        },
        {
          "components": [
            {
              "internalType": "address payable",
              "name": "refundAddress",
              "type": "address"
            },
            {
              "internalType": "address",
              "name": "zroPaymentAddress",
              "type": "address"
            },
            {
              "internalType": "bytes",
              "name": "adapterParams",
              "type": "bytes"
            }
          ],
          "internalType": "struct ICommonOFT.LzCallParams",
          "name": "_callParams",
          "type": "tuple"
        }
      ],
      "name": "sendAndCall",
      "outputs": [],
      "stateMutability": "payable",
      "type": "function"
    },
    {
      "inputs": [
        {
          "internalType": "address",
          "name": "_from",
          "type": "address"
        },
        {
          "internalType": "uint16",
          "name": "_dstChainId",
          "type": "uint16"
        },
        {
          "internalType": "bytes32",
          "name": "_toAddress",
          "type": "bytes32"
        },
        {
          "internalType": "uint256",
          "name": "_amount",
          "type": "uint256"
        },
        {
          "components": [
            {
              "internalType": "address payable",
              "name": "refundAddress",
              "type": "address"
            },
            {
              "internalType": "address",
              "name": "zroPaymentAddress",
              "type": "address"
            },
            {
              "internalType": "bytes",
              "name": "adapterParams",
              "type": "bytes"
            }
          ],
          "internalType": "struct ICommonOFT.LzCallParams",
          "name": "_callParams",
          "type": "tuple"
        }
      ],
      "name": "sendFrom",
      "outputs": [],
      "stateMutability": "payable",
      "type": "function"
    },
    {
      "inputs": [
        {
          "internalType": "uint16",
          "name": "_version",
          "type": "uint16"
        },
        {
          "internalType": "uint16",
          "name": "_chainId",
          "type": "uint16"
        },
        {
          "internalType": "uint256",
          "name": "_configType",
          "type": "uint256"
        },
        {
          "internalType": "bytes",
          "name": "_config",
          "type": "bytes"
        }
      ],
      "name": "setConfig",
      "outputs": [],
      "stateMutability": "nonpayable",
      "type": "function"
    },
    {
      "inputs": [
        {
          "internalType": "uint16",
          "name": "_dstChainId",
          "type": "uint16"
        },
        {
          "internalType": "uint16",
          "name": "_packetType",
          "type": "uint16"
        },
        {
          "internalType": "uint256",
          "name": "_minGas",
          "type": "uint256"
        }
      ],
      "name": "setMinDstGas",
      "outputs": [],
      "stateMutability": "nonpayable",
      "type": "function"
    },
    {
      "inputs": [
        {
          "internalType": "uint16",
          "name": "_dstChainId",
          "type": "uint16"
        },
        {
          "internalType": "uint256",
          "name": "_size",
          "type": "uint256"
        }
      ],
      "name": "setPayloadSizeLimit",
      "outputs": [],
      "stateMutability": "nonpayable",
      "type": "function"
    },
    {
      "inputs": [
        {
          "internalType": "address",
          "name": "_precrime",
          "type": "address"
        }
      ],
      "name": "setPrecrime",
      "outputs": [],
      "stateMutability": "nonpayable",
      "type": "function"
    },
    {
      "inputs": [
        {
          "internalType": "uint16",
          "name": "_version",
          "type": "uint16"
        }
      ],
      "name": "setReceiveVersion",
      "outputs": [],
      "stateMutability": "nonpayable",
      "type": "function"
    },
    {
      "inputs": [
        {
          "internalType": "uint16",
          "name": "_version",
          "type": "uint16"
        }
      ],
      "name": "setSendVersion",
      "outputs": [],
      "stateMutability": "nonpayable",
      "type": "function"
    },
    {
      "inputs": [
        {
          "internalType": "uint16",
          "name": "_remoteChainId",
          "type": "uint16"
        },
        {
          "internalType": "bytes",
          "name": "_path",
          "type": "bytes"
        }
      ],
      "name": "setTrustedRemote",
      "outputs": [],
      "stateMutability": "nonpayable",
      "type": "function"
    },
    {
      "inputs": [
        {
          "internalType": "uint16",
          "name": "_remoteChainId",
          "type": "uint16"
        },
        {
          "internalType": "bytes",
          "name": "_remoteAddress",
          "type": "bytes"
        }
      ],
      "name": "setTrustedRemoteAddress",
      "outputs": [],
      "stateMutability": "nonpayable",
      "type": "function"
    },
    {
      "inputs": [
        {
          "internalType": "bool",
          "name": "_useCustomAdapterParams",
          "type": "bool"
        }
      ],
      "name": "setUseCustomAdapterParams",
      "outputs": [],
      "stateMutability": "nonpayable",
      "type": "function"
    },
    {
      "inputs": [],
      "name": "sharedDecimals",
      "outputs": [
        {
          "internalType": "uint8",
          "name": "",
          "type": "uint8"
        }
      ],
      "stateMutability": "view",
      "type": "function"
    },
    {
      "inputs": [
        {
          "internalType": "bytes4",
          "name": "interfaceId",
          "type": "bytes4"
        }
      ],
      "name": "supportsInterface",
      "outputs": [
        {
          "internalType": "bool",
          "name": "",
          "type": "bool"
        }
      ],
      "stateMutability": "view",
      "type": "function"
    },
    {
      "inputs": [],
      "name": "token",
      "outputs": [
        {
          "internalType": "address",
          "name": "",
          "type": "address"
        }
      ],
      "stateMutability": "view",
      "type": "function"
    },
    {
      "inputs": [
        {
          "internalType": "address",
          "name": "newOwner",
          "type": "address"
        }
      ],
      "name": "transferOwnership",
      "outputs": [],
      "stateMutability": "nonpayable",
      "type": "function"
    },
    {
      "inputs": [
        {
          "internalType": "uint16",
          "name": "",
          "type": "uint16"
        }
      ],
      "name": "trustedRemoteLookup",
      "outputs": [
        {
          "internalType": "bytes",
          "name": "",
          "type": "bytes"
        }
      ],
      "stateMutability": "view",
      "type": "function"
    },
    {
      "inputs": [],
      "name": "useCustomAdapterParams",
      "outputs": [
        {
          "internalType": "bool",
          "name": "",
          "type": "bool"
        }
      ],
      "stateMutability": "view",
      "type": "function"
    }
  ],
  "bytecode": "0x6101006040523480156200001257600080fd5b50604051620044bf380380620044bf83398101604081905262000035916200027a565b8181818180806200004633620001fb565b6001600160a01b0390811660805260ff90931660a0525050851660c081905260408051600481526024810182526020810180516001600160e01b031663313ce56760e01b179052905160009450849350620000a29190620002c4565b600060405180830381855afa9150503d8060008114620000df576040519150601f19603f3d011682016040523d82523d6000602084013e620000e4565b606091505b5091509150816200014b5760405162461bcd60e51b815260206004820152602660248201527f50726f78794f46543a206661696c656420746f2067657420746f6b656e20646560448201526563696d616c7360d01b60648201526084015b60405180910390fd5b60008180602001905181019062000163919062000302565b90508060ff168560ff161115620001d25760405162461bcd60e51b815260206004820152602c60248201527f50726f78794f46543a20736861726564446563696d616c73206d75737420626560448201526b203c3d20646563696d616c7360a01b606482015260840162000142565b620001de85826200033d565b620001eb90600a62000462565b60e0525062000473945050505050565b600080546001600160a01b038381166001600160a01b0319831681178455604051919092169283917f8be0079c531659141344cd1fd0a4f28419497f9722a3daafe3b4186f6b6457e09190a35050565b80516001600160a01b03811681146200026357600080fd5b919050565b805160ff811681146200026357600080fd5b6000806000606084860312156200029057600080fd5b6200029b846200024b565b9250620002ab6020850162000268565b9150620002bb604085016200024b565b90509250925092565b6000825160005b81811015620002e75760208186018101518583015201620002cb565b81811115620002f7576000828501525b509190910192915050565b6000602082840312156200031557600080fd5b620003208262000268565b9392505050565b634e487b7160e01b600052601160045260246000fd5b600060ff821660ff8416808210156200035a576200035a62000327565b90039392505050565b600181815b80851115620003a457816000190482111562000388576200038862000327565b808516156200039657918102915b93841c939080029062000368565b509250929050565b600082620003bd575060016200045c565b81620003cc575060006200045c565b8160018114620003e55760028114620003f05762000410565b60019150506200045c565b60ff84111562000404576200040462000327565b50506001821b6200045c565b5060208310610133831016604e8410600b841016171562000435575081810a6200045c565b62000441838362000363565b806000190482111562000458576200045862000327565b0290505b92915050565b60006200032060ff841683620003ac565b60805160a05160c05160e051613f9b62000524600039600081816122610152818161265c0152612af80152600081816107fa01528181610fd901528181611fa50152818161203001528181612069015281816120b2015261272a015260006104d60152600081816106710152818161082101528181610aa701528181610b4f01528181610cc701528181611316015281816118b501528181611a7201528181611ef3015261290f0152613f9b6000f3fe6080604052600436106102455760003560e01c80639358928b11610139578063cbed8b9c116100b6578063eaffd49a1161007a578063eaffd49a14610751578063eb8d72b714610771578063ed629c5c14610791578063f2fde38b146107ab578063f5ecbdbc146107cb578063fc0c546a146107eb57600080fd5b8063cbed8b9c146106c9578063d1deba1f146106e9578063df2a5b3b146106fc578063e6a20ae61461071c578063eab45d9c1461073157600080fd5b8063a4c51df5116100fd578063a4c51df51461061f578063a6c3d1651461063f578063b353aaa71461065f578063baf3292d14610693578063c4461834146106b357600080fd5b80639358928b14610562578063950c8a74146105775780639689cb05146105975780639bdb9812146105ad5780639f38369a146105ff57600080fd5b80634c42899a116101c75780637533d7881161018b5780637533d7881461048457806376203b48146104b1578063857749b0146104c45780638cfd8f5c146104f85780638da5cb5b1461053057600080fd5b80634c42899a146103c65780635b8c41e6146103ed57806366ad5c8a1461043c578063695ef6bf1461045c578063715018a61461046f57600080fd5b8063365260b41161020e578063365260b4146103015780633d8b38f6146103365780633f1f4fa41461035657806342d65a8d1461039157806344770515146103b157600080fd5b80621d35671461024a57806301ffc9a71461026c57806307e0db17146102a15780630df37483146102c157806310ddb137146102e1575b600080fd5b34801561025657600080fd5b5061026a61026536600461325a565b61081e565b005b34801561027857600080fd5b5061028c6102873660046132ed565b610a4f565b60405190151581526020015b60405180910390f35b3480156102ad57600080fd5b5061026a6102bc366004613317565b610a86565b3480156102cd57600080fd5b5061026a6102dc366004613332565b610b0f565b3480156102ed57600080fd5b5061026a6102fc366004613317565b610b2e565b34801561030d57600080fd5b5061032161031c36600461336a565b610b86565b60408051928352602083019190915201610298565b34801561034257600080fd5b5061028c6103513660046133d1565b610bdb565b34801561036257600080fd5b50610383610371366004613317565b60036020526000908152604090205481565b604051908152602001610298565b34801561039d57600080fd5b5061026a6103ac3660046133d1565b610ca8565b3480156103bd57600080fd5b50610383600081565b3480156103d257600080fd5b506103db600081565b60405160ff9091168152602001610298565b3480156103f957600080fd5b50610383610408366004613490565b6005602090815260009384526040808520845180860184018051928152908401958401959095209452929052825290205481565b34801561044857600080fd5b5061026a61045736600461325a565b610d2e565b61026a61046a36600461355d565b610e0a565b34801561047b57600080fd5b5061026a610e75565b34801561049057600080fd5b506104a461049f366004613317565b610e89565b6040516102989190613628565b61026a6104bf36600461363b565b610f23565b3480156104d057600080fd5b506103db7f000000000000000000000000000000000000000000000000000000000000000081565b34801561050457600080fd5b506103836105133660046136ed565b600260209081526000928352604080842090915290825290205481565b34801561053c57600080fd5b506000546001600160a01b03165b6040516001600160a01b039091168152602001610298565b34801561056e57600080fd5b50610383610fd2565b34801561058357600080fd5b5060045461054a906001600160a01b031681565b3480156105a357600080fd5b5061038360085481565b3480156105b957600080fd5b5061028c6105c8366004613490565b6007602090815260009384526040808520845180860184018051928152908401958401959095209452929052825290205460ff1681565b34801561060b57600080fd5b506104a461061a366004613317565b611068565b34801561062b57600080fd5b5061032161063a366004613720565b611178565b34801561064b57600080fd5b5061026a61065a3660046133d1565b611207565b34801561066b57600080fd5b5061054a7f000000000000000000000000000000000000000000000000000000000000000081565b34801561069f57600080fd5b5061026a6106ae3660046137dd565b61129a565b3480156106bf57600080fd5b5061038361271081565b3480156106d557600080fd5b5061026a6106e43660046137fa565b6112f7565b61026a6106f736600461325a565b611381565b34801561070857600080fd5b5061026a610717366004613868565b611597565b34801561072857600080fd5b506103db600181565b34801561073d57600080fd5b5061026a61074c3660046138a4565b611649565b34801561075d57600080fd5b5061026a61076c3660046138c1565b611692565b34801561077d57600080fd5b5061026a61078c3660046133d1565b6117b1565b34801561079d57600080fd5b5060065461028c9060ff1681565b3480156107b757600080fd5b5061026a6107c63660046137dd565b61180b565b3480156107d757600080fd5b506104a46107e6366004613989565b611884565b3480156107f757600080fd5b507f000000000000000000000000000000000000000000000000000000000000000061054a565b337f00000000000000000000000000000000000000000000000000000000000000006001600160a01b03161461089b5760405162461bcd60e51b815260206004820152601e60248201527f4c7a4170703a20696e76616c696420656e64706f696e742063616c6c6572000060448201526064015b60405180910390fd5b61ffff8616600090815260016020526040812080546108b9906139d6565b80601f01602080910402602001604051908101604052809291908181526020018280546108e5906139d6565b80156109325780601f1061090757610100808354040283529160200191610932565b820191906000526020600020905b81548152906001019060200180831161091557829003601f168201915b5050505050905080518686905014801561094d575060008151115b801561097557508051602082012060405161096b9088908890613a0b565b6040518091039020145b6109d05760405162461bcd60e51b815260206004820152602660248201527f4c7a4170703a20696e76616c696420736f757263652073656e64696e6720636f6044820152651b9d1c9858dd60d21b6064820152608401610892565b610a468787878080601f01602080910402602001604051908101604052809392919081815260200183838082843760009201919091525050604080516020601f8a018190048102820181019092528881528a93509150889088908190840183828082843760009201919091525061193792505050565b50505050505050565b60006001600160e01b03198216631f7ecdf760e01b1480610a8057506301ffc9a760e01b6001600160e01b03198316145b92915050565b610a8e6119b0565b6040516307e0db1760e01b815261ffff821660048201527f00000000000000000000000000000000000000000000000000000000000000006001600160a01b0316906307e0db17906024015b600060405180830381600087803b158015610af457600080fd5b505af1158015610b08573d6000803e3d6000fd5b5050505050565b610b176119b0565b61ffff909116600090815260036020526040902055565b610b366119b0565b6040516310ddb13760e01b815261ffff821660048201527f00000000000000000000000000000000000000000000000000000000000000006001600160a01b0316906310ddb13790602401610ada565b600080610bcc8888888888888080601f016020809104026020016040519081016040528093929190818152602001838380828437600092019190915250611a0a92505050565b91509150965096945050505050565b61ffff831660009081526001602052604081208054829190610bfc906139d6565b80601f0160208091040260200160405190810160405280929190818152602001828054610c28906139d6565b8015610c755780601f10610c4a57610100808354040283529160200191610c75565b820191906000526020600020905b815481529060010190602001808311610c5857829003601f168201915b505050505090508383604051610c8c929190613a0b565b60405180910390208180519060200120149150505b9392505050565b610cb06119b0565b6040516342d65a8d60e01b81526001600160a01b037f000000000000000000000000000000000000000000000000000000000000000016906342d65a8d90610d0090869086908690600401613a44565b600060405180830381600087803b158015610d1a57600080fd5b505af1158015610a46573d6000803e3d6000fd5b333014610d8c5760405162461bcd60e51b815260206004820152602660248201527f4e6f6e626c6f636b696e674c7a4170703a2063616c6c6572206d7573742062656044820152650204c7a4170760d41b6064820152608401610892565b610e028686868080601f01602080910402602001604051908101604052809392919081815260200183838082843760009201919091525050604080516020601f890181900481028201810190925287815289935091508790879081908401838280828437600092019190915250611afe92505050565b505050505050565b610e0285858585610e1e60208701876137dd565b610e2e60408801602089016137dd565b610e3b6040890189613a62565b8080601f016020809104026020016040519081016040528093929190818152602001838380828437600092019190915250611b8592505050565b610e7d6119b0565b610e876000611c6d565b565b60016020526000908152604090208054610ea2906139d6565b80601f0160208091040260200160405190810160405280929190818152602001828054610ece906139d6565b8015610f1b5780601f10610ef057610100808354040283529160200191610f1b565b820191906000526020600020905b815481529060010190602001808311610efe57829003601f168201915b505050505081565b610fc78888888888888080601f0160208091040260200160405190810160405280939291908181526020018383808284376000920191909152508a9250610f7091505060208901896137dd565b610f8060408a0160208b016137dd565b610f8d60408b018b613a62565b8080601f016020809104026020016040519081016040528093929190818152602001838380828437600092019190915250611cbd92505050565b505050505050505050565b60006008547f00000000000000000000000000000000000000000000000000000000000000006001600160a01b03166318160ddd6040518163ffffffff1660e01b8152600401602060405180830381865afa158015611035573d6000803e3d6000fd5b505050506040513d601f19601f820116820180604052508101906110599190613aa8565b6110639190613ad7565b905090565b61ffff811660009081526001602052604081208054606092919061108b906139d6565b80601f01602080910402602001604051908101604052809291908181526020018280546110b7906139d6565b80156111045780601f106110d957610100808354040283529160200191611104565b820191906000526020600020905b8154815290600101906020018083116110e757829003601f168201915b5050505050905080516000141561115d5760405162461bcd60e51b815260206004820152601d60248201527f4c7a4170703a206e6f20747275737465642070617468207265636f72640000006044820152606401610892565b610ca16000601483516111709190613ad7565b839190611db9565b6000806111f58b8b8b8b8b8080601f01602080910402602001604051908101604052809392919081815260200183838082843760009201919091525050604080516020601f8d018190048102820181019092528b81528e93508d9250908c908c9081908401838280828437600092019190915250611ec692505050565b91509150995099975050505050505050565b61120f6119b0565b81813060405160200161122493929190613aee565b60408051601f1981840301815291815261ffff85166000908152600160209081529190208251611259939192909101906130d7565b507f8c0400cfe2d1199b1a725c78960bcc2a344d869b80590d0f2bd005db15a572ce83838360405161128d93929190613a44565b60405180910390a1505050565b6112a26119b0565b600480546001600160a01b0319166001600160a01b0383169081179091556040519081527f5db758e995a17ec1ad84bdef7e8c3293a0bd6179bcce400dff5d4c3d87db726b906020015b60405180910390a150565b6112ff6119b0565b6040516332fb62e760e21b81526001600160a01b037f0000000000000000000000000000000000000000000000000000000000000000169063cbed8b9c906113539088908890889088908890600401613b14565b600060405180830381600087803b15801561136d57600080fd5b505af1158015610fc7573d6000803e3d6000fd5b61ffff861660009081526005602052604080822090516113a49088908890613a0b565b90815260408051602092819003830190206001600160401b038716600090815292529020549050806114245760405162461bcd60e51b815260206004820152602360248201527f4e6f6e626c6f636b696e674c7a4170703a206e6f2073746f726564206d65737360448201526261676560e81b6064820152608401610892565b808383604051611435929190613a0b565b6040518091039020146114945760405162461bcd60e51b815260206004820152602160248201527f4e6f6e626c6f636b696e674c7a4170703a20696e76616c6964207061796c6f616044820152601960fa1b6064820152608401610892565b61ffff871660009081526005602052604080822090516114b79089908990613a0b565b90815260408051602092819003830181206001600160401b038916600090815290845282902093909355601f8801829004820283018201905286825261154f918991899089908190840183828082843760009201919091525050604080516020601f8a018190048102820181019092528881528a935091508890889081908401838280828437600092019190915250611afe92505050565b7fc264d91f3adc5588250e1551f547752ca0cfa8f6b530d243b9f9f4cab10ea8e58787878785604051611586959493929190613b42565b60405180910390a150505050505050565b61159f6119b0565b600081116115e75760405162461bcd60e51b81526020600482015260156024820152744c7a4170703a20696e76616c6964206d696e47617360581b6044820152606401610892565b61ffff83811660008181526002602090815260408083209487168084529482529182902085905581519283528201929092529081018290527f9d5c7c0b934da8fefa9c7760c98383778a12dfbfc0c3b3106518f43fb9508ac09060600161128d565b6116516119b0565b6006805460ff19168215159081179091556040519081527f1584ad594a70cbe1e6515592e1272a987d922b097ead875069cebe8b40c004a4906020016112ec565b3330146116e15760405162461bcd60e51b815260206004820152601f60248201527f4f4654436f72653a2063616c6c6572206d757374206265204f4654436f7265006044820152606401610892565b6116ec308686611f81565b9350846001600160a01b03168a61ffff167fbf551ec93859b170f9b2141bd9298bf3f64322c6f7beb2543a0cb669834118bf8660405161172e91815260200190565b60405180910390a3604051633fe79aed60e11b81526001600160a01b03861690637fcf35da908390611772908e908e908e908e908e908d908d908d90600401613b7d565b600060405180830381600088803b15801561178c57600080fd5b5087f11580156117a0573d6000803e3d6000fd5b505050505050505050505050505050565b6117b96119b0565b61ffff831660009081526001602052604090206117d790838361315b565b507ffa41487ad5d6728f0b19276fa1eddc16558578f5109fc39d2dc33c3230470dab83838360405161128d93929190613a44565b6118136119b0565b6001600160a01b0381166118785760405162461bcd60e51b815260206004820152602660248201527f4f776e61626c653a206e6577206f776e657220697320746865207a65726f206160448201526564647265737360d01b6064820152608401610892565b61188181611c6d565b50565b604051633d7b2f6f60e21b815261ffff808616600483015284166024820152306044820152606481018290526060907f00000000000000000000000000000000000000000000000000000000000000006001600160a01b03169063f5ecbdbc90608401600060405180830381865afa158015611904573d6000803e3d6000fd5b505050506040513d6000823e601f3d908101601f1916820160405261192c9190810190613bd8565b90505b949350505050565b60008061199a5a60966366ad5c8a60e01b8989898960405160240161195f9493929190613c45565b60408051601f198184030181529190526020810180516001600160e01b03166001600160e01b03199093169290921790915230929190612132565b9150915081610e0257610e0286868686856121bc565b6000546001600160a01b03163314610e875760405162461bcd60e51b815260206004820181905260248201527f4f776e61626c653a2063616c6c6572206973206e6f7420746865206f776e65726044820152606401610892565b6000806000611a5887611a1c88612259565b6040805160006020820152602181019390935260c09190911b6001600160c01b0319166041830152805160298184030181526049909201905290565b60405163040a7bb160e41b81529091506001600160a01b037f000000000000000000000000000000000000000000000000000000000000000016906340a7bb1090611aaf908b90309086908b908b90600401613c83565b6040805180830381865afa158015611acb573d6000803e3d6000fd5b505050506040513d601f19601f82011682018060405250810190611aef9190613cd7565b92509250509550959350505050565b6000611b0a82826122df565b905060ff8116611b2557611b208585858561233b565b610b08565b60ff811660011415611b3d57611b20858585856123cb565b60405162461bcd60e51b815260206004820152601c60248201527f4f4654436f72653a20756e6b6e6f776e207061636b65742074797065000000006044820152606401610892565b6000611b93878284816125da565b611b9c85612654565b509050611bab88888884612694565b905060008111611bf95760405162461bcd60e51b815260206004820152601960248201527813d19510dbdc994e88185b5bdd5b9d081d1bdbc81cdb585b1b603a1b6044820152606401610892565b6000611c0887611a1c84612259565b9050611c188882878787346127e5565b86896001600160a01b03168961ffff167fd81fc9b8523134ed613870ed029d6170cbb73aa6a6bc311b9a642689fb9df59a85604051611c5991815260200190565b60405180910390a450979650505050505050565b600080546001600160a01b038381166001600160a01b0319831681178455604051919092169283917f8be0079c531659141344cd1fd0a4f28419497f9722a3daafe3b4186f6b6457e09190a35050565b6000611cd5896001846001600160401b0389166125da565b611cde87612654565b509050611ced8a8a8a84612694565b905060008111611d3b5760405162461bcd60e51b815260206004820152601960248201527813d19510dbdc994e88185b5bdd5b9d081d1bdbc81cdb585b1b603a1b6044820152606401610892565b6000611d52338a611d4b85612259565b8a8a61298b565b9050611d628a82878787346127e5565b888b6001600160a01b03168b61ffff167fd81fc9b8523134ed613870ed029d6170cbb73aa6a6bc311b9a642689fb9df59a85604051611da391815260200190565b60405180910390a4509998505050505050505050565b606081611dc781601f613cfb565b1015611e065760405162461bcd60e51b815260206004820152600e60248201526d736c6963655f6f766572666c6f7760901b6044820152606401610892565b611e108284613cfb565b84511015611e545760405162461bcd60e51b8152602060048201526011602482015270736c6963655f6f75744f66426f756e647360781b6044820152606401610892565b606082158015611e735760405191506000825260208201604052611ebd565b6040519150601f8416801560200281840101858101878315602002848b0101015b81831015611eac578051835260209283019201611e94565b5050858452601f01601f1916604052505b50949350505050565b6000806000611ed9338a611d4b8b612259565b60405163040a7bb160e41b81529091506001600160a01b037f000000000000000000000000000000000000000000000000000000000000000016906340a7bb1090611f30908d90309086908b908b90600401613c83565b6040805180830381865afa158015611f4c573d6000803e3d6000fd5b505050506040513d601f19601f82011682018060405250810190611f709190613cd7565b925092505097509795505050505050565b6040516370a0823160e01b81526001600160a01b03838116600483015260009182917f000000000000000000000000000000000000000000000000000000000000000016906370a0823190602401602060405180830381865afa158015611fec573d6000803e3d6000fd5b505050506040513d601f19601f820116820180604052508101906120109190613aa8565b90506001600160a01b03851630141561205c576120576001600160a01b037f00000000000000000000000000000000000000000000000000000000000000001685856129cc565b612091565b6120916001600160a01b037f000000000000000000000000000000000000000000000000000000000000000016868686612a34565b6040516370a0823160e01b81526001600160a01b03858116600483015282917f0000000000000000000000000000000000000000000000000000000000000000909116906370a0823190602401602060405180830381865afa1580156120fb573d6000803e3d6000fd5b505050506040513d601f19601f8201168201806040525081019061211f9190613aa8565b6121299190613ad7565b95945050505050565b6000606060008060008661ffff166001600160401b0381111561215757612157613423565b6040519080825280601f01601f191660200182016040528015612181576020820181803683370190505b50905060008087516020890160008d8df191503d9250868311156121a3578692505b828152826000602083013e909890975095505050505050565b8180519060200120600560008761ffff1661ffff168152602001908152602001600020856040516121ed9190613d13565b9081526040805191829003602090810183206001600160401b0388166000908152915220919091557fe183f33de2837795525b4792ca4cd60535bd77c53b7e7030060bfcf5734d6b0c9061224a9087908790879087908790613d2f565b60405180910390a15050505050565b6000806122867f000000000000000000000000000000000000000000000000000000000000000084613d97565b90506001600160401b03811115610a805760405162461bcd60e51b815260206004820152601a60248201527f4f4654436f72653a20616d6f756e745344206f766572666c6f770000000000006044820152606401610892565b60006122ec826001613cfb565b835110156123325760405162461bcd60e51b8152602060048201526013602482015272746f55696e74385f6f75744f66426f756e647360681b6044820152606401610892565b50016001015190565b60008061234783612a6c565b90925090506001600160a01b0382166123605761dead91505b600061236b82612af1565b9050612378878483612b26565b9050826001600160a01b03168761ffff167fbf551ec93859b170f9b2141bd9298bf3f64322c6f7beb2543a0cb669834118bf836040516123ba91815260200190565b60405180910390a350505050505050565b60008060008060006123dc86612b62565b945094509450945094506000600760008b61ffff1661ffff168152602001908152602001600020896040516124119190613d13565b90815260408051602092819003830190206001600160401b038b166000908152925281205460ff16915061244485612af1565b9050816124b2576124568b3083612b26565b61ffff8c1660009081526007602052604090819020905191925060019161247e908d90613d13565b90815260408051602092819003830190206001600160401b038d16600090815292529020805460ff19169115159190911790555b6001600160a01b0386163b612509576040516001600160a01b03871681527f9aedf5fdba8716db3b6705ca00150643309995d4f818a249ed6dde6677e7792d9060200160405180910390a1505050505050506125d4565b8a8a8a8a8a8a868a60008a612527578b6001600160401b0316612529565b5a5b905060008061255b5a609663eaffd49a60e01b8e8e8e8d8d8d8d8d60405160240161195f989796959493929190613dab565b9150915081156125b4578751602089012060405161ffff8d16907fb8890edbfc1c74692f527444645f95489c3703cc2df42e4a366f5d06fa6cd884906125a6908e908e908690613e1f565b60405180910390a2506125c1565b6125c18b8b8b8b856121bc565b5050505050505050505050505050505050505b50505050565b60065460ff16156125f6576125f184848484612c19565b6125d4565b8151156125d45760405162461bcd60e51b815260206004820152602660248201527f4f4654436f72653a205f61646170746572506172616d73206d7573742062652060448201526532b6b83a3c9760d11b6064820152608401610892565b6000806126817f000000000000000000000000000000000000000000000000000000000000000084613e4d565b905061268d8184613ad7565b9150915091565b60006001600160a01b03851633146126f95760405162461bcd60e51b815260206004820152602260248201527f50726f78794f46543a206f776e6572206973206e6f742073656e642063616c6c60448201526132b960f11b6064820152608401610892565b612704853084611f81565b915060008061271284612654565b90925090508015612751576127516001600160a01b037f00000000000000000000000000000000000000000000000000000000000000001688836129cc565b81600860008282546127639190613cfb565b909155506000905061277b6001600160401b03612af1565b90506008548110156127d95760405162461bcd60e51b815260206004820152602160248201527f50726f78794f46543a206f7574626f756e64416d6f756e74206f766572666c6f6044820152607760f81b6064820152608401610892565b50909695505050505050565b61ffff861660009081526001602052604081208054612803906139d6565b80601f016020809104026020016040519081016040528092919081815260200182805461282f906139d6565b801561287c5780601f106128515761010080835404028352916020019161287c565b820191906000526020600020905b81548152906001019060200180831161285f57829003601f168201915b505050505090508051600014156128ee5760405162461bcd60e51b815260206004820152603060248201527f4c7a4170703a2064657374696e6174696f6e20636861696e206973206e6f742060448201526f61207472757374656420736f7572636560801b6064820152608401610892565b6128f9878751612cf8565b60405162c5803160e81b81526001600160a01b037f0000000000000000000000000000000000000000000000000000000000000000169063c5803100908490612950908b9086908c908c908c908c90600401613e61565b6000604051808303818588803b15801561296957600080fd5b505af115801561297d573d6000803e3d6000fd5b505050505050505050505050565b6060600185856001600160a01b03891685876040516020016129b296959493929190613ec8565b604051602081830303815290604052905095945050505050565b6040516001600160a01b038316602482015260448101829052612a2f90849063a9059cbb60e01b906064015b60408051601f198184030181529190526020810180516001600160e01b03166001600160e01b031990931692909217909152612d66565b505050565b6040516001600160a01b03808516602483015283166044820152606481018290526125d49085906323b872dd60e01b906084016129f8565b60008080612a7a84826122df565b60ff16148015612a8b575082516029145b612ad25760405162461bcd60e51b815260206004820152601860248201527713d19510dbdc994e881a5b9d985b1a59081c185e5b1bd85960421b6044820152606401610892565b612add83600d612e3b565b9150612aea836021612ea0565b9050915091565b6000610a807f00000000000000000000000000000000000000000000000000000000000000006001600160401b038416613f29565b60008160086000828254612b3a9190613ad7565b90915550506001600160a01b038316301415612b57575080610ca1565b61192f308484611f81565b600080806060816001612b7587836122df565b60ff1614612bc05760405162461bcd60e51b815260206004820152601860248201527713d19510dbdc994e881a5b9d985b1a59081c185e5b1bd85960421b6044820152606401610892565b612bcb86600d612e3b565b9350612bd8866021612ea0565b9250612be5866029612efd565b9450612bf2866049612ea0565b9050612c0e6051808851612c069190613ad7565b889190611db9565b915091939590929450565b6000612c2483612f5b565b61ffff808716600090815260026020908152604080832093891683529290529081205491925090612c56908490613cfb565b905060008111612ca85760405162461bcd60e51b815260206004820152601a60248201527f4c7a4170703a206d696e4761734c696d6974206e6f74207365740000000000006044820152606401610892565b80821015610e025760405162461bcd60e51b815260206004820152601b60248201527f4c7a4170703a20676173206c696d697420697320746f6f206c6f7700000000006044820152606401610892565b61ffff821660009081526003602052604090205480612d1657506127105b80821115612a2f5760405162461bcd60e51b815260206004820181905260248201527f4c7a4170703a207061796c6f61642073697a6520697320746f6f206c617267656044820152606401610892565b6000612dbb826040518060400160405280602081526020017f5361666545524332303a206c6f772d6c6576656c2063616c6c206661696c6564815250856001600160a01b0316612fb79092919063ffffffff16565b9050805160001480612ddc575080806020019051810190612ddc9190613f48565b612a2f5760405162461bcd60e51b815260206004820152602a60248201527f5361666545524332303a204552433230206f7065726174696f6e20646964206e6044820152691bdd081cdd58d8d9595960b21b6064820152608401610892565b6000612e48826014613cfb565b83511015612e905760405162461bcd60e51b8152602060048201526015602482015274746f416464726573735f6f75744f66426f756e647360581b6044820152606401610892565b500160200151600160601b900490565b6000612ead826008613cfb565b83511015612ef45760405162461bcd60e51b8152602060048201526014602482015273746f55696e7436345f6f75744f66426f756e647360601b6044820152606401610892565b50016008015190565b6000612f0a826020613cfb565b83511015612f525760405162461bcd60e51b8152602060048201526015602482015274746f427974657333325f6f75744f66426f756e647360581b6044820152606401610892565b50016020015190565b6000602282511015612faf5760405162461bcd60e51b815260206004820152601c60248201527f4c7a4170703a20696e76616c69642061646170746572506172616d73000000006044820152606401610892565b506022015190565b606061192f848460008585600080866001600160a01b03168587604051612fde9190613d13565b60006040518083038185875af1925050503d806000811461301b576040519150601f19603f3d011682016040523d82523d6000602084013e613020565b606091505b50915091506130318783838761303c565b979650505050505050565b606083156130a85782516130a1576001600160a01b0385163b6130a15760405162461bcd60e51b815260206004820152601d60248201527f416464726573733a2063616c6c20746f206e6f6e2d636f6e74726163740000006044820152606401610892565b508161192f565b61192f83838151156130bd5781518083602001fd5b8060405162461bcd60e51b81526004016108929190613628565b8280546130e3906139d6565b90600052602060002090601f016020900481019282613105576000855561314b565b82601f1061311e57805160ff191683800117855561314b565b8280016001018555821561314b579182015b8281111561314b578251825591602001919060010190613130565b506131579291506131cf565b5090565b828054613167906139d6565b90600052602060002090601f016020900481019282613189576000855561314b565b82601f106131a25782800160ff1982351617855561314b565b8280016001018555821561314b579182015b8281111561314b5782358255916020019190600101906131b4565b5b8082111561315757600081556001016131d0565b803561ffff811681146131f657600080fd5b919050565b60008083601f84011261320d57600080fd5b5081356001600160401b0381111561322457600080fd5b60208301915083602082850101111561323c57600080fd5b9250929050565b80356001600160401b03811681146131f657600080fd5b6000806000806000806080878903121561327357600080fd5b61327c876131e4565b955060208701356001600160401b038082111561329857600080fd5b6132a48a838b016131fb565b90975095508591506132b860408a01613243565b945060608901359150808211156132ce57600080fd5b506132db89828a016131fb565b979a9699509497509295939492505050565b6000602082840312156132ff57600080fd5b81356001600160e01b031981168114610ca157600080fd5b60006020828403121561332957600080fd5b610ca1826131e4565b6000806040838503121561334557600080fd5b61334e836131e4565b946020939093013593505050565b801515811461188157600080fd5b60008060008060008060a0878903121561338357600080fd5b61338c876131e4565b9550602087013594506040870135935060608701356133aa8161335c565b925060808701356001600160401b038111156133c557600080fd5b6132db89828a016131fb565b6000806000604084860312156133e657600080fd5b6133ef846131e4565b925060208401356001600160401b0381111561340a57600080fd5b613416868287016131fb565b9497909650939450505050565b634e487b7160e01b600052604160045260246000fd5b604051601f8201601f191681016001600160401b038111828210171561346157613461613423565b604052919050565b60006001600160401b0382111561348257613482613423565b50601f01601f191660200190565b6000806000606084860312156134a557600080fd5b6134ae846131e4565b925060208401356001600160401b038111156134c957600080fd5b8401601f810186136134da57600080fd5b80356134ed6134e882613469565b613439565b81815287602083850101111561350257600080fd5b8160208401602083013760006020838301015280945050505061352760408501613243565b90509250925092565b6001600160a01b038116811461188157600080fd5b60006060828403121561355757600080fd5b50919050565b600080600080600060a0868803121561357557600080fd5b853561358081613530565b945061358e602087016131e4565b9350604086013592506060860135915060808601356001600160401b038111156135b757600080fd5b6135c388828901613545565b9150509295509295909350565b60005b838110156135eb5781810151838201526020016135d3565b838111156125d45750506000910152565b600081518084526136148160208601602086016135d0565b601f01601f19169290920160200192915050565b602081526000610ca160208301846135fc565b60008060008060008060008060e0898b03121561365757600080fd5b883561366281613530565b975061367060208a016131e4565b9650604089013595506060890135945060808901356001600160401b038082111561369a57600080fd5b6136a68c838d016131fb565b90965094508491506136ba60a08c01613243565b935060c08b01359150808211156136d057600080fd5b506136dd8b828c01613545565b9150509295985092959890939650565b6000806040838503121561370057600080fd5b613709836131e4565b9150613717602084016131e4565b90509250929050565b600080600080600080600080600060e08a8c03121561373e57600080fd5b6137478a6131e4565b985060208a0135975060408a0135965060608a01356001600160401b038082111561377157600080fd5b61377d8d838e016131fb565b909850965086915061379160808d01613243565b955060a08c013591506137a38261335c565b90935060c08b013590808211156137b957600080fd5b506137c68c828d016131fb565b915080935050809150509295985092959850929598565b6000602082840312156137ef57600080fd5b8135610ca181613530565b60008060008060006080868803121561381257600080fd5b61381b866131e4565b9450613829602087016131e4565b93506040860135925060608601356001600160401b0381111561384b57600080fd5b613857888289016131fb565b969995985093965092949392505050565b60008060006060848603121561387d57600080fd5b613886846131e4565b9250613894602085016131e4565b9150604084013590509250925092565b6000602082840312156138b657600080fd5b8135610ca18161335c565b6000806000806000806000806000806101008b8d0312156138e157600080fd5b6138ea8b6131e4565b995060208b01356001600160401b038082111561390657600080fd5b6139128e838f016131fb565b909b50995089915061392660408e01613243565b985060608d0135975060808d0135915061393f82613530565b90955060a08c0135945060c08c0135908082111561395c57600080fd5b506139698d828e016131fb565b9150809450508092505060e08b013590509295989b9194979a5092959850565b6000806000806080858703121561399f57600080fd5b6139a8856131e4565b93506139b6602086016131e4565b925060408501356139c681613530565b9396929550929360600135925050565b600181811c908216806139ea57607f821691505b6020821081141561355757634e487b7160e01b600052602260045260246000fd5b8183823760009101908152919050565b81835281816020850137506000828201602090810191909152601f909101601f19169091010190565b61ffff8416815260406020820152600061192c604083018486613a1b565b6000808335601e19843603018112613a7957600080fd5b8301803591506001600160401b03821115613a9357600080fd5b60200191503681900382131561323c57600080fd5b600060208284031215613aba57600080fd5b5051919050565b634e487b7160e01b600052601160045260246000fd5b600082821015613ae957613ae9613ac1565b500390565b8284823760609190911b6bffffffffffffffffffffffff19169101908152601401919050565b600061ffff808816835280871660208401525084604083015260806060830152613031608083018486613a1b565b61ffff86168152608060208201526000613b60608083018688613a1b565b6001600160401b0394909416604083015250606001529392505050565b61ffff8916815260c060208201526000613b9b60c08301898b613a1b565b6001600160401b038816604084015286606084015285608084015282810360a0840152613bc9818587613a1b565b9b9a5050505050505050505050565b600060208284031215613bea57600080fd5b81516001600160401b03811115613c0057600080fd5b8201601f81018413613c1157600080fd5b8051613c1f6134e882613469565b818152856020838501011115613c3457600080fd5b6121298260208301602086016135d0565b61ffff85168152608060208201526000613c6260808301866135fc565b6001600160401b0385166040840152828103606084015261303181856135fc565b61ffff861681526001600160a01b038516602082015260a060408201819052600090613cb1908301866135fc565b84151560608401528281036080840152613ccb81856135fc565b98975050505050505050565b60008060408385031215613cea57600080fd5b505080516020909101519092909150565b60008219821115613d0e57613d0e613ac1565b500190565b60008251613d258184602087016135d0565b9190910192915050565b61ffff8616815260a060208201526000613d4c60a08301876135fc565b6001600160401b03861660408401528281036060840152613d6d81866135fc565b90508281036080840152613ccb81856135fc565b634e487b7160e01b600052601260045260246000fd5b600082613da657613da6613d81565b500490565b600061010061ffff8b168352806020840152613dc98184018b6135fc565b6001600160401b038a166040850152606084018990526001600160a01b038816608085015260a0840187905283810360c08501529050613e0981866135fc565b9150508260e08301529998505050505050505050565b606081526000613e3260608301866135fc565b6001600160401b039490941660208301525060400152919050565b600082613e5c57613e5c613d81565b500690565b61ffff8716815260c060208201526000613e7e60c08301886135fc565b8281036040840152613e9081886135fc565b6001600160a01b0387811660608601528616608085015283810360a08501529050613ebb81856135fc565b9998505050505050505050565b60ff60f81b8760f81b16815285600182015260006001600160401b0360c01b808760c01b166021840152856029840152808560c01b166049840152508251613f178160518501602087016135d0565b91909101605101979650505050505050565b6000816000190483118215151615613f4357613f43613ac1565b500290565b600060208284031215613f5a57600080fd5b8151610ca18161335c56fea264697066735822122050379127ad83104680f2ab9f087c84ea2c29f7ecef8a6f252fc662fb8fadcf0a64736f6c634300080c0033",
  "linkReferences": {},
  "deployedLinkReferences": {}
}