{
  "address": "0x9d1B1669c73b033DFe47ae5a0164Ab96df25B944",
  "abi": [
    {
      "inputs": [
        {
          "internalType": "address",
          "name": "_factory",
          "type": "address"
        },
        {
          "internalType": "address",
          "name": "_endpoint",
          "type": "address"
        }
      ],
      "stateMutability": "nonpayable",
      "type": "constructor"
    },
    {
      "anonymous": false,
      "inputs": [
        {
          "indexed": true,
          "internalType": "address",
          "name": "previousOwner",
          "type": "address"
        },
        {
          "indexed": true,
          "internalType": "address",
          "name": "newOwner",
          "type": "address"
        }
      ],
      "name": "OwnershipTransferred",
      "type": "event"
    },
    {
      "anonymous": false,
      "inputs": [
        {
          "indexed": true,
          "internalType": "uint256",
          "name": "poolId",
          "type": "uint256"
        },
        {
          "indexed": false,
          "internalType": "uint256",
          "name": "priceSD",
          "type": "uint256"
        },
        {
          "indexed": false,
          "internalType": "enum StargateFeeLibraryV05.PriceDeviationState",
          "name": "state",
          "type": "uint8"
        }
      ],
      "name": "PriceUpdated",
      "type": "event"
    },
    {
      "anonymous": false,
      "inputs": [
        {
          "indexed": false,
          "internalType": "uint16",
          "name": "_dstChainId",
          "type": "uint16"
        },
        {
          "indexed": false,
          "internalType": "uint16",
          "name": "_type",
          "type": "uint16"
        },
        {
          "indexed": false,
          "internalType": "uint256",
          "name": "_minDstGas",
          "type": "uint256"
        }
      ],
      "name": "SetMinDstGas",
      "type": "event"
    },
    {
      "anonymous": false,
      "inputs": [
        {
          "indexed": false,
          "internalType": "address",
          "name": "precrime",
          "type": "address"
        }
      ],
      "name": "SetPrecrime",
      "type": "event"
    },
    {
      "anonymous": false,
      "inputs": [
        {
          "indexed": false,
          "internalType": "uint16",
          "name": "_remoteChainId",
          "type": "uint16"
        },
        {
          "indexed": false,
          "internalType": "bytes",
          "name": "_path",
          "type": "bytes"
        }
      ],
      "name": "SetTrustedRemote",
      "type": "event"
    },
    {
      "anonymous": false,
      "inputs": [
        {
          "indexed": false,
          "internalType": "uint16",
          "name": "_remoteChainId",
          "type": "uint16"
        },
        {
          "indexed": false,
          "internalType": "bytes",
          "name": "_remoteAddress",
          "type": "bytes"
        }
      ],
      "name": "SetTrustedRemoteAddress",
      "type": "event"
    },
    {
      "inputs": [],
      "name": "DELTA_1",
      "outputs": [
        {
          "internalType": "uint256",
          "name": "",
          "type": "uint256"
        }
      ],
      "stateMutability": "view",
      "type": "function"
    },
    {
      "inputs": [],
      "name": "DELTA_2",
      "outputs": [
        {
          "internalType": "uint256",
          "name": "",
          "type": "uint256"
        }
      ],
      "stateMutability": "view",
      "type": "function"
    },
    {
      "inputs": [],
      "name": "DENOMINATOR",
      "outputs": [
        {
          "internalType": "uint256",
          "name": "",
          "type": "uint256"
        }
      ],
      "stateMutability": "view",
      "type": "function"
    },
    {
      "inputs": [],
      "name": "EQ_REWARD_CAP",
      "outputs": [
        {
          "internalType": "uint256",
          "name": "",
          "type": "uint256"
        }
      ],
      "stateMutability": "view",
      "type": "function"
    },
    {
      "inputs": [],
      "name": "EQ_REWARD_THRESHOLD",
      "outputs": [
        {
          "internalType": "uint256",
          "name": "",
          "type": "uint256"
        }
      ],
      "stateMutability": "view",
      "type": "function"
    },
    {
      "inputs": [],
      "name": "FIFTY_PERCENT",
      "outputs": [
        {
          "internalType": "uint256",
          "name": "",
          "type": "uint256"
        }
      ],
      "stateMutability": "view",
      "type": "function"
    },
    {
      "inputs": [],
      "name": "LAMBDA_1",
      "outputs": [
        {
          "internalType": "uint256",
          "name": "",
          "type": "uint256"
        }
      ],
      "stateMutability": "view",
      "type": "function"
    },
    {
      "inputs": [],
      "name": "LAMBDA_2",
      "outputs": [
        {
          "internalType": "uint256",
          "name": "",
          "type": "uint256"
        }
      ],
      "stateMutability": "view",
      "type": "function"
    },
    {
      "inputs": [],
      "name": "LP_FEE",
      "outputs": [
        {
          "internalType": "uint256",
          "name": "",
          "type": "uint256"
        }
      ],
      "stateMutability": "view",
      "type": "function"
    },
    {
      "inputs": [],
      "name": "LP_FEE_WITH_EQ_REWARD",
      "outputs": [
        {
          "internalType": "uint256",
          "name": "",
          "type": "uint256"
        }
      ],
      "stateMutability": "view",
      "type": "function"
    },
    {
      "inputs": [],
      "name": "ONE_BPS_PRICE_CHANGE_THRESHOLD",
      "outputs": [
        {
          "internalType": "uint256",
          "name": "",
          "type": "uint256"
        }
      ],
      "stateMutability": "view",
      "type": "function"
    },
    {
      "inputs": [],
      "name": "PRICE_DEPEG_THRESHOLD",
      "outputs": [
        {
          "internalType": "uint256",
          "name": "",
          "type": "uint256"
        }
      ],
      "stateMutability": "view",
      "type": "function"
    },
    {
      "inputs": [],
      "name": "PRICE_DRIFT_THRESHOLD",
      "outputs": [
        {
          "internalType": "uint256",
          "name": "",
          "type": "uint256"
        }
      ],
      "stateMutability": "view",
      "type": "function"
    },
    {
      "inputs": [],
      "name": "PRICE_SHARED_DECIMALS",
      "outputs": [
        {
          "internalType": "uint8",
          "name": "",
          "type": "uint8"
        }
      ],
      "stateMutability": "view",
      "type": "function"
    },
    {
      "inputs": [],
      "name": "PROTOCOL_FEE",
      "outputs": [
        {
          "internalType": "uint256",
          "name": "",
          "type": "uint256"
        }
      ],
      "stateMutability": "view",
      "type": "function"
    },
    {
      "inputs": [],
      "name": "PROTOCOL_FEE_FOR_SAME_TOKEN",
      "outputs": [
        {
          "internalType": "uint256",
          "name": "",
          "type": "uint256"
        }
      ],
      "stateMutability": "view",
      "type": "function"
    },
    {
      "inputs": [],
      "name": "PROTOCOL_FEE_WITH_EQ_REWARD",
      "outputs": [
        {
          "internalType": "uint256",
          "name": "",
          "type": "uint256"
        }
      ],
      "stateMutability": "view",
      "type": "function"
    },
    {
      "inputs": [],
      "name": "PROTOCOL_SUBSIDY",
      "outputs": [
        {
          "internalType": "uint256",
          "name": "",
          "type": "uint256"
        }
      ],
      "stateMutability": "view",
      "type": "function"
    },
    {
      "inputs": [],
      "name": "SIXTY_PERCENT",
      "outputs": [
        {
          "internalType": "uint256",
          "name": "",
          "type": "uint256"
        }
      ],
      "stateMutability": "view",
      "type": "function"
    },
    {
      "inputs": [],
      "name": "TEN_BPS_PRICE_CHANGE_THRESHOLD",
      "outputs": [
        {
          "internalType": "uint256",
          "name": "",
          "type": "uint256"
        }
      ],
      "stateMutability": "view",
      "type": "function"
    },
    {
      "inputs": [
        {
          "internalType": "uint16",
          "name": "",
          "type": "uint16"
        }
      ],
      "name": "defaultAdapterParams",
      "outputs": [
        {
          "internalType": "bytes",
          "name": "",
          "type": "bytes"
        }
      ],
      "stateMutability": "view",
      "type": "function"
    },
    {
      "inputs": [],
      "name": "factory",
      "outputs": [
        {
          "internalType": "contract Factory",
          "name": "",
          "type": "address"
        }
      ],
      "stateMutability": "view",
      "type": "function"
    },
    {
      "inputs": [
        {
          "internalType": "uint16",
          "name": "_srcChainId",
          "type": "uint16"
        },
        {
          "internalType": "bytes",
          "name": "_srcAddress",
          "type": "bytes"
        }
      ],
      "name": "forceResumeReceive",
      "outputs": [],
      "stateMutability": "nonpayable",
      "type": "function"
    },
    {
      "inputs": [
        {
          "internalType": "uint16",
          "name": "_version",
          "type": "uint16"
        },
        {
          "internalType": "uint16",
          "name": "_chainId",
          "type": "uint16"
        },
        {
          "internalType": "address",
          "name": "",
          "type": "address"
        },
        {
          "internalType": "uint256",
          "name": "_configType",
          "type": "uint256"
        }
      ],
      "name": "getConfig",
      "outputs": [
        {
          "internalType": "bytes",
          "name": "",
          "type": "bytes"
        }
      ],
      "stateMutability": "view",
      "type": "function"
    },
    {
      "inputs": [
        {
          "internalType": "uint256",
          "name": "_srcPoolId",
          "type": "uint256"
        },
        {
          "internalType": "uint256",
          "name": "_dstPoolId",
          "type": "uint256"
        },
        {
          "internalType": "uint256",
          "name": "_amountSD",
          "type": "uint256"
        },
        {
          "internalType": "bool",
          "name": "_whitelisted",
          "type": "bool"
        }
      ],
      "name": "getDriftFee",
      "outputs": [
        {
          "internalType": "uint256",
          "name": "",
          "type": "uint256"
        }
      ],
      "stateMutability": "view",
      "type": "function"
    },
    {
      "inputs": [
        {
          "internalType": "uint256",
          "name": "_srcPoolId",
          "type": "uint256"
        },
        {
          "internalType": "uint256",
          "name": "_amountSD",
          "type": "uint256"
        },
        {
          "internalType": "bool",
          "name": "_whitelisted",
          "type": "bool"
        }
      ],
      "name": "getEqReward",
      "outputs": [
        {
          "internalType": "uint256",
          "name": "eqReward",
          "type": "uint256"
        },
        {
          "internalType": "uint256",
          "name": "protocolFee",
          "type": "uint256"
        }
      ],
      "stateMutability": "view",
      "type": "function"
    },
    {
      "inputs": [
        {
          "internalType": "uint256",
          "name": "srcPoolId",
          "type": "uint256"
        },
        {
          "internalType": "uint256",
          "name": "dstPoolId",
          "type": "uint256"
        },
        {
          "internalType": "uint16",
          "name": "dstChainId",
          "type": "uint16"
        },
        {
          "internalType": "uint256",
          "name": "amountSD",
          "type": "uint256"
        },
        {
          "internalType": "bool",
          "name": "whitelisted",
          "type": "bool"
        },
        {
          "internalType": "bool",
          "name": "hasEqReward",
          "type": "bool"
        }
      ],
      "name": "getEquilibriumFee",
      "outputs": [
        {
          "internalType": "uint256",
          "name": "",
          "type": "uint256"
        },
        {
          "internalType": "uint256",
          "name": "",
          "type": "uint256"
        }
      ],
      "stateMutability": "view",
      "type": "function"
    },
    {
      "inputs": [
        {
          "internalType": "uint256",
          "name": "_srcPoolId",
          "type": "uint256"
        },
        {
          "internalType": "uint256",
          "name": "_dstPoolId",
          "type": "uint256"
        },
        {
          "internalType": "uint16",
          "name": "_dstChainId",
          "type": "uint16"
        },
        {
          "internalType": "address",
          "name": "_from",
          "type": "address"
        },
        {
          "internalType": "uint256",
          "name": "_amountSD",
          "type": "uint256"
        }
      ],
      "name": "getFees",
      "outputs": [
        {
          "components": [
            {
              "internalType": "uint256",
              "name": "amount",
              "type": "uint256"
            },
            {
              "internalType": "uint256",
              "name": "eqFee",
              "type": "uint256"
            },
            {
              "internalType": "uint256",
              "name": "eqReward",
              "type": "uint256"
            },
            {
              "internalType": "uint256",
              "name": "lpFee",
              "type": "uint256"
            },
            {
              "internalType": "uint256",
              "name": "protocolFee",
              "type": "uint256"
            },
            {
              "internalType": "uint256",
              "name": "lkbRemove",
              "type": "uint256"
            }
          ],
          "internalType": "struct Pool.SwapObj",
          "name": "s",
          "type": "tuple"
        }
      ],
      "stateMutability": "view",
      "type": "function"
    },
    {
      "inputs": [
        {
          "internalType": "uint256",
          "name": "_srcPoolId",
          "type": "uint256"
        },
        {
          "internalType": "uint256",
          "name": "_dstPoolId",
          "type": "uint256"
        },
        {
          "internalType": "uint16",
          "name": "",
          "type": "uint16"
        },
        {
          "internalType": "uint256",
          "name": "_amountSD",
          "type": "uint256"
        },
        {
          "internalType": "uint256",
          "name": "_protocolSubsidy",
          "type": "uint256"
        },
        {
          "internalType": "bool",
          "name": "_whitelisted",
          "type": "bool"
        },
        {
          "internalType": "bool",
          "name": "_hasEqReward",
          "type": "bool"
        }
      ],
      "name": "getProtocolAndLpFee",
      "outputs": [
        {
          "internalType": "uint256",
          "name": "",
          "type": "uint256"
        },
        {
          "internalType": "uint256",
          "name": "",
          "type": "uint256"
        }
      ],
      "stateMutability": "view",
      "type": "function"
    },
    {
      "inputs": [
        {
          "internalType": "uint256",
          "name": "_poolId",
          "type": "uint256"
        }
      ],
      "name": "getRemoteChainIds",
      "outputs": [
        {
          "internalType": "uint16[]",
          "name": "",
          "type": "uint16[]"
        }
      ],
      "stateMutability": "view",
      "type": "function"
    },
    {
      "inputs": [],
      "name": "getVersion",
      "outputs": [
        {
          "internalType": "string",
          "name": "",
          "type": "string"
        }
      ],
      "stateMutability": "pure",
      "type": "function"
    },
    {
      "inputs": [
        {
          "internalType": "uint256",
          "name": "_poolId1",
          "type": "uint256"
        },
        {
          "internalType": "uint256",
          "name": "_poolId2",
          "type": "uint256"
        }
      ],
      "name": "isSameToken",
      "outputs": [
        {
          "internalType": "bool",
          "name": "",
          "type": "bool"
        }
      ],
      "stateMutability": "view",
      "type": "function"
    },
    {
      "inputs": [
        {
          "internalType": "uint256",
          "name": "_poolId",
          "type": "uint256"
        }
      ],
      "name": "isTokenPriceChanged",
      "outputs": [
        {
          "internalType": "bool",
          "name": "",
          "type": "bool"
        },
        {
          "internalType": "uint256",
          "name": "",
          "type": "uint256"
        },
        {
          "internalType": "enum StargateFeeLibraryV05.PriceDeviationState",
          "name": "",
          "type": "uint8"
        }
      ],
      "stateMutability": "view",
      "type": "function"
    },
    {
      "inputs": [
        {
          "internalType": "uint16",
          "name": "_srcChainId",
          "type": "uint16"
        },
        {
          "internalType": "bytes",
          "name": "_srcAddress",
          "type": "bytes"
        }
      ],
      "name": "isTrustedRemote",
      "outputs": [
        {
          "internalType": "bool",
          "name": "",
          "type": "bool"
        }
      ],
      "stateMutability": "view",
      "type": "function"
    },
    {
      "inputs": [],
      "name": "lzEndpoint",
      "outputs": [
        {
          "internalType": "contract ILayerZeroEndpoint",
          "name": "",
          "type": "address"
        }
      ],
      "stateMutability": "view",
      "type": "function"
    },
    {
      "inputs": [
        {
          "internalType": "uint16",
          "name": "_srcChainId",
          "type": "uint16"
        },
        {
          "internalType": "bytes",
          "name": "_srcAddress",
          "type": "bytes"
        },
        {
          "internalType": "uint64",
          "name": "_nonce",
          "type": "uint64"
        },
        {
          "internalType": "bytes",
          "name": "_payload",
          "type": "bytes"
        }
      ],
      "name": "lzReceive",
      "outputs": [],
      "stateMutability": "nonpayable",
      "type": "function"
    },
    {
      "inputs": [
        {
          "internalType": "uint16",
          "name": "",
          "type": "uint16"
        },
        {
          "internalType": "uint16",
          "name": "",
          "type": "uint16"
        }
      ],
      "name": "minDstGasLookup",
      "outputs": [
        {
          "internalType": "uint256",
          "name": "",
          "type": "uint256"
        }
      ],
      "stateMutability": "view",
      "type": "function"
    },
    {
      "inputs": [],
      "name": "owner",
      "outputs": [
        {
          "internalType": "address",
          "name": "",
          "type": "address"
        }
      ],
      "stateMutability": "view",
      "type": "function"
    },
    {
      "inputs": [
        {
          "internalType": "uint256",
          "name": "",
          "type": "uint256"
        }
      ],
      "name": "poolIdToLpId",
      "outputs": [
        {
          "internalType": "uint256",
          "name": "",
          "type": "uint256"
        }
      ],
      "stateMutability": "view",
      "type": "function"
    },
    {
      "inputs": [
        {
          "internalType": "uint256",
          "name": "",
          "type": "uint256"
        }
      ],
      "name": "poolIdToPrice",
      "outputs": [
        {
          "internalType": "address",
          "name": "priceFeedAddress",
          "type": "address"
        },
        {
          "internalType": "uint256",
          "name": "basePriceSD",
          "type": "uint256"
        },
        {
          "internalType": "uint256",
          "name": "currentPriceSD",
          "type": "uint256"
        },
        {
          "internalType": "enum StargateFeeLibraryV05.PriceDeviationState",
          "name": "state",
          "type": "uint8"
        }
      ],
      "stateMutability": "view",
      "type": "function"
    },
    {
      "inputs": [],
      "name": "precrime",
      "outputs": [
        {
          "internalType": "address",
          "name": "",
          "type": "address"
        }
      ],
      "stateMutability": "view",
      "type": "function"
    },
    {
      "inputs": [
        {
          "internalType": "uint256",
          "name": "_poolId",
          "type": "uint256"
        }
      ],
      "name": "quoteFeeForPriceUpdate",
      "outputs": [
        {
          "internalType": "uint256",
          "name": "",
          "type": "uint256"
        }
      ],
      "stateMutability": "view",
      "type": "function"
    },
    {
      "inputs": [],
      "name": "renounceOwnership",
      "outputs": [],
      "stateMutability": "nonpayable",
      "type": "function"
    },
    {
      "inputs": [
        {
          "internalType": "uint256",
          "name": "",
          "type": "uint256"
        },
        {
          "internalType": "uint256",
          "name": "",
          "type": "uint256"
        }
      ],
      "name": "sameToken",
      "outputs": [
        {
          "internalType": "bool",
          "name": "",
          "type": "bool"
        }
      ],
      "stateMutability": "view",
      "type": "function"
    },
    {
      "inputs": [
        {
          "internalType": "uint16",
          "name": "_version",
          "type": "uint16"
        },
        {
          "internalType": "uint16",
          "name": "_chainId",
          "type": "uint16"
        },
        {
          "internalType": "uint256",
          "name": "_configType",
          "type": "uint256"
        },
        {
          "internalType": "bytes",
          "name": "_config",
          "type": "bytes"
        }
      ],
      "name": "setConfig",
      "outputs": [],
      "stateMutability": "nonpayable",
      "type": "function"
    },
    {
      "inputs": [
        {
          "internalType": "uint16",
          "name": "_remoteChainId",
          "type": "uint16"
        },
        {
          "internalType": "bytes",
          "name": "_adapterParams",
          "type": "bytes"
        }
      ],
      "name": "setDefaultAdapterParams",
      "outputs": [],
      "stateMutability": "nonpayable",
      "type": "function"
    },
    {
      "inputs": [
        {
          "internalType": "uint16",
          "name": "_dstChainId",
          "type": "uint16"
        },
        {
          "internalType": "uint16",
          "name": "_packetType",
          "type": "uint16"
        },
        {
          "internalType": "uint256",
          "name": "_minGas",
          "type": "uint256"
        }
      ],
      "name": "setMinDstGas",
      "outputs": [],
      "stateMutability": "nonpayable",
      "type": "function"
    },
    {
      "inputs": [
        {
          "internalType": "uint256",
          "name": "_poolId",
          "type": "uint256"
        },
        {
          "internalType": "uint256",
          "name": "_lpId",
          "type": "uint256"
        }
      ],
      "name": "setPoolToLpId",
      "outputs": [],
      "stateMutability": "nonpayable",
      "type": "function"
    },
    {
      "inputs": [
        {
          "internalType": "address",
          "name": "_precrime",
          "type": "address"
        }
      ],
      "name": "setPrecrime",
      "outputs": [],
      "stateMutability": "nonpayable",
      "type": "function"
    },
    {
      "inputs": [
        {
          "internalType": "uint16",
          "name": "_version",
          "type": "uint16"
        }
      ],
      "name": "setReceiveVersion",
      "outputs": [],
      "stateMutability": "nonpayable",
      "type": "function"
    },
    {
      "inputs": [
        {
          "internalType": "uint256",
          "name": "_poolId1",
          "type": "uint256"
        },
        {
          "internalType": "uint256",
          "name": "_poolId2",
          "type": "uint256"
        },
        {
          "internalType": "bool",
          "name": "_isSame",
          "type": "bool"
        }
      ],
      "name": "setSameToken",
      "outputs": [],
      "stateMutability": "nonpayable",
      "type": "function"
    },
    {
      "inputs": [
        {
          "internalType": "uint16",
          "name": "_version",
          "type": "uint16"
        }
      ],
      "name": "setSendVersion",
      "outputs": [],
      "stateMutability": "nonpayable",
      "type": "function"
    },
    {
      "inputs": [
        {
          "internalType": "uint256",
          "name": "_poolId",
          "type": "uint256"
        },
        {
          "internalType": "address",
          "name": "_lpStaking",
          "type": "address"
        }
      ],
      "name": "setStargatePoolIdToLPStakingAddress",
      "outputs": [],
      "stateMutability": "nonpayable",
      "type": "function"
    },
    {
      "inputs": [
        {
          "internalType": "uint256",
          "name": "_poolId",
          "type": "uint256"
        },
        {
          "internalType": "uint256",
          "name": "_basePriceSD",
          "type": "uint256"
        }
      ],
      "name": "setTokenBasePrice",
      "outputs": [],
      "stateMutability": "nonpayable",
      "type": "function"
    },
    {
      "inputs": [
        {
          "internalType": "uint256",
          "name": "_poolId",
          "type": "uint256"
        },
        {
          "internalType": "address",
          "name": "_priceFeedAddress",
          "type": "address"
        },
        {
          "internalType": "uint16[]",
          "name": "_remoteChainIds",
          "type": "uint16[]"
        }
      ],
      "name": "setTokenPriceFeed",
      "outputs": [],
      "stateMutability": "nonpayable",
      "type": "function"
    },
    {
      "inputs": [
        {
          "internalType": "uint16",
          "name": "_srcChainId",
          "type": "uint16"
        },
        {
          "internalType": "bytes",
          "name": "_path",
          "type": "bytes"
        }
      ],
      "name": "setTrustedRemote",
      "outputs": [],
      "stateMutability": "nonpayable",
      "type": "function"
    },
    {
      "inputs": [
        {
          "internalType": "uint256",
          "name": "",
          "type": "uint256"
        }
      ],
      "name": "stargatePoolIdToLPStaking",
      "outputs": [
        {
          "internalType": "address",
          "name": "",
          "type": "address"
        }
      ],
      "stateMutability": "view",
      "type": "function"
    },
    {
      "inputs": [
        {
          "internalType": "address",
          "name": "newOwner",
          "type": "address"
        }
      ],
      "name": "transferOwnership",
      "outputs": [],
      "stateMutability": "nonpayable",
      "type": "function"
    },
    {
      "inputs": [
        {
          "internalType": "uint16",
          "name": "",
          "type": "uint16"
        }
      ],
      "name": "trustedRemoteLookup",
      "outputs": [
        {
          "internalType": "bytes",
          "name": "",
          "type": "bytes"
        }
      ],
      "stateMutability": "view",
      "type": "function"
    },
    {
      "inputs": [
        {
          "internalType": "uint256",
          "name": "_poolId",
          "type": "uint256"
        }
      ],
      "name": "updateTokenPrice",
      "outputs": [],
      "stateMutability": "payable",
      "type": "function"
    },
    {
      "inputs": [
        {
          "internalType": "address",
          "name": "_from",
          "type": "address"
        },
        {
          "internalType": "bool",
          "name": "_whiteListed",
          "type": "bool"
        }
      ],
      "name": "whiteList",
      "outputs": [],
      "stateMutability": "nonpayable",
      "type": "function"
    },
    {
      "inputs": [
        {
          "internalType": "address",
          "name": "",
          "type": "address"
        }
      ],
      "name": "whitelist",
      "outputs": [
        {
          "internalType": "bool",
          "name": "",
          "type": "bool"
        }
      ],
      "stateMutability": "view",
      "type": "function"
    },
    {
      "stateMutability": "payable",
      "type": "receive"
    }
  ],
  "transactionHash": "0x5b6c76f30bf625740bdeb9d6292609e8f8e1c29632edbaf6de18292a55d00113",
  "args": [
    "0xAF54BE5B6eEc24d6BFACf1cce4eaF680A8239398",
    "0x9740FF91F1985D8d2B71494aE1A2f723bb3Ed9E4"
  ],
  "numDeployments": 1,
  "solcInputHash": "bf60e87fc9260a3c8810516d5a1cf7a0",
  "bytecode": "0x60c06040523480156200001157600080fd5b50604051620047853803806200478583398101604081905262000034916200012e565b806000620000416200010d565b600080546001600160a01b0319166001600160a01b0383169081178255604051929350917f8be0079c531659141344cd1fd0a4f28419497f9722a3daafe3b4186f6b6457e0908290a35060601b6001600160601b0319166080526001600160a01b038216620000cd5760405162461bcd60e51b8152600401620000c49062000165565b60405180910390fd5b6001600160a01b038116620000f65760405162461bcd60e51b8152600401620000c490620001a6565b5060601b6001600160601b03191660a052620001e8565b3390565b80516001600160a01b03811681146200012957600080fd5b919050565b6000806040838503121562000141578182fd5b6200014c8362000111565b91506200015c6020840162000111565b90509250929050565b60208082526021908201527f4665654c6962726172793a20466163746f72792063616e6e6f742062652030786040820152600360fc1b606082015260800190565b60208082526022908201527f4665654c6962726172793a20456e64706f696e742063616e6e6f742062652030604082015261078360f41b606082015260800190565b60805160601c60a05160601c61454162000244600039806119b65280611dd752806123a7525080610aa75280610d405280610e5152806112ee52806114805280612065528061242d5280612a295280612fd252506145416000f3fe6080604052600436106103b05760003560e01c80637ba5c12f116101e7578063baf3292d1161010d578063e18bce50116100a0578063f100e6771161006f578063f100e67714610a18578063f2fde38b14610a45578063f5ecbdbc14610a65578063fc6834a114610a85576103b7565b8063e18bce50146109a3578063e91e9b6f146109c3578063ea8e7530146109d8578063eb8d72b7146109f8576103b7565b8063d16baeb9116100dc578063d16baeb91461094e578063d616f0dd1461096e578063d7f6bde314610566578063df2a5b3b14610983576103b7565b8063baf3292d146108d9578063bb05078d146108f9578063c45a015514610919578063cbed8b9c1461092e576103b7565b8063950c8a7411610185578063a810de6c11610154578063a810de6c1461086f578063ad7bbfc914610884578063b353aaa7146108a4578063ba6afedf146108b9576103b7565b8063950c8a7414610805578063972883c41461081a5780639b19251a1461083a578063a14986351461085a576103b7565b806389ca9256116101c157806389ca92561461078c5780638cfd8f5c146107bb5780638da5cb5b146107db578063918f8674146107f0576103b7565b80637ba5c12f1461077757806380651ee2146106ac578063886a9c50146105c8576103b7565b80633d8b38f6116102d757806358cbb8ed1161026a5780636ddc4561116102395780636ddc4561146106f4578063715018a6146107145780637533d788146107295780637b35c26014610749576103b7565b806358cbb8ed1461068c5780635e3f2727146106ac5780636548c4ac146106c1578063676c0d77146106e1576103b7565b80634f6412d8116102a65780634f6412d814610612578063518a9f9f1461063257806352863703146106475780635436ac171461065c576103b7565b80633d8b38f6146105a85780633dad0dd5146105c857806342d65a8d146105dd5780634e8f4fa8146105fd576103b7565b806313c6e3801161034f57806323a443251161031e57806323a443251461051957806327274e85146105395780632b3ec8c9146105665780633c2c30651461057b576103b7565b806313c6e380146104a25780631738fe38146104c25780631ab62430146104d75780631e04cbf314610504576103b7565b806307e0db171161038b57806307e0db171461042b5780630b4501fd1461044b5780630d8e6e2c1461046057806310ddb13714610482576103b7565b80621d3567146103bc578063012a1c2d146103de578063040d583514610409576103b7565b366103b757005b600080fd5b3480156103c857600080fd5b506103dc6103d7366004613a29565b610aa5565b005b3480156103ea57600080fd5b506103f3610ccb565b60405161040091906143b8565b60405180910390f35b34801561041557600080fd5b5061041e610cd7565b60405161040091906143fe565b34801561043757600080fd5b506103dc6104463660046139ba565b610cdc565b34801561045757600080fd5b506103f3610dc3565b34801561046c57600080fd5b50610475610dce565b6040516104009190614068565b34801561048e57600080fd5b506103dc61049d3660046139ba565b610ded565b3480156104ae57600080fd5b506103f36104bd366004613c34565b610eb9565b3480156104ce57600080fd5b506103f3610ecb565b3480156104e357600080fd5b506104f76104f2366004613d7f565b610ed6565b60405161040091906142a3565b34801561051057600080fd5b506103f361103a565b34801561052557600080fd5b506103dc610534366004613d0e565b611046565b34801561054557600080fd5b50610559610554366004613d0e565b6110f3565b6040516104009190614040565b34801561057257600080fd5b506103f3611155565b34801561058757600080fd5b5061059b610596366004613c34565b611160565b6040516104009190613fb0565b3480156105b457600080fd5b506105596105c33660046139d6565b61117b565b3480156105d457600080fd5b506103f361124e565b3480156105e957600080fd5b506103dc6105f83660046139d6565b61125a565b34801561060957600080fd5b506103f361136f565b34801561061e57600080fd5b506103f361062d366004613c34565b61137a565b34801561063e57600080fd5b506103f361152f565b34801561065357600080fd5b506103f361153a565b34801561066857600080fd5b5061067c610677366004613c34565b611545565b6040516104009493929190613fc4565b34801561069857600080fd5b506104756106a73660046139ba565b611579565b3480156106b857600080fd5b506103f3611614565b3480156106cd57600080fd5b506103dc6106dc366004613d0e565b61161e565b6103dc6106ef366004613c34565b611692565b34801561070057600080fd5b506103dc61070f366004613c64565b611854565b34801561072057600080fd5b506103dc6118e4565b34801561073557600080fd5b506104756107443660046139ba565b611948565b34801561075557600080fd5b50610769610764366004613d52565b6119af565b6040516104009291906143d5565b34801561078357600080fd5b506103f3611c6a565b34801561079857600080fd5b506107ac6107a7366004613c34565b611c74565b6040516104009392919061404b565b3480156107c757600080fd5b506103f36107d6366004613ac1565b611cc7565b3480156107e757600080fd5b5061059b611ce4565b3480156107fc57600080fd5b506103f3611cf3565b34801561081157600080fd5b5061059b611cff565b34801561082657600080fd5b506103f3610835366004613ea7565b611d0e565b34801561084657600080fd5b50610559610855366004613875565b611d7e565b34801561086657600080fd5b506103f3611d93565b34801561087b57600080fd5b506103f3611d9e565b34801561089057600080fd5b5061076961089f366004613dd0565b611da9565b3480156108b057600080fd5b5061059b612063565b3480156108c557600080fd5b506103dc6108d4366004613d52565b612087565b3480156108e557600080fd5b506103dc6108f4366004613875565b612166565b34801561090557600080fd5b50610769610914366004613e36565b61221c565b34801561092557600080fd5b5061059b6123a5565b34801561093a57600080fd5b506103dc610949366004613b7e565b6123c9565b34801561095a57600080fd5b506103dc6109693660046138ad565b6124fc565b34801561097a57600080fd5b506103f3612589565b34801561098f57600080fd5b506103dc61099e366004613b3e565b612593565b3480156109af57600080fd5b506105596109be366004613d0e565b6126ab565b3480156109cf57600080fd5b506103f36126cb565b3480156109e457600080fd5b506103dc6109f3366004613c88565b6126d5565b348015610a0457600080fd5b506103dc610a133660046139d6565b61276c565b348015610a2457600080fd5b50610a38610a33366004613c34565b61285e565b6040516104009190613ff8565b348015610a5157600080fd5b506103dc610a60366004613875565b6128eb565b348015610a7157600080fd5b50610475610a80366004613aee565b6129ed565b348015610a9157600080fd5b506103dc610aa03660046139d6565b612b67565b7f00000000000000000000000000000000000000000000000000000000000000006001600160a01b0316610ad7612bed565b6001600160a01b031614610b32576040805162461bcd60e51b815260206004820152601e60248201527f4c7a4170703a20696e76616c696420656e64706f696e742063616c6c65720000604482015290519081900360640190fd5b61ffff8616600090815260016020818152604080842080548251600295821615610100026000190190911694909404601f810184900484028501840190925281845291830182828015610bc65780601f10610b9b57610100808354040283529160200191610bc6565b820191906000526020600020905b815481529060010190602001808311610ba957829003601f168201915b50505050509050805186869050148015610be1575060008151115b8015610c115750808051906020012086866040518083838082843780830192505050925050506040518091039020145b610c4c5760405162461bcd60e51b81526004018080602001828103825260268152602001806144e66026913960400191505060405180910390fd5b610cc28787878080601f01602080910402602001604051908101604052809392919081815260200183838082843760009201919091525050604080516020601f8a018190048102820181019092528881528a935091508890889081908401838280828437600092019190915250612bf192505050565b50505050505050565b670dd280b9144a000081565b600881565b610ce4612bed565b6001600160a01b0316610cf5611ce4565b6001600160a01b031614610d3e576040805162461bcd60e51b815260206004820181905260248201526000805160206144c6833981519152604482015290519081900360640190fd5b7f00000000000000000000000000000000000000000000000000000000000000006001600160a01b03166307e0db17826040518263ffffffff1660e01b8152600401808261ffff168152602001915050600060405180830381600087803b158015610da857600080fd5b505af1158015610dbc573d6000803e3d6000fd5b5050505050565b6603328b944c400081565b6040805180820190915260058152640352e302e360dc1b602082015290565b610df5612bed565b6001600160a01b0316610e06611ce4565b6001600160a01b031614610e4f576040805162461bcd60e51b815260206004820181905260248201526000805160206144c6833981519152604482015290519081900360640190fd5b7f00000000000000000000000000000000000000000000000000000000000000006001600160a01b03166310ddb137826040518263ffffffff1660e01b8152600401808261ffff168152602001915050600060405180830381600087803b158015610da857600080fd5b60056020526000908152604090205481565b66354a6ba7a1800081565b610ede61368a565b8585808214610f3057600260008381526006602052604090206003015460ff166002811115610f0957fe5b1415610f305760405162461bcd60e51b8152600401610f2790614235565b60405180910390fd5b6001600160a01b03851660009081526004602052604090205460ff16610f578986836119af565b60808601526040850181905215156000610f758b8b8b8a8787611da9565b60208801919091529050600080610f918d8d8d8c878a8a61221c565b60808a01519193509150610fa59083612c1f565b6080890152606088018190526000610fbf8e8e8c89611d0e565b60808a0151909150610fd19082612c1f565b60808a0181905260208a015160608b0151610ff79291610ff19190612c1f565b90612c1f565b8a101561102957611023896020015161101d8b606001518d612c7990919063ffffffff16565b90612c79565b60808a01525b505050505050505095945050505050565b6706f05b59d3b2000081565b61104e612bed565b6001600160a01b031661105f611ce4565b6001600160a01b0316146110a8576040805162461bcd60e51b815260206004820181905260248201526000805160206144c6833981519152604482015290519081900360640190fd5b600081116110c85760405162461bcd60e51b8152600401610f27906141ba565b600091825260066020526040909120600181018290556002810191909155600301805460ff19169055565b6000818314156111055750600161114f565b81831061112e57600082815260076020908152604080832086845290915290205460ff1661114c565b600083815260076020908152604080832085845290915290205460ff165b90505b92915050565b66038d7ea4c6800081565b6009602052600090815260409020546001600160a01b031681565b61ffff8316600090815260016020818152604080842080548251600295821615610100026000190190911694909404601f81018490048402850184019092528184528493929091908301828280156112145780601f106111e957610100808354040283529160200191611214565b820191906000526020600020905b8154815290600101906020018083116111f757829003601f168201915b50505050509050838360405180838380828437808301925050509250505060405180910390208180519060200120149150505b9392505050565b670853a0d2313c000081565b611262612bed565b6001600160a01b0316611273611ce4565b6001600160a01b0316146112bc576040805162461bcd60e51b815260206004820181905260248201526000805160206144c6833981519152604482015290519081900360640190fd5b604080516342d65a8d60e01b815261ffff85166004820190815260248201928352604482018490526001600160a01b037f000000000000000000000000000000000000000000000000000000000000000016926342d65a8d92879287928792606401848480828437600081840152601f19601f820116905080830192505050945050505050600060405180830381600087803b15801561135b57600080fd5b505af1158015610cc2573d6000803e3d6000fd5b6608e1bc9bf0400081565b60008181526006602090815260408083206004018054825181850281018501909352808352849384939291908301828280156113fd57602002820191906000526020600020906000905b82829054906101000a900461ffff1661ffff16815260200190600201906020826001010492830192600103820291508084116113c45790505b5050505050905060008460008060405160200161141c939291906143e3565b604051602081830303815290604052905060005b825181101561152357600083828151811061144757fe5b60209081029190910181015161ffff8116600090815260089092526040808320905163040a7bb160e41b81529193506001600160a01b037f000000000000000000000000000000000000000000000000000000000000000016916340a7bb10916114bb91869130918a9188916004016142e7565b604080518083038186803b1580156114d257600080fd5b505afa1580156114e6573d6000803e3d6000fd5b505050506040513d601f19601f8201168201806040525081019061150a9190613d2f565b5090506115178682612c1f565b95505050600101611430565b5091925050505b919050565b66b1a2bc2ec5000081565b6601c6bf5263400081565b60066020526000908152604090208054600182015460028301546003909301546001600160a01b0390921692909160ff1684565b60086020908152600091825260409182902080548351601f60026000196101006001861615020190931692909204918201849004840281018401909452808452909183018282801561160c5780601f106115e15761010080835404028352916020019161160c565b820191906000526020600020905b8154815290600101906020018083116115ef57829003601f168201915b505050505081565b655af3107a400081565b611626612bed565b6001600160a01b0316611637611ce4565b6001600160a01b031614611680576040805162461bcd60e51b815260206004820181905260248201526000805160206144c6833981519152604482015290519081900360640190fd5b60009182526005602052604090912055565b600081815260066020526040812090806116ab83612cd6565b915091506116ba848383612e5a565b60008360040180548060200260200160405190810160405280929190818152602001828054801561173257602002820191906000526020600020906000905b82829054906101000a900461ffff1661ffff16815260200190600201906020826001010492830192600103820291508084116116f95790505b505050505090506000858484604051602001611750939291906143e3565b604051602081830303815290604052905060005b8251811015610cc257600083828151811061177b57fe5b60200260200101519050600060018551038314611798573061179a565b335b61ffff831660009081526008602090815260408083208054825160026001831615610100026000190190921691909104601f810185900485028201850190935282815294955061184a9487948a9488949193919083018282801561183f5780601f106118145761010080835404028352916020019161183f565b820191906000526020600020905b81548152906001019060200180831161182257829003601f168201915b505050505047612ef4565b5050600101611764565b61185c612bed565b6001600160a01b031661186d611ce4565b6001600160a01b0316146118b6576040805162461bcd60e51b815260206004820181905260248201526000805160206144c6833981519152604482015290519081900360640190fd5b60009182526009602052604090912080546001600160a01b0319166001600160a01b03909216919091179055565b6118ec612bed565b6001600160a01b03166118fd611ce4565b6001600160a01b031614611946576040805162461bcd60e51b815260206004820181905260248201526000805160206144c6833981519152604482015290519081900360640190fd5b565b60016020818152600092835260409283902080548451600294821615610100026000190190911693909304601f810183900483028401830190945283835291929083018282801561160c5780601f106115e15761010080835404028352916020019161160c565b60008060007f00000000000000000000000000000000000000000000000000000000000000006001600160a01b031663068bcd8d876040518263ffffffff1660e01b8152600401611a0091906143b8565b60206040518083038186803b158015611a1857600080fd5b505afa158015611a2c573d6000803e3d6000fd5b505050506040513d601f19601f82011682018060405250810190611a509190613891565b90506000611a5d826131b6565b90506000826001600160a01b03166315770f926040518163ffffffff1660e01b815260040160206040518083038186803b158015611a9a57600080fd5b505afa158015611aae573d6000803e3d6000fd5b505050506040513d601f19601f82011682018060405250810190611ad29190613c4c565b90506000836001600160a01b0316639bb811196040518163ffffffff1660e01b815260040160206040518083038186803b158015611b0f57600080fd5b505afa158015611b23573d6000803e3d6000fd5b505050506040513d601f19601f82011682018060405250810190611b479190613c4c565b9050828211611b60576000809550955050505050611c62565b6000611b6c8385612c79565b90506000611b8c82611b8685670de0b6b3a7640000613318565b90613371565b9050660221b262dd80008111158015611ba3575088155b15611bba5760008097509750505050505050611c62565b611bd0670de0b6b3a7640000611b868c84613318565b9750828811611bdf5787611be1565b825b97508815611bf9575060009550611c62945050505050565b6000611c118b611b868b670de0b6b3a7640000613318565b90506608e1bc9bf04000811115611c55576000611c41670de0b6b3a7640000611b868e6608e1bc9bf04000613318565b9050611c4d8a82612c79565b985050611c5a565b600097505b505050505050505b935093915050565b651b48eb57e00081565b6000818152600660205260408120819081908180611c9183612cd6565b915091506000611ca28484846133d8565b9050600081611cb5578460020154611cb7565b835b9199919850919650945050505050565b600260209081526000928352604080842090915290825290205481565b6000546001600160a01b031690565b670de0b6b3a764000081565b6003546001600160a01b031681565b600083851480611d1b5750815b15611d2857506000611d76565b6000611d3386613491565b90506000611d4086613491565b9050808210611d5457600092505050611d76565b6000611d6482611b868886613318565b9050611d708682612c79565b93505050505b949350505050565b60046020526000908152604090205460ff1681565b660221b262dd800081565b660e35fa931a000081565b6000808315611dbd57506000905080612058565b60405163068bcd8d60e01b81526000906001600160a01b037f0000000000000000000000000000000000000000000000000000000000000000169063068bcd8d90611e0c908c906004016143b8565b60206040518083038186803b158015611e2457600080fd5b505afa158015611e38573d6000803e3d6000fd5b505050506040513d601f19601f82011682018060405250810190611e5c9190613891565b6001600160a01b031663159f6add888a6040518363ffffffff1660e01b8152600401611e899291906143a4565b6101006040518083038186803b158015611ea257600080fd5b505afa158015611eb6573d6000803e3d6000fd5b505050506040513d601f19601f82011682018060405250810190611eda9190613923565b60e081015160808201519192509087811015611f085760405162461bcd60e51b8152600401610f27906141fe565b6000611f14828a612c79565b90506000611f36670de0b6b3a7640000611b8686670853a0d2313c0000613318565b90506000611f57670de0b6b3a7640000611b868766b1a2bc2ec50000613318565b90506000808c848610611f9057611f80670de0b6b3a7640000611b8683651b48eb57e000613318565b92508b611f8b578291505b61204b565b838610611fc8576000858810611fa65785611fa8565b875b9050611fc0660e35fa931a000060008888858c6134cb565b93505061204b565b838710612025576000858810611fde5785611fe0565b875b9050612002611ffb660e35fa931a000060008989868b6134cb565b8590612c1f565b9350611fc0611ffb670dd280b9144a0000660e35fa931a00008860008a8d6134cb565b86612047611ffb670dd280b9144a0000660e35fa931a0000886000868d6134cb565b9350505b5090985096505050505050505b965096945050505050565b7f000000000000000000000000000000000000000000000000000000000000000081565b61208f612bed565b6001600160a01b03166120a0611ce4565b6001600160a01b0316146120e9576040805162461bcd60e51b815260206004820181905260248201526000805160206144c6833981519152604482015290519081900360640190fd5b818314156121095760405162461bcd60e51b8152600401610f279061407b565b8183101561213b5760008381526007602090815260408083208584529091529020805460ff1916821515179055612161565b60008281526007602090815260408083208684529091529020805460ff19168215151790555b505050565b61216e612bed565b6001600160a01b031661217f611ce4565b6001600160a01b0316146121c8576040805162461bcd60e51b815260206004820181905260248201526000805160206144c6833981519152604482015290519081900360640190fd5b600380546001600160a01b0383166001600160a01b0319909116811790915560408051918252517f5db758e995a17ec1ad84bdef7e8c3293a0bd6179bcce400dff5d4c3d87db726b9181900360200190a150565b600080831561223057506000905080612399565b600083612260576122418a8a6110f3565b612252576603328b944c400061225b565b6601c6bf526340005b612268565b6596f9e30860005b905060008461227d57655af3107a4000612285565b651eec3dec20005b9050878b60006122a58a61101d670de0b6b3a7640000611b86878a613318565b905060006122bf670de0b6b3a7640000611b868688613318565b6000848152600960205260409020549091506001600160a01b0316801561238e57600084815260056020526040808220549051631526fe2760e01b81528392916001600160a01b03841691631526fe279161231c916004016143b8565b60806040518083038186803b15801561233457600080fd5b505afa158015612348573d6000803e3d6000fd5b505050506040513d601f19601f8201168201806040525081019061236c91906138e5565b5050915050600081111561238b576123848585612c1f565b9450600093505b50505b509096509450505050505b97509795505050505050565b7f000000000000000000000000000000000000000000000000000000000000000081565b6123d1612bed565b6001600160a01b03166123e2611ce4565b6001600160a01b03161461242b576040805162461bcd60e51b815260206004820181905260248201526000805160206144c6833981519152604482015290519081900360640190fd5b7f00000000000000000000000000000000000000000000000000000000000000006001600160a01b031663cbed8b9c86868686866040518663ffffffff1660e01b8152600401808661ffff1681526020018561ffff168152602001848152602001806020018281038252848482818152602001925080828437600081840152601f19601f8201169050808301925050509650505050505050600060405180830381600087803b1580156124dd57600080fd5b505af11580156124f1573d6000803e3d6000fd5b505050505050505050565b612504612bed565b6001600160a01b0316612515611ce4565b6001600160a01b03161461255e576040805162461bcd60e51b815260206004820181905260248201526000805160206144c6833981519152604482015290519081900360640190fd5b6001600160a01b03919091166000908152600460205260409020805460ff1916911515919091179055565b6596f9e308600081565b61259b612bed565b6001600160a01b03166125ac611ce4565b6001600160a01b0316146125f5576040805162461bcd60e51b815260206004820181905260248201526000805160206144c6833981519152604482015290519081900360640190fd5b60008111612642576040805162461bcd60e51b81526020600482015260156024820152744c7a4170703a20696e76616c6964206d696e47617360581b604482015290519081900360640190fd5b61ffff808416600081815260026020908152604080832094871680845294825291829020859055815192835282019290925280820183905290517f9d5c7c0b934da8fefa9c7760c98383778a12dfbfc0c3b3106518f43fb9508ac09181900360600190a1505050565b600760209081526000928352604080842090915290825290205460ff1681565b651eec3dec200081565b6126dd612bed565b6001600160a01b03166126ee611ce4565b6001600160a01b031614612737576040805162461bcd60e51b815260206004820181905260248201526000805160206144c6833981519152604482015290519081900360640190fd5b600084815260066020526040902080546001600160a01b0319166001600160a01b038516178155610dbc9060040183836136c0565b612774612bed565b6001600160a01b0316612785611ce4565b6001600160a01b0316146127ce576040805162461bcd60e51b815260206004820181905260248201526000805160206144c6833981519152604482015290519081900360640190fd5b61ffff831660009081526001602052604090206127ec90838361376d565b507ffa41487ad5d6728f0b19276fa1eddc16558578f5109fc39d2dc33c3230470dab838383604051808461ffff168152602001806020018281038252848482818152602001925080828437600083820152604051601f909101601f1916909201829003965090945050505050a1505050565b6000818152600660209081526040918290206004018054835181840281018401909452808452606093928301828280156128df57602002820191906000526020600020906000905b82829054906101000a900461ffff1661ffff16815260200190600201906020826001010492830192600103820291508084116128a65790505b50505050509050919050565b6128f3612bed565b6001600160a01b0316612904611ce4565b6001600160a01b03161461294d576040805162461bcd60e51b815260206004820181905260248201526000805160206144c6833981519152604482015290519081900360640190fd5b6001600160a01b0381166129925760405162461bcd60e51b815260040180806020018281038252602681526020018061444f6026913960400191505060405180910390fd5b600080546040516001600160a01b03808516939216917f8be0079c531659141344cd1fd0a4f28419497f9722a3daafe3b4186f6b6457e091a3600080546001600160a01b0319166001600160a01b0392909216919091179055565b60408051633d7b2f6f60e21b815261ffff8087166004830152851660248201523060448201526064810183905290516060916001600160a01b037f0000000000000000000000000000000000000000000000000000000000000000169163f5ecbdbc91608480820192600092909190829003018186803b158015612a7057600080fd5b505afa158015612a84573d6000803e3d6000fd5b505050506040513d6000823e601f3d908101601f191682016040526020811015612aad57600080fd5b8101908080516040519392919084640100000000821115612acd57600080fd5b908301906020820185811115612ae257600080fd5b8251640100000000811182820188101715612afc57600080fd5b82525081516020918201929091019080838360005b83811015612b29578181015183820152602001612b11565b50505050905090810190601f168015612b565780820380516001836020036101000a031916815260200191505b506040525050509050949350505050565b612b6f612bed565b6001600160a01b0316612b80611ce4565b6001600160a01b031614612bc9576040805162461bcd60e51b815260206004820181905260248201526000805160206144c6833981519152604482015290519081900360640190fd5b61ffff83166000908152600860205260409020612be790838361376d565b50505050565b3390565b600080600083806020019051810190612c0a9190613bef565b9250925061ffff169250610cc2838383612e5a565b60008282018381101561114c576040805162461bcd60e51b815260206004820152601b60248201527f536166654d6174683a206164646974696f6e206f766572666c6f770000000000604482015290519081900360640190fd5b600082821115612cd0576040805162461bcd60e51b815260206004820152601e60248201527f536166654d6174683a207375627472616374696f6e206f766572666c6f770000604482015290519081900360640190fd5b50900390565b805460009081906001600160a01b031680612d035760405162461bcd60e51b8152600401610f2790614183565b6000816001600160a01b031663313ce5676040518163ffffffff1660e01b815260040160206040518083038186803b158015612d3e57600080fd5b505afa158015612d52573d6000803e3d6000fd5b505050506040513d601f19601f82011682018060405250810190612d769190613f36565b90506000826001600160a01b031663feaf968c6040518163ffffffff1660e01b815260040160a06040518083038186803b158015612db357600080fd5b505afa158015612dc7573d6000803e3d6000fd5b505050506040513d601f19601f82011682018060405250810190612deb9190613ee7565b5050509150506000811215612e125760405162461bcd60e51b8152600401610f279061414c565b6000612e1e828461357b565b90506000612e2b886135c3565b9050808211612e3a5781612e3c565b805b91506000612e4a83836135e5565b9297509195505050505050915091565b60008381526006602052604090206002808201849055600382015460ff1690811115612e8257fe5b826002811115612e8e57fe5b14612eb45760038101805483919060ff19166001836002811115612eae57fe5b02179055505b837f5f4a9a1b73bee700ca1fb203bb004bcc0a7eca48af3f147b24dcf5bf4bf3c00b8484604051612ee69291906143c1565b60405180910390a250505050565b61ffff8616600090815260016020818152604080842080548251600295821615610100026000190190911694909404601f810184900484028501840190925281845291830182828015612f885780601f10612f5d57610100808354040283529160200191612f88565b820191906000526020600020905b815481529060010190602001808311612f6b57829003601f168201915b50505050509050805160001415612fd05760405162461bcd60e51b81526004018080602001828103825260308152602001806144756030913960400191505060405180910390fd5b7f00000000000000000000000000000000000000000000000000000000000000006001600160a01b031663c58031008389848a8a8a8a6040518863ffffffff1660e01b8152600401808761ffff1681526020018060200180602001866001600160a01b03168152602001856001600160a01b0316815260200180602001848103845289818151815260200191508051906020019080838360005b8381101561308257818101518382015260200161306a565b50505050905090810190601f1680156130af5780820380516001836020036101000a031916815260200191505b5084810383528851815288516020918201918a019080838360005b838110156130e25781810151838201526020016130ca565b50505050905090810190601f16801561310f5780820380516001836020036101000a031916815260200191505b50848103825285518152855160209182019187019080838360005b8381101561314257818101518382015260200161312a565b50505050905090810190601f16801561316f5780820380516001836020036101000a031916815260200191505b5099505050505050505050506000604051808303818588803b15801561319457600080fd5b505af11580156131a8573d6000803e3d6000fd5b505050505050505050505050565b600061114f826001600160a01b031663feb56b156040518163ffffffff1660e01b815260040160206040518083038186803b1580156131f457600080fd5b505afa158015613208573d6000803e3d6000fd5b505050506040513d601f19601f8201168201806040525081019061322c9190613c4c565b836001600160a01b031663fc0c546a6040518163ffffffff1660e01b815260040160206040518083038186803b15801561326557600080fd5b505afa158015613279573d6000803e3d6000fd5b505050506040513d601f19601f8201168201806040525081019061329d9190613891565b6001600160a01b03166370a08231856040518263ffffffff1660e01b81526004016132c89190613fb0565b60206040518083038186803b1580156132e057600080fd5b505afa1580156132f4573d6000803e3d6000fd5b505050506040513d601f19601f82011682018060405250810190611b869190613c4c565b6000826133275750600061114f565b8282028284828161333457fe5b041461114c5760405162461bcd60e51b81526004018080602001828103825260218152602001806144a56021913960400191505060405180910390fd5b60008082116133c7576040805162461bcd60e51b815260206004820152601a60248201527f536166654d6174683a206469766973696f6e206279207a65726f000000000000604482015290519081900360640190fd5b8183816133d057fe5b049392505050565b600383015460009060ff1660028111156133ee57fe5b8260028111156133fa57fe5b1461340757506001611247565b6000600183600281111561341757fe5b146134295766038d7ea4c68000613431565b655af3107a40005b600286015490915060008186116134515761344c8287612c79565b61345b565b61345b8683612c79565b90508115613481578261347a83611b8684670de0b6b3a7640000613318565b1015613486565b600081115b979650505050505050565b600081815260066020526040812081600382015460ff1660028111156134b357fe5b146134c2578060020154611247565b611247816135c3565b60008382101580156134dd5750848311155b6134f95760405162461bcd60e51b8152600401610f27906140ce565b60006135058686612c79565b9050600061352588610ff184611b868d61351f8d8c612c79565b90613318565b9050600061353f89610ff185611b868e61351f8e8c612c79565b9050600061354d8787612c79565b905061356c670de0b6b3a7640000611b866002818561351f8989612c1f565b9b9a5050505050505050505050565b600060ff82166008141561359057508161114f565b600061359d83600861363e565b9050600860ff8416106135b9576135b48482613371565b611d76565b611d768482613318565b60018101548061152a5760405162461bcd60e51b8152600401610f279061426c565b60008061360283611b86670de0b6b3a764000061351f8389612c79565b905066038d7ea4c68000811161361c57600091505061114f565b66354a6ba7a18000811061363457600291505061114f565b600191505061114f565b6000808260ff168460ff16116136565783830361365a565b8284035b60ff16905060148111156136805760405162461bcd60e51b8152600401610f2790614103565b600a0a9392505050565b6040518060c001604052806000815260200160008152602001600081526020016000815260200160008152602001600081525090565b82805482825590600052602060002090600f0160109004810192821561375d5791602002820160005b8382111561372d57833561ffff1683826101000a81548161ffff021916908361ffff16021790555092602001926002016020816001010492830192600103026136e9565b801561375b5782816101000a81549061ffff021916905560020160208160010104928301926001030261372d565b505b506137699291506137e9565b5090565b828054600181600116156101000203166002900490600052602060002090601f0160209004810192826137a3576000855561375d565b82601f106137bc5782800160ff1982351617855561375d565b8280016001018555821561375d579182015b8281111561375d5782358255916020019190600101906137ce565b5b8082111561376957600081556001016137ea565b805161152a81614430565b60008083601f84011261381a578182fd5b50813567ffffffffffffffff811115613831578182fd5b60208301915083602082850101111561384957600080fd5b9250929050565b805161152a8161443e565b805169ffffffffffffffffffff8116811461152a57600080fd5b600060208284031215613886578081fd5b813561114c81614418565b6000602082840312156138a2578081fd5b815161114c81614418565b600080604083850312156138bf578081fd5b82356138ca81614418565b915060208301356138da81614430565b809150509250929050565b600080600080608085870312156138fa578182fd5b845161390581614418565b60208601516040870151606090970151919890975090945092505050565b6000610100808385031215613936578182fd5b6040519081019067ffffffffffffffff8211818310171561395357fe5b81604052613960846137fe565b815261396e60208501613850565b602082015260408401516040820152606084015160608201526080840151608082015260a084015160a082015260c084015160c082015260e084015160e0820152809250505092915050565b6000602082840312156139cb578081fd5b813561114c8161443e565b6000806000604084860312156139ea578283fd5b83356139f58161443e565b9250602084013567ffffffffffffffff811115613a10578283fd5b613a1c86828701613809565b9497909650939450505050565b60008060008060008060808789031215613a41578182fd5b8635613a4c8161443e565b9550602087013567ffffffffffffffff80821115613a68578384fd5b613a748a838b01613809565b9097509550604089013591508082168214613a8d578384fd5b90935060608801359080821115613aa2578384fd5b50613aaf89828a01613809565b979a9699509497509295939492505050565b60008060408385031215613ad3578182fd5b8235613ade8161443e565b915060208301356138da8161443e565b60008060008060808587031215613b03578182fd5b8435613b0e8161443e565b93506020850135613b1e8161443e565b92506040850135613b2e81614418565b9396929550929360600135925050565b600080600060608486031215613b52578081fd5b8335613b5d8161443e565b92506020840135613b6d8161443e565b929592945050506040919091013590565b600080600080600060808688031215613b95578283fd5b8535613ba08161443e565b94506020860135613bb08161443e565b935060408601359250606086013567ffffffffffffffff811115613bd2578182fd5b613bde88828901613809565b969995985093965092949392505050565b600080600060608486031215613c03578081fd5b8351613c0e8161443e565b60208501516040860151919450925060038110613c29578182fd5b809150509250925092565b600060208284031215613c45578081fd5b5035919050565b600060208284031215613c5d578081fd5b5051919050565b60008060408385031215613c76578182fd5b8235915060208301356138da81614418565b60008060008060608587031215613c9d578182fd5b843593506020850135613caf81614418565b9250604085013567ffffffffffffffff80821115613ccb578384fd5b818701915087601f830112613cde578384fd5b813581811115613cec578485fd5b8860208083028501011115613cff578485fd5b95989497505060200194505050565b60008060408385031215613d20578182fd5b50508035926020909101359150565b60008060408385031215613d41578182fd5b505080516020909101519092909150565b600080600060608486031215613d66578081fd5b83359250602084013591506040840135613c2981614430565b600080600080600060a08688031215613d96578283fd5b85359450602086013593506040860135613daf8161443e565b92506060860135613dbf81614418565b949793965091946080013592915050565b60008060008060008060c08789031215613de8578384fd5b86359550602087013594506040870135613e018161443e565b9350606087013592506080870135613e1881614430565b915060a0870135613e2881614430565b809150509295509295509295565b600080600080600080600060e0888a031215613e50578485fd5b87359650602088013595506040880135613e698161443e565b9450606088013593506080880135925060a0880135613e8781614430565b915060c0880135613e9781614430565b8091505092959891949750929550565b60008060008060808587031215613ebc578182fd5b8435935060208501359250604085013591506060850135613edc81614430565b939692955090935050565b600080600080600060a08688031215613efe578283fd5b613f078661385b565b9450602086015193506040860151925060608601519150613f2a6080870161385b565b90509295509295909350565b600060208284031215613f47578081fd5b815160ff8116811461114c578182fd5b60008151808452815b81811015613f7c57602081850181015186830182015201613f60565b81811115613f8d5782602083870101525b50601f01601f19169290920160200192915050565b60038110613fac57fe5b9052565b6001600160a01b0391909116815260200190565b6001600160a01b0385168152602081018490526040810183905260808101613fef6060830184613fa2565b95945050505050565b6020808252825182820181905260009190848201906040850190845b8181101561403457835161ffff1683529284019291840191600101614014565b50909695505050505050565b901515815260200190565b83151581526020810183905260608101611d766040830184613fa2565b60006020825261114c6020830184613f57565b60208082526033908201527f4665654c6962726172793a205f706f6f6c4964312063616e6e6f74206265207460408201527234329039b0b6b29030b9902fb837b7b624b21960691b606082015260800190565b6020808252818101527f4665654c6962726172793a2062616c616e6365206f7574206f6620626f756e64604082015260600190565b60208082526029908201527f4665654c6962726172793a2064696666206f6620646563696d616c7320697320604082015268746f6f206c6172676560b81b606082015260800190565b6020808252601d908201527f4665654c6962726172793a207072696365206973206e65676174697665000000604082015260600190565b6020808252601e908201527f4665654c6962726172793a2070726963652066656564206e6f74207365740000604082015260600190565b60208082526024908201527f4665654c6962726172793a205f62617365507269636553442063616e6e6f74206040820152630626520360e41b606082015260800190565b6020808252601e908201527f4665654c6962726172793a206e6f7420656e6f7567682062616c616e63650000604082015260600190565b6020808252601c908201527f4665654c6962726172793a205f737263506f6f6c496420646570656700000000604082015260600190565b6020808252601e908201527f4665654c6962726172793a2062617365207072696365206e6f74207365740000604082015260600190565b600060c082019050825182526020830151602083015260408301516040830152606083015160608301526080830151608083015260a083015160a083015292915050565b600061ffff87168252602060018060a01b0387168184015260a0604084015261431360a0840187613f57565b85151560608501528381036080850152828554600180821660008114614340576001811461435d57614393565b60028304607f16855260ff19831686860152604085019350614393565b6002830480865261436d8a61440c565b885b8281101561438a5781548882018a015290840190880161436f565b87018801955050505b50919b9a5050505050505050505050565b61ffff929092168252602082015260400190565b90815260200190565b828152604081016112476020830184613fa2565b918252602082015260400190565b8381526020810183905260608101611d766040830184613fa2565b60ff91909116815260200190565b60009081526020902090565b6001600160a01b038116811461442d57600080fd5b50565b801515811461442d57600080fd5b61ffff8116811461442d57600080fdfe4f776e61626c653a206e6577206f776e657220697320746865207a65726f20616464726573734c7a4170703a2064657374696e6174696f6e20636861696e206973206e6f742061207472757374656420736f75726365536166654d6174683a206d756c7469706c69636174696f6e206f766572666c6f774f776e61626c653a2063616c6c6572206973206e6f7420746865206f776e65724c7a4170703a20696e76616c696420736f757263652073656e64696e6720636f6e7472616374a2646970667358221220523ad717684430eaf2aa1f20db31ceb2c6623c3644c95233bb312fd541c10cbd64736f6c63430007060033",
  "devdoc": {
    "kind": "dev",
    "methods": {
      "owner()": {
        "details": "Returns the address of the current owner."
      },
      "renounceOwnership()": {
        "details": "Leaves the contract without owner. It will not be possible to call `onlyOwner` functions anymore. Can only be called by the current owner. NOTE: Renouncing ownership will leave the contract without an owner, thereby removing any functionality that is only available to the owner."
      },
      "transferOwnership(address)": {
        "details": "Transfers ownership of the contract to a new account (`newOwner`). Can only be called by the current owner."
      }
    },
    "version": 1
  },
  "userdoc": {
    "kind": "user",
    "methods": {},
    "version": 1
  },
  "storageLayout": {
    "storage": [
      {
        "astId": 197,
        "contract": "contracts/libraries/StargateFeeLibraryV05.sol:StargateFeeLibraryV05",
        "label": "_owner",
        "offset": 0,
        "slot": "0",
        "type": "t_address"
      },
      {
        "astId": 17066,
        "contract": "contracts/libraries/StargateFeeLibraryV05.sol:StargateFeeLibraryV05",
        "label": "trustedRemoteLookup",
        "offset": 0,
        "slot": "1",
        "type": "t_mapping(t_uint16,t_bytes_storage)"
      },
      {
        "astId": 17072,
        "contract": "contracts/libraries/StargateFeeLibraryV05.sol:StargateFeeLibraryV05",
        "label": "minDstGasLookup",
        "offset": 0,
        "slot": "2",
        "type": "t_mapping(t_uint16,t_mapping(t_uint16,t_uint256))"
      },
      {
        "astId": 17074,
        "contract": "contracts/libraries/StargateFeeLibraryV05.sol:StargateFeeLibraryV05",
        "label": "precrime",
        "offset": 0,
        "slot": "3",
        "type": "t_address"
      },
      {
        "astId": 15295,
        "contract": "contracts/libraries/StargateFeeLibraryV05.sol:StargateFeeLibraryV05",
        "label": "whitelist",
        "offset": 0,
        "slot": "4",
        "type": "t_mapping(t_address,t_bool)"
      },
      {
        "astId": 15299,
        "contract": "contracts/libraries/StargateFeeLibraryV05.sol:StargateFeeLibraryV05",
        "label": "poolIdToLpId",
        "offset": 0,
        "slot": "5",
        "type": "t_mapping(t_uint256,t_uint256)"
      },
      {
        "astId": 15305,
        "contract": "contracts/libraries/StargateFeeLibraryV05.sol:StargateFeeLibraryV05",
        "label": "poolIdToPrice",
        "offset": 0,
        "slot": "6",
        "type": "t_mapping(t_uint256,t_struct(Price)15335_storage)"
      },
      {
        "astId": 15311,
        "contract": "contracts/libraries/StargateFeeLibraryV05.sol:StargateFeeLibraryV05",
        "label": "sameToken",
        "offset": 0,
        "slot": "7",
        "type": "t_mapping(t_uint256,t_mapping(t_uint256,t_bool))"
      },
      {
        "astId": 15315,
        "contract": "contracts/libraries/StargateFeeLibraryV05.sol:StargateFeeLibraryV05",
        "label": "defaultAdapterParams",
        "offset": 0,
        "slot": "8",
        "type": "t_mapping(t_uint16,t_bytes_storage)"
      },
      {
        "astId": 15319,
        "contract": "contracts/libraries/StargateFeeLibraryV05.sol:StargateFeeLibraryV05",
        "label": "stargatePoolIdToLPStaking",
        "offset": 0,
        "slot": "9",
        "type": "t_mapping(t_uint256,t_address)"
      }
    ],
    "types": {
      "t_address": {
        "encoding": "inplace",
        "label": "address",
        "numberOfBytes": "20"
      },
      "t_array(t_uint16)dyn_storage": {
        "base": "t_uint16",
        "encoding": "dynamic_array",
        "label": "uint16[]",
        "numberOfBytes": "32"
      },
      "t_bool": {
        "encoding": "inplace",
        "label": "bool",
        "numberOfBytes": "1"
      },
      "t_bytes_storage": {
        "encoding": "bytes",
        "label": "bytes",
        "numberOfBytes": "32"
      },
      "t_enum(PriceDeviationState)15323": {
        "encoding": "inplace",
        "label": "enum StargateFeeLibraryV05.PriceDeviationState",
        "numberOfBytes": "1"
      },
      "t_mapping(t_address,t_bool)": {
        "encoding": "mapping",
        "key": "t_address",
        "label": "mapping(address => bool)",
        "numberOfBytes": "32",
        "value": "t_bool"
      },
      "t_mapping(t_uint16,t_bytes_storage)": {
        "encoding": "mapping",
        "key": "t_uint16",
        "label": "mapping(uint16 => bytes)",
        "numberOfBytes": "32",
        "value": "t_bytes_storage"
      },
      "t_mapping(t_uint16,t_mapping(t_uint16,t_uint256))": {
        "encoding": "mapping",
        "key": "t_uint16",
        "label": "mapping(uint16 => mapping(uint16 => uint256))",
        "numberOfBytes": "32",
        "value": "t_mapping(t_uint16,t_uint256)"
      },
      "t_mapping(t_uint16,t_uint256)": {
        "encoding": "mapping",
        "key": "t_uint16",
        "label": "mapping(uint16 => uint256)",
        "numberOfBytes": "32",
        "value": "t_uint256"
      },
      "t_mapping(t_uint256,t_address)": {
        "encoding": "mapping",
        "key": "t_uint256",
        "label": "mapping(uint256 => address)",
        "numberOfBytes": "32",
        "value": "t_address"
      },
      "t_mapping(t_uint256,t_bool)": {
        "encoding": "mapping",
        "key": "t_uint256",
        "label": "mapping(uint256 => bool)",
        "numberOfBytes": "32",
        "value": "t_bool"
      },
      "t_mapping(t_uint256,t_mapping(t_uint256,t_bool))": {
        "encoding": "mapping",
        "key": "t_uint256",
        "label": "mapping(uint256 => mapping(uint256 => bool))",
        "numberOfBytes": "32",
        "value": "t_mapping(t_uint256,t_bool)"
      },
      "t_mapping(t_uint256,t_struct(Price)15335_storage)": {
        "encoding": "mapping",
        "key": "t_uint256",
        "label": "mapping(uint256 => struct StargateFeeLibraryV05.Price)",
        "numberOfBytes": "32",
        "value": "t_struct(Price)15335_storage"
      },
      "t_mapping(t_uint256,t_uint256)": {
        "encoding": "mapping",
        "key": "t_uint256",
        "label": "mapping(uint256 => uint256)",
        "numberOfBytes": "32",
        "value": "t_uint256"
      },
      "t_struct(Price)15335_storage": {
        "encoding": "inplace",
        "label": "struct StargateFeeLibraryV05.Price",
        "members": [
          {
            "astId": 15325,
            "contract": "contracts/libraries/StargateFeeLibraryV05.sol:StargateFeeLibraryV05",
            "label": "priceFeedAddress",
            "offset": 0,
            "slot": "0",
            "type": "t_address"
          },
          {
            "astId": 15327,
            "contract": "contracts/libraries/StargateFeeLibraryV05.sol:StargateFeeLibraryV05",
            "label": "basePriceSD",
            "offset": 0,
            "slot": "1",
            "type": "t_uint256"
          },
          {
            "astId": 15329,
            "contract": "contracts/libraries/StargateFeeLibraryV05.sol:StargateFeeLibraryV05",
            "label": "currentPriceSD",
            "offset": 0,
            "slot": "2",
            "type": "t_uint256"
          },
          {
            "astId": 15331,
            "contract": "contracts/libraries/StargateFeeLibraryV05.sol:StargateFeeLibraryV05",
            "label": "state",
            "offset": 0,
            "slot": "3",
            "type": "t_enum(PriceDeviationState)15323"
          },
          {
            "astId": 15334,
            "contract": "contracts/libraries/StargateFeeLibraryV05.sol:StargateFeeLibraryV05",
            "label": "remoteChainIds",
            "offset": 0,
            "slot": "4",
            "type": "t_array(t_uint16)dyn_storage"
          }
        ],
        "numberOfBytes": "160"
      },
      "t_uint16": {
        "encoding": "inplace",
        "label": "uint16",
        "numberOfBytes": "2"
      },
      "t_uint256": {
        "encoding": "inplace",
        "label": "uint256",
        "numberOfBytes": "32"
      }
    }
  }
}