{
  "address": "0xD7D4A5095272f7963A5c8287b416f2fCFB436eeC",
  "abi": [
    {
      "inputs": [
        {
          "internalType": "uint16",
          "name": "_localChainId",
          "type": "uint16"
        },
        {
          "internalType": "address",
          "name": "_stargateRouter",
          "type": "address"
        },
        {
          "internalType": "address",
          "name": "_poolView",
          "type": "address"
        },
        {
          "internalType": "uint64",
          "name": "_maxBatchSizeForSimulate",
          "type": "uint64"
        },
        {
          "internalType": "uint16[]",
          "name": "_remoteChainIds",
          "type": "uint16[]"
        },
        {
          "internalType": "bytes32[]",
          "name": "_remotePrecrimeAddresses",
          "type": "bytes32[]"
        }
      ],
      "stateMutability": "nonpayable",
      "type": "constructor"
    },
    {
      "anonymous": false,
      "inputs": [
        {
          "indexed": true,
          "internalType": "address",
          "name": "previousOwner",
          "type": "address"
        },
        {
          "indexed": true,
          "internalType": "address",
          "name": "newOwner",
          "type": "address"
        }
      ],
      "name": "OwnershipTransferred",
      "type": "event"
    },
    {
      "inputs": [],
      "name": "CODE_MISS_SIMULATE_RESULT",
      "outputs": [
        {
          "internalType": "uint16",
          "name": "",
          "type": "uint16"
        }
      ],
      "stateMutability": "view",
      "type": "function"
    },
    {
      "inputs": [],
      "name": "CODE_PACKETS_OVERSIZE",
      "outputs": [
        {
          "internalType": "uint16",
          "name": "",
          "type": "uint16"
        }
      ],
      "stateMutability": "view",
      "type": "function"
    },
    {
      "inputs": [],
      "name": "CODE_PACKETS_UNSORTED",
      "outputs": [
        {
          "internalType": "uint16",
          "name": "",
          "type": "uint16"
        }
      ],
      "stateMutability": "view",
      "type": "function"
    },
    {
      "inputs": [],
      "name": "CODE_PRECRIME_FAILURE",
      "outputs": [
        {
          "internalType": "uint16",
          "name": "",
          "type": "uint16"
        }
      ],
      "stateMutability": "view",
      "type": "function"
    },
    {
      "inputs": [],
      "name": "CODE_SUCCESS",
      "outputs": [
        {
          "internalType": "uint16",
          "name": "",
          "type": "uint16"
        }
      ],
      "stateMutability": "view",
      "type": "function"
    },
    {
      "inputs": [],
      "name": "CONFIG_VERSION",
      "outputs": [
        {
          "internalType": "uint16",
          "name": "",
          "type": "uint16"
        }
      ],
      "stateMutability": "view",
      "type": "function"
    },
    {
      "inputs": [],
      "name": "PRECRIME_VERSION",
      "outputs": [
        {
          "internalType": "uint16",
          "name": "",
          "type": "uint16"
        }
      ],
      "stateMutability": "view",
      "type": "function"
    },
    {
      "inputs": [
        {
          "components": [
            {
              "internalType": "uint16",
              "name": "srcChainId",
              "type": "uint16"
            },
            {
              "internalType": "bytes32",
              "name": "srcAddress",
              "type": "bytes32"
            },
            {
              "internalType": "uint64",
              "name": "nonce",
              "type": "uint64"
            },
            {
              "internalType": "bytes",
              "name": "payload",
              "type": "bytes"
            }
          ],
          "internalType": "struct IPreCrime.Packet[]",
          "name": "_packets",
          "type": "tuple[]"
        }
      ],
      "name": "_simulateAndRevert",
      "outputs": [],
      "stateMutability": "nonpayable",
      "type": "function"
    },
    {
      "inputs": [
        {
          "components": [
            {
              "internalType": "uint16",
              "name": "srcChainId",
              "type": "uint16"
            },
            {
              "internalType": "bytes32",
              "name": "srcAddress",
              "type": "bytes32"
            },
            {
              "internalType": "uint64",
              "name": "nonce",
              "type": "uint64"
            },
            {
              "internalType": "bytes",
              "name": "payload",
              "type": "bytes"
            }
          ],
          "internalType": "struct IPreCrime.Packet[]",
          "name": "_packets",
          "type": "tuple[]"
        }
      ],
      "name": "getConfig",
      "outputs": [
        {
          "internalType": "bytes",
          "name": "",
          "type": "bytes"
        }
      ],
      "stateMutability": "view",
      "type": "function"
    },
    {
      "inputs": [],
      "name": "inflightBuffer",
      "outputs": [
        {
          "internalType": "uint256",
          "name": "",
          "type": "uint256"
        }
      ],
      "stateMutability": "view",
      "type": "function"
    },
    {
      "inputs": [],
      "name": "localChainId",
      "outputs": [
        {
          "internalType": "uint16",
          "name": "",
          "type": "uint16"
        }
      ],
      "stateMutability": "view",
      "type": "function"
    },
    {
      "inputs": [],
      "name": "maxBatchSize",
      "outputs": [
        {
          "internalType": "uint64",
          "name": "",
          "type": "uint64"
        }
      ],
      "stateMutability": "view",
      "type": "function"
    },
    {
      "inputs": [],
      "name": "owner",
      "outputs": [
        {
          "internalType": "address",
          "name": "",
          "type": "address"
        }
      ],
      "stateMutability": "view",
      "type": "function"
    },
    {
      "inputs": [],
      "name": "poolView",
      "outputs": [
        {
          "internalType": "contract PoolView",
          "name": "",
          "type": "address"
        }
      ],
      "stateMutability": "view",
      "type": "function"
    },
    {
      "inputs": [
        {
          "components": [
            {
              "internalType": "uint16",
              "name": "srcChainId",
              "type": "uint16"
            },
            {
              "internalType": "bytes32",
              "name": "srcAddress",
              "type": "bytes32"
            },
            {
              "internalType": "uint64",
              "name": "nonce",
              "type": "uint64"
            },
            {
              "internalType": "bytes",
              "name": "payload",
              "type": "bytes"
            }
          ],
          "internalType": "struct IPreCrime.Packet[]",
          "name": "_packets",
          "type": "tuple[]"
        },
        {
          "internalType": "bytes[]",
          "name": "_simulation",
          "type": "bytes[]"
        }
      ],
      "name": "precrime",
      "outputs": [
        {
          "internalType": "uint16",
          "name": "code",
          "type": "uint16"
        },
        {
          "internalType": "bytes",
          "name": "reason",
          "type": "bytes"
        }
      ],
      "stateMutability": "view",
      "type": "function"
    },
    {
      "inputs": [
        {
          "internalType": "uint256",
          "name": "",
          "type": "uint256"
        }
      ],
      "name": "remoteChainIds",
      "outputs": [
        {
          "internalType": "uint16",
          "name": "",
          "type": "uint16"
        }
      ],
      "stateMutability": "view",
      "type": "function"
    },
    {
      "inputs": [
        {
          "internalType": "uint256",
          "name": "",
          "type": "uint256"
        }
      ],
      "name": "remotePrecrimeAddresses",
      "outputs": [
        {
          "internalType": "bytes32",
          "name": "",
          "type": "bytes32"
        }
      ],
      "stateMutability": "view",
      "type": "function"
    },
    {
      "inputs": [],
      "name": "renounceOwnership",
      "outputs": [],
      "stateMutability": "nonpayable",
      "type": "function"
    },
    {
      "inputs": [
        {
          "internalType": "uint256",
          "name": "_inflightBuffer",
          "type": "uint256"
        }
      ],
      "name": "setInflightBuffer",
      "outputs": [],
      "stateMutability": "nonpayable",
      "type": "function"
    },
    {
      "inputs": [
        {
          "internalType": "uint64",
          "name": "_size",
          "type": "uint64"
        }
      ],
      "name": "setMaxBatchSize",
      "outputs": [],
      "stateMutability": "nonpayable",
      "type": "function"
    },
    {
      "inputs": [
        {
          "internalType": "address",
          "name": "_poolView",
          "type": "address"
        }
      ],
      "name": "setPoolView",
      "outputs": [],
      "stateMutability": "nonpayable",
      "type": "function"
    },
    {
      "inputs": [
        {
          "internalType": "uint16[]",
          "name": "_remoteChainIds",
          "type": "uint16[]"
        },
        {
          "internalType": "bytes32[]",
          "name": "_remotePrecrimeAddresses",
          "type": "bytes32[]"
        }
      ],
      "name": "setRemotePrecrimeAddresses",
      "outputs": [],
      "stateMutability": "nonpayable",
      "type": "function"
    },
    {
      "inputs": [
        {
          "internalType": "address",
          "name": "_stargateRouter",
          "type": "address"
        }
      ],
      "name": "setStargateRouter",
      "outputs": [],
      "stateMutability": "nonpayable",
      "type": "function"
    },
    {
      "inputs": [
        {
          "components": [
            {
              "internalType": "uint16",
              "name": "srcChainId",
              "type": "uint16"
            },
            {
              "internalType": "bytes32",
              "name": "srcAddress",
              "type": "bytes32"
            },
            {
              "internalType": "uint64",
              "name": "nonce",
              "type": "uint64"
            },
            {
              "internalType": "bytes",
              "name": "payload",
              "type": "bytes"
            }
          ],
          "internalType": "struct IPreCrime.Packet[]",
          "name": "_packets",
          "type": "tuple[]"
        }
      ],
      "name": "simulate",
      "outputs": [
        {
          "internalType": "uint16",
          "name": "code",
          "type": "uint16"
        },
        {
          "internalType": "bytes",
          "name": "data",
          "type": "bytes"
        }
      ],
      "stateMutability": "view",
      "type": "function"
    },
    {
      "inputs": [],
      "name": "stargateRouter",
      "outputs": [
        {
          "internalType": "contract Router",
          "name": "",
          "type": "address"
        }
      ],
      "stateMutability": "view",
      "type": "function"
    },
    {
      "inputs": [
        {
          "internalType": "address",
          "name": "newOwner",
          "type": "address"
        }
      ],
      "name": "transferOwnership",
      "outputs": [],
      "stateMutability": "nonpayable",
      "type": "function"
    },
    {
      "inputs": [],
      "name": "version",
      "outputs": [
        {
          "internalType": "uint16",
          "name": "",
          "type": "uint16"
        }
      ],
      "stateMutability": "pure",
      "type": "function"
    }
  ],
  "transactionHash": "0x2e086572e6972d54a1972e768439e3d48bc9b5ea1477aab372e2acd05edb4a99",
  "args": [
    151,
    "0x2F6F07CDcf3588944Bf4C42aC74ff24bF56e7590",
    "0x4d97186cD94047E285B7cb78fa63C93E69e7AaD0",
    50,
    [],
    []
  ],
  "numDeployments": 1,
  "solcInputHash": "c740851f1544f0c8f3bb51a95642bd99",
  "bytecode": "0x60806040523480156200001157600080fd5b506040516200481038038062004810833981016040819052620000349162000503565b85600062000041620000e4565b600080546001600160a01b0319166001600160a01b0383169081178255604051929350917f8be0079c531659141344cd1fd0a4f28419497f9722a3daafe3b4186f6b6457e0908290a3506000805461ffff909216600160a01b0261ffff60a01b19909216919091179055620000b685620000e8565b620000c18462000172565b620000cc83620001fc565b620000d8828262000286565b5050505050506200069a565b3390565b620000f2620000e4565b6001600160a01b0316620001056200034b565b6001600160a01b03161462000150576040805162461bcd60e51b81526020600482018190526024820152600080516020620047f0833981519152604482015290519081900360640190fd5b600180546001600160a01b0319166001600160a01b0392909216919091179055565b6200017c620000e4565b6001600160a01b03166200018f6200034b565b6001600160a01b031614620001da576040805162461bcd60e51b81526020600482018190526024820152600080516020620047f0833981519152604482015290519081900360640190fd5b600280546001600160a01b0319166001600160a01b0392909216919091179055565b62000206620000e4565b6001600160a01b0316620002196200034b565b6001600160a01b03161462000264576040805162461bcd60e51b81526020600482018190526024820152600080516020620047f0833981519152604482015290519081900360640190fd5b600580546001600160401b0319166001600160401b0392909216919091179055565b62000290620000e4565b6001600160a01b0316620002a36200034b565b6001600160a01b031614620002ee576040805162461bcd60e51b81526020600482018190526024820152600080516020620047f0833981519152604482015290519081900360640190fd5b80518251146200031b5760405162461bcd60e51b8152600401620003129062000621565b60405180910390fd5b8151620003309060039060208501906200035a565b508051620003469060049060208401906200040a565b505050565b6000546001600160a01b031690565b82805482825590600052602060002090600f01601090048101928215620003f85791602002820160005b83821115620003c657835183826101000a81548161ffff021916908361ffff160217905550926020019260020160208160010104928301926001030262000384565b8015620003f65782816101000a81549061ffff0219169055600201602081600101049283019260010302620003c6565b505b506200040692915062000448565b5090565b828054828255906000526020600020908101928215620003f8579160200282015b82811115620003f85782518255916020019190600101906200042b565b5b8082111562000406576000815560010162000449565b80516001600160a01b03811681146200047757600080fd5b919050565b600082601f8301126200048d578081fd5b81516020620004a6620004a0836200067c565b62000658565b8281528181019085830183850287018401881015620004c3578586fd5b855b85811015620004e357815184529284019290840190600101620004c5565b5090979650505050505050565b805161ffff811681146200047757600080fd5b60008060008060008060c087890312156200051c578182fd5b6200052787620004f0565b95506020620005388189016200045f565b955062000548604089016200045f565b60608901519095506001600160401b03808216821462000566578485fd5b60808a0151919550808211156200057b578485fd5b818a0191508a601f8301126200058f578485fd5b8151620005a0620004a0826200067c565b81815284810190848601868402860187018f1015620005bd578889fd5b8895505b83861015620005ea57620005d581620004f0565b835260019590950194918601918601620005c1565b5060a08d0151909750945050508083111562000604578384fd5b50506200061489828a016200047c565b9150509295509295509295565b6020808252601e908201527f53746172676174655072656372696d653a20696e76616c69642073697a650000604082015260600190565b6040518181016001600160401b03811182821017156200067457fe5b604052919050565b60006001600160401b038211156200069057fe5b5060209081020190565b61414680620006aa6000396000f3fe608060405234801561001057600080fd5b50600436106101a95760003560e01c8063715018a6116100f9578063bb96836811610097578063ec67df3011610071578063ec67df301461030d578063f0099e2a1461032e578063f2fde38b14610341578063f95d1404146101f1576101a9565b8063bb968368146102ea578063c6be4b9b146102fd578063e5bc030314610305576101a9565b80639590dc9d116100d35780639590dc9d1461029c5780639eb51f5b146102bc578063a9e56f3c146102cf578063afea44ef146102d7576101a9565b8063715018a61461026c5780638971efff146102745780638da5cb5b14610287576101a9565b8063472641c11161016657806351b78b471161014057806351b78b471461024157806354fd4d50146102545780635b056da51461025c5780636eb3d2a514610264576101a9565b8063472641c1146101f15780634979e3711461020e5780634e0ab1ab14610221576101a9565b80630638fb64146101ae5780630e735a63146101cc57806317c9efb0146101d45780632913daa0146101dc57806334e30097146101f157806337de4ba1146101f9575b600080fd5b6101b6610354565b6040516101c39190613e95565b60405180910390f35b6101b6610359565b6101b661035e565b6101e4610363565b6040516101c39190613ec1565b6101b6610372565b61020c610207366004613193565b610377565b005b61020c61021c36600461315b565b610403565b61023461022f366004613535565b610487565b6040516101c39190613b73565b61020c61024f36600461315b565b6104a8565b6101b661052c565b6101b6610531565b610234610542565b61020c610548565b61020c610282366004613535565b6105f4565b61028f61065b565b6040516101c39190613a6f565b6102af6102aa366004613193565b61066a565b6040516101c39190613b7c565b6101b66102ca366004613535565b6106b9565b61028f6106f1565b61020c6102e5366004613565565b610700565b61020c6102f836600461323a565b610785565b6101b6610834565b61028f610839565b61032061031b3660046131d2565b610848565b6040516101c3929190613ea4565b61032061033c366004613193565b61099d565b61020c61034f36600461315b565b610c63565b600281565b600381565b600081565b6005546001600160401b031681565b600181565b33301461038357600080fd5b6000806103908484610d65565b91509150604051806040016040528060138152602001722f39b4b6bab630ba34b7b7103932b9bab63a2f60691b81525082826040516020016103d4939291906138c0565b60408051601f198184030181529082905262461bcd60e51b82526103fa91600401613b7c565b60405180910390fd5b61040b610e1e565b6001600160a01b031661041c61065b565b6001600160a01b031614610465576040805162461bcd60e51b815260206004820181905260248201526000805160206140f1833981519152604482015290519081900360640190fd5b600280546001600160a01b0319166001600160a01b0392909216919091179055565b6004818154811061049757600080fd5b600091825260209091200154905081565b6104b0610e1e565b6001600160a01b03166104c161065b565b6001600160a01b03161461050a576040805162461bcd60e51b815260206004820181905260248201526000805160206140f1833981519152604482015290519081900360640190fd5b600180546001600160a01b0319166001600160a01b0392909216919091179055565b600190565b600054600160a01b900461ffff1681565b60065481565b610550610e1e565b6001600160a01b031661056161065b565b6001600160a01b0316146105aa576040805162461bcd60e51b815260206004820181905260248201526000805160206140f1833981519152604482015290519081900360640190fd5b600080546040516001600160a01b03909116907f8be0079c531659141344cd1fd0a4f28419497f9722a3daafe3b4186f6b6457e0908390a3600080546001600160a01b0319169055565b6105fc610e1e565b6001600160a01b031661060d61065b565b6001600160a01b031614610656576040805162461bcd60e51b815260206004820181905260248201526000805160206140f1833981519152604482015290519081900360640190fd5b600655565b6000546001600160a01b031690565b60606000806106798585610e22565b9150915060016106876110c1565b8351848460405160200161069f9594939291906139e3565b604051602081830303815290604052925050505b92915050565b600381815481106106c957600080fd5b9060005260206000209060109182820401919006600202915054906101000a900461ffff1681565b6001546001600160a01b031681565b610708610e1e565b6001600160a01b031661071961065b565b6001600160a01b031614610762576040805162461bcd60e51b815260206004820181905260248201526000805160206140f1833981519152604482015290519081900360640190fd5b6005805467ffffffffffffffff19166001600160401b0392909216919091179055565b61078d610e1e565b6001600160a01b031661079e61065b565b6001600160a01b0316146107e7576040805162461bcd60e51b815260206004820181905260248201526000805160206140f1833981519152604482015290519081900360640190fd5b80518251146108085760405162461bcd60e51b81526004016103fa90613bdc565b815161081b906003906020850190612b68565b50805161082f906004906020840190612c11565b505050565b600481565b6002546001600160a01b031681565b6000606081836001600160401b038111801561086357600080fd5b5060405190808252806020026020018201604052801561089757816020015b60608152602001906001900390816108825790505b5090506000846001600160401b03811180156108b257600080fd5b506040519080825280602002602001820160405280156108dc578160200160208202803683370190505b50905060005b85811015610961576000808888848181106108f957fe5b905060200281019061090b9190613ed5565b81019061091891906134f2565b915091508184848151811061092957fe5b602002602001019061ffff16908161ffff16815250508085848151811061094c57fe5b602090810291909101015250506001016108e2565b5061096d8888836110d0565b909450925061ffff841615610983575050610994565b61098c82611252565b909450925050505b94509492505050565b6000606060006109ab6110c1565b90506001600160401b0381168411156109fb5760026109d2826001600160401b0316611486565b6040516020016109e29190613907565b6040516020818303038152906040529250925050610c5c565b8315610b445760008080805b87811015610b3f576000898983818110610a1d57fe5b9050602002810190610a2f9190613f19565b610a3890613fdd565b90508461ffff16816000015161ffff16141580610a59575083816020015114155b15610ada57805160208201516040830151919650945092506000610a7c82611562565b6001019050806001600160401b0316846001600160401b031614610ad4576003610aa584611486565b604051602001610ab5919061394c565b6040516020818303038152906040529850985050505050505050610c5c565b50610b36565b826001019250826001600160401b031681604001516001600160401b031614610b36576003610b0883611486565b604051602001610b18919061399e565b60405160208183030381529060405297509750505050505050610c5c565b50600101610a07565b505050505b600080306001600160a01b03166337de4ba160e01b8888604051602401610b6c929190613a83565b60408051601f198184030181529181526020820180516001600160e01b03166001600160e01b0319909416939093179092529051610baa91906138a4565b600060405180830381855afa9150503d8060008114610be5576040519150601f19603f3d011682016040523d82523d6000602084013e610bea565b606091505b50915091508115610c0f578060405162461bcd60e51b81526004016103fa9190613b7c565b610c1881611782565b909550935061ffff8516610c5857600054604051610c4691600160a01b900461ffff16908690602001613ea4565b60405160208183030381529060405293505b5050505b9250929050565b610c6b610e1e565b6001600160a01b0316610c7c61065b565b6001600160a01b031614610cc5576040805162461bcd60e51b815260206004820181905260248201526000805160206140f1833981519152604482015290519081900360640190fd5b6001600160a01b038116610d0a5760405162461bcd60e51b81526004018080602001828103825260268152602001806140936026913960400191505060405180910390fd5b600080546040516001600160a01b03808516939216917f8be0079c531659141344cd1fd0a4f28419497f9722a3daafe3b4186f6b6457e091a3600080546001600160a01b0319166001600160a01b0392909216919091179055565b60006060600080610d7461187c565b9150915060005b85811015610dd0576000878783818110610d9157fe5b9050602002810190610da39190613f19565b610dac90613fdd565b9050610db781611b6d565b15610dc757610dc7848483611ce0565b50600101610d7b565b5060408051808201825260008054600160a01b900461ffff168252602080830185905292519092610e02929101613dc2565b6040516020818303038152906040529350935050509250929050565b3390565b60608082610f03576003600481805480602002602001604051908101604052809291908181526020018280548015610ea157602002820191906000526020600020906000905b82829054906101000a900461ffff1661ffff1681526020019060020190602082600101049283019260010382029150808411610e685790505b5050505050915080805480602002602001604051908101604052809291908181526020018280548015610ef357602002820191906000526020600020905b815481526020019060010190808311610edf575b5050505050905091509150610c5c565b6000610f17610f128587613f8f565b611d67565b905061ffff8116156110b9578061ffff166001600160401b0381118015610f3d57600080fd5b50604051908082528060200260200182016040528015610f67578160200160208202803683370190505b50925060008161ffff166001600160401b0381118015610f8657600080fd5b50604051908082528060200260200182016040528015610fb0578160200160208202803683370190505b50925060005b60035461ffff82161015610c585760005b61ffff81168711156110b057600088888361ffff16818110610fe557fe5b9050602002810190610ff79190613f19565b6110059060208101906134d6565b90508061ffff1660038461ffff168154811061101d57fe5b60009182526020909120601082040154600f9091166002026101000a900461ffff1614156110a7578087858151811061105257fe5b602002602001019061ffff16908161ffff168152505060048361ffff168154811061107957fe5b906000526020600020015486858151811061109057fe5b6020908102919091010152506001909201916110b0565b50600101610fc7565b50600101610fb6565b509250929050565b6005546001600160401b031690565b60006060831561119f5760006110e68686610e22565b50905060005b815181101561119c576000805b86518110156111495783838151811061110e57fe5b602002602001015161ffff1687828151811061112657fe5b602002602001015161ffff1614156111415760019150611149565b6001016110f9565b50806111935760046040518060400160405280602081526020017f6d697373696e672072656d6f74652073696d756c6174696f6e20726573756c748152509450945050505061124a565b506001016110ec565b50505b6000805b84518110156111f057600060149054906101000a900461ffff1661ffff168582815181106111cd57fe5b602002602001015161ffff1614156111e857600191506111f0565b6001016111a3565b508061123557505060408051808201909152601f81527f6d697373696e67206c6f63616c2073696d756c6174696f6e20726573756c740060208201526004915061124a565b50506040805160208101909152600080825291505b935093915050565b6000606061125e612c4c565b600084516001600160401b038111801561127757600080fd5b506040519080825280602002602001820160405280156112b157816020015b61129e612c4c565b8152602001906001900390816112965790505b50905060005b8551811015611354578581815181106112cc57fe5b60200260200101518060200190518101906112e791906133fa565b8282815181106112f357fe5b6020026020010181905250600060149054906101000a900461ffff1661ffff1682828151811061131f57fe5b60200260200101516000015161ffff16141561134c5781818151811061134157fe5b602002602001015192505b6001016112b7565b5060005b8260200151518110156114675760008360200151828151811061137757fe5b6020026020010151905061138a81611e04565b909650945061ffff8616156113a25750505050611481565b60005b81602001515181101561145d576000826020015182815181106113c457fe5b602002602001015190508060c00151156114545760006113ed8683600001518460200151611ef2565b90506113f881611e04565b909950975061ffff8916156114135750505050505050611481565b60006114288289600001518760000151611f73565b5090506114358382612021565b909a50985061ffff8a1615611451575050505050505050611481565b50505b506001016113a5565b5050600101611358565b506000604051806020016040528060008152509350935050505b915091565b6060816114ab57506040805180820190915260018152600360fc1b602082015261155d565b8160005b81156114c357600101600a820491506114af565b6000816001600160401b03811180156114db57600080fd5b506040519080825280601f01601f191660200182016040528015611506576020820181803683370190505b50859350905060001982015b831561155757600a840660300160f81b8282806001900393508151811061153557fe5b60200101906001600160f81b031916908160001a905350600a84049350611512565b50925050505b919050565b602080820151600154604080516373c6754960e11b81529051600094859385936001600160a01b039091169263e78cea9292600480840193919291829003018186803b1580156115b157600080fd5b505afa1580156115c5573d6000803e3d6000fd5b505050506040513d601f19601f820116820180604052508101906115e99190613177565b6040516020016115fa92919061387d565b60408051601f198184030181528282526001546373c6754960e11b845291519093506000926001600160a01b039092169163e78cea92916004808301926020929190829003018186803b15801561165057600080fd5b505afa158015611664573d6000803e3d6000fd5b505050506040513d601f19601f820116820180604052508101906116889190613177565b6001600160a01b03166307968db16040518163ffffffff1660e01b815260040160206040518083038186803b1580156116c057600080fd5b505afa1580156116d4573d6000803e3d6000fd5b505050506040513d601f19601f820116820180604052508101906116f89190613177565b8551604051630fdc07c760e41b81529192506001600160a01b0383169163fdc07c7091611729918690600401613ea4565b60206040518083038186803b15801561174157600080fd5b505afa158015611755573d6000803e3d6000fd5b505050506040513d601f19601f820116820180604052508101906117799190613581565b95945050505050565b600060606004835110156117aa578260405162461bcd60e51b81526004016103fa9190613b7c565b6004830190506000818060200190518101906117c69190613333565b905060006117d382612094565b9050600061180b604051806040016040528060138152602001722f39b4b6bab630ba34b7b7103932b9bab63a2f60691b815250612094565b905061181782826120b9565b611835578560405162461bcd60e51b81526004016103fa9190613b7c565b600061184961184484846120fd565b612170565b90506118568160006121de565b9550611871600280835103836122409092919063ffffffff16565b945050505050915091565b6060806000600160009054906101000a90046001600160a01b03166001600160a01b031663c45a01556040518163ffffffff1660e01b815260040160206040518083038186803b1580156118cf57600080fd5b505afa1580156118e3573d6000803e3d6000fd5b505050506040513d601f19601f820116820180604052508101906119079190613177565b90506000816001600160a01b031663efde4e646040518163ffffffff1660e01b815260040160206040518083038186803b15801561194457600080fd5b505afa158015611958573d6000803e3d6000fd5b505050506040513d601f19601f8201168201806040525081019061197c919061354d565b90506000816001600160401b038111801561199657600080fd5b506040519080825280602002602001820160405280156119d057816020015b6119bd612c64565b8152602001906001900390816119b55790505b5090506000826001600160401b03811180156119eb57600080fd5b50604051908082528060200260200182016040528015611a15578160200160208202803683370190505b50905060005b83811015611b62576040516341d1de9760e01b81526000906001600160a01b038716906341d1de9790611a52908590600401613b73565b60206040518083038186803b158015611a6a57600080fd5b505afa158015611a7e573d6000803e3d6000fd5b505050506040513d601f19601f82011682018060405250810190611aa29190613177565b905080838381518110611ab157fe5b6001600160a01b03928316602091820292909201015260025460405163ec04205b60e01b815291169063ec04205b90611aee908490600401613a6f565b60006040518083038186803b158015611b0657600080fd5b505afa158015611b1a573d6000803e3d6000fd5b505050506040513d6000823e601f3d908101601f19168201604052611b4291908101906133c8565b848381518110611b4e57fe5b602090810291909101015250600101611a1b565b509450925050509091565b600080600160009054906101000a90046001600160a01b03166001600160a01b031663e78cea926040518163ffffffff1660e01b815260040160206040518083038186803b158015611bbe57600080fd5b505afa158015611bd2573d6000803e3d6000fd5b505050506040513d601f19601f82011682018060405250810190611bf69190613177565b835160405163471daeb560e11b81526001600160a01b039290921691638e3b5d6a91611c2491600401613e95565b60006040518083038186803b158015611c3c57600080fd5b505afa158015611c50573d6000803e3d6000fd5b505050506040513d6000823e601f3d908101601f19168201604052611c7891908101906132f9565b9050601481511115611c9b578051611c9890829060009060131901612240565b90505b602081511115611cbd5760405162461bcd60e51b81526004016103fa90613c13565b8051908101516020840151600019600890930260020a9290920116149050919050565b606081015160208101519060ff821660011415611d0c57611d078585856000015184612357565b611d60565b60ff821660021415611d2857611d07858585600001518461250c565b60ff821660031415611d4457611d078585856000015184612611565b60ff821660041415611d6057611d6085858560000151846127cb565b5050505050565b6000805b60035461ffff82161015611dfe5760005b83518161ffff161015611df557838161ffff1681518110611d9957fe5b60200260200101516000015161ffff1660038361ffff1681548110611dba57fe5b60009182526020909120601082040154600f9091166002026101000a900461ffff161415611ded57600190920191611df5565b600101611d7c565b50600101611d6b565b50919050565b604081015160800151600090606090825b846020015151811015611e6e57600085602001518281518110611e3457fe5b60200260200101519050611e638160800151611e5d83606001518661295890919063ffffffff16565b90612958565b925050600101611e15565b50604080850151908101516020820151606083015160a090930151600093611ea59392611e9f9290918391906129b2565b906129b2565b905080821115611ed55760016040518060600160405280603c8152602001614057603c9139935093505050611481565b600060405180602001604052806000815250935093505050915091565b611efa612c64565b6000611f068585612a0f565b905060005b816020015151811015611f5357600082602001518281518110611f2a57fe5b602002602001015190508481600001511415611f4a579250611f6c915050565b50600101611f0b565b5060405162461bcd60e51b81526004016103fa90613cde565b9392505050565b611f7b612c8a565b6000805b856020015151811015612008578461ffff1686602001518281518110611fa157fe5b60200260200101516000015161ffff16148015611fd857508386602001518281518110611fca57fe5b602002602001015160200151145b156120005785602001518181518110611fed57fe5b602002602001015181925092505061124a565b600101611f7f565b5060405162461bcd60e51b81526004016103fa90613c98565b600060608260400151612050600654611e5d620f424088606001518161204357fe5b60608a0151919004612958565b101561207a5760016040518060600160405280603881526020016140b96038913991509150610c5c565b505060408051602081019091526000808252909250929050565b61209c612ccd565b506040805180820190915281518152602082810190820152919050565b8051825160009111156120ce575060006106b3565b8160200151836020015114156120e6575060016106b3565b508051602092830151929091015181902091201490565b612105612ccd565b8151835110156121165750816106b3565b602080830151908401516001911461213d5750815160208481015190840151829020919020145b80156121685782518451612150916129b2565b84528251602085015161216291612958565b60208501525b509192915050565b6060600082600001516001600160401b038111801561218e57600080fd5b506040519080825280601f01601f1916602001820160405280156121b9576020820181803683370190505b50905060006020820190506121d78185602001518660000151612a7a565b5092915050565b60006121eb826002612958565b83511015612237576040805162461bcd60e51b8152602060048201526014602482015273746f55696e7431365f6f75744f66426f756e647360601b604482015290519081900360640190fd5b50016002015190565b60608161224e81601f612958565b1015612292576040805162461bcd60e51b815260206004820152600e60248201526d736c6963655f6f766572666c6f7760901b604482015290519081900360640190fd5b61229c8383612958565b845110156122e5576040805162461bcd60e51b8152602060048201526011602482015270736c6963655f6f75744f66426f756e647360781b604482015290519081900360640190fd5b606082158015612304576040519150600082526020820160405261234e565b6040519150601f8416801560200281840101858101878315602002848b0101015b8183101561233d578051835260209283019201612325565b5050858452601f01601f1916604052505b50949350505050565b6000806000808480602001905181019061237191906136df565b50509550955050945094505060008061238b8a8a87612ad3565b925092505060008061239e848b8a611f73565b600254604051636ab202d360e01b81529294509092506001600160a01b031690636ab202d3906123d49085908a90600401613d24565b60e06040518083038186803b1580156123ec57600080fd5b505afa158015612400573d6000803e3d6000fd5b505050506040513d601f19601f820116820180604052508101906124249190613378565b600254604080870151905163ea8683cd60e01b81529294506001600160a01b039091169163ea8683cd9161245e9186908a90600401613d68565b6101a06040518083038186803b15801561247757600080fd5b505afa9250505080156124a7575060408051601f3d908101601f191682019092526124a491810190613393565b60015b6124b0576124fe565b818d86815181106124bd57fe5b602002602001015160400181905250808d86815181106124d957fe5b60200260200101516020015184815181106124f057fe5b602002602001018190525050505b505050505050505050505050565b600080600083806020019051810190612525919061359d565b9350935093505060008061253a898986612ad3565b925092505060008061254d848a89611f73565b600254604051636ab202d360e01b81529294509092506001600160a01b031690636ab202d3906125839085908990600401613d24565b60e06040518083038186803b15801561259b57600080fd5b505afa1580156125af573d6000803e3d6000fd5b505050506040513d601f19601f820116820180604052508101906125d39190613378565b9150818a84815181106125e257fe5b60200260200101516020015182815181106125f957fe5b60200260200101819052505050505050505050505050565b60008060008060008580602001905181019061262d919061365b565b5095509550955095509550506000806126478b8b88612ad3565b925092505060008061265a848c8b611f73565b600254604051636ab202d360e01b81529294509092506001600160a01b031690636ab202d3906126909085908b90600401613d24565b60e06040518083038186803b1580156126a857600080fd5b505afa1580156126bc573d6000803e3d6000fd5b505050506040513d601f19601f820116820180604052508101906126e09190613378565b600254604080870151905163072666b160e41b81529294506001600160a01b03909116916372666b109161271c9186908b908b90600401613d92565b6101a06040518083038186803b15801561273557600080fd5b505afa925050508015612765575060408051601f3d908101601f1916820190925261276291810190613393565b60015b61276e576127bc565b818e868151811061277b57fe5b602002602001015160400181905250808e868151811061279757fe5b60200260200101516020015184815181106127ae57fe5b602002602001018190525050505b50505050505050505050505050565b600080600080848060200190518101906127e591906135e3565b509450945094509450506000806127fd8a8a87612ad3565b9250925050600080612810848b8a611f73565b600254604051636ab202d360e01b81529294509092506001600160a01b031690636ab202d3906128469085908a90600401613d24565b60e06040518083038186803b15801561285e57600080fd5b505afa158015612872573d6000803e3d6000fd5b505050506040513d601f19601f820116820180604052508101906128969190613378565b6002546040516317b597d960e01b81529193506001600160a01b0316906317b597d9906128c99085908990600401613d4c565b60e06040518083038186803b1580156128e157600080fd5b505afa925050508015612911575060408051601f3d908101601f1916820190925261290e91810190613378565b60015b61291a576124fe565b808c858151811061292757fe5b602002602001015160200151838151811061293e57fe5b602002602001018190525050505050505050505050505050565b600082820183811015611f6c576040805162461bcd60e51b815260206004820152601b60248201527f536166654d6174683a206164646974696f6e206f766572666c6f770000000000604482015290519081900360640190fd5b600082821115612a09576040805162461bcd60e51b815260206004820152601e60248201527f536166654d6174683a207375627472616374696f6e206f766572666c6f770000604482015290519081900360640190fd5b50900390565b612a17612c4c565b60005b8351811015612a61576000848281518110612a3157fe5b602002602001015190508361ffff16816000015161ffff161415612a585791506106b39050565b50600101612a1a565b5060405162461bcd60e51b81526004016103fa90613b8f565b60208110612aa95781518352612a91836020612958565b9250612a9e826020612958565b9150601f1901612a7a565b6000198115612ac0576001826020036101000a0390505b9151835183169219169190911790915250565b6000612add612c64565b6000805b8551811015612b465784868281518110612af757fe5b6020026020010151600001511415612b3e57868181518110612b1557fe5b6020026020010151868281518110612b2957fe5b60200260200101518293509350935050612b5f565b600101612ae1565b5060405162461bcd60e51b81526004016103fa90613c55565b93509350939050565b82805482825590600052602060002090600f01601090048101928215612c015791602002820160005b83821115612bd157835183826101000a81548161ffff021916908361ffff1602179055509260200192600201602081600101049283019260010302612b91565b8015612bff5782816101000a81549061ffff0219169055600201602081600101049283019260010302612bd1565b505b50612c0d929150612ce7565b5090565b828054828255906000526020600020908101928215612c01579160200282015b82811115612c01578251825591602001919060010190612c31565b60408051808201909152600081526060602082015290565b60405180606001604052806000815260200160608152602001612c85612cfc565b905290565b6040518060e00160405280600061ffff16815260200160008152602001600081526020016000815260200160008152602001600081526020016000151581525090565b604051806040016040528060008152602001600081525090565b5b80821115612c0d5760008155600101612ce8565b6040518060c001604052806000815260200160008152602001600081526020016000815260200160008152602001600081525090565b6000612d45612d4084613f6e565b613f2e565b9050828152838383011115612d5957600080fd5b611f6c836020830184613fe9565b600082601f830112612d77578081fd5b81356020612d87612d4083613f51565b8281528181019085830183850287018401881015612da3578586fd5b855b85811015612dc157813584529284019290840190600101612da5565b5090979650505050505050565b60008083601f840112612ddf578182fd5b5081356001600160401b03811115612df5578182fd5b6020830191508360208083028501011115610c5c57600080fd5b8051801515811461155d57600080fd5b600082601f830112612e2f578081fd5b8135612e3d612d4082613f6e565b818152846020838601011115612e51578283fd5b816020850160208301379081016020019190915292915050565b600082601f830112612e7b578081fd5b611f6c83835160208501612d32565b600060e08284031215612e9b578081fd5b60405160e081018181106001600160401b0382111715612eb757fe5b604052905080612ec68361313f565b81526020830151602082015260408301516040820152606083015160608201526080830151608082015260a083015160a0820152612f0660c08401612e0f565b60c08201525092915050565b600060408284031215612f23578081fd5b604051604081018181106001600160401b0382111715612f3f57fe5b604052825181526020928301519281019290925250919050565b600060808284031215612f6a578081fd5b604051608081016001600160401b038282108183111715612f8757fe5b8160405282935084359150612f9b82614031565b8183526020850135602084015260408501359150612fb882614041565b8160408401526060850135915080821115612fd257600080fd5b50612fdf85828601612e1f565b6060830152505092915050565b600060c08284031215612ffd578081fd5b60405160c081018181106001600160401b038211171561301957fe5b8060405250809150825181526020830151602082015260408301516040820152606083015160608201526080830151608082015260a083015160a08201525092915050565b60006101008284031215613070578081fd5b604051606081016001600160401b03828210818311171561308d57fe5b81604052829350845183526020915081850151818111156130ad57600080fd5b85019050601f810186136130c057600080fd5b80516130ce612d4082613f51565b8181528381019083850160e0808502860187018b10156130ed57600080fd5b600095505b8486101561311a576131048b83612e8a565b84526001959095019492860192908101906130f2565b5050808587015250505050506131338460408501612fec565b60408201525092915050565b805161155d81614031565b805160ff8116811461155d57600080fd5b60006020828403121561316c578081fd5b8135611f6c81614019565b600060208284031215613188578081fd5b8151611f6c81614019565b600080602083850312156131a5578081fd5b82356001600160401b038111156131ba578182fd5b6131c685828601612dce565b90969095509350505050565b600080600080604085870312156131e7578182fd5b84356001600160401b03808211156131fd578384fd5b61320988838901612dce565b90965094506020870135915080821115613221578384fd5b5061322e87828801612dce565b95989497509550505050565b6000806040838503121561324c578182fd5b82356001600160401b0380821115613262578384fd5b818501915085601f830112613275578384fd5b81356020613285612d4083613f51565b82815281810190858301838502870184018b10156132a1578889fd5b8896505b848710156132cc5780356132b881614031565b8352600196909601959183019183016132a5565b50965050860135925050808211156132e2578283fd5b506132ef85828601612d67565b9150509250929050565b60006020828403121561330a578081fd5b81516001600160401b0381111561331f578182fd5b61332b84828501612e6b565b949350505050565b600060208284031215613344578081fd5b81516001600160401b03811115613359578182fd5b8201601f81018413613369578182fd5b61332b84825160208401612d32565b600060e08284031215613389578081fd5b611f6c8383612e8a565b6000806101a083850312156133a6578182fd5b6133b08484612fec565b91506133bf8460c08501612e8a565b90509250929050565b6000602082840312156133d9578081fd5b81516001600160401b038111156133ee578182fd5b61332b8482850161305e565b6000602080838503121561340c578182fd5b82516001600160401b0380821115613422578384fd5b9084019060408287031215613435578384fd5b60405160408101818110838211171561344a57fe5b604052825161345881614031565b8152828401518281111561346a578586fd5b80840193505086601f84011261347e578485fd5b8251915061348e612d4083613f51565b82815284810190848601875b858110156134c3576134b18b8984518a010161305e565b8452928701929087019060010161349a565b5050948201949094529695505050505050565b6000602082840312156134e7578081fd5b8135611f6c81614031565b60008060408385031215613504578182fd5b823561350f81614031565b915060208301356001600160401b03811115613529578182fd5b6132ef85828601612e1f565b600060208284031215613546578081fd5b5035919050565b60006020828403121561355e578081fd5b5051919050565b600060208284031215613576578081fd5b8135611f6c81614041565b600060208284031215613592578081fd5b8151611f6c81614041565b60008060008060a085870312156135b2578182fd5b6135bb8561314a565b935060208501519250604085015191506135d88660608701612f12565b905092959194509250565b60008060008060008060e087890312156135fb578384fd5b6136048761314a565b955060208701519450604087015193506136218860608901612f12565b925060a0870151915060c08701516001600160401b03811115613642578182fd5b61364e89828a01612e6b565b9150509295509295509295565b6000806000806000806000610100888a031215613676578485fd5b61367f8861314a565b9650602088015195506040880151945061369c8960608a01612f12565b935060a0880151925060c0880151915060e08801516001600160401b038111156136c4578182fd5b6136d08a828b01612e6b565b91505092959891949750929550565b6000806000806000806000806101c0898b0312156136fb578182fd5b6137048961314a565b97506020890151965060408901519550606089015194506137288a60808b01612f12565b93506137378a60c08b01612fec565b92506101808901516001600160401b0380821115613753578384fd5b61375f8c838d01612e6b565b93506101a08b0151915080821115613775578283fd5b506137828b828c01612e6b565b9150509295985092959890939650565b60008284528282602086013780602084860101526020601f19601f85011685010190509392505050565b600081518084526137d4816020860160208601613fe9565b601f01601f19169290920160200192915050565b61ffff81511682526020810151602083015260408101516040830152606081015160608301526080810151608083015260a081015160a083015260c0810151151560c08301525050565b805182526020810151602083015260408101516040830152606081015160608301526080810151608083015260a081015160a08301525050565b60f01b6001600160f01b0319169052565b6bffffffffffffffffffffffff19606093841b811682529190921b16601482015260280190565b600082516138b6818460208701613fe9565b9190910192915050565b600084516138d2818460208901613fe9565b60f085901b6001600160f01b03191690830190815283516138fa816002840160208801613fe9565b0160020195945050505050565b60007f7061636b6574732073697a6520657863656564206c696d6974656420000000008252825161393f81601c850160208701613fe9565b91909101601c0192915050565b60007f736b697070656420696e626f756e644e6f6e63652c207061636b657420696e64825263032bc1d160e51b60208301528251613991816024850160208701613fe9565b9190910160240192915050565b60007f756e736f72746564207061636b6574732c207061636b657420696e6465783a20825282516139d6816020850160208701613fe9565b9190910160200192915050565b60006139ef828861386c565b6001600160401b0360c01b8660c01b16600283015284600a830152602a820184516020808701845b83811015613a3757815161ffff1685529382019390820190600101613a17565b50508551818701939250845b81811015613a5f57845184529382019392820192600101613a43565b50919a9950505050505050505050565b6001600160a01b0391909116815260200190565b602080825281810183905260009060408084018583028501820187855b88811015613b6557878303603f190184528135368b9003607e19018112613ac5578788fd5b8a0160808135613ad481614031565b61ffff168552818801358886015286820135613aef81614041565b6001600160401b03908116868901526060908382013536859003601e19018112613b17578b8cfd5b8401803582811115613b27578c8dfd5b803603861315613b35578c8dfd5b84848a0152613b49858a01828e8501613792565b998c019998505050948901945050506001919091019050613aa0565b509098975050505050505050565b90815260200190565b600060208252611f6c60208301846137bc565b6020808252602d908201527f53746172676174655072656372696d653a2073696d756c6174696f6e2072657360408201526c1d5b1d081b9bdd08199bdd5b99609a1b606082015260800190565b6020808252601e908201527f53746172676174655072656372696d653a20696e76616c69642073697a650000604082015260600190565b60208082526022908201527f696e76616c69642072656d6f74652061646472657373206c6f6f7075702070616040820152610e8d60f31b606082015260800190565b60208082526023908201527f53746172676174655072656372696d653a205f706f6f6c4964206e6f7420666f6040820152621d5b9960ea1b606082015260800190565b60208082526026908201527f53746172676174655072656372696d653a20636861696e2070617468206e6f7460408201526508199bdd5b9960d21b606082015260800190565b60208082526026908201527f53746172676174655072656372696d653a20706f6f6c207374617465206e6f7460408201526508199bdd5b9960d21b606082015260800190565b6101208101613d3382856137e8565b825160e083015260208301516101008301529392505050565b6101008101613d5b82856137e8565b8260e08301529392505050565b6102608101613d778286613832565b613d8460c08301856137e8565b61332b6101a0830184613832565b6101e08101613da18287613832565b613dae60c08301866137e8565b6101a08201939093526101c0015292915050565b600060208083526060830161ffff855116828501528185015160408081870152828251808552608088019150608086820289010194508584019350865b81811015613e8757888603607f190183528451805187528781015161010089890181905281519089018190526101208901918a01908b905b80821015613e6057613e4a8484516137e8565b60e0840193508b83019250600182019150613e37565b5050509085015190613e7488870183613832565b9650509386019391860191600101613dff565b509398975050505050505050565b61ffff91909116815260200190565b600061ffff841682526040602083015261332b60408301846137bc565b6001600160401b0391909116815260200190565b6000808335601e19843603018112613eeb578283fd5b8301803591506001600160401b03821115613f04578283fd5b602001915036819003821315610c5c57600080fd5b60008235607e198336030181126138b6578182fd5b6040518181016001600160401b0381118282101715613f4957fe5b604052919050565b60006001600160401b03821115613f6457fe5b5060209081020190565b60006001600160401b03821115613f8157fe5b50601f01601f191660200190565b6000613f9d612d4084613f51565b8381526020808201919084845b87811015613fd157613fbf3683358901612f59565b85529382019390820190600101613faa565b50919695505050505050565b60006106b33683612f59565b60005b83811015614004578181015183820152602001613fec565b83811115614013576000848401525b50505050565b6001600160a01b038116811461402e57600080fd5b50565b61ffff8116811461402e57600080fd5b6001600160401b038116811461402e57600080fdfe53746172676174655072656372696d653a20746f74616c50726f6d6973656442616c616e6365203e20746f74616c536f6c76656e7442616c616e63654f776e61626c653a206e6577206f776e657220697320746865207a65726f206164647265737353746172676174655072656372696d653a206c6f63616c506f6f6c43702e6c6b62203c2072656d6f7465506f6f6c43702e62616c616e63654f776e61626c653a2063616c6c6572206973206e6f7420746865206f776e6572a26469706673582212200da437d2e419d234c0a825012b53200fd38613146798ffba614bd35c2b33af8264736f6c634300070600334f776e61626c653a2063616c6c6572206973206e6f7420746865206f776e6572",
  "devdoc": {
    "kind": "dev",
    "methods": {
      "_simulateAndRevert((uint16,bytes32,uint64,bytes)[])": {
        "details": "internal function, no one should call",
        "params": {
          "_packets": "packets"
        }
      },
      "getConfig((uint16,bytes32,uint64,bytes)[])": {
        "details": "get precrime config,",
        "params": {
          "_packets": "packets"
        },
        "returns": {
          "_0": "configation bytes"
        }
      },
      "owner()": {
        "details": "Returns the address of the current owner."
      },
      "precrime((uint16,bytes32,uint64,bytes)[],bytes[])": {
        "details": "@param _simulation all simulation results from difference chains",
        "returns": {
          "code": "    precrime result code; check out the error code defination",
          "reason": "  error reason"
        }
      },
      "renounceOwnership()": {
        "details": "Leaves the contract without owner. It will not be possible to call `onlyOwner` functions anymore. Can only be called by the current owner. NOTE: Renouncing ownership will leave the contract without an owner, thereby removing any functionality that is only available to the owner."
      },
      "simulate((uint16,bytes32,uint64,bytes)[])": {
        "details": "simulate run cross chain packets and get a simulation result for precrime later",
        "params": {
          "_packets": "packets, the packets item should group by srcChainId, srcAddress, then sort by nonce"
        },
        "returns": {
          "code": "  simulation result code; see the error code defination",
          "data": "the result is use for precrime params"
        }
      },
      "transferOwnership(address)": {
        "details": "Transfers ownership of the contract to a new account (`newOwner`). Can only be called by the current owner."
      },
      "version()": {
        "details": "protocol version"
      }
    },
    "version": 1
  },
  "userdoc": {
    "kind": "user",
    "methods": {},
    "version": 1
  },
  "storageLayout": {
    "storage": [
      {
        "astId": 197,
        "contract": "contracts/precrime/stargate/StargatePreCrime.sol:StargatePreCrime",
        "label": "_owner",
        "offset": 0,
        "slot": "0",
        "type": "t_address"
      },
      {
        "astId": 22062,
        "contract": "contracts/precrime/stargate/StargatePreCrime.sol:StargatePreCrime",
        "label": "localChainId",
        "offset": 20,
        "slot": "0",
        "type": "t_uint16"
      },
      {
        "astId": 23173,
        "contract": "contracts/precrime/stargate/StargatePreCrime.sol:StargatePreCrime",
        "label": "stargateRouter",
        "offset": 0,
        "slot": "1",
        "type": "t_contract(Router)11590"
      },
      {
        "astId": 23175,
        "contract": "contracts/precrime/stargate/StargatePreCrime.sol:StargatePreCrime",
        "label": "poolView",
        "offset": 0,
        "slot": "2",
        "type": "t_contract(PoolView)23131"
      },
      {
        "astId": 23178,
        "contract": "contracts/precrime/stargate/StargatePreCrime.sol:StargatePreCrime",
        "label": "remoteChainIds",
        "offset": 0,
        "slot": "3",
        "type": "t_array(t_uint16)dyn_storage"
      },
      {
        "astId": 23181,
        "contract": "contracts/precrime/stargate/StargatePreCrime.sol:StargatePreCrime",
        "label": "remotePrecrimeAddresses",
        "offset": 0,
        "slot": "4",
        "type": "t_array(t_bytes32)dyn_storage"
      },
      {
        "astId": 23183,
        "contract": "contracts/precrime/stargate/StargatePreCrime.sol:StargatePreCrime",
        "label": "maxBatchSize",
        "offset": 0,
        "slot": "5",
        "type": "t_uint64"
      },
      {
        "astId": 23185,
        "contract": "contracts/precrime/stargate/StargatePreCrime.sol:StargatePreCrime",
        "label": "inflightBuffer",
        "offset": 0,
        "slot": "6",
        "type": "t_uint256"
      }
    ],
    "types": {
      "t_address": {
        "encoding": "inplace",
        "label": "address",
        "numberOfBytes": "20"
      },
      "t_array(t_bytes32)dyn_storage": {
        "base": "t_bytes32",
        "encoding": "dynamic_array",
        "label": "bytes32[]",
        "numberOfBytes": "32"
      },
      "t_array(t_uint16)dyn_storage": {
        "base": "t_uint16",
        "encoding": "dynamic_array",
        "label": "uint16[]",
        "numberOfBytes": "32"
      },
      "t_bytes32": {
        "encoding": "inplace",
        "label": "bytes32",
        "numberOfBytes": "32"
      },
      "t_contract(PoolView)23131": {
        "encoding": "inplace",
        "label": "contract PoolView",
        "numberOfBytes": "20"
      },
      "t_contract(Router)11590": {
        "encoding": "inplace",
        "label": "contract Router",
        "numberOfBytes": "20"
      },
      "t_uint16": {
        "encoding": "inplace",
        "label": "uint16",
        "numberOfBytes": "2"
      },
      "t_uint256": {
        "encoding": "inplace",
        "label": "uint256",
        "numberOfBytes": "32"
      },
      "t_uint64": {
        "encoding": "inplace",
        "label": "uint64",
        "numberOfBytes": "8"
      }
    }
  }
}