{
  "_format": "hh-sol-artifact-1",
  "contractName": "StargateToken",
  "sourceName": "contracts/StargateToken.sol",
  "abi": [
    {
      "inputs": [
        {
          "internalType": "string",
          "name": "_name",
          "type": "string"
        },
        {
          "internalType": "string",
          "name": "_symbol",
          "type": "string"
        },
        {
          "internalType": "address",
          "name": "_endpoint",
          "type": "address"
        },
        {
          "internalType": "uint16",
          "name": "_mainEndpointId",
          "type": "uint16"
        },
        {
          "internalType": "uint256",
          "name": "_initialSupplyOnMainEndpoint",
          "type": "uint256"
        }
      ],
      "stateMutability": "nonpayable",
      "type": "constructor"
    },
    {
      "anonymous": false,
      "inputs": [
        {
          "indexed": true,
          "internalType": "address",
          "name": "owner",
          "type": "address"
        },
        {
          "indexed": true,
          "internalType": "address",
          "name": "spender",
          "type": "address"
        },
        {
          "indexed": false,
          "internalType": "uint256",
          "name": "value",
          "type": "uint256"
        }
      ],
      "name": "Approval",
      "type": "event"
    },
    {
      "anonymous": false,
      "inputs": [
        {
          "indexed": true,
          "internalType": "address",
          "name": "previousOwner",
          "type": "address"
        },
        {
          "indexed": true,
          "internalType": "address",
          "name": "newOwner",
          "type": "address"
        }
      ],
      "name": "OwnershipTransferred",
      "type": "event"
    },
    {
      "anonymous": false,
      "inputs": [
        {
          "indexed": false,
          "internalType": "bool",
          "name": "isPaused",
          "type": "bool"
        }
      ],
      "name": "Paused",
      "type": "event"
    },
    {
      "anonymous": false,
      "inputs": [
        {
          "indexed": false,
          "internalType": "uint16",
          "name": "srcChainId",
          "type": "uint16"
        },
        {
          "indexed": false,
          "internalType": "uint64",
          "name": "nonce",
          "type": "uint64"
        },
        {
          "indexed": false,
          "internalType": "uint256",
          "name": "qty",
          "type": "uint256"
        }
      ],
      "name": "ReceiveFromChain",
      "type": "event"
    },
    {
      "anonymous": false,
      "inputs": [
        {
          "indexed": false,
          "internalType": "uint16",
          "name": "dstChainId",
          "type": "uint16"
        },
        {
          "indexed": false,
          "internalType": "bytes",
          "name": "to",
          "type": "bytes"
        },
        {
          "indexed": false,
          "internalType": "uint256",
          "name": "qty",
          "type": "uint256"
        }
      ],
      "name": "SendToChain",
      "type": "event"
    },
    {
      "anonymous": false,
      "inputs": [
        {
          "indexed": true,
          "internalType": "address",
          "name": "from",
          "type": "address"
        },
        {
          "indexed": true,
          "internalType": "address",
          "name": "to",
          "type": "address"
        },
        {
          "indexed": false,
          "internalType": "uint256",
          "name": "value",
          "type": "uint256"
        }
      ],
      "name": "Transfer",
      "type": "event"
    },
    {
      "inputs": [
        {
          "internalType": "address",
          "name": "owner",
          "type": "address"
        },
        {
          "internalType": "address",
          "name": "spender",
          "type": "address"
        }
      ],
      "name": "allowance",
      "outputs": [
        {
          "internalType": "uint256",
          "name": "",
          "type": "uint256"
        }
      ],
      "stateMutability": "view",
      "type": "function"
    },
    {
      "inputs": [
        {
          "internalType": "address",
          "name": "spender",
          "type": "address"
        },
        {
          "internalType": "uint256",
          "name": "amount",
          "type": "uint256"
        }
      ],
      "name": "approve",
      "outputs": [
        {
          "internalType": "bool",
          "name": "",
          "type": "bool"
        }
      ],
      "stateMutability": "nonpayable",
      "type": "function"
    },
    {
      "inputs": [
        {
          "internalType": "address",
          "name": "account",
          "type": "address"
        }
      ],
      "name": "balanceOf",
      "outputs": [
        {
          "internalType": "uint256",
          "name": "",
          "type": "uint256"
        }
      ],
      "stateMutability": "view",
      "type": "function"
    },
    {
      "inputs": [],
      "name": "chainId",
      "outputs": [
        {
          "internalType": "uint16",
          "name": "",
          "type": "uint16"
        }
      ],
      "stateMutability": "view",
      "type": "function"
    },
    {
      "inputs": [],
      "name": "decimals",
      "outputs": [
        {
          "internalType": "uint8",
          "name": "",
          "type": "uint8"
        }
      ],
      "stateMutability": "view",
      "type": "function"
    },
    {
      "inputs": [
        {
          "internalType": "address",
          "name": "spender",
          "type": "address"
        },
        {
          "internalType": "uint256",
          "name": "subtractedValue",
          "type": "uint256"
        }
      ],
      "name": "decreaseAllowance",
      "outputs": [
        {
          "internalType": "bool",
          "name": "",
          "type": "bool"
        }
      ],
      "stateMutability": "nonpayable",
      "type": "function"
    },
    {
      "inputs": [
        {
          "internalType": "uint16",
          "name": "",
          "type": "uint16"
        }
      ],
      "name": "dstContractLookup",
      "outputs": [
        {
          "internalType": "bytes",
          "name": "",
          "type": "bytes"
        }
      ],
      "stateMutability": "view",
      "type": "function"
    },
    {
      "inputs": [],
      "name": "endpoint",
      "outputs": [
        {
          "internalType": "contract ILayerZeroEndpoint",
          "name": "",
          "type": "address"
        }
      ],
      "stateMutability": "view",
      "type": "function"
    },
    {
      "inputs": [
        {
          "internalType": "uint16",
          "name": "_dstChainId",
          "type": "uint16"
        },
        {
          "internalType": "bool",
          "name": "_useZro",
          "type": "bool"
        },
        {
          "internalType": "bytes",
          "name": "txParameters",
          "type": "bytes"
        }
      ],
      "name": "estimateSendTokensFee",
      "outputs": [
        {
          "internalType": "uint256",
          "name": "nativeFee",
          "type": "uint256"
        },
        {
          "internalType": "uint256",
          "name": "zroFee",
          "type": "uint256"
        }
      ],
      "stateMutability": "view",
      "type": "function"
    },
    {
      "inputs": [
        {
          "internalType": "uint16",
          "name": "_srcChainId",
          "type": "uint16"
        },
        {
          "internalType": "bytes",
          "name": "_srcAddress",
          "type": "bytes"
        }
      ],
      "name": "forceResumeReceive",
      "outputs": [],
      "stateMutability": "nonpayable",
      "type": "function"
    },
    {
      "inputs": [
        {
          "internalType": "address",
          "name": "spender",
          "type": "address"
        },
        {
          "internalType": "uint256",
          "name": "addedValue",
          "type": "uint256"
        }
      ],
      "name": "increaseAllowance",
      "outputs": [
        {
          "internalType": "bool",
          "name": "",
          "type": "bool"
        }
      ],
      "stateMutability": "nonpayable",
      "type": "function"
    },
    {
      "inputs": [],
      "name": "isMain",
      "outputs": [
        {
          "internalType": "bool",
          "name": "",
          "type": "bool"
        }
      ],
      "stateMutability": "view",
      "type": "function"
    },
    {
      "inputs": [
        {
          "internalType": "uint16",
          "name": "_srcChainId",
          "type": "uint16"
        },
        {
          "internalType": "bytes",
          "name": "_fromAddress",
          "type": "bytes"
        },
        {
          "internalType": "uint64",
          "name": "nonce",
          "type": "uint64"
        },
        {
          "internalType": "bytes",
          "name": "_payload",
          "type": "bytes"
        }
      ],
      "name": "lzReceive",
      "outputs": [],
      "stateMutability": "nonpayable",
      "type": "function"
    },
    {
      "inputs": [],
      "name": "name",
      "outputs": [
        {
          "internalType": "string",
          "name": "",
          "type": "string"
        }
      ],
      "stateMutability": "view",
      "type": "function"
    },
    {
      "inputs": [],
      "name": "owner",
      "outputs": [
        {
          "internalType": "address",
          "name": "",
          "type": "address"
        }
      ],
      "stateMutability": "view",
      "type": "function"
    },
    {
      "inputs": [
        {
          "internalType": "bool",
          "name": "_pause",
          "type": "bool"
        }
      ],
      "name": "pauseSendTokens",
      "outputs": [],
      "stateMutability": "nonpayable",
      "type": "function"
    },
    {
      "inputs": [],
      "name": "paused",
      "outputs": [
        {
          "internalType": "bool",
          "name": "",
          "type": "bool"
        }
      ],
      "stateMutability": "view",
      "type": "function"
    },
    {
      "inputs": [],
      "name": "renounceOwnership",
      "outputs": [],
      "stateMutability": "nonpayable",
      "type": "function"
    },
    {
      "inputs": [
        {
          "internalType": "uint16",
          "name": "_dstChainId",
          "type": "uint16"
        },
        {
          "internalType": "bytes",
          "name": "_to",
          "type": "bytes"
        },
        {
          "internalType": "uint256",
          "name": "_qty",
          "type": "uint256"
        },
        {
          "internalType": "address",
          "name": "zroPaymentAddress",
          "type": "address"
        },
        {
          "internalType": "bytes",
          "name": "adapterParam",
          "type": "bytes"
        }
      ],
      "name": "sendTokens",
      "outputs": [],
      "stateMutability": "payable",
      "type": "function"
    },
    {
      "inputs": [
        {
          "internalType": "uint16",
          "name": "_version",
          "type": "uint16"
        },
        {
          "internalType": "uint16",
          "name": "_chainId",
          "type": "uint16"
        },
        {
          "internalType": "uint256",
          "name": "_configType",
          "type": "uint256"
        },
        {
          "internalType": "bytes",
          "name": "_config",
          "type": "bytes"
        }
      ],
      "name": "setConfig",
      "outputs": [],
      "stateMutability": "nonpayable",
      "type": "function"
    },
    {
      "inputs": [
        {
          "internalType": "uint16",
          "name": "_dstChainId",
          "type": "uint16"
        },
        {
          "internalType": "bytes",
          "name": "_destinationContractAddress",
          "type": "bytes"
        }
      ],
      "name": "setDestination",
      "outputs": [],
      "stateMutability": "nonpayable",
      "type": "function"
    },
    {
      "inputs": [
        {
          "internalType": "uint16",
          "name": "version",
          "type": "uint16"
        }
      ],
      "name": "setReceiveVersion",
      "outputs": [],
      "stateMutability": "nonpayable",
      "type": "function"
    },
    {
      "inputs": [
        {
          "internalType": "uint16",
          "name": "version",
          "type": "uint16"
        }
      ],
      "name": "setSendVersion",
      "outputs": [],
      "stateMutability": "nonpayable",
      "type": "function"
    },
    {
      "inputs": [],
      "name": "symbol",
      "outputs": [
        {
          "internalType": "string",
          "name": "",
          "type": "string"
        }
      ],
      "stateMutability": "view",
      "type": "function"
    },
    {
      "inputs": [],
      "name": "totalSupply",
      "outputs": [
        {
          "internalType": "uint256",
          "name": "",
          "type": "uint256"
        }
      ],
      "stateMutability": "view",
      "type": "function"
    },
    {
      "inputs": [
        {
          "internalType": "address",
          "name": "recipient",
          "type": "address"
        },
        {
          "internalType": "uint256",
          "name": "amount",
          "type": "uint256"
        }
      ],
      "name": "transfer",
      "outputs": [
        {
          "internalType": "bool",
          "name": "",
          "type": "bool"
        }
      ],
      "stateMutability": "nonpayable",
      "type": "function"
    },
    {
      "inputs": [
        {
          "internalType": "address",
          "name": "sender",
          "type": "address"
        },
        {
          "internalType": "address",
          "name": "recipient",
          "type": "address"
        },
        {
          "internalType": "uint256",
          "name": "amount",
          "type": "uint256"
        }
      ],
      "name": "transferFrom",
      "outputs": [
        {
          "internalType": "bool",
          "name": "",
          "type": "bool"
        }
      ],
      "stateMutability": "nonpayable",
      "type": "function"
    },
    {
      "inputs": [
        {
          "internalType": "address",
          "name": "newOwner",
          "type": "address"
        }
      ],
      "name": "transferOwnership",
      "outputs": [],
      "stateMutability": "nonpayable",
      "type": "function"
    }
  ],
  "bytecode": "0x60a06040523480156200001157600080fd5b50604051620030c4380380620030c4833981810160405260a08110156200003757600080fd5b81019080805160405193929190846401000000008211156200005857600080fd5b9083019060208201858111156200006e57600080fd5b82516401000000008111828201881017156200008957600080fd5b82525081516020918201929091019080838360005b83811015620000b85781810151838201526020016200009e565b50505050905090810190601f168015620000e65780820380516001836020036101000a031916815260200191505b50604052602001805160405193929190846401000000008211156200010a57600080fd5b9083019060208201858111156200012057600080fd5b82516401000000008111828201881017156200013b57600080fd5b82525081516020918201929091019080838360005b838110156200016a57818101518382015260200162000150565b50505050905090810190601f168015620001985780820380516001836020036101000a031916815260200191505b5060409081526020828101519183015160609093015187519295509293508691869186918691869186918691620001d691600391908501906200048c565b508051620001ec9060049060208401906200048c565b50506005805460ff191660121790555060006200020862000312565b60058054610100600160a81b0319166101006001600160a01b03841690810291909117909155604051919250906000907f8be0079c531659141344cd1fd0a4f28419497f9722a3daafe3b4186f6b6457e0908290a3508161ffff16836001600160a01b0316633408e4706040518163ffffffff1660e01b815260040160206040518083038186803b1580156200029d57600080fd5b505afa158015620002b2573d6000803e3d6000fd5b505050506040513d6020811015620002c957600080fd5b505161ffff161415620002f257620002e2338262000316565b6007805461ff0019166101001790555b505060601b6001600160601b031916608052506200053895505050505050565b3390565b6001600160a01b03821662000372576040805162461bcd60e51b815260206004820152601f60248201527f45524332303a206d696e7420746f20746865207a65726f206164647265737300604482015290519081900360640190fd5b620003806000838362000425565b6200039c816002546200042a60201b620021601790919060201c565b6002556001600160a01b03821660009081526020818152604090912054620003cf918390620021606200042a821b17901c565b6001600160a01b0383166000818152602081815260408083209490945583518581529351929391927fddf252ad1be2c89b69c2b068fc378daa952ba7f163c4a11628f55a4df523b3ef9281900390910190a35050565b505050565b60008282018381101562000485576040805162461bcd60e51b815260206004820152601b60248201527f536166654d6174683a206164646974696f6e206f766572666c6f770000000000604482015290519081900360640190fd5b9392505050565b828054600181600116156101000203166002900490600052602060002090601f016020900481019282620004c457600085556200050f565b82601f10620004df57805160ff19168380011785556200050f565b828001600101855582156200050f579182015b828111156200050f578251825591602001919060010190620004f2565b506200051d92915062000521565b5090565b5b808211156200051d576000815560010162000522565b60805160601c612b466200057e60003980610b145280610f295280611080528061127c5280611682528061171752806119a35280611bcb5280611d935250612b466000f3fe6080604052600436106101b65760003560e01c806360f05c7a116100ec5780639a8a05921161008a578063cbed8b9c11610064578063cbed8b9c146109b0578063dd62ed3e14610a48578063f187892214610a90578063f2fde38b14610abc576101b6565b80639a8a0592146108f8578063a457c2d714610924578063a9059cbb1461096a576101b6565b8063715018a6116100c6578063715018a61461081157806373874336146108265780638da5cb5b146108ce57806395d89b41146108e3576101b6565b806360f05c7a1461071b578063706d8fff1461074957806370a08231146107d1576101b6565b80632e15238c1161015957806342d65a8d1161013357806342d65a8d1461062b5780635c975abb146106b35780635e280f11146106c8578063604269d114610706576101b6565b80632e15238c146104cb578063313ce567146105ba57806339509351146105e5576101b6565b8063095ea7b311610195578063095ea7b3146103cc57806310ddb1371461042657806318160ddd1461045457806323b872dd1461047b576101b6565b80621d3567146101bb57806306fdde031461031457806307e0db171461039e575b600080fd5b3480156101c757600080fd5b50610312600480360360808110156101de57600080fd5b61ffff823516919081019060408101602082013564010000000081111561020457600080fd5b82018360208201111561021657600080fd5b8035906020019184600183028401116401000000008311171561023857600080fd5b91908080601f016020809104026020016040519081016040528093929190818152602001838380828437600092019190915250929567ffffffffffffffff85351695909490935060408101925060200135905064010000000081111561029d57600080fd5b8201836020820111156102af57600080fd5b803590602001918460018302840111640100000000831117156102d157600080fd5b91908080601f016020809104026020016040519081016040528093929190818152602001838380828437600092019190915250929550610afc945050505050565b005b34801561032057600080fd5b50610329610dcb565b6040805160208082528351818301528351919283929083019185019080838360005b8381101561036357818101518382015260200161034b565b50505050905090810190601f1680156103905780820380516001836020036101000a031916815260200191505b509250505060405180910390f35b3480156103aa57600080fd5b50610312600480360360208110156103c157600080fd5b503561ffff16610e7f565b3480156103d857600080fd5b50610412600480360360408110156103ef57600080fd5b5073ffffffffffffffffffffffffffffffffffffffff8135169060200135610fb9565b604080519115158252519081900360200190f35b34801561043257600080fd5b506103126004803603602081101561044957600080fd5b503561ffff16610fd6565b34801561046057600080fd5b506104696110f5565b60408051918252519081900360200190f35b34801561048757600080fd5b506104126004803603606081101561049e57600080fd5b5073ffffffffffffffffffffffffffffffffffffffff8135811691602081013590911690604001356110fb565b610312600480360360a08110156104e157600080fd5b61ffff823516919081019060408101602082013564010000000081111561050757600080fd5b82018360208201111561051957600080fd5b8035906020019184600183028401116401000000008311171561053b57600080fd5b9193909282359273ffffffffffffffffffffffffffffffffffffffff60208201351692919060608101906040013564010000000081111561057b57600080fd5b82018360208201111561058d57600080fd5b803590602001918460018302840111640100000000831117156105af57600080fd5b50909250905061119c565b3480156105c657600080fd5b506105cf61151e565b6040805160ff9092168252519081900360200190f35b3480156105f157600080fd5b506104126004803603604081101561060857600080fd5b5073ffffffffffffffffffffffffffffffffffffffff8135169060200135611527565b34801561063757600080fd5b506103126004803603604081101561064e57600080fd5b61ffff823516919081019060408101602082013564010000000081111561067457600080fd5b82018360208201111561068657600080fd5b803590602001918460018302840111640100000000831117156106a857600080fd5b509092509050611582565b3480156106bf57600080fd5b5061041261170c565b3480156106d457600080fd5b506106dd611715565b6040805173ffffffffffffffffffffffffffffffffffffffff9092168252519081900360200190f35b34801561071257600080fd5b50610412611739565b34801561072757600080fd5b506103296004803603602081101561073e57600080fd5b503561ffff16611747565b34801561075557600080fd5b506103126004803603604081101561076c57600080fd5b61ffff823516919081019060408101602082013564010000000081111561079257600080fd5b8201836020820111156107a457600080fd5b803590602001918460018302840111640100000000831117156107c657600080fd5b509092509050611800565b3480156107dd57600080fd5b50610469600480360360208110156107f457600080fd5b503573ffffffffffffffffffffffffffffffffffffffff166118cc565b34801561081d57600080fd5b506103126118f4565b34801561083257600080fd5b506108b56004803603606081101561084957600080fd5b61ffff82351691602081013515159181019060608101604082013564010000000081111561087657600080fd5b82018360208201111561088857600080fd5b803590602001918460018302840111640100000000831117156108aa57600080fd5b50909250905061199e565b6040805192835260208301919091528051918290030190f35b3480156108da57600080fd5b506106dd611b27565b3480156108ef57600080fd5b50610329611b48565b34801561090457600080fd5b5061090d611bc7565b6040805161ffff9092168252519081900360200190f35b34801561093057600080fd5b506104126004803603604081101561094757600080fd5b5073ffffffffffffffffffffffffffffffffffffffff8135169060200135611c60565b34801561097657600080fd5b506104126004803603604081101561098d57600080fd5b5073ffffffffffffffffffffffffffffffffffffffff8135169060200135611cd5565b3480156109bc57600080fd5b50610312600480360360808110156109d357600080fd5b61ffff823581169260208101359091169160408201359190810190608081016060820135640100000000811115610a0957600080fd5b820183602082011115610a1b57600080fd5b80359060200191846001830284011164010000000083111715610a3d57600080fd5b509092509050611ce9565b348015610a5457600080fd5b5061046960048036036040811015610a6b57600080fd5b5073ffffffffffffffffffffffffffffffffffffffff81358116916020013516611e6f565b348015610a9c57600080fd5b5061031260048036036020811015610ab357600080fd5b50351515611ea7565b348015610ac857600080fd5b5061031260048036036020811015610adf57600080fd5b503573ffffffffffffffffffffffffffffffffffffffff16611fb4565b3373ffffffffffffffffffffffffffffffffffffffff7f00000000000000000000000000000000000000000000000000000000000000001614610b3e57600080fd5b61ffff8416600090815260066020526040902054835160027fffffffffffffffffffffffffffffffffffffffffffffffffffffffffffffffff6101006001851615020190921691909104148015610c1d5750600660008561ffff1661ffff1681526020019081526020016000206040518082805460018160011615610100020316600290048015610c065780601f10610be4576101008083540402835291820191610c06565b820191906000526020600020905b815481529060010190602001808311610bf2575b505091505060405180910390208380519060200120145b610c72576040517f08c379a00000000000000000000000000000000000000000000000000000000081526004018080602001828103825260248152602001806129816024913960400191505060405180910390fd5b600080828060200190516040811015610c8a57600080fd5b8101908080516040519392919084640100000000821115610caa57600080fd5b908301906020820185811115610cbf57600080fd5b8251640100000000811182820188101715610cd957600080fd5b82525081516020918201929091019080838360005b83811015610d06578181015183820152602001610cee565b50505050905090810190601f168015610d335780820380516001836020036101000a031916815260200191505b5060405260200151601484015160075494965090945092610100900460ff16159150610d6b905057610d663082846121db565b610d75565b610d7581836123ab565b6040805161ffff8916815267ffffffffffffffff8716602082015280820184905290517f831bc68226f8d1f734ffcca73602efc4eca13711402ba1d2cc05ee17bb54f6319181900360600190a150505050505050565b60038054604080516020601f60027fffffffffffffffffffffffffffffffffffffffffffffffffffffffffffffffff610100600188161502019095169490940493840181900481028201810190925282815260609390929091830182828015610e755780601f10610e4a57610100808354040283529160200191610e75565b820191906000526020600020905b815481529060010190602001808311610e5857829003601f168201915b5050505050905090565b610e876124dc565b73ffffffffffffffffffffffffffffffffffffffff16610ea5611b27565b73ffffffffffffffffffffffffffffffffffffffff1614610f2757604080517f08c379a000000000000000000000000000000000000000000000000000000000815260206004820181905260248201527f4f776e61626c653a2063616c6c6572206973206e6f7420746865206f776e6572604482015290519081900360640190fd5b7f000000000000000000000000000000000000000000000000000000000000000073ffffffffffffffffffffffffffffffffffffffff166307e0db17826040518263ffffffff1660e01b8152600401808261ffff168152602001915050600060405180830381600087803b158015610f9e57600080fd5b505af1158015610fb2573d6000803e3d6000fd5b5050505050565b6000610fcd610fc66124dc565b84846124e0565b50600192915050565b610fde6124dc565b73ffffffffffffffffffffffffffffffffffffffff16610ffc611b27565b73ffffffffffffffffffffffffffffffffffffffff161461107e57604080517f08c379a000000000000000000000000000000000000000000000000000000000815260206004820181905260248201527f4f776e61626c653a2063616c6c6572206973206e6f7420746865206f776e6572604482015290519081900360640190fd5b7f000000000000000000000000000000000000000000000000000000000000000073ffffffffffffffffffffffffffffffffffffffff166310ddb137826040518263ffffffff1660e01b8152600401808261ffff168152602001915050600060405180830381600087803b158015610f9e57600080fd5b60025490565b60006111088484846121db565b611192846111146124dc565b61118d85604051806060016040528060288152602001612a356028913973ffffffffffffffffffffffffffffffffffffffff8a1660009081526001602052604081209061115f6124dc565b73ffffffffffffffffffffffffffffffffffffffff1681526020810191909152604001600020549190612627565b6124e0565b5060019392505050565b60075460ff16156111f8576040517f08c379a0000000000000000000000000000000000000000000000000000000008152600401808060200182810382526025815260200180612a7e6025913960400191505060405180910390fd5b600754610100900460ff1615611218576112133330866121db565b611222565b61122233856126d8565b600086868660405160200180806020018381526020018281038252858582818152602001925080828437600081840152601f19601f82011690508083019250505094505050505060405160208183030381529060405290507f000000000000000000000000000000000000000000000000000000000000000073ffffffffffffffffffffffffffffffffffffffff1663c5803100348a600660008d61ffff1661ffff16815260200190815260200160002085338a8a8a6040518963ffffffff1660e01b8152600401808861ffff16815260200180602001806020018773ffffffffffffffffffffffffffffffffffffffff1681526020018673ffffffffffffffffffffffffffffffffffffffff1681526020018060200184810384528a8181546001816001161561010002031660029004815260200191508054600181600116156101000203166002900480156113ba5780601f1061138f576101008083540402835291602001916113ba565b820191906000526020600020905b81548152906001019060200180831161139d57829003601f168201915b505084810383528951815289516020918201918b019080838360005b838110156113ee5781810151838201526020016113d6565b50505050905090810190601f16801561141b5780820380516001836020036101000a031916815260200191505b508481038252858152602001868680828437600081840152601f19601f8201169050808301925050509a50505050505050505050506000604051808303818588803b15801561146957600080fd5b505af115801561147d573d6000803e3d6000fd5b50505050507f664e26797cde1146ddfcb9a5d3f4de61179f9c11b2698599bb09e686f442172b88888888604051808561ffff168152602001806020018381526020018281038252858582818152602001925080828437600083820152604051601f9091017fffffffffffffffffffffffffffffffffffffffffffffffffffffffffffffffe01690920182900397509095505050505050a15050505050505050565b60055460ff1690565b6000610fcd6115346124dc565b8461118d85600160006115456124dc565b73ffffffffffffffffffffffffffffffffffffffff908116825260208083019390935260409182016000908120918c168152925290205490612160565b61158a6124dc565b73ffffffffffffffffffffffffffffffffffffffff166115a8611b27565b73ffffffffffffffffffffffffffffffffffffffff161461162a57604080517f08c379a000000000000000000000000000000000000000000000000000000000815260206004820181905260248201527f4f776e61626c653a2063616c6c6572206973206e6f7420746865206f776e6572604482015290519081900360640190fd5b604080517f42d65a8d00000000000000000000000000000000000000000000000000000000815261ffff851660048201908152602482019283526044820184905273ffffffffffffffffffffffffffffffffffffffff7f000000000000000000000000000000000000000000000000000000000000000016926342d65a8d92879287928792606401848480828437600081840152601f19601f820116905080830192505050945050505050600060405180830381600087803b1580156116ef57600080fd5b505af1158015611703573d6000803e3d6000fd5b50505050505050565b60075460ff1681565b7f000000000000000000000000000000000000000000000000000000000000000081565b600754610100900460ff1681565b60066020908152600091825260409182902080548351601f60027fffffffffffffffffffffffffffffffffffffffffffffffffffffffffffffffff610100600186161502019093169290920491820184900484028101840190945280845290918301828280156117f85780601f106117cd576101008083540402835291602001916117f8565b820191906000526020600020905b8154815290600101906020018083116117db57829003601f168201915b505050505081565b6118086124dc565b73ffffffffffffffffffffffffffffffffffffffff16611826611b27565b73ffffffffffffffffffffffffffffffffffffffff16146118a857604080517f08c379a000000000000000000000000000000000000000000000000000000000815260206004820181905260248201527f4f776e61626c653a2063616c6c6572206973206e6f7420746865206f776e6572604482015290519081900360640190fd5b61ffff831660009081526006602052604090206118c690838361289e565b50505050565b73ffffffffffffffffffffffffffffffffffffffff1660009081526020819052604090205490565b6118fc6124dc565b73ffffffffffffffffffffffffffffffffffffffff1661191a611b27565b73ffffffffffffffffffffffffffffffffffffffff161461199c57604080517f08c379a000000000000000000000000000000000000000000000000000000000815260206004820181905260248201527f4f776e61626c653a2063616c6c6572206973206e6f7420746865206f776e6572604482015290519081900360640190fd5b565b6000807f000000000000000000000000000000000000000000000000000000000000000073ffffffffffffffffffffffffffffffffffffffff166340a7bb108730604051806020016040528060008152508989896040518763ffffffff1660e01b8152600401808761ffff1681526020018673ffffffffffffffffffffffffffffffffffffffff16815260200180602001851515815260200180602001838103835287818151815260200191508051906020019080838360005b83811015611a70578181015183820152602001611a58565b50505050905090810190601f168015611a9d5780820380516001836020036101000a031916815260200191505b508381038252848152602001858580828437600081840152601f19601f82011690508083019250505098505050505050505050604080518083038186803b158015611ae757600080fd5b505afa158015611afb573d6000803e3d6000fd5b505050506040513d6040811015611b1157600080fd5b5080516020909101519097909650945050505050565b600554610100900473ffffffffffffffffffffffffffffffffffffffff1690565b60048054604080516020601f60027fffffffffffffffffffffffffffffffffffffffffffffffffffffffffffffffff610100600188161502019095169490940493840181900481028201810190925282815260609390929091830182828015610e755780601f10610e4a57610100808354040283529160200191610e75565b60007f000000000000000000000000000000000000000000000000000000000000000073ffffffffffffffffffffffffffffffffffffffff16633408e4706040518163ffffffff1660e01b815260040160206040518083038186803b158015611c2f57600080fd5b505afa158015611c43573d6000803e3d6000fd5b505050506040513d6020811015611c5957600080fd5b5051905090565b6000610fcd611c6d6124dc565b8461118d85604051806060016040528060258152602001612aec6025913960016000611c976124dc565b73ffffffffffffffffffffffffffffffffffffffff908116825260208083019390935260409182016000908120918d16815292529020549190612627565b6000610fcd611ce26124dc565b84846121db565b611cf16124dc565b73ffffffffffffffffffffffffffffffffffffffff16611d0f611b27565b73ffffffffffffffffffffffffffffffffffffffff1614611d9157604080517f08c379a000000000000000000000000000000000000000000000000000000000815260206004820181905260248201527f4f776e61626c653a2063616c6c6572206973206e6f7420746865206f776e6572604482015290519081900360640190fd5b7f000000000000000000000000000000000000000000000000000000000000000073ffffffffffffffffffffffffffffffffffffffff1663cbed8b9c86868686866040518663ffffffff1660e01b8152600401808661ffff1681526020018561ffff168152602001848152602001806020018281038252848482818152602001925080828437600081840152601f19601f8201169050808301925050509650505050505050600060405180830381600087803b158015611e5057600080fd5b505af1158015611e64573d6000803e3d6000fd5b505050505050505050565b73ffffffffffffffffffffffffffffffffffffffff918216600090815260016020908152604080832093909416825291909152205490565b611eaf6124dc565b73ffffffffffffffffffffffffffffffffffffffff16611ecd611b27565b73ffffffffffffffffffffffffffffffffffffffff1614611f4f57604080517f08c379a000000000000000000000000000000000000000000000000000000000815260206004820181905260248201527f4f776e61626c653a2063616c6c6572206973206e6f7420746865206f776e6572604482015290519081900360640190fd5b600780548215157fffffffffffffffffffffffffffffffffffffffffffffffffffffffffffffff00909116811790915560408051918252517f0e2fb031ee032dc02d8011dc50b816eb450cf856abd8261680dac74f72165bd29181900360200190a150565b611fbc6124dc565b73ffffffffffffffffffffffffffffffffffffffff16611fda611b27565b73ffffffffffffffffffffffffffffffffffffffff161461205c57604080517f08c379a000000000000000000000000000000000000000000000000000000000815260206004820181905260248201527f4f776e61626c653a2063616c6c6572206973206e6f7420746865206f776e6572604482015290519081900360640190fd5b73ffffffffffffffffffffffffffffffffffffffff81166120c8576040517f08c379a00000000000000000000000000000000000000000000000000000000081526004018080602001828103825260268152602001806129c76026913960400191505060405180910390fd5b60055460405173ffffffffffffffffffffffffffffffffffffffff80841692610100900416907f8be0079c531659141344cd1fd0a4f28419497f9722a3daafe3b4186f6b6457e090600090a36005805473ffffffffffffffffffffffffffffffffffffffff909216610100027fffffffffffffffffffffff0000000000000000000000000000000000000000ff909216919091179055565b6000828201838110156121d457604080517f08c379a000000000000000000000000000000000000000000000000000000000815260206004820152601b60248201527f536166654d6174683a206164646974696f6e206f766572666c6f770000000000604482015290519081900360640190fd5b9392505050565b73ffffffffffffffffffffffffffffffffffffffff8316612247576040517f08c379a0000000000000000000000000000000000000000000000000000000008152600401808060200182810382526025815260200180612aa36025913960400191505060405180910390fd5b73ffffffffffffffffffffffffffffffffffffffff82166122b3576040517f08c379a000000000000000000000000000000000000000000000000000000000815260040180806020018281038252602381526020018061295e6023913960400191505060405180910390fd5b6122be838383612822565b61230881604051806060016040528060268152602001612a0f6026913973ffffffffffffffffffffffffffffffffffffffff86166000908152602081905260409020549190612627565b73ffffffffffffffffffffffffffffffffffffffff80851660009081526020819052604080822093909355908416815220546123449082612160565b73ffffffffffffffffffffffffffffffffffffffff8084166000818152602081815260409182902094909455805185815290519193928716927fddf252ad1be2c89b69c2b068fc378daa952ba7f163c4a11628f55a4df523b3ef92918290030190a3505050565b73ffffffffffffffffffffffffffffffffffffffff821661242d57604080517f08c379a000000000000000000000000000000000000000000000000000000000815260206004820152601f60248201527f45524332303a206d696e7420746f20746865207a65726f206164647265737300604482015290519081900360640190fd5b61243960008383612822565b6002546124469082612160565b60025573ffffffffffffffffffffffffffffffffffffffff82166000908152602081905260409020546124799082612160565b73ffffffffffffffffffffffffffffffffffffffff83166000818152602081815260408083209490945583518581529351929391927fddf252ad1be2c89b69c2b068fc378daa952ba7f163c4a11628f55a4df523b3ef9281900390910190a35050565b3390565b73ffffffffffffffffffffffffffffffffffffffff831661254c576040517f08c379a0000000000000000000000000000000000000000000000000000000008152600401808060200182810382526024815260200180612ac86024913960400191505060405180910390fd5b73ffffffffffffffffffffffffffffffffffffffff82166125b8576040517f08c379a00000000000000000000000000000000000000000000000000000000081526004018080602001828103825260228152602001806129ed6022913960400191505060405180910390fd5b73ffffffffffffffffffffffffffffffffffffffff808416600081815260016020908152604080832094871680845294825291829020859055815185815291517f8c5be1e5ebec7d5bd14f71427d1e84f3dd0314c0f7b2291e5b200ac8c7c3b9259281900390910190a3505050565b600081848411156126d0576040517f08c379a00000000000000000000000000000000000000000000000000000000081526004018080602001828103825283818151815260200191508051906020019080838360005b8381101561269557818101518382015260200161267d565b50505050905090810190601f1680156126c25780820380516001836020036101000a031916815260200191505b509250505060405180910390fd5b505050900390565b73ffffffffffffffffffffffffffffffffffffffff8216612744576040517f08c379a0000000000000000000000000000000000000000000000000000000008152600401808060200182810382526021815260200180612a5d6021913960400191505060405180910390fd5b61275082600083612822565b61279a816040518060600160405280602281526020016129a56022913973ffffffffffffffffffffffffffffffffffffffff85166000908152602081905260409020549190612627565b73ffffffffffffffffffffffffffffffffffffffff83166000908152602081905260409020556002546127cd9082612827565b60025560408051828152905160009173ffffffffffffffffffffffffffffffffffffffff8516917fddf252ad1be2c89b69c2b068fc378daa952ba7f163c4a11628f55a4df523b3ef9181900360200190a35050565b505050565b60008282111561289857604080517f08c379a000000000000000000000000000000000000000000000000000000000815260206004820152601e60248201527f536166654d6174683a207375627472616374696f6e206f766572666c6f770000604482015290519081900360640190fd5b50900390565b828054600181600116156101000203166002900490600052602060002090601f0160209004810192826128d45760008555612938565b82601f1061290b578280017fffffffffffffffffffffffffffffffffffffffffffffffffffffffffffffff00823516178555612938565b82800160010185558215612938579182015b8281111561293857823582559160200191906001019061291d565b50612944929150612948565b5090565b5b80821115612944576000815560010161294956fe45524332303a207472616e7366657220746f20746865207a65726f20616464726573734f46543a20696e76616c696420736f757263652073656e64696e6720636f6e747261637445524332303a206275726e20616d6f756e7420657863656564732062616c616e63654f776e61626c653a206e6577206f776e657220697320746865207a65726f206164647265737345524332303a20617070726f766520746f20746865207a65726f206164647265737345524332303a207472616e7366657220616d6f756e7420657863656564732062616c616e636545524332303a207472616e7366657220616d6f756e74206578636565647320616c6c6f77616e636545524332303a206275726e2066726f6d20746865207a65726f20616464726573734f46543a2073656e64546f6b656e7328292069732063757272656e746c792070617573656445524332303a207472616e736665722066726f6d20746865207a65726f206164647265737345524332303a20617070726f76652066726f6d20746865207a65726f206164647265737345524332303a2064656372656173656420616c6c6f77616e63652062656c6f77207a65726fa2646970667358221220b0cde08cb467e05f833c0cc87ba1d09ec921e279a90f2961e79942560f42b1a864736f6c63430007060033",
  "linkReferences": {},
  "deployedLinkReferences": {}
}