{
  "address": "0xf4A5f28023C58F747feaB4Dd63A0b642AB583078",
  "abi": [
    {
      "inputs": [
        {
          "internalType": "address",
          "name": "_priceFeed",
          "type": "address"
        },
        {
          "internalType": "address[]",
          "name": "_signers",
          "type": "address[]"
        },
        {
          "internalType": "uint64",
          "name": "_quorum",
          "type": "uint64"
        },
        {
          "internalType": "address[]",
          "name": "_admins",
          "type": "address[]"
        },
        {
          "internalType": "address",
          "name": "_uln",
          "type": "address"
        }
      ],
      "stateMutability": "nonpayable",
      "type": "constructor"
    },
    {
      "anonymous": false,
      "inputs": [
        {
          "indexed": false,
          "internalType": "uint16",
          "name": "_dstChainId",
          "type": "uint16"
        },
        {
          "indexed": false,
          "internalType": "uint16",
          "name": "_outboundProofType",
          "type": "uint16"
        },
        {
          "indexed": false,
          "internalType": "uint256",
          "name": "_outboundBlockConfirmations",
          "type": "uint256"
        },
        {
          "indexed": false,
          "internalType": "address",
          "name": "_userApplication",
          "type": "address"
        },
        {
          "indexed": false,
          "internalType": "uint256",
          "name": "_fee",
          "type": "uint256"
        }
      ],
      "name": "AssignJob",
      "type": "event"
    },
    {
      "anonymous": false,
      "inputs": [
        {
          "indexed": false,
          "internalType": "address",
          "name": "_target",
          "type": "address"
        },
        {
          "indexed": false,
          "internalType": "bytes32",
          "name": "_callDataHash",
          "type": "bytes32"
        },
        {
          "indexed": false,
          "internalType": "bool",
          "name": "_success",
          "type": "bool"
        },
        {
          "indexed": false,
          "internalType": "bytes",
          "name": "_data",
          "type": "bytes"
        }
      ],
      "name": "Execute",
      "type": "event"
    },
    {
      "anonymous": false,
      "inputs": [
        {
          "indexed": false,
          "internalType": "uint16",
          "name": "_dstChainId",
          "type": "uint16"
        },
        {
          "indexed": false,
          "internalType": "uint16",
          "name": "_outboundProofType",
          "type": "uint16"
        },
        {
          "indexed": false,
          "internalType": "uint64",
          "name": "_gas",
          "type": "uint64"
        }
      ],
      "name": "SetDstGas",
      "type": "event"
    },
    {
      "anonymous": false,
      "inputs": [
        {
          "indexed": false,
          "internalType": "address",
          "name": "_addr",
          "type": "address"
        },
        {
          "indexed": false,
          "internalType": "bool",
          "name": "_active",
          "type": "bool"
        }
      ],
      "name": "SetUln",
      "type": "event"
    },
    {
      "anonymous": false,
      "inputs": [
        {
          "indexed": false,
          "internalType": "address",
          "name": "_addr",
          "type": "address"
        },
        {
          "indexed": false,
          "internalType": "bool",
          "name": "_active",
          "type": "bool"
        }
      ],
      "name": "UpdateAdmin",
      "type": "event"
    },
    {
      "anonymous": false,
      "inputs": [
        {
          "indexed": false,
          "internalType": "address",
          "name": "_addr",
          "type": "address"
        },
        {
          "indexed": false,
          "internalType": "bool",
          "name": "_active",
          "type": "bool"
        }
      ],
      "name": "UpdateAllowlist",
      "type": "event"
    },
    {
      "anonymous": false,
      "inputs": [
        {
          "indexed": false,
          "internalType": "address",
          "name": "_addr",
          "type": "address"
        },
        {
          "indexed": false,
          "internalType": "bool",
          "name": "_active",
          "type": "bool"
        }
      ],
      "name": "UpdateDenylist",
      "type": "event"
    },
    {
      "anonymous": false,
      "inputs": [
        {
          "indexed": false,
          "internalType": "address",
          "name": "_priceFeed",
          "type": "address"
        }
      ],
      "name": "UpdatePriceFeed",
      "type": "event"
    },
    {
      "anonymous": false,
      "inputs": [
        {
          "indexed": false,
          "internalType": "uint128",
          "name": "_multiplierBps",
          "type": "uint128"
        }
      ],
      "name": "UpdatePriceMultiplierBps",
      "type": "event"
    },
    {
      "anonymous": false,
      "inputs": [
        {
          "indexed": false,
          "internalType": "uint64",
          "name": "_quorum",
          "type": "uint64"
        }
      ],
      "name": "UpdateQuorum",
      "type": "event"
    },
    {
      "anonymous": false,
      "inputs": [
        {
          "indexed": false,
          "internalType": "address",
          "name": "_signer",
          "type": "address"
        },
        {
          "indexed": false,
          "internalType": "bool",
          "name": "_active",
          "type": "bool"
        }
      ],
      "name": "UpdateSigner",
      "type": "event"
    },
    {
      "inputs": [
        {
          "internalType": "address",
          "name": "",
          "type": "address"
        }
      ],
      "name": "admins",
      "outputs": [
        {
          "internalType": "bool",
          "name": "",
          "type": "bool"
        }
      ],
      "stateMutability": "view",
      "type": "function"
    },
    {
      "inputs": [
        {
          "internalType": "address",
          "name": "",
          "type": "address"
        }
      ],
      "name": "allowlist",
      "outputs": [
        {
          "internalType": "bool",
          "name": "",
          "type": "bool"
        }
      ],
      "stateMutability": "view",
      "type": "function"
    },
    {
      "inputs": [],
      "name": "allowlistSize",
      "outputs": [
        {
          "internalType": "uint64",
          "name": "",
          "type": "uint64"
        }
      ],
      "stateMutability": "view",
      "type": "function"
    },
    {
      "inputs": [
        {
          "internalType": "uint16",
          "name": "_dstChainId",
          "type": "uint16"
        },
        {
          "internalType": "uint16",
          "name": "_outboundProofType",
          "type": "uint16"
        },
        {
          "internalType": "uint64",
          "name": "_outboundBlockConfirmation",
          "type": "uint64"
        },
        {
          "internalType": "address",
          "name": "_userApplication",
          "type": "address"
        }
      ],
      "name": "assignJob",
      "outputs": [
        {
          "internalType": "uint256",
          "name": "fee",
          "type": "uint256"
        }
      ],
      "stateMutability": "nonpayable",
      "type": "function"
    },
    {
      "inputs": [
        {
          "internalType": "address",
          "name": "_address",
          "type": "address"
        }
      ],
      "name": "checkPermission",
      "outputs": [
        {
          "internalType": "bool",
          "name": "",
          "type": "bool"
        }
      ],
      "stateMutability": "view",
      "type": "function"
    },
    {
      "inputs": [
        {
          "internalType": "address",
          "name": "",
          "type": "address"
        }
      ],
      "name": "denylist",
      "outputs": [
        {
          "internalType": "bool",
          "name": "",
          "type": "bool"
        }
      ],
      "stateMutability": "view",
      "type": "function"
    },
    {
      "inputs": [
        {
          "internalType": "uint16",
          "name": "",
          "type": "uint16"
        },
        {
          "internalType": "uint16",
          "name": "",
          "type": "uint16"
        }
      ],
      "name": "dstGasLookup",
      "outputs": [
        {
          "internalType": "uint64",
          "name": "",
          "type": "uint64"
        }
      ],
      "stateMutability": "view",
      "type": "function"
    },
    {
      "inputs": [
        {
          "internalType": "address",
          "name": "_target",
          "type": "address"
        },
        {
          "internalType": "bytes",
          "name": "_callData",
          "type": "bytes"
        },
        {
          "internalType": "uint256",
          "name": "_expiration",
          "type": "uint256"
        },
        {
          "internalType": "bytes",
          "name": "_signatures",
          "type": "bytes"
        }
      ],
      "name": "execute",
      "outputs": [],
      "stateMutability": "nonpayable",
      "type": "function"
    },
    {
      "inputs": [
        {
          "internalType": "uint16",
          "name": "_dstChainId",
          "type": "uint16"
        },
        {
          "internalType": "uint16",
          "name": "_outboundProofType",
          "type": "uint16"
        },
        {
          "internalType": "uint64",
          "name": "",
          "type": "uint64"
        },
        {
          "internalType": "address",
          "name": "_userApplication",
          "type": "address"
        }
      ],
      "name": "getFee",
      "outputs": [
        {
          "internalType": "uint256",
          "name": "",
          "type": "uint256"
        }
      ],
      "stateMutability": "view",
      "type": "function"
    },
    {
      "inputs": [
        {
          "internalType": "address",
          "name": "_target",
          "type": "address"
        },
        {
          "internalType": "bytes",
          "name": "_callData",
          "type": "bytes"
        },
        {
          "internalType": "uint256",
          "name": "_expiration",
          "type": "uint256"
        }
      ],
      "name": "hashCallData",
      "outputs": [
        {
          "internalType": "bytes32",
          "name": "",
          "type": "bytes32"
        }
      ],
      "stateMutability": "pure",
      "type": "function"
    },
    {
      "inputs": [],
      "name": "multiplierBps",
      "outputs": [
        {
          "internalType": "uint128",
          "name": "",
          "type": "uint128"
        }
      ],
      "stateMutability": "view",
      "type": "function"
    },
    {
      "inputs": [],
      "name": "priceFeed",
      "outputs": [
        {
          "internalType": "contract ILayerZeroPriceFeed",
          "name": "",
          "type": "address"
        }
      ],
      "stateMutability": "view",
      "type": "function"
    },
    {
      "inputs": [],
      "name": "quorum",
      "outputs": [
        {
          "internalType": "uint64",
          "name": "",
          "type": "uint64"
        }
      ],
      "stateMutability": "view",
      "type": "function"
    },
    {
      "inputs": [
        {
          "internalType": "address",
          "name": "_admin",
          "type": "address"
        },
        {
          "internalType": "bool",
          "name": "_active",
          "type": "bool"
        }
      ],
      "name": "setAdmin",
      "outputs": [],
      "stateMutability": "nonpayable",
      "type": "function"
    },
    {
      "inputs": [
        {
          "internalType": "address",
          "name": "_userApplication",
          "type": "address"
        },
        {
          "internalType": "bool",
          "name": "_allowed",
          "type": "bool"
        }
      ],
      "name": "setAllowlist",
      "outputs": [],
      "stateMutability": "nonpayable",
      "type": "function"
    },
    {
      "inputs": [
        {
          "internalType": "address",
          "name": "_userApplication",
          "type": "address"
        },
        {
          "internalType": "bool",
          "name": "_denied",
          "type": "bool"
        }
      ],
      "name": "setDenylist",
      "outputs": [],
      "stateMutability": "nonpayable",
      "type": "function"
    },
    {
      "inputs": [
        {
          "internalType": "uint16",
          "name": "_dstChainId",
          "type": "uint16"
        },
        {
          "internalType": "uint16",
          "name": "_proofType",
          "type": "uint16"
        },
        {
          "internalType": "uint64",
          "name": "_gas",
          "type": "uint64"
        }
      ],
      "name": "setDstGas",
      "outputs": [],
      "stateMutability": "nonpayable",
      "type": "function"
    },
    {
      "inputs": [
        {
          "internalType": "address",
          "name": "_priceFeed",
          "type": "address"
        }
      ],
      "name": "setPriceFeed",
      "outputs": [],
      "stateMutability": "nonpayable",
      "type": "function"
    },
    {
      "inputs": [
        {
          "internalType": "uint128",
          "name": "_multiplierBps",
          "type": "uint128"
        }
      ],
      "name": "setPriceMultiplierBps",
      "outputs": [],
      "stateMutability": "nonpayable",
      "type": "function"
    },
    {
      "inputs": [
        {
          "internalType": "uint64",
          "name": "_quorum",
          "type": "uint64"
        }
      ],
      "name": "setQuorum",
      "outputs": [],
      "stateMutability": "nonpayable",
      "type": "function"
    },
    {
      "inputs": [
        {
          "internalType": "address",
          "name": "_signer",
          "type": "address"
        },
        {
          "internalType": "bool",
          "name": "_active",
          "type": "bool"
        }
      ],
      "name": "setSigner",
      "outputs": [],
      "stateMutability": "nonpayable",
      "type": "function"
    },
    {
      "inputs": [
        {
          "internalType": "address",
          "name": "_uln",
          "type": "address"
        },
        {
          "internalType": "bool",
          "name": "_active",
          "type": "bool"
        }
      ],
      "name": "setUln",
      "outputs": [],
      "stateMutability": "nonpayable",
      "type": "function"
    },
    {
      "inputs": [],
      "name": "signerSize",
      "outputs": [
        {
          "internalType": "uint64",
          "name": "",
          "type": "uint64"
        }
      ],
      "stateMutability": "view",
      "type": "function"
    },
    {
      "inputs": [
        {
          "internalType": "address",
          "name": "",
          "type": "address"
        }
      ],
      "name": "signers",
      "outputs": [
        {
          "internalType": "bool",
          "name": "",
          "type": "bool"
        }
      ],
      "stateMutability": "view",
      "type": "function"
    },
    {
      "inputs": [
        {
          "internalType": "address",
          "name": "",
          "type": "address"
        }
      ],
      "name": "ulns",
      "outputs": [
        {
          "internalType": "bool",
          "name": "",
          "type": "bool"
        }
      ],
      "stateMutability": "view",
      "type": "function"
    },
    {
      "inputs": [
        {
          "internalType": "bytes32",
          "name": "",
          "type": "bytes32"
        }
      ],
      "name": "usedHashes",
      "outputs": [
        {
          "internalType": "bool",
          "name": "",
          "type": "bool"
        }
      ],
      "stateMutability": "view",
      "type": "function"
    },
    {
      "inputs": [
        {
          "internalType": "bytes32",
          "name": "_hash",
          "type": "bytes32"
        },
        {
          "internalType": "bytes",
          "name": "_signatures",
          "type": "bytes"
        }
      ],
      "name": "verifySignatures",
      "outputs": [],
      "stateMutability": "view",
      "type": "function"
    },
    {
      "inputs": [
        {
          "internalType": "address",
          "name": "_uln",
          "type": "address"
        },
        {
          "internalType": "address payable",
          "name": "_to",
          "type": "address"
        },
        {
          "internalType": "uint256",
          "name": "_amount",
          "type": "uint256"
        }
      ],
      "name": "withdrawFee",
      "outputs": [],
      "stateMutability": "view",
      "type": "function"
    },
    {
      "inputs": [
        {
          "internalType": "address",
          "name": "_uln",
          "type": "address"
        },
        {
          "internalType": "address payable",
          "name": "_to",
          "type": "address"
        },
        {
          "internalType": "uint256",
          "name": "_amount",
          "type": "uint256"
        }
      ],
      "name": "withdrawFeeFromUlnV2Like",
      "outputs": [],
      "stateMutability": "nonpayable",
      "type": "function"
    }
  ],
  "transactionHash": "0xd92b9a86ae57f827d07af0a95c06baebc3a34924b486f018608060c2a9427667",
  "args": [
    "0xbE8374A727cd4523d21fDf99571b340175D2AeEe",
    [
      "0x85A487F8DaDc5EA494bdee976C945F44896B484f",
      "0x91DFc41376BA92Bbe563ee5Fe04015c0eCB10217",
      "0xa91607446b658c5c4c61c3A8375591A5079EAB76"
    ],
    2,
    [
      "0xbE25c1dd013979e10e6628CAeb707686DD1f73e3",
      "0xb733B99F0f9b690C47004A835CA25e32992194DF",
      "0x5bBb81d6a7C9366E699b9719ecE8c65432656094"
    ],
    "0x533fB43e6808D9634CC0DD0c6c1195e8921D4FCC"
  ],
  "numDeployments": 1,
  "solcInputHash": "a1d7433d1853d5fd4b18a6f9a362b6e9",
  "bytecode": "0x6080604052600980546001600160801b031916612ee01790553480156200002557600080fd5b5060405162002b7a38038062002b7a833981016040819052620000489162000319565b8383806001600160401b03168251101580156200006e57506000816001600160401b0316115b620000c0576040805162461bcd60e51b815260206004820152601960248201527f4d756c74695369673a207369676e65727320746f6f2066657700000000000000604482015290519081900360640190fd5b6000805b83518110156200017e576000848281518110620000dd57fe5b60200260200101519050826001600160a01b0316816001600160a01b0316116200014e576040805162461bcd60e51b815260206004820152601c60248201527f4d756c74695369673a207369676e657273206e6f7420736f7274656400000000604482015290519081900360640190fd5b6001600160a01b0381166000908152602081905260409020805460ff1916600190811790915590925001620000c4565b50509051600180546001600160401b0319166001600160401b0392831617600160401b600160801b031916680100000000000000009290931691909102919091178155600880546001600160a01b0319166001600160a01b038881169190911790915582166000908152600560205260408120805460ff19169092179091555b825181101562000256576001600660008584815181106200021b57fe5b6020908102919091018101516001600160a01b03168252810191909152604001600020805460ff1916911515919091179055600101620001fe565b505050505050620003bf565b80516001600160a01b03811681146200027a57600080fd5b919050565b600082601f83011262000290578081fd5b815160206001600160401b0380831115620002a757fe5b81830260405183828201018181108482111715620002c157fe5b60405284815283810192508684018288018501891015620002e0578687fd5b8692505b858310156200030d57620002f88162000262565b845292840192600192909201918401620002e4565b50979650505050505050565b600080600080600060a0868803121562000331578081fd5b6200033c8662000262565b60208701519095506001600160401b038082111562000359578283fd5b6200036789838a016200027f565b95506040880151915080821682146200037e578283fd5b60608801519194508082111562000393578283fd5b50620003a2888289016200027f565b925050620003b36080870162000262565b90509295509295909350565b6127ab80620003cf6000396000f3fe608060405234801561001057600080fd5b50600436106101cf5760003560e01c8063780a00bb11610104578063c3b04e7f116100a2578063e3a0fd8b11610071578063e3a0fd8b146103cf578063f3ad31f4146103e2578063f553ccc9146103f5578063fd62e75014610408576101cf565b8063c3b04e7f1461038e578063c5e193cd146103a1578063c7a823e0146103b4578063d2ae2104146103c7576101cf565b8063a7cd52cb116100de578063a7cd52cb14610340578063ac353e0414610353578063aef18bf714610368578063b12527f81461037b576101cf565b8063780a00bb146103075780638585c9451461031a5780639f0707f01461032d576101cf565b80635553fb8e1161017157806370cb3acb1161014b57806370cb3acb146102b9578063724e78da146102cc578063736c0d5b146102df578063741bef1a146102f2576101cf565b80635553fb8e1461027357806357d3a786146102935780636c459a28146102a6576101cf565b806331cb6105116101ad57806331cb61051461021a5780633371bfff1461022d578063429b62e51461024d5780634b0bddd214610260576101cf565b806309310452146101d45780631095b6d7146101e95780631703a018146101fc575b600080fd5b6101e76101e2366004611f89565b610410565b005b6101e76101f7366004611d06565b6104f5565b610204610570565b6040516102119190612632565b60405180910390f35b6101e7610228366004611d46565b61058c565b61024061023b366004611cea565b6105d3565b60405161021191906121a5565b61024061025b366004611cea565b6105e8565b6101e761026e366004611d46565b6105fd565b610286610281366004611fcb565b610729565b60405161021191906121b0565b6102406102a1366004611cea565b610977565b6101e76102b4366004611ddc565b610a06565b6101e76102c7366004611d06565b610c5c565b6101e76102da366004611cea565b610d8f565b6102406102ed366004611cea565b610e53565b6102fa610e68565b6040516102119190612097565b6101e7610315366004611d46565b610e84565b6101e7610328366004612020565b610fa4565b61024061033b366004611cea565b610fe9565b61024061034e366004611cea565b610ffe565b61035b611013565b6040516102119190612592565b610240610376366004611e65565b61102b565b6101e7610389366004611d46565b611040565b6101e761039c366004611f1f565b611083565b6102866103af366004611fcb565b611138565b6101e76103c2366004611e7d565b6111d6565b610204611468565b6102046103dd366004611f57565b611478565b6102866103f0366004611d82565b61149f565b6101e7610403366004611d46565b6114d8565b61020461151b565b3360009081526006602052604090205460ff16610462576040517f08c379a000000000000000000000000000000000000000000000000000000000815260040161045990612273565b60405180910390fd5b61ffff8381166000908152600760209081526040808320938616835292905281902080547fffffffffffffffffffffffffffffffffffffffffffffffff00000000000000001667ffffffffffffffff8416179055517fa919b8179a0920376a5f6ac5b26cd567acf115c8b5af1400b09015dd862277d9906104e8908590859085906125be565b60405180910390a1505050565b3360009081526006602052604090205460ff1661053e576040517f08c379a000000000000000000000000000000000000000000000000000000000815260040161045990612273565b6040517f08c379a000000000000000000000000000000000000000000000000000000000815260040161045990612444565b60015468010000000000000000900467ffffffffffffffff1681565b3033146105c5576040517f08c379a0000000000000000000000000000000000000000000000000000000008152600401610459906124d8565b6105cf828261152b565b5050565b60036020526000908152604090205460ff1681565b60066020526000908152604090205460ff1681565b303314610636576040517f08c379a0000000000000000000000000000000000000000000000000000000008152600401610459906124d8565b73ffffffffffffffffffffffffffffffffffffffff821660009081526006602052604090205460ff161515811515141561069c576040517f08c379a000000000000000000000000000000000000000000000000000000000815260040161045990612216565b73ffffffffffffffffffffffffffffffffffffffff82166000908152600660205260409081902080547fffffffffffffffffffffffffffffffffffffffffffffffffffffffffffffff0016831515179055517fae0a768e1f5a7943e3f1bb8a4d503c6fbfea4c9bbbded6b463e48bebd28ef7259061071d90849084906120de565b60405180910390a15050565b600061073482610977565b61076a576040517f08c379a0000000000000000000000000000000000000000000000000000000008152600401610459906121b9565b6008546040517fe0ad121a00000000000000000000000000000000000000000000000000000000815260009173ffffffffffffffffffffffffffffffffffffffff169063e0ad121a906107c19089906004016125af565b604080518083038186803b1580156107d857600080fd5b505afa1580156107ec573d6000803e3d6000fd5b505050506040513d601f19601f820116820180604052508101906108109190611ec7565b90506000600860009054906101000a900473ffffffffffffffffffffffffffffffffffffffff1673ffffffffffffffffffffffffffffffffffffffff1663c18403276040518163ffffffff1660e01b815260040160206040518083038186803b15801561087c57600080fd5b505afa158015610890573d6000803e3d6000fd5b505050506040513d601f19601f820116820180604052508101906108b49190611f3b565b60095483516fffffffffffffffffffffffffffffffff92831693506000926108ee92612710926108e892908116911661173c565b906117b8565b600954602085015191925060009161092391612710916108e8916fffffffffffffffffffffffffffffffff918216911661173c565b61ffff808b166000908152600760209081526040808320938d168352929052205490915067ffffffffffffffff16610969846108e885610963858761173c565b9061173c565b9a9950505050505050505050565b73ffffffffffffffffffffffffffffffffffffffff811660009081526003602052604081205460ff16156109ad57506000610a01565b73ffffffffffffffffffffffffffffffffffffffff821660009081526002602052604090205460ff16156109e357506001610a01565b60045467ffffffffffffffff16156109fd57506000610a01565b5060015b919050565b3360009081526006602052604090205460ff16610a4f576040517f08c379a000000000000000000000000000000000000000000000000000000000815260040161045990612273565b73ffffffffffffffffffffffffffffffffffffffff861660009081526005602052604090205460ff1680610a98575073ffffffffffffffffffffffffffffffffffffffff861630145b610ace576040517f08c379a00000000000000000000000000000000000000000000000000000000081526004016104599061247b565b428311610b07576040517f08c379a00000000000000000000000000000000000000000000000000000000081526004016104599061232d565b6000610b158787878761149f565b6000818152600a602052604090205490915060ff1615610b61576040517f08c379a00000000000000000000000000000000000000000000000000000000081526004016104599061238a565b6000818152600a6020526040902080547fffffffffffffffffffffffffffffffffffffffffffffffffffffffffffffff00166001179055610ba38184846111d6565b6000808873ffffffffffffffffffffffffffffffffffffffff168888604051610bcd929190612087565b6000604051808303816000865af19150503d8060008114610c0a576040519150601f19603f3d011682016040523d82523d6000602084013e610c0f565b606091505b50915091507f293e3a2153dc5c8d3667cbd6ede71a71674b2381e5dc4b40c91ad0e813447c0f89848484604051610c499493929190612106565b60405180910390a1505050505050505050565b3360009081526006602052604090205460ff16610ca5576040517f08c379a000000000000000000000000000000000000000000000000000000000815260040161045990612273565b73ffffffffffffffffffffffffffffffffffffffff831660009081526005602052604090205460ff16610d04576040517f08c379a0000000000000000000000000000000000000000000000000000000008152600401610459906122d0565b6040517f07b18bde00000000000000000000000000000000000000000000000000000000815273ffffffffffffffffffffffffffffffffffffffff8416906307b18bde90610d5890859085906004016120b8565b600060405180830381600087803b158015610d7257600080fd5b505af1158015610d86573d6000803e3d6000fd5b50505050505050565b3360009081526006602052604090205460ff16610dd8576040517f08c379a000000000000000000000000000000000000000000000000000000000815260040161045990612273565b600880547fffffffffffffffffffffffff00000000000000000000000000000000000000001673ffffffffffffffffffffffffffffffffffffffff83161790556040517f80674e26c002a5b7d07d752a8b75030a7d410c4d0178d254df106c7667c1cc8490610e48908390612097565b60405180910390a150565b60006020819052908152604090205460ff1681565b60085473ffffffffffffffffffffffffffffffffffffffff1681565b303314610ebd576040517f08c379a0000000000000000000000000000000000000000000000000000000008152600401610459906124d8565b73ffffffffffffffffffffffffffffffffffffffff821660009081526005602052604090205460ff1615158115151415610f23576040517f08c379a0000000000000000000000000000000000000000000000000000000008152600401610459906123e7565b73ffffffffffffffffffffffffffffffffffffffff82166000908152600560205260409081902080547fffffffffffffffffffffffffffffffffffffffffffffffffffffffffffffff0016831515179055517feabd2f190f320483b897651b13516f0547c3067bdce2d5080d7b4468c07336469061071d90849084906120de565b303314610fdd576040517f08c379a0000000000000000000000000000000000000000000000000000000008152600401610459906124d8565b610fe681611839565b50565b60056020526000908152604090205460ff1681565b60026020526000908152604090205460ff1681565b6009546fffffffffffffffffffffffffffffffff1681565b600a6020526000908152604090205460ff1681565b303314611079576040517f08c379a0000000000000000000000000000000000000000000000000000000008152600401610459906124d8565b6105cf8282611949565b3360009081526006602052604090205460ff166110cc576040517f08c379a000000000000000000000000000000000000000000000000000000000815260040161045990612273565b600980547fffffffffffffffffffffffffffffffff00000000000000000000000000000000166fffffffffffffffffffffffffffffffff83161790556040517f2725008ed0736b4e89059cba21b291a6964c242e0fa2ed00574cfb7adbbffc2c90610e48908390612592565b3360009081526005602052604081205460ff16611181576040517f08c379a000000000000000000000000000000000000000000000000000000000815260040161045990612535565b61118d85858585610729565b90507f4e41ee13e03cd5e0446487b524fdc48af6acf26c074dacdbdfb6b574b42c814685858585856040516111c69594939291906125e6565b60405180910390a1949350505050565b6001546111fa9068010000000000000000900467ffffffffffffffff16604161173c565b81101561126857604080517f08c379a000000000000000000000000000000000000000000000000000000000815260206004820152601e60248201527f4d756c74695369673a207369676e61747572657320746f6f2073686f72740000604482015290519081900360640190fd5b600061127384611af6565b90506000805b60015468010000000000000000900467ffffffffffffffff168110156114605760008060006112df88888080601f016020809104026020016040519081016040528093929190818152602001838380828437600092019190915250889250611b47915050565b925092509250600060018785858560405160008152602001604052604051808581526020018460ff1681526020018381526020018281526020019450505050506020604051602081039080840390855afa158015611341573d6000803e3d6000fd5b5050506020604051035190508573ffffffffffffffffffffffffffffffffffffffff168173ffffffffffffffffffffffffffffffffffffffff16116113d1576040517f08c379a000000000000000000000000000000000000000000000000000000000815260040180806020018281038252602f815260200180612723602f913960400191505060405180910390fd5b73ffffffffffffffffffffffffffffffffffffffff811660009081526020819052604090205460ff1661144f576040517f08c379a00000000000000000000000000000000000000000000000000000000081526004018080602001828103825260288152602001806126ae6028913960400191505060405180910390fd5b945050600190920191506112799050565b505050505050565b60045467ffffffffffffffff1681565b600760209081526000928352604080842090915290825290205467ffffffffffffffff1681565b6000848285856040516020016114b89493929190612041565b604051602081830303815290604052805190602001209050949350505050565b303314611511576040517f08c379a0000000000000000000000000000000000000000000000000000000008152600401610459906124d8565b6105cf8282611b65565b60015467ffffffffffffffff1681565b73ffffffffffffffffffffffffffffffffffffffff821660009081526020819052604090205460ff16151581151514156115b0576040517f08c379a00000000000000000000000000000000000000000000000000000000081526004018080602001828103825260268152602001806126886026913960400191505060405180910390fd5b73ffffffffffffffffffffffffffffffffffffffff8216600090815260208190526040902080547fffffffffffffffffffffffffffffffffffffffffffffffffffffffffffffff0016821515179055806116385760015467ffffffffffffffff167fffffffffffffffffffffffffffffffffffffffffffffffffffffffffffffffff01611648565b6001805467ffffffffffffffff16015b600180547fffffffffffffffffffffffffffffffffffffffffffffffff00000000000000001667ffffffffffffffff92831617908190556801000000000000000081048216911610156116e6576040517f08c379a00000000000000000000000000000000000000000000000000000000081526004018080602001828103825260248152602001806127526024913960400191505060405180910390fd5b6040805173ffffffffffffffffffffffffffffffffffffffff84168152821515602082015281517f863d338cad74814b108a06288ad5e0e80d56495e0332238b1d2cdcfa0ca8e5ce929181900390910190a15050565b60008261174b575060006117b2565b8282028284828161175857fe5b04146117af576040517f08c379a00000000000000000000000000000000000000000000000000000000081526004018080602001828103825260218152602001806127026021913960400191505060405180910390fd5b90505b92915050565b600080821161182857604080517f08c379a000000000000000000000000000000000000000000000000000000000815260206004820152601a60248201527f536166654d6174683a206469766973696f6e206279207a65726f000000000000604482015290519081900360640190fd5b81838161183157fe5b049392505050565b60015467ffffffffffffffff90811690821611801590611863575060008167ffffffffffffffff16115b6118ce57604080517f08c379a000000000000000000000000000000000000000000000000000000000815260206004820152601860248201527f4d756c74695369673a20696e76616c69642071756f72756d0000000000000000604482015290519081900360640190fd5b6001805467ffffffffffffffff83166801000000000000000081027fffffffffffffffffffffffffffffffff0000000000000000ffffffffffffffff9092169190911790915560408051918252517fb600f3cf7f38a4b49bb0c75f722ef69f7e3e39ef3bb4aa8207fd86e724a232499181900360200190a150565b73ffffffffffffffffffffffffffffffffffffffff821660009081526002602052604090205460ff16151581151514156119ce576040517f08c379a000000000000000000000000000000000000000000000000000000000815260040180806020018281038252602c8152602001806126d6602c913960400191505060405180910390fd5b73ffffffffffffffffffffffffffffffffffffffff8216600090815260026020526040902080547fffffffffffffffffffffffffffffffffffffffffffffffffffffffffffffff001682151517905580611a565760045467ffffffffffffffff167fffffffffffffffffffffffffffffffffffffffffffffffffffffffffffffffff01611a67565b60045467ffffffffffffffff166001015b600480547fffffffffffffffffffffffffffffffffffffffffffffffff00000000000000001667ffffffffffffffff929092169190911790556040805173ffffffffffffffffffffffffffffffffffffffff84168152821515602082015281517f9352a101313f915f658cc62aeaa4913eeab9d5732c545d05fc379042a1625322929181900390910190a15050565b604080517f19457468657265756d205369676e6564204d6573736167653a0a333200000000602080830191909152603c8083019490945282518083039094018452605c909101909152815191012090565b60419081029190910160208101516040820151919092015160ff1692565b73ffffffffffffffffffffffffffffffffffffffff821660009081526003602052604090205460ff1615158115151415611bea576040517f08c379a000000000000000000000000000000000000000000000000000000000815260040180806020018281038252602c8152602001806126d6602c913960400191505060405180910390fd5b73ffffffffffffffffffffffffffffffffffffffff821660008181526003602090815260409182902080547fffffffffffffffffffffffffffffffffffffffffffffffffffffffffffffff001685151590811790915582519384529083015280517f4b4231060768ee40d7781b20f37f18e43e4bac84908227f9d487ed96bd7f1dc79281900390910190a15050565b60008083601f840112611c8a578182fd5b50813567ffffffffffffffff811115611ca1578182fd5b602083019150836020828501011115611cb957600080fd5b9250929050565b803561ffff81168114610a0157600080fd5b803567ffffffffffffffff81168114610a0157600080fd5b600060208284031215611cfb578081fd5b81356117af81612647565b600080600060608486031215611d1a578182fd5b8335611d2581612647565b92506020840135611d3581612647565b929592945050506040919091013590565b60008060408385031215611d58578182fd5b8235611d6381612647565b915060208301358015158114611d77578182fd5b809150509250929050565b60008060008060608587031215611d97578081fd5b8435611da281612647565b9350602085013567ffffffffffffffff811115611dbd578182fd5b611dc987828801611c79565b9598909750949560400135949350505050565b60008060008060008060808789031215611df4578182fd5b8635611dff81612647565b9550602087013567ffffffffffffffff80821115611e1b578384fd5b611e278a838b01611c79565b9097509550604089013594506060890135915080821115611e46578384fd5b50611e5389828a01611c79565b979a9699509497509295939492505050565b600060208284031215611e76578081fd5b5035919050565b600080600060408486031215611e91578283fd5b83359250602084013567ffffffffffffffff811115611eae578283fd5b611eba86828701611c79565b9497909650939450505050565b600060408284031215611ed8578081fd5b6040516040810181811067ffffffffffffffff82111715611ef557fe5b6040528251611f0381612669565b81526020830151611f1381612669565b60208201529392505050565b600060208284031215611f30578081fd5b81356117af81612669565b600060208284031215611f4c578081fd5b81516117af81612669565b60008060408385031215611f69578182fd5b611f7283611cc0565b9150611f8060208401611cc0565b90509250929050565b600080600060608486031215611f9d578283fd5b611fa684611cc0565b9250611fb460208501611cc0565b9150611fc260408501611cd2565b90509250925092565b60008060008060808587031215611fe0578182fd5b611fe985611cc0565b9350611ff760208601611cc0565b925061200560408601611cd2565b9150606085013561201581612647565b939692955090935050565b600060208284031215612031578081fd5b61203a82611cd2565b9392505050565b60007fffffffffffffffffffffffffffffffffffffffff0000000000000000000000008660601b1682528460148301528284603484013791016034019081529392505050565b6000828483379101908152919050565b73ffffffffffffffffffffffffffffffffffffffff91909116815260200190565b73ffffffffffffffffffffffffffffffffffffffff929092168252602082015260400190565b73ffffffffffffffffffffffffffffffffffffffff9290921682521515602082015260400190565b600073ffffffffffffffffffffffffffffffffffffffff86168252602085818401528415156040840152608060608401528351806080850152825b8181101561215d5785810183015185820160a001528201612141565b8181111561216e578360a083870101525b50601f017fffffffffffffffffffffffffffffffffffffffffffffffffffffffffffffffe0169290920160a0019695505050505050565b901515815260200190565b90815260200190565b6020808252602f908201527f4d756c74695369674f7261636c653a205f757365724170706c69636174696f6e60408201527f206973206e6f7420616c6c6f7765640000000000000000000000000000000000606082015260800190565b6020808252602b908201527f4d756c74695369674f7261636c653a2061646d696e20616c726561647920696e60408201527f2074686174207374617465000000000000000000000000000000000000000000606082015260800190565b60208082526024908201527f4d756c74695369674f7261636c653a2063616c6c6572206d757374206265206160408201527f646d696e00000000000000000000000000000000000000000000000000000000606082015260800190565b60208082526023908201527f4d756c74695369674f7261636c653a205f756c6e206973206e6f7420616c6c6f60408201527f7765640000000000000000000000000000000000000000000000000000000000606082015260800190565b60208082526021908201527f4d756c74695369674f7261636c653a2063616c6c20646174612065787069726560408201527f6400000000000000000000000000000000000000000000000000000000000000606082015260800190565b6020808252602a908201527f4d756c74695369674f7261636c653a2063616c6c206461746120616c7265616460408201527f7920657865637574656400000000000000000000000000000000000000000000606082015260800190565b60208082526029908201527f4d756c74695369674f7261636c653a20756c6e20616c726561647920696e207460408201527f6861742073746174650000000000000000000000000000000000000000000000606082015260800190565b6020808252601f908201527f4d756c74695369674f7261636c653a206e6f7420696d706c656d656e74656400604082015260600190565b6020808252602a908201527f4d756c74695369674f7261636c653a20746172676574206d757374206265207560408201527f6c6e206f722073656c6600000000000000000000000000000000000000000000606082015260800190565b60208082526023908201527f4d756c74695369674f7261636c653a2063616c6c6572206d757374206265207360408201527f656c660000000000000000000000000000000000000000000000000000000000606082015260800190565b60208082526022908201527f4d756c74695369674f7261636c653a2063616c6c6572206d757374206265207560408201527f6c6e000000000000000000000000000000000000000000000000000000000000606082015260800190565b6fffffffffffffffffffffffffffffffff91909116815260200190565b61ffff91909116815260200190565b61ffff938416815291909216602082015267ffffffffffffffff909116604082015260600190565b61ffff958616815293909416602084015267ffffffffffffffff91909116604083015273ffffffffffffffffffffffffffffffffffffffff166060820152608081019190915260a00190565b67ffffffffffffffff91909116815260200190565b73ffffffffffffffffffffffffffffffffffffffff81168114610fe657600080fd5b6fffffffffffffffffffffffffffffffff81168114610fe657600080fdfe4d756c74695369673a207369676e657220616c726561647920696e20746861742073746174654d756c74695369673a207369676e6174757265206973206e6f742066726f6d2061207369676e6572416363657373436f6e74726f6c3a206164647265737320616c726561647920696e2074686174207374617465536166654d6174683a206d756c7469706c69636174696f6e206f766572666c6f774d756c74695369673a207369676e617475726573206d75737420626520696e20617363656e64696e67206f726465724d756c74695369673a20636f6d6d69747465652073697a65203c207468726573686f6c64a2646970667358221220edbdad0dbb02fbc1fa2ba6f9672060218dcb0fe297bc5fad9be536dfb7aee7c364736f6c63430007060033",
  "devdoc": {
    "kind": "dev",
    "methods": {},
    "version": 1
  },
  "userdoc": {
    "kind": "user",
    "methods": {
      "checkPermission(address)": {
        "notice": "1) If one address is in the deny list, it is denied 2) If the allow list is empty and not in the deny list, it is allowed 3) If one address is in the allow list and not in the deny list, it is allowed 4) If the allow list is not empty and the address is not in the allow list, it is denied"
      }
    },
    "version": 1
  },
  "storageLayout": {
    "storage": [
      {
        "astId": 16537,
        "contract": "contracts/oracle/MultiSigOracle.sol:MultiSigOracle",
        "label": "signers",
        "offset": 0,
        "slot": "0",
        "type": "t_mapping(t_address,t_bool)"
      },
      {
        "astId": 16539,
        "contract": "contracts/oracle/MultiSigOracle.sol:MultiSigOracle",
        "label": "signerSize",
        "offset": 0,
        "slot": "1",
        "type": "t_uint64"
      },
      {
        "astId": 16541,
        "contract": "contracts/oracle/MultiSigOracle.sol:MultiSigOracle",
        "label": "quorum",
        "offset": 8,
        "slot": "1",
        "type": "t_uint64"
      },
      {
        "astId": 16408,
        "contract": "contracts/oracle/MultiSigOracle.sol:MultiSigOracle",
        "label": "allowlist",
        "offset": 0,
        "slot": "2",
        "type": "t_mapping(t_address,t_bool)"
      },
      {
        "astId": 16412,
        "contract": "contracts/oracle/MultiSigOracle.sol:MultiSigOracle",
        "label": "denylist",
        "offset": 0,
        "slot": "3",
        "type": "t_mapping(t_address,t_bool)"
      },
      {
        "astId": 16414,
        "contract": "contracts/oracle/MultiSigOracle.sol:MultiSigOracle",
        "label": "allowlistSize",
        "offset": 0,
        "slot": "4",
        "type": "t_uint64"
      },
      {
        "astId": 16849,
        "contract": "contracts/oracle/MultiSigOracle.sol:MultiSigOracle",
        "label": "ulns",
        "offset": 0,
        "slot": "5",
        "type": "t_mapping(t_address,t_bool)"
      },
      {
        "astId": 16853,
        "contract": "contracts/oracle/MultiSigOracle.sol:MultiSigOracle",
        "label": "admins",
        "offset": 0,
        "slot": "6",
        "type": "t_mapping(t_address,t_bool)"
      },
      {
        "astId": 16859,
        "contract": "contracts/oracle/MultiSigOracle.sol:MultiSigOracle",
        "label": "dstGasLookup",
        "offset": 0,
        "slot": "7",
        "type": "t_mapping(t_uint16,t_mapping(t_uint16,t_uint64))"
      },
      {
        "astId": 16861,
        "contract": "contracts/oracle/MultiSigOracle.sol:MultiSigOracle",
        "label": "priceFeed",
        "offset": 0,
        "slot": "8",
        "type": "t_contract(ILayerZeroPriceFeed)13527"
      },
      {
        "astId": 16864,
        "contract": "contracts/oracle/MultiSigOracle.sol:MultiSigOracle",
        "label": "multiplierBps",
        "offset": 0,
        "slot": "9",
        "type": "t_uint128"
      },
      {
        "astId": 16868,
        "contract": "contracts/oracle/MultiSigOracle.sol:MultiSigOracle",
        "label": "usedHashes",
        "offset": 0,
        "slot": "10",
        "type": "t_mapping(t_bytes32,t_bool)"
      }
    ],
    "types": {
      "t_address": {
        "encoding": "inplace",
        "label": "address",
        "numberOfBytes": "20"
      },
      "t_bool": {
        "encoding": "inplace",
        "label": "bool",
        "numberOfBytes": "1"
      },
      "t_bytes32": {
        "encoding": "inplace",
        "label": "bytes32",
        "numberOfBytes": "32"
      },
      "t_contract(ILayerZeroPriceFeed)13527": {
        "encoding": "inplace",
        "label": "contract ILayerZeroPriceFeed",
        "numberOfBytes": "20"
      },
      "t_mapping(t_address,t_bool)": {
        "encoding": "mapping",
        "key": "t_address",
        "label": "mapping(address => bool)",
        "numberOfBytes": "32",
        "value": "t_bool"
      },
      "t_mapping(t_bytes32,t_bool)": {
        "encoding": "mapping",
        "key": "t_bytes32",
        "label": "mapping(bytes32 => bool)",
        "numberOfBytes": "32",
        "value": "t_bool"
      },
      "t_mapping(t_uint16,t_mapping(t_uint16,t_uint64))": {
        "encoding": "mapping",
        "key": "t_uint16",
        "label": "mapping(uint16 => mapping(uint16 => uint64))",
        "numberOfBytes": "32",
        "value": "t_mapping(t_uint16,t_uint64)"
      },
      "t_mapping(t_uint16,t_uint64)": {
        "encoding": "mapping",
        "key": "t_uint16",
        "label": "mapping(uint16 => uint64)",
        "numberOfBytes": "32",
        "value": "t_uint64"
      },
      "t_uint128": {
        "encoding": "inplace",
        "label": "uint128",
        "numberOfBytes": "16"
      },
      "t_uint16": {
        "encoding": "inplace",
        "label": "uint16",
        "numberOfBytes": "2"
      },
      "t_uint64": {
        "encoding": "inplace",
        "label": "uint64",
        "numberOfBytes": "8"
      }
    }
  }
}