{
  "_format": "hh-sol-artifact-1",
  "contractName": "DistributeONFT721",
  "sourceName": "contracts/token/onft/extension/DistributeONFT721.sol",
  "abi": [
    {
      "inputs": [
        {
          "internalType": "string",
          "name": "_name",
          "type": "string"
        },
        {
          "internalType": "string",
          "name": "_symbol",
          "type": "string"
        },
        {
          "internalType": "uint256",
          "name": "_minGasToTransfer",
          "type": "uint256"
        },
        {
          "internalType": "address",
          "name": "_layerZeroEndpoint",
          "type": "address"
        },
        {
          "internalType": "uint256[]",
          "name": "_indexArray",
          "type": "uint256[]"
        },
        {
          "internalType": "uint256[]",
          "name": "_valueArray",
          "type": "uint256[]"
        }
      ],
      "stateMutability": "nonpayable",
      "type": "constructor"
    },
    {
      "anonymous": false,
      "inputs": [
        {
          "indexed": true,
          "internalType": "address",
          "name": "owner",
          "type": "address"
        },
        {
          "indexed": true,
          "internalType": "address",
          "name": "approved",
          "type": "address"
        },
        {
          "indexed": true,
          "internalType": "uint256",
          "name": "tokenId",
          "type": "uint256"
        }
      ],
      "name": "Approval",
      "type": "event"
    },
    {
      "anonymous": false,
      "inputs": [
        {
          "indexed": true,
          "internalType": "address",
          "name": "owner",
          "type": "address"
        },
        {
          "indexed": true,
          "internalType": "address",
          "name": "operator",
          "type": "address"
        },
        {
          "indexed": false,
          "internalType": "bool",
          "name": "approved",
          "type": "bool"
        }
      ],
      "name": "ApprovalForAll",
      "type": "event"
    },
    {
      "anonymous": false,
      "inputs": [
        {
          "indexed": false,
          "internalType": "bytes32",
          "name": "_hashedPayload",
          "type": "bytes32"
        }
      ],
      "name": "CreditCleared",
      "type": "event"
    },
    {
      "anonymous": false,
      "inputs": [
        {
          "indexed": false,
          "internalType": "bytes32",
          "name": "_hashedPayload",
          "type": "bytes32"
        },
        {
          "indexed": false,
          "internalType": "bytes",
          "name": "_payload",
          "type": "bytes"
        }
      ],
      "name": "CreditStored",
      "type": "event"
    },
    {
      "anonymous": false,
      "inputs": [
        {
          "indexed": true,
          "internalType": "uint16",
          "name": "_srcChainId",
          "type": "uint16"
        },
        {
          "components": [
            {
              "internalType": "uint256",
              "name": "index",
              "type": "uint256"
            },
            {
              "internalType": "uint256",
              "name": "value",
              "type": "uint256"
            }
          ],
          "indexed": false,
          "internalType": "struct DistributeONFT721.TokenDistribute[]",
          "name": "tokenDistribute",
          "type": "tuple[]"
        }
      ],
      "name": "Distribute",
      "type": "event"
    },
    {
      "anonymous": false,
      "inputs": [
        {
          "indexed": false,
          "internalType": "uint16",
          "name": "_srcChainId",
          "type": "uint16"
        },
        {
          "indexed": false,
          "internalType": "bytes",
          "name": "_srcAddress",
          "type": "bytes"
        },
        {
          "indexed": false,
          "internalType": "uint64",
          "name": "_nonce",
          "type": "uint64"
        },
        {
          "indexed": false,
          "internalType": "bytes",
          "name": "_payload",
          "type": "bytes"
        },
        {
          "indexed": false,
          "internalType": "bytes",
          "name": "_reason",
          "type": "bytes"
        }
      ],
      "name": "MessageFailed",
      "type": "event"
    },
    {
      "anonymous": false,
      "inputs": [
        {
          "indexed": true,
          "internalType": "address",
          "name": "previousOwner",
          "type": "address"
        },
        {
          "indexed": true,
          "internalType": "address",
          "name": "newOwner",
          "type": "address"
        }
      ],
      "name": "OwnershipTransferred",
      "type": "event"
    },
    {
      "anonymous": false,
      "inputs": [
        {
          "indexed": true,
          "internalType": "uint16",
          "name": "_srcChainId",
          "type": "uint16"
        },
        {
          "indexed": true,
          "internalType": "bytes",
          "name": "_srcAddress",
          "type": "bytes"
        },
        {
          "components": [
            {
              "internalType": "uint256",
              "name": "index",
              "type": "uint256"
            },
            {
              "internalType": "uint256",
              "name": "value",
              "type": "uint256"
            }
          ],
          "indexed": false,
          "internalType": "struct DistributeONFT721.TokenDistribute[]",
          "name": "tokenDistribute",
          "type": "tuple[]"
        }
      ],
      "name": "ReceiveDistribute",
      "type": "event"
    },
    {
      "anonymous": false,
      "inputs": [
        {
          "indexed": true,
          "internalType": "uint16",
          "name": "_srcChainId",
          "type": "uint16"
        },
        {
          "indexed": true,
          "internalType": "bytes",
          "name": "_srcAddress",
          "type": "bytes"
        },
        {
          "indexed": true,
          "internalType": "address",
          "name": "_toAddress",
          "type": "address"
        },
        {
          "indexed": false,
          "internalType": "uint256[]",
          "name": "_tokenIds",
          "type": "uint256[]"
        }
      ],
      "name": "ReceiveFromChain",
      "type": "event"
    },
    {
      "anonymous": false,
      "inputs": [
        {
          "indexed": false,
          "internalType": "uint16",
          "name": "_srcChainId",
          "type": "uint16"
        },
        {
          "indexed": false,
          "internalType": "bytes",
          "name": "_srcAddress",
          "type": "bytes"
        },
        {
          "indexed": false,
          "internalType": "uint64",
          "name": "_nonce",
          "type": "uint64"
        },
        {
          "indexed": false,
          "internalType": "bytes32",
          "name": "_payloadHash",
          "type": "bytes32"
        }
      ],
      "name": "RetryMessageSuccess",
      "type": "event"
    },
    {
      "anonymous": false,
      "inputs": [
        {
          "indexed": true,
          "internalType": "uint16",
          "name": "_dstChainId",
          "type": "uint16"
        },
        {
          "indexed": true,
          "internalType": "address",
          "name": "_from",
          "type": "address"
        },
        {
          "indexed": true,
          "internalType": "bytes",
          "name": "_toAddress",
          "type": "bytes"
        },
        {
          "indexed": false,
          "internalType": "uint256[]",
          "name": "_tokenIds",
          "type": "uint256[]"
        }
      ],
      "name": "SendToChain",
      "type": "event"
    },
    {
      "anonymous": false,
      "inputs": [
        {
          "indexed": false,
          "internalType": "uint256",
          "name": "_distributeBaseDstGas",
          "type": "uint256"
        }
      ],
      "name": "SetDistributeBaseDstGas",
      "type": "event"
    },
    {
      "anonymous": false,
      "inputs": [
        {
          "indexed": false,
          "internalType": "uint256",
          "name": "_distributeGasPerIdx",
          "type": "uint256"
        }
      ],
      "name": "SetDistributeGasPerIdx",
      "type": "event"
    },
    {
      "anonymous": false,
      "inputs": [
        {
          "indexed": false,
          "internalType": "uint16",
          "name": "_dstChainId",
          "type": "uint16"
        },
        {
          "indexed": false,
          "internalType": "uint256",
          "name": "_dstChainIdToBatchLimit",
          "type": "uint256"
        }
      ],
      "name": "SetDstChainIdToBatchLimit",
      "type": "event"
    },
    {
      "anonymous": false,
      "inputs": [
        {
          "indexed": false,
          "internalType": "uint16",
          "name": "_dstChainId",
          "type": "uint16"
        },
        {
          "indexed": false,
          "internalType": "uint256",
          "name": "_dstChainIdToTransferGas",
          "type": "uint256"
        }
      ],
      "name": "SetDstChainIdToTransferGas",
      "type": "event"
    },
    {
      "anonymous": false,
      "inputs": [
        {
          "indexed": false,
          "internalType": "uint16",
          "name": "_dstChainId",
          "type": "uint16"
        },
        {
          "indexed": false,
          "internalType": "uint16",
          "name": "_type",
          "type": "uint16"
        },
        {
          "indexed": false,
          "internalType": "uint256",
          "name": "_minDstGas",
          "type": "uint256"
        }
      ],
      "name": "SetMinDstGas",
      "type": "event"
    },
    {
      "anonymous": false,
      "inputs": [
        {
          "indexed": false,
          "internalType": "uint256",
          "name": "_minGasToTransferAndStore",
          "type": "uint256"
        }
      ],
      "name": "SetMinGasToTransferAndStore",
      "type": "event"
    },
    {
      "anonymous": false,
      "inputs": [
        {
          "indexed": false,
          "internalType": "address",
          "name": "precrime",
          "type": "address"
        }
      ],
      "name": "SetPrecrime",
      "type": "event"
    },
    {
      "anonymous": false,
      "inputs": [
        {
          "indexed": false,
          "internalType": "uint16",
          "name": "_remoteChainId",
          "type": "uint16"
        },
        {
          "indexed": false,
          "internalType": "bytes",
          "name": "_path",
          "type": "bytes"
        }
      ],
      "name": "SetTrustedRemote",
      "type": "event"
    },
    {
      "anonymous": false,
      "inputs": [
        {
          "indexed": false,
          "internalType": "uint16",
          "name": "_remoteChainId",
          "type": "uint16"
        },
        {
          "indexed": false,
          "internalType": "bytes",
          "name": "_remoteAddress",
          "type": "bytes"
        }
      ],
      "name": "SetTrustedRemoteAddress",
      "type": "event"
    },
    {
      "anonymous": false,
      "inputs": [
        {
          "indexed": true,
          "internalType": "address",
          "name": "from",
          "type": "address"
        },
        {
          "indexed": true,
          "internalType": "address",
          "name": "to",
          "type": "address"
        },
        {
          "indexed": true,
          "internalType": "uint256",
          "name": "tokenId",
          "type": "uint256"
        }
      ],
      "name": "Transfer",
      "type": "event"
    },
    {
      "inputs": [],
      "name": "DEFAULT_PAYLOAD_SIZE_LIMIT",
      "outputs": [
        {
          "internalType": "uint256",
          "name": "",
          "type": "uint256"
        }
      ],
      "stateMutability": "view",
      "type": "function"
    },
    {
      "inputs": [],
      "name": "FUNCTION_TYPE_DISTRIBUTE",
      "outputs": [
        {
          "internalType": "uint16",
          "name": "",
          "type": "uint16"
        }
      ],
      "stateMutability": "view",
      "type": "function"
    },
    {
      "inputs": [],
      "name": "FUNCTION_TYPE_SEND",
      "outputs": [
        {
          "internalType": "uint16",
          "name": "",
          "type": "uint16"
        }
      ],
      "stateMutability": "view",
      "type": "function"
    },
    {
      "inputs": [],
      "name": "MAX_TOKENS_PER_INDEX",
      "outputs": [
        {
          "internalType": "uint16",
          "name": "",
          "type": "uint16"
        }
      ],
      "stateMutability": "view",
      "type": "function"
    },
    {
      "inputs": [],
      "name": "NUM_TOKENS_PER_INDEX",
      "outputs": [
        {
          "internalType": "uint16",
          "name": "",
          "type": "uint16"
        }
      ],
      "stateMutability": "view",
      "type": "function"
    },
    {
      "inputs": [
        {
          "internalType": "address",
          "name": "to",
          "type": "address"
        },
        {
          "internalType": "uint256",
          "name": "tokenId",
          "type": "uint256"
        }
      ],
      "name": "approve",
      "outputs": [],
      "stateMutability": "nonpayable",
      "type": "function"
    },
    {
      "inputs": [
        {
          "internalType": "address",
          "name": "owner",
          "type": "address"
        }
      ],
      "name": "balanceOf",
      "outputs": [
        {
          "internalType": "uint256",
          "name": "",
          "type": "uint256"
        }
      ],
      "stateMutability": "view",
      "type": "function"
    },
    {
      "inputs": [
        {
          "internalType": "bytes",
          "name": "_payload",
          "type": "bytes"
        }
      ],
      "name": "clearCredits",
      "outputs": [],
      "stateMutability": "nonpayable",
      "type": "function"
    },
    {
      "inputs": [],
      "name": "countAllSetBits",
      "outputs": [
        {
          "internalType": "uint256",
          "name": "count",
          "type": "uint256"
        }
      ],
      "stateMutability": "view",
      "type": "function"
    },
    {
      "inputs": [],
      "name": "distributeBaseDstGas",
      "outputs": [
        {
          "internalType": "uint256",
          "name": "",
          "type": "uint256"
        }
      ],
      "stateMutability": "view",
      "type": "function"
    },
    {
      "inputs": [],
      "name": "distributeGasPerIdx",
      "outputs": [
        {
          "internalType": "uint256",
          "name": "",
          "type": "uint256"
        }
      ],
      "stateMutability": "view",
      "type": "function"
    },
    {
      "inputs": [
        {
          "internalType": "uint16",
          "name": "_dstChainId",
          "type": "uint16"
        },
        {
          "components": [
            {
              "internalType": "uint256",
              "name": "index",
              "type": "uint256"
            },
            {
              "internalType": "uint256",
              "name": "value",
              "type": "uint256"
            }
          ],
          "internalType": "struct DistributeONFT721.TokenDistribute[]",
          "name": "_tokenDistribute",
          "type": "tuple[]"
        },
        {
          "internalType": "address payable",
          "name": "_refundAddress",
          "type": "address"
        },
        {
          "internalType": "address",
          "name": "_zroPaymentAddress",
          "type": "address"
        }
      ],
      "name": "distributeTokens",
      "outputs": [],
      "stateMutability": "payable",
      "type": "function"
    },
    {
      "inputs": [
        {
          "internalType": "uint16",
          "name": "",
          "type": "uint16"
        }
      ],
      "name": "dstChainIdToBatchLimit",
      "outputs": [
        {
          "internalType": "uint256",
          "name": "",
          "type": "uint256"
        }
      ],
      "stateMutability": "view",
      "type": "function"
    },
    {
      "inputs": [
        {
          "internalType": "uint16",
          "name": "",
          "type": "uint16"
        }
      ],
      "name": "dstChainIdToTransferGas",
      "outputs": [
        {
          "internalType": "uint256",
          "name": "",
          "type": "uint256"
        }
      ],
      "stateMutability": "view",
      "type": "function"
    },
    {
      "inputs": [
        {
          "internalType": "uint16",
          "name": "_dstChainId",
          "type": "uint16"
        },
        {
          "components": [
            {
              "internalType": "uint256",
              "name": "index",
              "type": "uint256"
            },
            {
              "internalType": "uint256",
              "name": "value",
              "type": "uint256"
            }
          ],
          "internalType": "struct DistributeONFT721.TokenDistribute[]",
          "name": "_tokenDistribute",
          "type": "tuple[]"
        },
        {
          "internalType": "bool",
          "name": "_useZro",
          "type": "bool"
        }
      ],
      "name": "estimateDistributeFee",
      "outputs": [
        {
          "internalType": "uint256",
          "name": "nativeFee",
          "type": "uint256"
        },
        {
          "internalType": "uint256",
          "name": "zroFee",
          "type": "uint256"
        }
      ],
      "stateMutability": "view",
      "type": "function"
    },
    {
      "inputs": [
        {
          "internalType": "uint16",
          "name": "_dstChainId",
          "type": "uint16"
        },
        {
          "internalType": "bytes",
          "name": "_toAddress",
          "type": "bytes"
        },
        {
          "internalType": "uint256[]",
          "name": "_tokenIds",
          "type": "uint256[]"
        },
        {
          "internalType": "bool",
          "name": "_useZro",
          "type": "bool"
        },
        {
          "internalType": "bytes",
          "name": "_adapterParams",
          "type": "bytes"
        }
      ],
      "name": "estimateSendBatchFee",
      "outputs": [
        {
          "internalType": "uint256",
          "name": "nativeFee",
          "type": "uint256"
        },
        {
          "internalType": "uint256",
          "name": "zroFee",
          "type": "uint256"
        }
      ],
      "stateMutability": "view",
      "type": "function"
    },
    {
      "inputs": [
        {
          "internalType": "uint16",
          "name": "_dstChainId",
          "type": "uint16"
        },
        {
          "internalType": "bytes",
          "name": "_toAddress",
          "type": "bytes"
        },
        {
          "internalType": "uint256",
          "name": "_tokenId",
          "type": "uint256"
        },
        {
          "internalType": "bool",
          "name": "_useZro",
          "type": "bool"
        },
        {
          "internalType": "bytes",
          "name": "_adapterParams",
          "type": "bytes"
        }
      ],
      "name": "estimateSendFee",
      "outputs": [
        {
          "internalType": "uint256",
          "name": "nativeFee",
          "type": "uint256"
        },
        {
          "internalType": "uint256",
          "name": "zroFee",
          "type": "uint256"
        }
      ],
      "stateMutability": "view",
      "type": "function"
    },
    {
      "inputs": [
        {
          "internalType": "uint16",
          "name": "",
          "type": "uint16"
        },
        {
          "internalType": "bytes",
          "name": "",
          "type": "bytes"
        },
        {
          "internalType": "uint64",
          "name": "",
          "type": "uint64"
        }
      ],
      "name": "failedMessages",
      "outputs": [
        {
          "internalType": "bytes32",
          "name": "",
          "type": "bytes32"
        }
      ],
      "stateMutability": "view",
      "type": "function"
    },
    {
      "inputs": [
        {
          "internalType": "uint16",
          "name": "_srcChainId",
          "type": "uint16"
        },
        {
          "internalType": "bytes",
          "name": "_srcAddress",
          "type": "bytes"
        }
      ],
      "name": "forceResumeReceive",
      "outputs": [],
      "stateMutability": "nonpayable",
      "type": "function"
    },
    {
      "inputs": [
        {
          "internalType": "uint256",
          "name": "tokenId",
          "type": "uint256"
        }
      ],
      "name": "getApproved",
      "outputs": [
        {
          "internalType": "address",
          "name": "",
          "type": "address"
        }
      ],
      "stateMutability": "view",
      "type": "function"
    },
    {
      "inputs": [
        {
          "internalType": "uint16",
          "name": "_version",
          "type": "uint16"
        },
        {
          "internalType": "uint16",
          "name": "_chainId",
          "type": "uint16"
        },
        {
          "internalType": "address",
          "name": "",
          "type": "address"
        },
        {
          "internalType": "uint256",
          "name": "_configType",
          "type": "uint256"
        }
      ],
      "name": "getConfig",
      "outputs": [
        {
          "internalType": "bytes",
          "name": "",
          "type": "bytes"
        }
      ],
      "stateMutability": "view",
      "type": "function"
    },
    {
      "inputs": [
        {
          "internalType": "uint256",
          "name": "_amount",
          "type": "uint256"
        }
      ],
      "name": "getDistributeTokens",
      "outputs": [
        {
          "components": [
            {
              "internalType": "uint256",
              "name": "index",
              "type": "uint256"
            },
            {
              "internalType": "uint256",
              "name": "value",
              "type": "uint256"
            }
          ],
          "internalType": "struct DistributeONFT721.TokenDistribute[]",
          "name": "",
          "type": "tuple[]"
        }
      ],
      "stateMutability": "view",
      "type": "function"
    },
    {
      "inputs": [
        {
          "internalType": "uint16",
          "name": "_remoteChainId",
          "type": "uint16"
        }
      ],
      "name": "getTrustedRemoteAddress",
      "outputs": [
        {
          "internalType": "bytes",
          "name": "",
          "type": "bytes"
        }
      ],
      "stateMutability": "view",
      "type": "function"
    },
    {
      "inputs": [
        {
          "internalType": "address",
          "name": "owner",
          "type": "address"
        },
        {
          "internalType": "address",
          "name": "operator",
          "type": "address"
        }
      ],
      "name": "isApprovedForAll",
      "outputs": [
        {
          "internalType": "bool",
          "name": "",
          "type": "bool"
        }
      ],
      "stateMutability": "view",
      "type": "function"
    },
    {
      "inputs": [
        {
          "internalType": "uint16",
          "name": "_srcChainId",
          "type": "uint16"
        },
        {
          "internalType": "bytes",
          "name": "_srcAddress",
          "type": "bytes"
        }
      ],
      "name": "isTrustedRemote",
      "outputs": [
        {
          "internalType": "bool",
          "name": "",
          "type": "bool"
        }
      ],
      "stateMutability": "view",
      "type": "function"
    },
    {
      "inputs": [],
      "name": "lzEndpoint",
      "outputs": [
        {
          "internalType": "contract ILayerZeroEndpoint",
          "name": "",
          "type": "address"
        }
      ],
      "stateMutability": "view",
      "type": "function"
    },
    {
      "inputs": [
        {
          "internalType": "uint16",
          "name": "_srcChainId",
          "type": "uint16"
        },
        {
          "internalType": "bytes",
          "name": "_srcAddress",
          "type": "bytes"
        },
        {
          "internalType": "uint64",
          "name": "_nonce",
          "type": "uint64"
        },
        {
          "internalType": "bytes",
          "name": "_payload",
          "type": "bytes"
        }
      ],
      "name": "lzReceive",
      "outputs": [],
      "stateMutability": "nonpayable",
      "type": "function"
    },
    {
      "inputs": [
        {
          "internalType": "uint16",
          "name": "",
          "type": "uint16"
        },
        {
          "internalType": "uint16",
          "name": "",
          "type": "uint16"
        }
      ],
      "name": "minDstGasLookup",
      "outputs": [
        {
          "internalType": "uint256",
          "name": "",
          "type": "uint256"
        }
      ],
      "stateMutability": "view",
      "type": "function"
    },
    {
      "inputs": [],
      "name": "minGasToTransferAndStore",
      "outputs": [
        {
          "internalType": "uint256",
          "name": "",
          "type": "uint256"
        }
      ],
      "stateMutability": "view",
      "type": "function"
    },
    {
      "inputs": [],
      "name": "name",
      "outputs": [
        {
          "internalType": "string",
          "name": "",
          "type": "string"
        }
      ],
      "stateMutability": "view",
      "type": "function"
    },
    {
      "inputs": [
        {
          "internalType": "uint16",
          "name": "_srcChainId",
          "type": "uint16"
        },
        {
          "internalType": "bytes",
          "name": "_srcAddress",
          "type": "bytes"
        },
        {
          "internalType": "uint64",
          "name": "_nonce",
          "type": "uint64"
        },
        {
          "internalType": "bytes",
          "name": "_payload",
          "type": "bytes"
        }
      ],
      "name": "nonblockingLzReceive",
      "outputs": [],
      "stateMutability": "nonpayable",
      "type": "function"
    },
    {
      "inputs": [],
      "name": "owner",
      "outputs": [
        {
          "internalType": "address",
          "name": "",
          "type": "address"
        }
      ],
      "stateMutability": "view",
      "type": "function"
    },
    {
      "inputs": [
        {
          "internalType": "uint256",
          "name": "tokenId",
          "type": "uint256"
        }
      ],
      "name": "ownerOf",
      "outputs": [
        {
          "internalType": "address",
          "name": "",
          "type": "address"
        }
      ],
      "stateMutability": "view",
      "type": "function"
    },
    {
      "inputs": [
        {
          "internalType": "uint16",
          "name": "",
          "type": "uint16"
        }
      ],
      "name": "payloadSizeLimitLookup",
      "outputs": [
        {
          "internalType": "uint256",
          "name": "",
          "type": "uint256"
        }
      ],
      "stateMutability": "view",
      "type": "function"
    },
    {
      "inputs": [],
      "name": "precrime",
      "outputs": [
        {
          "internalType": "address",
          "name": "",
          "type": "address"
        }
      ],
      "stateMutability": "view",
      "type": "function"
    },
    {
      "inputs": [],
      "name": "renounceOwnership",
      "outputs": [],
      "stateMutability": "nonpayable",
      "type": "function"
    },
    {
      "inputs": [
        {
          "internalType": "uint16",
          "name": "_srcChainId",
          "type": "uint16"
        },
        {
          "internalType": "bytes",
          "name": "_srcAddress",
          "type": "bytes"
        },
        {
          "internalType": "uint64",
          "name": "_nonce",
          "type": "uint64"
        },
        {
          "internalType": "bytes",
          "name": "_payload",
          "type": "bytes"
        }
      ],
      "name": "retryMessage",
      "outputs": [],
      "stateMutability": "payable",
      "type": "function"
    },
    {
      "inputs": [
        {
          "internalType": "address",
          "name": "from",
          "type": "address"
        },
        {
          "internalType": "address",
          "name": "to",
          "type": "address"
        },
        {
          "internalType": "uint256",
          "name": "tokenId",
          "type": "uint256"
        }
      ],
      "name": "safeTransferFrom",
      "outputs": [],
      "stateMutability": "nonpayable",
      "type": "function"
    },
    {
      "inputs": [
        {
          "internalType": "address",
          "name": "from",
          "type": "address"
        },
        {
          "internalType": "address",
          "name": "to",
          "type": "address"
        },
        {
          "internalType": "uint256",
          "name": "tokenId",
          "type": "uint256"
        },
        {
          "internalType": "bytes",
          "name": "data",
          "type": "bytes"
        }
      ],
      "name": "safeTransferFrom",
      "outputs": [],
      "stateMutability": "nonpayable",
      "type": "function"
    },
    {
      "inputs": [
        {
          "internalType": "address",
          "name": "_from",
          "type": "address"
        },
        {
          "internalType": "uint16",
          "name": "_dstChainId",
          "type": "uint16"
        },
        {
          "internalType": "bytes",
          "name": "_toAddress",
          "type": "bytes"
        },
        {
          "internalType": "uint256[]",
          "name": "_tokenIds",
          "type": "uint256[]"
        },
        {
          "internalType": "address payable",
          "name": "_refundAddress",
          "type": "address"
        },
        {
          "internalType": "address",
          "name": "_zroPaymentAddress",
          "type": "address"
        },
        {
          "internalType": "bytes",
          "name": "_adapterParams",
          "type": "bytes"
        }
      ],
      "name": "sendBatchFrom",
      "outputs": [],
      "stateMutability": "payable",
      "type": "function"
    },
    {
      "inputs": [
        {
          "internalType": "address",
          "name": "_from",
          "type": "address"
        },
        {
          "internalType": "uint16",
          "name": "_dstChainId",
          "type": "uint16"
        },
        {
          "internalType": "bytes",
          "name": "_toAddress",
          "type": "bytes"
        },
        {
          "internalType": "uint256",
          "name": "_tokenId",
          "type": "uint256"
        },
        {
          "internalType": "address payable",
          "name": "_refundAddress",
          "type": "address"
        },
        {
          "internalType": "address",
          "name": "_zroPaymentAddress",
          "type": "address"
        },
        {
          "internalType": "bytes",
          "name": "_adapterParams",
          "type": "bytes"
        }
      ],
      "name": "sendFrom",
      "outputs": [],
      "stateMutability": "payable",
      "type": "function"
    },
    {
      "inputs": [
        {
          "internalType": "address",
          "name": "operator",
          "type": "address"
        },
        {
          "internalType": "bool",
          "name": "approved",
          "type": "bool"
        }
      ],
      "name": "setApprovalForAll",
      "outputs": [],
      "stateMutability": "nonpayable",
      "type": "function"
    },
    {
      "inputs": [
        {
          "internalType": "uint16",
          "name": "_version",
          "type": "uint16"
        },
        {
          "internalType": "uint16",
          "name": "_chainId",
          "type": "uint16"
        },
        {
          "internalType": "uint256",
          "name": "_configType",
          "type": "uint256"
        },
        {
          "internalType": "bytes",
          "name": "_config",
          "type": "bytes"
        }
      ],
      "name": "setConfig",
      "outputs": [],
      "stateMutability": "nonpayable",
      "type": "function"
    },
    {
      "inputs": [
        {
          "internalType": "uint256",
          "name": "_distributeBaseDstGas",
          "type": "uint256"
        }
      ],
      "name": "setDistributeBaseDstGas",
      "outputs": [],
      "stateMutability": "nonpayable",
      "type": "function"
    },
    {
      "inputs": [
        {
          "internalType": "uint256",
          "name": "_distributeGasPerIdx",
          "type": "uint256"
        }
      ],
      "name": "setDistributeGasPerIdx",
      "outputs": [],
      "stateMutability": "nonpayable",
      "type": "function"
    },
    {
      "inputs": [
        {
          "internalType": "uint16",
          "name": "_dstChainId",
          "type": "uint16"
        },
        {
          "internalType": "uint256",
          "name": "_dstChainIdToBatchLimit",
          "type": "uint256"
        }
      ],
      "name": "setDstChainIdToBatchLimit",
      "outputs": [],
      "stateMutability": "nonpayable",
      "type": "function"
    },
    {
      "inputs": [
        {
          "internalType": "uint16",
          "name": "_dstChainId",
          "type": "uint16"
        },
        {
          "internalType": "uint256",
          "name": "_dstChainIdToTransferGas",
          "type": "uint256"
        }
      ],
      "name": "setDstChainIdToTransferGas",
      "outputs": [],
      "stateMutability": "nonpayable",
      "type": "function"
    },
    {
      "inputs": [
        {
          "internalType": "uint16",
          "name": "_dstChainId",
          "type": "uint16"
        },
        {
          "internalType": "uint16",
          "name": "_packetType",
          "type": "uint16"
        },
        {
          "internalType": "uint256",
          "name": "_minGas",
          "type": "uint256"
        }
      ],
      "name": "setMinDstGas",
      "outputs": [],
      "stateMutability": "nonpayable",
      "type": "function"
    },
    {
      "inputs": [
        {
          "internalType": "uint256",
          "name": "_minGasToTransferAndStore",
          "type": "uint256"
        }
      ],
      "name": "setMinGasToTransferAndStore",
      "outputs": [],
      "stateMutability": "nonpayable",
      "type": "function"
    },
    {
      "inputs": [
        {
          "internalType": "uint16",
          "name": "_dstChainId",
          "type": "uint16"
        },
        {
          "internalType": "uint256",
          "name": "_size",
          "type": "uint256"
        }
      ],
      "name": "setPayloadSizeLimit",
      "outputs": [],
      "stateMutability": "nonpayable",
      "type": "function"
    },
    {
      "inputs": [
        {
          "internalType": "address",
          "name": "_precrime",
          "type": "address"
        }
      ],
      "name": "setPrecrime",
      "outputs": [],
      "stateMutability": "nonpayable",
      "type": "function"
    },
    {
      "inputs": [
        {
          "internalType": "uint16",
          "name": "_version",
          "type": "uint16"
        }
      ],
      "name": "setReceiveVersion",
      "outputs": [],
      "stateMutability": "nonpayable",
      "type": "function"
    },
    {
      "inputs": [
        {
          "internalType": "uint16",
          "name": "_version",
          "type": "uint16"
        }
      ],
      "name": "setSendVersion",
      "outputs": [],
      "stateMutability": "nonpayable",
      "type": "function"
    },
    {
      "inputs": [
        {
          "internalType": "uint16",
          "name": "_remoteChainId",
          "type": "uint16"
        },
        {
          "internalType": "bytes",
          "name": "_path",
          "type": "bytes"
        }
      ],
      "name": "setTrustedRemote",
      "outputs": [],
      "stateMutability": "nonpayable",
      "type": "function"
    },
    {
      "inputs": [
        {
          "internalType": "uint16",
          "name": "_remoteChainId",
          "type": "uint16"
        },
        {
          "internalType": "bytes",
          "name": "_remoteAddress",
          "type": "bytes"
        }
      ],
      "name": "setTrustedRemoteAddress",
      "outputs": [],
      "stateMutability": "nonpayable",
      "type": "function"
    },
    {
      "inputs": [
        {
          "internalType": "bytes32",
          "name": "",
          "type": "bytes32"
        }
      ],
      "name": "storedCredits",
      "outputs": [
        {
          "internalType": "uint16",
          "name": "srcChainId",
          "type": "uint16"
        },
        {
          "internalType": "address",
          "name": "toAddress",
          "type": "address"
        },
        {
          "internalType": "uint256",
          "name": "index",
          "type": "uint256"
        },
        {
          "internalType": "bool",
          "name": "creditsRemain",
          "type": "bool"
        }
      ],
      "stateMutability": "view",
      "type": "function"
    },
    {
      "inputs": [
        {
          "internalType": "bytes4",
          "name": "interfaceId",
          "type": "bytes4"
        }
      ],
      "name": "supportsInterface",
      "outputs": [
        {
          "internalType": "bool",
          "name": "",
          "type": "bool"
        }
      ],
      "stateMutability": "view",
      "type": "function"
    },
    {
      "inputs": [],
      "name": "symbol",
      "outputs": [
        {
          "internalType": "string",
          "name": "",
          "type": "string"
        }
      ],
      "stateMutability": "view",
      "type": "function"
    },
    {
      "inputs": [
        {
          "internalType": "uint256",
          "name": "",
          "type": "uint256"
        }
      ],
      "name": "tokenIds",
      "outputs": [
        {
          "internalType": "uint256",
          "name": "",
          "type": "uint256"
        }
      ],
      "stateMutability": "view",
      "type": "function"
    },
    {
      "inputs": [
        {
          "internalType": "uint256",
          "name": "tokenId",
          "type": "uint256"
        }
      ],
      "name": "tokenURI",
      "outputs": [
        {
          "internalType": "string",
          "name": "",
          "type": "string"
        }
      ],
      "stateMutability": "view",
      "type": "function"
    },
    {
      "inputs": [
        {
          "internalType": "address",
          "name": "from",
          "type": "address"
        },
        {
          "internalType": "address",
          "name": "to",
          "type": "address"
        },
        {
          "internalType": "uint256",
          "name": "tokenId",
          "type": "uint256"
        }
      ],
      "name": "transferFrom",
      "outputs": [],
      "stateMutability": "nonpayable",
      "type": "function"
    },
    {
      "inputs": [
        {
          "internalType": "address",
          "name": "newOwner",
          "type": "address"
        }
      ],
      "name": "transferOwnership",
      "outputs": [],
      "stateMutability": "nonpayable",
      "type": "function"
    },
    {
      "inputs": [
        {
          "internalType": "uint16",
          "name": "",
          "type": "uint16"
        }
      ],
      "name": "trustedRemoteLookup",
      "outputs": [
        {
          "internalType": "bytes",
          "name": "",
          "type": "bytes"
        }
      ],
      "stateMutability": "view",
      "type": "function"
    }
  ],
  "bytecode": "0x61c3506011556161a8601255602860a08181526105c06040529060c061050080368337505081516200003992601392506020019062000264565b503480156200004757600080fd5b5060405162005d0938038062005d098339810160408190526200006a91620004ca565b858585858383838380806200007f3362000214565b6001600160a01b031660805250600160065581620000f05760405162461bcd60e51b8152602060048201526024808201527f6d696e476173546f5472616e73666572416e6453746f7265206d7573742062656044820152630203e20360e41b60648201526084015b60405180910390fd5b5060075581516200010990600b906020850190620002b4565b5080516200011f90600c906020840190620002b4565b5050505050505060008251905081518114620001965760405162461bcd60e51b815260206004820152602f60248201527f5f696e646578417272617920616e64205f76616c75654172726179206d75737460448201526e040c4ca40e6c2daca40d8cadccee8d608b1b6064820152608401620000e7565b60005b818110156200020657828181518110620001b757620001b76200059e565b60200260200101516013858381518110620001d657620001d66200059e565b602002602001015181548110620001f157620001f16200059e565b60009182526020909120015560010162000199565b5050505050505050620005f1565b600080546001600160a01b038381166001600160a01b0319831681178455604051919092169283917f8be0079c531659141344cd1fd0a4f28419497f9722a3daafe3b4186f6b6457e09190a35050565b828054828255906000526020600020908101928215620002a2579160200282015b82811115620002a257825182559160200191906001019062000285565b50620002b092915062000330565b5090565b828054620002c290620005b4565b90600052602060002090601f016020900481019282620002e65760008555620002a2565b82601f106200030157805160ff1916838001178555620002a2565b82800160010185558215620002a25791820182811115620002a257825182559160200191906001019062000285565b5b80821115620002b0576000815560010162000331565b634e487b7160e01b600052604160045260246000fd5b604051601f8201601f191681016001600160401b038111828210171562000388576200038862000347565b604052919050565b600082601f830112620003a257600080fd5b81516001600160401b03811115620003be57620003be62000347565b6020620003d4601f8301601f191682016200035d565b8281528582848701011115620003e957600080fd5b60005b8381101562000409578581018301518282018401528201620003ec565b838111156200041b5760008385840101525b5095945050505050565b80516001600160a01b03811681146200043d57600080fd5b919050565b600082601f8301126200045457600080fd5b815160206001600160401b0382111562000472576200047262000347565b8160051b620004838282016200035d565b92835284810182019282810190878511156200049e57600080fd5b83870192505b84831015620004bf57825182529183019190830190620004a4565b979650505050505050565b60008060008060008060c08789031215620004e457600080fd5b86516001600160401b0380821115620004fc57600080fd5b6200050a8a838b0162000390565b975060208901519150808211156200052157600080fd5b6200052f8a838b0162000390565b9650604089015195506200054660608a0162000425565b945060808901519150808211156200055d57600080fd5b6200056b8a838b0162000442565b935060a08901519150808211156200058257600080fd5b506200059189828a0162000442565b9150509295509295509295565b634e487b7160e01b600052603260045260246000fd5b600181811c90821680620005c957607f821691505b60208210811415620005eb57634e487b7160e01b600052602260045260246000fd5b50919050565b6080516156bd6200064c60003960008181610a1001528181610c7701528181610f7b0152818161123d0152818161144801528181611e72015281816125050152818161263b015281816131ea015261380201526156bd6000f3fe6080604052600436106103b75760003560e01c80638cfd8f5c116101f2578063baf3292d1161010d578063d807e9e9116100a0578063f23536411161006f578063f235364114610be7578063f2fde38b14610c07578063f5ecbdbc14610c27578063fa25f9b614610c4757600080fd5b8063d807e9e914610b31578063df2a5b3b14610b5e578063e985e9c514610b7e578063eb8d72b714610bc757600080fd5b8063ce30e2a9116100dc578063ce30e2a914610ac8578063d12473a514610ade578063d1deba1f14610afe578063d58778d614610b1157600080fd5b8063baf3292d14610a52578063c446183414610a72578063c87b56dd14610a88578063cbed8b9c14610aa857600080fd5b80639f38369a11610185578063ab3ffb9311610154578063ab3ffb93146109d6578063af3fb21c146109e9578063b353aaa7146109fe578063b88d4fde14610a3257600080fd5b80639f38369a14610963578063a22cb46514610983578063a3049482146109a3578063a6c3d165146109b657600080fd5b8063911611e7116101c1578063911611e7146108f8578063950c8a741461090e57806395d89b411461092e5780639ea5d6b11461094357600080fd5b80638cfd8f5c146108625780638da5cb5b1461089a5780638eca19b9146108b85780638ffa1f2a146108d857600080fd5b80632ea80877116102e25780635b8c41e6116102755780636a621d49116102445780636a621d49146107f857806370a082311461080d578063715018a61461082d5780637533d7881461084257600080fd5b80635b8c41e6146107495780636305cb97146107985780636352211e146107b857806366ad5c8a146107d857600080fd5b806342d65a8d116102b157806342d65a8d146106d357806348288190146106f35780634ac3f4ff14610709578063519056361461073657600080fd5b80632ea808771461063e5780633d8b38f6146106665780633f1f4fa41461068657806342842e0e146106b357600080fd5b80630df374831161035a57806322a3ecf91161032957806322a3ecf91461055057806323b872dd146105d35780632518552b146105f35780632a205e3d1461060957600080fd5b80630df37483146104cd5780630e751294146104ed57806310ddb1371461050d57806318ec341c1461052d57600080fd5b806307e0db171161039657806307e0db1714610435578063081812fc14610455578063095ea7b31461048d5780630b4cad4c146104ad57600080fd5b80621d3567146103bc57806301ffc9a7146103de57806306fdde0314610413575b600080fd5b3480156103c857600080fd5b506103dc6103d7366004614440565b610c74565b005b3480156103ea57600080fd5b506103fe6103f93660046144eb565b610ea5565b60405190151581526020015b60405180910390f35b34801561041f57600080fd5b50610428610ec8565b60405161040a9190614560565b34801561044157600080fd5b506103dc610450366004614573565b610f5a565b34801561046157600080fd5b50610475610470366004614590565b610fe3565b6040516001600160a01b03909116815260200161040a565b34801561049957600080fd5b506103dc6104a83660046145c9565b61100a565b3480156104b957600080fd5b506103dc6104c8366004614590565b611120565b3480156104d957600080fd5b506103dc6104e83660046145f5565b6111c0565b3480156104f957600080fd5b506103dc610508366004614590565b6111df565b34801561051957600080fd5b506103dc610528366004614573565b61121c565b34801561053957600080fd5b50610542611274565b60405190815260200161040a565b34801561055c57600080fd5b506105a461056b366004614590565b600a6020526000908152604090208054600182015460029092015461ffff821692620100009092046001600160a01b0316919060ff1684565b6040805161ffff90951685526001600160a01b039093166020850152918301521515606082015260800161040a565b3480156105df57600080fd5b506103dc6105ee366004614613565b6112ea565b3480156105ff57600080fd5b5061054260125481565b34801561061557600080fd5b5061062961062436600461474f565b61131c565b6040805192835260208301919091520161040a565b34801561064a57600080fd5b50610653600281565b60405161ffff909116815260200161040a565b34801561067257600080fd5b506103fe6106813660046147df565b611342565b34801561069257600080fd5b506105426106a1366004614573565b60036020526000908152604090205481565b3480156106bf57600080fd5b506103dc6106ce366004614613565b61140e565b3480156106df57600080fd5b506103dc6106ee3660046147df565b611429565b3480156106ff57600080fd5b5061054260075481565b34801561071557600080fd5b50610542610724366004614573565b60086020526000908152604090205481565b6103dc610744366004614833565b6114af565b34801561075557600080fd5b506105426107643660046148ee565b6005602090815260009384526040808520845180860184018051928152908401958401959095209452929052825290205481565b3480156107a457600080fd5b506103dc6107b3366004614590565b6114c6565b3480156107c457600080fd5b506104756107d3366004614590565b611503565b3480156107e457600080fd5b506103dc6107f3366004614440565b611563565b34801561080457600080fd5b5061065360fa81565b34801561081957600080fd5b5061054261082836600461494d565b61163f565b34801561083957600080fd5b506103dc6116c5565b34801561084e57600080fd5b5061042861085d366004614573565b6116d9565b34801561086e57600080fd5b5061054261087d36600461496a565b600260209081526000928352604080842090915290825290205481565b3480156108a657600080fd5b506000546001600160a01b0316610475565b3480156108c457600080fd5b506106296108d3366004614a50565b611773565b3480156108e457600080fd5b506103dc6108f3366004614aa6565b6117b1565b34801561090457600080fd5b5061054260115481565b34801561091a57600080fd5b50600454610475906001600160a01b031681565b34801561093a57600080fd5b506104286119ed565b34801561094f57600080fd5b506103dc61095e3660046145f5565b6119fc565b34801561096f57600080fd5b5061042861097e366004614573565b611ab3565b34801561098f57600080fd5b506103dc61099e366004614ada565b611bca565b6103dc6109b1366004614b0f565b611bd9565b3480156109c257600080fd5b506103dc6109d13660046147df565b611cb6565b6103dc6109e4366004614bde565b611d49565b3480156109f557600080fd5b50610653600181565b348015610a0a57600080fd5b506104757f000000000000000000000000000000000000000000000000000000000000000081565b348015610a3e57600080fd5b506103dc610a4d366004614c90565b611d58565b348015610a5e57600080fd5b506103dc610a6d36600461494d565b611d8a565b348015610a7e57600080fd5b5061054261271081565b348015610a9457600080fd5b50610428610aa3366004614590565b611de0565b348015610ab457600080fd5b506103dc610ac3366004614cfb565b611e53565b348015610ad457600080fd5b5061065361010081565b348015610aea57600080fd5b506103dc610af93660046145f5565b611ee8565b6103dc610b0c366004614440565b611f98565b348015610b1d57600080fd5b50610542610b2c366004614590565b6121ae565b348015610b3d57600080fd5b50610b51610b4c366004614590565b6121cf565b60405161040a9190614db3565b348015610b6a57600080fd5b506103dc610b79366004614dc6565b6123b7565b348015610b8a57600080fd5b506103fe610b99366004614df6565b6001600160a01b03918216600090815260106020908152604080832093909416825291909152205460ff1690565b348015610bd357600080fd5b506103dc610be23660046147df565b612469565b348015610bf357600080fd5b50610629610c02366004614e24565b6124c3565b348015610c1357600080fd5b506103dc610c2236600461494d565b612591565b348015610c3357600080fd5b50610428610c42366004614e9f565b61260a565b348015610c5357600080fd5b50610542610c62366004614573565b60096020526000908152604090205481565b337f00000000000000000000000000000000000000000000000000000000000000006001600160a01b031614610cf15760405162461bcd60e51b815260206004820152601e60248201527f4c7a4170703a20696e76616c696420656e64706f696e742063616c6c6572000060448201526064015b60405180910390fd5b61ffff861660009081526001602052604081208054610d0f90614ef0565b80601f0160208091040260200160405190810160405280929190818152602001828054610d3b90614ef0565b8015610d885780601f10610d5d57610100808354040283529160200191610d88565b820191906000526020600020905b815481529060010190602001808311610d6b57829003601f168201915b50505050509050805186869050148015610da3575060008151115b8015610dcb575080516020820120604051610dc19088908890614f2b565b6040518091039020145b610e265760405162461bcd60e51b815260206004820152602660248201527f4c7a4170703a20696e76616c696420736f757263652073656e64696e6720636f6044820152651b9d1c9858dd60d21b6064820152608401610ce8565b610e9c8787878080601f01602080910402602001604051908101604052809392919081815260200183838082843760009201919091525050604080516020601f8a018190048102820181019092528881528a9350915088908890819084018382808284376000920191909152506126bd92505050565b50505050505050565b60006001600160e01b031982161580610ec25750610ec282612736565b92915050565b6060600b8054610ed790614ef0565b80601f0160208091040260200160405190810160405280929190818152602001828054610f0390614ef0565b8015610f505780601f10610f2557610100808354040283529160200191610f50565b820191906000526020600020905b815481529060010190602001808311610f3357829003601f168201915b5050505050905090565b610f62612776565b6040516307e0db1760e01b815261ffff821660048201527f00000000000000000000000000000000000000000000000000000000000000006001600160a01b0316906307e0db17906024015b600060405180830381600087803b158015610fc857600080fd5b505af1158015610fdc573d6000803e3d6000fd5b5050505050565b6000610fee826127d0565b506000908152600f60205260409020546001600160a01b031690565b600061101582611503565b9050806001600160a01b0316836001600160a01b031614156110835760405162461bcd60e51b815260206004820152602160248201527f4552433732313a20617070726f76616c20746f2063757272656e74206f776e656044820152603960f91b6064820152608401610ce8565b336001600160a01b038216148061109f575061109f8133610b99565b6111115760405162461bcd60e51b815260206004820152603d60248201527f4552433732313a20617070726f76652063616c6c6572206973206e6f7420746f60448201527f6b656e206f776e6572206f7220617070726f76656420666f7220616c6c0000006064820152608401610ce8565b61111b8383612820565b505050565b611128612776565b600081116111845760405162461bcd60e51b8152602060048201526024808201527f6d696e476173546f5472616e73666572416e6453746f7265206d7573742062656044820152630203e20360e41b6064820152608401610ce8565b60078190556040518181527ffebbc4f8bb9ec2313950c718d43123124b15778efda4c1f1d529de2995b4f34d906020015b60405180910390a150565b6111c8612776565b61ffff909116600090815260036020526040902055565b6111e7612776565b60128190556040518181527fe995f60b841a7336cf7af18b9017aab284c6678cf2a818f43c35098d5a901bc8906020016111b5565b611224612776565b6040516310ddb13760e01b815261ffff821660048201527f00000000000000000000000000000000000000000000000000000000000000006001600160a01b0316906310ddb13790602401610fae565b601354600090815b818110156112e55760006013828154811061129957611299614f3b565b906000526020600020015411156112dd576112d0601382815481106112c0576112c0614f3b565b906000526020600020015461288e565b6112da9084614f67565b92505b60010161127c565b505090565b6112f5335b82612aec565b6113115760405162461bcd60e51b8152600401610ce890614f7f565b61111b838383612b6a565b600080611334878761132d88612cce565b87876124c3565b915091509550959350505050565b61ffff83166000908152600160205260408120805482919061136390614ef0565b80601f016020809104026020016040519081016040528092919081815260200182805461138f90614ef0565b80156113dc5780601f106113b1576101008083540402835291602001916113dc565b820191906000526020600020905b8154815290600101906020018083116113bf57829003601f168201915b5050505050905083836040516113f3929190614f2b565b60405180910390208180519060200120149150509392505050565b61111b83838360405180602001604052806000815250611d58565b611431612776565b6040516342d65a8d60e01b81526001600160a01b037f000000000000000000000000000000000000000000000000000000000000000016906342d65a8d9061148190869086908690600401614ff5565b600060405180830381600087803b15801561149b57600080fd5b505af1158015610e9c573d6000803e3d6000fd5b610e9c8787876114be88612cce565b878787612d19565b6114ce612776565b60118190556040518181527f872735ac071276affce3a0a7de8308e2d22a272718a68dcd010a42ec626ecb5f906020016111b5565b6000818152600d60205260408120546001600160a01b031680610ec25760405162461bcd60e51b8152602060048201526018602482015277115490cdcc8c4e881a5b9d985b1a59081d1bdad95b88125160421b6044820152606401610ce8565b3330146115c15760405162461bcd60e51b815260206004820152602660248201527f4e6f6e626c6f636b696e674c7a4170703a2063616c6c6572206d7573742062656044820152650204c7a4170760d41b6064820152608401610ce8565b6116378686868080601f01602080910402602001604051908101604052809392919081815260200183838082843760009201919091525050604080516020601f890181900481028201810190925287815289935091508790879081908401838280828437600092019190915250612ee692505050565b505050505050565b60006001600160a01b0382166116a95760405162461bcd60e51b815260206004820152602960248201527f4552433732313a2061646472657373207a65726f206973206e6f7420612076616044820152683634b21037bbb732b960b91b6064820152608401610ce8565b506001600160a01b03166000908152600e602052604090205490565b6116cd612776565b6116d76000613195565b565b600160205260009081526040902080546116f290614ef0565b80601f016020809104026020016040519081016040528092919081815260200182805461171e90614ef0565b801561176b5780601f106117405761010080835404028352916020019161176b565b820191906000526020600020905b81548152906001019060200180831161174e57829003601f168201915b505050505081565b6000806117a58560028660405160200161178e929190615013565b6040516020818303038152906040528651866131e5565b91509150935093915050565b80516020808301919091206000818152600a90925260409091206002015460ff166118125760405162461bcd60e51b81526020600482015260116024820152701b9bc818dc99591a5d1cc81cdd1bdc9959607a1b6044820152606401610ce8565b6000828060200190518101906118289190615075565b6000858152600a602052604081208054600190910154929550909350611866925061ffff811691620100009091046001600160a01b03169085613291565b6000848152600a602052604090206001015490915081116118db5760405162461bcd60e51b815260206004820152602960248201527f6e6f7420656e6f7567682067617320746f2070726f6365737320637265646974604482015268103a3930b739b332b960b91b6064820152608401610ce8565b8151811415611953576000838152600a602052604080822080546001600160b01b031916815560018101929092556002909101805460ff19169055517fd7be02b8dd0d27bd0517a9cb4d7469ce27df4313821ae5ec1ff69acc594ba233906119469085815260200190565b60405180910390a16119e7565b604080516080810182526000858152600a6020818152848320805461ffff80821687526001600160a01b03620100008084048216868a019081529989018b8152600160608b01818152998f90529790965297519851169096026001600160b01b03199091169690951695909517939093178455915191830191909155516002909101805491151560ff199092169190911790555b50505050565b6060600c8054610ed790614ef0565b611a04612776565b60008111611a5f5760405162461bcd60e51b815260206004820152602260248201527f647374436861696e4964546f42617463684c696d6974206d757374206265203e604482015261020360f41b6064820152608401610ce8565b61ffff8216600081815260086020908152604091829020849055815192835282018390527f7315f7654d594ead24a30160ed9ba2d23247f543016b918343591e93d7afdb6d91015b60405180910390a15050565b61ffff8116600090815260016020526040812080546060929190611ad690614ef0565b80601f0160208091040260200160405190810160405280929190818152602001828054611b0290614ef0565b8015611b4f5780601f10611b2457610100808354040283529160200191611b4f565b820191906000526020600020905b815481529060010190602001808311611b3257829003601f168201915b50505050509050805160001415611ba85760405162461bcd60e51b815260206004820152601d60248201527f4c7a4170703a206e6f20747275737465642070617468207265636f72640000006044820152606401610ce8565b611bc3600060148351611bbb9190615142565b8391906132e3565b9392505050565b611bd53383836133f0565b5050565b611be1612776565b611bea836134bf565b611c265760405162461bcd60e51b815260206004820152600d60248201526c125b9d985b1a59081a5b9c1d5d609a1b6044820152606401610ce8565b611c2f83613575565b6000600284604051602001611c45929190615013565b60405160208183030381529060405290506000611c628551613620565b9050611c728683868685346136d8565b8561ffff167f9a72ab77f30e4ce04bdedd777b2dc64764e70205166233d02bd8411af912c44386604051611ca69190614db3565b60405180910390a2505050505050565b611cbe612776565b818130604051602001611cd393929190615159565b60408051601f1981840301815291815261ffff85166000908152600160209081529190208251611d08939192909101906142c4565b507f8c0400cfe2d1199b1a725c78960bcc2a344d869b80590d0f2bd005db15a572ce838383604051611d3c93929190614ff5565b60405180910390a1505050565b610e9c87878787878787612d19565b611d623383612aec565b611d7e5760405162461bcd60e51b8152600401610ce890614f7f565b6119e78484848461387e565b611d92612776565b600480546001600160a01b0319166001600160a01b0383169081179091556040519081527f5db758e995a17ec1ad84bdef7e8c3293a0bd6179bcce400dff5d4c3d87db726b906020016111b5565b6060611deb826127d0565b6000611e0260408051602081019091526000815290565b90506000815111611e225760405180602001604052806000815250611bc3565b80611e2c846138b1565b604051602001611e3d92919061517f565b6040516020818303038152906040529392505050565b611e5b612776565b6040516332fb62e760e21b81526001600160a01b037f0000000000000000000000000000000000000000000000000000000000000000169063cbed8b9c90611eaf90889088908890889088906004016151ae565b600060405180830381600087803b158015611ec957600080fd5b505af1158015611edd573d6000803e3d6000fd5b505050505050505050565b611ef0612776565b60008111611f4c5760405162461bcd60e51b815260206004820152602360248201527f647374436861696e4964546f5472616e73666572476173206d7573742062652060448201526203e20360ec1b6064820152608401610ce8565b61ffff8216600081815260096020908152604091829020849055815192835282018390527fc46df2983228ac2d9754e94a0d565e6671665dc8ad38602bc8e544f0685a29fb9101611aa7565b61ffff86166000908152600560205260408082209051611fbb9088908890614f2b565b90815260408051602092819003830190206001600160401b0387166000908152925290205490508061203b5760405162461bcd60e51b815260206004820152602360248201527f4e6f6e626c6f636b696e674c7a4170703a206e6f2073746f726564206d65737360448201526261676560e81b6064820152608401610ce8565b80838360405161204c929190614f2b565b6040518091039020146120ab5760405162461bcd60e51b815260206004820152602160248201527f4e6f6e626c6f636b696e674c7a4170703a20696e76616c6964207061796c6f616044820152601960fa1b6064820152608401610ce8565b61ffff871660009081526005602052604080822090516120ce9089908990614f2b565b90815260408051602092819003830181206001600160401b038916600090815290845282902093909355601f88018290048202830182019052868252612166918991899089908190840183828082843760009201919091525050604080516020601f8a018190048102820181019092528881528a935091508890889081908401838280828437600092019190915250612ee692505050565b7fc264d91f3adc5588250e1551f547752ca0cfa8f6b530d243b9f9f4cab10ea8e5878787878560405161219d9594939291906151e7565b60405180910390a150505050505050565b601381815481106121be57600080fd5b600091825260209091200154905081565b6060600082116122175760405162461bcd60e51b815260206004820152601360248201527205f616d6f756e74206d757374206265203e203606c1b6044820152606401610ce8565b60006122228361394d565b9050806122715760405162461bcd60e51b815260206004820152601f60248201527f4e6f7420656e6f75676820746f6b656e7320746f2064697374726962757465006044820152606401610ce8565b60135483906000836001600160401b0381111561229057612290614654565b6040519080825280602002602001820160405280156122d557816020015b60408051808201909152600080825260208201528152602001906001900390816122ae5790505b5090506000805b838110156123ab576000601382815481106122f9576122f9614f3b565b90600052602060002001549050806000141561231857506001016122dc565b8561232357506123ab565b6000805b871561236a57612336836139d9565b600160ff9190911681811b948518949384179390925090612357908a615142565b985083612364575061236a565b50612327565b60405180604001604052808581526020018381525086868151811061239157612391614f3b565b6020908102919091010152505050600191820191016122dc565b50909695505050505050565b6123bf612776565b600081116124075760405162461bcd60e51b81526020600482015260156024820152744c7a4170703a20696e76616c6964206d696e47617360581b6044820152606401610ce8565b61ffff83811660008181526002602090815260408083209487168084529482529182902085905581519283528201929092529081018290527f9d5c7c0b934da8fefa9c7760c98383778a12dfbfc0c3b3106518f43fb9508ac090606001611d3c565b612471612776565b61ffff8316600090815260016020526040902061248f908383614348565b507ffa41487ad5d6728f0b19276fa1eddc16558578f5109fc39d2dc33c3230470dab838383604051611d3c93929190614ff5565b6000806000600187876040516020016124de93929190615252565b60408051601f198184030181529082905263040a7bb160e41b825291506001600160a01b037f000000000000000000000000000000000000000000000000000000000000000016906340a7bb1090612542908b90309086908b908b9060040161528b565b6040805180830381865afa15801561255e573d6000803e3d6000fd5b505050506040513d601f19601f8201168201806040525081019061258291906152df565b92509250509550959350505050565b612599612776565b6001600160a01b0381166125fe5760405162461bcd60e51b815260206004820152602660248201527f4f776e61626c653a206e6577206f776e657220697320746865207a65726f206160448201526564647265737360d01b6064820152608401610ce8565b61260781613195565b50565b604051633d7b2f6f60e21b815261ffff808616600483015284166024820152306044820152606481018290526060907f00000000000000000000000000000000000000000000000000000000000000006001600160a01b03169063f5ecbdbc90608401600060405180830381865afa15801561268a573d6000803e3d6000fd5b505050506040513d6000823e601f3d908101601f191682016040526126b29190810190615303565b90505b949350505050565b6000806127205a60966366ad5c8a60e01b898989896040516024016126e59493929190615337565b60408051601f198184030181529190526020810180516001600160e01b03166001600160e01b03199093169290921790915230929190613acf565b9150915081611637576116378686868685613b59565b60006001600160e01b031982166380ac58cd60e01b148061276757506001600160e01b03198216635b5e139f60e01b145b80610ec25750610ec282613bf6565b6000546001600160a01b031633146116d75760405162461bcd60e51b815260206004820181905260248201527f4f776e61626c653a2063616c6c6572206973206e6f7420746865206f776e65726044820152606401610ce8565b6127d981613c2b565b6126075760405162461bcd60e51b8152602060048201526018602482015277115490cdcc8c4e881a5b9d985b1a59081d1bdad95b88125160421b6044820152606401610ce8565b6000818152600f6020526040902080546001600160a01b0319166001600160a01b038416908117909155819061285582611503565b6001600160a01b03167f8c5be1e5ebec7d5bd14f71427d1e84f3dd0314c0f7b2291e5b200ac8c7c3b92560405160405180910390a45050565b60007f5555555555555555555555555555555555555555555555555555555555555555600183901c167f555555555555555555555555555555555555555555555555555555555555555583166128e49190614f67565b91507f3333333333333333333333333333333333333333333333333333333333333333600283901c167f3333333333333333333333333333333333333333333333333333333333333333831661293a9190614f67565b91507f0f0f0f0f0f0f0f0f0f0f0f0f0f0f0f0f0f0f0f0f0f0f0f0f0f0f0f0f0f0f0f0f600483901c167f0f0f0f0f0f0f0f0f0f0f0f0f0f0f0f0f0f0f0f0f0f0f0f0f0f0f0f0f0f0f0f0f83166129909190614f67565b91507eff00ff00ff00ff00ff00ff00ff00ff00ff00ff00ff00ff00ff00ff00ff00ff600883901c167eff00ff00ff00ff00ff00ff00ff00ff00ff00ff00ff00ff00ff00ff00ff00ff83166129e49190614f67565b91507dffff0000ffff0000ffff0000ffff0000ffff0000ffff0000ffff0000ffff601083901c167dffff0000ffff0000ffff0000ffff0000ffff0000ffff0000ffff0000ffff8316612a369190614f67565b91507bffffffff00000000ffffffff00000000ffffffff00000000ffffffff602083901c167bffffffff00000000ffffffff00000000ffffffff00000000ffffffff8316612a849190614f67565b915077ffffffffffffffff0000000000000000ffffffffffffffff604083901c1677ffffffffffffffff0000000000000000ffffffffffffffff8316612aca9190614f67565b9150610ec2608083901c6fffffffffffffffffffffffffffffffff8416614f67565b600080612af883611503565b9050806001600160a01b0316846001600160a01b03161480612b3f57506001600160a01b0380821660009081526010602090815260408083209388168352929052205460ff165b806126b55750836001600160a01b0316612b5884610fe3565b6001600160a01b031614949350505050565b826001600160a01b0316612b7d82611503565b6001600160a01b031614612ba35760405162461bcd60e51b8152600401610ce890615375565b6001600160a01b038216612c055760405162461bcd60e51b8152602060048201526024808201527f4552433732313a207472616e7366657220746f20746865207a65726f206164646044820152637265737360e01b6064820152608401610ce8565b826001600160a01b0316612c1882611503565b6001600160a01b031614612c3e5760405162461bcd60e51b8152600401610ce890615375565b6000818152600f6020908152604080832080546001600160a01b03199081169091556001600160a01b03878116808652600e8552838620805460001901905590871680865283862080546001019055868652600d90945282852080549092168417909155905184937fddf252ad1be2c89b69c2b068fc378daa952ba7f163c4a11628f55a4df523b3ef91a4505050565b60408051600180825281830190925260609160009190602080830190803683370190505090508281600081518110612d0857612d08614f3b565b602090810291909101015292915050565b6000845111612d605760405162461bcd60e51b8152602060048201526013602482015272746f6b656e4964735b5d20697320656d70747960681b6044820152606401610ce8565b835160011480612d84575061ffff8616600090815260086020526040902054845111155b612ddb5760405162461bcd60e51b815260206004820152602260248201527f62617463682073697a65206578636565647320647374206261746368206c696d6044820152611a5d60f21b6064820152608401610ce8565b60005b8451811015612e1457612e0c888888888581518110612dff57612dff614f3b565b6020026020010151613c48565b600101612dde565b50600060018686604051602001612e2d93929190615252565b6040516020818303038152906040529050612e72876001848851600960008d61ffff1661ffff16815260200190815260200160002054612e6d91906153ba565b613d33565b612e808782868686346136d8565b85604051612e8e91906153d9565b6040518091039020886001600160a01b03168861ffff167fe1b87c47fdeb4f9cbadbca9df3af7aba453bb6e501075d0440d88125b711522a88604051612ed491906153f5565b60405180910390a45050505050505050565b602081015160ff8116600114156130615760008083806020019051810190612f0e9190615075565b6014820151919450925090506000612f2889838386613291565b90508251811015612ffc5785516020808801919091206040805160808101825261ffff808e1682526001600160a01b038088168387019081528385018881526001606086018181526000898152600a909a529887902095518654935190941662010000026001600160b01b03199093169390941692909217178355519082015592516002909301805493151560ff199094169390931790925590517f10e0b70d256bccc84b7027506978bd8b68984a870788b93b479def144c839ad790612ff29083908a90615408565b60405180910390a1505b816001600160a01b03168860405161301491906153d9565b60405180910390208a61ffff167f5b821db8a46f8ecbe1941ba2f51cfeea9643268b56631f70d45e2a745d9902658660405161305091906153f5565b60405180910390a450505050610fdc565b60ff811660021415610fdc576000828060200190518101906130839190615421565b8051909250905060005b8181101561313957600060138483815181106130ab576130ab614f3b565b602002602001015160000151815481106130c7576130c7614f3b565b906000526020600020015490508382815181106130e6576130e6614f3b565b6020026020010151602001518117601385848151811061310857613108614f3b565b6020026020010151600001518154811061312457613124614f3b565b6000918252602090912001555060010161308d565b508560405161314891906153d9565b60405180910390208761ffff167f3f87fd8a477104807d0f98e80e5446db6b5df756b08a6a7437b19c8f02f4c0cd846040516131849190614db3565b60405180910390a350505050505050565b600080546001600160a01b038381166001600160a01b0319831681178455604051919092169283917f8be0079c531659141344cd1fd0a4f28419497f9722a3daafe3b4186f6b6457e09190a35050565b6000807f00000000000000000000000000000000000000000000000000000000000000006001600160a01b03166340a7bb10873088876132248a613620565b6040518663ffffffff1660e01b815260040161324495949392919061528b565b6040805180830381865afa158015613260573d6000803e3d6000fd5b505050506040513d601f19601f8201168201806040525081019061328491906152df565b9150915094509492505050565b6000825b82518110156126b2576007545a10156132ad576126b2565b6132d186868584815181106132c4576132c4614f3b565b6020026020010151613e12565b806132db816154ec565b915050613295565b6060816132f181601f614f67565b10156133305760405162461bcd60e51b815260206004820152600e60248201526d736c6963655f6f766572666c6f7760901b6044820152606401610ce8565b61333a8284614f67565b8451101561337e5760405162461bcd60e51b8152602060048201526011602482015270736c6963655f6f75744f66426f756e647360781b6044820152606401610ce8565b60608215801561339d57604051915060008252602082016040526133e7565b6040519150601f8416801560200281840101858101878315602002848b0101015b818310156133d65780518352602092830192016133be565b5050858452601f01601f1916604052505b50949350505050565b816001600160a01b0316836001600160a01b031614156134525760405162461bcd60e51b815260206004820152601960248201527f4552433732313a20617070726f766520746f2063616c6c6572000000000000006044820152606401610ce8565b6001600160a01b03838116600081815260106020908152604080832094871680845294825291829020805460ff191686151590811790915591519182527f17307eab39ab6107e8899845ad3d59bd9653f200f220920489ca2b5937696c31910160405180910390a3505050565b8051600090815b8181101561356b57600060138583815181106134e4576134e4614f3b565b6020026020010151600001518154811061350057613500614f3b565b90600052602060002001549050600085838151811061352157613521614f3b565b6020026020010151602001518216905085838151811061354357613543614f3b565b60200260200101516020015181146135615750600095945050505050565b50506001016134c6565b5060019392505050565b805160005b8181101561111b5782818151811061359457613594614f3b565b60200260200101516020015160138483815181106135b4576135b4614f3b565b602002602001015160000151815481106135d0576135d0614f3b565b90600052602060002001541860138483815181106135f0576135f0614f3b565b6020026020010151600001518154811061360c5761360c614f3b565b60009182526020909120015560010161357a565b6060600082116136725760405162461bcd60e51b815260206004820152601d60248201527f416d6f756e74206d7573742062652067726561746572207468616e20300000006044820152606401610ce8565b6012546001906000906136858386615142565b61368f91906153ba565b60115461369c9190614f67565b6040516001600160f01b031960f085901b1660208201526022810182905290915060420160405160208183030381529060405292505050919050565b61ffff8616600090815260016020526040812080546136f690614ef0565b80601f016020809104026020016040519081016040528092919081815260200182805461372290614ef0565b801561376f5780601f106137445761010080835404028352916020019161376f565b820191906000526020600020905b81548152906001019060200180831161375257829003601f168201915b505050505090508051600014156137e15760405162461bcd60e51b815260206004820152603060248201527f4c7a4170703a2064657374696e6174696f6e20636861696e206973206e6f742060448201526f61207472757374656420736f7572636560801b6064820152608401610ce8565b6137ec878751613e72565b60405162c5803160e81b81526001600160a01b037f0000000000000000000000000000000000000000000000000000000000000000169063c5803100908490613843908b9086908c908c908c908c90600401615507565b6000604051808303818588803b15801561385c57600080fd5b505af1158015613870573d6000803e3d6000fd5b505050505050505050505050565b613889848484612b6a565b61389584848484613ee0565b6119e75760405162461bcd60e51b8152600401610ce89061556e565b606060006138be83613fdb565b60010190506000816001600160401b038111156138dd576138dd614654565b6040519080825280601f01601f191660200182016040528015613907576020820181803683370190505b5090508181016020015b600019016f181899199a1a9b1b9c1cb0b131b232b360811b600a86061a8153600a850494508461394057613945565b613911565b509392505050565b60135460009081908190815b818110156139cd5760006013828154811061397657613976614f3b565b90600052602060002001549050600061398e8261288e565b905080156139a4576139a1600186614f67565b94505b6139ae8187614f67565b95508786106139c35750929695505050505050565b5050600101613959565b50600095945050505050565b6000816139e857506000919050565b600160801b8210613a0657608091821c91613a0390826155c0565b90505b680100000000000000008210613a2957604091821c91613a2690826155c0565b90505b6401000000008210613a4857602091821c91613a4590826155c0565b90505b620100008210613a6557601091821c91613a6290826155c0565b90505b6101008210613a8157600891821c91613a7e90826155c0565b90505b60108210613a9c57600491821c91613a9990826155c0565b90505b60048210613ab757600291821c91613ab490826155c0565b90505b60028210613aca57610ec26001826155c0565b919050565b6000606060008060008661ffff166001600160401b03811115613af457613af4614654565b6040519080825280601f01601f191660200182016040528015613b1e576020820181803683370190505b50905060008087516020890160008d8df191503d925086831115613b40578692505b828152826000602083013e909890975095505050505050565b8180519060200120600560008761ffff1661ffff16815260200190815260200160002085604051613b8a91906153d9565b9081526040805191829003602090810183206001600160401b0388166000908152915220919091557fe183f33de2837795525b4792ca4cd60535bd77c53b7e7030060bfcf5734d6b0c90613be790879087908790879087906155e5565b60405180910390a15050505050565b60006001600160e01b031982166322bac5d960e01b1480610ec257506301ffc9a760e01b6001600160e01b0319831614610ec2565b6000908152600d60205260409020546001600160a01b0316151590565b613c51336112ef565b613cb45760405162461bcd60e51b815260206004820152602e60248201527f4f4e46543732313a2073656e642063616c6c6572206973206e6f74206f776e6560448201526d1c881b9bdc88185c1c1c9bdd995960921b6064820152608401610ce8565b836001600160a01b0316613cc782611503565b6001600160a01b031614613d285760405162461bcd60e51b815260206004820152602260248201527f4f4e46543732313a2073656e642066726f6d20696e636f7272656374206f776e60448201526132b960f11b6064820152608401610ce8565b6119e7843083612b6a565b6000613d3e836140b3565b61ffff808716600090815260026020908152604080832093891683529290529081205491925090613d70908490614f67565b905060008111613dc25760405162461bcd60e51b815260206004820152601a60248201527f4c7a4170703a206d696e4761734c696d6974206e6f74207365740000000000006044820152606401610ce8565b808210156116375760405162461bcd60e51b815260206004820152601b60248201527f4c7a4170703a20676173206c696d697420697320746f6f206c6f7700000000006044820152606401610ce8565b613e1b81613c2b565b1580613e475750613e2b81613c2b565b8015613e47575030613e3c82611503565b6001600160a01b0316145b613e5057600080fd5b613e5981613c2b565b613e675761111b828261410f565b61111b308383612b6a565b61ffff821660009081526003602052604090205480613e9057506127105b8082111561111b5760405162461bcd60e51b815260206004820181905260248201527f4c7a4170703a207061796c6f61642073697a6520697320746f6f206c617267656044820152606401610ce8565b60006001600160a01b0384163b15613fd357604051630a85bd0160e11b81526001600160a01b0385169063150b7a0290613f24903390899088908890600401615637565b6020604051808303816000875af1925050508015613f5f575060408051601f3d908101601f19168201909252613f5c9181019061566a565b60015b613fb9573d808015613f8d576040519150601f19603f3d011682016040523d82523d6000602084013e613f92565b606091505b508051613fb15760405162461bcd60e51b8152600401610ce89061556e565b805181602001fd5b6001600160e01b031916630a85bd0160e11b1490506126b5565b5060016126b5565b60008072184f03e93ff9f4daa797ed6e38ed64bf6a1f0160401b831061401a5772184f03e93ff9f4daa797ed6e38ed64bf6a1f0160401b830492506040015b6d04ee2d6d415b85acef81000000008310614046576d04ee2d6d415b85acef8100000000830492506020015b662386f26fc10000831061406457662386f26fc10000830492506010015b6305f5e100831061407c576305f5e100830492506008015b612710831061409057612710830492506004015b606483106140a2576064830492506002015b600a8310610ec25760010192915050565b60006022825110156141075760405162461bcd60e51b815260206004820152601c60248201527f4c7a4170703a20696e76616c69642061646170746572506172616d73000000006044820152606401610ce8565b506022015190565b611bd582826040518060200160405280600081525061412e8383614157565b61413b6000848484613ee0565b61111b5760405162461bcd60e51b8152600401610ce89061556e565b6001600160a01b0382166141ad5760405162461bcd60e51b815260206004820181905260248201527f4552433732313a206d696e7420746f20746865207a65726f20616464726573736044820152606401610ce8565b6141b681613c2b565b156142035760405162461bcd60e51b815260206004820152601c60248201527f4552433732313a20746f6b656e20616c7265616479206d696e746564000000006044820152606401610ce8565b61420c81613c2b565b156142595760405162461bcd60e51b815260206004820152601c60248201527f4552433732313a20746f6b656e20616c7265616479206d696e746564000000006044820152606401610ce8565b6001600160a01b0382166000818152600e6020908152604080832080546001019055848352600d90915280822080546001600160a01b0319168417905551839291907fddf252ad1be2c89b69c2b068fc378daa952ba7f163c4a11628f55a4df523b3ef908290a45050565b8280546142d090614ef0565b90600052602060002090601f0160209004810192826142f25760008555614338565b82601f1061430b57805160ff1916838001178555614338565b82800160010185558215614338579182015b8281111561433857825182559160200191906001019061431d565b506143449291506143bc565b5090565b82805461435490614ef0565b90600052602060002090601f0160209004810192826143765760008555614338565b82601f1061438f5782800160ff19823516178555614338565b82800160010185558215614338579182015b828111156143385782358255916020019190600101906143a1565b5b8082111561434457600081556001016143bd565b61ffff8116811461260757600080fd5b60008083601f8401126143f357600080fd5b5081356001600160401b0381111561440a57600080fd5b60208301915083602082850101111561442257600080fd5b9250929050565b80356001600160401b0381168114613aca57600080fd5b6000806000806000806080878903121561445957600080fd5b8635614464816143d1565b955060208701356001600160401b038082111561448057600080fd5b61448c8a838b016143e1565b90975095508591506144a060408a01614429565b945060608901359150808211156144b657600080fd5b506144c389828a016143e1565b979a9699509497509295939492505050565b6001600160e01b03198116811461260757600080fd5b6000602082840312156144fd57600080fd5b8135611bc3816144d5565b60005b8381101561452357818101518382015260200161450b565b838111156119e75750506000910152565b6000815180845261454c816020860160208601614508565b601f01601f19169290920160200192915050565b602081526000611bc36020830184614534565b60006020828403121561458557600080fd5b8135611bc3816143d1565b6000602082840312156145a257600080fd5b5035919050565b6001600160a01b038116811461260757600080fd5b8035613aca816145a9565b600080604083850312156145dc57600080fd5b82356145e7816145a9565b946020939093013593505050565b6000806040838503121561460857600080fd5b82356145e7816143d1565b60008060006060848603121561462857600080fd5b8335614633816145a9565b92506020840135614643816145a9565b929592945050506040919091013590565b634e487b7160e01b600052604160045260246000fd5b604080519081016001600160401b038111828210171561468c5761468c614654565b60405290565b604051601f8201601f191681016001600160401b03811182821017156146ba576146ba614654565b604052919050565b60006001600160401b038211156146db576146db614654565b50601f01601f191660200190565b600082601f8301126146fa57600080fd5b813561470d614708826146c2565b614692565b81815284602083860101111561472257600080fd5b816020850160208301376000918101602001919091529392505050565b80358015158114613aca57600080fd5b600080600080600060a0868803121561476757600080fd5b8535614772816143d1565b945060208601356001600160401b038082111561478e57600080fd5b61479a89838a016146e9565b9550604088013594506147af6060890161473f565b935060808801359150808211156147c557600080fd5b506147d2888289016146e9565b9150509295509295909350565b6000806000604084860312156147f457600080fd5b83356147ff816143d1565b925060208401356001600160401b0381111561481a57600080fd5b614826868287016143e1565b9497909650939450505050565b600080600080600080600060e0888a03121561484e57600080fd5b8735614859816145a9565b96506020880135614869816143d1565b955060408801356001600160401b038082111561488557600080fd5b6148918b838c016146e9565b965060608a0135955060808a013591506148aa826145a9565b90935060a0890135906148bc826145a9565b90925060c089013590808211156148d257600080fd5b506148df8a828b016146e9565b91505092959891949750929550565b60008060006060848603121561490357600080fd5b833561490e816143d1565b925060208401356001600160401b0381111561492957600080fd5b614935868287016146e9565b92505061494460408501614429565b90509250925092565b60006020828403121561495f57600080fd5b8135611bc3816145a9565b6000806040838503121561497d57600080fd5b8235614988816143d1565b91506020830135614998816143d1565b809150509250929050565b60006001600160401b038211156149bc576149bc614654565b5060051b60200190565b600082601f8301126149d757600080fd5b813560206149e7614708836149a3565b82815260069290921b84018101918181019086841115614a0657600080fd5b8286015b84811015614a455760408189031215614a235760008081fd5b614a2b61466a565b813581528482013585820152835291830191604001614a0a565b509695505050505050565b600080600060608486031215614a6557600080fd5b8335614a70816143d1565b925060208401356001600160401b03811115614a8b57600080fd5b614a97868287016149c6565b9250506149446040850161473f565b600060208284031215614ab857600080fd5b81356001600160401b03811115614ace57600080fd5b6126b5848285016146e9565b60008060408385031215614aed57600080fd5b8235614af8816145a9565b9150614b066020840161473f565b90509250929050565b60008060008060808587031215614b2557600080fd5b8435614b30816143d1565b935060208501356001600160401b03811115614b4b57600080fd5b614b57878288016149c6565b9350506040850135614b68816145a9565b91506060850135614b78816145a9565b939692955090935050565b600082601f830112614b9457600080fd5b81356020614ba4614708836149a3565b82815260059290921b84018101918181019086841115614bc357600080fd5b8286015b84811015614a455780358352918301918301614bc7565b600080600080600080600060e0888a031215614bf957600080fd5b8735614c04816145a9565b96506020880135614c14816143d1565b955060408801356001600160401b0380821115614c3057600080fd5b614c3c8b838c016146e9565b965060608a0135915080821115614c5257600080fd5b614c5e8b838c01614b83565b9550614c6c60808b016145be565b9450614c7a60a08b016145be565b935060c08a01359150808211156148d257600080fd5b60008060008060808587031215614ca657600080fd5b8435614cb1816145a9565b93506020850135614cc1816145a9565b92506040850135915060608501356001600160401b03811115614ce357600080fd5b614cef878288016146e9565b91505092959194509250565b600080600080600060808688031215614d1357600080fd5b8535614d1e816143d1565b94506020860135614d2e816143d1565b93506040860135925060608601356001600160401b03811115614d5057600080fd5b614d5c888289016143e1565b969995985093965092949392505050565b600081518084526020808501945080840160005b83811015614da8578151805188528301518388015260409096019590820190600101614d81565b509495945050505050565b602081526000611bc36020830184614d6d565b600080600060608486031215614ddb57600080fd5b8335614de6816143d1565b92506020840135614643816143d1565b60008060408385031215614e0957600080fd5b8235614e14816145a9565b91506020830135614998816145a9565b600080600080600060a08688031215614e3c57600080fd5b8535614e47816143d1565b945060208601356001600160401b0380821115614e6357600080fd5b614e6f89838a016146e9565b95506040880135915080821115614e8557600080fd5b614e9189838a01614b83565b94506147af6060890161473f565b60008060008060808587031215614eb557600080fd5b8435614ec0816143d1565b93506020850135614ed0816143d1565b92506040850135614ee0816145a9565b9396929550929360600135925050565b600181811c90821680614f0457607f821691505b60208210811415614f2557634e487b7160e01b600052602260045260246000fd5b50919050565b8183823760009101908152919050565b634e487b7160e01b600052603260045260246000fd5b634e487b7160e01b600052601160045260246000fd5b60008219821115614f7a57614f7a614f51565b500190565b6020808252602d908201527f4552433732313a2063616c6c6572206973206e6f7420746f6b656e206f776e6560408201526c1c881bdc88185c1c1c9bdd9959609a1b606082015260800190565b81835281816020850137506000828201602090810191909152601f909101601f19169091010190565b61ffff841681526040602082015260006126b2604083018486614fcc565b61ffff831681526040602082015260006126b56040830184614d6d565b600082601f83011261504157600080fd5b815161504f614708826146c2565b81815284602083860101111561506457600080fd5b6126b5826020830160208701614508565b60008060006060848603121561508a57600080fd5b8351615095816143d1565b809350506020808501516001600160401b03808211156150b457600080fd5b6150c088838901615030565b945060408701519150808211156150d657600080fd5b508501601f810187136150e857600080fd5b80516150f6614708826149a3565b81815260059190911b8201830190838101908983111561511557600080fd5b928401925b828410156151335783518252928401929084019061511a565b80955050505050509250925092565b60008282101561515457615154614f51565b500390565b8284823760609190911b6bffffffffffffffffffffffff19169101908152601401919050565b60008351615191818460208801614508565b8351908301906151a5818360208801614508565b01949350505050565b600061ffff8088168352808716602084015250846040830152608060608301526151dc608083018486614fcc565b979650505050505050565b61ffff86168152608060208201526000615205608083018688614fcc565b6001600160401b0394909416604083015250606001529392505050565b600081518084526020808501945080840160005b83811015614da857815187529582019590820190600101615236565b61ffff8416815260606020820152600061526f6060830185614534565b82810360408401526152818185615222565b9695505050505050565b61ffff861681526001600160a01b038516602082015260a0604082018190526000906152b990830186614534565b841515606084015282810360808401526152d38185614534565b98975050505050505050565b600080604083850312156152f257600080fd5b505080516020909101519092909150565b60006020828403121561531557600080fd5b81516001600160401b0381111561532b57600080fd5b6126b584828501615030565b61ffff851681526080602082015260006153546080830186614534565b6001600160401b038516604084015282810360608401526151dc8185614534565b60208082526025908201527f4552433732313a207472616e736665722066726f6d20696e636f72726563742060408201526437bbb732b960d91b606082015260800190565b60008160001904831182151516156153d4576153d4614f51565b500290565b600082516153eb818460208701614508565b9190910192915050565b602081526000611bc36020830184615222565b8281526040602082015260006126b56040830184614534565b600080604080848603121561543557600080fd5b8351615440816143d1565b809350506020808501516001600160401b0381111561545e57600080fd5b8501601f8101871361546f57600080fd5b805161547d614708826149a3565b81815260069190911b8201830190838101908983111561549c57600080fd5b928401925b828410156154dc5785848b0312156154b95760008081fd5b6154c161466a565b845181528585015186820152825292850192908401906154a1565b8096505050505050509250929050565b600060001982141561550057615500614f51565b5060010190565b61ffff8716815260c06020820152600061552460c0830188614534565b82810360408401526155368188614534565b6001600160a01b0387811660608601528616608085015283810360a085015290506155618185614534565b9998505050505050505050565b60208082526032908201527f4552433732313a207472616e7366657220746f206e6f6e20455243373231526560408201527131b2b4bb32b91034b6b83632b6b2b73a32b960711b606082015260800190565b600060ff821660ff84168060ff038211156155dd576155dd614f51565b019392505050565b61ffff8616815260a06020820152600061560260a0830187614534565b6001600160401b038616604084015282810360608401526156238186614534565b905082810360808401526152d38185614534565b6001600160a01b038581168252841660208201526040810183905260806060820181905260009061528190830184614534565b60006020828403121561567c57600080fd5b8151611bc3816144d556fea2646970667358221220691194385fbb06521e9fa666feebd67b116cbca9cd86ec615f479ec7c9fde78c64736f6c634300080c0033",
  "linkReferences": {},
  "deployedLinkReferences": {}
}