{
  "address": "0xd4127Fe215b76174615c61c3620C4d3993C39956",
  "abi": [
    {
      "anonymous": false,
      "inputs": [
        {
          "indexed": true,
          "internalType": "address",
          "name": "previousOwner",
          "type": "address"
        },
        {
          "indexed": true,
          "internalType": "address",
          "name": "newOwner",
          "type": "address"
        }
      ],
      "name": "OwnershipTransferred",
      "type": "event"
    },
    {
      "inputs": [
        {
          "internalType": "address",
          "name": "",
          "type": "address"
        },
        {
          "internalType": "uint32",
          "name": "",
          "type": "uint32"
        },
        {
          "internalType": "uint256",
          "name": "_totalFee",
          "type": "uint256"
        },
        {
          "internalType": "bool",
          "name": "_payInLzToken",
          "type": "bool"
        }
      ],
      "name": "getFee",
      "outputs": [
        {
          "internalType": "uint256",
          "name": "",
          "type": "uint256"
        }
      ],
      "stateMutability": "view",
      "type": "function"
    },
    {
      "inputs": [],
      "name": "lzTokenEnabled",
      "outputs": [
        {
          "internalType": "bool",
          "name": "",
          "type": "bool"
        }
      ],
      "stateMutability": "view",
      "type": "function"
    },
    {
      "inputs": [],
      "name": "lzTokenFee",
      "outputs": [
        {
          "internalType": "uint256",
          "name": "",
          "type": "uint256"
        }
      ],
      "stateMutability": "view",
      "type": "function"
    },
    {
      "inputs": [],
      "name": "nativeBP",
      "outputs": [
        {
          "internalType": "uint256",
          "name": "",
          "type": "uint256"
        }
      ],
      "stateMutability": "view",
      "type": "function"
    },
    {
      "inputs": [],
      "name": "owner",
      "outputs": [
        {
          "internalType": "address",
          "name": "",
          "type": "address"
        }
      ],
      "stateMutability": "view",
      "type": "function"
    },
    {
      "inputs": [],
      "name": "renounceOwnership",
      "outputs": [],
      "stateMutability": "nonpayable",
      "type": "function"
    },
    {
      "inputs": [
        {
          "internalType": "uint256",
          "name": "_zroFee",
          "type": "uint256"
        }
      ],
      "name": "setLzToken",
      "outputs": [],
      "stateMutability": "nonpayable",
      "type": "function"
    },
    {
      "inputs": [
        {
          "internalType": "bool",
          "name": "_zroEnabled",
          "type": "bool"
        }
      ],
      "name": "setLzTokenEnabled",
      "outputs": [],
      "stateMutability": "nonpayable",
      "type": "function"
    },
    {
      "inputs": [
        {
          "internalType": "uint256",
          "name": "_nativeBP",
          "type": "uint256"
        }
      ],
      "name": "setNativeFeeBP",
      "outputs": [],
      "stateMutability": "nonpayable",
      "type": "function"
    },
    {
      "inputs": [
        {
          "internalType": "address",
          "name": "newOwner",
          "type": "address"
        }
      ],
      "name": "transferOwnership",
      "outputs": [],
      "stateMutability": "nonpayable",
      "type": "function"
    },
    {
      "inputs": [
        {
          "internalType": "address",
          "name": "_messageLib",
          "type": "address"
        },
        {
          "internalType": "address",
          "name": "_lzToken",
          "type": "address"
        },
        {
          "internalType": "address",
          "name": "_to",
          "type": "address"
        },
        {
          "internalType": "uint256",
          "name": "_amount",
          "type": "uint256"
        }
      ],
      "name": "withdrawLzToken",
      "outputs": [],
      "stateMutability": "nonpayable",
      "type": "function"
    },
    {
      "inputs": [
        {
          "internalType": "address",
          "name": "_lzToken",
          "type": "address"
        },
        {
          "internalType": "address",
          "name": "_to",
          "type": "address"
        },
        {
          "internalType": "uint256",
          "name": "_amount",
          "type": "uint256"
        }
      ],
      "name": "withdrawLzToken",
      "outputs": [],
      "stateMutability": "nonpayable",
      "type": "function"
    },
    {
      "inputs": [
        {
          "internalType": "address",
          "name": "_messageLib",
          "type": "address"
        },
        {
          "internalType": "address payable",
          "name": "_to",
          "type": "address"
        },
        {
          "internalType": "uint256",
          "name": "_amount",
          "type": "uint256"
        }
      ],
      "name": "withdrawNativeFee",
      "outputs": [],
      "stateMutability": "nonpayable",
      "type": "function"
    }
  ],
  "transactionHash": "0x2682c8b16af7249eec17b00de12271a7b45accd00f0cdc78daf4750a4d5873bd",
  "args": [],
  "numDeployments": 1,
  "solcInputHash": "23618ae04a8987a244e2ff990cbbeac7",
  "bytecode": "0x608060405234801561001057600080fd5b5061001a3361001f565b61006f565b600080546001600160a01b038381166001600160a01b0319831681178455604051919092169283917f8be0079c531659141344cd1fd0a4f28419497f9722a3daafe3b4186f6b6457e09190a35050565b610bdc8061007e6000396000f3fe608060405234801561001057600080fd5b50600436106100df5760003560e01c80638da5cb5b1161008c578063bf6e753611610066578063bf6e7536146101a4578063d4244221146101b7578063ef90be4c146101ca578063f2fde38b146101dd57600080fd5b80638da5cb5b1461015c578063909532381461018457806396a141a01461019b57600080fd5b8063715018a6116100bd578063715018a61461012e57806377c48995146101365780637e8a06991461014957600080fd5b806301d9c2cb146100e457806301f1f6e8146101065780633972d46c1461011b575b600080fd5b6003546100f19060ff1681565b60405190151581526020015b60405180910390f35b61011961011436600461090f565b6101f0565b005b610119610129366004610933565b610229565b610119610236565b610119610144366004610933565b61024a565b61011961015736600461096e565b610257565b60005460405173ffffffffffffffffffffffffffffffffffffffff90911681526020016100fd565b61018d60025481565b6040519081526020016100fd565b61018d60015481565b6101196101b23660046109bf565b6102f5565b61018d6101c5366004610a00565b61038a565b6101196101d83660046109bf565b61043d565b6101196101eb366004610a5c565b61046b565b6101f8610522565b600380547fffffffffffffffffffffffffffffffffffffffffffffffffffffffffffffff0016911515919091179055565b610231610522565b600155565b61023e610522565b61024860006105a3565b565b610252610522565b600255565b61025f610522565b6040517f200175f700000000000000000000000000000000000000000000000000000000815273ffffffffffffffffffffffffffffffffffffffff848116600483015283811660248301526044820183905285169063200175f790606401600060405180830381600087803b1580156102d757600080fd5b505af11580156102eb573d6000803e3d6000fd5b5050505050505050565b6102fd610522565b6040517ffd9be52200000000000000000000000000000000000000000000000000000000815273ffffffffffffffffffffffffffffffffffffffff83811660048301526024820183905284169063fd9be52290604401600060405180830381600087803b15801561036d57600080fd5b505af1158015610381573d6000803e3d6000fd5b50505050505050565b600081156104175760035460408051808201909152600781527f4c5a44303030320000000000000000000000000000000000000000000000000060208201529060ff1661040d576040517f08c379a00000000000000000000000000000000000000000000000000000000081526004016104049190610a9d565b60405180910390fd5b5050600254610435565b612710600154846104289190610aee565b6104329190610b32565b90505b949350505050565b610445610522565b61046673ffffffffffffffffffffffffffffffffffffffff84168383610618565b505050565b610473610522565b73ffffffffffffffffffffffffffffffffffffffff8116610516576040517f08c379a000000000000000000000000000000000000000000000000000000000815260206004820152602660248201527f4f776e61626c653a206e6577206f776e657220697320746865207a65726f206160448201527f64647265737300000000000000000000000000000000000000000000000000006064820152608401610404565b61051f816105a3565b50565b60005473ffffffffffffffffffffffffffffffffffffffff163314610248576040517f08c379a000000000000000000000000000000000000000000000000000000000815260206004820181905260248201527f4f776e61626c653a2063616c6c6572206973206e6f7420746865206f776e65726044820152606401610404565b6000805473ffffffffffffffffffffffffffffffffffffffff8381167fffffffffffffffffffffffff0000000000000000000000000000000000000000831681178455604051919092169283917f8be0079c531659141344cd1fd0a4f28419497f9722a3daafe3b4186f6b6457e09190a35050565b6040805173ffffffffffffffffffffffffffffffffffffffff848116602483015260448083018590528351808403909101815260649092018352602080830180517bffffffffffffffffffffffffffffffffffffffffffffffffffffffff167fa9059cbb0000000000000000000000000000000000000000000000000000000017905283518085019094528084527f5361666545524332303a206c6f772d6c6576656c2063616c6c206661696c656490840152610466928692916000916106e3918516908490610790565b90508051600014806107045750808060200190518101906107049190610b6d565b610466576040517f08c379a000000000000000000000000000000000000000000000000000000000815260206004820152602a60248201527f5361666545524332303a204552433230206f7065726174696f6e20646964206e60448201527f6f742073756363656564000000000000000000000000000000000000000000006064820152608401610404565b60606104358484600085856000808673ffffffffffffffffffffffffffffffffffffffff1685876040516107c49190610b8a565b60006040518083038185875af1925050503d8060008114610801576040519150601f19603f3d011682016040523d82523d6000602084013e610806565b606091505b509150915061081787838387610822565b979650505050505050565b606083156108b85782516000036108b15773ffffffffffffffffffffffffffffffffffffffff85163b6108b1576040517f08c379a000000000000000000000000000000000000000000000000000000000815260206004820152601d60248201527f416464726573733a2063616c6c20746f206e6f6e2d636f6e74726163740000006044820152606401610404565b5081610435565b61043583838151156108cd5781518083602001fd5b806040517f08c379a00000000000000000000000000000000000000000000000000000000081526004016104049190610a9d565b801515811461051f57600080fd5b60006020828403121561092157600080fd5b813561092c81610901565b9392505050565b60006020828403121561094557600080fd5b5035919050565b73ffffffffffffffffffffffffffffffffffffffff8116811461051f57600080fd5b6000806000806080858703121561098457600080fd5b843561098f8161094c565b9350602085013561099f8161094c565b925060408501356109af8161094c565b9396929550929360600135925050565b6000806000606084860312156109d457600080fd5b83356109df8161094c565b925060208401356109ef8161094c565b929592945050506040919091013590565b60008060008060808587031215610a1657600080fd5b8435610a218161094c565b9350602085013563ffffffff81168114610a3a57600080fd5b9250604085013591506060850135610a5181610901565b939692955090935050565b600060208284031215610a6e57600080fd5b813561092c8161094c565b60005b83811015610a94578181015183820152602001610a7c565b50506000910152565b6020815260008251806020840152610abc816040850160208701610a79565b601f017fffffffffffffffffffffffffffffffffffffffffffffffffffffffffffffffe0169190910160400192915050565b8082028115828204841417610b2c577f4e487b7100000000000000000000000000000000000000000000000000000000600052601160045260246000fd5b92915050565b600082610b68577f4e487b7100000000000000000000000000000000000000000000000000000000600052601260045260246000fd5b500490565b600060208284031215610b7f57600080fd5b815161092c81610901565b60008251610b9c818460208701610a79565b919091019291505056fea2646970667358221220fbb9a8b8f4be808ead0a27c959996e5b72cf570258e54f49febad5a5adb89f1064736f6c63430008130033",
  "devdoc": {
    "kind": "dev",
    "methods": {
      "owner()": {
        "details": "Returns the address of the current owner."
      },
      "renounceOwnership()": {
        "details": "Leaves the contract without owner. It will not be possible to call `onlyOwner` functions. Can only be called by the current owner. NOTE: Renouncing ownership will leave the contract without an owner, thereby disabling any functionality that is only available to the owner."
      },
      "transferOwnership(address)": {
        "details": "Transfers ownership of the contract to a new account (`newOwner`). Can only be called by the current owner."
      }
    },
    "version": 1
  },
  "userdoc": {
    "kind": "user",
    "methods": {},
    "version": 1
  },
  "storageLayout": {
    "storage": [
      {
        "astId": 5170,
        "contract": "contracts/Treasury.sol:Treasury",
        "label": "_owner",
        "offset": 0,
        "slot": "0",
        "type": "t_address"
      },
      {
        "astId": 12568,
        "contract": "contracts/Treasury.sol:Treasury",
        "label": "nativeBP",
        "offset": 0,
        "slot": "1",
        "type": "t_uint256"
      },
      {
        "astId": 12570,
        "contract": "contracts/Treasury.sol:Treasury",
        "label": "lzTokenFee",
        "offset": 0,
        "slot": "2",
        "type": "t_uint256"
      },
      {
        "astId": 12572,
        "contract": "contracts/Treasury.sol:Treasury",
        "label": "lzTokenEnabled",
        "offset": 0,
        "slot": "3",
        "type": "t_bool"
      }
    ],
    "types": {
      "t_address": {
        "encoding": "inplace",
        "label": "address",
        "numberOfBytes": "20"
      },
      "t_bool": {
        "encoding": "inplace",
        "label": "bool",
        "numberOfBytes": "1"
      },
      "t_uint256": {
        "encoding": "inplace",
        "label": "uint256",
        "numberOfBytes": "32"
      }
    }
  }
}