{
  "_format": "hh-sol-artifact-1",
  "contractName": "StargateFeeLibraryV03",
  "sourceName": "contracts/libraries/StargateFeeLibraryV03.sol",
  "abi": [
    {
      "inputs": [
        {
          "internalType": "address",
          "name": "_factory",
          "type": "address"
        }
      ],
      "stateMutability": "nonpayable",
      "type": "constructor"
    },
    {
      "anonymous": false,
      "inputs": [
        {
          "indexed": true,
          "internalType": "address",
          "name": "previousOwner",
          "type": "address"
        },
        {
          "indexed": true,
          "internalType": "address",
          "name": "newOwner",
          "type": "address"
        }
      ],
      "name": "OwnershipTransferred",
      "type": "event"
    },
    {
      "inputs": [],
      "name": "DELTA_1",
      "outputs": [
        {
          "internalType": "uint256",
          "name": "",
          "type": "uint256"
        }
      ],
      "stateMutability": "view",
      "type": "function"
    },
    {
      "inputs": [],
      "name": "DELTA_2",
      "outputs": [
        {
          "internalType": "uint256",
          "name": "",
          "type": "uint256"
        }
      ],
      "stateMutability": "view",
      "type": "function"
    },
    {
      "inputs": [],
      "name": "DENOMINATOR",
      "outputs": [
        {
          "internalType": "uint256",
          "name": "",
          "type": "uint256"
        }
      ],
      "stateMutability": "view",
      "type": "function"
    },
    {
      "inputs": [],
      "name": "LAMBDA_1",
      "outputs": [
        {
          "internalType": "uint256",
          "name": "",
          "type": "uint256"
        }
      ],
      "stateMutability": "view",
      "type": "function"
    },
    {
      "inputs": [],
      "name": "LAMBDA_2",
      "outputs": [
        {
          "internalType": "uint256",
          "name": "",
          "type": "uint256"
        }
      ],
      "stateMutability": "view",
      "type": "function"
    },
    {
      "inputs": [],
      "name": "LP_FEE",
      "outputs": [
        {
          "internalType": "uint256",
          "name": "",
          "type": "uint256"
        }
      ],
      "stateMutability": "view",
      "type": "function"
    },
    {
      "inputs": [],
      "name": "PROTOCOL_FEE",
      "outputs": [
        {
          "internalType": "uint256",
          "name": "",
          "type": "uint256"
        }
      ],
      "stateMutability": "view",
      "type": "function"
    },
    {
      "inputs": [],
      "name": "PROTOCOL_SUBSIDY",
      "outputs": [
        {
          "internalType": "uint256",
          "name": "",
          "type": "uint256"
        }
      ],
      "stateMutability": "view",
      "type": "function"
    },
    {
      "inputs": [],
      "name": "factory",
      "outputs": [
        {
          "internalType": "contract Factory",
          "name": "",
          "type": "address"
        }
      ],
      "stateMutability": "view",
      "type": "function"
    },
    {
      "inputs": [
        {
          "internalType": "uint256",
          "name": "idealBalance",
          "type": "uint256"
        },
        {
          "internalType": "uint256",
          "name": "beforeBalance",
          "type": "uint256"
        },
        {
          "internalType": "uint256",
          "name": "amountSD",
          "type": "uint256"
        }
      ],
      "name": "getEquilibriumFee",
      "outputs": [
        {
          "internalType": "uint256",
          "name": "",
          "type": "uint256"
        },
        {
          "internalType": "uint256",
          "name": "",
          "type": "uint256"
        }
      ],
      "stateMutability": "pure",
      "type": "function"
    },
    {
      "inputs": [
        {
          "internalType": "uint256",
          "name": "_srcPoolId",
          "type": "uint256"
        },
        {
          "internalType": "uint256",
          "name": "_dstPoolId",
          "type": "uint256"
        },
        {
          "internalType": "uint16",
          "name": "_dstChainId",
          "type": "uint16"
        },
        {
          "internalType": "address",
          "name": "",
          "type": "address"
        },
        {
          "internalType": "uint256",
          "name": "_amountSD",
          "type": "uint256"
        }
      ],
      "name": "getFees",
      "outputs": [
        {
          "components": [
            {
              "internalType": "uint256",
              "name": "amount",
              "type": "uint256"
            },
            {
              "internalType": "uint256",
              "name": "eqFee",
              "type": "uint256"
            },
            {
              "internalType": "uint256",
              "name": "eqReward",
              "type": "uint256"
            },
            {
              "internalType": "uint256",
              "name": "lpFee",
              "type": "uint256"
            },
            {
              "internalType": "uint256",
              "name": "protocolFee",
              "type": "uint256"
            },
            {
              "internalType": "uint256",
              "name": "lkbRemove",
              "type": "uint256"
            }
          ],
          "internalType": "struct Pool.SwapObj",
          "name": "s",
          "type": "tuple"
        }
      ],
      "stateMutability": "view",
      "type": "function"
    },
    {
      "inputs": [
        {
          "internalType": "uint256",
          "name": "lambda",
          "type": "uint256"
        },
        {
          "internalType": "uint256",
          "name": "yOffset",
          "type": "uint256"
        },
        {
          "internalType": "uint256",
          "name": "xUpperBound",
          "type": "uint256"
        },
        {
          "internalType": "uint256",
          "name": "xLowerBound",
          "type": "uint256"
        },
        {
          "internalType": "uint256",
          "name": "xStart",
          "type": "uint256"
        },
        {
          "internalType": "uint256",
          "name": "xEnd",
          "type": "uint256"
        }
      ],
      "name": "getTrapezoidArea",
      "outputs": [
        {
          "internalType": "uint256",
          "name": "",
          "type": "uint256"
        }
      ],
      "stateMutability": "pure",
      "type": "function"
    },
    {
      "inputs": [],
      "name": "getVersion",
      "outputs": [
        {
          "internalType": "string",
          "name": "",
          "type": "string"
        }
      ],
      "stateMutability": "pure",
      "type": "function"
    },
    {
      "inputs": [],
      "name": "owner",
      "outputs": [
        {
          "internalType": "address",
          "name": "",
          "type": "address"
        }
      ],
      "stateMutability": "view",
      "type": "function"
    },
    {
      "inputs": [],
      "name": "renounceOwnership",
      "outputs": [],
      "stateMutability": "nonpayable",
      "type": "function"
    },
    {
      "inputs": [
        {
          "internalType": "address",
          "name": "newOwner",
          "type": "address"
        }
      ],
      "name": "transferOwnership",
      "outputs": [],
      "stateMutability": "nonpayable",
      "type": "function"
    }
  ],
  "bytecode": "0x60a060405234801561001057600080fd5b5060405161146338038061146383398101604081905261002f916100cf565b60006100396100cb565b600080546001600160a01b0319166001600160a01b0383169081178255604051929350917f8be0079c531659141344cd1fd0a4f28419497f9722a3daafe3b4186f6b6457e0908290a350600180556001600160a01b0381166100b65760405162461bcd60e51b81526004016100ad906100fd565b60405180910390fd5b60601b6001600160601b03191660805261013e565b3390565b6000602082840312156100e0578081fd5b81516001600160a01b03811681146100f6578182fd5b9392505050565b60208082526021908201527f4665654c6962726172793a20466163746f72792063616e6e6f742062652030786040820152600360fc1b606082015260800190565b60805160601c611303610160600039806102bc52806108d252506113036000f3fe608060405234801561001057600080fd5b50600436106101005760003560e01c806360d86e7711610097578063918f867411610066578063918f8674146101d3578063a810de6c146101db578063c45a0155146101e3578063f2fde38b146101eb57610100565b806360d86e7714610199578063715018a6146101ac5780637ba5c12f146101b65780638da5cb5b146101be57610100565b806334b6a602116100d357806334b6a602146101605780633dad0dd514610181578063518a9f9f146101895780635e3f27271461019157610100565b8063012a1c2d146101055780630b4501fd146101235780630d8e6e2c1461012b5780631ab6243014610140575b600080fd5b61010d6101fe565b60405161011a919061123a565b60405180910390f35b61010d61020a565b610133610215565b60405161011a9190611103565b61015361014e366004611024565b61024c565b60405161011a91906111e2565b61017361016e366004611075565b610726565b60405161011a929190611243565b61010d610740565b61010d61074c565b61010d610757565b61010d6101a73660046110a0565b610761565b6101b461077c565b005b61010d610893565b6101c661089d565b60405161011a91906110e2565b61010d6108b9565b61010d6108c5565b6101c66108d0565b6101b46101f9366004610f3d565b6108f4565b670dd280b9144a000081565b6601c6bf5263400081565b60408051808201909152600581527f332e302e30000000000000000000000000000000000000000000000000000000602082015290565b610254610ee7565b610277670de0b6b3a7640000610271846601c6bf52634000610a95565b90610b11565b60808201526040517f068bcd8d00000000000000000000000000000000000000000000000000000000815260009073ffffffffffffffffffffffffffffffffffffffff7f0000000000000000000000000000000000000000000000000000000000000000169063068bcd8d906102f1908a9060040161123a565b60206040518083038186803b15801561030957600080fd5b505afa15801561031d573d6000803e3d6000fd5b505050506040513d601f19601f820116820180604052508101906103419190610f59565b905060008173ffffffffffffffffffffffffffffffffffffffff1663159f6add87896040518363ffffffff1660e01b8152600401610380929190611226565b6101006040518083038186803b15801561039957600080fd5b505afa1580156103ad573d6000803e3d6000fd5b505050506040513d601f19601f820116820180604052508101906103d19190610f75565b90506000806103e98360e00151846080015188610b92565b60208701829052608087015191935091506104049082610d28565b85608001818152505060008473ffffffffffffffffffffffffffffffffffffffff1663fc0c546a6040518163ffffffff1660e01b815260040160206040518083038186803b15801561045557600080fd5b505afa158015610469573d6000803e3d6000fd5b505050506040513d601f19601f8201168201806040525081019061048d9190610f59565b905060006105b48673ffffffffffffffffffffffffffffffffffffffff1663feb56b156040518163ffffffff1660e01b815260040160206040518083038186803b1580156104da57600080fd5b505afa1580156104ee573d6000803e3d6000fd5b505050506040513d601f19601f82011682018060405250810190610512919061100c565b6040517f70a0823100000000000000000000000000000000000000000000000000000000815273ffffffffffffffffffffffffffffffffffffffff8516906370a0823190610564908b906004016110e2565b60206040518083038186803b15801561057c57600080fd5b505afa158015610590573d6000803e3d6000fd5b505050506040513d601f19601f82011682018060405250810190610271919061100c565b905060008673ffffffffffffffffffffffffffffffffffffffff166315770f926040518163ffffffff1660e01b815260040160206040518083038186803b1580156105fe57600080fd5b505afa158015610612573d6000803e3d6000fd5b505050506040513d601f19601f82011682018060405250810190610636919061100c565b9050818111156106f557600061064c8284610d28565b905060008873ffffffffffffffffffffffffffffffffffffffff16639bb811196040518163ffffffff1660e01b815260040160206040518083038186803b15801561069657600080fd5b505afa1580156106aa573d6000803e3d6000fd5b505050506040513d601f19601f820116820180604052508101906106ce919061100c565b905060006106e083610271848f610a95565b9050818111156106ed5750805b60408b015250505b610711670de0b6b3a76400006102718b655af3107a4000610a95565b60608901525050505050505095945050505050565b600080610734858585610b92565b91509150935093915050565b670853a0d2313c000081565b66b1a2bc2ec5000081565b655af3107a400081565b6000610771878787878787610d9f565b979650505050505050565b610784610e6f565b73ffffffffffffffffffffffffffffffffffffffff166107a261089d565b73ffffffffffffffffffffffffffffffffffffffff161461082457604080517f08c379a000000000000000000000000000000000000000000000000000000000815260206004820181905260248201527f4f776e61626c653a2063616c6c6572206973206e6f7420746865206f776e6572604482015290519081900360640190fd5b6000805460405173ffffffffffffffffffffffffffffffffffffffff909116907f8be0079c531659141344cd1fd0a4f28419497f9722a3daafe3b4186f6b6457e0908390a3600080547fffffffffffffffffffffffff0000000000000000000000000000000000000000169055565b651b48eb57e00081565b60005473ffffffffffffffffffffffffffffffffffffffff1690565b670de0b6b3a764000081565b660e35fa931a000081565b7f000000000000000000000000000000000000000000000000000000000000000081565b6108fc610e6f565b73ffffffffffffffffffffffffffffffffffffffff1661091a61089d565b73ffffffffffffffffffffffffffffffffffffffff161461099c57604080517f08c379a000000000000000000000000000000000000000000000000000000000815260206004820181905260248201527f4f776e61626c653a2063616c6c6572206973206e6f7420746865206f776e6572604482015290519081900360640190fd5b73ffffffffffffffffffffffffffffffffffffffff8116610a08576040517f08c379a00000000000000000000000000000000000000000000000000000000081526004018080602001828103825260268152602001806112876026913960400191505060405180910390fd5b6000805460405173ffffffffffffffffffffffffffffffffffffffff808516939216917f8be0079c531659141344cd1fd0a4f28419497f9722a3daafe3b4186f6b6457e091a3600080547fffffffffffffffffffffffff00000000000000000000000000000000000000001673ffffffffffffffffffffffffffffffffffffffff92909216919091179055565b600082610aa457506000610b0b565b82820282848281610ab157fe5b0414610b08576040517f08c379a00000000000000000000000000000000000000000000000000000000081526004018080602001828103825260218152602001806112ad6021913960400191505060405180910390fd5b90505b92915050565b6000808211610b8157604080517f08c379a000000000000000000000000000000000000000000000000000000000815260206004820152601a60248201527f536166654d6174683a206469766973696f6e206279207a65726f000000000000604482015290519081900360640190fd5b818381610b8a57fe5b049392505050565b60008082841015610bd8576040517f08c379a0000000000000000000000000000000000000000000000000000000008152600401610bcf906111ab565b60405180910390fd5b6000610be48585610d28565b90506000610c06670de0b6b3a764000061027189670853a0d2313c0000610a95565b90506000610c27670de0b6b3a76400006102718a66b1a2bc2ec50000610a95565b9050600080838510610c5957610c4f670de0b6b3a76400006102718a651b48eb57e000610a95565b9150819050610d19565b828510610c91576000848a10610c6f5784610c71565b895b9050610c89660e35fa931a000060008787858b610d9f565b925050610d19565b828910610cee576000848a10610ca75784610ca9565b895b9050610ccb610cc4660e35fa931a000060008888868a610d9f565b8490610e73565b9250610c89610cc4670dd280b9144a0000660e35fa931a0000876000898c610d9f565b610d16610d0f670dd280b9144a0000660e35fa931a00008660008e8b610d9f565b8390610e73565b91505b90999098509650505050505050565b600082821115610d9957604080517f08c379a000000000000000000000000000000000000000000000000000000000815260206004820152601e60248201527f536166654d6174683a207375627472616374696f6e206f766572666c6f770000604482015290519081900360640190fd5b50900390565b6000838210158015610db15750848311155b610de7576040517f08c379a0000000000000000000000000000000000000000000000000000000008152600401610bcf90611174565b6000610df38686610d28565b90506000610e1988610e13846102718d610e0d8d8c610d28565b90610a95565b90610e73565b90506000610e3389610e13856102718e610e0d8e8c610d28565b90506000610e418787610d28565b9050610e60670de0b6b3a764000061027160028185610e0d8989610e73565b9b9a5050505050505050505050565b3390565b600082820183811015610b0857604080517f08c379a000000000000000000000000000000000000000000000000000000000815260206004820152601b60248201527f536166654d6174683a206164646974696f6e206f766572666c6f770000000000604482015290519081900360640190fd5b6040518060c001604052806000815260200160008152602001600081526020016000815260200160008152602001600081525090565b80518015158114610f2d57600080fd5b919050565b8051610f2d81611276565b600060208284031215610f4e578081fd5b8135610b0881611251565b600060208284031215610f6a578081fd5b8151610b0881611251565b6000610100808385031215610f88578182fd5b6040519081019067ffffffffffffffff82118183101715610fa557fe5b81604052610fb284610f1d565b8152610fc060208501610f32565b602082015260408401516040820152606084015160608201526080840151608082015260a084015160a082015260c084015160c082015260e084015160e0820152809250505092915050565b60006020828403121561101d578081fd5b5051919050565b600080600080600060a0868803121561103b578081fd5b8535945060208601359350604086013561105481611276565b9250606086013561106481611251565b949793965091946080013592915050565b600080600060608486031215611089578283fd5b505081359360208301359350604090920135919050565b60008060008060008060c087890312156110b8578081fd5b505084359660208601359650604086013595606081013595506080810135945060a0013592509050565b73ffffffffffffffffffffffffffffffffffffffff91909116815260200190565b6000602080835283518082850152825b8181101561112f57858101830151858201604001528201611113565b818111156111405783604083870101525b50601f017fffffffffffffffffffffffffffffffffffffffffffffffffffffffffffffffe016929092016040019392505050565b6020808252601e908201527f53746172676174653a2062616c616e6365206f7574206f6620626f756e640000604082015260600190565b6020808252601c908201527f53746172676174653a206e6f7420656e6f7567682062616c616e636500000000604082015260600190565b600060c082019050825182526020830151602083015260408301516040830152606083015160608301526080830151608083015260a083015160a083015292915050565b61ffff929092168252602082015260400190565b90815260200190565b918252602082015260400190565b73ffffffffffffffffffffffffffffffffffffffff8116811461127357600080fd5b50565b61ffff8116811461127357600080fdfe4f776e61626c653a206e6577206f776e657220697320746865207a65726f2061646472657373536166654d6174683a206d756c7469706c69636174696f6e206f766572666c6f77a2646970667358221220c40fd8408859e01af60a61c4cd56be428ed0fb07bf00fcf82e4906e89faf436d64736f6c63430007060033",
  "linkReferences": {},
  "deployedLinkReferences": {}
}