{
  "_format": "hh-sol-artifact-1",
  "contractName": "ExampleOFT",
  "sourceName": "contracts/examples/ExampleOFT.sol",
  "abi": [
    {
      "inputs": [
        {
          "internalType": "address",
          "name": "_layerZeroEndpoint",
          "type": "address"
        }
      ],
      "stateMutability": "nonpayable",
      "type": "constructor"
    },
    {
      "anonymous": false,
      "inputs": [
        {
          "indexed": true,
          "internalType": "address",
          "name": "owner",
          "type": "address"
        },
        {
          "indexed": true,
          "internalType": "address",
          "name": "spender",
          "type": "address"
        },
        {
          "indexed": false,
          "internalType": "uint256",
          "name": "value",
          "type": "uint256"
        }
      ],
      "name": "Approval",
      "type": "event"
    },
    {
      "anonymous": false,
      "inputs": [
        {
          "indexed": false,
          "internalType": "uint16",
          "name": "_srcChainId",
          "type": "uint16"
        },
        {
          "indexed": false,
          "internalType": "bytes",
          "name": "_srcAddress",
          "type": "bytes"
        },
        {
          "indexed": false,
          "internalType": "uint64",
          "name": "_nonce",
          "type": "uint64"
        },
        {
          "indexed": false,
          "internalType": "bytes",
          "name": "_payload",
          "type": "bytes"
        },
        {
          "indexed": false,
          "internalType": "bytes",
          "name": "_reason",
          "type": "bytes"
        }
      ],
      "name": "MessageFailed",
      "type": "event"
    },
    {
      "anonymous": false,
      "inputs": [
        {
          "indexed": true,
          "internalType": "address",
          "name": "previousOwner",
          "type": "address"
        },
        {
          "indexed": true,
          "internalType": "address",
          "name": "newOwner",
          "type": "address"
        }
      ],
      "name": "OwnershipTransferred",
      "type": "event"
    },
    {
      "anonymous": false,
      "inputs": [
        {
          "indexed": true,
          "internalType": "uint16",
          "name": "_srcChainId",
          "type": "uint16"
        },
        {
          "indexed": true,
          "internalType": "address",
          "name": "_to",
          "type": "address"
        },
        {
          "indexed": false,
          "internalType": "uint256",
          "name": "_amount",
          "type": "uint256"
        }
      ],
      "name": "ReceiveFromChain",
      "type": "event"
    },
    {
      "anonymous": false,
      "inputs": [
        {
          "indexed": false,
          "internalType": "uint16",
          "name": "_srcChainId",
          "type": "uint16"
        },
        {
          "indexed": false,
          "internalType": "bytes",
          "name": "_srcAddress",
          "type": "bytes"
        },
        {
          "indexed": false,
          "internalType": "uint64",
          "name": "_nonce",
          "type": "uint64"
        },
        {
          "indexed": false,
          "internalType": "bytes32",
          "name": "_payloadHash",
          "type": "bytes32"
        }
      ],
      "name": "RetryMessageSuccess",
      "type": "event"
    },
    {
      "anonymous": false,
      "inputs": [
        {
          "indexed": true,
          "internalType": "uint16",
          "name": "_dstChainId",
          "type": "uint16"
        },
        {
          "indexed": true,
          "internalType": "address",
          "name": "_from",
          "type": "address"
        },
        {
          "indexed": false,
          "internalType": "bytes",
          "name": "_toAddress",
          "type": "bytes"
        },
        {
          "indexed": false,
          "internalType": "uint256",
          "name": "_amount",
          "type": "uint256"
        }
      ],
      "name": "SendToChain",
      "type": "event"
    },
    {
      "anonymous": false,
      "inputs": [
        {
          "indexed": false,
          "internalType": "uint16",
          "name": "_dstChainId",
          "type": "uint16"
        },
        {
          "indexed": false,
          "internalType": "uint16",
          "name": "_type",
          "type": "uint16"
        },
        {
          "indexed": false,
          "internalType": "uint256",
          "name": "_minDstGas",
          "type": "uint256"
        }
      ],
      "name": "SetMinDstGas",
      "type": "event"
    },
    {
      "anonymous": false,
      "inputs": [
        {
          "indexed": false,
          "internalType": "address",
          "name": "precrime",
          "type": "address"
        }
      ],
      "name": "SetPrecrime",
      "type": "event"
    },
    {
      "anonymous": false,
      "inputs": [
        {
          "indexed": false,
          "internalType": "uint16",
          "name": "_remoteChainId",
          "type": "uint16"
        },
        {
          "indexed": false,
          "internalType": "bytes",
          "name": "_path",
          "type": "bytes"
        }
      ],
      "name": "SetTrustedRemote",
      "type": "event"
    },
    {
      "anonymous": false,
      "inputs": [
        {
          "indexed": false,
          "internalType": "uint16",
          "name": "_remoteChainId",
          "type": "uint16"
        },
        {
          "indexed": false,
          "internalType": "bytes",
          "name": "_remoteAddress",
          "type": "bytes"
        }
      ],
      "name": "SetTrustedRemoteAddress",
      "type": "event"
    },
    {
      "anonymous": false,
      "inputs": [
        {
          "indexed": false,
          "internalType": "bool",
          "name": "_useCustomAdapterParams",
          "type": "bool"
        }
      ],
      "name": "SetUseCustomAdapterParams",
      "type": "event"
    },
    {
      "anonymous": false,
      "inputs": [
        {
          "indexed": true,
          "internalType": "address",
          "name": "from",
          "type": "address"
        },
        {
          "indexed": true,
          "internalType": "address",
          "name": "to",
          "type": "address"
        },
        {
          "indexed": false,
          "internalType": "uint256",
          "name": "value",
          "type": "uint256"
        }
      ],
      "name": "Transfer",
      "type": "event"
    },
    {
      "inputs": [],
      "name": "DEFAULT_PAYLOAD_SIZE_LIMIT",
      "outputs": [
        {
          "internalType": "uint256",
          "name": "",
          "type": "uint256"
        }
      ],
      "stateMutability": "view",
      "type": "function"
    },
    {
      "inputs": [],
      "name": "NO_EXTRA_GAS",
      "outputs": [
        {
          "internalType": "uint256",
          "name": "",
          "type": "uint256"
        }
      ],
      "stateMutability": "view",
      "type": "function"
    },
    {
      "inputs": [],
      "name": "PT_SEND",
      "outputs": [
        {
          "internalType": "uint16",
          "name": "",
          "type": "uint16"
        }
      ],
      "stateMutability": "view",
      "type": "function"
    },
    {
      "inputs": [
        {
          "internalType": "address",
          "name": "owner",
          "type": "address"
        },
        {
          "internalType": "address",
          "name": "spender",
          "type": "address"
        }
      ],
      "name": "allowance",
      "outputs": [
        {
          "internalType": "uint256",
          "name": "",
          "type": "uint256"
        }
      ],
      "stateMutability": "view",
      "type": "function"
    },
    {
      "inputs": [
        {
          "internalType": "address",
          "name": "spender",
          "type": "address"
        },
        {
          "internalType": "uint256",
          "name": "amount",
          "type": "uint256"
        }
      ],
      "name": "approve",
      "outputs": [
        {
          "internalType": "bool",
          "name": "",
          "type": "bool"
        }
      ],
      "stateMutability": "nonpayable",
      "type": "function"
    },
    {
      "inputs": [
        {
          "internalType": "address",
          "name": "account",
          "type": "address"
        }
      ],
      "name": "balanceOf",
      "outputs": [
        {
          "internalType": "uint256",
          "name": "",
          "type": "uint256"
        }
      ],
      "stateMutability": "view",
      "type": "function"
    },
    {
      "inputs": [],
      "name": "circulatingSupply",
      "outputs": [
        {
          "internalType": "uint256",
          "name": "",
          "type": "uint256"
        }
      ],
      "stateMutability": "view",
      "type": "function"
    },
    {
      "inputs": [],
      "name": "decimals",
      "outputs": [
        {
          "internalType": "uint8",
          "name": "",
          "type": "uint8"
        }
      ],
      "stateMutability": "view",
      "type": "function"
    },
    {
      "inputs": [
        {
          "internalType": "address",
          "name": "spender",
          "type": "address"
        },
        {
          "internalType": "uint256",
          "name": "subtractedValue",
          "type": "uint256"
        }
      ],
      "name": "decreaseAllowance",
      "outputs": [
        {
          "internalType": "bool",
          "name": "",
          "type": "bool"
        }
      ],
      "stateMutability": "nonpayable",
      "type": "function"
    },
    {
      "inputs": [
        {
          "internalType": "uint16",
          "name": "_dstChainId",
          "type": "uint16"
        },
        {
          "internalType": "bytes",
          "name": "_toAddress",
          "type": "bytes"
        },
        {
          "internalType": "uint256",
          "name": "_amount",
          "type": "uint256"
        },
        {
          "internalType": "bool",
          "name": "_useZro",
          "type": "bool"
        },
        {
          "internalType": "bytes",
          "name": "_adapterParams",
          "type": "bytes"
        }
      ],
      "name": "estimateSendFee",
      "outputs": [
        {
          "internalType": "uint256",
          "name": "nativeFee",
          "type": "uint256"
        },
        {
          "internalType": "uint256",
          "name": "zroFee",
          "type": "uint256"
        }
      ],
      "stateMutability": "view",
      "type": "function"
    },
    {
      "inputs": [
        {
          "internalType": "uint16",
          "name": "",
          "type": "uint16"
        },
        {
          "internalType": "bytes",
          "name": "",
          "type": "bytes"
        },
        {
          "internalType": "uint64",
          "name": "",
          "type": "uint64"
        }
      ],
      "name": "failedMessages",
      "outputs": [
        {
          "internalType": "bytes32",
          "name": "",
          "type": "bytes32"
        }
      ],
      "stateMutability": "view",
      "type": "function"
    },
    {
      "inputs": [
        {
          "internalType": "uint16",
          "name": "_srcChainId",
          "type": "uint16"
        },
        {
          "internalType": "bytes",
          "name": "_srcAddress",
          "type": "bytes"
        }
      ],
      "name": "forceResumeReceive",
      "outputs": [],
      "stateMutability": "nonpayable",
      "type": "function"
    },
    {
      "inputs": [
        {
          "internalType": "uint16",
          "name": "_version",
          "type": "uint16"
        },
        {
          "internalType": "uint16",
          "name": "_chainId",
          "type": "uint16"
        },
        {
          "internalType": "address",
          "name": "",
          "type": "address"
        },
        {
          "internalType": "uint256",
          "name": "_configType",
          "type": "uint256"
        }
      ],
      "name": "getConfig",
      "outputs": [
        {
          "internalType": "bytes",
          "name": "",
          "type": "bytes"
        }
      ],
      "stateMutability": "view",
      "type": "function"
    },
    {
      "inputs": [
        {
          "internalType": "uint16",
          "name": "_remoteChainId",
          "type": "uint16"
        }
      ],
      "name": "getTrustedRemoteAddress",
      "outputs": [
        {
          "internalType": "bytes",
          "name": "",
          "type": "bytes"
        }
      ],
      "stateMutability": "view",
      "type": "function"
    },
    {
      "inputs": [
        {
          "internalType": "address",
          "name": "spender",
          "type": "address"
        },
        {
          "internalType": "uint256",
          "name": "addedValue",
          "type": "uint256"
        }
      ],
      "name": "increaseAllowance",
      "outputs": [
        {
          "internalType": "bool",
          "name": "",
          "type": "bool"
        }
      ],
      "stateMutability": "nonpayable",
      "type": "function"
    },
    {
      "inputs": [
        {
          "internalType": "uint16",
          "name": "_srcChainId",
          "type": "uint16"
        },
        {
          "internalType": "bytes",
          "name": "_srcAddress",
          "type": "bytes"
        }
      ],
      "name": "isTrustedRemote",
      "outputs": [
        {
          "internalType": "bool",
          "name": "",
          "type": "bool"
        }
      ],
      "stateMutability": "view",
      "type": "function"
    },
    {
      "inputs": [],
      "name": "lzEndpoint",
      "outputs": [
        {
          "internalType": "contract ILayerZeroEndpoint",
          "name": "",
          "type": "address"
        }
      ],
      "stateMutability": "view",
      "type": "function"
    },
    {
      "inputs": [
        {
          "internalType": "uint16",
          "name": "_srcChainId",
          "type": "uint16"
        },
        {
          "internalType": "bytes",
          "name": "_srcAddress",
          "type": "bytes"
        },
        {
          "internalType": "uint64",
          "name": "_nonce",
          "type": "uint64"
        },
        {
          "internalType": "bytes",
          "name": "_payload",
          "type": "bytes"
        }
      ],
      "name": "lzReceive",
      "outputs": [],
      "stateMutability": "nonpayable",
      "type": "function"
    },
    {
      "inputs": [
        {
          "internalType": "uint16",
          "name": "",
          "type": "uint16"
        },
        {
          "internalType": "uint16",
          "name": "",
          "type": "uint16"
        }
      ],
      "name": "minDstGasLookup",
      "outputs": [
        {
          "internalType": "uint256",
          "name": "",
          "type": "uint256"
        }
      ],
      "stateMutability": "view",
      "type": "function"
    },
    {
      "inputs": [
        {
          "internalType": "address",
          "name": "_to",
          "type": "address"
        },
        {
          "internalType": "uint256",
          "name": "_amount",
          "type": "uint256"
        }
      ],
      "name": "mintTokens",
      "outputs": [],
      "stateMutability": "nonpayable",
      "type": "function"
    },
    {
      "inputs": [],
      "name": "name",
      "outputs": [
        {
          "internalType": "string",
          "name": "",
          "type": "string"
        }
      ],
      "stateMutability": "view",
      "type": "function"
    },
    {
      "inputs": [
        {
          "internalType": "uint16",
          "name": "_srcChainId",
          "type": "uint16"
        },
        {
          "internalType": "bytes",
          "name": "_srcAddress",
          "type": "bytes"
        },
        {
          "internalType": "uint64",
          "name": "_nonce",
          "type": "uint64"
        },
        {
          "internalType": "bytes",
          "name": "_payload",
          "type": "bytes"
        }
      ],
      "name": "nonblockingLzReceive",
      "outputs": [],
      "stateMutability": "nonpayable",
      "type": "function"
    },
    {
      "inputs": [],
      "name": "owner",
      "outputs": [
        {
          "internalType": "address",
          "name": "",
          "type": "address"
        }
      ],
      "stateMutability": "view",
      "type": "function"
    },
    {
      "inputs": [
        {
          "internalType": "uint16",
          "name": "",
          "type": "uint16"
        }
      ],
      "name": "payloadSizeLimitLookup",
      "outputs": [
        {
          "internalType": "uint256",
          "name": "",
          "type": "uint256"
        }
      ],
      "stateMutability": "view",
      "type": "function"
    },
    {
      "inputs": [],
      "name": "precrime",
      "outputs": [
        {
          "internalType": "address",
          "name": "",
          "type": "address"
        }
      ],
      "stateMutability": "view",
      "type": "function"
    },
    {
      "inputs": [],
      "name": "renounceOwnership",
      "outputs": [],
      "stateMutability": "nonpayable",
      "type": "function"
    },
    {
      "inputs": [
        {
          "internalType": "uint16",
          "name": "_srcChainId",
          "type": "uint16"
        },
        {
          "internalType": "bytes",
          "name": "_srcAddress",
          "type": "bytes"
        },
        {
          "internalType": "uint64",
          "name": "_nonce",
          "type": "uint64"
        },
        {
          "internalType": "bytes",
          "name": "_payload",
          "type": "bytes"
        }
      ],
      "name": "retryMessage",
      "outputs": [],
      "stateMutability": "payable",
      "type": "function"
    },
    {
      "inputs": [
        {
          "internalType": "address",
          "name": "_from",
          "type": "address"
        },
        {
          "internalType": "uint16",
          "name": "_dstChainId",
          "type": "uint16"
        },
        {
          "internalType": "bytes",
          "name": "_toAddress",
          "type": "bytes"
        },
        {
          "internalType": "uint256",
          "name": "_amount",
          "type": "uint256"
        },
        {
          "internalType": "address payable",
          "name": "_refundAddress",
          "type": "address"
        },
        {
          "internalType": "address",
          "name": "_zroPaymentAddress",
          "type": "address"
        },
        {
          "internalType": "bytes",
          "name": "_adapterParams",
          "type": "bytes"
        }
      ],
      "name": "sendFrom",
      "outputs": [],
      "stateMutability": "payable",
      "type": "function"
    },
    {
      "inputs": [
        {
          "internalType": "uint16",
          "name": "_version",
          "type": "uint16"
        },
        {
          "internalType": "uint16",
          "name": "_chainId",
          "type": "uint16"
        },
        {
          "internalType": "uint256",
          "name": "_configType",
          "type": "uint256"
        },
        {
          "internalType": "bytes",
          "name": "_config",
          "type": "bytes"
        }
      ],
      "name": "setConfig",
      "outputs": [],
      "stateMutability": "nonpayable",
      "type": "function"
    },
    {
      "inputs": [
        {
          "internalType": "uint16",
          "name": "_dstChainId",
          "type": "uint16"
        },
        {
          "internalType": "uint16",
          "name": "_packetType",
          "type": "uint16"
        },
        {
          "internalType": "uint256",
          "name": "_minGas",
          "type": "uint256"
        }
      ],
      "name": "setMinDstGas",
      "outputs": [],
      "stateMutability": "nonpayable",
      "type": "function"
    },
    {
      "inputs": [
        {
          "internalType": "uint16",
          "name": "_dstChainId",
          "type": "uint16"
        },
        {
          "internalType": "uint256",
          "name": "_size",
          "type": "uint256"
        }
      ],
      "name": "setPayloadSizeLimit",
      "outputs": [],
      "stateMutability": "nonpayable",
      "type": "function"
    },
    {
      "inputs": [
        {
          "internalType": "address",
          "name": "_precrime",
          "type": "address"
        }
      ],
      "name": "setPrecrime",
      "outputs": [],
      "stateMutability": "nonpayable",
      "type": "function"
    },
    {
      "inputs": [
        {
          "internalType": "uint16",
          "name": "_version",
          "type": "uint16"
        }
      ],
      "name": "setReceiveVersion",
      "outputs": [],
      "stateMutability": "nonpayable",
      "type": "function"
    },
    {
      "inputs": [
        {
          "internalType": "uint16",
          "name": "_version",
          "type": "uint16"
        }
      ],
      "name": "setSendVersion",
      "outputs": [],
      "stateMutability": "nonpayable",
      "type": "function"
    },
    {
      "inputs": [
        {
          "internalType": "uint16",
          "name": "_remoteChainId",
          "type": "uint16"
        },
        {
          "internalType": "bytes",
          "name": "_path",
          "type": "bytes"
        }
      ],
      "name": "setTrustedRemote",
      "outputs": [],
      "stateMutability": "nonpayable",
      "type": "function"
    },
    {
      "inputs": [
        {
          "internalType": "uint16",
          "name": "_remoteChainId",
          "type": "uint16"
        },
        {
          "internalType": "bytes",
          "name": "_remoteAddress",
          "type": "bytes"
        }
      ],
      "name": "setTrustedRemoteAddress",
      "outputs": [],
      "stateMutability": "nonpayable",
      "type": "function"
    },
    {
      "inputs": [
        {
          "internalType": "bool",
          "name": "_useCustomAdapterParams",
          "type": "bool"
        }
      ],
      "name": "setUseCustomAdapterParams",
      "outputs": [],
      "stateMutability": "nonpayable",
      "type": "function"
    },
    {
      "inputs": [
        {
          "internalType": "bytes4",
          "name": "interfaceId",
          "type": "bytes4"
        }
      ],
      "name": "supportsInterface",
      "outputs": [
        {
          "internalType": "bool",
          "name": "",
          "type": "bool"
        }
      ],
      "stateMutability": "view",
      "type": "function"
    },
    {
      "inputs": [],
      "name": "symbol",
      "outputs": [
        {
          "internalType": "string",
          "name": "",
          "type": "string"
        }
      ],
      "stateMutability": "view",
      "type": "function"
    },
    {
      "inputs": [],
      "name": "token",
      "outputs": [
        {
          "internalType": "address",
          "name": "",
          "type": "address"
        }
      ],
      "stateMutability": "view",
      "type": "function"
    },
    {
      "inputs": [],
      "name": "totalSupply",
      "outputs": [
        {
          "internalType": "uint256",
          "name": "",
          "type": "uint256"
        }
      ],
      "stateMutability": "view",
      "type": "function"
    },
    {
      "inputs": [
        {
          "internalType": "address",
          "name": "to",
          "type": "address"
        },
        {
          "internalType": "uint256",
          "name": "amount",
          "type": "uint256"
        }
      ],
      "name": "transfer",
      "outputs": [
        {
          "internalType": "bool",
          "name": "",
          "type": "bool"
        }
      ],
      "stateMutability": "nonpayable",
      "type": "function"
    },
    {
      "inputs": [
        {
          "internalType": "address",
          "name": "from",
          "type": "address"
        },
        {
          "internalType": "address",
          "name": "to",
          "type": "address"
        },
        {
          "internalType": "uint256",
          "name": "amount",
          "type": "uint256"
        }
      ],
      "name": "transferFrom",
      "outputs": [
        {
          "internalType": "bool",
          "name": "",
          "type": "bool"
        }
      ],
      "stateMutability": "nonpayable",
      "type": "function"
    },
    {
      "inputs": [
        {
          "internalType": "address",
          "name": "newOwner",
          "type": "address"
        }
      ],
      "name": "transferOwnership",
      "outputs": [],
      "stateMutability": "nonpayable",
      "type": "function"
    },
    {
      "inputs": [
        {
          "internalType": "uint16",
          "name": "",
          "type": "uint16"
        }
      ],
      "name": "trustedRemoteLookup",
      "outputs": [
        {
          "internalType": "bytes",
          "name": "",
          "type": "bytes"
        }
      ],
      "stateMutability": "view",
      "type": "function"
    },
    {
      "inputs": [],
      "name": "useCustomAdapterParams",
      "outputs": [
        {
          "internalType": "bool",
          "name": "",
          "type": "bool"
        }
      ],
      "stateMutability": "view",
      "type": "function"
    }
  ],
  "bytecode": "0x60a06040523480156200001157600080fd5b5060405162003709380380620037098339810160408190526200003491620001d3565b6040518060400160405280600a815260200169115e185b5c1b1953d19560b21b8152506040518060400160405280600381526020016213d19560ea1b815250828282828080620000936200008d620000d960201b60201c565b620000dd565b6001600160a01b031660805250508151620000b690600a9060208501906200012d565b508051620000cc90600b9060208401906200012d565b5050505050505062000242565b3390565b600080546001600160a01b038381166001600160a01b0319831681178455604051919092169283917f8be0079c531659141344cd1fd0a4f28419497f9722a3daafe3b4186f6b6457e09190a35050565b8280546200013b9062000205565b90600052602060002090601f0160209004810192826200015f5760008555620001aa565b82601f106200017a57805160ff1916838001178555620001aa565b82800160010185558215620001aa579182015b82811115620001aa5782518255916020019190600101906200018d565b50620001b8929150620001bc565b5090565b5b80821115620001b85760008155600101620001bd565b600060208284031215620001e657600080fd5b81516001600160a01b0381168114620001fe57600080fd5b9392505050565b600181811c908216806200021a57607f821691505b602082108114156200023c57634e487b7160e01b600052602260045260246000fd5b50919050565b6080516134736200029660003960008181610707015281816108a201528181610bc101528181610c8101528181610d1f01528181610ebc01528181611400015281816118b901526123b801526134736000f3fe60806040526004361061027c5760003560e01c80638cfd8f5c1161014f578063c4461834116100c1578063eb8d72b71161007a578063eb8d72b7146107f2578063ed629c5c14610812578063f0dda65c1461082c578063f2fde38b1461084c578063f5ecbdbc1461086c578063fc0c546a1461088c57600080fd5b8063c446183414610749578063cbed8b9c1461075f578063d1deba1f1461077f578063dd62ed3e14610792578063df2a5b3b146107b2578063eab45d9c146107d257600080fd5b80639f38369a116101135780639f38369a14610675578063a457c2d714610695578063a6c3d165146106b5578063a9059cbb146106d5578063b353aaa7146106f5578063baf3292d1461072957600080fd5b80638cfd8f5c146105c15780638da5cb5b146105f95780639358928b1461062b578063950c8a741461064057806395d89b411461066057600080fd5b806339509351116101f357806351905636116101ac57806351905636146104d45780635b8c41e6146104e757806366ad5c8a1461053657806370a0823114610556578063715018a61461058c5780637533d788146105a157600080fd5b8063395093511461040a5780633d8b38f61461042a5780633f1f4fa41461044a57806342d65a8d1461047757806344770515146104975780634c42899a146104ac57600080fd5b80630df37483116102455780630df374831461033a57806310ddb1371461035a57806318160ddd1461037a57806323b872dd146103995780632a205e3d146103b9578063313ce567146103ee57600080fd5b80621d35671461028157806301ffc9a7146102a357806306fdde03146102d857806307e0db17146102fa578063095ea7b31461031a575b600080fd5b34801561028d57600080fd5b506102a161029c366004612994565b61089f565b005b3480156102af57600080fd5b506102c36102be366004612a29565b610ad0565b60405190151581526020015b60405180910390f35b3480156102e457600080fd5b506102ed610b0e565b6040516102cf9190612aab565b34801561030657600080fd5b506102a1610315366004612abe565b610ba0565b34801561032657600080fd5b506102c3610335366004612af0565b610c29565b34801561034657600080fd5b506102a1610355366004612b1c565b610c41565b34801561036657600080fd5b506102a1610375366004612abe565b610c60565b34801561038657600080fd5b506009545b6040519081526020016102cf565b3480156103a557600080fd5b506102c36103b4366004612b3a565b610cb8565b3480156103c557600080fd5b506103d96103d4366004612b8b565b610cdc565b604080519283526020830191909152016102cf565b3480156103fa57600080fd5b50604051601281526020016102cf565b34801561041657600080fd5b506102c3610425366004612af0565b610daf565b34801561043657600080fd5b506102c3610445366004612c2a565b610dd1565b34801561045657600080fd5b5061038b610465366004612abe565b60036020526000908152604090205481565b34801561048357600080fd5b506102a1610492366004612c2a565b610e9d565b3480156104a357600080fd5b5061038b600081565b3480156104b857600080fd5b506104c1600081565b60405161ffff90911681526020016102cf565b6102a16104e2366004612c7e565b610f23565b3480156104f357600080fd5b5061038b610502366004612db4565b6005602090815260009384526040808520845180860184018051928152908401958401959095209452929052825290205481565b34801561054257600080fd5b506102a1610551366004612994565b610fa8565b34801561056257600080fd5b5061038b610571366004612e56565b6001600160a01b031660009081526007602052604090205490565b34801561059857600080fd5b506102a1611084565b3480156105ad57600080fd5b506102ed6105bc366004612abe565b611098565b3480156105cd57600080fd5b5061038b6105dc366004612e73565b600260209081526000928352604080842090915290825290205481565b34801561060557600080fd5b506000546001600160a01b03165b6040516001600160a01b0390911681526020016102cf565b34801561063757600080fd5b5061038b611132565b34801561064c57600080fd5b50600454610613906001600160a01b031681565b34801561066c57600080fd5b506102ed611142565b34801561068157600080fd5b506102ed610690366004612abe565b611151565b3480156106a157600080fd5b506102c36106b0366004612af0565b611268565b3480156106c157600080fd5b506102a16106d0366004612c2a565b6112e3565b3480156106e157600080fd5b506102c36106f0366004612af0565b611376565b34801561070157600080fd5b506106137f000000000000000000000000000000000000000000000000000000000000000081565b34801561073557600080fd5b506102a1610744366004612e56565b611384565b34801561075557600080fd5b5061038b61271081565b34801561076b57600080fd5b506102a161077a366004612eac565b6113e1565b6102a161078d366004612994565b61146b565b34801561079e57600080fd5b5061038b6107ad366004612f1e565b611681565b3480156107be57600080fd5b506102a16107cd366004612f4c565b6116ac565b3480156107de57600080fd5b506102a16107ed366004612f7c565b61175e565b3480156107fe57600080fd5b506102a161080d366004612c2a565b6117a7565b34801561081e57600080fd5b506006546102c39060ff1681565b34801561083857600080fd5b506102a1610847366004612af0565b611801565b34801561085857600080fd5b506102a1610867366004612e56565b61180f565b34801561087857600080fd5b506102ed610887366004612f97565b611888565b34801561089857600080fd5b5030610613565b337f00000000000000000000000000000000000000000000000000000000000000006001600160a01b03161461091c5760405162461bcd60e51b815260206004820152601e60248201527f4c7a4170703a20696e76616c696420656e64706f696e742063616c6c6572000060448201526064015b60405180910390fd5b61ffff86166000908152600160205260408120805461093a90612fe8565b80601f016020809104026020016040519081016040528092919081815260200182805461096690612fe8565b80156109b35780601f10610988576101008083540402835291602001916109b3565b820191906000526020600020905b81548152906001019060200180831161099657829003601f168201915b505050505090508051868690501480156109ce575060008151115b80156109f65750805160208201206040516109ec9088908890613023565b6040518091039020145b610a515760405162461bcd60e51b815260206004820152602660248201527f4c7a4170703a20696e76616c696420736f757263652073656e64696e6720636f6044820152651b9d1c9858dd60d21b6064820152608401610913565b610ac78787878080601f01602080910402602001604051908101604052809392919081815260200183838082843760009201919091525050604080516020601f8a018190048102820181019092528881528a93509150889088908190840183828082843760009201919091525061193992505050565b50505050505050565b60006001600160e01b031982161580610af957506001600160e01b031982166336372b0760e01b145b80610b085750610b08826119b2565b92915050565b6060600a8054610b1d90612fe8565b80601f0160208091040260200160405190810160405280929190818152602001828054610b4990612fe8565b8015610b965780601f10610b6b57610100808354040283529160200191610b96565b820191906000526020600020905b815481529060010190602001808311610b7957829003601f168201915b5050505050905090565b610ba86119e7565b6040516307e0db1760e01b815261ffff821660048201527f00000000000000000000000000000000000000000000000000000000000000006001600160a01b0316906307e0db17906024015b600060405180830381600087803b158015610c0e57600080fd5b505af1158015610c22573d6000803e3d6000fd5b5050505050565b600033610c37818585611a41565b5060019392505050565b610c496119e7565b61ffff909116600090815260036020526040902055565b610c686119e7565b6040516310ddb13760e01b815261ffff821660048201527f00000000000000000000000000000000000000000000000000000000000000006001600160a01b0316906310ddb13790602401610bf4565b600033610cc6858285611b65565b610cd1858585611bdf565b506001949350505050565b600080600080898989604051602001610cf8949392919061305c565b60408051601f198184030181529082905263040a7bb160e41b825291506001600160a01b037f000000000000000000000000000000000000000000000000000000000000000016906340a7bb1090610d5e908d90309086908c908c908c9060040161308b565b6040805180830381865afa158015610d7a573d6000803e3d6000fd5b505050506040513d601f19601f82011682018060405250810190610d9e91906130e1565b925092505097509795505050505050565b600033610c37818585610dc28383611681565b610dcc919061311b565b611a41565b61ffff831660009081526001602052604081208054829190610df290612fe8565b80601f0160208091040260200160405190810160405280929190818152602001828054610e1e90612fe8565b8015610e6b5780601f10610e4057610100808354040283529160200191610e6b565b820191906000526020600020905b815481529060010190602001808311610e4e57829003601f168201915b505050505090508383604051610e82929190613023565b60405180910390208180519060200120149150509392505050565b610ea56119e7565b6040516342d65a8d60e01b81526001600160a01b037f000000000000000000000000000000000000000000000000000000000000000016906342d65a8d90610ef590869086908690600401613133565b600060405180830381600087803b158015610f0f57600080fd5b505af1158015610ac7573d6000803e3d6000fd5b610f9d898989898080601f01602080910402602001604051908101604052809392919081815260200183838082843760009201919091525050604080516020601f8a018190048102820181019092528881528c93508b92508a918a908a9081908401838280828437600092019190915250611d8a92505050565b505050505050505050565b3330146110065760405162461bcd60e51b815260206004820152602660248201527f4e6f6e626c6f636b696e674c7a4170703a2063616c6c6572206d7573742062656044820152650204c7a4170760d41b6064820152608401610913565b61107c8686868080601f01602080910402602001604051908101604052809392919081815260200183838082843760009201919091525050604080516020601f890181900481028201810190925287815289935091508790879081908401838280828437600092019190915250611e3192505050565b505050505050565b61108c6119e7565b6110966000611e98565b565b600160205260009081526040902080546110b190612fe8565b80601f01602080910402602001604051908101604052809291908181526020018280546110dd90612fe8565b801561112a5780601f106110ff5761010080835404028352916020019161112a565b820191906000526020600020905b81548152906001019060200180831161110d57829003601f168201915b505050505081565b600061113d60095490565b905090565b6060600b8054610b1d90612fe8565b61ffff811660009081526001602052604081208054606092919061117490612fe8565b80601f01602080910402602001604051908101604052809291908181526020018280546111a090612fe8565b80156111ed5780601f106111c2576101008083540402835291602001916111ed565b820191906000526020600020905b8154815290600101906020018083116111d057829003601f168201915b505050505090508051600014156112465760405162461bcd60e51b815260206004820152601d60248201527f4c7a4170703a206e6f20747275737465642070617468207265636f72640000006044820152606401610913565b6112616000601483516112599190613151565b839190611ee8565b9392505050565b600033816112768286611681565b9050838110156112d65760405162461bcd60e51b815260206004820152602560248201527f45524332303a2064656372656173656420616c6c6f77616e63652062656c6f77604482015264207a65726f60d81b6064820152608401610913565b610cd18286868403611a41565b6112eb6119e7565b81813060405160200161130093929190613168565b60408051601f1981840301815291815261ffff8516600090815260016020908152919020825161133593919290910190612813565b507f8c0400cfe2d1199b1a725c78960bcc2a344d869b80590d0f2bd005db15a572ce83838360405161136993929190613133565b60405180910390a1505050565b600033610c37818585611bdf565b61138c6119e7565b600480546001600160a01b0319166001600160a01b0383169081179091556040519081527f5db758e995a17ec1ad84bdef7e8c3293a0bd6179bcce400dff5d4c3d87db726b906020015b60405180910390a150565b6113e96119e7565b6040516332fb62e760e21b81526001600160a01b037f0000000000000000000000000000000000000000000000000000000000000000169063cbed8b9c9061143d908890889088908890889060040161318e565b600060405180830381600087803b15801561145757600080fd5b505af1158015610f9d573d6000803e3d6000fd5b61ffff8616600090815260056020526040808220905161148e9088908890613023565b90815260408051602092819003830190206001600160401b0387166000908152925290205490508061150e5760405162461bcd60e51b815260206004820152602360248201527f4e6f6e626c6f636b696e674c7a4170703a206e6f2073746f726564206d65737360448201526261676560e81b6064820152608401610913565b80838360405161151f929190613023565b60405180910390201461157e5760405162461bcd60e51b815260206004820152602160248201527f4e6f6e626c6f636b696e674c7a4170703a20696e76616c6964207061796c6f616044820152601960fa1b6064820152608401610913565b61ffff871660009081526005602052604080822090516115a19089908990613023565b90815260408051602092819003830181206001600160401b038916600090815290845282902093909355601f88018290048202830182019052868252611639918991899089908190840183828082843760009201919091525050604080516020601f8a018190048102820181019092528881528a935091508890889081908401838280828437600092019190915250611e3192505050565b7fc264d91f3adc5588250e1551f547752ca0cfa8f6b530d243b9f9f4cab10ea8e587878787856040516116709594939291906131c7565b60405180910390a150505050505050565b6001600160a01b03918216600090815260086020908152604080832093909416825291909152205490565b6116b46119e7565b600081116116fc5760405162461bcd60e51b81526020600482015260156024820152744c7a4170703a20696e76616c6964206d696e47617360581b6044820152606401610913565b61ffff83811660008181526002602090815260408083209487168084529482529182902085905581519283528201929092529081018290527f9d5c7c0b934da8fefa9c7760c98383778a12dfbfc0c3b3106518f43fb9508ac090606001611369565b6117666119e7565b6006805460ff19168215159081179091556040519081527f1584ad594a70cbe1e6515592e1272a987d922b097ead875069cebe8b40c004a4906020016113d6565b6117af6119e7565b61ffff831660009081526001602052604090206117cd908383612897565b507ffa41487ad5d6728f0b19276fa1eddc16558578f5109fc39d2dc33c3230470dab83838360405161136993929190613133565b61180b8282611ff5565b5050565b6118176119e7565b6001600160a01b03811661187c5760405162461bcd60e51b815260206004820152602660248201527f4f776e61626c653a206e6577206f776e657220697320746865207a65726f206160448201526564647265737360d01b6064820152608401610913565b61188581611e98565b50565b604051633d7b2f6f60e21b815261ffff808616600483015284166024820152306044820152606481018290526060907f00000000000000000000000000000000000000000000000000000000000000006001600160a01b03169063f5ecbdbc90608401600060405180830381865afa158015611908573d6000803e3d6000fd5b505050506040513d6000823e601f3d908101601f19168201604052611930919081019061324f565b95945050505050565b60008061199c5a60966366ad5c8a60e01b898989896040516024016119619493929190613283565b60408051601f198184030181529190526020810180516001600160e01b03166001600160e01b031990931692909217909152309291906120b6565b915091508161107c5761107c8686868685612140565b60006001600160e01b03198216630a72677560e11b1480610b0857506301ffc9a760e01b6001600160e01b0319831614610b08565b6000546001600160a01b031633146110965760405162461bcd60e51b815260206004820181905260248201527f4f776e61626c653a2063616c6c6572206973206e6f7420746865206f776e65726044820152606401610913565b6001600160a01b038316611aa35760405162461bcd60e51b8152602060048201526024808201527f45524332303a20617070726f76652066726f6d20746865207a65726f206164646044820152637265737360e01b6064820152608401610913565b6001600160a01b038216611b045760405162461bcd60e51b815260206004820152602260248201527f45524332303a20617070726f766520746f20746865207a65726f206164647265604482015261737360f01b6064820152608401610913565b6001600160a01b0383811660008181526008602090815260408083209487168084529482529182902085905590518481527f8c5be1e5ebec7d5bd14f71427d1e84f3dd0314c0f7b2291e5b200ac8c7c3b925910160405180910390a3505050565b6000611b718484611681565b90506000198114611bd95781811015611bcc5760405162461bcd60e51b815260206004820152601d60248201527f45524332303a20696e73756666696369656e7420616c6c6f77616e63650000006044820152606401610913565b611bd98484848403611a41565b50505050565b6001600160a01b038316611c435760405162461bcd60e51b815260206004820152602560248201527f45524332303a207472616e736665722066726f6d20746865207a65726f206164604482015264647265737360d81b6064820152608401610913565b6001600160a01b038216611ca55760405162461bcd60e51b815260206004820152602360248201527f45524332303a207472616e7366657220746f20746865207a65726f206164647260448201526265737360e81b6064820152608401610913565b6001600160a01b03831660009081526007602052604090205481811015611d1d5760405162461bcd60e51b815260206004820152602660248201527f45524332303a207472616e7366657220616d6f756e7420657863656564732062604482015265616c616e636560d01b6064820152608401610913565b6001600160a01b0380851660008181526007602052604080822086860390559286168082529083902080548601905591517fddf252ad1be2c89b69c2b068fc378daa952ba7f163c4a11628f55a4df523b3ef90611d7d9086815260200190565b60405180910390a3611bd9565b611d988660008360006121e2565b6000611da68888888861225c565b90506000808783604051602001611dbf939291906132c1565b6040516020818303038152906040529050611dde88828787873461228e565b886001600160a01b03168861ffff167f39a4c66499bcf4b56d79f0dde8ed7a9d4925a0df55825206b2b8531e202be0d08985604051611e1e9291906132ee565b60405180910390a3505050505050505050565b602081015161ffff8116611e5057611e4b85858585612434565b610c22565b60405162461bcd60e51b815260206004820152601c60248201527f4f4654436f72653a20756e6b6e6f776e207061636b65742074797065000000006044820152606401610913565b600080546001600160a01b038381166001600160a01b0319831681178455604051919092169283917f8be0079c531659141344cd1fd0a4f28419497f9722a3daafe3b4186f6b6457e09190a35050565b606081611ef681601f61311b565b1015611f355760405162461bcd60e51b815260206004820152600e60248201526d736c6963655f6f766572666c6f7760901b6044820152606401610913565b611f3f828461311b565b84511015611f835760405162461bcd60e51b8152602060048201526011602482015270736c6963655f6f75744f66426f756e647360781b6044820152606401610913565b606082158015611fa25760405191506000825260208201604052611fec565b6040519150601f8416801560200281840101858101878315602002848b0101015b81831015611fdb578051835260209283019201611fc3565b5050858452601f01601f1916604052505b50949350505050565b6001600160a01b03821661204b5760405162461bcd60e51b815260206004820152601f60248201527f45524332303a206d696e7420746f20746865207a65726f2061646472657373006044820152606401610913565b806009600082825461205d919061311b565b90915550506001600160a01b0382166000818152600760209081526040808320805486019055518481527fddf252ad1be2c89b69c2b068fc378daa952ba7f163c4a11628f55a4df523b3ef910160405180910390a35050565b6000606060008060008661ffff166001600160401b038111156120db576120db612d47565b6040519080825280601f01601f191660200182016040528015612105576020820181803683370190505b50905060008087516020890160008d8df191503d925086831115612127578692505b828152826000602083013e909890975095505050505050565b8180519060200120600560008761ffff1661ffff168152602001908152602001600020856040516121719190613310565b9081526040805191829003602090810183206001600160401b0388166000908152915220919091557fe183f33de2837795525b4792ca4cd60535bd77c53b7e7030060bfcf5734d6b0c906121ce908790879087908790879061332c565b60405180910390a15050505050565b505050565b60065460ff16156121fe576121f9848484846124be565b611bd9565b815115611bd95760405162461bcd60e51b815260206004820152602660248201527f4f4654436f72653a205f61646170746572506172616d73206d7573742062652060448201526532b6b83a3c9760d11b6064820152608401610913565b6000336001600160a01b038616811461227a5761227a868285611b65565b612284868461259d565b5090949350505050565b61ffff8616600090815260016020526040812080546122ac90612fe8565b80601f01602080910402602001604051908101604052809291908181526020018280546122d890612fe8565b80156123255780601f106122fa57610100808354040283529160200191612325565b820191906000526020600020905b81548152906001019060200180831161230857829003601f168201915b505050505090508051600014156123975760405162461bcd60e51b815260206004820152603060248201527f4c7a4170703a2064657374696e6174696f6e20636861696e206973206e6f742060448201526f61207472757374656420736f7572636560801b6064820152608401610913565b6123a28787516126d1565b60405162c5803160e81b81526001600160a01b037f0000000000000000000000000000000000000000000000000000000000000000169063c58031009084906123f9908b9086908c908c908c908c9060040161338a565b6000604051808303818588803b15801561241257600080fd5b505af1158015612426573d6000803e3d6000fd5b505050505050505050505050565b6000808280602001905181019061244b91906133e4565b90935091506000905061245e838261273f565b905061246b8782846127a4565b9150806001600160a01b03168761ffff167fbf551ec93859b170f9b2141bd9298bf3f64322c6f7beb2543a0cb669834118bf846040516124ad91815260200190565b60405180910390a350505050505050565b60006124c9836127b7565b61ffff8087166000908152600260209081526040808320938916835292905290812054919250906124fb90849061311b565b90506000811161254d5760405162461bcd60e51b815260206004820152601a60248201527f4c7a4170703a206d696e4761734c696d6974206e6f74207365740000000000006044820152606401610913565b8082101561107c5760405162461bcd60e51b815260206004820152601b60248201527f4c7a4170703a20676173206c696d697420697320746f6f206c6f7700000000006044820152606401610913565b6001600160a01b0382166125fd5760405162461bcd60e51b815260206004820152602160248201527f45524332303a206275726e2066726f6d20746865207a65726f206164647265736044820152607360f81b6064820152608401610913565b6001600160a01b038216600090815260076020526040902054818110156126715760405162461bcd60e51b815260206004820152602260248201527f45524332303a206275726e20616d6f756e7420657863656564732062616c616e604482015261636560f01b6064820152608401610913565b6001600160a01b03831660008181526007602090815260408083208686039055600980548790039055518581529192917fddf252ad1be2c89b69c2b068fc378daa952ba7f163c4a11628f55a4df523b3ef910160405180910390a3505050565b61ffff8216600090815260036020526040902054806126ef57506127105b808211156121dd5760405162461bcd60e51b815260206004820181905260248201527f4c7a4170703a207061796c6f61642073697a6520697320746f6f206c617267656044820152606401610913565b600061274c82601461311b565b835110156127945760405162461bcd60e51b8152602060048201526015602482015274746f416464726573735f6f75744f66426f756e647360581b6044820152606401610913565b500160200151600160601b900490565b60006127b08383611ff5565b5092915050565b600060228251101561280b5760405162461bcd60e51b815260206004820152601c60248201527f4c7a4170703a20696e76616c69642061646170746572506172616d73000000006044820152606401610913565b506022015190565b82805461281f90612fe8565b90600052602060002090601f0160209004810192826128415760008555612887565b82601f1061285a57805160ff1916838001178555612887565b82800160010185558215612887579182015b8281111561288757825182559160200191906001019061286c565b5061289392915061290b565b5090565b8280546128a390612fe8565b90600052602060002090601f0160209004810192826128c55760008555612887565b82601f106128de5782800160ff19823516178555612887565b82800160010185558215612887579182015b828111156128875782358255916020019190600101906128f0565b5b80821115612893576000815560010161290c565b61ffff8116811461188557600080fd5b60008083601f84011261294257600080fd5b5081356001600160401b0381111561295957600080fd5b60208301915083602082850101111561297157600080fd5b9250929050565b80356001600160401b038116811461298f57600080fd5b919050565b600080600080600080608087890312156129ad57600080fd5b86356129b881612920565b955060208701356001600160401b03808211156129d457600080fd5b6129e08a838b01612930565b90975095508591506129f460408a01612978565b94506060890135915080821115612a0a57600080fd5b50612a1789828a01612930565b979a9699509497509295939492505050565b600060208284031215612a3b57600080fd5b81356001600160e01b03198116811461126157600080fd5b60005b83811015612a6e578181015183820152602001612a56565b83811115611bd95750506000910152565b60008151808452612a97816020860160208601612a53565b601f01601f19169290920160200192915050565b6020815260006112616020830184612a7f565b600060208284031215612ad057600080fd5b813561126181612920565b6001600160a01b038116811461188557600080fd5b60008060408385031215612b0357600080fd5b8235612b0e81612adb565b946020939093013593505050565b60008060408385031215612b2f57600080fd5b8235612b0e81612920565b600080600060608486031215612b4f57600080fd5b8335612b5a81612adb565b92506020840135612b6a81612adb565b929592945050506040919091013590565b8035801515811461298f57600080fd5b600080600080600080600060a0888a031215612ba657600080fd5b8735612bb181612920565b965060208801356001600160401b0380821115612bcd57600080fd5b612bd98b838c01612930565b909850965060408a01359550869150612bf460608b01612b7b565b945060808a0135915080821115612c0a57600080fd5b50612c178a828b01612930565b989b979a50959850939692959293505050565b600080600060408486031215612c3f57600080fd5b8335612c4a81612920565b925060208401356001600160401b03811115612c6557600080fd5b612c7186828701612930565b9497909650939450505050565b600080600080600080600080600060e08a8c031215612c9c57600080fd5b8935612ca781612adb565b985060208a0135612cb781612920565b975060408a01356001600160401b0380821115612cd357600080fd5b612cdf8d838e01612930565b909950975060608c0135965060808c01359150612cfb82612adb565b90945060a08b013590612d0d82612adb565b90935060c08b01359080821115612d2357600080fd5b50612d308c828d01612930565b915080935050809150509295985092959850929598565b634e487b7160e01b600052604160045260246000fd5b604051601f8201601f191681016001600160401b0381118282101715612d8557612d85612d47565b604052919050565b60006001600160401b03821115612da657612da6612d47565b50601f01601f191660200190565b600080600060608486031215612dc957600080fd5b8335612dd481612920565b925060208401356001600160401b03811115612def57600080fd5b8401601f81018613612e0057600080fd5b8035612e13612e0e82612d8d565b612d5d565b818152876020838501011115612e2857600080fd5b81602084016020830137600060208383010152809450505050612e4d60408501612978565b90509250925092565b600060208284031215612e6857600080fd5b813561126181612adb565b60008060408385031215612e8657600080fd5b8235612e9181612920565b91506020830135612ea181612920565b809150509250929050565b600080600080600060808688031215612ec457600080fd5b8535612ecf81612920565b94506020860135612edf81612920565b93506040860135925060608601356001600160401b03811115612f0157600080fd5b612f0d88828901612930565b969995985093965092949392505050565b60008060408385031215612f3157600080fd5b8235612f3c81612adb565b91506020830135612ea181612adb565b600080600060608486031215612f6157600080fd5b8335612f6c81612920565b92506020840135612b6a81612920565b600060208284031215612f8e57600080fd5b61126182612b7b565b60008060008060808587031215612fad57600080fd5b8435612fb881612920565b93506020850135612fc881612920565b92506040850135612fd881612adb565b9396929550929360600135925050565b600181811c90821680612ffc57607f821691505b6020821081141561301d57634e487b7160e01b600052602260045260246000fd5b50919050565b8183823760009101908152919050565b81835281816020850137506000828201602090810191909152601f909101601f19169091010190565b61ffff8516815260606020820152600061307a606083018587613033565b905082604083015295945050505050565b61ffff871681526001600160a01b038616602082015260a0604082018190526000906130b990830187612a7f565b851515606084015282810360808401526130d4818587613033565b9998505050505050505050565b600080604083850312156130f457600080fd5b505080516020909101519092909150565b634e487b7160e01b600052601160045260246000fd5b6000821982111561312e5761312e613105565b500190565b61ffff84168152604060208201526000611930604083018486613033565b60008282101561316357613163613105565b500390565b8284823760609190911b6bffffffffffffffffffffffff19169101908152601401919050565b600061ffff8088168352808716602084015250846040830152608060608301526131bc608083018486613033565b979650505050505050565b61ffff861681526080602082015260006131e5608083018688613033565b6001600160401b0394909416604083015250606001529392505050565b600082601f83011261321357600080fd5b8151613221612e0e82612d8d565b81815284602083860101111561323657600080fd5b613247826020830160208701612a53565b949350505050565b60006020828403121561326157600080fd5b81516001600160401b0381111561327757600080fd5b61324784828501613202565b61ffff851681526080602082015260006132a06080830186612a7f565b6001600160401b038516604084015282810360608401526131bc8185612a7f565b61ffff841681526060602082015260006132de6060830185612a7f565b9050826040830152949350505050565b6040815260006133016040830185612a7f565b90508260208301529392505050565b60008251613322818460208701612a53565b9190910192915050565b61ffff8616815260a06020820152600061334960a0830187612a7f565b6001600160401b0386166040840152828103606084015261336a8186612a7f565b9050828103608084015261337e8185612a7f565b98975050505050505050565b61ffff8716815260c0602082015260006133a760c0830188612a7f565b82810360408401526133b98188612a7f565b6001600160a01b0387811660608601528616608085015283810360a085015290506130d48185612a7f565b6000806000606084860312156133f957600080fd5b835161340481612920565b60208501519093506001600160401b0381111561342057600080fd5b61342c86828701613202565b92505060408401519050925092509256fea2646970667358221220419c94eadcf31f970d3d149d2af9181208b35f5df05ad1156d23d635f5dbeafc64736f6c634300080c0033",
  "linkReferences": {},
  "deployedLinkReferences": {}
}