{
  "_format": "hh-sol-artifact-1",
  "contractName": "StargateFeeLibraryV03L",
  "sourceName": "contracts/libraries/StargateFeeLibraryV03L.sol",
  "abi": [
    {
      "inputs": [
        {
          "internalType": "address",
          "name": "_factory",
          "type": "address"
        },
        {
          "internalType": "uint16",
          "name": "_localChainId",
          "type": "uint16"
        }
      ],
      "stateMutability": "nonpayable",
      "type": "constructor"
    },
    {
      "anonymous": false,
      "inputs": [
        {
          "indexed": true,
          "internalType": "address",
          "name": "previousOwner",
          "type": "address"
        },
        {
          "indexed": true,
          "internalType": "address",
          "name": "newOwner",
          "type": "address"
        }
      ],
      "name": "OwnershipTransferred",
      "type": "event"
    },
    {
      "inputs": [],
      "name": "DELTA_1",
      "outputs": [
        {
          "internalType": "uint256",
          "name": "",
          "type": "uint256"
        }
      ],
      "stateMutability": "view",
      "type": "function"
    },
    {
      "inputs": [],
      "name": "DELTA_2",
      "outputs": [
        {
          "internalType": "uint256",
          "name": "",
          "type": "uint256"
        }
      ],
      "stateMutability": "view",
      "type": "function"
    },
    {
      "inputs": [],
      "name": "DENOMINATOR",
      "outputs": [
        {
          "internalType": "uint256",
          "name": "",
          "type": "uint256"
        }
      ],
      "stateMutability": "view",
      "type": "function"
    },
    {
      "inputs": [],
      "name": "LAMBDA_1",
      "outputs": [
        {
          "internalType": "uint256",
          "name": "",
          "type": "uint256"
        }
      ],
      "stateMutability": "view",
      "type": "function"
    },
    {
      "inputs": [],
      "name": "LAMBDA_2",
      "outputs": [
        {
          "internalType": "uint256",
          "name": "",
          "type": "uint256"
        }
      ],
      "stateMutability": "view",
      "type": "function"
    },
    {
      "inputs": [],
      "name": "LP_FEE",
      "outputs": [
        {
          "internalType": "uint256",
          "name": "",
          "type": "uint256"
        }
      ],
      "stateMutability": "view",
      "type": "function"
    },
    {
      "inputs": [],
      "name": "PROTOCOL_FEE",
      "outputs": [
        {
          "internalType": "uint256",
          "name": "",
          "type": "uint256"
        }
      ],
      "stateMutability": "view",
      "type": "function"
    },
    {
      "inputs": [],
      "name": "PROTOCOL_SUBSIDY",
      "outputs": [
        {
          "internalType": "uint256",
          "name": "",
          "type": "uint256"
        }
      ],
      "stateMutability": "view",
      "type": "function"
    },
    {
      "inputs": [],
      "name": "factory",
      "outputs": [
        {
          "internalType": "contract Factory",
          "name": "",
          "type": "address"
        }
      ],
      "stateMutability": "view",
      "type": "function"
    },
    {
      "inputs": [
        {
          "internalType": "uint256",
          "name": "idealBalance",
          "type": "uint256"
        },
        {
          "internalType": "uint256",
          "name": "beforeBalance",
          "type": "uint256"
        },
        {
          "internalType": "uint256",
          "name": "amountSD",
          "type": "uint256"
        }
      ],
      "name": "getEquilibriumFee",
      "outputs": [
        {
          "internalType": "uint256",
          "name": "",
          "type": "uint256"
        },
        {
          "internalType": "uint256",
          "name": "",
          "type": "uint256"
        }
      ],
      "stateMutability": "pure",
      "type": "function"
    },
    {
      "inputs": [
        {
          "internalType": "uint256",
          "name": "_srcPoolId",
          "type": "uint256"
        },
        {
          "internalType": "uint256",
          "name": "_dstPoolId",
          "type": "uint256"
        },
        {
          "internalType": "uint16",
          "name": "_dstChainId",
          "type": "uint16"
        },
        {
          "internalType": "address",
          "name": "",
          "type": "address"
        },
        {
          "internalType": "uint256",
          "name": "_amountSD",
          "type": "uint256"
        }
      ],
      "name": "getFees",
      "outputs": [
        {
          "components": [
            {
              "internalType": "uint256",
              "name": "amount",
              "type": "uint256"
            },
            {
              "internalType": "uint256",
              "name": "eqFee",
              "type": "uint256"
            },
            {
              "internalType": "uint256",
              "name": "eqReward",
              "type": "uint256"
            },
            {
              "internalType": "uint256",
              "name": "lpFee",
              "type": "uint256"
            },
            {
              "internalType": "uint256",
              "name": "protocolFee",
              "type": "uint256"
            },
            {
              "internalType": "uint256",
              "name": "lkbRemove",
              "type": "uint256"
            }
          ],
          "internalType": "struct Pool.SwapObj",
          "name": "s",
          "type": "tuple"
        }
      ],
      "stateMutability": "view",
      "type": "function"
    },
    {
      "inputs": [
        {
          "internalType": "uint256",
          "name": "lambda",
          "type": "uint256"
        },
        {
          "internalType": "uint256",
          "name": "yOffset",
          "type": "uint256"
        },
        {
          "internalType": "uint256",
          "name": "xUpperBound",
          "type": "uint256"
        },
        {
          "internalType": "uint256",
          "name": "xLowerBound",
          "type": "uint256"
        },
        {
          "internalType": "uint256",
          "name": "xStart",
          "type": "uint256"
        },
        {
          "internalType": "uint256",
          "name": "xEnd",
          "type": "uint256"
        }
      ],
      "name": "getTrapezoidArea",
      "outputs": [
        {
          "internalType": "uint256",
          "name": "",
          "type": "uint256"
        }
      ],
      "stateMutability": "pure",
      "type": "function"
    },
    {
      "inputs": [],
      "name": "getVersion",
      "outputs": [
        {
          "internalType": "string",
          "name": "",
          "type": "string"
        }
      ],
      "stateMutability": "pure",
      "type": "function"
    },
    {
      "inputs": [],
      "name": "localChainId",
      "outputs": [
        {
          "internalType": "uint16",
          "name": "",
          "type": "uint16"
        }
      ],
      "stateMutability": "view",
      "type": "function"
    },
    {
      "inputs": [],
      "name": "owner",
      "outputs": [
        {
          "internalType": "address",
          "name": "",
          "type": "address"
        }
      ],
      "stateMutability": "view",
      "type": "function"
    },
    {
      "inputs": [],
      "name": "renounceOwnership",
      "outputs": [],
      "stateMutability": "nonpayable",
      "type": "function"
    },
    {
      "inputs": [
        {
          "internalType": "address",
          "name": "newOwner",
          "type": "address"
        }
      ],
      "name": "transferOwnership",
      "outputs": [],
      "stateMutability": "nonpayable",
      "type": "function"
    }
  ],
  "bytecode": "0x60c06040523480156200001157600080fd5b50604051620015d9380380620015d98339810160408190526200003491620000ed565b600062000040620000e9565b600080546001600160a01b0319166001600160a01b0383169081178255604051929350917f8be0079c531659141344cd1fd0a4f28419497f9722a3daafe3b4186f6b6457e0908290a350600180556001600160a01b038216620000c05760405162461bcd60e51b8152600401620000b7906200013a565b60405180910390fd5b60609190911b6001600160601b03191660805260f01b6001600160f01b03191660a0526200017b565b3390565b6000806040838503121562000100578182fd5b82516001600160a01b038116811462000117578283fd5b602084015190925061ffff811681146200012f578182fd5b809150509250929050565b60208082526021908201527f4665654c6962726172793a20466163746f72792063616e6e6f742062652030786040820152600360fc1b606082015260800190565b60805160601c60a05160f01c611420620001b960003980610286528061044252806107a6528061084352508061032952806109e052506114206000f3fe608060405234801561001057600080fd5b506004361061011b5760003560e01c80635e3f2727116100b25780638da5cb5b11610081578063a810de6c11610066578063a810de6c1461020b578063c45a015514610213578063f2fde38b1461021b5761011b565b80638da5cb5b146101ee578063918f8674146102035761011b565b80635e3f2727146101c157806360d86e77146101c9578063715018a6146101dc5780637ba5c12f146101e65761011b565b806334b6a602116100ee57806334b6a6021461017b5780633dad0dd51461019c578063518a9f9f146101a45780635b056da5146101ac5761011b565b8063012a1c2d146101205780630b4501fd1461013e5780630d8e6e2c146101465780631ab624301461015b575b600080fd5b61012861022e565b6040516101359190611357565b60405180910390f35b61012861023a565b61014e610245565b6040516101359190611211565b61016e610169366004611132565b61027c565b60405161013591906112f0565b61018e610189366004611183565b610810565b604051610135929190611360565b61012861082a565b610128610836565b6101b4610841565b6040516101359190611334565b610128610865565b6101286101d73660046111ae565b61086f565b6101e461088a565b005b6101286109a1565b6101f66109ab565b60405161013591906111f0565b6101286109c7565b6101286109d3565b6101f66109de565b6101e461022936600461104b565b610a02565b670dd280b9144a000081565b6601c6bf5263400081565b60408051808201909152600581527f332e302e30000000000000000000000000000000000000000000000000000000602082015290565b610284610ff5565b7f000000000000000000000000000000000000000000000000000000000000000061ffff168461ffff1614156102c057600060808201526102e9565b6102e3670de0b6b3a76400006102dd846601c6bf52634000610ba3565b90610c1f565b60808201525b6040517f068bcd8d00000000000000000000000000000000000000000000000000000000815260009073ffffffffffffffffffffffffffffffffffffffff7f0000000000000000000000000000000000000000000000000000000000000000169063068bcd8d9061035e908a90600401611357565b60206040518083038186803b15801561037657600080fd5b505afa15801561038a573d6000803e3d6000fd5b505050506040513d601f19601f820116820180604052508101906103ae9190611067565b905060008173ffffffffffffffffffffffffffffffffffffffff1663159f6add87896040518363ffffffff1660e01b81526004016103ed929190611343565b6101006040518083038186803b15801561040657600080fd5b505afa15801561041a573d6000803e3d6000fd5b505050506040513d601f19601f8201168201806040525081019061043e9190611083565b90507f000000000000000000000000000000000000000000000000000000000000000061ffff168661ffff1614156104835760006020840181905260808401526104bc565b6000806104998360e00151846080015188610ca0565b60208701829052608087015191935091506104b49082610e36565b608086015250505b60008273ffffffffffffffffffffffffffffffffffffffff1663fc0c546a6040518163ffffffff1660e01b815260040160206040518083038186803b15801561050457600080fd5b505afa158015610518573d6000803e3d6000fd5b505050506040513d601f19601f8201168201806040525081019061053c9190611067565b905060006106638473ffffffffffffffffffffffffffffffffffffffff1663feb56b156040518163ffffffff1660e01b815260040160206040518083038186803b15801561058957600080fd5b505afa15801561059d573d6000803e3d6000fd5b505050506040513d601f19601f820116820180604052508101906105c1919061111a565b6040517f70a0823100000000000000000000000000000000000000000000000000000000815273ffffffffffffffffffffffffffffffffffffffff8516906370a08231906106139089906004016111f0565b60206040518083038186803b15801561062b57600080fd5b505afa15801561063f573d6000803e3d6000fd5b505050506040513d601f19601f820116820180604052508101906102dd919061111a565b905060008473ffffffffffffffffffffffffffffffffffffffff166315770f926040518163ffffffff1660e01b815260040160206040518083038186803b1580156106ad57600080fd5b505afa1580156106c1573d6000803e3d6000fd5b505050506040513d601f19601f820116820180604052508101906106e5919061111a565b9050818111156107a45760006106fb8284610e36565b905060008673ffffffffffffffffffffffffffffffffffffffff16639bb811196040518163ffffffff1660e01b815260040160206040518083038186803b15801561074557600080fd5b505afa158015610759573d6000803e3d6000fd5b505050506040513d601f19601f8201168201806040525081019061077d919061111a565b9050600061078f836102dd848d610ba3565b90508181111561079c5750805b604089015250505b7f000000000000000000000000000000000000000000000000000000000000000061ffff168961ffff1614156107e05760006060870152610802565b6107fc670de0b6b3a76400006102dd89655af3107a4000610ba3565b60608701525b505050505095945050505050565b60008061081e858585610ca0565b91509150935093915050565b670853a0d2313c000081565b66b1a2bc2ec5000081565b7f000000000000000000000000000000000000000000000000000000000000000081565b655af3107a400081565b600061087f878787878787610ead565b979650505050505050565b610892610f7d565b73ffffffffffffffffffffffffffffffffffffffff166108b06109ab565b73ffffffffffffffffffffffffffffffffffffffff161461093257604080517f08c379a000000000000000000000000000000000000000000000000000000000815260206004820181905260248201527f4f776e61626c653a2063616c6c6572206973206e6f7420746865206f776e6572604482015290519081900360640190fd5b6000805460405173ffffffffffffffffffffffffffffffffffffffff909116907f8be0079c531659141344cd1fd0a4f28419497f9722a3daafe3b4186f6b6457e0908390a3600080547fffffffffffffffffffffffff0000000000000000000000000000000000000000169055565b651b48eb57e00081565b60005473ffffffffffffffffffffffffffffffffffffffff1690565b670de0b6b3a764000081565b660e35fa931a000081565b7f000000000000000000000000000000000000000000000000000000000000000081565b610a0a610f7d565b73ffffffffffffffffffffffffffffffffffffffff16610a286109ab565b73ffffffffffffffffffffffffffffffffffffffff1614610aaa57604080517f08c379a000000000000000000000000000000000000000000000000000000000815260206004820181905260248201527f4f776e61626c653a2063616c6c6572206973206e6f7420746865206f776e6572604482015290519081900360640190fd5b73ffffffffffffffffffffffffffffffffffffffff8116610b16576040517f08c379a00000000000000000000000000000000000000000000000000000000081526004018080602001828103825260268152602001806113a46026913960400191505060405180910390fd5b6000805460405173ffffffffffffffffffffffffffffffffffffffff808516939216917f8be0079c531659141344cd1fd0a4f28419497f9722a3daafe3b4186f6b6457e091a3600080547fffffffffffffffffffffffff00000000000000000000000000000000000000001673ffffffffffffffffffffffffffffffffffffffff92909216919091179055565b600082610bb257506000610c19565b82820282848281610bbf57fe5b0414610c16576040517f08c379a00000000000000000000000000000000000000000000000000000000081526004018080602001828103825260218152602001806113ca6021913960400191505060405180910390fd5b90505b92915050565b6000808211610c8f57604080517f08c379a000000000000000000000000000000000000000000000000000000000815260206004820152601a60248201527f536166654d6174683a206469766973696f6e206279207a65726f000000000000604482015290519081900360640190fd5b818381610c9857fe5b049392505050565b60008082841015610ce6576040517f08c379a0000000000000000000000000000000000000000000000000000000008152600401610cdd906112b9565b60405180910390fd5b6000610cf28585610e36565b90506000610d14670de0b6b3a76400006102dd89670853a0d2313c0000610ba3565b90506000610d35670de0b6b3a76400006102dd8a66b1a2bc2ec50000610ba3565b9050600080838510610d6757610d5d670de0b6b3a76400006102dd8a651b48eb57e000610ba3565b9150819050610e27565b828510610d9f576000848a10610d7d5784610d7f565b895b9050610d97660e35fa931a000060008787858b610ead565b925050610e27565b828910610dfc576000848a10610db55784610db7565b895b9050610dd9610dd2660e35fa931a000060008888868a610ead565b8490610f81565b9250610d97610dd2670dd280b9144a0000660e35fa931a0000876000898c610ead565b610e24610e1d670dd280b9144a0000660e35fa931a00008660008e8b610ead565b8390610f81565b91505b90999098509650505050505050565b600082821115610ea757604080517f08c379a000000000000000000000000000000000000000000000000000000000815260206004820152601e60248201527f536166654d6174683a207375627472616374696f6e206f766572666c6f770000604482015290519081900360640190fd5b50900390565b6000838210158015610ebf5750848311155b610ef5576040517f08c379a0000000000000000000000000000000000000000000000000000000008152600401610cdd90611282565b6000610f018686610e36565b90506000610f2788610f21846102dd8d610f1b8d8c610e36565b90610ba3565b90610f81565b90506000610f4189610f21856102dd8e610f1b8e8c610e36565b90506000610f4f8787610e36565b9050610f6e670de0b6b3a76400006102dd60028185610f1b8989610f81565b9b9a5050505050505050505050565b3390565b600082820183811015610c1657604080517f08c379a000000000000000000000000000000000000000000000000000000000815260206004820152601b60248201527f536166654d6174683a206164646974696f6e206f766572666c6f770000000000604482015290519081900360640190fd5b6040518060c001604052806000815260200160008152602001600081526020016000815260200160008152602001600081525090565b8051801515811461103b57600080fd5b919050565b805161103b81611393565b60006020828403121561105c578081fd5b8135610c168161136e565b600060208284031215611078578081fd5b8151610c168161136e565b6000610100808385031215611096578182fd5b6040519081019067ffffffffffffffff821181831017156110b357fe5b816040526110c08461102b565b81526110ce60208501611040565b602082015260408401516040820152606084015160608201526080840151608082015260a084015160a082015260c084015160c082015260e084015160e0820152809250505092915050565b60006020828403121561112b578081fd5b5051919050565b600080600080600060a08688031215611149578081fd5b8535945060208601359350604086013561116281611393565b925060608601356111728161136e565b949793965091946080013592915050565b600080600060608486031215611197578283fd5b505081359360208301359350604090920135919050565b60008060008060008060c087890312156111c6578081fd5b505084359660208601359650604086013595606081013595506080810135945060a0013592509050565b73ffffffffffffffffffffffffffffffffffffffff91909116815260200190565b6000602080835283518082850152825b8181101561123d57858101830151858201604001528201611221565b8181111561124e5783604083870101525b50601f017fffffffffffffffffffffffffffffffffffffffffffffffffffffffffffffffe016929092016040019392505050565b6020808252601e908201527f53746172676174653a2062616c616e6365206f7574206f6620626f756e640000604082015260600190565b6020808252601c908201527f53746172676174653a206e6f7420656e6f7567682062616c616e636500000000604082015260600190565b600060c082019050825182526020830151602083015260408301516040830152606083015160608301526080830151608083015260a083015160a083015292915050565b61ffff91909116815260200190565b61ffff929092168252602082015260400190565b90815260200190565b918252602082015260400190565b73ffffffffffffffffffffffffffffffffffffffff8116811461139057600080fd5b50565b61ffff8116811461139057600080fdfe4f776e61626c653a206e6577206f776e657220697320746865207a65726f2061646472657373536166654d6174683a206d756c7469706c69636174696f6e206f766572666c6f77a264697066735822122034a2364cf2a3f06fd0b84f4c350b263e5233dac8c9d90af60cdca1f897665efd64736f6c63430007060033",
  "linkReferences": {},
  "deployedLinkReferences": {}
}