{
  "address": "0xA74A056FB6Bf10fe06B04B1C21847cB22BB63b5c",
  "abi": [
    {
      "inputs": [
        {
          "internalType": "address",
          "name": "_factory",
          "type": "address"
        },
        {
          "internalType": "address",
          "name": "_lpStakingContract",
          "type": "address"
        },
        {
          "internalType": "address",
          "name": "_endpoint",
          "type": "address"
        }
      ],
      "stateMutability": "nonpayable",
      "type": "constructor"
    },
    {
      "anonymous": false,
      "inputs": [
        {
          "indexed": true,
          "internalType": "address",
          "name": "previousOwner",
          "type": "address"
        },
        {
          "indexed": true,
          "internalType": "address",
          "name": "newOwner",
          "type": "address"
        }
      ],
      "name": "OwnershipTransferred",
      "type": "event"
    },
    {
      "anonymous": false,
      "inputs": [
        {
          "indexed": true,
          "internalType": "uint256",
          "name": "poolId",
          "type": "uint256"
        },
        {
          "indexed": false,
          "internalType": "uint256",
          "name": "priceSD",
          "type": "uint256"
        },
        {
          "indexed": false,
          "internalType": "enum StargateFeeLibraryV05.PriceDeviationState",
          "name": "state",
          "type": "uint8"
        }
      ],
      "name": "PriceUpdated",
      "type": "event"
    },
    {
      "anonymous": false,
      "inputs": [
        {
          "indexed": false,
          "internalType": "uint16",
          "name": "_dstChainId",
          "type": "uint16"
        },
        {
          "indexed": false,
          "internalType": "uint16",
          "name": "_type",
          "type": "uint16"
        },
        {
          "indexed": false,
          "internalType": "uint256",
          "name": "_minDstGas",
          "type": "uint256"
        }
      ],
      "name": "SetMinDstGas",
      "type": "event"
    },
    {
      "anonymous": false,
      "inputs": [
        {
          "indexed": false,
          "internalType": "address",
          "name": "precrime",
          "type": "address"
        }
      ],
      "name": "SetPrecrime",
      "type": "event"
    },
    {
      "anonymous": false,
      "inputs": [
        {
          "indexed": false,
          "internalType": "uint16",
          "name": "_remoteChainId",
          "type": "uint16"
        },
        {
          "indexed": false,
          "internalType": "bytes",
          "name": "_path",
          "type": "bytes"
        }
      ],
      "name": "SetTrustedRemote",
      "type": "event"
    },
    {
      "anonymous": false,
      "inputs": [
        {
          "indexed": false,
          "internalType": "uint16",
          "name": "_remoteChainId",
          "type": "uint16"
        },
        {
          "indexed": false,
          "internalType": "bytes",
          "name": "_remoteAddress",
          "type": "bytes"
        }
      ],
      "name": "SetTrustedRemoteAddress",
      "type": "event"
    },
    {
      "inputs": [],
      "name": "DELTA_1",
      "outputs": [
        {
          "internalType": "uint256",
          "name": "",
          "type": "uint256"
        }
      ],
      "stateMutability": "view",
      "type": "function"
    },
    {
      "inputs": [],
      "name": "DELTA_2",
      "outputs": [
        {
          "internalType": "uint256",
          "name": "",
          "type": "uint256"
        }
      ],
      "stateMutability": "view",
      "type": "function"
    },
    {
      "inputs": [],
      "name": "DENOMINATOR",
      "outputs": [
        {
          "internalType": "uint256",
          "name": "",
          "type": "uint256"
        }
      ],
      "stateMutability": "view",
      "type": "function"
    },
    {
      "inputs": [],
      "name": "EQ_REWARD_CAP",
      "outputs": [
        {
          "internalType": "uint256",
          "name": "",
          "type": "uint256"
        }
      ],
      "stateMutability": "view",
      "type": "function"
    },
    {
      "inputs": [],
      "name": "EQ_REWARD_THRESHOLD",
      "outputs": [
        {
          "internalType": "uint256",
          "name": "",
          "type": "uint256"
        }
      ],
      "stateMutability": "view",
      "type": "function"
    },
    {
      "inputs": [],
      "name": "FIFTY_PERCENT",
      "outputs": [
        {
          "internalType": "uint256",
          "name": "",
          "type": "uint256"
        }
      ],
      "stateMutability": "view",
      "type": "function"
    },
    {
      "inputs": [],
      "name": "LAMBDA_1",
      "outputs": [
        {
          "internalType": "uint256",
          "name": "",
          "type": "uint256"
        }
      ],
      "stateMutability": "view",
      "type": "function"
    },
    {
      "inputs": [],
      "name": "LAMBDA_2",
      "outputs": [
        {
          "internalType": "uint256",
          "name": "",
          "type": "uint256"
        }
      ],
      "stateMutability": "view",
      "type": "function"
    },
    {
      "inputs": [],
      "name": "LP_FEE",
      "outputs": [
        {
          "internalType": "uint256",
          "name": "",
          "type": "uint256"
        }
      ],
      "stateMutability": "view",
      "type": "function"
    },
    {
      "inputs": [],
      "name": "LP_FEE_WITH_EQ_REWARD",
      "outputs": [
        {
          "internalType": "uint256",
          "name": "",
          "type": "uint256"
        }
      ],
      "stateMutability": "view",
      "type": "function"
    },
    {
      "inputs": [],
      "name": "ONE_BPS_PRICE_CHANGE_THRESHOLD",
      "outputs": [
        {
          "internalType": "uint256",
          "name": "",
          "type": "uint256"
        }
      ],
      "stateMutability": "view",
      "type": "function"
    },
    {
      "inputs": [],
      "name": "PRICE_DEPEG_THRESHOLD",
      "outputs": [
        {
          "internalType": "uint256",
          "name": "",
          "type": "uint256"
        }
      ],
      "stateMutability": "view",
      "type": "function"
    },
    {
      "inputs": [],
      "name": "PRICE_DRIFT_THRESHOLD",
      "outputs": [
        {
          "internalType": "uint256",
          "name": "",
          "type": "uint256"
        }
      ],
      "stateMutability": "view",
      "type": "function"
    },
    {
      "inputs": [],
      "name": "PRICE_SHARED_DECIMALS",
      "outputs": [
        {
          "internalType": "uint8",
          "name": "",
          "type": "uint8"
        }
      ],
      "stateMutability": "view",
      "type": "function"
    },
    {
      "inputs": [],
      "name": "PROTOCOL_FEE",
      "outputs": [
        {
          "internalType": "uint256",
          "name": "",
          "type": "uint256"
        }
      ],
      "stateMutability": "view",
      "type": "function"
    },
    {
      "inputs": [],
      "name": "PROTOCOL_FEE_FOR_SAME_TOKEN",
      "outputs": [
        {
          "internalType": "uint256",
          "name": "",
          "type": "uint256"
        }
      ],
      "stateMutability": "view",
      "type": "function"
    },
    {
      "inputs": [],
      "name": "PROTOCOL_FEE_WITH_EQ_REWARD",
      "outputs": [
        {
          "internalType": "uint256",
          "name": "",
          "type": "uint256"
        }
      ],
      "stateMutability": "view",
      "type": "function"
    },
    {
      "inputs": [],
      "name": "PROTOCOL_SUBSIDY",
      "outputs": [
        {
          "internalType": "uint256",
          "name": "",
          "type": "uint256"
        }
      ],
      "stateMutability": "view",
      "type": "function"
    },
    {
      "inputs": [],
      "name": "SIXTY_PERCENT",
      "outputs": [
        {
          "internalType": "uint256",
          "name": "",
          "type": "uint256"
        }
      ],
      "stateMutability": "view",
      "type": "function"
    },
    {
      "inputs": [],
      "name": "TEN_BPS_PRICE_CHANGE_THRESHOLD",
      "outputs": [
        {
          "internalType": "uint256",
          "name": "",
          "type": "uint256"
        }
      ],
      "stateMutability": "view",
      "type": "function"
    },
    {
      "inputs": [
        {
          "internalType": "uint16",
          "name": "",
          "type": "uint16"
        }
      ],
      "name": "defaultAdapterParams",
      "outputs": [
        {
          "internalType": "bytes",
          "name": "",
          "type": "bytes"
        }
      ],
      "stateMutability": "view",
      "type": "function"
    },
    {
      "inputs": [],
      "name": "factory",
      "outputs": [
        {
          "internalType": "contract Factory",
          "name": "",
          "type": "address"
        }
      ],
      "stateMutability": "view",
      "type": "function"
    },
    {
      "inputs": [
        {
          "internalType": "uint16",
          "name": "_srcChainId",
          "type": "uint16"
        },
        {
          "internalType": "bytes",
          "name": "_srcAddress",
          "type": "bytes"
        }
      ],
      "name": "forceResumeReceive",
      "outputs": [],
      "stateMutability": "nonpayable",
      "type": "function"
    },
    {
      "inputs": [
        {
          "internalType": "uint16",
          "name": "_version",
          "type": "uint16"
        },
        {
          "internalType": "uint16",
          "name": "_chainId",
          "type": "uint16"
        },
        {
          "internalType": "address",
          "name": "",
          "type": "address"
        },
        {
          "internalType": "uint256",
          "name": "_configType",
          "type": "uint256"
        }
      ],
      "name": "getConfig",
      "outputs": [
        {
          "internalType": "bytes",
          "name": "",
          "type": "bytes"
        }
      ],
      "stateMutability": "view",
      "type": "function"
    },
    {
      "inputs": [
        {
          "internalType": "uint256",
          "name": "_srcPoolId",
          "type": "uint256"
        },
        {
          "internalType": "uint256",
          "name": "_dstPoolId",
          "type": "uint256"
        },
        {
          "internalType": "uint256",
          "name": "_amountSD",
          "type": "uint256"
        },
        {
          "internalType": "bool",
          "name": "_whitelisted",
          "type": "bool"
        }
      ],
      "name": "getDriftFee",
      "outputs": [
        {
          "internalType": "uint256",
          "name": "",
          "type": "uint256"
        }
      ],
      "stateMutability": "view",
      "type": "function"
    },
    {
      "inputs": [
        {
          "internalType": "uint256",
          "name": "_srcPoolId",
          "type": "uint256"
        },
        {
          "internalType": "uint256",
          "name": "_amountSD",
          "type": "uint256"
        },
        {
          "internalType": "bool",
          "name": "_whitelisted",
          "type": "bool"
        }
      ],
      "name": "getEqReward",
      "outputs": [
        {
          "internalType": "uint256",
          "name": "eqReward",
          "type": "uint256"
        },
        {
          "internalType": "uint256",
          "name": "protocolFee",
          "type": "uint256"
        }
      ],
      "stateMutability": "view",
      "type": "function"
    },
    {
      "inputs": [
        {
          "internalType": "uint256",
          "name": "srcPoolId",
          "type": "uint256"
        },
        {
          "internalType": "uint256",
          "name": "dstPoolId",
          "type": "uint256"
        },
        {
          "internalType": "uint16",
          "name": "dstChainId",
          "type": "uint16"
        },
        {
          "internalType": "uint256",
          "name": "amountSD",
          "type": "uint256"
        },
        {
          "internalType": "bool",
          "name": "whitelisted",
          "type": "bool"
        },
        {
          "internalType": "bool",
          "name": "hasEqReward",
          "type": "bool"
        }
      ],
      "name": "getEquilibriumFee",
      "outputs": [
        {
          "internalType": "uint256",
          "name": "",
          "type": "uint256"
        },
        {
          "internalType": "uint256",
          "name": "",
          "type": "uint256"
        }
      ],
      "stateMutability": "view",
      "type": "function"
    },
    {
      "inputs": [
        {
          "internalType": "uint256",
          "name": "_srcPoolId",
          "type": "uint256"
        },
        {
          "internalType": "uint256",
          "name": "_dstPoolId",
          "type": "uint256"
        },
        {
          "internalType": "uint16",
          "name": "_dstChainId",
          "type": "uint16"
        },
        {
          "internalType": "address",
          "name": "_from",
          "type": "address"
        },
        {
          "internalType": "uint256",
          "name": "_amountSD",
          "type": "uint256"
        }
      ],
      "name": "getFees",
      "outputs": [
        {
          "components": [
            {
              "internalType": "uint256",
              "name": "amount",
              "type": "uint256"
            },
            {
              "internalType": "uint256",
              "name": "eqFee",
              "type": "uint256"
            },
            {
              "internalType": "uint256",
              "name": "eqReward",
              "type": "uint256"
            },
            {
              "internalType": "uint256",
              "name": "lpFee",
              "type": "uint256"
            },
            {
              "internalType": "uint256",
              "name": "protocolFee",
              "type": "uint256"
            },
            {
              "internalType": "uint256",
              "name": "lkbRemove",
              "type": "uint256"
            }
          ],
          "internalType": "struct Pool.SwapObj",
          "name": "s",
          "type": "tuple"
        }
      ],
      "stateMutability": "view",
      "type": "function"
    },
    {
      "inputs": [
        {
          "internalType": "uint256",
          "name": "_srcPoolId",
          "type": "uint256"
        },
        {
          "internalType": "uint256",
          "name": "_dstPoolId",
          "type": "uint256"
        },
        {
          "internalType": "uint16",
          "name": "",
          "type": "uint16"
        },
        {
          "internalType": "uint256",
          "name": "_amountSD",
          "type": "uint256"
        },
        {
          "internalType": "uint256",
          "name": "_protocolSubsidy",
          "type": "uint256"
        },
        {
          "internalType": "bool",
          "name": "_whitelisted",
          "type": "bool"
        },
        {
          "internalType": "bool",
          "name": "_hasEqReward",
          "type": "bool"
        }
      ],
      "name": "getProtocolAndLpFee",
      "outputs": [
        {
          "internalType": "uint256",
          "name": "",
          "type": "uint256"
        },
        {
          "internalType": "uint256",
          "name": "",
          "type": "uint256"
        }
      ],
      "stateMutability": "view",
      "type": "function"
    },
    {
      "inputs": [
        {
          "internalType": "uint256",
          "name": "_poolId",
          "type": "uint256"
        }
      ],
      "name": "getRemoteChainIds",
      "outputs": [
        {
          "internalType": "uint16[]",
          "name": "",
          "type": "uint16[]"
        }
      ],
      "stateMutability": "view",
      "type": "function"
    },
    {
      "inputs": [],
      "name": "getVersion",
      "outputs": [
        {
          "internalType": "string",
          "name": "",
          "type": "string"
        }
      ],
      "stateMutability": "pure",
      "type": "function"
    },
    {
      "inputs": [
        {
          "internalType": "uint256",
          "name": "_poolId1",
          "type": "uint256"
        },
        {
          "internalType": "uint256",
          "name": "_poolId2",
          "type": "uint256"
        }
      ],
      "name": "isSameToken",
      "outputs": [
        {
          "internalType": "bool",
          "name": "",
          "type": "bool"
        }
      ],
      "stateMutability": "view",
      "type": "function"
    },
    {
      "inputs": [
        {
          "internalType": "uint256",
          "name": "_poolId",
          "type": "uint256"
        }
      ],
      "name": "isTokenPriceChanged",
      "outputs": [
        {
          "internalType": "bool",
          "name": "",
          "type": "bool"
        },
        {
          "internalType": "uint256",
          "name": "",
          "type": "uint256"
        },
        {
          "internalType": "enum StargateFeeLibraryV05.PriceDeviationState",
          "name": "",
          "type": "uint8"
        }
      ],
      "stateMutability": "view",
      "type": "function"
    },
    {
      "inputs": [
        {
          "internalType": "uint16",
          "name": "_srcChainId",
          "type": "uint16"
        },
        {
          "internalType": "bytes",
          "name": "_srcAddress",
          "type": "bytes"
        }
      ],
      "name": "isTrustedRemote",
      "outputs": [
        {
          "internalType": "bool",
          "name": "",
          "type": "bool"
        }
      ],
      "stateMutability": "view",
      "type": "function"
    },
    {
      "inputs": [],
      "name": "lpStaking",
      "outputs": [
        {
          "internalType": "contract IStargateLPStaking",
          "name": "",
          "type": "address"
        }
      ],
      "stateMutability": "view",
      "type": "function"
    },
    {
      "inputs": [],
      "name": "lzEndpoint",
      "outputs": [
        {
          "internalType": "contract ILayerZeroEndpoint",
          "name": "",
          "type": "address"
        }
      ],
      "stateMutability": "view",
      "type": "function"
    },
    {
      "inputs": [
        {
          "internalType": "uint16",
          "name": "_srcChainId",
          "type": "uint16"
        },
        {
          "internalType": "bytes",
          "name": "_srcAddress",
          "type": "bytes"
        },
        {
          "internalType": "uint64",
          "name": "_nonce",
          "type": "uint64"
        },
        {
          "internalType": "bytes",
          "name": "_payload",
          "type": "bytes"
        }
      ],
      "name": "lzReceive",
      "outputs": [],
      "stateMutability": "nonpayable",
      "type": "function"
    },
    {
      "inputs": [
        {
          "internalType": "uint16",
          "name": "",
          "type": "uint16"
        },
        {
          "internalType": "uint16",
          "name": "",
          "type": "uint16"
        }
      ],
      "name": "minDstGasLookup",
      "outputs": [
        {
          "internalType": "uint256",
          "name": "",
          "type": "uint256"
        }
      ],
      "stateMutability": "view",
      "type": "function"
    },
    {
      "inputs": [],
      "name": "owner",
      "outputs": [
        {
          "internalType": "address",
          "name": "",
          "type": "address"
        }
      ],
      "stateMutability": "view",
      "type": "function"
    },
    {
      "inputs": [
        {
          "internalType": "uint256",
          "name": "",
          "type": "uint256"
        }
      ],
      "name": "poolIdToLpId",
      "outputs": [
        {
          "internalType": "uint256",
          "name": "",
          "type": "uint256"
        }
      ],
      "stateMutability": "view",
      "type": "function"
    },
    {
      "inputs": [
        {
          "internalType": "uint256",
          "name": "",
          "type": "uint256"
        }
      ],
      "name": "poolIdToPrice",
      "outputs": [
        {
          "internalType": "address",
          "name": "priceFeedAddress",
          "type": "address"
        },
        {
          "internalType": "uint256",
          "name": "basePriceSD",
          "type": "uint256"
        },
        {
          "internalType": "uint256",
          "name": "currentPriceSD",
          "type": "uint256"
        },
        {
          "internalType": "enum StargateFeeLibraryV05.PriceDeviationState",
          "name": "state",
          "type": "uint8"
        }
      ],
      "stateMutability": "view",
      "type": "function"
    },
    {
      "inputs": [],
      "name": "precrime",
      "outputs": [
        {
          "internalType": "address",
          "name": "",
          "type": "address"
        }
      ],
      "stateMutability": "view",
      "type": "function"
    },
    {
      "inputs": [
        {
          "internalType": "uint256",
          "name": "_poolId",
          "type": "uint256"
        }
      ],
      "name": "quoteFeeForPriceUpdate",
      "outputs": [
        {
          "internalType": "uint256",
          "name": "",
          "type": "uint256"
        }
      ],
      "stateMutability": "view",
      "type": "function"
    },
    {
      "inputs": [],
      "name": "renounceOwnership",
      "outputs": [],
      "stateMutability": "nonpayable",
      "type": "function"
    },
    {
      "inputs": [
        {
          "internalType": "uint256",
          "name": "",
          "type": "uint256"
        },
        {
          "internalType": "uint256",
          "name": "",
          "type": "uint256"
        }
      ],
      "name": "sameToken",
      "outputs": [
        {
          "internalType": "bool",
          "name": "",
          "type": "bool"
        }
      ],
      "stateMutability": "view",
      "type": "function"
    },
    {
      "inputs": [
        {
          "internalType": "uint16",
          "name": "_version",
          "type": "uint16"
        },
        {
          "internalType": "uint16",
          "name": "_chainId",
          "type": "uint16"
        },
        {
          "internalType": "uint256",
          "name": "_configType",
          "type": "uint256"
        },
        {
          "internalType": "bytes",
          "name": "_config",
          "type": "bytes"
        }
      ],
      "name": "setConfig",
      "outputs": [],
      "stateMutability": "nonpayable",
      "type": "function"
    },
    {
      "inputs": [
        {
          "internalType": "uint16",
          "name": "_remoteChainId",
          "type": "uint16"
        },
        {
          "internalType": "bytes",
          "name": "_adapterParams",
          "type": "bytes"
        }
      ],
      "name": "setDefaultAdapterParams",
      "outputs": [],
      "stateMutability": "nonpayable",
      "type": "function"
    },
    {
      "inputs": [
        {
          "internalType": "uint16",
          "name": "_dstChainId",
          "type": "uint16"
        },
        {
          "internalType": "uint16",
          "name": "_packetType",
          "type": "uint16"
        },
        {
          "internalType": "uint256",
          "name": "_minGas",
          "type": "uint256"
        }
      ],
      "name": "setMinDstGas",
      "outputs": [],
      "stateMutability": "nonpayable",
      "type": "function"
    },
    {
      "inputs": [
        {
          "internalType": "uint256",
          "name": "_poolId",
          "type": "uint256"
        },
        {
          "internalType": "uint256",
          "name": "_lpId",
          "type": "uint256"
        }
      ],
      "name": "setPoolToLpId",
      "outputs": [],
      "stateMutability": "nonpayable",
      "type": "function"
    },
    {
      "inputs": [
        {
          "internalType": "address",
          "name": "_precrime",
          "type": "address"
        }
      ],
      "name": "setPrecrime",
      "outputs": [],
      "stateMutability": "nonpayable",
      "type": "function"
    },
    {
      "inputs": [
        {
          "internalType": "uint16",
          "name": "_version",
          "type": "uint16"
        }
      ],
      "name": "setReceiveVersion",
      "outputs": [],
      "stateMutability": "nonpayable",
      "type": "function"
    },
    {
      "inputs": [
        {
          "internalType": "uint256",
          "name": "_poolId1",
          "type": "uint256"
        },
        {
          "internalType": "uint256",
          "name": "_poolId2",
          "type": "uint256"
        },
        {
          "internalType": "bool",
          "name": "_isSame",
          "type": "bool"
        }
      ],
      "name": "setSameToken",
      "outputs": [],
      "stateMutability": "nonpayable",
      "type": "function"
    },
    {
      "inputs": [
        {
          "internalType": "uint16",
          "name": "_version",
          "type": "uint16"
        }
      ],
      "name": "setSendVersion",
      "outputs": [],
      "stateMutability": "nonpayable",
      "type": "function"
    },
    {
      "inputs": [
        {
          "internalType": "uint256",
          "name": "_poolId",
          "type": "uint256"
        },
        {
          "internalType": "uint256",
          "name": "_basePriceSD",
          "type": "uint256"
        }
      ],
      "name": "setTokenBasePrice",
      "outputs": [],
      "stateMutability": "nonpayable",
      "type": "function"
    },
    {
      "inputs": [
        {
          "internalType": "uint256",
          "name": "_poolId",
          "type": "uint256"
        },
        {
          "internalType": "address",
          "name": "_priceFeedAddress",
          "type": "address"
        },
        {
          "internalType": "uint16[]",
          "name": "_remoteChainIds",
          "type": "uint16[]"
        }
      ],
      "name": "setTokenPriceFeed",
      "outputs": [],
      "stateMutability": "nonpayable",
      "type": "function"
    },
    {
      "inputs": [
        {
          "internalType": "uint16",
          "name": "_srcChainId",
          "type": "uint16"
        },
        {
          "internalType": "bytes",
          "name": "_path",
          "type": "bytes"
        }
      ],
      "name": "setTrustedRemote",
      "outputs": [],
      "stateMutability": "nonpayable",
      "type": "function"
    },
    {
      "inputs": [
        {
          "internalType": "address",
          "name": "newOwner",
          "type": "address"
        }
      ],
      "name": "transferOwnership",
      "outputs": [],
      "stateMutability": "nonpayable",
      "type": "function"
    },
    {
      "inputs": [
        {
          "internalType": "uint16",
          "name": "",
          "type": "uint16"
        }
      ],
      "name": "trustedRemoteLookup",
      "outputs": [
        {
          "internalType": "bytes",
          "name": "",
          "type": "bytes"
        }
      ],
      "stateMutability": "view",
      "type": "function"
    },
    {
      "inputs": [
        {
          "internalType": "uint256",
          "name": "_poolId",
          "type": "uint256"
        }
      ],
      "name": "updateTokenPrice",
      "outputs": [],
      "stateMutability": "payable",
      "type": "function"
    },
    {
      "inputs": [
        {
          "internalType": "address",
          "name": "_from",
          "type": "address"
        },
        {
          "internalType": "bool",
          "name": "_whiteListed",
          "type": "bool"
        }
      ],
      "name": "whiteList",
      "outputs": [],
      "stateMutability": "nonpayable",
      "type": "function"
    },
    {
      "inputs": [
        {
          "internalType": "address",
          "name": "",
          "type": "address"
        }
      ],
      "name": "whitelist",
      "outputs": [
        {
          "internalType": "bool",
          "name": "",
          "type": "bool"
        }
      ],
      "stateMutability": "view",
      "type": "function"
    },
    {
      "stateMutability": "payable",
      "type": "receive"
    }
  ],
  "transactionHash": "0x66712ce028d4f76d110f13f08bcae93c74d4f971a5789565f3639f01c99a15da",
  "args": [
    "0x407210a67cDAe7Aa09E4426109329cd3E90aFe47",
    "0x9C466a232d7Ae4B0b0dAF63963a5CEb43749b040",
    "0x6Fcb97553D41516Cb228ac03FdC8B9a0a9df04A1"
  ],
  "numDeployments": 1,
  "solcInputHash": "5291204ed6eb54f43d66c370458707a4",
  "bytecode": "0x60e06040523480156200001157600080fd5b50604051620046f6380380620046f6833981016040819052620000349162000160565b806000620000416200013f565b600080546001600160a01b0319166001600160a01b0383169081178255604051929350917f8be0079c531659141344cd1fd0a4f28419497f9722a3daafe3b4186f6b6457e0908290a35060601b6001600160601b0319166080526001600160a01b038316620000cd5760405162461bcd60e51b8152600401620000c490620001a9565b60405180910390fd5b6001600160a01b038216620000f65760405162461bcd60e51b8152600401620000c4906200022c565b6001600160a01b0381166200011f5760405162461bcd60e51b8152600401620000c490620001ea565b506001600160601b0319606092831b811660a052911b1660c0526200026f565b3390565b80516001600160a01b03811681146200015b57600080fd5b919050565b60008060006060848603121562000175578283fd5b620001808462000143565b9250620001906020850162000143565b9150620001a06040850162000143565b90509250925092565b60208082526021908201527f4665654c6962726172793a20466163746f72792063616e6e6f742062652030786040820152600360fc1b606082015260800190565b60208082526022908201527f4665654c6962726172793a20456e64706f696e742063616e6e6f742062652030604082015261078360f41b606082015260800190565b60208082526023908201527f4665654c6962726172793a204c505374616b696e672063616e6e6f742062652060408201526203078360ec1b606082015260800190565b60805160601c60a05160601c60c05160601c61441a620002dc60003980611c6352806121e25250806118825280611cc9528061229e525080610a715280610d0a5280610e1b528061124a52806113dc5280611f57528061232452806129205280612e6c525061441a6000f3fe6080604052600436106103a55760003560e01c806380651ee2116101e7578063baf3292d1161010d578063e18bce50116100a0578063f100e6771161006f578063f100e677146109e2578063f2fde38b14610a0f578063f5ecbdbc14610a2f578063fc6834a114610a4f576103ac565b8063e18bce501461096d578063e91e9b6f1461098d578063ea8e7530146109a2578063eb8d72b7146109c2576103ac565b8063d16baeb9116100dc578063d16baeb914610918578063d616f0dd14610938578063d7f6bde31461055b578063df2a5b3b1461094d576103ac565b8063baf3292d146108a3578063bb05078d146108c3578063c45a0155146108e3578063cbed8b9c146108f8576103ac565b8063972883c411610185578063a810de6c11610154578063a810de6c14610839578063ad7bbfc91461084e578063b353aaa71461086e578063ba6afedf14610883576103ac565b8063972883c4146107cf5780639b19251a146107ef5780639bf1401c1461080f578063a149863514610824576103ac565b80638cfd8f5c116101c15780638cfd8f5c146107635780638da5cb5b14610783578063918f8674146107a5578063950c8a74146107ba576103ac565b806380651ee214610674578063886a9c501461059057806389ca925614610734576103ac565b80633dad0dd5116102cc57806358cbb8ed1161026a578063715018a611610239578063715018a6146106bc5780637533d788146106d15780637b35c260146106f15780637ba5c12f1461071f576103ac565b806358cbb8ed146106545780635e3f2727146106745780636548c4ac14610689578063676c0d77146106a9576103ac565b80634f6412d8116102a65780634f6412d8146105da578063518a9f9f146105fa578063528637031461060f5780635436ac1714610624576103ac565b80633dad0dd51461059057806342d65a8d146105a55780634e8f4fa8146105c5576103ac565b806313c6e3801161034457806323a443251161031357806323a443251461050e57806327274e851461052e5780632b3ec8c91461055b5780633d8b38f614610570576103ac565b806313c6e380146104975780631738fe38146104b75780631ab62430146104cc5780631e04cbf3146104f9576103ac565b806307e0db171161038057806307e0db17146104205780630b4501fd146104405780630d8e6e2c1461045557806310ddb13714610477576103ac565b80621d3567146103b1578063012a1c2d146103d3578063040d5835146103fe576103ac565b366103ac57005b600080fd5b3480156103bd57600080fd5b506103d16103cc366004613926565b610a6f565b005b3480156103df57600080fd5b506103e8610c95565b6040516103f59190614291565b60405180910390f35b34801561040a57600080fd5b50610413610ca1565b6040516103f591906142d7565b34801561042c57600080fd5b506103d161043b3660046138b7565b610ca6565b34801561044c57600080fd5b506103e8610d8d565b34801561046157600080fd5b5061046a610d98565b6040516103f59190613f41565b34801561048357600080fd5b506103d16104923660046138b7565b610db7565b3480156104a357600080fd5b506103e86104b2366004613b31565b610e83565b3480156104c357600080fd5b506103e8610e95565b3480156104d857600080fd5b506104ec6104e7366004613c58565b610ea0565b6040516103f5919061417c565b34801561050557600080fd5b506103e8610fb1565b34801561051a57600080fd5b506103d1610529366004613be7565b610fbd565b34801561053a57600080fd5b5061054e610549366004613be7565b61106a565b6040516103f59190613f19565b34801561056757600080fd5b506103e86110cc565b34801561057c57600080fd5b5061054e61058b3660046138d3565b6110d7565b34801561059c57600080fd5b506103e86111aa565b3480156105b157600080fd5b506103d16105c03660046138d3565b6111b6565b3480156105d157600080fd5b506103e86112cb565b3480156105e657600080fd5b506103e86105f5366004613b31565b6112d6565b34801561060657600080fd5b506103e861148b565b34801561061b57600080fd5b506103e8611496565b34801561063057600080fd5b5061064461063f366004613b31565b6114a1565b6040516103f59493929190613e9d565b34801561066057600080fd5b5061046a61066f3660046138b7565b6114d5565b34801561068057600080fd5b506103e8611570565b34801561069557600080fd5b506103d16106a4366004613be7565b61157a565b6103d16106b7366004613b31565b6115ee565b3480156106c857600080fd5b506103d16117b0565b3480156106dd57600080fd5b5061046a6106ec3660046138b7565b611814565b3480156106fd57600080fd5b5061071161070c366004613c2b565b61187b565b6040516103f59291906142ae565b34801561072b57600080fd5b506103e8611b38565b34801561074057600080fd5b5061075461074f366004613b31565b611b42565b6040516103f593929190613f24565b34801561076f57600080fd5b506103e861077e3660046139be565b611b95565b34801561078f57600080fd5b50610798611bb2565b6040516103f59190613e89565b3480156107b157600080fd5b506103e8611bc1565b3480156107c657600080fd5b50610798611bcd565b3480156107db57600080fd5b506103e86107ea366004613d80565b611bdc565b3480156107fb57600080fd5b5061054e61080a366004613772565b611c4c565b34801561081b57600080fd5b50610798611c61565b34801561083057600080fd5b506103e8611c85565b34801561084557600080fd5b506103e8611c90565b34801561085a57600080fd5b50610711610869366004613ca9565b611c9b565b34801561087a57600080fd5b50610798611f55565b34801561088f57600080fd5b506103d161089e366004613c2b565b611f79565b3480156108af57600080fd5b506103d16108be366004613772565b612058565b3480156108cf57600080fd5b506107116108de366004613d0f565b61210e565b3480156108ef57600080fd5b5061079861229c565b34801561090457600080fd5b506103d1610913366004613a7b565b6122c0565b34801561092457600080fd5b506103d16109333660046137aa565b6123f3565b34801561094457600080fd5b506103e8612480565b34801561095957600080fd5b506103d1610968366004613a3b565b61248a565b34801561097957600080fd5b5061054e610988366004613be7565b6125a2565b34801561099957600080fd5b506103e86125c2565b3480156109ae57600080fd5b506103d16109bd366004613b61565b6125cc565b3480156109ce57600080fd5b506103d16109dd3660046138d3565b612663565b3480156109ee57600080fd5b50610a026109fd366004613b31565b612755565b6040516103f59190613ed1565b348015610a1b57600080fd5b506103d1610a2a366004613772565b6127e2565b348015610a3b57600080fd5b5061046a610a4a3660046139eb565b6128e4565b348015610a5b57600080fd5b506103d1610a6a3660046138d3565b612a5e565b7f00000000000000000000000000000000000000000000000000000000000000006001600160a01b0316610aa1612ae4565b6001600160a01b031614610afc576040805162461bcd60e51b815260206004820152601e60248201527f4c7a4170703a20696e76616c696420656e64706f696e742063616c6c65720000604482015290519081900360640190fd5b61ffff8616600090815260016020818152604080842080548251600295821615610100026000190190911694909404601f810184900484028501840190925281845291830182828015610b905780601f10610b6557610100808354040283529160200191610b90565b820191906000526020600020905b815481529060010190602001808311610b7357829003601f168201915b50505050509050805186869050148015610bab575060008151115b8015610bdb5750808051906020012086866040518083838082843780830192505050925050506040518091039020145b610c165760405162461bcd60e51b81526004018080602001828103825260268152602001806143bf6026913960400191505060405180910390fd5b610c8c8787878080601f01602080910402602001604051908101604052809392919081815260200183838082843760009201919091525050604080516020601f8a018190048102820181019092528881528a935091508890889081908401838280828437600092019190915250612ae892505050565b50505050505050565b670dd280b9144a000081565b600881565b610cae612ae4565b6001600160a01b0316610cbf611bb2565b6001600160a01b031614610d08576040805162461bcd60e51b8152602060048201819052602482015260008051602061439f833981519152604482015290519081900360640190fd5b7f00000000000000000000000000000000000000000000000000000000000000006001600160a01b03166307e0db17826040518263ffffffff1660e01b8152600401808261ffff168152602001915050600060405180830381600087803b158015610d7257600080fd5b505af1158015610d86573d6000803e3d6000fd5b5050505050565b6603328b944c400081565b6040805180820190915260058152640352e302e360dc1b602082015290565b610dbf612ae4565b6001600160a01b0316610dd0611bb2565b6001600160a01b031614610e19576040805162461bcd60e51b8152602060048201819052602482015260008051602061439f833981519152604482015290519081900360640190fd5b7f00000000000000000000000000000000000000000000000000000000000000006001600160a01b03166310ddb137826040518263ffffffff1660e01b8152600401808261ffff168152602001915050600060405180830381600087803b158015610d7257600080fd5b60056020526000908152604090205481565b66354a6ba7a1800081565b610ea8613587565b8585808214610efa57600260008381526006602052604090206003015460ff166002811115610ed357fe5b1415610efa5760405162461bcd60e51b8152600401610ef19061410e565b60405180910390fd5b6001600160a01b03851660009081526004602052604090205460ff16610f2189868361187b565b60808601526040850181905215156000610f3f8b8b8b8a8787611c9b565b60208801919091529050600080610f5b8d8d8d8c878a8a61210e565b60808a01519193509150610f6f9083612b16565b6080890152606088018190526000610f898e8e8c89611bdc565b60808a0151909150610f9b9082612b16565b60808a0152505050505050505095945050505050565b6706f05b59d3b2000081565b610fc5612ae4565b6001600160a01b0316610fd6611bb2565b6001600160a01b03161461101f576040805162461bcd60e51b8152602060048201819052602482015260008051602061439f833981519152604482015290519081900360640190fd5b6000811161103f5760405162461bcd60e51b8152600401610ef190614093565b600091825260066020526040909120600181018290556002810191909155600301805460ff19169055565b60008183141561107c575060016110c6565b8183106110a557600082815260076020908152604080832086845290915290205460ff166110c3565b600083815260076020908152604080832085845290915290205460ff165b90505b92915050565b66038d7ea4c6800081565b61ffff8316600090815260016020818152604080842080548251600295821615610100026000190190911694909404601f81018490048402850184019092528184528493929091908301828280156111705780601f1061114557610100808354040283529160200191611170565b820191906000526020600020905b81548152906001019060200180831161115357829003601f168201915b50505050509050838360405180838380828437808301925050509250505060405180910390208180519060200120149150505b9392505050565b670853a0d2313c000081565b6111be612ae4565b6001600160a01b03166111cf611bb2565b6001600160a01b031614611218576040805162461bcd60e51b8152602060048201819052602482015260008051602061439f833981519152604482015290519081900360640190fd5b604080516342d65a8d60e01b815261ffff85166004820190815260248201928352604482018490526001600160a01b037f000000000000000000000000000000000000000000000000000000000000000016926342d65a8d92879287928792606401848480828437600081840152601f19601f820116905080830192505050945050505050600060405180830381600087803b1580156112b757600080fd5b505af1158015610c8c573d6000803e3d6000fd5b6608e1bc9bf0400081565b600081815260066020908152604080832060040180548251818502810185019093528083528493849392919083018282801561135957602002820191906000526020600020906000905b82829054906101000a900461ffff1661ffff16815260200190600201906020826001010492830192600103820291508084116113205790505b50505050509050600084600080604051602001611378939291906142bc565b604051602081830303815290604052905060005b825181101561147f5760008382815181106113a357fe5b60209081029190910181015161ffff8116600090815260089092526040808320905163040a7bb160e41b81529193506001600160a01b037f000000000000000000000000000000000000000000000000000000000000000016916340a7bb109161141791869130918a9188916004016141c0565b604080518083038186803b15801561142e57600080fd5b505afa158015611442573d6000803e3d6000fd5b505050506040513d601f19601f820116820180604052508101906114669190613c08565b5090506114738682612b16565b9550505060010161138c565b5091925050505b919050565b66b1a2bc2ec5000081565b6601c6bf5263400081565b60066020526000908152604090208054600182015460028301546003909301546001600160a01b0390921692909160ff1684565b60086020908152600091825260409182902080548351601f6002600019610100600186161502019093169290920491820184900484028101840190945280845290918301828280156115685780601f1061153d57610100808354040283529160200191611568565b820191906000526020600020905b81548152906001019060200180831161154b57829003601f168201915b505050505081565b655af3107a400081565b611582612ae4565b6001600160a01b0316611593611bb2565b6001600160a01b0316146115dc576040805162461bcd60e51b8152602060048201819052602482015260008051602061439f833981519152604482015290519081900360640190fd5b60009182526005602052604090912055565b6000818152600660205260408120908061160783612b70565b91509150611616848383612cf4565b60008360040180548060200260200160405190810160405280929190818152602001828054801561168e57602002820191906000526020600020906000905b82829054906101000a900461ffff1661ffff16815260200190600201906020826001010492830192600103820291508084116116555790505b5050505050905060008584846040516020016116ac939291906142bc565b604051602081830303815290604052905060005b8251811015610c8c5760008382815181106116d757fe5b602002602001015190506000600185510383146116f457306116f6565b335b61ffff831660009081526008602090815260408083208054825160026001831615610100026000190190921691909104601f81018590048502820185019093528281529495506117a69487948a9488949193919083018282801561179b5780601f106117705761010080835404028352916020019161179b565b820191906000526020600020905b81548152906001019060200180831161177e57829003601f168201915b505050505047612d8e565b50506001016116c0565b6117b8612ae4565b6001600160a01b03166117c9611bb2565b6001600160a01b031614611812576040805162461bcd60e51b8152602060048201819052602482015260008051602061439f833981519152604482015290519081900360640190fd5b565b60016020818152600092835260409283902080548451600294821615610100026000190190911693909304601f81018390048302840183019094528383529192908301828280156115685780601f1061153d57610100808354040283529160200191611568565b60008060007f00000000000000000000000000000000000000000000000000000000000000006001600160a01b031663068bcd8d876040518263ffffffff1660e01b81526004016118cc9190614291565b60206040518083038186803b1580156118e457600080fd5b505afa1580156118f8573d6000803e3d6000fd5b505050506040513d601f19601f8201168201806040525081019061191c919061378e565b9050600061192982613050565b90506000826001600160a01b03166315770f926040518163ffffffff1660e01b815260040160206040518083038186803b15801561196657600080fd5b505afa15801561197a573d6000803e3d6000fd5b505050506040513d601f19601f8201168201806040525081019061199e9190613b49565b90506000836001600160a01b0316639bb811196040518163ffffffff1660e01b815260040160206040518083038186803b1580156119db57600080fd5b505afa1580156119ef573d6000803e3d6000fd5b505050506040513d601f19601f82011682018060405250810190611a139190613b49565b9050828211611a2c576000809550955050505050611b30565b6000611a3883856131b2565b90506000611a5882611a5285670de0b6b3a764000061320f565b90613268565b9050660221b262dd80008111158015611a6f575088155b15611a865760008097509750505050505050611b30565b611a9c670de0b6b3a7640000611a528c8461320f565b9750828811611aab5787611aad565b825b97508815611ac5575060009550611b30945050505050565b6000611add8b611a528b670de0b6b3a764000061320f565b90506608e1bc9bf04000811115611b23576000611b0d670de0b6b3a7640000611a528e6608e1bc9bf0400061320f565b9050611b198a826131b2565b9099509750611b28565b600097505b505050505050505b935093915050565b651b48eb57e00081565b6000818152600660205260408120819081908180611b5f83612b70565b915091506000611b708484846132cf565b9050600081611b83578460020154611b85565b835b9199919850919650945050505050565b600260209081526000928352604080842090915290825290205481565b6000546001600160a01b031690565b670de0b6b3a764000081565b6003546001600160a01b031681565b600083851480611be95750815b15611bf657506000611c44565b6000611c0186613388565b90506000611c0e86613388565b9050808210611c2257600092505050611c44565b6000611c3282611a52888661320f565b9050611c3e86826131b2565b93505050505b949350505050565b60046020526000908152604090205460ff1681565b7f000000000000000000000000000000000000000000000000000000000000000081565b660221b262dd800081565b660e35fa931a000081565b6000808315611caf57506000905080611f4a565b60405163068bcd8d60e01b81526000906001600160a01b037f0000000000000000000000000000000000000000000000000000000000000000169063068bcd8d90611cfe908c90600401614291565b60206040518083038186803b158015611d1657600080fd5b505afa158015611d2a573d6000803e3d6000fd5b505050506040513d601f19601f82011682018060405250810190611d4e919061378e565b6001600160a01b031663159f6add888a6040518363ffffffff1660e01b8152600401611d7b92919061427d565b6101006040518083038186803b158015611d9457600080fd5b505afa158015611da8573d6000803e3d6000fd5b505050506040513d601f19601f82011682018060405250810190611dcc9190613820565b60e081015160808201519192509087811015611dfa5760405162461bcd60e51b8152600401610ef1906140d7565b6000611e06828a6131b2565b90506000611e28670de0b6b3a7640000611a5286670853a0d2313c000061320f565b90506000611e49670de0b6b3a7640000611a528766b1a2bc2ec5000061320f565b90506000808c848610611e8257611e72670de0b6b3a7640000611a5283651b48eb57e00061320f565b92508b611e7d578291505b611f3d565b838610611eba576000858810611e985785611e9a565b875b9050611eb2660e35fa931a000060008888858c6133c2565b935050611f3d565b838710611f17576000858810611ed05785611ed2565b875b9050611ef4611eed660e35fa931a000060008989868b6133c2565b8590612b16565b9350611eb2611eed670dd280b9144a0000660e35fa931a00008860008a8d6133c2565b86611f39611eed670dd280b9144a0000660e35fa931a0000886000868d6133c2565b9350505b5090985096505050505050505b965096945050505050565b7f000000000000000000000000000000000000000000000000000000000000000081565b611f81612ae4565b6001600160a01b0316611f92611bb2565b6001600160a01b031614611fdb576040805162461bcd60e51b8152602060048201819052602482015260008051602061439f833981519152604482015290519081900360640190fd5b81831415611ffb5760405162461bcd60e51b8152600401610ef190613f54565b8183101561202d5760008381526007602090815260408083208584529091529020805460ff1916821515179055612053565b60008281526007602090815260408083208684529091529020805460ff19168215151790555b505050565b612060612ae4565b6001600160a01b0316612071611bb2565b6001600160a01b0316146120ba576040805162461bcd60e51b8152602060048201819052602482015260008051602061439f833981519152604482015290519081900360640190fd5b600380546001600160a01b0383166001600160a01b0319909116811790915560408051918252517f5db758e995a17ec1ad84bdef7e8c3293a0bd6179bcce400dff5d4c3d87db726b9181900360200190a150565b600080831561212257506000905080612290565b600083612152576121338a8a61106a565b612144576603328b944c400061214d565b6601c6bf526340005b61215a565b6596f9e30860005b905060008461216f57655af3107a4000612177565b651eec3dec20005b9050878b600061219d8a612197670de0b6b3a7640000611a52878a61320f565b906131b2565b905060006121b7670de0b6b3a7640000611a52868861320f565b600084815260056020526040808220549051631526fe2760e01b815292935090916001600160a01b037f00000000000000000000000000000000000000000000000000000000000000001691631526fe27916122169190600401614291565b60806040518083038186803b15801561222e57600080fd5b505afa158015612242573d6000803e3d6000fd5b505050506040513d601f19601f8201168201806040525081019061226691906137e2565b505091505060008111156122855761227e8383612b16565b9250600091505b509096509450505050505b97509795505050505050565b7f000000000000000000000000000000000000000000000000000000000000000081565b6122c8612ae4565b6001600160a01b03166122d9611bb2565b6001600160a01b031614612322576040805162461bcd60e51b8152602060048201819052602482015260008051602061439f833981519152604482015290519081900360640190fd5b7f00000000000000000000000000000000000000000000000000000000000000006001600160a01b031663cbed8b9c86868686866040518663ffffffff1660e01b8152600401808661ffff1681526020018561ffff168152602001848152602001806020018281038252848482818152602001925080828437600081840152601f19601f8201169050808301925050509650505050505050600060405180830381600087803b1580156123d457600080fd5b505af11580156123e8573d6000803e3d6000fd5b505050505050505050565b6123fb612ae4565b6001600160a01b031661240c611bb2565b6001600160a01b031614612455576040805162461bcd60e51b8152602060048201819052602482015260008051602061439f833981519152604482015290519081900360640190fd5b6001600160a01b03919091166000908152600460205260409020805460ff1916911515919091179055565b6596f9e308600081565b612492612ae4565b6001600160a01b03166124a3611bb2565b6001600160a01b0316146124ec576040805162461bcd60e51b8152602060048201819052602482015260008051602061439f833981519152604482015290519081900360640190fd5b60008111612539576040805162461bcd60e51b81526020600482015260156024820152744c7a4170703a20696e76616c6964206d696e47617360581b604482015290519081900360640190fd5b61ffff808416600081815260026020908152604080832094871680845294825291829020859055815192835282019290925280820183905290517f9d5c7c0b934da8fefa9c7760c98383778a12dfbfc0c3b3106518f43fb9508ac09181900360600190a1505050565b600760209081526000928352604080842090915290825290205460ff1681565b651eec3dec200081565b6125d4612ae4565b6001600160a01b03166125e5611bb2565b6001600160a01b03161461262e576040805162461bcd60e51b8152602060048201819052602482015260008051602061439f833981519152604482015290519081900360640190fd5b600084815260066020526040902080546001600160a01b0319166001600160a01b038516178155610d869060040183836135bd565b61266b612ae4565b6001600160a01b031661267c611bb2565b6001600160a01b0316146126c5576040805162461bcd60e51b8152602060048201819052602482015260008051602061439f833981519152604482015290519081900360640190fd5b61ffff831660009081526001602052604090206126e390838361366a565b507ffa41487ad5d6728f0b19276fa1eddc16558578f5109fc39d2dc33c3230470dab838383604051808461ffff168152602001806020018281038252848482818152602001925080828437600083820152604051601f909101601f1916909201829003965090945050505050a1505050565b6000818152600660209081526040918290206004018054835181840281018401909452808452606093928301828280156127d657602002820191906000526020600020906000905b82829054906101000a900461ffff1661ffff168152602001906002019060208260010104928301926001038202915080841161279d5790505b50505050509050919050565b6127ea612ae4565b6001600160a01b03166127fb611bb2565b6001600160a01b031614612844576040805162461bcd60e51b8152602060048201819052602482015260008051602061439f833981519152604482015290519081900360640190fd5b6001600160a01b0381166128895760405162461bcd60e51b81526004018080602001828103825260268152602001806143286026913960400191505060405180910390fd5b600080546040516001600160a01b03808516939216917f8be0079c531659141344cd1fd0a4f28419497f9722a3daafe3b4186f6b6457e091a3600080546001600160a01b0319166001600160a01b0392909216919091179055565b60408051633d7b2f6f60e21b815261ffff8087166004830152851660248201523060448201526064810183905290516060916001600160a01b037f0000000000000000000000000000000000000000000000000000000000000000169163f5ecbdbc91608480820192600092909190829003018186803b15801561296757600080fd5b505afa15801561297b573d6000803e3d6000fd5b505050506040513d6000823e601f3d908101601f1916820160405260208110156129a457600080fd5b81019080805160405193929190846401000000008211156129c457600080fd5b9083019060208201858111156129d957600080fd5b82516401000000008111828201881017156129f357600080fd5b82525081516020918201929091019080838360005b83811015612a20578181015183820152602001612a08565b50505050905090810190601f168015612a4d5780820380516001836020036101000a031916815260200191505b506040525050509050949350505050565b612a66612ae4565b6001600160a01b0316612a77611bb2565b6001600160a01b031614612ac0576040805162461bcd60e51b8152602060048201819052602482015260008051602061439f833981519152604482015290519081900360640190fd5b61ffff83166000908152600860205260409020612ade90838361366a565b50505050565b3390565b600080600083806020019051810190612b019190613aec565b9250925061ffff169250610c8c838383612cf4565b6000828201838110156110c3576040805162461bcd60e51b815260206004820152601b60248201527f536166654d6174683a206164646974696f6e206f766572666c6f770000000000604482015290519081900360640190fd5b805460009081906001600160a01b031680612b9d5760405162461bcd60e51b8152600401610ef19061405c565b6000816001600160a01b031663313ce5676040518163ffffffff1660e01b815260040160206040518083038186803b158015612bd857600080fd5b505afa158015612bec573d6000803e3d6000fd5b505050506040513d601f19601f82011682018060405250810190612c109190613e0f565b90506000826001600160a01b031663feaf968c6040518163ffffffff1660e01b815260040160a06040518083038186803b158015612c4d57600080fd5b505afa158015612c61573d6000803e3d6000fd5b505050506040513d601f19601f82011682018060405250810190612c859190613dc0565b5050509150506000811215612cac5760405162461bcd60e51b8152600401610ef190614025565b6000612cb88284613478565b90506000612cc5886134c0565b9050808211612cd45781612cd6565b805b91506000612ce483836134e2565b9297509195505050505050915091565b60008381526006602052604090206002808201849055600382015460ff1690811115612d1c57fe5b826002811115612d2857fe5b14612d4e5760038101805483919060ff19166001836002811115612d4857fe5b02179055505b837f5f4a9a1b73bee700ca1fb203bb004bcc0a7eca48af3f147b24dcf5bf4bf3c00b8484604051612d8092919061429a565b60405180910390a250505050565b61ffff8616600090815260016020818152604080842080548251600295821615610100026000190190911694909404601f810184900484028501840190925281845291830182828015612e225780601f10612df757610100808354040283529160200191612e22565b820191906000526020600020905b815481529060010190602001808311612e0557829003601f168201915b50505050509050805160001415612e6a5760405162461bcd60e51b815260040180806020018281038252603081526020018061434e6030913960400191505060405180910390fd5b7f00000000000000000000000000000000000000000000000000000000000000006001600160a01b031663c58031008389848a8a8a8a6040518863ffffffff1660e01b8152600401808761ffff1681526020018060200180602001866001600160a01b03168152602001856001600160a01b0316815260200180602001848103845289818151815260200191508051906020019080838360005b83811015612f1c578181015183820152602001612f04565b50505050905090810190601f168015612f495780820380516001836020036101000a031916815260200191505b5084810383528851815288516020918201918a019080838360005b83811015612f7c578181015183820152602001612f64565b50505050905090810190601f168015612fa95780820380516001836020036101000a031916815260200191505b50848103825285518152855160209182019187019080838360005b83811015612fdc578181015183820152602001612fc4565b50505050905090810190601f1680156130095780820380516001836020036101000a031916815260200191505b5099505050505050505050506000604051808303818588803b15801561302e57600080fd5b505af1158015613042573d6000803e3d6000fd5b505050505050505050505050565b60006110c6826001600160a01b031663feb56b156040518163ffffffff1660e01b815260040160206040518083038186803b15801561308e57600080fd5b505afa1580156130a2573d6000803e3d6000fd5b505050506040513d601f19601f820116820180604052508101906130c69190613b49565b836001600160a01b031663fc0c546a6040518163ffffffff1660e01b815260040160206040518083038186803b1580156130ff57600080fd5b505afa158015613113573d6000803e3d6000fd5b505050506040513d601f19601f82011682018060405250810190613137919061378e565b6001600160a01b03166370a08231856040518263ffffffff1660e01b81526004016131629190613e89565b60206040518083038186803b15801561317a57600080fd5b505afa15801561318e573d6000803e3d6000fd5b505050506040513d601f19601f82011682018060405250810190611a529190613b49565b600082821115613209576040805162461bcd60e51b815260206004820152601e60248201527f536166654d6174683a207375627472616374696f6e206f766572666c6f770000604482015290519081900360640190fd5b50900390565b60008261321e575060006110c6565b8282028284828161322b57fe5b04146110c35760405162461bcd60e51b815260040180806020018281038252602181526020018061437e6021913960400191505060405180910390fd5b60008082116132be576040805162461bcd60e51b815260206004820152601a60248201527f536166654d6174683a206469766973696f6e206279207a65726f000000000000604482015290519081900360640190fd5b8183816132c757fe5b049392505050565b600383015460009060ff1660028111156132e557fe5b8260028111156132f157fe5b146132fe575060016111a3565b6000600183600281111561330e57fe5b146133205766038d7ea4c68000613328565b655af3107a40005b600286015490915060008186116133485761334382876131b2565b613352565b61335286836131b2565b90508115613378578261337183611a5284670de0b6b3a764000061320f565b101561337d565b600081115b979650505050505050565b600081815260066020526040812081600382015460ff1660028111156133aa57fe5b146133b95780600201546111a3565b6111a3816134c0565b60008382101580156133d45750848311155b6133f05760405162461bcd60e51b8152600401610ef190613fa7565b60006133fc86866131b2565b905060006134228861341c84611a528d6134168d8c6131b2565b9061320f565b90612b16565b9050600061343c8961341c85611a528e6134168e8c6131b2565b9050600061344a87876131b2565b9050613469670de0b6b3a7640000611a52600281856134168989612b16565b9b9a5050505050505050505050565b600060ff82166008141561348d5750816110c6565b600061349a83600861353b565b9050600860ff8416106134b6576134b18482613268565b611c44565b611c44848261320f565b6001810154806114865760405162461bcd60e51b8152600401610ef190614145565b6000806134ff83611a52670de0b6b3a764000061341683896131b2565b905066038d7ea4c6800081116135195760009150506110c6565b66354a6ba7a1800081106135315760029150506110c6565b60019150506110c6565b6000808260ff168460ff161161355357838303613557565b8284035b60ff169050601481111561357d5760405162461bcd60e51b8152600401610ef190613fdc565b600a0a9392505050565b6040518060c001604052806000815260200160008152602001600081526020016000815260200160008152602001600081525090565b82805482825590600052602060002090600f0160109004810192821561365a5791602002820160005b8382111561362a57833561ffff1683826101000a81548161ffff021916908361ffff16021790555092602001926002016020816001010492830192600103026135e6565b80156136585782816101000a81549061ffff021916905560020160208160010104928301926001030261362a565b505b506136669291506136e6565b5090565b828054600181600116156101000203166002900490600052602060002090601f0160209004810192826136a0576000855561365a565b82601f106136b95782800160ff1982351617855561365a565b8280016001018555821561365a579182015b8281111561365a5782358255916020019190600101906136cb565b5b8082111561366657600081556001016136e7565b805161148681614309565b60008083601f840112613717578182fd5b50813567ffffffffffffffff81111561372e578182fd5b60208301915083602082850101111561374657600080fd5b9250929050565b805161148681614317565b805169ffffffffffffffffffff8116811461148657600080fd5b600060208284031215613783578081fd5b81356110c3816142f1565b60006020828403121561379f578081fd5b81516110c3816142f1565b600080604083850312156137bc578081fd5b82356137c7816142f1565b915060208301356137d781614309565b809150509250929050565b600080600080608085870312156137f7578182fd5b8451613802816142f1565b60208601516040870151606090970151919890975090945092505050565b6000610100808385031215613833578182fd5b6040519081019067ffffffffffffffff8211818310171561385057fe5b8160405261385d846136fb565b815261386b6020850161374d565b602082015260408401516040820152606084015160608201526080840151608082015260a084015160a082015260c084015160c082015260e084015160e0820152809250505092915050565b6000602082840312156138c8578081fd5b81356110c381614317565b6000806000604084860312156138e7578283fd5b83356138f281614317565b9250602084013567ffffffffffffffff81111561390d578283fd5b61391986828701613706565b9497909650939450505050565b6000806000806000806080878903121561393e578182fd5b863561394981614317565b9550602087013567ffffffffffffffff80821115613965578384fd5b6139718a838b01613706565b909750955060408901359150808216821461398a578384fd5b9093506060880135908082111561399f578384fd5b506139ac89828a01613706565b979a9699509497509295939492505050565b600080604083850312156139d0578182fd5b82356139db81614317565b915060208301356137d781614317565b60008060008060808587031215613a00578182fd5b8435613a0b81614317565b93506020850135613a1b81614317565b92506040850135613a2b816142f1565b9396929550929360600135925050565b600080600060608486031215613a4f578081fd5b8335613a5a81614317565b92506020840135613a6a81614317565b929592945050506040919091013590565b600080600080600060808688031215613a92578283fd5b8535613a9d81614317565b94506020860135613aad81614317565b935060408601359250606086013567ffffffffffffffff811115613acf578182fd5b613adb88828901613706565b969995985093965092949392505050565b600080600060608486031215613b00578081fd5b8351613b0b81614317565b60208501516040860151919450925060038110613b26578182fd5b809150509250925092565b600060208284031215613b42578081fd5b5035919050565b600060208284031215613b5a578081fd5b5051919050565b60008060008060608587031215613b76578182fd5b843593506020850135613b88816142f1565b9250604085013567ffffffffffffffff80821115613ba4578384fd5b818701915087601f830112613bb7578384fd5b813581811115613bc5578485fd5b8860208083028501011115613bd8578485fd5b95989497505060200194505050565b60008060408385031215613bf9578182fd5b50508035926020909101359150565b60008060408385031215613c1a578182fd5b505080516020909101519092909150565b600080600060608486031215613c3f578081fd5b83359250602084013591506040840135613b2681614309565b600080600080600060a08688031215613c6f578283fd5b85359450602086013593506040860135613c8881614317565b92506060860135613c98816142f1565b949793965091946080013592915050565b60008060008060008060c08789031215613cc1578384fd5b86359550602087013594506040870135613cda81614317565b9350606087013592506080870135613cf181614309565b915060a0870135613d0181614309565b809150509295509295509295565b600080600080600080600060e0888a031215613d29578485fd5b87359650602088013595506040880135613d4281614317565b9450606088013593506080880135925060a0880135613d6081614309565b915060c0880135613d7081614309565b8091505092959891949750929550565b60008060008060808587031215613d95578182fd5b8435935060208501359250604085013591506060850135613db581614309565b939692955090935050565b600080600080600060a08688031215613dd7578283fd5b613de086613758565b9450602086015193506040860151925060608601519150613e0360808701613758565b90509295509295909350565b600060208284031215613e20578081fd5b815160ff811681146110c3578182fd5b60008151808452815b81811015613e5557602081850181015186830182015201613e39565b81811115613e665782602083870101525b50601f01601f19169290920160200192915050565b60038110613e8557fe5b9052565b6001600160a01b0391909116815260200190565b6001600160a01b0385168152602081018490526040810183905260808101613ec86060830184613e7b565b95945050505050565b6020808252825182820181905260009190848201906040850190845b81811015613f0d57835161ffff1683529284019291840191600101613eed565b50909695505050505050565b901515815260200190565b83151581526020810183905260608101611c446040830184613e7b565b6000602082526110c36020830184613e30565b60208082526033908201527f4665654c6962726172793a205f706f6f6c4964312063616e6e6f74206265207460408201527234329039b0b6b29030b9902fb837b7b624b21960691b606082015260800190565b6020808252818101527f4665654c6962726172793a2062616c616e6365206f7574206f6620626f756e64604082015260600190565b60208082526029908201527f4665654c6962726172793a2064696666206f6620646563696d616c7320697320604082015268746f6f206c6172676560b81b606082015260800190565b6020808252601d908201527f4665654c6962726172793a207072696365206973206e65676174697665000000604082015260600190565b6020808252601e908201527f4665654c6962726172793a2070726963652066656564206e6f74207365740000604082015260600190565b60208082526024908201527f4665654c6962726172793a205f62617365507269636553442063616e6e6f74206040820152630626520360e41b606082015260800190565b6020808252601e908201527f4665654c6962726172793a206e6f7420656e6f7567682062616c616e63650000604082015260600190565b6020808252601c908201527f4665654c6962726172793a205f737263506f6f6c496420646570656700000000604082015260600190565b6020808252601e908201527f4665654c6962726172793a2062617365207072696365206e6f74207365740000604082015260600190565b600060c082019050825182526020830151602083015260408301516040830152606083015160608301526080830151608083015260a083015160a083015292915050565b600061ffff87168252602060018060a01b0387168184015260a060408401526141ec60a0840187613e30565b8515156060850152838103608085015282855460018082166000811461421957600181146142365761426c565b60028304607f16855260ff1983168686015260408501935061426c565b600283048086526142468a6142e5565b885b828110156142635781548882018a0152908401908801614248565b87018801955050505b50919b9a5050505050505050505050565b61ffff929092168252602082015260400190565b90815260200190565b828152604081016111a36020830184613e7b565b918252602082015260400190565b8381526020810183905260608101611c446040830184613e7b565b60ff91909116815260200190565b60009081526020902090565b6001600160a01b038116811461430657600080fd5b50565b801515811461430657600080fd5b61ffff8116811461430657600080fdfe4f776e61626c653a206e6577206f776e657220697320746865207a65726f20616464726573734c7a4170703a2064657374696e6174696f6e20636861696e206973206e6f742061207472757374656420736f75726365536166654d6174683a206d756c7469706c69636174696f6e206f766572666c6f774f776e61626c653a2063616c6c6572206973206e6f7420746865206f776e65724c7a4170703a20696e76616c696420736f757263652073656e64696e6720636f6e7472616374a26469706673582212208ba946b005db19eb20a5d8ec826d600baf541876a1adc71de4139b85fe745bb064736f6c63430007060033",
  "devdoc": {
    "kind": "dev",
    "methods": {
      "owner()": {
        "details": "Returns the address of the current owner."
      },
      "renounceOwnership()": {
        "details": "Leaves the contract without owner. It will not be possible to call `onlyOwner` functions anymore. Can only be called by the current owner. NOTE: Renouncing ownership will leave the contract without an owner, thereby removing any functionality that is only available to the owner."
      },
      "transferOwnership(address)": {
        "details": "Transfers ownership of the contract to a new account (`newOwner`). Can only be called by the current owner."
      }
    },
    "version": 1
  },
  "userdoc": {
    "kind": "user",
    "methods": {},
    "version": 1
  },
  "storageLayout": {
    "storage": [
      {
        "astId": 197,
        "contract": "contracts/libraries/StargateFeeLibraryV05.sol:StargateFeeLibraryV05",
        "label": "_owner",
        "offset": 0,
        "slot": "0",
        "type": "t_address"
      },
      {
        "astId": 17016,
        "contract": "contracts/libraries/StargateFeeLibraryV05.sol:StargateFeeLibraryV05",
        "label": "trustedRemoteLookup",
        "offset": 0,
        "slot": "1",
        "type": "t_mapping(t_uint16,t_bytes_storage)"
      },
      {
        "astId": 17022,
        "contract": "contracts/libraries/StargateFeeLibraryV05.sol:StargateFeeLibraryV05",
        "label": "minDstGasLookup",
        "offset": 0,
        "slot": "2",
        "type": "t_mapping(t_uint16,t_mapping(t_uint16,t_uint256))"
      },
      {
        "astId": 17024,
        "contract": "contracts/libraries/StargateFeeLibraryV05.sol:StargateFeeLibraryV05",
        "label": "precrime",
        "offset": 0,
        "slot": "3",
        "type": "t_address"
      },
      {
        "astId": 15289,
        "contract": "contracts/libraries/StargateFeeLibraryV05.sol:StargateFeeLibraryV05",
        "label": "whitelist",
        "offset": 0,
        "slot": "4",
        "type": "t_mapping(t_address,t_bool)"
      },
      {
        "astId": 15293,
        "contract": "contracts/libraries/StargateFeeLibraryV05.sol:StargateFeeLibraryV05",
        "label": "poolIdToLpId",
        "offset": 0,
        "slot": "5",
        "type": "t_mapping(t_uint256,t_uint256)"
      },
      {
        "astId": 15301,
        "contract": "contracts/libraries/StargateFeeLibraryV05.sol:StargateFeeLibraryV05",
        "label": "poolIdToPrice",
        "offset": 0,
        "slot": "6",
        "type": "t_mapping(t_uint256,t_struct(Price)15327_storage)"
      },
      {
        "astId": 15307,
        "contract": "contracts/libraries/StargateFeeLibraryV05.sol:StargateFeeLibraryV05",
        "label": "sameToken",
        "offset": 0,
        "slot": "7",
        "type": "t_mapping(t_uint256,t_mapping(t_uint256,t_bool))"
      },
      {
        "astId": 15311,
        "contract": "contracts/libraries/StargateFeeLibraryV05.sol:StargateFeeLibraryV05",
        "label": "defaultAdapterParams",
        "offset": 0,
        "slot": "8",
        "type": "t_mapping(t_uint16,t_bytes_storage)"
      }
    ],
    "types": {
      "t_address": {
        "encoding": "inplace",
        "label": "address",
        "numberOfBytes": "20"
      },
      "t_array(t_uint16)dyn_storage": {
        "base": "t_uint16",
        "encoding": "dynamic_array",
        "label": "uint16[]",
        "numberOfBytes": "32"
      },
      "t_bool": {
        "encoding": "inplace",
        "label": "bool",
        "numberOfBytes": "1"
      },
      "t_bytes_storage": {
        "encoding": "bytes",
        "label": "bytes",
        "numberOfBytes": "32"
      },
      "t_enum(PriceDeviationState)15315": {
        "encoding": "inplace",
        "label": "enum StargateFeeLibraryV05.PriceDeviationState",
        "numberOfBytes": "1"
      },
      "t_mapping(t_address,t_bool)": {
        "encoding": "mapping",
        "key": "t_address",
        "label": "mapping(address => bool)",
        "numberOfBytes": "32",
        "value": "t_bool"
      },
      "t_mapping(t_uint16,t_bytes_storage)": {
        "encoding": "mapping",
        "key": "t_uint16",
        "label": "mapping(uint16 => bytes)",
        "numberOfBytes": "32",
        "value": "t_bytes_storage"
      },
      "t_mapping(t_uint16,t_mapping(t_uint16,t_uint256))": {
        "encoding": "mapping",
        "key": "t_uint16",
        "label": "mapping(uint16 => mapping(uint16 => uint256))",
        "numberOfBytes": "32",
        "value": "t_mapping(t_uint16,t_uint256)"
      },
      "t_mapping(t_uint16,t_uint256)": {
        "encoding": "mapping",
        "key": "t_uint16",
        "label": "mapping(uint16 => uint256)",
        "numberOfBytes": "32",
        "value": "t_uint256"
      },
      "t_mapping(t_uint256,t_bool)": {
        "encoding": "mapping",
        "key": "t_uint256",
        "label": "mapping(uint256 => bool)",
        "numberOfBytes": "32",
        "value": "t_bool"
      },
      "t_mapping(t_uint256,t_mapping(t_uint256,t_bool))": {
        "encoding": "mapping",
        "key": "t_uint256",
        "label": "mapping(uint256 => mapping(uint256 => bool))",
        "numberOfBytes": "32",
        "value": "t_mapping(t_uint256,t_bool)"
      },
      "t_mapping(t_uint256,t_struct(Price)15327_storage)": {
        "encoding": "mapping",
        "key": "t_uint256",
        "label": "mapping(uint256 => struct StargateFeeLibraryV05.Price)",
        "numberOfBytes": "32",
        "value": "t_struct(Price)15327_storage"
      },
      "t_mapping(t_uint256,t_uint256)": {
        "encoding": "mapping",
        "key": "t_uint256",
        "label": "mapping(uint256 => uint256)",
        "numberOfBytes": "32",
        "value": "t_uint256"
      },
      "t_struct(Price)15327_storage": {
        "encoding": "inplace",
        "label": "struct StargateFeeLibraryV05.Price",
        "members": [
          {
            "astId": 15317,
            "contract": "contracts/libraries/StargateFeeLibraryV05.sol:StargateFeeLibraryV05",
            "label": "priceFeedAddress",
            "offset": 0,
            "slot": "0",
            "type": "t_address"
          },
          {
            "astId": 15319,
            "contract": "contracts/libraries/StargateFeeLibraryV05.sol:StargateFeeLibraryV05",
            "label": "basePriceSD",
            "offset": 0,
            "slot": "1",
            "type": "t_uint256"
          },
          {
            "astId": 15321,
            "contract": "contracts/libraries/StargateFeeLibraryV05.sol:StargateFeeLibraryV05",
            "label": "currentPriceSD",
            "offset": 0,
            "slot": "2",
            "type": "t_uint256"
          },
          {
            "astId": 15323,
            "contract": "contracts/libraries/StargateFeeLibraryV05.sol:StargateFeeLibraryV05",
            "label": "state",
            "offset": 0,
            "slot": "3",
            "type": "t_enum(PriceDeviationState)15315"
          },
          {
            "astId": 15326,
            "contract": "contracts/libraries/StargateFeeLibraryV05.sol:StargateFeeLibraryV05",
            "label": "remoteChainIds",
            "offset": 0,
            "slot": "4",
            "type": "t_array(t_uint16)dyn_storage"
          }
        ],
        "numberOfBytes": "160"
      },
      "t_uint16": {
        "encoding": "inplace",
        "label": "uint16",
        "numberOfBytes": "2"
      },
      "t_uint256": {
        "encoding": "inplace",
        "label": "uint256",
        "numberOfBytes": "32"
      }
    }
  }
}