{
  "address": "0x76ca03a67C049477FfB09694dFeF00416dB69746",
  "abi": [
    {
      "inputs": [
        {
          "internalType": "address payable",
          "name": "_omniCounter",
          "type": "address"
        }
      ],
      "stateMutability": "nonpayable",
      "type": "constructor"
    },
    {
      "inputs": [],
      "name": "counter",
      "outputs": [
        {
          "internalType": "contract OmniCounter",
          "name": "",
          "type": "address"
        }
      ],
      "stateMutability": "view",
      "type": "function"
    },
    {
      "inputs": [
        {
          "internalType": "uint32[]",
          "name": "peerEids",
          "type": "uint32[]"
        }
      ],
      "name": "getCounts",
      "outputs": [
        {
          "components": [
            {
              "internalType": "uint32",
              "name": "eid",
              "type": "uint32"
            },
            {
              "internalType": "uint256",
              "name": "inboundCount",
              "type": "uint256"
            },
            {
              "internalType": "uint256",
              "name": "outboundCount",
              "type": "uint256"
            }
          ],
          "internalType": "struct OmniCounterViewer.Count[]",
          "name": "counts",
          "type": "tuple[]"
        }
      ],
      "stateMutability": "view",
      "type": "function"
    },
    {
      "inputs": [
        {
          "components": [
            {
              "components": [
                {
                  "internalType": "uint32",
                  "name": "srcEid",
                  "type": "uint32"
                },
                {
                  "internalType": "bytes32",
                  "name": "sender",
                  "type": "bytes32"
                },
                {
                  "internalType": "uint64",
                  "name": "nonce",
                  "type": "uint64"
                }
              ],
              "internalType": "struct Origin",
              "name": "origin",
              "type": "tuple"
            },
            {
              "internalType": "bytes32",
              "name": "guid",
              "type": "bytes32"
            },
            {
              "internalType": "bytes",
              "name": "message",
              "type": "bytes"
            },
            {
              "internalType": "bytes",
              "name": "callParams",
              "type": "bytes"
            }
          ],
          "internalType": "struct IPreCrime.Packet",
          "name": "packet",
          "type": "tuple"
        },
        {
          "components": [
            {
              "internalType": "uint32",
              "name": "eid",
              "type": "uint32"
            },
            {
              "internalType": "uint256",
              "name": "inboundCount",
              "type": "uint256"
            },
            {
              "internalType": "uint256",
              "name": "outboundCount",
              "type": "uint256"
            }
          ],
          "internalType": "struct OmniCounterViewer.Count[]",
          "name": "counts",
          "type": "tuple[]"
        }
      ],
      "name": "lzReceive",
      "outputs": [
        {
          "components": [
            {
              "internalType": "uint32",
              "name": "eid",
              "type": "uint32"
            },
            {
              "internalType": "uint256",
              "name": "inboundCount",
              "type": "uint256"
            },
            {
              "internalType": "uint256",
              "name": "outboundCount",
              "type": "uint256"
            }
          ],
          "internalType": "struct OmniCounterViewer.Count[]",
          "name": "",
          "type": "tuple[]"
        }
      ],
      "stateMutability": "view",
      "type": "function"
    }
  ],
  "transactionHash": "0x831cf851a149c3a546e9e5ff69bff135ec6563dc61d9f7a8ab543c7e080b6a46",
  "args": [
    "0xef11D1c2aA48826D4c41e54ab82D1Ff5Ad8A64Ca"
  ],
  "numDeployments": 1,
  "solcInputHash": "7b29806b85282df4a83b429384afd158",
  "bytecode": "0x608060405234801561001057600080fd5b50604051610bdb380380610bdb83398101604081905261002f91610054565b600080546001600160a01b0319166001600160a01b0392909216919091179055610084565b60006020828403121561006657600080fd5b81516001600160a01b038116811461007d57600080fd5b9392505050565b610b48806100936000396000f3fe608060405234801561001057600080fd5b50600436106100415760003560e01c806330b317911461004657806361bc221a1461006f5780636874141b146100b4575b600080fd5b610059610054366004610790565b6100c7565b6040516100669190610897565b60405180910390f35b60005461008f9073ffffffffffffffffffffffffffffffffffffffff1681565b60405173ffffffffffffffffffffffffffffffffffffffff9091168152602001610066565b6100596100c23660046108f6565b6103bf565b60008054606091906020850180359173ffffffffffffffffffffffffffffffffffffffff169063bb0b6a53906100fd908861096b565b6040517fffffffff0000000000000000000000000000000000000000000000000000000060e084901b16815263ffffffff919091166004820152602401602060405180830381865afa158015610157573d6000803e3d6000fd5b505050506040513d601f19601f8201168201806040525081019061017b919061098d565b14905080610210576040517f08c379a000000000000000000000000000000000000000000000000000000000815260206004820152602560248201527f4f6d6e69436f756e7465725669657765723a206e6f742074727573746564207260448201527f656d6f746500000000000000000000000000000000000000000000000000000060648201526084015b60405180910390fd5b600061022884610223602088018861096b565b6105f5565b9050600061024161023c60808801886109a6565b6106ae565b90507fffffffffffffffffffffffffffffffffffffffffffffffffffffffffffffffff60ff8216016102a05784828151811061027f5761027f610a12565b6020026020010151602001805180919061029890610a41565b9052506103b2565b60ff8116600214806102b5575060ff81166004145b156102cc5784828151811061027f5761027f610a12565b7ffffffffffffffffffffffffffffffffffffffffffffffffffffffffffffffffd60ff8216016103505784828151811061030857610308610a12565b6020026020010151602001805180919061032190610a41565b8152505084828151811061033757610337610a12565b6020026020010151604001805180919061029890610a41565b6040517f08c379a000000000000000000000000000000000000000000000000000000000815260206004820152601460248201527f696e76616c6964206d65737361676520747970650000000000000000000000006044820152606401610207565b8493505050505b92915050565b60608167ffffffffffffffff8111156103da576103da6106d0565b60405190808252806020026020018201604052801561043557816020015b6104226040518060600160405280600063ffffffff16815260200160008152602001600081525090565b8152602001906001900390816103f85790505b50905060005b828110156105ee57600084848381811061045757610457610a12565b905060200201602081019061046c919061096b565b6040805160608101825263ffffffff831680825260005492517f56a47289000000000000000000000000000000000000000000000000000000008152600481019190915292935091602083019173ffffffffffffffffffffffffffffffffffffffff16906356a4728990602401602060405180830381865afa1580156104f6573d6000803e3d6000fd5b505050506040513d601f19601f8201168201806040525081019061051a919061098d565b81526000546040517f622f17f600000000000000000000000000000000000000000000000000000000815263ffffffff8516600482015260209092019173ffffffffffffffffffffffffffffffffffffffff9091169063622f17f690602401602060405180830381865afa158015610596573d6000803e3d6000fd5b505050506040513d601f19601f820116820180604052508101906105ba919061098d565b8152508383815181106105cf576105cf610a12565b60200260200101819052505080806105e690610a41565b91505061043b565b5092915050565b6000805b835181101561064b578263ffffffff1684828151811061061b5761061b610a12565b60200260200101516000015163ffffffff16036106395790506103b9565b8061064381610a41565b9150506105f9565b506040517f08c379a000000000000000000000000000000000000000000000000000000000815260206004820152600960248201527f6e6f7420666f756e6400000000000000000000000000000000000000000000006044820152606401610207565b60006106bd6001828486610aa0565b6106c691610aca565b60f81c9392505050565b7f4e487b7100000000000000000000000000000000000000000000000000000000600052604160045260246000fd5b6040516060810167ffffffffffffffff81118282101715610722576107226106d0565b60405290565b604051601f82017fffffffffffffffffffffffffffffffffffffffffffffffffffffffffffffffe016810167ffffffffffffffff8111828210171561076f5761076f6106d0565b604052919050565b803563ffffffff8116811461078b57600080fd5b919050565b60008060408084860312156107a457600080fd5b833567ffffffffffffffff808211156107bc57600080fd5b9085019060c082880312156107d057600080fd5b90935060209085820135818111156107e757600080fd5b8601601f810188136107f857600080fd5b80358281111561080a5761080a6106d0565b610818848260051b01610728565b8181528481019350606091820283018501918a83111561083757600080fd5b928501925b828410156108865780848c0312156108545760008081fd5b61085c6106ff565b61086585610777565b8152848701358782015287850135888201528552938501939283019261083c565b508096505050505050509250929050565b602080825282518282018190526000919060409081850190868401855b828110156108e9578151805163ffffffff168552868101518786015285015185850152606090930192908501906001016108b4565b5091979650505050505050565b6000806020838503121561090957600080fd5b823567ffffffffffffffff8082111561092157600080fd5b818501915085601f83011261093557600080fd5b81358181111561094457600080fd5b8660208260051b850101111561095957600080fd5b60209290920196919550909350505050565b60006020828403121561097d57600080fd5b61098682610777565b9392505050565b60006020828403121561099f57600080fd5b5051919050565b60008083357fffffffffffffffffffffffffffffffffffffffffffffffffffffffffffffffe18436030181126109db57600080fd5b83018035915067ffffffffffffffff8211156109f657600080fd5b602001915036819003821315610a0b57600080fd5b9250929050565b7f4e487b7100000000000000000000000000000000000000000000000000000000600052603260045260246000fd5b60007fffffffffffffffffffffffffffffffffffffffffffffffffffffffffffffffff8203610a99577f4e487b7100000000000000000000000000000000000000000000000000000000600052601160045260246000fd5b5060010190565b60008085851115610ab057600080fd5b83861115610abd57600080fd5b5050820193919092039150565b7fff000000000000000000000000000000000000000000000000000000000000008135818116916001851015610b0a5780818660010360031b1b83161692505b50509291505056fea2646970667358221220adc586eef470a1a1ed27842bdbbcaaee1c0f85a1b5306e11c8f1348602b4c31e64736f6c63430008130033",
  "devdoc": {
    "kind": "dev",
    "methods": {},
    "version": 1
  },
  "userdoc": {
    "kind": "user",
    "methods": {},
    "version": 1
  },
  "storageLayout": {
    "storage": [
      {
        "astId": 9233,
        "contract": "contracts/examples/OmniCounterViewer.sol:OmniCounterViewer",
        "label": "counter",
        "offset": 0,
        "slot": "0",
        "type": "t_contract(OmniCounter)8315"
      }
    ],
    "types": {
      "t_contract(OmniCounter)8315": {
        "encoding": "inplace",
        "label": "contract OmniCounter",
        "numberOfBytes": "20"
      }
    }
  }
}