{
  "_format": "hh-sol-artifact-1",
  "contractName": "MessageLibManager",
  "sourceName": "contracts/MessageLibManager.sol",
  "abi": [
    {
      "inputs": [
        {
          "internalType": "address",
          "name": "_blockedLib",
          "type": "address"
        }
      ],
      "stateMutability": "nonpayable",
      "type": "constructor"
    },
    {
      "anonymous": false,
      "inputs": [
        {
          "indexed": false,
          "internalType": "uint32",
          "name": "eid",
          "type": "uint32"
        },
        {
          "indexed": false,
          "internalType": "address",
          "name": "oldLib",
          "type": "address"
        },
        {
          "indexed": false,
          "internalType": "address",
          "name": "newLib",
          "type": "address"
        }
      ],
      "name": "DefaultReceiveLibrarySet",
      "type": "event"
    },
    {
      "anonymous": false,
      "inputs": [
        {
          "indexed": false,
          "internalType": "uint32",
          "name": "eid",
          "type": "uint32"
        },
        {
          "indexed": false,
          "internalType": "address",
          "name": "oldLib",
          "type": "address"
        },
        {
          "indexed": false,
          "internalType": "uint256",
          "name": "expiry",
          "type": "uint256"
        }
      ],
      "name": "DefaultReceiveLibraryTimeoutSet",
      "type": "event"
    },
    {
      "anonymous": false,
      "inputs": [
        {
          "indexed": false,
          "internalType": "uint32",
          "name": "eid",
          "type": "uint32"
        },
        {
          "indexed": false,
          "internalType": "address",
          "name": "newLib",
          "type": "address"
        }
      ],
      "name": "DefaultSendLibrarySet",
      "type": "event"
    },
    {
      "anonymous": false,
      "inputs": [
        {
          "indexed": false,
          "internalType": "address",
          "name": "newLib",
          "type": "address"
        }
      ],
      "name": "LibraryRegistered",
      "type": "event"
    },
    {
      "anonymous": false,
      "inputs": [
        {
          "indexed": true,
          "internalType": "address",
          "name": "previousOwner",
          "type": "address"
        },
        {
          "indexed": true,
          "internalType": "address",
          "name": "newOwner",
          "type": "address"
        }
      ],
      "name": "OwnershipTransferred",
      "type": "event"
    },
    {
      "anonymous": false,
      "inputs": [
        {
          "indexed": false,
          "internalType": "address",
          "name": "receiver",
          "type": "address"
        },
        {
          "indexed": false,
          "internalType": "uint32",
          "name": "eid",
          "type": "uint32"
        },
        {
          "indexed": false,
          "internalType": "address",
          "name": "oldLib",
          "type": "address"
        },
        {
          "indexed": false,
          "internalType": "address",
          "name": "newLib",
          "type": "address"
        }
      ],
      "name": "ReceiveLibrarySet",
      "type": "event"
    },
    {
      "anonymous": false,
      "inputs": [
        {
          "indexed": false,
          "internalType": "address",
          "name": "receiver",
          "type": "address"
        },
        {
          "indexed": false,
          "internalType": "uint32",
          "name": "eid",
          "type": "uint32"
        },
        {
          "indexed": false,
          "internalType": "address",
          "name": "oldLib",
          "type": "address"
        },
        {
          "indexed": false,
          "internalType": "uint256",
          "name": "timeout",
          "type": "uint256"
        }
      ],
      "name": "ReceiveLibraryTimoutSet",
      "type": "event"
    },
    {
      "anonymous": false,
      "inputs": [
        {
          "indexed": false,
          "internalType": "address",
          "name": "sender",
          "type": "address"
        },
        {
          "indexed": false,
          "internalType": "uint32",
          "name": "eid",
          "type": "uint32"
        },
        {
          "indexed": false,
          "internalType": "address",
          "name": "newLib",
          "type": "address"
        }
      ],
      "name": "SendLibrarySet",
      "type": "event"
    },
    {
      "inputs": [],
      "name": "blockedLibrary",
      "outputs": [
        {
          "internalType": "address",
          "name": "",
          "type": "address"
        }
      ],
      "stateMutability": "view",
      "type": "function"
    },
    {
      "inputs": [
        {
          "internalType": "address",
          "name": "_lib",
          "type": "address"
        },
        {
          "internalType": "uint32",
          "name": "_eid",
          "type": "uint32"
        },
        {
          "internalType": "uint32",
          "name": "_configType",
          "type": "uint32"
        }
      ],
      "name": "defaultConfig",
      "outputs": [
        {
          "internalType": "bytes",
          "name": "",
          "type": "bytes"
        }
      ],
      "stateMutability": "view",
      "type": "function"
    },
    {
      "inputs": [
        {
          "internalType": "uint32",
          "name": "srcEid",
          "type": "uint32"
        }
      ],
      "name": "defaultReceiveLibrary",
      "outputs": [
        {
          "internalType": "address",
          "name": "lib",
          "type": "address"
        }
      ],
      "stateMutability": "view",
      "type": "function"
    },
    {
      "inputs": [
        {
          "internalType": "uint32",
          "name": "srcEid",
          "type": "uint32"
        }
      ],
      "name": "defaultReceiveLibraryTimeout",
      "outputs": [
        {
          "internalType": "address",
          "name": "lib",
          "type": "address"
        },
        {
          "internalType": "uint256",
          "name": "expiry",
          "type": "uint256"
        }
      ],
      "stateMutability": "view",
      "type": "function"
    },
    {
      "inputs": [
        {
          "internalType": "uint32",
          "name": "dstEid",
          "type": "uint32"
        }
      ],
      "name": "defaultSendLibrary",
      "outputs": [
        {
          "internalType": "address",
          "name": "lib",
          "type": "address"
        }
      ],
      "stateMutability": "view",
      "type": "function"
    },
    {
      "inputs": [
        {
          "internalType": "address",
          "name": "_oapp",
          "type": "address"
        },
        {
          "internalType": "address",
          "name": "_lib",
          "type": "address"
        },
        {
          "internalType": "uint32",
          "name": "_eid",
          "type": "uint32"
        },
        {
          "internalType": "uint32",
          "name": "_configType",
          "type": "uint32"
        }
      ],
      "name": "getConfig",
      "outputs": [
        {
          "internalType": "bytes",
          "name": "config",
          "type": "bytes"
        },
        {
          "internalType": "bool",
          "name": "isDefault",
          "type": "bool"
        }
      ],
      "stateMutability": "view",
      "type": "function"
    },
    {
      "inputs": [
        {
          "internalType": "address",
          "name": "_receiver",
          "type": "address"
        },
        {
          "internalType": "uint32",
          "name": "_srcEid",
          "type": "uint32"
        }
      ],
      "name": "getReceiveLibrary",
      "outputs": [
        {
          "internalType": "address",
          "name": "lib",
          "type": "address"
        },
        {
          "internalType": "bool",
          "name": "isDefault",
          "type": "bool"
        }
      ],
      "stateMutability": "view",
      "type": "function"
    },
    {
      "inputs": [],
      "name": "getRegisteredLibraries",
      "outputs": [
        {
          "internalType": "address[]",
          "name": "",
          "type": "address[]"
        }
      ],
      "stateMutability": "view",
      "type": "function"
    },
    {
      "inputs": [
        {
          "internalType": "address",
          "name": "_sender",
          "type": "address"
        },
        {
          "internalType": "uint32",
          "name": "_dstEid",
          "type": "uint32"
        }
      ],
      "name": "getSendLibrary",
      "outputs": [
        {
          "internalType": "address",
          "name": "lib",
          "type": "address"
        }
      ],
      "stateMutability": "view",
      "type": "function"
    },
    {
      "inputs": [
        {
          "internalType": "address",
          "name": "_sender",
          "type": "address"
        },
        {
          "internalType": "uint32",
          "name": "_dstEid",
          "type": "uint32"
        }
      ],
      "name": "isDefaultSendLibrary",
      "outputs": [
        {
          "internalType": "bool",
          "name": "",
          "type": "bool"
        }
      ],
      "stateMutability": "view",
      "type": "function"
    },
    {
      "inputs": [
        {
          "internalType": "address",
          "name": "lib",
          "type": "address"
        }
      ],
      "name": "isRegisteredLibrary",
      "outputs": [
        {
          "internalType": "bool",
          "name": "",
          "type": "bool"
        }
      ],
      "stateMutability": "view",
      "type": "function"
    },
    {
      "inputs": [
        {
          "internalType": "uint32",
          "name": "_eid",
          "type": "uint32"
        }
      ],
      "name": "isSupportedEid",
      "outputs": [
        {
          "internalType": "bool",
          "name": "",
          "type": "bool"
        }
      ],
      "stateMutability": "view",
      "type": "function"
    },
    {
      "inputs": [
        {
          "internalType": "address",
          "name": "_receiver",
          "type": "address"
        },
        {
          "internalType": "uint32",
          "name": "_srcEid",
          "type": "uint32"
        },
        {
          "internalType": "address",
          "name": "_actualReceiveLib",
          "type": "address"
        }
      ],
      "name": "isValidReceiveLibrary",
      "outputs": [
        {
          "internalType": "bool",
          "name": "",
          "type": "bool"
        }
      ],
      "stateMutability": "view",
      "type": "function"
    },
    {
      "inputs": [],
      "name": "owner",
      "outputs": [
        {
          "internalType": "address",
          "name": "",
          "type": "address"
        }
      ],
      "stateMutability": "view",
      "type": "function"
    },
    {
      "inputs": [
        {
          "internalType": "address",
          "name": "receiver",
          "type": "address"
        },
        {
          "internalType": "uint32",
          "name": "srcEid",
          "type": "uint32"
        }
      ],
      "name": "receiveLibraryTimeout",
      "outputs": [
        {
          "internalType": "address",
          "name": "lib",
          "type": "address"
        },
        {
          "internalType": "uint256",
          "name": "expiry",
          "type": "uint256"
        }
      ],
      "stateMutability": "view",
      "type": "function"
    },
    {
      "inputs": [
        {
          "internalType": "address",
          "name": "_lib",
          "type": "address"
        }
      ],
      "name": "registerLibrary",
      "outputs": [],
      "stateMutability": "nonpayable",
      "type": "function"
    },
    {
      "inputs": [],
      "name": "renounceOwnership",
      "outputs": [],
      "stateMutability": "nonpayable",
      "type": "function"
    },
    {
      "inputs": [
        {
          "internalType": "address",
          "name": "_lib",
          "type": "address"
        },
        {
          "internalType": "uint32[]",
          "name": "_eids",
          "type": "uint32[]"
        }
      ],
      "name": "resetConfig",
      "outputs": [],
      "stateMutability": "nonpayable",
      "type": "function"
    },
    {
      "inputs": [
        {
          "internalType": "address",
          "name": "_lib",
          "type": "address"
        },
        {
          "internalType": "uint32",
          "name": "_eid",
          "type": "uint32"
        },
        {
          "components": [
            {
              "internalType": "uint32",
              "name": "configType",
              "type": "uint32"
            },
            {
              "internalType": "bytes",
              "name": "config",
              "type": "bytes"
            }
          ],
          "internalType": "struct SetConfigParam[]",
          "name": "_params",
          "type": "tuple[]"
        }
      ],
      "name": "setConfig",
      "outputs": [],
      "stateMutability": "nonpayable",
      "type": "function"
    },
    {
      "inputs": [
        {
          "internalType": "uint32",
          "name": "_eid",
          "type": "uint32"
        },
        {
          "internalType": "address",
          "name": "_newLib",
          "type": "address"
        },
        {
          "internalType": "uint256",
          "name": "_gracePeriod",
          "type": "uint256"
        }
      ],
      "name": "setDefaultReceiveLibrary",
      "outputs": [],
      "stateMutability": "nonpayable",
      "type": "function"
    },
    {
      "inputs": [
        {
          "internalType": "uint32",
          "name": "_eid",
          "type": "uint32"
        },
        {
          "internalType": "address",
          "name": "_lib",
          "type": "address"
        },
        {
          "internalType": "uint256",
          "name": "_expiry",
          "type": "uint256"
        }
      ],
      "name": "setDefaultReceiveLibraryTimeout",
      "outputs": [],
      "stateMutability": "nonpayable",
      "type": "function"
    },
    {
      "inputs": [
        {
          "internalType": "uint32",
          "name": "_eid",
          "type": "uint32"
        },
        {
          "internalType": "address",
          "name": "_newLib",
          "type": "address"
        }
      ],
      "name": "setDefaultSendLibrary",
      "outputs": [],
      "stateMutability": "nonpayable",
      "type": "function"
    },
    {
      "inputs": [
        {
          "internalType": "uint32",
          "name": "_eid",
          "type": "uint32"
        },
        {
          "internalType": "address",
          "name": "_newLib",
          "type": "address"
        },
        {
          "internalType": "uint256",
          "name": "_gracePeriod",
          "type": "uint256"
        }
      ],
      "name": "setReceiveLibrary",
      "outputs": [],
      "stateMutability": "nonpayable",
      "type": "function"
    },
    {
      "inputs": [
        {
          "internalType": "uint32",
          "name": "_eid",
          "type": "uint32"
        },
        {
          "internalType": "address",
          "name": "_lib",
          "type": "address"
        },
        {
          "internalType": "uint256",
          "name": "_expiry",
          "type": "uint256"
        }
      ],
      "name": "setReceiveLibraryTimeout",
      "outputs": [],
      "stateMutability": "nonpayable",
      "type": "function"
    },
    {
      "inputs": [
        {
          "internalType": "uint32",
          "name": "_eid",
          "type": "uint32"
        },
        {
          "internalType": "address",
          "name": "_newLib",
          "type": "address"
        }
      ],
      "name": "setSendLibrary",
      "outputs": [],
      "stateMutability": "nonpayable",
      "type": "function"
    },
    {
      "inputs": [
        {
          "internalType": "address",
          "name": "_lib",
          "type": "address"
        },
        {
          "internalType": "uint32[]",
          "name": "_eids",
          "type": "uint32[]"
        }
      ],
      "name": "snapshotConfig",
      "outputs": [],
      "stateMutability": "nonpayable",
      "type": "function"
    },
    {
      "inputs": [
        {
          "internalType": "address",
          "name": "newOwner",
          "type": "address"
        }
      ],
      "name": "transferOwnership",
      "outputs": [],
      "stateMutability": "nonpayable",
      "type": "function"
    }
  ],
  "bytecode": "0x60a06040523480156200001157600080fd5b506040516200333d3803806200333d8339810160408190526200003491620002cc565b6200003f336200005e565b6001600160a01b0381166080526200005781620000ae565b5062000372565b600080546001600160a01b038381166001600160a01b0319831681178455604051919092169283917f8be0079c531659141344cd1fd0a4f28419497f9722a3daafe3b4186f6b6457e09190a35050565b620000b86200026e565b6040516301ffc9a760e01b815263d913d0cd60e01b60048201526001600160a01b038216906301ffc9a790602401602060405180830381865afa15801562000104573d6000803e3d6000fd5b505050506040513d601f19601f820116820180604052508101906200012a9190620002fe565b604051806040016040528060078152602001664c5a433030303160c81b81525090620001745760405162461bcd60e51b81526004016200016b919062000322565b60405180910390fd5b506001600160a01b038116600090815260026020908152604091829020548251808401909352600783526604c5a38303030360cc1b9183019190915260ff1615620001d45760405162461bcd60e51b81526004016200016b919062000322565b506001600160a01b0381166000818152600260209081526040808320805460ff191660019081179091558054808201825593527fb10e2d527612073b26eecdfd717e6a320cf44b4afac2b0732d9fcbe2b7fa0cf690920180546001600160a01b0319168417905590519182527f6b374d56679ca9463f27c85c6311e2bb7fde69bf201d3da39d53f10bd9d78af5910160405180910390a150565b6000546001600160a01b03163314620002ca5760405162461bcd60e51b815260206004820181905260248201527f4f776e61626c653a2063616c6c6572206973206e6f7420746865206f776e657260448201526064016200016b565b565b600060208284031215620002df57600080fd5b81516001600160a01b0381168114620002f757600080fd5b9392505050565b6000602082840312156200031157600080fd5b81518015158114620002f757600080fd5b600060208083528351808285015260005b81811015620003515785810183015185820160400152820162000333565b506000604082860101526040601f19601f8301168501019250505092915050565b608051612faf6200038e60003960006103660152612faf6000f3fe608060405234801561001057600080fd5b50600436106101b95760003560e01c80639e7fffcc116100f9578063dc706a6211610097578063e8964e8111610071578063e8964e81146104d5578063ef667aa1146104e8578063f2fde38b14610533578063f64be4c71461054657600080fd5b8063dc706a6214610453578063dc93c8a214610476578063e16f964d146104c257600080fd5b8063b8007ff6116100d3578063b8007ff614610407578063b8849ac91461041a578063b96a277f1461042d578063d4b4ec8f1461044057600080fd5b80639e7fffcc146103ce578063a718531b146103e1578063aafea312146103f457600080fd5b80636e83f5bb11610166578063733180911161014057806373318091146103615780638da5cb5b146103885780639132e5c3146103a65780639d7f9775146103bb57600080fd5b80636e83f5bb146102925780636f50a803146102fe578063715018a61461035957600080fd5b806351c85b6b1161019757806351c85b6b1461023c57806366bf43d61461025c5780636750cd4c1461026f57600080fd5b80630678327f146101be5780632b3197b9146101d3578063402f8468146101fd575b600080fd5b6101d16101cc36600461286c565b61057c565b005b6101e66101e13660046128d3565b610695565b6040516101f4929190612995565b60405180910390f35b61021061020b3660046129b9565b6107ef565b6040805173ffffffffffffffffffffffffffffffffffffffff90931683529015156020830152016101f4565b61024f61024a3660046129ec565b6108bd565b6040516101f49190612a2f565b6101d161026a366004612a42565b610b12565b61028261027d366004612a7e565b610e7d565b60405190151581526020016101f4565b6102d26102a0366004612a7e565b6008602052600090815260409020805460019091015473ffffffffffffffffffffffffffffffffffffffff9091169082565b6040805173ffffffffffffffffffffffffffffffffffffffff90931683526020830191909152016101f4565b61033461030c366004612a7e565b60076020526000908152604090205473ffffffffffffffffffffffffffffffffffffffff1681565b60405173ffffffffffffffffffffffffffffffffffffffff90911681526020016101f4565b6101d1610ee7565b6103347f000000000000000000000000000000000000000000000000000000000000000081565b60005473ffffffffffffffffffffffffffffffffffffffff16610334565b6103ae610efb565b6040516101f49190612a99565b6102826103c9366004612af3565b610f6a565b6101d16103dc36600461286c565b61107a565b6101d16103ef366004612a42565b611152565b6101d1610402366004612b2d565b61151c565b6101d1610415366004612b57565b6117cf565b6101d1610428366004612a42565b6118e2565b61033461043b3660046129b9565b611d98565b6101d161044e366004612a42565b611e61565b610282610461366004612bb8565b60026020526000908152604090205460ff1681565b6102826104843660046129b9565b73ffffffffffffffffffffffffffffffffffffffff918216600090815260036020908152604080832063ffffffff9490941683529290522054161590565b6101d16104d0366004612b2d565b612147565b6101d16104e3366004612bb8565b61241e565b6102d26104f63660046129b9565b60056020908152600092835260408084209091529082529020805460019091015473ffffffffffffffffffffffffffffffffffffffff9091169082565b6101d1610541366004612bb8565b612685565b610334610554366004612a7e565b60066020526000908152604090205473ffffffffffffffffffffffffffffffffffffffff1681565b73ffffffffffffffffffffffffffffffffffffffff8316600090815260026020908152604091829020548251808401909352600783527f4c5a3130303031000000000000000000000000000000000000000000000000009183019190915284919060ff166106065760405162461bcd60e51b81526004016105fd9190612a2f565b60405180910390fd5b506040517f1c63e3b600000000000000000000000000000000000000000000000000000000815273ffffffffffffffffffffffffffffffffffffffff851690631c63e3b69061065d90869086903390600401612bd3565b600060405180830381600087803b15801561067757600080fd5b505af115801561068b573d6000803e3d6000fd5b5050505050505050565b73ffffffffffffffffffffffffffffffffffffffff83166000908152600260209081526040808320548151808301909252600782527f4c5a313030303100000000000000000000000000000000000000000000000000928201929092526060929186919060ff166107195760405162461bcd60e51b81526004016105fd9190612a2f565b506040517f9c33abf700000000000000000000000000000000000000000000000000000000815263ffffffff808716600483015273ffffffffffffffffffffffffffffffffffffffff89811660248401529086166044830152871690639c33abf790606401600060405180830381865afa15801561079b573d6000803e3d6000fd5b505050506040513d6000823e601f3d9081017fffffffffffffffffffffffffffffffffffffffffffffffffffffffffffffffe01682016040526107e19190810190612d20565b925092505094509492505050565b73ffffffffffffffffffffffffffffffffffffffff808316600090815260046020908152604080832063ffffffff8616845290915281205490911690816108b65763ffffffff83166000908152600760208181526040928390205483518085019094529183527f4c5a4430303033000000000000000000000000000000000000000000000000009083015273ffffffffffffffffffffffffffffffffffffffff169250826108b05760405162461bcd60e51b81526004016105fd9190612a2f565b50600190505b9250929050565b73ffffffffffffffffffffffffffffffffffffffff8316600090815260026020908152604091829020548251808401909352600783527f4c5a31303030310000000000000000000000000000000000000000000000000091830191909152606091859160ff166109405760405162461bcd60e51b81526004016105fd9190612a2f565b50848473ffffffffffffffffffffffffffffffffffffffff821615610a49576040517f6750cd4c00000000000000000000000000000000000000000000000000000000815263ffffffff8216600482015273ffffffffffffffffffffffffffffffffffffffff831690636750cd4c90602401602060405180830381865afa1580156109cf573d6000803e3d6000fd5b505050506040513d601f19601f820116820180604052508101906109f39190612d65565b6040518060400160405280600781526020017f4c5a31303030380000000000000000000000000000000000000000000000000081525090610a475760405162461bcd60e51b81526004016105fd9190612a2f565b505b6040517f690c655500000000000000000000000000000000000000000000000000000000815263ffffffff80881660048301528616602482015273ffffffffffffffffffffffffffffffffffffffff88169063690c655590604401600060405180830381865afa158015610ac1573d6000803e3d6000fd5b505050506040513d6000823e601f3d9081017fffffffffffffffffffffffffffffffffffffffffffffffffffffffffffffffe0168201604052610b079190810190612d80565b979650505050505050565b73ffffffffffffffffffffffffffffffffffffffff8216600090815260026020908152604091829020548251808401909352600783527f4c5a3130303031000000000000000000000000000000000000000000000000009183019190915283919060ff16610b935760405162461bcd60e51b81526004016105fd9190612a2f565b50828473ffffffffffffffffffffffffffffffffffffffff821615610c9c576040517f6750cd4c00000000000000000000000000000000000000000000000000000000815263ffffffff8216600482015273ffffffffffffffffffffffffffffffffffffffff831690636750cd4c90602401602060405180830381865afa158015610c22573d6000803e3d6000fd5b505050506040513d601f19601f82011682018060405250810190610c469190612d65565b6040518060400160405280600781526020017f4c5a31303030380000000000000000000000000000000000000000000000000081525090610c9a5760405162461bcd60e51b81526004016105fd9190612a2f565b505b6000610ca833886107ef565b91505080156040518060400160405280600781526020017f4c5a31303031300000000000000000000000000000000000000000000000000081525090610d015760405162461bcd60e51b81526004016105fd9190612a2f565b5084600003610d595733600090815260056020908152604080832063ffffffff8b168452909152812080547fffffffffffffffffffffffff000000000000000000000000000000000000000016815560010155610e13565b60408051808201909152600781527f4c5a3130303030000000000000000000000000000000000000000000000000006020820152428611610dad5760405162461bcd60e51b81526004016105fd9190612a2f565b5033600090815260056020908152604080832063ffffffff8b168452909152902080547fffffffffffffffffffffffff00000000000000000000000000000000000000001673ffffffffffffffffffffffffffffffffffffffff88161781556001018590555b6040805133815263ffffffff8916602082015273ffffffffffffffffffffffffffffffffffffffff8816818301526060810187905290517f661366f82fca66289bddc34462b3ab39d252b761599537d722a632d1bb066b8e9181900360800190a150505050505050565b63ffffffff811660009081526006602052604081205473ffffffffffffffffffffffffffffffffffffffff1615801590610ee1575063ffffffff821660009081526007602052604090205473ffffffffffffffffffffffffffffffffffffffff1615155b92915050565b610eef612722565b610ef96000612789565b565b60606001805480602002602001604051908101604052809291908181526020018280548015610f6057602002820191906000526020600020905b815473ffffffffffffffffffffffffffffffffffffffff168152600190910190602001808311610f35575b5050505050905090565b6000806000610f7986866107ef565b915091508173ffffffffffffffffffffffffffffffffffffffff168473ffffffffffffffffffffffffffffffffffffffff1603610fbb57600192505050611073565b600081610ffd5773ffffffffffffffffffffffffffffffffffffffff8716600090815260056020908152604080832063ffffffff8a1684529091529020611013565b63ffffffff861660009081526008602052604090205b60408051808201909152815473ffffffffffffffffffffffffffffffffffffffff9081168083526001909301546020830152909250861614801561105a5750428160200151115b1561106b5760019350505050611073565b600093505050505b9392505050565b73ffffffffffffffffffffffffffffffffffffffff8316600090815260026020908152604091829020548251808401909352600783527f4c5a3130303031000000000000000000000000000000000000000000000000009183019190915284919060ff166110fb5760405162461bcd60e51b81526004016105fd9190612a2f565b506040517fd2d287f000000000000000000000000000000000000000000000000000000000815273ffffffffffffffffffffffffffffffffffffffff85169063d2d287f09061065d90869086903390600401612bd3565b61115a612722565b73ffffffffffffffffffffffffffffffffffffffff8216600090815260026020908152604091829020548251808401909352600783527f4c5a3130303031000000000000000000000000000000000000000000000000009183019190915283919060ff166111db5760405162461bcd60e51b81526004016105fd9190612a2f565b50828473ffffffffffffffffffffffffffffffffffffffff8216156112e4576040517f6750cd4c00000000000000000000000000000000000000000000000000000000815263ffffffff8216600482015273ffffffffffffffffffffffffffffffffffffffff831690636750cd4c90602401602060405180830381865afa15801561126a573d6000803e3d6000fd5b505050506040513d601f19601f8201168201806040525081019061128e9190612d65565b6040518060400160405280600781526020017f4c5a313030303800000000000000000000000000000000000000000000000000815250906112e25760405162461bcd60e51b81526004016105fd9190612a2f565b505b63ffffffff86166000908152600760208181526040928390205483518085019094529183527f4c5a3130303035000000000000000000000000000000000000000000000000009083015273ffffffffffffffffffffffffffffffffffffffff9081169190871682036113695760405162461bcd60e51b81526004016105fd9190612a2f565b5063ffffffff871660008181526007602090815260409182902080547fffffffffffffffffffffffff00000000000000000000000000000000000000001673ffffffffffffffffffffffffffffffffffffffff8b8116918217909255835194855290851691840191909152908201527f9914edfad6b7eac2e388f49bae232bd0e1954fbe92f5ed1ab975fc270f27cea59060600160405180910390a184156114d35763ffffffff8716600090815260086020526040902080547fffffffffffffffffffffffff00000000000000000000000000000000000000001673ffffffffffffffffffffffffffffffffffffffff83161781556114688642612dbd565b600182018190556040805163ffffffff8b16815273ffffffffffffffffffffffffffffffffffffffff85166020820152908101919091527f55b28633cdb29709386f555dfc54418592ad475ce7a65a78ac5928af60ffb8f8906060015b60405180910390a150611513565b63ffffffff8716600090815260086020526040812080547fffffffffffffffffffffffff0000000000000000000000000000000000000000168155600101555b50505050505050565b611524612722565b73ffffffffffffffffffffffffffffffffffffffff8116600090815260026020908152604091829020548251808401909352600783527f4c5a3130303031000000000000000000000000000000000000000000000000009183019190915282919060ff166115a55760405162461bcd60e51b81526004016105fd9190612a2f565b50818373ffffffffffffffffffffffffffffffffffffffff8216156116ae576040517f6750cd4c00000000000000000000000000000000000000000000000000000000815263ffffffff8216600482015273ffffffffffffffffffffffffffffffffffffffff831690636750cd4c90602401602060405180830381865afa158015611634573d6000803e3d6000fd5b505050506040513d601f19601f820116820180604052508101906116589190612d65565b6040518060400160405280600781526020017f4c5a313030303800000000000000000000000000000000000000000000000000815250906116ac5760405162461bcd60e51b81526004016105fd9190612a2f565b505b63ffffffff8516600090815260066020908152604091829020548251808401909352600783527f4c5a3130303035000000000000000000000000000000000000000000000000009183019190915273ffffffffffffffffffffffffffffffffffffffff9081169190861682036117375760405162461bcd60e51b81526004016105fd9190612a2f565b5063ffffffff861660008181526006602090815260409182902080547fffffffffffffffffffffffff00000000000000000000000000000000000000001673ffffffffffffffffffffffffffffffffffffffff8a169081179091558251938452908301527f16aa0f528038ab41019e95bae5b418a50ba8532c5800e3b7ea2f517d3fa625f591015b60405180910390a1505050505050565b73ffffffffffffffffffffffffffffffffffffffff8416600090815260026020908152604091829020548251808401909352600783527f4c5a3130303031000000000000000000000000000000000000000000000000009183019190915285919060ff166118505760405162461bcd60e51b81526004016105fd9190612a2f565b506040517fb8007ff600000000000000000000000000000000000000000000000000000000815273ffffffffffffffffffffffffffffffffffffffff86169063b8007ff6906118a9903390889088908890600401612df7565b600060405180830381600087803b1580156118c357600080fd5b505af11580156118d7573d6000803e3d6000fd5b505050505050505050565b73ffffffffffffffffffffffffffffffffffffffff8216600090815260026020526040902054829060ff168061192c575073ffffffffffffffffffffffffffffffffffffffff8116155b6040518060400160405280600781526020017f4c5a313030303200000000000000000000000000000000000000000000000000815250906119805760405162461bcd60e51b81526004016105fd9190612a2f565b50828473ffffffffffffffffffffffffffffffffffffffff821615611a89576040517f6750cd4c00000000000000000000000000000000000000000000000000000000815263ffffffff8216600482015273ffffffffffffffffffffffffffffffffffffffff831690636750cd4c90602401602060405180830381865afa158015611a0f573d6000803e3d6000fd5b505050506040513d601f19601f82011682018060405250810190611a339190612d65565b6040518060400160405280600781526020017f4c5a31303030380000000000000000000000000000000000000000000000000081525090611a875760405162461bcd60e51b81526004016105fd9190612a2f565b505b33600090815260046020908152604080832063ffffffff8a168452825291829020548251808401909352600783527f4c5a3130303035000000000000000000000000000000000000000000000000009183019190915273ffffffffffffffffffffffffffffffffffffffff908116919087168203611b1a5760405162461bcd60e51b81526004016105fd9190612a2f565b5033600081815260046020908152604080832063ffffffff8c1680855290835292819020805473ffffffffffffffffffffffffffffffffffffffff8c81167fffffffffffffffffffffffff00000000000000000000000000000000000000009092168217909255825195865292850193909352918416838301526060830152517fc0833c35bb1d0beadca36bed54c7098819e109542a6d233d33c7c2039c8ec9aa9181900360800190a18415611d455773ffffffffffffffffffffffffffffffffffffffff811615801590611c04575073ffffffffffffffffffffffffffffffffffffffff861615155b6040518060400160405280600781526020017f4c5a31303031300000000000000000000000000000000000000000000000000081525090611c585760405162461bcd60e51b81526004016105fd9190612a2f565b50600060405180604001604052808373ffffffffffffffffffffffffffffffffffffffff1681526020018742611c8e9190612dbd565b905233600081815260056020908152604080832063ffffffff8e1680855290835292819020855181547fffffffffffffffffffffffff00000000000000000000000000000000000000001673ffffffffffffffffffffffffffffffffffffffff9182161782558684015160019092018290558251958652928501939093529086169083015260608201529091507f661366f82fca66289bddc34462b3ab39d252b761599537d722a632d1bb066b8e906080016114c5565b33600090815260056020908152604080832063ffffffff8b168452909152812080547fffffffffffffffffffffffff00000000000000000000000000000000000000001681556001015550505050505050565b73ffffffffffffffffffffffffffffffffffffffff808316600090815260036020908152604080832063ffffffff861684529091529020541680610ee1575063ffffffff8116600090815260066020908152604091829020548251808401909352600783527f4c5a4430303033000000000000000000000000000000000000000000000000009183019190915273ffffffffffffffffffffffffffffffffffffffff169081611e5a5760405162461bcd60e51b81526004016105fd9190612a2f565b5092915050565b73ffffffffffffffffffffffffffffffffffffffff8216600090815260026020908152604091829020548251808401909352600783527f4c5a3130303031000000000000000000000000000000000000000000000000009183019190915283919060ff16611ee25760405162461bcd60e51b81526004016105fd9190612a2f565b50828473ffffffffffffffffffffffffffffffffffffffff821615611feb576040517f6750cd4c00000000000000000000000000000000000000000000000000000000815263ffffffff8216600482015273ffffffffffffffffffffffffffffffffffffffff831690636750cd4c90602401602060405180830381865afa158015611f71573d6000803e3d6000fd5b505050506040513d601f19601f82011682018060405250810190611f959190612d65565b6040518060400160405280600781526020017f4c5a31303030380000000000000000000000000000000000000000000000000081525090611fe95760405162461bcd60e51b81526004016105fd9190612a2f565b505b611ff3612722565b8360000361203f5763ffffffff8616600090815260086020526040812080547fffffffffffffffffffffffff0000000000000000000000000000000000000000168155600101556120ee565b60408051808201909152600781527f4c5a31303030300000000000000000000000000000000000000000000000000060208201524285116120935760405162461bcd60e51b81526004016105fd9190612a2f565b5063ffffffff8616600090815260086020526040902080547fffffffffffffffffffffffff00000000000000000000000000000000000000001673ffffffffffffffffffffffffffffffffffffffff87161781556001018490555b6040805163ffffffff8816815273ffffffffffffffffffffffffffffffffffffffff871660208201529081018590527f55b28633cdb29709386f555dfc54418592ad475ce7a65a78ac5928af60ffb8f8906060016117bf565b73ffffffffffffffffffffffffffffffffffffffff8116600090815260026020526040902054819060ff1680612191575073ffffffffffffffffffffffffffffffffffffffff8116155b6040518060400160405280600781526020017f4c5a313030303200000000000000000000000000000000000000000000000000815250906121e55760405162461bcd60e51b81526004016105fd9190612a2f565b50818373ffffffffffffffffffffffffffffffffffffffff8216156122ee576040517f6750cd4c00000000000000000000000000000000000000000000000000000000815263ffffffff8216600482015273ffffffffffffffffffffffffffffffffffffffff831690636750cd4c90602401602060405180830381865afa158015612274573d6000803e3d6000fd5b505050506040513d601f19601f820116820180604052508101906122989190612d65565b6040518060400160405280600781526020017f4c5a313030303800000000000000000000000000000000000000000000000000815250906122ec5760405162461bcd60e51b81526004016105fd9190612a2f565b505b33600090815260036020908152604080832063ffffffff89168452825291829020548251808401909352600783527f4c5a3130303035000000000000000000000000000000000000000000000000009183019190915273ffffffffffffffffffffffffffffffffffffffff90811691908616820361237f5760405162461bcd60e51b81526004016105fd9190612a2f565b5033600081815260036020908152604080832063ffffffff8b168085529083529281902080547fffffffffffffffffffffffff00000000000000000000000000000000000000001673ffffffffffffffffffffffffffffffffffffffff8b16908117909155815194855291840192909252908201527f4cff966ebee29a156dcb34cf72c1d06231fb1777f6bdf6e8089819232f002b1c906060016117bf565b612426612722565b6040517f01ffc9a70000000000000000000000000000000000000000000000000000000081527fd913d0cd00000000000000000000000000000000000000000000000000000000600482015273ffffffffffffffffffffffffffffffffffffffff8216906301ffc9a790602401602060405180830381865afa1580156124b0573d6000803e3d6000fd5b505050506040513d601f19601f820116820180604052508101906124d49190612d65565b6040518060400160405280600781526020017f4c5a433030303100000000000000000000000000000000000000000000000000815250906125285760405162461bcd60e51b81526004016105fd9190612a2f565b5073ffffffffffffffffffffffffffffffffffffffff8116600090815260026020908152604091829020548251808401909352600783527f4c5a3830303030000000000000000000000000000000000000000000000000009183019190915260ff16156125a85760405162461bcd60e51b81526004016105fd9190612a2f565b5073ffffffffffffffffffffffffffffffffffffffff8116600081815260026020908152604080832080547fffffffffffffffffffffffffffffffffffffffffffffffffffffffffffffff001660019081179091558054808201825593527fb10e2d527612073b26eecdfd717e6a320cf44b4afac2b0732d9fcbe2b7fa0cf690920180547fffffffffffffffffffffffff0000000000000000000000000000000000000000168417905590519182527f6b374d56679ca9463f27c85c6311e2bb7fde69bf201d3da39d53f10bd9d78af5910160405180910390a150565b61268d612722565b73ffffffffffffffffffffffffffffffffffffffff81166127165760405162461bcd60e51b815260206004820152602660248201527f4f776e61626c653a206e6577206f776e657220697320746865207a65726f206160448201527f646472657373000000000000000000000000000000000000000000000000000060648201526084016105fd565b61271f81612789565b50565b60005473ffffffffffffffffffffffffffffffffffffffff163314610ef95760405162461bcd60e51b815260206004820181905260248201527f4f776e61626c653a2063616c6c6572206973206e6f7420746865206f776e657260448201526064016105fd565b6000805473ffffffffffffffffffffffffffffffffffffffff8381167fffffffffffffffffffffffff0000000000000000000000000000000000000000831681178455604051919092169283917f8be0079c531659141344cd1fd0a4f28419497f9722a3daafe3b4186f6b6457e09190a35050565b803573ffffffffffffffffffffffffffffffffffffffff8116811461282257600080fd5b919050565b60008083601f84011261283957600080fd5b50813567ffffffffffffffff81111561285157600080fd5b6020830191508360208260051b85010111156108b657600080fd5b60008060006040848603121561288157600080fd5b61288a846127fe565b9250602084013567ffffffffffffffff8111156128a657600080fd5b6128b286828701612827565b9497909650939450505050565b803563ffffffff8116811461282257600080fd5b600080600080608085870312156128e957600080fd5b6128f2856127fe565b9350612900602086016127fe565b925061290e604086016128bf565b915061291c606086016128bf565b905092959194509250565b60005b8381101561294257818101518382015260200161292a565b50506000910152565b60008151808452612963816020860160208601612927565b601f017fffffffffffffffffffffffffffffffffffffffffffffffffffffffffffffffe0169290920160200192915050565b6040815260006129a8604083018561294b565b905082151560208301529392505050565b600080604083850312156129cc57600080fd5b6129d5836127fe565b91506129e3602084016128bf565b90509250929050565b600080600060608486031215612a0157600080fd5b612a0a846127fe565b9250612a18602085016128bf565b9150612a26604085016128bf565b90509250925092565b602081526000611073602083018461294b565b600080600060608486031215612a5757600080fd5b612a60846128bf565b9250612a6e602085016127fe565b9150604084013590509250925092565b600060208284031215612a9057600080fd5b611073826128bf565b6020808252825182820181905260009190848201906040850190845b81811015612ae757835173ffffffffffffffffffffffffffffffffffffffff1683529284019291840191600101612ab5565b50909695505050505050565b600080600060608486031215612b0857600080fd5b612b11846127fe565b9250612b1f602085016128bf565b9150612a26604085016127fe565b60008060408385031215612b4057600080fd5b612b49836128bf565b91506129e3602084016127fe565b60008060008060608587031215612b6d57600080fd5b612b76856127fe565b9350612b84602086016128bf565b9250604085013567ffffffffffffffff811115612ba057600080fd5b612bac87828801612827565b95989497509550505050565b600060208284031215612bca57600080fd5b611073826127fe565b6040808252810183905260008460608301825b86811015612c115763ffffffff612bfc846128bf565b16825260209283019290910190600101612be6565b50809250505073ffffffffffffffffffffffffffffffffffffffff83166020830152949350505050565b7f4e487b7100000000000000000000000000000000000000000000000000000000600052604160045260246000fd5b600082601f830112612c7b57600080fd5b815167ffffffffffffffff80821115612c9657612c96612c3b565b604051601f83017fffffffffffffffffffffffffffffffffffffffffffffffffffffffffffffffe0908116603f01168101908282118183101715612cdc57612cdc612c3b565b81604052838152866020858801011115612cf557600080fd5b612d06846020830160208901612927565b9695505050505050565b8051801515811461282257600080fd5b60008060408385031215612d3357600080fd5b825167ffffffffffffffff811115612d4a57600080fd5b612d5685828601612c6a565b9250506129e360208401612d10565b600060208284031215612d7757600080fd5b61107382612d10565b600060208284031215612d9257600080fd5b815167ffffffffffffffff811115612da957600080fd5b612db584828501612c6a565b949350505050565b80820180821115610ee1577f4e487b7100000000000000000000000000000000000000000000000000000000600052601160045260246000fd5b6000606080830173ffffffffffffffffffffffffffffffffffffffff88168452602063ffffffff80891682870152604084818801528388855260808801905060808960051b89010194508960005b8a811015612f67577fffffffffffffffffffffffffffffffffffffffffffffffffffffffffffffff808a880301835281357fffffffffffffffffffffffffffffffffffffffffffffffffffffffffffffffc18d3603018112612ea657600080fd5b8c0185612eb2826128bf565b168852868101357fffffffffffffffffffffffffffffffffffffffffffffffffffffffffffffffe1823603018112612ee957600080fd5b01868101903567ffffffffffffffff811115612f0457600080fd5b803603821315612f1357600080fd5b85888a015280868a015280828b8b013760008982018b0152601f017fffffffffffffffffffffffffffffffffffffffffffffffffffffffffffffffe016909701880196509185019190850190600101612e45565b50949c9b50505050505050505050505056fea2646970667358221220577a5d7037f517446d5f5217c81be1694fcca4b1ed4dd98a8d3aea50ff9674c964736f6c63430008130033",
  "linkReferences": {},
  "deployedLinkReferences": {}
}