{
  "_format": "hh-sol-artifact-1",
  "contractName": "ONFT721Mock",
  "sourceName": "contracts/mocks/ONFT721Mock.sol",
  "abi": [
    {
      "inputs": [
        {
          "internalType": "string",
          "name": "_name",
          "type": "string"
        },
        {
          "internalType": "string",
          "name": "_symbol",
          "type": "string"
        },
        {
          "internalType": "uint256",
          "name": "_minGasToStore",
          "type": "uint256"
        },
        {
          "internalType": "address",
          "name": "_layerZeroEndpoint",
          "type": "address"
        }
      ],
      "stateMutability": "nonpayable",
      "type": "constructor"
    },
    {
      "anonymous": false,
      "inputs": [
        {
          "indexed": true,
          "internalType": "address",
          "name": "owner",
          "type": "address"
        },
        {
          "indexed": true,
          "internalType": "address",
          "name": "approved",
          "type": "address"
        },
        {
          "indexed": true,
          "internalType": "uint256",
          "name": "tokenId",
          "type": "uint256"
        }
      ],
      "name": "Approval",
      "type": "event"
    },
    {
      "anonymous": false,
      "inputs": [
        {
          "indexed": true,
          "internalType": "address",
          "name": "owner",
          "type": "address"
        },
        {
          "indexed": true,
          "internalType": "address",
          "name": "operator",
          "type": "address"
        },
        {
          "indexed": false,
          "internalType": "bool",
          "name": "approved",
          "type": "bool"
        }
      ],
      "name": "ApprovalForAll",
      "type": "event"
    },
    {
      "anonymous": false,
      "inputs": [
        {
          "indexed": false,
          "internalType": "bytes32",
          "name": "_hashedPayload",
          "type": "bytes32"
        }
      ],
      "name": "CreditCleared",
      "type": "event"
    },
    {
      "anonymous": false,
      "inputs": [
        {
          "indexed": false,
          "internalType": "bytes32",
          "name": "_hashedPayload",
          "type": "bytes32"
        },
        {
          "indexed": false,
          "internalType": "bytes",
          "name": "_payload",
          "type": "bytes"
        }
      ],
      "name": "CreditStored",
      "type": "event"
    },
    {
      "anonymous": false,
      "inputs": [
        {
          "indexed": false,
          "internalType": "uint16",
          "name": "_srcChainId",
          "type": "uint16"
        },
        {
          "indexed": false,
          "internalType": "bytes",
          "name": "_srcAddress",
          "type": "bytes"
        },
        {
          "indexed": false,
          "internalType": "uint64",
          "name": "_nonce",
          "type": "uint64"
        },
        {
          "indexed": false,
          "internalType": "bytes",
          "name": "_payload",
          "type": "bytes"
        },
        {
          "indexed": false,
          "internalType": "bytes",
          "name": "_reason",
          "type": "bytes"
        }
      ],
      "name": "MessageFailed",
      "type": "event"
    },
    {
      "anonymous": false,
      "inputs": [
        {
          "indexed": true,
          "internalType": "address",
          "name": "previousOwner",
          "type": "address"
        },
        {
          "indexed": true,
          "internalType": "address",
          "name": "newOwner",
          "type": "address"
        }
      ],
      "name": "OwnershipTransferred",
      "type": "event"
    },
    {
      "anonymous": false,
      "inputs": [
        {
          "indexed": true,
          "internalType": "uint16",
          "name": "_srcChainId",
          "type": "uint16"
        },
        {
          "indexed": true,
          "internalType": "bytes",
          "name": "_srcAddress",
          "type": "bytes"
        },
        {
          "indexed": true,
          "internalType": "address",
          "name": "_toAddress",
          "type": "address"
        },
        {
          "indexed": false,
          "internalType": "uint256[]",
          "name": "_tokenIds",
          "type": "uint256[]"
        }
      ],
      "name": "ReceiveFromChain",
      "type": "event"
    },
    {
      "anonymous": false,
      "inputs": [
        {
          "indexed": false,
          "internalType": "uint16",
          "name": "_srcChainId",
          "type": "uint16"
        },
        {
          "indexed": false,
          "internalType": "bytes",
          "name": "_srcAddress",
          "type": "bytes"
        },
        {
          "indexed": false,
          "internalType": "uint64",
          "name": "_nonce",
          "type": "uint64"
        },
        {
          "indexed": false,
          "internalType": "bytes32",
          "name": "_payloadHash",
          "type": "bytes32"
        }
      ],
      "name": "RetryMessageSuccess",
      "type": "event"
    },
    {
      "anonymous": false,
      "inputs": [
        {
          "indexed": true,
          "internalType": "uint16",
          "name": "_dstChainId",
          "type": "uint16"
        },
        {
          "indexed": true,
          "internalType": "address",
          "name": "_from",
          "type": "address"
        },
        {
          "indexed": true,
          "internalType": "bytes",
          "name": "_toAddress",
          "type": "bytes"
        },
        {
          "indexed": false,
          "internalType": "uint256[]",
          "name": "_tokenIds",
          "type": "uint256[]"
        }
      ],
      "name": "SendToChain",
      "type": "event"
    },
    {
      "anonymous": false,
      "inputs": [
        {
          "indexed": false,
          "internalType": "uint16",
          "name": "_dstChainId",
          "type": "uint16"
        },
        {
          "indexed": false,
          "internalType": "uint256",
          "name": "_dstChainIdToBatchLimit",
          "type": "uint256"
        }
      ],
      "name": "SetDstChainIdToBatchLimit",
      "type": "event"
    },
    {
      "anonymous": false,
      "inputs": [
        {
          "indexed": false,
          "internalType": "uint16",
          "name": "_dstChainId",
          "type": "uint16"
        },
        {
          "indexed": false,
          "internalType": "uint256",
          "name": "_dstChainIdToTransferGas",
          "type": "uint256"
        }
      ],
      "name": "SetDstChainIdToTransferGas",
      "type": "event"
    },
    {
      "anonymous": false,
      "inputs": [
        {
          "indexed": false,
          "internalType": "uint16",
          "name": "_dstChainId",
          "type": "uint16"
        },
        {
          "indexed": false,
          "internalType": "uint16",
          "name": "_type",
          "type": "uint16"
        },
        {
          "indexed": false,
          "internalType": "uint256",
          "name": "_minDstGas",
          "type": "uint256"
        }
      ],
      "name": "SetMinDstGas",
      "type": "event"
    },
    {
      "anonymous": false,
      "inputs": [
        {
          "indexed": false,
          "internalType": "uint256",
          "name": "_minGasToTransferAndStore",
          "type": "uint256"
        }
      ],
      "name": "SetMinGasToTransferAndStore",
      "type": "event"
    },
    {
      "anonymous": false,
      "inputs": [
        {
          "indexed": false,
          "internalType": "address",
          "name": "precrime",
          "type": "address"
        }
      ],
      "name": "SetPrecrime",
      "type": "event"
    },
    {
      "anonymous": false,
      "inputs": [
        {
          "indexed": false,
          "internalType": "uint16",
          "name": "_remoteChainId",
          "type": "uint16"
        },
        {
          "indexed": false,
          "internalType": "bytes",
          "name": "_path",
          "type": "bytes"
        }
      ],
      "name": "SetTrustedRemote",
      "type": "event"
    },
    {
      "anonymous": false,
      "inputs": [
        {
          "indexed": false,
          "internalType": "uint16",
          "name": "_remoteChainId",
          "type": "uint16"
        },
        {
          "indexed": false,
          "internalType": "bytes",
          "name": "_remoteAddress",
          "type": "bytes"
        }
      ],
      "name": "SetTrustedRemoteAddress",
      "type": "event"
    },
    {
      "anonymous": false,
      "inputs": [
        {
          "indexed": true,
          "internalType": "address",
          "name": "from",
          "type": "address"
        },
        {
          "indexed": true,
          "internalType": "address",
          "name": "to",
          "type": "address"
        },
        {
          "indexed": true,
          "internalType": "uint256",
          "name": "tokenId",
          "type": "uint256"
        }
      ],
      "name": "Transfer",
      "type": "event"
    },
    {
      "inputs": [],
      "name": "DEFAULT_PAYLOAD_SIZE_LIMIT",
      "outputs": [
        {
          "internalType": "uint256",
          "name": "",
          "type": "uint256"
        }
      ],
      "stateMutability": "view",
      "type": "function"
    },
    {
      "inputs": [],
      "name": "FUNCTION_TYPE_SEND",
      "outputs": [
        {
          "internalType": "uint16",
          "name": "",
          "type": "uint16"
        }
      ],
      "stateMutability": "view",
      "type": "function"
    },
    {
      "inputs": [
        {
          "internalType": "address",
          "name": "to",
          "type": "address"
        },
        {
          "internalType": "uint256",
          "name": "tokenId",
          "type": "uint256"
        }
      ],
      "name": "approve",
      "outputs": [],
      "stateMutability": "nonpayable",
      "type": "function"
    },
    {
      "inputs": [
        {
          "internalType": "address",
          "name": "owner",
          "type": "address"
        }
      ],
      "name": "balanceOf",
      "outputs": [
        {
          "internalType": "uint256",
          "name": "",
          "type": "uint256"
        }
      ],
      "stateMutability": "view",
      "type": "function"
    },
    {
      "inputs": [
        {
          "internalType": "bytes",
          "name": "_payload",
          "type": "bytes"
        }
      ],
      "name": "clearCredits",
      "outputs": [],
      "stateMutability": "nonpayable",
      "type": "function"
    },
    {
      "inputs": [
        {
          "internalType": "uint16",
          "name": "",
          "type": "uint16"
        }
      ],
      "name": "dstChainIdToBatchLimit",
      "outputs": [
        {
          "internalType": "uint256",
          "name": "",
          "type": "uint256"
        }
      ],
      "stateMutability": "view",
      "type": "function"
    },
    {
      "inputs": [
        {
          "internalType": "uint16",
          "name": "",
          "type": "uint16"
        }
      ],
      "name": "dstChainIdToTransferGas",
      "outputs": [
        {
          "internalType": "uint256",
          "name": "",
          "type": "uint256"
        }
      ],
      "stateMutability": "view",
      "type": "function"
    },
    {
      "inputs": [
        {
          "internalType": "uint16",
          "name": "_dstChainId",
          "type": "uint16"
        },
        {
          "internalType": "bytes",
          "name": "_toAddress",
          "type": "bytes"
        },
        {
          "internalType": "uint256[]",
          "name": "_tokenIds",
          "type": "uint256[]"
        },
        {
          "internalType": "bool",
          "name": "_useZro",
          "type": "bool"
        },
        {
          "internalType": "bytes",
          "name": "_adapterParams",
          "type": "bytes"
        }
      ],
      "name": "estimateSendBatchFee",
      "outputs": [
        {
          "internalType": "uint256",
          "name": "nativeFee",
          "type": "uint256"
        },
        {
          "internalType": "uint256",
          "name": "zroFee",
          "type": "uint256"
        }
      ],
      "stateMutability": "view",
      "type": "function"
    },
    {
      "inputs": [
        {
          "internalType": "uint16",
          "name": "_dstChainId",
          "type": "uint16"
        },
        {
          "internalType": "bytes",
          "name": "_toAddress",
          "type": "bytes"
        },
        {
          "internalType": "uint256",
          "name": "_tokenId",
          "type": "uint256"
        },
        {
          "internalType": "bool",
          "name": "_useZro",
          "type": "bool"
        },
        {
          "internalType": "bytes",
          "name": "_adapterParams",
          "type": "bytes"
        }
      ],
      "name": "estimateSendFee",
      "outputs": [
        {
          "internalType": "uint256",
          "name": "nativeFee",
          "type": "uint256"
        },
        {
          "internalType": "uint256",
          "name": "zroFee",
          "type": "uint256"
        }
      ],
      "stateMutability": "view",
      "type": "function"
    },
    {
      "inputs": [
        {
          "internalType": "uint16",
          "name": "",
          "type": "uint16"
        },
        {
          "internalType": "bytes",
          "name": "",
          "type": "bytes"
        },
        {
          "internalType": "uint64",
          "name": "",
          "type": "uint64"
        }
      ],
      "name": "failedMessages",
      "outputs": [
        {
          "internalType": "bytes32",
          "name": "",
          "type": "bytes32"
        }
      ],
      "stateMutability": "view",
      "type": "function"
    },
    {
      "inputs": [
        {
          "internalType": "uint16",
          "name": "_srcChainId",
          "type": "uint16"
        },
        {
          "internalType": "bytes",
          "name": "_srcAddress",
          "type": "bytes"
        }
      ],
      "name": "forceResumeReceive",
      "outputs": [],
      "stateMutability": "nonpayable",
      "type": "function"
    },
    {
      "inputs": [
        {
          "internalType": "uint256",
          "name": "tokenId",
          "type": "uint256"
        }
      ],
      "name": "getApproved",
      "outputs": [
        {
          "internalType": "address",
          "name": "",
          "type": "address"
        }
      ],
      "stateMutability": "view",
      "type": "function"
    },
    {
      "inputs": [
        {
          "internalType": "uint16",
          "name": "_version",
          "type": "uint16"
        },
        {
          "internalType": "uint16",
          "name": "_chainId",
          "type": "uint16"
        },
        {
          "internalType": "address",
          "name": "",
          "type": "address"
        },
        {
          "internalType": "uint256",
          "name": "_configType",
          "type": "uint256"
        }
      ],
      "name": "getConfig",
      "outputs": [
        {
          "internalType": "bytes",
          "name": "",
          "type": "bytes"
        }
      ],
      "stateMutability": "view",
      "type": "function"
    },
    {
      "inputs": [
        {
          "internalType": "uint16",
          "name": "_remoteChainId",
          "type": "uint16"
        }
      ],
      "name": "getTrustedRemoteAddress",
      "outputs": [
        {
          "internalType": "bytes",
          "name": "",
          "type": "bytes"
        }
      ],
      "stateMutability": "view",
      "type": "function"
    },
    {
      "inputs": [
        {
          "internalType": "address",
          "name": "owner",
          "type": "address"
        },
        {
          "internalType": "address",
          "name": "operator",
          "type": "address"
        }
      ],
      "name": "isApprovedForAll",
      "outputs": [
        {
          "internalType": "bool",
          "name": "",
          "type": "bool"
        }
      ],
      "stateMutability": "view",
      "type": "function"
    },
    {
      "inputs": [
        {
          "internalType": "uint16",
          "name": "_srcChainId",
          "type": "uint16"
        },
        {
          "internalType": "bytes",
          "name": "_srcAddress",
          "type": "bytes"
        }
      ],
      "name": "isTrustedRemote",
      "outputs": [
        {
          "internalType": "bool",
          "name": "",
          "type": "bool"
        }
      ],
      "stateMutability": "view",
      "type": "function"
    },
    {
      "inputs": [],
      "name": "lzEndpoint",
      "outputs": [
        {
          "internalType": "contract ILayerZeroEndpoint",
          "name": "",
          "type": "address"
        }
      ],
      "stateMutability": "view",
      "type": "function"
    },
    {
      "inputs": [
        {
          "internalType": "uint16",
          "name": "_srcChainId",
          "type": "uint16"
        },
        {
          "internalType": "bytes",
          "name": "_srcAddress",
          "type": "bytes"
        },
        {
          "internalType": "uint64",
          "name": "_nonce",
          "type": "uint64"
        },
        {
          "internalType": "bytes",
          "name": "_payload",
          "type": "bytes"
        }
      ],
      "name": "lzReceive",
      "outputs": [],
      "stateMutability": "nonpayable",
      "type": "function"
    },
    {
      "inputs": [
        {
          "internalType": "uint16",
          "name": "",
          "type": "uint16"
        },
        {
          "internalType": "uint16",
          "name": "",
          "type": "uint16"
        }
      ],
      "name": "minDstGasLookup",
      "outputs": [
        {
          "internalType": "uint256",
          "name": "",
          "type": "uint256"
        }
      ],
      "stateMutability": "view",
      "type": "function"
    },
    {
      "inputs": [],
      "name": "minGasToTransferAndStore",
      "outputs": [
        {
          "internalType": "uint256",
          "name": "",
          "type": "uint256"
        }
      ],
      "stateMutability": "view",
      "type": "function"
    },
    {
      "inputs": [
        {
          "internalType": "address",
          "name": "_tokenOwner",
          "type": "address"
        },
        {
          "internalType": "uint256",
          "name": "_newId",
          "type": "uint256"
        }
      ],
      "name": "mint",
      "outputs": [],
      "stateMutability": "payable",
      "type": "function"
    },
    {
      "inputs": [],
      "name": "name",
      "outputs": [
        {
          "internalType": "string",
          "name": "",
          "type": "string"
        }
      ],
      "stateMutability": "view",
      "type": "function"
    },
    {
      "inputs": [
        {
          "internalType": "uint16",
          "name": "_srcChainId",
          "type": "uint16"
        },
        {
          "internalType": "bytes",
          "name": "_srcAddress",
          "type": "bytes"
        },
        {
          "internalType": "uint64",
          "name": "_nonce",
          "type": "uint64"
        },
        {
          "internalType": "bytes",
          "name": "_payload",
          "type": "bytes"
        }
      ],
      "name": "nonblockingLzReceive",
      "outputs": [],
      "stateMutability": "nonpayable",
      "type": "function"
    },
    {
      "inputs": [],
      "name": "owner",
      "outputs": [
        {
          "internalType": "address",
          "name": "",
          "type": "address"
        }
      ],
      "stateMutability": "view",
      "type": "function"
    },
    {
      "inputs": [
        {
          "internalType": "uint256",
          "name": "tokenId",
          "type": "uint256"
        }
      ],
      "name": "ownerOf",
      "outputs": [
        {
          "internalType": "address",
          "name": "",
          "type": "address"
        }
      ],
      "stateMutability": "view",
      "type": "function"
    },
    {
      "inputs": [
        {
          "internalType": "uint16",
          "name": "",
          "type": "uint16"
        }
      ],
      "name": "payloadSizeLimitLookup",
      "outputs": [
        {
          "internalType": "uint256",
          "name": "",
          "type": "uint256"
        }
      ],
      "stateMutability": "view",
      "type": "function"
    },
    {
      "inputs": [],
      "name": "precrime",
      "outputs": [
        {
          "internalType": "address",
          "name": "",
          "type": "address"
        }
      ],
      "stateMutability": "view",
      "type": "function"
    },
    {
      "inputs": [
        {
          "internalType": "uint256",
          "name": "tokenId",
          "type": "uint256"
        }
      ],
      "name": "rawOwnerOf",
      "outputs": [
        {
          "internalType": "address",
          "name": "",
          "type": "address"
        }
      ],
      "stateMutability": "view",
      "type": "function"
    },
    {
      "inputs": [],
      "name": "renounceOwnership",
      "outputs": [],
      "stateMutability": "nonpayable",
      "type": "function"
    },
    {
      "inputs": [
        {
          "internalType": "uint16",
          "name": "_srcChainId",
          "type": "uint16"
        },
        {
          "internalType": "bytes",
          "name": "_srcAddress",
          "type": "bytes"
        },
        {
          "internalType": "uint64",
          "name": "_nonce",
          "type": "uint64"
        },
        {
          "internalType": "bytes",
          "name": "_payload",
          "type": "bytes"
        }
      ],
      "name": "retryMessage",
      "outputs": [],
      "stateMutability": "payable",
      "type": "function"
    },
    {
      "inputs": [
        {
          "internalType": "address",
          "name": "from",
          "type": "address"
        },
        {
          "internalType": "address",
          "name": "to",
          "type": "address"
        },
        {
          "internalType": "uint256",
          "name": "tokenId",
          "type": "uint256"
        }
      ],
      "name": "safeTransferFrom",
      "outputs": [],
      "stateMutability": "nonpayable",
      "type": "function"
    },
    {
      "inputs": [
        {
          "internalType": "address",
          "name": "from",
          "type": "address"
        },
        {
          "internalType": "address",
          "name": "to",
          "type": "address"
        },
        {
          "internalType": "uint256",
          "name": "tokenId",
          "type": "uint256"
        },
        {
          "internalType": "bytes",
          "name": "data",
          "type": "bytes"
        }
      ],
      "name": "safeTransferFrom",
      "outputs": [],
      "stateMutability": "nonpayable",
      "type": "function"
    },
    {
      "inputs": [
        {
          "internalType": "address",
          "name": "_from",
          "type": "address"
        },
        {
          "internalType": "uint16",
          "name": "_dstChainId",
          "type": "uint16"
        },
        {
          "internalType": "bytes",
          "name": "_toAddress",
          "type": "bytes"
        },
        {
          "internalType": "uint256[]",
          "name": "_tokenIds",
          "type": "uint256[]"
        },
        {
          "internalType": "address payable",
          "name": "_refundAddress",
          "type": "address"
        },
        {
          "internalType": "address",
          "name": "_zroPaymentAddress",
          "type": "address"
        },
        {
          "internalType": "bytes",
          "name": "_adapterParams",
          "type": "bytes"
        }
      ],
      "name": "sendBatchFrom",
      "outputs": [],
      "stateMutability": "payable",
      "type": "function"
    },
    {
      "inputs": [
        {
          "internalType": "address",
          "name": "_from",
          "type": "address"
        },
        {
          "internalType": "uint16",
          "name": "_dstChainId",
          "type": "uint16"
        },
        {
          "internalType": "bytes",
          "name": "_toAddress",
          "type": "bytes"
        },
        {
          "internalType": "uint256",
          "name": "_tokenId",
          "type": "uint256"
        },
        {
          "internalType": "address payable",
          "name": "_refundAddress",
          "type": "address"
        },
        {
          "internalType": "address",
          "name": "_zroPaymentAddress",
          "type": "address"
        },
        {
          "internalType": "bytes",
          "name": "_adapterParams",
          "type": "bytes"
        }
      ],
      "name": "sendFrom",
      "outputs": [],
      "stateMutability": "payable",
      "type": "function"
    },
    {
      "inputs": [
        {
          "internalType": "address",
          "name": "operator",
          "type": "address"
        },
        {
          "internalType": "bool",
          "name": "approved",
          "type": "bool"
        }
      ],
      "name": "setApprovalForAll",
      "outputs": [],
      "stateMutability": "nonpayable",
      "type": "function"
    },
    {
      "inputs": [
        {
          "internalType": "uint16",
          "name": "_version",
          "type": "uint16"
        },
        {
          "internalType": "uint16",
          "name": "_chainId",
          "type": "uint16"
        },
        {
          "internalType": "uint256",
          "name": "_configType",
          "type": "uint256"
        },
        {
          "internalType": "bytes",
          "name": "_config",
          "type": "bytes"
        }
      ],
      "name": "setConfig",
      "outputs": [],
      "stateMutability": "nonpayable",
      "type": "function"
    },
    {
      "inputs": [
        {
          "internalType": "uint16",
          "name": "_dstChainId",
          "type": "uint16"
        },
        {
          "internalType": "uint256",
          "name": "_dstChainIdToBatchLimit",
          "type": "uint256"
        }
      ],
      "name": "setDstChainIdToBatchLimit",
      "outputs": [],
      "stateMutability": "nonpayable",
      "type": "function"
    },
    {
      "inputs": [
        {
          "internalType": "uint16",
          "name": "_dstChainId",
          "type": "uint16"
        },
        {
          "internalType": "uint256",
          "name": "_dstChainIdToTransferGas",
          "type": "uint256"
        }
      ],
      "name": "setDstChainIdToTransferGas",
      "outputs": [],
      "stateMutability": "nonpayable",
      "type": "function"
    },
    {
      "inputs": [
        {
          "internalType": "uint16",
          "name": "_dstChainId",
          "type": "uint16"
        },
        {
          "internalType": "uint16",
          "name": "_packetType",
          "type": "uint16"
        },
        {
          "internalType": "uint256",
          "name": "_minGas",
          "type": "uint256"
        }
      ],
      "name": "setMinDstGas",
      "outputs": [],
      "stateMutability": "nonpayable",
      "type": "function"
    },
    {
      "inputs": [
        {
          "internalType": "uint256",
          "name": "_minGasToTransferAndStore",
          "type": "uint256"
        }
      ],
      "name": "setMinGasToTransferAndStore",
      "outputs": [],
      "stateMutability": "nonpayable",
      "type": "function"
    },
    {
      "inputs": [
        {
          "internalType": "uint16",
          "name": "_dstChainId",
          "type": "uint16"
        },
        {
          "internalType": "uint256",
          "name": "_size",
          "type": "uint256"
        }
      ],
      "name": "setPayloadSizeLimit",
      "outputs": [],
      "stateMutability": "nonpayable",
      "type": "function"
    },
    {
      "inputs": [
        {
          "internalType": "address",
          "name": "_precrime",
          "type": "address"
        }
      ],
      "name": "setPrecrime",
      "outputs": [],
      "stateMutability": "nonpayable",
      "type": "function"
    },
    {
      "inputs": [
        {
          "internalType": "uint16",
          "name": "_version",
          "type": "uint16"
        }
      ],
      "name": "setReceiveVersion",
      "outputs": [],
      "stateMutability": "nonpayable",
      "type": "function"
    },
    {
      "inputs": [
        {
          "internalType": "uint16",
          "name": "_version",
          "type": "uint16"
        }
      ],
      "name": "setSendVersion",
      "outputs": [],
      "stateMutability": "nonpayable",
      "type": "function"
    },
    {
      "inputs": [
        {
          "internalType": "uint16",
          "name": "_remoteChainId",
          "type": "uint16"
        },
        {
          "internalType": "bytes",
          "name": "_path",
          "type": "bytes"
        }
      ],
      "name": "setTrustedRemote",
      "outputs": [],
      "stateMutability": "nonpayable",
      "type": "function"
    },
    {
      "inputs": [
        {
          "internalType": "uint16",
          "name": "_remoteChainId",
          "type": "uint16"
        },
        {
          "internalType": "bytes",
          "name": "_remoteAddress",
          "type": "bytes"
        }
      ],
      "name": "setTrustedRemoteAddress",
      "outputs": [],
      "stateMutability": "nonpayable",
      "type": "function"
    },
    {
      "inputs": [
        {
          "internalType": "bytes32",
          "name": "",
          "type": "bytes32"
        }
      ],
      "name": "storedCredits",
      "outputs": [
        {
          "internalType": "uint16",
          "name": "srcChainId",
          "type": "uint16"
        },
        {
          "internalType": "address",
          "name": "toAddress",
          "type": "address"
        },
        {
          "internalType": "uint256",
          "name": "index",
          "type": "uint256"
        },
        {
          "internalType": "bool",
          "name": "creditsRemain",
          "type": "bool"
        }
      ],
      "stateMutability": "view",
      "type": "function"
    },
    {
      "inputs": [
        {
          "internalType": "bytes4",
          "name": "interfaceId",
          "type": "bytes4"
        }
      ],
      "name": "supportsInterface",
      "outputs": [
        {
          "internalType": "bool",
          "name": "",
          "type": "bool"
        }
      ],
      "stateMutability": "view",
      "type": "function"
    },
    {
      "inputs": [],
      "name": "symbol",
      "outputs": [
        {
          "internalType": "string",
          "name": "",
          "type": "string"
        }
      ],
      "stateMutability": "view",
      "type": "function"
    },
    {
      "inputs": [
        {
          "internalType": "uint256",
          "name": "tokenId",
          "type": "uint256"
        }
      ],
      "name": "tokenURI",
      "outputs": [
        {
          "internalType": "string",
          "name": "",
          "type": "string"
        }
      ],
      "stateMutability": "view",
      "type": "function"
    },
    {
      "inputs": [
        {
          "internalType": "address",
          "name": "from",
          "type": "address"
        },
        {
          "internalType": "address",
          "name": "to",
          "type": "address"
        },
        {
          "internalType": "uint256",
          "name": "tokenId",
          "type": "uint256"
        }
      ],
      "name": "transferFrom",
      "outputs": [],
      "stateMutability": "nonpayable",
      "type": "function"
    },
    {
      "inputs": [
        {
          "internalType": "address",
          "name": "newOwner",
          "type": "address"
        }
      ],
      "name": "transferOwnership",
      "outputs": [],
      "stateMutability": "nonpayable",
      "type": "function"
    },
    {
      "inputs": [
        {
          "internalType": "uint16",
          "name": "",
          "type": "uint16"
        }
      ],
      "name": "trustedRemoteLookup",
      "outputs": [
        {
          "internalType": "bytes",
          "name": "",
          "type": "bytes"
        }
      ],
      "stateMutability": "view",
      "type": "function"
    }
  ],
  "bytecode": "0x60a06040523480156200001157600080fd5b5060405162004a9d38038062004a9d8339810160408190526200003491620002bc565b838383838383838380806200004933620000f9565b6001600160a01b031660805250600160065581620000b95760405162461bcd60e51b8152602060048201526024808201527f6d696e476173546f5472616e73666572416e6453746f7265206d7573742062656044820152630203e20360e41b606482015260840160405180910390fd5b506007558151620000d290600b90602085019062000149565b508051620000e890600c90602084019062000149565b50505050505050505050506200038e565b600080546001600160a01b038381166001600160a01b0319831681178455604051919092169283917f8be0079c531659141344cd1fd0a4f28419497f9722a3daafe3b4186f6b6457e09190a35050565b828054620001579062000351565b90600052602060002090601f0160209004810192826200017b5760008555620001c6565b82601f106200019657805160ff1916838001178555620001c6565b82800160010185558215620001c6579182015b82811115620001c6578251825591602001919060010190620001a9565b50620001d4929150620001d8565b5090565b5b80821115620001d45760008155600101620001d9565b634e487b7160e01b600052604160045260246000fd5b600082601f8301126200021757600080fd5b81516001600160401b0380821115620002345762000234620001ef565b604051601f8301601f19908116603f011681019082821181831017156200025f576200025f620001ef565b816040528381526020925086838588010111156200027c57600080fd5b600091505b83821015620002a0578582018301518183018401529082019062000281565b83821115620002b25760008385830101525b9695505050505050565b60008060008060808587031215620002d357600080fd5b84516001600160401b0380821115620002eb57600080fd5b620002f98883890162000205565b955060208701519150808211156200031057600080fd5b506200031f8782880162000205565b60408701516060880151919550935090506001600160a01b03811681146200034657600080fd5b939692955090935050565b600181811c908216806200036657607f821691505b602082108114156200038857634e487b7160e01b600052602260045260246000fd5b50919050565b6080516146bb620003e2600039600081816108c701528181610acb01528181610dcf01528181611054015281816111f701528181611afc01528181611f83015281816120b601526130c201526146bb6000f3fe6080604052600436106103195760003560e01c80637f81be69116101ab578063b88d4fde116100f7578063df2a5b3b11610095578063f23536411161006f578063f235364114610a3b578063f2fde38b14610a5b578063f5ecbdbc14610a7b578063fa25f9b614610a9b57600080fd5b8063df2a5b3b146109b2578063e985e9c5146109d2578063eb8d72b714610a1b57600080fd5b8063c87b56dd116100d1578063c87b56dd1461093f578063cbed8b9c1461095f578063d12473a51461097f578063d1deba1f1461099f57600080fd5b8063b88d4fde146108e9578063baf3292d14610909578063c44618341461092957600080fd5b80639ea5d6b111610164578063a6c3d1651161013e578063a6c3d1651461085a578063ab3ffb931461087a578063af3fb21c1461088d578063b353aaa7146108b557600080fd5b80639ea5d6b1146107fa5780639f38369a1461081a578063a22cb4651461083a57600080fd5b80637f81be691461072f5780638cfd8f5c1461074f5780638da5cb5b146107875780638ffa1f2a146107a5578063950c8a74146107c557806395d89b41146107e557600080fd5b80633f1f4fa41161026a578063519056361161022357806366ad5c8a116101fd57806366ad5c8a146106ba57806370a08231146106da578063715018a6146106fa5780637533d7881461070f57600080fd5b806351905636146106385780635b8c41e61461064b5780636352211e1461069a57600080fd5b80633f1f4fa41461056757806340c10f19146105a257806342842e0e146105b557806342d65a8d146105d557806348288190146105f55780634ac3f4ff1461060b57600080fd5b80630b4cad4c116102d757806322a3ecf9116102b157806322a3ecf91461046f57806323b872dd146104f25780632a205e3d146105125780633d8b38f61461054757600080fd5b80630b4cad4c1461040f5780630df374831461042f57806310ddb1371461044f57600080fd5b80621d35671461031e57806301ffc9a71461034057806306fdde031461037557806307e0db1714610397578063081812fc146103b7578063095ea7b3146103ef575b600080fd5b34801561032a57600080fd5b5061033e61033936600461372b565b610ac8565b005b34801561034c57600080fd5b5061036061035b3660046137d4565b610cf9565b60405190151581526020015b60405180910390f35b34801561038157600080fd5b5061038a610d1c565b60405161036c9190613849565b3480156103a357600080fd5b5061033e6103b236600461385c565b610dae565b3480156103c357600080fd5b506103d76103d2366004613877565b610e37565b6040516001600160a01b03909116815260200161036c565b3480156103fb57600080fd5b5061033e61040a3660046138b0565b610e5e565b34801561041b57600080fd5b5061033e61042a366004613877565b610f74565b34801561043b57600080fd5b5061033e61044a3660046138dc565b611014565b34801561045b57600080fd5b5061033e61046a36600461385c565b611033565b34801561047b57600080fd5b506104c361048a366004613877565b600a6020526000908152604090208054600182015460029092015461ffff821692620100009092046001600160a01b0316919060ff1684565b6040805161ffff90951685526001600160a01b039093166020850152918301521515606082015260800161036c565b3480156104fe57600080fd5b5061033e61050d3660046138f8565b61108b565b34801561051e57600080fd5b5061053261052d366004613a0c565b6110bd565b6040805192835260208301919091520161036c565b34801561055357600080fd5b50610360610562366004613a9a565b6110e3565b34801561057357600080fd5b5061059461058236600461385c565b60036020526000908152604090205481565b60405190815260200161036c565b61033e6105b03660046138b0565b6111af565b3480156105c157600080fd5b5061033e6105d03660046138f8565b6111bd565b3480156105e157600080fd5b5061033e6105f0366004613a9a565b6111d8565b34801561060157600080fd5b5061059460075481565b34801561061757600080fd5b5061059461062636600461385c565b60086020526000908152604090205481565b61033e610646366004613aec565b61125e565b34801561065757600080fd5b50610594610666366004613ba5565b6005602090815260009384526040808520845180860184018051928152908401958401959095209452929052825290205481565b3480156106a657600080fd5b506103d76106b5366004613877565b611275565b3480156106c657600080fd5b5061033e6106d536600461372b565b6112d5565b3480156106e657600080fd5b506105946106f5366004613c02565b6113b1565b34801561070657600080fd5b5061033e611437565b34801561071b57600080fd5b5061038a61072a36600461385c565b61144b565b34801561073b57600080fd5b506103d761074a366004613877565b6114e5565b34801561075b57600080fd5b5061059461076a366004613c1f565b600260209081526000928352604080842090915290825290205481565b34801561079357600080fd5b506000546001600160a01b03166103d7565b3480156107b157600080fd5b5061033e6107c0366004613c52565b611506565b3480156107d157600080fd5b506004546103d7906001600160a01b031681565b3480156107f157600080fd5b5061038a611752565b34801561080657600080fd5b5061033e6108153660046138dc565b611761565b34801561082657600080fd5b5061038a61083536600461385c565b611818565b34801561084657600080fd5b5061033e610855366004613c86565b61192f565b34801561086657600080fd5b5061033e610875366004613a9a565b61193a565b61033e610888366004613d3b565b6119cd565b34801561089957600080fd5b506108a2600181565b60405161ffff909116815260200161036c565b3480156108c157600080fd5b506103d77f000000000000000000000000000000000000000000000000000000000000000081565b3480156108f557600080fd5b5061033e610904366004613df0565b6119dc565b34801561091557600080fd5b5061033e610924366004613c02565b611a14565b34801561093557600080fd5b5061059461271081565b34801561094b57600080fd5b5061038a61095a366004613877565b611a6a565b34801561096b57600080fd5b5061033e61097a366004613e5b565b611add565b34801561098b57600080fd5b5061033e61099a3660046138dc565b611b72565b61033e6109ad36600461372b565b611c22565b3480156109be57600080fd5b5061033e6109cd366004613ec9565b611e38565b3480156109de57600080fd5b506103606109ed366004613f05565b6001600160a01b03918216600090815260106020908152604080832093909416825291909152205460ff1690565b348015610a2757600080fd5b5061033e610a36366004613a9a565b611eea565b348015610a4757600080fd5b50610532610a56366004613f3e565b611f44565b348015610a6757600080fd5b5061033e610a76366004613c02565b61200f565b348015610a8757600080fd5b5061038a610a96366004613fb7565b612085565b348015610aa757600080fd5b50610594610ab636600461385c565b60096020526000908152604090205481565b337f00000000000000000000000000000000000000000000000000000000000000006001600160a01b031614610b455760405162461bcd60e51b815260206004820152601e60248201527f4c7a4170703a20696e76616c696420656e64706f696e742063616c6c6572000060448201526064015b60405180910390fd5b61ffff861660009081526001602052604081208054610b6390614004565b80601f0160208091040260200160405190810160405280929190818152602001828054610b8f90614004565b8015610bdc5780601f10610bb157610100808354040283529160200191610bdc565b820191906000526020600020905b815481529060010190602001808311610bbf57829003601f168201915b50505050509050805186869050148015610bf7575060008151115b8015610c1f575080516020820120604051610c15908890889061403f565b6040518091039020145b610c7a5760405162461bcd60e51b815260206004820152602660248201527f4c7a4170703a20696e76616c696420736f757263652073656e64696e6720636f6044820152651b9d1c9858dd60d21b6064820152608401610b3c565b610cf08787878080601f01602080910402602001604051908101604052809392919081815260200183838082843760009201919091525050604080516020601f8a018190048102820181019092528881528a93509150889088908190840183828082843760009201919091525061213892505050565b50505050505050565b60006001600160e01b031982161580610d165750610d16826121b1565b92915050565b6060600b8054610d2b90614004565b80601f0160208091040260200160405190810160405280929190818152602001828054610d5790614004565b8015610da45780601f10610d7957610100808354040283529160200191610da4565b820191906000526020600020905b815481529060010190602001808311610d8757829003601f168201915b5050505050905090565b610db66121f1565b6040516307e0db1760e01b815261ffff821660048201527f00000000000000000000000000000000000000000000000000000000000000006001600160a01b0316906307e0db17906024015b600060405180830381600087803b158015610e1c57600080fd5b505af1158015610e30573d6000803e3d6000fd5b5050505050565b6000610e428261224b565b506000908152600f60205260409020546001600160a01b031690565b6000610e6982611275565b9050806001600160a01b0316836001600160a01b03161415610ed75760405162461bcd60e51b815260206004820152602160248201527f4552433732313a20617070726f76616c20746f2063757272656e74206f776e656044820152603960f91b6064820152608401610b3c565b336001600160a01b0382161480610ef35750610ef381336109ed565b610f655760405162461bcd60e51b815260206004820152603d60248201527f4552433732313a20617070726f76652063616c6c6572206973206e6f7420746f60448201527f6b656e206f776e6572206f7220617070726f76656420666f7220616c6c0000006064820152608401610b3c565b610f6f838361229b565b505050565b610f7c6121f1565b60008111610fd85760405162461bcd60e51b8152602060048201526024808201527f6d696e476173546f5472616e73666572416e6453746f7265206d7573742062656044820152630203e20360e41b6064820152608401610b3c565b60078190556040518181527ffebbc4f8bb9ec2313950c718d43123124b15778efda4c1f1d529de2995b4f34d906020015b60405180910390a150565b61101c6121f1565b61ffff909116600090815260036020526040902055565b61103b6121f1565b6040516310ddb13760e01b815261ffff821660048201527f00000000000000000000000000000000000000000000000000000000000000006001600160a01b0316906310ddb13790602401610e02565b611096335b82612309565b6110b25760405162461bcd60e51b8152600401610b3c9061404f565b610f6f838383612387565b6000806110d587876110ce886124eb565b8787611f44565b915091509550959350505050565b61ffff83166000908152600160205260408120805482919061110490614004565b80601f016020809104026020016040519081016040528092919081815260200182805461113090614004565b801561117d5780601f106111525761010080835404028352916020019161117d565b820191906000526020600020905b81548152906001019060200180831161116057829003601f168201915b50505050509050838360405161119492919061403f565b60405180910390208180519060200120149150509392505050565b6111b98282612536565b5050565b610f6f838383604051806020016040528060008152506119dc565b6111e06121f1565b6040516342d65a8d60e01b81526001600160a01b037f000000000000000000000000000000000000000000000000000000000000000016906342d65a8d90611230908690869086906004016140c5565b600060405180830381600087803b15801561124a57600080fd5b505af1158015610cf0573d6000803e3d6000fd5b610cf087878761126d886124eb565b878787612550565b6000818152600d60205260408120546001600160a01b031680610d165760405162461bcd60e51b8152602060048201526018602482015277115490cdcc8c4e881a5b9d985b1a59081d1bdad95b88125160421b6044820152606401610b3c565b3330146113335760405162461bcd60e51b815260206004820152602660248201527f4e6f6e626c6f636b696e674c7a4170703a2063616c6c6572206d7573742062656044820152650204c7a4170760d41b6064820152608401610b3c565b6113a98686868080601f01602080910402602001604051908101604052809392919081815260200183838082843760009201919091525050604080516020601f89018190048102820181019092528781528993509150879087908190840183828082843760009201919091525061272492505050565b505050505050565b60006001600160a01b03821661141b5760405162461bcd60e51b815260206004820152602960248201527f4552433732313a2061646472657373207a65726f206973206e6f7420612076616044820152683634b21037bbb732b960b91b6064820152608401610b3c565b506001600160a01b03166000908152600e602052604090205490565b61143f6121f1565b611449600061287b565b565b6001602052600090815260409020805461146490614004565b80601f016020809104026020016040519081016040528092919081815260200182805461149090614004565b80156114dd5780601f106114b2576101008083540402835291602001916114dd565b820191906000526020600020905b8154815290600101906020018083116114c057829003601f168201915b505050505081565b60006114f0826128cb565b156114fe57610d1682611275565b506000919050565b61150e6128e8565b80516020808301919091206000818152600a90925260409091206002015460ff1661156f5760405162461bcd60e51b81526020600482015260116024820152701b9bc818dc99591a5d1cc81cdd1bdc9959607a1b6044820152606401610b3c565b6000828060200190518101906115859190614128565b6000848152600a6020526040812080546001909101549294509092506115c19161ffff8216916201000090046001600160a01b03169085612942565b6000848152600a602052604090206001015490915081116116365760405162461bcd60e51b815260206004820152602960248201527f6e6f7420656e6f7567682067617320746f2070726f6365737320637265646974604482015268103a3930b739b332b960b91b6064820152608401610b3c565b81518114156116ae576000838152600a602052604080822080546001600160b01b031916815560018101929092556002909101805460ff19169055517fd7be02b8dd0d27bd0517a9cb4d7469ce27df4313821ae5ec1ff69acc594ba233906116a19085815260200190565b60405180910390a1611742565b604080516080810182526000858152600a6020818152848320805461ffff80821687526001600160a01b03620100008084048216868a019081529989018b8152600160608b01818152998f90529790965297519851169096026001600160b01b03199091169690951695909517939093178455915191830191909155516002909101805491151560ff199092169190911790555b50505061174f6001600655565b50565b6060600c8054610d2b90614004565b6117696121f1565b600081116117c45760405162461bcd60e51b815260206004820152602260248201527f647374436861696e4964546f42617463684c696d6974206d757374206265203e604482015261020360f41b6064820152608401610b3c565b61ffff8216600081815260086020908152604091829020849055815192835282018390527f7315f7654d594ead24a30160ed9ba2d23247f543016b918343591e93d7afdb6d91015b60405180910390a15050565b61ffff811660009081526001602052604081208054606092919061183b90614004565b80601f016020809104026020016040519081016040528092919081815260200182805461186790614004565b80156118b45780601f10611889576101008083540402835291602001916118b4565b820191906000526020600020905b81548152906001019060200180831161189757829003601f168201915b5050505050905080516000141561190d5760405162461bcd60e51b815260206004820152601d60248201527f4c7a4170703a206e6f20747275737465642070617468207265636f72640000006044820152606401610b3c565b61192860006014835161192091906141f8565b839190612994565b9392505050565b6111b9338383612aa1565b6119426121f1565b8181306040516020016119579392919061420f565b60408051601f1981840301815291815261ffff8516600090815260016020908152919020825161198c939192909101906135a8565b507f8c0400cfe2d1199b1a725c78960bcc2a344d869b80590d0f2bd005db15a572ce8383836040516119c0939291906140c5565b60405180910390a1505050565b610cf087878787878787612550565b6119e63383612309565b611a025760405162461bcd60e51b8152600401610b3c9061404f565b611a0e84848484612b70565b50505050565b611a1c6121f1565b600480546001600160a01b0319166001600160a01b0383169081179091556040519081527f5db758e995a17ec1ad84bdef7e8c3293a0bd6179bcce400dff5d4c3d87db726b90602001611009565b6060611a758261224b565b6000611a8c60408051602081019091526000815290565b90506000815111611aac5760405180602001604052806000815250611928565b80611ab684612ba3565b604051602001611ac7929190614235565b6040516020818303038152906040529392505050565b611ae56121f1565b6040516332fb62e760e21b81526001600160a01b037f0000000000000000000000000000000000000000000000000000000000000000169063cbed8b9c90611b399088908890889088908890600401614264565b600060405180830381600087803b158015611b5357600080fd5b505af1158015611b67573d6000803e3d6000fd5b505050505050505050565b611b7a6121f1565b60008111611bd65760405162461bcd60e51b815260206004820152602360248201527f647374436861696e4964546f5472616e73666572476173206d7573742062652060448201526203e20360ec1b6064820152608401610b3c565b61ffff8216600081815260096020908152604091829020849055815192835282018390527fc46df2983228ac2d9754e94a0d565e6671665dc8ad38602bc8e544f0685a29fb910161180c565b61ffff86166000908152600560205260408082209051611c45908890889061403f565b90815260408051602092819003830190206001600160401b03871660009081529252902054905080611cc55760405162461bcd60e51b815260206004820152602360248201527f4e6f6e626c6f636b696e674c7a4170703a206e6f2073746f726564206d65737360448201526261676560e81b6064820152608401610b3c565b808383604051611cd692919061403f565b604051809103902014611d355760405162461bcd60e51b815260206004820152602160248201527f4e6f6e626c6f636b696e674c7a4170703a20696e76616c6964207061796c6f616044820152601960fa1b6064820152608401610b3c565b61ffff87166000908152600560205260408082209051611d58908990899061403f565b90815260408051602092819003830181206001600160401b038916600090815290845282902093909355601f88018290048202830182019052868252611df0918991899089908190840183828082843760009201919091525050604080516020601f8a018190048102820181019092528881528a93509150889088908190840183828082843760009201919091525061272492505050565b7fc264d91f3adc5588250e1551f547752ca0cfa8f6b530d243b9f9f4cab10ea8e58787878785604051611e2795949392919061429d565b60405180910390a150505050505050565b611e406121f1565b60008111611e885760405162461bcd60e51b81526020600482015260156024820152744c7a4170703a20696e76616c6964206d696e47617360581b6044820152606401610b3c565b61ffff83811660008181526002602090815260408083209487168084529482529182902085905581519283528201929092529081018290527f9d5c7c0b934da8fefa9c7760c98383778a12dfbfc0c3b3106518f43fb9508ac0906060016119c0565b611ef26121f1565b61ffff83166000908152600160205260409020611f1090838361362c565b507ffa41487ad5d6728f0b19276fa1eddc16558578f5109fc39d2dc33c3230470dab8383836040516119c0939291906140c5565b60008060008686604051602001611f5c929190614313565b60408051601f198184030181529082905263040a7bb160e41b825291506001600160a01b037f000000000000000000000000000000000000000000000000000000000000000016906340a7bb1090611fc0908b90309086908b908b90600401614341565b6040805180830381865afa158015611fdc573d6000803e3d6000fd5b505050506040513d601f19601f820116820180604052508101906120009190614395565b92509250509550959350505050565b6120176121f1565b6001600160a01b03811661207c5760405162461bcd60e51b815260206004820152602660248201527f4f776e61626c653a206e6577206f776e657220697320746865207a65726f206160448201526564647265737360d01b6064820152608401610b3c565b61174f8161287b565b604051633d7b2f6f60e21b815261ffff808616600483015284166024820152306044820152606481018290526060907f00000000000000000000000000000000000000000000000000000000000000006001600160a01b03169063f5ecbdbc90608401600060405180830381865afa158015612105573d6000803e3d6000fd5b505050506040513d6000823e601f3d908101601f1916820160405261212d91908101906143b9565b90505b949350505050565b60008061219b5a60966366ad5c8a60e01b8989898960405160240161216094939291906143ed565b60408051601f198184030181529190526020810180516001600160e01b03166001600160e01b03199093169290921790915230929190612c3f565b91509150816113a9576113a98686868685612cc9565b60006001600160e01b031982166380ac58cd60e01b14806121e257506001600160e01b03198216635b5e139f60e01b145b80610d165750610d1682612d66565b6000546001600160a01b031633146114495760405162461bcd60e51b815260206004820181905260248201527f4f776e61626c653a2063616c6c6572206973206e6f7420746865206f776e65726044820152606401610b3c565b612254816128cb565b61174f5760405162461bcd60e51b8152602060048201526018602482015277115490cdcc8c4e881a5b9d985b1a59081d1bdad95b88125160421b6044820152606401610b3c565b6000818152600f6020526040902080546001600160a01b0319166001600160a01b03841690811790915581906122d082611275565b6001600160a01b03167f8c5be1e5ebec7d5bd14f71427d1e84f3dd0314c0f7b2291e5b200ac8c7c3b92560405160405180910390a45050565b60008061231583611275565b9050806001600160a01b0316846001600160a01b0316148061235c57506001600160a01b0380821660009081526010602090815260408083209388168352929052205460ff165b806121305750836001600160a01b031661237584610e37565b6001600160a01b031614949350505050565b826001600160a01b031661239a82611275565b6001600160a01b0316146123c05760405162461bcd60e51b8152600401610b3c9061442b565b6001600160a01b0382166124225760405162461bcd60e51b8152602060048201526024808201527f4552433732313a207472616e7366657220746f20746865207a65726f206164646044820152637265737360e01b6064820152608401610b3c565b826001600160a01b031661243582611275565b6001600160a01b03161461245b5760405162461bcd60e51b8152600401610b3c9061442b565b6000818152600f6020908152604080832080546001600160a01b03199081169091556001600160a01b03878116808652600e8552838620805460001901905590871680865283862080546001019055868652600d90945282852080549092168417909155905184937fddf252ad1be2c89b69c2b068fc378daa952ba7f163c4a11628f55a4df523b3ef91a4505050565b6040805160018082528183019092526060916000919060208083019080368337019050509050828160008151811061252557612525614470565b602090810291909101015292915050565b6111b9828260405180602001604052806000815250612d9b565b60008451116125975760405162461bcd60e51b8152602060048201526013602482015272746f6b656e4964735b5d20697320656d70747960681b6044820152606401610b3c565b8351600114806125bb575061ffff8616600090815260086020526040902054845111155b6126125760405162461bcd60e51b815260206004820152602260248201527f62617463682073697a65206578636565647320647374206261746368206c696d6044820152611a5d60f21b6064820152608401610b3c565b60005b84518110156126555761264388888888858151811061263657612636614470565b6020026020010151612dce565b8061264d81614486565b915050612615565b506000858560405160200161266b929190614313565b60405160208183030381529060405290506126b0876001848851600960008d61ffff1661ffff168152602001908152602001600020546126ab91906144a1565b612eb9565b6126be878286868634612f98565b856040516126cc91906144c0565b6040518091039020886001600160a01b03168861ffff167fe1b87c47fdeb4f9cbadbca9df3af7aba453bb6e501075d0440d88125b711522a8860405161271291906144dc565b60405180910390a45050505050505050565b6000808280602001905181019061273b9190614128565b60148201519193509150600061275388838386612942565b905082518110156128275784516020808701919091206040805160808101825261ffff808d1682526001600160a01b038088168387019081528385018881526001606086018181526000898152600a909a529887902095518654935190941662010000026001600160b01b03199093169390941692909217178355519082015592516002909301805493151560ff199094169390931790925590517f10e0b70d256bccc84b7027506978bd8b68984a870788b93b479def144c839ad79061281d90839089906144ef565b60405180910390a1505b816001600160a01b03168760405161283f91906144c0565b60405180910390208961ffff167f5b821db8a46f8ecbe1941ba2f51cfeea9643268b56631f70d45e2a745d9902658660405161271291906144dc565b600080546001600160a01b038381166001600160a01b0319831681178455604051919092169283917f8be0079c531659141344cd1fd0a4f28419497f9722a3daafe3b4186f6b6457e09190a35050565b6000908152600d60205260409020546001600160a01b0316151590565b6002600654141561293b5760405162461bcd60e51b815260206004820152601f60248201527f5265656e7472616e637947756172643a207265656e7472616e742063616c6c006044820152606401610b3c565b6002600655565b6000825b825181101561212d576007545a101561295e5761212d565b612982868685848151811061297557612975614470565b602002602001015161313e565b8061298c81614486565b915050612946565b6060816129a281601f614508565b10156129e15760405162461bcd60e51b815260206004820152600e60248201526d736c6963655f6f766572666c6f7760901b6044820152606401610b3c565b6129eb8284614508565b84511015612a2f5760405162461bcd60e51b8152602060048201526011602482015270736c6963655f6f75744f66426f756e647360781b6044820152606401610b3c565b606082158015612a4e5760405191506000825260208201604052612a98565b6040519150601f8416801560200281840101858101878315602002848b0101015b81831015612a87578051835260209283019201612a6f565b5050858452601f01601f1916604052505b50949350505050565b816001600160a01b0316836001600160a01b03161415612b035760405162461bcd60e51b815260206004820152601960248201527f4552433732313a20617070726f766520746f2063616c6c6572000000000000006044820152606401610b3c565b6001600160a01b03838116600081815260106020908152604080832094871680845294825291829020805460ff191686151590811790915591519182527f17307eab39ab6107e8899845ad3d59bd9653f200f220920489ca2b5937696c31910160405180910390a3505050565b612b7b848484612387565b612b878484848461319e565b611a0e5760405162461bcd60e51b8152600401610b3c90614520565b60606000612bb083613299565b60010190506000816001600160401b03811115612bcf57612bcf613939565b6040519080825280601f01601f191660200182016040528015612bf9576020820181803683370190505b5090508181016020015b600019016f181899199a1a9b1b9c1cb0b131b232b360811b600a86061a8153600a8504945084612c3257612c37565b612c03565b509392505050565b6000606060008060008661ffff166001600160401b03811115612c6457612c64613939565b6040519080825280601f01601f191660200182016040528015612c8e576020820181803683370190505b50905060008087516020890160008d8df191503d925086831115612cb0578692505b828152826000602083013e909890975095505050505050565b8180519060200120600560008761ffff1661ffff16815260200190815260200160002085604051612cfa91906144c0565b9081526040805191829003602090810183206001600160401b0388166000908152915220919091557fe183f33de2837795525b4792ca4cd60535bd77c53b7e7030060bfcf5734d6b0c90612d579087908790879087908790614572565b60405180910390a15050505050565b60006001600160e01b031982166322bac5d960e01b1480610d1657506301ffc9a760e01b6001600160e01b0319831614610d16565b612da58383613371565b612db2600084848461319e565b610f6f5760405162461bcd60e51b8152600401610b3c90614520565b612dd733611090565b612e3a5760405162461bcd60e51b815260206004820152602e60248201527f4f4e46543732313a2073656e642063616c6c6572206973206e6f74206f776e6560448201526d1c881b9bdc88185c1c1c9bdd995960921b6064820152608401610b3c565b836001600160a01b0316612e4d82611275565b6001600160a01b031614612eae5760405162461bcd60e51b815260206004820152602260248201527f4f4e46543732313a2073656e642066726f6d20696e636f7272656374206f776e60448201526132b960f11b6064820152608401610b3c565b611a0e843083612387565b6000612ec4836134de565b61ffff808716600090815260026020908152604080832093891683529290529081205491925090612ef6908490614508565b905060008111612f485760405162461bcd60e51b815260206004820152601a60248201527f4c7a4170703a206d696e4761734c696d6974206e6f74207365740000000000006044820152606401610b3c565b808210156113a95760405162461bcd60e51b815260206004820152601b60248201527f4c7a4170703a20676173206c696d697420697320746f6f206c6f7700000000006044820152606401610b3c565b61ffff861660009081526001602052604081208054612fb690614004565b80601f0160208091040260200160405190810160405280929190818152602001828054612fe290614004565b801561302f5780601f106130045761010080835404028352916020019161302f565b820191906000526020600020905b81548152906001019060200180831161301257829003601f168201915b505050505090508051600014156130a15760405162461bcd60e51b815260206004820152603060248201527f4c7a4170703a2064657374696e6174696f6e20636861696e206973206e6f742060448201526f61207472757374656420736f7572636560801b6064820152608401610b3c565b6130ac87875161353a565b60405162c5803160e81b81526001600160a01b037f0000000000000000000000000000000000000000000000000000000000000000169063c5803100908490613103908b9086908c908c908c908c906004016145c4565b6000604051808303818588803b15801561311c57600080fd5b505af1158015613130573d6000803e3d6000fd5b505050505050505050505050565b613147816128cb565b15806131735750613157816128cb565b801561317357503061316882611275565b6001600160a01b0316145b61317c57600080fd5b613185816128cb565b61319357610f6f8282612536565b610f6f308383612387565b60006001600160a01b0384163b1561329157604051630a85bd0160e11b81526001600160a01b0385169063150b7a02906131e290339089908890889060040161462b565b6020604051808303816000875af192505050801561321d575060408051601f3d908101601f1916820190925261321a91810190614668565b60015b613277573d80801561324b576040519150601f19603f3d011682016040523d82523d6000602084013e613250565b606091505b50805161326f5760405162461bcd60e51b8152600401610b3c90614520565b805181602001fd5b6001600160e01b031916630a85bd0160e11b149050612130565b506001612130565b60008072184f03e93ff9f4daa797ed6e38ed64bf6a1f0160401b83106132d85772184f03e93ff9f4daa797ed6e38ed64bf6a1f0160401b830492506040015b6d04ee2d6d415b85acef81000000008310613304576d04ee2d6d415b85acef8100000000830492506020015b662386f26fc10000831061332257662386f26fc10000830492506010015b6305f5e100831061333a576305f5e100830492506008015b612710831061334e57612710830492506004015b60648310613360576064830492506002015b600a8310610d165760010192915050565b6001600160a01b0382166133c75760405162461bcd60e51b815260206004820181905260248201527f4552433732313a206d696e7420746f20746865207a65726f20616464726573736044820152606401610b3c565b6133d0816128cb565b1561341d5760405162461bcd60e51b815260206004820152601c60248201527f4552433732313a20746f6b656e20616c7265616479206d696e746564000000006044820152606401610b3c565b613426816128cb565b156134735760405162461bcd60e51b815260206004820152601c60248201527f4552433732313a20746f6b656e20616c7265616479206d696e746564000000006044820152606401610b3c565b6001600160a01b0382166000818152600e6020908152604080832080546001019055848352600d90915280822080546001600160a01b0319168417905551839291907fddf252ad1be2c89b69c2b068fc378daa952ba7f163c4a11628f55a4df523b3ef908290a45050565b60006022825110156135325760405162461bcd60e51b815260206004820152601c60248201527f4c7a4170703a20696e76616c69642061646170746572506172616d73000000006044820152606401610b3c565b506022015190565b61ffff82166000908152600360205260409020548061355857506127105b80821115610f6f5760405162461bcd60e51b815260206004820181905260248201527f4c7a4170703a207061796c6f61642073697a6520697320746f6f206c617267656044820152606401610b3c565b8280546135b490614004565b90600052602060002090601f0160209004810192826135d6576000855561361c565b82601f106135ef57805160ff191683800117855561361c565b8280016001018555821561361c579182015b8281111561361c578251825591602001919060010190613601565b506136289291506136a0565b5090565b82805461363890614004565b90600052602060002090601f01602090048101928261365a576000855561361c565b82601f106136735782800160ff1982351617855561361c565b8280016001018555821561361c579182015b8281111561361c578235825591602001919060010190613685565b5b8082111561362857600081556001016136a1565b803561ffff811681146136c757600080fd5b919050565b60008083601f8401126136de57600080fd5b5081356001600160401b038111156136f557600080fd5b60208301915083602082850101111561370d57600080fd5b9250929050565b80356001600160401b03811681146136c757600080fd5b6000806000806000806080878903121561374457600080fd5b61374d876136b5565b955060208701356001600160401b038082111561376957600080fd5b6137758a838b016136cc565b909750955085915061378960408a01613714565b9450606089013591508082111561379f57600080fd5b506137ac89828a016136cc565b979a9699509497509295939492505050565b6001600160e01b03198116811461174f57600080fd5b6000602082840312156137e657600080fd5b8135611928816137be565b60005b8381101561380c5781810151838201526020016137f4565b83811115611a0e5750506000910152565b600081518084526138358160208601602086016137f1565b601f01601f19169290920160200192915050565b602081526000611928602083018461381d565b60006020828403121561386e57600080fd5b611928826136b5565b60006020828403121561388957600080fd5b5035919050565b6001600160a01b038116811461174f57600080fd5b80356136c781613890565b600080604083850312156138c357600080fd5b82356138ce81613890565b946020939093013593505050565b600080604083850312156138ef57600080fd5b6138ce836136b5565b60008060006060848603121561390d57600080fd5b833561391881613890565b9250602084013561392881613890565b929592945050506040919091013590565b634e487b7160e01b600052604160045260246000fd5b604051601f8201601f191681016001600160401b038111828210171561397757613977613939565b604052919050565b60006001600160401b0382111561399857613998613939565b50601f01601f191660200190565b600082601f8301126139b757600080fd5b81356139ca6139c58261397f565b61394f565b8181528460208386010111156139df57600080fd5b816020850160208301376000918101602001919091529392505050565b803580151581146136c757600080fd5b600080600080600060a08688031215613a2457600080fd5b613a2d866136b5565b945060208601356001600160401b0380821115613a4957600080fd5b613a5589838a016139a6565b955060408801359450613a6a606089016139fc565b93506080880135915080821115613a8057600080fd5b50613a8d888289016139a6565b9150509295509295909350565b600080600060408486031215613aaf57600080fd5b613ab8846136b5565b925060208401356001600160401b03811115613ad357600080fd5b613adf868287016136cc565b9497909650939450505050565b600080600080600080600060e0888a031215613b0757600080fd5b8735613b1281613890565b9650613b20602089016136b5565b955060408801356001600160401b0380821115613b3c57600080fd5b613b488b838c016139a6565b965060608a0135955060808a01359150613b6182613890565b90935060a089013590613b7382613890565b90925060c08901359080821115613b8957600080fd5b50613b968a828b016139a6565b91505092959891949750929550565b600080600060608486031215613bba57600080fd5b613bc3846136b5565b925060208401356001600160401b03811115613bde57600080fd5b613bea868287016139a6565b925050613bf960408501613714565b90509250925092565b600060208284031215613c1457600080fd5b813561192881613890565b60008060408385031215613c3257600080fd5b613c3b836136b5565b9150613c49602084016136b5565b90509250929050565b600060208284031215613c6457600080fd5b81356001600160401b03811115613c7a57600080fd5b612130848285016139a6565b60008060408385031215613c9957600080fd5b8235613ca481613890565b9150613c49602084016139fc565b60006001600160401b03821115613ccb57613ccb613939565b5060051b60200190565b600082601f830112613ce657600080fd5b81356020613cf66139c583613cb2565b82815260059290921b84018101918181019086841115613d1557600080fd5b8286015b84811015613d305780358352918301918301613d19565b509695505050505050565b600080600080600080600060e0888a031215613d5657600080fd5b8735613d6181613890565b9650613d6f602089016136b5565b955060408801356001600160401b0380821115613d8b57600080fd5b613d978b838c016139a6565b965060608a0135915080821115613dad57600080fd5b613db98b838c01613cd5565b955060808a01359150613dcb82613890565b819450613dda60a08b016138a5565b935060c08a0135915080821115613b8957600080fd5b60008060008060808587031215613e0657600080fd5b8435613e1181613890565b93506020850135613e2181613890565b92506040850135915060608501356001600160401b03811115613e4357600080fd5b613e4f878288016139a6565b91505092959194509250565b600080600080600060808688031215613e7357600080fd5b613e7c866136b5565b9450613e8a602087016136b5565b93506040860135925060608601356001600160401b03811115613eac57600080fd5b613eb8888289016136cc565b969995985093965092949392505050565b600080600060608486031215613ede57600080fd5b613ee7846136b5565b9250613ef5602085016136b5565b9150604084013590509250925092565b60008060408385031215613f1857600080fd5b8235613f2381613890565b91506020830135613f3381613890565b809150509250929050565b600080600080600060a08688031215613f5657600080fd5b613f5f866136b5565b945060208601356001600160401b0380821115613f7b57600080fd5b613f8789838a016139a6565b95506040880135915080821115613f9d57600080fd5b613fa989838a01613cd5565b9450613a6a606089016139fc565b60008060008060808587031215613fcd57600080fd5b613fd6856136b5565b9350613fe4602086016136b5565b92506040850135613ff481613890565b9396929550929360600135925050565b600181811c9082168061401857607f821691505b6020821081141561403957634e487b7160e01b600052602260045260246000fd5b50919050565b8183823760009101908152919050565b6020808252602d908201527f4552433732313a2063616c6c6572206973206e6f7420746f6b656e206f776e6560408201526c1c881bdc88185c1c1c9bdd9959609a1b606082015260800190565b81835281816020850137506000828201602090810191909152601f909101601f19169091010190565b61ffff8416815260406020820152600061212d60408301848661409c565b600082601f8301126140f457600080fd5b81516141026139c58261397f565b81815284602083860101111561411757600080fd5b6121308260208301602087016137f1565b6000806040838503121561413b57600080fd5b82516001600160401b038082111561415257600080fd5b61415e868387016140e3565b935060209150818501518181111561417557600080fd5b85019050601f8101861361418857600080fd5b80516141966139c582613cb2565b81815260059190911b820183019083810190888311156141b557600080fd5b928401925b828410156141d3578351825292840192908401906141ba565b80955050505050509250929050565b634e487b7160e01b600052601160045260246000fd5b60008282101561420a5761420a6141e2565b500390565b8284823760609190911b6bffffffffffffffffffffffff19169101908152601401919050565b600083516142478184602088016137f1565b83519083019061425b8183602088016137f1565b01949350505050565b600061ffff80881683528087166020840152508460408301526080606083015261429260808301848661409c565b979650505050505050565b61ffff861681526080602082015260006142bb60808301868861409c565b6001600160401b0394909416604083015250606001529392505050565b600081518084526020808501945080840160005b83811015614308578151875295820195908201906001016142ec565b509495945050505050565b604081526000614326604083018561381d565b828103602084015261433881856142d8565b95945050505050565b61ffff861681526001600160a01b038516602082015260a06040820181905260009061436f9083018661381d565b84151560608401528281036080840152614389818561381d565b98975050505050505050565b600080604083850312156143a857600080fd5b505080516020909101519092909150565b6000602082840312156143cb57600080fd5b81516001600160401b038111156143e157600080fd5b612130848285016140e3565b61ffff8516815260806020820152600061440a608083018661381d565b6001600160401b03851660408401528281036060840152614292818561381d565b60208082526025908201527f4552433732313a207472616e736665722066726f6d20696e636f72726563742060408201526437bbb732b960d91b606082015260800190565b634e487b7160e01b600052603260045260246000fd5b600060001982141561449a5761449a6141e2565b5060010190565b60008160001904831182151516156144bb576144bb6141e2565b500290565b600082516144d28184602087016137f1565b9190910192915050565b60208152600061192860208301846142d8565b828152604060208201526000612130604083018461381d565b6000821982111561451b5761451b6141e2565b500190565b60208082526032908201527f4552433732313a207472616e7366657220746f206e6f6e20455243373231526560408201527131b2b4bb32b91034b6b83632b6b2b73a32b960711b606082015260800190565b61ffff8616815260a06020820152600061458f60a083018761381d565b6001600160401b038616604084015282810360608401526145b0818661381d565b90508281036080840152614389818561381d565b61ffff8716815260c0602082015260006145e160c083018861381d565b82810360408401526145f3818861381d565b6001600160a01b0387811660608601528616608085015283810360a0850152905061461e818561381d565b9998505050505050505050565b6001600160a01b038581168252841660208201526040810183905260806060820181905260009061465e9083018461381d565b9695505050505050565b60006020828403121561467a57600080fd5b8151611928816137be56fea2646970667358221220af6784d1c6c2d967b24ed886863403737cbef67ed162f238bc18d29c75749de064736f6c634300080c0033",
  "linkReferences": {},
  "deployedLinkReferences": {}
}