{
  "_format": "hh-sol-artifact-1",
  "contractName": "NativeOFTV2",
  "sourceName": "contracts/token/oft/v2/NativeOFTV2.sol",
  "abi": [
    {
      "inputs": [
        {
          "internalType": "string",
          "name": "_name",
          "type": "string"
        },
        {
          "internalType": "string",
          "name": "_symbol",
          "type": "string"
        },
        {
          "internalType": "uint8",
          "name": "_sharedDecimals",
          "type": "uint8"
        },
        {
          "internalType": "address",
          "name": "_lzEndpoint",
          "type": "address"
        }
      ],
      "stateMutability": "nonpayable",
      "type": "constructor"
    },
    {
      "anonymous": false,
      "inputs": [
        {
          "indexed": true,
          "internalType": "address",
          "name": "owner",
          "type": "address"
        },
        {
          "indexed": true,
          "internalType": "address",
          "name": "spender",
          "type": "address"
        },
        {
          "indexed": false,
          "internalType": "uint256",
          "name": "value",
          "type": "uint256"
        }
      ],
      "name": "Approval",
      "type": "event"
    },
    {
      "anonymous": false,
      "inputs": [
        {
          "indexed": true,
          "internalType": "uint16",
          "name": "_srcChainId",
          "type": "uint16"
        },
        {
          "indexed": false,
          "internalType": "bytes",
          "name": "_srcAddress",
          "type": "bytes"
        },
        {
          "indexed": false,
          "internalType": "uint64",
          "name": "_nonce",
          "type": "uint64"
        },
        {
          "indexed": false,
          "internalType": "bytes32",
          "name": "_hash",
          "type": "bytes32"
        }
      ],
      "name": "CallOFTReceivedSuccess",
      "type": "event"
    },
    {
      "anonymous": false,
      "inputs": [
        {
          "indexed": true,
          "internalType": "address",
          "name": "_dst",
          "type": "address"
        },
        {
          "indexed": false,
          "internalType": "uint256",
          "name": "_amount",
          "type": "uint256"
        }
      ],
      "name": "Deposit",
      "type": "event"
    },
    {
      "anonymous": false,
      "inputs": [
        {
          "indexed": false,
          "internalType": "uint16",
          "name": "_srcChainId",
          "type": "uint16"
        },
        {
          "indexed": false,
          "internalType": "bytes",
          "name": "_srcAddress",
          "type": "bytes"
        },
        {
          "indexed": false,
          "internalType": "uint64",
          "name": "_nonce",
          "type": "uint64"
        },
        {
          "indexed": false,
          "internalType": "bytes",
          "name": "_payload",
          "type": "bytes"
        },
        {
          "indexed": false,
          "internalType": "bytes",
          "name": "_reason",
          "type": "bytes"
        }
      ],
      "name": "MessageFailed",
      "type": "event"
    },
    {
      "anonymous": false,
      "inputs": [
        {
          "indexed": false,
          "internalType": "address",
          "name": "_address",
          "type": "address"
        }
      ],
      "name": "NonContractAddress",
      "type": "event"
    },
    {
      "anonymous": false,
      "inputs": [
        {
          "indexed": true,
          "internalType": "address",
          "name": "previousOwner",
          "type": "address"
        },
        {
          "indexed": true,
          "internalType": "address",
          "name": "newOwner",
          "type": "address"
        }
      ],
      "name": "OwnershipTransferred",
      "type": "event"
    },
    {
      "anonymous": false,
      "inputs": [
        {
          "indexed": true,
          "internalType": "uint16",
          "name": "_srcChainId",
          "type": "uint16"
        },
        {
          "indexed": true,
          "internalType": "address",
          "name": "_to",
          "type": "address"
        },
        {
          "indexed": false,
          "internalType": "uint256",
          "name": "_amount",
          "type": "uint256"
        }
      ],
      "name": "ReceiveFromChain",
      "type": "event"
    },
    {
      "anonymous": false,
      "inputs": [
        {
          "indexed": false,
          "internalType": "uint16",
          "name": "_srcChainId",
          "type": "uint16"
        },
        {
          "indexed": false,
          "internalType": "bytes",
          "name": "_srcAddress",
          "type": "bytes"
        },
        {
          "indexed": false,
          "internalType": "uint64",
          "name": "_nonce",
          "type": "uint64"
        },
        {
          "indexed": false,
          "internalType": "bytes32",
          "name": "_payloadHash",
          "type": "bytes32"
        }
      ],
      "name": "RetryMessageSuccess",
      "type": "event"
    },
    {
      "anonymous": false,
      "inputs": [
        {
          "indexed": true,
          "internalType": "uint16",
          "name": "_dstChainId",
          "type": "uint16"
        },
        {
          "indexed": true,
          "internalType": "address",
          "name": "_from",
          "type": "address"
        },
        {
          "indexed": true,
          "internalType": "bytes32",
          "name": "_toAddress",
          "type": "bytes32"
        },
        {
          "indexed": false,
          "internalType": "uint256",
          "name": "_amount",
          "type": "uint256"
        }
      ],
      "name": "SendToChain",
      "type": "event"
    },
    {
      "anonymous": false,
      "inputs": [
        {
          "indexed": false,
          "internalType": "uint16",
          "name": "_dstChainId",
          "type": "uint16"
        },
        {
          "indexed": false,
          "internalType": "uint16",
          "name": "_type",
          "type": "uint16"
        },
        {
          "indexed": false,
          "internalType": "uint256",
          "name": "_minDstGas",
          "type": "uint256"
        }
      ],
      "name": "SetMinDstGas",
      "type": "event"
    },
    {
      "anonymous": false,
      "inputs": [
        {
          "indexed": false,
          "internalType": "address",
          "name": "precrime",
          "type": "address"
        }
      ],
      "name": "SetPrecrime",
      "type": "event"
    },
    {
      "anonymous": false,
      "inputs": [
        {
          "indexed": false,
          "internalType": "uint16",
          "name": "_remoteChainId",
          "type": "uint16"
        },
        {
          "indexed": false,
          "internalType": "bytes",
          "name": "_path",
          "type": "bytes"
        }
      ],
      "name": "SetTrustedRemote",
      "type": "event"
    },
    {
      "anonymous": false,
      "inputs": [
        {
          "indexed": false,
          "internalType": "uint16",
          "name": "_remoteChainId",
          "type": "uint16"
        },
        {
          "indexed": false,
          "internalType": "bytes",
          "name": "_remoteAddress",
          "type": "bytes"
        }
      ],
      "name": "SetTrustedRemoteAddress",
      "type": "event"
    },
    {
      "anonymous": false,
      "inputs": [
        {
          "indexed": false,
          "internalType": "bool",
          "name": "_useCustomAdapterParams",
          "type": "bool"
        }
      ],
      "name": "SetUseCustomAdapterParams",
      "type": "event"
    },
    {
      "anonymous": false,
      "inputs": [
        {
          "indexed": true,
          "internalType": "address",
          "name": "from",
          "type": "address"
        },
        {
          "indexed": true,
          "internalType": "address",
          "name": "to",
          "type": "address"
        },
        {
          "indexed": false,
          "internalType": "uint256",
          "name": "value",
          "type": "uint256"
        }
      ],
      "name": "Transfer",
      "type": "event"
    },
    {
      "anonymous": false,
      "inputs": [
        {
          "indexed": true,
          "internalType": "address",
          "name": "_src",
          "type": "address"
        },
        {
          "indexed": false,
          "internalType": "uint256",
          "name": "_amount",
          "type": "uint256"
        }
      ],
      "name": "Withdrawal",
      "type": "event"
    },
    {
      "inputs": [],
      "name": "DEFAULT_PAYLOAD_SIZE_LIMIT",
      "outputs": [
        {
          "internalType": "uint256",
          "name": "",
          "type": "uint256"
        }
      ],
      "stateMutability": "view",
      "type": "function"
    },
    {
      "inputs": [],
      "name": "NO_EXTRA_GAS",
      "outputs": [
        {
          "internalType": "uint256",
          "name": "",
          "type": "uint256"
        }
      ],
      "stateMutability": "view",
      "type": "function"
    },
    {
      "inputs": [],
      "name": "PT_SEND",
      "outputs": [
        {
          "internalType": "uint8",
          "name": "",
          "type": "uint8"
        }
      ],
      "stateMutability": "view",
      "type": "function"
    },
    {
      "inputs": [],
      "name": "PT_SEND_AND_CALL",
      "outputs": [
        {
          "internalType": "uint8",
          "name": "",
          "type": "uint8"
        }
      ],
      "stateMutability": "view",
      "type": "function"
    },
    {
      "inputs": [
        {
          "internalType": "address",
          "name": "owner",
          "type": "address"
        },
        {
          "internalType": "address",
          "name": "spender",
          "type": "address"
        }
      ],
      "name": "allowance",
      "outputs": [
        {
          "internalType": "uint256",
          "name": "",
          "type": "uint256"
        }
      ],
      "stateMutability": "view",
      "type": "function"
    },
    {
      "inputs": [
        {
          "internalType": "address",
          "name": "spender",
          "type": "address"
        },
        {
          "internalType": "uint256",
          "name": "amount",
          "type": "uint256"
        }
      ],
      "name": "approve",
      "outputs": [
        {
          "internalType": "bool",
          "name": "",
          "type": "bool"
        }
      ],
      "stateMutability": "nonpayable",
      "type": "function"
    },
    {
      "inputs": [
        {
          "internalType": "address",
          "name": "account",
          "type": "address"
        }
      ],
      "name": "balanceOf",
      "outputs": [
        {
          "internalType": "uint256",
          "name": "",
          "type": "uint256"
        }
      ],
      "stateMutability": "view",
      "type": "function"
    },
    {
      "inputs": [
        {
          "internalType": "uint16",
          "name": "_srcChainId",
          "type": "uint16"
        },
        {
          "internalType": "bytes",
          "name": "_srcAddress",
          "type": "bytes"
        },
        {
          "internalType": "uint64",
          "name": "_nonce",
          "type": "uint64"
        },
        {
          "internalType": "bytes32",
          "name": "_from",
          "type": "bytes32"
        },
        {
          "internalType": "address",
          "name": "_to",
          "type": "address"
        },
        {
          "internalType": "uint256",
          "name": "_amount",
          "type": "uint256"
        },
        {
          "internalType": "bytes",
          "name": "_payload",
          "type": "bytes"
        },
        {
          "internalType": "uint256",
          "name": "_gasForCall",
          "type": "uint256"
        }
      ],
      "name": "callOnOFTReceived",
      "outputs": [],
      "stateMutability": "nonpayable",
      "type": "function"
    },
    {
      "inputs": [],
      "name": "circulatingSupply",
      "outputs": [
        {
          "internalType": "uint256",
          "name": "",
          "type": "uint256"
        }
      ],
      "stateMutability": "view",
      "type": "function"
    },
    {
      "inputs": [
        {
          "internalType": "uint16",
          "name": "",
          "type": "uint16"
        },
        {
          "internalType": "bytes",
          "name": "",
          "type": "bytes"
        },
        {
          "internalType": "uint64",
          "name": "",
          "type": "uint64"
        }
      ],
      "name": "creditedPackets",
      "outputs": [
        {
          "internalType": "bool",
          "name": "",
          "type": "bool"
        }
      ],
      "stateMutability": "view",
      "type": "function"
    },
    {
      "inputs": [],
      "name": "decimals",
      "outputs": [
        {
          "internalType": "uint8",
          "name": "",
          "type": "uint8"
        }
      ],
      "stateMutability": "view",
      "type": "function"
    },
    {
      "inputs": [
        {
          "internalType": "address",
          "name": "spender",
          "type": "address"
        },
        {
          "internalType": "uint256",
          "name": "subtractedValue",
          "type": "uint256"
        }
      ],
      "name": "decreaseAllowance",
      "outputs": [
        {
          "internalType": "bool",
          "name": "",
          "type": "bool"
        }
      ],
      "stateMutability": "nonpayable",
      "type": "function"
    },
    {
      "inputs": [],
      "name": "deposit",
      "outputs": [],
      "stateMutability": "payable",
      "type": "function"
    },
    {
      "inputs": [
        {
          "internalType": "uint16",
          "name": "_dstChainId",
          "type": "uint16"
        },
        {
          "internalType": "bytes32",
          "name": "_toAddress",
          "type": "bytes32"
        },
        {
          "internalType": "uint256",
          "name": "_amount",
          "type": "uint256"
        },
        {
          "internalType": "bytes",
          "name": "_payload",
          "type": "bytes"
        },
        {
          "internalType": "uint64",
          "name": "_dstGasForCall",
          "type": "uint64"
        },
        {
          "internalType": "bool",
          "name": "_useZro",
          "type": "bool"
        },
        {
          "internalType": "bytes",
          "name": "_adapterParams",
          "type": "bytes"
        }
      ],
      "name": "estimateSendAndCallFee",
      "outputs": [
        {
          "internalType": "uint256",
          "name": "nativeFee",
          "type": "uint256"
        },
        {
          "internalType": "uint256",
          "name": "zroFee",
          "type": "uint256"
        }
      ],
      "stateMutability": "view",
      "type": "function"
    },
    {
      "inputs": [
        {
          "internalType": "uint16",
          "name": "_dstChainId",
          "type": "uint16"
        },
        {
          "internalType": "bytes32",
          "name": "_toAddress",
          "type": "bytes32"
        },
        {
          "internalType": "uint256",
          "name": "_amount",
          "type": "uint256"
        },
        {
          "internalType": "bool",
          "name": "_useZro",
          "type": "bool"
        },
        {
          "internalType": "bytes",
          "name": "_adapterParams",
          "type": "bytes"
        }
      ],
      "name": "estimateSendFee",
      "outputs": [
        {
          "internalType": "uint256",
          "name": "nativeFee",
          "type": "uint256"
        },
        {
          "internalType": "uint256",
          "name": "zroFee",
          "type": "uint256"
        }
      ],
      "stateMutability": "view",
      "type": "function"
    },
    {
      "inputs": [
        {
          "internalType": "uint16",
          "name": "",
          "type": "uint16"
        },
        {
          "internalType": "bytes",
          "name": "",
          "type": "bytes"
        },
        {
          "internalType": "uint64",
          "name": "",
          "type": "uint64"
        }
      ],
      "name": "failedMessages",
      "outputs": [
        {
          "internalType": "bytes32",
          "name": "",
          "type": "bytes32"
        }
      ],
      "stateMutability": "view",
      "type": "function"
    },
    {
      "inputs": [
        {
          "internalType": "uint16",
          "name": "_srcChainId",
          "type": "uint16"
        },
        {
          "internalType": "bytes",
          "name": "_srcAddress",
          "type": "bytes"
        }
      ],
      "name": "forceResumeReceive",
      "outputs": [],
      "stateMutability": "nonpayable",
      "type": "function"
    },
    {
      "inputs": [
        {
          "internalType": "uint16",
          "name": "_version",
          "type": "uint16"
        },
        {
          "internalType": "uint16",
          "name": "_chainId",
          "type": "uint16"
        },
        {
          "internalType": "address",
          "name": "",
          "type": "address"
        },
        {
          "internalType": "uint256",
          "name": "_configType",
          "type": "uint256"
        }
      ],
      "name": "getConfig",
      "outputs": [
        {
          "internalType": "bytes",
          "name": "",
          "type": "bytes"
        }
      ],
      "stateMutability": "view",
      "type": "function"
    },
    {
      "inputs": [
        {
          "internalType": "uint16",
          "name": "_remoteChainId",
          "type": "uint16"
        }
      ],
      "name": "getTrustedRemoteAddress",
      "outputs": [
        {
          "internalType": "bytes",
          "name": "",
          "type": "bytes"
        }
      ],
      "stateMutability": "view",
      "type": "function"
    },
    {
      "inputs": [
        {
          "internalType": "address",
          "name": "spender",
          "type": "address"
        },
        {
          "internalType": "uint256",
          "name": "addedValue",
          "type": "uint256"
        }
      ],
      "name": "increaseAllowance",
      "outputs": [
        {
          "internalType": "bool",
          "name": "",
          "type": "bool"
        }
      ],
      "stateMutability": "nonpayable",
      "type": "function"
    },
    {
      "inputs": [
        {
          "internalType": "uint16",
          "name": "_srcChainId",
          "type": "uint16"
        },
        {
          "internalType": "bytes",
          "name": "_srcAddress",
          "type": "bytes"
        }
      ],
      "name": "isTrustedRemote",
      "outputs": [
        {
          "internalType": "bool",
          "name": "",
          "type": "bool"
        }
      ],
      "stateMutability": "view",
      "type": "function"
    },
    {
      "inputs": [],
      "name": "lzEndpoint",
      "outputs": [
        {
          "internalType": "contract ILayerZeroEndpoint",
          "name": "",
          "type": "address"
        }
      ],
      "stateMutability": "view",
      "type": "function"
    },
    {
      "inputs": [
        {
          "internalType": "uint16",
          "name": "_srcChainId",
          "type": "uint16"
        },
        {
          "internalType": "bytes",
          "name": "_srcAddress",
          "type": "bytes"
        },
        {
          "internalType": "uint64",
          "name": "_nonce",
          "type": "uint64"
        },
        {
          "internalType": "bytes",
          "name": "_payload",
          "type": "bytes"
        }
      ],
      "name": "lzReceive",
      "outputs": [],
      "stateMutability": "nonpayable",
      "type": "function"
    },
    {
      "inputs": [
        {
          "internalType": "uint16",
          "name": "",
          "type": "uint16"
        },
        {
          "internalType": "uint16",
          "name": "",
          "type": "uint16"
        }
      ],
      "name": "minDstGasLookup",
      "outputs": [
        {
          "internalType": "uint256",
          "name": "",
          "type": "uint256"
        }
      ],
      "stateMutability": "view",
      "type": "function"
    },
    {
      "inputs": [],
      "name": "name",
      "outputs": [
        {
          "internalType": "string",
          "name": "",
          "type": "string"
        }
      ],
      "stateMutability": "view",
      "type": "function"
    },
    {
      "inputs": [
        {
          "internalType": "uint16",
          "name": "_srcChainId",
          "type": "uint16"
        },
        {
          "internalType": "bytes",
          "name": "_srcAddress",
          "type": "bytes"
        },
        {
          "internalType": "uint64",
          "name": "_nonce",
          "type": "uint64"
        },
        {
          "internalType": "bytes",
          "name": "_payload",
          "type": "bytes"
        }
      ],
      "name": "nonblockingLzReceive",
      "outputs": [],
      "stateMutability": "nonpayable",
      "type": "function"
    },
    {
      "inputs": [],
      "name": "owner",
      "outputs": [
        {
          "internalType": "address",
          "name": "",
          "type": "address"
        }
      ],
      "stateMutability": "view",
      "type": "function"
    },
    {
      "inputs": [
        {
          "internalType": "uint16",
          "name": "",
          "type": "uint16"
        }
      ],
      "name": "payloadSizeLimitLookup",
      "outputs": [
        {
          "internalType": "uint256",
          "name": "",
          "type": "uint256"
        }
      ],
      "stateMutability": "view",
      "type": "function"
    },
    {
      "inputs": [],
      "name": "precrime",
      "outputs": [
        {
          "internalType": "address",
          "name": "",
          "type": "address"
        }
      ],
      "stateMutability": "view",
      "type": "function"
    },
    {
      "inputs": [],
      "name": "renounceOwnership",
      "outputs": [],
      "stateMutability": "nonpayable",
      "type": "function"
    },
    {
      "inputs": [
        {
          "internalType": "uint16",
          "name": "_srcChainId",
          "type": "uint16"
        },
        {
          "internalType": "bytes",
          "name": "_srcAddress",
          "type": "bytes"
        },
        {
          "internalType": "uint64",
          "name": "_nonce",
          "type": "uint64"
        },
        {
          "internalType": "bytes",
          "name": "_payload",
          "type": "bytes"
        }
      ],
      "name": "retryMessage",
      "outputs": [],
      "stateMutability": "payable",
      "type": "function"
    },
    {
      "inputs": [
        {
          "internalType": "address",
          "name": "_from",
          "type": "address"
        },
        {
          "internalType": "uint16",
          "name": "_dstChainId",
          "type": "uint16"
        },
        {
          "internalType": "bytes32",
          "name": "_toAddress",
          "type": "bytes32"
        },
        {
          "internalType": "uint256",
          "name": "_amount",
          "type": "uint256"
        },
        {
          "internalType": "bytes",
          "name": "_payload",
          "type": "bytes"
        },
        {
          "internalType": "uint64",
          "name": "_dstGasForCall",
          "type": "uint64"
        },
        {
          "components": [
            {
              "internalType": "address payable",
              "name": "refundAddress",
              "type": "address"
            },
            {
              "internalType": "address",
              "name": "zroPaymentAddress",
              "type": "address"
            },
            {
              "internalType": "bytes",
              "name": "adapterParams",
              "type": "bytes"
            }
          ],
          "internalType": "struct ICommonOFT.LzCallParams",
          "name": "_callParams",
          "type": "tuple"
        }
      ],
      "name": "sendAndCall",
      "outputs": [],
      "stateMutability": "payable",
      "type": "function"
    },
    {
      "inputs": [
        {
          "internalType": "address",
          "name": "_from",
          "type": "address"
        },
        {
          "internalType": "uint16",
          "name": "_dstChainId",
          "type": "uint16"
        },
        {
          "internalType": "bytes32",
          "name": "_toAddress",
          "type": "bytes32"
        },
        {
          "internalType": "uint256",
          "name": "_amount",
          "type": "uint256"
        },
        {
          "components": [
            {
              "internalType": "address payable",
              "name": "refundAddress",
              "type": "address"
            },
            {
              "internalType": "address",
              "name": "zroPaymentAddress",
              "type": "address"
            },
            {
              "internalType": "bytes",
              "name": "adapterParams",
              "type": "bytes"
            }
          ],
          "internalType": "struct ICommonOFT.LzCallParams",
          "name": "_callParams",
          "type": "tuple"
        }
      ],
      "name": "sendFrom",
      "outputs": [],
      "stateMutability": "payable",
      "type": "function"
    },
    {
      "inputs": [
        {
          "internalType": "uint16",
          "name": "_version",
          "type": "uint16"
        },
        {
          "internalType": "uint16",
          "name": "_chainId",
          "type": "uint16"
        },
        {
          "internalType": "uint256",
          "name": "_configType",
          "type": "uint256"
        },
        {
          "internalType": "bytes",
          "name": "_config",
          "type": "bytes"
        }
      ],
      "name": "setConfig",
      "outputs": [],
      "stateMutability": "nonpayable",
      "type": "function"
    },
    {
      "inputs": [
        {
          "internalType": "uint16",
          "name": "_dstChainId",
          "type": "uint16"
        },
        {
          "internalType": "uint16",
          "name": "_packetType",
          "type": "uint16"
        },
        {
          "internalType": "uint256",
          "name": "_minGas",
          "type": "uint256"
        }
      ],
      "name": "setMinDstGas",
      "outputs": [],
      "stateMutability": "nonpayable",
      "type": "function"
    },
    {
      "inputs": [
        {
          "internalType": "uint16",
          "name": "_dstChainId",
          "type": "uint16"
        },
        {
          "internalType": "uint256",
          "name": "_size",
          "type": "uint256"
        }
      ],
      "name": "setPayloadSizeLimit",
      "outputs": [],
      "stateMutability": "nonpayable",
      "type": "function"
    },
    {
      "inputs": [
        {
          "internalType": "address",
          "name": "_precrime",
          "type": "address"
        }
      ],
      "name": "setPrecrime",
      "outputs": [],
      "stateMutability": "nonpayable",
      "type": "function"
    },
    {
      "inputs": [
        {
          "internalType": "uint16",
          "name": "_version",
          "type": "uint16"
        }
      ],
      "name": "setReceiveVersion",
      "outputs": [],
      "stateMutability": "nonpayable",
      "type": "function"
    },
    {
      "inputs": [
        {
          "internalType": "uint16",
          "name": "_version",
          "type": "uint16"
        }
      ],
      "name": "setSendVersion",
      "outputs": [],
      "stateMutability": "nonpayable",
      "type": "function"
    },
    {
      "inputs": [
        {
          "internalType": "uint16",
          "name": "_remoteChainId",
          "type": "uint16"
        },
        {
          "internalType": "bytes",
          "name": "_path",
          "type": "bytes"
        }
      ],
      "name": "setTrustedRemote",
      "outputs": [],
      "stateMutability": "nonpayable",
      "type": "function"
    },
    {
      "inputs": [
        {
          "internalType": "uint16",
          "name": "_remoteChainId",
          "type": "uint16"
        },
        {
          "internalType": "bytes",
          "name": "_remoteAddress",
          "type": "bytes"
        }
      ],
      "name": "setTrustedRemoteAddress",
      "outputs": [],
      "stateMutability": "nonpayable",
      "type": "function"
    },
    {
      "inputs": [
        {
          "internalType": "bool",
          "name": "_useCustomAdapterParams",
          "type": "bool"
        }
      ],
      "name": "setUseCustomAdapterParams",
      "outputs": [],
      "stateMutability": "nonpayable",
      "type": "function"
    },
    {
      "inputs": [],
      "name": "sharedDecimals",
      "outputs": [
        {
          "internalType": "uint8",
          "name": "",
          "type": "uint8"
        }
      ],
      "stateMutability": "view",
      "type": "function"
    },
    {
      "inputs": [
        {
          "internalType": "bytes4",
          "name": "interfaceId",
          "type": "bytes4"
        }
      ],
      "name": "supportsInterface",
      "outputs": [
        {
          "internalType": "bool",
          "name": "",
          "type": "bool"
        }
      ],
      "stateMutability": "view",
      "type": "function"
    },
    {
      "inputs": [],
      "name": "symbol",
      "outputs": [
        {
          "internalType": "string",
          "name": "",
          "type": "string"
        }
      ],
      "stateMutability": "view",
      "type": "function"
    },
    {
      "inputs": [],
      "name": "token",
      "outputs": [
        {
          "internalType": "address",
          "name": "",
          "type": "address"
        }
      ],
      "stateMutability": "view",
      "type": "function"
    },
    {
      "inputs": [],
      "name": "totalSupply",
      "outputs": [
        {
          "internalType": "uint256",
          "name": "",
          "type": "uint256"
        }
      ],
      "stateMutability": "view",
      "type": "function"
    },
    {
      "inputs": [
        {
          "internalType": "address",
          "name": "to",
          "type": "address"
        },
        {
          "internalType": "uint256",
          "name": "amount",
          "type": "uint256"
        }
      ],
      "name": "transfer",
      "outputs": [
        {
          "internalType": "bool",
          "name": "",
          "type": "bool"
        }
      ],
      "stateMutability": "nonpayable",
      "type": "function"
    },
    {
      "inputs": [
        {
          "internalType": "address",
          "name": "from",
          "type": "address"
        },
        {
          "internalType": "address",
          "name": "to",
          "type": "address"
        },
        {
          "internalType": "uint256",
          "name": "amount",
          "type": "uint256"
        }
      ],
      "name": "transferFrom",
      "outputs": [
        {
          "internalType": "bool",
          "name": "",
          "type": "bool"
        }
      ],
      "stateMutability": "nonpayable",
      "type": "function"
    },
    {
      "inputs": [
        {
          "internalType": "address",
          "name": "newOwner",
          "type": "address"
        }
      ],
      "name": "transferOwnership",
      "outputs": [],
      "stateMutability": "nonpayable",
      "type": "function"
    },
    {
      "inputs": [
        {
          "internalType": "uint16",
          "name": "",
          "type": "uint16"
        }
      ],
      "name": "trustedRemoteLookup",
      "outputs": [
        {
          "internalType": "bytes",
          "name": "",
          "type": "bytes"
        }
      ],
      "stateMutability": "view",
      "type": "function"
    },
    {
      "inputs": [],
      "name": "useCustomAdapterParams",
      "outputs": [
        {
          "internalType": "bool",
          "name": "",
          "type": "bool"
        }
      ],
      "stateMutability": "view",
      "type": "function"
    },
    {
      "inputs": [
        {
          "internalType": "uint256",
          "name": "_amount",
          "type": "uint256"
        }
      ],
      "name": "withdraw",
      "outputs": [],
      "stateMutability": "nonpayable",
      "type": "function"
    },
    {
      "stateMutability": "payable",
      "type": "receive"
    }
  ],
  "bytecode": "0x60e06040523480156200001157600080fd5b5060405162004d0b38038062004d0b833981016040819052620000349162000307565b8383838383838383818180806200004b336200013f565b6001600160a01b0316608052505060ff1660a052505081516200007690600b90602085019062000194565b5080516200008c90600c90602084019062000194565b5050506000620000a16200018f60201b60201c565b90508060ff168360ff1611156200010e5760405162461bcd60e51b815260206004820152602760248201527f4f46543a20736861726564446563696d616c73206d757374206265203c3d20646044820152666563696d616c7360c81b606482015260840160405180910390fd5b6200011a8382620003c1565b6200012790600a620004e6565b60c05250506001600d55506200053b95505050505050565b600080546001600160a01b038381166001600160a01b0319831681178455604051919092169283917f8be0079c531659141344cd1fd0a4f28419497f9722a3daafe3b4186f6b6457e09190a35050565b601290565b828054620001a290620004fe565b90600052602060002090601f016020900481019282620001c6576000855562000211565b82601f10620001e157805160ff191683800117855562000211565b8280016001018555821562000211579182015b8281111562000211578251825591602001919060010190620001f4565b506200021f92915062000223565b5090565b5b808211156200021f576000815560010162000224565b634e487b7160e01b600052604160045260246000fd5b600082601f8301126200026257600080fd5b81516001600160401b03808211156200027f576200027f6200023a565b604051601f8301601f19908116603f01168101908282118183101715620002aa57620002aa6200023a565b81604052838152602092508683858801011115620002c757600080fd5b600091505b83821015620002eb5785820183015181830184015290820190620002cc565b83821115620002fd5760008385830101525b9695505050505050565b600080600080608085870312156200031e57600080fd5b84516001600160401b03808211156200033657600080fd5b620003448883890162000250565b955060208701519150808211156200035b57600080fd5b506200036a8782880162000250565b935050604085015160ff811681146200038257600080fd5b60608601519092506001600160a01b0381168114620003a057600080fd5b939692955090935050565b634e487b7160e01b600052601160045260246000fd5b600060ff821660ff841680821015620003de57620003de620003ab565b90039392505050565b600181815b80851115620004285781600019048211156200040c576200040c620003ab565b808516156200041a57918102915b93841c9390800290620003ec565b509250929050565b6000826200044157506001620004e0565b816200045057506000620004e0565b8160018114620004695760028114620004745762000494565b6001915050620004e0565b60ff841115620004885762000488620003ab565b50506001821b620004e0565b5060208310610133831016604e8410600b8410161715620004b9575081810a620004e0565b620004c58383620003e7565b8060001904821115620004dc57620004dc620003ab565b0290505b92915050565b6000620004f760ff84168362000430565b9392505050565b600181811c908216806200051357607f821691505b602082108114156200053557634e487b7160e01b600052602260045260246000fd5b50919050565b60805160a05160c051614753620005b860003960008181612b8101528181612f7b0152613250015260006106a701526000818161088101528181610a7a01528181610d9201528181610e5201528181611166015281816117ce01528181611d95015281816124e601528181612972015261310701526147536000f3fe60806040526004361061031d5760003560e01c80638cfd8f5c116101ab578063c4461834116100f7578063eab45d9c11610095578063ed629c5c1161006f578063ed629c5c146109c9578063f2fde38b146109e3578063f5ecbdbc14610a03578063fc0c546a14610a2357600080fd5b8063eab45d9c14610969578063eaffd49a14610989578063eb8d72b7146109a957600080fd5b8063d1deba1f116100d1578063d1deba1f14610901578063dd62ed3e14610914578063df2a5b3b14610934578063e6a20ae61461095457600080fd5b8063c4461834146108c3578063cbed8b9c146108d9578063d0e30db0146108f957600080fd5b80639f38369a11610164578063a6c3d1651161013e578063a6c3d1651461082f578063a9059cbb1461084f578063b353aaa71461086f578063baf3292d146108a357600080fd5b80639f38369a146107cf578063a457c2d7146107ef578063a4c51df51461080f57600080fd5b80638cfd8f5c146106c95780638da5cb5b146107015780639358928b14610733578063950c8a741461074857806395d89b41146107685780639bdb98121461077d57600080fd5b80633d8b38f61161026a57806366ad5c8a11610223578063715018a6116101fd578063715018a61461064d5780637533d7881461066257806376203b4814610682578063857749b01461069557600080fd5b806366ad5c8a146105e4578063695ef6bf1461060457806370a082311461061757600080fd5b80633d8b38f6146104fe5780633f1f4fa41461051e57806342d65a8d1461054b578063447705151461056b5780634c42899a146105805780635b8c41e61461059557600080fd5b806310ddb137116102d75780632e1a7d4d116102b15780632e1a7d4d14610467578063313ce56714610487578063365260b4146104a957806339509351146104de57600080fd5b806310ddb1371461040857806318160ddd1461042857806323b872dd1461044757600080fd5b80621d35671461033157806301ffc9a71461035157806306fdde031461038657806307e0db17146103a8578063095ea7b3146103c85780630df37483146103e857600080fd5b3661032c5761032a610a36565b005b600080fd5b34801561033d57600080fd5b5061032a61034c366004613955565b610a77565b34801561035d57600080fd5b5061037161036c3660046139e8565b610ca8565b60405190151581526020015b60405180910390f35b34801561039257600080fd5b5061039b610cdf565b60405161037d9190613a6a565b3480156103b457600080fd5b5061032a6103c3366004613a7d565b610d71565b3480156103d457600080fd5b506103716103e3366004613aad565b610dfa565b3480156103f457600080fd5b5061032a610403366004613ad9565b610e12565b34801561041457600080fd5b5061032a610423366004613a7d565b610e31565b34801561043457600080fd5b50600a545b60405190815260200161037d565b34801561045357600080fd5b50610371610462366004613af5565b610e89565b34801561047357600080fd5b5061032a610482366004613b36565b610ead565b34801561049357600080fd5b5060125b60405160ff909116815260200161037d565b3480156104b557600080fd5b506104c96104c4366004613b5f565b611004565b6040805192835260208301919091520161037d565b3480156104ea57600080fd5b506103716104f9366004613aad565b611059565b34801561050a57600080fd5b50610371610519366004613bc4565b61107b565b34801561052a57600080fd5b50610439610539366004613a7d565b60036020526000908152604090205481565b34801561055757600080fd5b5061032a610566366004613bc4565b611147565b34801561057757600080fd5b50610439600081565b34801561058c57600080fd5b50610497600081565b3480156105a157600080fd5b506104396105b0366004613c83565b6005602090815260009384526040808520845180860184018051928152908401958401959095209452929052825290205481565b3480156105f057600080fd5b5061032a6105ff366004613955565b6111cd565b61032a610612366004613d35565b6112a9565b34801561062357600080fd5b50610439610632366004613da8565b6001600160a01b031660009081526008602052604090205490565b34801561065957600080fd5b5061032a611314565b34801561066e57600080fd5b5061039b61067d366004613a7d565b611328565b61032a610690366004613dc5565b6113c2565b3480156106a157600080fd5b506104977f000000000000000000000000000000000000000000000000000000000000000081565b3480156106d557600080fd5b506104396106e4366004613e77565b600260209081526000928352604080842090915290825290205481565b34801561070d57600080fd5b506000546001600160a01b03165b6040516001600160a01b03909116815260200161037d565b34801561073f57600080fd5b50610439611471565b34801561075457600080fd5b5060045461071b906001600160a01b031681565b34801561077457600080fd5b5061039b611481565b34801561078957600080fd5b50610371610798366004613c83565b6007602090815260009384526040808520845180860184018051928152908401958401959095209452929052825290205460ff1681565b3480156107db57600080fd5b5061039b6107ea366004613a7d565b611490565b3480156107fb57600080fd5b5061037161080a366004613aad565b6115a7565b34801561081b57600080fd5b506104c961082a366004613eaa565b611622565b34801561083b57600080fd5b5061032a61084a366004613bc4565b6116b1565b34801561085b57600080fd5b5061037161086a366004613aad565b611744565b34801561087b57600080fd5b5061071b7f000000000000000000000000000000000000000000000000000000000000000081565b3480156108af57600080fd5b5061032a6108be366004613da8565b611752565b3480156108cf57600080fd5b5061043961271081565b3480156108e557600080fd5b5061032a6108f4366004613f63565b6117af565b61032a610a36565b61032a61090f366004613955565b611839565b34801561092057600080fd5b5061043961092f366004613fd1565b611a4f565b34801561094057600080fd5b5061032a61094f36600461400a565b611a7a565b34801561096057600080fd5b50610497600181565b34801561097557600080fd5b5061032a610984366004614046565b611b2c565b34801561099557600080fd5b5061032a6109a4366004614061565b611b75565b3480156109b557600080fd5b5061032a6109c4366004613bc4565b611c94565b3480156109d557600080fd5b506006546103719060ff1681565b3480156109ef57600080fd5b5061032a6109fe366004613da8565b611cee565b348015610a0f57600080fd5b5061039b610a1e366004614129565b611d64565b348015610a2f57600080fd5b503061071b565b610a403334611e15565b60405134815233907fe1fffcc4923d04b559f4d29a8bfc6cda04eb5b0d3c460751c2402c5c5cc9109c9060200160405180910390a2565b337f00000000000000000000000000000000000000000000000000000000000000006001600160a01b031614610af45760405162461bcd60e51b815260206004820152601e60248201527f4c7a4170703a20696e76616c696420656e64706f696e742063616c6c6572000060448201526064015b60405180910390fd5b61ffff861660009081526001602052604081208054610b1290614176565b80601f0160208091040260200160405190810160405280929190818152602001828054610b3e90614176565b8015610b8b5780601f10610b6057610100808354040283529160200191610b8b565b820191906000526020600020905b815481529060010190602001808311610b6e57829003601f168201915b50505050509050805186869050148015610ba6575060008151115b8015610bce575080516020820120604051610bc490889088906141ab565b6040518091039020145b610c295760405162461bcd60e51b815260206004820152602660248201527f4c7a4170703a20696e76616c696420736f757263652073656e64696e6720636f6044820152651b9d1c9858dd60d21b6064820152608401610aeb565b610c9f8787878080601f01602080910402602001604051908101604052809392919081815260200183838082843760009201919091525050604080516020601f8a018190048102820181019092528881528a935091508890889081908401838280828437600092019190915250611ed692505050565b50505050505050565b60006001600160e01b03198216631f7ecdf760e01b1480610cd957506301ffc9a760e01b6001600160e01b03198316145b92915050565b6060600b8054610cee90614176565b80601f0160208091040260200160405190810160405280929190818152602001828054610d1a90614176565b8015610d675780601f10610d3c57610100808354040283529160200191610d67565b820191906000526020600020905b815481529060010190602001808311610d4a57829003601f168201915b5050505050905090565b610d79611f4f565b6040516307e0db1760e01b815261ffff821660048201527f00000000000000000000000000000000000000000000000000000000000000006001600160a01b0316906307e0db17906024015b600060405180830381600087803b158015610ddf57600080fd5b505af1158015610df3573d6000803e3d6000fd5b5050505050565b600033610e08818585611fa9565b5060019392505050565b610e1a611f4f565b61ffff909116600090815260036020526040902055565b610e39611f4f565b6040516310ddb13760e01b815261ffff821660048201527f00000000000000000000000000000000000000000000000000000000000000006001600160a01b0316906310ddb13790602401610dc5565b600033610e978582856120ce565b610ea2858585612148565b506001949350505050565b610eb56122f3565b33600090815260086020526040902054811115610f1f5760405162461bcd60e51b815260206004820152602260248201527f4e61746976654f465456323a20496e73756666696369656e742062616c616e63604482015261329760f11b6064820152608401610aeb565b610f29338261234d565b604051600090339083908381818185875af1925050503d8060008114610f6b576040519150601f19603f3d011682016040523d82523d6000602084013e610f70565b606091505b5050905080610fc15760405162461bcd60e51b815260206004820152601d60248201527f4e61746976654f465456323a206661696c656420746f20756e777261700000006044820152606401610aeb565b60405182815233907f7fcf532c15f0a6db0bd6d0e038bea71d30d808c7d98cb3bf7268a95bf5081b659060200160405180910390a2506110016001600d55565b50565b60008061104a8888888888888080601f01602080910402602001604051908101604052809392919081815260200183838082843760009201919091525061247e92505050565b91509150965096945050505050565b600033610e0881858561106c8383611a4f565b61107691906141d1565b611fa9565b61ffff83166000908152600160205260408120805482919061109c90614176565b80601f01602080910402602001604051908101604052809291908181526020018280546110c890614176565b80156111155780601f106110ea57610100808354040283529160200191611115565b820191906000526020600020905b8154815290600101906020018083116110f857829003601f168201915b50505050509050838360405161112c9291906141ab565b60405180910390208180519060200120149150509392505050565b61114f611f4f565b6040516342d65a8d60e01b81526001600160a01b037f000000000000000000000000000000000000000000000000000000000000000016906342d65a8d9061119f90869086908690600401614212565b600060405180830381600087803b1580156111b957600080fd5b505af1158015610c9f573d6000803e3d6000fd5b33301461122b5760405162461bcd60e51b815260206004820152602660248201527f4e6f6e626c6f636b696e674c7a4170703a2063616c6c6572206d7573742062656044820152650204c7a4170760d41b6064820152608401610aeb565b6112a18686868080601f01602080910402602001604051908101604052809392919081815260200183838082843760009201919091525050604080516020601f89018190048102820181019092528781528993509150879087908190840183828082843760009201919091525061257292505050565b505050505050565b6112a1858585856112bd6020870187613da8565b6112cd6040880160208901613da8565b6112da6040890189614230565b8080601f0160208091040260200160405190810160405280939291908181526020018383808284376000920191909152506125f992505050565b61131c611f4f565b61132660006126e3565b565b6001602052600090815260409020805461134190614176565b80601f016020809104026020016040519081016040528092919081815260200182805461136d90614176565b80156113ba5780601f1061138f576101008083540402835291602001916113ba565b820191906000526020600020905b81548152906001019060200180831161139d57829003601f168201915b505050505081565b6114668888888888888080601f0160208091040260200160405190810160405280939291908181526020018383808284376000920191909152508a925061140f9150506020890189613da8565b61141f60408a0160208b01613da8565b61142c60408b018b614230565b8080601f01602080910402602001604051908101604052809392919081815260200183838082843760009201919091525061273392505050565b505050505050505050565b600061147c600a5490565b905090565b6060600c8054610cee90614176565b61ffff81166000908152600160205260408120805460609291906114b390614176565b80601f01602080910402602001604051908101604052809291908181526020018280546114df90614176565b801561152c5780601f106115015761010080835404028352916020019161152c565b820191906000526020600020905b81548152906001019060200180831161150f57829003601f168201915b505050505090508051600014156115855760405162461bcd60e51b815260206004820152601d60248201527f4c7a4170703a206e6f20747275737465642070617468207265636f72640000006044820152606401610aeb565b6115a06000601483516115989190614276565b839190612831565b9392505050565b600033816115b58286611a4f565b9050838110156116155760405162461bcd60e51b815260206004820152602560248201527f45524332303a2064656372656173656420616c6c6f77616e63652062656c6f77604482015264207a65726f60d81b6064820152608401610aeb565b610ea28286868403611fa9565b60008061169f8b8b8b8b8b8080601f01602080910402602001604051908101604052809392919081815260200183838082843760009201919091525050604080516020601f8d018190048102820181019092528b81528e93508d9250908c908c908190840183828082843760009201919091525061293e92505050565b91509150995099975050505050505050565b6116b9611f4f565b8181306040516020016116ce9392919061428d565b60408051601f1981840301815291815261ffff85166000908152600160209081529190208251611703939192909101906137d2565b507f8c0400cfe2d1199b1a725c78960bcc2a344d869b80590d0f2bd005db15a572ce83838360405161173793929190614212565b60405180910390a1505050565b600033610e08818585612148565b61175a611f4f565b600480546001600160a01b0319166001600160a01b0383169081179091556040519081527f5db758e995a17ec1ad84bdef7e8c3293a0bd6179bcce400dff5d4c3d87db726b906020015b60405180910390a150565b6117b7611f4f565b6040516332fb62e760e21b81526001600160a01b037f0000000000000000000000000000000000000000000000000000000000000000169063cbed8b9c9061180b90889088908890889088906004016142b3565b600060405180830381600087803b15801561182557600080fd5b505af1158015611466573d6000803e3d6000fd5b61ffff8616600090815260056020526040808220905161185c90889088906141ab565b90815260408051602092819003830190206001600160401b038716600090815292529020549050806118dc5760405162461bcd60e51b815260206004820152602360248201527f4e6f6e626c6f636b696e674c7a4170703a206e6f2073746f726564206d65737360448201526261676560e81b6064820152608401610aeb565b8083836040516118ed9291906141ab565b60405180910390201461194c5760405162461bcd60e51b815260206004820152602160248201527f4e6f6e626c6f636b696e674c7a4170703a20696e76616c6964207061796c6f616044820152601960fa1b6064820152608401610aeb565b61ffff8716600090815260056020526040808220905161196f90899089906141ab565b90815260408051602092819003830181206001600160401b038916600090815290845282902093909355601f88018290048202830182019052868252611a07918991899089908190840183828082843760009201919091525050604080516020601f8a018190048102820181019092528881528a93509150889088908190840183828082843760009201919091525061257292505050565b7fc264d91f3adc5588250e1551f547752ca0cfa8f6b530d243b9f9f4cab10ea8e58787878785604051611a3e9594939291906142ec565b60405180910390a150505050505050565b6001600160a01b03918216600090815260096020908152604080832093909416825291909152205490565b611a82611f4f565b60008111611aca5760405162461bcd60e51b81526020600482015260156024820152744c7a4170703a20696e76616c6964206d696e47617360581b6044820152606401610aeb565b61ffff83811660008181526002602090815260408083209487168084529482529182902085905581519283528201929092529081018290527f9d5c7c0b934da8fefa9c7760c98383778a12dfbfc0c3b3106518f43fb9508ac090606001611737565b611b34611f4f565b6006805460ff19168215159081179091556040519081527f1584ad594a70cbe1e6515592e1272a987d922b097ead875069cebe8b40c004a4906020016117a4565b333014611bc45760405162461bcd60e51b815260206004820152601f60248201527f4f4654436f72653a2063616c6c6572206d757374206265204f4654436f7265006044820152606401610aeb565b611bcf308686612a00565b9350846001600160a01b03168a61ffff167fbf551ec93859b170f9b2141bd9298bf3f64322c6f7beb2543a0cb669834118bf86604051611c1191815260200190565b60405180910390a3604051633fe79aed60e11b81526001600160a01b03861690637fcf35da908390611c55908e908e908e908e908e908d908d908d90600401614327565b600060405180830381600088803b158015611c6f57600080fd5b5087f1158015611c83573d6000803e3d6000fd5b505050505050505050505050505050565b611c9c611f4f565b61ffff83166000908152600160205260409020611cba908383613856565b507ffa41487ad5d6728f0b19276fa1eddc16558578f5109fc39d2dc33c3230470dab83838360405161173793929190614212565b611cf6611f4f565b6001600160a01b038116611d5b5760405162461bcd60e51b815260206004820152602660248201527f4f776e61626c653a206e6577206f776e657220697320746865207a65726f206160448201526564647265737360d01b6064820152608401610aeb565b611001816126e3565b604051633d7b2f6f60e21b815261ffff808616600483015284166024820152306044820152606481018290526060907f00000000000000000000000000000000000000000000000000000000000000006001600160a01b03169063f5ecbdbc90608401600060405180830381865afa158015611de4573d6000803e3d6000fd5b505050506040513d6000823e601f3d908101601f19168201604052611e0c9190810190614382565b95945050505050565b6001600160a01b038216611e6b5760405162461bcd60e51b815260206004820152601f60248201527f45524332303a206d696e7420746f20746865207a65726f2061646472657373006044820152606401610aeb565b80600a6000828254611e7d91906141d1565b90915550506001600160a01b0382166000818152600860209081526040808320805486019055518481527fddf252ad1be2c89b69c2b068fc378daa952ba7f163c4a11628f55a4df523b3ef910160405180910390a35050565b600080611f395a60966366ad5c8a60e01b89898989604051602401611efe94939291906143ef565b60408051601f198184030181529190526020810180516001600160e01b03166001600160e01b03199093169290921790915230929190612a52565b91509150816112a1576112a18686868685612adc565b6000546001600160a01b031633146113265760405162461bcd60e51b815260206004820181905260248201527f4f776e61626c653a2063616c6c6572206973206e6f7420746865206f776e65726044820152606401610aeb565b6001600160a01b03831661200b5760405162461bcd60e51b8152602060048201526024808201527f45524332303a20617070726f76652066726f6d20746865207a65726f206164646044820152637265737360e01b6064820152608401610aeb565b6001600160a01b03821661206c5760405162461bcd60e51b815260206004820152602260248201527f45524332303a20617070726f766520746f20746865207a65726f206164647265604482015261737360f01b6064820152608401610aeb565b6001600160a01b0383811660008181526009602090815260408083209487168084529482529182902085905590518481527f8c5be1e5ebec7d5bd14f71427d1e84f3dd0314c0f7b2291e5b200ac8c7c3b92591015b60405180910390a3505050565b60006120da8484611a4f565b9050600019811461214257818110156121355760405162461bcd60e51b815260206004820152601d60248201527f45524332303a20696e73756666696369656e7420616c6c6f77616e63650000006044820152606401610aeb565b6121428484848403611fa9565b50505050565b6001600160a01b0383166121ac5760405162461bcd60e51b815260206004820152602560248201527f45524332303a207472616e736665722066726f6d20746865207a65726f206164604482015264647265737360d81b6064820152608401610aeb565b6001600160a01b03821661220e5760405162461bcd60e51b815260206004820152602360248201527f45524332303a207472616e7366657220746f20746865207a65726f206164647260448201526265737360e81b6064820152608401610aeb565b6001600160a01b038316600090815260086020526040902054818110156122865760405162461bcd60e51b815260206004820152602660248201527f45524332303a207472616e7366657220616d6f756e7420657863656564732062604482015265616c616e636560d01b6064820152608401610aeb565b6001600160a01b0380851660008181526008602052604080822086860390559286168082529083902080548601905591517fddf252ad1be2c89b69c2b068fc378daa952ba7f163c4a11628f55a4df523b3ef906122e69086815260200190565b60405180910390a3612142565b6002600d5414156123465760405162461bcd60e51b815260206004820152601f60248201527f5265656e7472616e637947756172643a207265656e7472616e742063616c6c006044820152606401610aeb565b6002600d55565b6001600160a01b0382166123ad5760405162461bcd60e51b815260206004820152602160248201527f45524332303a206275726e2066726f6d20746865207a65726f206164647265736044820152607360f81b6064820152608401610aeb565b6001600160a01b038216600090815260086020526040902054818110156124215760405162461bcd60e51b815260206004820152602260248201527f45524332303a206275726e20616d6f756e7420657863656564732062616c616e604482015261636560f01b6064820152608401610aeb565b6001600160a01b03831660008181526008602090815260408083208686039055600a80548790039055518581529192917fddf252ad1be2c89b69c2b068fc378daa952ba7f163c4a11628f55a4df523b3ef91016120c1565b505050565b60008060006124cc8761249088612b79565b6040805160006020820152602181019390935260c09190911b6001600160c01b0319166041830152805160298184030181526049909201905290565b60405163040a7bb160e41b81529091506001600160a01b037f000000000000000000000000000000000000000000000000000000000000000016906340a7bb1090612523908b90309086908b908b9060040161442d565b6040805180830381865afa15801561253f573d6000803e3d6000fd5b505050506040513d601f19601f820116820180604052508101906125639190614481565b92509250509550959350505050565b600061257e8282612bff565b905060ff81166125995761259485858585612c5b565b610df3565b60ff8116600114156125b15761259485858585612ceb565b60405162461bcd60e51b815260206004820152601c60248201527f4f4654436f72653a20756e6b6e6f776e207061636b65742074797065000000006044820152606401610aeb565b600061260787828481612ef9565b61261085612f73565b509050806126605760405162461bcd60e51b815260206004820152601d60248201527f4e61746976654f465456323a20616d6f756e7420746f6f20736d616c6c0000006044820152606401610aeb565b600061266c8983612fb3565b9050600061267d8861249085612b79565b905061268d898288888887612fdd565b878a6001600160a01b03168a61ffff167fd81fc9b8523134ed613870ed029d6170cbb73aa6a6bc311b9a642689fb9df59a866040516126ce91815260200190565b60405180910390a45050979650505050505050565b600080546001600160a01b038381166001600160a01b0319831681178455604051919092169283917f8be0079c531659141344cd1fd0a4f28419497f9722a3daafe3b4186f6b6457e09190a35050565b600061274b896001846001600160401b038916612ef9565b61275487612f73565b509050806127a45760405162461bcd60e51b815260206004820152601d60248201527f4e61746976654f465456323a20616d6f756e7420746f6f20736d616c6c0000006044820152606401610aeb565b60006127b08b83612fb3565b905060006127c9338b6127c286612b79565b8b8b613183565b90506127d98b8288888887612fdd565b898c6001600160a01b03168c61ffff167fd81fc9b8523134ed613870ed029d6170cbb73aa6a6bc311b9a642689fb9df59a8660405161281a91815260200190565b60405180910390a450509998505050505050505050565b60608161283f81601f6141d1565b101561287e5760405162461bcd60e51b815260206004820152600e60248201526d736c6963655f6f766572666c6f7760901b6044820152606401610aeb565b61288882846141d1565b845110156128cc5760405162461bcd60e51b8152602060048201526011602482015270736c6963655f6f75744f66426f756e647360781b6044820152606401610aeb565b6060821580156128eb5760405191506000825260208201604052612935565b6040519150601f8416801560200281840101858101878315602002848b0101015b8183101561292457805183526020928301920161290c565b5050858452601f01601f1916604052505b50949350505050565b6000806000612958338a6129518b612b79565b8a8a613183565b60405163040a7bb160e41b81529091506001600160a01b037f000000000000000000000000000000000000000000000000000000000000000016906340a7bb10906129af908d90309086908b908b9060040161442d565b6040805180830381865afa1580156129cb573d6000803e3d6000fd5b505050506040513d601f19601f820116820180604052508101906129ef9190614481565b925092505097509795505050505050565b600033306001600160a01b03861614801590612a2e5750806001600160a01b0316856001600160a01b031614155b15612a3e57612a3e8582856120ce565b612a49858585612148565b50909392505050565b6000606060008060008661ffff166001600160401b03811115612a7757612a77613c16565b6040519080825280601f01601f191660200182016040528015612aa1576020820181803683370190505b50905060008087516020890160008d8df191503d925086831115612ac3578692505b828152826000602083013e909890975095505050505050565b8180519060200120600560008761ffff1661ffff16815260200190815260200160002085604051612b0d91906144a5565b9081526040805191829003602090810183206001600160401b0388166000908152915220919091557fe183f33de2837795525b4792ca4cd60535bd77c53b7e7030060bfcf5734d6b0c90612b6a90879087908790879087906144c1565b60405180910390a15050505050565b600080612ba67f000000000000000000000000000000000000000000000000000000000000000084614529565b90506001600160401b03811115610cd95760405162461bcd60e51b815260206004820152601a60248201527f4f4654436f72653a20616d6f756e745344206f766572666c6f770000000000006044820152606401610aeb565b6000612c0c8260016141d1565b83511015612c525760405162461bcd60e51b8152602060048201526013602482015272746f55696e74385f6f75744f66426f756e647360681b6044820152606401610aeb565b50016001015190565b600080612c67836131c4565b90925090506001600160a01b038216612c805761dead91505b6000612c8b82613249565b9050612c9887848361327e565b9050826001600160a01b03168761ffff167fbf551ec93859b170f9b2141bd9298bf3f64322c6f7beb2543a0cb669834118bf83604051612cda91815260200190565b60405180910390a350505050505050565b6000806000806000612cfc8661332d565b945094509450945094506000600760008b61ffff1661ffff16815260200190815260200160002089604051612d3191906144a5565b90815260408051602092819003830190206001600160401b038b166000908152925281205460ff169150612d6485613249565b905081612dd257612d768b308361327e565b61ffff8c16600090815260076020526040908190209051919250600191612d9e908d906144a5565b90815260408051602092819003830190206001600160401b038d16600090815292529020805460ff19169115159190911790555b6001600160a01b0386163b612e29576040516001600160a01b03871681527f9aedf5fdba8716db3b6705ca00150643309995d4f818a249ed6dde6677e7792d9060200160405180910390a150505050505050612142565b8a8a8a8a8a8a868a60008a612e47578b6001600160401b0316612e49565b5a5b9050600080612e7b5a609663eaffd49a60e01b8e8e8e8d8d8d8d8d604051602401611efe98979695949392919061453d565b915091508115612ed4578751602089012060405161ffff8d16907fb8890edbfc1c74692f527444645f95489c3703cc2df42e4a366f5d06fa6cd88490612ec6908e908e9086906145b1565b60405180910390a250612ee1565b612ee18b8b8b8b85612adc565b50505050505050505050505050505050505050505050565b60065460ff1615612f1557612f10848484846133e4565b612142565b8151156121425760405162461bcd60e51b815260206004820152602660248201527f4f4654436f72653a205f61646170746572506172616d73206d7573742062652060448201526532b6b83a3c9760d11b6064820152608401610aeb565b600080612fa07f0000000000000000000000000000000000000000000000000000000000000000846145df565b9050612fac8184614276565b9150915091565b6000336001600160a01b03841614612fd457612fcf83836134c3565b6115a0565b6115a082613568565b61ffff861660009081526001602052604081208054612ffb90614176565b80601f016020809104026020016040519081016040528092919081815260200182805461302790614176565b80156130745780601f1061304957610100808354040283529160200191613074565b820191906000526020600020905b81548152906001019060200180831161305757829003601f168201915b505050505090508051600014156130e65760405162461bcd60e51b815260206004820152603060248201527f4c7a4170703a2064657374696e6174696f6e20636861696e206973206e6f742060448201526f61207472757374656420736f7572636560801b6064820152608401610aeb565b6130f18787516135e8565b60405162c5803160e81b81526001600160a01b037f0000000000000000000000000000000000000000000000000000000000000000169063c5803100908490613148908b9086908c908c908c908c906004016145f3565b6000604051808303818588803b15801561316157600080fd5b505af1158015613175573d6000803e3d6000fd5b505050505050505050505050565b6060600185856001600160a01b03891685876040516020016131aa9695949392919061465a565b604051602081830303815290604052905095945050505050565b600080806131d28482612bff565b60ff161480156131e3575082516029145b61322a5760405162461bcd60e51b815260206004820152601860248201527713d19510dbdc994e881a5b9d985b1a59081c185e5b1bd85960421b6044820152606401610aeb565b61323583600d613656565b91506132428360216136bb565b9050915091565b6000610cd97f00000000000000000000000000000000000000000000000000000000000000006001600160401b0384166146bb565b600061328a308361234d565b6000836001600160a01b03168360405160006040518083038185875af1925050503d80600081146132d7576040519150601f19603f3d011682016040523d82523d6000602084013e6132dc565b606091505b5050905080612a495760405162461bcd60e51b815260206004820181905260248201527f4e61746976654f465456323a206661696c656420746f205f637265646974546f6044820152606401610aeb565b6000808060608160016133408783612bff565b60ff161461338b5760405162461bcd60e51b815260206004820152601860248201527713d19510dbdc994e881a5b9d985b1a59081c185e5b1bd85960421b6044820152606401610aeb565b61339686600d613656565b93506133a38660216136bb565b92506133b0866029613718565b94506133bd8660496136bb565b90506133d960518088516133d19190614276565b889190612831565b915091939590929450565b60006133ef83613776565b61ffff8087166000908152600260209081526040808320938916835292905290812054919250906134219084906141d1565b9050600081116134735760405162461bcd60e51b815260206004820152601a60248201527f4c7a4170703a206d696e4761734c696d6974206e6f74207365740000000000006044820152606401610aeb565b808210156112a15760405162461bcd60e51b815260206004820152601b60248201527f4c7a4170703a20676173206c696d697420697320746f6f206c6f7700000000006044820152606401610aeb565b6001600160a01b0382166000908152600860205260408120548281101561354757826134ef34836141d1565b101561350d5760405162461bcd60e51b8152600401610aeb906146da565b60006135198285614276565b90506135253382611e15565b613530333083612148565b819350803461353f9190614276565b92505061354b565b3491505b6135568433856120ce565b613561843085612148565b5092915050565b33600090815260086020526040812054828110156135d3578261358b34836141d1565b10156135a95760405162461bcd60e51b8152600401610aeb906146da565b60006135b58285614276565b90506135c13382611e15565b6135cb8134614276565b9250506135d7565b3491505b6135e2333085612148565b50919050565b61ffff82166000908152600360205260409020548061360657506127105b808211156124795760405162461bcd60e51b815260206004820181905260248201527f4c7a4170703a207061796c6f61642073697a6520697320746f6f206c617267656044820152606401610aeb565b60006136638260146141d1565b835110156136ab5760405162461bcd60e51b8152602060048201526015602482015274746f416464726573735f6f75744f66426f756e647360581b6044820152606401610aeb565b500160200151600160601b900490565b60006136c88260086141d1565b8351101561370f5760405162461bcd60e51b8152602060048201526014602482015273746f55696e7436345f6f75744f66426f756e647360601b6044820152606401610aeb565b50016008015190565b60006137258260206141d1565b8351101561376d5760405162461bcd60e51b8152602060048201526015602482015274746f427974657333325f6f75744f66426f756e647360581b6044820152606401610aeb565b50016020015190565b60006022825110156137ca5760405162461bcd60e51b815260206004820152601c60248201527f4c7a4170703a20696e76616c69642061646170746572506172616d73000000006044820152606401610aeb565b506022015190565b8280546137de90614176565b90600052602060002090601f0160209004810192826138005760008555613846565b82601f1061381957805160ff1916838001178555613846565b82800160010185558215613846579182015b8281111561384657825182559160200191906001019061382b565b506138529291506138ca565b5090565b82805461386290614176565b90600052602060002090601f0160209004810192826138845760008555613846565b82601f1061389d5782800160ff19823516178555613846565b82800160010185558215613846579182015b828111156138465782358255916020019190600101906138af565b5b8082111561385257600081556001016138cb565b803561ffff811681146138f157600080fd5b919050565b60008083601f84011261390857600080fd5b5081356001600160401b0381111561391f57600080fd5b60208301915083602082850101111561393757600080fd5b9250929050565b80356001600160401b03811681146138f157600080fd5b6000806000806000806080878903121561396e57600080fd5b613977876138df565b955060208701356001600160401b038082111561399357600080fd5b61399f8a838b016138f6565b90975095508591506139b360408a0161393e565b945060608901359150808211156139c957600080fd5b506139d689828a016138f6565b979a9699509497509295939492505050565b6000602082840312156139fa57600080fd5b81356001600160e01b0319811681146115a057600080fd5b60005b83811015613a2d578181015183820152602001613a15565b838111156121425750506000910152565b60008151808452613a56816020860160208601613a12565b601f01601f19169290920160200192915050565b6020815260006115a06020830184613a3e565b600060208284031215613a8f57600080fd5b6115a0826138df565b6001600160a01b038116811461100157600080fd5b60008060408385031215613ac057600080fd5b8235613acb81613a98565b946020939093013593505050565b60008060408385031215613aec57600080fd5b613acb836138df565b600080600060608486031215613b0a57600080fd5b8335613b1581613a98565b92506020840135613b2581613a98565b929592945050506040919091013590565b600060208284031215613b4857600080fd5b5035919050565b803580151581146138f157600080fd5b60008060008060008060a08789031215613b7857600080fd5b613b81876138df565b95506020870135945060408701359350613b9d60608801613b4f565b925060808701356001600160401b03811115613bb857600080fd5b6139d689828a016138f6565b600080600060408486031215613bd957600080fd5b613be2846138df565b925060208401356001600160401b03811115613bfd57600080fd5b613c09868287016138f6565b9497909650939450505050565b634e487b7160e01b600052604160045260246000fd5b604051601f8201601f191681016001600160401b0381118282101715613c5457613c54613c16565b604052919050565b60006001600160401b03821115613c7557613c75613c16565b50601f01601f191660200190565b600080600060608486031215613c9857600080fd5b613ca1846138df565b925060208401356001600160401b03811115613cbc57600080fd5b8401601f81018613613ccd57600080fd5b8035613ce0613cdb82613c5c565b613c2c565b818152876020838501011115613cf557600080fd5b81602084016020830137600060208383010152809450505050613d1a6040850161393e565b90509250925092565b6000606082840312156135e257600080fd5b600080600080600060a08688031215613d4d57600080fd5b8535613d5881613a98565b9450613d66602087016138df565b9350604086013592506060860135915060808601356001600160401b03811115613d8f57600080fd5b613d9b88828901613d23565b9150509295509295909350565b600060208284031215613dba57600080fd5b81356115a081613a98565b60008060008060008060008060e0898b031215613de157600080fd5b8835613dec81613a98565b9750613dfa60208a016138df565b9650604089013595506060890135945060808901356001600160401b0380821115613e2457600080fd5b613e308c838d016138f6565b9096509450849150613e4460a08c0161393e565b935060c08b0135915080821115613e5a57600080fd5b50613e678b828c01613d23565b9150509295985092959890939650565b60008060408385031215613e8a57600080fd5b613e93836138df565b9150613ea1602084016138df565b90509250929050565b600080600080600080600080600060e08a8c031215613ec857600080fd5b613ed18a6138df565b985060208a0135975060408a0135965060608a01356001600160401b0380821115613efb57600080fd5b613f078d838e016138f6565b9098509650869150613f1b60808d0161393e565b9550613f2960a08d01613b4f565b945060c08c0135915080821115613f3f57600080fd5b50613f4c8c828d016138f6565b915080935050809150509295985092959850929598565b600080600080600060808688031215613f7b57600080fd5b613f84866138df565b9450613f92602087016138df565b93506040860135925060608601356001600160401b03811115613fb457600080fd5b613fc0888289016138f6565b969995985093965092949392505050565b60008060408385031215613fe457600080fd5b8235613fef81613a98565b91506020830135613fff81613a98565b809150509250929050565b60008060006060848603121561401f57600080fd5b614028846138df565b9250614036602085016138df565b9150604084013590509250925092565b60006020828403121561405857600080fd5b6115a082613b4f565b6000806000806000806000806000806101008b8d03121561408157600080fd5b61408a8b6138df565b995060208b01356001600160401b03808211156140a657600080fd5b6140b28e838f016138f6565b909b5099508991506140c660408e0161393e565b985060608d0135975060808d013591506140df82613a98565b90955060a08c0135945060c08c013590808211156140fc57600080fd5b506141098d828e016138f6565b9150809450508092505060e08b013590509295989b9194979a5092959850565b6000806000806080858703121561413f57600080fd5b614148856138df565b9350614156602086016138df565b9250604085013561416681613a98565b9396929550929360600135925050565b600181811c9082168061418a57607f821691505b602082108114156135e257634e487b7160e01b600052602260045260246000fd5b8183823760009101908152919050565b634e487b7160e01b600052601160045260246000fd5b600082198211156141e4576141e46141bb565b500190565b81835281816020850137506000828201602090810191909152601f909101601f19169091010190565b61ffff84168152604060208201526000611e0c6040830184866141e9565b6000808335601e1984360301811261424757600080fd5b8301803591506001600160401b0382111561426157600080fd5b60200191503681900382131561393757600080fd5b600082821015614288576142886141bb565b500390565b8284823760609190911b6bffffffffffffffffffffffff19169101908152601401919050565b600061ffff8088168352808716602084015250846040830152608060608301526142e16080830184866141e9565b979650505050505050565b61ffff8616815260806020820152600061430a6080830186886141e9565b6001600160401b0394909416604083015250606001529392505050565b61ffff8916815260c06020820152600061434560c08301898b6141e9565b6001600160401b038816604084015286606084015285608084015282810360a08401526143738185876141e9565b9b9a5050505050505050505050565b60006020828403121561439457600080fd5b81516001600160401b038111156143aa57600080fd5b8201601f810184136143bb57600080fd5b80516143c9613cdb82613c5c565b8181528560208385010111156143de57600080fd5b611e0c826020830160208601613a12565b61ffff8516815260806020820152600061440c6080830186613a3e565b6001600160401b038516604084015282810360608401526142e18185613a3e565b61ffff861681526001600160a01b038516602082015260a06040820181905260009061445b90830186613a3e565b841515606084015282810360808401526144758185613a3e565b98975050505050505050565b6000806040838503121561449457600080fd5b505080516020909101519092909150565b600082516144b7818460208701613a12565b9190910192915050565b61ffff8616815260a0602082015260006144de60a0830187613a3e565b6001600160401b038616604084015282810360608401526144ff8186613a3e565b905082810360808401526144758185613a3e565b634e487b7160e01b600052601260045260246000fd5b60008261453857614538614513565b500490565b600061010061ffff8b16835280602084015261455b8184018b613a3e565b6001600160401b038a166040850152606084018990526001600160a01b038816608085015260a0840187905283810360c0850152905061459b8186613a3e565b9150508260e08301529998505050505050505050565b6060815260006145c46060830186613a3e565b6001600160401b039490941660208301525060400152919050565b6000826145ee576145ee614513565b500690565b61ffff8716815260c06020820152600061461060c0830188613a3e565b82810360408401526146228188613a3e565b6001600160a01b0387811660608601528616608085015283810360a0850152905061464d8185613a3e565b9998505050505050505050565b60ff60f81b8760f81b16815285600182015260006001600160401b0360c01b808760c01b166021840152856029840152808560c01b1660498401525082516146a9816051850160208701613a12565b91909101605101979650505050505050565b60008160001904831182151516156146d5576146d56141bb565b500290565b60208082526023908201527f4e61746976654f465456323a20496e73756666696369656e74206d73672e76616040820152626c756560e81b60608201526080019056fea2646970667358221220ee278afe11ed65642ea40d68c95255736ea821b12b590295db09ba1de7512a6364736f6c634300080c0033",
  "linkReferences": {},
  "deployedLinkReferences": {}
}