{
  "_format": "hh-sol-artifact-1",
  "contractName": "PausableOFT",
  "sourceName": "contracts/token/oft/extension/PausableOFT.sol",
  "abi": [
    {
      "inputs": [
        {
          "internalType": "string",
          "name": "_name",
          "type": "string"
        },
        {
          "internalType": "string",
          "name": "_symbol",
          "type": "string"
        },
        {
          "internalType": "address",
          "name": "_lzEndpoint",
          "type": "address"
        }
      ],
      "stateMutability": "nonpayable",
      "type": "constructor"
    },
    {
      "anonymous": false,
      "inputs": [
        {
          "indexed": true,
          "internalType": "address",
          "name": "owner",
          "type": "address"
        },
        {
          "indexed": true,
          "internalType": "address",
          "name": "spender",
          "type": "address"
        },
        {
          "indexed": false,
          "internalType": "uint256",
          "name": "value",
          "type": "uint256"
        }
      ],
      "name": "Approval",
      "type": "event"
    },
    {
      "anonymous": false,
      "inputs": [
        {
          "indexed": false,
          "internalType": "uint16",
          "name": "_srcChainId",
          "type": "uint16"
        },
        {
          "indexed": false,
          "internalType": "bytes",
          "name": "_srcAddress",
          "type": "bytes"
        },
        {
          "indexed": false,
          "internalType": "uint64",
          "name": "_nonce",
          "type": "uint64"
        },
        {
          "indexed": false,
          "internalType": "bytes",
          "name": "_payload",
          "type": "bytes"
        },
        {
          "indexed": false,
          "internalType": "bytes",
          "name": "_reason",
          "type": "bytes"
        }
      ],
      "name": "MessageFailed",
      "type": "event"
    },
    {
      "anonymous": false,
      "inputs": [
        {
          "indexed": true,
          "internalType": "address",
          "name": "previousOwner",
          "type": "address"
        },
        {
          "indexed": true,
          "internalType": "address",
          "name": "newOwner",
          "type": "address"
        }
      ],
      "name": "OwnershipTransferred",
      "type": "event"
    },
    {
      "anonymous": false,
      "inputs": [
        {
          "indexed": false,
          "internalType": "address",
          "name": "account",
          "type": "address"
        }
      ],
      "name": "Paused",
      "type": "event"
    },
    {
      "anonymous": false,
      "inputs": [
        {
          "indexed": true,
          "internalType": "uint16",
          "name": "_srcChainId",
          "type": "uint16"
        },
        {
          "indexed": true,
          "internalType": "address",
          "name": "_to",
          "type": "address"
        },
        {
          "indexed": false,
          "internalType": "uint256",
          "name": "_amount",
          "type": "uint256"
        }
      ],
      "name": "ReceiveFromChain",
      "type": "event"
    },
    {
      "anonymous": false,
      "inputs": [
        {
          "indexed": false,
          "internalType": "uint16",
          "name": "_srcChainId",
          "type": "uint16"
        },
        {
          "indexed": false,
          "internalType": "bytes",
          "name": "_srcAddress",
          "type": "bytes"
        },
        {
          "indexed": false,
          "internalType": "uint64",
          "name": "_nonce",
          "type": "uint64"
        },
        {
          "indexed": false,
          "internalType": "bytes32",
          "name": "_payloadHash",
          "type": "bytes32"
        }
      ],
      "name": "RetryMessageSuccess",
      "type": "event"
    },
    {
      "anonymous": false,
      "inputs": [
        {
          "indexed": true,
          "internalType": "uint16",
          "name": "_dstChainId",
          "type": "uint16"
        },
        {
          "indexed": true,
          "internalType": "address",
          "name": "_from",
          "type": "address"
        },
        {
          "indexed": false,
          "internalType": "bytes",
          "name": "_toAddress",
          "type": "bytes"
        },
        {
          "indexed": false,
          "internalType": "uint256",
          "name": "_amount",
          "type": "uint256"
        }
      ],
      "name": "SendToChain",
      "type": "event"
    },
    {
      "anonymous": false,
      "inputs": [
        {
          "indexed": false,
          "internalType": "uint16",
          "name": "_dstChainId",
          "type": "uint16"
        },
        {
          "indexed": false,
          "internalType": "uint16",
          "name": "_type",
          "type": "uint16"
        },
        {
          "indexed": false,
          "internalType": "uint256",
          "name": "_minDstGas",
          "type": "uint256"
        }
      ],
      "name": "SetMinDstGas",
      "type": "event"
    },
    {
      "anonymous": false,
      "inputs": [
        {
          "indexed": false,
          "internalType": "address",
          "name": "precrime",
          "type": "address"
        }
      ],
      "name": "SetPrecrime",
      "type": "event"
    },
    {
      "anonymous": false,
      "inputs": [
        {
          "indexed": false,
          "internalType": "uint16",
          "name": "_remoteChainId",
          "type": "uint16"
        },
        {
          "indexed": false,
          "internalType": "bytes",
          "name": "_path",
          "type": "bytes"
        }
      ],
      "name": "SetTrustedRemote",
      "type": "event"
    },
    {
      "anonymous": false,
      "inputs": [
        {
          "indexed": false,
          "internalType": "uint16",
          "name": "_remoteChainId",
          "type": "uint16"
        },
        {
          "indexed": false,
          "internalType": "bytes",
          "name": "_remoteAddress",
          "type": "bytes"
        }
      ],
      "name": "SetTrustedRemoteAddress",
      "type": "event"
    },
    {
      "anonymous": false,
      "inputs": [
        {
          "indexed": false,
          "internalType": "bool",
          "name": "_useCustomAdapterParams",
          "type": "bool"
        }
      ],
      "name": "SetUseCustomAdapterParams",
      "type": "event"
    },
    {
      "anonymous": false,
      "inputs": [
        {
          "indexed": true,
          "internalType": "address",
          "name": "from",
          "type": "address"
        },
        {
          "indexed": true,
          "internalType": "address",
          "name": "to",
          "type": "address"
        },
        {
          "indexed": false,
          "internalType": "uint256",
          "name": "value",
          "type": "uint256"
        }
      ],
      "name": "Transfer",
      "type": "event"
    },
    {
      "anonymous": false,
      "inputs": [
        {
          "indexed": false,
          "internalType": "address",
          "name": "account",
          "type": "address"
        }
      ],
      "name": "Unpaused",
      "type": "event"
    },
    {
      "inputs": [],
      "name": "DEFAULT_PAYLOAD_SIZE_LIMIT",
      "outputs": [
        {
          "internalType": "uint256",
          "name": "",
          "type": "uint256"
        }
      ],
      "stateMutability": "view",
      "type": "function"
    },
    {
      "inputs": [],
      "name": "NO_EXTRA_GAS",
      "outputs": [
        {
          "internalType": "uint256",
          "name": "",
          "type": "uint256"
        }
      ],
      "stateMutability": "view",
      "type": "function"
    },
    {
      "inputs": [],
      "name": "PT_SEND",
      "outputs": [
        {
          "internalType": "uint16",
          "name": "",
          "type": "uint16"
        }
      ],
      "stateMutability": "view",
      "type": "function"
    },
    {
      "inputs": [
        {
          "internalType": "address",
          "name": "owner",
          "type": "address"
        },
        {
          "internalType": "address",
          "name": "spender",
          "type": "address"
        }
      ],
      "name": "allowance",
      "outputs": [
        {
          "internalType": "uint256",
          "name": "",
          "type": "uint256"
        }
      ],
      "stateMutability": "view",
      "type": "function"
    },
    {
      "inputs": [
        {
          "internalType": "address",
          "name": "spender",
          "type": "address"
        },
        {
          "internalType": "uint256",
          "name": "amount",
          "type": "uint256"
        }
      ],
      "name": "approve",
      "outputs": [
        {
          "internalType": "bool",
          "name": "",
          "type": "bool"
        }
      ],
      "stateMutability": "nonpayable",
      "type": "function"
    },
    {
      "inputs": [
        {
          "internalType": "address",
          "name": "account",
          "type": "address"
        }
      ],
      "name": "balanceOf",
      "outputs": [
        {
          "internalType": "uint256",
          "name": "",
          "type": "uint256"
        }
      ],
      "stateMutability": "view",
      "type": "function"
    },
    {
      "inputs": [],
      "name": "circulatingSupply",
      "outputs": [
        {
          "internalType": "uint256",
          "name": "",
          "type": "uint256"
        }
      ],
      "stateMutability": "view",
      "type": "function"
    },
    {
      "inputs": [],
      "name": "decimals",
      "outputs": [
        {
          "internalType": "uint8",
          "name": "",
          "type": "uint8"
        }
      ],
      "stateMutability": "view",
      "type": "function"
    },
    {
      "inputs": [
        {
          "internalType": "address",
          "name": "spender",
          "type": "address"
        },
        {
          "internalType": "uint256",
          "name": "subtractedValue",
          "type": "uint256"
        }
      ],
      "name": "decreaseAllowance",
      "outputs": [
        {
          "internalType": "bool",
          "name": "",
          "type": "bool"
        }
      ],
      "stateMutability": "nonpayable",
      "type": "function"
    },
    {
      "inputs": [
        {
          "internalType": "uint16",
          "name": "_dstChainId",
          "type": "uint16"
        },
        {
          "internalType": "bytes",
          "name": "_toAddress",
          "type": "bytes"
        },
        {
          "internalType": "uint256",
          "name": "_amount",
          "type": "uint256"
        },
        {
          "internalType": "bool",
          "name": "_useZro",
          "type": "bool"
        },
        {
          "internalType": "bytes",
          "name": "_adapterParams",
          "type": "bytes"
        }
      ],
      "name": "estimateSendFee",
      "outputs": [
        {
          "internalType": "uint256",
          "name": "nativeFee",
          "type": "uint256"
        },
        {
          "internalType": "uint256",
          "name": "zroFee",
          "type": "uint256"
        }
      ],
      "stateMutability": "view",
      "type": "function"
    },
    {
      "inputs": [
        {
          "internalType": "uint16",
          "name": "",
          "type": "uint16"
        },
        {
          "internalType": "bytes",
          "name": "",
          "type": "bytes"
        },
        {
          "internalType": "uint64",
          "name": "",
          "type": "uint64"
        }
      ],
      "name": "failedMessages",
      "outputs": [
        {
          "internalType": "bytes32",
          "name": "",
          "type": "bytes32"
        }
      ],
      "stateMutability": "view",
      "type": "function"
    },
    {
      "inputs": [
        {
          "internalType": "uint16",
          "name": "_srcChainId",
          "type": "uint16"
        },
        {
          "internalType": "bytes",
          "name": "_srcAddress",
          "type": "bytes"
        }
      ],
      "name": "forceResumeReceive",
      "outputs": [],
      "stateMutability": "nonpayable",
      "type": "function"
    },
    {
      "inputs": [
        {
          "internalType": "uint16",
          "name": "_version",
          "type": "uint16"
        },
        {
          "internalType": "uint16",
          "name": "_chainId",
          "type": "uint16"
        },
        {
          "internalType": "address",
          "name": "",
          "type": "address"
        },
        {
          "internalType": "uint256",
          "name": "_configType",
          "type": "uint256"
        }
      ],
      "name": "getConfig",
      "outputs": [
        {
          "internalType": "bytes",
          "name": "",
          "type": "bytes"
        }
      ],
      "stateMutability": "view",
      "type": "function"
    },
    {
      "inputs": [
        {
          "internalType": "uint16",
          "name": "_remoteChainId",
          "type": "uint16"
        }
      ],
      "name": "getTrustedRemoteAddress",
      "outputs": [
        {
          "internalType": "bytes",
          "name": "",
          "type": "bytes"
        }
      ],
      "stateMutability": "view",
      "type": "function"
    },
    {
      "inputs": [
        {
          "internalType": "address",
          "name": "spender",
          "type": "address"
        },
        {
          "internalType": "uint256",
          "name": "addedValue",
          "type": "uint256"
        }
      ],
      "name": "increaseAllowance",
      "outputs": [
        {
          "internalType": "bool",
          "name": "",
          "type": "bool"
        }
      ],
      "stateMutability": "nonpayable",
      "type": "function"
    },
    {
      "inputs": [
        {
          "internalType": "uint16",
          "name": "_srcChainId",
          "type": "uint16"
        },
        {
          "internalType": "bytes",
          "name": "_srcAddress",
          "type": "bytes"
        }
      ],
      "name": "isTrustedRemote",
      "outputs": [
        {
          "internalType": "bool",
          "name": "",
          "type": "bool"
        }
      ],
      "stateMutability": "view",
      "type": "function"
    },
    {
      "inputs": [],
      "name": "lzEndpoint",
      "outputs": [
        {
          "internalType": "contract ILayerZeroEndpoint",
          "name": "",
          "type": "address"
        }
      ],
      "stateMutability": "view",
      "type": "function"
    },
    {
      "inputs": [
        {
          "internalType": "uint16",
          "name": "_srcChainId",
          "type": "uint16"
        },
        {
          "internalType": "bytes",
          "name": "_srcAddress",
          "type": "bytes"
        },
        {
          "internalType": "uint64",
          "name": "_nonce",
          "type": "uint64"
        },
        {
          "internalType": "bytes",
          "name": "_payload",
          "type": "bytes"
        }
      ],
      "name": "lzReceive",
      "outputs": [],
      "stateMutability": "nonpayable",
      "type": "function"
    },
    {
      "inputs": [
        {
          "internalType": "uint16",
          "name": "",
          "type": "uint16"
        },
        {
          "internalType": "uint16",
          "name": "",
          "type": "uint16"
        }
      ],
      "name": "minDstGasLookup",
      "outputs": [
        {
          "internalType": "uint256",
          "name": "",
          "type": "uint256"
        }
      ],
      "stateMutability": "view",
      "type": "function"
    },
    {
      "inputs": [],
      "name": "name",
      "outputs": [
        {
          "internalType": "string",
          "name": "",
          "type": "string"
        }
      ],
      "stateMutability": "view",
      "type": "function"
    },
    {
      "inputs": [
        {
          "internalType": "uint16",
          "name": "_srcChainId",
          "type": "uint16"
        },
        {
          "internalType": "bytes",
          "name": "_srcAddress",
          "type": "bytes"
        },
        {
          "internalType": "uint64",
          "name": "_nonce",
          "type": "uint64"
        },
        {
          "internalType": "bytes",
          "name": "_payload",
          "type": "bytes"
        }
      ],
      "name": "nonblockingLzReceive",
      "outputs": [],
      "stateMutability": "nonpayable",
      "type": "function"
    },
    {
      "inputs": [],
      "name": "owner",
      "outputs": [
        {
          "internalType": "address",
          "name": "",
          "type": "address"
        }
      ],
      "stateMutability": "view",
      "type": "function"
    },
    {
      "inputs": [
        {
          "internalType": "bool",
          "name": "pause",
          "type": "bool"
        }
      ],
      "name": "pauseSendTokens",
      "outputs": [],
      "stateMutability": "nonpayable",
      "type": "function"
    },
    {
      "inputs": [],
      "name": "paused",
      "outputs": [
        {
          "internalType": "bool",
          "name": "",
          "type": "bool"
        }
      ],
      "stateMutability": "view",
      "type": "function"
    },
    {
      "inputs": [
        {
          "internalType": "uint16",
          "name": "",
          "type": "uint16"
        }
      ],
      "name": "payloadSizeLimitLookup",
      "outputs": [
        {
          "internalType": "uint256",
          "name": "",
          "type": "uint256"
        }
      ],
      "stateMutability": "view",
      "type": "function"
    },
    {
      "inputs": [],
      "name": "precrime",
      "outputs": [
        {
          "internalType": "address",
          "name": "",
          "type": "address"
        }
      ],
      "stateMutability": "view",
      "type": "function"
    },
    {
      "inputs": [],
      "name": "renounceOwnership",
      "outputs": [],
      "stateMutability": "nonpayable",
      "type": "function"
    },
    {
      "inputs": [
        {
          "internalType": "uint16",
          "name": "_srcChainId",
          "type": "uint16"
        },
        {
          "internalType": "bytes",
          "name": "_srcAddress",
          "type": "bytes"
        },
        {
          "internalType": "uint64",
          "name": "_nonce",
          "type": "uint64"
        },
        {
          "internalType": "bytes",
          "name": "_payload",
          "type": "bytes"
        }
      ],
      "name": "retryMessage",
      "outputs": [],
      "stateMutability": "payable",
      "type": "function"
    },
    {
      "inputs": [
        {
          "internalType": "address",
          "name": "_from",
          "type": "address"
        },
        {
          "internalType": "uint16",
          "name": "_dstChainId",
          "type": "uint16"
        },
        {
          "internalType": "bytes",
          "name": "_toAddress",
          "type": "bytes"
        },
        {
          "internalType": "uint256",
          "name": "_amount",
          "type": "uint256"
        },
        {
          "internalType": "address payable",
          "name": "_refundAddress",
          "type": "address"
        },
        {
          "internalType": "address",
          "name": "_zroPaymentAddress",
          "type": "address"
        },
        {
          "internalType": "bytes",
          "name": "_adapterParams",
          "type": "bytes"
        }
      ],
      "name": "sendFrom",
      "outputs": [],
      "stateMutability": "payable",
      "type": "function"
    },
    {
      "inputs": [
        {
          "internalType": "uint16",
          "name": "_version",
          "type": "uint16"
        },
        {
          "internalType": "uint16",
          "name": "_chainId",
          "type": "uint16"
        },
        {
          "internalType": "uint256",
          "name": "_configType",
          "type": "uint256"
        },
        {
          "internalType": "bytes",
          "name": "_config",
          "type": "bytes"
        }
      ],
      "name": "setConfig",
      "outputs": [],
      "stateMutability": "nonpayable",
      "type": "function"
    },
    {
      "inputs": [
        {
          "internalType": "uint16",
          "name": "_dstChainId",
          "type": "uint16"
        },
        {
          "internalType": "uint16",
          "name": "_packetType",
          "type": "uint16"
        },
        {
          "internalType": "uint256",
          "name": "_minGas",
          "type": "uint256"
        }
      ],
      "name": "setMinDstGas",
      "outputs": [],
      "stateMutability": "nonpayable",
      "type": "function"
    },
    {
      "inputs": [
        {
          "internalType": "uint16",
          "name": "_dstChainId",
          "type": "uint16"
        },
        {
          "internalType": "uint256",
          "name": "_size",
          "type": "uint256"
        }
      ],
      "name": "setPayloadSizeLimit",
      "outputs": [],
      "stateMutability": "nonpayable",
      "type": "function"
    },
    {
      "inputs": [
        {
          "internalType": "address",
          "name": "_precrime",
          "type": "address"
        }
      ],
      "name": "setPrecrime",
      "outputs": [],
      "stateMutability": "nonpayable",
      "type": "function"
    },
    {
      "inputs": [
        {
          "internalType": "uint16",
          "name": "_version",
          "type": "uint16"
        }
      ],
      "name": "setReceiveVersion",
      "outputs": [],
      "stateMutability": "nonpayable",
      "type": "function"
    },
    {
      "inputs": [
        {
          "internalType": "uint16",
          "name": "_version",
          "type": "uint16"
        }
      ],
      "name": "setSendVersion",
      "outputs": [],
      "stateMutability": "nonpayable",
      "type": "function"
    },
    {
      "inputs": [
        {
          "internalType": "uint16",
          "name": "_remoteChainId",
          "type": "uint16"
        },
        {
          "internalType": "bytes",
          "name": "_path",
          "type": "bytes"
        }
      ],
      "name": "setTrustedRemote",
      "outputs": [],
      "stateMutability": "nonpayable",
      "type": "function"
    },
    {
      "inputs": [
        {
          "internalType": "uint16",
          "name": "_remoteChainId",
          "type": "uint16"
        },
        {
          "internalType": "bytes",
          "name": "_remoteAddress",
          "type": "bytes"
        }
      ],
      "name": "setTrustedRemoteAddress",
      "outputs": [],
      "stateMutability": "nonpayable",
      "type": "function"
    },
    {
      "inputs": [
        {
          "internalType": "bool",
          "name": "_useCustomAdapterParams",
          "type": "bool"
        }
      ],
      "name": "setUseCustomAdapterParams",
      "outputs": [],
      "stateMutability": "nonpayable",
      "type": "function"
    },
    {
      "inputs": [
        {
          "internalType": "bytes4",
          "name": "interfaceId",
          "type": "bytes4"
        }
      ],
      "name": "supportsInterface",
      "outputs": [
        {
          "internalType": "bool",
          "name": "",
          "type": "bool"
        }
      ],
      "stateMutability": "view",
      "type": "function"
    },
    {
      "inputs": [],
      "name": "symbol",
      "outputs": [
        {
          "internalType": "string",
          "name": "",
          "type": "string"
        }
      ],
      "stateMutability": "view",
      "type": "function"
    },
    {
      "inputs": [],
      "name": "token",
      "outputs": [
        {
          "internalType": "address",
          "name": "",
          "type": "address"
        }
      ],
      "stateMutability": "view",
      "type": "function"
    },
    {
      "inputs": [],
      "name": "totalSupply",
      "outputs": [
        {
          "internalType": "uint256",
          "name": "",
          "type": "uint256"
        }
      ],
      "stateMutability": "view",
      "type": "function"
    },
    {
      "inputs": [
        {
          "internalType": "address",
          "name": "to",
          "type": "address"
        },
        {
          "internalType": "uint256",
          "name": "amount",
          "type": "uint256"
        }
      ],
      "name": "transfer",
      "outputs": [
        {
          "internalType": "bool",
          "name": "",
          "type": "bool"
        }
      ],
      "stateMutability": "nonpayable",
      "type": "function"
    },
    {
      "inputs": [
        {
          "internalType": "address",
          "name": "from",
          "type": "address"
        },
        {
          "internalType": "address",
          "name": "to",
          "type": "address"
        },
        {
          "internalType": "uint256",
          "name": "amount",
          "type": "uint256"
        }
      ],
      "name": "transferFrom",
      "outputs": [
        {
          "internalType": "bool",
          "name": "",
          "type": "bool"
        }
      ],
      "stateMutability": "nonpayable",
      "type": "function"
    },
    {
      "inputs": [
        {
          "internalType": "address",
          "name": "newOwner",
          "type": "address"
        }
      ],
      "name": "transferOwnership",
      "outputs": [],
      "stateMutability": "nonpayable",
      "type": "function"
    },
    {
      "inputs": [
        {
          "internalType": "uint16",
          "name": "",
          "type": "uint16"
        }
      ],
      "name": "trustedRemoteLookup",
      "outputs": [
        {
          "internalType": "bytes",
          "name": "",
          "type": "bytes"
        }
      ],
      "stateMutability": "view",
      "type": "function"
    },
    {
      "inputs": [],
      "name": "useCustomAdapterParams",
      "outputs": [
        {
          "internalType": "bool",
          "name": "",
          "type": "bool"
        }
      ],
      "stateMutability": "view",
      "type": "function"
    }
  ],
  "bytecode": "0x60a06040523480156200001157600080fd5b50604051620039543803806200395483398101604081905262000034916200025d565b828282828282808062000047336200009a565b6001600160a01b0316608052505081516200006a90600a906020850190620000ea565b5080516200008090600b906020840190620000ea565b5050600c805460ff19169055506200032795505050505050565b600080546001600160a01b038381166001600160a01b0319831681178455604051919092169283917f8be0079c531659141344cd1fd0a4f28419497f9722a3daafe3b4186f6b6457e09190a35050565b828054620000f890620002ea565b90600052602060002090601f0160209004810192826200011c576000855562000167565b82601f106200013757805160ff191683800117855562000167565b8280016001018555821562000167579182015b82811115620001675782518255916020019190600101906200014a565b506200017592915062000179565b5090565b5b808211156200017557600081556001016200017a565b634e487b7160e01b600052604160045260246000fd5b600082601f830112620001b857600080fd5b81516001600160401b0380821115620001d557620001d562000190565b604051601f8301601f19908116603f0116810190828211818310171562000200576200020062000190565b816040528381526020925086838588010111156200021d57600080fd5b600091505b8382101562000241578582018301518183018401529082019062000222565b83821115620002535760008385830101525b9695505050505050565b6000806000606084860312156200027357600080fd5b83516001600160401b03808211156200028b57600080fd5b6200029987838801620001a6565b94506020860151915080821115620002b057600080fd5b50620002bf86828701620001a6565b604086015190935090506001600160a01b0381168114620002df57600080fd5b809150509250925092565b600181811c90821680620002ff57607f821691505b602082108114156200032157634e487b7160e01b600052602260045260246000fd5b50919050565b6080516135d96200037b6000396000818161072a015281816108c501528181610be401528181610ca401528181610d4201528181610edf01528181611423015281816118eb015261239c01526135d96000f3fe6080604052600436106102875760003560e01c80637533d7881161015a578063c4461834116100c1578063eb8d72b71161007a578063eb8d72b714610815578063ed629c5c14610835578063f18789221461084f578063f2fde38b1461086f578063f5ecbdbc1461088f578063fc0c546a146108af57600080fd5b8063c44618341461076c578063cbed8b9c14610782578063d1deba1f146107a2578063dd62ed3e146107b5578063df2a5b3b146107d5578063eab45d9c146107f557600080fd5b80639f38369a116101135780639f38369a14610698578063a457c2d7146106b8578063a6c3d165146106d8578063a9059cbb146106f8578063b353aaa714610718578063baf3292d1461074c57600080fd5b80637533d788146105c45780638cfd8f5c146105e45780638da5cb5b1461061c5780639358928b1461064e578063950c8a741461066357806395d89b411461068357600080fd5b806339509351116101fe57806351905636116101b757806351905636146104df5780635b8c41e6146104f25780635c975abb1461054157806366ad5c8a1461055957806370a0823114610579578063715018a6146105af57600080fd5b806339509351146104155780633d8b38f6146104355780633f1f4fa41461045557806342d65a8d1461048257806344770515146104a25780634c42899a146104b757600080fd5b80630df37483116102505780630df374831461034557806310ddb1371461036557806318160ddd1461038557806323b872dd146103a45780632a205e3d146103c4578063313ce567146103f957600080fd5b80621d35671461028c57806301ffc9a7146102ae57806306fdde03146102e357806307e0db1714610305578063095ea7b314610325575b600080fd5b34801561029857600080fd5b506102ac6102a7366004612afa565b6108c2565b005b3480156102ba57600080fd5b506102ce6102c9366004612b8f565b610af3565b60405190151581526020015b60405180910390f35b3480156102ef57600080fd5b506102f8610b31565b6040516102da9190612c11565b34801561031157600080fd5b506102ac610320366004612c24565b610bc3565b34801561033157600080fd5b506102ce610340366004612c56565b610c4c565b34801561035157600080fd5b506102ac610360366004612c82565b610c64565b34801561037157600080fd5b506102ac610380366004612c24565b610c83565b34801561039157600080fd5b506009545b6040519081526020016102da565b3480156103b057600080fd5b506102ce6103bf366004612ca0565b610cdb565b3480156103d057600080fd5b506103e46103df366004612cf1565b610cff565b604080519283526020830191909152016102da565b34801561040557600080fd5b50604051601281526020016102da565b34801561042157600080fd5b506102ce610430366004612c56565b610dd2565b34801561044157600080fd5b506102ce610450366004612d90565b610df4565b34801561046157600080fd5b50610396610470366004612c24565b60036020526000908152604090205481565b34801561048e57600080fd5b506102ac61049d366004612d90565b610ec0565b3480156104ae57600080fd5b50610396600081565b3480156104c357600080fd5b506104cc600081565b60405161ffff90911681526020016102da565b6102ac6104ed366004612de4565b610f46565b3480156104fe57600080fd5b5061039661050d366004612f1a565b6005602090815260009384526040808520845180860184018051928152908401958401959095209452929052825290205481565b34801561054d57600080fd5b50600c5460ff166102ce565b34801561056557600080fd5b506102ac610574366004612afa565b610fcb565b34801561058557600080fd5b50610396610594366004612fbc565b6001600160a01b031660009081526007602052604090205490565b3480156105bb57600080fd5b506102ac6110a7565b3480156105d057600080fd5b506102f86105df366004612c24565b6110bb565b3480156105f057600080fd5b506103966105ff366004612fd9565b600260209081526000928352604080842090915290825290205481565b34801561062857600080fd5b506000546001600160a01b03165b6040516001600160a01b0390911681526020016102da565b34801561065a57600080fd5b50610396611155565b34801561066f57600080fd5b50600454610636906001600160a01b031681565b34801561068f57600080fd5b506102f8611165565b3480156106a457600080fd5b506102f86106b3366004612c24565b611174565b3480156106c457600080fd5b506102ce6106d3366004612c56565b61128b565b3480156106e457600080fd5b506102ac6106f3366004612d90565b611306565b34801561070457600080fd5b506102ce610713366004612c56565b611399565b34801561072457600080fd5b506106367f000000000000000000000000000000000000000000000000000000000000000081565b34801561075857600080fd5b506102ac610767366004612fbc565b6113a7565b34801561077857600080fd5b5061039661271081565b34801561078e57600080fd5b506102ac61079d366004613012565b611404565b6102ac6107b0366004612afa565b61148e565b3480156107c157600080fd5b506103966107d0366004613084565b6116a4565b3480156107e157600080fd5b506102ac6107f03660046130b2565b6116cf565b34801561080157600080fd5b506102ac6108103660046130e2565b611781565b34801561082157600080fd5b506102ac610830366004612d90565b6117ca565b34801561084157600080fd5b506006546102ce9060ff1681565b34801561085b57600080fd5b506102ac61086a3660046130e2565b611824565b34801561087b57600080fd5b506102ac61088a366004612fbc565b611844565b34801561089b57600080fd5b506102f86108aa3660046130fd565b6118ba565b3480156108bb57600080fd5b5030610636565b337f00000000000000000000000000000000000000000000000000000000000000006001600160a01b03161461093f5760405162461bcd60e51b815260206004820152601e60248201527f4c7a4170703a20696e76616c696420656e64706f696e742063616c6c6572000060448201526064015b60405180910390fd5b61ffff86166000908152600160205260408120805461095d9061314e565b80601f01602080910402602001604051908101604052809291908181526020018280546109899061314e565b80156109d65780601f106109ab576101008083540402835291602001916109d6565b820191906000526020600020905b8154815290600101906020018083116109b957829003601f168201915b505050505090508051868690501480156109f1575060008151115b8015610a19575080516020820120604051610a0f9088908890613189565b6040518091039020145b610a745760405162461bcd60e51b815260206004820152602660248201527f4c7a4170703a20696e76616c696420736f757263652073656e64696e6720636f6044820152651b9d1c9858dd60d21b6064820152608401610936565b610aea8787878080601f01602080910402602001604051908101604052809392919081815260200183838082843760009201919091525050604080516020601f8a018190048102820181019092528881528a93509150889088908190840183828082843760009201919091525061196b92505050565b50505050505050565b60006001600160e01b031982161580610b1c57506001600160e01b031982166336372b0760e01b145b80610b2b5750610b2b826119e4565b92915050565b6060600a8054610b409061314e565b80601f0160208091040260200160405190810160405280929190818152602001828054610b6c9061314e565b8015610bb95780601f10610b8e57610100808354040283529160200191610bb9565b820191906000526020600020905b815481529060010190602001808311610b9c57829003601f168201915b5050505050905090565b610bcb611a19565b6040516307e0db1760e01b815261ffff821660048201527f00000000000000000000000000000000000000000000000000000000000000006001600160a01b0316906307e0db17906024015b600060405180830381600087803b158015610c3157600080fd5b505af1158015610c45573d6000803e3d6000fd5b5050505050565b600033610c5a818585611a73565b5060019392505050565b610c6c611a19565b61ffff909116600090815260036020526040902055565b610c8b611a19565b6040516310ddb13760e01b815261ffff821660048201527f00000000000000000000000000000000000000000000000000000000000000006001600160a01b0316906310ddb13790602401610c17565b600033610ce9858285611b97565b610cf4858585611c11565b506001949350505050565b600080600080898989604051602001610d1b94939291906131c2565b60408051601f198184030181529082905263040a7bb160e41b825291506001600160a01b037f000000000000000000000000000000000000000000000000000000000000000016906340a7bb1090610d81908d90309086908c908c908c906004016131f1565b6040805180830381865afa158015610d9d573d6000803e3d6000fd5b505050506040513d601f19601f82011682018060405250810190610dc19190613247565b925092505097509795505050505050565b600033610c5a818585610de583836116a4565b610def9190613281565b611a73565b61ffff831660009081526001602052604081208054829190610e159061314e565b80601f0160208091040260200160405190810160405280929190818152602001828054610e419061314e565b8015610e8e5780601f10610e6357610100808354040283529160200191610e8e565b820191906000526020600020905b815481529060010190602001808311610e7157829003601f168201915b505050505090508383604051610ea5929190613189565b60405180910390208180519060200120149150509392505050565b610ec8611a19565b6040516342d65a8d60e01b81526001600160a01b037f000000000000000000000000000000000000000000000000000000000000000016906342d65a8d90610f1890869086908690600401613299565b600060405180830381600087803b158015610f3257600080fd5b505af1158015610aea573d6000803e3d6000fd5b610fc0898989898080601f01602080910402602001604051908101604052809392919081815260200183838082843760009201919091525050604080516020601f8a018190048102820181019092528881528c93508b92508a918a908a9081908401838280828437600092019190915250611dbc92505050565b505050505050505050565b3330146110295760405162461bcd60e51b815260206004820152602660248201527f4e6f6e626c6f636b696e674c7a4170703a2063616c6c6572206d7573742062656044820152650204c7a4170760d41b6064820152608401610936565b61109f8686868080601f01602080910402602001604051908101604052809392919081815260200183838082843760009201919091525050604080516020601f890181900481028201810190925287815289935091508790879081908401838280828437600092019190915250611e6392505050565b505050505050565b6110af611a19565b6110b96000611eca565b565b600160205260009081526040902080546110d49061314e565b80601f01602080910402602001604051908101604052809291908181526020018280546111009061314e565b801561114d5780601f106111225761010080835404028352916020019161114d565b820191906000526020600020905b81548152906001019060200180831161113057829003601f168201915b505050505081565b600061116060095490565b905090565b6060600b8054610b409061314e565b61ffff81166000908152600160205260408120805460609291906111979061314e565b80601f01602080910402602001604051908101604052809291908181526020018280546111c39061314e565b80156112105780601f106111e557610100808354040283529160200191611210565b820191906000526020600020905b8154815290600101906020018083116111f357829003601f168201915b505050505090508051600014156112695760405162461bcd60e51b815260206004820152601d60248201527f4c7a4170703a206e6f20747275737465642070617468207265636f72640000006044820152606401610936565b61128460006014835161127c91906132b7565b839190611f1a565b9392505050565b6000338161129982866116a4565b9050838110156112f95760405162461bcd60e51b815260206004820152602560248201527f45524332303a2064656372656173656420616c6c6f77616e63652062656c6f77604482015264207a65726f60d81b6064820152608401610936565b610cf48286868403611a73565b61130e611a19565b818130604051602001611323939291906132ce565b60408051601f1981840301815291815261ffff8516600090815260016020908152919020825161135893919290910190612979565b507f8c0400cfe2d1199b1a725c78960bcc2a344d869b80590d0f2bd005db15a572ce83838360405161138c93929190613299565b60405180910390a1505050565b600033610c5a818585611c11565b6113af611a19565b600480546001600160a01b0319166001600160a01b0383169081179091556040519081527f5db758e995a17ec1ad84bdef7e8c3293a0bd6179bcce400dff5d4c3d87db726b906020015b60405180910390a150565b61140c611a19565b6040516332fb62e760e21b81526001600160a01b037f0000000000000000000000000000000000000000000000000000000000000000169063cbed8b9c9061146090889088908890889088906004016132f4565b600060405180830381600087803b15801561147a57600080fd5b505af1158015610fc0573d6000803e3d6000fd5b61ffff861660009081526005602052604080822090516114b19088908890613189565b90815260408051602092819003830190206001600160401b038716600090815292529020549050806115315760405162461bcd60e51b815260206004820152602360248201527f4e6f6e626c6f636b696e674c7a4170703a206e6f2073746f726564206d65737360448201526261676560e81b6064820152608401610936565b808383604051611542929190613189565b6040518091039020146115a15760405162461bcd60e51b815260206004820152602160248201527f4e6f6e626c6f636b696e674c7a4170703a20696e76616c6964207061796c6f616044820152601960fa1b6064820152608401610936565b61ffff871660009081526005602052604080822090516115c49089908990613189565b90815260408051602092819003830181206001600160401b038916600090815290845282902093909355601f8801829004820283018201905286825261165c918991899089908190840183828082843760009201919091525050604080516020601f8a018190048102820181019092528881528a935091508890889081908401838280828437600092019190915250611e6392505050565b7fc264d91f3adc5588250e1551f547752ca0cfa8f6b530d243b9f9f4cab10ea8e5878787878560405161169395949392919061332d565b60405180910390a150505050505050565b6001600160a01b03918216600090815260086020908152604080832093909416825291909152205490565b6116d7611a19565b6000811161171f5760405162461bcd60e51b81526020600482015260156024820152744c7a4170703a20696e76616c6964206d696e47617360581b6044820152606401610936565b61ffff83811660008181526002602090815260408083209487168084529482529182902085905581519283528201929092529081018290527f9d5c7c0b934da8fefa9c7760c98383778a12dfbfc0c3b3106518f43fb9508ac09060600161138c565b611789611a19565b6006805460ff19168215159081179091556040519081527f1584ad594a70cbe1e6515592e1272a987d922b097ead875069cebe8b40c004a4906020016113f9565b6117d2611a19565b61ffff831660009081526001602052604090206117f09083836129fd565b507ffa41487ad5d6728f0b19276fa1eddc16558578f5109fc39d2dc33c3230470dab83838360405161138c93929190613299565b61182c611a19565b8061183c57611839612027565b50565b611839612079565b61184c611a19565b6001600160a01b0381166118b15760405162461bcd60e51b815260206004820152602660248201527f4f776e61626c653a206e6577206f776e657220697320746865207a65726f206160448201526564647265737360d01b6064820152608401610936565b61183981611eca565b604051633d7b2f6f60e21b815261ffff808616600483015284166024820152306044820152606481018290526060907f00000000000000000000000000000000000000000000000000000000000000006001600160a01b03169063f5ecbdbc90608401600060405180830381865afa15801561193a573d6000803e3d6000fd5b505050506040513d6000823e601f3d908101601f1916820160405261196291908101906133b5565b95945050505050565b6000806119ce5a60966366ad5c8a60e01b8989898960405160240161199394939291906133e9565b60408051601f198184030181529190526020810180516001600160e01b03166001600160e01b031990931692909217909152309291906120b6565b915091508161109f5761109f8686868685612140565b60006001600160e01b03198216630a72677560e11b1480610b2b57506301ffc9a760e01b6001600160e01b0319831614610b2b565b6000546001600160a01b031633146110b95760405162461bcd60e51b815260206004820181905260248201527f4f776e61626c653a2063616c6c6572206973206e6f7420746865206f776e65726044820152606401610936565b6001600160a01b038316611ad55760405162461bcd60e51b8152602060048201526024808201527f45524332303a20617070726f76652066726f6d20746865207a65726f206164646044820152637265737360e01b6064820152608401610936565b6001600160a01b038216611b365760405162461bcd60e51b815260206004820152602260248201527f45524332303a20617070726f766520746f20746865207a65726f206164647265604482015261737360f01b6064820152608401610936565b6001600160a01b0383811660008181526008602090815260408083209487168084529482529182902085905590518481527f8c5be1e5ebec7d5bd14f71427d1e84f3dd0314c0f7b2291e5b200ac8c7c3b925910160405180910390a3505050565b6000611ba384846116a4565b90506000198114611c0b5781811015611bfe5760405162461bcd60e51b815260206004820152601d60248201527f45524332303a20696e73756666696369656e7420616c6c6f77616e63650000006044820152606401610936565b611c0b8484848403611a73565b50505050565b6001600160a01b038316611c755760405162461bcd60e51b815260206004820152602560248201527f45524332303a207472616e736665722066726f6d20746865207a65726f206164604482015264647265737360d81b6064820152608401610936565b6001600160a01b038216611cd75760405162461bcd60e51b815260206004820152602360248201527f45524332303a207472616e7366657220746f20746865207a65726f206164647260448201526265737360e81b6064820152608401610936565b6001600160a01b03831660009081526007602052604090205481811015611d4f5760405162461bcd60e51b815260206004820152602660248201527f45524332303a207472616e7366657220616d6f756e7420657863656564732062604482015265616c616e636560d01b6064820152608401610936565b6001600160a01b0380851660008181526007602052604080822086860390559286168082529083902080548601905591517fddf252ad1be2c89b69c2b068fc378daa952ba7f163c4a11628f55a4df523b3ef90611daf9086815260200190565b60405180910390a3611c0b565b611dca8660008360006121e2565b6000611dd88888888861225c565b90506000808783604051602001611df193929190613427565b6040516020818303038152906040529050611e10888287878734612272565b886001600160a01b03168861ffff167f39a4c66499bcf4b56d79f0dde8ed7a9d4925a0df55825206b2b8531e202be0d08985604051611e50929190613454565b60405180910390a3505050505050505050565b602081015161ffff8116611e8257611e7d85858585612418565b610c45565b60405162461bcd60e51b815260206004820152601c60248201527f4f4654436f72653a20756e6b6e6f776e207061636b65742074797065000000006044820152606401610936565b600080546001600160a01b038381166001600160a01b0319831681178455604051919092169283917f8be0079c531659141344cd1fd0a4f28419497f9722a3daafe3b4186f6b6457e09190a35050565b606081611f2881601f613281565b1015611f675760405162461bcd60e51b815260206004820152600e60248201526d736c6963655f6f766572666c6f7760901b6044820152606401610936565b611f718284613281565b84511015611fb55760405162461bcd60e51b8152602060048201526011602482015270736c6963655f6f75744f66426f756e647360781b6044820152606401610936565b606082158015611fd4576040519150600082526020820160405261201e565b6040519150601f8416801560200281840101858101878315602002848b0101015b8183101561200d578051835260209283019201611ff5565b5050858452601f01601f1916604052505b50949350505050565b61202f6124a2565b600c805460ff191690557f5db9ee0a495bf2e6ff9c91a7834c1ba4fdd244a5e8aa4e537bd38aeae4b073aa335b6040516001600160a01b03909116815260200160405180910390a1565b6120816124eb565b600c805460ff191660011790557f62e78cea01bee320cd4e420270b5ea74000d11b0c9f74754ebdbfc544b05a25861205c3390565b6000606060008060008661ffff166001600160401b038111156120db576120db612ead565b6040519080825280601f01601f191660200182016040528015612105576020820181803683370190505b50905060008087516020890160008d8df191503d925086831115612127578692505b828152826000602083013e909890975095505050505050565b8180519060200120600560008761ffff1661ffff168152602001908152602001600020856040516121719190613476565b9081526040805191829003602090810183206001600160401b0388166000908152915220919091557fe183f33de2837795525b4792ca4cd60535bd77c53b7e7030060bfcf5734d6b0c906121ce9087908790879087908790613492565b60405180910390a15050505050565b505050565b60065460ff16156121fe576121f984848484612531565b611c0b565b815115611c0b5760405162461bcd60e51b815260206004820152602660248201527f4f4654436f72653a205f61646170746572506172616d73206d7573742062652060448201526532b6b83a3c9760d11b6064820152608401610936565b60006122666124eb565b61196285858585612610565b61ffff8616600090815260016020526040812080546122909061314e565b80601f01602080910402602001604051908101604052809291908181526020018280546122bc9061314e565b80156123095780601f106122de57610100808354040283529160200191612309565b820191906000526020600020905b8154815290600101906020018083116122ec57829003601f168201915b5050505050905080516000141561237b5760405162461bcd60e51b815260206004820152603060248201527f4c7a4170703a2064657374696e6174696f6e20636861696e206973206e6f742060448201526f61207472757374656420736f7572636560801b6064820152608401610936565b612386878751612642565b60405162c5803160e81b81526001600160a01b037f0000000000000000000000000000000000000000000000000000000000000000169063c58031009084906123dd908b9086908c908c908c908c906004016134f0565b6000604051808303818588803b1580156123f657600080fd5b505af115801561240a573d6000803e3d6000fd5b505050505050505050505050565b6000808280602001905181019061242f919061354a565b90935091506000905061244283826126b0565b905061244f878284612715565b9150806001600160a01b03168761ffff167fbf551ec93859b170f9b2141bd9298bf3f64322c6f7beb2543a0cb669834118bf8460405161249191815260200190565b60405180910390a350505050505050565b600c5460ff166110b95760405162461bcd60e51b815260206004820152601460248201527314185d5cd8589b194e881b9bdd081c185d5cd95960621b6044820152606401610936565b600c5460ff16156110b95760405162461bcd60e51b815260206004820152601060248201526f14185d5cd8589b194e881c185d5cd95960821b6044820152606401610936565b600061253c83612728565b61ffff80871660009081526002602090815260408083209389168352929052908120549192509061256e908490613281565b9050600081116125c05760405162461bcd60e51b815260206004820152601a60248201527f4c7a4170703a206d696e4761734c696d6974206e6f74207365740000000000006044820152606401610936565b8082101561109f5760405162461bcd60e51b815260206004820152601b60248201527f4c7a4170703a20676173206c696d697420697320746f6f206c6f7700000000006044820152606401610936565b6000336001600160a01b038616811461262e5761262e868285611b97565b6126388684612784565b5090949350505050565b61ffff82166000908152600360205260409020548061266057506127105b808211156121dd5760405162461bcd60e51b815260206004820181905260248201527f4c7a4170703a207061796c6f61642073697a6520697320746f6f206c617267656044820152606401610936565b60006126bd826014613281565b835110156127055760405162461bcd60e51b8152602060048201526015602482015274746f416464726573735f6f75744f66426f756e647360581b6044820152606401610936565b500160200151600160601b900490565b600061272183836128b8565b5092915050565b600060228251101561277c5760405162461bcd60e51b815260206004820152601c60248201527f4c7a4170703a20696e76616c69642061646170746572506172616d73000000006044820152606401610936565b506022015190565b6001600160a01b0382166127e45760405162461bcd60e51b815260206004820152602160248201527f45524332303a206275726e2066726f6d20746865207a65726f206164647265736044820152607360f81b6064820152608401610936565b6001600160a01b038216600090815260076020526040902054818110156128585760405162461bcd60e51b815260206004820152602260248201527f45524332303a206275726e20616d6f756e7420657863656564732062616c616e604482015261636560f01b6064820152608401610936565b6001600160a01b03831660008181526007602090815260408083208686039055600980548790039055518581529192917fddf252ad1be2c89b69c2b068fc378daa952ba7f163c4a11628f55a4df523b3ef910160405180910390a3505050565b6001600160a01b03821661290e5760405162461bcd60e51b815260206004820152601f60248201527f45524332303a206d696e7420746f20746865207a65726f2061646472657373006044820152606401610936565b80600960008282546129209190613281565b90915550506001600160a01b0382166000818152600760209081526040808320805486019055518481527fddf252ad1be2c89b69c2b068fc378daa952ba7f163c4a11628f55a4df523b3ef910160405180910390a35050565b8280546129859061314e565b90600052602060002090601f0160209004810192826129a757600085556129ed565b82601f106129c057805160ff19168380011785556129ed565b828001600101855582156129ed579182015b828111156129ed5782518255916020019190600101906129d2565b506129f9929150612a71565b5090565b828054612a099061314e565b90600052602060002090601f016020900481019282612a2b57600085556129ed565b82601f10612a445782800160ff198235161785556129ed565b828001600101855582156129ed579182015b828111156129ed578235825591602001919060010190612a56565b5b808211156129f95760008155600101612a72565b61ffff8116811461183957600080fd5b60008083601f840112612aa857600080fd5b5081356001600160401b03811115612abf57600080fd5b602083019150836020828501011115612ad757600080fd5b9250929050565b80356001600160401b0381168114612af557600080fd5b919050565b60008060008060008060808789031215612b1357600080fd5b8635612b1e81612a86565b955060208701356001600160401b0380821115612b3a57600080fd5b612b468a838b01612a96565b9097509550859150612b5a60408a01612ade565b94506060890135915080821115612b7057600080fd5b50612b7d89828a01612a96565b979a9699509497509295939492505050565b600060208284031215612ba157600080fd5b81356001600160e01b03198116811461128457600080fd5b60005b83811015612bd4578181015183820152602001612bbc565b83811115611c0b5750506000910152565b60008151808452612bfd816020860160208601612bb9565b601f01601f19169290920160200192915050565b6020815260006112846020830184612be5565b600060208284031215612c3657600080fd5b813561128481612a86565b6001600160a01b038116811461183957600080fd5b60008060408385031215612c6957600080fd5b8235612c7481612c41565b946020939093013593505050565b60008060408385031215612c9557600080fd5b8235612c7481612a86565b600080600060608486031215612cb557600080fd5b8335612cc081612c41565b92506020840135612cd081612c41565b929592945050506040919091013590565b80358015158114612af557600080fd5b600080600080600080600060a0888a031215612d0c57600080fd5b8735612d1781612a86565b965060208801356001600160401b0380821115612d3357600080fd5b612d3f8b838c01612a96565b909850965060408a01359550869150612d5a60608b01612ce1565b945060808a0135915080821115612d7057600080fd5b50612d7d8a828b01612a96565b989b979a50959850939692959293505050565b600080600060408486031215612da557600080fd5b8335612db081612a86565b925060208401356001600160401b03811115612dcb57600080fd5b612dd786828701612a96565b9497909650939450505050565b600080600080600080600080600060e08a8c031215612e0257600080fd5b8935612e0d81612c41565b985060208a0135612e1d81612a86565b975060408a01356001600160401b0380821115612e3957600080fd5b612e458d838e01612a96565b909950975060608c0135965060808c01359150612e6182612c41565b90945060a08b013590612e7382612c41565b90935060c08b01359080821115612e8957600080fd5b50612e968c828d01612a96565b915080935050809150509295985092959850929598565b634e487b7160e01b600052604160045260246000fd5b604051601f8201601f191681016001600160401b0381118282101715612eeb57612eeb612ead565b604052919050565b60006001600160401b03821115612f0c57612f0c612ead565b50601f01601f191660200190565b600080600060608486031215612f2f57600080fd5b8335612f3a81612a86565b925060208401356001600160401b03811115612f5557600080fd5b8401601f81018613612f6657600080fd5b8035612f79612f7482612ef3565b612ec3565b818152876020838501011115612f8e57600080fd5b81602084016020830137600060208383010152809450505050612fb360408501612ade565b90509250925092565b600060208284031215612fce57600080fd5b813561128481612c41565b60008060408385031215612fec57600080fd5b8235612ff781612a86565b9150602083013561300781612a86565b809150509250929050565b60008060008060006080868803121561302a57600080fd5b853561303581612a86565b9450602086013561304581612a86565b93506040860135925060608601356001600160401b0381111561306757600080fd5b61307388828901612a96565b969995985093965092949392505050565b6000806040838503121561309757600080fd5b82356130a281612c41565b9150602083013561300781612c41565b6000806000606084860312156130c757600080fd5b83356130d281612a86565b92506020840135612cd081612a86565b6000602082840312156130f457600080fd5b61128482612ce1565b6000806000806080858703121561311357600080fd5b843561311e81612a86565b9350602085013561312e81612a86565b9250604085013561313e81612c41565b9396929550929360600135925050565b600181811c9082168061316257607f821691505b6020821081141561318357634e487b7160e01b600052602260045260246000fd5b50919050565b8183823760009101908152919050565b81835281816020850137506000828201602090810191909152601f909101601f19169091010190565b61ffff851681526060602082015260006131e0606083018587613199565b905082604083015295945050505050565b61ffff871681526001600160a01b038616602082015260a06040820181905260009061321f90830187612be5565b8515156060840152828103608084015261323a818587613199565b9998505050505050505050565b6000806040838503121561325a57600080fd5b505080516020909101519092909150565b634e487b7160e01b600052601160045260246000fd5b600082198211156132945761329461326b565b500190565b61ffff84168152604060208201526000611962604083018486613199565b6000828210156132c9576132c961326b565b500390565b8284823760609190911b6bffffffffffffffffffffffff19169101908152601401919050565b600061ffff808816835280871660208401525084604083015260806060830152613322608083018486613199565b979650505050505050565b61ffff8616815260806020820152600061334b608083018688613199565b6001600160401b0394909416604083015250606001529392505050565b600082601f83011261337957600080fd5b8151613387612f7482612ef3565b81815284602083860101111561339c57600080fd5b6133ad826020830160208701612bb9565b949350505050565b6000602082840312156133c757600080fd5b81516001600160401b038111156133dd57600080fd5b6133ad84828501613368565b61ffff851681526080602082015260006134066080830186612be5565b6001600160401b038516604084015282810360608401526133228185612be5565b61ffff841681526060602082015260006134446060830185612be5565b9050826040830152949350505050565b6040815260006134676040830185612be5565b90508260208301529392505050565b60008251613488818460208701612bb9565b9190910192915050565b61ffff8616815260a0602082015260006134af60a0830187612be5565b6001600160401b038616604084015282810360608401526134d08186612be5565b905082810360808401526134e48185612be5565b98975050505050505050565b61ffff8716815260c06020820152600061350d60c0830188612be5565b828103604084015261351f8188612be5565b6001600160a01b0387811660608601528616608085015283810360a0850152905061323a8185612be5565b60008060006060848603121561355f57600080fd5b835161356a81612a86565b60208501519093506001600160401b0381111561358657600080fd5b61359286828701613368565b92505060408401519050925092509256fea2646970667358221220c5585f58f3999f6ebd7a5317372b2ce6bf27d9e64d89047b073e7d9d0bd70fd164736f6c634300080c0033",
  "linkReferences": {},
  "deployedLinkReferences": {}
}