{
  "_format": "hh-sol-artifact-1",
  "contractName": "PriceFeed",
  "sourceName": "contracts/PriceFeed.sol",
  "abi": [
    {
      "anonymous": false,
      "inputs": [
        {
          "indexed": false,
          "internalType": "uint8",
          "name": "version",
          "type": "uint8"
        }
      ],
      "name": "Initialized",
      "type": "event"
    },
    {
      "anonymous": false,
      "inputs": [
        {
          "indexed": true,
          "internalType": "address",
          "name": "previousOwner",
          "type": "address"
        },
        {
          "indexed": true,
          "internalType": "address",
          "name": "newOwner",
          "type": "address"
        }
      ],
      "name": "OwnershipTransferred",
      "type": "event"
    },
    {
      "inputs": [],
      "name": "ARBITRUM_COMPRESSION_PERCENT",
      "outputs": [
        {
          "internalType": "uint128",
          "name": "",
          "type": "uint128"
        }
      ],
      "stateMutability": "view",
      "type": "function"
    },
    {
      "inputs": [],
      "name": "arbitrumPriceExt",
      "outputs": [
        {
          "components": [
            {
              "internalType": "uint64",
              "name": "gasPerL2Tx",
              "type": "uint64"
            },
            {
              "internalType": "uint32",
              "name": "gasPerL1CallDataByte",
              "type": "uint32"
            }
          ],
          "internalType": "struct ILayerZeroPriceFeed.ArbitrumPriceExt",
          "name": "",
          "type": "tuple"
        }
      ],
      "stateMutability": "view",
      "type": "function"
    },
    {
      "inputs": [],
      "name": "endpoint",
      "outputs": [
        {
          "internalType": "contract ILayerZeroEndpointV2",
          "name": "",
          "type": "address"
        }
      ],
      "stateMutability": "view",
      "type": "function"
    },
    {
      "inputs": [
        {
          "internalType": "uint16",
          "name": "_dstEid",
          "type": "uint16"
        },
        {
          "internalType": "uint256",
          "name": "_callDataSize",
          "type": "uint256"
        },
        {
          "internalType": "uint256",
          "name": "_gas",
          "type": "uint256"
        }
      ],
      "name": "estimateFeeByChain",
      "outputs": [
        {
          "internalType": "uint256",
          "name": "fee",
          "type": "uint256"
        },
        {
          "internalType": "uint128",
          "name": "priceRatio",
          "type": "uint128"
        }
      ],
      "stateMutability": "view",
      "type": "function"
    },
    {
      "inputs": [
        {
          "internalType": "uint32",
          "name": "_dstEid",
          "type": "uint32"
        },
        {
          "internalType": "uint256",
          "name": "_callDataSize",
          "type": "uint256"
        },
        {
          "internalType": "uint256",
          "name": "_gas",
          "type": "uint256"
        }
      ],
      "name": "estimateFeeByEid",
      "outputs": [
        {
          "internalType": "uint256",
          "name": "",
          "type": "uint256"
        },
        {
          "internalType": "uint128",
          "name": "",
          "type": "uint128"
        },
        {
          "internalType": "uint128",
          "name": "",
          "type": "uint128"
        },
        {
          "internalType": "uint128",
          "name": "",
          "type": "uint128"
        }
      ],
      "stateMutability": "view",
      "type": "function"
    },
    {
      "inputs": [
        {
          "internalType": "uint32",
          "name": "_dstEid",
          "type": "uint32"
        },
        {
          "internalType": "uint256",
          "name": "_callDataSize",
          "type": "uint256"
        },
        {
          "internalType": "uint256",
          "name": "_gas",
          "type": "uint256"
        }
      ],
      "name": "estimateFeeOnSend",
      "outputs": [
        {
          "internalType": "uint256",
          "name": "",
          "type": "uint256"
        },
        {
          "internalType": "uint128",
          "name": "",
          "type": "uint128"
        },
        {
          "internalType": "uint128",
          "name": "",
          "type": "uint128"
        },
        {
          "internalType": "uint128",
          "name": "",
          "type": "uint128"
        }
      ],
      "stateMutability": "payable",
      "type": "function"
    },
    {
      "inputs": [
        {
          "internalType": "uint32",
          "name": "",
          "type": "uint32"
        },
        {
          "internalType": "uint256",
          "name": "",
          "type": "uint256"
        },
        {
          "internalType": "uint256",
          "name": "",
          "type": "uint256"
        }
      ],
      "name": "getFee",
      "outputs": [
        {
          "internalType": "uint256",
          "name": "",
          "type": "uint256"
        }
      ],
      "stateMutability": "pure",
      "type": "function"
    },
    {
      "inputs": [
        {
          "internalType": "uint32",
          "name": "_dstEid",
          "type": "uint32"
        }
      ],
      "name": "getPrice",
      "outputs": [
        {
          "components": [
            {
              "internalType": "uint128",
              "name": "priceRatio",
              "type": "uint128"
            },
            {
              "internalType": "uint64",
              "name": "gasPriceInUnit",
              "type": "uint64"
            },
            {
              "internalType": "uint32",
              "name": "gasPerByte",
              "type": "uint32"
            }
          ],
          "internalType": "struct ILayerZeroPriceFeed.Price",
          "name": "price",
          "type": "tuple"
        }
      ],
      "stateMutability": "view",
      "type": "function"
    },
    {
      "inputs": [
        {
          "internalType": "uint16",
          "name": "_dstEid",
          "type": "uint16"
        }
      ],
      "name": "getPrice",
      "outputs": [
        {
          "components": [
            {
              "internalType": "uint128",
              "name": "priceRatio",
              "type": "uint128"
            },
            {
              "internalType": "uint64",
              "name": "gasPriceInUnit",
              "type": "uint64"
            },
            {
              "internalType": "uint32",
              "name": "gasPerByte",
              "type": "uint32"
            }
          ],
          "internalType": "struct ILayerZeroPriceFeed.Price",
          "name": "price",
          "type": "tuple"
        }
      ],
      "stateMutability": "view",
      "type": "function"
    },
    {
      "inputs": [],
      "name": "getPriceRatioDenominator",
      "outputs": [
        {
          "internalType": "uint128",
          "name": "",
          "type": "uint128"
        }
      ],
      "stateMutability": "view",
      "type": "function"
    },
    {
      "inputs": [
        {
          "internalType": "address",
          "name": "_priceUpdater",
          "type": "address"
        }
      ],
      "name": "initialize",
      "outputs": [],
      "stateMutability": "nonpayable",
      "type": "function"
    },
    {
      "inputs": [],
      "name": "nativeTokenPriceUSD",
      "outputs": [
        {
          "internalType": "uint128",
          "name": "",
          "type": "uint128"
        }
      ],
      "stateMutability": "view",
      "type": "function"
    },
    {
      "inputs": [],
      "name": "owner",
      "outputs": [
        {
          "internalType": "address",
          "name": "",
          "type": "address"
        }
      ],
      "stateMutability": "view",
      "type": "function"
    },
    {
      "inputs": [
        {
          "internalType": "address",
          "name": "updater",
          "type": "address"
        }
      ],
      "name": "priceUpdater",
      "outputs": [
        {
          "internalType": "bool",
          "name": "active",
          "type": "bool"
        }
      ],
      "stateMutability": "view",
      "type": "function"
    },
    {
      "inputs": [],
      "name": "renounceOwnership",
      "outputs": [],
      "stateMutability": "nonpayable",
      "type": "function"
    },
    {
      "inputs": [
        {
          "internalType": "uint128",
          "name": "_compressionPercent",
          "type": "uint128"
        }
      ],
      "name": "setArbitrumCompressionPercent",
      "outputs": [],
      "stateMutability": "nonpayable",
      "type": "function"
    },
    {
      "inputs": [
        {
          "internalType": "address",
          "name": "_endpoint",
          "type": "address"
        }
      ],
      "name": "setEndpoint",
      "outputs": [],
      "stateMutability": "nonpayable",
      "type": "function"
    },
    {
      "inputs": [
        {
          "internalType": "uint128",
          "name": "_nativeTokenPriceUSD",
          "type": "uint128"
        }
      ],
      "name": "setNativeTokenPriceUSD",
      "outputs": [],
      "stateMutability": "nonpayable",
      "type": "function"
    },
    {
      "inputs": [
        {
          "components": [
            {
              "internalType": "uint32",
              "name": "eid",
              "type": "uint32"
            },
            {
              "components": [
                {
                  "internalType": "uint128",
                  "name": "priceRatio",
                  "type": "uint128"
                },
                {
                  "internalType": "uint64",
                  "name": "gasPriceInUnit",
                  "type": "uint64"
                },
                {
                  "internalType": "uint32",
                  "name": "gasPerByte",
                  "type": "uint32"
                }
              ],
              "internalType": "struct ILayerZeroPriceFeed.Price",
              "name": "price",
              "type": "tuple"
            }
          ],
          "internalType": "struct ILayerZeroPriceFeed.UpdatePrice[]",
          "name": "_price",
          "type": "tuple[]"
        }
      ],
      "name": "setPrice",
      "outputs": [],
      "stateMutability": "nonpayable",
      "type": "function"
    },
    {
      "inputs": [
        {
          "components": [
            {
              "internalType": "uint32",
              "name": "eid",
              "type": "uint32"
            },
            {
              "components": [
                {
                  "internalType": "uint128",
                  "name": "priceRatio",
                  "type": "uint128"
                },
                {
                  "internalType": "uint64",
                  "name": "gasPriceInUnit",
                  "type": "uint64"
                },
                {
                  "internalType": "uint32",
                  "name": "gasPerByte",
                  "type": "uint32"
                }
              ],
              "internalType": "struct ILayerZeroPriceFeed.Price",
              "name": "price",
              "type": "tuple"
            },
            {
              "components": [
                {
                  "internalType": "uint64",
                  "name": "gasPerL2Tx",
                  "type": "uint64"
                },
                {
                  "internalType": "uint32",
                  "name": "gasPerL1CallDataByte",
                  "type": "uint32"
                }
              ],
              "internalType": "struct ILayerZeroPriceFeed.ArbitrumPriceExt",
              "name": "extend",
              "type": "tuple"
            }
          ],
          "internalType": "struct ILayerZeroPriceFeed.UpdatePriceExt",
          "name": "_update",
          "type": "tuple"
        }
      ],
      "name": "setPriceForArbitrum",
      "outputs": [],
      "stateMutability": "nonpayable",
      "type": "function"
    },
    {
      "inputs": [
        {
          "internalType": "uint128",
          "name": "_denominator",
          "type": "uint128"
        }
      ],
      "name": "setPriceRatioDenominator",
      "outputs": [],
      "stateMutability": "nonpayable",
      "type": "function"
    },
    {
      "inputs": [
        {
          "internalType": "address",
          "name": "_addr",
          "type": "address"
        },
        {
          "internalType": "bool",
          "name": "_active",
          "type": "bool"
        }
      ],
      "name": "setPriceUpdater",
      "outputs": [],
      "stateMutability": "nonpayable",
      "type": "function"
    },
    {
      "inputs": [
        {
          "internalType": "address",
          "name": "newOwner",
          "type": "address"
        }
      ],
      "name": "transferOwnership",
      "outputs": [],
      "stateMutability": "nonpayable",
      "type": "function"
    },
    {
      "inputs": [
        {
          "internalType": "address payable",
          "name": "_to",
          "type": "address"
        },
        {
          "internalType": "uint256",
          "name": "_amount",
          "type": "uint256"
        }
      ],
      "name": "withdrawFee",
      "outputs": [],
      "stateMutability": "nonpayable",
      "type": "function"
    }
  ],
  "bytecode": "0x608060405234801561001057600080fd5b50611e23806100206000396000f3fe60806040526004361061018b5760003560e01c80638da5cb5b116100d6578063d350ad251161007f578063e0ad121a11610059578063e0ad121a14610653578063f2fde38b14610708578063fd9be5221461072857600080fd5b8063d350ad251461051c578063da26663a1461053c578063dbbb41551461063357600080fd5b8063c1840327116100b0578063c184032714610498578063c4d66de8146104bf578063cd68b79b146104df57600080fd5b80638da5cb5b1461041657806392807f5814610441578063c1723a1d1461048557600080fd5b80635e280f11116101385780637dc438a4116101125780637dc438a41461035e57806388a4124c1461037e5780638ca2fb08146103d657600080fd5b80635e280f11146102b1578063715018a6146103035780637bc3c9ab1461031857600080fd5b806336a5beba1161016957806336a5beba1461020957806352a72510146102715780635d6d7ccb1461029157600080fd5b806311f2c343146101905780632f7cb0b4146101c75780633161b7f6146101e9575b600080fd5b34801561019c57600080fd5b506101b46101ab3660046119ea565b60009392505050565b6040519081526020015b60405180910390f35b3480156101d357600080fd5b506101e76101e2366004611a3d565b610748565b005b3480156101f557600080fd5b506101e7610204366004611a5f565b610785565b34801561021557600080fd5b5060408051808201825260008082526020918201528151808301835260685467ffffffffffffffff811680835263ffffffff680100000000000000009092048216928401928352845190815291511691810191909152016101be565b34801561027d57600080fd5b506101e761028c366004611af6565b610994565b34801561029d57600080fd5b506101e76102ac366004611a3d565b6109f2565b3480156102bd57600080fd5b50606a546102de9073ffffffffffffffffffffffffffffffffffffffff1681565b60405173ffffffffffffffffffffffffffffffffffffffff90911681526020016101be565b34801561030f57600080fd5b506101e7610ae9565b34801561032457600080fd5b50610338610333366004611b46565b610afd565b604080519283526fffffffffffffffffffffffffffffffff9091166020830152016101be565b34801561036a57600080fd5b506101e7610379366004611b64565b610b98565b34801561038a57600080fd5b5061039e6103993660046119ea565b610cd5565b604080519485526fffffffffffffffffffffffffffffffff9384166020860152918316918401919091521660608201526080016101be565b3480156103e257600080fd5b506104066103f1366004611b7c565b60666020526000908152604090205460ff1681565b60405190151581526020016101be565b34801561042257600080fd5b5060335473ffffffffffffffffffffffffffffffffffffffff166102de565b34801561044d57600080fd5b506069546fffffffffffffffffffffffffffffffff165b6040516fffffffffffffffffffffffffffffffff90911681526020016101be565b61039e6104933660046119ea565b610cf7565b3480156104a457600080fd5b506065546fffffffffffffffffffffffffffffffff16610464565b3480156104cb57600080fd5b506101e76104da366004611b7c565b610d1a565b3480156104eb57600080fd5b506069546104649070010000000000000000000000000000000090046fffffffffffffffffffffffffffffffff1681565b34801561052857600080fd5b506101e7610537366004611a3d565b611001565b34801561054857600080fd5b506105ef610557366004611b99565b60408051606080820183526000808352602080840182905292840181905263ffffffff94851681526067835283902083519182018452546fffffffffffffffffffffffffffffffff81168252700100000000000000000000000000000000810467ffffffffffffffff169282019290925278010000000000000000000000000000000000000000000000009091049092169082015290565b6040805182516fffffffffffffffffffffffffffffffff16815260208084015167ffffffffffffffff16908201529181015163ffffffff16908201526060016101be565b34801561063f57600080fd5b506101e761064e366004611b7c565b61104c565b34801561065f57600080fd5b506105ef61066e366004611bb4565b60408051606080820183526000808352602080840182905292840181905261ffff949094168452606782529282902082519384018352546fffffffffffffffffffffffffffffffff8116845267ffffffffffffffff700100000000000000000000000000000000820416918401919091527801000000000000000000000000000000000000000000000000900463ffffffff169082015290565b34801561071457600080fd5b506101e7610723366004611b7c565b61109b565b34801561073457600080fd5b506101e7610743366004611bcf565b611152565b610750611224565b606980546fffffffffffffffffffffffffffffffff928316700100000000000000000000000000000000029216919091179055565b336107a560335473ffffffffffffffffffffffffffffffffffffffff1690565b73ffffffffffffffffffffffffffffffffffffffff161461083e573360009081526066602052604090205460ff1661083e576040517f08c379a000000000000000000000000000000000000000000000000000000000815260206004820152601c60248201527f5072696365466565643a206e6f7420707269636520757064617465720000000060448201526064015b60405180910390fd5b60005b8181101561098f573683838381811061085c5761085c611bfb565b60800291909101915061097c90506108776020830183611b99565b61088936849003840160208501611c42565b805160208083015160409384015184516060810186526fffffffffffffffffffffffffffffffff948516815267ffffffffffffffff92831681850190815263ffffffff9283168288019081529783166000908152606790955295909320925183549551965194167fffffffffffffffff000000000000000000000000000000000000000000000000909516949094177001000000000000000000000000000000009590911694909402939093177fffffffff00000000ffffffffffffffffffffffffffffffffffffffffffffffff1678010000000000000000000000000000000000000000000000009190921602179055565b508061098781611d04565b915050610841565b505050565b61099c611224565b73ffffffffffffffffffffffffffffffffffffffff91909116600090815260666020526040902080547fffffffffffffffffffffffffffffffffffffffffffffffffffffffffffffff0016911515919091179055565b33610a1260335473ffffffffffffffffffffffffffffffffffffffff1690565b73ffffffffffffffffffffffffffffffffffffffff1614610aa6573360009081526066602052604090205460ff16610aa6576040517f08c379a000000000000000000000000000000000000000000000000000000000815260206004820152601c60248201527f5072696365466565643a206e6f742070726963652075706461746572000000006044820152606401610835565b606980547fffffffffffffffffffffffffffffffff00000000000000000000000000000000166fffffffffffffffffffffffffffffffff92909216919091179055565b610af1611224565b610afb60006112a5565b565b6000808461ffff16606e1480610b1857508461ffff1661279f145b80610b2857508461ffff16614eaf145b15610b4557610b3c8561ffff16858561131c565b91509150610b90565b8461ffff16606f1480610b5d57508461ffff16612794145b80610b6d57508461ffff16614ea4145b15610b8157610b3c8561ffff168585611479565b610b3c8561ffff16858561162a565b935093915050565b33610bb860335473ffffffffffffffffffffffffffffffffffffffff1690565b73ffffffffffffffffffffffffffffffffffffffff1614610c4c573360009081526066602052604090205460ff16610c4c576040517f08c379a000000000000000000000000000000000000000000000000000000000815260206004820152601c60248201527f5072696365466565643a206e6f742070726963652075706461746572000000006044820152606401610835565b610c5c6108776020830183611b99565b6000610c6e60a0830160808401611d3c565b90506000610c8260c0840160a08501611b99565b6068805463ffffffff90921668010000000000000000027fffffffffffffffffffffffffffffffffffffffff00000000000000000000000090921667ffffffffffffffff90941693909317179091555050565b600080600080610ce68787876116ff565b935093509350935093509350935093565b600080808080610d088888886116ff565b94509450945094505093509350935093565b6000610d447fb53127684a568b3173ae13b9f8a6016e243e63b6e8ee1178d6a717850b5d61035490565b905073ffffffffffffffffffffffffffffffffffffffff8116610d9d5773ffffffffffffffffffffffffffffffffffffffff7fb53127684a568b3173ae13b9f8a6016e243e63b6e8ee1178d6a717850b5d610355610dbf565b3373ffffffffffffffffffffffffffffffffffffffff821614610dbf57600080fd5b600054610100900460ff1615808015610ddf5750600054600160ff909116105b80610df95750303b158015610df9575060005460ff166001145b610e85576040517f08c379a000000000000000000000000000000000000000000000000000000000815260206004820152602e60248201527f496e697469616c697a61626c653a20636f6e747261637420697320616c72656160448201527f647920696e697469616c697a65640000000000000000000000000000000000006064820152608401610835565b600080547fffffffffffffffffffffffffffffffffffffffffffffffffffffffffffffff001660011790558015610ee357600080547fffffffffffffffffffffffffffffffffffffffffffffffffffffffffffff00ff166101001790555b610eeb6117d6565b73ffffffffffffffffffffffffffffffffffffffff8316600090815260666020526040902080547fffffffffffffffffffffffffffffffffffffffffffffffffffffffffffffff00166001179055606580547fffffffffffffffffffffffffffffffff000000000000000000000000000000001668056bc75e2d6310000017905560698054702f000000000000000000000000000000006fffffffffffffffffffffffffffffffff91909116179055801561098f57600080547fffffffffffffffffffffffffffffffffffffffffffffffffffffffffffff00ff169055604051600181527f7f26b83ff96e1f2b6a682f133852f6798a09c465da95921460cefb38474024989060200160405180910390a1505050565b611009611224565b606580547fffffffffffffffffffffffffffffffff00000000000000000000000000000000166fffffffffffffffffffffffffffffffff92909216919091179055565b611054611224565b606a80547fffffffffffffffffffffffff00000000000000000000000000000000000000001673ffffffffffffffffffffffffffffffffffffffff92909216919091179055565b6110a3611224565b73ffffffffffffffffffffffffffffffffffffffff8116611146576040517f08c379a000000000000000000000000000000000000000000000000000000000815260206004820152602660248201527f4f776e61626c653a206e6577206f776e657220697320746865207a65726f206160448201527f64647265737300000000000000000000000000000000000000000000000000006064820152608401610835565b61114f816112a5565b50565b61115a611224565b60008273ffffffffffffffffffffffffffffffffffffffff168260405160006040518083038185875af1925050503d80600081146111b4576040519150601f19603f3d011682016040523d82523d6000602084013e6111b9565b606091505b505090508061098f576040517f08c379a000000000000000000000000000000000000000000000000000000000815260206004820152601a60248201527f5072696365466565643a207769746864726177206661696c65640000000000006044820152606401610835565b60335473ffffffffffffffffffffffffffffffffffffffff163314610afb576040517f08c379a000000000000000000000000000000000000000000000000000000000815260206004820181905260248201527f4f776e61626c653a2063616c6c6572206973206e6f7420746865206f776e65726044820152606401610835565b6033805473ffffffffffffffffffffffffffffffffffffffff8381167fffffffffffffffffffffffff0000000000000000000000000000000000000000831681179093556040519116919082907f8be0079c531659141344cd1fd0a4f28419497f9722a3daafe3b4186f6b6457e090600090a35050565b63ffffffff8381166000908152606760205260408120606854606954929384938492680100000000000000009004909116906064906113819070010000000000000000000000000000000090046fffffffffffffffffffffffffffffffff1689611d57565b61138b9190611da3565b6113959190611d57565b82549091506000906113c9907801000000000000000000000000000000000000000000000000900463ffffffff1688611d57565b835460685491925060009167ffffffffffffffff7001000000000000000000000000000000009092048216918491869161140491168b611db7565b61140e9190611db7565b6114189190611db7565b6114229190611d57565b60655485549192506fffffffffffffffffffffffffffffffff9081169161144a911683611d57565b6114549190611da3565b935493996fffffffffffffffffffffffffffffffff9094169850929650505050505050565b600080600061148786611875565b63ffffffff808216600090815260676020526040812080549394509290916114cc91780100000000000000000000000000000000000000000000000090041688611d57565b6114d890610c74611db7565b825490915060009061150890700100000000000000000000000000000000900467ffffffffffffffff1683611d57565b63ffffffff808b166000908152606760205260408120805493945092909161154d9178010000000000000000000000000000000000000000000000009004168b611d57565b8254909150600090700100000000000000000000000000000000900467ffffffffffffffff1661157d8b84611db7565b6115879190611d57565b60655487549192506000916fffffffffffffffffffffffffffffffff918216916115b2911687611d57565b6115bc9190611da3565b60655485549192506000916fffffffffffffffffffffffffffffffff918216916115e7911685611d57565b6115f19190611da3565b905060006115ff8284611db7565b9554959f6fffffffffffffffffffffffffffffffff9096169e50949c50505050505050505050505050565b63ffffffff8084166000908152606760205260408120805491928392839161166f91780100000000000000000000000000000000000000000000000090041687611d57565b8254909150600090700100000000000000000000000000000000900467ffffffffffffffff1661169f8784611db7565b6116a99190611d57565b60655484549192506fffffffffffffffffffffffffffffffff908116916116d1911683611d57565b6116db9190611da3565b925492986fffffffffffffffffffffffffffffffff90931697509195505050505050565b60008080808061171161753089611dca565b90508063ffffffff16606e148061172f57508063ffffffff1661279f145b8061174157508063ffffffff16614eaf145b1561175b5761175181888861131c565b90955093506117aa565b8063ffffffff16606f148061177757508063ffffffff16612794145b8061178957508063ffffffff16614ea4145b1561179957611751818888611479565b6117a481888861162a565b90955093505b505060655460695493979296506fffffffffffffffffffffffffffffffff908116955090921692509050565b600054610100900460ff1661186d576040517f08c379a000000000000000000000000000000000000000000000000000000000815260206004820152602b60248201527f496e697469616c697a61626c653a20636f6e7472616374206973206e6f74206960448201527f6e697469616c697a696e670000000000000000000000000000000000000000006064820152608401610835565b610afb611931565b60008061188461753084611dca565b90508063ffffffff16606f0361189d5750606592915050565b8063ffffffff16612794036118b6575061278992915050565b8063ffffffff16614ea4036118cf5750614e9992915050565b6040517f08c379a000000000000000000000000000000000000000000000000000000000815260206004820152601e60248201527f5072696365466565643a20756e6b6e6f776e206c3220636861696e20696400006044820152606401610835565b600054610100900460ff166119c8576040517f08c379a000000000000000000000000000000000000000000000000000000000815260206004820152602b60248201527f496e697469616c697a61626c653a20636f6e7472616374206973206e6f74206960448201527f6e697469616c697a696e670000000000000000000000000000000000000000006064820152608401610835565b610afb336112a5565b803563ffffffff811681146119e557600080fd5b919050565b6000806000606084860312156119ff57600080fd5b611a08846119d1565b95602085013595506040909401359392505050565b80356fffffffffffffffffffffffffffffffff811681146119e557600080fd5b600060208284031215611a4f57600080fd5b611a5882611a1d565b9392505050565b60008060208385031215611a7257600080fd5b823567ffffffffffffffff80821115611a8a57600080fd5b818501915085601f830112611a9e57600080fd5b813581811115611aad57600080fd5b8660208260071b8501011115611ac257600080fd5b60209290920196919550909350505050565b73ffffffffffffffffffffffffffffffffffffffff8116811461114f57600080fd5b60008060408385031215611b0957600080fd5b8235611b1481611ad4565b915060208301358015158114611b2957600080fd5b809150509250929050565b803561ffff811681146119e557600080fd5b600080600060608486031215611b5b57600080fd5b611a0884611b34565b600060c08284031215611b7657600080fd5b50919050565b600060208284031215611b8e57600080fd5b8135611a5881611ad4565b600060208284031215611bab57600080fd5b611a58826119d1565b600060208284031215611bc657600080fd5b611a5882611b34565b60008060408385031215611be257600080fd5b8235611bed81611ad4565b946020939093013593505050565b7f4e487b7100000000000000000000000000000000000000000000000000000000600052603260045260246000fd5b803567ffffffffffffffff811681146119e557600080fd5b600060608284031215611c5457600080fd5b6040516060810181811067ffffffffffffffff82111715611c9e577f4e487b7100000000000000000000000000000000000000000000000000000000600052604160045260246000fd5b604052611caa83611a1d565b8152611cb860208401611c2a565b6020820152611cc9604084016119d1565b60408201529392505050565b7f4e487b7100000000000000000000000000000000000000000000000000000000600052601160045260246000fd5b60007fffffffffffffffffffffffffffffffffffffffffffffffffffffffffffffffff8203611d3557611d35611cd5565b5060010190565b600060208284031215611d4e57600080fd5b611a5882611c2a565b8082028115828204841417611d6e57611d6e611cd5565b92915050565b7f4e487b7100000000000000000000000000000000000000000000000000000000600052601260045260246000fd5b600082611db257611db2611d74565b500490565b80820180821115611d6e57611d6e611cd5565b600063ffffffff80841680611de157611de1611d74565b9216919091069291505056fea264697066735822122087cc7e3caf4a129f53c4ee60097a5445589154c378116060a0c5f96e0785ff6e64736f6c63430008130033",
  "linkReferences": {},
  "deployedLinkReferences": {}
}