{
  "address": "0x1275D096B9DBf2347bD2a131Fb6BDaB0B4882487",
  "abi": [
    {
      "inputs": [
        {
          "internalType": "uint32",
          "name": "_eid",
          "type": "uint32"
        },
        {
          "internalType": "address",
          "name": "_blockedLib",
          "type": "address"
        },
        {
          "internalType": "address",
          "name": "_altToken",
          "type": "address"
        }
      ],
      "stateMutability": "nonpayable",
      "type": "constructor"
    },
    {
      "anonymous": false,
      "inputs": [
        {
          "indexed": false,
          "internalType": "address",
          "name": "receiver",
          "type": "address"
        },
        {
          "indexed": false,
          "internalType": "address",
          "name": "composer",
          "type": "address"
        },
        {
          "indexed": false,
          "internalType": "bytes32",
          "name": "guid",
          "type": "bytes32"
        },
        {
          "indexed": false,
          "internalType": "bytes",
          "name": "message",
          "type": "bytes"
        }
      ],
      "name": "ComposedMessageDelivered",
      "type": "event"
    },
    {
      "anonymous": false,
      "inputs": [
        {
          "indexed": false,
          "internalType": "address",
          "name": "receiver",
          "type": "address"
        },
        {
          "indexed": false,
          "internalType": "address",
          "name": "composer",
          "type": "address"
        },
        {
          "indexed": false,
          "internalType": "bytes32",
          "name": "guid",
          "type": "bytes32"
        },
        {
          "indexed": false,
          "internalType": "bytes32",
          "name": "messageHash",
          "type": "bytes32"
        },
        {
          "indexed": false,
          "internalType": "address",
          "name": "caller",
          "type": "address"
        }
      ],
      "name": "ComposedMessageReceived",
      "type": "event"
    },
    {
      "anonymous": false,
      "inputs": [
        {
          "indexed": false,
          "internalType": "uint32",
          "name": "eid",
          "type": "uint32"
        },
        {
          "indexed": false,
          "internalType": "address",
          "name": "oldLib",
          "type": "address"
        },
        {
          "indexed": false,
          "internalType": "address",
          "name": "newLib",
          "type": "address"
        }
      ],
      "name": "DefaultReceiveLibrarySet",
      "type": "event"
    },
    {
      "anonymous": false,
      "inputs": [
        {
          "indexed": false,
          "internalType": "uint32",
          "name": "eid",
          "type": "uint32"
        },
        {
          "indexed": false,
          "internalType": "address",
          "name": "oldLib",
          "type": "address"
        },
        {
          "indexed": false,
          "internalType": "uint256",
          "name": "expiry",
          "type": "uint256"
        }
      ],
      "name": "DefaultReceiveLibraryTimeoutSet",
      "type": "event"
    },
    {
      "anonymous": false,
      "inputs": [
        {
          "indexed": false,
          "internalType": "uint32",
          "name": "eid",
          "type": "uint32"
        },
        {
          "indexed": false,
          "internalType": "address",
          "name": "newLib",
          "type": "address"
        }
      ],
      "name": "DefaultSendLibrarySet",
      "type": "event"
    },
    {
      "anonymous": false,
      "inputs": [
        {
          "components": [
            {
              "internalType": "uint256",
              "name": "nativeFee",
              "type": "uint256"
            },
            {
              "internalType": "uint256",
              "name": "lzTokenFee",
              "type": "uint256"
            }
          ],
          "indexed": false,
          "internalType": "struct ILayerZeroEndpointV2.MessagingFee",
          "name": "fee",
          "type": "tuple"
        }
      ],
      "name": "FeePaid",
      "type": "event"
    },
    {
      "anonymous": false,
      "inputs": [
        {
          "indexed": false,
          "internalType": "uint32",
          "name": "srcEid",
          "type": "uint32"
        },
        {
          "indexed": false,
          "internalType": "bytes32",
          "name": "sender",
          "type": "bytes32"
        },
        {
          "indexed": false,
          "internalType": "address",
          "name": "receiver",
          "type": "address"
        },
        {
          "indexed": false,
          "internalType": "uint64",
          "name": "nonce",
          "type": "uint64"
        }
      ],
      "name": "InboundNonceSkipped",
      "type": "event"
    },
    {
      "anonymous": false,
      "inputs": [
        {
          "indexed": false,
          "internalType": "address",
          "name": "token",
          "type": "address"
        }
      ],
      "name": "LayerZeroTokenSet",
      "type": "event"
    },
    {
      "anonymous": false,
      "inputs": [
        {
          "indexed": false,
          "internalType": "address",
          "name": "newLib",
          "type": "address"
        }
      ],
      "name": "LibraryRegistered",
      "type": "event"
    },
    {
      "anonymous": false,
      "inputs": [
        {
          "indexed": false,
          "internalType": "address",
          "name": "sender",
          "type": "address"
        },
        {
          "indexed": false,
          "internalType": "address",
          "name": "receiver",
          "type": "address"
        },
        {
          "indexed": false,
          "internalType": "bytes32",
          "name": "guid",
          "type": "bytes32"
        },
        {
          "indexed": false,
          "internalType": "bytes32",
          "name": "messageHash",
          "type": "bytes32"
        },
        {
          "indexed": false,
          "internalType": "address",
          "name": "caller",
          "type": "address"
        },
        {
          "indexed": false,
          "internalType": "bytes",
          "name": "reason",
          "type": "bytes"
        }
      ],
      "name": "LzComposeFailed",
      "type": "event"
    },
    {
      "anonymous": false,
      "inputs": [
        {
          "components": [
            {
              "internalType": "uint32",
              "name": "srcEid",
              "type": "uint32"
            },
            {
              "internalType": "bytes32",
              "name": "sender",
              "type": "bytes32"
            },
            {
              "internalType": "uint64",
              "name": "nonce",
              "type": "uint64"
            }
          ],
          "indexed": false,
          "internalType": "struct IMessageOrigin.MessageOrigin",
          "name": "origin",
          "type": "tuple"
        },
        {
          "indexed": false,
          "internalType": "address",
          "name": "receiver",
          "type": "address"
        },
        {
          "indexed": false,
          "internalType": "bytes",
          "name": "reason",
          "type": "bytes"
        }
      ],
      "name": "LzReceiveFailed",
      "type": "event"
    },
    {
      "anonymous": false,
      "inputs": [
        {
          "indexed": true,
          "internalType": "address",
          "name": "previousOwner",
          "type": "address"
        },
        {
          "indexed": true,
          "internalType": "address",
          "name": "newOwner",
          "type": "address"
        }
      ],
      "name": "OwnershipTransferred",
      "type": "event"
    },
    {
      "anonymous": false,
      "inputs": [
        {
          "components": [
            {
              "internalType": "uint32",
              "name": "srcEid",
              "type": "uint32"
            },
            {
              "internalType": "bytes32",
              "name": "sender",
              "type": "bytes32"
            },
            {
              "internalType": "uint64",
              "name": "nonce",
              "type": "uint64"
            }
          ],
          "indexed": false,
          "internalType": "struct IMessageOrigin.MessageOrigin",
          "name": "origin",
          "type": "tuple"
        },
        {
          "indexed": false,
          "internalType": "address",
          "name": "receiver",
          "type": "address"
        },
        {
          "indexed": false,
          "internalType": "bytes32",
          "name": "payloadHash",
          "type": "bytes32"
        }
      ],
      "name": "PacketDelivered",
      "type": "event"
    },
    {
      "anonymous": false,
      "inputs": [
        {
          "components": [
            {
              "internalType": "uint32",
              "name": "srcEid",
              "type": "uint32"
            },
            {
              "internalType": "bytes32",
              "name": "sender",
              "type": "bytes32"
            },
            {
              "internalType": "uint64",
              "name": "nonce",
              "type": "uint64"
            }
          ],
          "indexed": false,
          "internalType": "struct IMessageOrigin.MessageOrigin",
          "name": "origin",
          "type": "tuple"
        },
        {
          "indexed": false,
          "internalType": "address",
          "name": "receiver",
          "type": "address"
        }
      ],
      "name": "PacketReceived",
      "type": "event"
    },
    {
      "anonymous": false,
      "inputs": [
        {
          "indexed": false,
          "internalType": "bytes",
          "name": "encodedPayload",
          "type": "bytes"
        },
        {
          "indexed": false,
          "internalType": "bytes",
          "name": "options",
          "type": "bytes"
        },
        {
          "indexed": false,
          "internalType": "address",
          "name": "sendLibrary",
          "type": "address"
        }
      ],
      "name": "PacketSent",
      "type": "event"
    },
    {
      "anonymous": false,
      "inputs": [
        {
          "indexed": false,
          "internalType": "address",
          "name": "receiver",
          "type": "address"
        },
        {
          "indexed": false,
          "internalType": "uint32",
          "name": "eid",
          "type": "uint32"
        },
        {
          "indexed": false,
          "internalType": "address",
          "name": "oldLib",
          "type": "address"
        },
        {
          "indexed": false,
          "internalType": "address",
          "name": "newLib",
          "type": "address"
        }
      ],
      "name": "ReceiveLibrarySet",
      "type": "event"
    },
    {
      "anonymous": false,
      "inputs": [
        {
          "indexed": false,
          "internalType": "address",
          "name": "receiver",
          "type": "address"
        },
        {
          "indexed": false,
          "internalType": "uint32",
          "name": "eid",
          "type": "uint32"
        },
        {
          "indexed": false,
          "internalType": "address",
          "name": "oldLib",
          "type": "address"
        },
        {
          "indexed": false,
          "internalType": "uint256",
          "name": "timeout",
          "type": "uint256"
        }
      ],
      "name": "ReceiveLibraryTimoutSet",
      "type": "event"
    },
    {
      "anonymous": false,
      "inputs": [
        {
          "indexed": false,
          "internalType": "address",
          "name": "sender",
          "type": "address"
        },
        {
          "indexed": false,
          "internalType": "uint32",
          "name": "eid",
          "type": "uint32"
        },
        {
          "indexed": false,
          "internalType": "address",
          "name": "newLib",
          "type": "address"
        }
      ],
      "name": "SendLibrarySet",
      "type": "event"
    },
    {
      "inputs": [],
      "name": "altFeeToken",
      "outputs": [
        {
          "internalType": "address",
          "name": "",
          "type": "address"
        }
      ],
      "stateMutability": "view",
      "type": "function"
    },
    {
      "inputs": [],
      "name": "blockedLibrary",
      "outputs": [
        {
          "internalType": "address",
          "name": "",
          "type": "address"
        }
      ],
      "stateMutability": "view",
      "type": "function"
    },
    {
      "inputs": [
        {
          "components": [
            {
              "internalType": "uint32",
              "name": "srcEid",
              "type": "uint32"
            },
            {
              "internalType": "bytes32",
              "name": "sender",
              "type": "bytes32"
            },
            {
              "internalType": "uint64",
              "name": "nonce",
              "type": "uint64"
            }
          ],
          "internalType": "struct IMessageOrigin.MessageOrigin",
          "name": "_origin",
          "type": "tuple"
        },
        {
          "internalType": "bytes32",
          "name": "_guid",
          "type": "bytes32"
        },
        {
          "internalType": "bytes",
          "name": "_message",
          "type": "bytes"
        }
      ],
      "name": "clear",
      "outputs": [],
      "stateMutability": "nonpayable",
      "type": "function"
    },
    {
      "inputs": [
        {
          "internalType": "address",
          "name": "receiver",
          "type": "address"
        },
        {
          "internalType": "address",
          "name": "composer",
          "type": "address"
        },
        {
          "internalType": "bytes32",
          "name": "guid",
          "type": "bytes32"
        }
      ],
      "name": "composedMessages",
      "outputs": [
        {
          "internalType": "bytes32",
          "name": "messageHash",
          "type": "bytes32"
        }
      ],
      "stateMutability": "view",
      "type": "function"
    },
    {
      "inputs": [
        {
          "internalType": "address",
          "name": "_lib",
          "type": "address"
        },
        {
          "internalType": "uint32",
          "name": "_eid",
          "type": "uint32"
        },
        {
          "internalType": "uint32",
          "name": "_configType",
          "type": "uint32"
        }
      ],
      "name": "defaultConfig",
      "outputs": [
        {
          "internalType": "bytes",
          "name": "",
          "type": "bytes"
        }
      ],
      "stateMutability": "view",
      "type": "function"
    },
    {
      "inputs": [
        {
          "internalType": "uint32",
          "name": "srcEid",
          "type": "uint32"
        }
      ],
      "name": "defaultReceiveLibrary",
      "outputs": [
        {
          "internalType": "address",
          "name": "lib",
          "type": "address"
        }
      ],
      "stateMutability": "view",
      "type": "function"
    },
    {
      "inputs": [
        {
          "internalType": "uint32",
          "name": "srcEid",
          "type": "uint32"
        }
      ],
      "name": "defaultReceiveLibraryTimeout",
      "outputs": [
        {
          "internalType": "address",
          "name": "lib",
          "type": "address"
        },
        {
          "internalType": "uint256",
          "name": "expiry",
          "type": "uint256"
        }
      ],
      "stateMutability": "view",
      "type": "function"
    },
    {
      "inputs": [
        {
          "internalType": "uint32",
          "name": "dstEid",
          "type": "uint32"
        }
      ],
      "name": "defaultSendLibrary",
      "outputs": [
        {
          "internalType": "address",
          "name": "lib",
          "type": "address"
        }
      ],
      "stateMutability": "view",
      "type": "function"
    },
    {
      "inputs": [
        {
          "components": [
            {
              "internalType": "uint32",
              "name": "srcEid",
              "type": "uint32"
            },
            {
              "internalType": "bytes32",
              "name": "sender",
              "type": "bytes32"
            },
            {
              "internalType": "uint64",
              "name": "nonce",
              "type": "uint64"
            }
          ],
          "internalType": "struct IMessageOrigin.MessageOrigin",
          "name": "_origin",
          "type": "tuple"
        },
        {
          "internalType": "address",
          "name": "_receiver",
          "type": "address"
        },
        {
          "internalType": "bytes32",
          "name": "_payloadHash",
          "type": "bytes32"
        }
      ],
      "name": "deliver",
      "outputs": [],
      "stateMutability": "nonpayable",
      "type": "function"
    },
    {
      "inputs": [
        {
          "internalType": "address",
          "name": "_composer",
          "type": "address"
        },
        {
          "internalType": "bytes32",
          "name": "_guid",
          "type": "bytes32"
        },
        {
          "internalType": "bytes",
          "name": "_message",
          "type": "bytes"
        }
      ],
      "name": "deliverComposedMessage",
      "outputs": [],
      "stateMutability": "nonpayable",
      "type": "function"
    },
    {
      "inputs": [
        {
          "components": [
            {
              "internalType": "uint32",
              "name": "srcEid",
              "type": "uint32"
            },
            {
              "internalType": "bytes32",
              "name": "sender",
              "type": "bytes32"
            },
            {
              "internalType": "uint64",
              "name": "nonce",
              "type": "uint64"
            }
          ],
          "internalType": "struct IMessageOrigin.MessageOrigin",
          "name": "_origin",
          "type": "tuple"
        },
        {
          "internalType": "address",
          "name": "_receiveLib",
          "type": "address"
        },
        {
          "internalType": "address",
          "name": "_receiver",
          "type": "address"
        }
      ],
      "name": "deliverable",
      "outputs": [
        {
          "internalType": "bool",
          "name": "",
          "type": "bool"
        }
      ],
      "stateMutability": "view",
      "type": "function"
    },
    {
      "inputs": [],
      "name": "eid",
      "outputs": [
        {
          "internalType": "uint32",
          "name": "",
          "type": "uint32"
        }
      ],
      "stateMutability": "view",
      "type": "function"
    },
    {
      "inputs": [
        {
          "internalType": "address",
          "name": "_oapp",
          "type": "address"
        },
        {
          "internalType": "address",
          "name": "_lib",
          "type": "address"
        },
        {
          "internalType": "uint32",
          "name": "_eid",
          "type": "uint32"
        },
        {
          "internalType": "uint32",
          "name": "_configType",
          "type": "uint32"
        }
      ],
      "name": "getConfig",
      "outputs": [
        {
          "internalType": "bytes",
          "name": "config",
          "type": "bytes"
        },
        {
          "internalType": "bool",
          "name": "isDefault",
          "type": "bool"
        }
      ],
      "stateMutability": "view",
      "type": "function"
    },
    {
      "inputs": [
        {
          "internalType": "address",
          "name": "_receiver",
          "type": "address"
        },
        {
          "internalType": "uint32",
          "name": "_srcEid",
          "type": "uint32"
        }
      ],
      "name": "getReceiveLibrary",
      "outputs": [
        {
          "internalType": "address",
          "name": "lib",
          "type": "address"
        },
        {
          "internalType": "bool",
          "name": "isDefault",
          "type": "bool"
        }
      ],
      "stateMutability": "view",
      "type": "function"
    },
    {
      "inputs": [],
      "name": "getRegisteredLibraries",
      "outputs": [
        {
          "internalType": "address[]",
          "name": "",
          "type": "address[]"
        }
      ],
      "stateMutability": "view",
      "type": "function"
    },
    {
      "inputs": [],
      "name": "getSendContext",
      "outputs": [
        {
          "internalType": "uint32",
          "name": "",
          "type": "uint32"
        },
        {
          "internalType": "address",
          "name": "",
          "type": "address"
        }
      ],
      "stateMutability": "view",
      "type": "function"
    },
    {
      "inputs": [
        {
          "internalType": "address",
          "name": "_sender",
          "type": "address"
        },
        {
          "internalType": "uint32",
          "name": "_dstEid",
          "type": "uint32"
        }
      ],
      "name": "getSendLibrary",
      "outputs": [
        {
          "internalType": "address",
          "name": "lib",
          "type": "address"
        }
      ],
      "stateMutability": "view",
      "type": "function"
    },
    {
      "inputs": [
        {
          "internalType": "address",
          "name": "_receiver",
          "type": "address"
        },
        {
          "internalType": "uint32",
          "name": "_srcEid",
          "type": "uint32"
        },
        {
          "internalType": "bytes32",
          "name": "_sender",
          "type": "bytes32"
        },
        {
          "internalType": "uint64",
          "name": "_nonce",
          "type": "uint64"
        }
      ],
      "name": "hasPayloadHash",
      "outputs": [
        {
          "internalType": "bool",
          "name": "",
          "type": "bool"
        }
      ],
      "stateMutability": "view",
      "type": "function"
    },
    {
      "inputs": [
        {
          "internalType": "address",
          "name": "_receiver",
          "type": "address"
        },
        {
          "internalType": "uint32",
          "name": "_srcEid",
          "type": "uint32"
        },
        {
          "internalType": "bytes32",
          "name": "_sender",
          "type": "bytes32"
        }
      ],
      "name": "inboundNonce",
      "outputs": [
        {
          "internalType": "uint64",
          "name": "",
          "type": "uint64"
        }
      ],
      "stateMutability": "view",
      "type": "function"
    },
    {
      "inputs": [
        {
          "internalType": "address",
          "name": "receiver",
          "type": "address"
        },
        {
          "internalType": "uint32",
          "name": "srcEid",
          "type": "uint32"
        },
        {
          "internalType": "bytes32",
          "name": "sender",
          "type": "bytes32"
        },
        {
          "internalType": "uint64",
          "name": "inboundNonce",
          "type": "uint64"
        }
      ],
      "name": "inboundPayloadHash",
      "outputs": [
        {
          "internalType": "bytes32",
          "name": "payloadHash",
          "type": "bytes32"
        }
      ],
      "stateMutability": "view",
      "type": "function"
    },
    {
      "inputs": [
        {
          "internalType": "address",
          "name": "_sender",
          "type": "address"
        },
        {
          "internalType": "uint32",
          "name": "_dstEid",
          "type": "uint32"
        }
      ],
      "name": "isDefaultSendLibrary",
      "outputs": [
        {
          "internalType": "bool",
          "name": "",
          "type": "bool"
        }
      ],
      "stateMutability": "view",
      "type": "function"
    },
    {
      "inputs": [
        {
          "internalType": "address",
          "name": "lib",
          "type": "address"
        }
      ],
      "name": "isRegisteredLibrary",
      "outputs": [
        {
          "internalType": "bool",
          "name": "",
          "type": "bool"
        }
      ],
      "stateMutability": "view",
      "type": "function"
    },
    {
      "inputs": [],
      "name": "isSendingMessage",
      "outputs": [
        {
          "internalType": "bool",
          "name": "",
          "type": "bool"
        }
      ],
      "stateMutability": "view",
      "type": "function"
    },
    {
      "inputs": [
        {
          "internalType": "uint32",
          "name": "_eid",
          "type": "uint32"
        }
      ],
      "name": "isSupportedEid",
      "outputs": [
        {
          "internalType": "bool",
          "name": "",
          "type": "bool"
        }
      ],
      "stateMutability": "view",
      "type": "function"
    },
    {
      "inputs": [
        {
          "internalType": "address",
          "name": "_receiver",
          "type": "address"
        },
        {
          "internalType": "uint32",
          "name": "_srcEid",
          "type": "uint32"
        },
        {
          "internalType": "address",
          "name": "_actualReceiveLib",
          "type": "address"
        }
      ],
      "name": "isValidReceiveLibrary",
      "outputs": [
        {
          "internalType": "bool",
          "name": "",
          "type": "bool"
        }
      ],
      "stateMutability": "view",
      "type": "function"
    },
    {
      "inputs": [],
      "name": "layerZeroToken",
      "outputs": [
        {
          "internalType": "address",
          "name": "",
          "type": "address"
        }
      ],
      "stateMutability": "view",
      "type": "function"
    },
    {
      "inputs": [
        {
          "internalType": "address",
          "name": "_sender",
          "type": "address"
        },
        {
          "internalType": "address",
          "name": "_composer",
          "type": "address"
        },
        {
          "internalType": "bytes32",
          "name": "_guid",
          "type": "bytes32"
        },
        {
          "internalType": "bytes",
          "name": "_message",
          "type": "bytes"
        },
        {
          "internalType": "bytes",
          "name": "_extraData",
          "type": "bytes"
        }
      ],
      "name": "lzCompose",
      "outputs": [
        {
          "internalType": "bool",
          "name": "success",
          "type": "bool"
        },
        {
          "internalType": "bytes",
          "name": "reason",
          "type": "bytes"
        }
      ],
      "stateMutability": "payable",
      "type": "function"
    },
    {
      "inputs": [
        {
          "components": [
            {
              "internalType": "uint32",
              "name": "srcEid",
              "type": "uint32"
            },
            {
              "internalType": "bytes32",
              "name": "sender",
              "type": "bytes32"
            },
            {
              "internalType": "uint64",
              "name": "nonce",
              "type": "uint64"
            }
          ],
          "internalType": "struct IMessageOrigin.MessageOrigin",
          "name": "_origin",
          "type": "tuple"
        },
        {
          "internalType": "address",
          "name": "_receiver",
          "type": "address"
        },
        {
          "internalType": "bytes32",
          "name": "_guid",
          "type": "bytes32"
        },
        {
          "internalType": "bytes",
          "name": "_message",
          "type": "bytes"
        },
        {
          "internalType": "bytes",
          "name": "_extraData",
          "type": "bytes"
        }
      ],
      "name": "lzReceive",
      "outputs": [
        {
          "internalType": "bool",
          "name": "success",
          "type": "bool"
        },
        {
          "internalType": "bytes",
          "name": "reason",
          "type": "bytes"
        }
      ],
      "stateMutability": "payable",
      "type": "function"
    },
    {
      "inputs": [
        {
          "internalType": "address",
          "name": "_sender",
          "type": "address"
        },
        {
          "internalType": "uint32",
          "name": "_dstEid",
          "type": "uint32"
        },
        {
          "internalType": "bytes32",
          "name": "_receiver",
          "type": "bytes32"
        }
      ],
      "name": "nextGuid",
      "outputs": [
        {
          "internalType": "bytes32",
          "name": "",
          "type": "bytes32"
        }
      ],
      "stateMutability": "view",
      "type": "function"
    },
    {
      "inputs": [
        {
          "internalType": "address",
          "name": "sender",
          "type": "address"
        },
        {
          "internalType": "uint32",
          "name": "dstEid",
          "type": "uint32"
        },
        {
          "internalType": "bytes32",
          "name": "receiver",
          "type": "bytes32"
        }
      ],
      "name": "outboundNonce",
      "outputs": [
        {
          "internalType": "uint64",
          "name": "nonce",
          "type": "uint64"
        }
      ],
      "stateMutability": "view",
      "type": "function"
    },
    {
      "inputs": [],
      "name": "owner",
      "outputs": [
        {
          "internalType": "address",
          "name": "",
          "type": "address"
        }
      ],
      "stateMutability": "view",
      "type": "function"
    },
    {
      "inputs": [
        {
          "internalType": "address",
          "name": "_sender",
          "type": "address"
        },
        {
          "internalType": "uint32",
          "name": "_dstEid",
          "type": "uint32"
        },
        {
          "internalType": "bytes",
          "name": "_message",
          "type": "bytes"
        },
        {
          "internalType": "bool",
          "name": "_payInLzToken",
          "type": "bool"
        },
        {
          "internalType": "bytes",
          "name": "_options",
          "type": "bytes"
        }
      ],
      "name": "quote",
      "outputs": [
        {
          "components": [
            {
              "internalType": "uint256",
              "name": "nativeFee",
              "type": "uint256"
            },
            {
              "internalType": "uint256",
              "name": "lzTokenFee",
              "type": "uint256"
            }
          ],
          "internalType": "struct ILayerZeroEndpointV2.MessagingFee",
          "name": "",
          "type": "tuple"
        }
      ],
      "stateMutability": "view",
      "type": "function"
    },
    {
      "inputs": [
        {
          "internalType": "address",
          "name": "receiver",
          "type": "address"
        },
        {
          "internalType": "uint32",
          "name": "srcEid",
          "type": "uint32"
        }
      ],
      "name": "receiveLibraryTimeout",
      "outputs": [
        {
          "internalType": "address",
          "name": "lib",
          "type": "address"
        },
        {
          "internalType": "uint256",
          "name": "expiry",
          "type": "uint256"
        }
      ],
      "stateMutability": "view",
      "type": "function"
    },
    {
      "inputs": [
        {
          "internalType": "address",
          "name": "_token",
          "type": "address"
        },
        {
          "internalType": "address",
          "name": "_to",
          "type": "address"
        },
        {
          "internalType": "uint256",
          "name": "_amount",
          "type": "uint256"
        }
      ],
      "name": "recoverToken",
      "outputs": [],
      "stateMutability": "nonpayable",
      "type": "function"
    },
    {
      "inputs": [
        {
          "internalType": "address",
          "name": "_lib",
          "type": "address"
        }
      ],
      "name": "registerLibrary",
      "outputs": [],
      "stateMutability": "nonpayable",
      "type": "function"
    },
    {
      "inputs": [],
      "name": "renounceOwnership",
      "outputs": [],
      "stateMutability": "nonpayable",
      "type": "function"
    },
    {
      "inputs": [
        {
          "internalType": "address",
          "name": "_lib",
          "type": "address"
        },
        {
          "internalType": "uint32[]",
          "name": "_eids",
          "type": "uint32[]"
        }
      ],
      "name": "resetConfig",
      "outputs": [],
      "stateMutability": "nonpayable",
      "type": "function"
    },
    {
      "inputs": [
        {
          "components": [
            {
              "internalType": "uint32",
              "name": "dstEid",
              "type": "uint32"
            },
            {
              "internalType": "bytes32",
              "name": "receiver",
              "type": "bytes32"
            },
            {
              "internalType": "bytes",
              "name": "message",
              "type": "bytes"
            },
            {
              "internalType": "bytes",
              "name": "options",
              "type": "bytes"
            }
          ],
          "internalType": "struct ILayerZeroEndpointV2.MessagingParams",
          "name": "_params",
          "type": "tuple"
        },
        {
          "internalType": "uint256",
          "name": "_lzTokenFeeCap",
          "type": "uint256"
        },
        {
          "internalType": "address payable",
          "name": "_refundAddress",
          "type": "address"
        }
      ],
      "name": "send",
      "outputs": [
        {
          "components": [
            {
              "internalType": "bytes32",
              "name": "guid",
              "type": "bytes32"
            },
            {
              "internalType": "uint64",
              "name": "nonce",
              "type": "uint64"
            },
            {
              "components": [
                {
                  "internalType": "uint256",
                  "name": "nativeFee",
                  "type": "uint256"
                },
                {
                  "internalType": "uint256",
                  "name": "lzTokenFee",
                  "type": "uint256"
                }
              ],
              "internalType": "struct ILayerZeroEndpointV2.MessagingFee",
              "name": "fee",
              "type": "tuple"
            }
          ],
          "internalType": "struct ILayerZeroEndpointV2.MessagingReceipt",
          "name": "",
          "type": "tuple"
        }
      ],
      "stateMutability": "payable",
      "type": "function"
    },
    {
      "inputs": [
        {
          "components": [
            {
              "internalType": "uint32",
              "name": "dstEid",
              "type": "uint32"
            },
            {
              "internalType": "bytes32",
              "name": "receiver",
              "type": "bytes32"
            },
            {
              "internalType": "bytes",
              "name": "message",
              "type": "bytes"
            },
            {
              "internalType": "bytes",
              "name": "options",
              "type": "bytes"
            }
          ],
          "internalType": "struct ILayerZeroEndpointV2.MessagingParams",
          "name": "_params",
          "type": "tuple"
        },
        {
          "internalType": "uint256",
          "name": "_lzTokenFeeCap",
          "type": "uint256"
        },
        {
          "internalType": "uint256",
          "name": "_altTokenFeeCap",
          "type": "uint256"
        }
      ],
      "name": "sendWithAlt",
      "outputs": [
        {
          "components": [
            {
              "internalType": "bytes32",
              "name": "guid",
              "type": "bytes32"
            },
            {
              "internalType": "uint64",
              "name": "nonce",
              "type": "uint64"
            },
            {
              "components": [
                {
                  "internalType": "uint256",
                  "name": "nativeFee",
                  "type": "uint256"
                },
                {
                  "internalType": "uint256",
                  "name": "lzTokenFee",
                  "type": "uint256"
                }
              ],
              "internalType": "struct ILayerZeroEndpointV2.MessagingFee",
              "name": "fee",
              "type": "tuple"
            }
          ],
          "internalType": "struct ILayerZeroEndpointV2.MessagingReceipt",
          "name": "",
          "type": "tuple"
        }
      ],
      "stateMutability": "nonpayable",
      "type": "function"
    },
    {
      "inputs": [
        {
          "internalType": "address",
          "name": "_lib",
          "type": "address"
        },
        {
          "internalType": "uint32",
          "name": "_eid",
          "type": "uint32"
        },
        {
          "components": [
            {
              "internalType": "uint32",
              "name": "configType",
              "type": "uint32"
            },
            {
              "internalType": "bytes",
              "name": "config",
              "type": "bytes"
            }
          ],
          "internalType": "struct IMessageLibManager.SetConfigParam[]",
          "name": "_params",
          "type": "tuple[]"
        }
      ],
      "name": "setConfig",
      "outputs": [],
      "stateMutability": "nonpayable",
      "type": "function"
    },
    {
      "inputs": [
        {
          "internalType": "uint32",
          "name": "_eid",
          "type": "uint32"
        },
        {
          "internalType": "address",
          "name": "_newLib",
          "type": "address"
        },
        {
          "internalType": "uint256",
          "name": "_gracePeriod",
          "type": "uint256"
        }
      ],
      "name": "setDefaultReceiveLibrary",
      "outputs": [],
      "stateMutability": "nonpayable",
      "type": "function"
    },
    {
      "inputs": [
        {
          "internalType": "uint32",
          "name": "_eid",
          "type": "uint32"
        },
        {
          "internalType": "address",
          "name": "_lib",
          "type": "address"
        },
        {
          "internalType": "uint256",
          "name": "_expiry",
          "type": "uint256"
        }
      ],
      "name": "setDefaultReceiveLibraryTimeout",
      "outputs": [],
      "stateMutability": "nonpayable",
      "type": "function"
    },
    {
      "inputs": [
        {
          "internalType": "uint32",
          "name": "_eid",
          "type": "uint32"
        },
        {
          "internalType": "address",
          "name": "_newLib",
          "type": "address"
        }
      ],
      "name": "setDefaultSendLibrary",
      "outputs": [],
      "stateMutability": "nonpayable",
      "type": "function"
    },
    {
      "inputs": [
        {
          "internalType": "address",
          "name": "_layerZeroToken",
          "type": "address"
        }
      ],
      "name": "setLayerZeroToken",
      "outputs": [],
      "stateMutability": "nonpayable",
      "type": "function"
    },
    {
      "inputs": [
        {
          "internalType": "uint32",
          "name": "_eid",
          "type": "uint32"
        },
        {
          "internalType": "address",
          "name": "_newLib",
          "type": "address"
        },
        {
          "internalType": "uint256",
          "name": "_gracePeriod",
          "type": "uint256"
        }
      ],
      "name": "setReceiveLibrary",
      "outputs": [],
      "stateMutability": "nonpayable",
      "type": "function"
    },
    {
      "inputs": [
        {
          "internalType": "uint32",
          "name": "_eid",
          "type": "uint32"
        },
        {
          "internalType": "address",
          "name": "_lib",
          "type": "address"
        },
        {
          "internalType": "uint256",
          "name": "_expiry",
          "type": "uint256"
        }
      ],
      "name": "setReceiveLibraryTimeout",
      "outputs": [],
      "stateMutability": "nonpayable",
      "type": "function"
    },
    {
      "inputs": [
        {
          "internalType": "uint32",
          "name": "_eid",
          "type": "uint32"
        },
        {
          "internalType": "address",
          "name": "_newLib",
          "type": "address"
        }
      ],
      "name": "setSendLibrary",
      "outputs": [],
      "stateMutability": "nonpayable",
      "type": "function"
    },
    {
      "inputs": [
        {
          "internalType": "uint32",
          "name": "_srcEid",
          "type": "uint32"
        },
        {
          "internalType": "bytes32",
          "name": "_sender",
          "type": "bytes32"
        },
        {
          "internalType": "uint64",
          "name": "_nonce",
          "type": "uint64"
        }
      ],
      "name": "skip",
      "outputs": [],
      "stateMutability": "nonpayable",
      "type": "function"
    },
    {
      "inputs": [
        {
          "internalType": "address",
          "name": "_lib",
          "type": "address"
        },
        {
          "internalType": "uint32[]",
          "name": "_eids",
          "type": "uint32[]"
        }
      ],
      "name": "snapshotConfig",
      "outputs": [],
      "stateMutability": "nonpayable",
      "type": "function"
    },
    {
      "inputs": [
        {
          "internalType": "address",
          "name": "newOwner",
          "type": "address"
        }
      ],
      "name": "transferOwnership",
      "outputs": [],
      "stateMutability": "nonpayable",
      "type": "function"
    }
  ],
  "transactionHash": "0xe5f6053ed8604b320590ef1d0f068d7ffb09ec35a0996eec814700e25b059ee6",
  "args": [
    50109,
    "0xC6bA8C3233eCF65B761049ef63466945c362EdD2",
    "0x0000000000000000000000000000000000000000"
  ],
  "numDeployments": 1,
  "solcInputHash": "a0962aea9626180b1c1dd40eb482a600",
  "bytecode": "0x60e06040526001600d553480156200001657600080fd5b5060405162005e2b38038062005e2b83398101604081905262000039916200030b565b818362000046336200007d565b63ffffffff166080526001600160a01b03811660a0526200006781620000cd565b506001600160a01b031660c05250620003da9050565b600080546001600160a01b038381166001600160a01b0319831681178455604051919092169283917f8be0079c531659141344cd1fd0a4f28419497f9722a3daafe3b4186f6b6457e09190a35050565b620000d762000290565b6040516301ffc9a760e01b815263d913d0cd60e01b60048201526001600160a01b038216906301ffc9a790602401602060405180830381865afa15801562000123573d6000803e3d6000fd5b505050506040513d601f19601f820116820180604052508101906200014991906200035f565b604051806040016040528060078152602001664c5a433030303160c81b81525090620001935760405162461bcd60e51b81526004016200018a91906200038a565b60405180910390fd5b506001600160a01b038116600090815260056020908152604091829020548251808401909352600783526604c5a38303030360cc1b9183019190915260ff1615620001f35760405162461bcd60e51b81526004016200018a91906200038a565b506001600160a01b0381166000818152600560209081526040808320805460ff191660019081179091556004805491820181559093527f8a35acfbc15ff81a39ae7d344fd709f28e8600b4aa8c65c6b64bfe7fe36bd19b90920180546001600160a01b0319168417905590519182527f6b374d56679ca9463f27c85c6311e2bb7fde69bf201d3da39d53f10bd9d78af5910160405180910390a150565b6000546001600160a01b03163314620002ec5760405162461bcd60e51b815260206004820181905260248201527f4f776e61626c653a2063616c6c6572206973206e6f7420746865206f776e657260448201526064016200018a565b565b80516001600160a01b03811681146200030657600080fd5b919050565b6000806000606084860312156200032157600080fd5b835163ffffffff811681146200033657600080fd5b92506200034660208501620002ee565b91506200035660408501620002ee565b90509250925092565b6000602082840312156200037257600080fd5b815180151581146200038357600080fd5b9392505050565b600060208083528351808285015260005b81811015620003b9578581018301518582016040015282016200039b565b506000604082860101526040601f19601f8301168501019250505092915050565b60805160a05160c051615a056200042660003960008181610b7401528181611c1a01526142920152600061063601526000818161046601528181613e3e01526141cb0152615a056000f3fe6080604052600436106103295760003560e01c80639c9dd91d116101a5578063c9fc7bcd116100ec578063e8964e8111610095578063f2fde38b1161006f578063f2fde38b14610af9578063f405c85914610b19578063f64be4c714610b2c578063f936112b14610b6257600080fd5b8063e8964e8114610a6e578063eaeacd6314610a8e578063ef667aa114610aae57600080fd5b8063dc93c8a2116100c6578063dc93c8a2146109e2578063e16f964d14610a2e578063e361b59c14610a4e57600080fd5b8063c9fc7bcd1461094b578063d4b4ec8f14610992578063dc706a62146109b257600080fd5b8063aafe5e071161014e578063b8007ff611610128578063b8007ff6146108eb578063b8849ac91461090b578063b96a277f1461092b57600080fd5b8063aafe5e0714610898578063aafea312146108b8578063aca1b45a146108d857600080fd5b8063a0dd43fc1161017f578063a0dd43fc14610838578063a718531b14610858578063a7229fd91461087857600080fd5b80639c9dd91d146107ac5780639d7f9775146107f85780639e7fffcc1461081857600080fd5b80636750cd4c1161027457806379624ca91161021d5780639132e5c3116101f75780639132e5c3146106dc578063965183d4146106fe5780639731526b1461071e5780639c6d73401461074b57600080fd5b806379624ca91461067857806383c47559146106915780638da5cb5b146106be57600080fd5b8063715018a61161024e578063715018a61461060f5780637331809114610624578063754d3b9c1461065857600080fd5b80636750cd4c1461055a5780636e83f5bb1461057a5780636f50a803146105d957600080fd5b8063416ecebf116102d657806351c85b6b116102b057806351c85b6b146104ed57806352d3b5001461051a57806366bf43d61461053a57600080fd5b8063416ecebf14610454578063418ba3511461049d57806345c6dcc4146104cd57600080fd5b806314f651a91161030757806314f651a9146103ae5780632b3197b9146103e7578063402f84681461041557600080fd5b80630678327f1461032e57806307b9ca7c146103505780630c0c389e1461038d575b600080fd5b34801561033a57600080fd5b5061034e6103493660046147f3565b610b96565b005b34801561035c57600080fd5b50600e54610370906001600160a01b031681565b6040516001600160a01b0390911681526020015b60405180910390f35b6103a061039b3660046148a2565b610c95565b6040516103849291906149ae565b3480156103ba57600080fd5b506103c3610e20565b6040805163ffffffff90931683526001600160a01b03909116602083015201610384565b3480156103f357600080fd5b506104076104023660046149e2565b610e4f565b604051610384929190614a3a565b34801561042157600080fd5b50610435610430366004614a5e565b610f8f565b604080516001600160a01b039093168352901515602083015201610384565b34801561046057600080fd5b506104887f000000000000000000000000000000000000000000000000000000000000000081565b60405163ffffffff9091168152602001610384565b3480156104a957600080fd5b506104bd6104b8366004614a93565b611047565b6040519015158152602001610384565b3480156104d957600080fd5b5061034e6104e8366004614add565b6110c9565b3480156104f957600080fd5b5061050d610508366004614b1d565b6111df565b6040516103849190614b62565b34801561052657600080fd5b5061034e610535366004614b75565b611400565b34801561054657600080fd5b5061034e610555366004614b92565b611475565b34801561056657600080fd5b506104bd610575366004614bd1565b61179f565b34801561058657600080fd5b506105ba610595366004614bd1565b600b60205260009081526040902080546001909101546001600160a01b039091169082565b604080516001600160a01b039093168352602083019190915201610384565b3480156105e557600080fd5b506103706105f4366004614bd1565b600a602052600090815260409020546001600160a01b031681565b34801561061b57600080fd5b5061034e6117ef565b34801561063057600080fd5b506103707f000000000000000000000000000000000000000000000000000000000000000081565b34801561066457600080fd5b5061034e610673366004614bec565b611803565b34801561068457600080fd5b50600d54600114156104bd565b34801561069d57600080fd5b506106b16106ac366004614c56565b61190a565b6040516103849190614cde565b3480156106ca57600080fd5b506000546001600160a01b0316610370565b3480156106e857600080fd5b506106f1611a8e565b6040516103849190614cf5565b34801561070a57600080fd5b5061034e610719366004614d42565b611af0565b34801561072a57600080fd5b5061073e610739366004614d97565b611b64565b6040516103849190614de5565b34801561075757600080fd5b50610793610766366004614e21565b600360209081526000938452604080852082529284528284209052825290205467ffffffffffffffff1681565b60405167ffffffffffffffff9091168152602001610384565b3480156107b857600080fd5b506107ea6107c7366004614e5f565b600c60209081526000938452604080852082529284528284209052825290205481565b604051908152602001610384565b34801561080457600080fd5b506104bd610813366004614e7f565b611cb9565b34801561082457600080fd5b5061034e6108333660046147f3565b611d93565b34801561084457600080fd5b50610793610853366004614e21565b611e51565b34801561086457600080fd5b5061034e610873366004614b92565b611eaa565b34801561088457600080fd5b5061034e610893366004614e5f565b61221d565b3480156108a457600080fd5b506107ea6108b3366004614e21565b612288565b3480156108c457600080fd5b5061034e6108d3366004614ebd565b6122e8565b61073e6108e6366004614ef4565b61255a565b3480156108f757600080fd5b5061034e610906366004614f44565b61261f565b34801561091757600080fd5b5061034e610926366004614b92565b612718565b34801561093757600080fd5b50610370610946366004614a5e565b612b48565b34801561095757600080fd5b506107ea610966366004614fb1565b600260209081526000948552604080862082529385528385208152918452828420909152825290205481565b34801561099e57600080fd5b5061034e6109ad366004614b92565b612bf7565b3480156109be57600080fd5b506104bd6109cd366004614b75565b60056020526000908152604090205460ff1681565b3480156109ee57600080fd5b506104bd6109fd366004614a5e565b6001600160a01b03918216600090815260066020908152604080832063ffffffff9490941683529290522054161590565b348015610a3a57600080fd5b5061034e610a49366004614ebd565b612e9c565b348015610a5a57600080fd5b506104bd610a69366004614fb1565b613125565b348015610a7a57600080fd5b5061034e610a89366004614b75565b613174565b348015610a9a57600080fd5b5061034e610aa9366004615002565b6133b1565b348015610aba57600080fd5b506105ba610ac9366004614a5e565b6008602090815260009283526040808420909152908252902080546001909101546001600160a01b039091169082565b348015610b0557600080fd5b5061034e610b14366004614b75565b6134d5565b6103a0610b27366004615037565b613565565b348015610b3857600080fd5b50610370610b47366004614bd1565b6009602052600090815260409020546001600160a01b031681565b348015610b6e57600080fd5b506103707f000000000000000000000000000000000000000000000000000000000000000081565b6001600160a01b038316600090815260056020908152604091829020548251808401909352600783527f4c5a3130303031000000000000000000000000000000000000000000000000009183019190915284919060ff16610c135760405162461bcd60e51b8152600401610c0a9190614b62565b60405180910390fd5b506040517f1c63e3b60000000000000000000000000000000000000000000000000000000081526001600160a01b03851690631c63e3b690610c5d908690869033906004016150b6565b600060405180830381600087803b158015610c7757600080fd5b505af1158015610c8b573d6000803e3d6000fd5b5050505050505050565b600060606000610cc98a8a8a8a8a604051602001610cb593929190615111565b60405160208183030381529060405261387c565b9050610cda8a8a8a8a8a8a8a613ad7565b90935091508215610d23577f2d05fd3bd2a2620dfaf6174f2083d54fbfd9106a4ee93c81238ea5a5f731aede8a8a604051610d16929190615169565b60405180910390a1610e13565b610d2e8a8a83613ba8565b3415610dd757604051600090339034908381818185875af1925050503d8060008114610d76576040519150601f19603f3d011682016040523d82523d6000602084013e610d7b565b606091505b50509050806040518060400160405280600781526020017f4c5a33303030300000000000000000000000000000000000000000000000000081525090610dd45760405162461bcd60e51b8152600401610c0a9190614b62565b50505b7faf073b1a1dac00a30ce25289039781005b496fbf28cd561b69a2359f1dd07ed98a8a84604051610e0a9392919061518d565b60405180910390a15b5097509795505050505050565b600080610e30600d546001141590565b610e3c57600080610e47565b60a0600d54901c600d545b915091509091565b6001600160a01b0383166000908152600560209081526040808320548151808301909252600782527f4c5a313030303100000000000000000000000000000000000000000000000000928201929092526060929186919060ff16610ec65760405162461bcd60e51b8152600401610c0a9190614b62565b506040517f9c33abf700000000000000000000000000000000000000000000000000000000815263ffffffff80871660048301526001600160a01b0389811660248401529086166044830152871690639c33abf790606401600060405180830381865afa158015610f3b573d6000803e3d6000fd5b505050506040513d6000823e601f3d9081017fffffffffffffffffffffffffffffffffffffffffffffffffffffffffffffffe0168201604052610f819190810190615291565b925092505094509492505050565b6001600160a01b03808316600090815260076020908152604080832063ffffffff8616845290915281205490911690816110405763ffffffff83166000908152600a6020908152604091829020548251808401909352600783527f4c5a443030303300000000000000000000000000000000000000000000000000918301919091526001600160a01b031692508261103a5760405162461bcd60e51b8152600401610c0a9190614b62565b50600190505b9250929050565b60006110608261105a6020870187614bd1565b85611cb9565b6040518060400160405280600781526020017f4c5a353030303000000000000000000000000000000000000000000000000000815250906110b45760405162461bcd60e51b8152600401610c0a9190614b62565b506110bf8483613c36565b90505b9392505050565b6110e0826110da6020860186614bd1565b33611cb9565b6040518060400160405280600781526020017f4c5a353030303000000000000000000000000000000000000000000000000000815250906111345760405162461bcd60e51b8152600401610c0a9190614b62565b5061113f8383613c36565b6040518060400160405280600781526020017f4c5a313030303400000000000000000000000000000000000000000000000000815250906111935760405162461bcd60e51b8152600401610c0a9190614b62565b5061119f838383613ba8565b7f3015b766371c496aa0ecdb272f6bf2fd695f317932333ad7a090f392a7c0ce398383836040516111d2939291906152d8565b60405180910390a1505050565b6001600160a01b038316600090815260056020908152604091829020548251808401909352600783527f4c5a31303030310000000000000000000000000000000000000000000000000091830191909152606091859160ff166112555760405162461bcd60e51b8152600401610c0a9190614b62565b5084846001600160a01b03821615611344576040517f6750cd4c00000000000000000000000000000000000000000000000000000000815263ffffffff821660048201526001600160a01b03831690636750cd4c90602401602060405180830381865afa1580156112ca573d6000803e3d6000fd5b505050506040513d601f19601f820116820180604052508101906112ee9190615300565b6040518060400160405280600781526020017f4c5a313030303800000000000000000000000000000000000000000000000000815250906113425760405162461bcd60e51b8152600401610c0a9190614b62565b505b6040517f690c655500000000000000000000000000000000000000000000000000000000815263ffffffff8088166004830152861660248201526001600160a01b0388169063690c655590604401600060405180830381865afa1580156113af573d6000803e3d6000fd5b505050506040513d6000823e601f3d9081017fffffffffffffffffffffffffffffffffffffffffffffffffffffffffffffffe01682016040526113f5919081019061531d565b979650505050505050565b611408613cb5565b600e80547fffffffffffffffffffffffff0000000000000000000000000000000000000000166001600160a01b0383169081179091556040519081527ff66b6c5fcba13210e695e203c62d584c85a4193f8a279598609bb6af760b17c1906020015b60405180910390a150565b6001600160a01b038216600090815260056020908152604091829020548251808401909352600783527f4c5a3130303031000000000000000000000000000000000000000000000000009183019190915283919060ff166114e95760405162461bcd60e51b8152600401610c0a9190614b62565b5082846001600160a01b038216156115d8576040517f6750cd4c00000000000000000000000000000000000000000000000000000000815263ffffffff821660048201526001600160a01b03831690636750cd4c90602401602060405180830381865afa15801561155e573d6000803e3d6000fd5b505050506040513d601f19601f820116820180604052508101906115829190615300565b6040518060400160405280600781526020017f4c5a313030303800000000000000000000000000000000000000000000000000815250906115d65760405162461bcd60e51b8152600401610c0a9190614b62565b505b60006115e43388610f8f565b91505080156040518060400160405280600781526020017f4c5a3130303130000000000000000000000000000000000000000000000000008152509061163d5760405162461bcd60e51b8152600401610c0a9190614b62565b50846000036116955733600090815260086020908152604080832063ffffffff8b168452909152812080547fffffffffffffffffffffffff000000000000000000000000000000000000000016815560010155611742565b60408051808201909152600781527f4c5a31303030300000000000000000000000000000000000000000000000000060208201524286116116e95760405162461bcd60e51b8152600401610c0a9190614b62565b5033600090815260086020908152604080832063ffffffff8b168452909152902080547fffffffffffffffffffffffff0000000000000000000000000000000000000000166001600160a01b0388161781556001018590555b6040805133815263ffffffff891660208201526001600160a01b038816818301526060810187905290517f661366f82fca66289bddc34462b3ab39d252b761599537d722a632d1bb066b8e9181900360800190a150505050505050565b63ffffffff81166000908152600960205260408120546001600160a01b0316158015906117e9575063ffffffff82166000908152600a60205260409020546001600160a01b031615155b92915050565b6117f7613cb5565b6118016000613d0f565b565b336000908152600c602090815260408083206001600160a01b03881684528252808320868452825291829020548251808401909352600783527f4c5a38303030300000000000000000000000000000000000000000000000000091830191909152156118825760405162461bcd60e51b8152600401610c0a9190614b62565b508181604051611893929190615352565b60408051918290038220336000818152600c60209081528482206001600160a01b038b1683528152848220898352905292909220557f7c0503be82d6ab0d4ea200b69f9930b82aec3c92ed138ed1a28f60cd9c3626db916118fc919087908790879087906153ab565b60405180910390a150505050565b6040805180820190915260008082526020820152831561198457600e5460408051808201909152600781527f4c5a4430303032000000000000000000000000000000000000000000000000006020820152906001600160a01b03166119825760405162461bcd60e51b8152600401610c0a9190614b62565b505b60006119908989612b48565b9050600060405180606001604052808b6001600160a01b031681526020018a63ffffffff16815260200189898080601f01602080910402602001604051908101604052809392919081815260200183838082843760009201919091525050509152506040517f07d7b2f90000000000000000000000000000000000000000000000000000000081529091506001600160a01b038316906307d7b2f990611a409084908a908a908a906004016153de565b6040805180830381865afa158015611a5c573d6000803e3d6000fd5b505050506040513d601f19601f82011682018060405250810190611a809190615489565b9a9950505050505050505050565b60606004805480602002602001604051908101604052809291908181526020018280548015611ae657602002820191906000526020600020905b81546001600160a01b03168152600190910190602001808311611ac8575b5050505050905090565b6000838383604051602001611b0793929190615111565b6040516020818303038152906040529050611b2385338361387c565b507f2d05fd3bd2a2620dfaf6174f2083d54fbfd9106a4ee93c81238ea5a5f731aede8533604051611b55929190615169565b60405180910390a15050505050565b611b6c614751565b611b796020850185614bd1565b336001600d54146040518060400160405280600781526020017f4c5a33303030310000000000000000000000000000000000000000000000000081525090611bd45760405162461bcd60e51b8152600401610c0a9190614b62565b5077ffffffff000000000000000000000000000000000000000060a083901b166001600160a01b03821617600d5533600080611c11838a8a613d77565b91509150611c4a7f0000000000000000000000000000000000000000000000000000000000000000848460400151600001518a85614009565b600e54604083015160200151611c6d916001600160a01b03169085908b85614009565b7fa9c376cdc544fbd06d0cec76dc479eefc52962efcff2355b87cab1333fd352f28260400151604051611ca09190614cde565b60405180910390a1506001600d55979650505050505050565b6000806000611cc88686610f8f565b91509150816001600160a01b0316846001600160a01b031603611cf0576001925050506110c2565b600081611d25576001600160a01b038716600090815260086020908152604080832063ffffffff8a1684529091529020611d3b565b63ffffffff86166000908152600b602052604090205b6040805180820190915281546001600160a01b0390811680835260019093015460208301529092508616148015611d755750428160200151115b15611d8657600193505050506110c2565b5060009695505050505050565b6001600160a01b038316600090815260056020908152604091829020548251808401909352600783527f4c5a3130303031000000000000000000000000000000000000000000000000009183019190915284919060ff16611e075760405162461bcd60e51b8152600401610c0a9190614b62565b506040517fd2d287f00000000000000000000000000000000000000000000000000000000081526001600160a01b0385169063d2d287f090610c5d908690869033906004016150b6565b6001600160a01b038316600090815260016020908152604080832063ffffffff86168452825280832084845290915281205467ffffffffffffffff165b611e9d85858584600101613125565b156110bf57600101611e8e565b611eb2613cb5565b6001600160a01b038216600090815260056020908152604091829020548251808401909352600783527f4c5a3130303031000000000000000000000000000000000000000000000000009183019190915283919060ff16611f265760405162461bcd60e51b8152600401610c0a9190614b62565b5082846001600160a01b03821615612015576040517f6750cd4c00000000000000000000000000000000000000000000000000000000815263ffffffff821660048201526001600160a01b03831690636750cd4c90602401602060405180830381865afa158015611f9b573d6000803e3d6000fd5b505050506040513d601f19601f82011682018060405250810190611fbf9190615300565b6040518060400160405280600781526020017f4c5a313030303800000000000000000000000000000000000000000000000000815250906120135760405162461bcd60e51b8152600401610c0a9190614b62565b505b63ffffffff86166000908152600a6020908152604091829020548251808401909352600783527f4c5a313030303500000000000000000000000000000000000000000000000000918301919091526001600160a01b039081169190871682036120915760405162461bcd60e51b8152600401610c0a9190614b62565b5063ffffffff87166000818152600a602090815260409182902080547fffffffffffffffffffffffff0000000000000000000000000000000000000000166001600160a01b038b8116918217909255835194855290851691840191909152908201527f9914edfad6b7eac2e388f49bae232bd0e1954fbe92f5ed1ab975fc270f27cea59060600160405180910390a184156121d45763ffffffff87166000908152600b6020526040902080547fffffffffffffffffffffffff0000000000000000000000000000000000000000166001600160a01b03831617815561217686426154d4565b600182018190556040805163ffffffff8b1681526001600160a01b0385166020820152908101919091527f55b28633cdb29709386f555dfc54418592ad475ce7a65a78ac5928af60ffb8f8906060015b60405180910390a150612214565b63ffffffff87166000908152600b6020526040812080547fffffffffffffffffffffffff0000000000000000000000000000000000000000168155600101555b50505050505050565b612225613cb5565b6001600160a01b03831661226f576040516001600160a01b0383169082156108fc029083906000818181858888f19350505050158015612269573d6000803e3d6000fd5b50505050565b6122836001600160a01b03841683836140dd565b505050565b6001600160a01b038316600090815260036020908152604080832063ffffffff86168452825280832084845290915281205481906122d19067ffffffffffffffff1660016154e7565b90506122df818686866141a4565b95945050505050565b6122f0613cb5565b6001600160a01b038116600090815260056020908152604091829020548251808401909352600783527f4c5a3130303031000000000000000000000000000000000000000000000000009183019190915282919060ff166123645760405162461bcd60e51b8152600401610c0a9190614b62565b5081836001600160a01b03821615612453576040517f6750cd4c00000000000000000000000000000000000000000000000000000000815263ffffffff821660048201526001600160a01b03831690636750cd4c90602401602060405180830381865afa1580156123d9573d6000803e3d6000fd5b505050506040513d601f19601f820116820180604052508101906123fd9190615300565b6040518060400160405280600781526020017f4c5a313030303800000000000000000000000000000000000000000000000000815250906124515760405162461bcd60e51b8152600401610c0a9190614b62565b505b63ffffffff8516600090815260096020908152604091829020548251808401909352600783527f4c5a313030303500000000000000000000000000000000000000000000000000918301919091526001600160a01b039081169190861682036124cf5760405162461bcd60e51b8152600401610c0a9190614b62565b5063ffffffff861660008181526009602090815260409182902080547fffffffffffffffffffffffff0000000000000000000000000000000000000000166001600160a01b038a169081179091558251938452908301527f16aa0f528038ab41019e95bae5b418a50ba8532c5800e3b7ea2f517d3fa625f591015b60405180910390a1505050505050565b612562614751565b61256f6020850185614bd1565b336001600d54146040518060400160405280600781526020017f4c5a333030303100000000000000000000000000000000000000000000000000815250906125ca5760405162461bcd60e51b8152600401610c0a9190614b62565b5077ffffffff000000000000000000000000000000000000000060a083901b166001600160a01b03821617600d5533600080612607838a8a613d77565b91509150611c4a82604001516000015134838a61425c565b6001600160a01b038416600090815260056020908152604091829020548251808401909352600783527f4c5a3130303031000000000000000000000000000000000000000000000000009183019190915285919060ff166126935760405162461bcd60e51b8152600401610c0a9190614b62565b506040517fb8007ff60000000000000000000000000000000000000000000000000000000081526001600160a01b0386169063b8007ff6906126df903390889088908890600401615508565b600060405180830381600087803b1580156126f957600080fd5b505af115801561270d573d6000803e3d6000fd5b505050505050505050565b6001600160a01b038216600090815260056020526040902054829060ff168061274857506001600160a01b038116155b6040518060400160405280600781526020017f4c5a3130303032000000000000000000000000000000000000000000000000008152509061279c5760405162461bcd60e51b8152600401610c0a9190614b62565b5082846001600160a01b0382161561288b576040517f6750cd4c00000000000000000000000000000000000000000000000000000000815263ffffffff821660048201526001600160a01b03831690636750cd4c90602401602060405180830381865afa158015612811573d6000803e3d6000fd5b505050506040513d601f19601f820116820180604052508101906128359190615300565b6040518060400160405280600781526020017f4c5a313030303800000000000000000000000000000000000000000000000000815250906128895760405162461bcd60e51b8152600401610c0a9190614b62565b505b33600090815260076020818152604080842063ffffffff8b1685528252928390205483518085019094529183527f4c5a313030303500000000000000000000000000000000000000000000000000908301526001600160a01b0390811691908716820361290b5760405162461bcd60e51b8152600401610c0a9190614b62565b5033600081815260076020908152604080832063ffffffff8c168085529083529281902080546001600160a01b038c81167fffffffffffffffffffffffff00000000000000000000000000000000000000009092168217909255825195865292850193909352918416838301526060830152517fc0833c35bb1d0beadca36bed54c7098819e109542a6d233d33c7c2039c8ec9aa9181900360800190a18415612af5576001600160a01b038116158015906129ce57506001600160a01b03861615155b6040518060400160405280600781526020017f4c5a31303031300000000000000000000000000000000000000000000000000081525090612a225760405162461bcd60e51b8152600401610c0a9190614b62565b5060006040518060400160405280836001600160a01b031681526020018742612a4b91906154d4565b905233600081815260086020908152604080832063ffffffff8e1680855290835292819020855181547fffffffffffffffffffffffff0000000000000000000000000000000000000000166001600160a01b039182161782558684015160019092018290558251958652928501939093529086169083015260608201529091507f661366f82fca66289bddc34462b3ab39d252b761599537d722a632d1bb066b8e906080016121c6565b33600090815260086020908152604080832063ffffffff8b168452909152812080547fffffffffffffffffffffffff00000000000000000000000000000000000000001681556001015550505050505050565b6001600160a01b03808316600090815260066020908152604080832063ffffffff8616845290915290205416806117e9575063ffffffff8116600090815260096020908152604091829020548251808401909352600783527f4c5a443030303300000000000000000000000000000000000000000000000000918301919091526001600160a01b03169081612bf05760405162461bcd60e51b8152600401610c0a9190614b62565b5092915050565b6001600160a01b038216600090815260056020908152604091829020548251808401909352600783527f4c5a3130303031000000000000000000000000000000000000000000000000009183019190915283919060ff16612c6b5760405162461bcd60e51b8152600401610c0a9190614b62565b5082846001600160a01b03821615612d5a576040517f6750cd4c00000000000000000000000000000000000000000000000000000000815263ffffffff821660048201526001600160a01b03831690636750cd4c90602401602060405180830381865afa158015612ce0573d6000803e3d6000fd5b505050506040513d601f19601f82011682018060405250810190612d049190615300565b6040518060400160405280600781526020017f4c5a31303030380000000000000000000000000000000000000000000000000081525090612d585760405162461bcd60e51b8152600401610c0a9190614b62565b505b612d62613cb5565b83600003612dae5763ffffffff86166000908152600b6020526040812080547fffffffffffffffffffffffff000000000000000000000000000000000000000016815560010155612e50565b60408051808201909152600781527f4c5a3130303030000000000000000000000000000000000000000000000000006020820152428511612e025760405162461bcd60e51b8152600401610c0a9190614b62565b5063ffffffff86166000908152600b6020526040902080547fffffffffffffffffffffffff0000000000000000000000000000000000000000166001600160a01b0387161781556001018490555b6040805163ffffffff881681526001600160a01b03871660208201529081018590527f55b28633cdb29709386f555dfc54418592ad475ce7a65a78ac5928af60ffb8f89060600161254a565b6001600160a01b038116600090815260056020526040902054819060ff1680612ecc57506001600160a01b038116155b6040518060400160405280600781526020017f4c5a31303030320000000000000000000000000000000000000000000000000081525090612f205760405162461bcd60e51b8152600401610c0a9190614b62565b5081836001600160a01b0382161561300f576040517f6750cd4c00000000000000000000000000000000000000000000000000000000815263ffffffff821660048201526001600160a01b03831690636750cd4c90602401602060405180830381865afa158015612f95573d6000803e3d6000fd5b505050506040513d601f19601f82011682018060405250810190612fb99190615300565b6040518060400160405280600781526020017f4c5a3130303038000000000000000000000000000000000000000000000000008152509061300d5760405162461bcd60e51b8152600401610c0a9190614b62565b505b33600090815260066020908152604080832063ffffffff89168452825291829020548251808401909352600783527f4c5a313030303500000000000000000000000000000000000000000000000000918301919091526001600160a01b039081169190861682036130935760405162461bcd60e51b8152600401610c0a9190614b62565b5033600081815260066020908152604080832063ffffffff8b168085529083529281902080547fffffffffffffffffffffffff0000000000000000000000000000000000000000166001600160a01b038b16908117909155815194855291840192909252908201527f4cff966ebee29a156dcb34cf72c1d06231fb1777f6bdf6e8089819232f002b1c9060600161254a565b6001600160a01b038416600090815260026020908152604080832063ffffffff871684528252808320858452825280832067ffffffffffffffff8516845290915290205415155b949350505050565b61317c613cb5565b6040517f01ffc9a70000000000000000000000000000000000000000000000000000000081527fd913d0cd0000000000000000000000000000000000000000000000000000000060048201526001600160a01b038216906301ffc9a790602401602060405180830381865afa1580156131f9573d6000803e3d6000fd5b505050506040513d601f19601f8201168201806040525081019061321d9190615300565b6040518060400160405280600781526020017f4c5a433030303100000000000000000000000000000000000000000000000000815250906132715760405162461bcd60e51b8152600401610c0a9190614b62565b506001600160a01b038116600090815260056020908152604091829020548251808401909352600783527f4c5a3830303030000000000000000000000000000000000000000000000000009183019190915260ff16156132e45760405162461bcd60e51b8152600401610c0a9190614b62565b506001600160a01b038116600081815260056020908152604080832080547fffffffffffffffffffffffffffffffffffffffffffffffffffffffffffffff001660019081179091556004805491820181559093527f8a35acfbc15ff81a39ae7d344fd709f28e8600b4aa8c65c6b64bfe7fe36bd19b90920180547fffffffffffffffffffffffff0000000000000000000000000000000000000000168417905590519182527f6b374d56679ca9463f27c85c6311e2bb7fde69bf201d3da39d53f10bd9d78af5910161146a565b6133bc338484611e51565b6133c79060016154e7565b67ffffffffffffffff168167ffffffffffffffff16146040518060400160405280600781526020017f4c5a313030303400000000000000000000000000000000000000000000000000815250906134315760405162461bcd60e51b8152600401610c0a9190614b62565b5033600081815260016020908152604080832063ffffffff881680855290835281842087855283529281902080547fffffffffffffffffffffffffffffffffffffffffffffffff00000000000000001667ffffffffffffffff8716908117909155815193845291830186905282019290925260608101919091527f28f40053783033ef755556a0c3315379141f51a33aed8334174ffbadd90bde48906080016111d2565b6134dd613cb5565b6001600160a01b0381166135595760405162461bcd60e51b815260206004820152602660248201527f4f776e61626c653a206e6577206f776e657220697320746865207a65726f206160448201527f64647265737300000000000000000000000000000000000000000000000000006064820152608401610c0a565b61356281613d0f565b50565b6001600160a01b038088166000908152600c60209081526040808320938a168352928152828220888352905281812054915190916060916135a99088908890615352565b60408051918290038220828201909152600782527f4c5a363030303000000000000000000000000000000000000000000000000000602083015282146136025760405162461bcd60e51b8152600401610c0a9190614b62565b506001600160a01b03808b166000908152600c60209081526040808320938d1683529281528282208b835290528181206001905590517fd0a102600000000000000000000000000000000000000000000000000000000090613674908d908c908c908c9033908d908d9060240161564e565b604080517fffffffffffffffffffffffffffffffffffffffffffffffffffffffffffffffe08184030181529190526020810180517bffffffffffffffffffffffffffffffffffffffffffffffffffffffff167fffffffff000000000000000000000000000000000000000000000000000000009093169290921790915290506137095a6001600160a01b038c169034846144a0565b909450925050821561376a57604080516001600160a01b03808d1682528b166020820152908101899052606081018290523360808201527fe8de892dbb4fd705fc4c154fd784700f6f24789e8ffea6922947d082606887949060a001610d16565b6001600160a01b03808b166000908152600c60209081526040808320938d1683529281528282208b8352905220819055341561384357604051600090339034908381818185875af1925050503d80600081146137e2576040519150601f19603f3d011682016040523d82523d6000602084013e6137e7565b606091505b50509050806040518060400160405280600781526020017f4c5a333030303000000000000000000000000000000000000000000000000000815250906138405760405162461bcd60e51b8152600401610c0a9190614b62565b50505b7f8054fc0b1a2df897569746b52a49553918b57ffcedcd0a35f0e8553d5ebba6768a8a8a843387604051610e0a969594939291906156a2565b60008061388c6020860186614bd1565b9050602085013560006138a560608801604089016156ee565b6001600160a01b038716600090815260016020908152604080832063ffffffff88168452825280832086845290915290205490915067ffffffffffffffff9081169082168110156139de57600181015b8267ffffffffffffffff168167ffffffffffffffff16116139795761391c88868684613125565b6040518060400160405280600781526020017f4c5a313030303400000000000000000000000000000000000000000000000000815250906139705760405162461bcd60e51b8152600401610c0a9190614b62565b506001016138f5565b506001600160a01b038716600090815260016020908152604080832063ffffffff881684528252808320868452909152902080547fffffffffffffffffffffffffffffffffffffffffffffffff00000000000000001667ffffffffffffffff84161790555b85516020808801919091206001600160a01b038916600090815260028352604080822063ffffffff891683528452808220878352845280822067ffffffffffffffff87168352845290819020548151808301909252600782527f4c5a36303030300000000000000000000000000000000000000000000000000093820193909352909650818714613a825760405162461bcd60e51b8152600401610c0a9190614b62565b5050506001600160a01b03909516600090815260026020908152604080832063ffffffff909516835293815283822092825291825282812067ffffffffffffffff909616815294905283209290925550919050565b6000606060006313137d6560e01b8a898989338a8a604051602401613b02979695949392919061570b565b604080517fffffffffffffffffffffffffffffffffffffffffffffffffffffffffffffffe08184030181529190526020810180517bffffffffffffffffffffffffffffffffffffffffffffffffffffffff167fffffffff00000000000000000000000000000000000000000000000000000000909316929092179091529050613b975a6001600160a01b038b169034846144a0565b909b909a5098505050505050505050565b6001600160a01b0382166000908152600260209081526040822083929091613bd290870187614bd1565b63ffffffff1663ffffffff1681526020019081526020016000206000856020013581526020019081526020016000206000856040016020810190613c1691906156ee565b67ffffffffffffffff168152602081019190915260400160002055505050565b6001600160a01b03811660009081526001602090815260408220908290613c5f90860186614bd1565b63ffffffff16815260208082019290925260409081016000908120868401358252909252908190205467ffffffffffffffff1690613ca390606086019086016156ee565b67ffffffffffffffff16119392505050565b6000546001600160a01b031633146118015760405162461bcd60e51b815260206004820181905260248201527f4f776e61626c653a2063616c6c6572206973206e6f7420746865206f776e65726044820152606401610c0a565b600080546001600160a01b038381167fffffffffffffffffffffffff0000000000000000000000000000000000000000831681178455604051919092169283917f8be0079c531659141344cd1fd0a4f28419497f9722a3daafe3b4186f6b6457e09190a35050565b613d7f614751565b600080613e0886613d936020880188614bd1565b6001600160a01b0391909116600090815260036020908152604080832063ffffffff949094168352928152828220818a0135835290522080547fffffffffffffffffffffffffffffffffffffffffffffffff00000000000000008116600167ffffffffffffffff928316019182161790915590565b90506000613e1d876109466020890189614bd1565b905060006040518060e001604052808467ffffffffffffffff1681526020017f000000000000000000000000000000000000000000000000000000000000000063ffffffff168152602001896001600160a01b03168152602001886000016020810190613e8a9190614bd1565b63ffffffff16815260200188602001358152602001613ec1858b8b6000016020810190613eb79190614bd1565b8c602001356141a4565b8152602001613ed360408a018a615754565b8080601f016020809104026020016040519081016040528093929190818152602001838380828437600092018290525093909452509293508815159250905080806001600160a01b038616634389e58f86613f3160608f018f615754565b886040518563ffffffff1660e01b8152600401613f5194939291906157b9565b6000604051808303816000875af1158015613f70573d6000803e3d6000fd5b505050506040513d6000823e601f3d9081017fffffffffffffffffffffffffffffffffffffffffffffffffffffffffffffffe0168201604052613fb69190810190615861565b9250925092507f1ab700d4ced0c005b164c0f789fd09fcbb0156d4c2041b8a3bfbcd961cd1567f828288604051613fef93929190615929565b60405180910390a150909a93995092975050505050505050565b82156140d65760408051808201909152600781527f4c5a44303030320000000000000000000000000000000000000000000000000060208201526001600160a01b03861661406a5760405162461bcd60e51b8152600401610c0a9190614b62565b5060408051808201909152600781527f4c5a3130303033000000000000000000000000000000000000000000000000006020820152828411156140c05760405162461bcd60e51b8152600401610c0a9190614b62565b506140d66001600160a01b038616858386614505565b5050505050565b6040516001600160a01b0383166024820152604481018290526122839084907fa9059cbb00000000000000000000000000000000000000000000000000000000906064015b604080517fffffffffffffffffffffffffffffffffffffffffffffffffffffffffffffffe08184030181529190526020810180517bffffffffffffffffffffffffffffffffffffffffffffffffffffffff167fffffffff0000000000000000000000000000000000000000000000000000000090931692909217909152614556565b604080517fffffffff000000000000000000000000000000000000000000000000000000007f000000000000000000000000000000000000000000000000000000000000000060e090811b821660208401526001600160a01b038716602484015285901b166044820152604880820184905282518083039091018152606882019092526000919061423b9087908390608801615968565b60405160208183030381529060405280519060200120915050949350505050565b60408051808201909152600781527f4c5a44303030310000000000000000000000000000000000000000000000000060208201527f00000000000000000000000000000000000000000000000000000000000000006001600160a01b0316156142d85760405162461bcd60e51b8152600401610c0a9190614b62565b5060408051808201909152600781527f4c5a31303030330000000000000000000000000000000000000000000000000060208201528385111561432e5760405162461bcd60e51b8152600401610c0a9190614b62565b5083156143e3576000826001600160a01b03168560405160006040518083038185875af1925050503d8060008114614382576040519150601f19603f3d011682016040523d82523d6000602084013e614387565b606091505b50509050806040518060400160405280600781526020017f4c5a333030303000000000000000000000000000000000000000000000000000815250906143e05760405162461bcd60e51b8152600401610c0a9190614b62565b50505b82841015612269576000816001600160a01b031685850360405160006040518083038185875af1925050503d806000811461443a576040519150601f19603f3d011682016040523d82523d6000602084013e61443f565b606091505b50509050806040518060400160405280600781526020017f4c5a333030303000000000000000000000000000000000000000000000000000815250906144985760405162461bcd60e51b8152600401610c0a9190614b62565b505050505050565b60408051606480825260a0820190925260009160609183918291829082602082018180368337019050509050600080885160208a018b8e8ef192503d9350818411156144ea578193505b838152836000602083013e9199919850909650505050505050565b6040516001600160a01b03808516602483015283166044820152606481018290526122699085907f23b872dd0000000000000000000000000000000000000000000000000000000090608401614122565b60006145ab826040518060400160405280602081526020017f5361666545524332303a206c6f772d6c6576656c2063616c6c206661696c6564815250856001600160a01b031661463e9092919063ffffffff16565b90508051600014806145cc5750808060200190518101906145cc9190615300565b6122835760405162461bcd60e51b815260206004820152602a60248201527f5361666545524332303a204552433230206f7065726174696f6e20646964206e60448201527f6f742073756363656564000000000000000000000000000000000000000000006064820152608401610c0a565b60606110bf848460008585600080866001600160a01b0316858760405161466591906159b3565b60006040518083038185875af1925050503d80600081146146a2576040519150601f19603f3d011682016040523d82523d6000602084013e6146a7565b606091505b50915091506113f5878383876060831561472257825160000361471b576001600160a01b0385163b61471b5760405162461bcd60e51b815260206004820152601d60248201527f416464726573733a2063616c6c20746f206e6f6e2d636f6e74726163740000006044820152606401610c0a565b508161316c565b61316c83838151156147375781518083602001fd5b8060405162461bcd60e51b8152600401610c0a9190614b62565b604051806060016040528060008019168152602001600067ffffffffffffffff168152602001614794604051806040016040528060008152602001600081525090565b905290565b6001600160a01b038116811461356257600080fd5b60008083601f8401126147c057600080fd5b50813567ffffffffffffffff8111156147d857600080fd5b6020830191508360208260051b850101111561104057600080fd5b60008060006040848603121561480857600080fd5b833561481381614799565b9250602084013567ffffffffffffffff81111561482f57600080fd5b61483b868287016147ae565b9497909650939450505050565b60006060828403121561485a57600080fd5b50919050565b60008083601f84011261487257600080fd5b50813567ffffffffffffffff81111561488a57600080fd5b60208301915083602082850101111561104057600080fd5b600080600080600080600060e0888a0312156148bd57600080fd5b6148c78989614848565b965060608801356148d781614799565b95506080880135945060a088013567ffffffffffffffff808211156148fb57600080fd5b6149078b838c01614860565b909650945060c08a013591508082111561492057600080fd5b5061492d8a828b01614860565b989b979a50959850939692959293505050565b60005b8381101561495b578181015183820152602001614943565b50506000910152565b6000815180845261497c816020860160208601614940565b601f017fffffffffffffffffffffffffffffffffffffffffffffffffffffffffffffffe0169290920160200192915050565b82151581526040602082015260006110bf6040830184614964565b803563ffffffff811681146149dd57600080fd5b919050565b600080600080608085870312156149f857600080fd5b8435614a0381614799565b93506020850135614a1381614799565b9250614a21604086016149c9565b9150614a2f606086016149c9565b905092959194509250565b604081526000614a4d6040830185614964565b905082151560208301529392505050565b60008060408385031215614a7157600080fd5b8235614a7c81614799565b9150614a8a602084016149c9565b90509250929050565b600080600060a08486031215614aa857600080fd5b614ab28585614848565b92506060840135614ac281614799565b91506080840135614ad281614799565b809150509250925092565b600080600060a08486031215614af257600080fd5b614afc8585614848565b92506060840135614b0c81614799565b929592945050506080919091013590565b600080600060608486031215614b3257600080fd5b8335614b3d81614799565b9250614b4b602085016149c9565b9150614b59604085016149c9565b90509250925092565b6020815260006110c26020830184614964565b600060208284031215614b8757600080fd5b81356110c281614799565b600080600060608486031215614ba757600080fd5b614bb0846149c9565b92506020840135614bc081614799565b929592945050506040919091013590565b600060208284031215614be357600080fd5b6110c2826149c9565b60008060008060608587031215614c0257600080fd5b8435614c0d81614799565b935060208501359250604085013567ffffffffffffffff811115614c3057600080fd5b614c3c87828801614860565b95989497509550505050565b801515811461356257600080fd5b600080600080600080600060a0888a031215614c7157600080fd5b8735614c7c81614799565b9650614c8a602089016149c9565b9550604088013567ffffffffffffffff80821115614ca757600080fd5b614cb38b838c01614860565b909750955060608a01359150614cc882614c48565b9093506080890135908082111561492057600080fd5b8151815260208083015190820152604081016117e9565b6020808252825182820181905260009190848201906040850190845b81811015614d365783516001600160a01b031683529284019291840191600101614d11565b50909695505050505050565b60008060008060a08587031215614d5857600080fd5b614d628686614848565b935060608501359250608085013567ffffffffffffffff811115614c3057600080fd5b60006080828403121561485a57600080fd5b600080600060608486031215614dac57600080fd5b833567ffffffffffffffff811115614dc357600080fd5b614dcf86828701614d85565b9660208601359650604090950135949350505050565b60006080820190508251825267ffffffffffffffff60208401511660208301526040830151612bf0604084018280518252602090810151910152565b600080600060608486031215614e3657600080fd5b8335614e4181614799565b9250614e4f602085016149c9565b9150604084013590509250925092565b600080600060608486031215614e7457600080fd5b8335614bb081614799565b600080600060608486031215614e9457600080fd5b8335614e9f81614799565b9250614ead602085016149c9565b91506040840135614ad281614799565b60008060408385031215614ed057600080fd5b614ed9836149c9565b91506020830135614ee981614799565b809150509250929050565b600080600060608486031215614f0957600080fd5b833567ffffffffffffffff811115614f2057600080fd5b614f2c86828701614d85565b935050602084013591506040840135614ad281614799565b60008060008060608587031215614f5a57600080fd5b8435614f6581614799565b9350614f73602086016149c9565b9250604085013567ffffffffffffffff811115614f8f57600080fd5b614c3c878288016147ae565b67ffffffffffffffff8116811461356257600080fd5b60008060008060808587031215614fc757600080fd5b8435614fd281614799565b9350614fe0602086016149c9565b9250604085013591506060850135614ff781614f9b565b939692955090935050565b60008060006060848603121561501757600080fd5b615020846149c9565b9250602084013591506040840135614ad281614f9b565b600080600080600080600060a0888a03121561505257600080fd5b873561505d81614799565b9650602088013561506d81614799565b955060408801359450606088013567ffffffffffffffff8082111561509157600080fd5b61509d8b838c01614860565b909650945060808a013591508082111561492057600080fd5b6040808252810183905260008460608301825b868110156150f45763ffffffff6150df846149c9565b168252602092830192909101906001016150c9565b5080925050506001600160a01b0383166020830152949350505050565b838152818360208301376000910160200190815292915050565b63ffffffff615139826149c9565b16825260208101356020830152604081013561515481614f9b565b67ffffffffffffffff81166040840152505050565b60808101615177828561512b565b6001600160a01b03831660608301529392505050565b615197818561512b565b6001600160a01b038316606082015260a0608082015260006122df60a0830184614964565b7f4e487b7100000000000000000000000000000000000000000000000000000000600052604160045260246000fd5b600082601f8301126151fc57600080fd5b815167ffffffffffffffff80821115615217576152176151bc565b604051601f83017fffffffffffffffffffffffffffffffffffffffffffffffffffffffffffffffe0908116603f0116810190828211818310171561525d5761525d6151bc565b8160405283815286602085880101111561527657600080fd5b615287846020830160208901614940565b9695505050505050565b600080604083850312156152a457600080fd5b825167ffffffffffffffff8111156152bb57600080fd5b6152c7858286016151eb565b9250506020830151614ee981614c48565b60a081016152e6828661512b565b6001600160a01b0393909316606082015260800152919050565b60006020828403121561531257600080fd5b81516110c281614c48565b60006020828403121561532f57600080fd5b815167ffffffffffffffff81111561534657600080fd5b61316c848285016151eb565b8183823760009101908152919050565b8183528181602085013750600060208284010152600060207fffffffffffffffffffffffffffffffffffffffffffffffffffffffffffffffe0601f840116840101905092915050565b60006001600160a01b038088168352808716602084015250846040830152608060608301526113f5608083018486615362565b606081526001600160a01b03855116606082015263ffffffff602086015116608082015260006040860151606060a084015261541d60c0840182614964565b9050851515602084015282810360408401526113f5818587615362565b60006040828403121561544c57600080fd5b6040516040810181811067ffffffffffffffff8211171561546f5761546f6151bc565b604052825181526020928301519281019290925250919050565b60006040828403121561549b57600080fd5b6110c2838361543a565b7f4e487b7100000000000000000000000000000000000000000000000000000000600052601160045260246000fd5b808201808211156117e9576117e96154a5565b67ffffffffffffffff818116838216019080821115612bf057612bf06154a5565b6000606082016001600160a01b0387168352602063ffffffff8088168286015260406060818701528387855260808701905060808860051b88010194508860005b8981101561563d577fffffffffffffffffffffffffffffffffffffffffffffffffffffffffffffff8089880301835281357fffffffffffffffffffffffffffffffffffffffffffffffffffffffffffffffc18c36030181126155aa57600080fd5b8b01856155b6826149c9565b168852868101357fffffffffffffffffffffffffffffffffffffffffffffffffffffffffffffffe18236030181126155ed57600080fd5b01868101903567ffffffffffffffff81111561560857600080fd5b80360382131561561757600080fd5b85888a0152615629868a018284615362565b985050509185019190850190600101615549565b50949b9a5050505050505050505050565b60006001600160a01b03808a16835288602084015260a0604084015261567860a08401888a615362565b81871660608501528381036080850152615693818688615362565b9b9a5050505050505050505050565b60006001600160a01b038089168352808816602084015286604084015285606084015280851660808401525060c060a08301526156e260c0830184614964565b98975050505050505050565b60006020828403121561570057600080fd5b81356110c281614f9b565b615715818961512b565b86606082015260e06080820152600061573260e083018789615362565b6001600160a01b03861660a084015282810360c0840152611a80818587615362565b60008083357fffffffffffffffffffffffffffffffffffffffffffffffffffffffffffffffe184360301811261578957600080fd5b83018035915067ffffffffffffffff8211156157a457600080fd5b60200191503681900382131561104057600080fd5b6060815267ffffffffffffffff855116606082015263ffffffff60208601511660808201526001600160a01b0360408601511660a08201526000606086015161580a60c084018263ffffffff169052565b50608086015160e083015260a086015161010083015260c086015160e061012084015261583b610140840182614964565b90508281036020840152615850818688615362565b9150506122df604083018415159052565b600080600083850360c081121561587757600080fd5b608081121561588557600080fd5b506040516060810167ffffffffffffffff82821081831117156158aa576158aa6151bc565b8160405286518352602087015191506158c282614f9b565b8160208401526158d5886040890161543a565b60408401526080870151929550808311156158ef57600080fd5b6158fb888489016151eb565b945060a087015192508083111561591157600080fd5b505061591f868287016151eb565b9150509250925092565b60608152600061593c6060830186614964565b828103602084015261594e8186614964565b9150506001600160a01b0383166040830152949350505050565b7fffffffffffffffff0000000000000000000000000000000000000000000000008360c01b168152600082516159a5816008850160208701614940565b919091016008019392505050565b600082516159c5818460208701614940565b919091019291505056fea2646970667358221220af5a3fb6743a4933687c3a6cc5d20e4bdb03f715c813cfdcb754d94d2d678e6664736f6c63430008130033",
  "devdoc": {
    "kind": "dev",
    "methods": {
      "clear((uint32,bytes32,uint64),bytes32,bytes)": {
        "details": "Oapp uses this interface to clear a message.this is a PULL mode versus the PUSH mode of lzReceivethe cleared message can be ignored by the app (effectively burnt)cant reentrant because the payload is cleared before executionauthenticated by Oapp (msg.sender)",
        "params": {
          "_guid": "the guid of the message",
          "_message": "the message",
          "_origin": "the origin of the message"
        }
      },
      "deliver((uint32,bytes32,uint64),address,bytes32)": {
        "details": "MESSAGING STEP 2 - on the destination chainreceives a message from the configured receive library",
        "params": {
          "_origin": "the origin of the message",
          "_payloadHash": "the payload hash of the message",
          "_receiver": "the receiver of the message"
        }
      },
      "deliverComposedMessage(address,bytes32,bytes)": {
        "details": "the Oapp delivers the lzCompose message to the endpointthe composer MUST assert the sender because anyone can delivery msg with this functionwith the same GUID, the Oapp can deliver to multiple _composer at the same timeauthenticated by the msg.sender",
        "params": {
          "_composer": "the composer address",
          "_guid": "the message guid",
          "_message": "the message"
        }
      },
      "deliverable((uint32,bytes32,uint64),address,address)": {
        "details": "check if a message is deliverable.reverts if the receiveLibrary is not valid",
        "returns": {
          "_0": "reverts if the msglib check fails. returns true if the message is deliverable. false if it has been delivered"
        }
      },
      "getConfig(address,address,uint32,uint32)": {
        "details": "a view function to query the current configuration of the oapp"
      },
      "getReceiveLibrary(address,uint32)": {
        "details": "the receiveLibrary can be lazily resolved that if not set it will point to the default configured by LayerZero"
      },
      "getSendContext()": {
        "details": "returns (eid, sender) if sending message, (0, 0) otherwise"
      },
      "getSendLibrary(address,uint32)": {
        "details": "the sendLibrary can be lazily resolved that if not set it will point to the default configured by LayerZero"
      },
      "hasPayloadHash(address,uint32,bytes32,uint64)": {
        "details": "simply checking if the storage slot is not initialized. assuming the payload can be not hashed to 0"
      },
      "inboundNonce(address,uint32,bytes32)": {
        "details": "returns the effective inbound nonce which has all its prior messages deliveredit starts from the lazyInboundNonce (last checkpoint) and iteratively check if the next nonce has been deliveredin extreme cases where there are a lot of messages, this function can OOG. but it can be trivially fixed by just clearing some prior messagesif the app can not receive any of the queued message, the app is most likely broken"
      },
      "isSendingMessage()": {
        "details": "returns true if sending message"
      },
      "isSupportedEid(uint32)": {
        "details": "returns true only if both the default send/receive libraries are set"
      },
      "isValidReceiveLibrary(address,uint32,address)": {
        "details": "called when the endpoint checks if the msglib attempting to delever the msg is the configured msglib of the Oappthis check provides the ability for Oapp to lock in a trusted msglibit will fist check if the msglib is the currently configured one. then check if the msglib is the one in grace period of msglib versioning upgrade"
      },
      "lzCompose(address,address,bytes32,bytes,bytes)": {
        "details": "execute a composed messages from the sender to the composer (receiver)the execution provides the execution context (caller, extraData) to the receiver. the receiver can optionally assert the caller and validate the untrusted extraDatacan not re-entrant",
        "params": {
          "_composer": "the composer address",
          "_extraData": "the extra data provided by the executor. this data is untrusted and should be validated.",
          "_guid": "the message guid",
          "_message": "the message",
          "_sender": "the sender address. in most cases, it is the Oapp's address."
        }
      },
      "lzReceive((uint32,bytes32,uint64),address,bytes32,bytes,bytes)": {
        "details": "MESSAGING STEP 3 - the last stepexecute a delivered message to the designated receiverthe execution provides the execution context (caller, extraData) to the receiver. the receiver can optionally assert the caller and validate the untrusted extraDatacant reentrant because the payload is cleared before execution",
        "params": {
          "_extraData": "the extra data provided by the executor. this data is untrusted and should be validated.",
          "_guid": "the guid of the message",
          "_message": "the message",
          "_origin": "the origin of the message",
          "_receiver": "the receiver of the message"
        }
      },
      "nextGuid(address,uint32,bytes32)": {
        "details": "returns the GUID for the next message given the paththe Oapp might want to include the GUID into the message in some cases"
      },
      "owner()": {
        "details": "Returns the address of the current owner."
      },
      "quote(address,uint32,bytes,bool,bytes)": {
        "details": "MESSAGING STEP 0quotes the messaging fee given the parameters",
        "params": {
          "_dstEid": "the destination endpoint id",
          "_message": "the message to be sent",
          "_options": "the messaging options to be used (e.g. lzReceive gas limit, etc)",
          "_payInLzToken": "whether the protocol fee should be paid in lz token or not",
          "_sender": "the sender of the message"
        },
        "returns": {
          "_0": "native fee and lz token fee. if altFeeToken is enalbed, the native fee is in the form of the altFeeToken"
        }
      },
      "recoverToken(address,address,uint256)": {
        "details": "recover the token sent to this contract by mistakeonly owner",
        "params": {
          "_amount": "the amount to send",
          "_to": "the address to send the token to",
          "_token": "the token to recover. if 0x0 then it is native token"
        }
      },
      "registerLibrary(address)": {
        "details": "all libraries have to implement the erc165 interface to prevent wrong configurationsonly owner"
      },
      "renounceOwnership()": {
        "details": "Leaves the contract without owner. It will not be possible to call `onlyOwner` functions. Can only be called by the current owner. NOTE: Renouncing ownership will leave the contract without an owner, thereby disabling any functionality that is only available to the owner."
      },
      "resetConfig(address,uint32[])": {
        "details": "setting the Oapp's configuration to the default configurations of the provided eidsalmost like the reverse action to snapshotConfig()authenticated by the msg.sender"
      },
      "send((uint32,bytes32,bytes,bytes),uint256,address)": {
        "details": "MESSAGING STEP 1 - on chains with altFeeToken disabledsame as sendWithAlt but only accepts native tokens",
        "params": {
          "_lzTokenFeeCap": "the maximum lz token fee that the sender is willing to pay",
          "_params": "the messaging parameters",
          "_refundAddress": "the address to refund the native fee to"
        }
      },
      "sendWithAlt((uint32,bytes32,bytes,bytes),uint256,uint256)": {
        "details": "MESSAGING STEP 1 - on chains with altFeeToken enabledsends a message with the given parametersprotected by send non-enentrancy guardthe endpoint will settle the payment from the sender to the sendLibrary, which then settles the payment to the eventual receiverthis design provides a saparation of concern and users only need to approve endpoint instead of messaging libraries",
        "params": {
          "_altTokenFeeCap": "the maximum alt token fee that the sender is willing to pay",
          "_lzTokenFeeCap": "the maximum lz token fee that the sender is willing to pay",
          "_params": "the messaging parameters"
        },
        "returns": {
          "_0": "the messaging receipt, which includes the message guid, nonce and fee"
        }
      },
      "setConfig(address,uint32,(uint32,bytes)[])": {
        "details": "authenticated by the msg.sender"
      },
      "setDefaultReceiveLibrary(uint32,address,uint256)": {
        "details": "owner setting the defaultSendLibrarymust be a registered library (including blockLibrary) with the eid support enabledin version migration, it can add a grace period to the old library. if the grace period is 0, it will delete the timeout configuration.only owner"
      },
      "setDefaultReceiveLibraryTimeout(uint32,address,uint256)": {
        "details": "owner setting the defaultSendLibrarymust be a registered library (including blockLibrary) with the eid support enabledcan used to (1) extend the current configuration (2)  force remove the current configuration (3) change to a new configuration"
      },
      "setDefaultSendLibrary(uint32,address)": {
        "details": "owner setting the defaultSendLibrarycan set to the blockedLibrary, which is a registered librarythe msglib must enable the support before they can be registered to the endpoint as the defaultonly owner"
      },
      "setLayerZeroToken(address)": {
        "details": "allows reconfiguration to recover from wrong configurationsusers should never approve the EndpointV2 contract to spend their non-layerzero tokensonly owner",
        "params": {
          "_layerZeroToken": "the new layer zero token address"
        }
      },
      "setReceiveLibrary(uint32,address,uint256)": {
        "details": "Oapp setting the receiveLibrarymust be a registered library (including blockLibrary) with the eid support enabledin version migration, it can add a grace period to the old library. if the grace period is 0, it will delete the timeout configuration.authenticated by the Oapp"
      },
      "setReceiveLibraryTimeout(uint32,address,uint256)": {
        "details": "Oapp setting the defaultSendLibrarymust be a registered library (including blockLibrary) with the eid support enabledcan used to (1) extend the current configuration (2)  force remove the current configuration (3) change to a new configuration"
      },
      "setSendLibrary(uint32,address)": {
        "details": "Oapp setting the sendLibrarymust be a registered library (including blockLibrary) with the eid support enabledauthenticated by the Oapp"
      },
      "skip(uint32,bytes32,uint64)": {
        "details": "the caller must provide _nonce to prevent skipping the unintended nonceit could happen in some race conditions, e.g. intent to skip nonce 3, but nonce 3 was consumed before this transaction was included in the blockNOTE: only allows skipping the next of the effective inbound nonce (from the inboundNonce() function). if the Oapp wants to skips a delivered message, it should call the clear() function and ignore the payload insteadafter skipping the lazyInboundNonce is set to the provided nonce, which makes the inboundNonce also the provided nonce"
      },
      "snapshotConfig(address,uint32[])": {
        "details": "lock-in the current configuration of the provided eids to the Oapp , e.g. copying the default configuration.it allows the Oapp to be not affected by Default configuration changes.authenticated by the msg.sender"
      },
      "transferOwnership(address)": {
        "details": "Transfers ownership of the contract to a new account (`newOwner`). Can only be called by the current owner."
      }
    },
    "stateVariables": {
      "altFeeToken": {
        "details": "the altFeeToken is used for fees when the native token has no valueimmutable for gas saving. only 1 endpoint for such chains"
      }
    },
    "version": 1
  },
  "userdoc": {
    "kind": "user",
    "methods": {},
    "version": 1
  },
  "storageLayout": {
    "storage": [
      {
        "astId": 7,
        "contract": "contracts/EndpointV2.sol:EndpointV2",
        "label": "_owner",
        "offset": 0,
        "slot": "0",
        "type": "t_address"
      },
      {
        "astId": 2712,
        "contract": "contracts/EndpointV2.sol:EndpointV2",
        "label": "lazyInboundNonce",
        "offset": 0,
        "slot": "1",
        "type": "t_mapping(t_address,t_mapping(t_uint32,t_mapping(t_bytes32,t_uint64)))"
      },
      {
        "astId": 2722,
        "contract": "contracts/EndpointV2.sol:EndpointV2",
        "label": "inboundPayloadHash",
        "offset": 0,
        "slot": "2",
        "type": "t_mapping(t_address,t_mapping(t_uint32,t_mapping(t_bytes32,t_mapping(t_uint64,t_bytes32))))"
      },
      {
        "astId": 2730,
        "contract": "contracts/EndpointV2.sol:EndpointV2",
        "label": "outboundNonce",
        "offset": 0,
        "slot": "3",
        "type": "t_mapping(t_address,t_mapping(t_uint32,t_mapping(t_bytes32,t_uint64)))"
      },
      {
        "astId": 1776,
        "contract": "contracts/EndpointV2.sol:EndpointV2",
        "label": "registeredLibraries",
        "offset": 0,
        "slot": "4",
        "type": "t_array(t_address)dyn_storage"
      },
      {
        "astId": 1780,
        "contract": "contracts/EndpointV2.sol:EndpointV2",
        "label": "isRegisteredLibrary",
        "offset": 0,
        "slot": "5",
        "type": "t_mapping(t_address,t_bool)"
      },
      {
        "astId": 1786,
        "contract": "contracts/EndpointV2.sol:EndpointV2",
        "label": "sendLibrary",
        "offset": 0,
        "slot": "6",
        "type": "t_mapping(t_address,t_mapping(t_uint32,t_address))"
      },
      {
        "astId": 1792,
        "contract": "contracts/EndpointV2.sol:EndpointV2",
        "label": "receiveLibrary",
        "offset": 0,
        "slot": "7",
        "type": "t_mapping(t_address,t_mapping(t_uint32,t_address))"
      },
      {
        "astId": 1799,
        "contract": "contracts/EndpointV2.sol:EndpointV2",
        "label": "receiveLibraryTimeout",
        "offset": 0,
        "slot": "8",
        "type": "t_mapping(t_address,t_mapping(t_uint32,t_struct(Timeout)3799_storage))"
      },
      {
        "astId": 1803,
        "contract": "contracts/EndpointV2.sol:EndpointV2",
        "label": "defaultSendLibrary",
        "offset": 0,
        "slot": "9",
        "type": "t_mapping(t_uint32,t_address)"
      },
      {
        "astId": 1807,
        "contract": "contracts/EndpointV2.sol:EndpointV2",
        "label": "defaultReceiveLibrary",
        "offset": 0,
        "slot": "10",
        "type": "t_mapping(t_uint32,t_address)"
      },
      {
        "astId": 1812,
        "contract": "contracts/EndpointV2.sol:EndpointV2",
        "label": "defaultReceiveLibraryTimeout",
        "offset": 0,
        "slot": "11",
        "type": "t_mapping(t_uint32,t_struct(Timeout)3799_storage)"
      },
      {
        "astId": 3151,
        "contract": "contracts/EndpointV2.sol:EndpointV2",
        "label": "composedMessages",
        "offset": 0,
        "slot": "12",
        "type": "t_mapping(t_address,t_mapping(t_address,t_mapping(t_bytes32,t_bytes32)))"
      },
      {
        "astId": 3346,
        "contract": "contracts/EndpointV2.sol:EndpointV2",
        "label": "_sendContext",
        "offset": 0,
        "slot": "13",
        "type": "t_uint256"
      },
      {
        "astId": 1024,
        "contract": "contracts/EndpointV2.sol:EndpointV2",
        "label": "layerZeroToken",
        "offset": 0,
        "slot": "14",
        "type": "t_address"
      }
    ],
    "types": {
      "t_address": {
        "encoding": "inplace",
        "label": "address",
        "numberOfBytes": "20"
      },
      "t_array(t_address)dyn_storage": {
        "base": "t_address",
        "encoding": "dynamic_array",
        "label": "address[]",
        "numberOfBytes": "32"
      },
      "t_bool": {
        "encoding": "inplace",
        "label": "bool",
        "numberOfBytes": "1"
      },
      "t_bytes32": {
        "encoding": "inplace",
        "label": "bytes32",
        "numberOfBytes": "32"
      },
      "t_mapping(t_address,t_bool)": {
        "encoding": "mapping",
        "key": "t_address",
        "label": "mapping(address => bool)",
        "numberOfBytes": "32",
        "value": "t_bool"
      },
      "t_mapping(t_address,t_mapping(t_address,t_mapping(t_bytes32,t_bytes32)))": {
        "encoding": "mapping",
        "key": "t_address",
        "label": "mapping(address => mapping(address => mapping(bytes32 => bytes32)))",
        "numberOfBytes": "32",
        "value": "t_mapping(t_address,t_mapping(t_bytes32,t_bytes32))"
      },
      "t_mapping(t_address,t_mapping(t_bytes32,t_bytes32))": {
        "encoding": "mapping",
        "key": "t_address",
        "label": "mapping(address => mapping(bytes32 => bytes32))",
        "numberOfBytes": "32",
        "value": "t_mapping(t_bytes32,t_bytes32)"
      },
      "t_mapping(t_address,t_mapping(t_uint32,t_address))": {
        "encoding": "mapping",
        "key": "t_address",
        "label": "mapping(address => mapping(uint32 => address))",
        "numberOfBytes": "32",
        "value": "t_mapping(t_uint32,t_address)"
      },
      "t_mapping(t_address,t_mapping(t_uint32,t_mapping(t_bytes32,t_mapping(t_uint64,t_bytes32))))": {
        "encoding": "mapping",
        "key": "t_address",
        "label": "mapping(address => mapping(uint32 => mapping(bytes32 => mapping(uint64 => bytes32))))",
        "numberOfBytes": "32",
        "value": "t_mapping(t_uint32,t_mapping(t_bytes32,t_mapping(t_uint64,t_bytes32)))"
      },
      "t_mapping(t_address,t_mapping(t_uint32,t_mapping(t_bytes32,t_uint64)))": {
        "encoding": "mapping",
        "key": "t_address",
        "label": "mapping(address => mapping(uint32 => mapping(bytes32 => uint64)))",
        "numberOfBytes": "32",
        "value": "t_mapping(t_uint32,t_mapping(t_bytes32,t_uint64))"
      },
      "t_mapping(t_address,t_mapping(t_uint32,t_struct(Timeout)3799_storage))": {
        "encoding": "mapping",
        "key": "t_address",
        "label": "mapping(address => mapping(uint32 => struct IMessageLibManager.Timeout))",
        "numberOfBytes": "32",
        "value": "t_mapping(t_uint32,t_struct(Timeout)3799_storage)"
      },
      "t_mapping(t_bytes32,t_bytes32)": {
        "encoding": "mapping",
        "key": "t_bytes32",
        "label": "mapping(bytes32 => bytes32)",
        "numberOfBytes": "32",
        "value": "t_bytes32"
      },
      "t_mapping(t_bytes32,t_mapping(t_uint64,t_bytes32))": {
        "encoding": "mapping",
        "key": "t_bytes32",
        "label": "mapping(bytes32 => mapping(uint64 => bytes32))",
        "numberOfBytes": "32",
        "value": "t_mapping(t_uint64,t_bytes32)"
      },
      "t_mapping(t_bytes32,t_uint64)": {
        "encoding": "mapping",
        "key": "t_bytes32",
        "label": "mapping(bytes32 => uint64)",
        "numberOfBytes": "32",
        "value": "t_uint64"
      },
      "t_mapping(t_uint32,t_address)": {
        "encoding": "mapping",
        "key": "t_uint32",
        "label": "mapping(uint32 => address)",
        "numberOfBytes": "32",
        "value": "t_address"
      },
      "t_mapping(t_uint32,t_mapping(t_bytes32,t_mapping(t_uint64,t_bytes32)))": {
        "encoding": "mapping",
        "key": "t_uint32",
        "label": "mapping(uint32 => mapping(bytes32 => mapping(uint64 => bytes32)))",
        "numberOfBytes": "32",
        "value": "t_mapping(t_bytes32,t_mapping(t_uint64,t_bytes32))"
      },
      "t_mapping(t_uint32,t_mapping(t_bytes32,t_uint64))": {
        "encoding": "mapping",
        "key": "t_uint32",
        "label": "mapping(uint32 => mapping(bytes32 => uint64))",
        "numberOfBytes": "32",
        "value": "t_mapping(t_bytes32,t_uint64)"
      },
      "t_mapping(t_uint32,t_struct(Timeout)3799_storage)": {
        "encoding": "mapping",
        "key": "t_uint32",
        "label": "mapping(uint32 => struct IMessageLibManager.Timeout)",
        "numberOfBytes": "32",
        "value": "t_struct(Timeout)3799_storage"
      },
      "t_mapping(t_uint64,t_bytes32)": {
        "encoding": "mapping",
        "key": "t_uint64",
        "label": "mapping(uint64 => bytes32)",
        "numberOfBytes": "32",
        "value": "t_bytes32"
      },
      "t_struct(Timeout)3799_storage": {
        "encoding": "inplace",
        "label": "struct IMessageLibManager.Timeout",
        "members": [
          {
            "astId": 3796,
            "contract": "contracts/EndpointV2.sol:EndpointV2",
            "label": "lib",
            "offset": 0,
            "slot": "0",
            "type": "t_address"
          },
          {
            "astId": 3798,
            "contract": "contracts/EndpointV2.sol:EndpointV2",
            "label": "expiry",
            "offset": 0,
            "slot": "1",
            "type": "t_uint256"
          }
        ],
        "numberOfBytes": "64"
      },
      "t_uint256": {
        "encoding": "inplace",
        "label": "uint256",
        "numberOfBytes": "32"
      },
      "t_uint32": {
        "encoding": "inplace",
        "label": "uint32",
        "numberOfBytes": "4"
      },
      "t_uint64": {
        "encoding": "inplace",
        "label": "uint64",
        "numberOfBytes": "8"
      }
    }
  }
}