{
  "address": "0xE7C2a73131dd48D8AC46dCD7Ab80C8cbeE5b410A",
  "abi": [
    {
      "anonymous": false,
      "inputs": [
        {
          "indexed": false,
          "internalType": "address",
          "name": "receiver",
          "type": "address"
        },
        {
          "indexed": false,
          "internalType": "uint256",
          "name": "amount",
          "type": "uint256"
        }
      ],
      "name": "AirdropFailed",
      "type": "event"
    },
    {
      "anonymous": false,
      "inputs": [
        {
          "indexed": false,
          "internalType": "address",
          "name": "receiver",
          "type": "address"
        },
        {
          "indexed": false,
          "internalType": "uint256",
          "name": "amount",
          "type": "uint256"
        }
      ],
      "name": "AirdropSucceeded",
      "type": "event"
    },
    {
      "anonymous": false,
      "inputs": [
        {
          "components": [
            {
              "internalType": "uint32",
              "name": "dstEid",
              "type": "uint32"
            },
            {
              "internalType": "uint64",
              "name": "baseGas",
              "type": "uint64"
            },
            {
              "internalType": "uint16",
              "name": "multiplierBps",
              "type": "uint16"
            },
            {
              "internalType": "uint128",
              "name": "floorMarginUSD",
              "type": "uint128"
            },
            {
              "internalType": "uint128",
              "name": "airdropCap",
              "type": "uint128"
            }
          ],
          "indexed": false,
          "internalType": "struct IExecutor.DstConfigParam[]",
          "name": "params",
          "type": "tuple[]"
        }
      ],
      "name": "DstConfigSet",
      "type": "event"
    },
    {
      "anonymous": false,
      "inputs": [
        {
          "indexed": false,
          "internalType": "uint8",
          "name": "version",
          "type": "uint8"
        }
      ],
      "name": "Initialized",
      "type": "event"
    },
    {
      "anonymous": false,
      "inputs": [
        {
          "indexed": true,
          "internalType": "bytes32",
          "name": "role",
          "type": "bytes32"
        },
        {
          "indexed": true,
          "internalType": "bytes32",
          "name": "previousAdminRole",
          "type": "bytes32"
        },
        {
          "indexed": true,
          "internalType": "bytes32",
          "name": "newAdminRole",
          "type": "bytes32"
        }
      ],
      "name": "RoleAdminChanged",
      "type": "event"
    },
    {
      "anonymous": false,
      "inputs": [
        {
          "indexed": true,
          "internalType": "bytes32",
          "name": "role",
          "type": "bytes32"
        },
        {
          "indexed": true,
          "internalType": "address",
          "name": "account",
          "type": "address"
        },
        {
          "indexed": true,
          "internalType": "address",
          "name": "sender",
          "type": "address"
        }
      ],
      "name": "RoleGranted",
      "type": "event"
    },
    {
      "anonymous": false,
      "inputs": [
        {
          "indexed": true,
          "internalType": "bytes32",
          "name": "role",
          "type": "bytes32"
        },
        {
          "indexed": true,
          "internalType": "address",
          "name": "account",
          "type": "address"
        },
        {
          "indexed": true,
          "internalType": "address",
          "name": "sender",
          "type": "address"
        }
      ],
      "name": "RoleRevoked",
      "type": "event"
    },
    {
      "anonymous": false,
      "inputs": [
        {
          "indexed": false,
          "internalType": "uint16",
          "name": "multiplierBps",
          "type": "uint16"
        }
      ],
      "name": "SetDefaultMultiplierBps",
      "type": "event"
    },
    {
      "anonymous": false,
      "inputs": [
        {
          "indexed": false,
          "internalType": "address",
          "name": "priceFeed",
          "type": "address"
        }
      ],
      "name": "SetPriceFeed",
      "type": "event"
    },
    {
      "anonymous": false,
      "inputs": [
        {
          "indexed": false,
          "internalType": "address",
          "name": "workerLib",
          "type": "address"
        }
      ],
      "name": "SetWorkerLib",
      "type": "event"
    },
    {
      "anonymous": false,
      "inputs": [
        {
          "indexed": false,
          "internalType": "address",
          "name": "lib",
          "type": "address"
        },
        {
          "indexed": false,
          "internalType": "address",
          "name": "to",
          "type": "address"
        },
        {
          "indexed": false,
          "internalType": "uint256",
          "name": "amount",
          "type": "uint256"
        }
      ],
      "name": "Withdraw",
      "type": "event"
    },
    {
      "inputs": [],
      "name": "DEFAULT_ADMIN_ROLE",
      "outputs": [
        {
          "internalType": "bytes32",
          "name": "",
          "type": "bytes32"
        }
      ],
      "stateMutability": "view",
      "type": "function"
    },
    {
      "inputs": [
        {
          "components": [
            {
              "internalType": "address",
              "name": "receiver",
              "type": "address"
            },
            {
              "internalType": "uint256",
              "name": "amount",
              "type": "uint256"
            },
            {
              "internalType": "uint256",
              "name": "gasLimit",
              "type": "uint256"
            }
          ],
          "internalType": "struct IExecutor.AirdropParams",
          "name": "_airdropParams",
          "type": "tuple"
        }
      ],
      "name": "airdrop",
      "outputs": [],
      "stateMutability": "payable",
      "type": "function"
    },
    {
      "inputs": [
        {
          "components": [
            {
              "internalType": "address",
              "name": "receiver",
              "type": "address"
            },
            {
              "internalType": "uint256",
              "name": "amount",
              "type": "uint256"
            },
            {
              "internalType": "uint256",
              "name": "gasLimit",
              "type": "uint256"
            }
          ],
          "internalType": "struct IExecutor.AirdropParams",
          "name": "_airdropParams",
          "type": "tuple"
        },
        {
          "internalType": "bytes",
          "name": "_packet",
          "type": "bytes"
        },
        {
          "internalType": "uint256",
          "name": "_gasLimit",
          "type": "uint256"
        }
      ],
      "name": "airdropAndExecute301",
      "outputs": [],
      "stateMutability": "payable",
      "type": "function"
    },
    {
      "inputs": [
        {
          "components": [
            {
              "internalType": "address",
              "name": "receiver",
              "type": "address"
            },
            {
              "internalType": "uint256",
              "name": "amount",
              "type": "uint256"
            },
            {
              "internalType": "uint256",
              "name": "gasLimit",
              "type": "uint256"
            }
          ],
          "internalType": "struct IExecutor.AirdropParams",
          "name": "_airdropParams",
          "type": "tuple"
        },
        {
          "components": [
            {
              "internalType": "address",
              "name": "receiver",
              "type": "address"
            },
            {
              "components": [
                {
                  "internalType": "uint32",
                  "name": "srcEid",
                  "type": "uint32"
                },
                {
                  "internalType": "bytes32",
                  "name": "sender",
                  "type": "bytes32"
                },
                {
                  "internalType": "uint64",
                  "name": "nonce",
                  "type": "uint64"
                }
              ],
              "internalType": "struct IMessageOrigin.MessageOrigin",
              "name": "origin",
              "type": "tuple"
            },
            {
              "internalType": "bytes32",
              "name": "guid",
              "type": "bytes32"
            },
            {
              "internalType": "bytes",
              "name": "message",
              "type": "bytes"
            },
            {
              "internalType": "bytes",
              "name": "extraData",
              "type": "bytes"
            },
            {
              "internalType": "uint256",
              "name": "gasLimit",
              "type": "uint256"
            }
          ],
          "internalType": "struct IExecutor.ExecutionParams",
          "name": "_executionParams",
          "type": "tuple"
        }
      ],
      "name": "airdropAndExecute302",
      "outputs": [],
      "stateMutability": "payable",
      "type": "function"
    },
    {
      "inputs": [],
      "name": "allowlistSize",
      "outputs": [
        {
          "internalType": "uint64",
          "name": "",
          "type": "uint64"
        }
      ],
      "stateMutability": "view",
      "type": "function"
    },
    {
      "inputs": [
        {
          "internalType": "uint32",
          "name": "_dstEid",
          "type": "uint32"
        },
        {
          "internalType": "address",
          "name": "_sender",
          "type": "address"
        },
        {
          "internalType": "uint256",
          "name": "_calldataSize",
          "type": "uint256"
        },
        {
          "internalType": "bytes",
          "name": "_options",
          "type": "bytes"
        }
      ],
      "name": "assignJob",
      "outputs": [
        {
          "internalType": "uint256",
          "name": "fee",
          "type": "uint256"
        }
      ],
      "stateMutability": "payable",
      "type": "function"
    },
    {
      "inputs": [],
      "name": "defaultMultiplierBps",
      "outputs": [
        {
          "internalType": "uint16",
          "name": "",
          "type": "uint16"
        }
      ],
      "stateMutability": "view",
      "type": "function"
    },
    {
      "inputs": [
        {
          "internalType": "uint32",
          "name": "dstEid",
          "type": "uint32"
        }
      ],
      "name": "dstConfig",
      "outputs": [
        {
          "internalType": "uint64",
          "name": "baseGas",
          "type": "uint64"
        },
        {
          "internalType": "uint16",
          "name": "multiplierBps",
          "type": "uint16"
        },
        {
          "internalType": "uint128",
          "name": "floorMarginUSD",
          "type": "uint128"
        },
        {
          "internalType": "uint128",
          "name": "airdropCap",
          "type": "uint128"
        }
      ],
      "stateMutability": "view",
      "type": "function"
    },
    {
      "inputs": [],
      "name": "endpoint",
      "outputs": [
        {
          "internalType": "address",
          "name": "",
          "type": "address"
        }
      ],
      "stateMutability": "view",
      "type": "function"
    },
    {
      "inputs": [
        {
          "internalType": "uint32",
          "name": "_dstEid",
          "type": "uint32"
        },
        {
          "internalType": "address",
          "name": "_sender",
          "type": "address"
        },
        {
          "internalType": "uint256",
          "name": "_calldataSize",
          "type": "uint256"
        },
        {
          "internalType": "bytes",
          "name": "_options",
          "type": "bytes"
        }
      ],
      "name": "getFee",
      "outputs": [
        {
          "internalType": "uint256",
          "name": "fee",
          "type": "uint256"
        }
      ],
      "stateMutability": "view",
      "type": "function"
    },
    {
      "inputs": [
        {
          "internalType": "bytes32",
          "name": "role",
          "type": "bytes32"
        }
      ],
      "name": "getRoleAdmin",
      "outputs": [
        {
          "internalType": "bytes32",
          "name": "",
          "type": "bytes32"
        }
      ],
      "stateMutability": "view",
      "type": "function"
    },
    {
      "inputs": [
        {
          "internalType": "bytes32",
          "name": "role",
          "type": "bytes32"
        },
        {
          "internalType": "address",
          "name": "account",
          "type": "address"
        }
      ],
      "name": "grantRole",
      "outputs": [],
      "stateMutability": "nonpayable",
      "type": "function"
    },
    {
      "inputs": [
        {
          "internalType": "bytes32",
          "name": "role",
          "type": "bytes32"
        },
        {
          "internalType": "address",
          "name": "account",
          "type": "address"
        }
      ],
      "name": "hasRole",
      "outputs": [
        {
          "internalType": "bool",
          "name": "",
          "type": "bool"
        }
      ],
      "stateMutability": "view",
      "type": "function"
    },
    {
      "inputs": [
        {
          "internalType": "address",
          "name": "_endpoint",
          "type": "address"
        },
        {
          "internalType": "address",
          "name": "_uln301",
          "type": "address"
        },
        {
          "internalType": "address[]",
          "name": "_messageLibs",
          "type": "address[]"
        },
        {
          "internalType": "address",
          "name": "_priceFeed",
          "type": "address"
        },
        {
          "internalType": "address",
          "name": "_roleAdmin",
          "type": "address"
        },
        {
          "internalType": "address[]",
          "name": "_admins",
          "type": "address[]"
        }
      ],
      "name": "initialize",
      "outputs": [],
      "stateMutability": "nonpayable",
      "type": "function"
    },
    {
      "inputs": [],
      "name": "paused",
      "outputs": [
        {
          "internalType": "bool",
          "name": "",
          "type": "bool"
        }
      ],
      "stateMutability": "view",
      "type": "function"
    },
    {
      "inputs": [],
      "name": "priceFeed",
      "outputs": [
        {
          "internalType": "address",
          "name": "",
          "type": "address"
        }
      ],
      "stateMutability": "view",
      "type": "function"
    },
    {
      "inputs": [
        {
          "internalType": "bytes32",
          "name": "",
          "type": "bytes32"
        },
        {
          "internalType": "address",
          "name": "",
          "type": "address"
        }
      ],
      "name": "renounceRole",
      "outputs": [],
      "stateMutability": "pure",
      "type": "function"
    },
    {
      "inputs": [
        {
          "internalType": "bytes32",
          "name": "role",
          "type": "bytes32"
        },
        {
          "internalType": "address",
          "name": "account",
          "type": "address"
        }
      ],
      "name": "revokeRole",
      "outputs": [],
      "stateMutability": "nonpayable",
      "type": "function"
    },
    {
      "inputs": [
        {
          "internalType": "uint16",
          "name": "_multiplierBps",
          "type": "uint16"
        }
      ],
      "name": "setDefaultMultiplierBps",
      "outputs": [],
      "stateMutability": "nonpayable",
      "type": "function"
    },
    {
      "inputs": [
        {
          "components": [
            {
              "internalType": "uint32",
              "name": "dstEid",
              "type": "uint32"
            },
            {
              "internalType": "uint64",
              "name": "baseGas",
              "type": "uint64"
            },
            {
              "internalType": "uint16",
              "name": "multiplierBps",
              "type": "uint16"
            },
            {
              "internalType": "uint128",
              "name": "floorMarginUSD",
              "type": "uint128"
            },
            {
              "internalType": "uint128",
              "name": "airdropCap",
              "type": "uint128"
            }
          ],
          "internalType": "struct IExecutor.DstConfigParam[]",
          "name": "_params",
          "type": "tuple[]"
        }
      ],
      "name": "setDstConfig",
      "outputs": [],
      "stateMutability": "nonpayable",
      "type": "function"
    },
    {
      "inputs": [
        {
          "internalType": "bool",
          "name": "_paused",
          "type": "bool"
        }
      ],
      "name": "setPaused",
      "outputs": [],
      "stateMutability": "nonpayable",
      "type": "function"
    },
    {
      "inputs": [
        {
          "internalType": "address",
          "name": "_priceFeed",
          "type": "address"
        }
      ],
      "name": "setPriceFeed",
      "outputs": [],
      "stateMutability": "nonpayable",
      "type": "function"
    },
    {
      "inputs": [
        {
          "internalType": "address",
          "name": "_workerFeeLib",
          "type": "address"
        }
      ],
      "name": "setWorkerFeeLib",
      "outputs": [],
      "stateMutability": "nonpayable",
      "type": "function"
    },
    {
      "inputs": [
        {
          "internalType": "bytes4",
          "name": "interfaceId",
          "type": "bytes4"
        }
      ],
      "name": "supportsInterface",
      "outputs": [
        {
          "internalType": "bool",
          "name": "",
          "type": "bool"
        }
      ],
      "stateMutability": "view",
      "type": "function"
    },
    {
      "inputs": [],
      "name": "uln301",
      "outputs": [
        {
          "internalType": "address",
          "name": "",
          "type": "address"
        }
      ],
      "stateMutability": "view",
      "type": "function"
    },
    {
      "inputs": [
        {
          "internalType": "address",
          "name": "_lib",
          "type": "address"
        },
        {
          "internalType": "address",
          "name": "_to",
          "type": "address"
        },
        {
          "internalType": "uint256",
          "name": "_amount",
          "type": "uint256"
        }
      ],
      "name": "withdrawFee",
      "outputs": [],
      "stateMutability": "nonpayable",
      "type": "function"
    },
    {
      "inputs": [],
      "name": "workerFeeLib",
      "outputs": [
        {
          "internalType": "address",
          "name": "",
          "type": "address"
        }
      ],
      "stateMutability": "view",
      "type": "function"
    }
  ],
  "transactionHash": "0x4449729cbf955151001a368d178b6b817e17e91fdaeaba64d201ff038209c4a8",
  "args": [],
  "numDeployments": 1,
  "solcInputHash": "23618ae04a8987a244e2ff990cbbeac7",
  "bytecode": "0x608060405234801561001057600080fd5b50612f13806100206000396000f3fe6080604052600436106101aa5760003560e01c8063724e78da116100ec578063c358de0a1161008a578063d2ae210411610064578063d2ae2104146105ec578063d547741f1461063e578063eb88caf51461065e578063fab0e5051461067157600080fd5b8063c358de0a1461057f578063c416aa511461059f578063c7b2370b146105cc57600080fd5b80639e944965116100c65780639e9449651461047c578063a217fddf14610537578063acdbcca51461054c578063b2adcc841461056c57600080fd5b8063724e78da146103dc578063741bef1a146103fc57806391d148541461042957600080fd5b80632f2ff15d116101595780635e280f11116101335780635e280f11146103445780636f3bc2c114610396578063709eb664146103a9578063717e8a42146103c957600080fd5b80632f2ff15d146102d257806336568abe146102f25780635c975abb1461031257600080fd5b80631095b6d71161018a5780631095b6d71461025457806316c38b3c14610274578063248a9ca31461029457600080fd5b80629fc681146101af578062bf2e80146101d157806301ffc9a714610224575b600080fd5b3480156101bb57600080fd5b506101cf6101ca366004612403565b61069e565b005b3480156101dd57600080fd5b5060975461020c907c0100000000000000000000000000000000000000000000000000000000900461ffff1681565b60405161ffff90911681526020015b60405180910390f35b34801561023057600080fd5b5061024461023f3660046124a8565b61093d565b604051901515815260200161021b565b34801561026057600080fd5b506101cf61026f3660046124ea565b6109d6565b34801561028057600080fd5b506101cf61028f366004612534565b610b95565b3480156102a057600080fd5b506102c46102af366004612551565b60009081526065602052604090206001015490565b60405190815260200161021b565b3480156102de57600080fd5b506101cf6102ed36600461256a565b610beb565b3480156102fe57600080fd5b506101cf61030d36600461256a565b610c15565b34801561031e57600080fd5b506098546102449074010000000000000000000000000000000000000000900460ff1681565b34801561035057600080fd5b5060fd546103719073ffffffffffffffffffffffffffffffffffffffff1681565b60405173ffffffffffffffffffffffffffffffffffffffff909116815260200161021b565b6101cf6103a43660046125ae565b610c77565b3480156103b557600080fd5b506102c46103c4366004612662565b610dab565b6102c46103d7366004612662565b6110d1565b3480156103e857600080fd5b506101cf6103f73660046126d1565b611339565b34801561040857600080fd5b506098546103719073ffffffffffffffffffffffffffffffffffffffff1681565b34801561043557600080fd5b5061024461044436600461256a565b600091825260656020908152604080842073ffffffffffffffffffffffffffffffffffffffff93909316845291905290205460ff1690565b34801561048857600080fd5b506104f16104973660046126ec565b60fc602052600090815260409020805460019091015467ffffffffffffffff82169161ffff68010000000000000000820416916fffffffffffffffffffffffffffffffff6a01000000000000000000009092048216911684565b6040805167ffffffffffffffff909516855261ffff90931660208501526fffffffffffffffffffffffffffffffff9182169284019290925216606082015260800161021b565b34801561054357600080fd5b506102c4600081565b34801561055857600080fd5b506101cf610567366004612751565b6113de565b6101cf61057a366004612846565b611598565b34801561058b57600080fd5b506101cf61059a3660046128a1565b611670565b3480156105ab57600080fd5b506097546103719073ffffffffffffffffffffffffffffffffffffffff1681565b3480156105d857600080fd5b506101cf6105e73660046126d1565b61171d565b3480156105f857600080fd5b506097546106259074010000000000000000000000000000000000000000900467ffffffffffffffff1681565b60405167ffffffffffffffff909116815260200161021b565b34801561064a57600080fd5b506101cf61065936600461256a565b6117ba565b6101cf61066c3660046128bc565b6117df565b34801561067d57600080fd5b5060fe546103719073ffffffffffffffffffffffffffffffffffffffff1681565b60006106c87fb53127684a568b3173ae13b9f8a6016e243e63b6e8ee1178d6a717850b5d61035490565b905073ffffffffffffffffffffffffffffffffffffffff81166107215773ffffffffffffffffffffffffffffffffffffffff7fb53127684a568b3173ae13b9f8a6016e243e63b6e8ee1178d6a717850b5d610355610743565b3373ffffffffffffffffffffffffffffffffffffffff82161461074357600080fd5b600054610100900460ff16158080156107635750600054600160ff909116105b8061077d5750303b15801561077d575060005460ff166001145b61080e576040517f08c379a000000000000000000000000000000000000000000000000000000000815260206004820152602e60248201527f496e697469616c697a61626c653a20636f6e747261637420697320616c72656160448201527f647920696e697469616c697a656400000000000000000000000000000000000060648201526084015b60405180910390fd5b600080547fffffffffffffffffffffffffffffffffffffffffffffffffffffffffffffff00166001179055801561086c57600080547fffffffffffffffffffffffffffffffffffffffffffffffffffffffffffff00ff166101001790555b61087b8686612ee08787611828565b60fd805473ffffffffffffffffffffffffffffffffffffffff808b167fffffffffffffffffffffffff00000000000000000000000000000000000000009283161790925560fe8054928a1692909116919091179055801561093357600080547fffffffffffffffffffffffffffffffffffffffffffffffffffffffffffff00ff169055604051600181527f7f26b83ff96e1f2b6a682f133852f6798a09c465da95921460cefb38474024989060200160405180910390a15b5050505050505050565b60007fffffffff0000000000000000000000000000000000000000000000000000000082167f7965db0b0000000000000000000000000000000000000000000000000000000014806109d057507f01ffc9a7000000000000000000000000000000000000000000000000000000007fffffffff000000000000000000000000000000000000000000000000000000008316145b92915050565b7fa49807205ce4d355092ef5a8a18f56e8913cf4a201fbe287825b095693c21775610a00816118cc565b73ffffffffffffffffffffffffffffffffffffffff841660009081527fe3a3b2721d010eec8988605a93cd7c15d969808c0e2b42f6155dc2b4fa13c081602052604090205460ff16610aae576040517f08c379a000000000000000000000000000000000000000000000000000000000815260206004820152601b60248201527f576f726b65723a20496e76616c6964206d657373616765206c696200000000006044820152606401610805565b6040517ffd9be52200000000000000000000000000000000000000000000000000000000815273ffffffffffffffffffffffffffffffffffffffff84811660048301526024820184905285169063fd9be52290604401600060405180830381600087803b158015610b1e57600080fd5b505af1158015610b32573d6000803e3d6000fd5b50506040805173ffffffffffffffffffffffffffffffffffffffff8089168252871660208201529081018590527f9b1bfa7fa9ee420a16e124f794c35ac9f90472acc99140eb2f6447c714cad8eb9250606001905060405180910390a150505050565b6000610ba0816118cc565b506098805491151574010000000000000000000000000000000000000000027fffffffffffffffffffffff00ffffffffffffffffffffffffffffffffffffffff909216919091179055565b600082815260656020526040902060010154610c06816118cc565b610c1083836118d9565b505050565b6040517f08c379a000000000000000000000000000000000000000000000000000000000815260206004820152601c60248201527f576f726b65723a2063616e6e6f742072656e6f756e636520726f6c65000000006044820152606401610805565b7fa49807205ce4d355092ef5a8a18f56e8913cf4a201fbe287825b095693c21775610ca1816118cc565b610ca96119a0565b610cb283611a13565b6000610cc2602085013534612907565b60fd5490915073ffffffffffffffffffffffffffffffffffffffff16630c0c389e60e08501358360208701610cf781896126d1565b6080890135610d0960a08b018b61291a565b610d1660c08d018d61291a565b6040518a63ffffffff1660e01b8152600401610d3897969594939291906129c8565b600060405180830381858988f1158015610d56573d6000803e3d6000fd5b5050505050506040513d6000823e601f3d9081017fffffffffffffffffffffffffffffffffffffffffffffffffffffffffffffffe0168201604052610d9e9190810190612a7c565b505050610c10600160ca55565b73ffffffffffffffffffffffffffffffffffffffff841660009081527f0f6a9529577ef7bf1cbc8fccda1cc3c881f755c7e92e34c7c4deac1fa3c1c7916020526040812054859060ff1615610e5c576040517f08c379a000000000000000000000000000000000000000000000000000000000815260206004820152601360248201527f576f726b65723a206e6f7420616c6c6f776564000000000000000000000000006044820152606401610805565b60975474010000000000000000000000000000000000000000900467ffffffffffffffff161580610ed1575073ffffffffffffffffffffffffffffffffffffffff811660009081527f35c5067391a9036240763c1067bfa438a7b0131204a675a2fe562dd73782ce85602052604090205460ff165b156110655760985474010000000000000000000000000000000000000000900460ff1615610f5b576040517f08c379a000000000000000000000000000000000000000000000000000000000815260206004820152600e60248201527f576f726b65723a207061757365640000000000000000000000000000000000006044820152606401610805565b6040805160a08101825260985473ffffffffffffffffffffffffffffffffffffffff908116825263ffffffff8a1660208084018290528a831684860152606084018a905260975461ffff7c01000000000000000000000000000000000000000000000000000000008204166080860152600092835260fc9091529084902093517f371c3a8e000000000000000000000000000000000000000000000000000000008152929391169163371c3a8e9161101c918591908a908a90600401612b44565b602060405180830381865afa158015611039573d6000803e3d6000fd5b505050506040513d601f19601f8201168201806040525081019061105d9190612c05565b9250506110c7565b6040517f08c379a000000000000000000000000000000000000000000000000000000000815260206004820152601360248201527f576f726b65723a206e6f7420616c6c6f776564000000000000000000000000006044820152606401610805565b5095945050505050565b60007f724aface199fe5bed93ae8508474576a9adf3dc443b2c451842a2242919f19de6110fd816118cc565b73ffffffffffffffffffffffffffffffffffffffff861660009081527f0f6a9529577ef7bf1cbc8fccda1cc3c881f755c7e92e34c7c4deac1fa3c1c7916020526040902054869060ff16156111ae576040517f08c379a000000000000000000000000000000000000000000000000000000000815260206004820152601360248201527f576f726b65723a206e6f7420616c6c6f776564000000000000000000000000006044820152606401610805565b60975474010000000000000000000000000000000000000000900467ffffffffffffffff161580611223575073ffffffffffffffffffffffffffffffffffffffff811660009081527f35c5067391a9036240763c1067bfa438a7b0131204a675a2fe562dd73782ce85602052604090205460ff165b15611065576040805160a08101825260985473ffffffffffffffffffffffffffffffffffffffff908116825263ffffffff8b1660208084018290528b831684860152606084018b905260975461ffff7c01000000000000000000000000000000000000000000000000000000008204166080860152600092835260fc9091529084902093517ff43bcfc5000000000000000000000000000000000000000000000000000000008152929391169163f43bcfc5916112e9918591908b908b90600401612b44565b6020604051808303816000875af1158015611308573d6000803e3d6000fd5b505050506040513d601f19601f8201168201806040525081019061132c9190612c05565b9998505050505050505050565b7fa49807205ce4d355092ef5a8a18f56e8913cf4a201fbe287825b095693c21775611363816118cc565b609880547fffffffffffffffffffffffff00000000000000000000000000000000000000001673ffffffffffffffffffffffffffffffffffffffff84169081179091556040519081527ff724a45d041687842411f2b977ef22ab8f43c8f1104f4592b42a00f9b34a643d906020015b60405180910390a15050565b7fa49807205ce4d355092ef5a8a18f56e8913cf4a201fbe287825b095693c21775611408816118cc565b60005b825181101561156857600083828151811061142857611428612c1e565b60209081029190910181015160408051608080820183528385015167ffffffffffffffff90811683528385015161ffff9081168488019081526060808801516fffffffffffffffffffffffffffffffff908116878901908152958901518116918701918252975163ffffffff16600090815260fc90995295909720935184549751935187166a0100000000000000000000027fffffffffffff00000000000000000000000000000000ffffffffffffffffffff9490921668010000000000000000027fffffffffffffffffffffffffffffffffffffffffffff0000000000000000000090981692169190911795909517169390931783555160019092018054929091167fffffffffffffffffffffffffffffffff00000000000000000000000000000000909216919091179055508061156081612c4d565b91505061140b565b507f3fd3f9275410b39824c12e5dfcf63fb332698a5eee3b09895aaaaa9e403bd481826040516113d29190612c85565b7fa49807205ce4d355092ef5a8a18f56e8913cf4a201fbe287825b095693c217756115c2816118cc565b6115ca6119a0565b6115d385611a13565b60fe546040517f56fe19be00000000000000000000000000000000000000000000000000000000815273ffffffffffffffffffffffffffffffffffffffff909116906356fe19be9061162d90879087908790600401612d1f565b600060405180830381600087803b15801561164757600080fd5b505af115801561165b573d6000803e3d6000fd5b50505050611669600160ca55565b5050505050565b7fa49807205ce4d355092ef5a8a18f56e8913cf4a201fbe287825b095693c2177561169a816118cc565b609780547fffff0000ffffffffffffffffffffffffffffffffffffffffffffffffffffffff167c010000000000000000000000000000000000000000000000000000000061ffff8516908102919091179091556040519081527f7af0ac740036ffb1c97b03697859d729e80a44ae5030543d64971c313565ab4d906020016113d2565b7fa49807205ce4d355092ef5a8a18f56e8913cf4a201fbe287825b095693c21775611747816118cc565b609780547fffffffffffffffffffffffff00000000000000000000000000000000000000001673ffffffffffffffffffffffffffffffffffffffff84169081179091556040519081527f1399be28223800f8669b3ba5f8721d9fc16fc4e8d0bbf98378791c8c5a3015e0906020016113d2565b6000828152606560205260409020600101546117d5816118cc565b610c108383611b1c565b7fa49807205ce4d355092ef5a8a18f56e8913cf4a201fbe287825b095693c21775611809816118cc565b6118116119a0565b61181a82611a13565b611824600160ca55565b5050565b600054610100900460ff166118bf576040517f08c379a000000000000000000000000000000000000000000000000000000000815260206004820152602b60248201527f496e697469616c697a61626c653a20636f6e7472616374206973206e6f74206960448201527f6e697469616c697a696e670000000000000000000000000000000000000000006064820152608401610805565b6116698585858585611be2565b6118d68133611dcb565b50565b7f74845de37cfabd357633214b47fa91ccd19b05b7c5a08ac22c187f811fb62bca821480156119385750600082815260656020908152604080832073ffffffffffffffffffffffffffffffffffffffff8516845290915290205460ff16155b15611996576097805460149061196f9074010000000000000000000000000000000000000000900467ffffffffffffffff16612d43565b91906101000a81548167ffffffffffffffff021916908367ffffffffffffffff1602179055505b6118248282611e85565b600260ca5403611a0c576040517f08c379a000000000000000000000000000000000000000000000000000000000815260206004820152601f60248201527f5265656e7472616e637947756172643a207265656e7472616e742063616c6c006044820152606401610805565b600260ca55565b6000611a2260208301836126d1565b73ffffffffffffffffffffffffffffffffffffffff168260200135836040013590604051600060405180830381858888f193505050503d8060008114611a84576040519150601f19603f3d011682016040523d82523d6000602084013e611a89565b606091505b5050905080611aee577f9f0ca89f7fdcf20e0d6b67b1a368cb9d67d9879a5c2bdb67bc63f8986a6927c2611ac060208401846126d1565b6040805173ffffffffffffffffffffffffffffffffffffffff909216825260208086013590830152016113d2565b7f4e4dde12617e3f8946892c207c6e8343924d91771c3ab6721a336ed89e98a21d611ac060208401846126d1565b7f74845de37cfabd357633214b47fa91ccd19b05b7c5a08ac22c187f811fb62bca82148015611b7a5750600082815260656020908152604080832073ffffffffffffffffffffffffffffffffffffffff8516845290915290205460ff165b15611bd85760978054601490611bb19074010000000000000000000000000000000000000000900467ffffffffffffffff16612d6a565b91906101000a81548167ffffffffffffffff021916908367ffffffffffffffff1602179055505b6118248282611f79565b600054610100900460ff16611c79576040517f08c379a000000000000000000000000000000000000000000000000000000000815260206004820152602b60248201527f496e697469616c697a61626c653a20636f6e7472616374206973206e6f74206960448201527f6e697469616c697a696e670000000000000000000000000000000000000000006064820152608401610805565b609780547fffff0000ffffffffffffffffffffffffffffffffffffffffffffffffffffffff167c010000000000000000000000000000000000000000000000000000000061ffff861602179055609880547fffffffffffffffffffffffff00000000000000000000000000000000000000001673ffffffffffffffffffffffffffffffffffffffff8616179055611d116000836118d9565b60005b8551811015611d7057611d607f724aface199fe5bed93ae8508474576a9adf3dc443b2c451842a2242919f19de878381518110611d5357611d53612c1e565b60200260200101516118d9565b611d6981612c4d565b9050611d14565b5060005b8151811015611dc357611db37fa49807205ce4d355092ef5a8a18f56e8913cf4a201fbe287825b095693c21775838381518110611d5357611d53612c1e565b611dbc81612c4d565b9050611d74565b505050505050565b600082815260656020908152604080832073ffffffffffffffffffffffffffffffffffffffff8516845290915290205460ff1661182457611e0b81612034565b611e16836020612053565b604051602001611e27929190612dac565b604080517fffffffffffffffffffffffffffffffffffffffffffffffffffffffffffffffe0818403018152908290527f08c379a000000000000000000000000000000000000000000000000000000000825261080591600401612e2d565b600082815260656020908152604080832073ffffffffffffffffffffffffffffffffffffffff8516845290915290205460ff1661182457600082815260656020908152604080832073ffffffffffffffffffffffffffffffffffffffff85168452909152902080547fffffffffffffffffffffffffffffffffffffffffffffffffffffffffffffff00166001179055611f1b3390565b73ffffffffffffffffffffffffffffffffffffffff168173ffffffffffffffffffffffffffffffffffffffff16837f2f8788117e7eff1d82e926ec794901d17c78024a50270940304540a733656f0d60405160405180910390a45050565b600082815260656020908152604080832073ffffffffffffffffffffffffffffffffffffffff8516845290915290205460ff161561182457600082815260656020908152604080832073ffffffffffffffffffffffffffffffffffffffff8516808552925280832080547fffffffffffffffffffffffffffffffffffffffffffffffffffffffffffffff0016905551339285917ff6391f5c32d9c69d2a47ea670b442974b53935d1edc7fd64eb21e047a839171b9190a45050565b60606109d073ffffffffffffffffffffffffffffffffffffffff831660145b60606000612062836002612e7e565b61206d906002612e95565b67ffffffffffffffff811115612085576120856122c6565b6040519080825280601f01601f1916602001820160405280156120af576020820181803683370190505b5090507f3000000000000000000000000000000000000000000000000000000000000000816000815181106120e6576120e6612c1e565b60200101907effffffffffffffffffffffffffffffffffffffffffffffffffffffffffffff1916908160001a9053507f78000000000000000000000000000000000000000000000000000000000000008160018151811061214957612149612c1e565b60200101907effffffffffffffffffffffffffffffffffffffffffffffffffffffffffffff1916908160001a9053506000612185846002612e7e565b612190906001612e95565b90505b600181111561222d577f303132333435363738396162636465660000000000000000000000000000000085600f16601081106121d1576121d1612c1e565b1a60f81b8282815181106121e7576121e7612c1e565b60200101907effffffffffffffffffffffffffffffffffffffffffffffffffffffffffffff1916908160001a90535060049490941c9361222681612ea8565b9050612193565b508315612296576040517f08c379a000000000000000000000000000000000000000000000000000000000815260206004820181905260248201527f537472696e67733a20686578206c656e67746820696e73756666696369656e746044820152606401610805565b9392505050565b803573ffffffffffffffffffffffffffffffffffffffff811681146122c157600080fd5b919050565b7f4e487b7100000000000000000000000000000000000000000000000000000000600052604160045260246000fd5b60405160a0810167ffffffffffffffff81118282101715612318576123186122c6565b60405290565b604051601f82017fffffffffffffffffffffffffffffffffffffffffffffffffffffffffffffffe016810167ffffffffffffffff81118282101715612365576123656122c6565b604052919050565b600067ffffffffffffffff821115612387576123876122c6565b5060051b60200190565b600082601f8301126123a257600080fd5b813560206123b76123b28361236d565b61231e565b82815260059290921b840181019181810190868411156123d657600080fd5b8286015b848110156123f8576123eb8161229d565b83529183019183016123da565b509695505050505050565b60008060008060008060c0878903121561241c57600080fd5b6124258761229d565b95506124336020880161229d565b9450604087013567ffffffffffffffff8082111561245057600080fd5b61245c8a838b01612391565b955061246a60608a0161229d565b945061247860808a0161229d565b935060a089013591508082111561248e57600080fd5b5061249b89828a01612391565b9150509295509295509295565b6000602082840312156124ba57600080fd5b81357fffffffff000000000000000000000000000000000000000000000000000000008116811461229657600080fd5b6000806000606084860312156124ff57600080fd5b6125088461229d565b92506125166020850161229d565b9150604084013590509250925092565b80151581146118d657600080fd5b60006020828403121561254657600080fd5b813561229681612526565b60006020828403121561256357600080fd5b5035919050565b6000806040838503121561257d57600080fd5b8235915061258d6020840161229d565b90509250929050565b6000606082840312156125a857600080fd5b50919050565b600080608083850312156125c157600080fd5b6125cb8484612596565b9150606083013567ffffffffffffffff8111156125e757600080fd5b830161010081860312156125fa57600080fd5b809150509250929050565b803563ffffffff811681146122c157600080fd5b60008083601f84011261262b57600080fd5b50813567ffffffffffffffff81111561264357600080fd5b60208301915083602082850101111561265b57600080fd5b9250929050565b60008060008060006080868803121561267a57600080fd5b61268386612605565b94506126916020870161229d565b935060408601359250606086013567ffffffffffffffff8111156126b457600080fd5b6126c088828901612619565b969995985093965092949392505050565b6000602082840312156126e357600080fd5b6122968261229d565b6000602082840312156126fe57600080fd5b61229682612605565b803567ffffffffffffffff811681146122c157600080fd5b803561ffff811681146122c157600080fd5b80356fffffffffffffffffffffffffffffffff811681146122c157600080fd5b6000602080838503121561276457600080fd5b823567ffffffffffffffff81111561277b57600080fd5b8301601f8101851361278c57600080fd5b803561279a6123b28261236d565b81815260a091820283018401918482019190888411156127b957600080fd5b938501935b8385101561283a5780858a0312156127d65760008081fd5b6127de6122f5565b6127e786612605565b81526127f4878701612707565b87820152604061280581880161271f565b908201526060612816878201612731565b908201526080612827878201612731565b90820152835293840193918501916127be565b50979650505050505050565b60008060008060a0858703121561285c57600080fd5b6128668686612596565b9350606085013567ffffffffffffffff81111561288257600080fd5b61288e87828801612619565b9598909750949560800135949350505050565b6000602082840312156128b357600080fd5b6122968261271f565b6000606082840312156128ce57600080fd5b6122968383612596565b7f4e487b7100000000000000000000000000000000000000000000000000000000600052601160045260246000fd5b818103818111156109d0576109d06128d8565b60008083357fffffffffffffffffffffffffffffffffffffffffffffffffffffffffffffffe184360301811261294f57600080fd5b83018035915067ffffffffffffffff82111561296a57600080fd5b60200191503681900382131561265b57600080fd5b8183528181602085013750600060208284010152600060207fffffffffffffffffffffffffffffffffffffffffffffffffffffffffffffffe0601f840116840101905092915050565b63ffffffff6129d689612605565b1681526020880135602082015267ffffffffffffffff6129f860408a01612707565b16604082015273ffffffffffffffffffffffffffffffffffffffff8716606082015285608082015260e060a08201526000612a3760e08301868861297f565b82810360c0840152612a4a81858761297f565b9a9950505050505050505050565b60005b83811015612a73578181015183820152602001612a5b565b50506000910152565b60008060408385031215612a8f57600080fd5b8251612a9a81612526565b602084015190925067ffffffffffffffff80821115612ab857600080fd5b818501915085601f830112612acc57600080fd5b815181811115612ade57612ade6122c6565b612b0f60207fffffffffffffffffffffffffffffffffffffffffffffffffffffffffffffffe0601f8401160161231e565b9150808252866020828501011115612b2657600080fd5b612b37816020840160208601612a58565b5080925050509250929050565b600061014073ffffffffffffffffffffffffffffffffffffffff80885116845263ffffffff60208901511660208501528060408901511660408501525060608701516060840152608087015161ffff80821660808601528754915067ffffffffffffffff821660a0860152808260401c1660c0860152506fffffffffffffffffffffffffffffffff808260501c1660e086015280600189015416610100860152505080610120840152612bfa818401858761297f565b979650505050505050565b600060208284031215612c1757600080fd5b5051919050565b7f4e487b7100000000000000000000000000000000000000000000000000000000600052603260045260246000fd5b60007fffffffffffffffffffffffffffffffffffffffffffffffffffffffffffffffff8203612c7e57612c7e6128d8565b5060010190565b602080825282518282018190526000919060409081850190868401855b82811015612d12578151805163ffffffff1685528681015167ffffffffffffffff16878601528581015161ffff16868601526060808201516fffffffffffffffffffffffffffffffff90811691870191909152608091820151169085015260a09093019290850190600101612ca2565b5091979650505050505050565b604081526000612d3360408301858761297f565b9050826020830152949350505050565b600067ffffffffffffffff808316818103612d6057612d606128d8565b6001019392505050565b600067ffffffffffffffff821680612d8457612d846128d8565b7fffffffffffffffffffffffffffffffffffffffffffffffffffffffffffffffff0192915050565b7f416363657373436f6e74726f6c3a206163636f756e7420000000000000000000815260008351612de4816017850160208801612a58565b7f206973206d697373696e6720726f6c65200000000000000000000000000000006017918401918201528351612e21816028840160208801612a58565b01602801949350505050565b6020815260008251806020840152612e4c816040850160208701612a58565b601f017fffffffffffffffffffffffffffffffffffffffffffffffffffffffffffffffe0169190910160400192915050565b80820281158282048414176109d0576109d06128d8565b808201808211156109d0576109d06128d8565b600081612eb757612eb76128d8565b507fffffffffffffffffffffffffffffffffffffffffffffffffffffffffffffffff019056fea2646970667358221220102c7d301e54f4120f9bed6de93bde0636f982ae05869f9d385a0e10ba60fd7464736f6c63430008130033",
  "devdoc": {
    "events": {
      "Initialized(uint8)": {
        "details": "Triggered when the contract has been initialized or reinitialized."
      },
      "RoleAdminChanged(bytes32,bytes32,bytes32)": {
        "details": "Emitted when `newAdminRole` is set as ``role``'s admin role, replacing `previousAdminRole` `DEFAULT_ADMIN_ROLE` is the starting admin for all roles, despite {RoleAdminChanged} not being emitted signaling this. _Available since v3.1._"
      },
      "RoleGranted(bytes32,address,address)": {
        "details": "Emitted when `account` is granted `role`. `sender` is the account that originated the contract call, an admin role bearer except when using {AccessControl-_setupRole}."
      },
      "RoleRevoked(bytes32,address,address)": {
        "details": "Emitted when `account` is revoked `role`. `sender` is the account that originated the contract call:   - if using `revokeRole`, it is the admin role bearer   - if using `renounceRole`, it is the role bearer (i.e. `account`)"
      }
    },
    "kind": "dev",
    "methods": {
      "getRoleAdmin(bytes32)": {
        "details": "Returns the admin role that controls `role`. See {grantRole} and {revokeRole}. To change a role's admin, use {_setRoleAdmin}."
      },
      "grantRole(bytes32,address)": {
        "details": "Grants `role` to `account`. If `account` had not been already granted `role`, emits a {RoleGranted} event. Requirements: - the caller must have ``role``'s admin role. May emit a {RoleGranted} event."
      },
      "hasRole(bytes32,address)": {
        "details": "Returns `true` if `account` has been granted `role`."
      },
      "revokeRole(bytes32,address)": {
        "details": "Revokes `role` from `account`. If `account` had been granted `role`, emits a {RoleRevoked} event. Requirements: - the caller must have ``role``'s admin role. May emit a {RoleRevoked} event."
      },
      "supportsInterface(bytes4)": {
        "details": "See {IERC165-supportsInterface}."
      }
    },
    "version": 1
  },
  "userdoc": {
    "kind": "user",
    "methods": {},
    "version": 1
  },
  "storageLayout": {
    "storage": [
      {
        "astId": 2899,
        "contract": "contracts/Executor.sol:Executor",
        "label": "_initialized",
        "offset": 0,
        "slot": "0",
        "type": "t_uint8"
      },
      {
        "astId": 2902,
        "contract": "contracts/Executor.sol:Executor",
        "label": "_initializing",
        "offset": 1,
        "slot": "0",
        "type": "t_bool"
      },
      {
        "astId": 3516,
        "contract": "contracts/Executor.sol:Executor",
        "label": "__gap",
        "offset": 0,
        "slot": "1",
        "type": "t_array(t_uint256)50_storage"
      },
      {
        "astId": 3789,
        "contract": "contracts/Executor.sol:Executor",
        "label": "__gap",
        "offset": 0,
        "slot": "51",
        "type": "t_array(t_uint256)50_storage"
      },
      {
        "astId": 2391,
        "contract": "contracts/Executor.sol:Executor",
        "label": "_roles",
        "offset": 0,
        "slot": "101",
        "type": "t_mapping(t_bytes32,t_struct(RoleData)2386_storage)"
      },
      {
        "astId": 2686,
        "contract": "contracts/Executor.sol:Executor",
        "label": "__gap",
        "offset": 0,
        "slot": "102",
        "type": "t_array(t_uint256)49_storage"
      },
      {
        "astId": 19417,
        "contract": "contracts/Executor.sol:Executor",
        "label": "workerFeeLib",
        "offset": 0,
        "slot": "151",
        "type": "t_address"
      },
      {
        "astId": 19419,
        "contract": "contracts/Executor.sol:Executor",
        "label": "allowlistSize",
        "offset": 20,
        "slot": "151",
        "type": "t_uint64"
      },
      {
        "astId": 19421,
        "contract": "contracts/Executor.sol:Executor",
        "label": "defaultMultiplierBps",
        "offset": 28,
        "slot": "151",
        "type": "t_uint16"
      },
      {
        "astId": 19423,
        "contract": "contracts/Executor.sol:Executor",
        "label": "priceFeed",
        "offset": 0,
        "slot": "152",
        "type": "t_address"
      },
      {
        "astId": 19425,
        "contract": "contracts/Executor.sol:Executor",
        "label": "paused",
        "offset": 20,
        "slot": "152",
        "type": "t_bool"
      },
      {
        "astId": 19740,
        "contract": "contracts/Executor.sol:Executor",
        "label": "__gap",
        "offset": 0,
        "slot": "153",
        "type": "t_array(t_uint256)49_storage"
      },
      {
        "astId": 3075,
        "contract": "contracts/Executor.sol:Executor",
        "label": "_status",
        "offset": 0,
        "slot": "202",
        "type": "t_uint256"
      },
      {
        "astId": 3144,
        "contract": "contracts/Executor.sol:Executor",
        "label": "__gap",
        "offset": 0,
        "slot": "203",
        "type": "t_array(t_uint256)49_storage"
      },
      {
        "astId": 9461,
        "contract": "contracts/Executor.sol:Executor",
        "label": "dstConfig",
        "offset": 0,
        "slot": "252",
        "type": "t_mapping(t_uint32,t_struct(DstConfig)13071_storage)"
      },
      {
        "astId": 9463,
        "contract": "contracts/Executor.sol:Executor",
        "label": "endpoint",
        "offset": 0,
        "slot": "253",
        "type": "t_address"
      },
      {
        "astId": 9465,
        "contract": "contracts/Executor.sol:Executor",
        "label": "uln301",
        "offset": 0,
        "slot": "254",
        "type": "t_address"
      }
    ],
    "types": {
      "t_address": {
        "encoding": "inplace",
        "label": "address",
        "numberOfBytes": "20"
      },
      "t_array(t_uint256)49_storage": {
        "base": "t_uint256",
        "encoding": "inplace",
        "label": "uint256[49]",
        "numberOfBytes": "1568"
      },
      "t_array(t_uint256)50_storage": {
        "base": "t_uint256",
        "encoding": "inplace",
        "label": "uint256[50]",
        "numberOfBytes": "1600"
      },
      "t_bool": {
        "encoding": "inplace",
        "label": "bool",
        "numberOfBytes": "1"
      },
      "t_bytes32": {
        "encoding": "inplace",
        "label": "bytes32",
        "numberOfBytes": "32"
      },
      "t_mapping(t_address,t_bool)": {
        "encoding": "mapping",
        "key": "t_address",
        "label": "mapping(address => bool)",
        "numberOfBytes": "32",
        "value": "t_bool"
      },
      "t_mapping(t_bytes32,t_struct(RoleData)2386_storage)": {
        "encoding": "mapping",
        "key": "t_bytes32",
        "label": "mapping(bytes32 => struct AccessControlUpgradeable.RoleData)",
        "numberOfBytes": "32",
        "value": "t_struct(RoleData)2386_storage"
      },
      "t_mapping(t_uint32,t_struct(DstConfig)13071_storage)": {
        "encoding": "mapping",
        "key": "t_uint32",
        "label": "mapping(uint32 => struct IExecutor.DstConfig)",
        "numberOfBytes": "32",
        "value": "t_struct(DstConfig)13071_storage"
      },
      "t_struct(DstConfig)13071_storage": {
        "encoding": "inplace",
        "label": "struct IExecutor.DstConfig",
        "members": [
          {
            "astId": 13064,
            "contract": "contracts/Executor.sol:Executor",
            "label": "baseGas",
            "offset": 0,
            "slot": "0",
            "type": "t_uint64"
          },
          {
            "astId": 13066,
            "contract": "contracts/Executor.sol:Executor",
            "label": "multiplierBps",
            "offset": 8,
            "slot": "0",
            "type": "t_uint16"
          },
          {
            "astId": 13068,
            "contract": "contracts/Executor.sol:Executor",
            "label": "floorMarginUSD",
            "offset": 10,
            "slot": "0",
            "type": "t_uint128"
          },
          {
            "astId": 13070,
            "contract": "contracts/Executor.sol:Executor",
            "label": "airdropCap",
            "offset": 0,
            "slot": "1",
            "type": "t_uint128"
          }
        ],
        "numberOfBytes": "64"
      },
      "t_struct(RoleData)2386_storage": {
        "encoding": "inplace",
        "label": "struct AccessControlUpgradeable.RoleData",
        "members": [
          {
            "astId": 2383,
            "contract": "contracts/Executor.sol:Executor",
            "label": "members",
            "offset": 0,
            "slot": "0",
            "type": "t_mapping(t_address,t_bool)"
          },
          {
            "astId": 2385,
            "contract": "contracts/Executor.sol:Executor",
            "label": "adminRole",
            "offset": 0,
            "slot": "1",
            "type": "t_bytes32"
          }
        ],
        "numberOfBytes": "64"
      },
      "t_uint128": {
        "encoding": "inplace",
        "label": "uint128",
        "numberOfBytes": "16"
      },
      "t_uint16": {
        "encoding": "inplace",
        "label": "uint16",
        "numberOfBytes": "2"
      },
      "t_uint256": {
        "encoding": "inplace",
        "label": "uint256",
        "numberOfBytes": "32"
      },
      "t_uint32": {
        "encoding": "inplace",
        "label": "uint32",
        "numberOfBytes": "4"
      },
      "t_uint64": {
        "encoding": "inplace",
        "label": "uint64",
        "numberOfBytes": "8"
      },
      "t_uint8": {
        "encoding": "inplace",
        "label": "uint8",
        "numberOfBytes": "1"
      }
    }
  }
}