{
  "address": "0xef11D1c2aA48826D4c41e54ab82D1Ff5Ad8A64Ca",
  "abi": [
    {
      "inputs": [
        {
          "internalType": "address",
          "name": "_endpoint",
          "type": "address"
        }
      ],
      "stateMutability": "nonpayable",
      "type": "constructor"
    },
    {
      "inputs": [
        {
          "internalType": "uint16",
          "name": "code",
          "type": "uint16"
        },
        {
          "internalType": "bytes",
          "name": "message",
          "type": "bytes"
        }
      ],
      "name": "SimulateRevert",
      "type": "error"
    },
    {
      "anonymous": false,
      "inputs": [
        {
          "indexed": true,
          "internalType": "address",
          "name": "previousOwner",
          "type": "address"
        },
        {
          "indexed": true,
          "internalType": "address",
          "name": "newOwner",
          "type": "address"
        }
      ],
      "name": "OwnershipTransferred",
      "type": "event"
    },
    {
      "anonymous": false,
      "inputs": [
        {
          "indexed": false,
          "internalType": "uint32",
          "name": "eid",
          "type": "uint32"
        },
        {
          "indexed": false,
          "internalType": "bytes32",
          "name": "peer",
          "type": "bytes32"
        },
        {
          "indexed": false,
          "internalType": "bool",
          "name": "active",
          "type": "bool"
        }
      ],
      "name": "SetPeer",
      "type": "event"
    },
    {
      "stateMutability": "payable",
      "type": "fallback"
    },
    {
      "inputs": [],
      "name": "CODE_MISS_SIMULATE_RESULT",
      "outputs": [
        {
          "internalType": "uint16",
          "name": "",
          "type": "uint16"
        }
      ],
      "stateMutability": "view",
      "type": "function"
    },
    {
      "inputs": [],
      "name": "CODE_PACKETS_OVERSIZE",
      "outputs": [
        {
          "internalType": "uint16",
          "name": "",
          "type": "uint16"
        }
      ],
      "stateMutability": "view",
      "type": "function"
    },
    {
      "inputs": [],
      "name": "CODE_PACKETS_UNSORTED",
      "outputs": [
        {
          "internalType": "uint16",
          "name": "",
          "type": "uint16"
        }
      ],
      "stateMutability": "view",
      "type": "function"
    },
    {
      "inputs": [],
      "name": "CODE_PRECRIME_FAILURE",
      "outputs": [
        {
          "internalType": "uint16",
          "name": "",
          "type": "uint16"
        }
      ],
      "stateMutability": "view",
      "type": "function"
    },
    {
      "inputs": [],
      "name": "CODE_SUCCESS",
      "outputs": [
        {
          "internalType": "uint16",
          "name": "",
          "type": "uint16"
        }
      ],
      "stateMutability": "view",
      "type": "function"
    },
    {
      "inputs": [],
      "name": "CONFIG_VERSION",
      "outputs": [
        {
          "internalType": "uint16",
          "name": "",
          "type": "uint16"
        }
      ],
      "stateMutability": "view",
      "type": "function"
    },
    {
      "inputs": [],
      "name": "PRECRIME_VERSION",
      "outputs": [
        {
          "internalType": "uint16",
          "name": "",
          "type": "uint16"
        }
      ],
      "stateMutability": "view",
      "type": "function"
    },
    {
      "inputs": [
        {
          "components": [
            {
              "components": [
                {
                  "internalType": "uint32",
                  "name": "srcEid",
                  "type": "uint32"
                },
                {
                  "internalType": "bytes32",
                  "name": "sender",
                  "type": "bytes32"
                },
                {
                  "internalType": "bytes",
                  "name": "message",
                  "type": "bytes"
                },
                {
                  "internalType": "uint64",
                  "name": "nonce",
                  "type": "uint64"
                }
              ],
              "internalType": "struct ILayerZeroReceiver.MessagingContext",
              "name": "context",
              "type": "tuple"
            },
            {
              "internalType": "bytes32",
              "name": "guid",
              "type": "bytes32"
            },
            {
              "internalType": "bytes",
              "name": "callParams",
              "type": "bytes"
            }
          ],
          "internalType": "struct IPreCrime.Packet[]",
          "name": "_packets",
          "type": "tuple[]"
        }
      ],
      "name": "_simulateAndRevert",
      "outputs": [],
      "stateMutability": "payable",
      "type": "function"
    },
    {
      "inputs": [],
      "name": "admin",
      "outputs": [
        {
          "internalType": "address",
          "name": "",
          "type": "address"
        }
      ],
      "stateMutability": "view",
      "type": "function"
    },
    {
      "inputs": [
        {
          "internalType": "uint32",
          "name": "_eid",
          "type": "uint32"
        },
        {
          "internalType": "bytes32",
          "name": "_peer",
          "type": "bytes32"
        }
      ],
      "name": "assertPeer",
      "outputs": [],
      "stateMutability": "view",
      "type": "function"
    },
    {
      "inputs": [
        {
          "internalType": "uint32[]",
          "name": "_eids",
          "type": "uint32[]"
        },
        {
          "internalType": "uint8[]",
          "name": "_types",
          "type": "uint8[]"
        },
        {
          "internalType": "bytes[]",
          "name": "_options",
          "type": "bytes[]"
        }
      ],
      "name": "batchIncrement",
      "outputs": [],
      "stateMutability": "payable",
      "type": "function"
    },
    {
      "inputs": [
        {
          "internalType": "uint32",
          "name": "_eid",
          "type": "uint32"
        },
        {
          "internalType": "uint8",
          "name": "_type",
          "type": "uint8"
        },
        {
          "internalType": "bytes",
          "name": "_options",
          "type": "bytes"
        }
      ],
      "name": "brokenIncrement",
      "outputs": [],
      "stateMutability": "payable",
      "type": "function"
    },
    {
      "inputs": [
        {
          "internalType": "uint32",
          "name": "_srcEid",
          "type": "uint32"
        },
        {
          "internalType": "bytes32",
          "name": "_sender",
          "type": "bytes32"
        },
        {
          "internalType": "uint64",
          "name": "_nonce",
          "type": "uint64"
        },
        {
          "internalType": "bytes32",
          "name": "_guid",
          "type": "bytes32"
        },
        {
          "internalType": "bytes",
          "name": "_message",
          "type": "bytes"
        }
      ],
      "name": "burn",
      "outputs": [],
      "stateMutability": "nonpayable",
      "type": "function"
    },
    {
      "inputs": [],
      "name": "composedCount",
      "outputs": [
        {
          "internalType": "uint256",
          "name": "",
          "type": "uint256"
        }
      ],
      "stateMutability": "view",
      "type": "function"
    },
    {
      "inputs": [],
      "name": "count",
      "outputs": [
        {
          "internalType": "uint256",
          "name": "",
          "type": "uint256"
        }
      ],
      "stateMutability": "view",
      "type": "function"
    },
    {
      "inputs": [],
      "name": "eid",
      "outputs": [
        {
          "internalType": "uint32",
          "name": "",
          "type": "uint32"
        }
      ],
      "stateMutability": "view",
      "type": "function"
    },
    {
      "inputs": [],
      "name": "endpoint",
      "outputs": [
        {
          "internalType": "contract ILayerZeroEndpoint",
          "name": "",
          "type": "address"
        }
      ],
      "stateMutability": "view",
      "type": "function"
    },
    {
      "inputs": [
        {
          "components": [
            {
              "components": [
                {
                  "internalType": "uint32",
                  "name": "srcEid",
                  "type": "uint32"
                },
                {
                  "internalType": "bytes32",
                  "name": "sender",
                  "type": "bytes32"
                },
                {
                  "internalType": "bytes",
                  "name": "message",
                  "type": "bytes"
                },
                {
                  "internalType": "uint64",
                  "name": "nonce",
                  "type": "uint64"
                }
              ],
              "internalType": "struct ILayerZeroReceiver.MessagingContext",
              "name": "context",
              "type": "tuple"
            },
            {
              "internalType": "bytes32",
              "name": "guid",
              "type": "bytes32"
            },
            {
              "internalType": "bytes",
              "name": "callParams",
              "type": "bytes"
            }
          ],
          "internalType": "struct IPreCrime.Packet[]",
          "name": "_packets",
          "type": "tuple[]"
        }
      ],
      "name": "getPrecrimeConfig",
      "outputs": [
        {
          "internalType": "bytes",
          "name": "",
          "type": "bytes"
        }
      ],
      "stateMutability": "view",
      "type": "function"
    },
    {
      "inputs": [
        {
          "internalType": "uint32",
          "name": "",
          "type": "uint32"
        }
      ],
      "name": "inboundCount",
      "outputs": [
        {
          "internalType": "uint256",
          "name": "",
          "type": "uint256"
        }
      ],
      "stateMutability": "view",
      "type": "function"
    },
    {
      "inputs": [
        {
          "internalType": "uint32",
          "name": "_eid",
          "type": "uint32"
        },
        {
          "internalType": "uint8",
          "name": "_type",
          "type": "uint8"
        },
        {
          "internalType": "bytes",
          "name": "_options",
          "type": "bytes"
        }
      ],
      "name": "increment",
      "outputs": [],
      "stateMutability": "payable",
      "type": "function"
    },
    {
      "inputs": [
        {
          "internalType": "uint32",
          "name": "_eid",
          "type": "uint32"
        },
        {
          "internalType": "bytes32",
          "name": "_peer",
          "type": "bytes32"
        }
      ],
      "name": "isPeer",
      "outputs": [
        {
          "internalType": "bool",
          "name": "",
          "type": "bool"
        }
      ],
      "stateMutability": "view",
      "type": "function"
    },
    {
      "inputs": [],
      "name": "localEid",
      "outputs": [
        {
          "internalType": "uint32",
          "name": "",
          "type": "uint32"
        }
      ],
      "stateMutability": "view",
      "type": "function"
    },
    {
      "inputs": [
        {
          "internalType": "address",
          "name": "",
          "type": "address"
        },
        {
          "internalType": "bytes32",
          "name": "",
          "type": "bytes32"
        },
        {
          "internalType": "bytes",
          "name": "_message",
          "type": "bytes"
        },
        {
          "internalType": "address",
          "name": "",
          "type": "address"
        },
        {
          "internalType": "bytes",
          "name": "",
          "type": "bytes"
        }
      ],
      "name": "lzCompose",
      "outputs": [],
      "stateMutability": "payable",
      "type": "function"
    },
    {
      "inputs": [],
      "name": "lzEndpoint",
      "outputs": [
        {
          "internalType": "contract ILayerZeroEndpoint",
          "name": "",
          "type": "address"
        }
      ],
      "stateMutability": "view",
      "type": "function"
    },
    {
      "inputs": [
        {
          "components": [
            {
              "internalType": "uint32",
              "name": "srcEid",
              "type": "uint32"
            },
            {
              "internalType": "bytes32",
              "name": "sender",
              "type": "bytes32"
            },
            {
              "internalType": "bytes",
              "name": "message",
              "type": "bytes"
            },
            {
              "internalType": "uint64",
              "name": "nonce",
              "type": "uint64"
            }
          ],
          "internalType": "struct ILayerZeroReceiver.MessagingContext",
          "name": "_context",
          "type": "tuple"
        },
        {
          "internalType": "bytes32",
          "name": "_guid",
          "type": "bytes32"
        },
        {
          "internalType": "address",
          "name": "_executor",
          "type": "address"
        },
        {
          "internalType": "bytes",
          "name": "_callerParams",
          "type": "bytes"
        }
      ],
      "name": "lzReceive",
      "outputs": [],
      "stateMutability": "payable",
      "type": "function"
    },
    {
      "inputs": [
        {
          "internalType": "uint32",
          "name": "",
          "type": "uint32"
        },
        {
          "internalType": "bytes32",
          "name": "",
          "type": "bytes32"
        }
      ],
      "name": "maxNonceByPath",
      "outputs": [
        {
          "internalType": "uint64",
          "name": "",
          "type": "uint64"
        }
      ],
      "stateMutability": "view",
      "type": "function"
    },
    {
      "inputs": [
        {
          "internalType": "uint32",
          "name": "_srcEid",
          "type": "uint32"
        },
        {
          "internalType": "bytes32",
          "name": "_sender",
          "type": "bytes32"
        }
      ],
      "name": "nextNonce",
      "outputs": [
        {
          "internalType": "uint64",
          "name": "",
          "type": "uint64"
        }
      ],
      "stateMutability": "view",
      "type": "function"
    },
    {
      "inputs": [],
      "name": "orderedNonce",
      "outputs": [
        {
          "internalType": "bool",
          "name": "",
          "type": "bool"
        }
      ],
      "stateMutability": "view",
      "type": "function"
    },
    {
      "inputs": [
        {
          "internalType": "uint32",
          "name": "",
          "type": "uint32"
        }
      ],
      "name": "outboundCount",
      "outputs": [
        {
          "internalType": "uint256",
          "name": "",
          "type": "uint256"
        }
      ],
      "stateMutability": "view",
      "type": "function"
    },
    {
      "inputs": [],
      "name": "owner",
      "outputs": [
        {
          "internalType": "address",
          "name": "",
          "type": "address"
        }
      ],
      "stateMutability": "view",
      "type": "function"
    },
    {
      "inputs": [],
      "name": "pAdmin",
      "outputs": [
        {
          "internalType": "address",
          "name": "",
          "type": "address"
        }
      ],
      "stateMutability": "view",
      "type": "function"
    },
    {
      "inputs": [],
      "name": "pMaxBatchSize",
      "outputs": [
        {
          "internalType": "uint64",
          "name": "",
          "type": "uint64"
        }
      ],
      "stateMutability": "view",
      "type": "function"
    },
    {
      "inputs": [
        {
          "internalType": "uint32",
          "name": "",
          "type": "uint32"
        }
      ],
      "name": "peers",
      "outputs": [
        {
          "internalType": "bytes32",
          "name": "",
          "type": "bytes32"
        }
      ],
      "stateMutability": "view",
      "type": "function"
    },
    {
      "inputs": [
        {
          "components": [
            {
              "components": [
                {
                  "internalType": "uint32",
                  "name": "srcEid",
                  "type": "uint32"
                },
                {
                  "internalType": "bytes32",
                  "name": "sender",
                  "type": "bytes32"
                },
                {
                  "internalType": "bytes",
                  "name": "message",
                  "type": "bytes"
                },
                {
                  "internalType": "uint64",
                  "name": "nonce",
                  "type": "uint64"
                }
              ],
              "internalType": "struct ILayerZeroReceiver.MessagingContext",
              "name": "context",
              "type": "tuple"
            },
            {
              "internalType": "bytes32",
              "name": "guid",
              "type": "bytes32"
            },
            {
              "internalType": "bytes",
              "name": "callParams",
              "type": "bytes"
            }
          ],
          "internalType": "struct IPreCrime.Packet[]",
          "name": "_packets",
          "type": "tuple[]"
        },
        {
          "internalType": "bytes[]",
          "name": "_simulation",
          "type": "bytes[]"
        }
      ],
      "name": "precrime",
      "outputs": [
        {
          "internalType": "uint16",
          "name": "code",
          "type": "uint16"
        },
        {
          "internalType": "bytes",
          "name": "reason",
          "type": "bytes"
        }
      ],
      "stateMutability": "view",
      "type": "function"
    },
    {
      "inputs": [
        {
          "internalType": "uint32",
          "name": "",
          "type": "uint32"
        }
      ],
      "name": "precrimeEidToPeer",
      "outputs": [
        {
          "internalType": "bytes32",
          "name": "",
          "type": "bytes32"
        }
      ],
      "stateMutability": "view",
      "type": "function"
    },
    {
      "inputs": [
        {
          "internalType": "uint256",
          "name": "",
          "type": "uint256"
        }
      ],
      "name": "precrimeEids",
      "outputs": [
        {
          "internalType": "uint32",
          "name": "",
          "type": "uint32"
        }
      ],
      "stateMutability": "view",
      "type": "function"
    },
    {
      "inputs": [
        {
          "internalType": "uint256",
          "name": "",
          "type": "uint256"
        }
      ],
      "name": "precrimePeers",
      "outputs": [
        {
          "internalType": "bytes32",
          "name": "",
          "type": "bytes32"
        }
      ],
      "stateMutability": "view",
      "type": "function"
    },
    {
      "inputs": [],
      "name": "precrimeVersion",
      "outputs": [
        {
          "internalType": "uint16",
          "name": "",
          "type": "uint16"
        }
      ],
      "stateMutability": "pure",
      "type": "function"
    },
    {
      "inputs": [
        {
          "internalType": "uint32",
          "name": "_eid",
          "type": "uint32"
        },
        {
          "internalType": "uint8",
          "name": "_type",
          "type": "uint8"
        },
        {
          "internalType": "bytes",
          "name": "_options",
          "type": "bytes"
        }
      ],
      "name": "quote",
      "outputs": [
        {
          "internalType": "uint256",
          "name": "nativeFee",
          "type": "uint256"
        },
        {
          "internalType": "uint256",
          "name": "zroFee",
          "type": "uint256"
        }
      ],
      "stateMutability": "view",
      "type": "function"
    },
    {
      "inputs": [],
      "name": "renounceOwnership",
      "outputs": [],
      "stateMutability": "nonpayable",
      "type": "function"
    },
    {
      "inputs": [
        {
          "internalType": "address",
          "name": "_messageLib",
          "type": "address"
        },
        {
          "internalType": "uint32[]",
          "name": "_eids",
          "type": "uint32[]"
        }
      ],
      "name": "resetConfig",
      "outputs": [],
      "stateMutability": "nonpayable",
      "type": "function"
    },
    {
      "inputs": [
        {
          "internalType": "uint32",
          "name": "_eid",
          "type": "uint32"
        }
      ],
      "name": "safeGetPeer",
      "outputs": [
        {
          "internalType": "bytes32",
          "name": "peer",
          "type": "bytes32"
        }
      ],
      "stateMutability": "view",
      "type": "function"
    },
    {
      "inputs": [
        {
          "internalType": "address",
          "name": "_admin",
          "type": "address"
        }
      ],
      "name": "setAdmin",
      "outputs": [],
      "stateMutability": "nonpayable",
      "type": "function"
    },
    {
      "inputs": [
        {
          "internalType": "address",
          "name": "_messageLib",
          "type": "address"
        },
        {
          "internalType": "uint32",
          "name": "_eid",
          "type": "uint32"
        },
        {
          "internalType": "uint32",
          "name": "_configType",
          "type": "uint32"
        },
        {
          "internalType": "bytes",
          "name": "_config",
          "type": "bytes"
        }
      ],
      "name": "setConfig",
      "outputs": [],
      "stateMutability": "nonpayable",
      "type": "function"
    },
    {
      "inputs": [
        {
          "internalType": "bool",
          "name": "_orderedNonce",
          "type": "bool"
        }
      ],
      "name": "setOrderedNonce",
      "outputs": [],
      "stateMutability": "nonpayable",
      "type": "function"
    },
    {
      "inputs": [
        {
          "internalType": "uint32",
          "name": "_eid",
          "type": "uint32"
        },
        {
          "internalType": "bytes32",
          "name": "_peer",
          "type": "bytes32"
        },
        {
          "internalType": "bool",
          "name": "_active",
          "type": "bool"
        }
      ],
      "name": "setPeer",
      "outputs": [],
      "stateMutability": "nonpayable",
      "type": "function"
    },
    {
      "inputs": [
        {
          "internalType": "address",
          "name": "_admin",
          "type": "address"
        }
      ],
      "name": "setPrecrimeAdmin",
      "outputs": [],
      "stateMutability": "nonpayable",
      "type": "function"
    },
    {
      "inputs": [
        {
          "internalType": "uint64",
          "name": "_maxBatchSize",
          "type": "uint64"
        }
      ],
      "name": "setPrecrimeMaxBatchSize",
      "outputs": [],
      "stateMutability": "nonpayable",
      "type": "function"
    },
    {
      "inputs": [
        {
          "internalType": "uint32[]",
          "name": "_eids",
          "type": "uint32[]"
        },
        {
          "internalType": "bytes32[]",
          "name": "_peers",
          "type": "bytes32[]"
        }
      ],
      "name": "setPrecrimePeers",
      "outputs": [],
      "stateMutability": "nonpayable",
      "type": "function"
    },
    {
      "inputs": [
        {
          "internalType": "uint32",
          "name": "_eid",
          "type": "uint32"
        },
        {
          "internalType": "address",
          "name": "_newLib",
          "type": "address"
        },
        {
          "internalType": "uint256",
          "name": "_gracePeriod",
          "type": "uint256"
        }
      ],
      "name": "setReceiveMessageLib",
      "outputs": [],
      "stateMutability": "nonpayable",
      "type": "function"
    },
    {
      "inputs": [
        {
          "internalType": "uint32",
          "name": "_eid",
          "type": "uint32"
        },
        {
          "internalType": "address",
          "name": "_lib",
          "type": "address"
        },
        {
          "internalType": "uint256",
          "name": "_timeout",
          "type": "uint256"
        }
      ],
      "name": "setReceiveMessageLibTimeout",
      "outputs": [],
      "stateMutability": "nonpayable",
      "type": "function"
    },
    {
      "inputs": [
        {
          "internalType": "uint32",
          "name": "_eid",
          "type": "uint32"
        },
        {
          "internalType": "address",
          "name": "_newLib",
          "type": "address"
        }
      ],
      "name": "setSendMessageLib",
      "outputs": [],
      "stateMutability": "nonpayable",
      "type": "function"
    },
    {
      "inputs": [
        {
          "components": [
            {
              "components": [
                {
                  "internalType": "uint32",
                  "name": "srcEid",
                  "type": "uint32"
                },
                {
                  "internalType": "bytes32",
                  "name": "sender",
                  "type": "bytes32"
                },
                {
                  "internalType": "bytes",
                  "name": "message",
                  "type": "bytes"
                },
                {
                  "internalType": "uint64",
                  "name": "nonce",
                  "type": "uint64"
                }
              ],
              "internalType": "struct ILayerZeroReceiver.MessagingContext",
              "name": "context",
              "type": "tuple"
            },
            {
              "internalType": "bytes32",
              "name": "guid",
              "type": "bytes32"
            },
            {
              "internalType": "bytes",
              "name": "callParams",
              "type": "bytes"
            }
          ],
          "internalType": "struct IPreCrime.Packet[]",
          "name": "_packets",
          "type": "tuple[]"
        }
      ],
      "name": "simulate",
      "outputs": [
        {
          "internalType": "uint16",
          "name": "code",
          "type": "uint16"
        },
        {
          "internalType": "bytes",
          "name": "data",
          "type": "bytes"
        }
      ],
      "stateMutability": "payable",
      "type": "function"
    },
    {
      "inputs": [
        {
          "components": [
            {
              "components": [
                {
                  "internalType": "uint32",
                  "name": "srcEid",
                  "type": "uint32"
                },
                {
                  "internalType": "bytes32",
                  "name": "sender",
                  "type": "bytes32"
                },
                {
                  "internalType": "bytes",
                  "name": "message",
                  "type": "bytes"
                },
                {
                  "internalType": "uint64",
                  "name": "nonce",
                  "type": "uint64"
                }
              ],
              "internalType": "struct ILayerZeroReceiver.MessagingContext",
              "name": "context",
              "type": "tuple"
            },
            {
              "internalType": "bytes32",
              "name": "guid",
              "type": "bytes32"
            },
            {
              "internalType": "bytes",
              "name": "callParams",
              "type": "bytes"
            }
          ],
          "internalType": "struct IPreCrime.Packet[]",
          "name": "",
          "type": "tuple[]"
        }
      ],
      "name": "simulateView",
      "outputs": [
        {
          "internalType": "uint16",
          "name": "",
          "type": "uint16"
        },
        {
          "internalType": "bytes",
          "name": "",
          "type": "bytes"
        }
      ],
      "stateMutability": "pure",
      "type": "function"
    },
    {
      "inputs": [
        {
          "internalType": "uint32",
          "name": "_srcEid",
          "type": "uint32"
        },
        {
          "internalType": "bytes32",
          "name": "_sender",
          "type": "bytes32"
        },
        {
          "internalType": "uint64",
          "name": "_nonce",
          "type": "uint64"
        }
      ],
      "name": "skipInboundNonce",
      "outputs": [],
      "stateMutability": "nonpayable",
      "type": "function"
    },
    {
      "inputs": [
        {
          "internalType": "address",
          "name": "_messageLib",
          "type": "address"
        },
        {
          "internalType": "uint32[]",
          "name": "_eids",
          "type": "uint32[]"
        }
      ],
      "name": "snapshotConfig",
      "outputs": [],
      "stateMutability": "nonpayable",
      "type": "function"
    },
    {
      "inputs": [
        {
          "internalType": "address",
          "name": "newOwner",
          "type": "address"
        }
      ],
      "name": "transferOwnership",
      "outputs": [],
      "stateMutability": "nonpayable",
      "type": "function"
    },
    {
      "inputs": [],
      "name": "version",
      "outputs": [
        {
          "internalType": "uint256",
          "name": "",
          "type": "uint256"
        }
      ],
      "stateMutability": "view",
      "type": "function"
    },
    {
      "inputs": [
        {
          "internalType": "address payable",
          "name": "_to",
          "type": "address"
        },
        {
          "internalType": "uint256",
          "name": "_amount",
          "type": "uint256"
        }
      ],
      "name": "withdraw",
      "outputs": [],
      "stateMutability": "nonpayable",
      "type": "function"
    },
    {
      "stateMutability": "payable",
      "type": "receive"
    }
  ],
  "transactionHash": "0xc6a5bbad07c8fe2a705a0f3b110852b8c3bcbe22ca66e666ef848be64cdab62e",
  "args": [
    "0x71C95911E9a5D330f4D621842EC243EE1343292e"
  ],
  "numDeployments": 1,
  "solcInputHash": "c8b47804361e5cf76333cc7a8dd4cabc",
  "bytecode": "0x60c060405260016002553480156200001657600080fd5b50604051620060a4380380620060a48339810160408190526200003991620001e5565b8080808080620000493362000195565b6001600160a01b03166080819052600580546001600160a01b031916331790556040805163416ecebf60e01b8152905163416ecebf916004808201926020929091908290030181865afa158015620000a5573d6000803e3d6000fd5b505050506040513d601f19601f82011682018060405250810190620000cb919062000217565b6005805463ffffffff92909216600160a01b0263ffffffff60a01b19909216919091179055506001600160a01b03811660a08190526040805163416ecebf60e01b8152905163416ecebf916004808201926020929091908290030181865afa1580156200013c573d6000803e3d6000fd5b505050506040513d601f19601f8201168201806040525081019062000162919062000217565b600a805463ffffffff929092166001600160c01b0319909216919091173364010000000002179055506200023f92505050565b600080546001600160a01b038381166001600160a01b0319831681178455604051919092169283917f8be0079c531659141344cd1fd0a4f28419497f9722a3daafe3b4186f6b6457e09190a35050565b600060208284031215620001f857600080fd5b81516001600160a01b03811681146200021057600080fd5b9392505050565b6000602082840312156200022a57600080fd5b815163ffffffff811681146200021057600080fd5b60805160a051615ddd620002c76000396000818161086b01526120d701526000818161064901528181610aab01528181610b400152818161130f01528181611482015281816116dd015281816117c00152818161190d0152818161197901528181611a7e01528181611c8301528181611ef5015281816128770152612c2e0152615ddd6000f3fe6080604052600436106102f85760003560e01c80636ece7d3611610190578063baa460fd116100dc578063e2a0844e1161008d578063e2a0844e14610998578063e51ac4b0146109b8578063e76d614f146109df578063e9b1796c14610a0c578063f2fde38b14610a2c578063f3fef3a314610a4c578063f851a44014610a6c578063f95d1404146104dd57005b8063baa460fd146108ba578063bb0b6a53146108da578063bc4374f914610907578063c6be4b9b14610927578063c95c55be1461093d578063d0a1026014610950578063d22446ce1461096357005b80638da5cb5b116101415780638da5cb5b146107d557806392d99a7f146107f357806398166ccc146108135780639e7fffcc14610826578063ae14023b14610846578063b353aaa714610859578063b7abbb5d1461088d578063b7bc8acd146108a057005b80636ece7d3614610703578063704b6c02146107235780637112f86f14610743578063715018a61461076357806372607537146107785780637624f505146107955780637d25a05e146107b557005b806335d671de1161024f5780635a0dfe4d116102005780635a0dfe4d146105c75780635b849af6146105f75780635bf88a00146106175780635e280f11146106375780636052d3c714610683578063622f17f6146106965780636a0494af146106c35780636d41812d146106e357005b806335d671de146104f2578063416ecebf14610520578063472641c1146104dd578063542e7b561461054457806354b3ab691461055757806354fd4d501461058457806356a472891461059a57005b80631f2fac53116102a95780631f2fac53146103de578063257f4e051461043757806326b27f841461044d57806329c246281461046d5780632c79305d146104a257806330515e56146104b657806334e30097146104dd57005b806303e83c13146103015780630638fb641461032157806306661abd1461034f5780630678327f146103735780630e735a631461039357806312fb9ea5146103a957806317c9efb0146103c957005b366102ff57005b005b34801561030d57600080fd5b506102ff61031c366004614762565b610a8c565b34801561032d57600080fd5b5061033761019081565b60405161ffff90911681526020015b60405180910390f35b34801561035b57600080fd5b5061036560035481565b604051908152602001610346565b34801561037f57600080fd5b506102ff61038e366004614821565b610b21565b34801561039f57600080fd5b5061033761019181565b3480156103b557600080fd5b506103656103c4366004614875565b610bb0565b3480156103d557600080fd5b50610337600081565b3480156103ea57600080fd5b5061041f6103f936600461488e565b60066020908152600092835260408084209091529082529020546001600160401b031681565b6040516001600160401b039091168152602001610346565b34801561044357600080fd5b5061036560045481565b34801561045957600080fd5b506103656104683660046148ba565b610bd1565b34801561047957600080fd5b5061048d610488366004614875565b610c35565b60405163ffffffff9091168152602001610346565b3480156104ae57600080fd5b506001610337565b3480156104c257600080fd5b50600a5461041f90600160c01b90046001600160401b031681565b3480156104e957600080fd5b50610337600181565b3480156104fe57600080fd5b5061051261050d3660046148d7565b610c6f565b604051610346929190614968565b34801561052c57600080fd5b5060055461048d90600160a01b900463ffffffff1681565b6102ff610552366004614985565b610caf565b34801561056357600080fd5b506103656105723660046148ba565b600d6020526000908152604090205481565b34801561059057600080fd5b5061036560025481565b3480156105a657600080fd5b506103656105b53660046148ba565b60086020526000908152604090205481565b3480156105d357600080fd5b506105e76105e236600461488e565b610e75565b6040519015158152602001610346565b34801561060357600080fd5b506102ff610612366004614a2e565b610e94565b34801561062357600080fd5b506102ff610632366004614b89565b610eaf565b34801561064357600080fd5b5061066b7f000000000000000000000000000000000000000000000000000000000000000081565b6040516001600160a01b039091168152602001610346565b6105126106913660046148d7565b610f82565b3480156106a257600080fd5b506103656106b13660046148ba565b60096020526000908152604090205481565b3480156106cf57600080fd5b506105126106de366004614c4a565b611178565b3480156106ef57600080fd5b506102ff6106fe366004614cca565b6112f0565b34801561070f57600080fd5b506102ff61071e366004614d33565b6113a4565b34801561072f57600080fd5b506102ff61073e366004614d50565b6113fd565b34801561074f57600080fd5b506102ff61075e366004614d6d565b611449565b34801561076f57600080fd5b506102ff611552565b34801561078457600080fd5b50600a5461048d9063ffffffff1681565b3480156107a157600080fd5b506102ff6107b0366004614daf565b611566565b3480156107c157600080fd5b5061041f6107d036600461488e565b61162b565b3480156107e157600080fd5b506000546001600160a01b031661066b565b3480156107ff57600080fd5b506102ff61080e366004614d50565b61167d565b6102ff610821366004614ded565b6116db565b34801561083257600080fd5b506102ff610841366004614821565b6117a1565b6102ff6108543660046148d7565b6117f9565b34801561086557600080fd5b5061066b7f000000000000000000000000000000000000000000000000000000000000000081565b6102ff61089b366004614e7d565b61186c565b3480156108ac57600080fd5b506007546105e79060ff1681565b3480156108c657600080fd5b506102ff6108d5366004614ed3565b6118ee565b3480156108e657600080fd5b506103656108f53660046148ba565b60016020526000908152604090205481565b34801561091357600080fd5b506102ff610922366004614f14565b611946565b34801561093357600080fd5b5061033761019281565b6102ff61094b366004614e7d565b6119d1565b6102ff61095e366004614f4d565b611a73565b34801561096f57600080fd5b5061098361097e366004614e7d565b611bf6565b60408051928352602083019190915201610346565b3480156109a457600080fd5b506102ff6109b3366004614ed3565b611c64565b3480156109c457600080fd5b50600a5461066b90600160201b90046001600160a01b031681565b3480156109eb57600080fd5b506109ff6109fa3660046148d7565b611cbc565b6040516103469190614fed565b348015610a1857600080fd5b506102ff610a2736600461488e565b611d18565b348015610a3857600080fd5b506102ff610a47366004614d50565b611d67565b348015610a5857600080fd5b506102ff610a67366004615000565b611de0565b348015610a7857600080fd5b5060055461066b906001600160a01b031681565b610a94611e40565b6040516303e83c1360e01b81526001600160a01b037f000000000000000000000000000000000000000000000000000000000000000016906303e83c1390610ae89088908890889088908890600401615047565b600060405180830381600087803b158015610b0257600080fd5b505af1158015610b16573d6000803e3d6000fd5b505050505050505050565b610b29611e40565b604051630678327f60e01b81526001600160a01b037f00000000000000000000000000000000000000000000000000000000000000001690630678327f90610b799086908690869060040161508b565b600060405180830381600087803b158015610b9357600080fd5b505af1158015610ba7573d6000803e3d6000fd5b50505050505050565b600c8181548110610bc057600080fd5b600091825260209091200154905081565b63ffffffff811660009081526001602052604090205480610c305760405162461bcd60e51b81526020600482015260146024820152731419595c8e881c19595c881b9bdd08199bdd5b9960621b60448201526064015b60405180910390fd5b919050565b600b8181548110610c4557600080fd5b9060005260206000209060089182820401919006600402915054906101000a900463ffffffff1681565b60405162461bcd60e51b815260206004820152600f60248201526e1b9bdd081a5b5c1b195b595b9d1959608a1b6044820152600090606090606401610c27565b8481148015610cbd57508483145b610d095760405162461bcd60e51b815260206004820152601c60248201527f4f6d6e69436f756e7465723a206c656e677468206d69736d61746368000000006044820152606401610c27565b610d116145b8565b3460005b87811015610b16576000610d2a60018a6150ff565b8214610d365730610d38565b335b90506000610d7b898985818110610d5157610d51615112565b9050602002016020810190610d669190615128565b600554600160a01b900463ffffffff16611e9a565b9050610e1d8b8b85818110610d9257610d92615112565b9050602002016020810190610da791906148ba565b82898987818110610dba57610dba615112565b9050602002810190610dcc9190615143565b8080601f0160208091040260200160405190810160405280939291908181526020018383808284376000920182905250604080518082019091528c815260208101919091529250889150611edc9050565b9450610e4e8b8b85818110610e3457610e34615112565b9050602002016020810190610e4991906148ba565b611fc1565b604085015151610e5e90856150ff565b935050508080610e6d90615189565b915050610d15565b63ffffffff821660009081526001602052604090205481145b92915050565b610e9c611e40565b6007805460ff1916911515919091179055565b600a54600160201b90046001600160a01b03163314610ee05760405162461bcd60e51b8152600401610c27906151a2565b8151610ef390600b9060208501906145ff565b508051610f0790600c9060208401906146aa565b5060005b8251811015610f7d57818181518110610f2657610f26615112565b6020026020010151600d6000858481518110610f4457610f44615112565b602002602001015163ffffffff1663ffffffff168152602001908152602001600020819055508080610f7590615189565b915050610f0b565b505050565b60006060323314610fd55760405162461bcd60e51b815260206004820152601a60248201527f6f6e6c7920454f412063616e2063616c6c2073696d756c6174650000000000006044820152606401610c27565b610fdf8484611fea565b909250905061ffff821661117157600080306001600160a01b03163463ae14023b60e01b888860405160240161101692919061520b565b60408051601f198184030181529181526020820180516001600160e01b03166001600160e01b0319909416939093179092529051611054919061531f565b60006040518083038185875af1925050503d8060008114611091576040519150601f19603f3d011682016040523d82523d6000602084013e611096565b606091505b50909250905034156110d05760405133903480156108fc02916000818181858888f193505050501580156110ce573d6000803e3d6000fd5b505b811561112a5760405162461bcd60e51b8152602060048201526024808201527f73696d756c6174652073686f756c64206e657665722072657475726e207375636044820152636365737360e01b6064820152608401610c27565b6111338161227d565b909450925061ffff841661116e57600a5460405161115c9163ffffffff1690859060200161533b565b60405160208183030381529060405292505b50505b9250929050565b6000606081836001600160401b0381111561119557611195614a49565b6040519080825280602002602001820160405280156111c857816020015b60608152602001906001900390816111b35790505b5090506000846001600160401b038111156111e5576111e5614a49565b60405190808252806020026020018201604052801561120e578160200160208202803683370190505b50905060005b858110156112b45760008088888481811061123157611231615112565b90506020028101906112439190615143565b81019061125091906153d2565b915091508184848151811061126757611267615112565b602002602001019063ffffffff16908163ffffffff16815250508085848151811061129457611294615112565b6020026020010181905250505080806112ac90615189565b915050611214565b506112c08888836122cc565b909450925061ffff8416156112d65750506112e7565b6112df8261247d565b909450925050505b94509492505050565b6112f8611e40565b604051635a898aef60e11b81526001600160a01b037f0000000000000000000000000000000000000000000000000000000000000000169063b51315de9061134e90899089908990899089908990600401615417565b6020604051808303816000875af115801561136d573d6000803e3d6000fd5b505050506040513d601f19601f820116820180604052508101906113919190615452565b5061139c8686611d18565b505050505050565b600a54600160201b90046001600160a01b031633146113d55760405162461bcd60e51b8152600401610c27906151a2565b600a80546001600160401b03909216600160c01b026001600160c01b03909216919091179055565b6005546001600160a01b031633146114275760405162461bcd60e51b8152600401610c27906151a2565b600580546001600160a01b0319166001600160a01b0392909216919091179055565b611451611e40565b60405163eaeacd6360e01b815263ffffffff84166004820152602481018390526001600160401b03821660448201527f00000000000000000000000000000000000000000000000000000000000000006001600160a01b03169063eaeacd6390606401600060405180830381600087803b1580156114ce57600080fd5b505af11580156114e2573d6000803e3d6000fd5b505060075460ff16159150610f7d90505763ffffffff83166000908152600660209081526040808320858452909152812080546001600160401b0316916115288361546b565b91906101000a8154816001600160401b0302191690836001600160401b0316021790555050505050565b61155a611e40565b6115646000612694565b565b61156e611e40565b63ffffffff8316600090815260016020526040902054151581151581036115cd5760405162461bcd60e51b8152602060048201526013602482015272506565723a20696e76616c696420737461746560681b6044820152606401610c27565b63ffffffff84166000818152600160209081526040918290208690558151928352820185905283151582820152517fc55181d68816686be8ec55890d24aefed84c9a6a875145822aad2b2c950f027f9181900360600190a150505050565b60075460009060ff16156116755763ffffffff8316600090815260066020908152604080832085845290915290205461166e906001600160401b03166001615491565b9050610e8e565b506000610e8e565b600a54600160201b90046001600160a01b031633146116ae5760405162461bcd60e51b8152600401610c27906151a2565b600a80546001600160a01b03909216600160201b02640100000000600160c01b0319909216919091179055565b7f00000000000000000000000000000000000000000000000000000000000000006001600160a01b031633146117495760405162461bcd60e51b81526020600482015260136024820152724f4170703a20656e64706f696e74206f6e6c7960681b6044820152606401610c27565b61176361175960208701876148ba565b8660200135611d18565b61178d61177360208701876148ba565b60208701356117886080890160608a01614d33565b6126e4565b61179a85858585856127d8565b5050505050565b6117a9611e40565b60405163279ffff360e21b81526001600160a01b037f00000000000000000000000000000000000000000000000000000000000000001690639e7fffcc90610b799086908690869060040161508b565b33301461183e5760405162461bcd60e51b8152602060048201526013602482015272283932b1b934b6b29d1037b7363c9039b2b63360691b6044820152606401610c27565b60008061184b848461298b565b915091508181604051631f78298160e11b8152600401610c27929190614968565b600061188a84600560149054906101000a900463ffffffff16611e9a565b90506118e4858285858080601f01602080910402602001604051908101604052809392919081815260200183838082843760009201829052506040805180820190915234815260208101919091529250339150611edc9050565b5061179a85611fc1565b6118f6611e40565b60405163b8849ac960e01b81526001600160a01b037f0000000000000000000000000000000000000000000000000000000000000000169063b8849ac990610b79908690869086906004016154b8565b61194e611e40565b60405163e16f964d60e01b815263ffffffff831660048201526001600160a01b0382811660248301527f0000000000000000000000000000000000000000000000000000000000000000169063e16f964d90604401600060405180830381600087803b1580156119bd57600080fd5b505af115801561139c573d6000803e3d6000fd5b6005546001600160a01b031633146119fb5760405162461bcd60e51b8152600401610c27906151a2565b6000611a1984600560149054906101000a900463ffffffff16611e9a565b905061139c858285858080601f01602080910402602001604051908101604052809392919081815260200183838082843760009201829052506040805180820190915234815260208101919091529250339150611edc9050565b336001600160a01b037f00000000000000000000000000000000000000000000000000000000000000001614611ad75760405162461bcd60e51b815260206004820152600960248201526808595b991c1bda5b9d60ba1b6044820152606401610c27565b6000611ae38686612b6e565b905060011960ff821601611b0f57600160046000828254611b0491906154df565b90915550611bec9050565b60031960ff821601611bad57600160046000828254611b2e91906154df565b9091555060009050611b408787612b90565b9050611b4b81611fc1565b6000611b6562030d406000611b5e612bb2565b9190612c02565b9050611ba582611b886001600560149054906101000a900463ffffffff16611e9a565b836040518060400160405280348152602001600081525030611edc565b505050611bec565b60405162461bcd60e51b8152602060048201526014602482015273696e76616c6964206d657373616765207479706560601b6044820152606401610c27565b5050505050505050565b600080611c5786611c1987600560149054906101000a900463ffffffff16611e9a565b600087878080601f016020809104026020016040519081016040528093929190818152602001838380828437600092019190915250612c2792505050565b9150915094509492505050565b611c6c611e40565b60405163335fa1eb60e11b81526001600160a01b037f000000000000000000000000000000000000000000000000000000000000000016906366bf43d690610b79908690869086906004016154b8565b6060600080611ccb8585612cd6565b915091506001600a60189054906101000a90046001600160401b031683518484604051602001611cff9594939291906154f2565b6040516020818303038152906040529250505092915050565b611d228282610e75565b611d635760405162461bcd60e51b81526020600482015260126024820152712832b2b91d1034b73b30b634b2103832b2b960711b6044820152606401610c27565b5050565b611d6f611e40565b6001600160a01b038116611dd45760405162461bcd60e51b815260206004820152602660248201527f4f776e61626c653a206e6577206f776e657220697320746865207a65726f206160448201526564647265737360d01b6064820152608401610c27565b611ddd81612694565b50565b6005546001600160a01b03163314611e0a5760405162461bcd60e51b8152600401610c27906151a2565b6040516001600160a01b0383169082156108fc029083906000818181858888f19350505050158015610f7d573d6000803e3d6000fd5b6000546001600160a01b031633146115645760405162461bcd60e51b815260206004820181905260248201527f4f776e61626c653a2063616c6c6572206973206e6f7420746865206f776e65726044820152606401610c27565b6040805160f89390931b6001600160f81b031916602084015260e09190911b6001600160e01b0319166021830152805160058184030181526025909201905290565b611ee46145b8565b6000611eef87610bd1565b905060007f00000000000000000000000000000000000000000000000000000000000000006001600160a01b031663aca1b45a866000015160405180608001604052808c63ffffffff1681526020018681526020018b81526020018a8152508860200151886040518563ffffffff1660e01b8152600401611f7293929190615585565b60806040518083038185885af1158015611f90573d6000803e3d6000fd5b50505050506040513d601f19601f82011682018060405250810190611fb5919061562a565b98975050505050505050565b63ffffffff81166000908152600960205260408120805491611fe283615189565b919050555050565b600a54600090606090600160c01b90046001600160401b031683111561205257600a546101909061202a90600160c01b90046001600160401b0316612dd4565b60405160200161203a9190615674565b60405160208183030381529060405291509150611171565b82156122635760008080805b8681101561225e57600088888381811061207a5761207a615112565b905060200281019061208c91906156b9565b612095906156cf565b80515190915063ffffffff86811691161415806120b757508051602001518414155b156121e657805180516020820151606090920151909650909450925060007f00000000000000000000000000000000000000000000000000000000000000006001600160a01b03166344760576306040516001600160e01b031960e084901b1681526001600160a01b03909116600482015263ffffffff8916602482015260448101889052606401602060405180830381865afa15801561215c573d6000803e3d6000fd5b505050506040513d601f19601f8201168201806040525081019061218091906157a9565b61218b906001615491565b9050806001600160401b0316846001600160401b0316146121e0576101916121b284612dd4565b6040516020016121c291906157c6565b60405160208183030381529060405297509750505050505050611171565b5061224b565b6121ef8361546b565b9250826001600160401b03168160000151606001516001600160401b03161461224b5761019161221e83612dd4565b60405160200161222e9190615818565b604051602081830303815290604052965096505050505050611171565b508061225681615189565b91505061205e565b505050505b505060408051602081019091526000808252909250929050565b60006060631f78298160e11b6122928461585d565b6001600160e01b031916146122a957825160208401fd5b600483019250828060200190518101906122c39190615894565b91509150915091565b6000606083156123bf5760006122e28686612cd6565b50905060005b81518110156123bc576000805b865181101561235e5783838151811061231057612310615112565b602002602001015163ffffffff1687828151811061233057612330615112565b602002602001015163ffffffff160361234c576001915061235e565b8061235681615189565b9150506122f5565b50806123a9576101926040518060400160405280601e81526020017f6d697373696e6720706565722073696d756c6174696f6e20726573756c74000081525094509450505050612475565b50806123b481615189565b9150506122e8565b50505b6000805b845181101561241a57600a54855163ffffffff909116908690839081106123ec576123ec615112565b602002602001015163ffffffff1603612408576001915061241a565b8061241281615189565b9150506123c3565b508061246057505060408051808201909152601f81527f6d697373696e67206c6f63616c2073696d756c6174696f6e20726573756c740060208201526101929150612475565b50506040805160208101909152600080825291505b935093915050565b600060606124a46040518060400160405280600063ffffffff168152602001606081525090565b600084516001600160401b038111156124bf576124bf614a49565b60405190808252806020026020018201604052801561250557816020015b6040805180820190915260008152606060208201528152602001906001900390816124dd5790505b50905060005b85518110156125c45785818151811061252657612526615112565b60200260200101518060200190518101906125419190615927565b82828151811061255357612553615112565b6020908102919091010152600a54825163ffffffff9091169083908390811061257e5761257e615112565b60200260200101516000015163ffffffff16036125b2578181815181106125a7576125a7615112565b602002602001015192505b806125bc81615189565b91505061250b565b5060005b81518110156126765760006125fa848484815181106125e9576125e9615112565b602002602001015160000151612e66565b509050600061262d84848151811061261457612614615112565b6020908102919091010151600a5463ffffffff16612e66565b91505080821115612661576001604051806060016040528060318152602001615d7760319139965096505050505050915091565b5050808061266e90615189565b9150506125c8565b50600060405180602001604052806000815250935093505050915091565b600080546001600160a01b038381166001600160a01b0319831681178455604051919092169283917f8be0079c531659141344cd1fd0a4f28419497f9722a3daafe3b4186f6b6457e09190a35050565b63ffffffff831660009081526006602090815260408083208584529091529020546007546001600160401b039091169060ff161561277d57612727816001615491565b6001600160401b0316826001600160401b03161461277d5760405162461bcd60e51b81526020600482015260136024820152724f4170703a20696e76616c6964206e6f6e636560681b6044820152606401610c27565b806001600160401b0316826001600160401b031611156127d25763ffffffff841660009081526006602090815260408083208684529091529020805467ffffffffffffffff19166001600160401b0384161790555b50505050565b60006127ef6127ea6040880188615143565b612b6e565b905060001960ff82160161282d576003805490600061280d83615189565b90915550612828905061282360208801886148ba565b612f1a565b61139c565b60ff811660021480612842575060ff81166004145b15612901576003805490600061285783615189565b9091555061286d905061282360208801886148ba565b6001600160a01b037f00000000000000000000000000000000000000000000000000000000000000001663754d3b9c30876128ab60408b018b615143565b6040518563ffffffff1660e01b81526004016128ca9493929190615a35565b600060405180830381600087803b1580156128e457600080fd5b505af11580156128f8573d6000803e3d6000fd5b5050505061139c565b60021960ff821601611bad576003805490600061291d83615189565b90915550612933905061282360208801886148ba565b612943610e4960208801886148ba565b600061295662030d406000611b5e612bb2565b905061298461296860208901896148ba565b600554611b8890600190600160a01b900463ffffffff16611e9a565b505061139c565b6000606060005b838110156129d8576129c68585838181106129af576129af615112565b90506020028101906129c191906156b9565b612f3b565b806129d081615189565b915050612992565b50600b546000906001600160401b038111156129f6576129f6614a49565b604051908082528060200260200182016040528015612a5157816020015b612a3e6040518060600160405280600063ffffffff16815260200160008152602001600081525090565b815260200190600190039081612a145790505b50905060005b600b54811015612b26576000600b8281548110612a7657612a76615112565b90600052602060002090600891828204019190066004029054906101000a900463ffffffff16905060405180606001604052808263ffffffff168152602001612ad18363ffffffff1660009081526008602052604090205490565b8152602001612af28363ffffffff1660009081526009602052604090205490565b815250838381518110612b0757612b07615112565b6020026020010181905250508080612b1e90615189565b915050612a57565b50604080518082018252600a5463ffffffff16815260208082018490529151600092612b53929101615a67565b60405160208183030381529060405292509250509250929050565b6000612b7d6001828486615ae2565b612b8691615b0c565b60f81c9392505050565b6000612b9f8260018186615ae2565b612ba891615b3c565b60e01c9392505050565b60408051600080825260208201909252606091612bfd9190612bf7565b604080518082019091526000815260606020820152815260200190600190039081612bcf5790505b50612fb0565b905090565b60606000612c1084846130eb565b9050612c1e85600183613190565b95945050505050565b60008060007f00000000000000000000000000000000000000000000000000000000000000006001600160a01b03166383c4755930898989896040518663ffffffff1660e01b8152600401612c80959493929190615b6a565b6040805180830381865afa158015612c9c573d6000803e3d6000fd5b505050506040513d601f19601f82011682018060405250810190612cc09190615bb4565b8051602090910151909890975095505050505050565b6060806000839003612dbf57600b600c81805480602002602001604051908101604052809291908181526020018280548015612d5d57602002820191906000526020600020906000905b82829054906101000a900463ffffffff1663ffffffff1681526020019060040190602082600301049283019260010382029150808411612d205790505b5050505050915080805480602002602001604051908101604052809291908181526020018280548015612daf57602002820191906000526020600020905b815481526020019060010190808311612d9b575b5050505050905091509150611171565b612dc984846132b9565b915091509250929050565b60606000612de1836134e1565b60010190506000816001600160401b03811115612e0057612e00614a49565b6040519080825280601f01601f191660200182016040528015612e2a576020820181803683370190505b5090508181016020015b600019016f181899199a1a9b1b9c1cb0b131b232b360811b600a86061a8153600a8504945084612e3457509392505050565b60008060005b846020015151811015612f0d578363ffffffff1685602001518281518110612e9657612e96615112565b60200260200101516000015163ffffffff1603612efb5784602001518181518110612ec357612ec3615112565b60200260200101516020015185602001518281518110612ee557612ee5615112565b6020026020010151604001519250925050611171565b80612f0581615189565b915050612e6c565b5060009485945092505050565b63ffffffff81166000908152600860205260408120805491611fe283615189565b6000612f478280615bd0565b6020013560016000612f598580615bd0565b612f679060208101906148ba565b63ffffffff1663ffffffff168152602001908152602001600020541490508015611d6357611d63612f988380615bd0565b602084013533612fab6040870187615143565b6127d8565b60606000612fbe83516135b9565b60408051600360f01b60208201526001600160f01b031960f084901b1660228201528151600481830301815260249091019091529091506000805b8361ffff168110156130e157600086828151811061301957613019615112565b6020026020010151600001519050816000148061303d57508261ffff168161ffff16115b6130595760405162461bcd60e51b8152600401610c2790615be6565b600061308288848151811061307057613070615112565b602002602001015160200151516135b9565b90508482828a868151811061309957613099615112565b6020026020010151602001516040516020016130b89493929190615c07565b6040516020818303038152906040529450819350505080806130d990615189565b915050612ff9565b5090949350505050565b60408051808201909152600081526060602082015260006001600160801b0383161561314857604080516001600160801b0319608087811b8216602084015286901b16603082015201604051602081830303815290604052613172565b6040516001600160801b0319608086901b1660208201526030016040516020818303038152906040525b60408051808201909152600181526020810191909152949350505050565b60608360036131a08260006135e1565b61ffff16146131fd5760405162461bcd60e51b8152602060048201526024808201527f4f7074696f6e734275696c6465723a20696e76616c6964206f7074696f6e73206044820152637479706560e01b6064820152608401610c27565b60006132088661363e565b905060008060006132198489613850565b925092509250821561326e576000613230826138eb565b905061323c8189613a57565b905061324781613cd8565b85848151811061325957613259615112565b602002602001015160200181905250506132a3565b600061327988613e33565b6040805180820190915261ffff8b1681526020810182905290915061329e8682613ea7565b955050505b6132ac84612fb0565b9998505050505050505050565b6060806000805b84811015613349576000600d818888858181106132df576132df615112565b90506020028101906132f191906156b9565b6132fb9080615bd0565b6133099060208101906148ba565b63ffffffff1663ffffffff1681526020019081526020016000205414613337578161333381615c59565b9250505b8061334181615189565b9150506132c0565b508061ffff166001600160401b0381111561336657613366614a49565b60405190808252806020026020018201604052801561338f578160200160208202803683370190505b5092508061ffff166001600160401b038111156133ae576133ae614a49565b6040519080825280602002602001820160405280156133d7578160200160208202803683370190505b50915060005b8481101561116e576000600d60008888858181106133fd576133fd615112565b905060200281019061340f91906156b9565b6134199080615bd0565b6134279060208101906148ba565b63ffffffff168152602081019190915260400160002054905080156134ce5786868381811061345857613458615112565b905060200281019061346a91906156b9565b6134749080615bd0565b6134829060208101906148ba565b85838151811061349457613494615112565b602002602001019063ffffffff16908163ffffffff1681525050808483815181106134c1576134c1615112565b6020026020010181815250505b50806134d981615189565b9150506133dd565b60008072184f03e93ff9f4daa797ed6e38ed64bf6a1f0160401b83106135205772184f03e93ff9f4daa797ed6e38ed64bf6a1f0160401b830492506040015b6d04ee2d6d415b85acef8100000000831061354c576d04ee2d6d415b85acef8100000000830492506020015b662386f26fc10000831061356a57662386f26fc10000830492506010015b6305f5e1008310613582576305f5e100830492506008015b612710831061359657612710830492506004015b606483106135a8576064830492506002015b600a8310610e8e5760010192915050565b600061ffff8211156135dd5760405162461bcd60e51b8152600401610c2790615c70565b5090565b60006135ee8260026154df565b835110156136355760405162461bcd60e51b8152602060048201526014602482015273746f55696e7431365f6f75744f66426f756e647360601b6044820152606401610c27565b50016002015190565b6060600061364c83826135e1565b905061ffff811660011480613665575061ffff81166002145b1561368257600061367a8261ffff1685614106565b949350505050565b8061ffff1660030361381e57600061369b8460026135e1565b905060008161ffff166001600160401b038111156136bb576136bb614a49565b60405190808252806020026020018201604052801561370157816020015b6040805180820190915260008152606060208201528152602001906001900390816136d95790505b50905060046000805b8461ffff168110156137f257600061372289856135e1565b905061372f6002856154df565b935081158061374557508261ffff168161ffff16115b6137615760405162461bcd60e51b8152600401610c2790615be6565b91508160006137708a866135e1565b905061377d6002866154df565b945060405180604001604052808361ffff1681526020016137ad878461ffff168e6143d09092919063ffffffff16565b8152508684815181106137c2576137c2615112565b60209081029190910101526137db61ffff8216866154df565b9450505080806137ea90615189565b91505061370a565b50865182146138135760405162461bcd60e51b8152600401610c2790615c70565b509095945050505050565b60405162461bcd60e51b815260206004820152600760248201526604c5a43303030360cc1b6044820152606401610c27565b600080606060005b85518110156138cc578461ffff1686828151811061387857613878615112565b60200260200101516000015161ffff16036138ba576001818783815181106138a2576138a2615112565b602002602001015160200151935093509350506138e4565b806138c481615189565b915050613858565b50506040805160208101909152600080825292508291505b9250925092565b60606000806138fa84826135e1565b90506139076002836154df565b915060008161ffff166001600160401b0381111561392757613927614a49565b60405190808252806020026020018201604052801561396d57816020015b6040805180820190915260008152606060208201528152602001906001900390816139455790505b5090506000805b8361ffff168161ffff16101561381357600061399088876135e1565b905061399d6002876154df565b95508261ffff168161ffff16116139c65760405162461bcd60e51b8152600401610c2790615be6565b91508160006139d589886135e1565b90506139e26002886154df565b965060006139f58a8961ffff85166143d0565b9050613a0561ffff8316896154df565b975060405180604001604052808461ffff16815260200182815250868561ffff1681518110613a3657613a36615112565b60200260200101819052505050508080613a4f90615c59565b915050613974565b6060600083516001613a6991906154df565b6001600160401b03811115613a8057613a80614a49565b604051908082528060200260200182016040528015613ac657816020015b604080518082019091526000815260606020820152815260200190600190039081613a9e5790505b5090508051600103613af8578281600081518110613ae657613ae6615112565b60209081029190910101529050610e8e565b60005b8451811015613cd057836000015161ffff16858281518110613b1f57613b1f615112565b60200260200101516000015161ffff1603613b8f5760405162461bcd60e51b815260206004820152602a60248201527f4f7074696f6e734275696c6465723a206f7074696f6e207479706520616c72656044820152696164792065786973747360b01b6064820152608401610c27565b836000015161ffff16858281518110613baa57613baa615112565b60200260200101516000015161ffff161015613bfc57848181518110613bd257613bd2615112565b6020026020010151828281518110613bec57613bec615112565b6020026020010181905250613c81565b83828281518110613c0f57613c0f615112565b6020908102919091010152805b8551811015613c7b57858181518110613c3757613c37615112565b602002602001015183826001613c4d91906154df565b81518110613c5d57613c5d615112565b60200260200101819052508080613c7390615189565b915050613c1c565b50613cd0565b60018551613c8f91906150ff565b8103613cbe578382613ca28360016154df565b81518110613cb257613cb2615112565b60200260200101819052505b80613cc881615189565b915050613afb565b509392505050565b60606000825111613cfb5760405162461bcd60e51b8152600401610c2790615c70565b6000613d0783516135b9565b9050600081604051602001613d1c9190615c91565b60408051601f1981840301815291905290506000805b8361ffff168110156130e1576000868281518110613d5257613d52615112565b60200260200101516000015190508160001480613d7657508261ffff168161ffff16115b613d925760405162461bcd60e51b8152600401610c2790615be6565b8092506000613dac88848151811061307057613070615112565b90506000888481518110613dc257613dc2615112565b602002602001015160000151828a8681518110613de157613de1615112565b602002602001015160200151604051602001613dff93929190615ca9565b60408051601f198184030181529190529050613e1b86826144dd565b95505050508080613e2b90615189565b915050613d32565b60408051600180825281830190925260609160009190816020015b604080518082019091526000815260606020820152815260200190600190039081613e4e5790505090508281600081518110613e8c57613e8c615112565b6020026020010181905250613ea081613cd8565b9392505050565b6060600083516001613eb991906154df565b6001600160401b03811115613ed057613ed0614a49565b604051908082528060200260200182016040528015613f1657816020015b604080518082019091526000815260606020820152815260200190600190039081613eee5790505b5090508051600103613f36578281600081518110613ae657613ae6615112565b60005b8451811015613cd057836000015161ffff16858281518110613f5d57613f5d615112565b60200260200101516000015161ffff1603613fcb5760405162461bcd60e51b815260206004820152602860248201527f4f7074696f6e734275696c6465723a20776f726b657220696420616c72656164604482015267792065786973747360c01b6064820152608401610c27565b836000015161ffff16858281518110613fe657613fe6615112565b60200260200101516000015161ffff1610156140385784818151811061400e5761400e615112565b602002602001015182828151811061402857614028615112565b60200260200101819052506140b7565b8382828151811061404b5761404b615112565b6020908102919091010152805b8551811015613c7b5785818151811061407357614073615112565b60200260200101518382600161408991906154df565b8151811061409957614099615112565b602002602001018190525080806140af90615189565b915050614058565b600185516140c591906150ff565b81036140f45783826140d88360016154df565b815181106140e8576140e8615112565b60200260200101819052505b806140fe81615189565b915050613f39565b604080516001808252818301909252606091816020015b60408051808201909152600081526060602082015281526020019060019003908161411d579050509050606060001984016141fc5782516022146141735760405162461bcd60e51b8152600401610c2790615c70565b600061418084600261455a565b90506001600160801b038111156141a95760405162461bcd60e51b8152600401610c2790615c70565b60016040516020016141bb9190615c91565b60405160208183030381529060405291508160016010836040516020016141e59493929190615ce7565b604051602081830303815290604052915050614391565b600119840161381e576042835111801561421857506062835111155b6142345760405162461bcd60e51b8152600401610c2790615c70565b600061424184600261455a565b90506001600160801b0381111561426a5760405162461bcd60e51b8152600401610c2790615c70565b600061427785602261455a565b90506001600160801b038111156142a05760405162461bcd60e51b8152600401610c2790615c70565b6000604286516142b091906150ff565b905060006142c0876042846143d0565b6142c990615d38565b90506142d68260206150ff565b6142e1906008615d5f565b60408051608086901b6001600160801b03191660208201529290911c603080840182905282518085039091018152605084019092529161432690600290607001615c91565b60405160208183030381529060405295508560016010876040516020016143509493929190615ce7565b604051602081830303815290604052955085600282518360405160200161437a9493929190615c07565b604051602081830303815290604052955050505050505b6040518060400160405280600161ffff16815260200182815250826000815181106143be576143be615112565b60200260200101819052505092915050565b6060816143de81601f6154df565b101561441d5760405162461bcd60e51b815260206004820152600e60248201526d736c6963655f6f766572666c6f7760901b6044820152606401610c27565b61442782846154df565b8451101561446b5760405162461bcd60e51b8152602060048201526011602482015270736c6963655f6f75744f66426f756e647360781b6044820152606401610c27565b60608215801561448a57604051915060008252602082016040526144d4565b6040519150601f8416801560200281840101858101878315602002848b0101015b818310156144c35780518352602092830192016144ab565b5050858452601f01601f1916604052505b50949350505050565b6060806040519050835180825260208201818101602087015b8183101561450e5780518352602092830192016144f6565b50855184518101855292509050808201602086015b8183101561453b578051835260209283019201614523565b508651929092011591909101601f01601f191660405250905092915050565b60006145678260206154df565b835110156145af5760405162461bcd60e51b8152602060048201526015602482015274746f55696e743235365f6f75744f66426f756e647360581b6044820152606401610c27565b50016020015190565b60405180606001604052806000801916815260200160006001600160401b031681526020016145fa604051806040016040528060008152602001600081525090565b905290565b8280548282559060005260206000209060070160089004810192821561469e5791602002820160005b8382111561466c57835183826101000a81548163ffffffff021916908363ffffffff1602179055509260200192600401602081600301049283019260010302614628565b801561469c5782816101000a81549063ffffffff021916905560040160208160030104928301926001030261466c565b505b506135dd9291506146e5565b82805482825590600052602060002090810192821561469e579160200282015b8281111561469e5782518255916020019190600101906146ca565b5b808211156135dd57600081556001016146e6565b6001600160a01b0381168114611ddd57600080fd5b63ffffffff81168114611ddd57600080fd5b60008083601f84011261473357600080fd5b5081356001600160401b0381111561474a57600080fd5b60208301915083602082850101111561117157600080fd5b60008060008060006080868803121561477a57600080fd5b8535614785816146fa565b945060208601356147958161470f565b935060408601356147a58161470f565b925060608601356001600160401b038111156147c057600080fd5b6147cc88828901614721565b969995985093965092949392505050565b60008083601f8401126147ef57600080fd5b5081356001600160401b0381111561480657600080fd5b6020830191508360208260051b850101111561117157600080fd5b60008060006040848603121561483657600080fd5b8335614841816146fa565b925060208401356001600160401b0381111561485c57600080fd5b614868868287016147dd565b9497909650939450505050565b60006020828403121561488757600080fd5b5035919050565b600080604083850312156148a157600080fd5b82356148ac8161470f565b946020939093013593505050565b6000602082840312156148cc57600080fd5b8135613ea08161470f565b600080602083850312156148ea57600080fd5b82356001600160401b0381111561490057600080fd5b61490c858286016147dd565b90969095509350505050565b60005b8381101561493357818101518382015260200161491b565b50506000910152565b60008151808452614954816020860160208601614918565b601f01601f19169290920160200192915050565b61ffff8316815260406020820152600061367a604083018461493c565b6000806000806000806060878903121561499e57600080fd5b86356001600160401b03808211156149b557600080fd5b6149c18a838b016147dd565b909850965060208901359150808211156149da57600080fd5b6149e68a838b016147dd565b909650945060408901359150808211156149ff57600080fd5b50614a0c89828a016147dd565b979a9699509497509295939492505050565b80358015158114610c3057600080fd5b600060208284031215614a4057600080fd5b613ea082614a1e565b634e487b7160e01b600052604160045260246000fd5b604080519081016001600160401b0381118282101715614a8157614a81614a49565b60405290565b604051606081016001600160401b0381118282101715614a8157614a81614a49565b604051608081016001600160401b0381118282101715614a8157614a81614a49565b604051601f8201601f191681016001600160401b0381118282101715614af357614af3614a49565b604052919050565b60006001600160401b03821115614b1457614b14614a49565b5060051b60200190565b600082601f830112614b2f57600080fd5b81356020614b44614b3f83614afb565b614acb565b82815260059290921b84018101918181019086841115614b6357600080fd5b8286015b84811015614b7e5780358352918301918301614b67565b509695505050505050565b60008060408385031215614b9c57600080fd5b82356001600160401b0380821115614bb357600080fd5b818501915085601f830112614bc757600080fd5b81356020614bd7614b3f83614afb565b82815260059290921b84018101918181019089841115614bf657600080fd5b948201945b83861015614c1d578535614c0e8161470f565b82529482019490820190614bfb565b96505086013592505080821115614c3357600080fd5b50614c4085828601614b1e565b9150509250929050565b60008060008060408587031215614c6057600080fd5b84356001600160401b0380821115614c7757600080fd5b614c83888389016147dd565b90965094506020870135915080821115614c9c57600080fd5b50614ca9878288016147dd565b95989497509550505050565b6001600160401b0381168114611ddd57600080fd5b60008060008060008060a08789031215614ce357600080fd5b8635614cee8161470f565b9550602087013594506040870135614d0581614cb5565b93506060870135925060808701356001600160401b03811115614d2757600080fd5b614a0c89828a01614721565b600060208284031215614d4557600080fd5b8135613ea081614cb5565b600060208284031215614d6257600080fd5b8135613ea0816146fa565b600080600060608486031215614d8257600080fd5b8335614d8d8161470f565b9250602084013591506040840135614da481614cb5565b809150509250925092565b600080600060608486031215614dc457600080fd5b8335614dcf8161470f565b925060208401359150614de460408501614a1e565b90509250925092565b600080600080600060808688031215614e0557600080fd5b85356001600160401b0380821115614e1c57600080fd5b908701906080828a031215614e3057600080fd5b90955060208701359450604087013590614e49826146fa565b90935060608701359080821115614e5f57600080fd5b506147cc88828901614721565b803560ff81168114610c3057600080fd5b60008060008060608587031215614e9357600080fd5b8435614e9e8161470f565b9350614eac60208601614e6c565b925060408501356001600160401b03811115614ec757600080fd5b614ca987828801614721565b600080600060608486031215614ee857600080fd5b8335614ef38161470f565b92506020840135614f03816146fa565b929592945050506040919091013590565b60008060408385031215614f2757600080fd5b8235614f328161470f565b91506020830135614f42816146fa565b809150509250929050565b600080600080600080600060a0888a031215614f6857600080fd5b8735614f73816146fa565b96506020880135955060408801356001600160401b0380821115614f9657600080fd5b614fa28b838c01614721565b909750955060608a01359150614fb7826146fa565b90935060808901359080821115614fcd57600080fd5b50614fda8a828b01614721565b989b979a50959850939692959293505050565b602081526000613ea0602083018461493c565b6000806040838503121561501357600080fd5b82356148ac816146fa565b81835281816020850137506000828201602090810191909152601f909101601f19169091010190565b6001600160a01b038616815263ffffffff858116602083015284166040820152608060608201819052600090615080908301848661501e565b979650505050505050565b6001600160a01b038416815260406020808301829052908201839052600090849060608401835b868110156150dd5783356150c58161470f565b63ffffffff16825292820192908201906001016150b2565b50979650505050505050565b634e487b7160e01b600052601160045260246000fd5b81810381811115610e8e57610e8e6150e9565b634e487b7160e01b600052603260045260246000fd5b60006020828403121561513a57600080fd5b613ea082614e6c565b6000808335601e1984360301811261515a57600080fd5b8301803591506001600160401b0382111561517457600080fd5b60200191503681900382131561117157600080fd5b60006001820161519b5761519b6150e9565b5060010190565b6020808252600a908201526937b7363c9030b236b4b760b11b604082015260600190565b6000808335601e198436030181126151dd57600080fd5b83016020810192503590506001600160401b038111156151fc57600080fd5b80360382131561117157600080fd5b60208082528181018390526000906040808401600586901b8501820187855b8881101561531157878303603f190184528135368b9003605e1901811261525057600080fd5b8a016060813536839003607e1901811261526957600080fd5b818652820180356152798161470f565b63ffffffff811683880152506080898201358188015261529b898301836151c6565b8260a08a01526152af60e08a01828461501e565b925050508282013592506152c283614cb5565b6001600160401b03831660c0880152898401358a8801526152e5898501856151c6565b94509250868103898801526152fb81858561501e565b978a01979650505092870192505060010161522a565b509098975050505050505050565b60008251615331818460208701614918565b9190910192915050565b63ffffffff8316815260406020820152600061367a604083018461493c565b60006001600160401b0382111561537357615373614a49565b50601f01601f191660200190565b600082601f83011261539257600080fd5b81356153a0614b3f8261535a565b8181528460208386010111156153b557600080fd5b816020850160208301376000918101602001919091529392505050565b600080604083850312156153e557600080fd5b82356153f08161470f565b915060208301356001600160401b0381111561540b57600080fd5b614c4085828601615381565b63ffffffff871681528560208201526001600160401b038516604082015283606082015260a060808201526000611fb560a08301848661501e565b60006020828403121561546457600080fd5b5051919050565b60006001600160401b03808316818103615487576154876150e9565b6001019392505050565b6001600160401b038181168382160190808211156154b1576154b16150e9565b5092915050565b63ffffffff9390931683526001600160a01b03919091166020830152604082015260600190565b80820180821115610e8e57610e8e6150e9565b61ffff60f01b8660f01b1681526001600160401b0360c01b8560c01b16600282015283600a8201526000602a82018451602080870160005b8381101561554c57815163ffffffff168552938201939082019060010161552a565b5050855181870193925060005b8181101561557557845184529382019392820192600101615559565b50919a9950505050505050505050565b6060815263ffffffff84511660608201526020840151608082015260006040850151608060a08401526155bb60e084018261493c565b90506060860151605f198483030160c08501526155d8828261493c565b60208501969096525050506001600160a01b0391909116604090910152919050565b60006040828403121561560c57600080fd5b615614614a5f565b9050815181526020820151602082015292915050565b60006080828403121561563c57600080fd5b615644614a87565b82518152602083015161565681614cb5565b602082015261566884604085016155fa565b60408201529392505050565b7f7061636b6574732073697a6520657863656564206c696d6974656420000000008152600082516156ac81601c850160208701614918565b91909101601c0192915050565b60008235605e1983360301811261533157600080fd5b6000606082360312156156e157600080fd5b6156e9614a87565b82356001600160401b038082111561570057600080fd5b81850191506080823603121561571557600080fd5b61571d614aa9565b82356157288161470f565b81526020838101359082015260408301358281111561574657600080fd5b61575236828601615381565b6040830152506060830135925061576883614cb5565b8260608201528084525060208501356020840152604085013591508082111561579057600080fd5b5061579d36828601615381565b60408301525092915050565b6000602082840312156157bb57600080fd5b8151613ea081614cb5565b7f736b697070656420696e626f756e644e6f6e63652c207061636b657420696e64815263032bc1d160e51b60208201526000825161580b816024850160208701614918565b9190910160240192915050565b7f756e736f72746564207061636b6574732c207061636b657420696e6465783a20815260008251615850816020850160208701614918565b9190910160200192915050565b805160208201516001600160e01b0319808216929190600483101561588c5780818460040360031b1b83161693505b505050919050565b600080604083850312156158a757600080fd5b825161ffff811681146158b957600080fd5b60208401519092506001600160401b038111156158d557600080fd5b8301601f810185136158e657600080fd5b80516158f4614b3f8261535a565b81815286602083850101111561590957600080fd5b61591a826020830160208601614918565b8093505050509250929050565b6000602080838503121561593a57600080fd5b82516001600160401b038082111561595157600080fd5b8185019150604080838803121561596757600080fd5b61596f614a5f565b835161597a8161470f565b8152838501518381111561598d57600080fd5b80850194505087601f8501126159a257600080fd5b835192506159b2614b3f84614afb565b8381526060938402850186019386820191908a8611156159d157600080fd5b958701955b85871015615a225780878c0312156159ee5760008081fd5b6159f6614a87565b8751615a018161470f565b815287890151898201528588015186820152835295860195918701916159d6565b5095820195909552979650505050505050565b60018060a01b0385168152836020820152606060408201526000615a5d60608301848661501e565b9695505050505050565b60006020808352606080840163ffffffff8087511684870152838701516040808189015283825180865260808a0191508784019550600093505b80841015615ad4578551805186168352888101518984015283015183830152948701946001939093019290860190615aa1565b509998505050505050505050565b60008085851115615af257600080fd5b83861115615aff57600080fd5b5050820193919092039150565b6001600160f81b03198135818116916001851015615b345780818660010360031b1b83161692505b505092915050565b6001600160e01b03198135818116916004851015615b345760049490940360031b84901b1690921692915050565b6001600160a01b038616815263ffffffff8516602082015260a060408201819052600090615b9a9083018661493c565b84151560608401528281036080840152611fb5818561493c565b600060408284031215615bc657600080fd5b613ea083836155fa565b60008235607e1983360301811261533157600080fd5b602080825260079082015266262d189818181b60c91b604082015260600190565b60008551615c19818460208a01614918565b6001600160f01b031960f087811b821692850192835286901b1660028201528351615c4b816004840160208801614918565b016004019695505050505050565b600061ffff808316818103615487576154876150e9565b6020808252600790820152664c5a313030303960c81b604082015260600190565b60f09190911b6001600160f01b031916815260020190565b600061ffff60f01b808660f01b168352808560f01b166002840152508251615cd8816004850160208701614918565b91909101600401949350505050565b60008551615cf9818460208a01614918565b60f095861b6001600160f01b0319908116939091019283529390941b909216600283015260801b6001600160801b031916600482015260140192915050565b80516020808301519190811015615d59576000198160200360031b1b821691505b50919050565b8082028115828204841417610e8e57610e8e6150e956fe4f6d6e69436f756e7465725072656372696d653a20696e626f756e64436f756e74203e206f7574626f756e64436f756e74a2646970667358221220760495f15abced4faae6a26e6c5237f0afd9f2f03b567368227818c581856a3764736f6c63430008110033",
  "devdoc": {
    "kind": "dev",
    "methods": {
      "owner()": {
        "details": "Returns the address of the current owner."
      },
      "renounceOwnership()": {
        "details": "Leaves the contract without owner. It will not be possible to call `onlyOwner` functions. Can only be called by the current owner. NOTE: Renouncing ownership will leave the contract without an owner, thereby disabling any functionality that is only available to the owner."
      },
      "transferOwnership(address)": {
        "details": "Transfers ownership of the contract to a new account (`newOwner`). Can only be called by the current owner."
      }
    },
    "version": 1
  },
  "userdoc": {
    "kind": "user",
    "methods": {
      "setConfig(address,uint32,uint32,bytes)": {
        "notice": "----------------------------- UA Config Functions -----------------------------"
      }
    },
    "version": 1
  },
  "storageLayout": {
    "storage": [
      {
        "astId": 1857,
        "contract": "contracts/examples/OmniCounterWithPrecrime.sol:OmniCounterWithPrecrime",
        "label": "_owner",
        "offset": 0,
        "slot": "0",
        "type": "t_address"
      },
      {
        "astId": 3566,
        "contract": "contracts/examples/OmniCounterWithPrecrime.sol:OmniCounterWithPrecrime",
        "label": "peers",
        "offset": 0,
        "slot": "1",
        "type": "t_mapping(t_uint32,t_bytes32)"
      },
      {
        "astId": 3197,
        "contract": "contracts/examples/OmniCounterWithPrecrime.sol:OmniCounterWithPrecrime",
        "label": "version",
        "offset": 0,
        "slot": "2",
        "type": "t_uint256"
      },
      {
        "astId": 4798,
        "contract": "contracts/examples/OmniCounterWithPrecrime.sol:OmniCounterWithPrecrime",
        "label": "count",
        "offset": 0,
        "slot": "3",
        "type": "t_uint256"
      },
      {
        "astId": 4800,
        "contract": "contracts/examples/OmniCounterWithPrecrime.sol:OmniCounterWithPrecrime",
        "label": "composedCount",
        "offset": 0,
        "slot": "4",
        "type": "t_uint256"
      },
      {
        "astId": 4802,
        "contract": "contracts/examples/OmniCounterWithPrecrime.sol:OmniCounterWithPrecrime",
        "label": "admin",
        "offset": 0,
        "slot": "5",
        "type": "t_address"
      },
      {
        "astId": 4804,
        "contract": "contracts/examples/OmniCounterWithPrecrime.sol:OmniCounterWithPrecrime",
        "label": "eid",
        "offset": 20,
        "slot": "5",
        "type": "t_uint32"
      },
      {
        "astId": 4810,
        "contract": "contracts/examples/OmniCounterWithPrecrime.sol:OmniCounterWithPrecrime",
        "label": "maxNonceByPath",
        "offset": 0,
        "slot": "6",
        "type": "t_mapping(t_uint32,t_mapping(t_bytes32,t_uint64))"
      },
      {
        "astId": 4812,
        "contract": "contracts/examples/OmniCounterWithPrecrime.sol:OmniCounterWithPrecrime",
        "label": "orderedNonce",
        "offset": 0,
        "slot": "7",
        "type": "t_bool"
      },
      {
        "astId": 4816,
        "contract": "contracts/examples/OmniCounterWithPrecrime.sol:OmniCounterWithPrecrime",
        "label": "inboundCount",
        "offset": 0,
        "slot": "8",
        "type": "t_mapping(t_uint32,t_uint256)"
      },
      {
        "astId": 4820,
        "contract": "contracts/examples/OmniCounterWithPrecrime.sol:OmniCounterWithPrecrime",
        "label": "outboundCount",
        "offset": 0,
        "slot": "9",
        "type": "t_mapping(t_uint32,t_uint256)"
      },
      {
        "astId": 3921,
        "contract": "contracts/examples/OmniCounterWithPrecrime.sol:OmniCounterWithPrecrime",
        "label": "localEid",
        "offset": 0,
        "slot": "10",
        "type": "t_uint32"
      },
      {
        "astId": 3923,
        "contract": "contracts/examples/OmniCounterWithPrecrime.sol:OmniCounterWithPrecrime",
        "label": "pAdmin",
        "offset": 4,
        "slot": "10",
        "type": "t_address"
      },
      {
        "astId": 3925,
        "contract": "contracts/examples/OmniCounterWithPrecrime.sol:OmniCounterWithPrecrime",
        "label": "pMaxBatchSize",
        "offset": 24,
        "slot": "10",
        "type": "t_uint64"
      },
      {
        "astId": 3928,
        "contract": "contracts/examples/OmniCounterWithPrecrime.sol:OmniCounterWithPrecrime",
        "label": "precrimeEids",
        "offset": 0,
        "slot": "11",
        "type": "t_array(t_uint32)dyn_storage"
      },
      {
        "astId": 3931,
        "contract": "contracts/examples/OmniCounterWithPrecrime.sol:OmniCounterWithPrecrime",
        "label": "precrimePeers",
        "offset": 0,
        "slot": "12",
        "type": "t_array(t_bytes32)dyn_storage"
      },
      {
        "astId": 3935,
        "contract": "contracts/examples/OmniCounterWithPrecrime.sol:OmniCounterWithPrecrime",
        "label": "precrimeEidToPeer",
        "offset": 0,
        "slot": "13",
        "type": "t_mapping(t_uint32,t_bytes32)"
      }
    ],
    "types": {
      "t_address": {
        "encoding": "inplace",
        "label": "address",
        "numberOfBytes": "20"
      },
      "t_array(t_bytes32)dyn_storage": {
        "base": "t_bytes32",
        "encoding": "dynamic_array",
        "label": "bytes32[]",
        "numberOfBytes": "32"
      },
      "t_array(t_uint32)dyn_storage": {
        "base": "t_uint32",
        "encoding": "dynamic_array",
        "label": "uint32[]",
        "numberOfBytes": "32"
      },
      "t_bool": {
        "encoding": "inplace",
        "label": "bool",
        "numberOfBytes": "1"
      },
      "t_bytes32": {
        "encoding": "inplace",
        "label": "bytes32",
        "numberOfBytes": "32"
      },
      "t_mapping(t_bytes32,t_uint64)": {
        "encoding": "mapping",
        "key": "t_bytes32",
        "label": "mapping(bytes32 => uint64)",
        "numberOfBytes": "32",
        "value": "t_uint64"
      },
      "t_mapping(t_uint32,t_bytes32)": {
        "encoding": "mapping",
        "key": "t_uint32",
        "label": "mapping(uint32 => bytes32)",
        "numberOfBytes": "32",
        "value": "t_bytes32"
      },
      "t_mapping(t_uint32,t_mapping(t_bytes32,t_uint64))": {
        "encoding": "mapping",
        "key": "t_uint32",
        "label": "mapping(uint32 => mapping(bytes32 => uint64))",
        "numberOfBytes": "32",
        "value": "t_mapping(t_bytes32,t_uint64)"
      },
      "t_mapping(t_uint32,t_uint256)": {
        "encoding": "mapping",
        "key": "t_uint32",
        "label": "mapping(uint32 => uint256)",
        "numberOfBytes": "32",
        "value": "t_uint256"
      },
      "t_uint256": {
        "encoding": "inplace",
        "label": "uint256",
        "numberOfBytes": "32"
      },
      "t_uint32": {
        "encoding": "inplace",
        "label": "uint32",
        "numberOfBytes": "4"
      },
      "t_uint64": {
        "encoding": "inplace",
        "label": "uint64",
        "numberOfBytes": "8"
      }
    }
  }
}