{
  "address": "0xfbfbfDdd6e35dA57b7B0F9a2C10E34Be70B3A4E9",
  "abi": [
    {
      "inputs": [
        {
          "internalType": "address[]",
          "name": "_messageLibs",
          "type": "address[]"
        },
        {
          "internalType": "address",
          "name": "_priceFeed",
          "type": "address"
        },
        {
          "internalType": "address[]",
          "name": "_signers",
          "type": "address[]"
        },
        {
          "internalType": "uint64",
          "name": "_quorum",
          "type": "uint64"
        },
        {
          "internalType": "address[]",
          "name": "_admins",
          "type": "address[]"
        }
      ],
      "stateMutability": "nonpayable",
      "type": "constructor"
    },
    {
      "anonymous": false,
      "inputs": [
        {
          "indexed": false,
          "internalType": "uint32",
          "name": "dstEid",
          "type": "uint32"
        },
        {
          "indexed": false,
          "internalType": "address",
          "name": "oapp",
          "type": "address"
        },
        {
          "indexed": false,
          "internalType": "uint64",
          "name": "confirmations",
          "type": "uint64"
        },
        {
          "indexed": false,
          "internalType": "uint256",
          "name": "totalFee",
          "type": "uint256"
        }
      ],
      "name": "AssignJob",
      "type": "event"
    },
    {
      "anonymous": false,
      "inputs": [
        {
          "indexed": false,
          "internalType": "uint256",
          "name": "_index",
          "type": "uint256"
        },
        {
          "indexed": false,
          "internalType": "bytes",
          "name": "_data",
          "type": "bytes"
        }
      ],
      "name": "ExecuteFailed",
      "type": "event"
    },
    {
      "anonymous": false,
      "inputs": [
        {
          "components": [
            {
              "internalType": "address",
              "name": "target",
              "type": "address"
            },
            {
              "internalType": "bytes",
              "name": "callData",
              "type": "bytes"
            },
            {
              "internalType": "uint256",
              "name": "expiration",
              "type": "uint256"
            },
            {
              "internalType": "bytes",
              "name": "signatures",
              "type": "bytes"
            }
          ],
          "indexed": false,
          "internalType": "struct ExecuteParam",
          "name": "param",
          "type": "tuple"
        },
        {
          "indexed": false,
          "internalType": "bytes32",
          "name": "_hash",
          "type": "bytes32"
        }
      ],
      "name": "HashAlreadyUsed",
      "type": "event"
    },
    {
      "anonymous": false,
      "inputs": [
        {
          "indexed": true,
          "internalType": "bytes32",
          "name": "role",
          "type": "bytes32"
        },
        {
          "indexed": true,
          "internalType": "bytes32",
          "name": "previousAdminRole",
          "type": "bytes32"
        },
        {
          "indexed": true,
          "internalType": "bytes32",
          "name": "newAdminRole",
          "type": "bytes32"
        }
      ],
      "name": "RoleAdminChanged",
      "type": "event"
    },
    {
      "anonymous": false,
      "inputs": [
        {
          "indexed": true,
          "internalType": "bytes32",
          "name": "role",
          "type": "bytes32"
        },
        {
          "indexed": true,
          "internalType": "address",
          "name": "account",
          "type": "address"
        },
        {
          "indexed": true,
          "internalType": "address",
          "name": "sender",
          "type": "address"
        }
      ],
      "name": "RoleGranted",
      "type": "event"
    },
    {
      "anonymous": false,
      "inputs": [
        {
          "indexed": true,
          "internalType": "bytes32",
          "name": "role",
          "type": "bytes32"
        },
        {
          "indexed": true,
          "internalType": "address",
          "name": "account",
          "type": "address"
        },
        {
          "indexed": true,
          "internalType": "address",
          "name": "sender",
          "type": "address"
        }
      ],
      "name": "RoleRevoked",
      "type": "event"
    },
    {
      "anonymous": false,
      "inputs": [
        {
          "indexed": false,
          "internalType": "uint16",
          "name": "multiplierBps",
          "type": "uint16"
        }
      ],
      "name": "SetDefaultMultiplierBps",
      "type": "event"
    },
    {
      "anonymous": false,
      "inputs": [
        {
          "components": [
            {
              "internalType": "uint32",
              "name": "dstEid",
              "type": "uint32"
            },
            {
              "internalType": "uint64",
              "name": "gas",
              "type": "uint64"
            },
            {
              "internalType": "uint16",
              "name": "multiplierBps",
              "type": "uint16"
            },
            {
              "internalType": "uint128",
              "name": "floorMarginUSD",
              "type": "uint128"
            }
          ],
          "indexed": false,
          "internalType": "struct IVerifier.DstConfigParam[]",
          "name": "params",
          "type": "tuple[]"
        }
      ],
      "name": "SetDstConfig",
      "type": "event"
    },
    {
      "anonymous": false,
      "inputs": [
        {
          "indexed": false,
          "internalType": "address",
          "name": "priceFeed",
          "type": "address"
        }
      ],
      "name": "SetPriceFeed",
      "type": "event"
    },
    {
      "anonymous": false,
      "inputs": [
        {
          "indexed": false,
          "internalType": "address",
          "name": "workerLib",
          "type": "address"
        }
      ],
      "name": "SetWorkerLib",
      "type": "event"
    },
    {
      "anonymous": false,
      "inputs": [
        {
          "indexed": false,
          "internalType": "uint64",
          "name": "_quorum",
          "type": "uint64"
        }
      ],
      "name": "UpdateQuorum",
      "type": "event"
    },
    {
      "anonymous": false,
      "inputs": [
        {
          "indexed": false,
          "internalType": "address",
          "name": "_signer",
          "type": "address"
        },
        {
          "indexed": false,
          "internalType": "bool",
          "name": "_active",
          "type": "bool"
        }
      ],
      "name": "UpdateSigner",
      "type": "event"
    },
    {
      "anonymous": false,
      "inputs": [
        {
          "indexed": false,
          "internalType": "address",
          "name": "lib",
          "type": "address"
        },
        {
          "indexed": false,
          "internalType": "address",
          "name": "to",
          "type": "address"
        },
        {
          "indexed": false,
          "internalType": "uint256",
          "name": "amount",
          "type": "uint256"
        }
      ],
      "name": "Withdraw",
      "type": "event"
    },
    {
      "inputs": [],
      "name": "DEFAULT_ADMIN_ROLE",
      "outputs": [
        {
          "internalType": "bytes32",
          "name": "",
          "type": "bytes32"
        }
      ],
      "stateMutability": "view",
      "type": "function"
    },
    {
      "inputs": [],
      "name": "allowlistSize",
      "outputs": [
        {
          "internalType": "uint64",
          "name": "",
          "type": "uint64"
        }
      ],
      "stateMutability": "view",
      "type": "function"
    },
    {
      "inputs": [
        {
          "internalType": "uint16",
          "name": "_dstEid",
          "type": "uint16"
        },
        {
          "internalType": "uint16",
          "name": "",
          "type": "uint16"
        },
        {
          "internalType": "uint64",
          "name": "_confirmations",
          "type": "uint64"
        },
        {
          "internalType": "address",
          "name": "_sender",
          "type": "address"
        }
      ],
      "name": "assignJob",
      "outputs": [
        {
          "internalType": "uint256",
          "name": "totalFee",
          "type": "uint256"
        }
      ],
      "stateMutability": "nonpayable",
      "type": "function"
    },
    {
      "inputs": [
        {
          "internalType": "uint32",
          "name": "_dstEid",
          "type": "uint32"
        },
        {
          "internalType": "uint64",
          "name": "_confirmations",
          "type": "uint64"
        },
        {
          "internalType": "address",
          "name": "_sender",
          "type": "address"
        },
        {
          "internalType": "bytes",
          "name": "_options",
          "type": "bytes"
        }
      ],
      "name": "assignJob",
      "outputs": [
        {
          "internalType": "uint256",
          "name": "totalFee",
          "type": "uint256"
        }
      ],
      "stateMutability": "payable",
      "type": "function"
    },
    {
      "inputs": [],
      "name": "defaultMultiplierBps",
      "outputs": [
        {
          "internalType": "uint16",
          "name": "",
          "type": "uint16"
        }
      ],
      "stateMutability": "view",
      "type": "function"
    },
    {
      "inputs": [
        {
          "internalType": "uint32",
          "name": "dstEid",
          "type": "uint32"
        }
      ],
      "name": "dstConfig",
      "outputs": [
        {
          "internalType": "uint64",
          "name": "gas",
          "type": "uint64"
        },
        {
          "internalType": "uint16",
          "name": "multiplierBps",
          "type": "uint16"
        },
        {
          "internalType": "uint128",
          "name": "floorMarginUSD",
          "type": "uint128"
        }
      ],
      "stateMutability": "view",
      "type": "function"
    },
    {
      "inputs": [
        {
          "components": [
            {
              "internalType": "address",
              "name": "target",
              "type": "address"
            },
            {
              "internalType": "bytes",
              "name": "callData",
              "type": "bytes"
            },
            {
              "internalType": "uint256",
              "name": "expiration",
              "type": "uint256"
            },
            {
              "internalType": "bytes",
              "name": "signatures",
              "type": "bytes"
            }
          ],
          "internalType": "struct ExecuteParam[]",
          "name": "_params",
          "type": "tuple[]"
        }
      ],
      "name": "execute",
      "outputs": [],
      "stateMutability": "nonpayable",
      "type": "function"
    },
    {
      "inputs": [
        {
          "internalType": "uint32",
          "name": "_dstEid",
          "type": "uint32"
        },
        {
          "internalType": "uint64",
          "name": "_confirmations",
          "type": "uint64"
        },
        {
          "internalType": "address",
          "name": "_sender",
          "type": "address"
        },
        {
          "internalType": "bytes",
          "name": "_options",
          "type": "bytes"
        }
      ],
      "name": "getFee",
      "outputs": [
        {
          "internalType": "uint256",
          "name": "fee",
          "type": "uint256"
        }
      ],
      "stateMutability": "view",
      "type": "function"
    },
    {
      "inputs": [
        {
          "internalType": "uint16",
          "name": "_dstEid",
          "type": "uint16"
        },
        {
          "internalType": "uint16",
          "name": "",
          "type": "uint16"
        },
        {
          "internalType": "uint64",
          "name": "_confirmations",
          "type": "uint64"
        },
        {
          "internalType": "address",
          "name": "_sender",
          "type": "address"
        }
      ],
      "name": "getFee",
      "outputs": [
        {
          "internalType": "uint256",
          "name": "fee",
          "type": "uint256"
        }
      ],
      "stateMutability": "view",
      "type": "function"
    },
    {
      "inputs": [
        {
          "internalType": "bytes32",
          "name": "role",
          "type": "bytes32"
        }
      ],
      "name": "getRoleAdmin",
      "outputs": [
        {
          "internalType": "bytes32",
          "name": "",
          "type": "bytes32"
        }
      ],
      "stateMutability": "view",
      "type": "function"
    },
    {
      "inputs": [
        {
          "internalType": "bytes32",
          "name": "_role",
          "type": "bytes32"
        },
        {
          "internalType": "address",
          "name": "_account",
          "type": "address"
        }
      ],
      "name": "grantRole",
      "outputs": [],
      "stateMutability": "nonpayable",
      "type": "function"
    },
    {
      "inputs": [
        {
          "internalType": "bytes32",
          "name": "role",
          "type": "bytes32"
        },
        {
          "internalType": "address",
          "name": "account",
          "type": "address"
        }
      ],
      "name": "hasRole",
      "outputs": [
        {
          "internalType": "bool",
          "name": "",
          "type": "bool"
        }
      ],
      "stateMutability": "view",
      "type": "function"
    },
    {
      "inputs": [
        {
          "internalType": "address",
          "name": "_target",
          "type": "address"
        },
        {
          "internalType": "bytes",
          "name": "_callData",
          "type": "bytes"
        },
        {
          "internalType": "uint256",
          "name": "_expiration",
          "type": "uint256"
        }
      ],
      "name": "hashCallData",
      "outputs": [
        {
          "internalType": "bytes32",
          "name": "",
          "type": "bytes32"
        }
      ],
      "stateMutability": "pure",
      "type": "function"
    },
    {
      "inputs": [],
      "name": "paused",
      "outputs": [
        {
          "internalType": "bool",
          "name": "",
          "type": "bool"
        }
      ],
      "stateMutability": "view",
      "type": "function"
    },
    {
      "inputs": [],
      "name": "priceFeed",
      "outputs": [
        {
          "internalType": "address",
          "name": "",
          "type": "address"
        }
      ],
      "stateMutability": "view",
      "type": "function"
    },
    {
      "inputs": [],
      "name": "quorum",
      "outputs": [
        {
          "internalType": "uint64",
          "name": "",
          "type": "uint64"
        }
      ],
      "stateMutability": "view",
      "type": "function"
    },
    {
      "inputs": [
        {
          "internalType": "bytes32",
          "name": "",
          "type": "bytes32"
        },
        {
          "internalType": "address",
          "name": "",
          "type": "address"
        }
      ],
      "name": "renounceRole",
      "outputs": [],
      "stateMutability": "pure",
      "type": "function"
    },
    {
      "inputs": [
        {
          "internalType": "bytes32",
          "name": "_role",
          "type": "bytes32"
        },
        {
          "internalType": "address",
          "name": "_account",
          "type": "address"
        }
      ],
      "name": "revokeRole",
      "outputs": [],
      "stateMutability": "nonpayable",
      "type": "function"
    },
    {
      "inputs": [
        {
          "internalType": "uint16",
          "name": "_multiplierBps",
          "type": "uint16"
        }
      ],
      "name": "setDefaultMultiplierBps",
      "outputs": [],
      "stateMutability": "nonpayable",
      "type": "function"
    },
    {
      "inputs": [
        {
          "components": [
            {
              "internalType": "uint32",
              "name": "dstEid",
              "type": "uint32"
            },
            {
              "internalType": "uint64",
              "name": "gas",
              "type": "uint64"
            },
            {
              "internalType": "uint16",
              "name": "multiplierBps",
              "type": "uint16"
            },
            {
              "internalType": "uint128",
              "name": "floorMarginUSD",
              "type": "uint128"
            }
          ],
          "internalType": "struct IVerifier.DstConfigParam[]",
          "name": "_params",
          "type": "tuple[]"
        }
      ],
      "name": "setDstConfig",
      "outputs": [],
      "stateMutability": "nonpayable",
      "type": "function"
    },
    {
      "inputs": [
        {
          "internalType": "bool",
          "name": "_paused",
          "type": "bool"
        }
      ],
      "name": "setPaused",
      "outputs": [],
      "stateMutability": "nonpayable",
      "type": "function"
    },
    {
      "inputs": [
        {
          "internalType": "address",
          "name": "_priceFeed",
          "type": "address"
        }
      ],
      "name": "setPriceFeed",
      "outputs": [],
      "stateMutability": "nonpayable",
      "type": "function"
    },
    {
      "inputs": [
        {
          "internalType": "uint64",
          "name": "_quorum",
          "type": "uint64"
        }
      ],
      "name": "setQuorum",
      "outputs": [],
      "stateMutability": "nonpayable",
      "type": "function"
    },
    {
      "inputs": [
        {
          "internalType": "address",
          "name": "_signer",
          "type": "address"
        },
        {
          "internalType": "bool",
          "name": "_active",
          "type": "bool"
        }
      ],
      "name": "setSigner",
      "outputs": [],
      "stateMutability": "nonpayable",
      "type": "function"
    },
    {
      "inputs": [
        {
          "internalType": "address",
          "name": "_workerFeeLib",
          "type": "address"
        }
      ],
      "name": "setWorkerFeeLib",
      "outputs": [],
      "stateMutability": "nonpayable",
      "type": "function"
    },
    {
      "inputs": [],
      "name": "signerSize",
      "outputs": [
        {
          "internalType": "uint64",
          "name": "",
          "type": "uint64"
        }
      ],
      "stateMutability": "view",
      "type": "function"
    },
    {
      "inputs": [
        {
          "internalType": "address",
          "name": "signer",
          "type": "address"
        }
      ],
      "name": "signers",
      "outputs": [
        {
          "internalType": "bool",
          "name": "active",
          "type": "bool"
        }
      ],
      "stateMutability": "view",
      "type": "function"
    },
    {
      "inputs": [
        {
          "internalType": "bytes4",
          "name": "interfaceId",
          "type": "bytes4"
        }
      ],
      "name": "supportsInterface",
      "outputs": [
        {
          "internalType": "bool",
          "name": "",
          "type": "bool"
        }
      ],
      "stateMutability": "view",
      "type": "function"
    },
    {
      "inputs": [
        {
          "internalType": "bytes32",
          "name": "executableHash",
          "type": "bytes32"
        }
      ],
      "name": "usedHashes",
      "outputs": [
        {
          "internalType": "bool",
          "name": "used",
          "type": "bool"
        }
      ],
      "stateMutability": "view",
      "type": "function"
    },
    {
      "inputs": [
        {
          "internalType": "contract IUltraLightNode",
          "name": "_uln",
          "type": "address"
        },
        {
          "internalType": "bytes",
          "name": "_packetHeader",
          "type": "bytes"
        },
        {
          "internalType": "bytes32",
          "name": "_payloadHash",
          "type": "bytes32"
        },
        {
          "internalType": "uint64",
          "name": "_confirmations",
          "type": "uint64"
        }
      ],
      "name": "verifyAndDeliver",
      "outputs": [],
      "stateMutability": "nonpayable",
      "type": "function"
    },
    {
      "inputs": [
        {
          "internalType": "bytes32",
          "name": "_hash",
          "type": "bytes32"
        },
        {
          "internalType": "bytes",
          "name": "_signatures",
          "type": "bytes"
        }
      ],
      "name": "verifySignatures",
      "outputs": [
        {
          "internalType": "bool",
          "name": "",
          "type": "bool"
        }
      ],
      "stateMutability": "view",
      "type": "function"
    },
    {
      "inputs": [
        {
          "internalType": "address",
          "name": "_lib",
          "type": "address"
        },
        {
          "internalType": "address",
          "name": "_to",
          "type": "address"
        },
        {
          "internalType": "uint256",
          "name": "_amount",
          "type": "uint256"
        }
      ],
      "name": "withdrawFee",
      "outputs": [],
      "stateMutability": "nonpayable",
      "type": "function"
    },
    {
      "inputs": [
        {
          "internalType": "address",
          "name": "_lib",
          "type": "address"
        },
        {
          "internalType": "address payable",
          "name": "_to",
          "type": "address"
        },
        {
          "internalType": "uint256",
          "name": "_amount",
          "type": "uint256"
        }
      ],
      "name": "withdrawFeeFromUlnV2",
      "outputs": [],
      "stateMutability": "nonpayable",
      "type": "function"
    },
    {
      "inputs": [],
      "name": "workerFeeLib",
      "outputs": [
        {
          "internalType": "address",
          "name": "",
          "type": "address"
        }
      ],
      "stateMutability": "view",
      "type": "function"
    }
  ],
  "transactionHash": "0x30ea5803610b53a4a208d59be32176c92d6357f06ce0cdaa2b8251a31592b383",
  "args": [
    [
      "0x0f5D1ef48f12b6f691401bfe88c2037c690a6afe",
      "0xe6b98F104c1BEf218F3893ADab4160Dc73Eb8367",
      "0xbCF26943C0197d2eE0E5D05c716Be60cc2761508"
    ],
    "0x8438Ad1C834623CfF278AB6829a248E37C2D7E3f",
    [
      "0x9c79357189d6aF261691ECF48de9A6bbF30438Fc",
      "0xC4c81D5C1851702d27d602aA8ff830A7689F17cc"
    ],
    1,
    [
      "0xc13b65f7c53Cd6db2EA205a4b574b4a0858720A6",
      "0x0e9971c0005D91336c1441b8F03c1C4fe5FB4584"
    ]
  ],
  "numDeployments": 1,
  "solcInputHash": "23618ae04a8987a244e2ff990cbbeac7",
  "bytecode": "0x60806040523480156200001157600080fd5b50604051620045d0380380620045d08339810160408190526200003491620004fa565b6001805461ffff60e01b191661017760e51b179055600280546001600160a01b0319166001600160a01b03861617905582828686612ee06000866200007a8280620002cc565b60005b8551811015620000e857620000d57f724aface199fe5bed93ae8508474576a9adf3dc443b2c451842a2242919f19de878381518110620000c157620000c1620005b8565b6020026020010151620002cc60201b60201c565b620000e081620005e4565b90506200007d565b5060005b81518110156200014357620001307fa49807205ce4d355092ef5a8a18f56e8913cf4a201fbe287825b095693c21775838381518110620000c157620000c1620005b8565b6200013b81620005e4565b9050620000ec565b505050505050806001600160401b03168251101580156200016d57506000816001600160401b0316115b620001bf5760405162461bcd60e51b815260206004820152601960248201527f4d756c74695369673a207369676e65727320746f6f206665770000000000000060448201526064015b60405180910390fd5b6000805b83518110156200028b576000848281518110620001e457620001e4620005b8565b60200260200101519050826001600160a01b0316816001600160a01b031611620002515760405162461bcd60e51b815260206004820152601c60248201527f4d756c74695369673a207369676e657273206e6f7420736f72746564000000006044820152606401620001b6565b6001600160a01b0381166000908152600360205260409020805460ff191660011790559150806200028281620005e4565b915050620001c3565b50509051600480546001600160401b0393841668010000000000000000026001600160801b0319909116939092169290921717905550620006319350505050565b7f74845de37cfabd357633214b47fa91ccd19b05b7c5a08ac22c187f811fb62bca821480156200031d57506000828152602081815260408083206001600160a01b038516845290915290205460ff16155b156200036a57600180546014906200034590600160a01b90046001600160401b031662000600565b91906101000a8154816001600160401b0302191690836001600160401b031602179055505b6200037682826200037a565b5050565b6000828152602081815260408083206001600160a01b038516845290915290205460ff1662000376576000828152602081815260408083206001600160a01b03851684529091529020805460ff19166001179055620003d63390565b6001600160a01b0316816001600160a01b0316837f2f8788117e7eff1d82e926ec794901d17c78024a50270940304540a733656f0d60405160405180910390a45050565b634e487b7160e01b600052604160045260246000fd5b80516001600160a01b03811681146200044857600080fd5b919050565b600082601f8301126200045f57600080fd5b815160206001600160401b03808311156200047e576200047e6200041a565b8260051b604051601f19603f83011681018181108482111715620004a657620004a66200041a565b604052938452858101830193838101925087851115620004c557600080fd5b83870191505b84821015620004ef57620004df8262000430565b83529183019190830190620004cb565b979650505050505050565b600080600080600060a086880312156200051357600080fd5b85516001600160401b03808211156200052b57600080fd5b6200053989838a016200044d565b9650620005496020890162000430565b955060408801519150808211156200056057600080fd5b6200056e89838a016200044d565b94506060880151915080821682146200058657600080fd5b6080880151919350808211156200059c57600080fd5b50620005ab888289016200044d565b9150509295509295909350565b634e487b7160e01b600052603260045260246000fd5b634e487b7160e01b600052601160045260246000fd5b600060018201620005f957620005f9620005ce565b5060010190565b60006001600160401b038281166002600160401b03198101620006275762000627620005ce565b6001019392505050565b613f8f80620006416000396000f3fe6080604052600436106102185760003560e01c80638585c9451161011d578063c5e193cd116100b0578063d547741f1161007f578063e4fbd90311610064578063e4fbd903146107bb578063f3ad31f4146107ce578063fd62e750146107ee57600080fd5b8063d547741f1461077b578063dafe0ccc1461079b57600080fd5b8063c5e193cd146106e2578063c7a823e014610702578063c7b2370b14610722578063d2ae21041461074257600080fd5b8063aef18bf7116100ec578063aef18bf714610645578063b724b13314610675578063c358de0a14610695578063c416aa51146106b557600080fd5b80638585c9451461051a57806391d148541461053a5780639e9449651461058b578063a217fddf1461063057600080fd5b806330bb3aac116101b05780635553fb8e1161017f578063724e78da11610164578063724e78da14610478578063736c0d5b14610498578063741bef1a146104c857600080fd5b80635553fb8e146104265780635c975abb1461044657600080fd5b806330bb3aac146103a657806331cb6105146103c657806336568abe146103e657806352d3b8711461040657600080fd5b80631703a018116101ec5780631703a018146102e2578063248a9ca3146103285780632d80eb36146103665780632f2ff15d1461038657600080fd5b8062bf2e801461021d57806301ffc9a7146102705780631095b6d7146102a057806316c38b3c146102c2575b600080fd5b34801561022957600080fd5b50600154610258907c0100000000000000000000000000000000000000000000000000000000900461ffff1681565b60405161ffff90911681526020015b60405180910390f35b34801561027c57600080fd5b5061029061028b36600461317f565b61080f565b6040519015158152602001610267565b3480156102ac57600080fd5b506102c06102bb3660046131e3565b6108a8565b005b3480156102ce57600080fd5b506102c06102dd366004613239565b610a6c565b3480156102ee57600080fd5b5060045461030f9068010000000000000000900467ffffffffffffffff1681565b60405167ffffffffffffffff9091168152602001610267565b34801561033457600080fd5b50610358610343366004613254565b60009081526020819052604090206001015490565b604051908152602001610267565b34801561037257600080fd5b506102c061038136600461326d565b610ac2565b34801561039257600080fd5b506102c06103a13660046132e2565b610d05565b3480156103b257600080fd5b506103586103c1366004613387565b610eb1565b3480156103d257600080fd5b506102c06103e13660046133ff565b611171565b3480156103f257600080fd5b506102c06104013660046132e2565b6111e8565b34801561041257600080fd5b506102c0610421366004613434565b61124a565b34801561043257600080fd5b506103586104413660046134a9565b61141e565b34801561045257600080fd5b506002546102909074010000000000000000000000000000000000000000900460ff1681565b34801561048457600080fd5b506102c06104933660046134ff565b61167a565b3480156104a457600080fd5b506102906104b33660046134ff565b60036020526000908152604090205460ff1681565b3480156104d457600080fd5b506002546104f59073ffffffffffffffffffffffffffffffffffffffff1681565b60405173ffffffffffffffffffffffffffffffffffffffff9091168152602001610267565b34801561052657600080fd5b506102c061053536600461351c565b61171f565b34801561054657600080fd5b506102906105553660046132e2565b60009182526020828152604080842073ffffffffffffffffffffffffffffffffffffffff93909316845291905290205460ff1690565b34801561059757600080fd5b506105f56105a6366004613537565b60056020526000908152604090205467ffffffffffffffff81169068010000000000000000810461ffff16906a010000000000000000000090046fffffffffffffffffffffffffffffffff1683565b6040805167ffffffffffffffff909416845261ffff90921660208401526fffffffffffffffffffffffffffffffff1690820152606001610267565b34801561063c57600080fd5b50610358600081565b34801561065157600080fd5b50610290610660366004613254565b60066020526000908152604090205460ff1681565b34801561068157600080fd5b506102c0610690366004613552565b611794565b3480156106a157600080fd5b506102c06106b03660046135c2565b611a7b565b3480156106c157600080fd5b506001546104f59073ffffffffffffffffffffffffffffffffffffffff1681565b3480156106ee57600080fd5b506103586106fd3660046134a9565b611b28565b34801561070e57600080fd5b5061029061071d3660046135dd565b611e23565b34801561072e57600080fd5b506102c061073d3660046134ff565b612039565b34801561074e57600080fd5b5060015461030f9074010000000000000000000000000000000000000000900467ffffffffffffffff1681565b34801561078757600080fd5b506102c06107963660046132e2565b6120d6565b3480156107a757600080fd5b506102c06107b63660046131e3565b61221b565b6103586107c9366004613387565b612381565b3480156107da57600080fd5b506103586107e9366004613629565b612676565b3480156107fa57600080fd5b5060045461030f9067ffffffffffffffff1681565b60007fffffffff0000000000000000000000000000000000000000000000000000000082167f7965db0b0000000000000000000000000000000000000000000000000000000014806108a257507f01ffc9a7000000000000000000000000000000000000000000000000000000007fffffffff000000000000000000000000000000000000000000000000000000008316145b92915050565b7fa49807205ce4d355092ef5a8a18f56e8913cf4a201fbe287825b095693c217756108d2816126af565b73ffffffffffffffffffffffffffffffffffffffff841660009081527f9b50f4667d2d24216ccbf0dce3a90c0f620fa4d895e7b069d80ff6247fd25620602052604090205460ff16610985576040517f08c379a000000000000000000000000000000000000000000000000000000000815260206004820152601b60248201527f576f726b65723a20496e76616c6964206d657373616765206c6962000000000060448201526064015b60405180910390fd5b6040517ffd9be52200000000000000000000000000000000000000000000000000000000815273ffffffffffffffffffffffffffffffffffffffff84811660048301526024820184905285169063fd9be52290604401600060405180830381600087803b1580156109f557600080fd5b505af1158015610a09573d6000803e3d6000fd5b50506040805173ffffffffffffffffffffffffffffffffffffffff8089168252871660208201529081018590527f9b1bfa7fa9ee420a16e124f794c35ac9f90472acc99140eb2f6447c714cad8eb9250606001905060405180910390a150505050565b6000610a77816126af565b506002805491151574010000000000000000000000000000000000000000027fffffffffffffffffffffff00ffffffffffffffffffffffffffffffffffffffff909216919091179055565b7fa49807205ce4d355092ef5a8a18f56e8913cf4a201fbe287825b095693c21775610aec816126af565b60005b82811015610cff5736848483818110610b0a57610b0a613685565b9050602002810190610b1c91906136b4565b905042816040013511610b2f5750610cef565b6000610b58610b4160208401846134ff565b610b4e60208501856136f2565b8560400135612676565b9050610b78610b6a60208401846136f2565b610b7391613757565b6126b9565b15610c0c5760008181526006602052604090205460ff1615610bd4577f9c26528f222eb4f79639dea7fe30c7257c124af7ed741437170674ca68249e4e8282604051610bc592919061384c565b60405180910390a15050610cef565b600081815260066020526040902080547fffffffffffffffffffffffffffffffffffffffffffffffffffffffffffffff001660011790555b610c1d8161071d60608501856136f2565b15610cec57600080610c3260208501856134ff565b73ffffffffffffffffffffffffffffffffffffffff16610c5560208601866136f2565b604051610c639291906138fb565b6000604051808303816000865af19150503d8060008114610ca0576040519150601f19603f3d011682016040523d82523d6000602084013e610ca5565b606091505b509150915081610ce9577fdc8cdd96296241bbefda4a8e18ad2e0985a8da6495b34d409cfc4c886ee3b0cf8582604051610ce0929190613979565b60405180910390a15b50505b50505b610cf8816139c9565b9050610aef565b50505050565b817f74845de37cfabd357633214b47fa91ccd19b05b7c5a08ac22c187f811fb62bca811480610d5357507f4270fae16c6d150d00e80b689daca99e8073b1838ff2b6063a37be9d851283e481145b80610d7d57507f724aface199fe5bed93ae8508474576a9adf3dc443b2c451842a2242919f19de81145b15610df057303314610deb576040517f08c379a000000000000000000000000000000000000000000000000000000000815260206004820152601d60248201527f56657269666965723a2063616c6c6572206d7573742062652073656c66000000604482015260640161097c565b610ea2565b7fa49807205ce4d355092ef5a8a18f56e8913cf4a201fbe287825b095693c217758103610e4057610deb7fa49807205ce4d355092ef5a8a18f56e8913cf4a201fbe287825b095693c217756126af565b6040517f08c379a000000000000000000000000000000000000000000000000000000000815260206004820152601660248201527f56657269666965723a20696e76616c696420726f6c6500000000000000000000604482015260640161097c565b610eac83836127a2565b505050565b73ffffffffffffffffffffffffffffffffffffffff831660009081527f93c430521711328044ae92d0f1f1286cf040bc4a382f1642bd89984e866305536020526040812054849060ff1615610f62576040517f08c379a000000000000000000000000000000000000000000000000000000000815260206004820152601360248201527f576f726b65723a206e6f7420616c6c6f77656400000000000000000000000000604482015260640161097c565b60015474010000000000000000000000000000000000000000900467ffffffffffffffff161580610fd7575073ffffffffffffffffffffffffffffffffffffffff811660009081527f4ac82e3087b7dedf7f532cbc6915c722df8c1e31f1388c318a617b52760eaf8b602052604090205460ff165b15611105576040805160c08101825260025473ffffffffffffffffffffffffffffffffffffffff908116825263ffffffff8a16602080840182905267ffffffffffffffff808c16858701528a8416606086015260048054680100000000000000009004909116608086015260015461ffff7c010000000000000000000000000000000000000000000000000000000082041660a0870152600093845260059092529185902094517f7bfa20a90000000000000000000000000000000000000000000000000000000081529394921692637bfa20a9926110bc9286928b918b9101613a01565b602060405180830381865afa1580156110d9573d6000803e3d6000fd5b505050506040513d601f19601f820116820180604052508101906110fd9190613ace565b925050611167565b6040517f08c379a000000000000000000000000000000000000000000000000000000000815260206004820152601360248201527f576f726b65723a206e6f7420616c6c6f77656400000000000000000000000000604482015260640161097c565b5095945050505050565b3033146111da576040517f08c379a000000000000000000000000000000000000000000000000000000000815260206004820152601d60248201527f56657269666965723a2063616c6c6572206d7573742062652073656c66000000604482015260640161097c565b6111e48282612867565b5050565b6040517f08c379a000000000000000000000000000000000000000000000000000000000815260206004820152601c60248201527f576f726b65723a2063616e6e6f742072656e6f756e636520726f6c6500000000604482015260640161097c565b7fa49807205ce4d355092ef5a8a18f56e8913cf4a201fbe287825b095693c21775611274816126af565b60005b828110156113df573684848381811061129257611292613685565b905060800201905060405180606001604052808260200160208101906112b8919061351c565b67ffffffffffffffff1681526020016112d760608401604085016135c2565b61ffff1681526020016112f06080840160608501613b07565b6fffffffffffffffffffffffffffffffff169052600560006113156020850185613537565b63ffffffff1681526020808201929092526040908101600020835181549385015194909201516fffffffffffffffffffffffffffffffff166a0100000000000000000000027fffffffffffff00000000000000000000000000000000ffffffffffffffffffff61ffff90951668010000000000000000027fffffffffffffffffffffffffffffffffffffffffffff0000000000000000000090941667ffffffffffffffff909316929092179290921792909216919091179055506113d8816139c9565b9050611277565b507f7dd21e42791b013d1929e86f0c59085e4fca24251f0f1aa81917b3b1611766e08383604051611411929190613b22565b60405180910390a1505050565b73ffffffffffffffffffffffffffffffffffffffff811660009081527f93c430521711328044ae92d0f1f1286cf040bc4a382f1642bd89984e866305536020526040812054829060ff16156114cf576040517f08c379a000000000000000000000000000000000000000000000000000000000815260206004820152601360248201527f576f726b65723a206e6f7420616c6c6f77656400000000000000000000000000604482015260640161097c565b60015474010000000000000000000000000000000000000000900467ffffffffffffffff161580611544575073ffffffffffffffffffffffffffffffffffffffff811660009081527f4ac82e3087b7dedf7f532cbc6915c722df8c1e31f1388c318a617b52760eaf8b602052604090205460ff165b15611105576040805160c08101825260025473ffffffffffffffffffffffffffffffffffffffff908116825261ffff808a16602080850182905267ffffffffffffffff808b168688015289851660608701526004805468010000000000000000900490911660808701526001547c0100000000000000000000000000000000000000000000000000000000810490941660a08701526000928352600582528683208751928301885292825295517f7bfa20a900000000000000000000000000000000000000000000000000000000815294959290931693637bfa20a99361162e9387939201613bc0565b602060405180830381865afa15801561164b573d6000803e3d6000fd5b505050506040513d601f19601f8201168201806040525081019061166f9190613ace565b979650505050505050565b7fa49807205ce4d355092ef5a8a18f56e8913cf4a201fbe287825b095693c217756116a4816126af565b600280547fffffffffffffffffffffffff00000000000000000000000000000000000000001673ffffffffffffffffffffffffffffffffffffffff84169081179091556040519081527ff724a45d041687842411f2b977ef22ab8f43c8f1104f4592b42a00f9b34a643d906020015b60405180910390a15050565b303314611788576040517f08c379a000000000000000000000000000000000000000000000000000000000815260206004820152601d60248201527f56657269666965723a2063616c6c6572206d7573742062652073656c66000000604482015260640161097c565b61179181612ad1565b50565b3033146117fd576040517f08c379a000000000000000000000000000000000000000000000000000000000815260206004820152601d60248201527f56657269666965723a2063616c6c6572206d7573742062652073656c66000000604482015260640161097c565b73ffffffffffffffffffffffffffffffffffffffff851660009081527f9b50f4667d2d24216ccbf0dce3a90c0f620fa4d895e7b069d80ff6247fd25620602052604090205460ff166118ab576040517f08c379a000000000000000000000000000000000000000000000000000000000815260206004820152601560248201527f56657269666965723a20696e76616c696420756c6e0000000000000000000000604482015260640161097c565b6040517f0223536e00000000000000000000000000000000000000000000000000000000815273ffffffffffffffffffffffffffffffffffffffff861690630223536e90611903908790879087908790600401613c96565b600060405180830381600087803b15801561191d57600080fd5b505af1158015611931573d6000803e3d6000fd5b506001925061193e915050565b6040517f7c0cf76300000000000000000000000000000000000000000000000000000000815273ffffffffffffffffffffffffffffffffffffffff871690637c0cf7639061199490889088908890600401613cfa565b602060405180830381865afa1580156119b1573d6000803e3d6000fd5b505050506040513d601f19601f820116820180604052508101906119d59190613d1e565b60038111156119e6576119e6613ccb565b03611a74576040517f5ed31c5900000000000000000000000000000000000000000000000000000000815273ffffffffffffffffffffffffffffffffffffffff861690635ed31c5990611a4190879087908790600401613cfa565b600060405180830381600087803b158015611a5b57600080fd5b505af1158015611a6f573d6000803e3d6000fd5b505050505b5050505050565b7fa49807205ce4d355092ef5a8a18f56e8913cf4a201fbe287825b095693c21775611aa5816126af565b600180547fffff0000ffffffffffffffffffffffffffffffffffffffffffffffffffffffff167c010000000000000000000000000000000000000000000000000000000061ffff8516908102919091179091556040519081527f7af0ac740036ffb1c97b03697859d729e80a44ae5030543d64971c313565ab4d90602001611713565b60007f724aface199fe5bed93ae8508474576a9adf3dc443b2c451842a2242919f19de611b54816126af565b73ffffffffffffffffffffffffffffffffffffffff831660009081527f93c430521711328044ae92d0f1f1286cf040bc4a382f1642bd89984e866305536020526040902054839060ff1615611c05576040517f08c379a000000000000000000000000000000000000000000000000000000000815260206004820152601360248201527f576f726b65723a206e6f7420616c6c6f77656400000000000000000000000000604482015260640161097c565b60015474010000000000000000000000000000000000000000900467ffffffffffffffff161580611c7a575073ffffffffffffffffffffffffffffffffffffffff811660009081527f4ac82e3087b7dedf7f532cbc6915c722df8c1e31f1388c318a617b52760eaf8b602052604090205460ff165b15611105576040805160c08101825260025473ffffffffffffffffffffffffffffffffffffffff908116825261ffff808b16602080850182905267ffffffffffffffff808c16868801528a851660608701526004805468010000000000000000900490911660808701526001547c0100000000000000000000000000000000000000000000000000000000810490941660a08701526000838152600583528781208851938401895290835296517fdf2b057e0000000000000000000000000000000000000000000000000000000081529296939094169363df2b057e93611d65938793919201613bc0565b6020604051808303816000875af1158015611d84573d6000803e3d6000fd5b505050506040513d601f19601f82011682018060405250810190611da89190613ace565b6040805163ffffffff8516815273ffffffffffffffffffffffffffffffffffffffff8916602082015267ffffffffffffffff8a16818301526060810183905290519196507f2fc4e514b16a8f0f9f15009b848663b25939a33de41fa2b98a534b3ac4d5a572919081900360800190a150505050949350505050565b600454600090611e4a9068010000000000000000900467ffffffffffffffff166041613d3f565b821015611e5957506000612032565b6000611eb2856040517f19457468657265756d205369676e6564204d6573736167653a0a3332000000006020820152603c8101829052600090605c01604051602081830303815290604052805190602001209050919050565b90506000805b60045468010000000000000000900467ffffffffffffffff1681101561202a576000806000611f1e89898080601f016020809104026020016040519081016040528093929190818152602001838380828437600092019190915250889250612bdc915050565b925092509250600060018785858560405160008152602001604052604051611f62949392919093845260ff9290921660208401526040830152606082015260800190565b6020604051602081039080840390855afa158015611f84573d6000803e3d6000fd5b5050506020604051035190508573ffffffffffffffffffffffffffffffffffffffff168173ffffffffffffffffffffffffffffffffffffffff1611611fd3576000975050505050505050612032565b73ffffffffffffffffffffffffffffffffffffffff811660009081526003602052604090205460ff16612010576000975050505050505050612032565b809550505050508080612022906139c9565b915050611eb8565b506001925050505b9392505050565b7fa49807205ce4d355092ef5a8a18f56e8913cf4a201fbe287825b095693c21775612063816126af565b600180547fffffffffffffffffffffffff00000000000000000000000000000000000000001673ffffffffffffffffffffffffffffffffffffffff84169081179091556040519081527f1399be28223800f8669b3ba5f8721d9fc16fc4e8d0bbf98378791c8c5a3015e090602001611713565b817f74845de37cfabd357633214b47fa91ccd19b05b7c5a08ac22c187f811fb62bca81148061212457507f4270fae16c6d150d00e80b689daca99e8073b1838ff2b6063a37be9d851283e481145b8061214e57507f724aface199fe5bed93ae8508474576a9adf3dc443b2c451842a2242919f19de81145b156121c1573033146121bc576040517f08c379a000000000000000000000000000000000000000000000000000000000815260206004820152601d60248201527f56657269666965723a2063616c6c6572206d7573742062652073656c66000000604482015260640161097c565b612211565b7fa49807205ce4d355092ef5a8a18f56e8913cf4a201fbe287825b095693c217758103610e40576121bc7fa49807205ce4d355092ef5a8a18f56e8913cf4a201fbe287825b095693c217756126af565b610eac8383612bfa565b7fa49807205ce4d355092ef5a8a18f56e8913cf4a201fbe287825b095693c21775612245816126af565b73ffffffffffffffffffffffffffffffffffffffff841660009081527f9b50f4667d2d24216ccbf0dce3a90c0f620fa4d895e7b069d80ff6247fd25620602052604090205460ff166122f3576040517f08c379a000000000000000000000000000000000000000000000000000000000815260206004820152601d60248201527f56657269666965723a20496e76616c6964206d657373616765206c6962000000604482015260640161097c565b6040517f07b18bde00000000000000000000000000000000000000000000000000000000815273ffffffffffffffffffffffffffffffffffffffff8481166004830152602482018490528516906307b18bde90604401600060405180830381600087803b15801561236357600080fd5b505af1158015612377573d6000803e3d6000fd5b5050505050505050565b60007f724aface199fe5bed93ae8508474576a9adf3dc443b2c451842a2242919f19de6123ad816126af565b73ffffffffffffffffffffffffffffffffffffffff851660009081527f93c430521711328044ae92d0f1f1286cf040bc4a382f1642bd89984e866305536020526040902054859060ff161561245e576040517f08c379a000000000000000000000000000000000000000000000000000000000815260206004820152601360248201527f576f726b65723a206e6f7420616c6c6f77656400000000000000000000000000604482015260640161097c565b60015474010000000000000000000000000000000000000000900467ffffffffffffffff1615806124d3575073ffffffffffffffffffffffffffffffffffffffff811660009081527f4ac82e3087b7dedf7f532cbc6915c722df8c1e31f1388c318a617b52760eaf8b602052604090205460ff165b15611105576040805160c08101825260025473ffffffffffffffffffffffffffffffffffffffff908116825263ffffffff8b16602080840182905267ffffffffffffffff808d16858701528b8416606086015260048054680100000000000000009004909116608086015260015461ffff7c010000000000000000000000000000000000000000000000000000000082041660a0870152600093845260059092529185902094517fdf2b057e000000000000000000000000000000000000000000000000000000008152939492169263df2b057e926125b89286928c918c9101613a01565b6020604051808303816000875af11580156125d7573d6000803e3d6000fd5b505050506040513d601f19601f820116820180604052508101906125fb9190613ace565b6040805163ffffffff8c16815273ffffffffffffffffffffffffffffffffffffffff8a16602082015267ffffffffffffffff8b16818301526060810183905290519195507f2fc4e514b16a8f0f9f15009b848663b25939a33de41fa2b98a534b3ac4d5a572919081900360800190a150505095945050505050565b60008482858560405160200161268f9493929190613d56565b604051602081830303815290604052805190602001209050949350505050565b6117918133612cbe565b60007fffffffff0000000000000000000000000000000000000000000000000000000082167f0223536e000000000000000000000000000000000000000000000000000000001480159061274f57507fffffffff0000000000000000000000000000000000000000000000000000000082167fb724b1330000000000000000000000000000000000000000000000000000000014155b80156108a257507fffffffff0000000000000000000000000000000000000000000000000000000082167f704316e500000000000000000000000000000000000000000000000000000000141592915050565b7f74845de37cfabd357633214b47fa91ccd19b05b7c5a08ac22c187f811fb62bca821480156127ff575060008281526020818152604080832073ffffffffffffffffffffffffffffffffffffffff8516845290915290205460ff16155b1561285d57600180546014906128369074010000000000000000000000000000000000000000900467ffffffffffffffff16613d9c565b91906101000a81548167ffffffffffffffff021916908367ffffffffffffffff1602179055505b6111e48282612d76565b73ffffffffffffffffffffffffffffffffffffffff821660009081526003602052604090205481151560ff909116151503612924576040517f08c379a000000000000000000000000000000000000000000000000000000000815260206004820152602660248201527f4d756c74695369673a207369676e657220616c726561647920696e207468617460448201527f2073746174650000000000000000000000000000000000000000000000000000606482015260840161097c565b73ffffffffffffffffffffffffffffffffffffffff8216600090815260036020526040902080547fffffffffffffffffffffffffffffffffffffffffffffffffffffffffffffff001682151517905580612996576004546129919060019067ffffffffffffffff16613dc3565b6129ae565b6004546129ae9067ffffffffffffffff166001613deb565b600480547fffffffffffffffffffffffffffffffffffffffffffffffff00000000000000001667ffffffffffffffff92831690811791829055680100000000000000009091049091161115612a84576040517f08c379a0000000000000000000000000000000000000000000000000000000008152602060048201526024808201527f4d756c74695369673a20636f6d6d69747465652073697a65203c20746872657360448201527f686f6c6400000000000000000000000000000000000000000000000000000000606482015260840161097c565b6040805173ffffffffffffffffffffffffffffffffffffffff8416815282151560208201527f863d338cad74814b108a06288ad5e0e80d56495e0332238b1d2cdcfa0ca8e5ce9101611713565b60045467ffffffffffffffff90811690821611801590612afb575060008167ffffffffffffffff16115b612b61576040517f08c379a000000000000000000000000000000000000000000000000000000000815260206004820152601860248201527f4d756c74695369673a20696e76616c69642071756f72756d0000000000000000604482015260640161097c565b600480547fffffffffffffffffffffffffffffffff0000000000000000ffffffffffffffff166801000000000000000067ffffffffffffffff8416908102919091179091556040519081527fb600f3cf7f38a4b49bb0c75f722ef69f7e3e39ef3bb4aa8207fd86e724a232499060200160405180910390a150565b60419081029190910160208101516040820151919092015160ff1692565b7f74845de37cfabd357633214b47fa91ccd19b05b7c5a08ac22c187f811fb62bca82148015612c56575060008281526020818152604080832073ffffffffffffffffffffffffffffffffffffffff8516845290915290205460ff165b15612cb45760018054601490612c8d9074010000000000000000000000000000000000000000900467ffffffffffffffff16613e0c565b91906101000a81548167ffffffffffffffff021916908367ffffffffffffffff1602179055505b6111e48282612e66565b60008281526020818152604080832073ffffffffffffffffffffffffffffffffffffffff8516845290915290205460ff166111e457612cfc81612f1d565b612d07836020612f3c565b604051602001612d18929190613e4e565b604080517fffffffffffffffffffffffffffffffffffffffffffffffffffffffffffffffe0818403018152908290527f08c379a000000000000000000000000000000000000000000000000000000000825261097c91600401613ecf565b60008281526020818152604080832073ffffffffffffffffffffffffffffffffffffffff8516845290915290205460ff166111e45760008281526020818152604080832073ffffffffffffffffffffffffffffffffffffffff85168452909152902080547fffffffffffffffffffffffffffffffffffffffffffffffffffffffffffffff00166001179055612e083390565b73ffffffffffffffffffffffffffffffffffffffff168173ffffffffffffffffffffffffffffffffffffffff16837f2f8788117e7eff1d82e926ec794901d17c78024a50270940304540a733656f0d60405160405180910390a45050565b60008281526020818152604080832073ffffffffffffffffffffffffffffffffffffffff8516845290915290205460ff16156111e45760008281526020818152604080832073ffffffffffffffffffffffffffffffffffffffff8516808552925280832080547fffffffffffffffffffffffffffffffffffffffffffffffffffffffffffffff0016905551339285917ff6391f5c32d9c69d2a47ea670b442974b53935d1edc7fd64eb21e047a839171b9190a45050565b60606108a273ffffffffffffffffffffffffffffffffffffffff831660145b60606000612f4b836002613d3f565b612f56906002613ee2565b67ffffffffffffffff811115612f6e57612f6e613ef5565b6040519080825280601f01601f191660200182016040528015612f98576020820181803683370190505b5090507f300000000000000000000000000000000000000000000000000000000000000081600081518110612fcf57612fcf613685565b60200101907effffffffffffffffffffffffffffffffffffffffffffffffffffffffffffff1916908160001a9053507f78000000000000000000000000000000000000000000000000000000000000008160018151811061303257613032613685565b60200101907effffffffffffffffffffffffffffffffffffffffffffffffffffffffffffff1916908160001a905350600061306e846002613d3f565b613079906001613ee2565b90505b6001811115613116577f303132333435363738396162636465660000000000000000000000000000000085600f16601081106130ba576130ba613685565b1a60f81b8282815181106130d0576130d0613685565b60200101907effffffffffffffffffffffffffffffffffffffffffffffffffffffffffffff1916908160001a90535060049490941c9361310f81613f24565b905061307c565b508315612032576040517f08c379a000000000000000000000000000000000000000000000000000000000815260206004820181905260248201527f537472696e67733a20686578206c656e67746820696e73756666696369656e74604482015260640161097c565b60006020828403121561319157600080fd5b81357fffffffff000000000000000000000000000000000000000000000000000000008116811461203257600080fd5b73ffffffffffffffffffffffffffffffffffffffff8116811461179157600080fd5b6000806000606084860312156131f857600080fd5b8335613203816131c1565b92506020840135613213816131c1565b929592945050506040919091013590565b8035801515811461323457600080fd5b919050565b60006020828403121561324b57600080fd5b61203282613224565b60006020828403121561326657600080fd5b5035919050565b6000806020838503121561328057600080fd5b823567ffffffffffffffff8082111561329857600080fd5b818501915085601f8301126132ac57600080fd5b8135818111156132bb57600080fd5b8660208260051b85010111156132d057600080fd5b60209290920196919550909350505050565b600080604083850312156132f557600080fd5b823591506020830135613307816131c1565b809150509250929050565b803563ffffffff8116811461323457600080fd5b803567ffffffffffffffff8116811461323457600080fd5b60008083601f84011261335057600080fd5b50813567ffffffffffffffff81111561336857600080fd5b60208301915083602082850101111561338057600080fd5b9250929050565b60008060008060006080868803121561339f57600080fd5b6133a886613312565b94506133b660208701613326565b935060408601356133c6816131c1565b9250606086013567ffffffffffffffff8111156133e257600080fd5b6133ee8882890161333e565b969995985093965092949392505050565b6000806040838503121561341257600080fd5b823561341d816131c1565b915061342b60208401613224565b90509250929050565b6000806020838503121561344757600080fd5b823567ffffffffffffffff8082111561345f57600080fd5b818501915085601f83011261347357600080fd5b81358181111561348257600080fd5b8660208260071b85010111156132d057600080fd5b803561ffff8116811461323457600080fd5b600080600080608085870312156134bf57600080fd5b6134c885613497565b93506134d660208601613497565b92506134e460408601613326565b915060608501356134f4816131c1565b939692955090935050565b60006020828403121561351157600080fd5b8135612032816131c1565b60006020828403121561352e57600080fd5b61203282613326565b60006020828403121561354957600080fd5b61203282613312565b60008060008060006080868803121561356a57600080fd5b8535613575816131c1565b9450602086013567ffffffffffffffff81111561359157600080fd5b61359d8882890161333e565b909550935050604086013591506135b660608701613326565b90509295509295909350565b6000602082840312156135d457600080fd5b61203282613497565b6000806000604084860312156135f257600080fd5b83359250602084013567ffffffffffffffff81111561361057600080fd5b61361c8682870161333e565b9497909650939450505050565b6000806000806060858703121561363f57600080fd5b843561364a816131c1565b9350602085013567ffffffffffffffff81111561366657600080fd5b6136728782880161333e565b9598909750949560400135949350505050565b7f4e487b7100000000000000000000000000000000000000000000000000000000600052603260045260246000fd5b600082357fffffffffffffffffffffffffffffffffffffffffffffffffffffffffffffff818336030181126136e857600080fd5b9190910192915050565b60008083357fffffffffffffffffffffffffffffffffffffffffffffffffffffffffffffffe184360301811261372757600080fd5b83018035915067ffffffffffffffff82111561374257600080fd5b60200191503681900382131561338057600080fd5b7fffffffff0000000000000000000000000000000000000000000000000000000081358181169160048510156137975780818660040360031b1b83161692505b505092915050565b60008083357fffffffffffffffffffffffffffffffffffffffffffffffffffffffffffffffe18436030181126137d457600080fd5b830160208101925035905067ffffffffffffffff8111156137f457600080fd5b80360382131561338057600080fd5b8183528181602085013750600060208284010152600060207fffffffffffffffffffffffffffffffffffffffffffffffffffffffffffffffe0601f840116840101905092915050565b604081526000833561385d816131c1565b73ffffffffffffffffffffffffffffffffffffffff166040830152613885602085018561379f565b6080606085015261389a60c085018284613803565b915050604085013560808401526138b4606086018661379f565b7fffffffffffffffffffffffffffffffffffffffffffffffffffffffffffffffc08584030160a08601526138e9838284613803565b93505050508260208301529392505050565b8183823760009101908152919050565b60005b8381101561392657818101518382015260200161390e565b50506000910152565b6000815180845261394781602086016020860161390b565b601f017fffffffffffffffffffffffffffffffffffffffffffffffffffffffffffffffe0169290920160200192915050565b828152604060208201526000613992604083018461392f565b949350505050565b7f4e487b7100000000000000000000000000000000000000000000000000000000600052601160045260246000fd5b60007fffffffffffffffffffffffffffffffffffffffffffffffffffffffffffffffff82036139fa576139fa61399a565b5060010190565b6000610140613a79838873ffffffffffffffffffffffffffffffffffffffff80825116835263ffffffff6020830151166020840152604082015167ffffffffffffffff808216604086015282606085015116606086015280608085015116608086015250505061ffff60a08201511660a08301525050565b613aba60c08401875467ffffffffffffffff81168252604081811c61ffff16602084015260509190911c6fffffffffffffffffffffffffffffffff16910152565b8061012084015261166f8184018587613803565b600060208284031215613ae057600080fd5b5051919050565b80356fffffffffffffffffffffffffffffffff8116811461323457600080fd5b600060208284031215613b1957600080fd5b61203282613ae7565b6020808252818101839052600090604080840186845b87811015613bb35763ffffffff613b4e83613312565b16835267ffffffffffffffff613b65868401613326565b168584015261ffff613b78858401613497565b168484015260606fffffffffffffffffffffffffffffffff613b9b828501613ae7565b16908401526080928301929190910190600101613b38565b5090979650505050505050565b6000610140613c38838773ffffffffffffffffffffffffffffffffffffffff80825116835263ffffffff6020830151166020840152604082015167ffffffffffffffff808216604086015282606085015116606086015280608085015116608086015250505061ffff60a08201511660a08301525050565b613c7960c08401865467ffffffffffffffff81168252604081811c61ffff16602084015260509190911c6fffffffffffffffffffffffffffffffff16910152565b80610120840152613c8c8184018561392f565b9695505050505050565b606081526000613caa606083018688613803565b905083602083015267ffffffffffffffff8316604083015295945050505050565b7f4e487b7100000000000000000000000000000000000000000000000000000000600052602160045260246000fd5b604081526000613d0e604083018587613803565b9050826020830152949350505050565b600060208284031215613d3057600080fd5b81516004811061203257600080fd5b80820281158282048414176108a2576108a261399a565b7fffffffffffffffffffffffffffffffffffffffff0000000000000000000000008560601b16815283601482015281836034830137600091016034019081529392505050565b600067ffffffffffffffff808316818103613db957613db961399a565b6001019392505050565b67ffffffffffffffff828116828216039080821115613de457613de461399a565b5092915050565b67ffffffffffffffff818116838216019080821115613de457613de461399a565b600067ffffffffffffffff821680613e2657613e2661399a565b7fffffffffffffffffffffffffffffffffffffffffffffffffffffffffffffffff0192915050565b7f416363657373436f6e74726f6c3a206163636f756e7420000000000000000000815260008351613e8681601785016020880161390b565b7f206973206d697373696e6720726f6c65200000000000000000000000000000006017918401918201528351613ec381602884016020880161390b565b01602801949350505050565b602081526000612032602083018461392f565b808201808211156108a2576108a261399a565b7f4e487b7100000000000000000000000000000000000000000000000000000000600052604160045260246000fd5b600081613f3357613f3361399a565b507fffffffffffffffffffffffffffffffffffffffffffffffffffffffffffffffff019056fea2646970667358221220bc695a5c9982d5ee84f109dacb8905ea40b0310ee8de48cafae38d0f679ac15564736f6c63430008130033",
  "devdoc": {
    "events": {
      "RoleAdminChanged(bytes32,bytes32,bytes32)": {
        "details": "Emitted when `newAdminRole` is set as ``role``'s admin role, replacing `previousAdminRole` `DEFAULT_ADMIN_ROLE` is the starting admin for all roles, despite {RoleAdminChanged} not being emitted signaling this. _Available since v3.1._"
      },
      "RoleGranted(bytes32,address,address)": {
        "details": "Emitted when `account` is granted `role`. `sender` is the account that originated the contract call, an admin role bearer except when using {AccessControl-_setupRole}."
      },
      "RoleRevoked(bytes32,address,address)": {
        "details": "Emitted when `account` is revoked `role`. `sender` is the account that originated the contract call:   - if using `revokeRole`, it is the admin role bearer   - if using `renounceRole`, it is the role bearer (i.e. `account`)"
      }
    },
    "kind": "dev",
    "methods": {
      "assignJob(uint16,uint16,uint64,address)": {
        "details": "to support ULNv2verifier network can reject job from _sender by adding/removing them from allowlist/denylist",
        "params": {
          "": "//_outboundProofType outbound proof type",
          "_confirmations": "block confirmations",
          "_dstEid": "destination EndpointId",
          "_sender": "message sender address"
        }
      },
      "assignJob(uint32,uint64,address,bytes)": {
        "details": "for ULN301, ULN302 and more to assign jobverifier network can reject job from _sender by adding/removing them from allowlist/denylist",
        "params": {
          "_confirmations": "block confirmations",
          "_dstEid": "destination EndpointId",
          "_options": "verifier options",
          "_sender": "message sender address"
        }
      },
      "constructor": {
        "details": "VerifierNetwork doesn't have a roleAdmin (address(0x0))Supports all of ULNv2, ULN301, ULN302 and more",
        "params": {
          "_admins": "array of admin addresses that are granted the ADMIN_ROLE",
          "_messageLibs": "array of message lib addresses that are granted the MESSAGE_LIB_ROLE",
          "_priceFeed": "price feed address",
          "_quorum": "quorum for multisig",
          "_signers": "array of signer addresses for multisig"
        }
      },
      "execute((address,bytes,uint256,bytes)[])": {
        "details": "takes a list of instructions and executes them in orderif any of the instructions fail, it will emit an error event and continue to execute the rest of the instructions",
        "params": {
          "_params": "array of ExecuteParam, includes target, callData, expiration, signatures"
        }
      },
      "getFee(uint16,uint16,uint64,address)": {
        "details": "to support ULNv2getFee can revert if _sender doesn't pass ACL",
        "params": {
          "": "//_outboundProofType outbound proof type",
          "_confirmations": "block confirmations",
          "_dstEid": "destination EndpointId",
          "_sender": "message sender address"
        }
      },
      "getFee(uint32,uint64,address,bytes)": {
        "details": "getFee can revert if _sender doesn't pass ACL",
        "params": {
          "_confirmations": "block confirmations",
          "_dstEid": "destination EndpointId",
          "_options": "verifier options",
          "_sender": "message sender address"
        },
        "returns": {
          "fee": "fee in native amount"
        }
      },
      "getRoleAdmin(bytes32)": {
        "details": "Returns the admin role that controls `role`. See {grantRole} and {revokeRole}. To change a role's admin, use {_setRoleAdmin}."
      },
      "grantRole(bytes32,address)": {
        "details": "overrides AccessControl to allow self/admin to grant role'",
        "params": {
          "_account": "account to grant role to",
          "_role": "role to grant"
        }
      },
      "hasRole(bytes32,address)": {
        "details": "Returns `true` if `account` has been granted `role`."
      },
      "hashCallData(address,bytes,uint256)": {
        "params": {
          "_callData": "call data",
          "_expiration": "expiration timestamp",
          "_target": "target address"
        },
        "returns": {
          "_0": "hash of above"
        }
      },
      "renounceRole(bytes32,address)": {
        "details": "overrides AccessControl to disable renouncing of roles"
      },
      "revokeRole(bytes32,address)": {
        "details": "overrides AccessControl to allow self/admin to revoke role",
        "params": {
          "_account": "account to revoke role from",
          "_role": "role to revoke"
        }
      },
      "setDefaultMultiplierBps(uint16)": {
        "params": {
          "_multiplierBps": "default multiplier for worker fee"
        }
      },
      "setDstConfig((uint32,uint64,uint16,uint128)[])": {
        "params": {
          "_params": "array of DstConfigParam"
        }
      },
      "setPaused(bool)": {
        "details": "flag to pause execution of workers (if used with whenNotPaused modifier)",
        "params": {
          "_paused": "true to pause, false to unpause"
        }
      },
      "setPriceFeed(address)": {
        "params": {
          "_priceFeed": "price feed address"
        }
      },
      "setQuorum(uint64)": {
        "details": "set quorum for multisig",
        "params": {
          "_quorum": "to set"
        }
      },
      "setSigner(address,bool)": {
        "details": "set signers for multisig",
        "params": {
          "_active": "true to add, false to remove",
          "_signer": "signer address"
        }
      },
      "setWorkerFeeLib(address)": {
        "params": {
          "_workerFeeLib": "worker fee lib address"
        }
      },
      "supportsInterface(bytes4)": {
        "details": "See {IERC165-supportsInterface}."
      },
      "verifyAndDeliver(address,bytes,bytes32,uint64)": {
        "details": "one function to verify and deliver to ULN302 and more (does not support ULN301)",
        "params": {
          "_confirmations": "block confirmations",
          "_packetHeader": "packet header",
          "_payloadHash": "payload hash",
          "_uln": "IUltraLightNode compatible contract"
        }
      },
      "withdrawFee(address,address,uint256)": {
        "details": "supports withdrawing fee from ULN301, ULN302 and more",
        "params": {
          "_amount": "amount to withdraw",
          "_lib": "message lib address",
          "_to": "address to withdraw fee to"
        }
      },
      "withdrawFeeFromUlnV2(address,address,uint256)": {
        "details": "to support ULNv2",
        "params": {
          "_amount": "amount to withdraw",
          "_lib": "message lib address",
          "_to": "address to withdraw to"
        }
      }
    },
    "version": 1
  },
  "userdoc": {
    "kind": "user",
    "methods": {},
    "version": 1
  },
  "storageLayout": {
    "storage": [
      {
        "astId": 4798,
        "contract": "contracts/uln/VerifierNetwork.sol:VerifierNetwork",
        "label": "_roles",
        "offset": 0,
        "slot": "0",
        "type": "t_mapping(t_bytes32,t_struct(RoleData)4793_storage)"
      },
      {
        "astId": 12738,
        "contract": "contracts/uln/VerifierNetwork.sol:VerifierNetwork",
        "label": "workerFeeLib",
        "offset": 0,
        "slot": "1",
        "type": "t_address"
      },
      {
        "astId": 12740,
        "contract": "contracts/uln/VerifierNetwork.sol:VerifierNetwork",
        "label": "allowlistSize",
        "offset": 20,
        "slot": "1",
        "type": "t_uint64"
      },
      {
        "astId": 12742,
        "contract": "contracts/uln/VerifierNetwork.sol:VerifierNetwork",
        "label": "defaultMultiplierBps",
        "offset": 28,
        "slot": "1",
        "type": "t_uint16"
      },
      {
        "astId": 12744,
        "contract": "contracts/uln/VerifierNetwork.sol:VerifierNetwork",
        "label": "priceFeed",
        "offset": 0,
        "slot": "2",
        "type": "t_address"
      },
      {
        "astId": 12746,
        "contract": "contracts/uln/VerifierNetwork.sol:VerifierNetwork",
        "label": "paused",
        "offset": 20,
        "slot": "2",
        "type": "t_bool"
      },
      {
        "astId": 13369,
        "contract": "contracts/uln/VerifierNetwork.sol:VerifierNetwork",
        "label": "signers",
        "offset": 0,
        "slot": "3",
        "type": "t_mapping(t_address,t_bool)"
      },
      {
        "astId": 13371,
        "contract": "contracts/uln/VerifierNetwork.sol:VerifierNetwork",
        "label": "signerSize",
        "offset": 0,
        "slot": "4",
        "type": "t_uint64"
      },
      {
        "astId": 13373,
        "contract": "contracts/uln/VerifierNetwork.sol:VerifierNetwork",
        "label": "quorum",
        "offset": 8,
        "slot": "4",
        "type": "t_uint64"
      },
      {
        "astId": 15704,
        "contract": "contracts/uln/VerifierNetwork.sol:VerifierNetwork",
        "label": "dstConfig",
        "offset": 0,
        "slot": "5",
        "type": "t_mapping(t_uint32,t_struct(DstConfig)16590_storage)"
      },
      {
        "astId": 15708,
        "contract": "contracts/uln/VerifierNetwork.sol:VerifierNetwork",
        "label": "usedHashes",
        "offset": 0,
        "slot": "6",
        "type": "t_mapping(t_bytes32,t_bool)"
      }
    ],
    "types": {
      "t_address": {
        "encoding": "inplace",
        "label": "address",
        "numberOfBytes": "20"
      },
      "t_bool": {
        "encoding": "inplace",
        "label": "bool",
        "numberOfBytes": "1"
      },
      "t_bytes32": {
        "encoding": "inplace",
        "label": "bytes32",
        "numberOfBytes": "32"
      },
      "t_mapping(t_address,t_bool)": {
        "encoding": "mapping",
        "key": "t_address",
        "label": "mapping(address => bool)",
        "numberOfBytes": "32",
        "value": "t_bool"
      },
      "t_mapping(t_bytes32,t_bool)": {
        "encoding": "mapping",
        "key": "t_bytes32",
        "label": "mapping(bytes32 => bool)",
        "numberOfBytes": "32",
        "value": "t_bool"
      },
      "t_mapping(t_bytes32,t_struct(RoleData)4793_storage)": {
        "encoding": "mapping",
        "key": "t_bytes32",
        "label": "mapping(bytes32 => struct AccessControl.RoleData)",
        "numberOfBytes": "32",
        "value": "t_struct(RoleData)4793_storage"
      },
      "t_mapping(t_uint32,t_struct(DstConfig)16590_storage)": {
        "encoding": "mapping",
        "key": "t_uint32",
        "label": "mapping(uint32 => struct IVerifier.DstConfig)",
        "numberOfBytes": "32",
        "value": "t_struct(DstConfig)16590_storage"
      },
      "t_struct(DstConfig)16590_storage": {
        "encoding": "inplace",
        "label": "struct IVerifier.DstConfig",
        "members": [
          {
            "astId": 16585,
            "contract": "contracts/uln/VerifierNetwork.sol:VerifierNetwork",
            "label": "gas",
            "offset": 0,
            "slot": "0",
            "type": "t_uint64"
          },
          {
            "astId": 16587,
            "contract": "contracts/uln/VerifierNetwork.sol:VerifierNetwork",
            "label": "multiplierBps",
            "offset": 8,
            "slot": "0",
            "type": "t_uint16"
          },
          {
            "astId": 16589,
            "contract": "contracts/uln/VerifierNetwork.sol:VerifierNetwork",
            "label": "floorMarginUSD",
            "offset": 10,
            "slot": "0",
            "type": "t_uint128"
          }
        ],
        "numberOfBytes": "32"
      },
      "t_struct(RoleData)4793_storage": {
        "encoding": "inplace",
        "label": "struct AccessControl.RoleData",
        "members": [
          {
            "astId": 4790,
            "contract": "contracts/uln/VerifierNetwork.sol:VerifierNetwork",
            "label": "members",
            "offset": 0,
            "slot": "0",
            "type": "t_mapping(t_address,t_bool)"
          },
          {
            "astId": 4792,
            "contract": "contracts/uln/VerifierNetwork.sol:VerifierNetwork",
            "label": "adminRole",
            "offset": 0,
            "slot": "1",
            "type": "t_bytes32"
          }
        ],
        "numberOfBytes": "64"
      },
      "t_uint128": {
        "encoding": "inplace",
        "label": "uint128",
        "numberOfBytes": "16"
      },
      "t_uint16": {
        "encoding": "inplace",
        "label": "uint16",
        "numberOfBytes": "2"
      },
      "t_uint32": {
        "encoding": "inplace",
        "label": "uint32",
        "numberOfBytes": "4"
      },
      "t_uint64": {
        "encoding": "inplace",
        "label": "uint64",
        "numberOfBytes": "8"
      }
    }
  }
}